{
  "_format": "hh-sol-artifact-1",
  "contractName": "OwnableNFTDelegationRegistry",
  "sourceName": "contracts/token/utils/OwnableNFTDelegationRegistry.sol",
  "abi": [
    {
      "inputs": [],
      "stateMutability": "nonpayable",
      "type": "constructor"
    },
    {
      "anonymous": false,
      "inputs": [
        {
          "indexed": false,
          "internalType": "address",
          "name": "owner",
          "type": "address"
        },
        {
          "indexed": false,
          "internalType": "address",
          "name": "user",
          "type": "address"
        },
        {
          "indexed": false,
          "internalType": "address",
          "name": "nftContract",
          "type": "address"
        },
        {
          "indexed": false,
          "internalType": "uint256[]",
          "name": "tokenIds",
          "type": "uint256[]"
        },
        {
          "indexed": false,
          "internalType": "contract INFTDelegationManager",
          "name": "delegationManager",
          "type": "address"
        },
        {
          "indexed": false,
          "internalType": "bytes",
          "name": "data",
          "type": "bytes"
        }
      ],
      "name": "BatchDelegation",
      "type": "event"
    },
    {
      "anonymous": false,
      "inputs": [
        {
          "indexed": true,
          "internalType": "address",
          "name": "previousOwner",
          "type": "address"
        },
        {
          "indexed": true,
          "internalType": "address",
          "name": "newOwner",
          "type": "address"
        }
      ],
      "name": "OwnershipTransferred",
      "type": "event"
    },
    {
      "anonymous": false,
      "inputs": [
        {
          "indexed": false,
          "internalType": "address",
          "name": "owner",
          "type": "address"
        },
        {
          "indexed": false,
          "internalType": "address",
          "name": "user",
          "type": "address"
        },
        {
          "indexed": false,
          "internalType": "address",
          "name": "nftContract",
          "type": "address"
        },
        {
          "indexed": false,
          "internalType": "uint256",
          "name": "tokenId",
          "type": "uint256"
        },
        {
          "indexed": false,
          "internalType": "contract INFTDelegationManager",
          "name": "delegationManager",
          "type": "address"
        },
        {
          "indexed": false,
          "internalType": "bytes",
          "name": "data",
          "type": "bytes"
        }
      ],
      "name": "SingleDelegation",
      "type": "event"
    },
    {
      "inputs": [
        {
          "internalType": "address",
          "name": "nftContract",
          "type": "address"
        },
        {
          "internalType": "uint256",
          "name": "tokenId",
          "type": "uint256"
        }
      ],
      "name": "delegationInfo",
      "outputs": [
        {
          "internalType": "address",
          "name": "owner",
          "type": "address"
        },
        {
          "internalType": "address",
          "name": "user",
          "type": "address"
        },
        {
          "internalType": "bytes",
          "name": "data",
          "type": "bytes"
        }
      ],
      "stateMutability": "view",
      "type": "function"
    },
    {
      "inputs": [
        {
          "internalType": "address",
          "name": "",
          "type": "address"
        },
        {
          "internalType": "uint256",
          "name": "",
          "type": "uint256"
        }
      ],
      "name": "lastDelegationManagerUsed",
      "outputs": [
        {
          "internalType": "contract INFTDelegationManager",
          "name": "",
          "type": "address"
        }
      ],
      "stateMutability": "view",
      "type": "function"
    },
    {
      "inputs": [
        {
          "internalType": "address",
          "name": "owner",
          "type": "address"
        },
        {
          "internalType": "address",
          "name": "user",
          "type": "address"
        },
        {
          "internalType": "address",
          "name": "nftContract",
          "type": "address"
        },
        {
          "internalType": "uint256[]",
          "name": "tokenIds",
          "type": "uint256[]"
        },
        {
          "internalType": "bytes",
          "name": "data",
          "type": "bytes"
        }
      ],
      "name": "onBatchDelegation",
      "outputs": [],
      "stateMutability": "nonpayable",
      "type": "function"
    },
    {
      "inputs": [
        {
          "internalType": "address",
          "name": "owner",
          "type": "address"
        },
        {
          "internalType": "address",
          "name": "user",
          "type": "address"
        },
        {
          "internalType": "address",
          "name": "nftContract",
          "type": "address"
        },
        {
          "internalType": "uint256",
          "name": "tokenId",
          "type": "uint256"
        },
        {
          "internalType": "bytes",
          "name": "data",
          "type": "bytes"
        }
      ],
      "name": "onSingleDelegation",
      "outputs": [],
      "stateMutability": "nonpayable",
      "type": "function"
    },
    {
      "inputs": [],
      "name": "owner",
      "outputs": [
        {
          "internalType": "address",
          "name": "",
          "type": "address"
        }
      ],
      "stateMutability": "view",
      "type": "function"
    },
    {
      "inputs": [
        {
          "internalType": "address",
          "name": "nftContract",
          "type": "address"
        },
        {
          "internalType": "contract INFTDelegationManager",
          "name": "delegationManager",
          "type": "address"
        },
        {
          "internalType": "bool",
          "name": "registered",
          "type": "bool"
        }
      ],
      "name": "registerDelegationManager",
      "outputs": [],
      "stateMutability": "nonpayable",
      "type": "function"
    },
    {
      "inputs": [
        {
          "internalType": "address",
          "name": "",
          "type": "address"
        },
        {
          "internalType": "contract INFTDelegationManager",
          "name": "",
          "type": "address"
        }
      ],
      "name": "registeredDelegationManagers",
      "outputs": [
        {
          "internalType": "bool",
          "name": "",
          "type": "bool"
        }
      ],
      "stateMutability": "view",
      "type": "function"
    },
    {
      "inputs": [
        {
          "internalType": "address",
          "name": "newOwner",
          "type": "address"
        }
      ],
      "name": "transferOwnership",
      "outputs": [],
      "stateMutability": "nonpayable",
      "type": "function"
    }
  ],
  "bytecode": "0x608060405234801561001057600080fd5b50600280546001600160a01b0319163390811790915560405181906000907f8be0079c531659141344cd1fd0a4f28419497f9722a3daafe3b4186f6b6457e0908290a350610bf8806100636000396000f3fe608060405234801561001057600080fd5b50600436106100885760003560e01c80638b24f40f1161005b5780638b24f40f146102b05780638da5cb5b14610348578063bd44facd1461036c578063f2fde38b1461039857610088565b806320f06f671461008d57806340aeb123146101725780636ff13967146102365780638a8940c914610278575b600080fd5b610170600480360360a08110156100a357600080fd5b6001600160a01b03823581169260208101358216926040820135909216918101906080810160608201356401000000008111156100df57600080fd5b8201836020820111156100f157600080fd5b8035906020019184602083028401116401000000008311171561011357600080fd5b91939092909160208101903564010000000081111561013157600080fd5b82018360208201111561014357600080fd5b8035906020019184600183028401116401000000008311171561016557600080fd5b5090925090506103be565b005b61019e6004803603604081101561018857600080fd5b506001600160a01b038135169060200135610587565b60405180846001600160a01b03168152602001836001600160a01b0316815260200180602001828103825283818151815260200191508051906020019080838360005b838110156101f95781810151838201526020016101e1565b50505050905090810190601f1680156102265780820380516001836020036101000a031916815260200191505b5094505050505060405180910390f35b6102646004803603604081101561024c57600080fd5b506001600160a01b0381358116916020013516610749565b604080519115158252519081900360200190f35b6101706004803603606081101561028e57600080fd5b506001600160a01b038135811691602081013590911690604001351515610766565b610170600480360360a08110156102c657600080fd5b6001600160a01b03823581169260208101358216926040820135909216916060820135919081019060a08101608082013564010000000081111561030957600080fd5b82018360208201111561031b57600080fd5b8035906020019184600183028401116401000000008311171561033d57600080fd5b509092509050610817565b61035061097c565b604080516001600160a01b039092168252519081900360200190f35b6103506004803603604081101561038257600080fd5b506001600160a01b03813516906020013561098b565b610170600480360360208110156103ae57600080fd5b50356001600160a01b03166109b1565b6001600160a01b0385166000908152602081815260408083203380855292529091205460ff16610435576040805162461bcd60e51b815260206004820152600b60248201527f6e6f7420616c6c6f776564000000000000000000000000000000000000000000604482015290519081900360640190fd5b60005b8085146104a9576001600160a01b0387166000908152600160205260408120839188888581811061046557fe5b90506020020135815260200190815260200160002060006101000a8154816001600160a01b0302191690836001600160a01b03160217905550806001019050610438565b507f2cf34ff0b3486c195c55cfd823890bad7f46b24bee3af9ce7bcd005c9a2ff9fd888888888886898960405180896001600160a01b03168152602001886001600160a01b03168152602001876001600160a01b0316815260200180602001856001600160a01b03168152602001806020018381038352888882818152602001925060200280828437600083820152601f01601f191690910184810383528581526020019050858580828437600083820152604051601f909101601f19169092018290039c50909a5050505050505050505050a15050505050505050565b6001600160a01b038083166000908152600160209081526040808320858452909152812054909182916060911680158015906105e657506001600160a01b038087166000908152602081815260408083209385168352929052205460ff165b1561074157806001600160a01b03166340aeb12387876040518363ffffffff1660e01b815260040180836001600160a01b031681526020018281526020019250505060006040518083038186803b15801561064057600080fd5b505afa158015610654573d6000803e3d6000fd5b505050506040513d6000823e601f3d908101601f19168201604052606081101561067d57600080fd5b815160208301516040808501805191519395929483019291846401000000008211156106a857600080fd5b9083019060208201858111156106bd57600080fd5b82516401000000008111828201881017156106d757600080fd5b82525081516020918201929091019080838360005b838110156107045781810151838201526020016106ec565b50505050905090810190601f1680156107315780820380516001836020036101000a031916815260200191505b5060405250939750919550935050505b509250925092565b600060208181529281526040808220909352908152205460ff1681565b6107703384610a29565b6107c1576040805162461bcd60e51b815260206004820152600b60248201527f6e6f7420616c6c6f776564000000000000000000000000000000000000000000604482015290519081900360640190fd5b6001600160a01b039283166000908152602081815260408083209490951682529290925291902080547fffffffffffffffffffffffffffffffffffffffffffffffffffffffffffffff0016911515919091179055565b6001600160a01b0384166000908152602081815260408083203380855292529091205460ff1661088e576040805162461bcd60e51b815260206004820152600b60248201527f6e6f7420616c6c6f776564000000000000000000000000000000000000000000604482015290519081900360640190fd5b6001600160a01b03858116600081815260016020908152604080832089845282529182902080547fffffffffffffffffffffffff00000000000000000000000000000000000000001686861690811790915582518c86168152948b16918501919091529083019190915260608201869052608082015260c060a082018181529082018490527f9a8ac8cf3721cbc96481b6d2a816b83e713e1b5a3d4ed8271c4c5cfa5401cac791899189918991899187918a918a9160e08201848480828437600083820152604051601f909101601f19169092018290039a509098505050505050505050a150505050505050565b6002546001600160a01b031690565b60016020908152600092835260408084209091529082529020546001600160a01b031681565b6109c16109bc610a5f565b610a63565b600280547fffffffffffffffffffffffff0000000000000000000000000000000000000000166001600160a01b0383811691821792839055604051919216907f8be0079c531659141344cd1fd0a4f28419497f9722a3daafe3b4186f6b6457e090600090a350565b6000610a358383610b2a565b80610a585750610a4361097c565b6001600160a01b0316836001600160a01b0316145b9392505050565b3390565b306001600160a01b0316638da5cb5b6040518163ffffffff1660e01b815260040160206040518083038186803b158015610a9c57600080fd5b505afa158015610ab0573d6000803e3d6000fd5b505050506040513d6020811015610ac657600080fd5b50516001600160a01b03828116911614610b27576040805162461bcd60e51b815260206004820152601660248201527f4f776e61626c653a206e6f7420746865206f776e657200000000000000000000604482015290519081900360640190fd5b50565b6000816001600160a01b0316836001600160a01b03161480610a585750816001600160a01b0316638da5cb5b6040518163ffffffff1660e01b815260040160206040518083038186803b158015610b8057600080fd5b505afa158015610b94573d6000803e3d6000fd5b505050506040513d6020811015610baa57600080fd5b50516001600160a01b0384811691161490509291505056fea2646970667358221220bf1b9ebc7bf42db6ff5c6b8c5aefd8703033be46bf074eb178643f4561a8844864736f6c63430007060033",
  "linkReferences": {},
  "deployedLinkReferences": {}
}