{
  "_format": "hh-sol-artifact-1",
  "contractName": "ChildERC20Mock",
  "sourceName": "contracts/mocks/token/ERC20/ChildERC20Mock.sol",
  "abi": [
    {
      "inputs": [
        {
          "internalType": "address[]",
          "name": "recipients",
          "type": "address[]"
        },
        {
          "internalType": "uint256[]",
          "name": "values",
          "type": "uint256[]"
        },
        {
          "internalType": "address",
          "name": "childChainManager",
          "type": "address"
        },
        {
          "internalType": "contract IForwarderRegistry",
          "name": "forwarderRegistry",
          "type": "address"
        },
        {
          "internalType": "address",
          "name": "universalForwarder",
          "type": "address"
        }
      ],
      "stateMutability": "nonpayable",
      "type": "constructor"
    },
    {
      "anonymous": false,
      "inputs": [
        {
          "indexed": true,
          "internalType": "address",
          "name": "_owner",
          "type": "address"
        },
        {
          "indexed": true,
          "internalType": "address",
          "name": "_spender",
          "type": "address"
        },
        {
          "indexed": false,
          "internalType": "uint256",
          "name": "_value",
          "type": "uint256"
        }
      ],
      "name": "Approval",
      "type": "event"
    },
    {
      "anonymous": false,
      "inputs": [
        {
          "indexed": true,
          "internalType": "address",
          "name": "previousOwner",
          "type": "address"
        },
        {
          "indexed": true,
          "internalType": "address",
          "name": "newOwner",
          "type": "address"
        }
      ],
      "name": "OwnershipTransferred",
      "type": "event"
    },
    {
      "anonymous": false,
      "inputs": [
        {
          "indexed": true,
          "internalType": "address",
          "name": "_from",
          "type": "address"
        },
        {
          "indexed": true,
          "internalType": "address",
          "name": "_to",
          "type": "address"
        },
        {
          "indexed": false,
          "internalType": "uint256",
          "name": "_value",
          "type": "uint256"
        }
      ],
      "name": "Transfer",
      "type": "event"
    },
    {
      "anonymous": false,
      "inputs": [
        {
          "indexed": false,
          "internalType": "address",
          "name": "account",
          "type": "address"
        },
        {
          "indexed": false,
          "internalType": "uint256",
          "name": "value",
          "type": "uint256"
        }
      ],
      "name": "Withdrawn",
      "type": "event"
    },
    {
      "inputs": [],
      "name": "DOMAIN_SEPARATOR",
      "outputs": [
        {
          "internalType": "bytes32",
          "name": "",
          "type": "bytes32"
        }
      ],
      "stateMutability": "view",
      "type": "function"
    },
    {
      "inputs": [
        {
          "internalType": "address",
          "name": "owner",
          "type": "address"
        },
        {
          "internalType": "address",
          "name": "spender",
          "type": "address"
        }
      ],
      "name": "allowance",
      "outputs": [
        {
          "internalType": "uint256",
          "name": "",
          "type": "uint256"
        }
      ],
      "stateMutability": "view",
      "type": "function"
    },
    {
      "inputs": [
        {
          "internalType": "address",
          "name": "spender",
          "type": "address"
        },
        {
          "internalType": "uint256",
          "name": "value",
          "type": "uint256"
        }
      ],
      "name": "approve",
      "outputs": [
        {
          "internalType": "bool",
          "name": "",
          "type": "bool"
        }
      ],
      "stateMutability": "nonpayable",
      "type": "function"
    },
    {
      "inputs": [
        {
          "internalType": "address",
          "name": "account",
          "type": "address"
        }
      ],
      "name": "balanceOf",
      "outputs": [
        {
          "internalType": "uint256",
          "name": "",
          "type": "uint256"
        }
      ],
      "stateMutability": "view",
      "type": "function"
    },
    {
      "inputs": [
        {
          "internalType": "address[]",
          "name": "recipients",
          "type": "address[]"
        },
        {
          "internalType": "uint256[]",
          "name": "values",
          "type": "uint256[]"
        }
      ],
      "name": "batchMint",
      "outputs": [],
      "stateMutability": "nonpayable",
      "type": "function"
    },
    {
      "inputs": [
        {
          "internalType": "address[]",
          "name": "recipients",
          "type": "address[]"
        },
        {
          "internalType": "uint256[]",
          "name": "values",
          "type": "uint256[]"
        }
      ],
      "name": "batchTransfer",
      "outputs": [
        {
          "internalType": "bool",
          "name": "",
          "type": "bool"
        }
      ],
      "stateMutability": "nonpayable",
      "type": "function"
    },
    {
      "inputs": [
        {
          "internalType": "address",
          "name": "from",
          "type": "address"
        },
        {
          "internalType": "address[]",
          "name": "recipients",
          "type": "address[]"
        },
        {
          "internalType": "uint256[]",
          "name": "values",
          "type": "uint256[]"
        }
      ],
      "name": "batchTransferFrom",
      "outputs": [
        {
          "internalType": "bool",
          "name": "",
          "type": "bool"
        }
      ],
      "stateMutability": "nonpayable",
      "type": "function"
    },
    {
      "inputs": [
        {
          "internalType": "bytes32",
          "name": "c__0x32377826",
          "type": "bytes32"
        }
      ],
      "name": "c_0x32377826",
      "outputs": [],
      "stateMutability": "pure",
      "type": "function"
    },
    {
      "inputs": [
        {
          "internalType": "bytes32",
          "name": "c__0x4cdd591c",
          "type": "bytes32"
        }
      ],
      "name": "c_0x4cdd591c",
      "outputs": [],
      "stateMutability": "pure",
      "type": "function"
    },
    {
      "inputs": [
        {
          "internalType": "bytes32",
          "name": "c__0x9e6a3596",
          "type": "bytes32"
        }
      ],
      "name": "c_0x9e6a3596",
      "outputs": [],
      "stateMutability": "pure",
      "type": "function"
    },
    {
      "inputs": [
        {
          "internalType": "bytes32",
          "name": "c__0xa2319191",
          "type": "bytes32"
        }
      ],
      "name": "c_0xa2319191",
      "outputs": [],
      "stateMutability": "pure",
      "type": "function"
    },
    {
      "inputs": [
        {
          "internalType": "bytes32",
          "name": "c__0xd53fc4e9",
          "type": "bytes32"
        }
      ],
      "name": "c_0xd53fc4e9",
      "outputs": [],
      "stateMutability": "pure",
      "type": "function"
    },
    {
      "inputs": [],
      "name": "childChainManager",
      "outputs": [
        {
          "internalType": "address",
          "name": "",
          "type": "address"
        }
      ],
      "stateMutability": "view",
      "type": "function"
    },
    {
      "inputs": [],
      "name": "decimals",
      "outputs": [
        {
          "internalType": "uint8",
          "name": "",
          "type": "uint8"
        }
      ],
      "stateMutability": "view",
      "type": "function"
    },
    {
      "inputs": [
        {
          "internalType": "address",
          "name": "spender",
          "type": "address"
        },
        {
          "internalType": "uint256",
          "name": "subtractedValue",
          "type": "uint256"
        }
      ],
      "name": "decreaseAllowance",
      "outputs": [
        {
          "internalType": "bool",
          "name": "",
          "type": "bool"
        }
      ],
      "stateMutability": "nonpayable",
      "type": "function"
    },
    {
      "inputs": [],
      "name": "deploymentChainId",
      "outputs": [
        {
          "internalType": "uint256",
          "name": "",
          "type": "uint256"
        }
      ],
      "stateMutability": "view",
      "type": "function"
    },
    {
      "inputs": [
        {
          "internalType": "address",
          "name": "user",
          "type": "address"
        },
        {
          "internalType": "bytes",
          "name": "depositData",
          "type": "bytes"
        }
      ],
      "name": "deposit",
      "outputs": [],
      "stateMutability": "nonpayable",
      "type": "function"
    },
    {
      "inputs": [
        {
          "internalType": "address",
          "name": "spender",
          "type": "address"
        },
        {
          "internalType": "uint256",
          "name": "addedValue",
          "type": "uint256"
        }
      ],
      "name": "increaseAllowance",
      "outputs": [
        {
          "internalType": "bool",
          "name": "",
          "type": "bool"
        }
      ],
      "stateMutability": "nonpayable",
      "type": "function"
    },
    {
      "inputs": [
        {
          "internalType": "address",
          "name": "forwarder",
          "type": "address"
        }
      ],
      "name": "isTrustedForwarder",
      "outputs": [
        {
          "internalType": "bool",
          "name": "",
          "type": "bool"
        }
      ],
      "stateMutability": "view",
      "type": "function"
    },
    {
      "inputs": [
        {
          "internalType": "address",
          "name": "to",
          "type": "address"
        },
        {
          "internalType": "uint256",
          "name": "value",
          "type": "uint256"
        }
      ],
      "name": "mint",
      "outputs": [],
      "stateMutability": "nonpayable",
      "type": "function"
    },
    {
      "inputs": [],
      "name": "name",
      "outputs": [
        {
          "internalType": "string",
          "name": "",
          "type": "string"
        }
      ],
      "stateMutability": "view",
      "type": "function"
    },
    {
      "inputs": [
        {
          "internalType": "address",
          "name": "",
          "type": "address"
        }
      ],
      "name": "nonces",
      "outputs": [
        {
          "internalType": "uint256",
          "name": "",
          "type": "uint256"
        }
      ],
      "stateMutability": "view",
      "type": "function"
    },
    {
      "inputs": [
        {
          "internalType": "address",
          "name": "operator",
          "type": "address"
        },
        {
          "internalType": "address",
          "name": "from",
          "type": "address"
        },
        {
          "internalType": "uint256",
          "name": "amount",
          "type": "uint256"
        },
        {
          "internalType": "bytes",
          "name": "data",
          "type": "bytes"
        }
      ],
      "name": "onERC20Received",
      "outputs": [
        {
          "internalType": "bytes4",
          "name": "",
          "type": "bytes4"
        }
      ],
      "stateMutability": "nonpayable",
      "type": "function"
    },
    {
      "inputs": [],
      "name": "owner",
      "outputs": [
        {
          "internalType": "address",
          "name": "",
          "type": "address"
        }
      ],
      "stateMutability": "view",
      "type": "function"
    },
    {
      "inputs": [
        {
          "internalType": "address",
          "name": "owner",
          "type": "address"
        },
        {
          "internalType": "address",
          "name": "spender",
          "type": "address"
        },
        {
          "internalType": "uint256",
          "name": "value",
          "type": "uint256"
        },
        {
          "internalType": "uint256",
          "name": "deadline",
          "type": "uint256"
        },
        {
          "internalType": "uint8",
          "name": "v",
          "type": "uint8"
        },
        {
          "internalType": "bytes32",
          "name": "r",
          "type": "bytes32"
        },
        {
          "internalType": "bytes32",
          "name": "s",
          "type": "bytes32"
        }
      ],
      "name": "permit",
      "outputs": [],
      "stateMutability": "nonpayable",
      "type": "function"
    },
    {
      "inputs": [
        {
          "internalType": "address[]",
          "name": "accounts",
          "type": "address[]"
        },
        {
          "internalType": "address[]",
          "name": "tokens",
          "type": "address[]"
        },
        {
          "internalType": "uint256[]",
          "name": "amounts",
          "type": "uint256[]"
        }
      ],
      "name": "recoverERC20s",
      "outputs": [],
      "stateMutability": "nonpayable",
      "type": "function"
    },
    {
      "inputs": [
        {
          "internalType": "address[]",
          "name": "accounts",
          "type": "address[]"
        },
        {
          "internalType": "address[]",
          "name": "contracts",
          "type": "address[]"
        },
        {
          "internalType": "uint256[]",
          "name": "tokenIds",
          "type": "uint256[]"
        }
      ],
      "name": "recoverERC721s",
      "outputs": [],
      "stateMutability": "nonpayable",
      "type": "function"
    },
    {
      "inputs": [
        {
          "internalType": "address",
          "name": "to",
          "type": "address"
        },
        {
          "internalType": "uint256",
          "name": "amount",
          "type": "uint256"
        },
        {
          "internalType": "bytes",
          "name": "data",
          "type": "bytes"
        }
      ],
      "name": "safeTransfer",
      "outputs": [
        {
          "internalType": "bool",
          "name": "",
          "type": "bool"
        }
      ],
      "stateMutability": "nonpayable",
      "type": "function"
    },
    {
      "inputs": [
        {
          "internalType": "address",
          "name": "from",
          "type": "address"
        },
        {
          "internalType": "address",
          "name": "to",
          "type": "address"
        },
        {
          "internalType": "uint256",
          "name": "amount",
          "type": "uint256"
        },
        {
          "internalType": "bytes",
          "name": "data",
          "type": "bytes"
        }
      ],
      "name": "safeTransferFrom",
      "outputs": [
        {
          "internalType": "bool",
          "name": "",
          "type": "bool"
        }
      ],
      "stateMutability": "nonpayable",
      "type": "function"
    },
    {
      "inputs": [
        {
          "internalType": "string",
          "name": "tokenURI_",
          "type": "string"
        }
      ],
      "name": "setTokenURI",
      "outputs": [],
      "stateMutability": "nonpayable",
      "type": "function"
    },
    {
      "inputs": [
        {
          "internalType": "bytes4",
          "name": "interfaceId",
          "type": "bytes4"
        }
      ],
      "name": "supportsInterface",
      "outputs": [
        {
          "internalType": "bool",
          "name": "",
          "type": "bool"
        }
      ],
      "stateMutability": "view",
      "type": "function"
    },
    {
      "inputs": [],
      "name": "symbol",
      "outputs": [
        {
          "internalType": "string",
          "name": "",
          "type": "string"
        }
      ],
      "stateMutability": "view",
      "type": "function"
    },
    {
      "inputs": [],
      "name": "tokenURI",
      "outputs": [
        {
          "internalType": "string",
          "name": "",
          "type": "string"
        }
      ],
      "stateMutability": "view",
      "type": "function"
    },
    {
      "inputs": [],
      "name": "totalSupply",
      "outputs": [
        {
          "internalType": "uint256",
          "name": "",
          "type": "uint256"
        }
      ],
      "stateMutability": "view",
      "type": "function"
    },
    {
      "inputs": [
        {
          "internalType": "address",
          "name": "to",
          "type": "address"
        },
        {
          "internalType": "uint256",
          "name": "value",
          "type": "uint256"
        }
      ],
      "name": "transfer",
      "outputs": [
        {
          "internalType": "bool",
          "name": "",
          "type": "bool"
        }
      ],
      "stateMutability": "nonpayable",
      "type": "function"
    },
    {
      "inputs": [
        {
          "internalType": "address",
          "name": "from",
          "type": "address"
        },
        {
          "internalType": "address",
          "name": "to",
          "type": "address"
        },
        {
          "internalType": "uint256",
          "name": "value",
          "type": "uint256"
        }
      ],
      "name": "transferFrom",
      "outputs": [
        {
          "internalType": "bool",
          "name": "",
          "type": "bool"
        }
      ],
      "stateMutability": "nonpayable",
      "type": "function"
    },
    {
      "inputs": [
        {
          "internalType": "address",
          "name": "newOwner",
          "type": "address"
        }
      ],
      "name": "transferOwnership",
      "outputs": [],
      "stateMutability": "nonpayable",
      "type": "function"
    },
    {
      "inputs": [
        {
          "internalType": "uint256",
          "name": "amount",
          "type": "uint256"
        }
      ],
      "name": "withdraw",
      "outputs": [],
      "stateMutability": "nonpayable",
      "type": "function"
    }
  ],
  "bytecode": "0x6101206040523480156200001257600080fd5b506040516200bf113803806200bf11833981810160405260a08110156200003857600080fd5b81019080805160405193929190846401000000008211156200005957600080fd5b838201915060208201858111156200007057600080fd5b82518660208202830111640100000000821117156200008e57600080fd5b8083526020830192505050908051906020019060200280838360005b83811015620000c7578082015181840152602081019050620000aa565b5050505090500160405260200180516040519392919084640100000000821115620000f157600080fd5b838201915060208201858111156200010857600080fd5b82518660208202830111640100000000821117156200012657600080fd5b8083526020830192505050908051906020019060200280838360005b838110156200015f57808201518184015260208101905062000142565b505050509050016040526020018051906020019092919080519060200190929190805190602001909291905050506040518060400160405280601081526020017f4368696c64204552433230204d6f636b000000000000000000000000000000008152506040518060400160405280600481526020017f434532300000000000000000000000000000000000000000000000000000000081525060126040518060400160405280600381526020017f75726900000000000000000000000000000000000000000000000000000000008152508680858585858b8b33806000806101000a81548173ffffffffffffffffffffffffffffffffffffffff021916908373ffffffffffffffffffffffffffffffffffffffff1602179055508073ffffffffffffffffffffffffffffffffffffffff16600073ffffffffffffffffffffffffffffffffffffffff167f8be0079c531659141344cd1fd0a4f28419497f9722a3daafe3b4186f6b6457e060405160405180910390a3508073ffffffffffffffffffffffffffffffffffffffff1660a08173ffffffffffffffffffffffffffffffffffffffff1660601b815250508173ffffffffffffffffffffffffffffffffffffffff1660808173ffffffffffffffffffffffffffffffffffffffff1660601b8152505050506200037a7f6ad64343884fef283ac34d6b1734cff4bc6f4f87f42cf63b984e2a37f57a9b4160001b620008de60201b60201c565b620003ae7f5ab64a98b6bb162ac95f22ecfce6c4a762871f2f94a4e46cafcfb63de7f7195060001b620008de60201b60201c565b620003e27fec43397a470c0671e0b7fac3bfcc1762098ce930abc003ca08b1924e850543a260001b620008de60201b60201c565b8360029080519060200190620003fa9291906200177e565b506200042f7f13d5affcf7f67b74a51ae94812af388249439386aca1cd8253860ae3dbc16e4160001b620008de60201b60201c565b620004637f2935c352dde457385c783cd1274a2861e935b970f2cb412a3bf02f5b3317990a60001b620008de60201b60201c565b82600390805190602001906200047b9291906200177e565b50620004b07feb675418522e18b15e4d8dafb7d8aa1ab245dadc5fe83302a362bf772ff975e060001b620008de60201b60201c565b620004e47f2d79b48921561dde782983b13663b13a677a35e5e214aa5243900a419887c12960001b620008de60201b60201c565b8160ff166101008160ff1660f81b815250506200052a7f464e8df06c49787199adc93ba7bffa2394de1f616c5e46782d4e4f3a02b6181060001b620008de60201b60201c565b6200055e7f465d064048076173b224887e1864edb17bfcf100967f287c9fbb7115ebf0967360001b620008de60201b60201c565b8060049080519060200190620005769291906200177e565b50620005ab7f4dd7832ae7891666e3a52738b7409dfb97e3e1f02f800ac7d6ef0cf6be949d7360001b620008de60201b60201c565b620005df7fa1dd4b4253faee9cb2fdf6b1c8e45cb42c6ab36fca98455f48fc8ecabde5257360001b620008de60201b60201c565b6000620006157fa571706ffd4f9e0cdd5c3cc9160aed25836a50a0f225dc6fe60a479d1d36448a60001b620008de60201b60201c565b4690506200064c7f149c9fab1f1fd65fdefcd3d7810703b550a55bb975ca3270d403bab703a975db60001b620008de60201b60201c565b620006807f0a2a2819eda73d30ec16fa15840c934f89e2d18d23a782a14a406882ac3266ea60001b620008de60201b60201c565b8060c08181525050620006bc7fca576539af85dc7613b0eba6a2a9e6f576e4c499b4b74e1aa976909a414c911d60001b620008de60201b60201c565b620006f07f46719f5fd6d3f50958bb25d576f7e4463c162d05b1b6ba84dffa64908c5e7d2a60001b620008de60201b60201c565b620007028186620008e160201b60201c565b60e081815250505050505050620007427f1804f65f99f4bbf534515235bd8a5d67b1424267a8bb2a5cd7b0d5eea0cf17f360001b62000a2b60201b60201c565b620007767f57b4722b17cac4fdcdb265bc949d6df542098c2ca000466aa84b9b49a5da1e3960001b62000a2b60201b60201c565b620007aa7fdc1324b11390263b9563817ead2634212f80ffad5ba08ca33be1dd1834ee0c5860001b62000a2b60201b60201c565b80600860006101000a81548173ffffffffffffffffffffffffffffffffffffffff021916908373ffffffffffffffffffffffffffffffffffffffff16021790555050620008207f88fe399b099989a2b610a81e3d4733e4484f0fa95aa868ce98c18125984e0da260001b62000a2e60201b60201c565b5050505050620008597f0840122bc7cc4e64f267f79c23b2cca595a21cb47080df1cba3d6e4f218ea80e60001b62000a3160201b60201c565b6200088d7f846c7075ccd96495ecb9a3806c9f81ba89c98d23b81e3044264339f33a5451fd60001b62000a3160201b60201c565b620008c17f394ac75ef9a7b2000e1da9c1f424dc77a08ab06af08b871ee2c6e71bf1eaa20560001b62000a3160201b60201c565b620008d3858562000a3460201b60201c565b505050505062001834565b50565b6000620009177f944c756d5d5f2a243e454b45fc9555d5da7652dd4606d195dc34efbf761fdf8560001b620008de60201b60201c565b6200094b7faa08908f9f4beadbac7e4c7f998a0acfcbb4350d736ee7e36f1579fae9bd064760001b620008de60201b60201c565b6200097f7fd732a1b4cb4603fac188410fc428b31ff987007b8863a01a3eed940aaf97080460001b620008de60201b60201c565b7f8b73c3c69bb8fe3d512ecc4cf759cc79239f7b179b0ffacaa9a75d522b39400f82805190602001207fc89efdaa54c0f20c7adf612882df0950f5a951637e0307cdcb4c672f298b8bc68530604051602001808681526020018581526020018481526020018381526020018273ffffffffffffffffffffffffffffffffffffffff1681526020019550505050505060405160208183030381529060405280519060200120905092915050565b50565b50565b50565b62000a687f20fc3a3025e46ba68506603cf55a8ab7589421dc8cc9acd80bdc1e6ae81f05c460001b620008de60201b60201c565b62000a9c7fba9abe6a98cdc1f94ba4e225b482fd128eb20d7d06898ce3fcfc5f502d9d1b0860001b620008de60201b60201c565b62000ad07f3ba48f63ffe8b5ccfb3d0838ad68ca5a11190b8c7f2a437b94073bebc146687c60001b620008de60201b60201c565b60008251905062000b0a7fcffebafbf9e4663757c3f9bd87018bcf88449b7964c7f65690af35a583373be960001b620008de60201b60201c565b62000b3e7f536085bfab79c3adf33b0b3d83d9783b283121e3905692cb791e7cdb4e9307a260001b620008de60201b60201c565b62000b727f28a09ac6290879af2293f0fbcebda75f1387155822a9e3d43f7d7227943b292960001b620008de60201b60201c565b8151811462000be9576040517f08c379a000000000000000000000000000000000000000000000000000000000815260040180806020018281038252601a8152602001807f45524332303a20696e636f6e73697374656e742061727261797300000000000081525060200191505060405180910390fd5b62000c1d7f4f30f646ddddb494189e6910f6792e9e86625ce13475948614bd943ef381721560001b620008de60201b60201c565b62000c517fd8ef06c94df637ec3f9113c7a73da0f5f512d8f8fd38f37902fe6be519cff0ab60001b620008de60201b60201c565b62000c857f80d539030dd34f2eb0d37883a4ecfe160d66aae6c9626aad2973cd90572ca22160001b620008de60201b60201c565b600062000cbb7f1b3654878968e204d754e0a487961a65282ab1dce5a0526be95c49f0b2756b4f60001b620008de60201b60201c565b62000cef7fddd11b869e300f1c3a8c38881b13af11f9349d9483da72e8db7d9b21d9379a5460001b620008de60201b60201c565b60005b828114620014025762000d2e7f554ae65dece2c41c56ba42dd945a857d5ce2ad3847acb3f531b5ec48aaefa2e660001b620008de60201b60201c565b62000d627f248219498dcb66ef28903989e639a6de2182f75180726d5bcd0fbd3778731fdf60001b620008de60201b60201c565b600085828151811062000d7157fe5b6020026020010151905062000daf7f32c034bd3455704f3783113d545a7ab7dbe141c0501bc8bd361c5ce7d5957f5a60001b620008de60201b60201c565b62000de37f08a2e445ee1d9bf21680de1ec5c4c2cc4bafbe808661464ed3897c1539dcf3c860001b620008de60201b60201c565b62000e177fe7750c41b5b900f1393ad6711460fd1bb15fae5128017093d43fc2dec50449ff60001b620008de60201b60201c565b600073ffffffffffffffffffffffffffffffffffffffff168173ffffffffffffffffffffffffffffffffffffffff16141562000ebb576040517f08c379a00000000000000000000000000000000000000000000000000000000081526004018080602001828103825260138152602001807f45524332303a207a65726f20616464726573730000000000000000000000000081525060200191505060405180910390fd5b62000eef7fd1ab9a79035ce45704c7580e6d0a24e156e52d6245a0928d24b3a00dd9f1a8ff60001b620008de60201b60201c565b62000f237f3421be204182a90b101c1d4be8b936b071e75bffbbbc91fc85bab45aa6e3192660001b620008de60201b60201c565b62000f577f59e6a4d533dce51cf4484487e0b92903d0780a5377b28a65f49f84e6658c83ae60001b620008de60201b60201c565b600085838151811062000f6657fe5b6020026020010151905062000fa47fc2c40173c340c7fa464da1bb0224fd8d05c1d3e8231a6c7df88ee9096808bcd360001b620008de60201b60201c565b62000fd87fbbe8dea263cea70d1629ed86c54e6475a6bde4fc7a2e475664247cb68f97326560001b620008de60201b60201c565b60008114620012f157620010157f918047cdef3cbeae26152c625941fe68f100821b3d592678f8fc073d17ac1bba60001b620008de60201b60201c565b620010497fad2185a253d17741595df38ff3aa658d6f512195ec20834724c455b43a17844860001b620008de60201b60201c565b6200107d7faafc7c9fab73064c7f704e57ab8a392c8d68581d5956073c5c1a19608f95a12860001b620008de60201b60201c565b60008185019050620010b87f7fb926d15eb74ada58463bb7b8465664548a47d7dedc379af5ac974dcc974f1660001b620008de60201b60201c565b620010ec7f65b39fea598a03fb39e80c488a4f4b2039c9332952aceb58211351459b6796f560001b620008de60201b60201c565b620011207fbe9a7c48aadf276ca12582a73255f836be03e56d19d1431ea228f7c8cc8dc90660001b620008de60201b60201c565b84811162001196576040517f08c379a00000000000000000000000000000000000000000000000000000000081526004018080602001828103825260168152602001807f45524332303a2076616c756573206f766572666c6f770000000000000000000081525060200191505060405180910390fd5b620011ca7f4eada8eb3370e0ffab5b6480c9f708ff38f9f7d5e9ce173fc491bc174fbcabab60001b620008de60201b60201c565b620011fe7fcc9df20e360e0c354d314f6c355a7d77f27351b25843d3a363d282afdc6688b160001b620008de60201b60201c565b620012327fc738a37396cb337512ad461fbba31a6d7edd4803389b35cad465b3143ac6a99c60001b620008de60201b60201c565b809450620012697f5a1570ab7171545ced0efed1dcd550e352ae069952e06fa0c8031a7ee055cc0b60001b620008de60201b60201c565b6200129d7ff5706860fcd71ae977a4419e8637de134112a93b9e8e6ea0232f43fca41935dd60001b620008de60201b60201c565b81600560008573ffffffffffffffffffffffffffffffffffffffff1673ffffffffffffffffffffffffffffffffffffffff168152602001908152602001600020600082825401925050819055505062001326565b620013257fe46f076c769a75777f187475ecebc8fde86e2263520863db7d61261ba876d47360001b620008de60201b60201c565b5b6200135a7f57bd54e293dcbc8aaa34547ffd71546e2054d69a2652ebb36c08ee6951fdf28660001b620008de60201b60201c565b6200138e7f291fb6e70d34689648ea6276e18abccbe359700acac4e46d2dfa59fb680947e660001b620008de60201b60201c565b8173ffffffffffffffffffffffffffffffffffffffff16600073ffffffffffffffffffffffffffffffffffffffff167fddf252ad1be2c89b69c2b068fc378daa952ba7f163c4a11628f55a4df523b3ef836040518082815260200191505060405180910390a3505080600101905062000cf2565b50620014377fa3192109964a953eddcded1124c212145fdfc6191b449e292afeec0c6724bd9c60001b620008de60201b60201c565b6200146b7fe3a3c92252356f4da6b5a5856b6ff25f8912015c3e64a498716da6cefe3f985e60001b620008de60201b60201c565b600081146200174357620014a87fb4a3a3630c0c9767f60c5c1c80db2cf3410300342ce9836e8884d31d5b94b95060001b620008de60201b60201c565b620014dc7fd554ec3cb88eb40c74c6daba4a5c78c2deb776e0224a69d15f7ff4ba7db3e30160001b620008de60201b60201c565b620015107fc4c4b7fccd54e59915f5bbc138504538f30e4478f364df05e33da7049d6d63ea60001b620008de60201b60201c565b600060075490506200154b7fabac5bdfda460ff7318f2f227a8e332fae4d305960f530c989e339c6164c375e60001b620008de60201b60201c565b6200157f7fc31f9794bfc938e6743f55edafa3bfc4803ae39f0872e8a6610b484fba95cb3a60001b620008de60201b60201c565b60008282019050620015ba7f9b5b5e0770170c858dd9a83af0a8caf5a29bff4120ec57930939f9660e94797360001b620008de60201b60201c565b620015ee7f513ef81a9b5da7e778533e59a53984765117fe9028a88b0d605772b90bcbd84f60001b620008de60201b60201c565b620016227f3105da534cf8b8cc1d35308d92775b113eff17c2459205aa8eb5998313ef17de60001b620008de60201b60201c565b81811162001698576040517f08c379a00000000000000000000000000000000000000000000000000000000081526004018080602001828103825260168152602001807f45524332303a20737570706c79206f766572666c6f770000000000000000000081525060200191505060405180910390fd5b620016cc7fb1db0c6c18210b5bd4dac396c547d7e9b4b77f74bffca52402ca421f94bc233160001b620008de60201b60201c565b620017007f94cd230bf64d3d479ecba3ff2381c227c58cab061fa582c21118a27b4ef0074460001b620008de60201b60201c565b620017347f8ac8cf9bf4101a974552ce734d9d12bd2ec82a8c628b0cf73c77197054a93e9960001b620008de60201b60201c565b80600781905550505062001778565b620017777f534874bb5c95905b6710526d9e5b9bbf9bf55c670ea3b24c7f154f0bd264d54d60001b620008de60201b60201c565b5b50505050565b828054600181600116156101000203166002900490600052602060002090601f016020900481019282620017b6576000855562001802565b82601f10620017d157805160ff191683800117855562001802565b8280016001018555821562001802579182015b8281111562001801578251825591602001919060010190620017e4565b5b50905062001811919062001815565b5090565b5b808211156200183057600081600090555060010162001816565b5090565b60805160601c60a05160601c60c05160e0516101005160f81c61a6806200189160003980611a77525080611c7c525080611bac5280615cfa5250806138575280619fdc5250806138ac5280619f87528061a072525061a6806000f3fe608060405234801561001057600080fd5b50600436106102925760003560e01c80637ecebe0011610160578063c3666c36116100d8578063dd62ed3e1161008c578063eb79554911610071578063eb79554914611324578063f2fde38b146113dd578063f367151f1461142157610292565b8063dd62ed3e14611233578063e0df5b6f146112ab57610292565b8063cd0d0096116100bd578063cd0d0096146110e3578063cf2c52cb14611101578063d505accf1461119a57610292565b8063c3666c3614610f8c578063c8291d84146110af57610292565b8063a457c2d71161012f578063b88d4fde11610114578063b88d4fde14610e57578063bad8e7a114610f30578063bbec9e3b14610f5e57610292565b8063a457c2d714610d8f578063a9059cbb14610df357610292565b80637ecebe0014610b9c57806388d695b214610bf45780638da5cb5b14610cd857806395d89b4114610d0c57610292565b80633c130d901161020e578063572b6c05116101c257806368573107116101a757806368573107146108d557806370a0823114610a2157806373c8a95814610a7957610292565b8063572b6c051461084d5780636242d7fc146108a757610292565b80634885b254116101f35780634885b254146106255780634dc890cb146107295780634fc358591461075757610292565b80633c130d901461055457806340c10f19146105d757610292565b806323b872dd11610265578063313ce5671161024a578063313ce567146104b15780633644e515146104d257806339509351146104f057610292565b806323b872dd146103ff5780632e1a7d4d1461048357610292565b806301ffc9a71461029757806306fdde03146102fa578063095ea7b31461037d57806318160ddd146103e1575b600080fd5b6102e2600480360360208110156102ad57600080fd5b8101908080357bffffffffffffffffffffffffffffffffffffffffffffffffffffffff1916906020019092919050505061144f565b60405180821515815260200191505060405180910390f35b61030261154d565b6040518080602001828103825283818151815260200191508051906020019080838360005b83811015610342578082015181840152602081019050610327565b50505050905090810190601f16801561036f5780820380516001836020036101000a031916815260200191505b509250505060405180910390f35b6103c96004803603604081101561039357600080fd5b81019080803573ffffffffffffffffffffffffffffffffffffffff16906020019092919080359060200190929190505050611673565b60405180821515815260200191505060405180910390f35b6103e961176d565b6040518082815260200191505060405180910390f35b61046b6004803603606081101561041557600080fd5b81019080803573ffffffffffffffffffffffffffffffffffffffff169060200190929190803573ffffffffffffffffffffffffffffffffffffffff169060200190929190803590602001909291905050506117fb565b60405180821515815260200191505060405180910390f35b6104af6004803603602081101561049957600080fd5b81019080803590602001909291905050506118f7565b005b6104b96119ef565b604051808260ff16815260200191505060405180910390f35b6104da611a9b565b6040518082815260200191505060405180910390f35b61053c6004803603604081101561050657600080fd5b81019080803573ffffffffffffffffffffffffffffffffffffffff16906020019092919080359060200190929190505050611ca2565b60405180821515815260200191505060405180910390f35b61055c6123f8565b6040518080602001828103825283818151815260200191508051906020019080838360005b8381101561059c578082015181840152602081019050610581565b50505050905090810190601f1680156105c95780820380516001836020036101000a031916815260200191505b509250505060405180910390f35b610623600480360360408110156105ed57600080fd5b81019080803573ffffffffffffffffffffffffffffffffffffffff1690602001909291908035906020019092919050505061251e565b005b6107116004803603606081101561063b57600080fd5b81019080803573ffffffffffffffffffffffffffffffffffffffff1690602001909291908035906020019064010000000081111561067857600080fd5b82018360208201111561068a57600080fd5b803590602001918460208302840111640100000000831117156106ac57600080fd5b9091929391929390803590602001906401000000008111156106cd57600080fd5b8201836020820111156106df57600080fd5b8035906020019184602083028401116401000000008311171561070157600080fd5b9091929391929390505050612618565b60405180821515815260200191505060405180910390f35b6107556004803603602081101561073f57600080fd5b810190808035906020019092919050505061374a565b005b6108186004803603608081101561076d57600080fd5b81019080803573ffffffffffffffffffffffffffffffffffffffff169060200190929190803573ffffffffffffffffffffffffffffffffffffffff16906020019092919080359060200190929190803590602001906401000000008111156107d457600080fd5b8201836020820111156107e657600080fd5b8035906020019184600183028401116401000000008311171561080857600080fd5b909192939192939050505061374d565b60405180827bffffffffffffffffffffffffffffffffffffffffffffffffffffffff1916815260200191505060405180910390f35b61088f6004803603602081101561086357600080fd5b81019080803573ffffffffffffffffffffffffffffffffffffffff169060200190929190505050613853565b60405180821515815260200191505060405180910390f35b6108d3600480360360208110156108bd57600080fd5b8101908080359060200190929190505050613901565b005b610a1f600480360360408110156108eb57600080fd5b810190808035906020019064010000000081111561090857600080fd5b82018360208201111561091a57600080fd5b8035906020019184602083028401116401000000008311171561093c57600080fd5b919080806020026020016040519081016040528093929190818152602001838360200280828437600081840152601f19601f8201169050808301925050505050505091929192908035906020019064010000000081111561099c57600080fd5b8201836020820111156109ae57600080fd5b803590602001918460208302840111640100000000831117156109d057600080fd5b919080806020026020016040519081016040528093929190818152602001838360200280828437600081840152601f19601f820116905080830192505050505050509192919290505050613904565b005b610a6360048036036020811015610a3757600080fd5b81019080803573ffffffffffffffffffffffffffffffffffffffff1690602001909291905050506139fe565b6040518082815260200191505060405180910390f35b610b9a60048036036060811015610a8f57600080fd5b8101908080359060200190640100000000811115610aac57600080fd5b820183602082011115610abe57600080fd5b80359060200191846020830284011164010000000083111715610ae057600080fd5b909192939192939080359060200190640100000000811115610b0157600080fd5b820183602082011115610b1357600080fd5b80359060200191846020830284011164010000000083111715610b3557600080fd5b909192939192939080359060200190640100000000811115610b5657600080fd5b820183602082011115610b6857600080fd5b80359060200191846020830284011164010000000083111715610b8a57600080fd5b9091929391929390505050613acb565b005b610bde60048036036020811015610bb257600080fd5b81019080803573ffffffffffffffffffffffffffffffffffffffff1690602001909291905050506141be565b6040518082815260200191505060405180910390f35b610cc060048036036040811015610c0a57600080fd5b8101908080359060200190640100000000811115610c2757600080fd5b820183602082011115610c3957600080fd5b80359060200191846020830284011164010000000083111715610c5b57600080fd5b909192939192939080359060200190640100000000811115610c7c57600080fd5b820183602082011115610c8e57600080fd5b80359060200191846020830284011164010000000083111715610cb057600080fd5b90919293919293905050506141d6565b60405180821515815260200191505060405180910390f35b610ce06151ba565b604051808273ffffffffffffffffffffffffffffffffffffffff16815260200191505060405180910390f35b610d146151e3565b6040518080602001828103825283818151815260200191508051906020019080838360005b83811015610d54578082015181840152602081019050610d39565b50505050905090810190601f168015610d815780820380516001836020036101000a031916815260200191505b509250505060405180910390f35b610ddb60048036036040811015610da557600080fd5b81019080803573ffffffffffffffffffffffffffffffffffffffff16906020019092919080359060200190929190505050615309565b60405180821515815260200191505060405180910390f35b610e3f60048036036040811015610e0957600080fd5b81019080803573ffffffffffffffffffffffffffffffffffffffff16906020019092919080359060200190929190505050615556565b60405180821515815260200191505060405180910390f35b610f1860048036036080811015610e6d57600080fd5b81019080803573ffffffffffffffffffffffffffffffffffffffff169060200190929190803573ffffffffffffffffffffffffffffffffffffffff1690602001909291908035906020019092919080359060200190640100000000811115610ed457600080fd5b820183602082011115610ee657600080fd5b80359060200191846001830284011164010000000083111715610f0857600080fd5b9091929391929390505050615650565b60405180821515815260200191505060405180910390f35b610f5c60048036036020811015610f4657600080fd5b8101908080359060200190929190505050615b06565b005b610f8a60048036036020811015610f7457600080fd5b8101908080359060200190929190505050615b09565b005b6110ad60048036036060811015610fa257600080fd5b8101908080359060200190640100000000811115610fbf57600080fd5b820183602082011115610fd157600080fd5b80359060200191846020830284011164010000000083111715610ff357600080fd5b90919293919293908035906020019064010000000081111561101457600080fd5b82018360208201111561102657600080fd5b8035906020019184602083028401116401000000008311171561104857600080fd5b90919293919293908035906020019064010000000081111561106957600080fd5b82018360208201111561107b57600080fd5b8035906020019184602083028401116401000000008311171561109d57600080fd5b9091929391929390505050615b0c565b005b6110b7615cd2565b604051808273ffffffffffffffffffffffffffffffffffffffff16815260200191505060405180910390f35b6110eb615cf8565b6040518082815260200191505060405180910390f35b6111986004803603604081101561111757600080fd5b81019080803573ffffffffffffffffffffffffffffffffffffffff1690602001909291908035906020019064010000000081111561115457600080fd5b82018360208201111561116657600080fd5b8035906020019184600183028401116401000000008311171561118857600080fd5b9091929391929390505050615d1c565b005b611231600480360360e08110156111b057600080fd5b81019080803573ffffffffffffffffffffffffffffffffffffffff169060200190929190803573ffffffffffffffffffffffffffffffffffffffff1690602001909291908035906020019092919080359060200190929190803560ff1690602001909291908035906020019092919080359060200190929190505050615e37565b005b6112956004803603604081101561124957600080fd5b81019080803573ffffffffffffffffffffffffffffffffffffffff169060200190929190803573ffffffffffffffffffffffffffffffffffffffff16906020019092919050505061655d565b6040518082815260200191505060405180910390f35b611322600480360360208110156112c157600080fd5b81019080803590602001906401000000008111156112de57600080fd5b8201836020820111156112f057600080fd5b8035906020019184600183028401116401000000008311171561131257600080fd5b9091929391929390505050616668565b005b6113c56004803603606081101561133a57600080fd5b81019080803573ffffffffffffffffffffffffffffffffffffffff169060200190929190803590602001909291908035906020019064010000000081111561138157600080fd5b82018360208201111561139357600080fd5b803590602001918460018302840111640100000000831117156113b557600080fd5b909192939192939050505061676a565b60405180821515815260200191505060405180910390f35b61141f600480360360208110156113f357600080fd5b81019080803573ffffffffffffffffffffffffffffffffffffffff169060200190929190505050616c1d565b005b61144d6004803603602081101561143757600080fd5b8101908080359060200190929190505050616cea565b005b600061147d7fba537dbd10b96f627f808c9cf24ffb3274bdece660f3a3b6e5a2391c926b93ae60001b615b06565b6114a97f94800f27405dc56a7860ee703eccb2d4aae12fd3e70a29d0fdf43d94bd71650f60001b615b06565b6114d57f2b119fd531e57b31e9fd718d7481c80d7bd978a6b80a586337564e2defdcc0eb60001b615b06565b7f28963e1e000000000000000000000000000000000000000000000000000000007bffffffffffffffffffffffffffffffffffffffffffffffffffffffff1916827bffffffffffffffffffffffffffffffffffffffffffffffffffffffff19161480611546575061154582616ced565b5b9050919050565b606061157b7f9af501d6d74813bd9f79398a17aecb103c67aece07ebc7cab488824d1c6a656060001b615b09565b6115a77fad0282687166db44805fe8b6c7fbf35a02a5657b2d832bcb0d6bc994c337849560001b615b09565b6115d37fb4d6ab28b8ffd17016eabf0661ce941bb1c1403bec4015cd8ab2295eb0d49c6560001b615b09565b60028054600181600116156101000203166002900480601f0160208091040260200160405190810160405280929190818152602001828054600181600116156101000203166002900480156116695780601f1061163e57610100808354040283529160200191611669565b820191906000526020600020905b81548152906001019060200180831161164c57829003601f168201915b5050505050905090565b60006116a17f416ca2263b848c273beecb4cac95a621c3a493f874591ad2e9102d37f94d9bc960001b615b09565b6116cd7f2e61f98a6bafd678978dd9d20b4bdfb12614f9257a12d5f127195a5ec080e6bd60001b615b09565b6116f97f05fac10b8952945a1a6026734e5f02f6fe73846d818777f4e78cfd98d4b5770960001b615b09565b61170b611704616d93565b8484616e26565b6117377f1090a74941accb22b66efcab366428c4aa31de916843881a11ec4ff44597d97f60001b615b09565b6117637f8529a3a63f5e075bf3e78ba80e65680b26c4e5bf6cb3a0abc2f87cf5638833c260001b615b09565b6001905092915050565b600061179b7f38e8822c91e7b97bbac640257102111d03cdcd47279ed59b0c0445325568f18460001b615b09565b6117c77fd54605552e9b8dc61e8f4681f7c08c56807ba4535ddec10a6aefea7d82e6e22260001b615b09565b6117f37fad45d939aa3eee42689667b83325239240892864752a60ffaf7f7e4857ef890860001b615b09565b600754905090565b60006118297f1e4c59443df9e15ddb635ceff882437608f2bfa756d2f7aa243d69e4c3bab2ec60001b615b09565b6118557ffb6be6d8ac005e71c0d30ff398c4992f70059d450daaeb9d06b4210ea843c84560001b615b09565b6118817f7db64aae479b761306c7bf17270dbb947b9a356a896b0b4fdb72c0bfc7e3701360001b615b09565b61189461188c616d93565b858585617140565b6118c07fd9eb9bfaefb98420eca1628b804aad582669d82b40289e34ab7abd1418f02e6d60001b615b09565b6118ec7f5265a06f2e0113d3558fc137b597c251795aadd4c5c30b60c8a4e96afed97a0360001b615b09565b600190509392505050565b6119237f8d192b83f2f5a441f21b641d99b13cc9f1a31d708fdc672c942ebf216f02222060001b615b06565b61194f7fcf2f75a5c5bab97dc0325b7779fdb637f0b7ef30ced7669eeb383e5d2355904d60001b615b06565b61197b7fdf99fa7774be327e81a18755bde636861bcd406641be5aead414eca7984cb07d60001b615b06565b806009600082825401925050819055506119b77fbc402897b6723000124554d05b31a18dbf7e4a29989c2b6eaee609b12671eae960001b615b06565b6119e37f407335a5acadb9c564f103b7eb165f23eb3154bfb746e3ebb487f46220c9c32960001b615b06565b6119ec81617321565b50565b6000611a1d7fc65841c71884691441c3127eed0b8644569c343fec4fb76f0283e14cd09e9da460001b615b09565b611a497f46fad09e76c75decdef2670290f33660e75fdf80dac1c67098dc9551887eb62860001b615b09565b611a757fa08f19c71e317ecc65b1ec2de043e1842dd6b65d8c64f106ef2a339397e908ea60001b615b09565b7f0000000000000000000000000000000000000000000000000000000000000000905090565b6000611ac97f250bcea77d914629c8b79ef7a49b6d8bba27d4be8eb11510244f65951c8e217d60001b615b09565b611af57f7b16575ebd991aab6a1f923b0ddaccfe3a803d1eba81f2b290b80436f573618260001b615b09565b611b217f128dbc4f472e27b6a1905c04a0150e2aebb2b17ab8d9d44d43db07d239a4de6a60001b615b09565b6000611b4f7fb2bb0ed281ce5262b8314983a7e98d55744c39fb866dccd84332271b1e4333e760001b615b09565b469050611b7e7ff990457abdb54f6a213854599efd48e26232e584581826435202209d73af0b8660001b615b09565b611baa7f44a953d01a79bcf485b3aac43dc36cdb7484fbe60f0f93cf152c3e24f1b3d3c260001b615b09565b7f00000000000000000000000000000000000000000000000000000000000000008114611c7a57611c758160028054600181600116156101000203166002900480601f016020809104026020016040519081016040528092919081815260200182805460018160011615610100020316600290048015611c6b5780601f10611c4057610100808354040283529160200191611c6b565b820191906000526020600020905b815481529060010190602001808311611c4e57829003601f168201915b50505050506174c6565b611c9c565b7f00000000000000000000000000000000000000000000000000000000000000005b91505090565b6000611cd07f1c17b6bc380b91a8b0a5be56981c5d3ad847f669846cfe35ac92d1da29a3e72d60001b615b09565b611cfc7fecd83eb0201c01b38cc1eb4a3030e3fa18904b283df26c8aaeda5e34ffa3b7e860001b615b09565b611d287f3e2a6d85bc31a78ba09a5872bbaa2c3fbf9ea9207aef452eb0dba5bf2cb8e15c60001b615b09565b611d547fad147017f57b2f601ff91c2886206b1a0e637771fceed11e937cd97784fecd8660001b615b09565b600073ffffffffffffffffffffffffffffffffffffffff168373ffffffffffffffffffffffffffffffffffffffff161415611df7576040517f08c379a000000000000000000000000000000000000000000000000000000000815260040180806020018281038252601b8152602001807f45524332303a207a65726f2061646472657373207370656e646572000000000081525060200191505060405180910390fd5b611e237f7ee9071f6e5bb201500c87c7633521d55b9a25753a5cced19360d496497d480060001b615b09565b611e4f7f871983adea94cffff02b16ea8edb977bed6598e234ffeb2ef7f9f8baf0869d2a60001b615b09565b611e7b7f7564ed50660cc4fd3776f0e55ef474b52e5f9ea0bb5dd9b6fbeba9c731e4230160001b615b09565b6000611e85616d93565b9050611eb37f35fe309d469157be57e793c616637854dc0cadba3c302c95badb4ea9f69d625860001b615b09565b611edf7f8699fd1714315f26f0b0910233b21ab5ad4b4d14da90c39e301642208349d33d60001b615b09565b6000600660008373ffffffffffffffffffffffffffffffffffffffff1673ffffffffffffffffffffffffffffffffffffffff16815260200190815260200160002060008673ffffffffffffffffffffffffffffffffffffffff1673ffffffffffffffffffffffffffffffffffffffff168152602001908152602001600020549050611f8c7ff18ad36a832d090b00491871537d37995f3020ad933c3fa3a8f5c40db5d9462360001b615b09565b611fb87f0989a22f78a0cccf3e9d5626cc0375a99a2df36335f721e22772662a1fe11ebd60001b615b09565b600084146122aa57611fec7fd3e7b2111d39934c964fb0af24a209e781810c16f528206c03b143cedd5690e560001b615b09565b6120187fc6ca77780a4affac2640810d1133538d503dac21076cf0808557093c19dbc81e60001b615b09565b6120447f80675552ed196645eeff9f3b7f66c678ae872217e2a4a757fdd846ce0af3286360001b615b09565b600084820190506120777fdcebe991d9a22eb9579c9549a4eeb6e104e430a75141310da1337994382fea4c60001b615b09565b6120a37fb21f28e76acfaccfd806c3927140fb98655a1402ddd8579ea85979ad3161f4eb60001b615b09565b6120cf7f274e8f4708f39243762af49e0ba297aec40457579612de43acc41f2046f07a9060001b615b09565b818111612144576040517f08c379a00000000000000000000000000000000000000000000000000000000081526004018080602001828103825260198152602001807f45524332303a20616c6c6f77616e6365206f766572666c6f770000000000000081525060200191505060405180910390fd5b6121707f3963dc5676bfd7cc3c6e7e5ae6774b2df6a76d99d9575956e32113b1fe4d160560001b615b09565b61219c7f8e46572da8fa846a41015a93059488c0faa4eeacd0a0b52b3cc096d187abfecd60001b615b09565b6121c87f6b13179d8ccdc19d3c36620d378622f383a34944a5e62dc3d84445dd96041de160001b615b09565b80600660008573ffffffffffffffffffffffffffffffffffffffff1673ffffffffffffffffffffffffffffffffffffffff16815260200190815260200160002060008873ffffffffffffffffffffffffffffffffffffffff1673ffffffffffffffffffffffffffffffffffffffff168152602001908152602001600020819055506122757f2dcf1e6acbc19d4d3fcfce809f61ead832acaa989663682c88da80d91154588960001b615b09565b6122a17fff24410fb6ddd95a336f81792d3a5e7c2b367d3911ee584fdf273539d0cb751760001b615b09565b809150506122d7565b6122d67f2c1eeb6d6b895b8aa081a910edc069f0319d873661ea4b0d596873875604769b60001b615b09565b5b6123037f72181b23a4e67be39a74415773a17cb38595560180e0a62c29a9ebc5c755287260001b615b09565b61232f7fb9521cdd1137115b690683fe3aa6e9fde984094da1bb3ac663904c8b4fc4348f60001b615b09565b8473ffffffffffffffffffffffffffffffffffffffff168273ffffffffffffffffffffffffffffffffffffffff167f8c5be1e5ebec7d5bd14f71427d1e84f3dd0314c0f7b2291e5b200ac8c7c3b925836040518082815260200191505060405180910390a36123c07f59637bb3f4c8efdfa631c0054039986c8f10600ab52ee539152f9644cf72446f60001b615b09565b6123ec7f9b7480db72a22df7455d7f82a75163d49aa674e4c9ad766312639635de90fe1560001b615b09565b60019250505092915050565b60606124267fd8c7f8cdffc297b5d9975d5eca30b9105005902e80d051c40350ad9a3ac4d5cb60001b615b09565b6124527fcfbe76c106a8a513fe41155f4c15cb665e294c62a622c12625f504cae218798760001b615b09565b61247e7fca42029069cbe00ed4b524f583bc5ba883cbe455aaeed0d0ea7e0aea55028cd260001b615b09565b60048054600181600116156101000203166002900480601f0160208091040260200160405190810160405280929190818152602001828054600181600116156101000203166002900480156125145780601f106124e957610100808354040283529160200191612514565b820191906000526020600020905b8154815290600101906020018083116124f757829003601f168201915b5050505050905090565b61254a7f459ab22217fbc0590603caf2989939c0d93bbc58634edce7b1532dca9e3e78dc60001b615b06565b6125767fc820af8ac91b382e17012e5632aed9e0f4b8b343498db51d55860c67431f00f560001b615b06565b6125a27f03909a87c7694fbbeab82ec44c1f80765b905221cb6468b3585d037376818e4d60001b615b06565b6125b26125ad616d93565b6175f8565b6125de7fc9d957ae311dabfe9a9add87abf07f2ef09dd57f6c7ba6e5223c9432e2a6dbe460001b615b06565b61260a7fb50d5ab46f4763c4ef95fbc76ff3a0bc84d33407b8f738e5860e757d74ef9c9860001b615b06565b612614828261771c565b5050565b60006126467ff7200401a38bc896178e927b509d0d01a5a79aa966a1a728d7af1317440c128160001b615b09565b6126727ff490f61ce2888b63740cca17bcaa2c8163a33b9a963516eacda42d4bae4f75f060001b615b09565b61269e7f7ecff817ed22c5aa2826514a3020f076abb759fee85a5bc8d350787f4ba90aa660001b615b09565b60008585905090506126d27fa4682a38512b45eec0aaa3f684ce6e993d9b4c1d179da8f7e66acfeb8de9309e60001b615b09565b6126fe7f3c3fc48ce16f4083668937c8af329b8c140747f0f096cf36cc5ff6a3c9bfbca260001b615b09565b61272a7f7498d4c989c9b99b6431c402a345f440563e886eb9600606f534b89578d4c6fc60001b615b09565b8383905081146127a2576040517f08c379a000000000000000000000000000000000000000000000000000000000815260040180806020018281038252601a8152602001807f45524332303a20696e636f6e73697374656e742061727261797300000000000081525060200191505060405180910390fd5b6127ce7f82f9bf4b0e8832647d160b642928efbd2118a2c4d304b5e05fddc84c29b2ed8f60001b615b09565b6127fa7f32d6f53f929aec23b53821debd370b1b4641a2f6c046a9370179d9fb717558d460001b615b09565b6128267f5f417b4bb8db4439fd26b1bde956dc5fff1abfe3453e1dec589603bd3b282a8360001b615b09565b6000600560008973ffffffffffffffffffffffffffffffffffffffff1673ffffffffffffffffffffffffffffffffffffffff1681526020019081526020016000205490506128967f2a0f118d0cfbacd01ec89fb819c0d3e33091e03c5873a1ce0d385bf9c2383d4360001b615b09565b6128c27ff17762718f058334d922b91ff67fb41305fd6aaa8d2c414ff277eb7b82008c7360001b615b09565b60006128f07fa5b50e9323ecc522970204f4cf108f1a4bbb5e1021718efebae51eb8feabe6b560001b615b09565b61291c7fcdcd1f789e44168e230362a103cabc9d49296de06aebd92287bfd7cd463b3e1760001b615b09565b600061294a7fd805496487dadf280742ffe23d91ebdd790dfb3707e769ef448252e516e975d660001b615b09565b6129767f940abc35a6d171adfa8d549f11538a18dcd436372bfd6475847b70bd577534ce60001b615b09565b60005b848114613240576129ac7f1a7c810ca0ab34ea6330994e787f12b4898bee1717ec0267695b82c1ac0c6de360001b615b09565b6129d87f8e727726f002a39c2bcc873841e9ea4b6ada33a503e3a4bb15dde8a2a3d50a3260001b615b09565b60008a8a838181106129e657fe5b9050602002013573ffffffffffffffffffffffffffffffffffffffff169050612a317f435f7721b70efa895c39623e4ab027a2ee3a43e4d4bd4061b726da9fa8a4241760001b615b09565b612a5d7f14de14d7e5a268394d29f92863328caa2b14e3682f0117245c31b4982e35c69260001b615b09565b612a897fb8f81449c93381caafec318d1b1f7494b20fe7443a62fd8af447adeb13590e4b60001b615b09565b600073ffffffffffffffffffffffffffffffffffffffff168173ffffffffffffffffffffffffffffffffffffffff161415612b2c576040517f08c379a00000000000000000000000000000000000000000000000000000000081526004018080602001828103825260168152602001807f45524332303a20746f207a65726f20616464726573730000000000000000000081525060200191505060405180910390fd5b612b587f3f9375e82c97ea5856a8abadeb3647dca50c4282d8975dca6a236bf8f989398960001b615b09565b612b847f7a3540b77d5587fe408e07d34d7e4282bcc19c0d0e466510d19811da7eb0dcfc60001b615b09565b612bb07f800f514a754d8c914d689965d16c4750c692efefdedd0dfdb212c32ee4345b7a60001b615b09565b6000898984818110612bbe57fe5b905060200201359050612bf37fc1c378871c9089c5da3defc6f49dfc9b815631f5d7087b5ee364ebb7ff81332660001b615b09565b612c1f7f2c236f6ca84a2d906c4e582e92e8792f1446f39baae1ae347baba91291b389be60001b615b09565b6000811461314957612c537f6a129e6a9016103040bf2f58ff6d15068c4a494007c8692f80cf42f285c688cb60001b615b09565b612c7f7ffd50badf5699fa7608223621c8e37629b75f870748b588416c5f4ff63c0b6a1c60001b615b09565b612cab7f279e209f2aaa0d7feb412eb5e7983918e028bfe2552e86be8bc2942727afd05860001b615b09565b60008186019050612cde7f7d0895a6c80d34ae02930d1d3a1eff0bc9850d3cfcd3c0978317abc520c8f50960001b615b09565b612d0a7f0e3b216b12eb9f112389626cc24c58a6dc27ebb7fb9e62a8509a6998ef52a55160001b615b09565b612d367fa7f80aef8f2ed551c17f8328de0c229ba9bc6f615bc02b1a09b7da19889edf6460001b615b09565b858111612dab576040517f08c379a00000000000000000000000000000000000000000000000000000000081526004018080602001828103825260168152602001807f45524332303a2076616c756573206f766572666c6f770000000000000000000081525060200191505060405180910390fd5b612dd77fa5b9c872a43f02fc3f13e588b47164147bba66a426da75ed779de22d1053b52960001b615b09565b612e037f400985eebeb001b96f28ec85026e381522b0318ee4145a2a14a11b9940a6607960001b615b09565b612e2f7f86aed583fd3ad101bfafceca2eebd874d12af74800747cc5686c0cb94932e35c60001b615b09565b809550612e5e7fcd6778cb5a6e8d84db9e71028ed4f6e586042a34d226decb8c78828dbed55b8760001b615b09565b612e8a7f16dfb3031186a338288fdc313debc65df83dfc42716879514fb9c4ee4230695660001b615b09565b8273ffffffffffffffffffffffffffffffffffffffff168e73ffffffffffffffffffffffffffffffffffffffff1614612f9357612ee97f25750e2e45411bbdda5986305a1fade06f8e5530e6c57403f994811045ab4b5260001b615b09565b612f157f6ab138354575fae9931f3ce437fec2f229f2834ca63231346df2b68cd7cb6cad60001b615b09565b612f417fdbd1fdcbec02f893d069b8f1ab6deb085241564ca611d12b5fb9ec51302655fe60001b615b09565b81600560008573ffffffffffffffffffffffffffffffffffffffff1673ffffffffffffffffffffffffffffffffffffffff16815260200190815260200160002060008282540192505081905550613143565b612fbf7fd7cb6ac457603b19c0a1f43ca682c745ea31d2bdbf35bdfef06b2f0e2462a97560001b615b09565b612feb7f4d92374a10808d46d6aab1eb0cda72c1d78e1b3dfda564e2b27f02dd8690d40d60001b615b09565b6130177f811747dce95ebd8b6ec70dcdb0a6066831e1605f6fe52716942eccb63b1d5c6f60001b615b09565b6130437f6726754803fa98b216ab3c3bf06e2353c1a6f1832bf530973a65cb06f07847f460001b615b09565b868211156130b9576040517f08c379a000000000000000000000000000000000000000000000000000000000815260040180806020018281038252601b8152602001807f45524332303a20696e73756666696369656e742062616c616e6365000000000081525060200191505060405180910390fd5b6130e57fc90a639f0f7e611c64b36c36ba114fbfde66e3a3aa641bdadca64837570f632460001b615b09565b6131117f41c233d7191224232af4b55eb79bef7d6c83284f6c4042c319ce22ba13ddaf3460001b615b09565b61313d7f69f09bafc9e6acfe03a94509a3081fb878c7d3456fd68d3e8d898e8300efa6f660001b615b09565b81850194505b50613176565b6131757f95705870fe7adbe8730a32d571c56f0f8feb761ad95f1022b0e15705440d0a0860001b615b09565b5b6131a27f3e76ef852d5633e83cb723acc90c7ff7ccf47de942d9144990a60328a31f47b260001b615b09565b6131ce7f8152b42f4aec0f9406deda351c04719c0de8a2f527bfeae0b9c829de609d767960001b615b09565b8173ffffffffffffffffffffffffffffffffffffffff168d73ffffffffffffffffffffffffffffffffffffffff167fddf252ad1be2c89b69c2b068fc378daa952ba7f163c4a11628f55a4df523b3ef836040518082815260200191505060405180910390a35050806001019050612979565b5061326d7feae0d342d086df9f4888d7d01ccb45c3be2b5bf413f7b67cbee6b1c7f1d87f4e60001b615b09565b6132997f1cbdce65df74bd3d4266b49335f6e815a483e6cb8c909910a594ad66e2cc529460001b615b09565b600082141580156132aa5750808214155b15613503576132db7f335dfe2c7bab6f2e8625e98d02b131a7e8117a30ab7dfd0fe01b20afe43d1d5560001b615b09565b6133077fa4cc473d71edb8579a283d2848095a2e3cdfd5b47c4cdea6087d641e8d218a3560001b615b09565b6133337f18bc253f51c1cd3ddc73e6d8387209d615295a67473d864de8cdfb4f0f6c3e2560001b615b09565b600082840390506133667fa1fa8375a950207f517ff4eecccaa5428058b59eff41998605cc45558caaab8760001b615b09565b6133927f086610c4a534650bf27b59d17a3059d278e1eff055a5ef78f253b5427733639160001b615b09565b6133be7f5034048a813ad8ff6df92f2aca9759c080251e0ce5c8e8a8752402d93188a37c60001b615b09565b838110613433576040517f08c379a000000000000000000000000000000000000000000000000000000000815260040180806020018281038252601b8152602001807f45524332303a20696e73756666696369656e742062616c616e6365000000000081525060200191505060405180910390fd5b61345f7f7b68f181e286f36970fdb749fdb675fcde7f58e75ff2486270e84f839434714160001b615b09565b61348b7f64f4d251116a850c888c8472adbe932e6f98e856444f0762339afbab8930f10560001b615b09565b6134b77f80abb3c17c2c289be3aa988385f52e70e7f8d7e249040bada572e912c9b67c8c60001b615b09565b818101600560008d73ffffffffffffffffffffffffffffffffffffffff1673ffffffffffffffffffffffffffffffffffffffff1681526020019081526020016000208190555050613530565b61352f7faf4ca0c067e025f825145c4a3c028dd075403adfc54232684fcb49f245788b8e60001b615b09565b5b61355c7f7acc7cae163b21d3c7b0e3139797267d60d69454071c7b7778a998d17846f55460001b615b09565b6135887f4483ca6b844bd6090678dc2f4bd50e08b81eae79be7c5c069cc478a89c93d1de60001b615b09565b6000613592616d93565b90506135c07f928643c4eae9e29cd6aefa5629c09d049747fb60019d13ec67a53b461ca04d0460001b615b09565b6135ec7f8c45edccb031b7da265b8f551e4e37d46eec63e925700955eea931e57bf5f1b260001b615b09565b8073ffffffffffffffffffffffffffffffffffffffff168b73ffffffffffffffffffffffffffffffffffffffff16146136b35761364b7f073dd681347e0d9cf6bc401eac104f316824740e3b0843332f50e6c46e2c70a460001b615b09565b6136777fad00eb7fc5f48758487d4fcfc90acdb49fc2c56713723ffbf5a7fc21edc6900e60001b615b09565b6136a37f3fec7ee5c87710982176dadcbbc70b46207db04554c18b74acfde7ee025a06d860001b615b09565b6136ae8b8285617d03565b6136e0565b6136df7fa8db448361d0956a91cf8ca8cb263ca28ab8568231f86d0eeb56d7504c55fba360001b615b09565b5b61370c7fba0dbd5b4c37723818f725072bd41d805f65efc0823b892d1f97f9ec93412c8b60001b615b09565b6137387f30c906576eb61245f8a1050af94e9522d2e25edde4578086fb7d45a94f99314560001b615b09565b60019550505050505095945050505050565b50565b600061377b7f38bfa375a29f0cd9abcc79cc03be80a09add00d8a0135e8096e7cd8ccfb23e1660001b615b06565b6137a77f800a7979c7c256d4df98455d4d30a4ced8ae25d81c7de33cc25a42d7b1083aac60001b615b06565b6137d37fc76dd1db3913fd780747b3321f1c284e5758c17c999d61d1217de12132a3b52d60001b615b06565b8360096000828254019250508190555061380f7f31ab5694a57c95c801325a46d1f046ea48fce67dd353524de9993e624af4eda360001b615b06565b61383b7f3d91cceb073da1d47b85e565c9f37cd478145c4f655dc63799be5f0991b8693660001b615b06565b6138488686868686618270565b905095945050505050565b60007f000000000000000000000000000000000000000000000000000000000000000073ffffffffffffffffffffffffffffffffffffffff168273ffffffffffffffffffffffffffffffffffffffff1614806138fa57507f000000000000000000000000000000000000000000000000000000000000000073ffffffffffffffffffffffffffffffffffffffff168273ffffffffffffffffffffffffffffffffffffffff16145b9050919050565b50565b6139307fa6a6cada65b2ff48a221fda932cabf8b369a6e22b11b39f104185d2d01acbb6360001b615b06565b61395c7fd3298ed7a2a52e8b8f5c4b934cb036a858f1eca001e5f5801775a9072c888d4760001b615b06565b6139887f659e891ddd49bd0c045cef8897774e38524e89af947e645b5045a9e9ee12679960001b615b06565b613998613993616d93565b6175f8565b6139c47f3829665044a2300064c92d37293432f0d1b65ff3363686476004d48d575011a060001b615b06565b6139f07f994d00d5db459494264517f9a72bc61510890131a394a1b3614ee949e13b7d7e60001b615b06565b6139fa8282618527565b5050565b6000613a2c7faf6510b656d01c558643a829cffcb27a9b61e4f011921b4b3557e8d90fbb4ca660001b615b09565b613a587fa27bf65f816cdc2338576634e0d49cd95220448794f3c01069541cc318e63e8360001b615b09565b613a847f504bdb8539eb7bbdd9b97c38b8f5b2db6b7d72a5f52b4cf6352a609b83207cc360001b615b09565b600560008373ffffffffffffffffffffffffffffffffffffffff1673ffffffffffffffffffffffffffffffffffffffff168152602001908152602001600020549050919050565b613af77fb2e21e110654b628b0973e3b2e198bf13d39bd2b6cfe52e920d778bebadc67b360001b615b06565b613b237f81fd8f6d9ecf2d084b1db680a149b1a502eae177782844def3f4adec54a5d2b460001b615b06565b613b4f7feb2f01f15c4332ec0030cafd81b40713a8964967baa73d60f87ad4471479c0d960001b615b06565b613b5f613b5a616d93565b6175f8565b613b8b7fcc90f4ec7ff227b36e211a381796a0728bfc57713eccfce9827b1ef484917e8360001b615b06565b613bb77f5b1dca7720b5305e87cbf9af1dbb55b2b26303aed22b33b627d4b406ae9cd51d60001b615b06565b6000868690509050613beb7f7e056314edbfb036a17eaf45fbfca4a89fcd63dda57b1078019b15def7f1e42660001b615b06565b613c177f7994b482cc70a026341b3d74173022149bb072fe2c0895341aa97a741f570f1860001b615b06565b613c437f5f462b0ff5d72427cb5095ed9c0057762136fea6a460f6ed137b31741664694a60001b615b06565b8484905081148015613c5757508282905081145b613cc9576040517f08c379a000000000000000000000000000000000000000000000000000000000815260040180806020018281038252601a8152602001807f5265636f763a20696e636f6e73697374656e742061727261797300000000000081525060200191505060405180910390fd5b613cf57ffc53cf046193f65fb013c7611e2efea16d89b84c004733bd4f1a69fa2e1c87dd60001b615b06565b613d217f7df5d0684fc6550436ea09d12e2a7b45f9e0a704f37e276970215edfe7c8a57c60001b615b06565b613d4d7f6c3b153d6b3b61ca3e373e26a81a3460c92e357232b737157a50b93062c9f62460001b615b06565b60005b8181146141b457613d837f1c29bebe942f65ea59c2e35cb87d6055f94447740fa2233986d5b67592de24a560001b615b06565b613daf7f55fa56fd106aa7bdd755b5b23e292b56cccae0d9f7027bc688d7e2ff70bb945060001b615b06565b6000868683818110613dbd57fe5b9050602002013573ffffffffffffffffffffffffffffffffffffffff169050613e087f5a9d4802b80ad5b77e0a31c3ec4d3b3f6ba6df8f1e3ace807b3c96a84abac4b560001b615b06565b613e347fcf7058595337f803d8ce9145046f00a6bdbdf6d65e965555a1b476dea8072f3160001b615b06565b6000858584818110613e4257fe5b905060200201359050613e777f4aba436a0ea405628274b3b486823266f4d9fa4d0994f25b92df2acdf25f68e560001b615b06565b613ea37f57360c76b49b7b4d57c370ecf944451e40014b2055f243871cc706439fa9774d60001b615b06565b3073ffffffffffffffffffffffffffffffffffffffff168273ffffffffffffffffffffffffffffffffffffffff1614156140cf57613f037f383468f26cfe68699d7c03bc5b2e53516713f33b5822ce96584ee4338bd6871f60001b615b06565b613f2f7f852d289b125899d0b9ea8281a03717c2c56e94e63e91e9fb2eb6432eb5d2c82060001b615b06565b613f5b7f0944926b86923f2fa91b44d7a6d2e635fcb6b439a85682efc7e2ddf77b84884360001b615b06565b6000600954600560003073ffffffffffffffffffffffffffffffffffffffff1673ffffffffffffffffffffffffffffffffffffffff16815260200190815260200160002054039050613fcf7f7dcae358d88f49e44e09079c1632fe3e12fe95e90b8264118a5dfbf5ca02042660001b615b06565b613ffb7f3515c5f703dcd0e39db51a2ff902d8c4e2147ba525f3fdbd99556cf1090e137960001b615b06565b6140277f7fe79a6984fd57354523ce72a8717276307acd40e1eb3bf9bd4cb67d5124f90060001b615b06565b8082111561409d576040517f08c379a000000000000000000000000000000000000000000000000000000000815260040180806020018281038252601b8152602001807f5265636f763a20696e73756666696369656e742062616c616e6365000000000081525060200191505060405180910390fd5b6140c97f6cded1a6825c5957a8fdc24a35986819828c86ecef94e0dde0571c405ef94a0960001b615b06565b506140fc565b6140fb7fb1aa41903c4f8492e1227238157c2d1b5184615c34233cdda838324a6761c64960001b615b06565b5b6141287f0ea2165af66d2c71f11b3aee473a33b803eb557672da1e9e74764cd3528b187760001b615b06565b6141547ff352698f210e7d69c73530f4eb4d2276a2d467ec94798de814865d547604228060001b615b06565b6141a78a8a8581811061416357fe5b9050602002013573ffffffffffffffffffffffffffffffffffffffff16828473ffffffffffffffffffffffffffffffffffffffff166190dd9092919063ffffffff16565b5050806001019050613d50565b5050505050505050565b60016020528060005260406000206000915090505481565b60006142047f36dce1c0a9e8f2acd20eb315901ab7ccd1d73659391c625f0cf3d2a1fe3308e760001b615b09565b6142307f658bb304eee077b21e91e64ae86a4bd335a2b057e7c6985b336e46fac77607c660001b615b09565b61425c7fe7f8b1e40503dc8205e2a254d615cd73e4849dea989dd07fb3c719dbfe388b0c60001b615b09565b60008585905090506142907f75ae101b6a7d2dd2fca27e06f67826ce748f5d7d9c09671f9e7828d4717730a760001b615b09565b6142bc7fe3f27090027d88acfd1b759916643f78eef89c36e027b0eaab0a68d388bf924760001b615b09565b6142e87f77261a0ea1605354d068ce5abe171f2da4c0487b91262ac98b1e697dbbd64fa660001b615b09565b838390508114614360576040517f08c379a000000000000000000000000000000000000000000000000000000000815260040180806020018281038252601a8152602001807f45524332303a20696e636f6e73697374656e742061727261797300000000000081525060200191505060405180910390fd5b61438c7fbcb64d285fd01610abcf6aa580a576c575e1d8bcde98c2ea8a727f411b969eb560001b615b09565b6143b87f454d563a03d59baa83fa3408aeef544a9579814e321c861a7782619620169cfb60001b615b09565b6143e47fe6640b30e190403ee2cb1d7e532e0a53ff32f61383010c8125f3b3bf574c0e8660001b615b09565b60006143ee616d93565b905061441c7f031a1f2d5d901d68256e9fefcb4126791da39ca99fcd96ced77f48630e17839160001b615b09565b6144487f5fd923802db602e1a20ab918561d4c0b5d4d98c30c26384d25388ab773a1613860001b615b09565b6000600560008373ffffffffffffffffffffffffffffffffffffffff1673ffffffffffffffffffffffffffffffffffffffff1681526020019081526020016000205490506144b87f092fff64f8db892c99dd77096c3ca32fa4f59dc31a2d65fe16816c5362f4eb1f60001b615b09565b6144e47f8d214c48c3917b839c7d04027f063e12fb03d1575a1185c3fa8dc664eed4fcfc60001b615b09565b60006145127f2ba05cc2ba5dd26087de4641afd48c9149d17031df6e159da84b59f8a194777a60001b615b09565b61453e7f10109886322e42d3114a5d9dd78d054817441dbe8bbcfde30ae990777e6b950660001b615b09565b600061456c7f608bad52219acede4e39248dce767d9d77751271b49990ef4a321254fd675c4160001b615b09565b6145977e6b9669359e58f5a97c8348b6b45e2508cca350064b625ef23a5216f54e122260001b615b09565b60005b858114614e61576145cd7fc09b9820abeddea647ad499eca3d4d9a7ff108019ea289d0f433dc11f2962ae260001b615b09565b6145f97fccc8edcbdd7a7474e25d81233319591f32d9143733acd6fb06103d9200f693f560001b615b09565b60008b8b8381811061460757fe5b9050602002013573ffffffffffffffffffffffffffffffffffffffff1690506146527f0f2eb2c04df4aabb0ccb0f48a1259aaedf6fa20d2d3533e28d2e0606ef5e608d60001b615b09565b61467e7faf645f21ea9e1c26d017dcbae2198f445933f36d8248b3eddce01ac6fc4cd61160001b615b09565b6146aa7f19cd3bb810f02cec8db45733c9f269fb46ef9e52b49f468ba765ec7de8d1fabf60001b615b09565b600073ffffffffffffffffffffffffffffffffffffffff168173ffffffffffffffffffffffffffffffffffffffff16141561474d576040517f08c379a00000000000000000000000000000000000000000000000000000000081526004018080602001828103825260168152602001807f45524332303a20746f207a65726f20616464726573730000000000000000000081525060200191505060405180910390fd5b6147797f740eb951917aa43d3af4cdd7b4592f5ed5b25eb2861ea4293cdfe8fcef4ca4f460001b615b09565b6147a57f468408a8ec4193b71be0a4b6a27d1b85cfe6db2820ad9616e0216b9480a5c7ac60001b615b09565b6147d17fcde0ffc376bb880affead61fed844b72985527e3847efc849925ba6f1ee00b4e60001b615b09565b60008a8a848181106147df57fe5b9050602002013590506148147fee97907d57103c3128c7488a8231956000ceb4eda1d004ccff0b4287d49b078d60001b615b09565b6148407fe29cca4c540157aa7440801021870222779360aaba90cb369a2409bc5c1db8ec60001b615b09565b60008114614d6a576148747f0851e779049e5acce41bf7aa879dccd890cd322938e8f5804ceb70b6d1b5afc660001b615b09565b6148a07f66f92b4a36afce9f68d42fa5a02d7fffdb110783bfb3fb23a88c53df81d54c3d60001b615b09565b6148cc7f9f7d6e955251a2a07bda636446881037017f6d31794a9d57166d57396d5ca89460001b615b09565b600081860190506148ff7f03d343941d8f6d1946c3982335298e36a5538a1d07cf129cba8cec3fe33585ca60001b615b09565b61492b7f151844943a7db9a3dd1ed760f3df27f183ace41fb09e7d9df12174e86678016460001b615b09565b6149577f9e5d0fde2d898a1decc3105c57df41d1caa99087ab629f1c5112c954dae1c15560001b615b09565b8581116149cc576040517f08c379a00000000000000000000000000000000000000000000000000000000081526004018080602001828103825260168152602001807f45524332303a2076616c756573206f766572666c6f770000000000000000000081525060200191505060405180910390fd5b6149f87f860f947499a0ff628c5b9175181f65bc4a0ea2d820717a84ec5c9e8edb54c0d760001b615b09565b614a247f752ff33bfbea31ea8b4682471a9f66c03f504b26004bb58e85a85243fbb4ecf660001b615b09565b614a507fe11a764daef8acf6269a53cd7096d59f955a4116cef92319e66eb8acb1443ce160001b615b09565b809550614a7f7f4b412ae673abe1b08c331868720bbf1b6f18bf23fa68046d1861725b5bf769b960001b615b09565b614aab7f209096d6178d18ba626e430c8025d3dba3fec64dd2145d964d674ccfac34cc2f60001b615b09565b8273ffffffffffffffffffffffffffffffffffffffff168873ffffffffffffffffffffffffffffffffffffffff1614614bb457614b0a7f3b51e109b4a35a41567fdb354470fd3fffe988d4ea19a3019340c7df7449b05360001b615b09565b614b367feb780cd8dece157902c05b16afc302b0adce7708d6543609dd092a9e646578f060001b615b09565b614b627f113bbaffbad4d03b28d832a59614ba7c50d6a0920c76289aeadb71fca3a409d760001b615b09565b81600560008573ffffffffffffffffffffffffffffffffffffffff1673ffffffffffffffffffffffffffffffffffffffff16815260200190815260200160002060008282540192505081905550614d64565b614be07f4357b81c1e8c6c8b1d0ee03aa7f71a74b13775d5376c391a74070946e77b1f2560001b615b09565b614c0c7fd652acde2368d709ad76ddcc227ff68403d9819906e520b692cd3297d216703360001b615b09565b614c387fe66d5e4692b519879d6c4c8805ae1109fea60a0affe88ad11dc90a6e85f6ca9660001b615b09565b614c647fcc6d76953523d7530b78bf4af2e6f293809eb82cd210422024fe3ee45ed53d8a60001b615b09565b86821115614cda576040517f08c379a000000000000000000000000000000000000000000000000000000000815260040180806020018281038252601b8152602001807f45524332303a20696e73756666696369656e742062616c616e6365000000000081525060200191505060405180910390fd5b614d067ff56aaf50a3f11ca31449c592194d631f19e9c664e52a873e69bee10b10e694fd60001b615b09565b614d327fb75b414157439ab5f7a44caf1cd36b65b42f76b4adbdbafc27a3f1e887f7f4e860001b615b09565b614d5e7fefd9b57db00e26ea1253a0f3825b34eda1237f25bed7792703139a7df309466160001b615b09565b81850194505b50614d97565b614d967fc74145e24585e8812b1654bb7b4a38e26518e0c496a3c38536e5c1783896c32260001b615b09565b5b614dc37f7f65033f22f6802a932b55dfcc4fe4b675899be8597abac42ef9949011ad42fe60001b615b09565b614def7faf58c048e1263ac2fb385ae9d0e6c390fe0e1d503ad05162fe915ba638d2ca8360001b615b09565b8173ffffffffffffffffffffffffffffffffffffffff168773ffffffffffffffffffffffffffffffffffffffff167fddf252ad1be2c89b69c2b068fc378daa952ba7f163c4a11628f55a4df523b3ef836040518082815260200191505060405180910390a3505080600101905061459a565b50614e8e7f505999a18b5ab0bfc0c4b3fa58fe537056957f630e1c18c380ae5e72aaa5909d60001b615b09565b614eba7f29fbee7d00c9c503d31fdc2d5e5e34f4515f478f409fcf1a85903e817780594460001b615b09565b60008214158015614ecb5750808214155b1561512457614efc7fe00b6a4f3220bca4d304ed203dc7d3b104e0b65301f5d5369a3a43216c5674dc60001b615b09565b614f287f4d2b93e24ed72683f733e56ec0dde271bca680ec64072670b0122e707e1874dd60001b615b09565b614f547f55ad5a130ea663d155c1b0f190a81c66800b49e8055507cda100ffb2f40fbb4560001b615b09565b60008284039050614f877fafa4576e288ee6e295c5a9fd820d49d00845f3553980cf6eafac4bdeb01794de60001b615b09565b614fb37fac4dac563959ef5f976f64bfe3afffc554e23655e4850baa0184639b7f899a4160001b615b09565b614fdf7f722193c0156abf75c3e5fdbd9de7430b67420cd50dc94fc5eb139cea45e9364d60001b615b09565b838110615054576040517f08c379a000000000000000000000000000000000000000000000000000000000815260040180806020018281038252601b8152602001807f45524332303a20696e73756666696369656e742062616c616e6365000000000081525060200191505060405180910390fd5b6150807fde4aa99655404cbe4f32bc8b27fbb66d8025b0e38b5a8cd93a3d8adcf5b598f360001b615b09565b6150ac7f3dc9c9ae21c691eb33d2a7a104aaffb46714ba721b3c539843ae7dc12fa82ef360001b615b09565b6150d87f3384725aba087476a352ee88b4bb83897d454c2001d3249c46f577f0041b023d60001b615b09565b818101600560008773ffffffffffffffffffffffffffffffffffffffff1673ffffffffffffffffffffffffffffffffffffffff1681526020019081526020016000208190555050615151565b6151507f96cc9f008d9982e70f1f0bb8adf802828ae8d53ca62bef2f4cfcf3a81c0830a160001b615b09565b5b61517d7fdb418a7169e6a0592423b7fc9fe855a3f53f9f1fa8a2918b5b3dc30dffbcaef960001b615b09565b6151a97f6186f4137f7698c514362d57007b5af97d5d21283e597058ba6eb7a05f61073060001b615b09565b600195505050505050949350505050565b60008060009054906101000a900473ffffffffffffffffffffffffffffffffffffffff16905090565b60606152117fa720545d98fb7f42715ed4d5941edb346bb63e0fd1d859a26b6e126d40af385160001b615b09565b61523d7faea62c8cfd0590f9f53c867313bea30d6aadc26fe4b817a00fd3325a727703cc60001b615b09565b6152697ff24e710780a0f8c903bb5211e93f752083774507c65a7e4d4388e48826ebfdfd60001b615b09565b60038054600181600116156101000203166002900480601f0160208091040260200160405190810160405280929190818152602001828054600181600116156101000203166002900480156152ff5780601f106152d4576101008083540402835291602001916152ff565b820191906000526020600020905b8154815290600101906020018083116152e257829003601f168201915b5050505050905090565b60006153377feab1b372dd52356ba09929967e21d0dc341ddb156b48b20cd8bf5914f1c352a560001b615b09565b6153637ffca3473c59c91432dc003b80958a167b14c399670af45dd698192d57b5ce967160001b615b09565b61538f7f79dcb37e555affe9515f548559ea927a573349058a1b1734ee96a02642e0057b60001b615b09565b6153bb7f71786fc87a98982b466ac33a920d2370895c9afe591ed603f6c309066859b01b60001b615b09565b600073ffffffffffffffffffffffffffffffffffffffff168373ffffffffffffffffffffffffffffffffffffffff16141561545e576040517f08c379a000000000000000000000000000000000000000000000000000000000815260040180806020018281038252601b8152602001807f45524332303a207a65726f2061646472657373207370656e646572000000000081525060200191505060405180910390fd5b61548a7f84848eafcab678a7263ac53234d91780c9c314f05849c42d9025d2c069b82ae360001b615b09565b6154b67f4678e92ee9cb4bd18622e43ae5ac464f1f3227493ae9cf97e93f2b6ec725984c60001b615b09565b6154e27f42f2e48a82ca21748b6b34c1f7598cd272cc0d1f2e2c487da8efcca37577272160001b615b09565b6154f46154ed616d93565b8484617d03565b6155207f5af985276cd153971f961d8baa4ee063c6b35ca3c57b547a697d1821711be43060001b615b09565b61554c7f08fec270ee1147b025fb0dc3bdd4b6651ddffc4c495cfafe1bd41c00a9c04e0560001b615b09565b6001905092915050565b60006155847ff7b3efbdfdf5bb59a61d4cfe0697a0d1968684e27f58495bcdaa2cf67b71ce5360001b615b09565b6155b07f8defee9f3f13fdd061ac975299a8d8f3bc4d537bddac2eb8a19279aa163e8a7960001b615b09565b6155dc7f569cbc49bf2cfdc900addce274b9e69eac58a5eecaa4404a1ebe8670b322cf7460001b615b09565b6155ee6155e7616d93565b848461917f565b61561a7fb81f8c67dee055e8dee10cda56419903ff52c40c36d467b5f303cb8ab9fe367f60001b615b09565b6156467fbfd7bb5e82206557021e99dce10522851fdcdc96b81b9c3bbd52b682c7b9e26060001b615b09565b6001905092915050565b600061567e7f9e5bbe52fa1073e368c0257cd32b5921ba0bf8613af52d8f94b898677b81801760001b615b09565b6156aa7ff145f591610c65b5f6a7f6558b7e073b24bfcd1b0b6603e6a51e69e299cc169b60001b615b09565b6156d67fbdb986566b6fe2bdb5067f725908d235bd37061ee025767df5a4b23755374e2c60001b615b09565b60006156e0616d93565b905061570e7f0708c12144730737f56b7e26bde8d1779d495f5af65dc3096378ca6339bf2e7f60001b615b09565b61573a7feb45a7a95624ce4c70d467d41c137661e614f592e4c8714d0d3d09bad4dac3ab60001b615b09565b61574681888888617140565b6157727f1fd737f43548cc9152aa176ace0846bcd020c7db108c1a3d35aa894fdbe9f78260001b615b09565b61579e7f9e1de48bcb6249f60e87edec3d9c75feb4177478811a16402b9a31f74a685b5660001b615b09565b6157bd8673ffffffffffffffffffffffffffffffffffffffff166198ca565b15615a73576157ee7facc1daeb33c27ca5ff394179c759c2a40d110105aecc8b587946296740b5ae6260001b615b09565b61581a7f258f93739b28070280d845c4123d01a9c82989bb303e7c595ff86741ae6b834060001b615b09565b6158467f3c0821a8f6272ae4b7f728ae94c86e7d4d8db6811907e321d2b696a4804cfd9f60001b615b09565b6158727fe4b610991d34e9f015362306bf33cb083b1202355d7928c3a22853fa6745215460001b615b09565b7f4fc35859000000000000000000000000000000000000000000000000000000007bffffffffffffffffffffffffffffffffffffffffffffffffffffffff19168673ffffffffffffffffffffffffffffffffffffffff16634fc35859838a8989896040518663ffffffff1660e01b8152600401808673ffffffffffffffffffffffffffffffffffffffff1681526020018573ffffffffffffffffffffffffffffffffffffffff168152602001848152602001806020018281038252848482818152602001925080828437600081840152601f19601f8201169050808301925050509650505050505050602060405180830381600087803b15801561597557600080fd5b505af1158015615989573d6000803e3d6000fd5b505050506040513d602081101561599f57600080fd5b81019080805190602001909291905050507bffffffffffffffffffffffffffffffffffffffffffffffffffffffff191614615a42576040517f08c379a00000000000000000000000000000000000000000000000000000000081526004018080602001828103825260178152602001807f45524332303a207472616e73666572207265667573656400000000000000000081525060200191505060405180910390fd5b615a6e7f5434d9bcb373cad3e61e9cd676902dd9f460daa33cdec02df3b4baed88fe61b560001b615b09565b615aa0565b615a9f7f5b873a2746d5f6f5b15f8f53d1492c47b860b242174e4b1e8c0015bb75d4c61e60001b615b09565b5b615acc7f6675097bc3455d672caff269a4aab1512f968651a716ef964fcf76eb6e93af5260001b615b09565b615af87f1a70c113f6091d8931a92aed6618023892933d593aa93964f2ac2fba3304135c60001b615b09565b600191505095945050505050565b50565b50565b615b1c615b17616d93565b6175f8565b60008686905090508484905081148015615b3857508282905081145b615baa576040517f08c379a000000000000000000000000000000000000000000000000000000000815260040180806020018281038252601a8152602001807f5265636f763a20696e636f6e73697374656e742061727261797300000000000081525060200191505060405180910390fd5b60005b818114615cc857858582818110615bc057fe5b9050602002013573ffffffffffffffffffffffffffffffffffffffff1673ffffffffffffffffffffffffffffffffffffffff166323b872dd308a8a85818110615c0557fe5b9050602002013573ffffffffffffffffffffffffffffffffffffffff16878786818110615c2e57fe5b905060200201356040518463ffffffff1660e01b8152600401808473ffffffffffffffffffffffffffffffffffffffff1681526020018373ffffffffffffffffffffffffffffffffffffffff1681526020018281526020019350505050600060405180830381600087803b158015615ca557600080fd5b505af1158015615cb9573d6000803e3d6000fd5b50505050806001019050615bad565b5050505050505050565b600860009054906101000a900473ffffffffffffffffffffffffffffffffffffffff1681565b7f000000000000000000000000000000000000000000000000000000000000000081565b615d487f48deffdc3fe9e2778c01485bbc49ff84580c7a2c579075ab34e947d92294130060001b615b06565b615d737e1fa035233890fca7c71abe045e97444c1ebb176f68760e130280a52d99232460001b615b06565b615d9f7fc7b8522d85c2a3bdbedf6e0261edcdc8e8cebafaee2e00d312fa25d08829f1b760001b615b06565b81816020811015615daf57600080fd5b8101908080359060200190929190505050600960008282540392505081905550615dfb7f96cc02ba90089aacd34bbb02694deab946dab96e18551341a3b178a40d7a4d5760001b615b06565b615e277f1decd555b6f61d664381192572e18e8f9f0aded567c3f9ace56f7c6c04dead1960001b615b06565b615e328383836198dd565b505050565b615e637ff09be886b79f8989033274578671aa868c6cf991d01f449acf62d91d8669db1260001b615b09565b615e8f7f573f510482b32dedf2051a18870eea4ab4cb2733e7494885be356354b62f12ff60001b615b09565b615ebb7f4fdc4633d9d6368f90b5dda39d28205fc0ea7e75f7574f56ed787585953a4a9d60001b615b09565b615ee77f18025f4ae9c76e278f7120b1309d085aa5d1c8ee4478966e8d8f91f58d92b59160001b615b09565b600073ffffffffffffffffffffffffffffffffffffffff168773ffffffffffffffffffffffffffffffffffffffff161415615f8a576040517f08c379a00000000000000000000000000000000000000000000000000000000081526004018080602001828103825260198152602001807f45524332303a207a65726f2061646472657373206f776e65720000000000000081525060200191505060405180910390fd5b615fb67fdf57c65d551278c942938066bcf4fdcbbd11d019acc8d734ca0df669546ab6ab60001b615b09565b615fe27fd88fd66a3af3169710170dd03c96713d708141f61e3c7e50b6da18b82d3c63c660001b615b09565b61600e7f9e3a62b1c4baa97a13729922d38f52f6bb57e8a964ecaf23de781acb6f27adc760001b615b09565b61603a7f76fd6f24b26f03a00c747b3bfe7c6528e5d41b85402e83ed04a7582b268c41cf60001b615b09565b834211156160b0576040517f08c379a00000000000000000000000000000000000000000000000000000000081526004018080602001828103825260158152602001807f45524332303a2065787069726564207065726d6974000000000000000000000081525060200191505060405180910390fd5b6160dc7fcc2ebed6ca50e7fb2d00fbe931137421e975b8a4773201cb2f43fb2df297ebad60001b615b09565b6161087f8089bb1d1a3372ca8d16dd8b122faebf81484a72310585639df1cdb61f8c7d3a60001b615b09565b6161347f441a5ac679d275ac82ad37a48fc366fce45cfb3e3cf28f598a50831345aba66160001b615b09565b60007f6e71edae12b1b97f4d1f60370fef10105fa2faae0126114a169c64845d6126c960001b888888600160008d73ffffffffffffffffffffffffffffffffffffffff1673ffffffffffffffffffffffffffffffffffffffff16815260200190815260200160002060008154809291906001019190505589604051602001808781526020018673ffffffffffffffffffffffffffffffffffffffff1681526020018573ffffffffffffffffffffffffffffffffffffffff168152602001848152602001838152602001828152602001965050505050505060405160208183030381529060405280519060200120905061624f7f9d6784a7b50c9e224221513bce1160c65cda0b8b4d1ae2693ae81581aad7ef2360001b615b09565b61627b7f74fb6f531932aacb421bb787011227d812f59ac73b3bf773a5b54698fddbd8d260001b615b09565b6000616285611a9b565b8260405160200180807f1901000000000000000000000000000000000000000000000000000000000000815250600201838152602001828152602001925050506040516020818303038152906040528051906020012090506163097fd1112790f26e63342c86cde91ac18ac9397917f0bd64253a5f6183ad8b8056e160001b615b09565b6163357ffa507693139a98b6d695aa36d7e2d92f691306f84cc2c60e8490730a7cde224060001b615b09565b600060018287878760405160008152602001604052604051808581526020018460ff1681526020018381526020018281526020019450505050506020604051602081039080840390855afa158015616391573d6000803e3d6000fd5b5050506020604051035190506163c97f2d184e59b10fcc4171eeb7c8e7da4b1700fac0b1b4d8778ae6ade04a012626bd60001b615b09565b6163f57fd75b53ac20da65cadb176497ce382d7c59c873d5f9529e53c3e4d898e6436bce60001b615b09565b6164217fb8ff966167f57a92c7650a9203a941814be49b708f2d787381af0c6fe5a326b560001b615b09565b8973ffffffffffffffffffffffffffffffffffffffff168173ffffffffffffffffffffffffffffffffffffffff16146164c2576040517f08c379a00000000000000000000000000000000000000000000000000000000081526004018080602001828103825260158152602001807f45524332303a20696e76616c6964207065726d6974000000000000000000000081525060200191505060405180910390fd5b6164ee7fd2ba33033a5cbd013b9b21bc02339f7198344564e0e00ee7d99ef45bd7546e6660001b615b09565b61651a7f9b23e83514b5583f41cc3a66d5717b8264705f4f11bd1ef757ecd7a0d0410cdb60001b615b09565b6165467fae022d484e8e3056bc9d902d1bcaf8107807ddfd653db7f8581022cd801e244360001b615b09565b6165518a8a8a616e26565b50505050505050505050565b600061658b7f9657f75befcadfd2dcff060f5445774769f55c48851dd5dfa16afb17ed69b25c60001b615b09565b6165b77fbf67582f32357054216c600b2db4d7fe5be581b967c63fd0290fb01e360795b760001b615b09565b6165e37fd6808f6aeeaa27430164f9dd41717cfe859bbb2081a24145f606c7e84a7b629260001b615b09565b600660008473ffffffffffffffffffffffffffffffffffffffff1673ffffffffffffffffffffffffffffffffffffffff16815260200190815260200160002060008373ffffffffffffffffffffffffffffffffffffffff1673ffffffffffffffffffffffffffffffffffffffff16815260200190815260200160002054905092915050565b6166947f3775ee194deb1cc732bbd3467d6bbfe699295fff5dc555f6527ac6ede3e8d49960001b615b06565b6166c07f4613bab3d437b94fb1ccb31dd42a4e8c26e07f76aeccab48adf683ee95d2a2a460001b615b06565b6166ec7f8b36ac875da6510956db75ef23a6e6fc36df8f3d273a3f66e3207da560c4a38560001b615b06565b6166fc6166f7616d93565b6175f8565b6167287fb5cc92fe38b29a5d79970715c71f5e11c9e0dcbe79b8c1fa4c6e037a69f3d99060001b615b06565b6167547fa429c30311a3912b95d2fad6e0d1a3dacca08246b9c37b30eb3a1fe39c2946d160001b615b06565b81816004919061676592919061a59f565b505050565b60006167987f85a36147d775ef05c9448f09d9e2dde52f0e5820d0dd7f939a445f17a145c87d60001b615b09565b6167c47f65105c95bae1eb5c19955205df4d9b1148ace2b3d10aaa8ba636d6ece994f7e260001b615b09565b6167f07fe6093ba54e459340fccf588504241fc3fc9d9cfb15c8987133a52fdfa714aa7c60001b615b09565b60006167fa616d93565b90506168287f6154c9bf083f6c52a18e06c157aca6c9b8ff1265069b5e9f68dbcea80545ab0d60001b615b09565b6168537e505b853f6320cd114e1f7cd80dca4982355773ca8c0bc1d1b5d1fad9cb2d7b60001b615b09565b61685e81878761917f565b61688a7f7419462eacfc58d3b13e6175a5e310a188fef784cb2bb84e6a3d1ac7075ac4f460001b615b09565b6168b67f275273b936f1af3df6ffb453b82dcd5c87f6324b1d520165d999a3f7ade0091360001b615b09565b6168d58673ffffffffffffffffffffffffffffffffffffffff166198ca565b15616b8b576169067f96daa9bafc009d3f290efdc4c3ebe19436b31c26eb341a3f7cde8a5ab5ee051860001b615b09565b6169327f856c082fbe08f643eb7c79084025bb035d6bfc1a7919fa2afa77b33094b27b3c60001b615b09565b61695e7f61ad32a440df07f8fd20f329d3f9757af5ccbae95466c3abb108d609917ef44260001b615b09565b61698a7f1620c0fa09bc471c4903604b1323d13b04d98d0e2cf4327e28f219a75bffc08960001b615b09565b7f4fc35859000000000000000000000000000000000000000000000000000000007bffffffffffffffffffffffffffffffffffffffffffffffffffffffff19168673ffffffffffffffffffffffffffffffffffffffff16634fc3585983848989896040518663ffffffff1660e01b8152600401808673ffffffffffffffffffffffffffffffffffffffff1681526020018573ffffffffffffffffffffffffffffffffffffffff168152602001848152602001806020018281038252848482818152602001925080828437600081840152601f19601f8201169050808301925050509650505050505050602060405180830381600087803b158015616a8d57600080fd5b505af1158015616aa1573d6000803e3d6000fd5b505050506040513d6020811015616ab757600080fd5b81019080805190602001909291905050507bffffffffffffffffffffffffffffffffffffffffffffffffffffffff191614616b5a576040517f08c379a00000000000000000000000000000000000000000000000000000000081526004018080602001828103825260178152602001807f45524332303a207472616e73666572207265667573656400000000000000000081525060200191505060405180910390fd5b616b867f8052913ba903a274a800fbf1f6d6d4dbf0979c9c97eb4b378e372a6a4897c2a960001b615b09565b616bb8565b616bb77fe76998664b4b6c5efd4f4d8eaf5967b63eb02648b4f6719152616678073818bb60001b615b09565b5b616be47ff30e4d6426e38b6dfb75cfba15ba7fdb4ff6bd07c3c68d7c5005c66b5012f32660001b615b09565b616c107f2baee224fa98b0ae25b7d4c245985ef73e654ed4d06a884d7b11b35726f4137260001b615b09565b6001915050949350505050565b616c2d616c28616d93565b6175f8565b806000806101000a81548173ffffffffffffffffffffffffffffffffffffffff021916908373ffffffffffffffffffffffffffffffffffffffff1602179055508073ffffffffffffffffffffffffffffffffffffffff1660008054906101000a900473ffffffffffffffffffffffffffffffffffffffff1673ffffffffffffffffffffffffffffffffffffffff167f8be0079c531659141344cd1fd0a4f28419497f9722a3daafe3b4186f6b6457e060405160405180910390a350565b50565b6000616d1b7f11bf1bc785ef57e4534abeef4874e36dcd971544c98a48930241e775e63c2ccf60001b613901565b616d477f0551257632bf267c54ca465ba5e8c41607311961ac21458b7e8370666cff1ee260001b613901565b616d737f4408d35f2aad6511ddcce6fe5cacda9d845b4cc2a8b4c5230b63c126623c537e60001b613901565b616d7c82619a57565b80616d8c5750616d8b82619e1d565b5b9050919050565b6000616dc17f20c2510dd20e4f4668b41c88ebf2a93ff363adee9332da6f682a01a3a3de06b860001b615b06565b616ded7fdc38aa0abe68deea21eaf67e0f46d710ac986207fdbba5d6d2a52bfec96aa86760001b615b06565b616e197f2a431b3d152aeaea4951a2acc83805da23d9325d86ffd79308459b5c432e3f5c60001b615b06565b616e21619f73565b905090565b616e527fb41ffd4c2b604e8ce6b8aa8fded86b08b90b515e8225e3364f4e94ea8c64535960001b615b09565b616e7e7f755e4369c2eabadafb3136b0eb4464424a67e070c153c19fba9b80ccc9d7ee1960001b615b09565b616eaa7f0e77ae358888338471fb048297aeda3433b14a04252cd54b018dc3ba7e58daaa60001b615b09565b616ed67f8c080f850fa62d8b752c2b0a269771cfc6072de65cfc47d966d1052c7bb8d2c460001b615b09565b600073ffffffffffffffffffffffffffffffffffffffff168273ffffffffffffffffffffffffffffffffffffffff161415616f79576040517f08c379a000000000000000000000000000000000000000000000000000000000815260040180806020018281038252601b8152602001807f45524332303a207a65726f2061646472657373207370656e646572000000000081525060200191505060405180910390fd5b616fa57fba138d9b82d3f25d74846001aa4dbaa2faf4cb638b16c45dd945c91fec297ea560001b615b09565b616fd17f41efb9eb06882e1ae16657a7e44a3ee6bb7b615af8af13122b096f7f87ae054160001b615b09565b616ffd7f79b60829078eb636ddeb435932b6e3d5d1d2970641cf96b44b98a978fe652b8860001b615b09565b80600660008573ffffffffffffffffffffffffffffffffffffffff1673ffffffffffffffffffffffffffffffffffffffff16815260200190815260200160002060008473ffffffffffffffffffffffffffffffffffffffff1673ffffffffffffffffffffffffffffffffffffffff168152602001908152602001600020819055506170aa7fecf0cb7f0be33c8f74ec18386f5c1c61701da0a856ab0968cd0d4775f272bd9f60001b615b09565b6170d67f1e7011daa876dd6648bd3ff1519780e9669e3b8c585731548a35a8627d47e2c860001b615b09565b8173ffffffffffffffffffffffffffffffffffffffff168373ffffffffffffffffffffffffffffffffffffffff167f8c5be1e5ebec7d5bd14f71427d1e84f3dd0314c0f7b2291e5b200ac8c7c3b925836040518082815260200191505060405180910390a3505050565b61716c7f2394024eb4368ce5b8a91eba173da2b358b94b42ec7e83ddbf8fafc8b545bda960001b615b09565b6171987feafd6765c3b93f70ab7440bd8162692359701d5b7747cb3641ab77c62305f31b60001b615b09565b6171c47f186fd07d54e4e2dd1ad64ae2832c59108b5484e62e1660108fa2addb7a1fd74360001b615b09565b6171cf83838361917f565b6171fb7fd9bccc750b3443b0ef706ae5fc46c6668b9714e6d9e42a63e829621bb5d90d9760001b615b09565b6172277fe8dfc78957d462f491e8e2868cda449816f2b3b52bbe39608f65cbf0cf4b2e7060001b615b09565b8373ffffffffffffffffffffffffffffffffffffffff168373ffffffffffffffffffffffffffffffffffffffff16146172ee576172867fb7837a53b97d5576e4dd1cc81e1568caf0974e99f4cc1c6b6d0471c56299f36a60001b615b09565b6172b27f9a8e377e8fb934bfec83f5c80e63ef85dbbfa0e331e525ff734ca0e95ff6e8c160001b615b09565b6172de7f3e3580cedf9922cc887c41413c7cd8559f3db0b39fe9a782ee3470d0e3ef3f6060001b615b09565b6172e9838583617d03565b61731b565b61731a7fb4a56cf2ae16997ed837eba0b8883dd37952102ddde8a6ad1e1960401cae39d760001b615b09565b5b50505050565b61734d7ff7ca5b6e8bf2a931a00aa1c1b2bcdbda5c0f2fe9c3147d7019eb1ab1f4089dc060001b613901565b6173797f8a9cb234604a90baeecd91de9909f4c62b2fb1c7896b2e2a83746640b8821d4060001b613901565b6173a57ffa22f1386997f6deda8258842e78008e5b7d4265d5b87467c91f51345b25cd4c60001b613901565b60006173af616d93565b90506173dd7f9864c586f0e6b4c824b307aeb6d4b87aa8140ee1e66c96ece273d619ab08590a60001b613901565b6174097f702bdffaafd85faad2c96682ca006dcdd4cfd94acc43e2be1e32dda4a21ea58460001b613901565b61741581823085617140565b6174417fbe89833a897710328d7345d702446a0586df3dc36740ce8d386b33b7fca7b58360001b613901565b61746d7fa65ec20e5235224b1f6fa19f582caefb3f55fdc78080c0b3f6e9da6fc8910a7360001b613901565b7f7084f5476618d8e60b11ef0d7d3f06914655adb8793e28ff7f018d4c76d505d58183604051808373ffffffffffffffffffffffffffffffffffffffff1681526020018281526020019250505060405180910390a15050565b60006174f47f944c756d5d5f2a243e454b45fc9555d5da7652dd4606d195dc34efbf761fdf8560001b615b09565b6175207faa08908f9f4beadbac7e4c7f998a0acfcbb4350d736ee7e36f1579fae9bd064760001b615b09565b61754c7fd732a1b4cb4603fac188410fc428b31ff987007b8863a01a3eed940aaf97080460001b615b09565b7f8b73c3c69bb8fe3d512ecc4cf759cc79239f7b179b0ffacaa9a75d522b39400f82805190602001207fc89efdaa54c0f20c7adf612882df0950f5a951637e0307cdcb4c672f298b8bc68530604051602001808681526020018581526020018481526020018381526020018273ffffffffffffffffffffffffffffffffffffffff1681526020019550505050505060405160208183030381529060405280519060200120905092915050565b3073ffffffffffffffffffffffffffffffffffffffff16638da5cb5b6040518163ffffffff1660e01b815260040160206040518083038186803b15801561763e57600080fd5b505afa158015617652573d6000803e3d6000fd5b505050506040513d602081101561766857600080fd5b810190808051906020019092919050505073ffffffffffffffffffffffffffffffffffffffff168173ffffffffffffffffffffffffffffffffffffffff1614617719576040517f08c379a00000000000000000000000000000000000000000000000000000000081526004018080602001828103825260168152602001807f4f776e61626c653a206e6f7420746865206f776e65720000000000000000000081525060200191505060405180910390fd5b50565b6177487fa18d11221352f352ef86febf90e139e2b253c56b8c57c2d059a12038ff40ff7e60001b615b09565b6177747faa9bbf832af379a698a689ae6e28baee27d8f95a53b0522b24aa79b888928b6a60001b615b09565b6177a07f335d58db6850ab9524b5240bb60d568f1778eedd47883c68f1d92051057823f860001b615b09565b6177cc7f943f68c4a61fe402fa3c0d14a5dc3b1cebde00e22d931d612fc3c1bf22c479e360001b615b09565b600073ffffffffffffffffffffffffffffffffffffffff168273ffffffffffffffffffffffffffffffffffffffff16141561786f576040517f08c379a00000000000000000000000000000000000000000000000000000000081526004018080602001828103825260138152602001807f45524332303a207a65726f20616464726573730000000000000000000000000081525060200191505060405180910390fd5b61789b7feb5727ef78da1e243353670a75bc1a7ff9e99689d611ac0e4266822a42d4542d60001b615b09565b6178c77f4358dfe69c8aaaa0a59217316a7b395da625c968fbc25a1af929fcae1497288560001b615b09565b6178f37f6d012b758ad104c5bfb4040c36d5bb4183aa5ba4c33df957bb8b4781576e173060001b615b09565b600060075490506179267f7f58b45cdccc12fae78a141f89468041addfd60796c541cff268edc1ef538a0f60001b615b09565b6179527f0bd0f52ff53b53f5a1514b5ebc18c8204749215e7b0a616c5cf6bcf38667d9c460001b615b09565b60008214617c13576179867f8873b5415dfdd06dc416e1a8fdb2afdaabc323ae19254ad223eccff2492097bb60001b615b09565b6179b27f7640715c5bb0d1cd32a484804c03972c5cdebef1d6ba611ca7a080a897f7ba4360001b615b09565b6179de7f8d42bf01ed15e5045a354e4ccb50e31c8075a242438471f67c6333c187c38fe660001b615b09565b60008282019050617a117f07dda80bb9d9fb0d2f48ad2701855c2a21865080853e7e49fbeaceda51dd89ef60001b615b09565b617a3d7f3a31b1a66f0acc65a6200f4372cad53e61c9278fa5a778790c9f068adbb9a27b60001b615b09565b617a697f2584e812dd04a0a0e8966a7ee4794fdc3fc8a5e9dce237b01c7ae40f6ba23dde60001b615b09565b818111617ade576040517f08c379a00000000000000000000000000000000000000000000000000000000081526004018080602001828103825260168152602001807f45524332303a20737570706c79206f766572666c6f770000000000000000000081525060200191505060405180910390fd5b617b0a7f4c0069d08618115e634c0ff1ab1273e8e320c2625aa681c25d1b87ca0d15986860001b615b09565b617b367f8d5bb9aef1abe3283bffd982c0b4c0b4fe8f850b005d1697ad196c4263ca0a6460001b615b09565b617b627fc02839d7b6eee98759e46fd1e47dd65e3e29a676791986b82041e93229c7c5bf60001b615b09565b80600781905550617b957f51fd9fb59a56dc5dc60d62252e187693c3304b53a43c23ca43d1d2bd429c80c160001b615b09565b617bc07eb868e89da87d584c6d741c3aae80e8f468b98c014756c0e9b124031c92daa660001b615b09565b82600560008673ffffffffffffffffffffffffffffffffffffffff1673ffffffffffffffffffffffffffffffffffffffff1681526020019081526020016000206000828254019250508190555050617c40565b617c3f7f5d9cfc507202f97e8b42e3b8b3733e40f2c64b542644fb85bf599f728fdffdef60001b615b09565b5b617c6c7f1bc3e64b33d009d7bf99e710225b15088c2b670eb2cb17d687597134a599f26560001b615b09565b617c987f20ada884d60ad72ebc01a32582d33a1b82945852b6c42d6573170cb572c362fa60001b615b09565b8273ffffffffffffffffffffffffffffffffffffffff16600073ffffffffffffffffffffffffffffffffffffffff167fddf252ad1be2c89b69c2b068fc378daa952ba7f163c4a11628f55a4df523b3ef846040518082815260200191505060405180910390a3505050565b617d2f7ff99b5db63b23ae132ce2d9693f1b5f3599104065dd4d1982cf375de8ee31f0b260001b615b09565b617d5b7fb023caacdcda4dd892407686e5fc2b9d5592553fcb66641b57b76abe9274407760001b615b09565b617d877f082922920edcbfe0a7a82b8fe174a78faef5767c021d49e4c0ec2ee4bd0a6e1b60001b615b09565b6000600660008573ffffffffffffffffffffffffffffffffffffffff1673ffffffffffffffffffffffffffffffffffffffff16815260200190815260200160002060008473ffffffffffffffffffffffffffffffffffffffff1673ffffffffffffffffffffffffffffffffffffffff168152602001908152602001600020549050617e347f92ac343592c3973c35f224f71761cd47d5b8068ad929cbc5a207e3c60ac8567960001b615b09565b617e607fd74da7d160d97f0a0146e3991225fb0bf9d405f9ca7fbf66c4e7ad23759f397660001b615b09565b7fffffffffffffffffffffffffffffffffffffffffffffffffffffffffffffffff8114158015617e91575060008214155b1561818057617ec27f86998b663ea0b8b636a3fcb2e43dc0c2f6f3d385b0c066521b2d963abbae1f9d60001b615b09565b617eee7fbc404a18bcd1277ec4a7d1b6a0b7ef610ca0dbe4091a58c3e94e9ab18dcb046960001b615b09565b617f1a7f2df42e005c132176ebe0e5053f5b2190a72742e6b631101113e0f97c5bd77e6860001b615b09565b60008282039050617f4d7f7c02f5e7a1be51e1321664da88e19f9ec87869ac92311d4d0e11785d6229a88060001b615b09565b617f797ffb405f6552850a1e58e84c996200c5d1978072e6307a16f0378912c6c9c4a09c60001b615b09565b617fa57f03c93d54a41183af10819cc67bb24cc6b2da76f90b7dc57cd5aaa7048d7f1bbe60001b615b09565b81811061801a576040517f08c379a000000000000000000000000000000000000000000000000000000000815260040180806020018281038252601d8152602001807f45524332303a20696e73756666696369656e7420616c6c6f77616e636500000081525060200191505060405180910390fd5b6180467f06d5583d8cd101730bb53259769beeb9efb84976766c6e831a4845d4d4380f5d60001b615b09565b6180727f3f8d656389c19250a800e7e298eadbfd55e9ace423c3e07739a3bce4fc83d9fd60001b615b09565b61809e7f605e589315c7501a4e79ffc5d059cf6b2b47e1469e98b239c94ddf6fe576636e60001b615b09565b80600660008773ffffffffffffffffffffffffffffffffffffffff1673ffffffffffffffffffffffffffffffffffffffff16815260200190815260200160002060008673ffffffffffffffffffffffffffffffffffffffff1673ffffffffffffffffffffffffffffffffffffffff1681526020019081526020016000208190555061814b7f53fa81b0076633286075ce7087d16c15adb776bb9d2f4480d79dbf37972286ce60001b615b09565b6181777f1b4f86fea707edd7bbd46efaf931b75994ddd555bf60663c8d6baae8e529cb7e60001b615b09565b809150506181ad565b6181ac7f7493047b75d189d3c2e5063cb9a908d35771cd0bbe8a9a6abcefc82dd091081e60001b615b09565b5b6181d97f73f8c9e8c936dbadaa80377c502f23e4c24fec1a540aa61bead67abce63e36cc60001b615b09565b6182057f093a8589f6a648180a84cd7501eafe145f2c809104c0ef8079af339d4b11850960001b615b09565b8273ffffffffffffffffffffffffffffffffffffffff168473ffffffffffffffffffffffffffffffffffffffff167f8c5be1e5ebec7d5bd14f71427d1e84f3dd0314c0f7b2291e5b200ac8c7c3b925836040518082815260200191505060405180910390a350505050565b600061829e7f97f8f8cc3026a2109f8c8df07b6584a23aca2404f01ad9a07708280e01a7850160001b613901565b6182ca7fd6b40bb8d9f994f7bcba7dd2ced6df39d1f7527e6531ad64b5d68981b9ea1a1560001b613901565b6182f67fd037638645fc2ffe183f95700638fe0624f74b04691acf69a473b5598cb9f54460001b613901565b6183227fc21987366b3ffd683bf7ee01aa6377a8e8c22647f4b6acafe6b86f06c0a083e960001b613901565b3073ffffffffffffffffffffffffffffffffffffffff16618341616d93565b73ffffffffffffffffffffffffffffffffffffffff16146183ca576040517f08c379a00000000000000000000000000000000000000000000000000000000081526004018080602001828103825260188152602001807f4368696c6445524332303a2077726f6e672073656e646572000000000000000081525060200191505060405180910390fd5b6183f67f9312a43cd6fa6d8ff8a232097d5616674cd43804dfd23423736dbccfafc49cb760001b613901565b6184227f8abc2cdc411fdd3dee17990c980d713fc8a49b095ab66041a6cc042422f0afe560001b613901565b61844e7f1b80808310ad622e043c2802e96b53585e85afa3c490e587af607f94f6c3bf6b60001b613901565b7f7084f5476618d8e60b11ef0d7d3f06914655adb8793e28ff7f018d4c76d505d58585604051808373ffffffffffffffffffffffffffffffffffffffff1681526020018281526020019250505060405180910390a16184cf7f17c86c6c3f49758545c23c23b93d91f58ae39a925cab0387d7ad2b566e3cfe5f60001b613901565b6184fb7f3276a70683b1d95db106932b04815e819873922375eb0c9750664a6eb24cd74360001b613901565b7f4fc3585900000000000000000000000000000000000000000000000000000000905095945050505050565b6185537f20fc3a3025e46ba68506603cf55a8ab7589421dc8cc9acd80bdc1e6ae81f05c460001b615b09565b61857f7fba9abe6a98cdc1f94ba4e225b482fd128eb20d7d06898ce3fcfc5f502d9d1b0860001b615b09565b6185ab7f3ba48f63ffe8b5ccfb3d0838ad68ca5a11190b8c7f2a437b94073bebc146687c60001b615b09565b6000825190506185dd7fcffebafbf9e4663757c3f9bd87018bcf88449b7964c7f65690af35a583373be960001b615b09565b6186097f536085bfab79c3adf33b0b3d83d9783b283121e3905692cb791e7cdb4e9307a260001b615b09565b6186357f28a09ac6290879af2293f0fbcebda75f1387155822a9e3d43f7d7227943b292960001b615b09565b815181146186ab576040517f08c379a000000000000000000000000000000000000000000000000000000000815260040180806020018281038252601a8152602001807f45524332303a20696e636f6e73697374656e742061727261797300000000000081525060200191505060405180910390fd5b6186d77f4f30f646ddddb494189e6910f6792e9e86625ce13475948614bd943ef381721560001b615b09565b6187037fd8ef06c94df637ec3f9113c7a73da0f5f512d8f8fd38f37902fe6be519cff0ab60001b615b09565b61872f7f80d539030dd34f2eb0d37883a4ecfe160d66aae6c9626aad2973cd90572ca22160001b615b09565b600061875d7f1b3654878968e204d754e0a487961a65282ab1dce5a0526be95c49f0b2756b4f60001b615b09565b6187897fddd11b869e300f1c3a8c38881b13af11f9349d9483da72e8db7d9b21d9379a5460001b615b09565b60005b828114618dd4576187bf7f554ae65dece2c41c56ba42dd945a857d5ce2ad3847acb3f531b5ec48aaefa2e660001b615b09565b6187eb7f248219498dcb66ef28903989e639a6de2182f75180726d5bcd0fbd3778731fdf60001b615b09565b60008582815181106187f957fe5b6020026020010151905061882f7f32c034bd3455704f3783113d545a7ab7dbe141c0501bc8bd361c5ce7d5957f5a60001b615b09565b61885b7f08a2e445ee1d9bf21680de1ec5c4c2cc4bafbe808661464ed3897c1539dcf3c860001b615b09565b6188877fe7750c41b5b900f1393ad6711460fd1bb15fae5128017093d43fc2dec50449ff60001b615b09565b600073ffffffffffffffffffffffffffffffffffffffff168173ffffffffffffffffffffffffffffffffffffffff16141561892a576040517f08c379a00000000000000000000000000000000000000000000000000000000081526004018080602001828103825260138152602001807f45524332303a207a65726f20616464726573730000000000000000000000000081525060200191505060405180910390fd5b6189567fd1ab9a79035ce45704c7580e6d0a24e156e52d6245a0928d24b3a00dd9f1a8ff60001b615b09565b6189827f3421be204182a90b101c1d4be8b936b071e75bffbbbc91fc85bab45aa6e3192660001b615b09565b6189ae7f59e6a4d533dce51cf4484487e0b92903d0780a5377b28a65f49f84e6658c83ae60001b615b09565b60008583815181106189bc57fe5b602002602001015190506189f27fc2c40173c340c7fa464da1bb0224fd8d05c1d3e8231a6c7df88ee9096808bcd360001b615b09565b618a1e7fbbe8dea263cea70d1629ed86c54e6475a6bde4fc7a2e475664247cb68f97326560001b615b09565b60008114618cdc57618a527f918047cdef3cbeae26152c625941fe68f100821b3d592678f8fc073d17ac1bba60001b615b09565b618a7e7fad2185a253d17741595df38ff3aa658d6f512195ec20834724c455b43a17844860001b615b09565b618aaa7faafc7c9fab73064c7f704e57ab8a392c8d68581d5956073c5c1a19608f95a12860001b615b09565b60008185019050618add7f7fb926d15eb74ada58463bb7b8465664548a47d7dedc379af5ac974dcc974f1660001b615b09565b618b097f65b39fea598a03fb39e80c488a4f4b2039c9332952aceb58211351459b6796f560001b615b09565b618b357fbe9a7c48aadf276ca12582a73255f836be03e56d19d1431ea228f7c8cc8dc90660001b615b09565b848111618baa576040517f08c379a00000000000000000000000000000000000000000000000000000000081526004018080602001828103825260168152602001807f45524332303a2076616c756573206f766572666c6f770000000000000000000081525060200191505060405180910390fd5b618bd67f4eada8eb3370e0ffab5b6480c9f708ff38f9f7d5e9ce173fc491bc174fbcabab60001b615b09565b618c027fcc9df20e360e0c354d314f6c355a7d77f27351b25843d3a363d282afdc6688b160001b615b09565b618c2e7fc738a37396cb337512ad461fbba31a6d7edd4803389b35cad465b3143ac6a99c60001b615b09565b809450618c5d7f5a1570ab7171545ced0efed1dcd550e352ae069952e06fa0c8031a7ee055cc0b60001b615b09565b618c897ff5706860fcd71ae977a4419e8637de134112a93b9e8e6ea0232f43fca41935dd60001b615b09565b81600560008573ffffffffffffffffffffffffffffffffffffffff1673ffffffffffffffffffffffffffffffffffffffff1681526020019081526020016000206000828254019250508190555050618d09565b618d087fe46f076c769a75777f187475ecebc8fde86e2263520863db7d61261ba876d47360001b615b09565b5b618d357f57bd54e293dcbc8aaa34547ffd71546e2054d69a2652ebb36c08ee6951fdf28660001b615b09565b618d617f291fb6e70d34689648ea6276e18abccbe359700acac4e46d2dfa59fb680947e660001b615b09565b8173ffffffffffffffffffffffffffffffffffffffff16600073ffffffffffffffffffffffffffffffffffffffff167fddf252ad1be2c89b69c2b068fc378daa952ba7f163c4a11628f55a4df523b3ef836040518082815260200191505060405180910390a3505080600101905061878c565b50618e017fa3192109964a953eddcded1124c212145fdfc6191b449e292afeec0c6724bd9c60001b615b09565b618e2d7fe3a3c92252356f4da6b5a5856b6ff25f8912015c3e64a498716da6cefe3f985e60001b615b09565b600081146190aa57618e617fb4a3a3630c0c9767f60c5c1c80db2cf3410300342ce9836e8884d31d5b94b95060001b615b09565b618e8d7fd554ec3cb88eb40c74c6daba4a5c78c2deb776e0224a69d15f7ff4ba7db3e30160001b615b09565b618eb97fc4c4b7fccd54e59915f5bbc138504538f30e4478f364df05e33da7049d6d63ea60001b615b09565b60006007549050618eec7fabac5bdfda460ff7318f2f227a8e332fae4d305960f530c989e339c6164c375e60001b615b09565b618f187fc31f9794bfc938e6743f55edafa3bfc4803ae39f0872e8a6610b484fba95cb3a60001b615b09565b60008282019050618f4b7f9b5b5e0770170c858dd9a83af0a8caf5a29bff4120ec57930939f9660e94797360001b615b09565b618f777f513ef81a9b5da7e778533e59a53984765117fe9028a88b0d605772b90bcbd84f60001b615b09565b618fa37f3105da534cf8b8cc1d35308d92775b113eff17c2459205aa8eb5998313ef17de60001b615b09565b818111619018576040517f08c379a00000000000000000000000000000000000000000000000000000000081526004018080602001828103825260168152602001807f45524332303a20737570706c79206f766572666c6f770000000000000000000081525060200191505060405180910390fd5b6190447fb1db0c6c18210b5bd4dac396c547d7e9b4b77f74bffca52402ca421f94bc233160001b615b09565b6190707f94cd230bf64d3d479ecba3ff2381c227c58cab061fa582c21118a27b4ef0074460001b615b09565b61909c7f8ac8cf9bf4101a974552ce734d9d12bd2ec82a8c628b0cf73c77197054a93e9960001b615b09565b8060078190555050506190d7565b6190d67f534874bb5c95905b6710526d9e5b9bbf9bf55c670ea3b24c7f154f0bd264d54d60001b615b09565b5b50505050565b61917a8363a9059cbb60e01b8484604051602401808373ffffffffffffffffffffffffffffffffffffffff16815260200182815260200192505050604051602081830303815290604052907bffffffffffffffffffffffffffffffffffffffffffffffffffffffff19166020820180517bffffffffffffffffffffffffffffffffffffffffffffffffffffffff838183161783525050505061a169565b505050565b6191ab7fff49898f80a30d77c9f345a3996de6c6fba1b7d757113915a78c585e77281a9360001b615b09565b6191d77f4f4e4f9b2acec44e99c19116329b1ea230ee2b28def5f6788afff76fddb9583160001b615b09565b6192037fdbab1bcadcc49e1b4d33e64c906ae5f2c1d40a25d9f7781738729b96bf1de04760001b615b09565b61922f7f83ffaee7167fe181ce23f97daec79f82691ab60f77d0bf2e592fa6cf6e987e7a60001b615b09565b600073ffffffffffffffffffffffffffffffffffffffff168273ffffffffffffffffffffffffffffffffffffffff1614156192d2576040517f08c379a00000000000000000000000000000000000000000000000000000000081526004018080602001828103825260168152602001807f45524332303a20746f207a65726f20616464726573730000000000000000000081525060200191505060405180910390fd5b6192fe7f118d930754eade37480b405f0597e74771a2f601ff77b663444765c86c94a93360001b615b09565b61932a7f51cceddc9b2e3d681de06115556721d34124a9343c4bc95b684d6d6e1ea6e60c60001b615b09565b6193567f27a9b5d9dd34e7ed53363d1231920e5110e72beeb44125ccc1fb7158b1a8895d60001b615b09565b600081146197db5761938a7fb0d0a6bf954d768cbdf1ccaa58ba7704019d6588825206222c96e5d10d89fab660001b615b09565b6193b67fe1c90ff13395bff137b61ab3472a4a8c2b1b3e125730b4cf844d722f759b825b60001b615b09565b6193e27f0c057d6eac771901994741cd9d70d51d97bb95915081eb20f992c36cd63a01f360001b615b09565b6000600560008573ffffffffffffffffffffffffffffffffffffffff1673ffffffffffffffffffffffffffffffffffffffff1681526020019081526020016000205490506194527f6f6fd6d0801ba56716a98631f97541e450f969547efc4b305082ea0e754db78660001b615b09565b61947e7f9bae911a66df7d66493affbc76ffb6c90e53a7cc400bfc69a7c3e76398ba036c60001b615b09565b600082820390506194b17faa9e0aa90b4672b3f490a2da8e06cce762a6b79a2cd8b7d030f1c48cda3ef4aa60001b615b09565b6194dd7f20ee195d157df5e893feee2c1da9b7bd5bd68189605ff617e8c183103bb3cd0160001b615b09565b6195097f256a346509d0bf070c259d4197da19dac82b843012ef416521e996af2c60bdf260001b615b09565b81811061957e576040517f08c379a000000000000000000000000000000000000000000000000000000000815260040180806020018281038252601b8152602001807f45524332303a20696e73756666696369656e742062616c616e6365000000000081525060200191505060405180910390fd5b6195aa7f494357999c9e810bdca7c229a50560a0c01ffeb81e29ddc165df8217e472ac3460001b615b09565b6195d67f7cd81a18ecec675125d8a19af62a2e3ba2d6e7688b30d1a67451548887b8992960001b615b09565b6196027fde771b1531b2a17d0feee400c0f1af9980d6c77b4c821ac30d7a35c2c8a905ca60001b615b09565b8373ffffffffffffffffffffffffffffffffffffffff168573ffffffffffffffffffffffffffffffffffffffff16146197a7576196617fc9fc90f82b8f30aef183b526a4262d023efab0f5ffbcaefec3bd2750f3a9515a60001b615b09565b61968d7fe005b4341d199d8af8c365aa0ec08f092a0d04370966d91efb0ddb73eb44b9f160001b615b09565b6196b97fda851ba0e7329324a5bc36d8d5b41645885d3cf2b7b6af455f01643fc459385260001b615b09565b80600560008773ffffffffffffffffffffffffffffffffffffffff1673ffffffffffffffffffffffffffffffffffffffff168152602001908152602001600020819055506197297f1690237079c96f6ae8de010a2af40104ad47ba4e3b3b509900589a22ae55b3eb60001b615b09565b6197557f5d00d57eaf4c06a2330f32757d3ba57915e18161e85f3b995a080f7b53eb43e860001b615b09565b82600560008673ffffffffffffffffffffffffffffffffffffffff1673ffffffffffffffffffffffffffffffffffffffff168152602001908152602001600020600082825401925050819055506197d4565b6197d37fdc9d312b84a5538df7caac311e5a3c55a179393df709253a31e3a461774be6c560001b615b09565b5b5050619808565b6198077fe42ce0c652f87596e3c969fc67107d1c8b0f78e056b94b8c6aadaf907a2c56cd60001b615b09565b5b6198347f196a991ef67288d5cb1a3eec700dba264267badd43f53b65be2be344bb40910760001b615b09565b6198607fd0dad3c818209e7d3c956bddecd7e6f5d6de4265991b896bef1a527ee45a995860001b615b09565b8173ffffffffffffffffffffffffffffffffffffffff168373ffffffffffffffffffffffffffffffffffffffff167fddf252ad1be2c89b69c2b068fc378daa952ba7f163c4a11628f55a4df523b3ef836040518082815260200191505060405180910390a3505050565b600080823b905060008111915050919050565b6199097f67a9fb6f2e45d1bd391c3903896de02449ae28c010888fb71b7a6ed46148600560001b613901565b6199357f2a018643d6a2320b41e2a8d8ec0d20dd5cad909a8633758263a40ff821a8da9b60001b613901565b6199617f9e7cf1c6100305b1ae24abfd1f263a8dbf86720505cbb799fcd4e59579895d4760001b613901565b61997161996c616d93565b61a3ee565b61999d7ff0b3a50baff3c7d2bb04688c3df77f40e93a9ca374ffd25285f5104e71fbf46260001b613901565b6199c97fa8dcc9597eb04575aad5662a408670a99b5899e51fc04aebe4fd214464126f7e60001b613901565b6000828260208110156199db57600080fd5b81019080803590602001909291905050509050619a1a7f08b592b17cd9845d1cedf114910a397d7a5807fb40dc0b58d3ea7936f3edabe960001b613901565b619a467f28fc6e62122d9e77c17f7f2f6b94b08251cfba77c9653eef1bb0255fa97a978d60001b613901565b619a5130858361917f565b50505050565b6000619a857f7a1bc57c10d0bbae1f1a3f16b770268a82ad94c49919dab644bed2b3ce2b025d60001b615b09565b619ab17f2d5abdf91acc4d34e6057bf09e528e12d964ec109939d0d47b31fe74ccbec69060001b615b09565b619add7f2bab01eca99caccc6e7f0e7d0b79aa5ee530f36185ce48a4000477d9162fa50360001b615b09565b7f01ffc9a7000000000000000000000000000000000000000000000000000000007bffffffffffffffffffffffffffffffffffffffffffffffffffffffff1916827bffffffffffffffffffffffffffffffffffffffffffffffffffffffff19161480619ba657507f36372b07000000000000000000000000000000000000000000000000000000007bffffffffffffffffffffffffffffffffffffffffffffffffffffffff1916827bffffffffffffffffffffffffffffffffffffffffffffffffffffffff1916145b80619c0e57507fa219a025000000000000000000000000000000000000000000000000000000007bffffffffffffffffffffffffffffffffffffffffffffffffffffffff1916827bffffffffffffffffffffffffffffffffffffffffffffffffffffffff1916145b80619c7657507f3c130d90000000000000000000000000000000000000000000000000000000007bffffffffffffffffffffffffffffffffffffffffffffffffffffffff1916827bffffffffffffffffffffffffffffffffffffffffffffffffffffffff1916145b80619cde57507f9d075186000000000000000000000000000000000000000000000000000000007bffffffffffffffffffffffffffffffffffffffffffffffffffffffff1916827bffffffffffffffffffffffffffffffffffffffffffffffffffffffff1916145b80619d4657507fc05327e6000000000000000000000000000000000000000000000000000000007bffffffffffffffffffffffffffffffffffffffffffffffffffffffff1916827bffffffffffffffffffffffffffffffffffffffffffffffffffffffff1916145b80619dae57507f53f41a97000000000000000000000000000000000000000000000000000000007bffffffffffffffffffffffffffffffffffffffffffffffffffffffff1916827bffffffffffffffffffffffffffffffffffffffffffffffffffffffff1916145b80619e1657507f9d8ff7da000000000000000000000000000000000000000000000000000000007bffffffffffffffffffffffffffffffffffffffffffffffffffffffff1916827bffffffffffffffffffffffffffffffffffffffffffffffffffffffff1916145b9050919050565b6000619e4b7f4aead0431af464ed359c1fca782986ae937af6ce96b51fe54d7440b7c518e7bb60001b616cea565b619e777f791d8748ac4e5b6ec667874d4f5fd87debd1455046fff3de15fecd4ac4b1490b60001b616cea565b619ea37faf84bf9126eaf24c0be5155e3825aafe21273ebafda70717b153e187aeb7642660001b616cea565b7f01ffc9a7000000000000000000000000000000000000000000000000000000007bffffffffffffffffffffffffffffffffffffffffffffffffffffffff1916827bffffffffffffffffffffffffffffffffffffffffffffffffffffffff19161480619f6c57507f4fc35859000000000000000000000000000000000000000000000000000000007bffffffffffffffffffffffffffffffffffffffffffffffffffffffff1916827bffffffffffffffffffffffffffffffffffffffffffffffffffffffff1916145b9050919050565b6000803390506000619f8361a590565b90507f000000000000000000000000000000000000000000000000000000000000000073ffffffffffffffffffffffffffffffffffffffff168273ffffffffffffffffffffffffffffffffffffffff16148061a02a57507f000000000000000000000000000000000000000000000000000000000000000073ffffffffffffffffffffffffffffffffffffffff168273ffffffffffffffffffffffffffffffffffffffff16145b1561a03957809250505061a166565b3273ffffffffffffffffffffffffffffffffffffffff168273ffffffffffffffffffffffffffffffffffffffff161415801561a15157507f000000000000000000000000000000000000000000000000000000000000000073ffffffffffffffffffffffffffffffffffffffff1663e60125d682846040518363ffffffff1660e01b8152600401808373ffffffffffffffffffffffffffffffffffffffff1681526020018273ffffffffffffffffffffffffffffffffffffffff1681526020019250505060206040518083038186803b15801561a11557600080fd5b505afa15801561a129573d6000803e3d6000fd5b505050506040513d602081101561a13f57600080fd5b81019080805190602001909291905050505b1561a16057809250505061a166565b81925050505b90565b600082905061a18d8173ffffffffffffffffffffffffffffffffffffffff166198ca565b61a1ff576040517f08c379a000000000000000000000000000000000000000000000000000000000815260040180806020018281038252601a8152602001807f4552433230577261707065723a206e6f6e2d636f6e747261637400000000000081525060200191505060405180910390fd5b6000808273ffffffffffffffffffffffffffffffffffffffff16846040518082805190602001908083835b6020831061a24d578051825260208201915060208101905060208303925061a22a565b6001836020036101000a0380198251168184511680821785525050505050509050019150506000604051808303816000865af19150503d806000811461a2af576040519150601f19603f3d011682016040523d82523d6000602084013e61a2b4565b606091505b5091509150811561a36657600081511461a3615780806020019051602081101561a2dd57600080fd5b810190808051906020019092919050505061a360576040517f08c379a000000000000000000000000000000000000000000000000000000000815260040180806020018281038252601e8152602001807f4552433230577261707065723a206f7065726174696f6e206661696c6564000081525060200191505060405180910390fd5b5b61a3e7565b60008151141561a3de576040517f08c379a000000000000000000000000000000000000000000000000000000000815260040180806020018281038252601e8152602001807f4552433230577261707065723a206f7065726174696f6e206661696c6564000081525060200191505060405180910390fd5b80518082602001fd5b5050505050565b61a41a7f87b991be8c160eaca060d7391eb225b2f8428e3b353e744c5c8cd09cea98d59360001b61374a565b61a4467f17c32469c18ca7916727b7fbfc178f7bcd00aeb536aa35234fe8f7c800c38fc960001b61374a565b61a4727f7b35be467117699b440bf46a6bab6c9abfdbcf6ccf398735a1bb8c6e2145614360001b61374a565b61a49e7fb26fb7a464d1a88fd858b9c8d9c4069620dfefa10510e238c8e42a2cea28116860001b61374a565b600860009054906101000a900473ffffffffffffffffffffffffffffffffffffffff1673ffffffffffffffffffffffffffffffffffffffff168173ffffffffffffffffffffffffffffffffffffffff161461a561576040517f08c379a000000000000000000000000000000000000000000000000000000000815260040180806020018281038252601a8152602001807f4368696c6445524332303a206f6e6c79206465706f7369746f7200000000000081525060200191505060405180910390fd5b61a58d7f593276b853b06fd8226707a09a915c7542e982f7bb245e0b9b4fe7a1e29deecf60001b61374a565b50565b6000601436033560601c905090565b828054600181600116156101000203166002900490600052602060002090601f01602090048101928261a5d5576000855561a61c565b82601f1061a5ee57803560ff191683800117855561a61c565b8280016001018555821561a61c579182015b8281111561a61b57823582559160200191906001019061a600565b5b50905061a629919061a62d565b5090565b5b8082111561a64657600081600090555060010161a62e565b509056fea264697066735822122016d7c81fc6193655311d6ca36d2ed9bfcc6fb1698d0decd16a6ebda127488d8964736f6c63430007060033",
  "linkReferences": {},
  "deployedLinkReferences": {}
}