{
  "_format": "hh-sol-artifact-1",
  "contractName": "ChildERC20Mock",
  "sourceName": "contracts/mocks/token/ERC20/ChildERC20Mock.sol",
  "abi": [
    {
      "inputs": [
        {
          "internalType": "address[]",
          "name": "recipients",
          "type": "address[]"
        },
        {
          "internalType": "uint256[]",
          "name": "values",
          "type": "uint256[]"
        },
        {
          "internalType": "address",
          "name": "childChainManager",
          "type": "address"
        },
        {
          "internalType": "contract IForwarderRegistry",
          "name": "forwarderRegistry",
          "type": "address"
        },
        {
          "internalType": "address",
          "name": "universalForwarder",
          "type": "address"
        }
      ],
      "stateMutability": "nonpayable",
      "type": "constructor"
    },
    {
      "anonymous": false,
      "inputs": [
        {
          "indexed": true,
          "internalType": "address",
          "name": "_owner",
          "type": "address"
        },
        {
          "indexed": true,
          "internalType": "address",
          "name": "_spender",
          "type": "address"
        },
        {
          "indexed": false,
          "internalType": "uint256",
          "name": "_value",
          "type": "uint256"
        }
      ],
      "name": "Approval",
      "type": "event"
    },
    {
      "anonymous": false,
      "inputs": [
        {
          "indexed": true,
          "internalType": "address",
          "name": "previousOwner",
          "type": "address"
        },
        {
          "indexed": true,
          "internalType": "address",
          "name": "newOwner",
          "type": "address"
        }
      ],
      "name": "OwnershipTransferred",
      "type": "event"
    },
    {
      "anonymous": false,
      "inputs": [
        {
          "indexed": true,
          "internalType": "address",
          "name": "_from",
          "type": "address"
        },
        {
          "indexed": true,
          "internalType": "address",
          "name": "_to",
          "type": "address"
        },
        {
          "indexed": false,
          "internalType": "uint256",
          "name": "_value",
          "type": "uint256"
        }
      ],
      "name": "Transfer",
      "type": "event"
    },
    {
      "anonymous": false,
      "inputs": [
        {
          "indexed": false,
          "internalType": "address",
          "name": "account",
          "type": "address"
        },
        {
          "indexed": false,
          "internalType": "uint256",
          "name": "value",
          "type": "uint256"
        }
      ],
      "name": "Withdrawn",
      "type": "event"
    },
    {
      "inputs": [],
      "name": "DOMAIN_SEPARATOR",
      "outputs": [
        {
          "internalType": "bytes32",
          "name": "",
          "type": "bytes32"
        }
      ],
      "stateMutability": "view",
      "type": "function"
    },
    {
      "inputs": [
        {
          "internalType": "address",
          "name": "owner",
          "type": "address"
        },
        {
          "internalType": "address",
          "name": "spender",
          "type": "address"
        }
      ],
      "name": "allowance",
      "outputs": [
        {
          "internalType": "uint256",
          "name": "",
          "type": "uint256"
        }
      ],
      "stateMutability": "view",
      "type": "function"
    },
    {
      "inputs": [
        {
          "internalType": "address",
          "name": "spender",
          "type": "address"
        },
        {
          "internalType": "uint256",
          "name": "value",
          "type": "uint256"
        }
      ],
      "name": "approve",
      "outputs": [
        {
          "internalType": "bool",
          "name": "",
          "type": "bool"
        }
      ],
      "stateMutability": "nonpayable",
      "type": "function"
    },
    {
      "inputs": [
        {
          "internalType": "address",
          "name": "account",
          "type": "address"
        }
      ],
      "name": "balanceOf",
      "outputs": [
        {
          "internalType": "uint256",
          "name": "",
          "type": "uint256"
        }
      ],
      "stateMutability": "view",
      "type": "function"
    },
    {
      "inputs": [
        {
          "internalType": "address[]",
          "name": "recipients",
          "type": "address[]"
        },
        {
          "internalType": "uint256[]",
          "name": "values",
          "type": "uint256[]"
        }
      ],
      "name": "batchMint",
      "outputs": [],
      "stateMutability": "nonpayable",
      "type": "function"
    },
    {
      "inputs": [
        {
          "internalType": "address[]",
          "name": "recipients",
          "type": "address[]"
        },
        {
          "internalType": "uint256[]",
          "name": "values",
          "type": "uint256[]"
        }
      ],
      "name": "batchTransfer",
      "outputs": [
        {
          "internalType": "bool",
          "name": "",
          "type": "bool"
        }
      ],
      "stateMutability": "nonpayable",
      "type": "function"
    },
    {
      "inputs": [
        {
          "internalType": "address",
          "name": "from",
          "type": "address"
        },
        {
          "internalType": "address[]",
          "name": "recipients",
          "type": "address[]"
        },
        {
          "internalType": "uint256[]",
          "name": "values",
          "type": "uint256[]"
        }
      ],
      "name": "batchTransferFrom",
      "outputs": [
        {
          "internalType": "bool",
          "name": "",
          "type": "bool"
        }
      ],
      "stateMutability": "nonpayable",
      "type": "function"
    },
    {
      "inputs": [],
      "name": "childChainManager",
      "outputs": [
        {
          "internalType": "address",
          "name": "",
          "type": "address"
        }
      ],
      "stateMutability": "view",
      "type": "function"
    },
    {
      "inputs": [],
      "name": "decimals",
      "outputs": [
        {
          "internalType": "uint8",
          "name": "",
          "type": "uint8"
        }
      ],
      "stateMutability": "view",
      "type": "function"
    },
    {
      "inputs": [
        {
          "internalType": "address",
          "name": "spender",
          "type": "address"
        },
        {
          "internalType": "uint256",
          "name": "subtractedValue",
          "type": "uint256"
        }
      ],
      "name": "decreaseAllowance",
      "outputs": [
        {
          "internalType": "bool",
          "name": "",
          "type": "bool"
        }
      ],
      "stateMutability": "nonpayable",
      "type": "function"
    },
    {
      "inputs": [],
      "name": "deploymentChainId",
      "outputs": [
        {
          "internalType": "uint256",
          "name": "",
          "type": "uint256"
        }
      ],
      "stateMutability": "view",
      "type": "function"
    },
    {
      "inputs": [
        {
          "internalType": "address",
          "name": "user",
          "type": "address"
        },
        {
          "internalType": "bytes",
          "name": "depositData",
          "type": "bytes"
        }
      ],
      "name": "deposit",
      "outputs": [],
      "stateMutability": "nonpayable",
      "type": "function"
    },
    {
      "inputs": [
        {
          "internalType": "address",
          "name": "spender",
          "type": "address"
        },
        {
          "internalType": "uint256",
          "name": "addedValue",
          "type": "uint256"
        }
      ],
      "name": "increaseAllowance",
      "outputs": [
        {
          "internalType": "bool",
          "name": "",
          "type": "bool"
        }
      ],
      "stateMutability": "nonpayable",
      "type": "function"
    },
    {
      "inputs": [
        {
          "internalType": "address",
          "name": "forwarder",
          "type": "address"
        }
      ],
      "name": "isTrustedForwarder",
      "outputs": [
        {
          "internalType": "bool",
          "name": "",
          "type": "bool"
        }
      ],
      "stateMutability": "view",
      "type": "function"
    },
    {
      "inputs": [
        {
          "internalType": "address",
          "name": "to",
          "type": "address"
        },
        {
          "internalType": "uint256",
          "name": "value",
          "type": "uint256"
        }
      ],
      "name": "mint",
      "outputs": [],
      "stateMutability": "nonpayable",
      "type": "function"
    },
    {
      "inputs": [],
      "name": "name",
      "outputs": [
        {
          "internalType": "string",
          "name": "",
          "type": "string"
        }
      ],
      "stateMutability": "view",
      "type": "function"
    },
    {
      "inputs": [
        {
          "internalType": "address",
          "name": "",
          "type": "address"
        }
      ],
      "name": "nonces",
      "outputs": [
        {
          "internalType": "uint256",
          "name": "",
          "type": "uint256"
        }
      ],
      "stateMutability": "view",
      "type": "function"
    },
    {
      "inputs": [
        {
          "internalType": "address",
          "name": "operator",
          "type": "address"
        },
        {
          "internalType": "address",
          "name": "from",
          "type": "address"
        },
        {
          "internalType": "uint256",
          "name": "amount",
          "type": "uint256"
        },
        {
          "internalType": "bytes",
          "name": "data",
          "type": "bytes"
        }
      ],
      "name": "onERC20Received",
      "outputs": [
        {
          "internalType": "bytes4",
          "name": "",
          "type": "bytes4"
        }
      ],
      "stateMutability": "nonpayable",
      "type": "function"
    },
    {
      "inputs": [],
      "name": "owner",
      "outputs": [
        {
          "internalType": "address",
          "name": "",
          "type": "address"
        }
      ],
      "stateMutability": "view",
      "type": "function"
    },
    {
      "inputs": [
        {
          "internalType": "address",
          "name": "owner",
          "type": "address"
        },
        {
          "internalType": "address",
          "name": "spender",
          "type": "address"
        },
        {
          "internalType": "uint256",
          "name": "value",
          "type": "uint256"
        },
        {
          "internalType": "uint256",
          "name": "deadline",
          "type": "uint256"
        },
        {
          "internalType": "uint8",
          "name": "v",
          "type": "uint8"
        },
        {
          "internalType": "bytes32",
          "name": "r",
          "type": "bytes32"
        },
        {
          "internalType": "bytes32",
          "name": "s",
          "type": "bytes32"
        }
      ],
      "name": "permit",
      "outputs": [],
      "stateMutability": "nonpayable",
      "type": "function"
    },
    {
      "inputs": [
        {
          "internalType": "address[]",
          "name": "accounts",
          "type": "address[]"
        },
        {
          "internalType": "address[]",
          "name": "tokens",
          "type": "address[]"
        },
        {
          "internalType": "uint256[]",
          "name": "amounts",
          "type": "uint256[]"
        }
      ],
      "name": "recoverERC20s",
      "outputs": [],
      "stateMutability": "nonpayable",
      "type": "function"
    },
    {
      "inputs": [
        {
          "internalType": "address[]",
          "name": "accounts",
          "type": "address[]"
        },
        {
          "internalType": "address[]",
          "name": "contracts",
          "type": "address[]"
        },
        {
          "internalType": "uint256[]",
          "name": "tokenIds",
          "type": "uint256[]"
        }
      ],
      "name": "recoverERC721s",
      "outputs": [],
      "stateMutability": "nonpayable",
      "type": "function"
    },
    {
      "inputs": [
        {
          "internalType": "address",
          "name": "to",
          "type": "address"
        },
        {
          "internalType": "uint256",
          "name": "amount",
          "type": "uint256"
        },
        {
          "internalType": "bytes",
          "name": "data",
          "type": "bytes"
        }
      ],
      "name": "safeTransfer",
      "outputs": [
        {
          "internalType": "bool",
          "name": "",
          "type": "bool"
        }
      ],
      "stateMutability": "nonpayable",
      "type": "function"
    },
    {
      "inputs": [
        {
          "internalType": "address",
          "name": "from",
          "type": "address"
        },
        {
          "internalType": "address",
          "name": "to",
          "type": "address"
        },
        {
          "internalType": "uint256",
          "name": "amount",
          "type": "uint256"
        },
        {
          "internalType": "bytes",
          "name": "data",
          "type": "bytes"
        }
      ],
      "name": "safeTransferFrom",
      "outputs": [
        {
          "internalType": "bool",
          "name": "",
          "type": "bool"
        }
      ],
      "stateMutability": "nonpayable",
      "type": "function"
    },
    {
      "inputs": [
        {
          "internalType": "string",
          "name": "tokenURI_",
          "type": "string"
        }
      ],
      "name": "setTokenURI",
      "outputs": [],
      "stateMutability": "nonpayable",
      "type": "function"
    },
    {
      "inputs": [
        {
          "internalType": "bytes4",
          "name": "interfaceId",
          "type": "bytes4"
        }
      ],
      "name": "supportsInterface",
      "outputs": [
        {
          "internalType": "bool",
          "name": "",
          "type": "bool"
        }
      ],
      "stateMutability": "view",
      "type": "function"
    },
    {
      "inputs": [],
      "name": "symbol",
      "outputs": [
        {
          "internalType": "string",
          "name": "",
          "type": "string"
        }
      ],
      "stateMutability": "view",
      "type": "function"
    },
    {
      "inputs": [],
      "name": "tokenURI",
      "outputs": [
        {
          "internalType": "string",
          "name": "",
          "type": "string"
        }
      ],
      "stateMutability": "view",
      "type": "function"
    },
    {
      "inputs": [],
      "name": "totalSupply",
      "outputs": [
        {
          "internalType": "uint256",
          "name": "",
          "type": "uint256"
        }
      ],
      "stateMutability": "view",
      "type": "function"
    },
    {
      "inputs": [
        {
          "internalType": "address",
          "name": "to",
          "type": "address"
        },
        {
          "internalType": "uint256",
          "name": "value",
          "type": "uint256"
        }
      ],
      "name": "transfer",
      "outputs": [
        {
          "internalType": "bool",
          "name": "",
          "type": "bool"
        }
      ],
      "stateMutability": "nonpayable",
      "type": "function"
    },
    {
      "inputs": [
        {
          "internalType": "address",
          "name": "from",
          "type": "address"
        },
        {
          "internalType": "address",
          "name": "to",
          "type": "address"
        },
        {
          "internalType": "uint256",
          "name": "value",
          "type": "uint256"
        }
      ],
      "name": "transferFrom",
      "outputs": [
        {
          "internalType": "bool",
          "name": "",
          "type": "bool"
        }
      ],
      "stateMutability": "nonpayable",
      "type": "function"
    },
    {
      "inputs": [
        {
          "internalType": "address",
          "name": "newOwner",
          "type": "address"
        }
      ],
      "name": "transferOwnership",
      "outputs": [],
      "stateMutability": "nonpayable",
      "type": "function"
    },
    {
      "inputs": [
        {
          "internalType": "uint256",
          "name": "amount",
          "type": "uint256"
        }
      ],
      "name": "withdraw",
      "outputs": [],
      "stateMutability": "nonpayable",
      "type": "function"
    }
  ],
  "bytecode": "0x6101206040523480156200001257600080fd5b5060405162003a6638038062003a66833981810160405260a08110156200003857600080fd5b81019080805160405193929190846401000000008211156200005957600080fd5b9083019060208201858111156200006f57600080fd5b82518660208202830111640100000000821117156200008d57600080fd5b82525081516020918201928201910280838360005b83811015620000bc578181015183820152602001620000a2565b5050505090500160405260200180516040519392919084640100000000821115620000e657600080fd5b908301906020820185811115620000fc57600080fd5b82518660208202830111640100000000821117156200011a57600080fd5b82525081516020918201928201910280838360005b83811015620001495781810151838201526020016200012f565b50505050919091016040818152602084810151858301516060909601518385018452601085526f4368696c64204552433230204d6f636b60801b838601528351808501855260048152630434532360e41b8185015284518086018652600381526275726960e81b94810194909452600080546001600160a01b0319163390811782559551939a509798509096949550936012938992839288928892889288928e928e9282917f8be0079c531659141344cd1fd0a4f28419497f9722a3daafe3b4186f6b6457e0908290a3506001600160601b0319606091821b811660a05291901b16608052835162000243906002906020870190620005bb565b50825162000259906003906020860190620005bb565b507fff0000000000000000000000000000000000000000000000000000000000000060f883901b166101005280516200029a906004906020840190620005bb565b504660c0819052620002ad8186620002f6565b60e0525050600880546001600160a01b0319166001600160a01b03959095169490941790935550620002eb96508b95508a9450620003809350505050565b505050505062000667565b8051602091820120604080517f8b73c3c69bb8fe3d512ecc4cf759cc79239f7b179b0ffacaa9a75d522b39400f81850152808201929092527fc89efdaa54c0f20c7adf612882df0950f5a951637e0307cdcb4c672f298b8bc6606083015260808201939093523060a0808301919091528351808303909101815260c0909101909252815191012090565b815181518114620003d8576040805162461bcd60e51b815260206004820152601a60248201527f45524332303a20696e636f6e73697374656e7420617272617973000000000000604482015290519081900360640190fd5b6000805b8281146200054d576000858281518110620003f357fe5b6020026020010151905060006001600160a01b0316816001600160a01b0316141562000466576040805162461bcd60e51b815260206004820152601360248201527f45524332303a207a65726f206164647265737300000000000000000000000000604482015290519081900360640190fd5b60008583815181106200047557fe5b60200260200101519050806000146200050157838101848111620004e0576040805162461bcd60e51b815260206004820152601660248201527f45524332303a2076616c756573206f766572666c6f7700000000000000000000604482015290519081900360640190fd5b6001600160a01b038316600090815260056020526040902080548301905593505b6040805182815290516001600160a01b038416916000917fddf252ad1be2c89b69c2b068fc378daa952ba7f163c4a11628f55a4df523b3ef9181900360200190a35050600101620003dc565b508015620005b557600754818101818111620005b0576040805162461bcd60e51b815260206004820152601660248201527f45524332303a20737570706c79206f766572666c6f7700000000000000000000604482015290519081900360640190fd5b600755505b50505050565b828054600181600116156101000203166002900490600052602060002090601f016020900481019282620005f357600085556200063e565b82601f106200060e57805160ff19168380011785556200063e565b828001600101855582156200063e579182015b828111156200063e57825182559160200191906001019062000621565b506200064c92915062000650565b5090565b5b808211156200064c576000815560010162000651565b60805160601c60a05160601c60c05160e0516101005160f81c6133a2620006c460003980610e59525080610f41525080610e805280611dc55250806114ad5280612f045250806114e85280612ec95280612f5c52506133a26000f3fe608060405234801561001057600080fd5b506004361061020b5760003560e01c806373c8a9581161012a578063c3666c36116100bd578063d505accf1161008c578063e0df5b6f11610071578063e0df5b6f14610c0e578063eb79554914610c7e578063f2fde38b14610d035761020b565b8063d505accf14610b8f578063dd62ed3e14610be05761020b565b8063c3666c36146109eb578063c8291d8414610aff578063cd0d009614610b07578063cf2c52cb14610b0f5761020b565b806395d89b41116100f957806395d89b41146108fb578063a457c2d714610903578063a9059cbb1461092f578063b88d4fde1461095b5761020b565b806373c8a958146106db5780637ecebe00146107ef57806388d695b2146108155780638da5cb5b146108d75761020b565b806339509351116101a25780634fc35859116101715780634fc35859146104bb578063572b6c0514610568578063685731071461058e57806370a08231146106b55761020b565b806339509351146103895780633c130d90146103b557806340c10f19146103bd5780634885b254146103e95761020b565b806323b872dd116101de57806323b872dd1461030e5780632e1a7d4d14610344578063313ce567146103635780633644e515146103815761020b565b806301ffc9a71461021057806306fdde031461024b578063095ea7b3146102c857806318160ddd146102f4575b600080fd5b6102376004803603602081101561022657600080fd5b50356001600160e01b031916610d29565b604080519115158252519081900360200190f35b610253610d6d565b6040805160208082528351818301528351919283929083019185019080838360005b8381101561028d578181015183820152602001610275565b50505050905090810190601f1680156102ba5780820380516001836020036101000a031916815260200191505b509250505060405180910390f35b610237600480360360408110156102de57600080fd5b506001600160a01b038135169060200135610e01565b6102fc610e1e565b60408051918252519081900360200190f35b6102376004803603606081101561032457600080fd5b506001600160a01b03813581169160208101359091169060400135610e24565b6103616004803603602081101561035a57600080fd5b5035610e43565b005b61036b610e57565b6040805160ff9092168252519081900360200190f35b6102fc610e7b565b6102376004803603604081101561039f57600080fd5b506001600160a01b038135169060200135610f67565b6102536110d5565b610361600480360360408110156103d357600080fd5b506001600160a01b038135169060200135611136565b610237600480360360608110156103ff57600080fd5b6001600160a01b03823516919081019060408101602082013564010000000081111561042a57600080fd5b82018360208201111561043c57600080fd5b8035906020019184602083028401116401000000008311171561045e57600080fd5b91939092909160208101903564010000000081111561047c57600080fd5b82018360208201111561048e57600080fd5b803590602001918460208302840111640100000000831117156104b057600080fd5b509092509050611154565b61054b600480360360808110156104d157600080fd5b6001600160a01b0382358116926020810135909116916040820135919081019060808101606082013564010000000081111561050c57600080fd5b82018360208201111561051e57600080fd5b8035906020019184600183028401116401000000008311171561054057600080fd5b509092509050611488565b604080516001600160e01b03199092168252519081900360200190f35b6102376004803603602081101561057e57600080fd5b50356001600160a01b03166114a9565b610361600480360360408110156105a457600080fd5b8101906020810181356401000000008111156105bf57600080fd5b8201836020820111156105d157600080fd5b803590602001918460208302840111640100000000831117156105f357600080fd5b919080806020026020016040519081016040528093929190818152602001838360200280828437600092019190915250929594936020810193503591505064010000000081111561064357600080fd5b82018360208201111561065557600080fd5b8035906020019184602083028401116401000000008311171561067757600080fd5b919080806020026020016040519081016040528093929190818152602001838360200280828437600092019190915250929550611522945050505050565b6102fc600480360360208110156106cb57600080fd5b50356001600160a01b0316611537565b610361600480360360608110156106f157600080fd5b81019060208101813564010000000081111561070c57600080fd5b82018360208201111561071e57600080fd5b8035906020019184602083028401116401000000008311171561074057600080fd5b91939092909160208101903564010000000081111561075e57600080fd5b82018360208201111561077057600080fd5b8035906020019184602083028401116401000000008311171561079257600080fd5b9193909290916020810190356401000000008111156107b057600080fd5b8201836020820111156107c257600080fd5b803590602001918460208302840111640100000000831117156107e457600080fd5b509092509050611552565b6102fc6004803603602081101561080557600080fd5b50356001600160a01b03166116d0565b6102376004803603604081101561082b57600080fd5b81019060208101813564010000000081111561084657600080fd5b82018360208201111561085857600080fd5b8035906020019184602083028401116401000000008311171561087a57600080fd5b91939092909160208101903564010000000081111561089857600080fd5b8201836020820111156108aa57600080fd5b803590602001918460208302840111640100000000831117156108cc57600080fd5b5090925090506116e2565b6108df6119f1565b604080516001600160a01b039092168252519081900360200190f35b610253611a00565b6102376004803603604081101561091957600080fd5b506001600160a01b038135169060200135611a61565b6102376004803603604081101561094557600080fd5b506001600160a01b038135169060200135611ad0565b6102376004803603608081101561097157600080fd5b6001600160a01b038235811692602081013590911691604082013591908101906080810160608201356401000000008111156109ac57600080fd5b8201836020820111156109be57600080fd5b803590602001918460018302840111640100000000831117156109e057600080fd5b509092509050611ae4565b61036160048036036060811015610a0157600080fd5b810190602081018135640100000000811115610a1c57600080fd5b820183602082011115610a2e57600080fd5b80359060200191846020830284011164010000000083111715610a5057600080fd5b919390929091602081019035640100000000811115610a6e57600080fd5b820183602082011115610a8057600080fd5b80359060200191846020830284011164010000000083111715610aa257600080fd5b919390929091602081019035640100000000811115610ac057600080fd5b820183602082011115610ad257600080fd5b80359060200191846020830284011164010000000083111715610af457600080fd5b509092509050611c6c565b6108df611db4565b6102fc611dc3565b61036160048036036040811015610b2557600080fd5b6001600160a01b038235169190810190604081016020820135640100000000811115610b5057600080fd5b820183602082011115610b6257600080fd5b80359060200191846001830284011164010000000083111715610b8457600080fd5b509092509050611de7565b610361600480360360e0811015610ba557600080fd5b506001600160a01b03813581169160208101359091169060408101359060608101359060ff6080820135169060a08101359060c00135611e13565b6102fc60048036036040811015610bf657600080fd5b506001600160a01b0381358116916020013516612092565b61036160048036036020811015610c2457600080fd5b810190602081018135640100000000811115610c3f57600080fd5b820183602082011115610c5157600080fd5b80359060200191846001830284011164010000000083111715610c7357600080fd5b5090925090506120bd565b61023760048036036060811015610c9457600080fd5b6001600160a01b0382351691602081013591810190606081016040820135640100000000811115610cc457600080fd5b820183602082011115610cd657600080fd5b80359060200191846001830284011164010000000083111715610cf857600080fd5b5090925090506120d4565b61036160048036036020811015610d1957600080fd5b50356001600160a01b031661225a565b60006001600160e01b031982167f28963e1e000000000000000000000000000000000000000000000000000000001480610d675750610d67826122cb565b92915050565b60028054604080516020601f6000196101006001871615020190941685900493840181900481028201810190925282815260609390929091830182828015610df65780601f10610dcb57610100808354040283529160200191610df6565b820191906000526020600020905b815481529060010190602001808311610dd957829003601f168201915b505050505090505b90565b6000610e15610e0e6122e5565b84846122f4565b50600192915050565b60075490565b6000610e39610e316122e5565b8585856123b1565b5060019392505050565b6009805482019055610e54816123e6565b50565b7f000000000000000000000000000000000000000000000000000000000000000090565b6000467f00000000000000000000000000000000000000000000000000000000000000008114610f3f576002805460408051602060018416156101000260001901909316849004601f8101849004840282018401909252818152610f3a93859391929091830182828015610f305780601f10610f0557610100808354040283529160200191610f30565b820191906000526020600020905b815481529060010190602001808311610f1357829003601f168201915b5050505050612446565b610f61565b7f00000000000000000000000000000000000000000000000000000000000000005b91505090565b60006001600160a01b038316610fc4576040805162461bcd60e51b815260206004820152601b60248201527f45524332303a207a65726f2061646472657373207370656e6465720000000000604482015290519081900360640190fd5b6000610fce6122e5565b6001600160a01b03808216600090815260066020908152604080832093891683529290522054909150831561107f57808401818111611054576040805162461bcd60e51b815260206004820152601960248201527f45524332303a20616c6c6f77616e6365206f766572666c6f7700000000000000604482015290519081900360640190fd5b6001600160a01b038084166000908152600660209081526040808320938a1683529290522081905590505b846001600160a01b0316826001600160a01b03167f8c5be1e5ebec7d5bd14f71427d1e84f3dd0314c0f7b2291e5b200ac8c7c3b925836040518082815260200191505060405180910390a3506001949350505050565b60048054604080516020601f6002600019610100600188161502019095169490940493840181900481028201810190925282815260609390929091830182828015610df65780601f10610dcb57610100808354040283529160200191610df6565b6111466111416122e5565b6124d0565b6111508282612594565b5050565b6000838281146111ab576040805162461bcd60e51b815260206004820152601a60248201527f45524332303a20696e636f6e73697374656e7420617272617973000000000000604482015290519081900360640190fd5b6001600160a01b0387166000908152600560205260408120549080805b8481146113bd5760008a8a838181106111dd57fe5b905060200201356001600160a01b0316905060006001600160a01b0316816001600160a01b03161415611257576040805162461bcd60e51b815260206004820152601660248201527f45524332303a20746f207a65726f206164647265737300000000000000000000604482015290519081900360640190fd5b600089898481811061126557fe5b90506020020135905080600014611368578481018581116112cd576040805162461bcd60e51b815260206004820152601660248201527f45524332303a2076616c756573206f766572666c6f7700000000000000000000604482015290519081900360640190fd5b809550826001600160a01b03168e6001600160a01b03161461130c576001600160a01b0383166000908152600560205260409020805483019055611366565b86821115611361576040805162461bcd60e51b815260206004820152601b60248201527f45524332303a20696e73756666696369656e742062616c616e63650000000000604482015290519081900360640190fd5b938101935b505b816001600160a01b03168d6001600160a01b03167fddf252ad1be2c89b69c2b068fc378daa952ba7f163c4a11628f55a4df523b3ef836040518082815260200191505060405180910390a350506001016111c8565b5081158015906113cd5750808214155b1561144757818303838110611429576040805162461bcd60e51b815260206004820152601b60248201527f45524332303a20696e73756666696369656e742062616c616e63650000000000604482015290519081900360640190fd5b6001600160a01b038b16600090815260056020526040902090820190555b60006114516122e5565b9050806001600160a01b03168b6001600160a01b031614611477576114778b82856126b7565b5060019a9950505050505050505050565b6009805484019055600061149f86868686866127c6565b9695505050505050565b60007f00000000000000000000000000000000000000000000000000000000000000006001600160a01b0316826001600160a01b03161480610d6757507f00000000000000000000000000000000000000000000000000000000000000006001600160a01b0316826001600160a01b0316149050919050565b61152d6111416122e5565b6111508282612882565b6001600160a01b031660009081526005602052604090205490565b61155d6111416122e5565b84838114801561156c57508082145b6115bd576040805162461bcd60e51b815260206004820152601a60248201527f5265636f763a20696e636f6e73697374656e7420617272617973000000000000604482015290519081900360640190fd5b60005b8181146116c65760008686838181106115d557fe5b905060200201356001600160a01b0316905060008585848181106115f557fe5b905060200201359050306001600160a01b0316826001600160a01b0316141561168357600954306000908152600560205260409020540380821115611681576040805162461bcd60e51b815260206004820152601b60248201527f5265636f763a20696e73756666696369656e742062616c616e63650000000000604482015290519081900360640190fd5b505b6116bc8a8a8581811061169257fe5b905060200201356001600160a01b031682846001600160a01b0316612ab29092919063ffffffff16565b50506001016115c0565b5050505050505050565b60016020526000908152604090205481565b600083828114611739576040805162461bcd60e51b815260206004820152601a60248201527f45524332303a20696e636f6e73697374656e7420617272617973000000000000604482015290519081900360640190fd5b60006117436122e5565b6001600160a01b03811660009081526005602052604081205491925080805b8581146119575760008b8b8381811061177757fe5b905060200201356001600160a01b0316905060006001600160a01b0316816001600160a01b031614156117f1576040805162461bcd60e51b815260206004820152601660248201527f45524332303a20746f207a65726f206164647265737300000000000000000000604482015290519081900360640190fd5b60008a8a848181106117ff57fe5b9050602002013590508060001461190257848101858111611867576040805162461bcd60e51b815260206004820152601660248201527f45524332303a2076616c756573206f766572666c6f7700000000000000000000604482015290519081900360640190fd5b809550826001600160a01b0316886001600160a01b0316146118a6576001600160a01b0383166000908152600560205260409020805483019055611900565b868211156118fb576040805162461bcd60e51b815260206004820152601b60248201527f45524332303a20696e73756666696369656e742062616c616e63650000000000604482015290519081900360640190fd5b938101935b505b816001600160a01b0316876001600160a01b03167fddf252ad1be2c89b69c2b068fc378daa952ba7f163c4a11628f55a4df523b3ef836040518082815260200191505060405180910390a35050600101611762565b5081158015906119675750808214155b156119e1578183038381106119c3576040805162461bcd60e51b815260206004820152601b60248201527f45524332303a20696e73756666696369656e742062616c616e63650000000000604482015290519081900360640190fd5b6001600160a01b038516600090815260056020526040902090820190555b5060019998505050505050505050565b6000546001600160a01b031690565b60038054604080516020601f6002600019610100600188161502019095169490940493840181900481028201810190925282815260609390929091830182828015610df65780601f10610dcb57610100808354040283529160200191610df6565b60006001600160a01b038316611abe576040805162461bcd60e51b815260206004820152601b60248201527f45524332303a207a65726f2061646472657373207370656e6465720000000000604482015290519081900360640190fd5b610e15611ac96122e5565b84846126b7565b6000610e15611add6122e5565b8484612b32565b600080611aef6122e5565b9050611afd818888886123b1565b611b0f866001600160a01b0316612c99565b15611c5f57634fc3585960e01b7bffffffffffffffffffffffffffffffffffffffffffffffffffffffff1916866001600160a01b0316634fc35859838a8989896040518663ffffffff1660e01b815260040180866001600160a01b03168152602001856001600160a01b03168152602001848152602001806020018281038252848482818152602001925080828437600081840152601f19601f8201169050808301925050509650505050505050602060405180830381600087803b158015611bd757600080fd5b505af1158015611beb573d6000803e3d6000fd5b505050506040513d6020811015611c0157600080fd5b50516001600160e01b03191614611c5f576040805162461bcd60e51b815260206004820152601760248201527f45524332303a207472616e736665722072656675736564000000000000000000604482015290519081900360640190fd5b5060019695505050505050565b611c776111416122e5565b848381148015611c8657508082145b611cd7576040805162461bcd60e51b815260206004820152601a60248201527f5265636f763a20696e636f6e73697374656e7420617272617973000000000000604482015290519081900360640190fd5b60005b8181146116c657858582818110611ced57fe5b905060200201356001600160a01b03166001600160a01b03166323b872dd308a8a85818110611d1857fe5b905060200201356001600160a01b0316878786818110611d3457fe5b905060200201356040518463ffffffff1660e01b815260040180846001600160a01b03168152602001836001600160a01b031681526020018281526020019350505050600060405180830381600087803b158015611d9157600080fd5b505af1158015611da5573d6000803e3d6000fd5b50505050806001019050611cda565b6008546001600160a01b031681565b7f000000000000000000000000000000000000000000000000000000000000000081565b81816020811015611df757600080fd5b506009805491359091039055611e0e838383612c9f565b505050565b6001600160a01b038716611e6e576040805162461bcd60e51b815260206004820152601960248201527f45524332303a207a65726f2061646472657373206f776e657200000000000000604482015290519081900360640190fd5b83421115611ec3576040805162461bcd60e51b815260206004820152601560248201527f45524332303a2065787069726564207065726d69740000000000000000000000604482015290519081900360640190fd5b6001600160a01b0380881660008181526001602081815260408084208054938401905580517f6e71edae12b1b97f4d1f60370fef10105fa2faae0126114a169c64845d6126c98184015280820195909552948b166060850152608084018a905260a084019190915260c08084018990528451808503909101815260e09093019093528151919092012090611f55610e7b565b8260405160200180807f190100000000000000000000000000000000000000000000000000000000000081525060020183815260200182815260200192505050604051602081830303815290604052805190602001209050600060018287878760405160008152602001604052604051808581526020018460ff1681526020018381526020018281526020019450505050506020604051602081039080840390855afa158015612009573d6000803e3d6000fd5b505050602060405103519050896001600160a01b0316816001600160a01b03161461207b576040805162461bcd60e51b815260206004820152601560248201527f45524332303a20696e76616c6964207065726d69740000000000000000000000604482015290519081900360640190fd5b6120868a8a8a6122f4565b50505050505050505050565b6001600160a01b03918216600090815260066020908152604080832093909416825291909152205490565b6120c86111416122e5565b611e0e600483836132ad565b6000806120df6122e5565b90506120ec818787612b32565b6120fe866001600160a01b0316612c99565b1561224e57634fc3585960e01b7bffffffffffffffffffffffffffffffffffffffffffffffffffffffff1916866001600160a01b0316634fc3585983848989896040518663ffffffff1660e01b815260040180866001600160a01b03168152602001856001600160a01b03168152602001848152602001806020018281038252848482818152602001925080828437600081840152601f19601f8201169050808301925050509650505050505050602060405180830381600087803b1580156121c657600080fd5b505af11580156121da573d6000803e3d6000fd5b505050506040513d60208110156121f057600080fd5b50516001600160e01b0319161461224e576040805162461bcd60e51b815260206004820152601760248201527f45524332303a207472616e736665722072656675736564000000000000000000604482015290519081900360640190fd5b50600195945050505050565b6122656111416122e5565b600080547fffffffffffffffffffffffff0000000000000000000000000000000000000000166001600160a01b0383811691821780845560405192939116917f8be0079c531659141344cd1fd0a4f28419497f9722a3daafe3b4186f6b6457e09190a350565b60006122d682612cd0565b80610d675750610d6782612e6d565b60006122ef612eb9565b905090565b6001600160a01b03821661234f576040805162461bcd60e51b815260206004820152601b60248201527f45524332303a207a65726f2061646472657373207370656e6465720000000000604482015290519081900360640190fd5b6001600160a01b03808416600081815260066020908152604080832094871680845294825291829020859055815185815291517f8c5be1e5ebec7d5bd14f71427d1e84f3dd0314c0f7b2291e5b200ac8c7c3b9259281900390910190a3505050565b6123bc838383612b32565b836001600160a01b0316836001600160a01b0316146123e0576123e08385836126b7565b50505050565b60006123f06122e5565b90506123fe818230856123b1565b604080516001600160a01b03831681526020810184905281517f7084f5476618d8e60b11ef0d7d3f06914655adb8793e28ff7f018d4c76d505d5929181900390910190a15050565b8051602091820120604080517f8b73c3c69bb8fe3d512ecc4cf759cc79239f7b179b0ffacaa9a75d522b39400f81850152808201929092527fc89efdaa54c0f20c7adf612882df0950f5a951637e0307cdcb4c672f298b8bc6606083015260808201939093523060a0808301919091528351808303909101815260c0909101909252815191012090565b306001600160a01b0316638da5cb5b6040518163ffffffff1660e01b815260040160206040518083038186803b15801561250957600080fd5b505afa15801561251d573d6000803e3d6000fd5b505050506040513d602081101561253357600080fd5b50516001600160a01b03828116911614610e54576040805162461bcd60e51b815260206004820152601660248201527f4f776e61626c653a206e6f7420746865206f776e657200000000000000000000604482015290519081900360640190fd5b6001600160a01b0382166125ef576040805162461bcd60e51b815260206004820152601360248201527f45524332303a207a65726f206164647265737300000000000000000000000000604482015290519081900360640190fd5b60075481156126715780820181811161264f576040805162461bcd60e51b815260206004820152601660248201527f45524332303a20737570706c79206f766572666c6f7700000000000000000000604482015290519081900360640190fd5b6007556001600160a01b03831660009081526005602052604090208054830190555b6040805183815290516001600160a01b038516916000917fddf252ad1be2c89b69c2b068fc378daa952ba7f163c4a11628f55a4df523b3ef9181900360200190a3505050565b6001600160a01b0380841660009081526006602090815260408083209386168352929052205460001981148015906126ee57508115155b156127755781810381811061274a576040805162461bcd60e51b815260206004820152601d60248201527f45524332303a20696e73756666696369656e7420616c6c6f77616e6365000000604482015290519081900360640190fd5b6001600160a01b03808616600090815260066020908152604080832093881683529290522081905590505b826001600160a01b0316846001600160a01b03167f8c5be1e5ebec7d5bd14f71427d1e84f3dd0314c0f7b2291e5b200ac8c7c3b925836040518082815260200191505060405180910390a350505050565b6000306127d16122e5565b6001600160a01b03161461282c576040805162461bcd60e51b815260206004820152601860248201527f4368696c6445524332303a2077726f6e672073656e6465720000000000000000604482015290519081900360640190fd5b604080516001600160a01b03871681526020810186905281517f7084f5476618d8e60b11ef0d7d3f06914655adb8793e28ff7f018d4c76d505d5929181900390910190a150634fc3585960e01b95945050505050565b8151815181146128d9576040805162461bcd60e51b815260206004820152601a60248201527f45524332303a20696e636f6e73697374656e7420617272617973000000000000604482015290519081900360640190fd5b6000805b828114612a475760008582815181106128f257fe5b6020026020010151905060006001600160a01b0316816001600160a01b03161415612964576040805162461bcd60e51b815260206004820152601360248201527f45524332303a207a65726f206164647265737300000000000000000000000000604482015290519081900360640190fd5b600085838151811061297257fe5b60200260200101519050806000146129fc578381018481116129db576040805162461bcd60e51b815260206004820152601660248201527f45524332303a2076616c756573206f766572666c6f7700000000000000000000604482015290519081900360640190fd5b6001600160a01b038316600090815260056020526040902080548301905593505b6040805182815290516001600160a01b038416916000917fddf252ad1be2c89b69c2b068fc378daa952ba7f163c4a11628f55a4df523b3ef9181900360200190a350506001016128dd565b5080156123e057600754818101818111612aa8576040805162461bcd60e51b815260206004820152601660248201527f45524332303a20737570706c79206f766572666c6f7700000000000000000000604482015290519081900360640190fd5b6007555050505050565b604080516001600160a01b038416602482015260448082018490528251808303909101815260649091019091526020810180517bffffffffffffffffffffffffffffffffffffffffffffffffffffffff167fa9059cbb00000000000000000000000000000000000000000000000000000000179052611e0e908490613019565b6001600160a01b038216612b8d576040805162461bcd60e51b815260206004820152601660248201527f45524332303a20746f207a65726f206164647265737300000000000000000000604482015290519081900360640190fd5b8015612c49576001600160a01b038316600090815260056020526040902054818103818110612c03576040805162461bcd60e51b815260206004820152601b60248201527f45524332303a20696e73756666696369656e742062616c616e63650000000000604482015290519081900360640190fd5b836001600160a01b0316856001600160a01b031614612c46576001600160a01b038086166000908152600560205260408082208490559186168152208054840190555b50505b816001600160a01b0316836001600160a01b03167fddf252ad1be2c89b69c2b068fc378daa952ba7f163c4a11628f55a4df523b3ef836040518082815260200191505060405180910390a3505050565b3b151590565b612caf612caa6122e5565b613221565b600082826020811015612cc157600080fd5b503590506123e0308583612b32565b60006001600160e01b031982167f01ffc9a7000000000000000000000000000000000000000000000000000000001480612d3357506001600160e01b031982167f36372b0700000000000000000000000000000000000000000000000000000000145b80612d6757506001600160e01b031982167fa219a02500000000000000000000000000000000000000000000000000000000145b80612d9b57506001600160e01b031982167f3c130d9000000000000000000000000000000000000000000000000000000000145b80612dcf57506001600160e01b031982167f9d07518600000000000000000000000000000000000000000000000000000000145b80612e0357506001600160e01b031982167fc05327e600000000000000000000000000000000000000000000000000000000145b80612e3757506001600160e01b031982167f53f41a9700000000000000000000000000000000000000000000000000000000145b80610d675750506001600160e01b0319167f9d8ff7da000000000000000000000000000000000000000000000000000000001490565b60006001600160e01b031982167f01ffc9a7000000000000000000000000000000000000000000000000000000001480610d675750506001600160e01b031916634fc3585960e01b1490565b60003381612ec5613283565b90507f00000000000000000000000000000000000000000000000000000000000000006001600160a01b0316826001600160a01b03161480612f3857507f00000000000000000000000000000000000000000000000000000000000000006001600160a01b0316826001600160a01b0316145b15612f46579150610dfe9050565b6001600160a01b038216321480159061300557507f00000000000000000000000000000000000000000000000000000000000000006001600160a01b031663e60125d682846040518363ffffffff1660e01b815260040180836001600160a01b03168152602001826001600160a01b031681526020019250505060206040518083038186803b158015612fd857600080fd5b505afa158015612fec573d6000803e3d6000fd5b505050506040513d602081101561300257600080fd5b50515b15613013579150610dfe9050565b50905090565b8161302c6001600160a01b038216612c99565b61307d576040805162461bcd60e51b815260206004820152601a60248201527f4552433230577261707065723a206e6f6e2d636f6e7472616374000000000000604482015290519081900360640190fd5b600080826001600160a01b0316846040518082805190602001908083835b602083106130d857805182527fffffffffffffffffffffffffffffffffffffffffffffffffffffffffffffffe0909201916020918201910161309b565b6001836020036101000a0380198251168184511680821785525050505050509050019150506000604051808303816000865af19150503d806000811461313a576040519150601f19603f3d011682016040523d82523d6000602084013e61313f565b606091505b509150915081156131be578051156131b95780806020019051602081101561316657600080fd5b50516131b9576040805162461bcd60e51b815260206004820152601e60248201527f4552433230577261707065723a206f7065726174696f6e206661696c65640000604482015290519081900360640190fd5b61321a565b8051613211576040805162461bcd60e51b815260206004820152601e60248201527f4552433230577261707065723a206f7065726174696f6e206661696c65640000604482015290519081900360640190fd5b80518082602001fd5b5050505050565b6008546001600160a01b03828116911614610e54576040805162461bcd60e51b815260206004820152601a60248201527f4368696c6445524332303a206f6e6c79206465706f7369746f72000000000000604482015290519081900360640190fd5b7fffffffffffffffffffffffffffffffffffffffffffffffffffffffffffffffec36013560601c90565b828054600181600116156101000203166002900490600052602060002090601f0160209004810192826132e35760008555613347565b82601f1061331a578280017fffffffffffffffffffffffffffffffffffffffffffffffffffffffffffffff00823516178555613347565b82800160010185558215613347579182015b8281111561334757823582559160200191906001019061332c565b50613353929150613357565b5090565b5b80821115613353576000815560010161335856fea264697066735822122023b3ad0735caccda0a65da88b4314d6ba0353c8c25abc38d656801265fa8c5dd64736f6c63430007060033",
  "linkReferences": {},
  "deployedLinkReferences": {}
}