{
  "_format": "hh-sol-artifact-1",
  "contractName": "ERC20MintBurnPredicate",
  "sourceName": "contracts/bridging/ERC20MintBurnPredicate.sol",
  "abi": [
    {
      "inputs": [
        {
          "internalType": "address",
          "name": "rootChainManager_",
          "type": "address"
        }
      ],
      "stateMutability": "nonpayable",
      "type": "constructor"
    },
    {
      "anonymous": false,
      "inputs": [
        {
          "indexed": true,
          "internalType": "address",
          "name": "depositor",
          "type": "address"
        },
        {
          "indexed": true,
          "internalType": "address",
          "name": "depositReceiver",
          "type": "address"
        },
        {
          "indexed": true,
          "internalType": "address",
          "name": "rootToken",
          "type": "address"
        },
        {
          "indexed": false,
          "internalType": "uint256",
          "name": "amount",
          "type": "uint256"
        }
      ],
      "name": "LockedERC20",
      "type": "event"
    },
    {
      "inputs": [],
      "name": "WITHDRAWN_EVENT_SIG",
      "outputs": [
        {
          "internalType": "bytes32",
          "name": "",
          "type": "bytes32"
        }
      ],
      "stateMutability": "view",
      "type": "function"
    },
    {
      "inputs": [
        {
          "internalType": "address",
          "name": "",
          "type": "address"
        },
        {
          "internalType": "address",
          "name": "rootToken",
          "type": "address"
        },
        {
          "internalType": "bytes",
          "name": "log",
          "type": "bytes"
        }
      ],
      "name": "exitTokens",
      "outputs": [],
      "stateMutability": "nonpayable",
      "type": "function"
    },
    {
      "inputs": [
        {
          "internalType": "address",
          "name": "depositor",
          "type": "address"
        },
        {
          "internalType": "address",
          "name": "depositReceiver",
          "type": "address"
        },
        {
          "internalType": "address",
          "name": "rootToken",
          "type": "address"
        },
        {
          "internalType": "bytes",
          "name": "depositData",
          "type": "bytes"
        }
      ],
      "name": "lockTokens",
      "outputs": [],
      "stateMutability": "nonpayable",
      "type": "function"
    },
    {
      "inputs": [],
      "name": "rootChainManager",
      "outputs": [
        {
          "internalType": "address",
          "name": "",
          "type": "address"
        }
      ],
      "stateMutability": "view",
      "type": "function"
    }
  ],
  "bytecode": "0x608060405234801561001057600080fd5b50604051610c88380380610c888339818101604052602081101561003357600080fd5b5051600080546001600160a01b039092166001600160a01b0319909216919091179055610c23806100656000396000f3fe608060405234801561001057600080fd5b506004361061004c5760003560e01c8063206efea4146100515780638274664f1461006b578063bd07018d1461012c578063e375b64e14610150575b600080fd5b6100596101e1565b60408051918252519081900360200190f35b61012a6004803603606081101561008157600080fd5b6001600160a01b0382358116926020810135909116918101906060810160408201356401000000008111156100b557600080fd5b8201836020820111156100c757600080fd5b803590602001918460018302840111640100000000831117156100e957600080fd5b91908080601f016020809104026020016040519081016040528093929190818152602001838380828437600092019190915250929550610205945050505050565b005b61013461029b565b604080516001600160a01b039092168252519081900360200190f35b61012a6004803603608081101561016657600080fd5b6001600160a01b03823581169260208101358216926040820135909216918101906080810160608201356401000000008111156101a257600080fd5b8201836020820111156101b457600080fd5b803590602001918460018302840111640100000000831117156101d657600080fd5b5090925090506102aa565b7f7084f5476618d8e60b11ef0d7d3f06914655adb8793e28ff7f018d4c76d505d581565b6102156102106103f0565b6103f4565b60008061022183610459565b91509150836001600160a01b03166340c10f1983836040518363ffffffff1660e01b815260040180836001600160a01b0316815260200182815260200192505050600060405180830381600087803b15801561027c57600080fd5b505af1158015610290573d6000803e3d6000fd5b505050505050505050565b6000546001600160a01b031681565b6102b56102106103f0565b6000828260208110156102c757600080fd5b5060408051913580835290519092506001600160a01b038087169288821692918a16917f9b217a401a5ddf7c4d474074aff9958a18d48690d77cc2151c4706aa7348b4019181900360200190a4836001600160a01b03166379cc679087836040518363ffffffff1660e01b815260040180836001600160a01b0316815260200182815260200192505050602060405180830381600087803b15801561036b57600080fd5b505af115801561037f573d6000803e3d6000fd5b505050506040513d602081101561039557600080fd5b50516103e8576040805162461bcd60e51b815260206004820152601660248201527f5072656469636174653a206275726e206661696c656400000000000000000000604482015290519081900360640190fd5b505050505050565b3390565b6000546001600160a01b03828116911614610456576040805162461bcd60e51b815260206004820152601760248201527f5072656469636174653a206f6e6c79206d616e61676572000000000000000000604482015290519081900360640190fd5b50565b600080600061046f61046a8561055d565b6105d9565b905060006104908260018151811061048357fe5b60200260200101516105d9565b90507f7084f5476618d8e60b11ef0d7d3f06914655adb8793e28ff7f018d4c76d505d560001b6104d3826000815181106104c657fe5b6020026020010151610771565b14610525576040805162461bcd60e51b815260206004820152601c60248201527f5072656469636174653a20696e76616c6964207369676e617475726500000000604482015290519081900360640190fd5b6105428260028151811061053557fe5b60200260200101516108cf565b9350610554826003815181106104c657fe5b92505050915091565b610565610bd3565b60008251116105bb576040805162461bcd60e51b815260206004820152601f60248201527f524c505265616465723a20494e56414c49445f42595445535f4c454e47544800604482015290519081900360640190fd5b5060408051808201909152815181526020828101908201525b919050565b60606105e482610991565b610635576040805162461bcd60e51b815260206004820152601260248201527f524c503a204954454d5f4e4f545f4c4953540000000000000000000000000000604482015290519081900360640190fd5b6000610640836109bd565b905060008167ffffffffffffffff8111801561065b57600080fd5b5060405190808252806020026020018201604052801561069557816020015b610682610bd3565b81526020019060019003908161067a5790505b50905060006106a78560200151610a5f565b855190915081146106ff576040805162461bcd60e51b815260206004820152601960248201527f524c503a204c4953545f4c454e4754485f4d49534d4154434800000000000000604482015290519081900360640190fd5b600061070e8660200151610b34565b60208701510190506000805b858110156107655761072b83610a5f565b915060405180604001604052808381526020018481525085828151811061074e57fe5b60209081029190910101529181019160010161071a565b50929695505050505050565b600061077c82610991565b156107ce576040805162461bcd60e51b815260206004820152601a60248201527f524c503a204445434f44494e475f4c4953545f41535f55494e54000000000000604482015290519081900360640190fd5b815160211015610825576040805162461bcd60e51b815260206004820152601560248201527f524c503a20494e56414c49445f55494e545f4c454e0000000000000000000000604482015290519081900360640190fd5b60006108348360200151610a5f565b8351909150811461088c576040805162461bcd60e51b815260206004820152601660248201527f524c503a2055494e545f4c454e5f4d49534d4154434800000000000000000000604482015290519081900360640190fd5b600061089b8460200151610b34565b845160208087015183018051939450918490039291908310156108c557826020036101000a820491505b5095945050505050565b60006108da82610991565b1561092c576040805162461bcd60e51b815260206004820152601d60248201527f524c503a204445434f44494e475f4c4953545f41535f41444452455353000000604482015290519081900360640190fd5b8151601514610982576040805162461bcd60e51b815260206004820152601860248201527f524c503a20494e56414c49445f414444524553535f4c454e0000000000000000604482015290519081900360640190fd5b61098b82610771565b92915050565b6020810151805160009190821a9060c08210156109b3576000925050506105d4565b5060019392505050565b6000806000905060006109d38460200151610b34565b602085015185519181019250015b80821015610a56576109f282610a5f565b8201915080821115610a4b576040805162461bcd60e51b815260206004820152601b60248201527f524c503a204e554d5f4954454d535f4c454e5f4d49534d415443480000000000604482015290519081900360640190fd5b6001909201916109e1565b50909392505050565b80516000908190811a6080811015610a7a5760019150610b2d565b60b8811015610aad577fffffffffffffffffffffffffffffffffffffffffffffffffffffffffffffff8181019150610b2d565b60c0811015610ada5760b78103600185019450806020036101000a85510460018201810193505050610b2d565b60f8811015610b0d577fffffffffffffffffffffffffffffffffffffffffffffffffffffffffffffff4181019150610b2d565b60f78103600185019450806020036101000a855104600182018101935050505b5092915050565b8051600090811a6080811015610b4e5760009150506105d4565b60b8811080610b69575060c08110801590610b69575060f881105b15610b785760019150506105d4565b60c0811015610baa577fffffffffffffffffffffffffffffffffffffffffffffffffffffffffffffff4a0190506105d4565b7fffffffffffffffffffffffffffffffffffffffffffffffffffffffffffffff0a0190506105d4565b60405180604001604052806000815260200160008152509056fea2646970667358221220a2353be58f620694fcbaadcd79f630366ef0dc03c9e2cb9a4e3688b840134aca64736f6c63430007060033",
  "linkReferences": {},
  "deployedLinkReferences": {}
}