{
  "_format": "hh-sol-artifact-1",
  "contractName": "ERC20MintBurnPredicate",
  "sourceName": "contracts/bridging/ERC20MintBurnPredicate.sol",
  "abi": [
    {
      "inputs": [
        {
          "internalType": "address",
          "name": "rootChainManager_",
          "type": "address"
        }
      ],
      "stateMutability": "nonpayable",
      "type": "constructor"
    },
    {
      "anonymous": false,
      "inputs": [
        {
          "indexed": true,
          "internalType": "address",
          "name": "depositor",
          "type": "address"
        },
        {
          "indexed": true,
          "internalType": "address",
          "name": "depositReceiver",
          "type": "address"
        },
        {
          "indexed": true,
          "internalType": "address",
          "name": "rootToken",
          "type": "address"
        },
        {
          "indexed": false,
          "internalType": "uint256",
          "name": "amount",
          "type": "uint256"
        }
      ],
      "name": "LockedERC20",
      "type": "event"
    },
    {
      "inputs": [],
      "name": "WITHDRAWN_EVENT_SIG",
      "outputs": [
        {
          "internalType": "bytes32",
          "name": "",
          "type": "bytes32"
        }
      ],
      "stateMutability": "view",
      "type": "function"
    },
    {
      "inputs": [
        {
          "internalType": "bytes32",
          "name": "c__0x92cbea31",
          "type": "bytes32"
        }
      ],
      "name": "c_0x92cbea31",
      "outputs": [],
      "stateMutability": "pure",
      "type": "function"
    },
    {
      "inputs": [
        {
          "internalType": "bytes32",
          "name": "c__0xe33b4c4c",
          "type": "bytes32"
        }
      ],
      "name": "c_0xe33b4c4c",
      "outputs": [],
      "stateMutability": "pure",
      "type": "function"
    },
    {
      "inputs": [
        {
          "internalType": "address",
          "name": "",
          "type": "address"
        },
        {
          "internalType": "address",
          "name": "rootToken",
          "type": "address"
        },
        {
          "internalType": "bytes",
          "name": "log",
          "type": "bytes"
        }
      ],
      "name": "exitTokens",
      "outputs": [],
      "stateMutability": "nonpayable",
      "type": "function"
    },
    {
      "inputs": [
        {
          "internalType": "address",
          "name": "depositor",
          "type": "address"
        },
        {
          "internalType": "address",
          "name": "depositReceiver",
          "type": "address"
        },
        {
          "internalType": "address",
          "name": "rootToken",
          "type": "address"
        },
        {
          "internalType": "bytes",
          "name": "depositData",
          "type": "bytes"
        }
      ],
      "name": "lockTokens",
      "outputs": [],
      "stateMutability": "nonpayable",
      "type": "function"
    },
    {
      "inputs": [],
      "name": "rootChainManager",
      "outputs": [
        {
          "internalType": "address",
          "name": "",
          "type": "address"
        }
      ],
      "stateMutability": "view",
      "type": "function"
    }
  ],
  "bytecode": "0x60806040523480156200001157600080fd5b506040516200177a3803806200177a833981810160405260208110156200003757600080fd5b8101908080519060200190929190505050806200007d7f5b0f430b74f64d3da357a4985c1f7b2cac74e201c7bbb603d8d169d4d7ef16ea60001b6200016160201b60201c565b620000b17f1cf1e3e656e29a2aafeec28b4ffb4ad5679a9da57c2d8b24309003d01d34830c60001b6200016160201b60201c565b620000e57f8b29a740c1d6d14324bb5a63f7f7126d9ec1dd2b8631c4954b8f91939068ac3b60001b6200016160201b60201c565b806000806101000a81548173ffffffffffffffffffffffffffffffffffffffff021916908373ffffffffffffffffffffffffffffffffffffffff160217905550506200015a7ff50b4dfe3c4dcd0994df493c974940ef10444af1152359ae6ef976ee07034d5360001b6200016460201b60201c565b5062000167565b50565b50565b61160380620001776000396000f3fe608060405234801561001057600080fd5b50600436106100725760003560e01c80638274664f116100505780638274664f146100f1578063bd07018d146101ec578063e375b64e1461022057610072565b80630304597714610077578063206efea4146100a55780635603116e146100c3575b600080fd5b6100a36004803603602081101561008d57600080fd5b81019080803590602001909291905050506102f9565b005b6100ad6102fc565b6040518082815260200191505060405180910390f35b6100ef600480360360208110156100d957600080fd5b8101908080359060200190929190505050610323565b005b6101ea6004803603606081101561010757600080fd5b81019080803573ffffffffffffffffffffffffffffffffffffffff169060200190929190803573ffffffffffffffffffffffffffffffffffffffff1690602001909291908035906020019064010000000081111561016457600080fd5b82018360208201111561017657600080fd5b8035906020019184600183028401116401000000008311171561019857600080fd5b91908080601f016020809104026020016040519081016040528093929190818152602001838380828437600081840152601f19601f820116905080830192505050505050509192919290505050610326565b005b6101f461050a565b604051808273ffffffffffffffffffffffffffffffffffffffff16815260200191505060405180910390f35b6102f76004803603608081101561023657600080fd5b81019080803573ffffffffffffffffffffffffffffffffffffffff169060200190929190803573ffffffffffffffffffffffffffffffffffffffff169060200190929190803573ffffffffffffffffffffffffffffffffffffffff169060200190929190803590602001906401000000008111156102b357600080fd5b8201836020820111156102c557600080fd5b803590602001918460018302840111640100000000831117156102e757600080fd5b909192939192939050505061052e565b005b50565b7f7084f5476618d8e60b11ef0d7d3f06914655adb8793e28ff7f018d4c76d505d560001b81565b50565b6103527fc3d30fd3c7148fd82202aa5bb71304a7a0cb08d74774bbd5f7524326581f65f360001b610323565b61037e7f3c204c37f507a2ca660c377d328877e7dfa268c3b4eb9ade5c984de18ac546c060001b610323565b6103aa7f9547cf084dc9cef473a2216a4b4a031c711263efee658af0d74db622252651ce60001b610323565b6103ba6103b56108e8565b6108f0565b6103e67f2702a01837d1515d0066bdea9842ba714304e0769e8292b123be0f78414582c160001b610323565b6104127fe10762235134b98403154549524af42c39f316aa6071a97015eaf487a43176e460001b610323565b60008061041e83610a90565b9150915061044e7f63e1f159c5877eb3c6fab5962e5c6639f9b71309efa145f972309ee95657028460001b610323565b61047a7f1b37ed2322a3c39432a285e004bf29b35733d2a8171b030a7beee6fb68524c2060001b610323565b8373ffffffffffffffffffffffffffffffffffffffff166340c10f1983836040518363ffffffff1660e01b8152600401808373ffffffffffffffffffffffffffffffffffffffff16815260200182815260200192505050600060405180830381600087803b1580156104eb57600080fd5b505af11580156104ff573d6000803e3d6000fd5b505050505050505050565b60008054906101000a900473ffffffffffffffffffffffffffffffffffffffff1681565b61055a7fbc76a63516414c226d1a6be3117dc3a9cbd9930f449cb04ca63801ff6e8e39bd60001b610323565b6105867f71aaf4794f986055b9818dbeac1596775bff4f6ea077d6b9c149d941fd56567c60001b610323565b6105b27f9ab847dd708a54c1fdbe82791e77499000389bcfad5f1a5ca6f48bb98cb00e4060001b610323565b6105c26105bd6108e8565b6108f0565b6105ee7f56d81bf1e0a0dbd1ef382287c1418694aa8aa60644ec3dbdb2467ba6e2a89b7360001b610323565b61061a7ff39f1bcf336c41910458b66a0ca96c4f92262d7b4743a79bfdd35ecaf7598ef760001b610323565b60008282602081101561062c57600080fd5b8101908080359060200190929190505050905061066b7f80201c63600608cb7fc1eb06be48afcf3c712177c9e11cedcd2ba10d121aad9d60001b610323565b6106977f8c85ec24806422f7f5fedef77d938f60e7e170327618edbc0808ab2df5d0f30b60001b610323565b8373ffffffffffffffffffffffffffffffffffffffff168573ffffffffffffffffffffffffffffffffffffffff168773ffffffffffffffffffffffffffffffffffffffff167f9b217a401a5ddf7c4d474074aff9958a18d48690d77cc2151c4706aa7348b401846040518082815260200191505060405180910390a461073f7f0ced716ae8a04bbb5c8930fe390fa6d7408db6bc2da9237c08a5fe4cdb0fbfaf60001b610323565b61076a7edbeb3f2a11c9a3f68328e1162c5bee68a888a1692612b3fe1d5eef6487d21360001b610323565b6107967f302c773670b8729d68e183baef92c2474690cc8de0c4e65bb1b5090170378cbc60001b610323565b8373ffffffffffffffffffffffffffffffffffffffff166379cc679087836040518363ffffffff1660e01b8152600401808373ffffffffffffffffffffffffffffffffffffffff16815260200182815260200192505050602060405180830381600087803b15801561080757600080fd5b505af115801561081b573d6000803e3d6000fd5b505050506040513d602081101561083157600080fd5b81019080805190602001909291905050506108b4576040517f08c379a00000000000000000000000000000000000000000000000000000000081526004018080602001828103825260168152602001807f5072656469636174653a206275726e206661696c65640000000000000000000081525060200191505060405180910390fd5b6108e07f6f1fba11c2338ab5e9b5f031e7f3e4bd94a557f9f574302b6ce512606114033e60001b610323565b505050505050565b600033905090565b61091c7fa66cd262b1cbafd12dc4fa251cfb45bbe3cfde689a8ed12aa5d5d819a71c83f960001b6102f9565b6109487fd63e99cbaf6096984168b48e3ce33f13fb37a8e024ea2ba15bba8c0de81d824c60001b6102f9565b6109747fcae7ee65aa6ac54529286b688451c9d9d7aea8234dcadb7ea64f03864202b27460001b6102f9565b6109a07fd52a2e1d9ffdb0fc240ab8a9a0dba7c1f56c982d1c7dbccfa310d1e3f5655fa560001b6102f9565b60008054906101000a900473ffffffffffffffffffffffffffffffffffffffff1673ffffffffffffffffffffffffffffffffffffffff168173ffffffffffffffffffffffffffffffffffffffff1614610a61576040517f08c379a00000000000000000000000000000000000000000000000000000000081526004018080602001828103825260178152602001807f5072656469636174653a206f6e6c79206d616e6167657200000000000000000081525060200191505060405180910390fd5b610a8d7f4e7c9920e374d97b4e8d02c74396bd9c84dfc4751ba9bb321605a32f5125eb1a60001b6102f9565b50565b600080610abf7faa4e5261abea8cf03ad71e932de0a0d2d7f9b05adafbfd61baa433b67151bd6c60001b6102f9565b610aeb7f8aba95d8a242e2f9bcd13a22f080db77c727284f877cf066d040c07e5eacb28560001b6102f9565b610b177f42a8b285f9866052eee636cfd471749b3cf07648b26b486fa8c18289ca8dcf1260001b6102f9565b6000610b2a610b2585610e01565b610ea6565b9050610b587faf6fbf9886e69252740f07358ec703f53cd0adc3615d94fda1d3c1f6d471766f60001b6102f9565b610b847f2b5dfe431aa4dcbd024eca7f24e180370698e318e6d50e8ebb07b558a422151c60001b6102f9565b6000610ba382600181518110610b9657fe5b6020026020010151610ea6565b9050610bd17f2fd1f6d6675c7b0e4c02784547240470ce0d9db9da186629451aa4d85414ab1060001b6102f9565b610bfd7f3db6f2c764b4c92f8d4f9de349546b36a0ab1f816a0b92ab5e223c15cd96e7db60001b6102f9565b610c297f1649a8f60380097b4eb33f1c0c5b82524569124875a81a8ec737bf4af517365460001b6102f9565b7f7084f5476618d8e60b11ef0d7d3f06914655adb8793e28ff7f018d4c76d505d560001b610c6a82600081518110610c5d57fe5b602002602001015161108e565b60001b14610ce0576040517f08c379a000000000000000000000000000000000000000000000000000000000815260040180806020018281038252601c8152602001807f5072656469636174653a20696e76616c6964207369676e61747572650000000081525060200191505060405180910390fd5b610d0c7f26abadce7a7d385f3081ad625abe66a2852a09ed592dd22adecef76db25f0a0760001b6102f9565b610d387f7915461540fb75eb3d4325b429116a42e00cfd337429e366f84864044d2f92c960001b6102f9565b610d647f405ebd00bc73f862cfb96c9ad9a8cbb290c6d948d777e1c6322b136ef452c04d60001b6102f9565b610d8182600281518110610d7457fe5b6020026020010151611260565b9350610daf7fffedace0e3d4ff3dd8bcb524750ba43ff1e2da33770391b429159cec189a919060001b6102f9565b610ddb7ff86a8d75a24507099c30998fec106b13a672c20ea1e9887d0af4aed82b4865ac60001b6102f9565b610df882600381518110610deb57fe5b602002602001015161108e565b92505050915091565b610e096115b3565b6000825111610e80576040517f08c379a000000000000000000000000000000000000000000000000000000000815260040180806020018281038252601f8152602001807f524c505265616465723a20494e56414c49445f42595445535f4c454e4754480081525060200191505060405180910390fd5b600060208301905060405180604001604052808451815260200182815250915050919050565b6060610eb182611368565b610f23576040517f08c379a00000000000000000000000000000000000000000000000000000000081526004018080602001828103825260128152602001807f524c503a204954454d5f4e4f545f4c495354000000000000000000000000000081525060200191505060405180910390fd5b6000610f2e836113a1565b905060008167ffffffffffffffff81118015610f4957600080fd5b50604051908082528060200260200182016040528015610f8357816020015b610f706115b3565b815260200190600190039081610f685790505b5090506000610f958560200151611472565b905084600001518114611010576040517f08c379a00000000000000000000000000000000000000000000000000000000081526004018080602001828103825260198152602001807f524c503a204c4953545f4c454e4754485f4d49534d415443480000000000000081525060200191505060405180910390fd5b600061101f866020015161152a565b8660200151019050600080600090505b858110156110805761104083611472565b915060405180604001604052808381526020018481525085828151811061106357fe5b60200260200101819052508183019250808060010191505061102f565b508395505050505050919050565b600061109982611368565b1561110c576040517f08c379a000000000000000000000000000000000000000000000000000000000815260040180806020018281038252601a8152602001807f524c503a204445434f44494e475f4c4953545f41535f55494e5400000000000081525060200191505060405180910390fd5b602182600001511115611187576040517f08c379a00000000000000000000000000000000000000000000000000000000081526004018080602001828103825260158152602001807f524c503a20494e56414c49445f55494e545f4c454e000000000000000000000081525060200191505060405180910390fd5b60006111968360200151611472565b905082600001518114611211576040517f08c379a00000000000000000000000000000000000000000000000000000000081526004018080602001828103825260168152602001807f524c503a2055494e545f4c454e5f4d49534d415443480000000000000000000081525060200191505060405180910390fd5b6000611220846020015161152a565b9050600081856000015103905060008083876020015101905080519150602083101561125357826020036101000a820491505b8195505050505050919050565b600061126b82611368565b156112de576040517f08c379a000000000000000000000000000000000000000000000000000000000815260040180806020018281038252601d8152602001807f524c503a204445434f44494e475f4c4953545f41535f4144445245535300000081525060200191505060405180910390fd5b6015826000015114611358576040517f08c379a00000000000000000000000000000000000000000000000000000000081526004018080602001828103825260188152602001807f524c503a20494e56414c49445f414444524553535f4c454e000000000000000081525060200191505060405180910390fd5b6113618261108e565b9050919050565b600080600083602001519050805160001a915060c060ff168260ff1610156113955760009250505061139c565b6001925050505b919050565b6000806000905060006113b7846020015161152a565b84602001510190506000846000015185602001510190505b80821015611467576113e082611472565b820191508082111561145a576040517f08c379a000000000000000000000000000000000000000000000000000000000815260040180806020018281038252601b8152602001807f524c503a204e554d5f4954454d535f4c454e5f4d49534d41544348000000000081525060200191505060405180910390fd5b82806001019350506113cf565b829350505050919050565b6000806000835160001a9050608060ff168110156114935760019150611520565b60b860ff168110156114b0576001608060ff16820301915061151f565b60c060ff168110156114e05760b78103600185019450806020036101000a8551046001820181019350505061151e565b60f860ff168110156114fd57600160c060ff16820301915061151d565b60f78103600185019450806020036101000a855104600182018101935050505b5b5b5b8192505050919050565b600080825160001a9050608060ff1681101561154a5760009150506115ae565b60b860ff1681108061156f575060c060ff16811015801561156e575060f860ff1681105b5b1561157e5760019150506115ae565b60c060ff1681101561159e5760018060b80360ff168203019150506115ae565b60018060f80360ff168203019150505b919050565b60405180604001604052806000815260200160008152509056fea2646970667358221220ed2c7578554d02fa20b47a2069d8e0b8daa6a2e8226820b6036eb3d749b58c4264736f6c63430007060033",
  "linkReferences": {},
  "deployedLinkReferences": {}
}