{
  "_format": "hh-sol-artifact-1",
  "contractName": "ERC721ReceiverMock",
  "sourceName": "contracts/mocks/token/ERC721/ERC721ReceiverMock.sol",
  "abi": [
    {
      "inputs": [
        {
          "internalType": "bool",
          "name": "accept721",
          "type": "bool"
        }
      ],
      "stateMutability": "nonpayable",
      "type": "constructor"
    },
    {
      "anonymous": false,
      "inputs": [
        {
          "indexed": false,
          "internalType": "address",
          "name": "operator",
          "type": "address"
        },
        {
          "indexed": false,
          "internalType": "address",
          "name": "from",
          "type": "address"
        },
        {
          "indexed": false,
          "internalType": "uint256",
          "name": "tokenId",
          "type": "uint256"
        },
        {
          "indexed": false,
          "internalType": "bytes",
          "name": "data",
          "type": "bytes"
        },
        {
          "indexed": false,
          "internalType": "uint256",
          "name": "gas",
          "type": "uint256"
        }
      ],
      "name": "Received",
      "type": "event"
    },
    {
      "inputs": [
        {
          "internalType": "bytes32",
          "name": "c__0x46521be6",
          "type": "bytes32"
        }
      ],
      "name": "c_0x46521be6",
      "outputs": [],
      "stateMutability": "pure",
      "type": "function"
    },
    {
      "inputs": [
        {
          "internalType": "bytes32",
          "name": "c__0xe2e62e6a",
          "type": "bytes32"
        }
      ],
      "name": "c_0xe2e62e6a",
      "outputs": [],
      "stateMutability": "pure",
      "type": "function"
    },
    {
      "inputs": [
        {
          "internalType": "address",
          "name": "operator",
          "type": "address"
        },
        {
          "internalType": "address",
          "name": "from",
          "type": "address"
        },
        {
          "internalType": "uint256",
          "name": "tokenId",
          "type": "uint256"
        },
        {
          "internalType": "bytes",
          "name": "data",
          "type": "bytes"
        }
      ],
      "name": "onERC721Received",
      "outputs": [
        {
          "internalType": "bytes4",
          "name": "",
          "type": "bytes4"
        }
      ],
      "stateMutability": "nonpayable",
      "type": "function"
    },
    {
      "inputs": [
        {
          "internalType": "bytes4",
          "name": "interfaceId",
          "type": "bytes4"
        }
      ],
      "name": "supportsInterface",
      "outputs": [
        {
          "internalType": "bool",
          "name": "",
          "type": "bool"
        }
      ],
      "stateMutability": "view",
      "type": "function"
    }
  ],
  "bytecode": "0x608060405234801561001057600080fd5b506040516108013803806108018339818101604052602081101561003357600080fd5b81019080805190602001909291905050506100767fe1e82f33948963887bcf0f4f7fff1f450ef268b196afa8871d47509492c3466f60001b6100f960201b60201c565b6100a87f904f96f763519dc3823b10bf5dc3f51dd774c4d58b115953a8297500a1b0993860001b6100f960201b60201c565b6100da7f35575b3c71eff3346ec7b8468d35bff9553f770741231e22e7bac2afff80591560001b6100f960201b60201c565b806000806101000a81548160ff021916908315150217905550506100fc565b50565b6106f68061010b6000396000f3fe608060405234801561001057600080fd5b506004361061004c5760003560e01c806301ffc9a714610051578063150b7a02146100b4578063c0945b36146101ec578063cbb9155d1461021a575b600080fd5b61009c6004803603602081101561006757600080fd5b8101908080357bffffffffffffffffffffffffffffffffffffffffffffffffffffffff19169060200190929190505050610248565b60405180821515815260200191505060405180910390f35b6101b7600480360360808110156100ca57600080fd5b81019080803573ffffffffffffffffffffffffffffffffffffffff169060200190929190803573ffffffffffffffffffffffffffffffffffffffff169060200190929190803590602001909291908035906020019064010000000081111561013157600080fd5b82018360208201111561014357600080fd5b8035906020019184600183028401116401000000008311171561016557600080fd5b91908080601f016020809104026020016040519081016040528093929190818152602001838380828437600081840152601f19601f82011690508083019250505050505050919291929050505061039e565b60405180827bffffffffffffffffffffffffffffffffffffffffffffffffffffffff1916815260200191505060405180910390f35b6102186004803603602081101561020257600080fd5b81019080803590602001909291905050506106ba565b005b6102466004803603602081101561023057600080fd5b81019080803590602001909291905050506106bd565b005b60006102767f8e78bd84b8de8ab276571647011d55878fac86beb6fcdc3430c643638b823ba960001b6106ba565b6102a27f5b56151732f15aaccf3a16c70a1e0510020dec0192a0bd31e6d3f214195ec9a660001b6106ba565b6102ce7fc306e4b4b75e22e0c8ca681b6badb0771ec8367cc7d234410d0bda8e08b4546e60001b6106ba565b7f01ffc9a7000000000000000000000000000000000000000000000000000000007bffffffffffffffffffffffffffffffffffffffffffffffffffffffff1916827bffffffffffffffffffffffffffffffffffffffffffffffffffffffff1916148061039757507f150b7a02000000000000000000000000000000000000000000000000000000007bffffffffffffffffffffffffffffffffffffffffffffffffffffffff1916827bffffffffffffffffffffffffffffffffffffffffffffffffffffffff1916145b9050919050565b60006103cc7f2968c65e7c5a5b0daad00172682959301598416f0461de88e1e5c2e26cbb95a960001b6106bd565b6103f87fc075747ad5659db04ac035054759c195aa269c2243d87f14107ff5b1bc780a6b60001b6106bd565b6104247f0c136e90af645a3112de19eedd8eff9ad2dea72b1476d6b582a2412d3875094060001b6106bd565b60008054906101000a900460ff1615610623576104637fa1357f231953831a3a6df903da0abeaa39fa22663bc9341aec9fb380fb2cde5560001b6106bd565b61048f7f5faed5824f23ab9086905e96e496fc0cbd6d50e82994d14a517d8f5831a9fb0960001b6106bd565b6104bb7fff8141414e8165921947a928545eb86821c1f2762b8176adbe4b6503b9ca5ffc60001b6106bd565b7f28fa6e16458f9c24aa59ddd4085264573006dbe30304837873c7deafc702b038858585855a604051808673ffffffffffffffffffffffffffffffffffffffff1681526020018573ffffffffffffffffffffffffffffffffffffffff16815260200184815260200180602001838152602001828103825284818151815260200191508051906020019080838360005b8381101561056557808201518184015260208101905061054a565b50505050905090810190601f1680156105925780820380516001836020036101000a031916815260200191505b50965050505050505060405180910390a16105cf7fae5c9223a5b6ad2c11f766a95e74ab7f9e94c1252d76f9d7e4d0baf200cc68c960001b6106bd565b6105fb7f558370fe4b139cc27894903336afea336e74ad937214cf15eee43554eb4204d660001b6106bd565b7f150b7a020000000000000000000000000000000000000000000000000000000090506106b2565b61064f7f35f95846b3950f72a76aa247b3dce35e65a33852c117c845c9e1464fc2d02bfb60001b6106bd565b61067b7fdb00671581778068ccb694f6a23d18941782472d301bc5efae5e0c962c9de9ed60001b6106bd565b6106a77f6912dbc81b65441a86459fa5826b392e983f5bae2fd86e7f0e29aaf8cbcf86c760001b6106bd565b63ffffffff60e01b90505b949350505050565b50565b5056fea2646970667358221220e1969a680665369e42de6ee67bb607c657796fb829c88eb8039895d35a3646c164736f6c63430007060033",
  "linkReferences": {},
  "deployedLinkReferences": {}
}