{
  "_format": "hh-sol-artifact-1",
  "contractName": "ERC1155721InventoryPausableMock",
  "sourceName": "contracts/token/ERC1155721/mocks/ERC1155721InventoryPausableMock.sol",
  "abi": [
    {
      "inputs": [
        {
          "internalType": "contract IForwarderRegistry",
          "name": "forwarderRegistry",
          "type": "address"
        },
        {
          "internalType": "address",
          "name": "universalForwarder",
          "type": "address"
        },
        {
          "internalType": "uint256",
          "name": "collectionMaskLength",
          "type": "uint256"
        }
      ],
      "stateMutability": "nonpayable",
      "type": "constructor"
    },
    {
      "anonymous": false,
      "inputs": [
        {
          "indexed": true,
          "internalType": "address",
          "name": "_owner",
          "type": "address"
        },
        {
          "indexed": true,
          "internalType": "address",
          "name": "_approved",
          "type": "address"
        },
        {
          "indexed": true,
          "internalType": "uint256",
          "name": "_tokenId",
          "type": "uint256"
        }
      ],
      "name": "Approval",
      "type": "event"
    },
    {
      "anonymous": false,
      "inputs": [
        {
          "indexed": true,
          "internalType": "address",
          "name": "_owner",
          "type": "address"
        },
        {
          "indexed": true,
          "internalType": "address",
          "name": "_operator",
          "type": "address"
        },
        {
          "indexed": false,
          "internalType": "bool",
          "name": "_approved",
          "type": "bool"
        }
      ],
      "name": "ApprovalForAll",
      "type": "event"
    },
    {
      "anonymous": false,
      "inputs": [
        {
          "indexed": false,
          "internalType": "string",
          "name": "baseMetadataURI",
          "type": "string"
        }
      ],
      "name": "BaseMetadataURISet",
      "type": "event"
    },
    {
      "anonymous": false,
      "inputs": [
        {
          "indexed": true,
          "internalType": "uint256",
          "name": "collectionId",
          "type": "uint256"
        },
        {
          "indexed": true,
          "internalType": "bool",
          "name": "fungible",
          "type": "bool"
        }
      ],
      "name": "CollectionCreated",
      "type": "event"
    },
    {
      "anonymous": false,
      "inputs": [
        {
          "indexed": true,
          "internalType": "address",
          "name": "account",
          "type": "address"
        }
      ],
      "name": "MinterAdded",
      "type": "event"
    },
    {
      "anonymous": false,
      "inputs": [
        {
          "indexed": true,
          "internalType": "address",
          "name": "account",
          "type": "address"
        }
      ],
      "name": "MinterRemoved",
      "type": "event"
    },
    {
      "anonymous": false,
      "inputs": [
        {
          "indexed": true,
          "internalType": "address",
          "name": "previousOwner",
          "type": "address"
        },
        {
          "indexed": true,
          "internalType": "address",
          "name": "newOwner",
          "type": "address"
        }
      ],
      "name": "OwnershipTransferred",
      "type": "event"
    },
    {
      "anonymous": false,
      "inputs": [
        {
          "indexed": false,
          "internalType": "address",
          "name": "account",
          "type": "address"
        }
      ],
      "name": "Paused",
      "type": "event"
    },
    {
      "anonymous": false,
      "inputs": [
        {
          "indexed": true,
          "internalType": "address",
          "name": "_from",
          "type": "address"
        },
        {
          "indexed": true,
          "internalType": "address",
          "name": "_to",
          "type": "address"
        },
        {
          "indexed": true,
          "internalType": "uint256",
          "name": "_tokenId",
          "type": "uint256"
        }
      ],
      "name": "Transfer",
      "type": "event"
    },
    {
      "anonymous": false,
      "inputs": [
        {
          "indexed": true,
          "internalType": "address",
          "name": "_operator",
          "type": "address"
        },
        {
          "indexed": true,
          "internalType": "address",
          "name": "_from",
          "type": "address"
        },
        {
          "indexed": true,
          "internalType": "address",
          "name": "_to",
          "type": "address"
        },
        {
          "indexed": false,
          "internalType": "uint256[]",
          "name": "_ids",
          "type": "uint256[]"
        },
        {
          "indexed": false,
          "internalType": "uint256[]",
          "name": "_values",
          "type": "uint256[]"
        }
      ],
      "name": "TransferBatch",
      "type": "event"
    },
    {
      "anonymous": false,
      "inputs": [
        {
          "indexed": true,
          "internalType": "address",
          "name": "_operator",
          "type": "address"
        },
        {
          "indexed": true,
          "internalType": "address",
          "name": "_from",
          "type": "address"
        },
        {
          "indexed": true,
          "internalType": "address",
          "name": "_to",
          "type": "address"
        },
        {
          "indexed": false,
          "internalType": "uint256",
          "name": "_id",
          "type": "uint256"
        },
        {
          "indexed": false,
          "internalType": "uint256",
          "name": "_value",
          "type": "uint256"
        }
      ],
      "name": "TransferSingle",
      "type": "event"
    },
    {
      "anonymous": false,
      "inputs": [
        {
          "indexed": false,
          "internalType": "string",
          "name": "_value",
          "type": "string"
        },
        {
          "indexed": true,
          "internalType": "uint256",
          "name": "_id",
          "type": "uint256"
        }
      ],
      "name": "URI",
      "type": "event"
    },
    {
      "anonymous": false,
      "inputs": [
        {
          "indexed": false,
          "internalType": "address",
          "name": "account",
          "type": "address"
        }
      ],
      "name": "Unpaused",
      "type": "event"
    },
    {
      "inputs": [
        {
          "internalType": "address",
          "name": "account",
          "type": "address"
        }
      ],
      "name": "addMinter",
      "outputs": [],
      "stateMutability": "nonpayable",
      "type": "function"
    },
    {
      "inputs": [
        {
          "internalType": "address",
          "name": "to",
          "type": "address"
        },
        {
          "internalType": "uint256",
          "name": "tokenId",
          "type": "uint256"
        }
      ],
      "name": "approve",
      "outputs": [],
      "stateMutability": "nonpayable",
      "type": "function"
    },
    {
      "inputs": [
        {
          "internalType": "address",
          "name": "owner",
          "type": "address"
        },
        {
          "internalType": "uint256",
          "name": "id",
          "type": "uint256"
        }
      ],
      "name": "balanceOf",
      "outputs": [
        {
          "internalType": "uint256",
          "name": "",
          "type": "uint256"
        }
      ],
      "stateMutability": "view",
      "type": "function"
    },
    {
      "inputs": [
        {
          "internalType": "address",
          "name": "tokenOwner",
          "type": "address"
        }
      ],
      "name": "balanceOf",
      "outputs": [
        {
          "internalType": "uint256",
          "name": "",
          "type": "uint256"
        }
      ],
      "stateMutability": "view",
      "type": "function"
    },
    {
      "inputs": [
        {
          "internalType": "address[]",
          "name": "owners",
          "type": "address[]"
        },
        {
          "internalType": "uint256[]",
          "name": "ids",
          "type": "uint256[]"
        }
      ],
      "name": "balanceOfBatch",
      "outputs": [
        {
          "internalType": "uint256[]",
          "name": "",
          "type": "uint256[]"
        }
      ],
      "stateMutability": "view",
      "type": "function"
    },
    {
      "inputs": [],
      "name": "baseMetadataURI",
      "outputs": [
        {
          "internalType": "string",
          "name": "",
          "type": "string"
        }
      ],
      "stateMutability": "view",
      "type": "function"
    },
    {
      "inputs": [
        {
          "internalType": "address",
          "name": "from",
          "type": "address"
        },
        {
          "internalType": "uint256[]",
          "name": "ids",
          "type": "uint256[]"
        },
        {
          "internalType": "uint256[]",
          "name": "values",
          "type": "uint256[]"
        }
      ],
      "name": "batchBurnFrom",
      "outputs": [],
      "stateMutability": "nonpayable",
      "type": "function"
    },
    {
      "inputs": [
        {
          "internalType": "address",
          "name": "from",
          "type": "address"
        },
        {
          "internalType": "uint256[]",
          "name": "nftIds",
          "type": "uint256[]"
        }
      ],
      "name": "batchBurnFrom",
      "outputs": [],
      "stateMutability": "nonpayable",
      "type": "function"
    },
    {
      "inputs": [
        {
          "internalType": "address",
          "name": "to",
          "type": "address"
        },
        {
          "internalType": "uint256[]",
          "name": "nftIds",
          "type": "uint256[]"
        }
      ],
      "name": "batchMint",
      "outputs": [],
      "stateMutability": "nonpayable",
      "type": "function"
    },
    {
      "inputs": [
        {
          "internalType": "address",
          "name": "from",
          "type": "address"
        },
        {
          "internalType": "address",
          "name": "to",
          "type": "address"
        },
        {
          "internalType": "uint256[]",
          "name": "nftIds",
          "type": "uint256[]"
        }
      ],
      "name": "batchTransferFrom",
      "outputs": [],
      "stateMutability": "nonpayable",
      "type": "function"
    },
    {
      "inputs": [
        {
          "internalType": "address",
          "name": "from",
          "type": "address"
        },
        {
          "internalType": "uint256",
          "name": "id",
          "type": "uint256"
        },
        {
          "internalType": "uint256",
          "name": "value",
          "type": "uint256"
        }
      ],
      "name": "burnFrom",
      "outputs": [],
      "stateMutability": "nonpayable",
      "type": "function"
    },
    {
      "inputs": [
        {
          "internalType": "uint256",
          "name": "nftId",
          "type": "uint256"
        }
      ],
      "name": "collectionOf",
      "outputs": [
        {
          "internalType": "uint256",
          "name": "",
          "type": "uint256"
        }
      ],
      "stateMutability": "view",
      "type": "function"
    },
    {
      "inputs": [
        {
          "internalType": "uint256",
          "name": "collectionId",
          "type": "uint256"
        }
      ],
      "name": "createCollection",
      "outputs": [],
      "stateMutability": "nonpayable",
      "type": "function"
    },
    {
      "inputs": [
        {
          "internalType": "uint256",
          "name": "collectionId",
          "type": "uint256"
        }
      ],
      "name": "creator",
      "outputs": [
        {
          "internalType": "address",
          "name": "",
          "type": "address"
        }
      ],
      "stateMutability": "view",
      "type": "function"
    },
    {
      "inputs": [
        {
          "internalType": "uint256",
          "name": "tokenId",
          "type": "uint256"
        }
      ],
      "name": "getApproved",
      "outputs": [
        {
          "internalType": "address",
          "name": "",
          "type": "address"
        }
      ],
      "stateMutability": "view",
      "type": "function"
    },
    {
      "inputs": [
        {
          "internalType": "address",
          "name": "tokenOwner",
          "type": "address"
        },
        {
          "internalType": "address",
          "name": "operator",
          "type": "address"
        }
      ],
      "name": "isApprovedForAll",
      "outputs": [
        {
          "internalType": "bool",
          "name": "",
          "type": "bool"
        }
      ],
      "stateMutability": "view",
      "type": "function"
    },
    {
      "inputs": [
        {
          "internalType": "uint256",
          "name": "id",
          "type": "uint256"
        }
      ],
      "name": "isFungible",
      "outputs": [
        {
          "internalType": "bool",
          "name": "",
          "type": "bool"
        }
      ],
      "stateMutability": "pure",
      "type": "function"
    },
    {
      "inputs": [
        {
          "internalType": "address",
          "name": "",
          "type": "address"
        }
      ],
      "name": "isMinter",
      "outputs": [
        {
          "internalType": "bool",
          "name": "",
          "type": "bool"
        }
      ],
      "stateMutability": "view",
      "type": "function"
    },
    {
      "inputs": [
        {
          "internalType": "address",
          "name": "forwarder",
          "type": "address"
        }
      ],
      "name": "isTrustedForwarder",
      "outputs": [
        {
          "internalType": "bool",
          "name": "",
          "type": "bool"
        }
      ],
      "stateMutability": "view",
      "type": "function"
    },
    {
      "inputs": [
        {
          "internalType": "address",
          "name": "to",
          "type": "address"
        },
        {
          "internalType": "uint256",
          "name": "nftId",
          "type": "uint256"
        }
      ],
      "name": "mint",
      "outputs": [],
      "stateMutability": "nonpayable",
      "type": "function"
    },
    {
      "inputs": [],
      "name": "msgData",
      "outputs": [
        {
          "internalType": "bytes",
          "name": "ret",
          "type": "bytes"
        }
      ],
      "stateMutability": "view",
      "type": "function"
    },
    {
      "inputs": [],
      "name": "name",
      "outputs": [
        {
          "internalType": "string",
          "name": "",
          "type": "string"
        }
      ],
      "stateMutability": "view",
      "type": "function"
    },
    {
      "inputs": [],
      "name": "owner",
      "outputs": [
        {
          "internalType": "address",
          "name": "",
          "type": "address"
        }
      ],
      "stateMutability": "view",
      "type": "function"
    },
    {
      "inputs": [
        {
          "internalType": "uint256",
          "name": "nftId",
          "type": "uint256"
        }
      ],
      "name": "ownerOf",
      "outputs": [
        {
          "internalType": "address",
          "name": "",
          "type": "address"
        }
      ],
      "stateMutability": "view",
      "type": "function"
    },
    {
      "inputs": [],
      "name": "pause",
      "outputs": [],
      "stateMutability": "nonpayable",
      "type": "function"
    },
    {
      "inputs": [],
      "name": "paused",
      "outputs": [
        {
          "internalType": "bool",
          "name": "",
          "type": "bool"
        }
      ],
      "stateMutability": "view",
      "type": "function"
    },
    {
      "inputs": [
        {
          "internalType": "address[]",
          "name": "accounts",
          "type": "address[]"
        },
        {
          "internalType": "address[]",
          "name": "tokens",
          "type": "address[]"
        },
        {
          "internalType": "uint256[]",
          "name": "amounts",
          "type": "uint256[]"
        }
      ],
      "name": "recoverERC20s",
      "outputs": [],
      "stateMutability": "nonpayable",
      "type": "function"
    },
    {
      "inputs": [
        {
          "internalType": "address[]",
          "name": "accounts",
          "type": "address[]"
        },
        {
          "internalType": "address[]",
          "name": "contracts",
          "type": "address[]"
        },
        {
          "internalType": "uint256[]",
          "name": "tokenIds",
          "type": "uint256[]"
        }
      ],
      "name": "recoverERC721s",
      "outputs": [],
      "stateMutability": "nonpayable",
      "type": "function"
    },
    {
      "inputs": [],
      "name": "renounceMinter",
      "outputs": [],
      "stateMutability": "nonpayable",
      "type": "function"
    },
    {
      "inputs": [
        {
          "internalType": "address",
          "name": "to",
          "type": "address"
        },
        {
          "internalType": "uint256[]",
          "name": "ids",
          "type": "uint256[]"
        },
        {
          "internalType": "uint256[]",
          "name": "values",
          "type": "uint256[]"
        },
        {
          "internalType": "bytes",
          "name": "data",
          "type": "bytes"
        }
      ],
      "name": "safeBatchMint",
      "outputs": [],
      "stateMutability": "nonpayable",
      "type": "function"
    },
    {
      "inputs": [
        {
          "internalType": "address",
          "name": "from",
          "type": "address"
        },
        {
          "internalType": "address",
          "name": "to",
          "type": "address"
        },
        {
          "internalType": "uint256[]",
          "name": "ids",
          "type": "uint256[]"
        },
        {
          "internalType": "uint256[]",
          "name": "values",
          "type": "uint256[]"
        },
        {
          "internalType": "bytes",
          "name": "data",
          "type": "bytes"
        }
      ],
      "name": "safeBatchTransferFrom",
      "outputs": [],
      "stateMutability": "nonpayable",
      "type": "function"
    },
    {
      "inputs": [
        {
          "internalType": "address[]",
          "name": "recipients",
          "type": "address[]"
        },
        {
          "internalType": "uint256[]",
          "name": "ids",
          "type": "uint256[]"
        },
        {
          "internalType": "uint256[]",
          "name": "values",
          "type": "uint256[]"
        },
        {
          "internalType": "bytes",
          "name": "data",
          "type": "bytes"
        }
      ],
      "name": "safeDeliver",
      "outputs": [],
      "stateMutability": "nonpayable",
      "type": "function"
    },
    {
      "inputs": [
        {
          "internalType": "address",
          "name": "to",
          "type": "address"
        },
        {
          "internalType": "uint256",
          "name": "id",
          "type": "uint256"
        },
        {
          "internalType": "uint256",
          "name": "value",
          "type": "uint256"
        },
        {
          "internalType": "bytes",
          "name": "data",
          "type": "bytes"
        }
      ],
      "name": "safeMint",
      "outputs": [],
      "stateMutability": "nonpayable",
      "type": "function"
    },
    {
      "inputs": [
        {
          "internalType": "address",
          "name": "to",
          "type": "address"
        },
        {
          "internalType": "uint256",
          "name": "nftId",
          "type": "uint256"
        },
        {
          "internalType": "bytes",
          "name": "data",
          "type": "bytes"
        }
      ],
      "name": "safeMint",
      "outputs": [],
      "stateMutability": "nonpayable",
      "type": "function"
    },
    {
      "inputs": [
        {
          "internalType": "address",
          "name": "from",
          "type": "address"
        },
        {
          "internalType": "address",
          "name": "to",
          "type": "address"
        },
        {
          "internalType": "uint256",
          "name": "tokenId",
          "type": "uint256"
        }
      ],
      "name": "safeTransferFrom",
      "outputs": [],
      "stateMutability": "nonpayable",
      "type": "function"
    },
    {
      "inputs": [
        {
          "internalType": "address",
          "name": "from",
          "type": "address"
        },
        {
          "internalType": "address",
          "name": "to",
          "type": "address"
        },
        {
          "internalType": "uint256",
          "name": "tokenId",
          "type": "uint256"
        },
        {
          "internalType": "bytes",
          "name": "data",
          "type": "bytes"
        }
      ],
      "name": "safeTransferFrom",
      "outputs": [],
      "stateMutability": "nonpayable",
      "type": "function"
    },
    {
      "inputs": [
        {
          "internalType": "address",
          "name": "from",
          "type": "address"
        },
        {
          "internalType": "address",
          "name": "to",
          "type": "address"
        },
        {
          "internalType": "uint256",
          "name": "id",
          "type": "uint256"
        },
        {
          "internalType": "uint256",
          "name": "value",
          "type": "uint256"
        },
        {
          "internalType": "bytes",
          "name": "data",
          "type": "bytes"
        }
      ],
      "name": "safeTransferFrom",
      "outputs": [],
      "stateMutability": "nonpayable",
      "type": "function"
    },
    {
      "inputs": [
        {
          "internalType": "address",
          "name": "operator",
          "type": "address"
        },
        {
          "internalType": "bool",
          "name": "approved",
          "type": "bool"
        }
      ],
      "name": "setApprovalForAll",
      "outputs": [],
      "stateMutability": "nonpayable",
      "type": "function"
    },
    {
      "inputs": [
        {
          "internalType": "string",
          "name": "baseMetadataURI_",
          "type": "string"
        }
      ],
      "name": "setBaseMetadataURI",
      "outputs": [],
      "stateMutability": "nonpayable",
      "type": "function"
    },
    {
      "inputs": [
        {
          "internalType": "bytes4",
          "name": "interfaceId",
          "type": "bytes4"
        }
      ],
      "name": "supportsInterface",
      "outputs": [
        {
          "internalType": "bool",
          "name": "",
          "type": "bool"
        }
      ],
      "stateMutability": "view",
      "type": "function"
    },
    {
      "inputs": [],
      "name": "symbol",
      "outputs": [
        {
          "internalType": "string",
          "name": "",
          "type": "string"
        }
      ],
      "stateMutability": "view",
      "type": "function"
    },
    {
      "inputs": [
        {
          "internalType": "uint256",
          "name": "nftId",
          "type": "uint256"
        }
      ],
      "name": "tokenURI",
      "outputs": [
        {
          "internalType": "string",
          "name": "",
          "type": "string"
        }
      ],
      "stateMutability": "view",
      "type": "function"
    },
    {
      "inputs": [
        {
          "internalType": "uint256",
          "name": "id",
          "type": "uint256"
        }
      ],
      "name": "totalSupply",
      "outputs": [
        {
          "internalType": "uint256",
          "name": "",
          "type": "uint256"
        }
      ],
      "stateMutability": "view",
      "type": "function"
    },
    {
      "inputs": [
        {
          "internalType": "address",
          "name": "from",
          "type": "address"
        },
        {
          "internalType": "address",
          "name": "to",
          "type": "address"
        },
        {
          "internalType": "uint256",
          "name": "tokenId",
          "type": "uint256"
        }
      ],
      "name": "transferFrom",
      "outputs": [],
      "stateMutability": "nonpayable",
      "type": "function"
    },
    {
      "inputs": [
        {
          "internalType": "address",
          "name": "newOwner",
          "type": "address"
        }
      ],
      "name": "transferOwnership",
      "outputs": [],
      "stateMutability": "nonpayable",
      "type": "function"
    },
    {
      "inputs": [],
      "name": "unpause",
      "outputs": [],
      "stateMutability": "nonpayable",
      "type": "function"
    },
    {
      "inputs": [
        {
          "internalType": "uint256",
          "name": "id",
          "type": "uint256"
        }
      ],
      "name": "uri",
      "outputs": [
        {
          "internalType": "string",
          "name": "",
          "type": "string"
        }
      ],
      "stateMutability": "view",
      "type": "function"
    }
  ],
  "bytecode": "0x60e06040523480156200001157600080fd5b50604051620061ec380380620061ec833981810160405260608110156200003757600080fd5b50805160208083015160409384015184518086018652601f81527f45524331313535373231496e76656e746f72794275726e61626c654d6f636b008185015285518087018752600481526324a72b2160e11b94810194909452600080546001600160a81b03191633610100810291909117825596519596939592948794879487949193919291859184918491849182918c918c918b9182917f8be0079c531659141344cd1fd0a4f28419497f9722a3daafe3b4186f6b6457e0908290a3506001600160601b0319606091821b811660a05291901b16608052801580159062000120575061010081105b62000172576040805162461bcd60e51b815260206004820152601c60248201527f496e76656e746f72793a2077726f6e67206d61736b206c656e67746800000000604482015290519081900360640190fd5b60c05282516200018a90600690602086019062000211565b508151620001a090600790602085019062000211565b50505050505050620001b881620001c560201b60201c565b50505050505050620002bd565b6001600160a01b0381166000818152600b6020526040808220805460ff19166001179055517f6ae172837ea30b801fbfcdd4108aa1d5bf8ff775444fd70256b44e6bf3dfc3f69190a250565b828054600181600116156101000203166002900490600052602060002090601f01602090048101928262000249576000855562000294565b82601f106200026457805160ff191683800117855562000294565b8280016001018555821562000294579182015b828111156200029457825182559160200191906001019062000277565b50620002a2929150620002a6565b5090565b5b80821115620002a25760008155600101620002a7565b60805160601c60a05160601c60c051615e6b62000381600039806114ea528061204552806122135280612286528061261352806126775280612a2c5280612c7e5280612e9a5280612f665280613153528061326a528061349e528061351652806138685280613b855280613db05280613f78528061422452806147555280614d385280614fea528061506c5280615b5b525080611b5a528061447c5280615766525080611b95528061444152806144d4528061573c52806157c75250615e6b6000f3fe608060405234801561001057600080fd5b50600436106102945760003560e01c80637e518ec811610167578063bd85b039116100ce578063e8ab9ccc11610087578063e8ab9ccc146110a7578063e985e9c514611205578063f242432a14611233578063f2472965146112fc578063f2fde38b146113ad578063f3993d11146113d357610294565b8063bd85b03914610f1d578063c3666c3614610f3a578063c4c2bfdc14611048578063c7778baa14611050578063c87b56dd1461106d578063d0011d9d1461108a57610294565b8063983b2d5611610120578063983b2d5614610dba5780639865027514610de0578063a22cb46514610de8578063aa271e1a14610e16578063adebf6f214610e3c578063b88d4fde14610e5957610294565b80637e518ec814610b7e5780638053493414610bec5780638456cb5914610d1f5780638832e6e314610d275780638da5cb5b14610daa57806395d89b4114610db257610294565b806340c10f191161020b5780635b2bd79e116101c45780635b2bd79e146109935780635c975abb1461099b5780635cfa9297146109a35780636352211e14610a2d57806370a0823114610a4a57806373c8a95814610a7057610294565b806340c10f191461076257806342842e0e1461078e5780634684d7e9146107c45780634e1273f414610842578063510b515814610950578063572b6c051461096d57610294565b80630d6a5bbb1161025d5780630d6a5bbb146103f65780630e89341c14610514578063124d91e51461053157806323b872dd146105635780632eb2c2d6146105995780633f4ba83a1461075a57610294565b8062fdd58e1461029957806301ffc9a7146102d757806306fdde0314610312578063081812fc1461038f578063095ea7b3146103c8575b600080fd5b6102c5600480360360408110156102af57600080fd5b506001600160a01b03813516906020013561148d565b60408051918252519081900360200190f35b6102fe600480360360208110156102ed57600080fd5b50356001600160e01b031916611573565b604080519115158252519081900360200190f35b61031a6115a0565b6040805160208082528351818301528351919283929083019185019080838360005b8381101561035457818101518382015260200161033c565b50505050905090810190601f1680156103815780820380516001836020036101000a031916815260200191505b509250505060405180910390f35b6103ac600480360360208110156103a557600080fd5b5035611637565b604080516001600160a01b039092168252519081900360200190f35b6103f4600480360360408110156103de57600080fd5b506001600160a01b0381351690602001356116d4565b005b6103f46004803603608081101561040c57600080fd5b6001600160a01b038235169190810190604081016020820135600160201b81111561043657600080fd5b82018360208201111561044857600080fd5b803590602001918460208302840111600160201b8311171561046957600080fd5b919390929091602081019035600160201b81111561048657600080fd5b82018360208201111561049857600080fd5b803590602001918460208302840111600160201b831117156104b957600080fd5b919390929091602081019035600160201b8111156104d657600080fd5b8201836020820111156104e857600080fd5b803590602001918460018302840111600160201b8311171561050957600080fd5b5090925090506118aa565b61031a6004803603602081101561052a57600080fd5b5035611965565b6103f46004803603606081101561054757600080fd5b506001600160a01b038135169060208101359060400135611970565b6103f46004803603606081101561057957600080fd5b506001600160a01b03813581169160208101359091169060400135611988565b6103f4600480360360a08110156105af57600080fd5b6001600160a01b038235811692602081013590911691810190606081016040820135600160201b8111156105e257600080fd5b8201836020820111156105f457600080fd5b803590602001918460208302840111600160201b8311171561061557600080fd5b9190808060200260200160405190810160405280939291908181526020018383602002808284376000920191909152509295949360208101935035915050600160201b81111561066457600080fd5b82018360208201111561067657600080fd5b803590602001918460208302840111600160201b8311171561069757600080fd5b9190808060200260200160405190810160405280939291908181526020018383602002808284376000920191909152509295949360208101935035915050600160201b8111156106e657600080fd5b8201836020820111156106f857600080fd5b803590602001918460018302840111600160201b8311171561071957600080fd5b91908080601f01602080910402602001604051908101604052809392919081815260200183838082843760009201919091525092955061199b945050505050565b6103f46119b7565b6103f46004803603604081101561077857600080fd5b506001600160a01b0381351690602001356119d1565b6103f4600480360360608110156107a457600080fd5b506001600160a01b038135811691602081013590911690604001356119fc565b6103f4600480360360408110156107da57600080fd5b6001600160a01b038235169190810190604081016020820135600160201b81111561080457600080fd5b82018360208201111561081657600080fd5b803590602001918460208302840111600160201b8311171561083757600080fd5b509092509050611a0f565b6109006004803603604081101561085857600080fd5b810190602081018135600160201b81111561087257600080fd5b82018360208201111561088457600080fd5b803590602001918460208302840111600160201b831117156108a557600080fd5b919390929091602081019035600160201b8111156108c257600080fd5b8201836020820111156108d457600080fd5b803590602001918460208302840111600160201b831117156108f557600080fd5b509092509050611a57565b60408051602080825283518183015283519192839290830191858101910280838360005b8381101561093c578181015183820152602001610924565b505050509050019250505060405180910390f35b6103ac6004803603602081101561096657600080fd5b5035611b4b565b6102fe6004803603602081101561098357600080fd5b50356001600160a01b0316611b56565b61031a611bcf565b6102fe611c5d565b6103f4600480360360808110156109b957600080fd5b6001600160a01b038235169160208101359160408201359190810190608081016060820135600160201b8111156109ef57600080fd5b820183602082011115610a0157600080fd5b803590602001918460018302840111600160201b83111715610a2257600080fd5b509092509050611c66565b6103ac60048036036020811015610a4357600080fd5b5035611cb3565b6102c560048036036020811015610a6057600080fd5b50356001600160a01b0316611cbe565b6103f460048036036060811015610a8657600080fd5b810190602081018135600160201b811115610aa057600080fd5b820183602082011115610ab257600080fd5b803590602001918460208302840111600160201b83111715610ad357600080fd5b919390929091602081019035600160201b811115610af057600080fd5b820183602082011115610b0257600080fd5b803590602001918460208302840111600160201b83111715610b2357600080fd5b919390929091602081019035600160201b811115610b4057600080fd5b820183602082011115610b5257600080fd5b803590602001918460208302840111600160201b83111715610b7357600080fd5b509092509050611d31565b6103f460048036036020811015610b9457600080fd5b810190602081018135600160201b811115610bae57600080fd5b820183602082011115610bc057600080fd5b803590602001918460018302840111600160201b83111715610be157600080fd5b509092509050611e1e565b6103f460048036036060811015610c0257600080fd5b6001600160a01b038235169190810190604081016020820135600160201b811115610c2c57600080fd5b820183602082011115610c3e57600080fd5b803590602001918460208302840111600160201b83111715610c5f57600080fd5b9190808060200260200160405190810160405280939291908181526020018383602002808284376000920191909152509295949360208101935035915050600160201b811115610cae57600080fd5b820183602082011115610cc057600080fd5b803590602001918460208302840111600160201b83111715610ce157600080fd5b919080806020026020016040519081016040528093929190818152602001838360200280828437600092019190915250929550611e9a945050505050565b6103f4611ead565b6103f460048036036060811015610d3d57600080fd5b6001600160a01b0382351691602081013591810190606081016040820135600160201b811115610d6c57600080fd5b820183602082011115610d7e57600080fd5b803590602001918460018302840111600160201b83111715610d9f57600080fd5b509092509050611ec0565b6103ac611f15565b61031a611f29565b6103f460048036036020811015610dd057600080fd5b50356001600160a01b0316611f8a565b6103f4611fa1565b6103f460048036036040811015610dfe57600080fd5b506001600160a01b0381351690602001351515611fff565b6102fe60048036036020811015610e2c57600080fd5b50356001600160a01b0316612009565b6102fe60048036036020811015610e5257600080fd5b503561201e565b6103f460048036036080811015610e6f57600080fd5b6001600160a01b03823581169260208101359091169160408201359190810190608081016060820135600160201b811115610ea957600080fd5b820183602082011115610ebb57600080fd5b803590602001918460018302840111600160201b83111715610edc57600080fd5b91908080601f016020809104026020016040519081016040528093929190818152602001838380828437600092019190915250929550612029945050505050565b6102c560048036036020811015610f3357600080fd5b503561203d565b6103f460048036036060811015610f5057600080fd5b810190602081018135600160201b811115610f6a57600080fd5b820183602082011115610f7c57600080fd5b803590602001918460208302840111600160201b83111715610f9d57600080fd5b919390929091602081019035600160201b811115610fba57600080fd5b820183602082011115610fcc57600080fd5b803590602001918460208302840111600160201b83111715610fed57600080fd5b919390929091602081019035600160201b81111561100a57600080fd5b82018360208201111561101c57600080fd5b803590602001918460208302840111600160201b8311171561103d57600080fd5b5090925090506120b4565b61031a6121fc565b6102c56004803603602081101561106657600080fd5b503561220b565b61031a6004803603602081101561108357600080fd5b50356122aa565b6103f4600480360360208110156110a057600080fd5b503561231d565b6103f4600480360360808110156110bd57600080fd5b810190602081018135600160201b8111156110d757600080fd5b8201836020820111156110e957600080fd5b803590602001918460208302840111600160201b8311171561110a57600080fd5b919390929091602081019035600160201b81111561112757600080fd5b82018360208201111561113957600080fd5b803590602001918460208302840111600160201b8311171561115a57600080fd5b919390929091602081019035600160201b81111561117757600080fd5b82018360208201111561118957600080fd5b803590602001918460208302840111600160201b831117156111aa57600080fd5b919390929091602081019035600160201b8111156111c757600080fd5b8201836020820111156111d957600080fd5b803590602001918460018302840111600160201b831117156111fa57600080fd5b509092509050612331565b6102fe6004803603604081101561121b57600080fd5b506001600160a01b038135811691602001351661234c565b6103f4600480360360a081101561124957600080fd5b6001600160a01b03823581169260208101359091169160408201359160608101359181019060a081016080820135600160201b81111561128857600080fd5b82018360208201111561129a57600080fd5b803590602001918460018302840111600160201b831117156112bb57600080fd5b91908080601f01602080910402602001604051908101604052809392919081815260200183838082843760009201919091525092955061235f945050505050565b6103f46004803603604081101561131257600080fd5b6001600160a01b038235169190810190604081016020820135600160201b81111561133c57600080fd5b82018360208201111561134e57600080fd5b803590602001918460208302840111600160201b8311171561136f57600080fd5b919080806020026020016040519081016040528093929190818152602001838360200280828437600092019190915250929550612374945050505050565b6103f4600480360360208110156113c357600080fd5b50356001600160a01b0316612386565b6103f4600480360360608110156113e957600080fd5b6001600160a01b038235811692602081013590911691810190606081016040820135600160201b81111561141c57600080fd5b82018360208201111561142e57600080fd5b803590602001918460208302840111600160201b8311171561144f57600080fd5b9190808060200260200160405190810160405280939291908181526020018383602002808284376000920191909152509295506123f6945050505050565b60006001600160a01b0383166114e4576040805162461bcd60e51b8152602060048201526017602482015276496e76656e746f72793a207a65726f206164647265737360481b604482015290519081900360640190fd5b61150e827f0000000000000000000000000000000000000000000000000000000000000000612409565b15611548576000828152600460205260409020546001600160a01b0384811691161461153b57600061153e565b60015b60ff16905061156d565b5060008181526002602090815260408083206001600160a01b03861684529091529020545b92915050565b60006001600160e01b03198216630a216a2b60e31b148061159857506115988261242f565b90505b919050565b60068054604080516020601f600260001961010060018816150201909516949094049384018190048102820181019092528281526060939092909183018282801561162c5780601f106116015761010080835404028352916020019161162c565b820191906000526020600020905b81548152906001019060200180831161160f57829003601f168201915b505050505090505b90565b6000818152600460205260408120546001600160a01b03811661169f576040805162461bcd60e51b815260206004820152601b60248201527a125b9d995b9d1bdc9e4e881b9bdb8b595e1a5cdd1a5b99c8139195602a1b604482015290519081900360640190fd5b600160a01b8116156116ca5750506000818152600960205260409020546001600160a01b031661159b565b600091505061159b565b60008181526004602052604090205480611733576040805162461bcd60e51b815260206004820152601b60248201527a125b9d995b9d1bdc9e4e881b9bdb8b595e1a5cdd1a5b99c8139195602a1b604482015290519081900360640190fd5b806001600160a01b038481169082161415611790576040805162461bcd60e51b8152602060048201526018602482015277125b9d995b9d1bdc9e4e881cd95b198b585c1c1c9bdd985b60421b604482015290519081900360640190fd5b6117a18161179c612454565b61245e565b6117e0576040805162461bcd60e51b815260206004820152601e6024820152600080516020615dd6833981519152604482015290519081900360640190fd5b6001600160a01b03841661181a57600160a01b8216156118155760008381526004602052604090206001600160a01b03821690555b611863565b600160a01b821780831461183a5760008481526004602052604090208190555b50600083815260096020526040902080546001600160a01b0319166001600160a01b0386161790555b82846001600160a01b0316826001600160a01b03167f8c5be1e5ebec7d5bd14f71427d1e84f3dd0314c0f7b2291e5b200ac8c7c3b92560405160405180910390a450505050565b6118ba6118b5612454565b6124aa565b61195c8787878080602002602001604051908101604052809392919081815260200183836020028082843760009201919091525050604080516020808b0282810182019093528a82529093508a92508991829185019084908082843760009201919091525050604080516020601f8a01819004810282018101909252888152925088915087908190840183828082843760009201919091525061251792505050565b50505050505050565b6060611598826128cf565b6119786129a2565b6119838383836129ed565b505050565b6119906129a2565b611983838383612add565b6119a36129a2565b6119b08585858585612afa565b5050505050565b6119c76119c2612454565b612b07565b6119cf612bcb565b565b6119dc6118b5612454565b6119f88282604051806020016040528060008152506000612c23565b5050565b611a046129a2565b611983838383612db6565b611a1a6118b5612454565b61198383838380806020026020016040519081016040528093929190818152602001838360200280828437600092019190915250612dd392505050565b6060838214611a9b576040805162461bcd60e51b815260206004820152601e6024820152600080516020615df6833981519152604482015290519081900360640190fd5b60008467ffffffffffffffff81118015611ab457600080fd5b50604051908082528060200260200182016040528015611ade578160200160208202803683370190505b50905060005b808614611b4157611b22878783818110611afa57fe5b905060200201356001600160a01b0316868684818110611b1657fe5b9050602002013561148d565b828281518110611b2e57fe5b6020908102919091010152600101611ae4565b5095945050505050565b60006115988261314b565b60007f00000000000000000000000000000000000000000000000000000000000000006001600160a01b0316826001600160a01b0316148061159857507f00000000000000000000000000000000000000000000000000000000000000006001600160a01b0316826001600160a01b0316149050919050565b600a805460408051602060026001851615610100026000190190941693909304601f81018490048402820184019092528181529291830182828015611c555780601f10611c2a57610100808354040283529160200191611c55565b820191906000526020600020905b815481529060010190602001808311611c3857829003601f168201915b505050505081565b60005460ff1681565b611c716118b5612454565b6119b085858585858080601f0160208091040260200160405190810160405280939291908181526020018383808284376000920191909152506131e592505050565b600061159882613327565b60006001600160a01b038216611d15576040805162461bcd60e51b8152602060048201526017602482015276496e76656e746f72793a207a65726f206164647265737360481b604482015290519081900360640190fd5b506001600160a01b031660009081526008602052604090205490565b611d3c6119c2612454565b848381148015611d4b57508082145b611d9c576040805162461bcd60e51b815260206004820152601a60248201527f5265636f763a20696e636f6e73697374656e7420617272617973000000000000604482015290519081900360640190fd5b60005b818114611e1457611e0c888883818110611db557fe5b905060200201356001600160a01b0316858584818110611dd157fe5b90506020020135888885818110611de457fe5b905060200201356001600160a01b03166001600160a01b031661338f9092919063ffffffff16565b600101611d9f565b5050505050505050565b611e296119c2612454565b611e35600a8383615ccc565b507f04b1dc5c136a3ce9fded8db0ce3d3366c58764ec3a8e4c2b9e52e4ddfe5ebbf7828260405180806020018281038252848482818152602001925080828437600083820152604051601f909101601f19169092018290039550909350505050a15050565b611ea26129a2565b6119838383836133e1565b611eb86119c2612454565b6119cf61368a565b611ecb6118b5612454565b611f0f848484848080601f01602080910402602001604051908101604052809392919081815260200183838082843760009201919091525060019250612c23915050565b50505050565b60005461010090046001600160a01b031690565b60078054604080516020601f600260001961010060018816150201909516949094049384018190048102820181019092528281526060939092909183018282801561162c5780601f106116015761010080835404028352916020019161162c565b611f956119c2612454565b611f9e816136c8565b50565b6000611fab612454565b9050611fb6816124aa565b6001600160a01b0381166000818152600b6020526040808220805460ff19169055517fe94479a9f7e1952cc78f2d6baab678adc1b772d936c6583def489e524cb666929190a250565b6119f88282613714565b600b6020526000908152604090205460ff1681565b6000611598826137f0565b6120316129a2565b611f0f848484846137fa565b6000612069827f0000000000000000000000000000000000000000000000000000000000000000612409565b1561209f576000828152600460205260409020546001600160a01b031615612092576001612095565b60005b60ff16905061159b565b5060008181526003602052604090205461159b565b6120bf6119c2612454565b8483811480156120ce57508082145b61211f576040805162461bcd60e51b815260206004820152601a60248201527f5265636f763a20696e636f6e73697374656e7420617272617973000000000000604482015290519081900360640190fd5b60005b818114611e145785858281811061213557fe5b905060200201356001600160a01b03166001600160a01b03166323b872dd308a8a8581811061216057fe5b905060200201356001600160a01b031687878681811061217c57fe5b905060200201356040518463ffffffff1660e01b815260040180846001600160a01b03168152602001836001600160a01b031681526020018281526020019350505050600060405180830381600087803b1580156121d957600080fd5b505af11580156121ed573d6000803e3d6000fd5b50505050806001019050612122565b6060612206613808565b905090565b6000612237827f0000000000000000000000000000000000000000000000000000000000000000612409565b612280576040805162461bcd60e51b8152602060048201526015602482015274125b9d995b9d1bdc9e4e881b9bdd08185b88139195605a1b604482015290519081900360640190fd5b611598827f000000000000000000000000000000000000000000000000000000000000000061384c565b6000818152600460205260409020546060906001600160a01b0316612314576040805162461bcd60e51b815260206004820152601b60248201527a125b9d995b9d1bdc9e4e881b9bdb8b595e1a5cdd1a5b99c8139195602a1b604482015290519081900360640190fd5b61159882611965565b6123286119c2612454565b611f9e81613862565b61233c6118b5612454565b611e1488888888888888886139b7565b60006123588383613ce9565b9392505050565b6123676129a2565b6119b08585858585613d17565b61237c6129a2565b6119f88282613e87565b6123916119c2612454565b6000805474ffffffffffffffffffffffffffffffffffffffff0019166101006001600160a01b0384811682810293909317808555604051939492900416917f8be0079c531659141344cd1fd0a4f28419497f9722a3daafe3b4186f6b6457e09190a350565b6123fe6129a2565b6119838383836140e2565b6000600160ff1b8316158015906123585750612424826143c5565b909216151592915050565b60006001600160e01b031982166318167c6d60e21b14806115985750611598826143d6565b6000612206614431565b6000816001600160a01b0316836001600160a01b031614806123585750506001600160a01b03918216600090815260016020908152604080832093909416825291909152205460ff1690565b6001600160a01b0381166000908152600b602052604090205460ff16611f9e576040805162461bcd60e51b815260206004820152601860248201527f4d696e746572526f6c653a206e6f742061204d696e7465720000000000000000604482015290519081900360640190fd5b6001600160a01b03841661256c576040805162461bcd60e51b8152602060048201526017602482015276496e76656e746f72793a206d696e7420746f207a65726f60481b604482015290519081900360640190fd5b8251825181146125b1576040805162461bcd60e51b815260206004820152601e6024820152600080516020615df6833981519152604482015290519081900360640190fd5b6000806000805b84811461278f5760008882815181106125cd57fe5b6020026020010151905060008883815181106125e557fe5b602002602001015190506125f8826137f0565b1561260d576126088b8383614591565b612785565b612637827f0000000000000000000000000000000000000000000000000000000000000000612409565b15612738576126498b8383600161467b565b60405182906001600160a01b038d1690600090600080516020615e16833981519152908290a4600061269b837f000000000000000000000000000000000000000000000000000000000000000061384c565b9050866126ae5780965060019550612732565b86811461272b57856002600089815260200190815260200160002060008e6001600160a01b03166001600160a01b0316815260200190815260200160002060008282540192505081905550856003600089815260200190815260200160002060008282540192505081905550809650858501945060019550612732565b8560010195505b50612785565b6040805162461bcd60e51b815260206004820152601960248201527f496e76656e746f72793a206e6f74206120746f6b656e20696400000000000000604482015290519081900360640190fd5b50506001016125b8565b5082156127e45760008381526002602090815260408083206001600160a01b038c1680855290835281842080548701905586845260038352818420805487019055835260089091529020805491830191820190555b6001600160a01b03881660006127f8612454565b6001600160a01b0316600080516020615d968339815191528a8a604051808060200180602001838103835285818151815260200191508051906020019060200280838360005b8381101561285657818101518382015260200161283e565b50505050905001838103825284818151815260200191508051906020019060200280838360005b8381101561289557818101518382015260200161287d565b5050505090500194505050505060405180910390a46128bc886001600160a01b03166147c8565b15611e1457611e146000898989896147ce565b6060600a6128dc836149bb565b604051602001808380546001816001161561010002031660029004801561293a5780601f1061291857610100808354040283529182019161293a565b820191906000526020600020905b815481529060010190602001808311612926575b5050825160208401908083835b602083106129665780518252601f199092019160209182019101612947565b6001836020036101000a038019825116818451168082178552505050505050905001925050506040516020818303038152906040529050919050565b60005460ff16156119cf576040805162461bcd60e51b815260206004820152601060248201526f14185d5cd8589b194e881c185d5cd95960821b604482015290519081900360640190fd5b60006129f7612454565b90506000612a05858361245e565b9050612a10846137f0565b15612a2657612a2185858584614a96565b612a8a565b612a50847f0000000000000000000000000000000000000000000000000000000000000000612409565b1561273857612a63858585846000614bd8565b60405184906000906001600160a01b03881690600080516020615e16833981519152908390a45b60006001600160a01b0316856001600160a01b0316836001600160a01b0316600080516020615db68339815191528787604051808381526020018281526020019250505060405180910390a45050505050565b611983838383604051806020016040528060008152506000614d8b565b6119b08585858585614ed3565b306001600160a01b0316638da5cb5b6040518163ffffffff1660e01b815260040160206040518083038186803b158015612b4057600080fd5b505afa158015612b54573d6000803e3d6000fd5b505050506040513d6020811015612b6a57600080fd5b50516001600160a01b03828116911614611f9e576040805162461bcd60e51b815260206004820152601660248201527f4f776e61626c653a206e6f7420746865206f776e657200000000000000000000604482015290519081900360640190fd5b612bd36151ea565b6000805460ff191690557f5db9ee0a495bf2e6ff9c91a7834c1ba4fdd244a5e8aa4e537bd38aeae4b073aa612c06612454565b604080516001600160a01b039092168252519081900360200190a1565b6001600160a01b038416612c78576040805162461bcd60e51b8152602060048201526017602482015276496e76656e746f72793a206d696e7420746f207a65726f60481b604482015290519081900360640190fd5b612ca2837f0000000000000000000000000000000000000000000000000000000000000000612409565b612ceb576040805162461bcd60e51b8152602060048201526015602482015274125b9d995b9d1bdc9e4e881b9bdd08185b88139195605a1b604482015290519081900360640190fd5b612cf984846001600061467b565b60405183906001600160a01b03861690600090600080516020615e16833981519152908290a46001600160a01b0384166000612d33612454565b6001600160a01b0316600080516020615db6833981519152866001604051808381526020018281526020019250505060405180910390a4612d7c846001600160a01b03166147c8565b15611f0f57612d8a84615238565b15612da357612d9e600085856001866152b9565b611f0f565b8015611f0f57611f0f60008585856153a2565b611983838383604051806020016040528060008152506001614d8b565b6001600160a01b038216612e28576040805162461bcd60e51b8152602060048201526017602482015276496e76656e746f72793a206d696e7420746f207a65726f60481b604482015290519081900360640190fd5b805160008167ffffffffffffffff81118015612e4357600080fd5b50604051908082528060200260200182016040528015612e6d578160200160208202803683370190505b50905060008060005b848114612ff9576000868281518110612e8b57fe5b60200260200101519050612ec87f00000000000000000000000000000000000000000000000000000000000000008261240990919063ffffffff16565b612f11576040805162461bcd60e51b8152602060048201526015602482015274125b9d995b9d1bdc9e4e881b9bdd08185b88139195605a1b604482015290519081900360640190fd5b6001858381518110612f1f57fe5b602002602001018181525050612f38888260018061467b565b60405181906001600160a01b038a1690600090600080516020615e16833981519152908290a46000612f8a827f000000000000000000000000000000000000000000000000000000000000000061384c565b905084612f9d5780945060019350612fef565b848114612fe85760008581526002602090815260408083206001600160a01b038d16845282528083208054880190559682526003905294909420805490930190925560019183612fef565b8360010193505b5050600101612e76565b5060008281526002602090815260408083206001600160a01b038a1680855290835281842080548601905585845260038352818420805486019055808452600890925282208054870190559061304d612454565b6001600160a01b0316600080516020615d968339815191528887604051808060200180602001838103835285818151815260200191508051906020019060200280838360005b838110156130ab578181015183820152602001613093565b50505050905001838103825284818151815260200191508051906020019060200280838360005b838110156130ea5781810151838201526020016130d2565b5050505090500194505050505060405180910390a4613111866001600160a01b03166147c8565b8015613121575061312186615238565b15613143576131436000878786604051806020016040528060008152506147ce565b505050505050565b6000613177827f0000000000000000000000000000000000000000000000000000000000000000612409565b156131c9576040805162461bcd60e51b815260206004820152601b60248201527f496e76656e746f72793a206e6f74206120636f6c6c656374696f6e0000000000604482015290519081900360640190fd5b506000908152600560205260409020546001600160a01b031690565b6001600160a01b03841661323a576040805162461bcd60e51b8152602060048201526017602482015276496e76656e746f72793a206d696e7420746f207a65726f60481b604482015290519081900360640190fd5b6000613244612454565b905061324f846137f0565b156132645761325f858585614591565b6132c7565b61328e847f0000000000000000000000000000000000000000000000000000000000000000612409565b15612738576132a0858585600061467b565b60405184906001600160a01b03871690600090600080516020615e16833981519152908290a45b604080518581526020810185905281516001600160a01b038089169360009391861692600080516020615db68339815191529281900390910190a4613314856001600160a01b03166147c8565b156119b0576119b06000868686866152b9565b6000818152600460205260408120546001600160a01b038116611598576040805162461bcd60e51b815260206004820152601b60248201527a125b9d995b9d1bdc9e4e881b9bdb8b595e1a5cdd1a5b99c8139195602a1b604482015290519081900360640190fd5b604080516001600160a01b038416602482015260448082018490528251808303909101815260649091019091526020810180516001600160e01b031663a9059cbb60e01b17905261198390849061550b565b815181518114613426576040805162461bcd60e51b815260206004820152601e6024820152600080516020615df6833981519152604482015290519081900360640190fd5b6000613430612454565b9050600061343e868361245e565b90506000806000805b86811461358157600089828151811061345c57fe5b6020026020010151905061346f816137f0565b15613498576134938b828b858151811061348557fe5b602002602001015189614a96565b613578565b6134c2817f0000000000000000000000000000000000000000000000000000000000000000612409565b15612738576134e88b828b85815181106134d857fe5b6020026020010151896001614bd8565b60405181906000906001600160a01b038e1690600080516020615e16833981519152908390a4600061353a827f000000000000000000000000000000000000000000000000000000000000000061384c565b90508561354d5780955060019450613576565b85811461356f5761355f8c87876156ee565b9450600193929092019184613576565b8460010194505b505b50600101613447565b5082156135b7576135938984846156ee565b6001600160a01b038916600090815260086020526040902080549183019182900390555b60006001600160a01b0316896001600160a01b0316866001600160a01b0316600080516020615d968339815191528b8b604051808060200180602001838103835285818151815260200191508051906020019060200280838360005b8381101561362b578181015183820152602001613613565b50505050905001838103825284818151815260200191508051906020019060200280838360005b8381101561366a578181015183820152602001613652565b5050505090500194505050505060405180910390a4505050505050505050565b6136926129a2565b6000805460ff191660011790557f62e78cea01bee320cd4e420270b5ea74000d11b0c9f74754ebdbfc544b05a258612c06612454565b6001600160a01b0381166000818152600b6020526040808220805460ff19166001179055517f6ae172837ea30b801fbfcdd4108aa1d5bf8ff775444fd70256b44e6bf3dfc3f69190a250565b600061371e612454565b9050806001600160a01b0316836001600160a01b03161415613782576040805162461bcd60e51b8152602060048201526018602482015277125b9d995b9d1bdc9e4e881cd95b198b585c1c1c9bdd985b60421b604482015290519081900360640190fd5b6001600160a01b03818116600081815260016020908152604080832094881680845294825291829020805460ff1916871515908117909155825190815291517f17307eab39ab6107e8899845ad3d59bd9653f200f220920489ca2b5937696c319281900390910190a3505050565b600160ff1b161590565b611f0f848484846001614d8b565b606061381261572e565b8080601f01602080910402602001604051908101604052809392919081815260200183838082843760009201919091525092935050505090565b6000613857826143c5565b198316905092915050565b61388c817f0000000000000000000000000000000000000000000000000000000000000000612409565b156138de576040805162461bcd60e51b815260206004820152601b60248201527f496e76656e746f72793a206e6f74206120636f6c6c656374696f6e0000000000604482015290519081900360640190fd5b6000818152600560205260409020546001600160a01b031615613948576040805162461bcd60e51b815260206004820152601e60248201527f496e76656e746f72793a206578697374696e6720636f6c6c656374696f6e0000604482015290519081900360640190fd5b613950612454565b600082815260056020526040902080546001600160a01b0319166001600160a01b0392909216919091179055613985816137f0565b1515817f4ebf8ad0df535ba5e487bc9cb27fe44120ca81c3a95d3eba79c0bd1df2ab2d5d60405160405180910390a350565b8685811480156139c657508084145b613a05576040805162461bcd60e51b815260206004820152601e6024820152600080516020615df6833981519152604482015290519081900360640190fd5b6000613a0f612454565b905060005b828114613cdc5760008b8b83818110613a2957fe5b905060200201356001600160a01b0316905060006001600160a01b0316816001600160a01b03161415613a9d576040805162461bcd60e51b8152602060048201526017602482015276496e76656e746f72793a206d696e7420746f207a65726f60481b604482015290519081900360640190fd5b60008a8a84818110613aab57fe5b9050602002013590506000898985818110613ac257fe5b905060200201359050613ad4826137f0565b15613b7f57613ae4838383614591565b604080518381526020810183905281516001600160a01b0380871693600093918a1692600080516020615db68339815191529281900390910190a4613b31836001600160a01b03166147c8565b15613b7a57613b7a60008484848c8c8080601f0160208091040260200160405190810160405280939291908181526020018383808284376000920191909152506152b992505050565b613cce565b613ba9827f0000000000000000000000000000000000000000000000000000000000000000612409565b1561273857613bbb838383600061467b565b60405182906001600160a01b03851690600090600080516020615e16833981519152908290a4604080518381526001602082015281516001600160a01b0380871693600093918a1692600080516020615db68339815191529281900390910190a4613c2e836001600160a01b03166147c8565b15613b7a57613c3c83615238565b15613c8b57613c866000848460018c8c8080601f0160208091040260200160405190810160405280939291908181526020018383808284376000920191909152506152b992505050565b613b7a565b613b7a600084848b8b8080601f0160208091040260200160405190810160405280939291908181526020018383808284376000920191909152506153a292505050565b505050806001019050613a14565b5050505050505050505050565b6001600160a01b03918216600090815260016020908152604080832093909416825291909152205460ff1690565b6000613d21612454565b90506001600160a01b038516613d7c576040805162461bcd60e51b815260206004820152601b60248201527a496e76656e746f72793a207472616e7366657220746f207a65726f60281b604482015290519081900360640190fd5b6000613d88878361245e565b9050613d93856137f0565b15613daa57613da58787878785615891565b613e18565b613dd4857f0000000000000000000000000000000000000000000000000000000000000000612409565b1561273857613de8878787878560006159ea565b84866001600160a01b0316886001600160a01b0316600080516020615e1683398151915260405160405180910390a45b856001600160a01b0316876001600160a01b0316836001600160a01b0316600080516020615db68339815191528888604051808381526020018281526020019250505060405180910390a4613e75866001600160a01b03166147c8565b1561195c5761195c87878787876152b9565b6000613e91612454565b90506000613e9f848361245e565b835190915060008167ffffffffffffffff81118015613ebd57600080fd5b50604051908082528060200260200182016040528015613ee7578160200160208202803683370190505b50905060008060005b848114613fde576000888281518110613f0557fe5b602002602001015190506001858381518110613f1d57fe5b602002602001018181525050613f4a8a82878581518110613f3a57fe5b60200260200101518a6001614bd8565b60405181906000906001600160a01b038d1690600080516020615e16833981519152908390a46000613f9c827f000000000000000000000000000000000000000000000000000000000000000061384c565b905084613faf5780945060019350613fd4565b848114613fcd57613fc18b86866156ee565b80945060019350613fd4565b8360010193505b5050600101613ef0565b50811561401057613ff08883836156ee565b6001600160a01b0388166000908152600860205260409020805485900390555b60006001600160a01b0316886001600160a01b0316876001600160a01b0316600080516020615d968339815191528a87604051808060200180602001838103835285818151815260200191508051906020019060200280838360005b8381101561408457818101518382015260200161406c565b50505050905001838103825284818151815260200191508051906020019060200280838360005b838110156140c35781810151838201526020016140ab565b5050505090500194505050505060405180910390a45050505050505050565b6001600160a01b03821661413b576040805162461bcd60e51b815260206004820152601b60248201527a496e76656e746f72793a207472616e7366657220746f207a65726f60281b604482015290519081900360640190fd5b6000614145612454565b90506000614153858361245e565b835190915060008167ffffffffffffffff8111801561417157600080fd5b5060405190808252806020026020018201604052801561419b578160200160208202803683370190505b50905060008060005b84811461428b5760008882815181106141b957fe5b6020026020010151905060018583815181106141d157fe5b6020026020010181815250506141ed8b8b8360018b60016159ea565b808a6001600160a01b03168c6001600160a01b0316600080516020615e1683398151915260405160405180910390a46000614248827f000000000000000000000000000000000000000000000000000000000000000061384c565b90508461425b5780945060019350614281565b84811461427a5761426e8c8c8787615b82565b80945060019350614281565b8360010193505b50506001016141a4565b5081156142a95761429e89898484615b82565b6142a9898986615bd6565b876001600160a01b0316896001600160a01b03166142c5612454565b6001600160a01b0316600080516020615d968339815191528a87604051808060200180602001838103835285818151815260200191508051906020019060200280838360005b8381101561432357818101518382015260200161430b565b50505050905001838103825284818151815260200191508051906020019060200280838360005b8381101561436257818101518382015260200161434a565b5050505090500194505050505060405180910390a4614389886001600160a01b03166147c8565b8015614399575061439988615238565b156143ba576143ba89898986604051806020016040528060008152506147ce565b505050505050505050565b6001610100919091031b6000190190565b60006001600160e01b031982166380ac58cd60e01b148061440757506001600160e01b03198216635b5e139f60e01b145b8061442257506001600160e01b0319821663f3993d1160e01b145b80611598575061159882615c21565b6000338161443d615ca5565b90507f00000000000000000000000000000000000000000000000000000000000000006001600160a01b0316826001600160a01b031614806144b057507f00000000000000000000000000000000000000000000000000000000000000006001600160a01b0316826001600160a01b0316145b156144be5791506116349050565b6001600160a01b038216321480159061457d57507f00000000000000000000000000000000000000000000000000000000000000006001600160a01b031663e60125d682846040518363ffffffff1660e01b815260040180836001600160a01b03168152602001826001600160a01b031681526020019250505060206040518083038186803b15801561455057600080fd5b505afa158015614564573d6000803e3d6000fd5b505050506040513d602081101561457a57600080fd5b50515b1561458b5791506116349050565b50905090565b806145db576040805162461bcd60e51b8152602060048201526015602482015274496e76656e746f72793a207a65726f2076616c756560581b604482015290519081900360640190fd5b600082815260036020526040902054818101818111614641576040805162461bcd60e51b815260206004820152601a60248201527f496e76656e746f72793a20737570706c79206f766572666c6f77000000000000604482015290519081900360640190fd5b600093845260036020908152604080862092909255600281528185206001600160a01b039096168552949094525091902080549091019055565b816001146146cd576040805162461bcd60e51b815260206004820152601a602482015279496e76656e746f72793a2077726f6e67204e46542076616c756560301b604482015290519081900360640190fd5b6000838152600460205260409020541561472e576040805162461bcd60e51b815260206004820152601d60248201527f496e76656e746f72793a206578697374696e672f6275726e74204e4654000000604482015290519081900360640190fd5b60008381526004602052604090206001600160a01b038516905580611f0f576000614779847f000000000000000000000000000000000000000000000000000000000000000061384c565b600090815260036020908152604080832080546001908101909155600283528184206001600160a01b038a16855283528184208054820190556008909252909120805490910190555050505050565b3b151590565b63bc197c8160e01b6001600160a01b03851663bc197c816147ed612454565b888787876040518663ffffffff1660e01b815260040180866001600160a01b03168152602001856001600160a01b03168152602001806020018060200180602001848103845287818151815260200191508051906020019060200280838360005b8381101561486657818101518382015260200161484e565b50505050905001848103835286818151815260200191508051906020019060200280838360005b838110156148a557818101518382015260200161488d565b50505050905001848103825285818151815260200191508051906020019080838360005b838110156148e15781810151838201526020016148c9565b50505050905090810190601f16801561490e5780820380516001836020036101000a031916815260200191505b5098505050505050505050602060405180830381600087803b15801561493357600080fd5b505af1158015614947573d6000803e3d6000fd5b505050506040513d602081101561495d57600080fd5b50516001600160e01b031916146119b0576040805162461bcd60e51b815260206004820152601b60248201527f496e76656e746f72793a207472616e7366657220726566757365640000000000604482015290519081900360640190fd5b6060816149e057506040805180820190915260018152600360fc1b602082015261159b565b8160005b81156149f857600101600a820491506149e4565b60008167ffffffffffffffff81118015614a1157600080fd5b506040519080825280601f01601f191660200182016040528015614a3c576020820181803683370190505b50859350905060001982015b8315614a8d57600a840660300160f81b82828060019003935081518110614a6b57fe5b60200101906001600160f81b031916908160001a905350600a84049350614a48565b50949350505050565b81614ae0576040805162461bcd60e51b8152602060048201526015602482015274496e76656e746f72793a207a65726f2076616c756560581b604482015290519081900360640190fd5b80614b20576040805162461bcd60e51b815260206004820152601e6024820152600080516020615dd6833981519152604482015290519081900360640190fd5b60008381526002602090815260408083206001600160a01b038816845290915290205482811015614b98576040805162461bcd60e51b815260206004820152601d60248201527f496e76656e746f72793a206e6f7420656e6f7567682062616c616e6365000000604482015290519081900360640190fd5b60008481526002602090815260408083206001600160a01b0390981683529681528682209285900390925593845260039052509190208054919091039055565b82600114614c2a576040805162461bcd60e51b815260206004820152601a602482015279496e76656e746f72793a2077726f6e67204e46542076616c756560301b604482015290519081900360640190fd5b6000848152600460205260409020546001600160a01b0386811690821614614c94576040805162461bcd60e51b8152602060048201526018602482015277125b9d995b9d1bdc9e4e881b9bdb8b5bdddb99590813919560421b604482015290519081900360640190fd5b82614d1357600160a01b811615801590614cd457506000858152600960205260409020546001600160a01b0316614cc9612454565b6001600160a01b0316145b614d13576040805162461bcd60e51b815260206004820152601e6024820152600080516020615dd6833981519152604482015290519081900360640190fd5b600085815260046020526040902061dead60f01b90558161314357614d6386614d5c877f000000000000000000000000000000000000000000000000000000000000000061384c565b60016156ee565b6001600160a01b03861660009081526008602052604090208054600019019055505050505050565b6001600160a01b038416614de4576040805162461bcd60e51b815260206004820152601b60248201527a496e76656e746f72793a207472616e7366657220746f207a65726f60281b604482015290519081900360640190fd5b6000614dee612454565b90506000614dfc878361245e565b9050614e0e87878760018560006159ea565b84866001600160a01b0316886001600160a01b0316600080516020615e1683398151915260405160405180910390a4856001600160a01b0316876001600160a01b0316836001600160a01b0316600080516020615db6833981519152886001604051808381526020018281526020019250505060405180910390a4614e9b866001600160a01b03166147c8565b1561195c57614ea986615238565b15614ec157614ebc8787876001886152b9565b61195c565b821561195c5761195c878787876153a2565b6001600160a01b038416614f2c576040805162461bcd60e51b815260206004820152601b60248201527a496e76656e746f72793a207472616e7366657220746f207a65726f60281b604482015290519081900360640190fd5b825182518114614f71576040805162461bcd60e51b815260206004820152601e6024820152600080516020615df6833981519152604482015290519081900360640190fd5b6000614f7b612454565b90506000614f89888361245e565b90506000806000805b8681146150d85760008a8281518110614fa757fe5b60200260200101519050614fba816137f0565b15614fe457614fdf8d8d838d8681518110614fd157fe5b60200260200101518a615891565b6150cf565b61500e817f0000000000000000000000000000000000000000000000000000000000000000612409565b15612738576150358d8d838d868151811061502557fe5b60200260200101518a60016159ea565b808c6001600160a01b03168e6001600160a01b0316600080516020615e1683398151915260405160405180910390a46000615090827f000000000000000000000000000000000000000000000000000000000000000061384c565b9050856150a357809550600194506150cd565b8581146150c6576150b68e8e8888615b82565b94506001939290920191846150cd565b8460010194505b505b50600101614f92565b5082156150f8576150eb8b8b8585615b82565b81016150f88b8b83615bd6565b896001600160a01b03168b6001600160a01b0316615114612454565b6001600160a01b0316600080516020615d968339815191528c8c604051808060200180602001838103835285818151815260200191508051906020019060200280838360005b8381101561517257818101518382015260200161515a565b50505050905001838103825284818151815260200191508051906020019060200280838360005b838110156151b1578181015183820152602001615199565b5050505090500194505050505060405180910390a46151d88a6001600160a01b03166147c8565b15613cdc57613cdc8b8b8b8b8b6147ce565b60005460ff166119cf576040805162461bcd60e51b815260206004820152601460248201527314185d5cd8589b194e881b9bdd081c185d5cd95960621b604482015290519081900360640190fd5b60408051630271189760e51b6024808301919091528251808303909101815260449091018252602081810180516001600160e01b03166301ffc9a760e01b1781528251935160008082529485948594909392908183858b612710fa955080519450505050609e5a116152a657fe5b8280156152b05750815b95945050505050565b63f23a6e6160e01b6001600160a01b03851663f23a6e616152d8612454565b888787876040518663ffffffff1660e01b815260040180866001600160a01b03168152602001856001600160a01b0316815260200184815260200183815260200180602001828103825283818151815260200191508051906020019080838360005b8381101561535257818101518382015260200161533a565b50505050905090810190601f16801561537f5780820380516001836020036101000a031916815260200191505b509650505050505050602060405180830381600087803b15801561493357600080fd5b630a85bd0160e11b6001600160a01b03841663150b7a026153c1612454565b8786866040518563ffffffff1660e01b815260040180856001600160a01b03168152602001846001600160a01b0316815260200183815260200180602001828103825283818151815260200191508051906020019080838360005b8381101561543457818101518382015260200161541c565b50505050905090810190601f1680156154615780820380516001836020036101000a031916815260200191505b5095505050505050602060405180830381600087803b15801561548357600080fd5b505af1158015615497573d6000803e3d6000fd5b505050506040513d60208110156154ad57600080fd5b50516001600160e01b03191614611f0f576040805162461bcd60e51b815260206004820152601b60248201527f496e76656e746f72793a207472616e7366657220726566757365640000000000604482015290519081900360640190fd5b8161551e6001600160a01b0382166147c8565b61556f576040805162461bcd60e51b815260206004820152601a60248201527f4552433230577261707065723a206e6f6e2d636f6e7472616374000000000000604482015290519081900360640190fd5b600080826001600160a01b0316846040518082805190602001908083835b602083106155ac5780518252601f19909201916020918201910161558d565b6001836020036101000a0380198251168184511680821785525050505050509050019150506000604051808303816000865af19150503d806000811461560e576040519150601f19603f3d011682016040523d82523d6000602084013e615613565b606091505b509150915081156156925780511561568d5780806020019051602081101561563a57600080fd5b505161568d576040805162461bcd60e51b815260206004820152601e60248201527f4552433230577261707065723a206f7065726174696f6e206661696c65640000604482015290519081900360640190fd5b6119b0565b80516156e5576040805162461bcd60e51b815260206004820152601e60248201527f4552433230577261707065723a206f7065726174696f6e206661696c65640000604482015290519081900360640190fd5b80518082602001fd5b60008281526002602090815260408083206001600160a01b0390961683529481528482208054849003905592815260039092529190208054919091039055565b366000336001600160a01b037f00000000000000000000000000000000000000000000000000000000000000001681148061579a57507f00000000000000000000000000000000000000000000000000000000000000006001600160a01b0316816001600160a01b0316145b156157b1576157a7615cb1565b925092505061588d565b6001600160a01b038116321480159061587757507f00000000000000000000000000000000000000000000000000000000000000006001600160a01b031663e60125d66157fc615ca5565b836040518363ffffffff1660e01b815260040180836001600160a01b03168152602001826001600160a01b031681526020019250505060206040518083038186803b15801561584a57600080fd5b505afa15801561585e573d6000803e3d6000fd5b505050506040513d602081101561587457600080fd5b50515b15615884576157a7615cb1565b60003692509250505b9091565b806158d1576040805162461bcd60e51b815260206004820152601e6024820152600080516020615dd6833981519152604482015290519081900360640190fd5b8161591b576040805162461bcd60e51b8152602060048201526015602482015274496e76656e746f72793a207a65726f2076616c756560581b604482015290519081900360640190fd5b60008381526002602090815260408083206001600160a01b038916845290915290205482811015615993576040805162461bcd60e51b815260206004820152601d60248201527f496e76656e746f72793a206e6f7420656e6f7567682062616c616e6365000000604482015290519081900360640190fd5b846001600160a01b0316866001600160a01b0316146131435760009384526002602090815260408086206001600160a01b039889168752909152808520918490039091559390941682529190208054909101905550565b82600114615a3c576040805162461bcd60e51b815260206004820152601a602482015279496e76656e746f72793a2077726f6e67204e46542076616c756560301b604482015290519081900360640190fd5b6000848152600460205260409020546001600160a01b0387811690821614615aa6576040805162461bcd60e51b8152602060048201526018602482015277125b9d995b9d1bdc9e4e881b9bdb8b5bdddb99590813919560421b604482015290519081900360640190fd5b82615b2557600160a01b811615801590615ae657506000858152600960205260409020546001600160a01b0316615adb612454565b6001600160a01b0316145b615b25576040805162461bcd60e51b815260206004820152601e6024820152600080516020615dd6833981519152604482015290519081900360640190fd5b60008581526004602052604090206001600160a01b03871690558161195c57615b5087876001615bd6565b61195c8787615b7f887f000000000000000000000000000000000000000000000000000000000000000061384c565b60015b826001600160a01b0316846001600160a01b031614611f0f5760009182526002602090815260408084206001600160a01b039687168552909152808320805483900390559290931681522080549091019055565b816001600160a01b0316836001600160a01b031614611983576001600160a01b0380841660009081526008602052604080822080548590039055918416815220805482019055505050565b60006001600160e01b031982166301ffc9a760e01b1480615c5257506001600160e01b03198216636cdb3d1360e11b145b80615c6d57506001600160e01b031982166303a24d0760e21b145b80615c8857506001600160e01b031982166304e72e2360e11b145b806115985750506001600160e01b03191663bd85b03960e01b1490565b60131936013560601c90565b366000615cc46013198301828481615d6d565b915091509091565b828054600181600116156101000203166002900490600052602060002090601f016020900481019282615d025760008555615d48565b82601f10615d1b5782800160ff19823516178555615d48565b82800160010185558215615d48579182015b82811115615d48578235825591602001919060010190615d2d565b50615d54929150615d58565b5090565b5b80821115615d545760008155600101615d59565b60008085851115615d7c578182fd5b83861115615d88578182fd5b505082019391909203915056fe4a39dc06d4c0dbc64b70af90fd698a233a518aa5d07e595d983b8c0526c8f7fbc3d58168c5ae7397731d063d5bbf3d657854427343f4c083240f7aacaa2d0f62496e76656e746f72793a206e6f6e2d617070726f7665642073656e6465720000496e76656e746f72793a20696e636f6e73697374656e74206172726179730000ddf252ad1be2c89b69c2b068fc378daa952ba7f163c4a11628f55a4df523b3efa2646970667358221220a516098a60208cb24181b079cc104a08abb49542fff3fd9021d680609a669c3f64736f6c63430007060033",
  "linkReferences": {},
  "deployedLinkReferences": {}
}