{
  "_format": "hh-sol-artifact-1",
  "contractName": "ERC20Mock",
  "sourceName": "contracts/mocks/token/ERC20/ERC20Mock.sol",
  "abi": [
    {
      "inputs": [
        {
          "internalType": "address[]",
          "name": "recipients",
          "type": "address[]"
        },
        {
          "internalType": "uint256[]",
          "name": "values",
          "type": "uint256[]"
        },
        {
          "internalType": "contract IForwarderRegistry",
          "name": "forwarderRegistry",
          "type": "address"
        },
        {
          "internalType": "address",
          "name": "universalForwarder",
          "type": "address"
        }
      ],
      "stateMutability": "nonpayable",
      "type": "constructor"
    },
    {
      "anonymous": false,
      "inputs": [
        {
          "indexed": true,
          "internalType": "address",
          "name": "_owner",
          "type": "address"
        },
        {
          "indexed": true,
          "internalType": "address",
          "name": "_spender",
          "type": "address"
        },
        {
          "indexed": false,
          "internalType": "uint256",
          "name": "_value",
          "type": "uint256"
        }
      ],
      "name": "Approval",
      "type": "event"
    },
    {
      "anonymous": false,
      "inputs": [
        {
          "indexed": true,
          "internalType": "address",
          "name": "previousOwner",
          "type": "address"
        },
        {
          "indexed": true,
          "internalType": "address",
          "name": "newOwner",
          "type": "address"
        }
      ],
      "name": "OwnershipTransferred",
      "type": "event"
    },
    {
      "anonymous": false,
      "inputs": [
        {
          "indexed": true,
          "internalType": "address",
          "name": "_from",
          "type": "address"
        },
        {
          "indexed": true,
          "internalType": "address",
          "name": "_to",
          "type": "address"
        },
        {
          "indexed": false,
          "internalType": "uint256",
          "name": "_value",
          "type": "uint256"
        }
      ],
      "name": "Transfer",
      "type": "event"
    },
    {
      "inputs": [],
      "name": "DOMAIN_SEPARATOR",
      "outputs": [
        {
          "internalType": "bytes32",
          "name": "",
          "type": "bytes32"
        }
      ],
      "stateMutability": "view",
      "type": "function"
    },
    {
      "inputs": [
        {
          "internalType": "address",
          "name": "owner",
          "type": "address"
        },
        {
          "internalType": "address",
          "name": "spender",
          "type": "address"
        }
      ],
      "name": "allowance",
      "outputs": [
        {
          "internalType": "uint256",
          "name": "",
          "type": "uint256"
        }
      ],
      "stateMutability": "view",
      "type": "function"
    },
    {
      "inputs": [
        {
          "internalType": "address",
          "name": "spender",
          "type": "address"
        },
        {
          "internalType": "uint256",
          "name": "value",
          "type": "uint256"
        }
      ],
      "name": "approve",
      "outputs": [
        {
          "internalType": "bool",
          "name": "",
          "type": "bool"
        }
      ],
      "stateMutability": "nonpayable",
      "type": "function"
    },
    {
      "inputs": [
        {
          "internalType": "address",
          "name": "account",
          "type": "address"
        }
      ],
      "name": "balanceOf",
      "outputs": [
        {
          "internalType": "uint256",
          "name": "",
          "type": "uint256"
        }
      ],
      "stateMutability": "view",
      "type": "function"
    },
    {
      "inputs": [
        {
          "internalType": "address[]",
          "name": "recipients",
          "type": "address[]"
        },
        {
          "internalType": "uint256[]",
          "name": "values",
          "type": "uint256[]"
        }
      ],
      "name": "batchMint",
      "outputs": [],
      "stateMutability": "nonpayable",
      "type": "function"
    },
    {
      "inputs": [
        {
          "internalType": "address[]",
          "name": "recipients",
          "type": "address[]"
        },
        {
          "internalType": "uint256[]",
          "name": "values",
          "type": "uint256[]"
        }
      ],
      "name": "batchTransfer",
      "outputs": [
        {
          "internalType": "bool",
          "name": "",
          "type": "bool"
        }
      ],
      "stateMutability": "nonpayable",
      "type": "function"
    },
    {
      "inputs": [
        {
          "internalType": "address",
          "name": "from",
          "type": "address"
        },
        {
          "internalType": "address[]",
          "name": "recipients",
          "type": "address[]"
        },
        {
          "internalType": "uint256[]",
          "name": "values",
          "type": "uint256[]"
        }
      ],
      "name": "batchTransferFrom",
      "outputs": [
        {
          "internalType": "bool",
          "name": "",
          "type": "bool"
        }
      ],
      "stateMutability": "nonpayable",
      "type": "function"
    },
    {
      "inputs": [
        {
          "internalType": "bytes32",
          "name": "c__0x32377826",
          "type": "bytes32"
        }
      ],
      "name": "c_0x32377826",
      "outputs": [],
      "stateMutability": "pure",
      "type": "function"
    },
    {
      "inputs": [
        {
          "internalType": "bytes32",
          "name": "c__0x5e39e273",
          "type": "bytes32"
        }
      ],
      "name": "c_0x5e39e273",
      "outputs": [],
      "stateMutability": "pure",
      "type": "function"
    },
    {
      "inputs": [],
      "name": "decimals",
      "outputs": [
        {
          "internalType": "uint8",
          "name": "",
          "type": "uint8"
        }
      ],
      "stateMutability": "view",
      "type": "function"
    },
    {
      "inputs": [
        {
          "internalType": "address",
          "name": "spender",
          "type": "address"
        },
        {
          "internalType": "uint256",
          "name": "subtractedValue",
          "type": "uint256"
        }
      ],
      "name": "decreaseAllowance",
      "outputs": [
        {
          "internalType": "bool",
          "name": "",
          "type": "bool"
        }
      ],
      "stateMutability": "nonpayable",
      "type": "function"
    },
    {
      "inputs": [],
      "name": "deploymentChainId",
      "outputs": [
        {
          "internalType": "uint256",
          "name": "",
          "type": "uint256"
        }
      ],
      "stateMutability": "view",
      "type": "function"
    },
    {
      "inputs": [
        {
          "internalType": "address",
          "name": "spender",
          "type": "address"
        },
        {
          "internalType": "uint256",
          "name": "addedValue",
          "type": "uint256"
        }
      ],
      "name": "increaseAllowance",
      "outputs": [
        {
          "internalType": "bool",
          "name": "",
          "type": "bool"
        }
      ],
      "stateMutability": "nonpayable",
      "type": "function"
    },
    {
      "inputs": [
        {
          "internalType": "address",
          "name": "forwarder",
          "type": "address"
        }
      ],
      "name": "isTrustedForwarder",
      "outputs": [
        {
          "internalType": "bool",
          "name": "",
          "type": "bool"
        }
      ],
      "stateMutability": "view",
      "type": "function"
    },
    {
      "inputs": [
        {
          "internalType": "address",
          "name": "to",
          "type": "address"
        },
        {
          "internalType": "uint256",
          "name": "value",
          "type": "uint256"
        }
      ],
      "name": "mint",
      "outputs": [],
      "stateMutability": "nonpayable",
      "type": "function"
    },
    {
      "inputs": [],
      "name": "name",
      "outputs": [
        {
          "internalType": "string",
          "name": "",
          "type": "string"
        }
      ],
      "stateMutability": "view",
      "type": "function"
    },
    {
      "inputs": [
        {
          "internalType": "address",
          "name": "",
          "type": "address"
        }
      ],
      "name": "nonces",
      "outputs": [
        {
          "internalType": "uint256",
          "name": "",
          "type": "uint256"
        }
      ],
      "stateMutability": "view",
      "type": "function"
    },
    {
      "inputs": [],
      "name": "owner",
      "outputs": [
        {
          "internalType": "address",
          "name": "",
          "type": "address"
        }
      ],
      "stateMutability": "view",
      "type": "function"
    },
    {
      "inputs": [
        {
          "internalType": "address",
          "name": "owner",
          "type": "address"
        },
        {
          "internalType": "address",
          "name": "spender",
          "type": "address"
        },
        {
          "internalType": "uint256",
          "name": "value",
          "type": "uint256"
        },
        {
          "internalType": "uint256",
          "name": "deadline",
          "type": "uint256"
        },
        {
          "internalType": "uint8",
          "name": "v",
          "type": "uint8"
        },
        {
          "internalType": "bytes32",
          "name": "r",
          "type": "bytes32"
        },
        {
          "internalType": "bytes32",
          "name": "s",
          "type": "bytes32"
        }
      ],
      "name": "permit",
      "outputs": [],
      "stateMutability": "nonpayable",
      "type": "function"
    },
    {
      "inputs": [
        {
          "internalType": "address[]",
          "name": "accounts",
          "type": "address[]"
        },
        {
          "internalType": "address[]",
          "name": "tokens",
          "type": "address[]"
        },
        {
          "internalType": "uint256[]",
          "name": "amounts",
          "type": "uint256[]"
        }
      ],
      "name": "recoverERC20s",
      "outputs": [],
      "stateMutability": "nonpayable",
      "type": "function"
    },
    {
      "inputs": [
        {
          "internalType": "address[]",
          "name": "accounts",
          "type": "address[]"
        },
        {
          "internalType": "address[]",
          "name": "contracts",
          "type": "address[]"
        },
        {
          "internalType": "uint256[]",
          "name": "tokenIds",
          "type": "uint256[]"
        }
      ],
      "name": "recoverERC721s",
      "outputs": [],
      "stateMutability": "nonpayable",
      "type": "function"
    },
    {
      "inputs": [
        {
          "internalType": "address",
          "name": "to",
          "type": "address"
        },
        {
          "internalType": "uint256",
          "name": "amount",
          "type": "uint256"
        },
        {
          "internalType": "bytes",
          "name": "data",
          "type": "bytes"
        }
      ],
      "name": "safeTransfer",
      "outputs": [
        {
          "internalType": "bool",
          "name": "",
          "type": "bool"
        }
      ],
      "stateMutability": "nonpayable",
      "type": "function"
    },
    {
      "inputs": [
        {
          "internalType": "address",
          "name": "from",
          "type": "address"
        },
        {
          "internalType": "address",
          "name": "to",
          "type": "address"
        },
        {
          "internalType": "uint256",
          "name": "amount",
          "type": "uint256"
        },
        {
          "internalType": "bytes",
          "name": "data",
          "type": "bytes"
        }
      ],
      "name": "safeTransferFrom",
      "outputs": [
        {
          "internalType": "bool",
          "name": "",
          "type": "bool"
        }
      ],
      "stateMutability": "nonpayable",
      "type": "function"
    },
    {
      "inputs": [
        {
          "internalType": "string",
          "name": "tokenURI_",
          "type": "string"
        }
      ],
      "name": "setTokenURI",
      "outputs": [],
      "stateMutability": "nonpayable",
      "type": "function"
    },
    {
      "inputs": [
        {
          "internalType": "bytes4",
          "name": "interfaceId",
          "type": "bytes4"
        }
      ],
      "name": "supportsInterface",
      "outputs": [
        {
          "internalType": "bool",
          "name": "",
          "type": "bool"
        }
      ],
      "stateMutability": "view",
      "type": "function"
    },
    {
      "inputs": [],
      "name": "symbol",
      "outputs": [
        {
          "internalType": "string",
          "name": "",
          "type": "string"
        }
      ],
      "stateMutability": "view",
      "type": "function"
    },
    {
      "inputs": [],
      "name": "tokenURI",
      "outputs": [
        {
          "internalType": "string",
          "name": "",
          "type": "string"
        }
      ],
      "stateMutability": "view",
      "type": "function"
    },
    {
      "inputs": [],
      "name": "totalSupply",
      "outputs": [
        {
          "internalType": "uint256",
          "name": "",
          "type": "uint256"
        }
      ],
      "stateMutability": "view",
      "type": "function"
    },
    {
      "inputs": [
        {
          "internalType": "address",
          "name": "to",
          "type": "address"
        },
        {
          "internalType": "uint256",
          "name": "value",
          "type": "uint256"
        }
      ],
      "name": "transfer",
      "outputs": [
        {
          "internalType": "bool",
          "name": "",
          "type": "bool"
        }
      ],
      "stateMutability": "nonpayable",
      "type": "function"
    },
    {
      "inputs": [
        {
          "internalType": "address",
          "name": "from",
          "type": "address"
        },
        {
          "internalType": "address",
          "name": "to",
          "type": "address"
        },
        {
          "internalType": "uint256",
          "name": "value",
          "type": "uint256"
        }
      ],
      "name": "transferFrom",
      "outputs": [
        {
          "internalType": "bool",
          "name": "",
          "type": "bool"
        }
      ],
      "stateMutability": "nonpayable",
      "type": "function"
    },
    {
      "inputs": [
        {
          "internalType": "address",
          "name": "newOwner",
          "type": "address"
        }
      ],
      "name": "transferOwnership",
      "outputs": [],
      "stateMutability": "nonpayable",
      "type": "function"
    }
  ],
  "bytecode": "0x6101206040523480156200001257600080fd5b506040516200a8563803806200a856833981810160405260808110156200003857600080fd5b81019080805160405193929190846401000000008211156200005957600080fd5b838201915060208201858111156200007057600080fd5b82518660208202830111640100000000821117156200008e57600080fd5b8083526020830192505050908051906020019060200280838360005b83811015620000c7578082015181840152602081019050620000aa565b5050505090500160405260200180516040519392919084640100000000821115620000f157600080fd5b838201915060208201858111156200010857600080fd5b82518660208202830111640100000000821117156200012657600080fd5b8083526020830192505050908051906020019060200280838360005b838110156200015f57808201518184015260208101905062000142565b5050505090500160405260200180519060200190929190805190602001909291905050506040518060400160405280600a81526020017f4552433230204d6f636b000000000000000000000000000000000000000000008152506040518060400160405280600381526020017f453230000000000000000000000000000000000000000000000000000000000081525060126040518060400160405280600381526020017f7572690000000000000000000000000000000000000000000000000000000000815250858533806000806101000a81548173ffffffffffffffffffffffffffffffffffffffff021916908373ffffffffffffffffffffffffffffffffffffffff1602179055508073ffffffffffffffffffffffffffffffffffffffff16600073ffffffffffffffffffffffffffffffffffffffff167f8be0079c531659141344cd1fd0a4f28419497f9722a3daafe3b4186f6b6457e060405160405180910390a3508073ffffffffffffffffffffffffffffffffffffffff1660a08173ffffffffffffffffffffffffffffffffffffffff1660601b815250508173ffffffffffffffffffffffffffffffffffffffff1660808173ffffffffffffffffffffffffffffffffffffffff1660601b8152505050506200036a7f6ad64343884fef283ac34d6b1734cff4bc6f4f87f42cf63b984e2a37f57a9b4160001b620007b660201b60201c565b6200039e7f5ab64a98b6bb162ac95f22ecfce6c4a762871f2f94a4e46cafcfb63de7f7195060001b620007b660201b60201c565b620003d27fec43397a470c0671e0b7fac3bfcc1762098ce930abc003ca08b1924e850543a260001b620007b660201b60201c565b8360029080519060200190620003ea92919062001650565b506200041f7f13d5affcf7f67b74a51ae94812af388249439386aca1cd8253860ae3dbc16e4160001b620007b660201b60201c565b620004537f2935c352dde457385c783cd1274a2861e935b970f2cb412a3bf02f5b3317990a60001b620007b660201b60201c565b82600390805190602001906200046b92919062001650565b50620004a07feb675418522e18b15e4d8dafb7d8aa1ab245dadc5fe83302a362bf772ff975e060001b620007b660201b60201c565b620004d47f2d79b48921561dde782983b13663b13a677a35e5e214aa5243900a419887c12960001b620007b660201b60201c565b8160ff166101008160ff1660f81b815250506200051a7f464e8df06c49787199adc93ba7bffa2394de1f616c5e46782d4e4f3a02b6181060001b620007b660201b60201c565b6200054e7f465d064048076173b224887e1864edb17bfcf100967f287c9fbb7115ebf0967360001b620007b660201b60201c565b80600490805190602001906200056692919062001650565b506200059b7f4dd7832ae7891666e3a52738b7409dfb97e3e1f02f800ac7d6ef0cf6be949d7360001b620007b660201b60201c565b620005cf7fa1dd4b4253faee9cb2fdf6b1c8e45cb42c6ab36fca98455f48fc8ecabde5257360001b620007b660201b60201c565b6000620006057fa571706ffd4f9e0cdd5c3cc9160aed25836a50a0f225dc6fe60a479d1d36448a60001b620007b660201b60201c565b4690506200063c7f149c9fab1f1fd65fdefcd3d7810703b550a55bb975ca3270d403bab703a975db60001b620007b660201b60201c565b620006707f0a2a2819eda73d30ec16fa15840c934f89e2d18d23a782a14a406882ac3266ea60001b620007b660201b60201c565b8060c08181525050620006ac7fca576539af85dc7613b0eba6a2a9e6f576e4c499b4b74e1aa976909a414c911d60001b620007b660201b60201c565b620006e07f46719f5fd6d3f50958bb25d576f7e4463c162d05b1b6ba84dffa64908c5e7d2a60001b620007b660201b60201c565b620006f28186620007b960201b60201c565b60e081815250505050505050620007327ff1fbc76f32584323ac3a344a4d6fa031367e61e0d5d1135c1234bdec5723d37a60001b6200090360201b60201c565b620007667f016977331b1244d4f94819b17925efae3d25567ff5c18ea9080e1083c0f9b7f760001b6200090360201b60201c565b6200079a7f90f3973e00ce02d427ef420f0747dae18a38ce9d7e8bb5530932231f4858d3a660001b6200090360201b60201c565b620007ac84846200090660201b60201c565b5050505062001706565b50565b6000620007ef7f944c756d5d5f2a243e454b45fc9555d5da7652dd4606d195dc34efbf761fdf8560001b620007b660201b60201c565b620008237faa08908f9f4beadbac7e4c7f998a0acfcbb4350d736ee7e36f1579fae9bd064760001b620007b660201b60201c565b620008577fd732a1b4cb4603fac188410fc428b31ff987007b8863a01a3eed940aaf97080460001b620007b660201b60201c565b7f8b73c3c69bb8fe3d512ecc4cf759cc79239f7b179b0ffacaa9a75d522b39400f82805190602001207fc89efdaa54c0f20c7adf612882df0950f5a951637e0307cdcb4c672f298b8bc68530604051602001808681526020018581526020018481526020018381526020018273ffffffffffffffffffffffffffffffffffffffff1681526020019550505050505060405160208183030381529060405280519060200120905092915050565b50565b6200093a7f20fc3a3025e46ba68506603cf55a8ab7589421dc8cc9acd80bdc1e6ae81f05c460001b620007b660201b60201c565b6200096e7fba9abe6a98cdc1f94ba4e225b482fd128eb20d7d06898ce3fcfc5f502d9d1b0860001b620007b660201b60201c565b620009a27f3ba48f63ffe8b5ccfb3d0838ad68ca5a11190b8c7f2a437b94073bebc146687c60001b620007b660201b60201c565b600082519050620009dc7fcffebafbf9e4663757c3f9bd87018bcf88449b7964c7f65690af35a583373be960001b620007b660201b60201c565b62000a107f536085bfab79c3adf33b0b3d83d9783b283121e3905692cb791e7cdb4e9307a260001b620007b660201b60201c565b62000a447f28a09ac6290879af2293f0fbcebda75f1387155822a9e3d43f7d7227943b292960001b620007b660201b60201c565b8151811462000abb576040517f08c379a000000000000000000000000000000000000000000000000000000000815260040180806020018281038252601a8152602001807f45524332303a20696e636f6e73697374656e742061727261797300000000000081525060200191505060405180910390fd5b62000aef7f4f30f646ddddb494189e6910f6792e9e86625ce13475948614bd943ef381721560001b620007b660201b60201c565b62000b237fd8ef06c94df637ec3f9113c7a73da0f5f512d8f8fd38f37902fe6be519cff0ab60001b620007b660201b60201c565b62000b577f80d539030dd34f2eb0d37883a4ecfe160d66aae6c9626aad2973cd90572ca22160001b620007b660201b60201c565b600062000b8d7f1b3654878968e204d754e0a487961a65282ab1dce5a0526be95c49f0b2756b4f60001b620007b660201b60201c565b62000bc17fddd11b869e300f1c3a8c38881b13af11f9349d9483da72e8db7d9b21d9379a5460001b620007b660201b60201c565b60005b828114620012d45762000c007f554ae65dece2c41c56ba42dd945a857d5ce2ad3847acb3f531b5ec48aaefa2e660001b620007b660201b60201c565b62000c347f248219498dcb66ef28903989e639a6de2182f75180726d5bcd0fbd3778731fdf60001b620007b660201b60201c565b600085828151811062000c4357fe5b6020026020010151905062000c817f32c034bd3455704f3783113d545a7ab7dbe141c0501bc8bd361c5ce7d5957f5a60001b620007b660201b60201c565b62000cb57f08a2e445ee1d9bf21680de1ec5c4c2cc4bafbe808661464ed3897c1539dcf3c860001b620007b660201b60201c565b62000ce97fe7750c41b5b900f1393ad6711460fd1bb15fae5128017093d43fc2dec50449ff60001b620007b660201b60201c565b600073ffffffffffffffffffffffffffffffffffffffff168173ffffffffffffffffffffffffffffffffffffffff16141562000d8d576040517f08c379a00000000000000000000000000000000000000000000000000000000081526004018080602001828103825260138152602001807f45524332303a207a65726f20616464726573730000000000000000000000000081525060200191505060405180910390fd5b62000dc17fd1ab9a79035ce45704c7580e6d0a24e156e52d6245a0928d24b3a00dd9f1a8ff60001b620007b660201b60201c565b62000df57f3421be204182a90b101c1d4be8b936b071e75bffbbbc91fc85bab45aa6e3192660001b620007b660201b60201c565b62000e297f59e6a4d533dce51cf4484487e0b92903d0780a5377b28a65f49f84e6658c83ae60001b620007b660201b60201c565b600085838151811062000e3857fe5b6020026020010151905062000e767fc2c40173c340c7fa464da1bb0224fd8d05c1d3e8231a6c7df88ee9096808bcd360001b620007b660201b60201c565b62000eaa7fbbe8dea263cea70d1629ed86c54e6475a6bde4fc7a2e475664247cb68f97326560001b620007b660201b60201c565b60008114620011c35762000ee77f918047cdef3cbeae26152c625941fe68f100821b3d592678f8fc073d17ac1bba60001b620007b660201b60201c565b62000f1b7fad2185a253d17741595df38ff3aa658d6f512195ec20834724c455b43a17844860001b620007b660201b60201c565b62000f4f7faafc7c9fab73064c7f704e57ab8a392c8d68581d5956073c5c1a19608f95a12860001b620007b660201b60201c565b6000818501905062000f8a7f7fb926d15eb74ada58463bb7b8465664548a47d7dedc379af5ac974dcc974f1660001b620007b660201b60201c565b62000fbe7f65b39fea598a03fb39e80c488a4f4b2039c9332952aceb58211351459b6796f560001b620007b660201b60201c565b62000ff27fbe9a7c48aadf276ca12582a73255f836be03e56d19d1431ea228f7c8cc8dc90660001b620007b660201b60201c565b84811162001068576040517f08c379a00000000000000000000000000000000000000000000000000000000081526004018080602001828103825260168152602001807f45524332303a2076616c756573206f766572666c6f770000000000000000000081525060200191505060405180910390fd5b6200109c7f4eada8eb3370e0ffab5b6480c9f708ff38f9f7d5e9ce173fc491bc174fbcabab60001b620007b660201b60201c565b620010d07fcc9df20e360e0c354d314f6c355a7d77f27351b25843d3a363d282afdc6688b160001b620007b660201b60201c565b620011047fc738a37396cb337512ad461fbba31a6d7edd4803389b35cad465b3143ac6a99c60001b620007b660201b60201c565b8094506200113b7f5a1570ab7171545ced0efed1dcd550e352ae069952e06fa0c8031a7ee055cc0b60001b620007b660201b60201c565b6200116f7ff5706860fcd71ae977a4419e8637de134112a93b9e8e6ea0232f43fca41935dd60001b620007b660201b60201c565b81600560008573ffffffffffffffffffffffffffffffffffffffff1673ffffffffffffffffffffffffffffffffffffffff1681526020019081526020016000206000828254019250508190555050620011f8565b620011f77fe46f076c769a75777f187475ecebc8fde86e2263520863db7d61261ba876d47360001b620007b660201b60201c565b5b6200122c7f57bd54e293dcbc8aaa34547ffd71546e2054d69a2652ebb36c08ee6951fdf28660001b620007b660201b60201c565b620012607f291fb6e70d34689648ea6276e18abccbe359700acac4e46d2dfa59fb680947e660001b620007b660201b60201c565b8173ffffffffffffffffffffffffffffffffffffffff16600073ffffffffffffffffffffffffffffffffffffffff167fddf252ad1be2c89b69c2b068fc378daa952ba7f163c4a11628f55a4df523b3ef836040518082815260200191505060405180910390a3505080600101905062000bc4565b50620013097fa3192109964a953eddcded1124c212145fdfc6191b449e292afeec0c6724bd9c60001b620007b660201b60201c565b6200133d7fe3a3c92252356f4da6b5a5856b6ff25f8912015c3e64a498716da6cefe3f985e60001b620007b660201b60201c565b6000811462001615576200137a7fb4a3a3630c0c9767f60c5c1c80db2cf3410300342ce9836e8884d31d5b94b95060001b620007b660201b60201c565b620013ae7fd554ec3cb88eb40c74c6daba4a5c78c2deb776e0224a69d15f7ff4ba7db3e30160001b620007b660201b60201c565b620013e27fc4c4b7fccd54e59915f5bbc138504538f30e4478f364df05e33da7049d6d63ea60001b620007b660201b60201c565b600060075490506200141d7fabac5bdfda460ff7318f2f227a8e332fae4d305960f530c989e339c6164c375e60001b620007b660201b60201c565b620014517fc31f9794bfc938e6743f55edafa3bfc4803ae39f0872e8a6610b484fba95cb3a60001b620007b660201b60201c565b600082820190506200148c7f9b5b5e0770170c858dd9a83af0a8caf5a29bff4120ec57930939f9660e94797360001b620007b660201b60201c565b620014c07f513ef81a9b5da7e778533e59a53984765117fe9028a88b0d605772b90bcbd84f60001b620007b660201b60201c565b620014f47f3105da534cf8b8cc1d35308d92775b113eff17c2459205aa8eb5998313ef17de60001b620007b660201b60201c565b8181116200156a576040517f08c379a00000000000000000000000000000000000000000000000000000000081526004018080602001828103825260168152602001807f45524332303a20737570706c79206f766572666c6f770000000000000000000081525060200191505060405180910390fd5b6200159e7fb1db0c6c18210b5bd4dac396c547d7e9b4b77f74bffca52402ca421f94bc233160001b620007b660201b60201c565b620015d27f94cd230bf64d3d479ecba3ff2381c227c58cab061fa582c21118a27b4ef0074460001b620007b660201b60201c565b620016067f8ac8cf9bf4101a974552ce734d9d12bd2ec82a8c628b0cf73c77197054a93e9960001b620007b660201b60201c565b8060078190555050506200164a565b620016497f534874bb5c95905b6710526d9e5b9bbf9bf55c670ea3b24c7f154f0bd264d54d60001b620007b660201b60201c565b5b50505050565b828054600181600116156101000203166002900490600052602060002090601f016020900481019282620016885760008555620016d4565b82601f10620016a357805160ff1916838001178555620016d4565b82800160010185558215620016d4579182015b82811115620016d3578251825591602001919060010190620016b6565b5b509050620016e39190620016e7565b5090565b5b8082111562001702576000816000905550600101620016e8565b5090565b60805160601c60a05160601c60c05160e0516101005160f81c6190f3620017636000398061165752508061185c52508061178c52806151ff52508061332e5280618bf15250806133835280618b9c5280618c8752506190f36000f3fe608060405234801561001057600080fd5b50600436106101e55760003560e01c806373c8a9581161010f578063bbec9e3b116100a2578063dd62ed3e11610071578063dd62ed3e14610f39578063e0df5b6f14610fb1578063eb7955491461102a578063f2fde38b146110e3576101e5565b8063bbec9e3b14610d31578063c3666c3614610d5f578063cd0d009614610e82578063d505accf14610ea0576101e5565b806395d89b41116100de57806395d89b4114610b0d578063a457c2d714610b90578063a9059cbb14610bf4578063b88d4fde14610c58576101e5565b806373c8a9581461087a5780637ecebe001461099d57806388d695b2146109f55780638da5cb5b14610ad9576101e5565b80633950935111610187578063572b6c0511610156578063572b6c051461064e5780635afa8f21146106a857806368573107146106d657806370a0823114610822576101e5565b806339509351146104155780633c130d901461047957806340c10f19146104fc5780634885b2541461054a576101e5565b806318160ddd116101c357806318160ddd1461033457806323b872dd14610352578063313ce567146103d65780633644e515146103f7576101e5565b806301ffc9a7146101ea57806306fdde031461024d578063095ea7b3146102d0575b600080fd5b6102356004803603602081101561020057600080fd5b8101908080357bffffffffffffffffffffffffffffffffffffffffffffffffffffffff19169060200190929190505050611127565b60405180821515815260200191505060405180910390f35b610255611225565b6040518080602001828103825283818151815260200191508051906020019080838360005b8381101561029557808201518184015260208101905061027a565b50505050905090810190601f1680156102c25780820380516001836020036101000a031916815260200191505b509250505060405180910390f35b61031c600480360360408110156102e657600080fd5b81019080803573ffffffffffffffffffffffffffffffffffffffff1690602001909291908035906020019092919050505061134b565b60405180821515815260200191505060405180910390f35b61033c611445565b6040518082815260200191505060405180910390f35b6103be6004803603606081101561036857600080fd5b81019080803573ffffffffffffffffffffffffffffffffffffffff169060200190929190803573ffffffffffffffffffffffffffffffffffffffff169060200190929190803590602001909291905050506114d3565b60405180821515815260200191505060405180910390f35b6103de6115cf565b604051808260ff16815260200191505060405180910390f35b6103ff61167b565b6040518082815260200191505060405180910390f35b6104616004803603604081101561042b57600080fd5b81019080803573ffffffffffffffffffffffffffffffffffffffff16906020019092919080359060200190929190505050611882565b60405180821515815260200191505060405180910390f35b610481611fd8565b6040518080602001828103825283818151815260200191508051906020019080838360005b838110156104c15780820151818401526020810190506104a6565b50505050905090810190601f1680156104ee5780820380516001836020036101000a031916815260200191505b509250505060405180910390f35b6105486004803603604081101561051257600080fd5b81019080803573ffffffffffffffffffffffffffffffffffffffff169060200190929190803590602001909291905050506120fe565b005b6106366004803603606081101561056057600080fd5b81019080803573ffffffffffffffffffffffffffffffffffffffff1690602001909291908035906020019064010000000081111561059d57600080fd5b8201836020820111156105af57600080fd5b803590602001918460208302840111640100000000831117156105d157600080fd5b9091929391929390803590602001906401000000008111156105f257600080fd5b82018360208201111561060457600080fd5b8035906020019184602083028401116401000000008311171561062657600080fd5b90919293919293905050506121f8565b60405180821515815260200191505060405180910390f35b6106906004803603602081101561066457600080fd5b81019080803573ffffffffffffffffffffffffffffffffffffffff16906020019092919050505061332a565b60405180821515815260200191505060405180910390f35b6106d4600480360360208110156106be57600080fd5b81019080803590602001909291905050506133d8565b005b610820600480360360408110156106ec57600080fd5b810190808035906020019064010000000081111561070957600080fd5b82018360208201111561071b57600080fd5b8035906020019184602083028401116401000000008311171561073d57600080fd5b919080806020026020016040519081016040528093929190818152602001838360200280828437600081840152601f19601f8201169050808301925050505050505091929192908035906020019064010000000081111561079d57600080fd5b8201836020820111156107af57600080fd5b803590602001918460208302840111640100000000831117156107d157600080fd5b919080806020026020016040519081016040528093929190818152602001838360200280828437600081840152601f19601f8201169050808301925050505050505091929192905050506133db565b005b6108646004803603602081101561083857600080fd5b81019080803573ffffffffffffffffffffffffffffffffffffffff1690602001909291905050506134d5565b6040518082815260200191505060405180910390f35b61099b6004803603606081101561089057600080fd5b81019080803590602001906401000000008111156108ad57600080fd5b8201836020820111156108bf57600080fd5b803590602001918460208302840111640100000000831117156108e157600080fd5b90919293919293908035906020019064010000000081111561090257600080fd5b82018360208201111561091457600080fd5b8035906020019184602083028401116401000000008311171561093657600080fd5b90919293919293908035906020019064010000000081111561095757600080fd5b82018360208201111561096957600080fd5b8035906020019184602083028401116401000000008311171561098b57600080fd5b90919293919293905050506135a2565b005b6109df600480360360208110156109b357600080fd5b81019080803573ffffffffffffffffffffffffffffffffffffffff1690602001909291905050506136ec565b6040518082815260200191505060405180910390f35b610ac160048036036040811015610a0b57600080fd5b8101908080359060200190640100000000811115610a2857600080fd5b820183602082011115610a3a57600080fd5b80359060200191846020830284011164010000000083111715610a5c57600080fd5b909192939192939080359060200190640100000000811115610a7d57600080fd5b820183602082011115610a8f57600080fd5b80359060200191846020830284011164010000000083111715610ab157600080fd5b9091929391929390505050613704565b60405180821515815260200191505060405180910390f35b610ae16146e8565b604051808273ffffffffffffffffffffffffffffffffffffffff16815260200191505060405180910390f35b610b15614711565b6040518080602001828103825283818151815260200191508051906020019080838360005b83811015610b55578082015181840152602081019050610b3a565b50505050905090810190601f168015610b825780820380516001836020036101000a031916815260200191505b509250505060405180910390f35b610bdc60048036036040811015610ba657600080fd5b81019080803573ffffffffffffffffffffffffffffffffffffffff16906020019092919080359060200190929190505050614837565b60405180821515815260200191505060405180910390f35b610c4060048036036040811015610c0a57600080fd5b81019080803573ffffffffffffffffffffffffffffffffffffffff16906020019092919080359060200190929190505050614a84565b60405180821515815260200191505060405180910390f35b610d1960048036036080811015610c6e57600080fd5b81019080803573ffffffffffffffffffffffffffffffffffffffff169060200190929190803573ffffffffffffffffffffffffffffffffffffffff1690602001909291908035906020019092919080359060200190640100000000811115610cd557600080fd5b820183602082011115610ce757600080fd5b80359060200191846001830284011164010000000083111715610d0957600080fd5b9091929391929390505050614b7e565b60405180821515815260200191505060405180910390f35b610d5d60048036036020811015610d4757600080fd5b8101908080359060200190929190505050615034565b005b610e8060048036036060811015610d7557600080fd5b8101908080359060200190640100000000811115610d9257600080fd5b820183602082011115610da457600080fd5b80359060200191846020830284011164010000000083111715610dc657600080fd5b909192939192939080359060200190640100000000811115610de757600080fd5b820183602082011115610df957600080fd5b80359060200191846020830284011164010000000083111715610e1b57600080fd5b909192939192939080359060200190640100000000811115610e3c57600080fd5b820183602082011115610e4e57600080fd5b80359060200191846020830284011164010000000083111715610e7057600080fd5b9091929391929390505050615037565b005b610e8a6151fd565b6040518082815260200191505060405180910390f35b610f37600480360360e0811015610eb657600080fd5b81019080803573ffffffffffffffffffffffffffffffffffffffff169060200190929190803573ffffffffffffffffffffffffffffffffffffffff1690602001909291908035906020019092919080359060200190929190803560ff1690602001909291908035906020019092919080359060200190929190505050615221565b005b610f9b60048036036040811015610f4f57600080fd5b81019080803573ffffffffffffffffffffffffffffffffffffffff169060200190929190803573ffffffffffffffffffffffffffffffffffffffff169060200190929190505050615947565b6040518082815260200191505060405180910390f35b61102860048036036020811015610fc757600080fd5b8101908080359060200190640100000000811115610fe457600080fd5b820183602082011115610ff657600080fd5b8035906020019184600183028401116401000000008311171561101857600080fd5b9091929391929390505050615a52565b005b6110cb6004803603606081101561104057600080fd5b81019080803573ffffffffffffffffffffffffffffffffffffffff169060200190929190803590602001909291908035906020019064010000000081111561108757600080fd5b82018360208201111561109957600080fd5b803590602001918460018302840111640100000000831117156110bb57600080fd5b9091929391929390505050615b54565b60405180821515815260200191505060405180910390f35b611125600480360360208110156110f957600080fd5b81019080803573ffffffffffffffffffffffffffffffffffffffff169060200190929190505050616007565b005b60006111557fa4be51a5254660f8db8672ded4dc80aaabd88cb94a53a2222aea1d29a0dfaef260001b6133d8565b6111817f29af93af18a85966e0b034bb8a84411068391225c447b455c4dfa1421c377f7560001b6133d8565b6111ad7f1cb854f7bbb31c02b5223dae7eab340b12e58f84c90e12ed6cf60f93d8e682e360001b6133d8565b7f28963e1e000000000000000000000000000000000000000000000000000000007bffffffffffffffffffffffffffffffffffffffffffffffffffffffff1916827bffffffffffffffffffffffffffffffffffffffffffffffffffffffff1916148061121e575061121d826160d4565b5b9050919050565b60606112537f9af501d6d74813bd9f79398a17aecb103c67aece07ebc7cab488824d1c6a656060001b615034565b61127f7fad0282687166db44805fe8b6c7fbf35a02a5657b2d832bcb0d6bc994c337849560001b615034565b6112ab7fb4d6ab28b8ffd17016eabf0661ce941bb1c1403bec4015cd8ab2295eb0d49c6560001b615034565b60028054600181600116156101000203166002900480601f0160208091040260200160405190810160405280929190818152602001828054600181600116156101000203166002900480156113415780601f1061131657610100808354040283529160200191611341565b820191906000526020600020905b81548152906001019060200180831161132457829003601f168201915b5050505050905090565b60006113797f416ca2263b848c273beecb4cac95a621c3a493f874591ad2e9102d37f94d9bc960001b615034565b6113a57f2e61f98a6bafd678978dd9d20b4bdfb12614f9257a12d5f127195a5ec080e6bd60001b615034565b6113d17f05fac10b8952945a1a6026734e5f02f6fe73846d818777f4e78cfd98d4b5770960001b615034565b6113e36113dc61649a565b848461652d565b61140f7f1090a74941accb22b66efcab366428c4aa31de916843881a11ec4ff44597d97f60001b615034565b61143b7f8529a3a63f5e075bf3e78ba80e65680b26c4e5bf6cb3a0abc2f87cf5638833c260001b615034565b6001905092915050565b60006114737f38e8822c91e7b97bbac640257102111d03cdcd47279ed59b0c0445325568f18460001b615034565b61149f7fd54605552e9b8dc61e8f4681f7c08c56807ba4535ddec10a6aefea7d82e6e22260001b615034565b6114cb7fad45d939aa3eee42689667b83325239240892864752a60ffaf7f7e4857ef890860001b615034565b600754905090565b60006115017f1e4c59443df9e15ddb635ceff882437608f2bfa756d2f7aa243d69e4c3bab2ec60001b615034565b61152d7ffb6be6d8ac005e71c0d30ff398c4992f70059d450daaeb9d06b4210ea843c84560001b615034565b6115597f7db64aae479b761306c7bf17270dbb947b9a356a896b0b4fdb72c0bfc7e3701360001b615034565b61156c61156461649a565b858585616847565b6115987fd9eb9bfaefb98420eca1628b804aad582669d82b40289e34ab7abd1418f02e6d60001b615034565b6115c47f5265a06f2e0113d3558fc137b597c251795aadd4c5c30b60c8a4e96afed97a0360001b615034565b600190509392505050565b60006115fd7fc65841c71884691441c3127eed0b8644569c343fec4fb76f0283e14cd09e9da460001b615034565b6116297f46fad09e76c75decdef2670290f33660e75fdf80dac1c67098dc9551887eb62860001b615034565b6116557fa08f19c71e317ecc65b1ec2de043e1842dd6b65d8c64f106ef2a339397e908ea60001b615034565b7f0000000000000000000000000000000000000000000000000000000000000000905090565b60006116a97f250bcea77d914629c8b79ef7a49b6d8bba27d4be8eb11510244f65951c8e217d60001b615034565b6116d57f7b16575ebd991aab6a1f923b0ddaccfe3a803d1eba81f2b290b80436f573618260001b615034565b6117017f128dbc4f472e27b6a1905c04a0150e2aebb2b17ab8d9d44d43db07d239a4de6a60001b615034565b600061172f7fb2bb0ed281ce5262b8314983a7e98d55744c39fb866dccd84332271b1e4333e760001b615034565b46905061175e7ff990457abdb54f6a213854599efd48e26232e584581826435202209d73af0b8660001b615034565b61178a7f44a953d01a79bcf485b3aac43dc36cdb7484fbe60f0f93cf152c3e24f1b3d3c260001b615034565b7f0000000000000000000000000000000000000000000000000000000000000000811461185a576118558160028054600181600116156101000203166002900480601f01602080910402602001604051908101604052809291908181526020018280546001816001161561010002031660029004801561184b5780601f106118205761010080835404028352916020019161184b565b820191906000526020600020905b81548152906001019060200180831161182e57829003601f168201915b5050505050616a28565b61187c565b7f00000000000000000000000000000000000000000000000000000000000000005b91505090565b60006118b07f1c17b6bc380b91a8b0a5be56981c5d3ad847f669846cfe35ac92d1da29a3e72d60001b615034565b6118dc7fecd83eb0201c01b38cc1eb4a3030e3fa18904b283df26c8aaeda5e34ffa3b7e860001b615034565b6119087f3e2a6d85bc31a78ba09a5872bbaa2c3fbf9ea9207aef452eb0dba5bf2cb8e15c60001b615034565b6119347fad147017f57b2f601ff91c2886206b1a0e637771fceed11e937cd97784fecd8660001b615034565b600073ffffffffffffffffffffffffffffffffffffffff168373ffffffffffffffffffffffffffffffffffffffff1614156119d7576040517f08c379a000000000000000000000000000000000000000000000000000000000815260040180806020018281038252601b8152602001807f45524332303a207a65726f2061646472657373207370656e646572000000000081525060200191505060405180910390fd5b611a037f7ee9071f6e5bb201500c87c7633521d55b9a25753a5cced19360d496497d480060001b615034565b611a2f7f871983adea94cffff02b16ea8edb977bed6598e234ffeb2ef7f9f8baf0869d2a60001b615034565b611a5b7f7564ed50660cc4fd3776f0e55ef474b52e5f9ea0bb5dd9b6fbeba9c731e4230160001b615034565b6000611a6561649a565b9050611a937f35fe309d469157be57e793c616637854dc0cadba3c302c95badb4ea9f69d625860001b615034565b611abf7f8699fd1714315f26f0b0910233b21ab5ad4b4d14da90c39e301642208349d33d60001b615034565b6000600660008373ffffffffffffffffffffffffffffffffffffffff1673ffffffffffffffffffffffffffffffffffffffff16815260200190815260200160002060008673ffffffffffffffffffffffffffffffffffffffff1673ffffffffffffffffffffffffffffffffffffffff168152602001908152602001600020549050611b6c7ff18ad36a832d090b00491871537d37995f3020ad933c3fa3a8f5c40db5d9462360001b615034565b611b987f0989a22f78a0cccf3e9d5626cc0375a99a2df36335f721e22772662a1fe11ebd60001b615034565b60008414611e8a57611bcc7fd3e7b2111d39934c964fb0af24a209e781810c16f528206c03b143cedd5690e560001b615034565b611bf87fc6ca77780a4affac2640810d1133538d503dac21076cf0808557093c19dbc81e60001b615034565b611c247f80675552ed196645eeff9f3b7f66c678ae872217e2a4a757fdd846ce0af3286360001b615034565b60008482019050611c577fdcebe991d9a22eb9579c9549a4eeb6e104e430a75141310da1337994382fea4c60001b615034565b611c837fb21f28e76acfaccfd806c3927140fb98655a1402ddd8579ea85979ad3161f4eb60001b615034565b611caf7f274e8f4708f39243762af49e0ba297aec40457579612de43acc41f2046f07a9060001b615034565b818111611d24576040517f08c379a00000000000000000000000000000000000000000000000000000000081526004018080602001828103825260198152602001807f45524332303a20616c6c6f77616e6365206f766572666c6f770000000000000081525060200191505060405180910390fd5b611d507f3963dc5676bfd7cc3c6e7e5ae6774b2df6a76d99d9575956e32113b1fe4d160560001b615034565b611d7c7f8e46572da8fa846a41015a93059488c0faa4eeacd0a0b52b3cc096d187abfecd60001b615034565b611da87f6b13179d8ccdc19d3c36620d378622f383a34944a5e62dc3d84445dd96041de160001b615034565b80600660008573ffffffffffffffffffffffffffffffffffffffff1673ffffffffffffffffffffffffffffffffffffffff16815260200190815260200160002060008873ffffffffffffffffffffffffffffffffffffffff1673ffffffffffffffffffffffffffffffffffffffff16815260200190815260200160002081905550611e557f2dcf1e6acbc19d4d3fcfce809f61ead832acaa989663682c88da80d91154588960001b615034565b611e817fff24410fb6ddd95a336f81792d3a5e7c2b367d3911ee584fdf273539d0cb751760001b615034565b80915050611eb7565b611eb67f2c1eeb6d6b895b8aa081a910edc069f0319d873661ea4b0d596873875604769b60001b615034565b5b611ee37f72181b23a4e67be39a74415773a17cb38595560180e0a62c29a9ebc5c755287260001b615034565b611f0f7fb9521cdd1137115b690683fe3aa6e9fde984094da1bb3ac663904c8b4fc4348f60001b615034565b8473ffffffffffffffffffffffffffffffffffffffff168273ffffffffffffffffffffffffffffffffffffffff167f8c5be1e5ebec7d5bd14f71427d1e84f3dd0314c0f7b2291e5b200ac8c7c3b925836040518082815260200191505060405180910390a3611fa07f59637bb3f4c8efdfa631c0054039986c8f10600ab52ee539152f9644cf72446f60001b615034565b611fcc7f9b7480db72a22df7455d7f82a75163d49aa674e4c9ad766312639635de90fe1560001b615034565b60019250505092915050565b60606120067fd8c7f8cdffc297b5d9975d5eca30b9105005902e80d051c40350ad9a3ac4d5cb60001b615034565b6120327fcfbe76c106a8a513fe41155f4c15cb665e294c62a622c12625f504cae218798760001b615034565b61205e7fca42029069cbe00ed4b524f583bc5ba883cbe455aaeed0d0ea7e0aea55028cd260001b615034565b60048054600181600116156101000203166002900480601f0160208091040260200160405190810160405280929190818152602001828054600181600116156101000203166002900480156120f45780601f106120c9576101008083540402835291602001916120f4565b820191906000526020600020905b8154815290600101906020018083116120d757829003601f168201915b5050505050905090565b61212a7f914768d124d49408b4e691e9c96dd3b6ba172624972a34bd7606e9f5386166b460001b6133d8565b6121567ff9c31dc3aadb4094e022084b0a1fd9a4e65fa93f29f2b2330a51749d854ae51a60001b6133d8565b6121827fe831b14c625329c46e483bed47f4a19a972802d16492d61d6c81073b36eaae9f60001b6133d8565b61219261218d61649a565b616b5a565b6121be7fcecf54145afc2a302cbcd91add06564a3afa817f36c24de9ee8479e838ab358b60001b6133d8565b6121ea7ff6fb2b7fa59722f7c4f49aa6e0a99e443e7cb3d0e3f8dcaec39e1e4f77c635be60001b6133d8565b6121f48282616c7e565b5050565b60006122267ff7200401a38bc896178e927b509d0d01a5a79aa966a1a728d7af1317440c128160001b615034565b6122527ff490f61ce2888b63740cca17bcaa2c8163a33b9a963516eacda42d4bae4f75f060001b615034565b61227e7f7ecff817ed22c5aa2826514a3020f076abb759fee85a5bc8d350787f4ba90aa660001b615034565b60008585905090506122b27fa4682a38512b45eec0aaa3f684ce6e993d9b4c1d179da8f7e66acfeb8de9309e60001b615034565b6122de7f3c3fc48ce16f4083668937c8af329b8c140747f0f096cf36cc5ff6a3c9bfbca260001b615034565b61230a7f7498d4c989c9b99b6431c402a345f440563e886eb9600606f534b89578d4c6fc60001b615034565b838390508114612382576040517f08c379a000000000000000000000000000000000000000000000000000000000815260040180806020018281038252601a8152602001807f45524332303a20696e636f6e73697374656e742061727261797300000000000081525060200191505060405180910390fd5b6123ae7f82f9bf4b0e8832647d160b642928efbd2118a2c4d304b5e05fddc84c29b2ed8f60001b615034565b6123da7f32d6f53f929aec23b53821debd370b1b4641a2f6c046a9370179d9fb717558d460001b615034565b6124067f5f417b4bb8db4439fd26b1bde956dc5fff1abfe3453e1dec589603bd3b282a8360001b615034565b6000600560008973ffffffffffffffffffffffffffffffffffffffff1673ffffffffffffffffffffffffffffffffffffffff1681526020019081526020016000205490506124767f2a0f118d0cfbacd01ec89fb819c0d3e33091e03c5873a1ce0d385bf9c2383d4360001b615034565b6124a27ff17762718f058334d922b91ff67fb41305fd6aaa8d2c414ff277eb7b82008c7360001b615034565b60006124d07fa5b50e9323ecc522970204f4cf108f1a4bbb5e1021718efebae51eb8feabe6b560001b615034565b6124fc7fcdcd1f789e44168e230362a103cabc9d49296de06aebd92287bfd7cd463b3e1760001b615034565b600061252a7fd805496487dadf280742ffe23d91ebdd790dfb3707e769ef448252e516e975d660001b615034565b6125567f940abc35a6d171adfa8d549f11538a18dcd436372bfd6475847b70bd577534ce60001b615034565b60005b848114612e205761258c7f1a7c810ca0ab34ea6330994e787f12b4898bee1717ec0267695b82c1ac0c6de360001b615034565b6125b87f8e727726f002a39c2bcc873841e9ea4b6ada33a503e3a4bb15dde8a2a3d50a3260001b615034565b60008a8a838181106125c657fe5b9050602002013573ffffffffffffffffffffffffffffffffffffffff1690506126117f435f7721b70efa895c39623e4ab027a2ee3a43e4d4bd4061b726da9fa8a4241760001b615034565b61263d7f14de14d7e5a268394d29f92863328caa2b14e3682f0117245c31b4982e35c69260001b615034565b6126697fb8f81449c93381caafec318d1b1f7494b20fe7443a62fd8af447adeb13590e4b60001b615034565b600073ffffffffffffffffffffffffffffffffffffffff168173ffffffffffffffffffffffffffffffffffffffff16141561270c576040517f08c379a00000000000000000000000000000000000000000000000000000000081526004018080602001828103825260168152602001807f45524332303a20746f207a65726f20616464726573730000000000000000000081525060200191505060405180910390fd5b6127387f3f9375e82c97ea5856a8abadeb3647dca50c4282d8975dca6a236bf8f989398960001b615034565b6127647f7a3540b77d5587fe408e07d34d7e4282bcc19c0d0e466510d19811da7eb0dcfc60001b615034565b6127907f800f514a754d8c914d689965d16c4750c692efefdedd0dfdb212c32ee4345b7a60001b615034565b600089898481811061279e57fe5b9050602002013590506127d37fc1c378871c9089c5da3defc6f49dfc9b815631f5d7087b5ee364ebb7ff81332660001b615034565b6127ff7f2c236f6ca84a2d906c4e582e92e8792f1446f39baae1ae347baba91291b389be60001b615034565b60008114612d29576128337f6a129e6a9016103040bf2f58ff6d15068c4a494007c8692f80cf42f285c688cb60001b615034565b61285f7ffd50badf5699fa7608223621c8e37629b75f870748b588416c5f4ff63c0b6a1c60001b615034565b61288b7f279e209f2aaa0d7feb412eb5e7983918e028bfe2552e86be8bc2942727afd05860001b615034565b600081860190506128be7f7d0895a6c80d34ae02930d1d3a1eff0bc9850d3cfcd3c0978317abc520c8f50960001b615034565b6128ea7f0e3b216b12eb9f112389626cc24c58a6dc27ebb7fb9e62a8509a6998ef52a55160001b615034565b6129167fa7f80aef8f2ed551c17f8328de0c229ba9bc6f615bc02b1a09b7da19889edf6460001b615034565b85811161298b576040517f08c379a00000000000000000000000000000000000000000000000000000000081526004018080602001828103825260168152602001807f45524332303a2076616c756573206f766572666c6f770000000000000000000081525060200191505060405180910390fd5b6129b77fa5b9c872a43f02fc3f13e588b47164147bba66a426da75ed779de22d1053b52960001b615034565b6129e37f400985eebeb001b96f28ec85026e381522b0318ee4145a2a14a11b9940a6607960001b615034565b612a0f7f86aed583fd3ad101bfafceca2eebd874d12af74800747cc5686c0cb94932e35c60001b615034565b809550612a3e7fcd6778cb5a6e8d84db9e71028ed4f6e586042a34d226decb8c78828dbed55b8760001b615034565b612a6a7f16dfb3031186a338288fdc313debc65df83dfc42716879514fb9c4ee4230695660001b615034565b8273ffffffffffffffffffffffffffffffffffffffff168e73ffffffffffffffffffffffffffffffffffffffff1614612b7357612ac97f25750e2e45411bbdda5986305a1fade06f8e5530e6c57403f994811045ab4b5260001b615034565b612af57f6ab138354575fae9931f3ce437fec2f229f2834ca63231346df2b68cd7cb6cad60001b615034565b612b217fdbd1fdcbec02f893d069b8f1ab6deb085241564ca611d12b5fb9ec51302655fe60001b615034565b81600560008573ffffffffffffffffffffffffffffffffffffffff1673ffffffffffffffffffffffffffffffffffffffff16815260200190815260200160002060008282540192505081905550612d23565b612b9f7fd7cb6ac457603b19c0a1f43ca682c745ea31d2bdbf35bdfef06b2f0e2462a97560001b615034565b612bcb7f4d92374a10808d46d6aab1eb0cda72c1d78e1b3dfda564e2b27f02dd8690d40d60001b615034565b612bf77f811747dce95ebd8b6ec70dcdb0a6066831e1605f6fe52716942eccb63b1d5c6f60001b615034565b612c237f6726754803fa98b216ab3c3bf06e2353c1a6f1832bf530973a65cb06f07847f460001b615034565b86821115612c99576040517f08c379a000000000000000000000000000000000000000000000000000000000815260040180806020018281038252601b8152602001807f45524332303a20696e73756666696369656e742062616c616e6365000000000081525060200191505060405180910390fd5b612cc57fc90a639f0f7e611c64b36c36ba114fbfde66e3a3aa641bdadca64837570f632460001b615034565b612cf17f41c233d7191224232af4b55eb79bef7d6c83284f6c4042c319ce22ba13ddaf3460001b615034565b612d1d7f69f09bafc9e6acfe03a94509a3081fb878c7d3456fd68d3e8d898e8300efa6f660001b615034565b81850194505b50612d56565b612d557f95705870fe7adbe8730a32d571c56f0f8feb761ad95f1022b0e15705440d0a0860001b615034565b5b612d827f3e76ef852d5633e83cb723acc90c7ff7ccf47de942d9144990a60328a31f47b260001b615034565b612dae7f8152b42f4aec0f9406deda351c04719c0de8a2f527bfeae0b9c829de609d767960001b615034565b8173ffffffffffffffffffffffffffffffffffffffff168d73ffffffffffffffffffffffffffffffffffffffff167fddf252ad1be2c89b69c2b068fc378daa952ba7f163c4a11628f55a4df523b3ef836040518082815260200191505060405180910390a35050806001019050612559565b50612e4d7feae0d342d086df9f4888d7d01ccb45c3be2b5bf413f7b67cbee6b1c7f1d87f4e60001b615034565b612e797f1cbdce65df74bd3d4266b49335f6e815a483e6cb8c909910a594ad66e2cc529460001b615034565b60008214158015612e8a5750808214155b156130e357612ebb7f335dfe2c7bab6f2e8625e98d02b131a7e8117a30ab7dfd0fe01b20afe43d1d5560001b615034565b612ee77fa4cc473d71edb8579a283d2848095a2e3cdfd5b47c4cdea6087d641e8d218a3560001b615034565b612f137f18bc253f51c1cd3ddc73e6d8387209d615295a67473d864de8cdfb4f0f6c3e2560001b615034565b60008284039050612f467fa1fa8375a950207f517ff4eecccaa5428058b59eff41998605cc45558caaab8760001b615034565b612f727f086610c4a534650bf27b59d17a3059d278e1eff055a5ef78f253b5427733639160001b615034565b612f9e7f5034048a813ad8ff6df92f2aca9759c080251e0ce5c8e8a8752402d93188a37c60001b615034565b838110613013576040517f08c379a000000000000000000000000000000000000000000000000000000000815260040180806020018281038252601b8152602001807f45524332303a20696e73756666696369656e742062616c616e6365000000000081525060200191505060405180910390fd5b61303f7f7b68f181e286f36970fdb749fdb675fcde7f58e75ff2486270e84f839434714160001b615034565b61306b7f64f4d251116a850c888c8472adbe932e6f98e856444f0762339afbab8930f10560001b615034565b6130977f80abb3c17c2c289be3aa988385f52e70e7f8d7e249040bada572e912c9b67c8c60001b615034565b818101600560008d73ffffffffffffffffffffffffffffffffffffffff1673ffffffffffffffffffffffffffffffffffffffff1681526020019081526020016000208190555050613110565b61310f7faf4ca0c067e025f825145c4a3c028dd075403adfc54232684fcb49f245788b8e60001b615034565b5b61313c7f7acc7cae163b21d3c7b0e3139797267d60d69454071c7b7778a998d17846f55460001b615034565b6131687f4483ca6b844bd6090678dc2f4bd50e08b81eae79be7c5c069cc478a89c93d1de60001b615034565b600061317261649a565b90506131a07f928643c4eae9e29cd6aefa5629c09d049747fb60019d13ec67a53b461ca04d0460001b615034565b6131cc7f8c45edccb031b7da265b8f551e4e37d46eec63e925700955eea931e57bf5f1b260001b615034565b8073ffffffffffffffffffffffffffffffffffffffff168b73ffffffffffffffffffffffffffffffffffffffff16146132935761322b7f073dd681347e0d9cf6bc401eac104f316824740e3b0843332f50e6c46e2c70a460001b615034565b6132577fad00eb7fc5f48758487d4fcfc90acdb49fc2c56713723ffbf5a7fc21edc6900e60001b615034565b6132837f3fec7ee5c87710982176dadcbbc70b46207db04554c18b74acfde7ee025a06d860001b615034565b61328e8b8285617265565b6132c0565b6132bf7fa8db448361d0956a91cf8ca8cb263ca28ab8568231f86d0eeb56d7504c55fba360001b615034565b5b6132ec7fba0dbd5b4c37723818f725072bd41d805f65efc0823b892d1f97f9ec93412c8b60001b615034565b6133187f30c906576eb61245f8a1050af94e9522d2e25edde4578086fb7d45a94f99314560001b615034565b60019550505050505095945050505050565b60007f000000000000000000000000000000000000000000000000000000000000000073ffffffffffffffffffffffffffffffffffffffff168273ffffffffffffffffffffffffffffffffffffffff1614806133d157507f000000000000000000000000000000000000000000000000000000000000000073ffffffffffffffffffffffffffffffffffffffff168273ffffffffffffffffffffffffffffffffffffffff16145b9050919050565b50565b6134077fa56505d3f611bbe0820a0ae2b40af2222494b95592e85f1d42522962dec4b30d60001b6133d8565b6134337fddafdab694f2a762424b970f858391161c82b9351006c9b206600b8b6bd7ce2760001b6133d8565b61345f7fd41ea8ac08a2cf82876b1e7d777502f7c487859b1f30e7c74f382be3f86ab91860001b6133d8565b61346f61346a61649a565b616b5a565b61349b7f9bebd55f3fd87b814cb6ead046007dd2d5639651b92692f3c01b007943bf741b60001b6133d8565b6134c77fb9caa75c52e698358f6d0b878e903037e5c3b824b311250b6878e8fe77d0e93e60001b6133d8565b6134d182826177d2565b5050565b60006135037faf6510b656d01c558643a829cffcb27a9b61e4f011921b4b3557e8d90fbb4ca660001b615034565b61352f7fa27bf65f816cdc2338576634e0d49cd95220448794f3c01069541cc318e63e8360001b615034565b61355b7f504bdb8539eb7bbdd9b97c38b8f5b2db6b7d72a5f52b4cf6352a609b83207cc360001b615034565b600560008373ffffffffffffffffffffffffffffffffffffffff1673ffffffffffffffffffffffffffffffffffffffff168152602001908152602001600020549050919050565b6135b26135ad61649a565b616b5a565b600086869050905084849050811480156135ce57508282905081145b613640576040517f08c379a000000000000000000000000000000000000000000000000000000000815260040180806020018281038252601a8152602001807f5265636f763a20696e636f6e73697374656e742061727261797300000000000081525060200191505060405180910390fd5b60005b8181146136e2576136d788888381811061365957fe5b9050602002013573ffffffffffffffffffffffffffffffffffffffff1685858481811061368257fe5b9050602002013588888581811061369557fe5b9050602002013573ffffffffffffffffffffffffffffffffffffffff1673ffffffffffffffffffffffffffffffffffffffff166183889092919063ffffffff16565b806001019050613643565b5050505050505050565b60016020528060005260406000206000915090505481565b60006137327f36dce1c0a9e8f2acd20eb315901ab7ccd1d73659391c625f0cf3d2a1fe3308e760001b615034565b61375e7f658bb304eee077b21e91e64ae86a4bd335a2b057e7c6985b336e46fac77607c660001b615034565b61378a7fe7f8b1e40503dc8205e2a254d615cd73e4849dea989dd07fb3c719dbfe388b0c60001b615034565b60008585905090506137be7f75ae101b6a7d2dd2fca27e06f67826ce748f5d7d9c09671f9e7828d4717730a760001b615034565b6137ea7fe3f27090027d88acfd1b759916643f78eef89c36e027b0eaab0a68d388bf924760001b615034565b6138167f77261a0ea1605354d068ce5abe171f2da4c0487b91262ac98b1e697dbbd64fa660001b615034565b83839050811461388e576040517f08c379a000000000000000000000000000000000000000000000000000000000815260040180806020018281038252601a8152602001807f45524332303a20696e636f6e73697374656e742061727261797300000000000081525060200191505060405180910390fd5b6138ba7fbcb64d285fd01610abcf6aa580a576c575e1d8bcde98c2ea8a727f411b969eb560001b615034565b6138e67f454d563a03d59baa83fa3408aeef544a9579814e321c861a7782619620169cfb60001b615034565b6139127fe6640b30e190403ee2cb1d7e532e0a53ff32f61383010c8125f3b3bf574c0e8660001b615034565b600061391c61649a565b905061394a7f031a1f2d5d901d68256e9fefcb4126791da39ca99fcd96ced77f48630e17839160001b615034565b6139767f5fd923802db602e1a20ab918561d4c0b5d4d98c30c26384d25388ab773a1613860001b615034565b6000600560008373ffffffffffffffffffffffffffffffffffffffff1673ffffffffffffffffffffffffffffffffffffffff1681526020019081526020016000205490506139e67f092fff64f8db892c99dd77096c3ca32fa4f59dc31a2d65fe16816c5362f4eb1f60001b615034565b613a127f8d214c48c3917b839c7d04027f063e12fb03d1575a1185c3fa8dc664eed4fcfc60001b615034565b6000613a407f2ba05cc2ba5dd26087de4641afd48c9149d17031df6e159da84b59f8a194777a60001b615034565b613a6c7f10109886322e42d3114a5d9dd78d054817441dbe8bbcfde30ae990777e6b950660001b615034565b6000613a9a7f608bad52219acede4e39248dce767d9d77751271b49990ef4a321254fd675c4160001b615034565b613ac57e6b9669359e58f5a97c8348b6b45e2508cca350064b625ef23a5216f54e122260001b615034565b60005b85811461438f57613afb7fc09b9820abeddea647ad499eca3d4d9a7ff108019ea289d0f433dc11f2962ae260001b615034565b613b277fccc8edcbdd7a7474e25d81233319591f32d9143733acd6fb06103d9200f693f560001b615034565b60008b8b83818110613b3557fe5b9050602002013573ffffffffffffffffffffffffffffffffffffffff169050613b807f0f2eb2c04df4aabb0ccb0f48a1259aaedf6fa20d2d3533e28d2e0606ef5e608d60001b615034565b613bac7faf645f21ea9e1c26d017dcbae2198f445933f36d8248b3eddce01ac6fc4cd61160001b615034565b613bd87f19cd3bb810f02cec8db45733c9f269fb46ef9e52b49f468ba765ec7de8d1fabf60001b615034565b600073ffffffffffffffffffffffffffffffffffffffff168173ffffffffffffffffffffffffffffffffffffffff161415613c7b576040517f08c379a00000000000000000000000000000000000000000000000000000000081526004018080602001828103825260168152602001807f45524332303a20746f207a65726f20616464726573730000000000000000000081525060200191505060405180910390fd5b613ca77f740eb951917aa43d3af4cdd7b4592f5ed5b25eb2861ea4293cdfe8fcef4ca4f460001b615034565b613cd37f468408a8ec4193b71be0a4b6a27d1b85cfe6db2820ad9616e0216b9480a5c7ac60001b615034565b613cff7fcde0ffc376bb880affead61fed844b72985527e3847efc849925ba6f1ee00b4e60001b615034565b60008a8a84818110613d0d57fe5b905060200201359050613d427fee97907d57103c3128c7488a8231956000ceb4eda1d004ccff0b4287d49b078d60001b615034565b613d6e7fe29cca4c540157aa7440801021870222779360aaba90cb369a2409bc5c1db8ec60001b615034565b6000811461429857613da27f0851e779049e5acce41bf7aa879dccd890cd322938e8f5804ceb70b6d1b5afc660001b615034565b613dce7f66f92b4a36afce9f68d42fa5a02d7fffdb110783bfb3fb23a88c53df81d54c3d60001b615034565b613dfa7f9f7d6e955251a2a07bda636446881037017f6d31794a9d57166d57396d5ca89460001b615034565b60008186019050613e2d7f03d343941d8f6d1946c3982335298e36a5538a1d07cf129cba8cec3fe33585ca60001b615034565b613e597f151844943a7db9a3dd1ed760f3df27f183ace41fb09e7d9df12174e86678016460001b615034565b613e857f9e5d0fde2d898a1decc3105c57df41d1caa99087ab629f1c5112c954dae1c15560001b615034565b858111613efa576040517f08c379a00000000000000000000000000000000000000000000000000000000081526004018080602001828103825260168152602001807f45524332303a2076616c756573206f766572666c6f770000000000000000000081525060200191505060405180910390fd5b613f267f860f947499a0ff628c5b9175181f65bc4a0ea2d820717a84ec5c9e8edb54c0d760001b615034565b613f527f752ff33bfbea31ea8b4682471a9f66c03f504b26004bb58e85a85243fbb4ecf660001b615034565b613f7e7fe11a764daef8acf6269a53cd7096d59f955a4116cef92319e66eb8acb1443ce160001b615034565b809550613fad7f4b412ae673abe1b08c331868720bbf1b6f18bf23fa68046d1861725b5bf769b960001b615034565b613fd97f209096d6178d18ba626e430c8025d3dba3fec64dd2145d964d674ccfac34cc2f60001b615034565b8273ffffffffffffffffffffffffffffffffffffffff168873ffffffffffffffffffffffffffffffffffffffff16146140e2576140387f3b51e109b4a35a41567fdb354470fd3fffe988d4ea19a3019340c7df7449b05360001b615034565b6140647feb780cd8dece157902c05b16afc302b0adce7708d6543609dd092a9e646578f060001b615034565b6140907f113bbaffbad4d03b28d832a59614ba7c50d6a0920c76289aeadb71fca3a409d760001b615034565b81600560008573ffffffffffffffffffffffffffffffffffffffff1673ffffffffffffffffffffffffffffffffffffffff16815260200190815260200160002060008282540192505081905550614292565b61410e7f4357b81c1e8c6c8b1d0ee03aa7f71a74b13775d5376c391a74070946e77b1f2560001b615034565b61413a7fd652acde2368d709ad76ddcc227ff68403d9819906e520b692cd3297d216703360001b615034565b6141667fe66d5e4692b519879d6c4c8805ae1109fea60a0affe88ad11dc90a6e85f6ca9660001b615034565b6141927fcc6d76953523d7530b78bf4af2e6f293809eb82cd210422024fe3ee45ed53d8a60001b615034565b86821115614208576040517f08c379a000000000000000000000000000000000000000000000000000000000815260040180806020018281038252601b8152602001807f45524332303a20696e73756666696369656e742062616c616e6365000000000081525060200191505060405180910390fd5b6142347ff56aaf50a3f11ca31449c592194d631f19e9c664e52a873e69bee10b10e694fd60001b615034565b6142607fb75b414157439ab5f7a44caf1cd36b65b42f76b4adbdbafc27a3f1e887f7f4e860001b615034565b61428c7fefd9b57db00e26ea1253a0f3825b34eda1237f25bed7792703139a7df309466160001b615034565b81850194505b506142c5565b6142c47fc74145e24585e8812b1654bb7b4a38e26518e0c496a3c38536e5c1783896c32260001b615034565b5b6142f17f7f65033f22f6802a932b55dfcc4fe4b675899be8597abac42ef9949011ad42fe60001b615034565b61431d7faf58c048e1263ac2fb385ae9d0e6c390fe0e1d503ad05162fe915ba638d2ca8360001b615034565b8173ffffffffffffffffffffffffffffffffffffffff168773ffffffffffffffffffffffffffffffffffffffff167fddf252ad1be2c89b69c2b068fc378daa952ba7f163c4a11628f55a4df523b3ef836040518082815260200191505060405180910390a35050806001019050613ac8565b506143bc7f505999a18b5ab0bfc0c4b3fa58fe537056957f630e1c18c380ae5e72aaa5909d60001b615034565b6143e87f29fbee7d00c9c503d31fdc2d5e5e34f4515f478f409fcf1a85903e817780594460001b615034565b600082141580156143f95750808214155b156146525761442a7fe00b6a4f3220bca4d304ed203dc7d3b104e0b65301f5d5369a3a43216c5674dc60001b615034565b6144567f4d2b93e24ed72683f733e56ec0dde271bca680ec64072670b0122e707e1874dd60001b615034565b6144827f55ad5a130ea663d155c1b0f190a81c66800b49e8055507cda100ffb2f40fbb4560001b615034565b600082840390506144b57fafa4576e288ee6e295c5a9fd820d49d00845f3553980cf6eafac4bdeb01794de60001b615034565b6144e17fac4dac563959ef5f976f64bfe3afffc554e23655e4850baa0184639b7f899a4160001b615034565b61450d7f722193c0156abf75c3e5fdbd9de7430b67420cd50dc94fc5eb139cea45e9364d60001b615034565b838110614582576040517f08c379a000000000000000000000000000000000000000000000000000000000815260040180806020018281038252601b8152602001807f45524332303a20696e73756666696369656e742062616c616e6365000000000081525060200191505060405180910390fd5b6145ae7fde4aa99655404cbe4f32bc8b27fbb66d8025b0e38b5a8cd93a3d8adcf5b598f360001b615034565b6145da7f3dc9c9ae21c691eb33d2a7a104aaffb46714ba721b3c539843ae7dc12fa82ef360001b615034565b6146067f3384725aba087476a352ee88b4bb83897d454c2001d3249c46f577f0041b023d60001b615034565b818101600560008773ffffffffffffffffffffffffffffffffffffffff1673ffffffffffffffffffffffffffffffffffffffff168152602001908152602001600020819055505061467f565b61467e7f96cc9f008d9982e70f1f0bb8adf802828ae8d53ca62bef2f4cfcf3a81c0830a160001b615034565b5b6146ab7fdb418a7169e6a0592423b7fc9fe855a3f53f9f1fa8a2918b5b3dc30dffbcaef960001b615034565b6146d77f6186f4137f7698c514362d57007b5af97d5d21283e597058ba6eb7a05f61073060001b615034565b600195505050505050949350505050565b60008060009054906101000a900473ffffffffffffffffffffffffffffffffffffffff16905090565b606061473f7fa720545d98fb7f42715ed4d5941edb346bb63e0fd1d859a26b6e126d40af385160001b615034565b61476b7faea62c8cfd0590f9f53c867313bea30d6aadc26fe4b817a00fd3325a727703cc60001b615034565b6147977ff24e710780a0f8c903bb5211e93f752083774507c65a7e4d4388e48826ebfdfd60001b615034565b60038054600181600116156101000203166002900480601f01602080910402602001604051908101604052809291908181526020018280546001816001161561010002031660029004801561482d5780601f106148025761010080835404028352916020019161482d565b820191906000526020600020905b81548152906001019060200180831161481057829003601f168201915b5050505050905090565b60006148657feab1b372dd52356ba09929967e21d0dc341ddb156b48b20cd8bf5914f1c352a560001b615034565b6148917ffca3473c59c91432dc003b80958a167b14c399670af45dd698192d57b5ce967160001b615034565b6148bd7f79dcb37e555affe9515f548559ea927a573349058a1b1734ee96a02642e0057b60001b615034565b6148e97f71786fc87a98982b466ac33a920d2370895c9afe591ed603f6c309066859b01b60001b615034565b600073ffffffffffffffffffffffffffffffffffffffff168373ffffffffffffffffffffffffffffffffffffffff16141561498c576040517f08c379a000000000000000000000000000000000000000000000000000000000815260040180806020018281038252601b8152602001807f45524332303a207a65726f2061646472657373207370656e646572000000000081525060200191505060405180910390fd5b6149b87f84848eafcab678a7263ac53234d91780c9c314f05849c42d9025d2c069b82ae360001b615034565b6149e47f4678e92ee9cb4bd18622e43ae5ac464f1f3227493ae9cf97e93f2b6ec725984c60001b615034565b614a107f42f2e48a82ca21748b6b34c1f7598cd272cc0d1f2e2c487da8efcca37577272160001b615034565b614a22614a1b61649a565b8484617265565b614a4e7f5af985276cd153971f961d8baa4ee063c6b35ca3c57b547a697d1821711be43060001b615034565b614a7a7f08fec270ee1147b025fb0dc3bdd4b6651ddffc4c495cfafe1bd41c00a9c04e0560001b615034565b6001905092915050565b6000614ab27ff7b3efbdfdf5bb59a61d4cfe0697a0d1968684e27f58495bcdaa2cf67b71ce5360001b615034565b614ade7f8defee9f3f13fdd061ac975299a8d8f3bc4d537bddac2eb8a19279aa163e8a7960001b615034565b614b0a7f569cbc49bf2cfdc900addce274b9e69eac58a5eecaa4404a1ebe8670b322cf7460001b615034565b614b1c614b1561649a565b848461842a565b614b487fb81f8c67dee055e8dee10cda56419903ff52c40c36d467b5f303cb8ab9fe367f60001b615034565b614b747fbfd7bb5e82206557021e99dce10522851fdcdc96b81b9c3bbd52b682c7b9e26060001b615034565b6001905092915050565b6000614bac7f9e5bbe52fa1073e368c0257cd32b5921ba0bf8613af52d8f94b898677b81801760001b615034565b614bd87ff145f591610c65b5f6a7f6558b7e073b24bfcd1b0b6603e6a51e69e299cc169b60001b615034565b614c047fbdb986566b6fe2bdb5067f725908d235bd37061ee025767df5a4b23755374e2c60001b615034565b6000614c0e61649a565b9050614c3c7f0708c12144730737f56b7e26bde8d1779d495f5af65dc3096378ca6339bf2e7f60001b615034565b614c687feb45a7a95624ce4c70d467d41c137661e614f592e4c8714d0d3d09bad4dac3ab60001b615034565b614c7481888888616847565b614ca07f1fd737f43548cc9152aa176ace0846bcd020c7db108c1a3d35aa894fdbe9f78260001b615034565b614ccc7f9e1de48bcb6249f60e87edec3d9c75feb4177478811a16402b9a31f74a685b5660001b615034565b614ceb8673ffffffffffffffffffffffffffffffffffffffff16618b75565b15614fa157614d1c7facc1daeb33c27ca5ff394179c759c2a40d110105aecc8b587946296740b5ae6260001b615034565b614d487f258f93739b28070280d845c4123d01a9c82989bb303e7c595ff86741ae6b834060001b615034565b614d747f3c0821a8f6272ae4b7f728ae94c86e7d4d8db6811907e321d2b696a4804cfd9f60001b615034565b614da07fe4b610991d34e9f015362306bf33cb083b1202355d7928c3a22853fa6745215460001b615034565b7f4fc35859000000000000000000000000000000000000000000000000000000007bffffffffffffffffffffffffffffffffffffffffffffffffffffffff19168673ffffffffffffffffffffffffffffffffffffffff16634fc35859838a8989896040518663ffffffff1660e01b8152600401808673ffffffffffffffffffffffffffffffffffffffff1681526020018573ffffffffffffffffffffffffffffffffffffffff168152602001848152602001806020018281038252848482818152602001925080828437600081840152601f19601f8201169050808301925050509650505050505050602060405180830381600087803b158015614ea357600080fd5b505af1158015614eb7573d6000803e3d6000fd5b505050506040513d6020811015614ecd57600080fd5b81019080805190602001909291905050507bffffffffffffffffffffffffffffffffffffffffffffffffffffffff191614614f70576040517f08c379a00000000000000000000000000000000000000000000000000000000081526004018080602001828103825260178152602001807f45524332303a207472616e73666572207265667573656400000000000000000081525060200191505060405180910390fd5b614f9c7f5434d9bcb373cad3e61e9cd676902dd9f460daa33cdec02df3b4baed88fe61b560001b615034565b614fce565b614fcd7f5b873a2746d5f6f5b15f8f53d1492c47b860b242174e4b1e8c0015bb75d4c61e60001b615034565b5b614ffa7f6675097bc3455d672caff269a4aab1512f968651a716ef964fcf76eb6e93af5260001b615034565b6150267f1a70c113f6091d8931a92aed6618023892933d593aa93964f2ac2fba3304135c60001b615034565b600191505095945050505050565b50565b61504761504261649a565b616b5a565b6000868690509050848490508114801561506357508282905081145b6150d5576040517f08c379a000000000000000000000000000000000000000000000000000000000815260040180806020018281038252601a8152602001807f5265636f763a20696e636f6e73697374656e742061727261797300000000000081525060200191505060405180910390fd5b60005b8181146151f3578585828181106150eb57fe5b9050602002013573ffffffffffffffffffffffffffffffffffffffff1673ffffffffffffffffffffffffffffffffffffffff166323b872dd308a8a8581811061513057fe5b9050602002013573ffffffffffffffffffffffffffffffffffffffff1687878681811061515957fe5b905060200201356040518463ffffffff1660e01b8152600401808473ffffffffffffffffffffffffffffffffffffffff1681526020018373ffffffffffffffffffffffffffffffffffffffff1681526020018281526020019350505050600060405180830381600087803b1580156151d057600080fd5b505af11580156151e4573d6000803e3d6000fd5b505050508060010190506150d8565b5050505050505050565b7f000000000000000000000000000000000000000000000000000000000000000081565b61524d7ff09be886b79f8989033274578671aa868c6cf991d01f449acf62d91d8669db1260001b615034565b6152797f573f510482b32dedf2051a18870eea4ab4cb2733e7494885be356354b62f12ff60001b615034565b6152a57f4fdc4633d9d6368f90b5dda39d28205fc0ea7e75f7574f56ed787585953a4a9d60001b615034565b6152d17f18025f4ae9c76e278f7120b1309d085aa5d1c8ee4478966e8d8f91f58d92b59160001b615034565b600073ffffffffffffffffffffffffffffffffffffffff168773ffffffffffffffffffffffffffffffffffffffff161415615374576040517f08c379a00000000000000000000000000000000000000000000000000000000081526004018080602001828103825260198152602001807f45524332303a207a65726f2061646472657373206f776e65720000000000000081525060200191505060405180910390fd5b6153a07fdf57c65d551278c942938066bcf4fdcbbd11d019acc8d734ca0df669546ab6ab60001b615034565b6153cc7fd88fd66a3af3169710170dd03c96713d708141f61e3c7e50b6da18b82d3c63c660001b615034565b6153f87f9e3a62b1c4baa97a13729922d38f52f6bb57e8a964ecaf23de781acb6f27adc760001b615034565b6154247f76fd6f24b26f03a00c747b3bfe7c6528e5d41b85402e83ed04a7582b268c41cf60001b615034565b8342111561549a576040517f08c379a00000000000000000000000000000000000000000000000000000000081526004018080602001828103825260158152602001807f45524332303a2065787069726564207065726d6974000000000000000000000081525060200191505060405180910390fd5b6154c67fcc2ebed6ca50e7fb2d00fbe931137421e975b8a4773201cb2f43fb2df297ebad60001b615034565b6154f27f8089bb1d1a3372ca8d16dd8b122faebf81484a72310585639df1cdb61f8c7d3a60001b615034565b61551e7f441a5ac679d275ac82ad37a48fc366fce45cfb3e3cf28f598a50831345aba66160001b615034565b60007f6e71edae12b1b97f4d1f60370fef10105fa2faae0126114a169c64845d6126c960001b888888600160008d73ffffffffffffffffffffffffffffffffffffffff1673ffffffffffffffffffffffffffffffffffffffff16815260200190815260200160002060008154809291906001019190505589604051602001808781526020018673ffffffffffffffffffffffffffffffffffffffff1681526020018573ffffffffffffffffffffffffffffffffffffffff16815260200184815260200183815260200182815260200196505050505050506040516020818303038152906040528051906020012090506156397f9d6784a7b50c9e224221513bce1160c65cda0b8b4d1ae2693ae81581aad7ef2360001b615034565b6156657f74fb6f531932aacb421bb787011227d812f59ac73b3bf773a5b54698fddbd8d260001b615034565b600061566f61167b565b8260405160200180807f1901000000000000000000000000000000000000000000000000000000000000815250600201838152602001828152602001925050506040516020818303038152906040528051906020012090506156f37fd1112790f26e63342c86cde91ac18ac9397917f0bd64253a5f6183ad8b8056e160001b615034565b61571f7ffa507693139a98b6d695aa36d7e2d92f691306f84cc2c60e8490730a7cde224060001b615034565b600060018287878760405160008152602001604052604051808581526020018460ff1681526020018381526020018281526020019450505050506020604051602081039080840390855afa15801561577b573d6000803e3d6000fd5b5050506020604051035190506157b37f2d184e59b10fcc4171eeb7c8e7da4b1700fac0b1b4d8778ae6ade04a012626bd60001b615034565b6157df7fd75b53ac20da65cadb176497ce382d7c59c873d5f9529e53c3e4d898e6436bce60001b615034565b61580b7fb8ff966167f57a92c7650a9203a941814be49b708f2d787381af0c6fe5a326b560001b615034565b8973ffffffffffffffffffffffffffffffffffffffff168173ffffffffffffffffffffffffffffffffffffffff16146158ac576040517f08c379a00000000000000000000000000000000000000000000000000000000081526004018080602001828103825260158152602001807f45524332303a20696e76616c6964207065726d6974000000000000000000000081525060200191505060405180910390fd5b6158d87fd2ba33033a5cbd013b9b21bc02339f7198344564e0e00ee7d99ef45bd7546e6660001b615034565b6159047f9b23e83514b5583f41cc3a66d5717b8264705f4f11bd1ef757ecd7a0d0410cdb60001b615034565b6159307fae022d484e8e3056bc9d902d1bcaf8107807ddfd653db7f8581022cd801e244360001b615034565b61593b8a8a8a61652d565b50505050505050505050565b60006159757f9657f75befcadfd2dcff060f5445774769f55c48851dd5dfa16afb17ed69b25c60001b615034565b6159a17fbf67582f32357054216c600b2db4d7fe5be581b967c63fd0290fb01e360795b760001b615034565b6159cd7fd6808f6aeeaa27430164f9dd41717cfe859bbb2081a24145f606c7e84a7b629260001b615034565b600660008473ffffffffffffffffffffffffffffffffffffffff1673ffffffffffffffffffffffffffffffffffffffff16815260200190815260200160002060008373ffffffffffffffffffffffffffffffffffffffff1673ffffffffffffffffffffffffffffffffffffffff16815260200190815260200160002054905092915050565b615a7e7fd828d0a391d00696d96cf87c42662c8168b2df1a5dbe99fd8c1c33b432b2da7f60001b6133d8565b615aaa7f4df1693bebc76f97c000e202e3d302f4fb98e6ef536d047cb65a1827510ca11460001b6133d8565b615ad67f41d425b640a85c7c312f07231df1fdc3a737cae4b283d8268f12bd34d912953460001b6133d8565b615ae6615ae161649a565b616b5a565b615b127f3a0ac83edc09d8ae259ee4858fa6ab3c95bc9beb0bd912af8651a9de486eedff60001b6133d8565b615b3e7f1923e15fcb8b0034396ce4f71c583ad2c2275389aeea898aaf144f64bcf9293c60001b6133d8565b818160049190615b4f929190619012565b505050565b6000615b827f85a36147d775ef05c9448f09d9e2dde52f0e5820d0dd7f939a445f17a145c87d60001b615034565b615bae7f65105c95bae1eb5c19955205df4d9b1148ace2b3d10aaa8ba636d6ece994f7e260001b615034565b615bda7fe6093ba54e459340fccf588504241fc3fc9d9cfb15c8987133a52fdfa714aa7c60001b615034565b6000615be461649a565b9050615c127f6154c9bf083f6c52a18e06c157aca6c9b8ff1265069b5e9f68dbcea80545ab0d60001b615034565b615c3d7e505b853f6320cd114e1f7cd80dca4982355773ca8c0bc1d1b5d1fad9cb2d7b60001b615034565b615c4881878761842a565b615c747f7419462eacfc58d3b13e6175a5e310a188fef784cb2bb84e6a3d1ac7075ac4f460001b615034565b615ca07f275273b936f1af3df6ffb453b82dcd5c87f6324b1d520165d999a3f7ade0091360001b615034565b615cbf8673ffffffffffffffffffffffffffffffffffffffff16618b75565b15615f7557615cf07f96daa9bafc009d3f290efdc4c3ebe19436b31c26eb341a3f7cde8a5ab5ee051860001b615034565b615d1c7f856c082fbe08f643eb7c79084025bb035d6bfc1a7919fa2afa77b33094b27b3c60001b615034565b615d487f61ad32a440df07f8fd20f329d3f9757af5ccbae95466c3abb108d609917ef44260001b615034565b615d747f1620c0fa09bc471c4903604b1323d13b04d98d0e2cf4327e28f219a75bffc08960001b615034565b7f4fc35859000000000000000000000000000000000000000000000000000000007bffffffffffffffffffffffffffffffffffffffffffffffffffffffff19168673ffffffffffffffffffffffffffffffffffffffff16634fc3585983848989896040518663ffffffff1660e01b8152600401808673ffffffffffffffffffffffffffffffffffffffff1681526020018573ffffffffffffffffffffffffffffffffffffffff168152602001848152602001806020018281038252848482818152602001925080828437600081840152601f19601f8201169050808301925050509650505050505050602060405180830381600087803b158015615e7757600080fd5b505af1158015615e8b573d6000803e3d6000fd5b505050506040513d6020811015615ea157600080fd5b81019080805190602001909291905050507bffffffffffffffffffffffffffffffffffffffffffffffffffffffff191614615f44576040517f08c379a00000000000000000000000000000000000000000000000000000000081526004018080602001828103825260178152602001807f45524332303a207472616e73666572207265667573656400000000000000000081525060200191505060405180910390fd5b615f707f8052913ba903a274a800fbf1f6d6d4dbf0979c9c97eb4b378e372a6a4897c2a960001b615034565b615fa2565b615fa17fe76998664b4b6c5efd4f4d8eaf5967b63eb02648b4f6719152616678073818bb60001b615034565b5b615fce7ff30e4d6426e38b6dfb75cfba15ba7fdb4ff6bd07c3c68d7c5005c66b5012f32660001b615034565b615ffa7f2baee224fa98b0ae25b7d4c245985ef73e654ed4d06a884d7b11b35726f4137260001b615034565b6001915050949350505050565b61601761601261649a565b616b5a565b806000806101000a81548173ffffffffffffffffffffffffffffffffffffffff021916908373ffffffffffffffffffffffffffffffffffffffff1602179055508073ffffffffffffffffffffffffffffffffffffffff1660008054906101000a900473ffffffffffffffffffffffffffffffffffffffff1673ffffffffffffffffffffffffffffffffffffffff167f8be0079c531659141344cd1fd0a4f28419497f9722a3daafe3b4186f6b6457e060405160405180910390a350565b60006161027f7a1bc57c10d0bbae1f1a3f16b770268a82ad94c49919dab644bed2b3ce2b025d60001b615034565b61612e7f2d5abdf91acc4d34e6057bf09e528e12d964ec109939d0d47b31fe74ccbec69060001b615034565b61615a7f2bab01eca99caccc6e7f0e7d0b79aa5ee530f36185ce48a4000477d9162fa50360001b615034565b7f01ffc9a7000000000000000000000000000000000000000000000000000000007bffffffffffffffffffffffffffffffffffffffffffffffffffffffff1916827bffffffffffffffffffffffffffffffffffffffffffffffffffffffff1916148061622357507f36372b07000000000000000000000000000000000000000000000000000000007bffffffffffffffffffffffffffffffffffffffffffffffffffffffff1916827bffffffffffffffffffffffffffffffffffffffffffffffffffffffff1916145b8061628b57507fa219a025000000000000000000000000000000000000000000000000000000007bffffffffffffffffffffffffffffffffffffffffffffffffffffffff1916827bffffffffffffffffffffffffffffffffffffffffffffffffffffffff1916145b806162f357507f3c130d90000000000000000000000000000000000000000000000000000000007bffffffffffffffffffffffffffffffffffffffffffffffffffffffff1916827bffffffffffffffffffffffffffffffffffffffffffffffffffffffff1916145b8061635b57507f9d075186000000000000000000000000000000000000000000000000000000007bffffffffffffffffffffffffffffffffffffffffffffffffffffffff1916827bffffffffffffffffffffffffffffffffffffffffffffffffffffffff1916145b806163c357507fc05327e6000000000000000000000000000000000000000000000000000000007bffffffffffffffffffffffffffffffffffffffffffffffffffffffff1916827bffffffffffffffffffffffffffffffffffffffffffffffffffffffff1916145b8061642b57507f53f41a97000000000000000000000000000000000000000000000000000000007bffffffffffffffffffffffffffffffffffffffffffffffffffffffff1916827bffffffffffffffffffffffffffffffffffffffffffffffffffffffff1916145b8061649357507f9d8ff7da000000000000000000000000000000000000000000000000000000007bffffffffffffffffffffffffffffffffffffffffffffffffffffffff1916827bffffffffffffffffffffffffffffffffffffffffffffffffffffffff1916145b9050919050565b60006164c87f09a9f260e68f397002601c456a767435f76b5ef850b35fa7f04198faa7b5e55460001b6133d8565b6164f47f0adcd2ffe6efb94156c90e334dfa6ef1c987ae4b46907934a49c80e6765cfa4460001b6133d8565b6165207f8de270bf824c30048f09e63af428c3f09a2974582d99f6eb3d733a572705224560001b6133d8565b616528618b88565b905090565b6165597fb41ffd4c2b604e8ce6b8aa8fded86b08b90b515e8225e3364f4e94ea8c64535960001b615034565b6165857f755e4369c2eabadafb3136b0eb4464424a67e070c153c19fba9b80ccc9d7ee1960001b615034565b6165b17f0e77ae358888338471fb048297aeda3433b14a04252cd54b018dc3ba7e58daaa60001b615034565b6165dd7f8c080f850fa62d8b752c2b0a269771cfc6072de65cfc47d966d1052c7bb8d2c460001b615034565b600073ffffffffffffffffffffffffffffffffffffffff168273ffffffffffffffffffffffffffffffffffffffff161415616680576040517f08c379a000000000000000000000000000000000000000000000000000000000815260040180806020018281038252601b8152602001807f45524332303a207a65726f2061646472657373207370656e646572000000000081525060200191505060405180910390fd5b6166ac7fba138d9b82d3f25d74846001aa4dbaa2faf4cb638b16c45dd945c91fec297ea560001b615034565b6166d87f41efb9eb06882e1ae16657a7e44a3ee6bb7b615af8af13122b096f7f87ae054160001b615034565b6167047f79b60829078eb636ddeb435932b6e3d5d1d2970641cf96b44b98a978fe652b8860001b615034565b80600660008573ffffffffffffffffffffffffffffffffffffffff1673ffffffffffffffffffffffffffffffffffffffff16815260200190815260200160002060008473ffffffffffffffffffffffffffffffffffffffff1673ffffffffffffffffffffffffffffffffffffffff168152602001908152602001600020819055506167b17fecf0cb7f0be33c8f74ec18386f5c1c61701da0a856ab0968cd0d4775f272bd9f60001b615034565b6167dd7f1e7011daa876dd6648bd3ff1519780e9669e3b8c585731548a35a8627d47e2c860001b615034565b8173ffffffffffffffffffffffffffffffffffffffff168373ffffffffffffffffffffffffffffffffffffffff167f8c5be1e5ebec7d5bd14f71427d1e84f3dd0314c0f7b2291e5b200ac8c7c3b925836040518082815260200191505060405180910390a3505050565b6168737f2394024eb4368ce5b8a91eba173da2b358b94b42ec7e83ddbf8fafc8b545bda960001b615034565b61689f7feafd6765c3b93f70ab7440bd8162692359701d5b7747cb3641ab77c62305f31b60001b615034565b6168cb7f186fd07d54e4e2dd1ad64ae2832c59108b5484e62e1660108fa2addb7a1fd74360001b615034565b6168d683838361842a565b6169027fd9bccc750b3443b0ef706ae5fc46c6668b9714e6d9e42a63e829621bb5d90d9760001b615034565b61692e7fe8dfc78957d462f491e8e2868cda449816f2b3b52bbe39608f65cbf0cf4b2e7060001b615034565b8373ffffffffffffffffffffffffffffffffffffffff168373ffffffffffffffffffffffffffffffffffffffff16146169f55761698d7fb7837a53b97d5576e4dd1cc81e1568caf0974e99f4cc1c6b6d0471c56299f36a60001b615034565b6169b97f9a8e377e8fb934bfec83f5c80e63ef85dbbfa0e331e525ff734ca0e95ff6e8c160001b615034565b6169e57f3e3580cedf9922cc887c41413c7cd8559f3db0b39fe9a782ee3470d0e3ef3f6060001b615034565b6169f0838583617265565b616a22565b616a217fb4a56cf2ae16997ed837eba0b8883dd37952102ddde8a6ad1e1960401cae39d760001b615034565b5b50505050565b6000616a567f944c756d5d5f2a243e454b45fc9555d5da7652dd4606d195dc34efbf761fdf8560001b615034565b616a827faa08908f9f4beadbac7e4c7f998a0acfcbb4350d736ee7e36f1579fae9bd064760001b615034565b616aae7fd732a1b4cb4603fac188410fc428b31ff987007b8863a01a3eed940aaf97080460001b615034565b7f8b73c3c69bb8fe3d512ecc4cf759cc79239f7b179b0ffacaa9a75d522b39400f82805190602001207fc89efdaa54c0f20c7adf612882df0950f5a951637e0307cdcb4c672f298b8bc68530604051602001808681526020018581526020018481526020018381526020018273ffffffffffffffffffffffffffffffffffffffff1681526020019550505050505060405160208183030381529060405280519060200120905092915050565b3073ffffffffffffffffffffffffffffffffffffffff16638da5cb5b6040518163ffffffff1660e01b815260040160206040518083038186803b158015616ba057600080fd5b505afa158015616bb4573d6000803e3d6000fd5b505050506040513d6020811015616bca57600080fd5b810190808051906020019092919050505073ffffffffffffffffffffffffffffffffffffffff168173ffffffffffffffffffffffffffffffffffffffff1614616c7b576040517f08c379a00000000000000000000000000000000000000000000000000000000081526004018080602001828103825260168152602001807f4f776e61626c653a206e6f7420746865206f776e65720000000000000000000081525060200191505060405180910390fd5b50565b616caa7fa18d11221352f352ef86febf90e139e2b253c56b8c57c2d059a12038ff40ff7e60001b615034565b616cd67faa9bbf832af379a698a689ae6e28baee27d8f95a53b0522b24aa79b888928b6a60001b615034565b616d027f335d58db6850ab9524b5240bb60d568f1778eedd47883c68f1d92051057823f860001b615034565b616d2e7f943f68c4a61fe402fa3c0d14a5dc3b1cebde00e22d931d612fc3c1bf22c479e360001b615034565b600073ffffffffffffffffffffffffffffffffffffffff168273ffffffffffffffffffffffffffffffffffffffff161415616dd1576040517f08c379a00000000000000000000000000000000000000000000000000000000081526004018080602001828103825260138152602001807f45524332303a207a65726f20616464726573730000000000000000000000000081525060200191505060405180910390fd5b616dfd7feb5727ef78da1e243353670a75bc1a7ff9e99689d611ac0e4266822a42d4542d60001b615034565b616e297f4358dfe69c8aaaa0a59217316a7b395da625c968fbc25a1af929fcae1497288560001b615034565b616e557f6d012b758ad104c5bfb4040c36d5bb4183aa5ba4c33df957bb8b4781576e173060001b615034565b60006007549050616e887f7f58b45cdccc12fae78a141f89468041addfd60796c541cff268edc1ef538a0f60001b615034565b616eb47f0bd0f52ff53b53f5a1514b5ebc18c8204749215e7b0a616c5cf6bcf38667d9c460001b615034565b6000821461717557616ee87f8873b5415dfdd06dc416e1a8fdb2afdaabc323ae19254ad223eccff2492097bb60001b615034565b616f147f7640715c5bb0d1cd32a484804c03972c5cdebef1d6ba611ca7a080a897f7ba4360001b615034565b616f407f8d42bf01ed15e5045a354e4ccb50e31c8075a242438471f67c6333c187c38fe660001b615034565b60008282019050616f737f07dda80bb9d9fb0d2f48ad2701855c2a21865080853e7e49fbeaceda51dd89ef60001b615034565b616f9f7f3a31b1a66f0acc65a6200f4372cad53e61c9278fa5a778790c9f068adbb9a27b60001b615034565b616fcb7f2584e812dd04a0a0e8966a7ee4794fdc3fc8a5e9dce237b01c7ae40f6ba23dde60001b615034565b818111617040576040517f08c379a00000000000000000000000000000000000000000000000000000000081526004018080602001828103825260168152602001807f45524332303a20737570706c79206f766572666c6f770000000000000000000081525060200191505060405180910390fd5b61706c7f4c0069d08618115e634c0ff1ab1273e8e320c2625aa681c25d1b87ca0d15986860001b615034565b6170987f8d5bb9aef1abe3283bffd982c0b4c0b4fe8f850b005d1697ad196c4263ca0a6460001b615034565b6170c47fc02839d7b6eee98759e46fd1e47dd65e3e29a676791986b82041e93229c7c5bf60001b615034565b806007819055506170f77f51fd9fb59a56dc5dc60d62252e187693c3304b53a43c23ca43d1d2bd429c80c160001b615034565b6171227eb868e89da87d584c6d741c3aae80e8f468b98c014756c0e9b124031c92daa660001b615034565b82600560008673ffffffffffffffffffffffffffffffffffffffff1673ffffffffffffffffffffffffffffffffffffffff16815260200190815260200160002060008282540192505081905550506171a2565b6171a17f5d9cfc507202f97e8b42e3b8b3733e40f2c64b542644fb85bf599f728fdffdef60001b615034565b5b6171ce7f1bc3e64b33d009d7bf99e710225b15088c2b670eb2cb17d687597134a599f26560001b615034565b6171fa7f20ada884d60ad72ebc01a32582d33a1b82945852b6c42d6573170cb572c362fa60001b615034565b8273ffffffffffffffffffffffffffffffffffffffff16600073ffffffffffffffffffffffffffffffffffffffff167fddf252ad1be2c89b69c2b068fc378daa952ba7f163c4a11628f55a4df523b3ef846040518082815260200191505060405180910390a3505050565b6172917ff99b5db63b23ae132ce2d9693f1b5f3599104065dd4d1982cf375de8ee31f0b260001b615034565b6172bd7fb023caacdcda4dd892407686e5fc2b9d5592553fcb66641b57b76abe9274407760001b615034565b6172e97f082922920edcbfe0a7a82b8fe174a78faef5767c021d49e4c0ec2ee4bd0a6e1b60001b615034565b6000600660008573ffffffffffffffffffffffffffffffffffffffff1673ffffffffffffffffffffffffffffffffffffffff16815260200190815260200160002060008473ffffffffffffffffffffffffffffffffffffffff1673ffffffffffffffffffffffffffffffffffffffff1681526020019081526020016000205490506173967f92ac343592c3973c35f224f71761cd47d5b8068ad929cbc5a207e3c60ac8567960001b615034565b6173c27fd74da7d160d97f0a0146e3991225fb0bf9d405f9ca7fbf66c4e7ad23759f397660001b615034565b7fffffffffffffffffffffffffffffffffffffffffffffffffffffffffffffffff81141580156173f3575060008214155b156176e2576174247f86998b663ea0b8b636a3fcb2e43dc0c2f6f3d385b0c066521b2d963abbae1f9d60001b615034565b6174507fbc404a18bcd1277ec4a7d1b6a0b7ef610ca0dbe4091a58c3e94e9ab18dcb046960001b615034565b61747c7f2df42e005c132176ebe0e5053f5b2190a72742e6b631101113e0f97c5bd77e6860001b615034565b600082820390506174af7f7c02f5e7a1be51e1321664da88e19f9ec87869ac92311d4d0e11785d6229a88060001b615034565b6174db7ffb405f6552850a1e58e84c996200c5d1978072e6307a16f0378912c6c9c4a09c60001b615034565b6175077f03c93d54a41183af10819cc67bb24cc6b2da76f90b7dc57cd5aaa7048d7f1bbe60001b615034565b81811061757c576040517f08c379a000000000000000000000000000000000000000000000000000000000815260040180806020018281038252601d8152602001807f45524332303a20696e73756666696369656e7420616c6c6f77616e636500000081525060200191505060405180910390fd5b6175a87f06d5583d8cd101730bb53259769beeb9efb84976766c6e831a4845d4d4380f5d60001b615034565b6175d47f3f8d656389c19250a800e7e298eadbfd55e9ace423c3e07739a3bce4fc83d9fd60001b615034565b6176007f605e589315c7501a4e79ffc5d059cf6b2b47e1469e98b239c94ddf6fe576636e60001b615034565b80600660008773ffffffffffffffffffffffffffffffffffffffff1673ffffffffffffffffffffffffffffffffffffffff16815260200190815260200160002060008673ffffffffffffffffffffffffffffffffffffffff1673ffffffffffffffffffffffffffffffffffffffff168152602001908152602001600020819055506176ad7f53fa81b0076633286075ce7087d16c15adb776bb9d2f4480d79dbf37972286ce60001b615034565b6176d97f1b4f86fea707edd7bbd46efaf931b75994ddd555bf60663c8d6baae8e529cb7e60001b615034565b8091505061770f565b61770e7f7493047b75d189d3c2e5063cb9a908d35771cd0bbe8a9a6abcefc82dd091081e60001b615034565b5b61773b7f73f8c9e8c936dbadaa80377c502f23e4c24fec1a540aa61bead67abce63e36cc60001b615034565b6177677f093a8589f6a648180a84cd7501eafe145f2c809104c0ef8079af339d4b11850960001b615034565b8273ffffffffffffffffffffffffffffffffffffffff168473ffffffffffffffffffffffffffffffffffffffff167f8c5be1e5ebec7d5bd14f71427d1e84f3dd0314c0f7b2291e5b200ac8c7c3b925836040518082815260200191505060405180910390a350505050565b6177fe7f20fc3a3025e46ba68506603cf55a8ab7589421dc8cc9acd80bdc1e6ae81f05c460001b615034565b61782a7fba9abe6a98cdc1f94ba4e225b482fd128eb20d7d06898ce3fcfc5f502d9d1b0860001b615034565b6178567f3ba48f63ffe8b5ccfb3d0838ad68ca5a11190b8c7f2a437b94073bebc146687c60001b615034565b6000825190506178887fcffebafbf9e4663757c3f9bd87018bcf88449b7964c7f65690af35a583373be960001b615034565b6178b47f536085bfab79c3adf33b0b3d83d9783b283121e3905692cb791e7cdb4e9307a260001b615034565b6178e07f28a09ac6290879af2293f0fbcebda75f1387155822a9e3d43f7d7227943b292960001b615034565b81518114617956576040517f08c379a000000000000000000000000000000000000000000000000000000000815260040180806020018281038252601a8152602001807f45524332303a20696e636f6e73697374656e742061727261797300000000000081525060200191505060405180910390fd5b6179827f4f30f646ddddb494189e6910f6792e9e86625ce13475948614bd943ef381721560001b615034565b6179ae7fd8ef06c94df637ec3f9113c7a73da0f5f512d8f8fd38f37902fe6be519cff0ab60001b615034565b6179da7f80d539030dd34f2eb0d37883a4ecfe160d66aae6c9626aad2973cd90572ca22160001b615034565b6000617a087f1b3654878968e204d754e0a487961a65282ab1dce5a0526be95c49f0b2756b4f60001b615034565b617a347fddd11b869e300f1c3a8c38881b13af11f9349d9483da72e8db7d9b21d9379a5460001b615034565b60005b82811461807f57617a6a7f554ae65dece2c41c56ba42dd945a857d5ce2ad3847acb3f531b5ec48aaefa2e660001b615034565b617a967f248219498dcb66ef28903989e639a6de2182f75180726d5bcd0fbd3778731fdf60001b615034565b6000858281518110617aa457fe5b60200260200101519050617ada7f32c034bd3455704f3783113d545a7ab7dbe141c0501bc8bd361c5ce7d5957f5a60001b615034565b617b067f08a2e445ee1d9bf21680de1ec5c4c2cc4bafbe808661464ed3897c1539dcf3c860001b615034565b617b327fe7750c41b5b900f1393ad6711460fd1bb15fae5128017093d43fc2dec50449ff60001b615034565b600073ffffffffffffffffffffffffffffffffffffffff168173ffffffffffffffffffffffffffffffffffffffff161415617bd5576040517f08c379a00000000000000000000000000000000000000000000000000000000081526004018080602001828103825260138152602001807f45524332303a207a65726f20616464726573730000000000000000000000000081525060200191505060405180910390fd5b617c017fd1ab9a79035ce45704c7580e6d0a24e156e52d6245a0928d24b3a00dd9f1a8ff60001b615034565b617c2d7f3421be204182a90b101c1d4be8b936b071e75bffbbbc91fc85bab45aa6e3192660001b615034565b617c597f59e6a4d533dce51cf4484487e0b92903d0780a5377b28a65f49f84e6658c83ae60001b615034565b6000858381518110617c6757fe5b60200260200101519050617c9d7fc2c40173c340c7fa464da1bb0224fd8d05c1d3e8231a6c7df88ee9096808bcd360001b615034565b617cc97fbbe8dea263cea70d1629ed86c54e6475a6bde4fc7a2e475664247cb68f97326560001b615034565b60008114617f8757617cfd7f918047cdef3cbeae26152c625941fe68f100821b3d592678f8fc073d17ac1bba60001b615034565b617d297fad2185a253d17741595df38ff3aa658d6f512195ec20834724c455b43a17844860001b615034565b617d557faafc7c9fab73064c7f704e57ab8a392c8d68581d5956073c5c1a19608f95a12860001b615034565b60008185019050617d887f7fb926d15eb74ada58463bb7b8465664548a47d7dedc379af5ac974dcc974f1660001b615034565b617db47f65b39fea598a03fb39e80c488a4f4b2039c9332952aceb58211351459b6796f560001b615034565b617de07fbe9a7c48aadf276ca12582a73255f836be03e56d19d1431ea228f7c8cc8dc90660001b615034565b848111617e55576040517f08c379a00000000000000000000000000000000000000000000000000000000081526004018080602001828103825260168152602001807f45524332303a2076616c756573206f766572666c6f770000000000000000000081525060200191505060405180910390fd5b617e817f4eada8eb3370e0ffab5b6480c9f708ff38f9f7d5e9ce173fc491bc174fbcabab60001b615034565b617ead7fcc9df20e360e0c354d314f6c355a7d77f27351b25843d3a363d282afdc6688b160001b615034565b617ed97fc738a37396cb337512ad461fbba31a6d7edd4803389b35cad465b3143ac6a99c60001b615034565b809450617f087f5a1570ab7171545ced0efed1dcd550e352ae069952e06fa0c8031a7ee055cc0b60001b615034565b617f347ff5706860fcd71ae977a4419e8637de134112a93b9e8e6ea0232f43fca41935dd60001b615034565b81600560008573ffffffffffffffffffffffffffffffffffffffff1673ffffffffffffffffffffffffffffffffffffffff1681526020019081526020016000206000828254019250508190555050617fb4565b617fb37fe46f076c769a75777f187475ecebc8fde86e2263520863db7d61261ba876d47360001b615034565b5b617fe07f57bd54e293dcbc8aaa34547ffd71546e2054d69a2652ebb36c08ee6951fdf28660001b615034565b61800c7f291fb6e70d34689648ea6276e18abccbe359700acac4e46d2dfa59fb680947e660001b615034565b8173ffffffffffffffffffffffffffffffffffffffff16600073ffffffffffffffffffffffffffffffffffffffff167fddf252ad1be2c89b69c2b068fc378daa952ba7f163c4a11628f55a4df523b3ef836040518082815260200191505060405180910390a35050806001019050617a37565b506180ac7fa3192109964a953eddcded1124c212145fdfc6191b449e292afeec0c6724bd9c60001b615034565b6180d87fe3a3c92252356f4da6b5a5856b6ff25f8912015c3e64a498716da6cefe3f985e60001b615034565b600081146183555761810c7fb4a3a3630c0c9767f60c5c1c80db2cf3410300342ce9836e8884d31d5b94b95060001b615034565b6181387fd554ec3cb88eb40c74c6daba4a5c78c2deb776e0224a69d15f7ff4ba7db3e30160001b615034565b6181647fc4c4b7fccd54e59915f5bbc138504538f30e4478f364df05e33da7049d6d63ea60001b615034565b600060075490506181977fabac5bdfda460ff7318f2f227a8e332fae4d305960f530c989e339c6164c375e60001b615034565b6181c37fc31f9794bfc938e6743f55edafa3bfc4803ae39f0872e8a6610b484fba95cb3a60001b615034565b600082820190506181f67f9b5b5e0770170c858dd9a83af0a8caf5a29bff4120ec57930939f9660e94797360001b615034565b6182227f513ef81a9b5da7e778533e59a53984765117fe9028a88b0d605772b90bcbd84f60001b615034565b61824e7f3105da534cf8b8cc1d35308d92775b113eff17c2459205aa8eb5998313ef17de60001b615034565b8181116182c3576040517f08c379a00000000000000000000000000000000000000000000000000000000081526004018080602001828103825260168152602001807f45524332303a20737570706c79206f766572666c6f770000000000000000000081525060200191505060405180910390fd5b6182ef7fb1db0c6c18210b5bd4dac396c547d7e9b4b77f74bffca52402ca421f94bc233160001b615034565b61831b7f94cd230bf64d3d479ecba3ff2381c227c58cab061fa582c21118a27b4ef0074460001b615034565b6183477f8ac8cf9bf4101a974552ce734d9d12bd2ec82a8c628b0cf73c77197054a93e9960001b615034565b806007819055505050618382565b6183817f534874bb5c95905b6710526d9e5b9bbf9bf55c670ea3b24c7f154f0bd264d54d60001b615034565b5b50505050565b6184258363a9059cbb60e01b8484604051602401808373ffffffffffffffffffffffffffffffffffffffff16815260200182815260200192505050604051602081830303815290604052907bffffffffffffffffffffffffffffffffffffffffffffffffffffffff19166020820180517bffffffffffffffffffffffffffffffffffffffffffffffffffffffff8381831617835250505050618d7e565b505050565b6184567fff49898f80a30d77c9f345a3996de6c6fba1b7d757113915a78c585e77281a9360001b615034565b6184827f4f4e4f9b2acec44e99c19116329b1ea230ee2b28def5f6788afff76fddb9583160001b615034565b6184ae7fdbab1bcadcc49e1b4d33e64c906ae5f2c1d40a25d9f7781738729b96bf1de04760001b615034565b6184da7f83ffaee7167fe181ce23f97daec79f82691ab60f77d0bf2e592fa6cf6e987e7a60001b615034565b600073ffffffffffffffffffffffffffffffffffffffff168273ffffffffffffffffffffffffffffffffffffffff16141561857d576040517f08c379a00000000000000000000000000000000000000000000000000000000081526004018080602001828103825260168152602001807f45524332303a20746f207a65726f20616464726573730000000000000000000081525060200191505060405180910390fd5b6185a97f118d930754eade37480b405f0597e74771a2f601ff77b663444765c86c94a93360001b615034565b6185d57f51cceddc9b2e3d681de06115556721d34124a9343c4bc95b684d6d6e1ea6e60c60001b615034565b6186017f27a9b5d9dd34e7ed53363d1231920e5110e72beeb44125ccc1fb7158b1a8895d60001b615034565b60008114618a86576186357fb0d0a6bf954d768cbdf1ccaa58ba7704019d6588825206222c96e5d10d89fab660001b615034565b6186617fe1c90ff13395bff137b61ab3472a4a8c2b1b3e125730b4cf844d722f759b825b60001b615034565b61868d7f0c057d6eac771901994741cd9d70d51d97bb95915081eb20f992c36cd63a01f360001b615034565b6000600560008573ffffffffffffffffffffffffffffffffffffffff1673ffffffffffffffffffffffffffffffffffffffff1681526020019081526020016000205490506186fd7f6f6fd6d0801ba56716a98631f97541e450f969547efc4b305082ea0e754db78660001b615034565b6187297f9bae911a66df7d66493affbc76ffb6c90e53a7cc400bfc69a7c3e76398ba036c60001b615034565b6000828203905061875c7faa9e0aa90b4672b3f490a2da8e06cce762a6b79a2cd8b7d030f1c48cda3ef4aa60001b615034565b6187887f20ee195d157df5e893feee2c1da9b7bd5bd68189605ff617e8c183103bb3cd0160001b615034565b6187b47f256a346509d0bf070c259d4197da19dac82b843012ef416521e996af2c60bdf260001b615034565b818110618829576040517f08c379a000000000000000000000000000000000000000000000000000000000815260040180806020018281038252601b8152602001807f45524332303a20696e73756666696369656e742062616c616e6365000000000081525060200191505060405180910390fd5b6188557f494357999c9e810bdca7c229a50560a0c01ffeb81e29ddc165df8217e472ac3460001b615034565b6188817f7cd81a18ecec675125d8a19af62a2e3ba2d6e7688b30d1a67451548887b8992960001b615034565b6188ad7fde771b1531b2a17d0feee400c0f1af9980d6c77b4c821ac30d7a35c2c8a905ca60001b615034565b8373ffffffffffffffffffffffffffffffffffffffff168573ffffffffffffffffffffffffffffffffffffffff1614618a525761890c7fc9fc90f82b8f30aef183b526a4262d023efab0f5ffbcaefec3bd2750f3a9515a60001b615034565b6189387fe005b4341d199d8af8c365aa0ec08f092a0d04370966d91efb0ddb73eb44b9f160001b615034565b6189647fda851ba0e7329324a5bc36d8d5b41645885d3cf2b7b6af455f01643fc459385260001b615034565b80600560008773ffffffffffffffffffffffffffffffffffffffff1673ffffffffffffffffffffffffffffffffffffffff168152602001908152602001600020819055506189d47f1690237079c96f6ae8de010a2af40104ad47ba4e3b3b509900589a22ae55b3eb60001b615034565b618a007f5d00d57eaf4c06a2330f32757d3ba57915e18161e85f3b995a080f7b53eb43e860001b615034565b82600560008673ffffffffffffffffffffffffffffffffffffffff1673ffffffffffffffffffffffffffffffffffffffff16815260200190815260200160002060008282540192505081905550618a7f565b618a7e7fdc9d312b84a5538df7caac311e5a3c55a179393df709253a31e3a461774be6c560001b615034565b5b5050618ab3565b618ab27fe42ce0c652f87596e3c969fc67107d1c8b0f78e056b94b8c6aadaf907a2c56cd60001b615034565b5b618adf7f196a991ef67288d5cb1a3eec700dba264267badd43f53b65be2be344bb40910760001b615034565b618b0b7fd0dad3c818209e7d3c956bddecd7e6f5d6de4265991b896bef1a527ee45a995860001b615034565b8173ffffffffffffffffffffffffffffffffffffffff168373ffffffffffffffffffffffffffffffffffffffff167fddf252ad1be2c89b69c2b068fc378daa952ba7f163c4a11628f55a4df523b3ef836040518082815260200191505060405180910390a3505050565b600080823b905060008111915050919050565b6000803390506000618b98619003565b90507f000000000000000000000000000000000000000000000000000000000000000073ffffffffffffffffffffffffffffffffffffffff168273ffffffffffffffffffffffffffffffffffffffff161480618c3f57507f000000000000000000000000000000000000000000000000000000000000000073ffffffffffffffffffffffffffffffffffffffff168273ffffffffffffffffffffffffffffffffffffffff16145b15618c4e578092505050618d7b565b3273ffffffffffffffffffffffffffffffffffffffff168273ffffffffffffffffffffffffffffffffffffffff1614158015618d6657507f000000000000000000000000000000000000000000000000000000000000000073ffffffffffffffffffffffffffffffffffffffff1663e60125d682846040518363ffffffff1660e01b8152600401808373ffffffffffffffffffffffffffffffffffffffff1681526020018273ffffffffffffffffffffffffffffffffffffffff1681526020019250505060206040518083038186803b158015618d2a57600080fd5b505afa158015618d3e573d6000803e3d6000fd5b505050506040513d6020811015618d5457600080fd5b81019080805190602001909291905050505b15618d75578092505050618d7b565b81925050505b90565b6000829050618da28173ffffffffffffffffffffffffffffffffffffffff16618b75565b618e14576040517f08c379a000000000000000000000000000000000000000000000000000000000815260040180806020018281038252601a8152602001807f4552433230577261707065723a206e6f6e2d636f6e747261637400000000000081525060200191505060405180910390fd5b6000808273ffffffffffffffffffffffffffffffffffffffff16846040518082805190602001908083835b60208310618e625780518252602082019150602081019050602083039250618e3f565b6001836020036101000a0380198251168184511680821785525050505050509050019150506000604051808303816000865af19150503d8060008114618ec4576040519150601f19603f3d011682016040523d82523d6000602084013e618ec9565b606091505b50915091508115618f7b576000815114618f7657808060200190516020811015618ef257600080fd5b8101908080519060200190929190505050618f75576040517f08c379a000000000000000000000000000000000000000000000000000000000815260040180806020018281038252601e8152602001807f4552433230577261707065723a206f7065726174696f6e206661696c6564000081525060200191505060405180910390fd5b5b618ffc565b600081511415618ff3576040517f08c379a000000000000000000000000000000000000000000000000000000000815260040180806020018281038252601e8152602001807f4552433230577261707065723a206f7065726174696f6e206661696c6564000081525060200191505060405180910390fd5b80518082602001fd5b5050505050565b6000601436033560601c905090565b828054600181600116156101000203166002900490600052602060002090601f016020900481019282619048576000855561908f565b82601f1061906157803560ff191683800117855561908f565b8280016001018555821561908f579182015b8281111561908e578235825591602001919060010190619073565b5b50905061909c91906190a0565b5090565b5b808211156190b95760008160009055506001016190a1565b509056fea26469706673582212204451deb0df1f5e631dd390221808bc3787042c793956a819a838cfa698039d2564736f6c63430007060033",
  "linkReferences": {},
  "deployedLinkReferences": {}
}