{
  "_format": "hh-sol-artifact-1",
  "contractName": "ERC20Mock",
  "sourceName": "contracts/mocks/token/ERC20/ERC20Mock.sol",
  "abi": [
    {
      "inputs": [
        {
          "internalType": "address[]",
          "name": "recipients",
          "type": "address[]"
        },
        {
          "internalType": "uint256[]",
          "name": "values",
          "type": "uint256[]"
        },
        {
          "internalType": "contract IForwarderRegistry",
          "name": "forwarderRegistry",
          "type": "address"
        },
        {
          "internalType": "address",
          "name": "universalForwarder",
          "type": "address"
        }
      ],
      "stateMutability": "nonpayable",
      "type": "constructor"
    },
    {
      "anonymous": false,
      "inputs": [
        {
          "indexed": true,
          "internalType": "address",
          "name": "_owner",
          "type": "address"
        },
        {
          "indexed": true,
          "internalType": "address",
          "name": "_spender",
          "type": "address"
        },
        {
          "indexed": false,
          "internalType": "uint256",
          "name": "_value",
          "type": "uint256"
        }
      ],
      "name": "Approval",
      "type": "event"
    },
    {
      "anonymous": false,
      "inputs": [
        {
          "indexed": true,
          "internalType": "address",
          "name": "previousOwner",
          "type": "address"
        },
        {
          "indexed": true,
          "internalType": "address",
          "name": "newOwner",
          "type": "address"
        }
      ],
      "name": "OwnershipTransferred",
      "type": "event"
    },
    {
      "anonymous": false,
      "inputs": [
        {
          "indexed": true,
          "internalType": "address",
          "name": "_from",
          "type": "address"
        },
        {
          "indexed": true,
          "internalType": "address",
          "name": "_to",
          "type": "address"
        },
        {
          "indexed": false,
          "internalType": "uint256",
          "name": "_value",
          "type": "uint256"
        }
      ],
      "name": "Transfer",
      "type": "event"
    },
    {
      "inputs": [],
      "name": "DOMAIN_SEPARATOR",
      "outputs": [
        {
          "internalType": "bytes32",
          "name": "",
          "type": "bytes32"
        }
      ],
      "stateMutability": "view",
      "type": "function"
    },
    {
      "inputs": [
        {
          "internalType": "address",
          "name": "owner",
          "type": "address"
        },
        {
          "internalType": "address",
          "name": "spender",
          "type": "address"
        }
      ],
      "name": "allowance",
      "outputs": [
        {
          "internalType": "uint256",
          "name": "",
          "type": "uint256"
        }
      ],
      "stateMutability": "view",
      "type": "function"
    },
    {
      "inputs": [
        {
          "internalType": "address",
          "name": "spender",
          "type": "address"
        },
        {
          "internalType": "uint256",
          "name": "value",
          "type": "uint256"
        }
      ],
      "name": "approve",
      "outputs": [
        {
          "internalType": "bool",
          "name": "",
          "type": "bool"
        }
      ],
      "stateMutability": "nonpayable",
      "type": "function"
    },
    {
      "inputs": [
        {
          "internalType": "address",
          "name": "account",
          "type": "address"
        }
      ],
      "name": "balanceOf",
      "outputs": [
        {
          "internalType": "uint256",
          "name": "",
          "type": "uint256"
        }
      ],
      "stateMutability": "view",
      "type": "function"
    },
    {
      "inputs": [
        {
          "internalType": "address[]",
          "name": "recipients",
          "type": "address[]"
        },
        {
          "internalType": "uint256[]",
          "name": "values",
          "type": "uint256[]"
        }
      ],
      "name": "batchMint",
      "outputs": [],
      "stateMutability": "nonpayable",
      "type": "function"
    },
    {
      "inputs": [
        {
          "internalType": "address[]",
          "name": "recipients",
          "type": "address[]"
        },
        {
          "internalType": "uint256[]",
          "name": "values",
          "type": "uint256[]"
        }
      ],
      "name": "batchTransfer",
      "outputs": [
        {
          "internalType": "bool",
          "name": "",
          "type": "bool"
        }
      ],
      "stateMutability": "nonpayable",
      "type": "function"
    },
    {
      "inputs": [
        {
          "internalType": "address",
          "name": "from",
          "type": "address"
        },
        {
          "internalType": "address[]",
          "name": "recipients",
          "type": "address[]"
        },
        {
          "internalType": "uint256[]",
          "name": "values",
          "type": "uint256[]"
        }
      ],
      "name": "batchTransferFrom",
      "outputs": [
        {
          "internalType": "bool",
          "name": "",
          "type": "bool"
        }
      ],
      "stateMutability": "nonpayable",
      "type": "function"
    },
    {
      "inputs": [],
      "name": "decimals",
      "outputs": [
        {
          "internalType": "uint8",
          "name": "",
          "type": "uint8"
        }
      ],
      "stateMutability": "view",
      "type": "function"
    },
    {
      "inputs": [
        {
          "internalType": "address",
          "name": "spender",
          "type": "address"
        },
        {
          "internalType": "uint256",
          "name": "subtractedValue",
          "type": "uint256"
        }
      ],
      "name": "decreaseAllowance",
      "outputs": [
        {
          "internalType": "bool",
          "name": "",
          "type": "bool"
        }
      ],
      "stateMutability": "nonpayable",
      "type": "function"
    },
    {
      "inputs": [],
      "name": "deploymentChainId",
      "outputs": [
        {
          "internalType": "uint256",
          "name": "",
          "type": "uint256"
        }
      ],
      "stateMutability": "view",
      "type": "function"
    },
    {
      "inputs": [
        {
          "internalType": "address",
          "name": "spender",
          "type": "address"
        },
        {
          "internalType": "uint256",
          "name": "addedValue",
          "type": "uint256"
        }
      ],
      "name": "increaseAllowance",
      "outputs": [
        {
          "internalType": "bool",
          "name": "",
          "type": "bool"
        }
      ],
      "stateMutability": "nonpayable",
      "type": "function"
    },
    {
      "inputs": [
        {
          "internalType": "address",
          "name": "forwarder",
          "type": "address"
        }
      ],
      "name": "isTrustedForwarder",
      "outputs": [
        {
          "internalType": "bool",
          "name": "",
          "type": "bool"
        }
      ],
      "stateMutability": "view",
      "type": "function"
    },
    {
      "inputs": [
        {
          "internalType": "address",
          "name": "to",
          "type": "address"
        },
        {
          "internalType": "uint256",
          "name": "value",
          "type": "uint256"
        }
      ],
      "name": "mint",
      "outputs": [],
      "stateMutability": "nonpayable",
      "type": "function"
    },
    {
      "inputs": [],
      "name": "name",
      "outputs": [
        {
          "internalType": "string",
          "name": "",
          "type": "string"
        }
      ],
      "stateMutability": "view",
      "type": "function"
    },
    {
      "inputs": [
        {
          "internalType": "address",
          "name": "",
          "type": "address"
        }
      ],
      "name": "nonces",
      "outputs": [
        {
          "internalType": "uint256",
          "name": "",
          "type": "uint256"
        }
      ],
      "stateMutability": "view",
      "type": "function"
    },
    {
      "inputs": [],
      "name": "owner",
      "outputs": [
        {
          "internalType": "address",
          "name": "",
          "type": "address"
        }
      ],
      "stateMutability": "view",
      "type": "function"
    },
    {
      "inputs": [
        {
          "internalType": "address",
          "name": "owner",
          "type": "address"
        },
        {
          "internalType": "address",
          "name": "spender",
          "type": "address"
        },
        {
          "internalType": "uint256",
          "name": "value",
          "type": "uint256"
        },
        {
          "internalType": "uint256",
          "name": "deadline",
          "type": "uint256"
        },
        {
          "internalType": "uint8",
          "name": "v",
          "type": "uint8"
        },
        {
          "internalType": "bytes32",
          "name": "r",
          "type": "bytes32"
        },
        {
          "internalType": "bytes32",
          "name": "s",
          "type": "bytes32"
        }
      ],
      "name": "permit",
      "outputs": [],
      "stateMutability": "nonpayable",
      "type": "function"
    },
    {
      "inputs": [
        {
          "internalType": "address[]",
          "name": "accounts",
          "type": "address[]"
        },
        {
          "internalType": "address[]",
          "name": "tokens",
          "type": "address[]"
        },
        {
          "internalType": "uint256[]",
          "name": "amounts",
          "type": "uint256[]"
        }
      ],
      "name": "recoverERC20s",
      "outputs": [],
      "stateMutability": "nonpayable",
      "type": "function"
    },
    {
      "inputs": [
        {
          "internalType": "address[]",
          "name": "accounts",
          "type": "address[]"
        },
        {
          "internalType": "address[]",
          "name": "contracts",
          "type": "address[]"
        },
        {
          "internalType": "uint256[]",
          "name": "tokenIds",
          "type": "uint256[]"
        }
      ],
      "name": "recoverERC721s",
      "outputs": [],
      "stateMutability": "nonpayable",
      "type": "function"
    },
    {
      "inputs": [
        {
          "internalType": "address",
          "name": "to",
          "type": "address"
        },
        {
          "internalType": "uint256",
          "name": "amount",
          "type": "uint256"
        },
        {
          "internalType": "bytes",
          "name": "data",
          "type": "bytes"
        }
      ],
      "name": "safeTransfer",
      "outputs": [
        {
          "internalType": "bool",
          "name": "",
          "type": "bool"
        }
      ],
      "stateMutability": "nonpayable",
      "type": "function"
    },
    {
      "inputs": [
        {
          "internalType": "address",
          "name": "from",
          "type": "address"
        },
        {
          "internalType": "address",
          "name": "to",
          "type": "address"
        },
        {
          "internalType": "uint256",
          "name": "amount",
          "type": "uint256"
        },
        {
          "internalType": "bytes",
          "name": "data",
          "type": "bytes"
        }
      ],
      "name": "safeTransferFrom",
      "outputs": [
        {
          "internalType": "bool",
          "name": "",
          "type": "bool"
        }
      ],
      "stateMutability": "nonpayable",
      "type": "function"
    },
    {
      "inputs": [
        {
          "internalType": "bytes4",
          "name": "interfaceId",
          "type": "bytes4"
        }
      ],
      "name": "supportsInterface",
      "outputs": [
        {
          "internalType": "bool",
          "name": "",
          "type": "bool"
        }
      ],
      "stateMutability": "view",
      "type": "function"
    },
    {
      "inputs": [],
      "name": "symbol",
      "outputs": [
        {
          "internalType": "string",
          "name": "",
          "type": "string"
        }
      ],
      "stateMutability": "view",
      "type": "function"
    },
    {
      "inputs": [],
      "name": "tokenURI",
      "outputs": [
        {
          "internalType": "string",
          "name": "",
          "type": "string"
        }
      ],
      "stateMutability": "view",
      "type": "function"
    },
    {
      "inputs": [],
      "name": "totalSupply",
      "outputs": [
        {
          "internalType": "uint256",
          "name": "",
          "type": "uint256"
        }
      ],
      "stateMutability": "view",
      "type": "function"
    },
    {
      "inputs": [
        {
          "internalType": "address",
          "name": "to",
          "type": "address"
        },
        {
          "internalType": "uint256",
          "name": "value",
          "type": "uint256"
        }
      ],
      "name": "transfer",
      "outputs": [
        {
          "internalType": "bool",
          "name": "",
          "type": "bool"
        }
      ],
      "stateMutability": "nonpayable",
      "type": "function"
    },
    {
      "inputs": [
        {
          "internalType": "address",
          "name": "from",
          "type": "address"
        },
        {
          "internalType": "address",
          "name": "to",
          "type": "address"
        },
        {
          "internalType": "uint256",
          "name": "value",
          "type": "uint256"
        }
      ],
      "name": "transferFrom",
      "outputs": [
        {
          "internalType": "bool",
          "name": "",
          "type": "bool"
        }
      ],
      "stateMutability": "nonpayable",
      "type": "function"
    },
    {
      "inputs": [
        {
          "internalType": "address",
          "name": "newOwner",
          "type": "address"
        }
      ],
      "name": "transferOwnership",
      "outputs": [],
      "stateMutability": "nonpayable",
      "type": "function"
    }
  ],
  "bytecode": "0x6101206040523480156200001257600080fd5b506040516200329438038062003294833981810160405260808110156200003857600080fd5b81019080805160405193929190846401000000008211156200005957600080fd5b9083019060208201858111156200006f57600080fd5b82518660208202830111640100000000821117156200008d57600080fd5b82525081516020918201928201910280838360005b83811015620000bc578181015183820152602001620000a2565b5050505090500160405260200180516040519392919084640100000000821115620000e657600080fd5b908301906020820185811115620000fc57600080fd5b82518660208202830111640100000000821117156200011a57600080fd5b82525081516020918201928201910280838360005b83811015620001495781810151838201526020016200012f565b50505050919091016040818152602084810151948201518284018352600a8452694552433230204d6f636b60b01b828501528251808401845260038082526204532360ec1b82850152845180860186529081526275726960e81b93810193909352600080546001600160a01b0319163390811782559451979950919750939593945060129391928892889282917f8be0079c531659141344cd1fd0a4f28419497f9722a3daafe3b4186f6b6457e0908290a3506001600160601b0319606091821b811660a05291901b1660805283516200022b9060029060208701906200057b565b508251620002419060039060208601906200057b565b507fff0000000000000000000000000000000000000000000000000000000000000060f883901b16610100528051620002829060049060208401906200057b565b504660c0819052620002958186620002b6565b60e05250620002ac93508792508691505062000340565b5050505062000627565b8051602091820120604080517f8b73c3c69bb8fe3d512ecc4cf759cc79239f7b179b0ffacaa9a75d522b39400f81850152808201929092527fc89efdaa54c0f20c7adf612882df0950f5a951637e0307cdcb4c672f298b8bc6606083015260808201939093523060a0808301919091528351808303909101815260c0909101909252815191012090565b81518151811462000398576040805162461bcd60e51b815260206004820152601a60248201527f45524332303a20696e636f6e73697374656e7420617272617973000000000000604482015290519081900360640190fd5b6000805b8281146200050d576000858281518110620003b357fe5b6020026020010151905060006001600160a01b0316816001600160a01b0316141562000426576040805162461bcd60e51b815260206004820152601360248201527f45524332303a207a65726f206164647265737300000000000000000000000000604482015290519081900360640190fd5b60008583815181106200043557fe5b6020026020010151905080600014620004c157838101848111620004a0576040805162461bcd60e51b815260206004820152601660248201527f45524332303a2076616c756573206f766572666c6f7700000000000000000000604482015290519081900360640190fd5b6001600160a01b038316600090815260056020526040902080548301905593505b6040805182815290516001600160a01b038416916000917fddf252ad1be2c89b69c2b068fc378daa952ba7f163c4a11628f55a4df523b3ef9181900360200190a350506001016200039c565b508015620005755760075481810181811162000570576040805162461bcd60e51b815260206004820152601660248201527f45524332303a20737570706c79206f766572666c6f7700000000000000000000604482015290519081900360640190fd5b600755505b50505050565b828054600181600116156101000203166002900490600052602060002090601f016020900481019282620005b35760008555620005fe565b82601f10620005ce57805160ff1916838001178555620005fe565b82800160010185558215620005fe579182015b82811115620005fe578251825591602001919060010190620005e1565b506200060c92915062000610565b5090565b5b808211156200060c576000815560010162000611565b60805160601c60a05160601c60c05160e0516101005160f81c612c106200068460003980610c3c525080610d24525080610c635280611bb652508061126f5280612a9b5250806112aa5280612a605280612af35250612c106000f3fe608060405234801561001057600080fd5b50600436106101c45760003560e01c806373c8a958116100f9578063b88d4fde11610097578063d505accf11610071578063d505accf146109f6578063dd62ed3e14610a47578063eb79554914610a75578063f2fde38b14610afa576101c4565b8063b88d4fde1461084a578063c3666c36146108da578063cd0d0096146109ee576101c4565b80638da5cb5b116100d35780638da5cb5b146107c657806395d89b41146107ea578063a457c2d7146107f2578063a9059cbb1461081e576101c4565b806373c8a958146105ca5780637ecebe00146106de57806388d695b214610704576101c4565b806339509351116101665780634885b254116101405780634885b25414610385578063572b6c0514610457578063685731071461047d57806370a08231146105a4576101c4565b806339509351146103235780633c130d901461034f57806340c10f1914610357576101c4565b806318160ddd116101a257806318160ddd146102ad57806323b872dd146102c7578063313ce567146102fd5780633644e5151461031b576101c4565b806301ffc9a7146101c957806306fdde0314610204578063095ea7b314610281575b600080fd5b6101f0600480360360208110156101df57600080fd5b50356001600160e01b031916610b20565b604080519115158252519081900360200190f35b61020c610b64565b6040805160208082528351818301528351919283929083019185019080838360005b8381101561024657818101518382015260200161022e565b50505050905090810190601f1680156102735780820380516001836020036101000a031916815260200191505b509250505060405180910390f35b6101f06004803603604081101561029757600080fd5b506001600160a01b038135169060200135610bf8565b6102b5610c15565b60408051918252519081900360200190f35b6101f0600480360360608110156102dd57600080fd5b506001600160a01b03813581169160208101359091169060400135610c1b565b610305610c3a565b6040805160ff9092168252519081900360200190f35b6102b5610c5e565b6101f06004803603604081101561033957600080fd5b506001600160a01b038135169060200135610d4a565b61020c610eb8565b6103836004803603604081101561036d57600080fd5b506001600160a01b038135169060200135610f19565b005b6101f06004803603606081101561039b57600080fd5b6001600160a01b0382351691908101906040810160208201356401000000008111156103c657600080fd5b8201836020820111156103d857600080fd5b803590602001918460208302840111640100000000831117156103fa57600080fd5b91939092909160208101903564010000000081111561041857600080fd5b82018360208201111561042a57600080fd5b8035906020019184602083028401116401000000008311171561044c57600080fd5b509092509050610f37565b6101f06004803603602081101561046d57600080fd5b50356001600160a01b031661126b565b6103836004803603604081101561049357600080fd5b8101906020810181356401000000008111156104ae57600080fd5b8201836020820111156104c057600080fd5b803590602001918460208302840111640100000000831117156104e257600080fd5b919080806020026020016040519081016040528093929190818152602001838360200280828437600092019190915250929594936020810193503591505064010000000081111561053257600080fd5b82018360208201111561054457600080fd5b8035906020019184602083028401116401000000008311171561056657600080fd5b9190808060200260200160405190810160405280939291908181526020018383602002808284376000920191909152509295506112e4945050505050565b6102b5600480360360208110156105ba57600080fd5b50356001600160a01b03166112f9565b610383600480360360608110156105e057600080fd5b8101906020810181356401000000008111156105fb57600080fd5b82018360208201111561060d57600080fd5b8035906020019184602083028401116401000000008311171561062f57600080fd5b91939092909160208101903564010000000081111561064d57600080fd5b82018360208201111561065f57600080fd5b8035906020019184602083028401116401000000008311171561068157600080fd5b91939092909160208101903564010000000081111561069f57600080fd5b8201836020820111156106b157600080fd5b803590602001918460208302840111640100000000831117156106d357600080fd5b509092509050611314565b6102b5600480360360208110156106f457600080fd5b50356001600160a01b03166114b7565b6101f06004803603604081101561071a57600080fd5b81019060208101813564010000000081111561073557600080fd5b82018360208201111561074757600080fd5b8035906020019184602083028401116401000000008311171561076957600080fd5b91939092909160208101903564010000000081111561078757600080fd5b82018360208201111561079957600080fd5b803590602001918460208302840111640100000000831117156107bb57600080fd5b5090925090506114c9565b6107ce6117d8565b604080516001600160a01b039092168252519081900360200190f35b61020c6117e7565b6101f06004803603604081101561080857600080fd5b506001600160a01b038135169060200135611848565b6101f06004803603604081101561083457600080fd5b506001600160a01b0381351690602001356118b7565b6101f06004803603608081101561086057600080fd5b6001600160a01b0382358116926020810135909116916040820135919081019060808101606082013564010000000081111561089b57600080fd5b8201836020820111156108ad57600080fd5b803590602001918460018302840111640100000000831117156108cf57600080fd5b5090925090506118cb565b610383600480360360608110156108f057600080fd5b81019060208101813564010000000081111561090b57600080fd5b82018360208201111561091d57600080fd5b8035906020019184602083028401116401000000008311171561093f57600080fd5b91939092909160208101903564010000000081111561095d57600080fd5b82018360208201111561096f57600080fd5b8035906020019184602083028401116401000000008311171561099157600080fd5b9193909290916020810190356401000000008111156109af57600080fd5b8201836020820111156109c157600080fd5b803590602001918460208302840111640100000000831117156109e357600080fd5b509092509050611a6c565b6102b5611bb4565b610383600480360360e0811015610a0c57600080fd5b506001600160a01b03813581169160208101359091169060408101359060608101359060ff6080820135169060a08101359060c00135611bd8565b6102b560048036036040811015610a5d57600080fd5b506001600160a01b0381358116916020013516611e57565b6101f060048036036060811015610a8b57600080fd5b6001600160a01b0382351691602081013591810190606081016040820135640100000000811115610abb57600080fd5b820183602082011115610acd57600080fd5b80359060200191846001830284011164010000000083111715610aef57600080fd5b509092509050611e82565b61038360048036036020811015610b1057600080fd5b50356001600160a01b0316612021565b60006001600160e01b031982167f28963e1e000000000000000000000000000000000000000000000000000000001480610b5e5750610b5e82612092565b92915050565b60028054604080516020601f6000196101006001871615020190941685900493840181900481028201810190925282815260609390929091830182828015610bed5780601f10610bc257610100808354040283529160200191610bed565b820191906000526020600020905b815481529060010190602001808311610bd057829003601f168201915b505050505090505b90565b6000610c0c610c0561222f565b848461223e565b50600192915050565b60075490565b6000610c30610c2861222f565b8585856122fb565b5060019392505050565b7f000000000000000000000000000000000000000000000000000000000000000090565b6000467f00000000000000000000000000000000000000000000000000000000000000008114610d22576002805460408051602060018416156101000260001901909316849004601f8101849004840282018401909252818152610d1d93859391929091830182828015610d135780601f10610ce857610100808354040283529160200191610d13565b820191906000526020600020905b815481529060010190602001808311610cf657829003601f168201915b5050505050612330565b610d44565b7f00000000000000000000000000000000000000000000000000000000000000005b91505090565b60006001600160a01b038316610da7576040805162461bcd60e51b815260206004820152601b60248201527f45524332303a207a65726f2061646472657373207370656e6465720000000000604482015290519081900360640190fd5b6000610db161222f565b6001600160a01b038082166000908152600660209081526040808320938916835292905220549091508315610e6257808401818111610e37576040805162461bcd60e51b815260206004820152601960248201527f45524332303a20616c6c6f77616e6365206f766572666c6f7700000000000000604482015290519081900360640190fd5b6001600160a01b038084166000908152600660209081526040808320938a1683529290522081905590505b846001600160a01b0316826001600160a01b03167f8c5be1e5ebec7d5bd14f71427d1e84f3dd0314c0f7b2291e5b200ac8c7c3b925836040518082815260200191505060405180910390a3506001949350505050565b60048054604080516020601f6002600019610100600188161502019095169490940493840181900481028201810190925282815260609390929091830182828015610bed5780601f10610bc257610100808354040283529160200191610bed565b610f29610f2461222f565b6123ba565b610f338282612481565b5050565b600083828114610f8e576040805162461bcd60e51b815260206004820152601a60248201527f45524332303a20696e636f6e73697374656e7420617272617973000000000000604482015290519081900360640190fd5b6001600160a01b0387166000908152600560205260408120549080805b8481146111a05760008a8a83818110610fc057fe5b905060200201356001600160a01b0316905060006001600160a01b0316816001600160a01b0316141561103a576040805162461bcd60e51b815260206004820152601660248201527f45524332303a20746f207a65726f206164647265737300000000000000000000604482015290519081900360640190fd5b600089898481811061104857fe5b9050602002013590508060001461114b578481018581116110b0576040805162461bcd60e51b815260206004820152601660248201527f45524332303a2076616c756573206f766572666c6f7700000000000000000000604482015290519081900360640190fd5b809550826001600160a01b03168e6001600160a01b0316146110ef576001600160a01b0383166000908152600560205260409020805483019055611149565b86821115611144576040805162461bcd60e51b815260206004820152601b60248201527f45524332303a20696e73756666696369656e742062616c616e63650000000000604482015290519081900360640190fd5b938101935b505b816001600160a01b03168d6001600160a01b03167fddf252ad1be2c89b69c2b068fc378daa952ba7f163c4a11628f55a4df523b3ef836040518082815260200191505060405180910390a35050600101610fab565b5081158015906111b05750808214155b1561122a5781830383811061120c576040805162461bcd60e51b815260206004820152601b60248201527f45524332303a20696e73756666696369656e742062616c616e63650000000000604482015290519081900360640190fd5b6001600160a01b038b16600090815260056020526040902090820190555b600061123461222f565b9050806001600160a01b03168b6001600160a01b03161461125a5761125a8b82856125a4565b5060019a9950505050505050505050565b60007f00000000000000000000000000000000000000000000000000000000000000006001600160a01b0316826001600160a01b03161480610b5e57507f00000000000000000000000000000000000000000000000000000000000000006001600160a01b0316826001600160a01b0316149050919050565b6112ef610f2461222f565b610f3382826126b3565b6001600160a01b031660009081526005602052604090205490565b61131f610f2461222f565b84838114801561132e57508082145b61137f576040805162461bcd60e51b815260206004820152601a60248201527f5265636f763a20696e636f6e73697374656e7420617272617973000000000000604482015290519081900360640190fd5b60005b8181146114ad5785858281811061139557fe5b905060200201356001600160a01b03166001600160a01b031663a9059cbb8989848181106113bf57fe5b905060200201356001600160a01b03168686858181106113db57fe5b905060200201356040518363ffffffff1660e01b815260040180836001600160a01b0316815260200182815260200192505050602060405180830381600087803b15801561142857600080fd5b505af115801561143c573d6000803e3d6000fd5b505050506040513d602081101561145257600080fd5b50516114a5576040805162461bcd60e51b815260206004820152601660248201527f5265636f763a207472616e73666572206661696c656400000000000000000000604482015290519081900360640190fd5b600101611382565b5050505050505050565b60016020526000908152604090205481565b600083828114611520576040805162461bcd60e51b815260206004820152601a60248201527f45524332303a20696e636f6e73697374656e7420617272617973000000000000604482015290519081900360640190fd5b600061152a61222f565b6001600160a01b03811660009081526005602052604081205491925080805b85811461173e5760008b8b8381811061155e57fe5b905060200201356001600160a01b0316905060006001600160a01b0316816001600160a01b031614156115d8576040805162461bcd60e51b815260206004820152601660248201527f45524332303a20746f207a65726f206164647265737300000000000000000000604482015290519081900360640190fd5b60008a8a848181106115e657fe5b905060200201359050806000146116e95784810185811161164e576040805162461bcd60e51b815260206004820152601660248201527f45524332303a2076616c756573206f766572666c6f7700000000000000000000604482015290519081900360640190fd5b809550826001600160a01b0316886001600160a01b03161461168d576001600160a01b03831660009081526005602052604090208054830190556116e7565b868211156116e2576040805162461bcd60e51b815260206004820152601b60248201527f45524332303a20696e73756666696369656e742062616c616e63650000000000604482015290519081900360640190fd5b938101935b505b816001600160a01b0316876001600160a01b03167fddf252ad1be2c89b69c2b068fc378daa952ba7f163c4a11628f55a4df523b3ef836040518082815260200191505060405180910390a35050600101611549565b50811580159061174e5750808214155b156117c8578183038381106117aa576040805162461bcd60e51b815260206004820152601b60248201527f45524332303a20696e73756666696369656e742062616c616e63650000000000604482015290519081900360640190fd5b6001600160a01b038516600090815260056020526040902090820190555b5060019998505050505050505050565b6000546001600160a01b031690565b60038054604080516020601f6002600019610100600188161502019095169490940493840181900481028201810190925282815260609390929091830182828015610bed5780601f10610bc257610100808354040283529160200191610bed565b60006001600160a01b0383166118a5576040805162461bcd60e51b815260206004820152601b60248201527f45524332303a207a65726f2061646472657373207370656e6465720000000000604482015290519081900360640190fd5b610c0c6118b061222f565b84846125a4565b6000610c0c6118c461222f565b84846128e3565b6000806118d661222f565b90506118e4818888886122fb565b6118f6866001600160a01b0316612a4a565b15611a5f577f4fc35859000000000000000000000000000000000000000000000000000000007bffffffffffffffffffffffffffffffffffffffffffffffffffffffff1916866001600160a01b0316634fc35859838a8989896040518663ffffffff1660e01b815260040180866001600160a01b03168152602001856001600160a01b03168152602001848152602001806020018281038252848482818152602001925080828437600081840152601f19601f8201169050808301925050509650505050505050602060405180830381600087803b1580156119d757600080fd5b505af11580156119eb573d6000803e3d6000fd5b505050506040513d6020811015611a0157600080fd5b50516001600160e01b03191614611a5f576040805162461bcd60e51b815260206004820152601760248201527f45524332303a207472616e736665722072656675736564000000000000000000604482015290519081900360640190fd5b5060019695505050505050565b611a77610f2461222f565b848381148015611a8657508082145b611ad7576040805162461bcd60e51b815260206004820152601a60248201527f5265636f763a20696e636f6e73697374656e7420617272617973000000000000604482015290519081900360640190fd5b60005b8181146114ad57858582818110611aed57fe5b905060200201356001600160a01b03166001600160a01b03166323b872dd308a8a85818110611b1857fe5b905060200201356001600160a01b0316878786818110611b3457fe5b905060200201356040518463ffffffff1660e01b815260040180846001600160a01b03168152602001836001600160a01b031681526020018281526020019350505050600060405180830381600087803b158015611b9157600080fd5b505af1158015611ba5573d6000803e3d6000fd5b50505050806001019050611ada565b7f000000000000000000000000000000000000000000000000000000000000000081565b6001600160a01b038716611c33576040805162461bcd60e51b815260206004820152601960248201527f45524332303a207a65726f2061646472657373206f776e657200000000000000604482015290519081900360640190fd5b83421115611c88576040805162461bcd60e51b815260206004820152601560248201527f45524332303a2065787069726564207065726d69740000000000000000000000604482015290519081900360640190fd5b6001600160a01b0380881660008181526001602081815260408084208054938401905580517f6e71edae12b1b97f4d1f60370fef10105fa2faae0126114a169c64845d6126c98184015280820195909552948b166060850152608084018a905260a084019190915260c08084018990528451808503909101815260e09093019093528151919092012090611d1a610c5e565b8260405160200180807f190100000000000000000000000000000000000000000000000000000000000081525060020183815260200182815260200192505050604051602081830303815290604052805190602001209050600060018287878760405160008152602001604052604051808581526020018460ff1681526020018381526020018281526020019450505050506020604051602081039080840390855afa158015611dce573d6000803e3d6000fd5b505050602060405103519050896001600160a01b0316816001600160a01b031614611e40576040805162461bcd60e51b815260206004820152601560248201527f45524332303a20696e76616c6964207065726d69740000000000000000000000604482015290519081900360640190fd5b611e4b8a8a8a61223e565b50505050505050505050565b6001600160a01b03918216600090815260066020908152604080832093909416825291909152205490565b600080611e8d61222f565b9050611e9a8187876128e3565b611eac866001600160a01b0316612a4a565b15612015577f4fc35859000000000000000000000000000000000000000000000000000000007bffffffffffffffffffffffffffffffffffffffffffffffffffffffff1916866001600160a01b0316634fc3585983848989896040518663ffffffff1660e01b815260040180866001600160a01b03168152602001856001600160a01b03168152602001848152602001806020018281038252848482818152602001925080828437600081840152601f19601f8201169050808301925050509650505050505050602060405180830381600087803b158015611f8d57600080fd5b505af1158015611fa1573d6000803e3d6000fd5b505050506040513d6020811015611fb757600080fd5b50516001600160e01b03191614612015576040805162461bcd60e51b815260206004820152601760248201527f45524332303a207472616e736665722072656675736564000000000000000000604482015290519081900360640190fd5b50600195945050505050565b61202c610f2461222f565b600080547fffffffffffffffffffffffff0000000000000000000000000000000000000000166001600160a01b0383811691821780845560405192939116917f8be0079c531659141344cd1fd0a4f28419497f9722a3daafe3b4186f6b6457e09190a350565b60006001600160e01b031982167f01ffc9a70000000000000000000000000000000000000000000000000000000014806120f557506001600160e01b031982167f36372b0700000000000000000000000000000000000000000000000000000000145b8061212957506001600160e01b031982167fa219a02500000000000000000000000000000000000000000000000000000000145b8061215d57506001600160e01b031982167f3c130d9000000000000000000000000000000000000000000000000000000000145b8061219157506001600160e01b031982167f9d07518600000000000000000000000000000000000000000000000000000000145b806121c557506001600160e01b031982167fc05327e600000000000000000000000000000000000000000000000000000000145b806121f957506001600160e01b031982167f53f41a9700000000000000000000000000000000000000000000000000000000145b80610b5e5750506001600160e01b0319167f9d8ff7da000000000000000000000000000000000000000000000000000000001490565b6000612239612a50565b905090565b6001600160a01b038216612299576040805162461bcd60e51b815260206004820152601b60248201527f45524332303a207a65726f2061646472657373207370656e6465720000000000604482015290519081900360640190fd5b6001600160a01b03808416600081815260066020908152604080832094871680845294825291829020859055815185815291517f8c5be1e5ebec7d5bd14f71427d1e84f3dd0314c0f7b2291e5b200ac8c7c3b9259281900390910190a3505050565b6123068383836128e3565b836001600160a01b0316836001600160a01b03161461232a5761232a8385836125a4565b50505050565b8051602091820120604080517f8b73c3c69bb8fe3d512ecc4cf759cc79239f7b179b0ffacaa9a75d522b39400f81850152808201929092527fc89efdaa54c0f20c7adf612882df0950f5a951637e0307cdcb4c672f298b8bc6606083015260808201939093523060a0808301919091528351808303909101815260c0909101909252815191012090565b306001600160a01b0316638da5cb5b6040518163ffffffff1660e01b815260040160206040518083038186803b1580156123f357600080fd5b505afa158015612407573d6000803e3d6000fd5b505050506040513d602081101561241d57600080fd5b50516001600160a01b0382811691161461247e576040805162461bcd60e51b815260206004820152601660248201527f4f776e61626c653a206e6f7420746865206f776e657200000000000000000000604482015290519081900360640190fd5b50565b6001600160a01b0382166124dc576040805162461bcd60e51b815260206004820152601360248201527f45524332303a207a65726f206164647265737300000000000000000000000000604482015290519081900360640190fd5b600754811561255e5780820181811161253c576040805162461bcd60e51b815260206004820152601660248201527f45524332303a20737570706c79206f766572666c6f7700000000000000000000604482015290519081900360640190fd5b6007556001600160a01b03831660009081526005602052604090208054830190555b6040805183815290516001600160a01b038516916000917fddf252ad1be2c89b69c2b068fc378daa952ba7f163c4a11628f55a4df523b3ef9181900360200190a3505050565b6001600160a01b0380841660009081526006602090815260408083209386168352929052205460001981148015906125db57508115155b1561266257818103818110612637576040805162461bcd60e51b815260206004820152601d60248201527f45524332303a20696e73756666696369656e7420616c6c6f77616e6365000000604482015290519081900360640190fd5b6001600160a01b03808616600090815260066020908152604080832093881683529290522081905590505b826001600160a01b0316846001600160a01b03167f8c5be1e5ebec7d5bd14f71427d1e84f3dd0314c0f7b2291e5b200ac8c7c3b925836040518082815260200191505060405180910390a350505050565b81518151811461270a576040805162461bcd60e51b815260206004820152601a60248201527f45524332303a20696e636f6e73697374656e7420617272617973000000000000604482015290519081900360640190fd5b6000805b82811461287857600085828151811061272357fe5b6020026020010151905060006001600160a01b0316816001600160a01b03161415612795576040805162461bcd60e51b815260206004820152601360248201527f45524332303a207a65726f206164647265737300000000000000000000000000604482015290519081900360640190fd5b60008583815181106127a357fe5b602002602001015190508060001461282d5783810184811161280c576040805162461bcd60e51b815260206004820152601660248201527f45524332303a2076616c756573206f766572666c6f7700000000000000000000604482015290519081900360640190fd5b6001600160a01b038316600090815260056020526040902080548301905593505b6040805182815290516001600160a01b038416916000917fddf252ad1be2c89b69c2b068fc378daa952ba7f163c4a11628f55a4df523b3ef9181900360200190a3505060010161270e565b50801561232a576007548181018181116128d9576040805162461bcd60e51b815260206004820152601660248201527f45524332303a20737570706c79206f766572666c6f7700000000000000000000604482015290519081900360640190fd5b6007555050505050565b6001600160a01b03821661293e576040805162461bcd60e51b815260206004820152601660248201527f45524332303a20746f207a65726f206164647265737300000000000000000000604482015290519081900360640190fd5b80156129fa576001600160a01b0383166000908152600560205260409020548181038181106129b4576040805162461bcd60e51b815260206004820152601b60248201527f45524332303a20696e73756666696369656e742062616c616e63650000000000604482015290519081900360640190fd5b836001600160a01b0316856001600160a01b0316146129f7576001600160a01b038086166000908152600560205260408082208490559186168152208054840190555b50505b816001600160a01b0316836001600160a01b03167fddf252ad1be2c89b69c2b068fc378daa952ba7f163c4a11628f55a4df523b3ef836040518082815260200191505060405180910390a3505050565b3b151590565b60003381612a5c612bb0565b90507f00000000000000000000000000000000000000000000000000000000000000006001600160a01b0316826001600160a01b03161480612acf57507f00000000000000000000000000000000000000000000000000000000000000006001600160a01b0316826001600160a01b0316145b15612add579150610bf59050565b6001600160a01b0382163214801590612b9c57507f00000000000000000000000000000000000000000000000000000000000000006001600160a01b031663e60125d682846040518363ffffffff1660e01b815260040180836001600160a01b03168152602001826001600160a01b031681526020019250505060206040518083038186803b158015612b6f57600080fd5b505afa158015612b83573d6000803e3d6000fd5b505050506040513d6020811015612b9957600080fd5b50515b15612baa579150610bf59050565b50905090565b7fffffffffffffffffffffffffffffffffffffffffffffffffffffffffffffffec36013560601c9056fea2646970667358221220a82eb199be28e0ae3690aff521779290eaed2a562c30d2686908383a671e9c2d64736f6c63430007060033",
  "linkReferences": {},
  "deployedLinkReferences": {}
}