{
  "_format": "hh-sol-artifact-1",
  "contractName": "ERC1155InventoryMock",
  "sourceName": "contracts/mocks/token/ERC1155/ERC1155InventoryMock.sol",
  "abi": [
    {
      "inputs": [
        {
          "internalType": "contract IForwarderRegistry",
          "name": "forwarderRegistry",
          "type": "address"
        },
        {
          "internalType": "address",
          "name": "universalForwarder",
          "type": "address"
        }
      ],
      "stateMutability": "nonpayable",
      "type": "constructor"
    },
    {
      "anonymous": false,
      "inputs": [
        {
          "indexed": true,
          "internalType": "address",
          "name": "_owner",
          "type": "address"
        },
        {
          "indexed": true,
          "internalType": "address",
          "name": "_operator",
          "type": "address"
        },
        {
          "indexed": false,
          "internalType": "bool",
          "name": "_approved",
          "type": "bool"
        }
      ],
      "name": "ApprovalForAll",
      "type": "event"
    },
    {
      "anonymous": false,
      "inputs": [
        {
          "indexed": false,
          "internalType": "string",
          "name": "baseMetadataURI",
          "type": "string"
        }
      ],
      "name": "BaseMetadataURISet",
      "type": "event"
    },
    {
      "anonymous": false,
      "inputs": [
        {
          "indexed": true,
          "internalType": "uint256",
          "name": "collectionId",
          "type": "uint256"
        },
        {
          "indexed": true,
          "internalType": "bool",
          "name": "fungible",
          "type": "bool"
        }
      ],
      "name": "CollectionCreated",
      "type": "event"
    },
    {
      "anonymous": false,
      "inputs": [
        {
          "indexed": true,
          "internalType": "address",
          "name": "account",
          "type": "address"
        }
      ],
      "name": "MinterAdded",
      "type": "event"
    },
    {
      "anonymous": false,
      "inputs": [
        {
          "indexed": true,
          "internalType": "address",
          "name": "account",
          "type": "address"
        }
      ],
      "name": "MinterRemoved",
      "type": "event"
    },
    {
      "anonymous": false,
      "inputs": [
        {
          "indexed": true,
          "internalType": "address",
          "name": "previousOwner",
          "type": "address"
        },
        {
          "indexed": true,
          "internalType": "address",
          "name": "newOwner",
          "type": "address"
        }
      ],
      "name": "OwnershipTransferred",
      "type": "event"
    },
    {
      "anonymous": false,
      "inputs": [
        {
          "indexed": true,
          "internalType": "address",
          "name": "_operator",
          "type": "address"
        },
        {
          "indexed": true,
          "internalType": "address",
          "name": "_from",
          "type": "address"
        },
        {
          "indexed": true,
          "internalType": "address",
          "name": "_to",
          "type": "address"
        },
        {
          "indexed": false,
          "internalType": "uint256[]",
          "name": "_ids",
          "type": "uint256[]"
        },
        {
          "indexed": false,
          "internalType": "uint256[]",
          "name": "_values",
          "type": "uint256[]"
        }
      ],
      "name": "TransferBatch",
      "type": "event"
    },
    {
      "anonymous": false,
      "inputs": [
        {
          "indexed": true,
          "internalType": "address",
          "name": "_operator",
          "type": "address"
        },
        {
          "indexed": true,
          "internalType": "address",
          "name": "_from",
          "type": "address"
        },
        {
          "indexed": true,
          "internalType": "address",
          "name": "_to",
          "type": "address"
        },
        {
          "indexed": false,
          "internalType": "uint256",
          "name": "_id",
          "type": "uint256"
        },
        {
          "indexed": false,
          "internalType": "uint256",
          "name": "_value",
          "type": "uint256"
        }
      ],
      "name": "TransferSingle",
      "type": "event"
    },
    {
      "anonymous": false,
      "inputs": [
        {
          "indexed": false,
          "internalType": "string",
          "name": "_value",
          "type": "string"
        },
        {
          "indexed": true,
          "internalType": "uint256",
          "name": "_id",
          "type": "uint256"
        }
      ],
      "name": "URI",
      "type": "event"
    },
    {
      "inputs": [
        {
          "internalType": "address",
          "name": "account",
          "type": "address"
        }
      ],
      "name": "addMinter",
      "outputs": [],
      "stateMutability": "nonpayable",
      "type": "function"
    },
    {
      "inputs": [
        {
          "internalType": "address",
          "name": "owner",
          "type": "address"
        },
        {
          "internalType": "uint256",
          "name": "id",
          "type": "uint256"
        }
      ],
      "name": "balanceOf",
      "outputs": [
        {
          "internalType": "uint256",
          "name": "",
          "type": "uint256"
        }
      ],
      "stateMutability": "view",
      "type": "function"
    },
    {
      "inputs": [
        {
          "internalType": "address[]",
          "name": "owners",
          "type": "address[]"
        },
        {
          "internalType": "uint256[]",
          "name": "ids",
          "type": "uint256[]"
        }
      ],
      "name": "balanceOfBatch",
      "outputs": [
        {
          "internalType": "uint256[]",
          "name": "",
          "type": "uint256[]"
        }
      ],
      "stateMutability": "view",
      "type": "function"
    },
    {
      "inputs": [],
      "name": "baseMetadataURI",
      "outputs": [
        {
          "internalType": "string",
          "name": "",
          "type": "string"
        }
      ],
      "stateMutability": "view",
      "type": "function"
    },
    {
      "inputs": [
        {
          "internalType": "uint256",
          "name": "nftId",
          "type": "uint256"
        }
      ],
      "name": "collectionOf",
      "outputs": [
        {
          "internalType": "uint256",
          "name": "",
          "type": "uint256"
        }
      ],
      "stateMutability": "pure",
      "type": "function"
    },
    {
      "inputs": [
        {
          "internalType": "uint256",
          "name": "collectionId",
          "type": "uint256"
        }
      ],
      "name": "createCollection",
      "outputs": [],
      "stateMutability": "nonpayable",
      "type": "function"
    },
    {
      "inputs": [
        {
          "internalType": "uint256",
          "name": "collectionId",
          "type": "uint256"
        }
      ],
      "name": "creator",
      "outputs": [
        {
          "internalType": "address",
          "name": "",
          "type": "address"
        }
      ],
      "stateMutability": "view",
      "type": "function"
    },
    {
      "inputs": [
        {
          "internalType": "address",
          "name": "tokenOwner",
          "type": "address"
        },
        {
          "internalType": "address",
          "name": "operator",
          "type": "address"
        }
      ],
      "name": "isApprovedForAll",
      "outputs": [
        {
          "internalType": "bool",
          "name": "",
          "type": "bool"
        }
      ],
      "stateMutability": "view",
      "type": "function"
    },
    {
      "inputs": [
        {
          "internalType": "uint256",
          "name": "id",
          "type": "uint256"
        }
      ],
      "name": "isFungible",
      "outputs": [
        {
          "internalType": "bool",
          "name": "",
          "type": "bool"
        }
      ],
      "stateMutability": "pure",
      "type": "function"
    },
    {
      "inputs": [
        {
          "internalType": "address",
          "name": "",
          "type": "address"
        }
      ],
      "name": "isMinter",
      "outputs": [
        {
          "internalType": "bool",
          "name": "",
          "type": "bool"
        }
      ],
      "stateMutability": "view",
      "type": "function"
    },
    {
      "inputs": [
        {
          "internalType": "address",
          "name": "forwarder",
          "type": "address"
        }
      ],
      "name": "isTrustedForwarder",
      "outputs": [
        {
          "internalType": "bool",
          "name": "",
          "type": "bool"
        }
      ],
      "stateMutability": "view",
      "type": "function"
    },
    {
      "inputs": [],
      "name": "msgData",
      "outputs": [
        {
          "internalType": "bytes",
          "name": "ret",
          "type": "bytes"
        }
      ],
      "stateMutability": "view",
      "type": "function"
    },
    {
      "inputs": [],
      "name": "owner",
      "outputs": [
        {
          "internalType": "address",
          "name": "",
          "type": "address"
        }
      ],
      "stateMutability": "view",
      "type": "function"
    },
    {
      "inputs": [
        {
          "internalType": "uint256",
          "name": "nftId",
          "type": "uint256"
        }
      ],
      "name": "ownerOf",
      "outputs": [
        {
          "internalType": "address",
          "name": "",
          "type": "address"
        }
      ],
      "stateMutability": "view",
      "type": "function"
    },
    {
      "inputs": [
        {
          "internalType": "address[]",
          "name": "accounts",
          "type": "address[]"
        },
        {
          "internalType": "address[]",
          "name": "tokens",
          "type": "address[]"
        },
        {
          "internalType": "uint256[]",
          "name": "amounts",
          "type": "uint256[]"
        }
      ],
      "name": "recoverERC20s",
      "outputs": [],
      "stateMutability": "nonpayable",
      "type": "function"
    },
    {
      "inputs": [
        {
          "internalType": "address[]",
          "name": "accounts",
          "type": "address[]"
        },
        {
          "internalType": "address[]",
          "name": "contracts",
          "type": "address[]"
        },
        {
          "internalType": "uint256[]",
          "name": "tokenIds",
          "type": "uint256[]"
        }
      ],
      "name": "recoverERC721s",
      "outputs": [],
      "stateMutability": "nonpayable",
      "type": "function"
    },
    {
      "inputs": [],
      "name": "renounceMinter",
      "outputs": [],
      "stateMutability": "nonpayable",
      "type": "function"
    },
    {
      "inputs": [
        {
          "internalType": "address",
          "name": "to",
          "type": "address"
        },
        {
          "internalType": "uint256[]",
          "name": "ids",
          "type": "uint256[]"
        },
        {
          "internalType": "uint256[]",
          "name": "values",
          "type": "uint256[]"
        },
        {
          "internalType": "bytes",
          "name": "data",
          "type": "bytes"
        }
      ],
      "name": "safeBatchMint",
      "outputs": [],
      "stateMutability": "nonpayable",
      "type": "function"
    },
    {
      "inputs": [
        {
          "internalType": "address",
          "name": "from",
          "type": "address"
        },
        {
          "internalType": "address",
          "name": "to",
          "type": "address"
        },
        {
          "internalType": "uint256[]",
          "name": "ids",
          "type": "uint256[]"
        },
        {
          "internalType": "uint256[]",
          "name": "values",
          "type": "uint256[]"
        },
        {
          "internalType": "bytes",
          "name": "data",
          "type": "bytes"
        }
      ],
      "name": "safeBatchTransferFrom",
      "outputs": [],
      "stateMutability": "nonpayable",
      "type": "function"
    },
    {
      "inputs": [
        {
          "internalType": "address",
          "name": "to",
          "type": "address"
        },
        {
          "internalType": "uint256",
          "name": "id",
          "type": "uint256"
        },
        {
          "internalType": "uint256",
          "name": "value",
          "type": "uint256"
        },
        {
          "internalType": "bytes",
          "name": "data",
          "type": "bytes"
        }
      ],
      "name": "safeMint",
      "outputs": [],
      "stateMutability": "nonpayable",
      "type": "function"
    },
    {
      "inputs": [
        {
          "internalType": "address",
          "name": "from",
          "type": "address"
        },
        {
          "internalType": "address",
          "name": "to",
          "type": "address"
        },
        {
          "internalType": "uint256",
          "name": "id",
          "type": "uint256"
        },
        {
          "internalType": "uint256",
          "name": "value",
          "type": "uint256"
        },
        {
          "internalType": "bytes",
          "name": "data",
          "type": "bytes"
        }
      ],
      "name": "safeTransferFrom",
      "outputs": [],
      "stateMutability": "nonpayable",
      "type": "function"
    },
    {
      "inputs": [
        {
          "internalType": "address",
          "name": "operator",
          "type": "address"
        },
        {
          "internalType": "bool",
          "name": "approved",
          "type": "bool"
        }
      ],
      "name": "setApprovalForAll",
      "outputs": [],
      "stateMutability": "nonpayable",
      "type": "function"
    },
    {
      "inputs": [
        {
          "internalType": "string",
          "name": "baseMetadataURI_",
          "type": "string"
        }
      ],
      "name": "setBaseMetadataURI",
      "outputs": [],
      "stateMutability": "nonpayable",
      "type": "function"
    },
    {
      "inputs": [
        {
          "internalType": "bytes4",
          "name": "interfaceId",
          "type": "bytes4"
        }
      ],
      "name": "supportsInterface",
      "outputs": [
        {
          "internalType": "bool",
          "name": "",
          "type": "bool"
        }
      ],
      "stateMutability": "view",
      "type": "function"
    },
    {
      "inputs": [
        {
          "internalType": "uint256",
          "name": "id",
          "type": "uint256"
        }
      ],
      "name": "totalSupply",
      "outputs": [
        {
          "internalType": "uint256",
          "name": "",
          "type": "uint256"
        }
      ],
      "stateMutability": "view",
      "type": "function"
    },
    {
      "inputs": [
        {
          "internalType": "address",
          "name": "newOwner",
          "type": "address"
        }
      ],
      "name": "transferOwnership",
      "outputs": [],
      "stateMutability": "nonpayable",
      "type": "function"
    },
    {
      "inputs": [
        {
          "internalType": "uint256",
          "name": "id",
          "type": "uint256"
        }
      ],
      "name": "uri",
      "outputs": [
        {
          "internalType": "string",
          "name": "",
          "type": "string"
        }
      ],
      "stateMutability": "view",
      "type": "function"
    }
  ],
  "bytecode": "0x60c06040523480156200001157600080fd5b506040516200367938038062003679833981810160405260408110156200003757600080fd5b508051602090910151600080546001600160a01b03191633908117825560405190918491849184918291907f8be0079c531659141344cd1fd0a4f28419497f9722a3daafe3b4186f6b6457e0908290a3506001600160601b0319606091821b811660a05291901b16608052620000ad81620000b6565b50505062000102565b6001600160a01b038116600081815260076020526040808220805460ff19166001179055517f6ae172837ea30b801fbfcdd4108aa1d5bf8ff775444fd70256b44e6bf3dfc3f69190a250565b60805160601c60a05160601c61352f6200014a60003980610fcb5280612ab952806132de5250806110065280612a7e5280612b1152806132b4528061333f525061352f6000f3fe608060405234801561001057600080fd5b50600436106101b85760003560e01c80638da5cb5b116100f9578063c3666c3611610097578063d0011d9d11610071578063d0011d9d14610c28578063e985e9c514610c45578063f242432a14610c73578063f2fde38b14610d3e576101b8565b8063c3666c3614610aef578063c4c2bfdc14610c03578063c7778baa14610c0b576101b8565b8063a22cb465116100d3578063a22cb46514610a61578063aa271e1a14610a8f578063adebf6f214610ab5578063bd85b03914610ad2576101b8565b80638da5cb5b14610a2b578063983b2d5614610a335780639865027514610a59576101b8565b8063510b5158116101665780635cfa9297116101405780635cfa9297146107c85780636352211e1461088a57806373c8a958146108a75780637e518ec8146109bb576101b8565b8063510b515814610761578063572b6c051461079a5780635b2bd79e146107c0576101b8565b80630e89341c116101975780630e89341c146103f65780632eb2c2d6146104885780634e1273f41461064f576101b8565b8062fdd58e146101bd57806301ffc9a7146101fb5780630d6a5bbb14610236575b600080fd5b6101e9600480360360408110156101d357600080fd5b506001600160a01b038135169060200135610d64565b60408051918252519081900360200190f35b6102226004803603602081101561021157600080fd5b50356001600160e01b031916610e2f565b604080519115158252519081900360200190f35b6103f46004803603608081101561024c57600080fd5b6001600160a01b03823516919081019060408101602082013564010000000081111561027757600080fd5b82018360208201111561028957600080fd5b803590602001918460208302840111640100000000831117156102ab57600080fd5b91908080602002602001604051908101604052809392919081815260200183836020028082843760009201919091525092959493602081019350359150506401000000008111156102fb57600080fd5b82018360208201111561030d57600080fd5b8035906020019184602083028401116401000000008311171561032f57600080fd5b919080806020026020016040519081016040528093929190818152602001838360200280828437600092019190915250929594936020810193503591505064010000000081111561037f57600080fd5b82018360208201111561039157600080fd5b803590602001918460018302840111640100000000831117156103b357600080fd5b91908080601f016020809104026020016040519081016040528093929190818152602001838380828437600092019190915250929550610e75945050505050565b005b6104136004803603602081101561040c57600080fd5b5035610e97565b6040805160208082528351818301528351919283929083019185019080838360005b8381101561044d578181015183820152602001610435565b50505050905090810190601f16801561047a5780820380516001836020036101000a031916815260200191505b509250505060405180910390f35b6103f4600480360360a081101561049e57600080fd5b6001600160a01b0382358116926020810135909116918101906060810160408201356401000000008111156104d257600080fd5b8201836020820111156104e457600080fd5b8035906020019184602083028401116401000000008311171561050657600080fd5b919080806020026020016040519081016040528093929190818152602001838360200280828437600092019190915250929594936020810193503591505064010000000081111561055657600080fd5b82018360208201111561056857600080fd5b8035906020019184602083028401116401000000008311171561058a57600080fd5b91908080602002602001604051908101604052809392919081815260200183836020028082843760009201919091525092959493602081019350359150506401000000008111156105da57600080fd5b8201836020820111156105ec57600080fd5b8035906020019184600183028401116401000000008311171561060e57600080fd5b91908080601f016020809104026020016040519081016040528093929190818152602001838380828437600092019190915250929550610ea2945050505050565b6107116004803603604081101561066557600080fd5b81019060208101813564010000000081111561068057600080fd5b82018360208201111561069257600080fd5b803590602001918460208302840111640100000000831117156106b457600080fd5b9193909290916020810190356401000000008111156106d257600080fd5b8201836020820111156106e457600080fd5b8035906020019184602083028401116401000000008311171561070657600080fd5b509092509050610eb6565b60408051602080825283518183015283519192839290830191858101910280838360005b8381101561074d578181015183820152602001610735565b505050509050019250505060405180910390f35b61077e6004803603602081101561077757600080fd5b5035610fbc565b604080516001600160a01b039092168252519081900360200190f35b610222600480360360208110156107b057600080fd5b50356001600160a01b0316610fc7565b610413611040565b6103f4600480360360808110156107de57600080fd5b6001600160a01b03823516916020810135916040820135919081019060808101606082013564010000000081111561081557600080fd5b82018360208201111561082757600080fd5b8035906020019184600183028401116401000000008311171561084957600080fd5b91908080601f0160208091040260200160405190810160405280939291908181526020018383808284376000920191909152509295506110ce945050505050565b61077e600480360360208110156108a057600080fd5b50356110e5565b6103f4600480360360608110156108bd57600080fd5b8101906020810181356401000000008111156108d857600080fd5b8201836020820111156108ea57600080fd5b8035906020019184602083028401116401000000008311171561090c57600080fd5b91939092909160208101903564010000000081111561092a57600080fd5b82018360208201111561093c57600080fd5b8035906020019184602083028401116401000000008311171561095e57600080fd5b91939092909160208101903564010000000081111561097c57600080fd5b82018360208201111561098e57600080fd5b803590602001918460208302840111640100000000831117156109b057600080fd5b50909250905061114f565b6103f4600480360360208110156109d157600080fd5b8101906020810181356401000000008111156109ec57600080fd5b8201836020820111156109fe57600080fd5b80359060200191846001830284011164010000000083111715610a2057600080fd5b509092509050611241565b61077e6112bd565b6103f460048036036020811015610a4957600080fd5b50356001600160a01b03166112cd565b6103f46112e4565b6103f460048036036040811015610a7757600080fd5b506001600160a01b0381351690602001351515611342565b61022260048036036020811015610aa557600080fd5b50356001600160a01b0316611423565b61022260048036036020811015610acb57600080fd5b5035611438565b6101e960048036036020811015610ae857600080fd5b5035611443565b6103f460048036036060811015610b0557600080fd5b810190602081018135640100000000811115610b2057600080fd5b820183602082011115610b3257600080fd5b80359060200191846020830284011164010000000083111715610b5457600080fd5b919390929091602081019035640100000000811115610b7257600080fd5b820183602082011115610b8457600080fd5b80359060200191846020830284011164010000000083111715610ba657600080fd5b919390929091602081019035640100000000811115610bc457600080fd5b820183602082011115610bd657600080fd5b80359060200191846020830284011164010000000083111715610bf857600080fd5b509092509050611499565b6104136115e1565b6101e960048036036020811015610c2157600080fd5b50356115f0565b6103f460048036036020811015610c3e57600080fd5b5035611655565b61022260048036036040811015610c5b57600080fd5b506001600160a01b0381358116916020013516611669565b6103f4600480360360a0811015610c8957600080fd5b6001600160a01b03823581169260208101359091169160408201359160608101359181019060a081016080820135640100000000811115610cc957600080fd5b820183602082011115610cdb57600080fd5b80359060200191846001830284011164010000000083111715610cfd57600080fd5b91908080601f016020809104026020016040519081016040528093929190818152602001838380828437600092019190915250929550611697945050505050565b6103f460048036036020811015610d5457600080fd5b50356001600160a01b031661186a565b60006001600160a01b038316610dc1576040805162461bcd60e51b815260206004820152601760248201527f496e76656e746f72793a207a65726f2061646472657373000000000000000000604482015290519081900360640190fd5b610dca826118db565b15610e04576000828152600460205260409020546001600160a01b03848116911614610df7576000610dfa565b60015b60ff169050610e29565b5060008181526002602090815260408083206001600160a01b03861684529091529020545b92915050565b60006001600160e01b031982167f510b5158000000000000000000000000000000000000000000000000000000001480610e6d5750610e6d8261192d565b90505b919050565b610e85610e80611a2e565b611a38565b610e9184848484611aa5565b50505050565b6060610e6d82611d8f565b610eaf8585858585611e62565b5050505050565b6060838214610f0c576040805162461bcd60e51b815260206004820152601e60248201527f496e76656e746f72793a20696e636f6e73697374656e74206172726179730000604482015290519081900360640190fd5b60008467ffffffffffffffff81118015610f2557600080fd5b50604051908082528060200260200182016040528015610f4f578160200160208202803683370190505b50905060005b808614610fb257610f93878783818110610f6b57fe5b905060200201356001600160a01b0316868684818110610f8757fe5b90506020020135610d64565b828281518110610f9f57fe5b6020908102919091010152600101610f55565b5095945050505050565b6000610e6d8261215e565b60007f00000000000000000000000000000000000000000000000000000000000000006001600160a01b0316826001600160a01b03161480610e6d57507f00000000000000000000000000000000000000000000000000000000000000006001600160a01b0316826001600160a01b0316149050919050565b6006805460408051602060026001851615610100026000190190941693909304601f810184900484028201840190925281815292918301828280156110c65780601f1061109b576101008083540402835291602001916110c6565b820191906000526020600020905b8154815290600101906020018083116110a957829003601f168201915b505050505081565b6110d9610e80611a2e565b610e91848484846121d7565b6000818152600460205260408120546001600160a01b038116610e6d576040805162461bcd60e51b815260206004820152601b60248201527f496e76656e746f72793a206e6f6e2d6578697374696e67204e46540000000000604482015290519081900360640190fd5b61115f61115a611a2e565b6122ec565b84838114801561116e57508082145b6111bf576040805162461bcd60e51b815260206004820152601a60248201527f5265636f763a20696e636f6e73697374656e7420617272617973000000000000604482015290519081900360640190fd5b60005b8181146112375761122f8888838181106111d857fe5b905060200201356001600160a01b03168585848181106111f457fe5b9050602002013588888581811061120757fe5b905060200201356001600160a01b03166001600160a01b03166123b09092919063ffffffff16565b6001016111c2565b5050505050505050565b61124c61115a611a2e565b61125860068383613430565b507f04b1dc5c136a3ce9fded8db0ce3d3366c58764ec3a8e4c2b9e52e4ddfe5ebbf7828260405180806020018281038252848482818152602001925080828437600083820152604051601f909101601f19169092018290039550909350505050a15050565b6000546001600160a01b03165b90565b6112d861115a611a2e565b6112e181612435565b50565b60006112ee611a2e565b90506112f981611a38565b6001600160a01b038116600081815260076020526040808220805460ff19169055517fe94479a9f7e1952cc78f2d6baab678adc1b772d936c6583def489e524cb666929190a250565b600061134c611a2e565b9050806001600160a01b0316836001600160a01b031614156113b5576040805162461bcd60e51b815260206004820152601860248201527f496e76656e746f72793a2073656c662d617070726f76616c0000000000000000604482015290519081900360640190fd5b6001600160a01b03818116600081815260016020908152604080832094881680845294825291829020805460ff1916871515908117909155825190815291517f17307eab39ab6107e8899845ad3d59bd9653f200f220920489ca2b5937696c319281900390910190a3505050565b60076020526000908152604090205460ff1681565b6000610e6d82612481565b600061144e826118db565b15611484576000828152600460205260409020546001600160a01b03161561147757600161147a565b60005b60ff169050610e70565b50600081815260036020526040902054610e70565b6114a461115a611a2e565b8483811480156114b357508082145b611504576040805162461bcd60e51b815260206004820152601a60248201527f5265636f763a20696e636f6e73697374656e7420617272617973000000000000604482015290519081900360640190fd5b60005b8181146112375785858281811061151a57fe5b905060200201356001600160a01b03166001600160a01b03166323b872dd308a8a8581811061154557fe5b905060200201356001600160a01b031687878681811061156157fe5b905060200201356040518463ffffffff1660e01b815260040180846001600160a01b03168152602001836001600160a01b031681526020018281526020019350505050600060405180830381600087803b1580156115be57600080fd5b505af11580156115d2573d6000803e3d6000fd5b50505050806001019050611507565b60606115eb6124a7565b905090565b60006115fb826118db565b61164c576040805162461bcd60e51b815260206004820152601560248201527f496e76656e746f72793a206e6f7420616e204e46540000000000000000000000604482015290519081900360640190fd5b610e6d826124eb565b61166061115a611a2e565b6112e1816124f8565b6001600160a01b03918216600090815260016020908152604080832093909416825291909152205460ff1690565b60006116a1611a2e565b90506001600160a01b0385166116fe576040805162461bcd60e51b815260206004820152601b60248201527f496e76656e746f72793a207472616e7366657220746f207a65726f0000000000604482015290519081900360640190fd5b6117088682612644565b611759576040805162461bcd60e51b815260206004820152601e60248201527f496e76656e746f72793a206e6f6e2d617070726f7665642073656e6465720000604482015290519081900360640190fd5b61176284612481565b156117785761177386868686612692565b6117e1565b611781846118db565b15611794576117738686868660006127b0565b6040805162461bcd60e51b815260206004820152601960248201527f496e76656e746f72793a206e6f74206120746f6b656e20696400000000000000604482015290519081900360640190fd5b846001600160a01b0316866001600160a01b0316826001600160a01b03167fc3d58168c5ae7397731d063d5bbf3d657854427343f4c083240f7aacaa2d0f628787604051808381526020018281526020019250505060405180910390a4611850856001600160a01b03166128de565b156118625761186286868686866128e4565b505050505050565b61187561115a611a2e565b600080547fffffffffffffffffffffffff0000000000000000000000000000000000000000166001600160a01b0383811691821780845560405192939116917f8be0079c531659141344cd1fd0a4f28419497f9722a3daafe3b4186f6b6457e09190a350565b60007f8000000000000000000000000000000000000000000000000000000000000000821615801590610e6d5750507bffffffffffffffffffffffffffffffffffffffffffffffffffffffff16151590565b60006001600160e01b031982167f01ffc9a700000000000000000000000000000000000000000000000000000000148061199057506001600160e01b031982167fd9b67a2600000000000000000000000000000000000000000000000000000000145b806119c457506001600160e01b031982167f0e89341c00000000000000000000000000000000000000000000000000000000145b806119f857506001600160e01b031982167f09ce5c4600000000000000000000000000000000000000000000000000000000145b80610e6d5750506001600160e01b0319167fbd85b039000000000000000000000000000000000000000000000000000000001490565b60006115eb612a6e565b6001600160a01b03811660009081526007602052604090205460ff166112e1576040805162461bcd60e51b815260206004820152601860248201527f4d696e746572526f6c653a206e6f742061204d696e7465720000000000000000604482015290519081900360640190fd5b6001600160a01b038416611b00576040805162461bcd60e51b815260206004820152601760248201527f496e76656e746f72793a206d696e7420746f207a65726f000000000000000000604482015290519081900360640190fd5b825182518114611b57576040805162461bcd60e51b815260206004820152601e60248201527f496e76656e746f72793a20696e636f6e73697374656e74206172726179730000604482015290519081900360640190fd5b60008060005b838114611c49576000878281518110611b7257fe5b602002602001015190506000878381518110611b8a57fe5b60200260200101519050611b9d82612481565b15611bb257611bad8a8383612bce565b611c3f565b611bbb826118db565b1561179457611bcd8a83836001612cc0565b6000611bd8836124eb565b905085611beb5780955060019450611c3d565b858114611c365760008681526002602090815260408083206001600160a01b038f16845282528083208054890190559782526003905295909520805490940190935560019284611c3d565b8460010194505b505b5050600101611b5d565b508115611c895760008281526002602090815260408083206001600160a01b038b1684528252808320805485019055848352600390915290208054820190555b6001600160a01b0387166000611c9d611a2e565b6001600160a01b03167f4a39dc06d4c0dbc64b70af90fd698a233a518aa5d07e595d983b8c0526c8f7fb8989604051808060200180602001838103835285818151815260200191508051906020019060200280838360005b83811015611d0d578181015183820152602001611cf5565b50505050905001838103825284818151815260200191508051906020019060200280838360005b83811015611d4c578181015183820152602001611d34565b5050505090500194505050505060405180910390a4611d73876001600160a01b03166128de565b15611d8657611d86600088888888612de2565b50505050505050565b60606006611d9c83612f60565b6040516020018083805460018160011615610100020316600290048015611dfa5780601f10611dd8576101008083540402835291820191611dfa565b820191906000526020600020905b815481529060010190602001808311611de6575b5050825160208401908083835b60208310611e265780518252601f199092019160209182019101611e07565b6001836020036101000a038019825116818451168082178552505050505050905001925050506040516020818303038152906040529050919050565b6001600160a01b038416611ebd576040805162461bcd60e51b815260206004820152601b60248201527f496e76656e746f72793a207472616e7366657220746f207a65726f0000000000604482015290519081900360640190fd5b825182518114611f14576040805162461bcd60e51b815260206004820152601e60248201527f496e76656e746f72793a20696e636f6e73697374656e74206172726179730000604482015290519081900360640190fd5b6000611f1e611a2e565b9050611f2a8782612644565b611f7b576040805162461bcd60e51b815260206004820152601e60248201527f496e76656e746f72793a206e6f6e2d617070726f7665642073656e6465720000604482015290519081900360640190fd5b60008060005b848114612043576000888281518110611f9657fe5b602002602001015190506000888381518110611fae57fe5b60200260200101519050611fc182612481565b15611fd757611fd28c8c8484612692565b612039565b611fe0826118db565b1561179457611ff38c8c848460016127b0565b6000611ffe836124eb565b9050856120115780955060019450612037565b858114612030576120248d8d888861306f565b80955060019450612037565b8460010194505b505b5050600101611f81565b508115612056576120568989848461306f565b876001600160a01b0316896001600160a01b0316846001600160a01b03167f4a39dc06d4c0dbc64b70af90fd698a233a518aa5d07e595d983b8c0526c8f7fb8a8a604051808060200180602001838103835285818151815260200191508051906020019060200280838360005b838110156120db5781810151838201526020016120c3565b50505050905001838103825284818151815260200191508051906020019060200280838360005b8381101561211a578181015183820152602001612102565b5050505090500194505050505060405180910390a4612141886001600160a01b03166128de565b15612153576121538989898989612de2565b505050505050505050565b6000612169826118db565b156121bb576040805162461bcd60e51b815260206004820152601b60248201527f496e76656e746f72793a206e6f74206120636f6c6c656374696f6e0000000000604482015290519081900360640190fd5b506000908152600560205260409020546001600160a01b031690565b6001600160a01b038416612232576040805162461bcd60e51b815260206004820152601760248201527f496e76656e746f72793a206d696e7420746f207a65726f000000000000000000604482015290519081900360640190fd5b61223b83612481565b156122505761224b848484612bce565b61226b565b612259836118db565b156117945761224b8484846000612cc0565b6001600160a01b038416600061227f611a2e565b6001600160a01b03167fc3d58168c5ae7397731d063d5bbf3d657854427343f4c083240f7aacaa2d0f628686604051808381526020018281526020019250505060405180910390a46122d9846001600160a01b03166128de565b15610e9157610e916000858585856128e4565b306001600160a01b0316638da5cb5b6040518163ffffffff1660e01b815260040160206040518083038186803b15801561232557600080fd5b505afa158015612339573d6000803e3d6000fd5b505050506040513d602081101561234f57600080fd5b50516001600160a01b038281169116146112e1576040805162461bcd60e51b815260206004820152601660248201527f4f776e61626c653a206e6f7420746865206f776e657200000000000000000000604482015290519081900360640190fd5b604080516001600160a01b038416602482015260448082018490528251808303909101815260649091019091526020810180517bffffffffffffffffffffffffffffffffffffffffffffffffffffffff167fa9059cbb000000000000000000000000000000000000000000000000000000001790526124309084906130c3565b505050565b6001600160a01b038116600081815260076020526040808220805460ff19166001179055517f6ae172837ea30b801fbfcdd4108aa1d5bf8ff775444fd70256b44e6bf3dfc3f69190a250565b7f8000000000000000000000000000000000000000000000000000000000000000161590565b60606124b16132a6565b8080601f01602080910402602001604051908101604052809392919081815260200183838082843760009201919091525092935050505090565b6001600160e01b03191690565b612501816118db565b15612553576040805162461bcd60e51b815260206004820152601b60248201527f496e76656e746f72793a206e6f74206120636f6c6c656374696f6e0000000000604482015290519081900360640190fd5b6000818152600560205260409020546001600160a01b0316156125bd576040805162461bcd60e51b815260206004820152601e60248201527f496e76656e746f72793a206578697374696e6720636f6c6c656374696f6e0000604482015290519081900360640190fd5b6125c5611a2e565b600082815260056020526040902080547fffffffffffffffffffffffff0000000000000000000000000000000000000000166001600160a01b039290921691909117905561261281612481565b1515817f4ebf8ad0df535ba5e487bc9cb27fe44120ca81c3a95d3eba79c0bd1df2ab2d5d60405160405180910390a350565b6000816001600160a01b0316836001600160a01b0316148061268b57506001600160a01b0380841660009081526001602090815260408083209386168352929052205460ff165b9392505050565b806126e4576040805162461bcd60e51b815260206004820152601560248201527f496e76656e746f72793a207a65726f2076616c75650000000000000000000000604482015290519081900360640190fd5b60008281526002602090815260408083206001600160a01b03881684529091529020548181101561275c576040805162461bcd60e51b815260206004820152601d60248201527f496e76656e746f72793a206e6f7420656e6f7567682062616c616e6365000000604482015290519081900360640190fd5b836001600160a01b0316856001600160a01b031614610eaf5760009283526002602090815260408085206001600160a01b039788168652909152808420918390039091559290931681522080549091019055565b81600114612805576040805162461bcd60e51b815260206004820152601a60248201527f496e76656e746f72793a2077726f6e67204e46542076616c7565000000000000604482015290519081900360640190fd5b6000838152600460205260409020546001600160a01b03868116911614612873576040805162461bcd60e51b815260206004820152601860248201527f496e76656e746f72793a206e6f6e2d6f776e6564204e46540000000000000000604482015290519081900360640190fd5b60008381526004602052604090206001600160a01b038516905580610eaf57600061289d846124eb565b60009081526002602090815260408083206001600160a01b03998a168452909152808220805460001901905595909616865250505091208054600101905550565b3b151590565b7ff23a6e61000000000000000000000000000000000000000000000000000000006001600160a01b03851663f23a6e6161291c611a2e565b888787876040518663ffffffff1660e01b815260040180866001600160a01b03168152602001856001600160a01b0316815260200184815260200183815260200180602001828103825283818151815260200191508051906020019080838360005b8381101561299657818101518382015260200161297e565b50505050905090810190601f1680156129c35780820380516001836020036101000a031916815260200191505b509650505050505050602060405180830381600087803b1580156129e657600080fd5b505af11580156129fa573d6000803e3d6000fd5b505050506040513d6020811015612a1057600080fd5b50516001600160e01b03191614610eaf576040805162461bcd60e51b815260206004820152601b60248201527f496e76656e746f72793a207472616e7366657220726566757365640000000000604482015290519081900360640190fd5b60003381612a7a613409565b90507f00000000000000000000000000000000000000000000000000000000000000006001600160a01b0316826001600160a01b03161480612aed57507f00000000000000000000000000000000000000000000000000000000000000006001600160a01b0316826001600160a01b0316145b15612afb5791506112ca9050565b6001600160a01b0382163214801590612bba57507f00000000000000000000000000000000000000000000000000000000000000006001600160a01b031663e60125d682846040518363ffffffff1660e01b815260040180836001600160a01b03168152602001826001600160a01b031681526020019250505060206040518083038186803b158015612b8d57600080fd5b505afa158015612ba1573d6000803e3d6000fd5b505050506040513d6020811015612bb757600080fd5b50515b15612bc85791506112ca9050565b50905090565b80612c20576040805162461bcd60e51b815260206004820152601560248201527f496e76656e746f72793a207a65726f2076616c75650000000000000000000000604482015290519081900360640190fd5b600082815260036020526040902054818101818111612c86576040805162461bcd60e51b815260206004820152601a60248201527f496e76656e746f72793a20737570706c79206f766572666c6f77000000000000604482015290519081900360640190fd5b600093845260036020908152604080862092909255600281528185206001600160a01b039096168552949094525091902080549091019055565b81600114612d15576040805162461bcd60e51b815260206004820152601a60248201527f496e76656e746f72793a2077726f6e67204e46542076616c7565000000000000604482015290519081900360640190fd5b60008381526004602052604090205415612d76576040805162461bcd60e51b815260206004820152601d60248201527f496e76656e746f72793a206578697374696e672f6275726e74204e4654000000604482015290519081900360640190fd5b60008381526004602052604090206001600160a01b038516905580610e91576000612da0846124eb565b600090815260036020908152604080832080546001908101909155600283528184206001600160a01b038a168552909252909120805490910190555050505050565b7fbc197c81000000000000000000000000000000000000000000000000000000006001600160a01b03851663bc197c81612e1a611a2e565b888787876040518663ffffffff1660e01b815260040180866001600160a01b03168152602001856001600160a01b03168152602001806020018060200180602001848103845287818151815260200191508051906020019060200280838360005b83811015612e93578181015183820152602001612e7b565b50505050905001848103835286818151815260200191508051906020019060200280838360005b83811015612ed2578181015183820152602001612eba565b50505050905001848103825285818151815260200191508051906020019080838360005b83811015612f0e578181015183820152602001612ef6565b50505050905090810190601f168015612f3b5780820380516001836020036101000a031916815260200191505b5098505050505050505050602060405180830381600087803b1580156129e657600080fd5b606081612fa1575060408051808201909152600181527f30000000000000000000000000000000000000000000000000000000000000006020820152610e70565b8160005b8115612fb957600101600a82049150612fa5565b60008167ffffffffffffffff81118015612fd257600080fd5b506040519080825280601f01601f191660200182016040528015612ffd576020820181803683370190505b50859350905060001982015b831561306657600a840660300160f81b8282806001900393508151811061302c57fe5b60200101907effffffffffffffffffffffffffffffffffffffffffffffffffffffffffffff1916908160001a905350600a84049350613009565b50949350505050565b826001600160a01b0316846001600160a01b031614610e915760009182526002602090815260408084206001600160a01b039687168552909152808320805483900390559290931681522080549091019055565b816130d66001600160a01b0382166128de565b613127576040805162461bcd60e51b815260206004820152601a60248201527f4552433230577261707065723a206e6f6e2d636f6e7472616374000000000000604482015290519081900360640190fd5b600080826001600160a01b0316846040518082805190602001908083835b602083106131645780518252601f199092019160209182019101613145565b6001836020036101000a0380198251168184511680821785525050505050509050019150506000604051808303816000865af19150503d80600081146131c6576040519150601f19603f3d011682016040523d82523d6000602084013e6131cb565b606091505b5091509150811561324a57805115613245578080602001905160208110156131f257600080fd5b5051613245576040805162461bcd60e51b815260206004820152601e60248201527f4552433230577261707065723a206f7065726174696f6e206661696c65640000604482015290519081900360640190fd5b610eaf565b805161329d576040805162461bcd60e51b815260206004820152601e60248201527f4552433230577261707065723a206f7065726174696f6e206661696c65640000604482015290519081900360640190fd5b80518082602001fd5b366000336001600160a01b037f00000000000000000000000000000000000000000000000000000000000000001681148061331257507f00000000000000000000000000000000000000000000000000000000000000006001600160a01b0316816001600160a01b0316145b156133295761331f613415565b9250925050613405565b6001600160a01b03811632148015906133ef57507f00000000000000000000000000000000000000000000000000000000000000006001600160a01b031663e60125d6613374613409565b836040518363ffffffff1660e01b815260040180836001600160a01b03168152602001826001600160a01b031681526020019250505060206040518083038186803b1580156133c257600080fd5b505afa1580156133d6573d6000803e3d6000fd5b505050506040513d60208110156133ec57600080fd5b50515b156133fc5761331f613415565b60003692509250505b9091565b60131936013560601c90565b36600061342860131983018284816134d1565b915091509091565b828054600181600116156101000203166002900490600052602060002090601f01602090048101928261346657600085556134ac565b82601f1061347f5782800160ff198235161785556134ac565b828001600101855582156134ac579182015b828111156134ac578235825591602001919060010190613491565b506134b89291506134bc565b5090565b5b808211156134b857600081556001016134bd565b600080858511156134e0578182fd5b838611156134ec578182fd5b505082019391909203915056fea2646970667358221220113a779f830b89c5aa4ae8024c01d4060089e8bbb668649ec60fa36bf103d69564736f6c63430007060033",
  "linkReferences": {},
  "deployedLinkReferences": {}
}