{
  "_format": "hh-sol-artifact-1",
  "contractName": "ERC1155InventoryMock",
  "sourceName": "contracts/mocks/token/ERC1155/ERC1155InventoryMock.sol",
  "abi": [
    {
      "inputs": [],
      "stateMutability": "nonpayable",
      "type": "constructor"
    },
    {
      "anonymous": false,
      "inputs": [
        {
          "indexed": true,
          "internalType": "address",
          "name": "_owner",
          "type": "address"
        },
        {
          "indexed": true,
          "internalType": "address",
          "name": "_operator",
          "type": "address"
        },
        {
          "indexed": false,
          "internalType": "bool",
          "name": "_approved",
          "type": "bool"
        }
      ],
      "name": "ApprovalForAll",
      "type": "event"
    },
    {
      "anonymous": false,
      "inputs": [
        {
          "indexed": false,
          "internalType": "string",
          "name": "baseMetadataURI",
          "type": "string"
        }
      ],
      "name": "BaseMetadataURISet",
      "type": "event"
    },
    {
      "anonymous": false,
      "inputs": [
        {
          "indexed": true,
          "internalType": "uint256",
          "name": "collectionId",
          "type": "uint256"
        },
        {
          "indexed": true,
          "internalType": "bool",
          "name": "fungible",
          "type": "bool"
        }
      ],
      "name": "CollectionCreated",
      "type": "event"
    },
    {
      "anonymous": false,
      "inputs": [
        {
          "indexed": true,
          "internalType": "address",
          "name": "account",
          "type": "address"
        }
      ],
      "name": "MinterAdded",
      "type": "event"
    },
    {
      "anonymous": false,
      "inputs": [
        {
          "indexed": true,
          "internalType": "address",
          "name": "account",
          "type": "address"
        }
      ],
      "name": "MinterRemoved",
      "type": "event"
    },
    {
      "anonymous": false,
      "inputs": [
        {
          "indexed": true,
          "internalType": "address",
          "name": "previousOwner",
          "type": "address"
        },
        {
          "indexed": true,
          "internalType": "address",
          "name": "newOwner",
          "type": "address"
        }
      ],
      "name": "OwnershipTransferred",
      "type": "event"
    },
    {
      "anonymous": false,
      "inputs": [
        {
          "indexed": true,
          "internalType": "address",
          "name": "_operator",
          "type": "address"
        },
        {
          "indexed": true,
          "internalType": "address",
          "name": "_from",
          "type": "address"
        },
        {
          "indexed": true,
          "internalType": "address",
          "name": "_to",
          "type": "address"
        },
        {
          "indexed": false,
          "internalType": "uint256[]",
          "name": "_ids",
          "type": "uint256[]"
        },
        {
          "indexed": false,
          "internalType": "uint256[]",
          "name": "_values",
          "type": "uint256[]"
        }
      ],
      "name": "TransferBatch",
      "type": "event"
    },
    {
      "anonymous": false,
      "inputs": [
        {
          "indexed": true,
          "internalType": "address",
          "name": "_operator",
          "type": "address"
        },
        {
          "indexed": true,
          "internalType": "address",
          "name": "_from",
          "type": "address"
        },
        {
          "indexed": true,
          "internalType": "address",
          "name": "_to",
          "type": "address"
        },
        {
          "indexed": false,
          "internalType": "uint256",
          "name": "_id",
          "type": "uint256"
        },
        {
          "indexed": false,
          "internalType": "uint256",
          "name": "_value",
          "type": "uint256"
        }
      ],
      "name": "TransferSingle",
      "type": "event"
    },
    {
      "anonymous": false,
      "inputs": [
        {
          "indexed": false,
          "internalType": "string",
          "name": "_value",
          "type": "string"
        },
        {
          "indexed": true,
          "internalType": "uint256",
          "name": "_id",
          "type": "uint256"
        }
      ],
      "name": "URI",
      "type": "event"
    },
    {
      "inputs": [
        {
          "internalType": "address",
          "name": "account",
          "type": "address"
        }
      ],
      "name": "addMinter",
      "outputs": [],
      "stateMutability": "nonpayable",
      "type": "function"
    },
    {
      "inputs": [
        {
          "internalType": "address",
          "name": "owner",
          "type": "address"
        },
        {
          "internalType": "uint256",
          "name": "id",
          "type": "uint256"
        }
      ],
      "name": "balanceOf",
      "outputs": [
        {
          "internalType": "uint256",
          "name": "",
          "type": "uint256"
        }
      ],
      "stateMutability": "view",
      "type": "function"
    },
    {
      "inputs": [
        {
          "internalType": "address[]",
          "name": "owners",
          "type": "address[]"
        },
        {
          "internalType": "uint256[]",
          "name": "ids",
          "type": "uint256[]"
        }
      ],
      "name": "balanceOfBatch",
      "outputs": [
        {
          "internalType": "uint256[]",
          "name": "",
          "type": "uint256[]"
        }
      ],
      "stateMutability": "view",
      "type": "function"
    },
    {
      "inputs": [],
      "name": "baseMetadataURI",
      "outputs": [
        {
          "internalType": "string",
          "name": "",
          "type": "string"
        }
      ],
      "stateMutability": "view",
      "type": "function"
    },
    {
      "inputs": [
        {
          "internalType": "bytes32",
          "name": "c__0x17cebdb3",
          "type": "bytes32"
        }
      ],
      "name": "c_0x17cebdb3",
      "outputs": [],
      "stateMutability": "pure",
      "type": "function"
    },
    {
      "inputs": [
        {
          "internalType": "bytes32",
          "name": "c__0x23339a13",
          "type": "bytes32"
        }
      ],
      "name": "c_0x23339a13",
      "outputs": [],
      "stateMutability": "pure",
      "type": "function"
    },
    {
      "inputs": [
        {
          "internalType": "bytes32",
          "name": "c__0x31017afb",
          "type": "bytes32"
        }
      ],
      "name": "c_0x31017afb",
      "outputs": [],
      "stateMutability": "pure",
      "type": "function"
    },
    {
      "inputs": [
        {
          "internalType": "bytes32",
          "name": "c__0x9329567f",
          "type": "bytes32"
        }
      ],
      "name": "c_0x9329567f",
      "outputs": [],
      "stateMutability": "pure",
      "type": "function"
    },
    {
      "inputs": [
        {
          "internalType": "uint256",
          "name": "nftId",
          "type": "uint256"
        }
      ],
      "name": "collectionOf",
      "outputs": [
        {
          "internalType": "uint256",
          "name": "",
          "type": "uint256"
        }
      ],
      "stateMutability": "pure",
      "type": "function"
    },
    {
      "inputs": [
        {
          "internalType": "uint256",
          "name": "collectionId",
          "type": "uint256"
        }
      ],
      "name": "createCollection",
      "outputs": [],
      "stateMutability": "nonpayable",
      "type": "function"
    },
    {
      "inputs": [
        {
          "internalType": "uint256",
          "name": "collectionId",
          "type": "uint256"
        }
      ],
      "name": "creator",
      "outputs": [
        {
          "internalType": "address",
          "name": "",
          "type": "address"
        }
      ],
      "stateMutability": "view",
      "type": "function"
    },
    {
      "inputs": [
        {
          "internalType": "address",
          "name": "tokenOwner",
          "type": "address"
        },
        {
          "internalType": "address",
          "name": "operator",
          "type": "address"
        }
      ],
      "name": "isApprovedForAll",
      "outputs": [
        {
          "internalType": "bool",
          "name": "",
          "type": "bool"
        }
      ],
      "stateMutability": "view",
      "type": "function"
    },
    {
      "inputs": [
        {
          "internalType": "uint256",
          "name": "id",
          "type": "uint256"
        }
      ],
      "name": "isFungible",
      "outputs": [
        {
          "internalType": "bool",
          "name": "",
          "type": "bool"
        }
      ],
      "stateMutability": "pure",
      "type": "function"
    },
    {
      "inputs": [
        {
          "internalType": "address",
          "name": "",
          "type": "address"
        }
      ],
      "name": "isMinter",
      "outputs": [
        {
          "internalType": "bool",
          "name": "",
          "type": "bool"
        }
      ],
      "stateMutability": "view",
      "type": "function"
    },
    {
      "inputs": [],
      "name": "owner",
      "outputs": [
        {
          "internalType": "address",
          "name": "",
          "type": "address"
        }
      ],
      "stateMutability": "view",
      "type": "function"
    },
    {
      "inputs": [
        {
          "internalType": "uint256",
          "name": "nftId",
          "type": "uint256"
        }
      ],
      "name": "ownerOf",
      "outputs": [
        {
          "internalType": "address",
          "name": "",
          "type": "address"
        }
      ],
      "stateMutability": "view",
      "type": "function"
    },
    {
      "inputs": [],
      "name": "renounceMinter",
      "outputs": [],
      "stateMutability": "nonpayable",
      "type": "function"
    },
    {
      "inputs": [
        {
          "internalType": "address",
          "name": "to",
          "type": "address"
        },
        {
          "internalType": "uint256[]",
          "name": "ids",
          "type": "uint256[]"
        },
        {
          "internalType": "uint256[]",
          "name": "values",
          "type": "uint256[]"
        },
        {
          "internalType": "bytes",
          "name": "data",
          "type": "bytes"
        }
      ],
      "name": "safeBatchMint",
      "outputs": [],
      "stateMutability": "nonpayable",
      "type": "function"
    },
    {
      "inputs": [
        {
          "internalType": "address",
          "name": "from",
          "type": "address"
        },
        {
          "internalType": "address",
          "name": "to",
          "type": "address"
        },
        {
          "internalType": "uint256[]",
          "name": "ids",
          "type": "uint256[]"
        },
        {
          "internalType": "uint256[]",
          "name": "values",
          "type": "uint256[]"
        },
        {
          "internalType": "bytes",
          "name": "data",
          "type": "bytes"
        }
      ],
      "name": "safeBatchTransferFrom",
      "outputs": [],
      "stateMutability": "nonpayable",
      "type": "function"
    },
    {
      "inputs": [
        {
          "internalType": "address",
          "name": "to",
          "type": "address"
        },
        {
          "internalType": "uint256",
          "name": "id",
          "type": "uint256"
        },
        {
          "internalType": "uint256",
          "name": "value",
          "type": "uint256"
        },
        {
          "internalType": "bytes",
          "name": "data",
          "type": "bytes"
        }
      ],
      "name": "safeMint",
      "outputs": [],
      "stateMutability": "nonpayable",
      "type": "function"
    },
    {
      "inputs": [
        {
          "internalType": "address",
          "name": "from",
          "type": "address"
        },
        {
          "internalType": "address",
          "name": "to",
          "type": "address"
        },
        {
          "internalType": "uint256",
          "name": "id",
          "type": "uint256"
        },
        {
          "internalType": "uint256",
          "name": "value",
          "type": "uint256"
        },
        {
          "internalType": "bytes",
          "name": "data",
          "type": "bytes"
        }
      ],
      "name": "safeTransferFrom",
      "outputs": [],
      "stateMutability": "nonpayable",
      "type": "function"
    },
    {
      "inputs": [
        {
          "internalType": "address",
          "name": "operator",
          "type": "address"
        },
        {
          "internalType": "bool",
          "name": "approved",
          "type": "bool"
        }
      ],
      "name": "setApprovalForAll",
      "outputs": [],
      "stateMutability": "nonpayable",
      "type": "function"
    },
    {
      "inputs": [
        {
          "internalType": "string",
          "name": "baseMetadataURI_",
          "type": "string"
        }
      ],
      "name": "setBaseMetadataURI",
      "outputs": [],
      "stateMutability": "nonpayable",
      "type": "function"
    },
    {
      "inputs": [
        {
          "internalType": "bytes4",
          "name": "interfaceId",
          "type": "bytes4"
        }
      ],
      "name": "supportsInterface",
      "outputs": [
        {
          "internalType": "bool",
          "name": "",
          "type": "bool"
        }
      ],
      "stateMutability": "view",
      "type": "function"
    },
    {
      "inputs": [
        {
          "internalType": "uint256",
          "name": "id",
          "type": "uint256"
        }
      ],
      "name": "totalSupply",
      "outputs": [
        {
          "internalType": "uint256",
          "name": "",
          "type": "uint256"
        }
      ],
      "stateMutability": "view",
      "type": "function"
    },
    {
      "inputs": [
        {
          "internalType": "address",
          "name": "newOwner",
          "type": "address"
        }
      ],
      "name": "transferOwnership",
      "outputs": [],
      "stateMutability": "nonpayable",
      "type": "function"
    },
    {
      "inputs": [
        {
          "internalType": "uint256",
          "name": "id",
          "type": "uint256"
        }
      ],
      "name": "uri",
      "outputs": [
        {
          "internalType": "string",
          "name": "",
          "type": "string"
        }
      ],
      "stateMutability": "view",
      "type": "function"
    }
  ],
  "bytecode": "0x60806040523480156200001157600080fd5b50338080600560006101000a81548173ffffffffffffffffffffffffffffffffffffffff021916908373ffffffffffffffffffffffffffffffffffffffff1602179055508073ffffffffffffffffffffffffffffffffffffffff16600073ffffffffffffffffffffffffffffffffffffffff167f8be0079c531659141344cd1fd0a4f28419497f9722a3daafe3b4186f6b6457e060405160405180910390a350620000c281620000fd60201b60201c565b50620000f77f095ac9f1fc72dd355dedf742a0eb68e3b801caea08f3ab0e5c7161a3dd095f7d60001b6200019b60201b60201c565b6200019e565b6001600760008373ffffffffffffffffffffffffffffffffffffffff1673ffffffffffffffffffffffffffffffffffffffff16815260200190815260200160002060006101000a81548160ff0219169083151502179055508073ffffffffffffffffffffffffffffffffffffffff167f6ae172837ea30b801fbfcdd4108aa1d5bf8ff775444fd70256b44e6bf3dfc3f660405160405180910390a250565b50565b618d2980620001ae6000396000f3fe608060405234801561001057600080fd5b50600436106101b85760003560e01c806371c8a47b116100f9578063adebf6f211610097578063d0011d9d11610071578063d0011d9d14610db9578063e985e9c514610de7578063f242432a14610e61578063f2fde38b14610f70576101b8565b8063adebf6f214610cf1578063bd85b03914610d35578063c7778baa14610d77576101b8565b8063983b2d56116100d3578063983b2d5614610bf95780639865027514610c3d578063a22cb46514610c47578063aa271e1a14610c97576101b8565b806371c8a47b14610b1e5780637e518ec814610b4c5780638da5cb5b14610bc5576101b8565b80634de67cb9116101665780635b2bd79e116101405780635b2bd79e146109265780635cfa9297146109a95780636352211e14610a985780636bbffbe014610af0576101b8565b80634de67cb91461077d5780634e1273f4146107ab578063510b5158146108ce576101b8565b80630e89341c116101975780630e89341c146104855780632eb2c2d61461052c5780634646ce011461074f576101b8565b8062fdd58e146101bd57806301ffc9a71461021f5780630d6a5bbb14610282575b600080fd5b610209600480360360408110156101d357600080fd5b81019080803573ffffffffffffffffffffffffffffffffffffffff16906020019092919080359060200190929190505050610fb4565b6040518082815260200191505060405180910390f35b61026a6004803603602081101561023557600080fd5b8101908080357bffffffffffffffffffffffffffffffffffffffffffffffffffffffff19169060200190929190505050611357565b60405180821515815260200191505060405180910390f35b6104836004803603608081101561029857600080fd5b81019080803573ffffffffffffffffffffffffffffffffffffffff169060200190929190803590602001906401000000008111156102d557600080fd5b8201836020820111156102e757600080fd5b8035906020019184602083028401116401000000008311171561030957600080fd5b919080806020026020016040519081016040528093929190818152602001838360200280828437600081840152601f19601f8201169050808301925050505050505091929192908035906020019064010000000081111561036957600080fd5b82018360208201111561037b57600080fd5b8035906020019184602083028401116401000000008311171561039d57600080fd5b919080806020026020016040519081016040528093929190818152602001838360200280828437600081840152601f19601f820116905080830192505050505050509192919290803590602001906401000000008111156103fd57600080fd5b82018360208201111561040f57600080fd5b8035906020019184600183028401116401000000008311171561043157600080fd5b91908080601f016020809104026020016040519081016040528093929190818152602001838380828437600081840152601f19601f820116905080830192505050505050509192919290505050611455565b005b6104b16004803603602081101561049b57600080fd5b8101908080359060200190929190505050611553565b6040518080602001828103825283818151815260200191508051906020019080838360005b838110156104f15780820151818401526020810190506104d6565b50505050905090810190601f16801561051e5780820380516001836020036101000a031916815260200191505b509250505060405180910390f35b61074d600480360360a081101561054257600080fd5b81019080803573ffffffffffffffffffffffffffffffffffffffff169060200190929190803573ffffffffffffffffffffffffffffffffffffffff1690602001909291908035906020019064010000000081111561059f57600080fd5b8201836020820111156105b157600080fd5b803590602001918460208302840111640100000000831117156105d357600080fd5b919080806020026020016040519081016040528093929190818152602001838360200280828437600081840152601f19601f8201169050808301925050505050505091929192908035906020019064010000000081111561063357600080fd5b82018360208201111561064557600080fd5b8035906020019184602083028401116401000000008311171561066757600080fd5b919080806020026020016040519081016040528093929190818152602001838360200280828437600081840152601f19601f820116905080830192505050505050509192919290803590602001906401000000008111156106c757600080fd5b8201836020820111156106d957600080fd5b803590602001918460018302840111640100000000831117156106fb57600080fd5b91908080601f016020809104026020016040519081016040528093929190818152602001838380828437600081840152601f19601f8201169050808301925050505050505091929192905050506115e9565b005b61077b6004803603602081101561076557600080fd5b8101908080359060200190929190505050611681565b005b6107a96004803603602081101561079357600080fd5b8101908080359060200190929190505050611684565b005b610877600480360360408110156107c157600080fd5b81019080803590602001906401000000008111156107de57600080fd5b8201836020820111156107f057600080fd5b8035906020019184602083028401116401000000008311171561081257600080fd5b90919293919293908035906020019064010000000081111561083357600080fd5b82018360208201111561084557600080fd5b8035906020019184602083028401116401000000008311171561086757600080fd5b9091929391929390505050611687565b6040518080602001828103825283818151815260200191508051906020019060200280838360005b838110156108ba57808201518184015260208101905061089f565b505050509050019250505060405180910390f35b6108fa600480360360208110156108e457600080fd5b8101908080359060200190929190505050611a0f565b604051808273ffffffffffffffffffffffffffffffffffffffff16815260200191505060405180910390f35b61092e611aa5565b6040518080602001828103825283818151815260200191508051906020019080838360005b8381101561096e578082015181840152602081019050610953565b50505050905090810190601f16801561099b5780820380516001836020036101000a031916815260200191505b509250505060405180910390f35b610a96600480360360808110156109bf57600080fd5b81019080803573ffffffffffffffffffffffffffffffffffffffff169060200190929190803590602001909291908035906020019092919080359060200190640100000000811115610a1057600080fd5b820183602082011115610a2257600080fd5b80359060200191846001830284011164010000000083111715610a4457600080fd5b91908080601f016020809104026020016040519081016040528093929190818152602001838380828437600081840152601f19601f820116905080830192505050505050509192919290505050611b43565b005b610ac460048036036020811015610aae57600080fd5b8101908080359060200190929190505050611c41565b604051808273ffffffffffffffffffffffffffffffffffffffff16815260200191505060405180910390f35b610b1c60048036036020811015610b0657600080fd5b8101908080359060200190929190505050611e93565b005b610b4a60048036036020811015610b3457600080fd5b8101908080359060200190929190505050611e96565b005b610bc360048036036020811015610b6257600080fd5b8101908080359060200190640100000000811115610b7f57600080fd5b820183602082011115610b9157600080fd5b80359060200191846001830284011164010000000083111715610bb357600080fd5b9091929391929390505050611e99565b005b610bcd612056565b604051808273ffffffffffffffffffffffffffffffffffffffff16815260200191505060405180910390f35b610c3b60048036036020811015610c0f57600080fd5b81019080803573ffffffffffffffffffffffffffffffffffffffff169060200190929190505050612080565b005b610c4561209c565b005b610c9560048036036040811015610c5d57600080fd5b81019080803573ffffffffffffffffffffffffffffffffffffffff16906020019092919080351515906020019092919050505061214f565b005b610cd960048036036020811015610cad57600080fd5b81019080803573ffffffffffffffffffffffffffffffffffffffff1690602001909291905050506124e0565b60405180821515815260200191505060405180910390f35b610d1d60048036036020811015610d0757600080fd5b8101908080359060200190929190505050612500565b60405180821515815260200191505060405180910390f35b610d6160048036036020811015610d4b57600080fd5b8101908080359060200190929190505050612596565b6040518082815260200191505060405180910390f35b610da360048036036020811015610d8d57600080fd5b81019080803590602001909291905050506127a8565b6040518082815260200191505060405180910390f35b610de560048036036020811015610dcf57600080fd5b8101908080359060200190929190505050612969565b005b610e4960048036036040811015610dfd57600080fd5b81019080803573ffffffffffffffffffffffffffffffffffffffff169060200190929190803573ffffffffffffffffffffffffffffffffffffffff169060200190929190505050612a60565b60405180821515815260200191505060405180910390f35b610f6e600480360360a0811015610e7757600080fd5b81019080803573ffffffffffffffffffffffffffffffffffffffff169060200190929190803573ffffffffffffffffffffffffffffffffffffffff169060200190929190803590602001909291908035906020019092919080359060200190640100000000811115610ee857600080fd5b820183602082011115610efa57600080fd5b80359060200191846001830284011164010000000083111715610f1c57600080fd5b91908080601f016020809104026020016040519081016040528093929190818152602001838380828437600081840152601f19601f820116905080830192505050505050509192919290505050612b77565b005b610fb260048036036020811015610f8657600080fd5b81019080803573ffffffffffffffffffffffffffffffffffffffff169060200190929190505050613394565b005b6000610fe27fd0573779785065628f23834d92b2cb89dc3bf5e7f0c8a21fbb63efa01db3f4b860001b611e96565b61100e7f1e2069e583b70fd027b2a8346e2a36e4f6ab99e605d470cbb1664e5bf334a65460001b611e96565b61103a7fa11fb8710bb4619527d4a53e1c1c7a5a9aeba136d883a774c49e970860bac34260001b611e96565b6110667f8738959252adef26e170a9aff53b7858d9b7dcebfef967a1584f48e2d2d2149760001b611e96565b600073ffffffffffffffffffffffffffffffffffffffff168373ffffffffffffffffffffffffffffffffffffffff161415611109576040517f08c379a00000000000000000000000000000000000000000000000000000000081526004018080602001828103825260178152602001807f496e76656e746f72793a207a65726f206164647265737300000000000000000081525060200191505060405180910390fd5b6111357fdd91677df45046a7b61f6706b82728306838582132abeaee066db1b543dbfb4e60001b611e96565b6111617f9ea8e4451284908bfb3ba1e98d6b48295352c9cf78755f115ba44a0a6c4391e060001b611e96565b61118d7f8e37e3f1d8e87d3f0ea4de37fff4966d5e020ff86fd5b3ba33a71235d643eae760001b611e96565b61119682613464565b15611279576111c77fc1231b191f8f3a532b568e953ba9dd9347fcf574a8ab8f8a1c54a17bf9edca4c60001b611e96565b6111f37f14aac45d7d1276be234762665da9d01cb956b275d579f49cfb6877a50789cd0e60001b611e96565b61121f7f7666502ec335ee20fb343ba97abc544c2d1d9a861826b70bad114b4cf59576ed60001b611e96565b8273ffffffffffffffffffffffffffffffffffffffff16600360008481526020019081526020016000205473ffffffffffffffffffffffffffffffffffffffff161461126c57600061126f565b60015b60ff169050611351565b6112a57f360cba3c863de43bdd9f6b65aad22d8b77eb9dd8e4164f215ecbd1808ff6b17860001b611e96565b6112d17f0884ab5e942ef5e28752a6d8fc224b294075f1729dbf5990349866a80216b01460001b611e96565b6112fd7faa1d6a1c219335e0ddb052191e15d3b92d33ab87c907c983de09e0d0ce4b427360001b611e96565b6001600083815260200190815260200160002060008473ffffffffffffffffffffffffffffffffffffffff1673ffffffffffffffffffffffffffffffffffffffff1681526020019081526020016000205490505b92915050565b60006113857f47338a2dfba9e785d8916954b2e8c374e9b2e82f190a54fdcfd4fead4a7e8b9a60001b611681565b6113b17f4e57d5a53eec30ddbe67fa5786b2879c25ea8416c7fa13eb466201337deeafd460001b611681565b6113dd7f1b0f08196c6662374a6ec26a9d983c0e1f17737cc749f5af368bee2b35250a6f60001b611681565b7f510b5158000000000000000000000000000000000000000000000000000000007bffffffffffffffffffffffffffffffffffffffffffffffffffffffff1916827bffffffffffffffffffffffffffffffffffffffffffffffffffffffff1916148061144e575061144d82613532565b5b9050919050565b6114817f1d820bf0b6f89c2c8c9a1a44549ce1ecb47dce202eb2911e9290a038848d398e60001b611681565b6114ad7fbcab5afa84c75da3d72aa25fb19d7939783c0704d6f82b351fa01264142a380760001b611681565b6114d97fa50b8b1e68ea21ce69c25c5b5bda73d75c3de3bed7b1f60092673cf88d0cdd8a60001b611681565b6114e96114e46137c0565b6137c8565b6115157f5140eeae49b0f2df66e5edddc6136e70d14ba2233ecbe217d56628c2fa7f7b2160001b611681565b6115417fd1eb078d77b3e3020257b43b8f871b2e1a88c7c7782418973efaffbb7d4a114560001b611681565b61154d8484848461388a565b50505050565b60606115817fde261287b9ca9694c434869bb37798a566b8c9a6ea8adb79134fdaf3c399cde060001b611681565b6115ad7fe4eca83b32b5d451c1bb727a46675ad0ab02f26545fc01180ab823206ff64a9b60001b611681565b6115d97f78cec7413eb391ca613d7632d4f368cd9471bfc2673bb1eb90fd3e0fa956076060001b611681565b6115e2826149c7565b9050919050565b6116157f31714c287dbf4c13ccc0e54f194d34f86eb13e033d6a123c51d276682c9d95c960001b611e93565b6116417f50e785702363626d7778a9c56f182e6aa7e1d256f2d7da46a54d1b29318d413760001b611e93565b61166d7f2ee7818a8b22fe805a257aee86b16170329f22c8b5472cfb0f47c6cb9108715160001b611e93565b61167a8585858585614b23565b5050505050565b50565b50565b60606116b57ff9387cb22317f794a78cf6e494581548d65d540d5a51cab9992f47610a1c8cdc60001b611e96565b6116e17fa00a45ad76cdf9ac301740d072e0cd2eb3096be43c55e3981504d9ac6c11caf360001b611e96565b61170d7f76c37eada364e7ad7f4c17dcb1c765088676a96fc8f2facc0499e51b26b80dd860001b611e96565b6117397f69e309af372ae7f0a26f4a15b8bc79c70317abd49fbb25a60b5380f6c0de4edf60001b611e96565b8282905085859050146117b4576040517f08c379a000000000000000000000000000000000000000000000000000000000815260040180806020018281038252601e8152602001807f496e76656e746f72793a20696e636f6e73697374656e7420617272617973000081525060200191505060405180910390fd5b6117e07f03ca9934893a0b11862b7daa8241dafa1638e58e30c33a304d1952efd4f17d1d60001b611e96565b61180c7f98d6f72017d5916f8b89e6a423f6fb1263e50e29f77bbee75939d1a651c7c67d60001b611e96565b6118387f6973fd2822295f7623838cbf5043b692c363258ac19791d50b0115b5f99e76f360001b611e96565b60008585905067ffffffffffffffff8111801561185457600080fd5b506040519080825280602002602001820160405280156118835781602001602082028036833780820191505090505b5090506118b27fa9c42faf8af8aefc47c3bfb0a64c1885c24aec0d5ed4a354881f4943de40f16d60001b611e96565b6118de7fbce6394d332b76fbf0a6187b8fa9aee3c0436ab95a6aad37d2c082bc5295f29460001b611e96565b60005b8686905081146119aa576119177fb15d87dec090f0794e7bf64d2641752345f46c6335f46a4bf42a2691c7da6aa560001b611e96565b6119437fa19272b3140654f8c1cff7415002be536b942127a7cb28add414bc908c37db5060001b611e96565b61198787878381811061195257fe5b9050602002013573ffffffffffffffffffffffffffffffffffffffff1686868481811061197b57fe5b90506020020135610fb4565b82828151811061199357fe5b6020026020010181815250508060010190506118e1565b506119d77f1a45384965ee4ecff22640d9a4f51e45e724990c60f8c920931195f14f28f6ed60001b611e96565b611a037f69f2f19fcc65b59ea4506fd6be5c1a0e9e3fff4a7383c74bb74f7b73f841367360001b611e96565b80915050949350505050565b6000611a3d7f3f645cd3701c71285045917f671a97650123714d089033591bfdca59a4bf10a160001b611681565b611a697f4a766810a21c2839c0650c729946c940405766b663c84f6e68ae293203715df060001b611681565b611a957f1a92611e035d68a1113ef5bc94dc68a8fb9634812e217d945c4e6c3a3d7c863e60001b611681565b611a9e82615c55565b9050919050565b60068054600181600116156101000203166002900480601f016020809104026020016040519081016040528092919081815260200182805460018160011615610100020316600290048015611b3b5780601f10611b1057610100808354040283529160200191611b3b565b820191906000526020600020905b815481529060010190602001808311611b1e57829003601f168201915b505050505081565b611b6f7f32d7a8716fe6ec279701e0be4330391863ed095541029261334206b1d02f24f760001b611681565b611b9b7f84c4bc09431ac8ec34d48fdb2eab940b779091955bee60082eea17d6f76f3ff660001b611681565b611bc77f444f9c21ba3bf8400b61369541603c11fac1b0971f4654978d7adb8671cfa24e60001b611681565b611bd7611bd26137c0565b6137c8565b611c037fb0958d19198d441653b4978cc90c0c89ab6061a3a042abcf83caef75e83ffeaf60001b611681565b611c2f7fc95c0710294f1102670841d8892d0c02acdddf4065be05c24922189efb6d65d760001b611681565b611c3b84848484615e42565b50505050565b6000611c6f7ffc59fb60a67d68ccc943a08bea255237a8934f8573254c419d44acee78b9fb5060001b611e96565b611c9b7f98f1a734197ce0144080b5dcab6ead2cc6448ae6ac9f74591b10fe14068dde8360001b611e96565b611cc77f4229c7945cfd62041b3ba6e4c405407793bcf9dae0f45f36cd4366446dded2bb60001b611e96565b600060036000848152602001908152602001600020549050611d0b7f76f6271e85367142214df8b00432d533a5a584b2beed694be1b982b7b8e8ba0e60001b611e96565b611d377f010e4ef836c8323f1b11ac94bb76bbc29163205384aa84a2d9dc4df82b3d2b8960001b611e96565b611d637fa8baab55596048ea96020b9fb409fdedf74ed1133e5b72ec3e119ae964ce022860001b611e96565b600073ffffffffffffffffffffffffffffffffffffffff168173ffffffffffffffffffffffffffffffffffffffff161415611e06576040517f08c379a000000000000000000000000000000000000000000000000000000000815260040180806020018281038252601b8152602001807f496e76656e746f72793a206e6f6e2d6578697374696e67204e4654000000000081525060200191505060405180910390fd5b611e327f63fffd706903801446a7efabf7df92c4d9fdada94d086ad790cd0aef24c5f40e60001b611e96565b611e5e7f24f73a4c85f0b800a1d1385e752f32f97057b20ddb6e8a0dc360be5906b64fc560001b611e96565b611e8a7f705f4d31556b1218dfbe3ca5ed50e80c1f8f65216bc9ce328bbc7679108b70ac60001b611e96565b80915050919050565b50565b50565b611ec57f7a798900079f8abfec5d8e2dbe01957da86924048545474d2e8cc4455ff9b8d160001b611684565b611ef17fe5e96d6f82b06fe1194e47d7e09774604275383795b69bf66729b57c43f3a68160001b611684565b611f1d7f1bab262e01d292ebc7268f0af663a93ea4cfca3b15a21a9bd3b88ed5d7a2575d60001b611684565b611f2d611f286137c0565b6164d4565b611f597f889c29d91f479e9e5ea327b67cd360470392306bab96df204f280c7db9ea52ed60001b611684565b611f857fe36810d14b53a066d2911963f7e0dcf3b24615a7ccdad7d1cdfb9eb2a23f966360001b611684565b818160069190611f96929190618c48565b50611fc37ff608c0d0ece8312aa6b4686eba824834606e1e579f33a0c28b1a959db81b457060001b611684565b611fef7f0266515aefe9459e801de01c95b7c8eb072550f55c42ed42ab0afeccf3e2ab7760001b611684565b7f04b1dc5c136a3ce9fded8db0ce3d3366c58764ec3a8e4c2b9e52e4ddfe5ebbf7828260405180806020018281038252848482818152602001925080828437600081840152601f19601f820116905080830192505050935050505060405180910390a15050565b6000600560009054906101000a900473ffffffffffffffffffffffffffffffffffffffff16905090565b61209061208b6137c0565b6164d4565b612099816165f8565b50565b60006120a66137c0565b90506120b1816137c8565b6000600760008373ffffffffffffffffffffffffffffffffffffffff1673ffffffffffffffffffffffffffffffffffffffff16815260200190815260200160002060006101000a81548160ff0219169083151502179055508073ffffffffffffffffffffffffffffffffffffffff167fe94479a9f7e1952cc78f2d6baab678adc1b772d936c6583def489e524cb6669260405160405180910390a250565b61217b7f34732ceebdc52a7f71c399e1e4d2d8e8967290fc9cb560ddb0e5ab04e3507aef60001b611e96565b6121a77ff9774cb0c37c351161667d5d72cfc0c37222a1986aa4550c19d2c98b935fbf3e60001b611e96565b6121d37fccc52dbfd478828a56c25cc1097267b6677c2bcbd5d75cf77657cd5aa20c72c160001b611e96565b60006121dd6137c0565b905061220b7f82a9d9fde572139c38993f27a8d450e1efff334f0cc809aeaed412204a09634e60001b611e96565b6122377fa90c71e25fcd1aafe00e3f26547e2cae8984da5e87b3dc7ae90ab1df13441f4a60001b611e96565b6122637fb59e257435a88d73710629598c67988192f29d14ea6795be29ef74349d355f6360001b611e96565b8073ffffffffffffffffffffffffffffffffffffffff168373ffffffffffffffffffffffffffffffffffffffff161415612305576040517f08c379a00000000000000000000000000000000000000000000000000000000081526004018080602001828103825260188152602001807f496e76656e746f72793a2073656c662d617070726f76616c000000000000000081525060200191505060405180910390fd5b6123317f147c5aa85b8670cd996c7334ff0798f120c24587bd6f9dc2232e3045db8a2ab360001b611e96565b61235d7fd4ba31ae6a373fd24f0d64bca8fb4bde7cf4f54c2927497a145c6e405557e3e460001b611e96565b6123897f6c50940c7beff3e09095224cf62c532aa494dc43d0dea63ce6fd98f7cbca994f60001b611e96565b816000808373ffffffffffffffffffffffffffffffffffffffff1673ffffffffffffffffffffffffffffffffffffffff16815260200190815260200160002060008573ffffffffffffffffffffffffffffffffffffffff1673ffffffffffffffffffffffffffffffffffffffff16815260200190815260200160002060006101000a81548160ff0219169083151502179055506124487fe20b5c78afe32fc86519d4631729cf759c1a124c18ffd672b254d1e5585c8ddb60001b611e96565b6124747fefdc2b84f85ce5cd5e3ef7fabfbd5fd91fa2963800387ac4470b8202d5615b8a60001b611e96565b8273ffffffffffffffffffffffffffffffffffffffff168173ffffffffffffffffffffffffffffffffffffffff167f17307eab39ab6107e8899845ad3d59bd9653f200f220920489ca2b5937696c318460405180821515815260200191505060405180910390a3505050565b60076020528060005260406000206000915054906101000a900460ff1681565b600061252e7fd465c97e937629553f416390347ee48d7a2652b9b4d28d262770397e2a2f934960001b611e96565b61255a7f0d585b43b8f40b04d20e2ee1432602c497c163c560eb5d234c1c901006d4df3160001b611e96565b6125867fa6efcbddf128b8fff39f0fcca18708a4cf6a9c5a4d31987f084e50899d4a6dd660001b611e96565b61258f82616696565b9050919050565b60006125c47fc16f3a5f3f2c4b29aff86ea8e86ad1ed28b83e12b107ead011fd7833bf93f81f60001b611e96565b6125f07f96cd57563f2de36a61d9b57fc8bb7a178810bd3686fc54f98458cb8fbe0993bf60001b611e96565b61261c7f4b68d57dff2bdd9aa117ce563cf0a1dd2cca6d9b9437a27a4c923c01104684a160001b611e96565b61262582613464565b15612709576126567fd416321ad2103bc45f54755d6c9ca363184802e92d6683071358680ad403b6b360001b611e96565b6126827fdc4054968d062c36cbfa807ba67102c728c181681282ed58e087bb57ce4689a960001b611e96565b6126ae7f42a214d4538e339edf25f40db32acf925d7568cc7b3e47f60fea0a9516eec69e60001b611e96565b600073ffffffffffffffffffffffffffffffffffffffff16600360008481526020019081526020016000205473ffffffffffffffffffffffffffffffffffffffff16146126fc5760016126ff565b60005b60ff1690506127a3565b6127357f137978bcb5a3c8a9f4874639688cc46a704ed33eab2a45dc6d3049917d7f86f060001b611e96565b6127607e8809a2f29e090ff9eebab17268f1f71d9a90e6c3c768cdc7a24a88a22881f260001b611e96565b61278c7f5dc8b6984f6537373034b03d292f2fcd5886e0d4633d33863371ad3352726f3b60001b611e96565b600260008381526020019081526020016000205490505b919050565b60006127d67f81c8ab7023ed4397c44c423bed6e3c778dd49871137e2ab7ae51a55606d8f71860001b611e96565b6128027f8a16d585cb2a38a85b8a102387536c8fb7b695abc20fada8de556735972e0fe760001b611e96565b61282e7fad4c4ebc563d16d70ceb980dc04bd442f598de6b76f4f4d6fa77815bdf0f054460001b611e96565b61285a7f984bea0301f807a770c96842a160eef37b39faf5414242e6c86cfc76c00b4eef60001b611e96565b61286382613464565b6128d5576040517f08c379a00000000000000000000000000000000000000000000000000000000081526004018080602001828103825260158152602001807f496e76656e746f72793a206e6f7420616e204e4654000000000000000000000081525060200191505060405180910390fd5b6129017f9e5e4b2cf822da6080a88df2e94b694dba2e04c5f1714a91ecd47093d220dd9460001b611e96565b61292d7fb71356143b29567f1ba90f31825796336cabe05f430309a8e1b7eeac025b787a60001b611e96565b6129597f696d0584512dffb7df7a918b0dedd012d98f5d89524a8ff9d53278208efa0a4c60001b611e96565b61296282616749565b9050919050565b6129957f57816ce0374ee9f984c22600f84c474b089f75dc23d2ef147c540d727fb9306d60001b611681565b6129c17ff60ff59a96aeeea16283f87c39897ff91723d801a311e8a1064b0cf3baa432dc60001b611681565b6129ed7fadf54d7954e3eafc3ab47d0bd7626e5ba75beda37737d400e985f4294207a05860001b611681565b6129fd6129f86137c0565b6164d4565b612a297f2afc50d88dcb7a3a2b436e481e70c91b0b8f1ffd08812fcdb07ae69fda6ddf1060001b611681565b612a547e4002224f92e85a849c40b89adb789bd242803763509215f8068c1b8d31fec660001b611681565b612a5d816167e3565b50565b6000612a8e7f9674b06b6a2ed61fbe38e3bed653a71549a2afe1c104d4ab2343216c90d7074d60001b611e96565b612aba7fa811103c24c22b7135259f3f2fe477260c2d7240bbde654094a51a7254dacef960001b611e96565b612ae67ff89862dd6989fcd744184778634eea3c6a4a17909e701ba0f6f8fe5c32d8eebb60001b611e96565b6000808473ffffffffffffffffffffffffffffffffffffffff1673ffffffffffffffffffffffffffffffffffffffff16815260200190815260200160002060008373ffffffffffffffffffffffffffffffffffffffff1673ffffffffffffffffffffffffffffffffffffffff16815260200190815260200160002060009054906101000a900460ff16905092915050565b612ba37fd645fe010437bdbec33269133f39992a7b13d69b7d8b3ab6e90b11a7e669da1f60001b611e93565b612bcf7fcd08143a66896b7f17455630656fcd85fe16b1c3c549d59339537d0287e2807a60001b611e93565b612bfb7fc48fe77c0332f3658fc7c77c70179f7c7907f332bfbbc4af74d054863c42a7ff60001b611e93565b6000612c056137c0565b9050612c337f843948cbf0f0e8a22ba919f6c8821ad50e50f0edfd362775f06d63d9c20b8cac60001b611e93565b612c5f7f9763f7158fc38368f9c388637e3bbb63fc30f2e81070642516b8cdcb2844034e60001b611e93565b612c8b7f3f1eea4685a8405e354c9266c4c3bbe05f26005178ecb29dece99b51fd97571560001b611e93565b600073ffffffffffffffffffffffffffffffffffffffff168573ffffffffffffffffffffffffffffffffffffffff161415612d2e576040517f08c379a000000000000000000000000000000000000000000000000000000000815260040180806020018281038252601b8152602001807f496e76656e746f72793a207472616e7366657220746f207a65726f000000000081525060200191505060405180910390fd5b612d5a7fb86507be55397dc4d03b5374df6c2af9e03489d38a42883f95264db5c2d241fa60001b611e93565b612d867f35975c67eaf13d051c1d90cee750704b4a20862ef635f25eb5fa43a9b29f9c0d60001b611e93565b612db27f3e35ba83f58bacc4fe63cf78fcc137e13bbce18ad327391b11f1e4127b642b4b60001b611e93565b612dde7f2b896bfdb1730fe97e0c422c5f42c8abf88e2e66a8b9f3edbd9a02eac6885e7060001b611e93565b612de88682616c04565b612e5a576040517f08c379a000000000000000000000000000000000000000000000000000000000815260040180806020018281038252601e8152602001807f496e76656e746f72793a206e6f6e2d617070726f7665642073656e646572000081525060200191505060405180910390fd5b612e867ffcb3e5efa050597719eea45fa5e158750289f6965bb10a59c1f7a7a4d3a3ac5560001b611e93565b612eb27f3435a84105d5cef47f6dfde265dc50fa6f164ce8251cd4b18e76bfc217db39c960001b611e93565b612ede7f9bd56d35733a424a30a6af12d74157d60f593670a1248f5698151ea1f057d66060001b611e93565b612ee784616696565b15612f8157612f187fa5400acf862c526a196ffecb2f16dcf55cd94e6c384f6ba10fe9e5845ef4e61a60001b611e93565b612f447fd1364d0795c067a6f94aa37d6b0ca5f34f7942bab72835eb63690f1ae3fee6d860001b611e93565b612f707ff6fdf3ee1092e9f9862974d225e2e8097512b843ab8b5f421c09a39cb5d5d32860001b611e93565b612f7c86868686616d51565b613171565b612fad7f3aa94faa2403dd7cf90dc67b20abe0bcc666c44be565154476a752d659b2121360001b611e93565b612fd97f3286510daa7e3638cc6cd88e41a305e0c9adc1014362bbe5d0e8c9d01a62dc2a60001b611e93565b612fe284613464565b1561307e576130137ff34f3fc7c83ab3b439f8e04ee7538d1690469c22281ef4d447360ef72db26b9760001b611e93565b61303f7f10721a847556f1f994ad1f903356624edd8b40a0cc06109b17f23c1ac321758960001b611e93565b61306b7f6c5cf030c1d23ab976a7fc4dc8db17ecd20a7f8a5cf7147808b7944f3f9c860760001b611e93565b6130798686868660006172cc565b613170565b6130aa7fdefe52f70fe706cf252ffd556d552a4f2e07e54a83968b9bb62421d09651ad4660001b611e93565b6130d67f01f95fb96953ca8930dbfff6af525b7d32aa1b0ba4e26c15cc607883f5f0bc6360001b611e93565b6131027fb43d70b40494159fc087b7e5403c89c49cdb6bbe145bf4416523ddea514c29a660001b611e93565b6040517f08c379a00000000000000000000000000000000000000000000000000000000081526004018080602001828103825260198152602001807f496e76656e746f72793a206e6f74206120746f6b656e2069640000000000000081525060200191505060405180910390fd5b5b61319d7f29a29aaeb0681e28ca338f32514942036d9eec864005f54883bab31151acf54560001b611e93565b6131c97f9e234d03ff65b0fdafe0203570b266e0e626d1b31be1d7097161c084ac1573fa60001b611e93565b8473ffffffffffffffffffffffffffffffffffffffff168673ffffffffffffffffffffffffffffffffffffffff168273ffffffffffffffffffffffffffffffffffffffff167fc3d58168c5ae7397731d063d5bbf3d657854427343f4c083240f7aacaa2d0f628787604051808381526020018281526020019250505060405180910390a46132797f1d3b1527cf8b058b2855e84945b831d6103d814b9441f1aac72aef715ca2811960001b611e93565b6132a57fb35f00847fe51686c5615441fef832de130959a9933757d469d676061ab8a04860001b611e93565b6132c48573ffffffffffffffffffffffffffffffffffffffff1661789c565b1561335f576132f57f25fb2085633f348d6226d7b1c66722b2964a03af8ede080b75783a030044d09260001b611e93565b6133217f014251b8af2bd8e875876690ae884f7d3ace3dc88b5ccf00c25940b70ec9156060001b611e93565b61334d7f245cc365a95dd18e3026316678c94f73b6985d8e455328c14e227ad505cddb5e60001b611e93565b61335a86868686866178af565b61338c565b61338b7f7ec8834e3545dc4ee9a2c0b6fd71579087334ae57c27768f7eee0181682cda7c60001b611e93565b5b505050505050565b6133a461339f6137c0565b6164d4565b80600560006101000a81548173ffffffffffffffffffffffffffffffffffffffff021916908373ffffffffffffffffffffffffffffffffffffffff1602179055508073ffffffffffffffffffffffffffffffffffffffff16600560009054906101000a900473ffffffffffffffffffffffffffffffffffffffff1673ffffffffffffffffffffffffffffffffffffffff167f8be0079c531659141344cd1fd0a4f28419497f9722a3daafe3b4186f6b6457e060405160405180910390a350565b60006134927f34132617af8b225325ec7c6c99e2b1f7e44918f71421c8ed2b0daf4f0f34213560001b617b91565b6134be7f8edfd9cbebb4b71e5bf47d7f6cba8bc37edad7de6044e60855d350bc64ce4b0760001b617b91565b6134ea7f7bb7f22d99fef8285f8b5e26f441a1c5ef7db323c1b8d505d10886dd4868038060001b617b91565b60007f800000000000000000000000000000000000000000000000000000000000000083161415801561352b5750600060e063ffffffff8016901b19831614155b9050919050565b60006135607fadfa95640147ab4c0d8e179ddcac69e18a21437cb50d0dc4471e78f81fe9f5e860001b611e96565b61358c7f2234a02ae4d0203c1a2641ed80ac160b16d1206553cd60aedf05b4e854f0117560001b611e96565b6135b87f808fe83f7b40774a06658e923bade4c6926d9e810609f7344d5c76edf281650d60001b611e96565b7f01ffc9a7000000000000000000000000000000000000000000000000000000007bffffffffffffffffffffffffffffffffffffffffffffffffffffffff1916827bffffffffffffffffffffffffffffffffffffffffffffffffffffffff1916148061368157507fd9b67a26000000000000000000000000000000000000000000000000000000007bffffffffffffffffffffffffffffffffffffffffffffffffffffffff1916827bffffffffffffffffffffffffffffffffffffffffffffffffffffffff1916145b806136e957507f0e89341c000000000000000000000000000000000000000000000000000000007bffffffffffffffffffffffffffffffffffffffffffffffffffffffff1916827bffffffffffffffffffffffffffffffffffffffffffffffffffffffff1916145b8061375157507f09ce5c46000000000000000000000000000000000000000000000000000000007bffffffffffffffffffffffffffffffffffffffffffffffffffffffff1916827bffffffffffffffffffffffffffffffffffffffffffffffffffffffff1916145b806137b957507fbd85b039000000000000000000000000000000000000000000000000000000007bffffffffffffffffffffffffffffffffffffffffffffffffffffffff1916827bffffffffffffffffffffffffffffffffffffffffffffffffffffffff1916145b9050919050565b600033905090565b600760008273ffffffffffffffffffffffffffffffffffffffff1673ffffffffffffffffffffffffffffffffffffffff16815260200190815260200160002060009054906101000a900460ff16613887576040517f08c379a00000000000000000000000000000000000000000000000000000000081526004018080602001828103825260188152602001807f4d696e746572526f6c653a206e6f742061204d696e746572000000000000000081525060200191505060405180910390fd5b50565b6138b67f6700660d93b484854af68f889d264763820fb2af0fb4edc61b07a315fe26aa1560001b611e93565b6138e27f5bd6129e65da59d78cb0ce5c45bf78f1bd92634397d7e2411e761970028d5cf660001b611e93565b61390e7f4d839466e5428b3055b2be5c126038ca8c298193d0ab0f8e4f4a10a174ae0f9d60001b611e93565b61393a7fdb60f11157e73e964425be9411bee6167484815df11a9ff62be6449615bdcd5c60001b611e93565b600073ffffffffffffffffffffffffffffffffffffffff168473ffffffffffffffffffffffffffffffffffffffff1614156139dd576040517f08c379a00000000000000000000000000000000000000000000000000000000081526004018080602001828103825260178152602001807f496e76656e746f72793a206d696e7420746f207a65726f00000000000000000081525060200191505060405180910390fd5b613a097f791b95c1f7d1d133343d78f1c637459ee10497a5eaf07f625fe6c62c699042e460001b611e93565b613a357f5c4ed1eec96f77254958fd800792bb1c0996f119e27f58ae205317dd10b37fed60001b611e93565b613a617fa3f0bab629bae3d016c40f068faa87dfcdc5543ffc912cf06f4472a272d8d62160001b611e93565b600083519050613a937fe03be9d8518964d3eadd13ae0287905c9b9d38f4c03e7539120d0af81acf186a60001b611e93565b613abf7f828aa85860f080e6deb70f876f6c48355f9d69e117869e4ae8f8ef13839b420460001b611e93565b613aeb7fe9fea543400e6d2b0ffcc9f1eba2d39a9cbc61f9af727c2fa46b9f6a8935c7a660001b611e93565b82518114613b61576040517f08c379a000000000000000000000000000000000000000000000000000000000815260040180806020018281038252601e8152602001807f496e76656e746f72793a20696e636f6e73697374656e7420617272617973000081525060200191505060405180910390fd5b613b8d7f6c4f4a585df428af384770ff601d96c5db88c91bd8fc6a6bbd7147964984feef60001b611e93565b613bb97f63c1f5d2d718cb3dba697ce2e9902967a0d286da991f1603f189de954999a39960001b611e93565b613be57f9eef8ae2e8f10b2e8d65334402992d1a229315d4f8acf5a36e84272da2ed57b860001b611e93565b6000613c137f7883985336e616a9286db836f1c7df9a2b01249ab7a189be5b89d9b915a5aee460001b611e93565b613c3f7f5897fd052ebdf89bd9b7e7cfe6266e930f9cde2323f7a291a3cb730e059232c160001b611e93565b6000613c6d7ff39d8f3374289f9bb655d87db5088be8f003e0b0c03a5c84d1eba57e2a81291160001b611e93565b613c997fc6e1cb35e4e8e6e171afc8a68faaa62dbe1cb129c4a05b2576c7d7ee845ba8f960001b611e93565b60005b83811461452a57613ccf7fb43af46d0c09bc88299f11def0da1460c9e69119ef2a903bfc7f7f5fdb92651c60001b611e93565b613cfb7f7c924e271cf314ee7d4977810d266b586ebdb0a42bb9562891785887a1fce3fd60001b611e93565b6000878281518110613d0957fe5b60200260200101519050613d3f7f41883d9bd3fda239b783093f6968afda992a41d0d3bfbe3e1109318f17fe058260001b611e93565b613d6b7f15a3ff3a570937c892b2f81568026f02ba454d66d0fdca7a552f8aa928deafc460001b611e93565b6000878381518110613d7957fe5b60200260200101519050613daf7f927ee8ac1c6cc526b0b99b1a533978c607db2f7def856883ca6b7e27e324075260001b611e93565b613ddb7f779d4133f41aeb70a6581c84b883bd216332adba5fc796ddc8a282d76e7846d660001b611e93565b613de482616696565b15613e7d57613e157fd2e6c7a98d4b196150d1ba1fb2490f389932eb2426c94980c80c4e8db2ebdef960001b611e93565b613e417f4c2277e1d493a54d9a139e6788d0535495cf27bb5426eec888ca67f3c2178aac60001b611e93565b613e6d7f5ccea91ba949d4ed69b00ac04363bf77b87de50cccb0d2e51ae27f042ed0343360001b611e93565b613e788a8383617b94565b61451d565b613ea97f723204f1e67687ef4ad0eb7873f8aa3bf693e2e950d11d8fb5e7cd594974618e60001b611e93565b613ed57f0fc2840b95168c9049cffff9aa674b1d3b08d902721a86a9e9c1d29b619b73fd60001b611e93565b613ede82613464565b1561442a57613f0f7fc45d7edd6627210b10644954edbad9da218591302c11277dd1741e69e17cf45960001b611e93565b613f3b7f6b26124929376cb670e94b2ce2b91060604923d0ceb5324a471f5748d6dd31f960001b611e93565b613f677fcd95fb4414df557f4e12538eaa8ada3aeec3be19c80c8b4cd8193056f300058960001b611e93565b613f748a83836001618008565b613fa07fbeffd02362d9d684aff1c960f287c9d27a69b8fd3c4dd3ff159b21ba76745b1660001b611e93565b613fcc7fed85f8ddcc088ccea16ab3c18131cfb01378f98d651b7677429999eabb8884b560001b611e93565b6000613fd783616749565b90506140057f6c5fb955aeec0153f9fe5debb020babe17fd63ba78cb8a4379df2a7f9f76295a60001b611e93565b6140317fa0c3717bce3e8ba52dc248f5166ae46c65bbced064e8ecfc46212652d256e4fd60001b611e93565b6000861415614122576140667fb7d9e4b268321e02a87cd160ca499af1fc71395104e90edc99731911fa4d6dd560001b611e93565b6140927f74d6d0117120b74e99901cef6f2fbd7be4191a28d3accba8a9dad416f6b1e5c160001b611e93565b6140be7f87651667b8fe2b9e040f770fd3af14593e80b5d4d9ca1684a124318991176fcb60001b611e93565b8095506140ed7f2299c9c5132909eb922495f959d8cbdb203449c84536652216d5fd6a17ac0bcd60001b611e93565b6141197fa7a7dfec0a46a8cf437062296d0b800a457a23aca23ce7e6e9cc10b2cc0ad4d960001b611e93565b60019450614424565b61414e7fea21271e6db0ddc633145f6b455d2d2beff36ed2e9404a4f87ae1b472c84e5fd60001b611e93565b61417a7f84bcfc18fd32795a750f054e986c420e5d27da38935831bce84e0951fe7e7c5460001b611e93565b6141a67ffef5891aa847a4b18ab955b0bbf2c02bf6f3088a3cde18ecdf9a76902bc5be9660001b611e93565b8581146143c4576141d97fc61ed90049fcfb5ab545c2e2a5cf21b447c51c0fe51327b89054371e0673139b60001b611e93565b6142057f1cfff04d8b1e2342258659922e6f8ea1e708eaa3686f0c98f01dfc338f8c108860001b611e93565b6142317f3ae0a823fc8ebd40c27875d562fd3e81360f68330b490f6b5af0f47fa720b74e60001b611e93565b846001600088815260200190815260200160002060008d73ffffffffffffffffffffffffffffffffffffffff1673ffffffffffffffffffffffffffffffffffffffff168152602001908152602001600020600082825401925050819055506142bb7f26d9a9aedf916254dba02040561e23bdc20b852adf2466a1ce08dcd82b8267c360001b611e93565b6142e77f9e3e62c72232685e2774f5374eb8e49175580af6de45b29efb64759e55afdb4060001b611e93565b8460026000888152602001908152602001600020600082825401925050819055506143347f0458c9a94f05050b78906a900cd3097726cbfd02a359ec2d43712eb65752555660001b611e93565b6143607fe67fe8c2e479626cc77270c70361e81163a3efa45f31d746f505b7cb69cb395e60001b611e93565b80955061438f7fb1cc52840c28efb815393729e3f33358c2b8e41a42b3738075db2aeca725b0e760001b611e93565b6143bb7f9469ca2c61174d960ba44379853fb7b299aa9447796232ddc922d87f5deb620560001b611e93565b60019450614423565b6143f07f8bb1517cf079deb1e546709c52f212229fc32ca2a8c5a843d8211da956e4866e60001b611e93565b61441c7f083ea04efc0aa65c7bf7b83757ca0f96dc5f6e2fa4e5e4f3c48714bb75355e3b60001b611e93565b8460010194505b5b5061451c565b6144567f5533219017ce1047a62adf26f2c78ab29ebb932f7994f3e87b33fcdc1cb16a5b60001b611e93565b6144827f68e338e06e7dec5ee7157a476331faea186c964045a60a766aec91ccc762946960001b611e93565b6144ae7f3027732cb047dce34e18db26a6e153f76ee677243647120c6130f312c1762c3560001b611e93565b6040517f08c379a00000000000000000000000000000000000000000000000000000000081526004018080602001828103825260198152602001807f496e76656e746f72793a206e6f74206120746f6b656e2069640000000000000081525060200191505060405180910390fd5b5b5050806001019050613c9c565b506145577f65644c4d2e4c08d4824d5b7a87bb3974f1f904bf9549f327537080a60d728ac560001b611e93565b6145837f6983a6e3d17583211fc1de524cb0d8b49cd56a89a40b39fb014d79d6143bdd1960001b611e93565b600082146146eb576145b77fad16be3ed980bf75375e4be7e49921a2f39c09dd53056a65c4ce5745beed8a0d60001b611e93565b6145e37f93cedddb20ec9561d9be94a010337c09cac9d697d5432a280766c26b25a2860960001b611e93565b61460f7f0c16a366d584469c5aeb300cb57f8c59185da8dfc0e193688b3ff9b54850a79860001b611e93565b806001600084815260200190815260200160002060008973ffffffffffffffffffffffffffffffffffffffff1673ffffffffffffffffffffffffffffffffffffffff168152602001908152602001600020600082825401925050819055506146997f1f6319db9690dd17e536451c501ee6bae3bf61155d2b2697d427410791eaaa2560001b611e93565b6146c57fb9e99dbf2c113c0302e3445dda46eff2db43b3acfbb1519e2dd0b94e9432475360001b611e93565b806002600084815260200190815260200160002060008282540192505081905550614718565b6147177fae23a7cac386171adf829e6b1d579ab63bc8138d7fa816ffc953754e51d10aef60001b611e93565b5b6147447f15335371cd1886ae05102eb5013e5bf8bcdd10acf1d5102e53ac4bde3c879da560001b611e93565b6147707f6ed287746541748aa94abb9730e194820a8d9ecc0d9926445c36dcafe9fb99e660001b611e93565b8673ffffffffffffffffffffffffffffffffffffffff16600073ffffffffffffffffffffffffffffffffffffffff166147a76137c0565b73ffffffffffffffffffffffffffffffffffffffff167f4a39dc06d4c0dbc64b70af90fd698a233a518aa5d07e595d983b8c0526c8f7fb8989604051808060200180602001838103835285818151815260200191508051906020019060200280838360005b8381101561482757808201518184015260208101905061480c565b50505050905001838103825284818151815260200191508051906020019060200280838360005b8381101561486957808201518184015260208101905061484e565b5050505090500194505050505060405180910390a46148aa7f7922a41f72565e54f53e5379bfc00f5c6cbf4e09469e7f370e5664edef0ec5ba60001b611e93565b6148d67feec1130d9b40a824b48ec23c04cf519190f43454145c95cd16fcc98f47a7fab560001b611e93565b6148f58773ffffffffffffffffffffffffffffffffffffffff1661789c565b15614991576149267f0b9df8521bf5a1113ff37a02ba191671c9c4cab58cb5a757e51ebdf859b3381760001b611e93565b6149527fdb514322cc88acf699f3cd1c6fb9a35bc9260c71a5281d1b7d08070d1d987ed460001b611e93565b61497e7f1ec0d02e4a7a53587f7f9afd69cbb7dd51cc47b44464e167469b4255c25a3d2060001b611e93565b61498c600088888888618516565b6149be565b6149bd7f64f724c74fd18e7a76f1a1b3576c48fae0887cf245441f21d5fecab6696ca3b160001b611e93565b5b50505050505050565b60606149f57f1c9aa8b0a38f069e1470ab73c22da607a105214ef5de328816e9d32a1e8b441b60001b611684565b614a217f5170b3391e3dcb54efdddd1865c65f8bcdfb112f0c2230607b93231388faea7b60001b611684565b614a4d7f378669c14060759ae4c60ec9f0fc205bcc45a295b03ae0f63f92feae3939ea1460001b611684565b6006614a588361887a565b6040516020018083805460018160011615610100020316600290048015614ab65780601f10614a94576101008083540402835291820191614ab6565b820191906000526020600020905b815481529060010190602001808311614aa2575b505082805190602001908083835b60208310614ae75780518252602082019150602081019050602083039250614ac4565b6001836020036101000a038019825116818451168082178552505050505050905001925050506040516020818303038152906040529050919050565b614b4f7fcecf8002f31f070aa130f9e7ab4687c582810528c82df6e8356d25a5ed7fe8a460001b611e93565b614b7b7f0a21cb25a20d24aa19b108bf5844db811ab7cb06532f525fc224cf6ff7a0f9b660001b611e93565b614ba77fd2b744ed63e4c61b737d42df9a5f1b971b9ae3e2a104d7ee27b213c52c389d4d60001b611e93565b614bd37f72c8bb71e9acb3f230603d2b33aa9e05b7b47e5472cd62bfd9461b441a945b4060001b611e93565b600073ffffffffffffffffffffffffffffffffffffffff168473ffffffffffffffffffffffffffffffffffffffff161415614c76576040517f08c379a000000000000000000000000000000000000000000000000000000000815260040180806020018281038252601b8152602001807f496e76656e746f72793a207472616e7366657220746f207a65726f000000000081525060200191505060405180910390fd5b614ca27f8d7ca89be5d2d1005df0eed2e5ecd10e865cc8e0efcb2ce2853b264521ee429360001b611e93565b614cce7f452d63be18f9246b68b743f7a5370bfa7ec6d2a651d6c1a184013bfffd83474f60001b611e93565b614cfa7f17d10a2303ccc34cc62a752f6735943b7fcaa11c5cc8890675a737c269f066f660001b611e93565b600083519050614d2c7fa1b239021d67b2dd741d81633998fdb036a138dbcfab641581c287f31fa5cc8460001b611e93565b614d587f3e6424c2831ba8764e11a750e1cae30e67445945f576cbb077a07c9edc36fdef60001b611e93565b614d847f02890858432ad55169ea06915de7e1e084f580be5b787ba52b20f11b8db5a6ba60001b611e93565b82518114614dfa576040517f08c379a000000000000000000000000000000000000000000000000000000000815260040180806020018281038252601e8152602001807f496e76656e746f72793a20696e636f6e73697374656e7420617272617973000081525060200191505060405180910390fd5b614e267febfee03ac6df14bc7a429fc9af034851325668304c6c3122c26f9a4f704eb49860001b611e93565b614e527f5f1789888c151cef2c0cbdc7aa2db875a57e03fd18720913e246c38355a9f23f60001b611e93565b614e7e7f24f2e0d24f70ed7e76f86bb5ce0a6afa4231a95bf667dcd45566692cda225c5860001b611e93565b6000614e886137c0565b9050614eb67f25ab28f65edc1ab09a7bbf72040f8ba6befd7ee7b9c25ed0edb3142be538f86c60001b611e93565b614ee27f7ec4e5a541ee48822b694483b596ec5157a12752a9d0d08594a4b4f53703e01460001b611e93565b614f0e7f5ac0c8713d0c4e4f0dd055900f2be8f069dce657f578d0565974b0c317cfd57260001b611e93565b614f188782616c04565b614f8a576040517f08c379a000000000000000000000000000000000000000000000000000000000815260040180806020018281038252601e8152602001807f496e76656e746f72793a206e6f6e2d617070726f7665642073656e646572000081525060200191505060405180910390fd5b614fb67f7d9b4cc8ff29a85fd0583e19cb1a22da19e321e40bca5da6d552886119b6e81860001b611e93565b614fe27fc0b6aa59fe30495b3a473be497b264ea3560bc5c7335f25cef57d780caa6930460001b611e93565b61500e7fa90b618d25e8873a26fe9a8787f1790cb8e9f810f014c76a8133b75d4a4190ea60001b611e93565b600061503c7fb3b6df8d6bf3d1b73065b2345452d5c4f347ffedcfc188e2ef3a345256813f2760001b611e93565b6150687fb677d56bacca9e881ecc0fb5f9e39f61b7c1fa3e69e589a83dee444574daf2f160001b611e93565b60006150967f7db27eb8bf19e7a270149338107899ab654be3ba0310166bc553f7c8122d040f60001b611e93565b6150c27f73f1ead978d360828753761c3a82fe2b7a35fc84712cc73f84c894d985ae556060001b611e93565b60005b84811461588a576150f87fc92509bed205d6adc69bc81ecbabc6f9ec5315405ccf28de3b702b0d75865e1760001b611e93565b6151247fd60c8208be9d732f37488719a4f0382597909649216ca7cb314408dbb0e448b860001b611e93565b600088828151811061513257fe5b602002602001015190506151687ffb5d4ae6cfb2d6b243439cbb9e36305bc193b01cec197069f4f90a5452546bd960001b611e93565b6151947fc703d334e9e4275864adc6fa63f1209e2b54ec5cd0aeefde2eeac6b927eaebb960001b611e93565b60008883815181106151a257fe5b602002602001015190506151d87fb421c8c980a8fb79f7a7a787f275f680f4d54e46f603ecd4b1c8b15fe63f298b60001b611e93565b6152047f3e08ad720b74d7602a834b183e5387ab2b3a83d9fdbec0ae33b89e0bc3b04c8360001b611e93565b61520d82616696565b156152a75761523e7f1e09200334544a6e29a6920e4bb4ee4eaa010e8c0aaf47b6136fbbecd504360c60001b611e93565b61526a7f7837290eb843140807d40f57f2075520d1de6c5b12cee47d0800b0cd769cbdbb60001b611e93565b6152967f6d45f8a958a21be4868c75abd335e24b85e77289d902186b8c3929e765486dd960001b611e93565b6152a28c8c8484616d51565b61587d565b6152d37f0bf4297bc78e523f79c0358d7402e93f898e59d8646c8e919070d56519bd910260001b611e93565b6152ff7fd925cc5eea2550fa5da708eda9139cce80f192eb4c2d051730537c9966efbd1560001b611e93565b61530882613464565b1561578a576153397faa4ee0f5b621b6ca50c2c2154f261be0964c49c493dd2f145c38f562b204cce760001b611e93565b6153657f50c499f9695e0662d533b1df63dd123bd97d779aeea29c2cc6b7d7aa9abdae8c60001b611e93565b6153917f4342e0bcae154d66a87cbfaf649a900ec2274d2df2dec3d2a143bb84e371d15460001b611e93565b61539f8c8c848460016172cc565b6153cb7feaf1cfac4e14d06431bebf1ede64a4e0c7a47734289dfc09302d60e5b5393a4360001b611e93565b6153f77f2f19df28748b4c709c2fc6573015638ebf4008c0663f75f95cb4fcd7921752e260001b611e93565b600061540283616749565b90506154307f36dd581b3171a3f6cb06eab58a03909facf9bcebe8f2072875a5e1cb25bc4a0d60001b611e93565b61545c7f20caac273bf21a29514d535fd718d22ff45746a13e0d2fd9efa2dc3329690b6e60001b611e93565b600086141561554d576154917f3915cefce4e113cca440eeae2c819c8c3efed0273812c4b2b7ac753ad0bed6db60001b611e93565b6154bd7f51f2f9516bf6073b9206975ef443eaa141a2f11f22f0698a8d8b29b55d89dc5560001b611e93565b6154e97fd35fdbd4849a34284cd08d236d1a6d8bd9da92567ef60b31cbb3ce84432be61560001b611e93565b8095506155187f8b49e2a623f770aa862d679353b580b10c214c6f928559604776dfe39ac24af660001b611e93565b6155447f9ef2806e86d3c6a0c6036f5d9b28e8ec0fd032fc98ce4c3811a55df1fecc9eaf60001b611e93565b60019450615784565b6155797f8dcae65f965e4fcbe6d408b7453b072a5096923fb1c486e291f42ec59257e8bb60001b611e93565b6155a57f3e852689eac62040467ea70d41cd041927aca29423bc5d5e2d3abaaeaa8b274f60001b611e93565b6155d17f17c2c427008d9d0076f247a3c183b64da219d49a023d7e37442ae42d32cb396060001b611e93565b858114615724576156047ff79be262e07b94c4b0e6ffdabd83313e82548c357601c198afa627cfc17f22a160001b611e93565b6156307f0a3636f18a1cec9e14d1f09707f3c6e008859aa6569f5944153d58c9888b16d760001b611e93565b61565c7f4e5dfded36b348cbafca1645c79a2019e284e926111dcef463e28ae961b8358d60001b611e93565b6156688d8d88886189c1565b6156947fffb79d524b3b322ea6dbc652fdfe1291feb48d85814a34910955063194994a0a60001b611e93565b6156c07f73a4f1d387eb21151d78b9e67d7756d0410bbb8c05b8e93b76f17a082f1316b460001b611e93565b8095506156ef7f5c18048b04a0a51781a06e67c6f815b860174a7b95dddc31bd65bfff5363070d60001b611e93565b61571b7f46d751afd8889b7fffa15039e7333fba547ed77555ca64ea76a14b19028fa29060001b611e93565b60019450615783565b6157507f6943e9dcae3e4dcc45803f45e3e5c7d52907f318ebb3291a039c3e03e70a90e060001b611e93565b61577c7f433ec2d9d337061a67518c8f8cfec1a51cb59fc613fbf5c7f67720eafae56dc360001b611e93565b8460010194505b5b5061587c565b6157b67f2e3d34a38c4b21299eb6e7b879110508f9b8697ae8f5afee443b4c5bfcc38a1060001b611e93565b6157e27f5af8a993677868dc05bee6cd381e3ed3435834d9eba2ceec901f7a8860ad5fa860001b611e93565b61580e7f546e0e2731c6e8cc0cf6c544cf86599f748427d4542c4b63684c8d307d97709f60001b611e93565b6040517f08c379a00000000000000000000000000000000000000000000000000000000081526004018080602001828103825260198152602001807f496e76656e746f72793a206e6f74206120746f6b656e2069640000000000000081525060200191505060405180910390fd5b5b50508060010190506150c5565b506158b77fc6d0407c04015b43dbcab43b4ec1669bc0821d44ab37a521ff746868abff27fe60001b611e93565b6158e37fe9ef691688f5c2045ce2633dc07b00d832739658d73f1b8e088e4ca774fb815760001b611e93565b60008214615980576159177f78b3fb4383230b5d1a8e6a520a134f457b961746d69efde6dcbff0d52342180160001b611e93565b6159437fb6373eff31cf8309498412460778c3c64a4686d21c65483615ec26547e60508260001b611e93565b61596f7ff2a0981e772e65960860c1d67ceba65ef0758652f4805a5fe15d4cebd6a64a2160001b611e93565b61597b898984846189c1565b6159ad565b6159ac7fd1f63bcadf7dd734b8ee831631f0a628e39478518ddcba56549437894e4513f960001b611e93565b5b6159d97f6cc21e4af56ae3890347967a3cd3b19a814c2a9b85df3bff6689b3b960b4411460001b611e93565b615a057fe1ed54c4a4faecb83ddea05f4548a17c076ed1943d2e1424d5af6faca05b525f60001b611e93565b8773ffffffffffffffffffffffffffffffffffffffff168973ffffffffffffffffffffffffffffffffffffffff168473ffffffffffffffffffffffffffffffffffffffff167f4a39dc06d4c0dbc64b70af90fd698a233a518aa5d07e595d983b8c0526c8f7fb8a8a604051808060200180602001838103835285818151815260200191508051906020019060200280838360005b83811015615ab4578082015181840152602081019050615a99565b50505050905001838103825284818151815260200191508051906020019060200280838360005b83811015615af6578082015181840152602081019050615adb565b5050505090500194505050505060405180910390a4615b377f14a7466d19721785ea53aaabe863c4410fe31a8a9eb9d3de005ad4dfe892b23560001b611e93565b615b637fa0b27d15df8bf22604c71699115d1c13d7329ed9cd2daab45d2d7f9a860e086160001b611e93565b615b828873ffffffffffffffffffffffffffffffffffffffff1661789c565b15615c1d57615bb37f4866bfa38c3c854cf581690f9932b7d3db64b5497a55de75d9570d2d34cf2c9560001b611e93565b615bdf7fb12edeeba6a741ca7542acd3a6b15fabf29442095ba9fb9a8813e737f16091a560001b611e93565b615c0b7f032775bd54c4a4bb59d08b4625934402b62a42bd9c72f192cb4873b134a754f360001b611e93565b615c188989898989618516565b615c4a565b615c497f3be5ab870672ca753447b524b5b92ce4ee3ecd529d3bfd7ee5d44fb1e88b8e9660001b611e93565b5b505050505050505050565b6000615c837f8372423b2498712bc8b092c26b7575098ac25ef08c042fadd27f067b412914ff60001b611e96565b615caf7f91dae1433bc1d4254670272ed556abc4b60bcd1b23907bd565f9e499528b8be460001b611e96565b615cdb7f0a6157f426386fe8cc5eaf6ed1d6d82048843ff0c41c499d87af73bbbff6780960001b611e96565b615d077f07bd4de6a4c57f8b2bc67197a3a5c07a0c7c79c79fb86a37e1f3a9ca1441762360001b611e96565b615d1082613464565b15615d83576040517f08c379a000000000000000000000000000000000000000000000000000000000815260040180806020018281038252601b8152602001807f496e76656e746f72793a206e6f74206120636f6c6c656374696f6e000000000081525060200191505060405180910390fd5b615daf7f76104c4fe0931336e096f920ec748bea648bdbf957df59fb66e328e2dbcf48a960001b611e96565b615ddb7f956121f3d767cfc7a2a427dbe5487dc6a35360501c658a51f517e8edd3c4cc0960001b611e96565b615e077fa2fcb2230ea65fc5b1bc98060b25d5d1ae332a78797f62f73fa857a9600487c560001b611e96565b6004600083815260200190815260200160002060009054906101000a900473ffffffffffffffffffffffffffffffffffffffff169050919050565b615e6e7f9b6bc59111b9d69aacc17642f85d09888e1d60f8a03e6823a11ba3dabd50661d60001b611e93565b615e9a7fecd86732fdb5545d97465c735b5ebd4000f99fe47a3b583425f92a25dd511cf260001b611e93565b615ec67fa1f7b199930243a997312e98eacbb69a736990db8fc9f5c3bf0ed311da2e5fcd60001b611e93565b615ef27f5637b8d92705365a72f97a8623029e4aed00050ccdc103fcc8084e6f954315c060001b611e93565b600073ffffffffffffffffffffffffffffffffffffffff168473ffffffffffffffffffffffffffffffffffffffff161415615f95576040517f08c379a00000000000000000000000000000000000000000000000000000000081526004018080602001828103825260178152602001807f496e76656e746f72793a206d696e7420746f207a65726f00000000000000000081525060200191505060405180910390fd5b615fc17f64b64d9b9898793fe5bf2cfcf927f51c4cd088f1c5ab1ef93fc71fc6c92991f560001b611e93565b615fed7fb60df03c8c29f8056e787c103b318b008b35e4f1f9fb89c660c7ede612077bf460001b611e93565b6160197f395fbc875034988654bb83ce295ce17fb49cc7569f662d5c7451c3eee635474860001b611e93565b61602283616696565b156160bb576160537f9b7cdcf92f80d13c8eaf924acc00b5eda29ef3b3fef2ef3eb541b73d80ae9b7260001b611e93565b61607f7f920fdb419e54a096ecfde370ff83417cd10de2e5b0a93384fc67e32b956dd53160001b611e93565b6160ab7f4641e18db3ff6919ba36092785b156501a9946686f4a63547c5e371341eb515b60001b611e93565b6160b6848484617b94565b6162aa565b6160e77f2bcba1742761f06cf3c852b71ce52f983f9225b350e54ad5c9431732e52ddfa860001b611e93565b6161137f05a0bbc2eec1ca65ec57f1c366a3f5e1578e8b3a9f063ea93c3a3d745c0b52f760001b611e93565b61611c83613464565b156161b75761614d7f0bbb1289c79acb20df254a3687c9f2512892cebe6119014155fab87f1533748760001b611e93565b6161797f6b3384a3d687ad58ee8ab7ff02dacaac7cbd60848f3d8ec9e165a494240768d360001b611e93565b6161a57fe07ebd67ccf4f21609388f37f562efd1b76a76f63d9e5a092c8000ae2f3b3b4460001b611e93565b6161b28484846000618008565b6162a9565b6161e37fcd8ad4657a37fecebb4dbd909f94e394f95097768fdb8a0c7d32541353c04f6860001b611e93565b61620f7f0d6daf29886eb8791d40571608e09ffa03cf7468f737edf93fbfcd8fb6802eec60001b611e93565b61623b7f4ae9e59134c36c3d6cc7c949a088af957a5d9e31bc52acee075eb8848c203f5c60001b611e93565b6040517f08c379a00000000000000000000000000000000000000000000000000000000081526004018080602001828103825260198152602001807f496e76656e746f72793a206e6f74206120746f6b656e2069640000000000000081525060200191505060405180910390fd5b5b6162d67fb7ce294bce2f656200e588ed830c23f4e713e419c2fd0f70a19fe0b151d9699860001b611e93565b6163027fd2b99f621521d8e4de44555f8fa9dabad502cd57030860659d16f804a1bd98ee60001b611e93565b8373ffffffffffffffffffffffffffffffffffffffff16600073ffffffffffffffffffffffffffffffffffffffff166163396137c0565b73ffffffffffffffffffffffffffffffffffffffff167fc3d58168c5ae7397731d063d5bbf3d657854427343f4c083240f7aacaa2d0f628686604051808381526020018281526020019250505060405180910390a46163ba7f2b1ffb788f744fbda70769b124cd435bd4c60f4edbe701e33e9c8ee4b682624560001b611e93565b6163e67f2a424dc9c82ba1eed981ff4aead997db58efbdc5f1c917e5ad364c3b53be734d60001b611e93565b6164058473ffffffffffffffffffffffffffffffffffffffff1661789c565b156164a1576164367fb18b354eef0a38bcbec8e0e13c6560c9e47b379b5f9e3e75277e0b7c1336442660001b611e93565b6164627fc755d05dd6a908eed9c6edc9099af702adbe8494ab408ac3e08119a37e1594de60001b611e93565b61648e7ffd82832522e72c51286935e30cd0a2f384513463948b614e0f83e6cd59f1159260001b611e93565b61649c6000858585856178af565b6164ce565b6164cd7f86589d6ab3a2e7be283667f09948c3db3c34ffc98df1a475a5c45880c2c3d76960001b611e93565b5b50505050565b3073ffffffffffffffffffffffffffffffffffffffff16638da5cb5b6040518163ffffffff1660e01b815260040160206040518083038186803b15801561651a57600080fd5b505afa15801561652e573d6000803e3d6000fd5b505050506040513d602081101561654457600080fd5b810190808051906020019092919050505073ffffffffffffffffffffffffffffffffffffffff168173ffffffffffffffffffffffffffffffffffffffff16146165f5576040517f08c379a00000000000000000000000000000000000000000000000000000000081526004018080602001828103825260168152602001807f4f776e61626c653a206e6f7420746865206f776e65720000000000000000000081525060200191505060405180910390fd5b50565b6001600760008373ffffffffffffffffffffffffffffffffffffffff1673ffffffffffffffffffffffffffffffffffffffff16815260200190815260200160002060006101000a81548160ff0219169083151502179055508073ffffffffffffffffffffffffffffffffffffffff167f6ae172837ea30b801fbfcdd4108aa1d5bf8ff775444fd70256b44e6bf3dfc3f660405160405180910390a250565b60006166c47fed9fc71c744ea71b9cf2ba55c2d494233fcfb712960f41109307a90a60776ee060001b617b91565b6166f07fb675b7f5d29b89e9c6850a2a0844fae122e658d730f820598fa14bccdd3a6fc160001b617b91565b61671c7f62b30ea66711399f1be3918d0096d18aa951fee6b06119bef078df6ff41f2d3160001b617b91565b60007f80000000000000000000000000000000000000000000000000000000000000008316149050919050565b60006167777f3408f41d31eb00b3bc2e0f54b103c1882010cffcc4d022d75c551fd3964d2f1260001b617b91565b6167a37fffce922ddbd3ff02a9b5820b08b841e18a7685ac2a1a73063ee6757e67eda59c60001b617b91565b6167cf7fdbc60c1bbcbc3aca99258b883c8dd2e66f0644a366cb7f8cd99e3e50315a52ce60001b617b91565b60e063ffffffff8016901b82169050919050565b61680f7f8b06ef8794557c219d61a561a91f5ef2f03a82cea52a20a891696a26aa285b3760001b611e96565b61683b7fdab5f5f2a0c1e46c6f35fe5c5bf6063aa13300d77c3191b1fe5226c6b791a72860001b611e96565b6168677f2d4bfc76497b9defe4621013a2b4e9d1da4217d10e0e96087366a979e5ac701160001b611e96565b6168937f8433d17f3d25ee896fd254a7919aad4127c878b1ac32c8c20cc99dc5eab5402360001b611e96565b61689c81613464565b1561690f576040517f08c379a000000000000000000000000000000000000000000000000000000000815260040180806020018281038252601b8152602001807f496e76656e746f72793a206e6f74206120636f6c6c656374696f6e000000000081525060200191505060405180910390fd5b61693b7f60df7a025541fd523e21b5099e158e3bdc975d2a7dc20f7ccfe2a2151b896f3d60001b611e96565b6169677fdd7122feaf7a15ed93b3979906a7973dd90c6bc76ebb625a5794ff28414e864d60001b611e96565b6169937f2bcc91a155bd276d3b7132f16f739c8012b44aa43162bd273ed661329013566a60001b611e96565b6169bf7f90628f9b2712185b1680b337a82c73598ed6481cc55d19a4dd0253f5923f558560001b611e96565b600073ffffffffffffffffffffffffffffffffffffffff166004600083815260200190815260200160002060009054906101000a900473ffffffffffffffffffffffffffffffffffffffff1673ffffffffffffffffffffffffffffffffffffffff1614616a94576040517f08c379a000000000000000000000000000000000000000000000000000000000815260040180806020018281038252601e8152602001807f496e76656e746f72793a206578697374696e6720636f6c6c656374696f6e000081525060200191505060405180910390fd5b616ac07f35f491cab3a4c947acb51ae446fa8c713753be02ec39e773f79bf617f3b8556f60001b611e96565b616aec7f98c5515a36403d2f77b76884fb480d05c77940a8ba463640a5f4746646d5767560001b611e96565b616b187f779d147ee40d1d06d066c59e70b3e2b4235c5e8fa57786aea3cba72f869434fa60001b611e96565b616b206137c0565b6004600083815260200190815260200160002060006101000a81548173ffffffffffffffffffffffffffffffffffffffff021916908373ffffffffffffffffffffffffffffffffffffffff160217905550616b9d7f9b1cf4f8628ba0d5a5cbea11177260e43f2ea5bf0f6eb94736e94f8e6ebc66ae60001b611e96565b616bc97f520166cbd240cd38d928b2c80ec3d40ec16c70e689a30a1571aac54d8a5da7de60001b611e96565b616bd281616696565b1515817f4ebf8ad0df535ba5e487bc9cb27fe44120ca81c3a95d3eba79c0bd1df2ab2d5d60405160405180910390a350565b6000616c327fbef1f6d4ed47d8fb8fde13273dd3e8ded7170677c02187128f79a95074928c5a60001b611e96565b616c5e7f4630da60d0bc146c9f7ef54ba5419e160cd2b424e8ccf6d36f0d9fd7429bd27460001b611e96565b616c8a7f4fc2580459b215038ec393a5b3cf27680af65e9e743306d461e626614ba1fc7660001b611e96565b8173ffffffffffffffffffffffffffffffffffffffff168373ffffffffffffffffffffffffffffffffffffffff161480616d4957506000808473ffffffffffffffffffffffffffffffffffffffff1673ffffffffffffffffffffffffffffffffffffffff16815260200190815260200160002060008373ffffffffffffffffffffffffffffffffffffffff1673ffffffffffffffffffffffffffffffffffffffff16815260200190815260200160002060009054906101000a900460ff165b905092915050565b616d7d7f57801e4489aac36dcbed87583b8ce15c6e182bdab1df451eadfcaf1f459934c160001b611e93565b616da97f23450a64f4d2d7e6e5f9febccf0a87a4421b3d21f27a37d6ca81d8f3a8e6910d60001b611e93565b616dd57f629924540c17193a7dbefa77d6e5efb2ae2a4e46370e84a05d109d98b934bf2060001b611e93565b616e017fb92f6ea3723803b74e8dd3cd40abc1bb118ada134e1784948a89b4770466c2b060001b611e93565b6000811415616e78576040517f08c379a00000000000000000000000000000000000000000000000000000000081526004018080602001828103825260158152602001807f496e76656e746f72793a207a65726f2076616c7565000000000000000000000081525060200191505060405180910390fd5b616ea47f2a098732e3ddaefe1eb94110415bb8a9afa31d3d4535116650db2cd83378b20260001b611e93565b616ed07f31de0798ade1ce6976fb19ca4072069aa8373175690f3325d486281bab9c1b3060001b611e93565b616efc7ff9df25d559a8b099b5a29f74ea7f87a8d16d37d5ea753188bdae09ee982354e360001b611e93565b60006001600084815260200190815260200160002060008673ffffffffffffffffffffffffffffffffffffffff1673ffffffffffffffffffffffffffffffffffffffff168152602001908152602001600020549050616f7d7f9ad901aed2e95bc8ae1ba4bd7d9bc6ea7dae73d256a0b2590d63d1530dda794e60001b611e93565b616fa97f73571f5f7926da20b98de4f03c062f089a5d3fe3e00ee3a9d75248e4525e593b60001b611e93565b616fd57f0b5ab4e97275dc2e5be26f20ee9ee762994cdf70df1a542f02972952c8ec8ae660001b611e93565b8181101561704b576040517f08c379a000000000000000000000000000000000000000000000000000000000815260040180806020018281038252601d8152602001807f496e76656e746f72793a206e6f7420656e6f7567682062616c616e636500000081525060200191505060405180910390fd5b6170777fe3008a974fed489545b48994f07ab730ffb2557ec0eb63781030780645ceb2e560001b611e93565b6170a37fcdd74c0e1270809a67865175965189f132bf39c31fbe12fb7a83f8b068200a5660001b611e93565b6170cf7f61eafe755d791cb762bf147d7a397169acbe1c94cb434e5e4172a5c4e23532b960001b611e93565b8373ffffffffffffffffffffffffffffffffffffffff168573ffffffffffffffffffffffffffffffffffffffff16146172985761712e7ffcc167d090720b10d3f3b4ea75644bac4d08af4b658da63abea9f35868700f6a60001b611e93565b61715a7f6467bb7ff439f5c818451cb74e6945ee136539efb3cd09e2eb422d403b91e0b560001b611e93565b6171867f1f6fc4aeb32610a18c2d2af07831a9acc4e8d7d1cf357523ed690ca6abeb396a60001b611e93565b8181036001600085815260200190815260200160002060008773ffffffffffffffffffffffffffffffffffffffff1673ffffffffffffffffffffffffffffffffffffffff168152602001908152602001600020819055506172097f2db8514ae31f53ceb2410b1e9b40d6f1f96636514820dcfd04443158c1c7695a60001b611e93565b6172357fc7419ff0b62fa8aa754826ef86151e0f4c404c715971ba6e035427df84d99be560001b611e93565b816001600085815260200190815260200160002060008673ffffffffffffffffffffffffffffffffffffffff1673ffffffffffffffffffffffffffffffffffffffff168152602001908152602001600020600082825401925050819055506172c5565b6172c47fa05bc84b80fa687c1fb862e7aebb3e99aebd0bf0ed61a46da9f27d56eb6ce71060001b611e93565b5b5050505050565b6172f87f2fd68379ca14b7db8111a90364883014d02105cda94b0722235c35b6e9379fc260001b611e93565b6173247f975030103d6d337aa9e4e47b7e67d9ac8e54246cbbc22974f3dd396f6c99c6a160001b611e93565b6173507f24c95f26d7f07391ad425fc6fcbbba5ce49f0b0185cc9d977026ed3ef54d30e260001b611e93565b61737c7f3f3ea1de58c916dae8def9db88029bc83bf79ead6369ed9468605833404b879760001b611e93565b600182146173f2576040517f08c379a000000000000000000000000000000000000000000000000000000000815260040180806020018281038252601a8152602001807f496e76656e746f72793a2077726f6e67204e46542076616c756500000000000081525060200191505060405180910390fd5b61741e7fd8d643e8ed2b61d8841c025d7608a4610ef6a00a5c4fa846c34f2f78a5c094df60001b611e93565b61744a7f054302552056b0669960c445f0aaff316e134302c404f1fbc47645e845cc940e60001b611e93565b6174767fa998ff91c24750e60e490a22bc528dc972dae1ba9231bafdf0c019780634091060001b611e93565b6174a27f92b7def5c5ac7f7c67860a15bfc7da36dae4e5e0069c53ae471e09013b95192f60001b611e93565b600360008481526020019081526020016000205473ffffffffffffffffffffffffffffffffffffffff168573ffffffffffffffffffffffffffffffffffffffff1614617556576040517f08c379a00000000000000000000000000000000000000000000000000000000081526004018080602001828103825260188152602001807f496e76656e746f72793a206e6f6e2d6f776e6564204e4654000000000000000081525060200191505060405180910390fd5b6175827f8d4ec19a41e130dabcc8c92eb6c7e84d6a632503c6a7fbf739ffbde57eca87b860001b611e93565b6175ae7fef8eda61a6bf931392f35935f0b90be084ca8bb12a99eceefb5ad7ad0e21f22f60001b611e93565b6175da7f9e854899f4e73bbe5df15883e6b73ad8d72c0729af5c641e671a3dd92279612260001b611e93565b8373ffffffffffffffffffffffffffffffffffffffff1660036000858152602001908152602001600020819055506176347f4cfc05366ce27fbd5e36b8cbb0417d134924af84a85d94ef83fc3e7029edeba460001b611e93565b6176607fd070047a97a0cb50149e9b8a93a3933289b8b2b5d7712f105fe45045f7d46af760001b611e93565b80617868576176917fdec18706afe78dc80061b842f72023fc8cb37a167e21dbf30de78276252bce0360001b611e93565b6176bd7fc012549596414c0a0903ec97b9eb00e5ee7103d5b55454cb1683b73f1d6572f460001b611e93565b6176e97f94db8d2f6a5e6c9ab9f12c000e198e3356b634c449f2b72eb5971071164d91b360001b611e93565b60006176f484616749565b90506177227f76b32aa76a72a506357380f354dbdc1cbe8ab6f6084cf1c7d070d7cd2c46b49860001b611e93565b61774e7fbab0f024af47f67d9f7a2d3fedb057a8e85fd751d8a3cd0143637cee75b7184960001b611e93565b600180600083815260200190815260200160002060008873ffffffffffffffffffffffffffffffffffffffff1673ffffffffffffffffffffffffffffffffffffffff168152602001908152602001600020600082825403925050819055506177d87fb9161fd138274b2022210f079bcaef96355468c9da778df316acd93fd3c3f73f60001b611e93565b6178047fc1fd5bd648ac70554512136239493ba15b2a6d388a5a64d16ce75d12779885bc60001b611e93565b600180600083815260200190815260200160002060008773ffffffffffffffffffffffffffffffffffffffff1673ffffffffffffffffffffffffffffffffffffffff1681526020019081526020016000206000828254019250508190555050617895565b6178947fa7b7b4534365994b404dde89d16ea10a4f2357290801db1dd4ef47deee8ac06860001b611e93565b5b5050505050565b600080823b905060008111915050919050565b6178db7f05d4eabced4a90bc15fe1363d1a39b0026c03b81a825c0a82aa8861c967300c460001b611e96565b6179077ff6c9ba956753ec49666702d2237e8ff3b9c60baf3ac68523fac483c31ff1b63160001b611e96565b6179337f1c9fbd969656e9225a24f0352001238ee7f5b381e50699467d086d99ecf6acc960001b611e96565b61795f7fd9a2510c585de86f20c32d87f365937844a6346aebf914e4a85409eb7f04937d60001b611e96565b63f23a6e6160e01b7bffffffffffffffffffffffffffffffffffffffffffffffffffffffff19168473ffffffffffffffffffffffffffffffffffffffff1663f23a6e616179aa6137c0565b888787876040518663ffffffff1660e01b8152600401808673ffffffffffffffffffffffffffffffffffffffff1681526020018573ffffffffffffffffffffffffffffffffffffffff16815260200184815260200183815260200180602001828103825283818151815260200191508051906020019080838360005b83811015617a41578082015181840152602081019050617a26565b50505050905090810190601f168015617a6e5780820380516001836020036101000a031916815260200191505b509650505050505050602060405180830381600087803b158015617a9157600080fd5b505af1158015617aa5573d6000803e3d6000fd5b505050506040513d6020811015617abb57600080fd5b81019080805190602001909291905050507bffffffffffffffffffffffffffffffffffffffffffffffffffffffff191614617b5e576040517f08c379a000000000000000000000000000000000000000000000000000000000815260040180806020018281038252601b8152602001807f496e76656e746f72793a207472616e736665722072656675736564000000000081525060200191505060405180910390fd5b617b8a7fa738110d8fd9c8d232e532ba6040fa049501cff7a292ef7fc2fd7cb09ac547a960001b611e96565b5050505050565b50565b617bc07f178ceedd55af8ff573ee0aec5af1633bd5df5a5a8f5c09fc4f33e2b9ab61a7f460001b611e93565b617bec7f2d1b054b439bb3093fe2e926d40d351f826e1654f0bf299c28ec52fd671fd49960001b611e93565b617c187f9a97ba3c043f3fe3ee66560fe4be369d390168cb0b448efd0f2b11f91e028daa60001b611e93565b617c447f3b4d71eff7ed0b9c9345e00ba6f568606440271117fe9ab73d1706f87d11202060001b611e93565b6000811415617cbb576040517f08c379a00000000000000000000000000000000000000000000000000000000081526004018080602001828103825260158152602001807f496e76656e746f72793a207a65726f2076616c7565000000000000000000000081525060200191505060405180910390fd5b617ce77fdc7ffb5b7cfbbeb38822463ad41119a150860a25b533b515a6f8b82bd3ffe01a60001b611e93565b617d137f4a5a3bdc2f2ca50f57ea7c520e69cb528506cb54b2723a943460f39f2cbcf9c360001b611e93565b617d3f7f36edf2bcdf80246405b0c1b0584e3918e8f6b33f8769230672c1ee42d51aafbb60001b611e93565b600060026000848152602001908152602001600020549050617d837f22c5b5a4fd9d7466833aab817f33f87e201dd9ff474f6e089752f9885471d87160001b611e93565b617daf7f5d6f5971094ab27a28615f329bbd23271859fd7ac07569735aa5b9f95d0d431c60001b611e93565b60008282019050617de27ffd9a036f4498877860318169eedccf4bd1c4f1b12ef10896b893d56c4bc09b1360001b611e93565b617e0e7fb1aa95e651212d9c3fee4b398c47a6a02e03f2ebeef6797b45b7608b8704c69a60001b611e93565b617e3a7f88ea7bb131e8e9db76595b69df29b45fb78122bb00b99d8b1fdd31207e925f7a60001b611e93565b818111617eaf576040517f08c379a000000000000000000000000000000000000000000000000000000000815260040180806020018281038252601a8152602001807f496e76656e746f72793a20737570706c79206f766572666c6f7700000000000081525060200191505060405180910390fd5b617edb7fc51623669666851b6625e6d2b799a308ff126044a3c8961bf86e1f34f7fbddbf60001b611e93565b617f077ff85d223790d83e287fe8570ef8b7de1e303f00a133056b2292f228d8a0961e6a60001b611e93565b617f337f5dfc4b0ccb4b4fb406f69faa4a8e93bac76303c441ff7df688b109d86f2d83b360001b611e93565b806002600086815260200190815260200160002081905550617f777fda1aedd290667e6e578c4c832808e5fe4ce6ac3ed76b2ed987680f87b83639a960001b611e93565b617fa37f1faafc37183f87505409d98e2b2b0bd95073030b4c89d47afce73828af2f38fa60001b611e93565b826001600086815260200190815260200160002060008773ffffffffffffffffffffffffffffffffffffffff1673ffffffffffffffffffffffffffffffffffffffff168152602001908152602001600020600082825401925050819055505050505050565b6180347fa676a98b1fcc180353a694c228020fbae59514b0d9bb15c76f30e58b5e08a92660001b611e93565b6180607fde6690c3eeb232ddf2200e2b06a917c584facc968c27eeeebb213f567b18430060001b611e93565b61808b7e1e6d2efa19603b2664496bbb78780f62bf2fc2987f2648b2ebbb1da5ea03ee60001b611e93565b6180b77f461897ae50eb2aa8c1a86dc8988f89c6e33d1f038cfff91678f00bcb6c1c5b2f60001b611e93565b6001821461812d576040517f08c379a000000000000000000000000000000000000000000000000000000000815260040180806020018281038252601a8152602001807f496e76656e746f72793a2077726f6e67204e46542076616c756500000000000081525060200191505060405180910390fd5b6181597f449ddfcad336a7ab535391547c38045d142955c9b1ca22e4d38dbccfc7c88b5760001b611e93565b6181857ff46e2bce6a18b24bb3f3869bcd320e7fc552627a0e42c715c43b226dc347e58660001b611e93565b6181b17f53d70686b76ad85d18962a13d34dbc3147b29c60244cb14b41c106b7bd26014460001b611e93565b6181dd7f2342f51344d175914d7f2c1448981bd376feef5c932374177d7f20ec9e91ebc460001b611e93565b6000600360008581526020019081526020016000205414618266576040517f08c379a000000000000000000000000000000000000000000000000000000000815260040180806020018281038252601d8152602001807f496e76656e746f72793a206578697374696e672f6275726e74204e465400000081525060200191505060405180910390fd5b6182927fae796472379f73874bfbdf24f100ed4f06100b59bd95d399a8084d4cad0c954660001b611e93565b6182be7f70eeef4bd1468afc7ef6834744abeaf2ac1854a46a64cd5659117db9db5e983860001b611e93565b6182ea7f86c605d840ddeafdf148ef4daca3bcbe7734169bfff4474fa521d16e16f0d84360001b611e93565b8373ffffffffffffffffffffffffffffffffffffffff1660036000858152602001908152602001600020819055506183447f3922f065ea500053f91c3811ce8f834a2ae09a5e479278d205bc43d0f80b3f2f60001b611e93565b6183707f2f631b47483849c5dc288c77de6b923afbe61672133151153a8109b1550c8d5660001b611e93565b806184e3576183a17ffa42ef6acaac54e2d0915b64ce3a4a23d79a283de8a9b219ba223060233dbdae60001b611e93565b6183cd7f0d5aded6025cdca56bd3e2d68636e00db15aac5fbefadb7e3fcef4eced42d75760001b611e93565b6183f97fad3a909176978e1c450b2e4acf74b679d85b2a3cc5022ad57e5f34738d2c80b160001b611e93565b600061840484616749565b90506184327fd312f006ab854cd6588bbef30d2ef72053008bb625acd67e88c89232e92b503160001b611e93565b60026000828152602001908152602001600020600081546001019190508190555061847f7f5965612a5d847901b4014c6588fe9aee52ff6deeb66047d01343e313163c833060001b611e93565b6001600082815260200190815260200160002060008673ffffffffffffffffffffffffffffffffffffffff1673ffffffffffffffffffffffffffffffffffffffff168152602001908152602001600020600081546001019190508190555050618510565b61850f7fc41d2b6a3154caf35d47c178865af251581ec639ff630a185c4f31c06d8ff87660001b611e93565b5b50505050565b6185427f7d10864fb0a4aedc20e442e807bea0f6919d10eeaa1f021c97a5f215a1012f0460001b611e96565b61856e7fe349439bb5f36664722cb8f584c53fd55da073ef5fd4ff3197edfa378ed96b2c60001b611e96565b61859a7f2edac629d0b066ea94aac6394c400610e1412197b305ba242fd8c4dfd153b58b60001b611e96565b6185c67f72ee40dc5eecda898fa2839fc208dd25275ca14983f5f2582cca10221d3d0b7a60001b611e96565b63bc197c8160e01b7bffffffffffffffffffffffffffffffffffffffffffffffffffffffff19168473ffffffffffffffffffffffffffffffffffffffff1663bc197c816186116137c0565b888787876040518663ffffffff1660e01b8152600401808673ffffffffffffffffffffffffffffffffffffffff1681526020018573ffffffffffffffffffffffffffffffffffffffff168152602001806020018060200180602001848103845287818151815260200191508051906020019060200280838360005b838110156186a757808201518184015260208101905061868c565b50505050905001848103835286818151815260200191508051906020019060200280838360005b838110156186e95780820151818401526020810190506186ce565b50505050905001848103825285818151815260200191508051906020019080838360005b8381101561872857808201518184015260208101905061870d565b50505050905090810190601f1680156187555780820380516001836020036101000a031916815260200191505b5098505050505050505050602060405180830381600087803b15801561877a57600080fd5b505af115801561878e573d6000803e3d6000fd5b505050506040513d60208110156187a457600080fd5b81019080805190602001909291905050507bffffffffffffffffffffffffffffffffffffffffffffffffffffffff191614618847576040517f08c379a000000000000000000000000000000000000000000000000000000000815260040180806020018281038252601b8152602001807f496e76656e746f72793a207472616e736665722072656675736564000000000081525060200191505060405180910390fd5b6188737f45eed796109b210b28a94480230c2b5d15205f14ed98d4c42eb93e6e6f3cfc3960001b611e96565b5050505050565b606060008214156188c2576040518060400160405280600181526020017f300000000000000000000000000000000000000000000000000000000000000081525090506189bc565b600082905060005b600082146188ec578080600101915050600a82816188e457fe5b0491506188ca565b60008167ffffffffffffffff8111801561890557600080fd5b506040519080825280601f01601f1916602001820160405280156189385781602001600182028036833780820191505090505b50905060006001830390508593505b600084146189b457600a848161895957fe5b0660300160f81b8282806001900393508151811061897357fe5b60200101907effffffffffffffffffffffffffffffffffffffffffffffffffffffffffffff1916908160001a905350600a84816189ac57fe5b049350618947565b819450505050505b919050565b6189ed7f9d41909482cbda02c77e4035bf721df28e1ca1a726e53450eb53332d7af607a760001b611e93565b618a197f66cde8140a5d87da3dba11006fc644811e2c8edd5494f44051c4ca2a90323de060001b611e93565b618a457f368dc91723a47a6bae1e4d7288e63a5bc8376cf129123d64c764805a027a9fc860001b611e93565b8273ffffffffffffffffffffffffffffffffffffffff168473ffffffffffffffffffffffffffffffffffffffff1614618c1557618aa47f8d8723f35d55cc6cfc91ec935320626b71ff5145134b8219fd4a76896acb378c60001b611e93565b618ad07f01b7e270642aff7039924f07dd2374410fa36dba857d1c69bb93ad407b7b2d3760001b611e93565b618afc7f4989bc64e4e333c7238ba67834b986deb219ddb92e05edb46e8f4bbf9d7d1dc560001b611e93565b806001600084815260200190815260200160002060008673ffffffffffffffffffffffffffffffffffffffff1673ffffffffffffffffffffffffffffffffffffffff16815260200190815260200160002060008282540392505081905550618b867f81f749dad196383306919748f832e0bb57e938da4d044309ee0d715ae7607de760001b611e93565b618bb27fdf99b55eb254652772388f965833973be5c87f62e4f300388f80113d2ba718dc60001b611e93565b806001600084815260200190815260200160002060008573ffffffffffffffffffffffffffffffffffffffff1673ffffffffffffffffffffffffffffffffffffffff16815260200190815260200160002060008282540192505081905550618c42565b618c417fe667c8e1118ad17efcb265b6dedfe5b4988ecc7cf82e8662dcbf832d013f359a60001b611e93565b5b50505050565b828054600181600116156101000203166002900490600052602060002090601f016020900481019282618c7e5760008555618cc5565b82601f10618c9757803560ff1916838001178555618cc5565b82800160010185558215618cc5579182015b82811115618cc4578235825591602001919060010190618ca9565b5b509050618cd29190618cd6565b5090565b5b80821115618cef576000816000905550600101618cd7565b509056fea2646970667358221220864c14bc3188af5adbbea23d81f56824bd49b20404d8b792d0d4b3012bd4191164736f6c63430007060033",
  "linkReferences": {},
  "deployedLinkReferences": {}
}