{
  "_format": "hh-sol-artifact-1",
  "contractName": "ERC1155InventoryMock",
  "sourceName": "contracts/mocks/token/ERC1155/ERC1155InventoryMock.sol",
  "abi": [
    {
      "inputs": [],
      "stateMutability": "nonpayable",
      "type": "constructor"
    },
    {
      "anonymous": false,
      "inputs": [
        {
          "indexed": true,
          "internalType": "address",
          "name": "_owner",
          "type": "address"
        },
        {
          "indexed": true,
          "internalType": "address",
          "name": "_operator",
          "type": "address"
        },
        {
          "indexed": false,
          "internalType": "bool",
          "name": "_approved",
          "type": "bool"
        }
      ],
      "name": "ApprovalForAll",
      "type": "event"
    },
    {
      "anonymous": false,
      "inputs": [
        {
          "indexed": false,
          "internalType": "string",
          "name": "baseMetadataURI",
          "type": "string"
        }
      ],
      "name": "BaseMetadataURISet",
      "type": "event"
    },
    {
      "anonymous": false,
      "inputs": [
        {
          "indexed": true,
          "internalType": "uint256",
          "name": "collectionId",
          "type": "uint256"
        },
        {
          "indexed": true,
          "internalType": "bool",
          "name": "fungible",
          "type": "bool"
        }
      ],
      "name": "CollectionCreated",
      "type": "event"
    },
    {
      "anonymous": false,
      "inputs": [
        {
          "indexed": true,
          "internalType": "address",
          "name": "account",
          "type": "address"
        }
      ],
      "name": "MinterAdded",
      "type": "event"
    },
    {
      "anonymous": false,
      "inputs": [
        {
          "indexed": true,
          "internalType": "address",
          "name": "account",
          "type": "address"
        }
      ],
      "name": "MinterRemoved",
      "type": "event"
    },
    {
      "anonymous": false,
      "inputs": [
        {
          "indexed": true,
          "internalType": "address",
          "name": "previousOwner",
          "type": "address"
        },
        {
          "indexed": true,
          "internalType": "address",
          "name": "newOwner",
          "type": "address"
        }
      ],
      "name": "OwnershipTransferred",
      "type": "event"
    },
    {
      "anonymous": false,
      "inputs": [
        {
          "indexed": true,
          "internalType": "address",
          "name": "_operator",
          "type": "address"
        },
        {
          "indexed": true,
          "internalType": "address",
          "name": "_from",
          "type": "address"
        },
        {
          "indexed": true,
          "internalType": "address",
          "name": "_to",
          "type": "address"
        },
        {
          "indexed": false,
          "internalType": "uint256[]",
          "name": "_ids",
          "type": "uint256[]"
        },
        {
          "indexed": false,
          "internalType": "uint256[]",
          "name": "_values",
          "type": "uint256[]"
        }
      ],
      "name": "TransferBatch",
      "type": "event"
    },
    {
      "anonymous": false,
      "inputs": [
        {
          "indexed": true,
          "internalType": "address",
          "name": "_operator",
          "type": "address"
        },
        {
          "indexed": true,
          "internalType": "address",
          "name": "_from",
          "type": "address"
        },
        {
          "indexed": true,
          "internalType": "address",
          "name": "_to",
          "type": "address"
        },
        {
          "indexed": false,
          "internalType": "uint256",
          "name": "_id",
          "type": "uint256"
        },
        {
          "indexed": false,
          "internalType": "uint256",
          "name": "_value",
          "type": "uint256"
        }
      ],
      "name": "TransferSingle",
      "type": "event"
    },
    {
      "anonymous": false,
      "inputs": [
        {
          "indexed": false,
          "internalType": "string",
          "name": "_value",
          "type": "string"
        },
        {
          "indexed": true,
          "internalType": "uint256",
          "name": "_id",
          "type": "uint256"
        }
      ],
      "name": "URI",
      "type": "event"
    },
    {
      "inputs": [
        {
          "internalType": "address",
          "name": "account",
          "type": "address"
        }
      ],
      "name": "addMinter",
      "outputs": [],
      "stateMutability": "nonpayable",
      "type": "function"
    },
    {
      "inputs": [
        {
          "internalType": "address",
          "name": "owner",
          "type": "address"
        },
        {
          "internalType": "uint256",
          "name": "id",
          "type": "uint256"
        }
      ],
      "name": "balanceOf",
      "outputs": [
        {
          "internalType": "uint256",
          "name": "",
          "type": "uint256"
        }
      ],
      "stateMutability": "view",
      "type": "function"
    },
    {
      "inputs": [
        {
          "internalType": "address[]",
          "name": "owners",
          "type": "address[]"
        },
        {
          "internalType": "uint256[]",
          "name": "ids",
          "type": "uint256[]"
        }
      ],
      "name": "balanceOfBatch",
      "outputs": [
        {
          "internalType": "uint256[]",
          "name": "",
          "type": "uint256[]"
        }
      ],
      "stateMutability": "view",
      "type": "function"
    },
    {
      "inputs": [],
      "name": "baseMetadataURI",
      "outputs": [
        {
          "internalType": "string",
          "name": "",
          "type": "string"
        }
      ],
      "stateMutability": "view",
      "type": "function"
    },
    {
      "inputs": [
        {
          "internalType": "uint256",
          "name": "nftId",
          "type": "uint256"
        }
      ],
      "name": "collectionOf",
      "outputs": [
        {
          "internalType": "uint256",
          "name": "",
          "type": "uint256"
        }
      ],
      "stateMutability": "pure",
      "type": "function"
    },
    {
      "inputs": [
        {
          "internalType": "uint256",
          "name": "collectionId",
          "type": "uint256"
        }
      ],
      "name": "createCollection",
      "outputs": [],
      "stateMutability": "nonpayable",
      "type": "function"
    },
    {
      "inputs": [
        {
          "internalType": "uint256",
          "name": "collectionId",
          "type": "uint256"
        }
      ],
      "name": "creator",
      "outputs": [
        {
          "internalType": "address",
          "name": "",
          "type": "address"
        }
      ],
      "stateMutability": "view",
      "type": "function"
    },
    {
      "inputs": [
        {
          "internalType": "address",
          "name": "tokenOwner",
          "type": "address"
        },
        {
          "internalType": "address",
          "name": "operator",
          "type": "address"
        }
      ],
      "name": "isApprovedForAll",
      "outputs": [
        {
          "internalType": "bool",
          "name": "",
          "type": "bool"
        }
      ],
      "stateMutability": "view",
      "type": "function"
    },
    {
      "inputs": [
        {
          "internalType": "uint256",
          "name": "id",
          "type": "uint256"
        }
      ],
      "name": "isFungible",
      "outputs": [
        {
          "internalType": "bool",
          "name": "",
          "type": "bool"
        }
      ],
      "stateMutability": "pure",
      "type": "function"
    },
    {
      "inputs": [
        {
          "internalType": "address",
          "name": "",
          "type": "address"
        }
      ],
      "name": "isMinter",
      "outputs": [
        {
          "internalType": "bool",
          "name": "",
          "type": "bool"
        }
      ],
      "stateMutability": "view",
      "type": "function"
    },
    {
      "inputs": [],
      "name": "owner",
      "outputs": [
        {
          "internalType": "address",
          "name": "",
          "type": "address"
        }
      ],
      "stateMutability": "view",
      "type": "function"
    },
    {
      "inputs": [
        {
          "internalType": "uint256",
          "name": "nftId",
          "type": "uint256"
        }
      ],
      "name": "ownerOf",
      "outputs": [
        {
          "internalType": "address",
          "name": "",
          "type": "address"
        }
      ],
      "stateMutability": "view",
      "type": "function"
    },
    {
      "inputs": [],
      "name": "renounceMinter",
      "outputs": [],
      "stateMutability": "nonpayable",
      "type": "function"
    },
    {
      "inputs": [
        {
          "internalType": "address",
          "name": "to",
          "type": "address"
        },
        {
          "internalType": "uint256[]",
          "name": "ids",
          "type": "uint256[]"
        },
        {
          "internalType": "uint256[]",
          "name": "values",
          "type": "uint256[]"
        },
        {
          "internalType": "bytes",
          "name": "data",
          "type": "bytes"
        }
      ],
      "name": "safeBatchMint",
      "outputs": [],
      "stateMutability": "nonpayable",
      "type": "function"
    },
    {
      "inputs": [
        {
          "internalType": "address",
          "name": "from",
          "type": "address"
        },
        {
          "internalType": "address",
          "name": "to",
          "type": "address"
        },
        {
          "internalType": "uint256[]",
          "name": "ids",
          "type": "uint256[]"
        },
        {
          "internalType": "uint256[]",
          "name": "values",
          "type": "uint256[]"
        },
        {
          "internalType": "bytes",
          "name": "data",
          "type": "bytes"
        }
      ],
      "name": "safeBatchTransferFrom",
      "outputs": [],
      "stateMutability": "nonpayable",
      "type": "function"
    },
    {
      "inputs": [
        {
          "internalType": "address",
          "name": "to",
          "type": "address"
        },
        {
          "internalType": "uint256",
          "name": "id",
          "type": "uint256"
        },
        {
          "internalType": "uint256",
          "name": "value",
          "type": "uint256"
        },
        {
          "internalType": "bytes",
          "name": "data",
          "type": "bytes"
        }
      ],
      "name": "safeMint",
      "outputs": [],
      "stateMutability": "nonpayable",
      "type": "function"
    },
    {
      "inputs": [
        {
          "internalType": "address",
          "name": "from",
          "type": "address"
        },
        {
          "internalType": "address",
          "name": "to",
          "type": "address"
        },
        {
          "internalType": "uint256",
          "name": "id",
          "type": "uint256"
        },
        {
          "internalType": "uint256",
          "name": "value",
          "type": "uint256"
        },
        {
          "internalType": "bytes",
          "name": "data",
          "type": "bytes"
        }
      ],
      "name": "safeTransferFrom",
      "outputs": [],
      "stateMutability": "nonpayable",
      "type": "function"
    },
    {
      "inputs": [
        {
          "internalType": "address",
          "name": "operator",
          "type": "address"
        },
        {
          "internalType": "bool",
          "name": "approved",
          "type": "bool"
        }
      ],
      "name": "setApprovalForAll",
      "outputs": [],
      "stateMutability": "nonpayable",
      "type": "function"
    },
    {
      "inputs": [
        {
          "internalType": "string",
          "name": "baseMetadataURI_",
          "type": "string"
        }
      ],
      "name": "setBaseMetadataURI",
      "outputs": [],
      "stateMutability": "nonpayable",
      "type": "function"
    },
    {
      "inputs": [
        {
          "internalType": "bytes4",
          "name": "interfaceId",
          "type": "bytes4"
        }
      ],
      "name": "supportsInterface",
      "outputs": [
        {
          "internalType": "bool",
          "name": "",
          "type": "bool"
        }
      ],
      "stateMutability": "view",
      "type": "function"
    },
    {
      "inputs": [
        {
          "internalType": "uint256",
          "name": "id",
          "type": "uint256"
        }
      ],
      "name": "totalSupply",
      "outputs": [
        {
          "internalType": "uint256",
          "name": "",
          "type": "uint256"
        }
      ],
      "stateMutability": "view",
      "type": "function"
    },
    {
      "inputs": [
        {
          "internalType": "address",
          "name": "newOwner",
          "type": "address"
        }
      ],
      "name": "transferOwnership",
      "outputs": [],
      "stateMutability": "nonpayable",
      "type": "function"
    },
    {
      "inputs": [
        {
          "internalType": "uint256",
          "name": "id",
          "type": "uint256"
        }
      ],
      "name": "uri",
      "outputs": [
        {
          "internalType": "string",
          "name": "",
          "type": "string"
        }
      ],
      "stateMutability": "view",
      "type": "function"
    }
  ],
  "bytecode": "0x608060405234801561001057600080fd5b50600580546001600160a01b03191633908117909155604051819081906000907f8be0079c531659141344cd1fd0a4f28419497f9722a3daafe3b4186f6b6457e0908290a35061005f81610065565b506100b1565b6001600160a01b038116600081815260076020526040808220805460ff19166001179055517f6ae172837ea30b801fbfcdd4108aa1d5bf8ff775444fd70256b44e6bf3dfc3f69190a250565b612a56806100c06000396000f3fe608060405234801561001057600080fd5b506004361061018c5760003560e01c80638da5cb5b116100e3578063bd85b0391161008c578063e985e9c511610066578063e985e9c5146109c3578063f242432a146109f1578063f2fde38b14610abc5761018c565b8063bd85b0391461096c578063c7778baa14610989578063d0011d9d146109a65761018c565b8063a22cb465116100bd578063a22cb465146108fb578063aa271e1a14610929578063adebf6f21461094f5761018c565b80638da5cb5b146108c5578063983b2d56146108cd57806398650275146108f35761018c565b80634e1273f4116101455780635cfa92971161011f5780635cfa9297146107765780636352211e146108385780637e518ec8146108555761018c565b80634e1273f414610623578063510b5158146107355780635b2bd79e1461076e5761018c565b80630d6a5bbb116101765780630d6a5bbb1461020a5780630e89341c146103ca5780632eb2c2d61461045c5761018c565b8062fdd58e1461019157806301ffc9a7146101cf575b600080fd5b6101bd600480360360408110156101a757600080fd5b506001600160a01b038135169060200135610ae2565b60408051918252519081900360200190f35b6101f6600480360360208110156101e557600080fd5b50356001600160e01b031916610bad565b604080519115158252519081900360200190f35b6103c86004803603608081101561022057600080fd5b6001600160a01b03823516919081019060408101602082013564010000000081111561024b57600080fd5b82018360208201111561025d57600080fd5b8035906020019184602083028401116401000000008311171561027f57600080fd5b91908080602002602001604051908101604052809392919081815260200183836020028082843760009201919091525092959493602081019350359150506401000000008111156102cf57600080fd5b8201836020820111156102e157600080fd5b8035906020019184602083028401116401000000008311171561030357600080fd5b919080806020026020016040519081016040528093929190818152602001838360200280828437600092019190915250929594936020810193503591505064010000000081111561035357600080fd5b82018360208201111561036557600080fd5b8035906020019184600183028401116401000000008311171561038757600080fd5b91908080601f016020809104026020016040519081016040528093929190818152602001838380828437600092019190915250929550610bf3945050505050565b005b6103e7600480360360208110156103e057600080fd5b5035610c15565b6040805160208082528351818301528351919283929083019185019080838360005b83811015610421578181015183820152602001610409565b50505050905090810190601f16801561044e5780820380516001836020036101000a031916815260200191505b509250505060405180910390f35b6103c8600480360360a081101561047257600080fd5b6001600160a01b0382358116926020810135909116918101906060810160408201356401000000008111156104a657600080fd5b8201836020820111156104b857600080fd5b803590602001918460208302840111640100000000831117156104da57600080fd5b919080806020026020016040519081016040528093929190818152602001838360200280828437600092019190915250929594936020810193503591505064010000000081111561052a57600080fd5b82018360208201111561053c57600080fd5b8035906020019184602083028401116401000000008311171561055e57600080fd5b91908080602002602001604051908101604052809392919081815260200183836020028082843760009201919091525092959493602081019350359150506401000000008111156105ae57600080fd5b8201836020820111156105c057600080fd5b803590602001918460018302840111640100000000831117156105e257600080fd5b91908080601f016020809104026020016040519081016040528093929190818152602001838380828437600092019190915250929550610c20945050505050565b6106e56004803603604081101561063957600080fd5b81019060208101813564010000000081111561065457600080fd5b82018360208201111561066657600080fd5b8035906020019184602083028401116401000000008311171561068857600080fd5b9193909290916020810190356401000000008111156106a657600080fd5b8201836020820111156106b857600080fd5b803590602001918460208302840111640100000000831117156106da57600080fd5b509092509050610c34565b60408051602080825283518183015283519192839290830191858101910280838360005b83811015610721578181015183820152602001610709565b505050509050019250505060405180910390f35b6107526004803603602081101561074b57600080fd5b5035610d3a565b604080516001600160a01b039092168252519081900360200190f35b6103e7610d45565b6103c86004803603608081101561078c57600080fd5b6001600160a01b0382351691602081013591604082013591908101906080810160608201356401000000008111156107c357600080fd5b8201836020820111156107d557600080fd5b803590602001918460018302840111640100000000831117156107f757600080fd5b91908080601f016020809104026020016040519081016040528093929190818152602001838380828437600092019190915250929550610dd3945050505050565b6107526004803603602081101561084e57600080fd5b5035610dea565b6103c86004803603602081101561086b57600080fd5b81019060208101813564010000000081111561088657600080fd5b82018360208201111561089857600080fd5b803590602001918460018302840111640100000000831117156108ba57600080fd5b509092509050610e54565b610752610ed5565b6103c8600480360360208110156108e357600080fd5b50356001600160a01b0316610ee4565b6103c8610efb565b6103c86004803603604081101561091157600080fd5b506001600160a01b0381351690602001351515610f59565b6101f66004803603602081101561093f57600080fd5b50356001600160a01b0316611038565b6101f66004803603602081101561096557600080fd5b503561104d565b6101bd6004803603602081101561098257600080fd5b5035611058565b6101bd6004803603602081101561099f57600080fd5b50356110ae565b6103c8600480360360208110156109bc57600080fd5b5035611113565b6101f6600480360360408110156109d957600080fd5b506001600160a01b0381358116916020013516611127565b6103c8600480360360a0811015610a0757600080fd5b6001600160a01b03823581169260208101359091169160408201359160608101359181019060a081016080820135640100000000811115610a4757600080fd5b820183602082011115610a5957600080fd5b80359060200191846001830284011164010000000083111715610a7b57600080fd5b91908080601f016020809104026020016040519081016040528093929190818152602001838380828437600092019190915250929550611153945050505050565b6103c860048036036020811015610ad257600080fd5b50356001600160a01b0316611326565b60006001600160a01b038316610b3f576040805162461bcd60e51b815260206004820152601760248201527f496e76656e746f72793a207a65726f2061646472657373000000000000000000604482015290519081900360640190fd5b610b4882611399565b15610b82576000828152600360205260409020546001600160a01b03848116911614610b75576000610b78565b60015b60ff169050610ba7565b5060008181526001602090815260408083206001600160a01b03861684529091529020545b92915050565b60006001600160e01b031982167f510b5158000000000000000000000000000000000000000000000000000000001480610beb5750610beb826113eb565b90505b919050565b610c03610bfe6114ec565b6114f0565b610c0f8484848461155d565b50505050565b6060610beb82611874565b610c2d8585858585611947565b5050505050565b6060838214610c8a576040805162461bcd60e51b815260206004820152601e60248201527f496e76656e746f72793a20696e636f6e73697374656e74206172726179730000604482015290519081900360640190fd5b60008467ffffffffffffffff81118015610ca357600080fd5b50604051908082528060200260200182016040528015610ccd578160200160208202803683370190505b50905060005b808614610d3057610d11878783818110610ce957fe5b905060200201356001600160a01b0316868684818110610d0557fe5b90506020020135610ae2565b828281518110610d1d57fe5b6020908102919091010152600101610cd3565b5095945050505050565b6000610beb82611c43565b6006805460408051602060026001851615610100026000190190941693909304601f81018490048402820184019092528181529291830182828015610dcb5780601f10610da057610100808354040283529160200191610dcb565b820191906000526020600020905b815481529060010190602001808311610dae57829003601f168201915b505050505081565b610dde610bfe6114ec565b610c0f84848484611cbc565b6000818152600360205260408120546001600160a01b038116610beb576040805162461bcd60e51b815260206004820152601b60248201527f496e76656e746f72793a206e6f6e2d6578697374696e67204e46540000000000604482015290519081900360640190fd5b610e64610e5f6114ec565b611dd1565b610e706006838361297f565b507f04b1dc5c136a3ce9fded8db0ce3d3366c58764ec3a8e4c2b9e52e4ddfe5ebbf7828260405180806020018281038252848482818152602001925080828437600083820152604051601f909101601f19169092018290039550909350505050a15050565b6005546001600160a01b031690565b610eef610e5f6114ec565b610ef881611e95565b50565b6000610f056114ec565b9050610f10816114f0565b6001600160a01b038116600081815260076020526040808220805460ff19169055517fe94479a9f7e1952cc78f2d6baab678adc1b772d936c6583def489e524cb666929190a250565b6000610f636114ec565b9050806001600160a01b0316836001600160a01b03161415610fcc576040805162461bcd60e51b815260206004820152601860248201527f496e76656e746f72793a2073656c662d617070726f76616c0000000000000000604482015290519081900360640190fd5b6001600160a01b0381811660008181526020818152604080832094881680845294825291829020805460ff1916871515908117909155825190815291517f17307eab39ab6107e8899845ad3d59bd9653f200f220920489ca2b5937696c319281900390910190a3505050565b60076020526000908152604090205460ff1681565b6000610beb82611ee1565b600061106382611399565b15611099576000828152600360205260409020546001600160a01b03161561108c57600161108f565b60005b60ff169050610bee565b50600081815260026020526040902054610bee565b60006110b982611399565b61110a576040805162461bcd60e51b815260206004820152601560248201527f496e76656e746f72793a206e6f7420616e204e46540000000000000000000000604482015290519081900360640190fd5b610beb82611f07565b61111e610e5f6114ec565b610ef881611f14565b6001600160a01b0391821660009081526020818152604080832093909416825291909152205460ff1690565b600061115d6114ec565b90506001600160a01b0385166111ba576040805162461bcd60e51b815260206004820152601b60248201527f496e76656e746f72793a207472616e7366657220746f207a65726f0000000000604482015290519081900360640190fd5b6111c48682612060565b611215576040805162461bcd60e51b815260206004820152601e60248201527f496e76656e746f72793a206e6f6e2d617070726f7665642073656e6465720000604482015290519081900360640190fd5b61121e84611ee1565b156112345761122f868686866120ac565b61129d565b61123d84611399565b156112505761122f8686868660006121ca565b6040805162461bcd60e51b815260206004820152601960248201527f496e76656e746f72793a206e6f74206120746f6b656e20696400000000000000604482015290519081900360640190fd5b846001600160a01b0316866001600160a01b0316826001600160a01b03167fc3d58168c5ae7397731d063d5bbf3d657854427343f4c083240f7aacaa2d0f628787604051808381526020018281526020019250505060405180910390a461130c856001600160a01b03166122fb565b1561131e5761131e8686868686612301565b505050505050565b611331610e5f6114ec565b600580547fffffffffffffffffffffffff0000000000000000000000000000000000000000166001600160a01b0383811691821792839055604051919216907f8be0079c531659141344cd1fd0a4f28419497f9722a3daafe3b4186f6b6457e090600090a350565b60007f8000000000000000000000000000000000000000000000000000000000000000821615801590610beb5750507bffffffffffffffffffffffffffffffffffffffffffffffffffffffff16151590565b60006001600160e01b031982167f01ffc9a700000000000000000000000000000000000000000000000000000000148061144e57506001600160e01b031982167fd9b67a2600000000000000000000000000000000000000000000000000000000145b8061148257506001600160e01b031982167f0e89341c00000000000000000000000000000000000000000000000000000000145b806114b657506001600160e01b031982167f09ce5c4600000000000000000000000000000000000000000000000000000000145b80610beb5750506001600160e01b0319167fbd85b039000000000000000000000000000000000000000000000000000000001490565b3390565b6001600160a01b03811660009081526007602052604090205460ff16610ef8576040805162461bcd60e51b815260206004820152601860248201527f4d696e746572526f6c653a206e6f742061204d696e7465720000000000000000604482015290519081900360640190fd5b6001600160a01b0384166115b8576040805162461bcd60e51b815260206004820152601760248201527f496e76656e746f72793a206d696e7420746f207a65726f000000000000000000604482015290519081900360640190fd5b82518251811461160f576040805162461bcd60e51b815260206004820152601e60248201527f496e76656e746f72793a20696e636f6e73697374656e74206172726179730000604482015290519081900360640190fd5b60008060005b83811461172e57600087828151811061162a57fe5b60200260200101519050600087838151811061164257fe5b6020026020010151905061165582611ee1565b1561166a576116658a838361248b565b611724565b61167382611399565b15611250576116858a8383600161257d565b600061169083611f07565b9050856116a35780955060019450611722565b85811461171b57846001600088815260200190815260200160002060008d6001600160a01b03166001600160a01b031681526020019081526020016000206000828254019250508190555084600260008881526020019081526020016000206000828254019250508190555080955060019450611722565b8460010194505b505b5050600101611615565b50811561176e5760008281526001602090815260408083206001600160a01b038b1684528252808320805485019055848352600290915290208054820190555b6001600160a01b03871660006117826114ec565b6001600160a01b03167f4a39dc06d4c0dbc64b70af90fd698a233a518aa5d07e595d983b8c0526c8f7fb8989604051808060200180602001838103835285818151815260200191508051906020019060200280838360005b838110156117f25781810151838201526020016117da565b50505050905001838103825284818151815260200191508051906020019060200280838360005b83811015611831578181015183820152602001611819565b5050505090500194505050505060405180910390a4611858876001600160a01b03166122fb565b1561186b5761186b60008888888861269e565b50505050505050565b606060066118818361281c565b60405160200180838054600181600116156101000203166002900480156118df5780601f106118bd5761010080835404028352918201916118df565b820191906000526020600020905b8154815290600101906020018083116118cb575b5050825160208401908083835b6020831061190b5780518252601f1990920191602091820191016118ec565b6001836020036101000a038019825116818451168082178552505050505050905001925050506040516020818303038152906040529050919050565b6001600160a01b0384166119a2576040805162461bcd60e51b815260206004820152601b60248201527f496e76656e746f72793a207472616e7366657220746f207a65726f0000000000604482015290519081900360640190fd5b8251825181146119f9576040805162461bcd60e51b815260206004820152601e60248201527f496e76656e746f72793a20696e636f6e73697374656e74206172726179730000604482015290519081900360640190fd5b6000611a036114ec565b9050611a0f8782612060565b611a60576040805162461bcd60e51b815260206004820152601e60248201527f496e76656e746f72793a206e6f6e2d617070726f7665642073656e6465720000604482015290519081900360640190fd5b60008060005b848114611b28576000888281518110611a7b57fe5b602002602001015190506000888381518110611a9357fe5b60200260200101519050611aa682611ee1565b15611abc57611ab78c8c84846120ac565b611b1e565b611ac582611399565b1561125057611ad88c8c848460016121ca565b6000611ae383611f07565b905085611af65780955060019450611b1c565b858114611b1557611b098d8d888861292b565b80955060019450611b1c565b8460010194505b505b5050600101611a66565b508115611b3b57611b3b8989848461292b565b876001600160a01b0316896001600160a01b0316846001600160a01b03167f4a39dc06d4c0dbc64b70af90fd698a233a518aa5d07e595d983b8c0526c8f7fb8a8a604051808060200180602001838103835285818151815260200191508051906020019060200280838360005b83811015611bc0578181015183820152602001611ba8565b50505050905001838103825284818151815260200191508051906020019060200280838360005b83811015611bff578181015183820152602001611be7565b5050505090500194505050505060405180910390a4611c26886001600160a01b03166122fb565b15611c3857611c38898989898961269e565b505050505050505050565b6000611c4e82611399565b15611ca0576040805162461bcd60e51b815260206004820152601b60248201527f496e76656e746f72793a206e6f74206120636f6c6c656374696f6e0000000000604482015290519081900360640190fd5b506000908152600460205260409020546001600160a01b031690565b6001600160a01b038416611d17576040805162461bcd60e51b815260206004820152601760248201527f496e76656e746f72793a206d696e7420746f207a65726f000000000000000000604482015290519081900360640190fd5b611d2083611ee1565b15611d3557611d3084848461248b565b611d50565b611d3e83611399565b1561125057611d30848484600061257d565b6001600160a01b0384166000611d646114ec565b6001600160a01b03167fc3d58168c5ae7397731d063d5bbf3d657854427343f4c083240f7aacaa2d0f628686604051808381526020018281526020019250505060405180910390a4611dbe846001600160a01b03166122fb565b15610c0f57610c0f600085858585612301565b306001600160a01b0316638da5cb5b6040518163ffffffff1660e01b815260040160206040518083038186803b158015611e0a57600080fd5b505afa158015611e1e573d6000803e3d6000fd5b505050506040513d6020811015611e3457600080fd5b50516001600160a01b03828116911614610ef8576040805162461bcd60e51b815260206004820152601660248201527f4f776e61626c653a206e6f7420746865206f776e657200000000000000000000604482015290519081900360640190fd5b6001600160a01b038116600081815260076020526040808220805460ff19166001179055517f6ae172837ea30b801fbfcdd4108aa1d5bf8ff775444fd70256b44e6bf3dfc3f69190a250565b7f8000000000000000000000000000000000000000000000000000000000000000161590565b6001600160e01b03191690565b611f1d81611399565b15611f6f576040805162461bcd60e51b815260206004820152601b60248201527f496e76656e746f72793a206e6f74206120636f6c6c656374696f6e0000000000604482015290519081900360640190fd5b6000818152600460205260409020546001600160a01b031615611fd9576040805162461bcd60e51b815260206004820152601e60248201527f496e76656e746f72793a206578697374696e6720636f6c6c656374696f6e0000604482015290519081900360640190fd5b611fe16114ec565b600082815260046020526040902080547fffffffffffffffffffffffff0000000000000000000000000000000000000000166001600160a01b039290921691909117905561202e81611ee1565b1515817f4ebf8ad0df535ba5e487bc9cb27fe44120ca81c3a95d3eba79c0bd1df2ab2d5d60405160405180910390a350565b6000816001600160a01b0316836001600160a01b031614806120a557506001600160a01b038084166000908152602081815260408083209386168352929052205460ff165b9392505050565b806120fe576040805162461bcd60e51b815260206004820152601560248201527f496e76656e746f72793a207a65726f2076616c75650000000000000000000000604482015290519081900360640190fd5b60008281526001602090815260408083206001600160a01b038816845290915290205481811015612176576040805162461bcd60e51b815260206004820152601d60248201527f496e76656e746f72793a206e6f7420656e6f7567682062616c616e6365000000604482015290519081900360640190fd5b836001600160a01b0316856001600160a01b031614610c2d5760009283526001602090815260408085206001600160a01b039788168652909152808420918390039091559290931681522080549091019055565b8160011461221f576040805162461bcd60e51b815260206004820152601a60248201527f496e76656e746f72793a2077726f6e67204e46542076616c7565000000000000604482015290519081900360640190fd5b6000838152600360205260409020546001600160a01b0386811691161461228d576040805162461bcd60e51b815260206004820152601860248201527f496e76656e746f72793a206e6f6e2d6f776e6564204e46540000000000000000604482015290519081900360640190fd5b60008381526003602052604090206001600160a01b038516905580610c2d5760006122b784611f07565b60009081526001602081815260408084206001600160a01b039a8b168552909152808320805460001901905596909716815294909420805490950190945550505050565b3b151590565b7ff23a6e61000000000000000000000000000000000000000000000000000000006001600160a01b03851663f23a6e616123396114ec565b888787876040518663ffffffff1660e01b815260040180866001600160a01b03168152602001856001600160a01b0316815260200184815260200183815260200180602001828103825283818151815260200191508051906020019080838360005b838110156123b357818101518382015260200161239b565b50505050905090810190601f1680156123e05780820380516001836020036101000a031916815260200191505b509650505050505050602060405180830381600087803b15801561240357600080fd5b505af1158015612417573d6000803e3d6000fd5b505050506040513d602081101561242d57600080fd5b50516001600160e01b03191614610c2d576040805162461bcd60e51b815260206004820152601b60248201527f496e76656e746f72793a207472616e7366657220726566757365640000000000604482015290519081900360640190fd5b806124dd576040805162461bcd60e51b815260206004820152601560248201527f496e76656e746f72793a207a65726f2076616c75650000000000000000000000604482015290519081900360640190fd5b600082815260026020526040902054818101818111612543576040805162461bcd60e51b815260206004820152601a60248201527f496e76656e746f72793a20737570706c79206f766572666c6f77000000000000604482015290519081900360640190fd5b600093845260026020908152604080862092909255600181528185206001600160a01b039096168552949094525091902080549091019055565b816001146125d2576040805162461bcd60e51b815260206004820152601a60248201527f496e76656e746f72793a2077726f6e67204e46542076616c7565000000000000604482015290519081900360640190fd5b60008381526003602052604090205415612633576040805162461bcd60e51b815260206004820152601d60248201527f496e76656e746f72793a206578697374696e672f6275726e74204e4654000000604482015290519081900360640190fd5b60008381526003602052604090206001600160a01b038516905580610c0f57600061265d84611f07565b6000908152600260209081526040808320805460019081019091558083528184206001600160a01b038a168552909252909120805490910190555050505050565b7fbc197c81000000000000000000000000000000000000000000000000000000006001600160a01b03851663bc197c816126d66114ec565b888787876040518663ffffffff1660e01b815260040180866001600160a01b03168152602001856001600160a01b03168152602001806020018060200180602001848103845287818151815260200191508051906020019060200280838360005b8381101561274f578181015183820152602001612737565b50505050905001848103835286818151815260200191508051906020019060200280838360005b8381101561278e578181015183820152602001612776565b50505050905001848103825285818151815260200191508051906020019080838360005b838110156127ca5781810151838201526020016127b2565b50505050905090810190601f1680156127f75780820380516001836020036101000a031916815260200191505b5098505050505050505050602060405180830381600087803b15801561240357600080fd5b60608161285d575060408051808201909152600181527f30000000000000000000000000000000000000000000000000000000000000006020820152610bee565b8160005b811561287557600101600a82049150612861565b60008167ffffffffffffffff8111801561288e57600080fd5b506040519080825280601f01601f1916602001820160405280156128b9576020820181803683370190505b50859350905060001982015b831561292257600a840660300160f81b828280600190039350815181106128e857fe5b60200101907effffffffffffffffffffffffffffffffffffffffffffffffffffffffffffff1916908160001a905350600a840493506128c5565b50949350505050565b826001600160a01b0316846001600160a01b031614610c0f5760009182526001602090815260408084206001600160a01b039687168552909152808320805483900390559290931681522080549091019055565b828054600181600116156101000203166002900490600052602060002090601f0160209004810192826129b557600085556129fb565b82601f106129ce5782800160ff198235161785556129fb565b828001600101855582156129fb579182015b828111156129fb5782358255916020019190600101906129e0565b50612a07929150612a0b565b5090565b5b80821115612a075760008155600101612a0c56fea264697066735822122080f9727d6970d6c3c3d9988fcd99132490b80367ef9a78292cfe9a7aa89854e764736f6c63430007060033",
  "linkReferences": {},
  "deployedLinkReferences": {}
}