{
  "_format": "hh-sol-artifact-1",
  "contractName": "ERC1155721InventoryBurnableMock",
  "sourceName": "contracts/mocks/token/ERC1155721/ERC1155721InventoryBurnableMock.sol",
  "abi": [
    {
      "inputs": [
        {
          "internalType": "contract IForwarderRegistry",
          "name": "forwarderRegistry",
          "type": "address"
        },
        {
          "internalType": "address",
          "name": "universalForwarder",
          "type": "address"
        },
        {
          "internalType": "uint256",
          "name": "collectionMaskLength",
          "type": "uint256"
        }
      ],
      "stateMutability": "nonpayable",
      "type": "constructor"
    },
    {
      "anonymous": false,
      "inputs": [
        {
          "indexed": true,
          "internalType": "address",
          "name": "_owner",
          "type": "address"
        },
        {
          "indexed": true,
          "internalType": "address",
          "name": "_approved",
          "type": "address"
        },
        {
          "indexed": true,
          "internalType": "uint256",
          "name": "_tokenId",
          "type": "uint256"
        }
      ],
      "name": "Approval",
      "type": "event"
    },
    {
      "anonymous": false,
      "inputs": [
        {
          "indexed": true,
          "internalType": "address",
          "name": "_owner",
          "type": "address"
        },
        {
          "indexed": true,
          "internalType": "address",
          "name": "_operator",
          "type": "address"
        },
        {
          "indexed": false,
          "internalType": "bool",
          "name": "_approved",
          "type": "bool"
        }
      ],
      "name": "ApprovalForAll",
      "type": "event"
    },
    {
      "anonymous": false,
      "inputs": [
        {
          "indexed": false,
          "internalType": "string",
          "name": "baseMetadataURI",
          "type": "string"
        }
      ],
      "name": "BaseMetadataURISet",
      "type": "event"
    },
    {
      "anonymous": false,
      "inputs": [
        {
          "indexed": true,
          "internalType": "uint256",
          "name": "collectionId",
          "type": "uint256"
        },
        {
          "indexed": true,
          "internalType": "bool",
          "name": "fungible",
          "type": "bool"
        }
      ],
      "name": "CollectionCreated",
      "type": "event"
    },
    {
      "anonymous": false,
      "inputs": [
        {
          "indexed": true,
          "internalType": "address",
          "name": "account",
          "type": "address"
        }
      ],
      "name": "MinterAdded",
      "type": "event"
    },
    {
      "anonymous": false,
      "inputs": [
        {
          "indexed": true,
          "internalType": "address",
          "name": "account",
          "type": "address"
        }
      ],
      "name": "MinterRemoved",
      "type": "event"
    },
    {
      "anonymous": false,
      "inputs": [
        {
          "indexed": true,
          "internalType": "address",
          "name": "previousOwner",
          "type": "address"
        },
        {
          "indexed": true,
          "internalType": "address",
          "name": "newOwner",
          "type": "address"
        }
      ],
      "name": "OwnershipTransferred",
      "type": "event"
    },
    {
      "anonymous": false,
      "inputs": [
        {
          "indexed": true,
          "internalType": "address",
          "name": "_from",
          "type": "address"
        },
        {
          "indexed": true,
          "internalType": "address",
          "name": "_to",
          "type": "address"
        },
        {
          "indexed": true,
          "internalType": "uint256",
          "name": "_tokenId",
          "type": "uint256"
        }
      ],
      "name": "Transfer",
      "type": "event"
    },
    {
      "anonymous": false,
      "inputs": [
        {
          "indexed": true,
          "internalType": "address",
          "name": "_operator",
          "type": "address"
        },
        {
          "indexed": true,
          "internalType": "address",
          "name": "_from",
          "type": "address"
        },
        {
          "indexed": true,
          "internalType": "address",
          "name": "_to",
          "type": "address"
        },
        {
          "indexed": false,
          "internalType": "uint256[]",
          "name": "_ids",
          "type": "uint256[]"
        },
        {
          "indexed": false,
          "internalType": "uint256[]",
          "name": "_values",
          "type": "uint256[]"
        }
      ],
      "name": "TransferBatch",
      "type": "event"
    },
    {
      "anonymous": false,
      "inputs": [
        {
          "indexed": true,
          "internalType": "address",
          "name": "_operator",
          "type": "address"
        },
        {
          "indexed": true,
          "internalType": "address",
          "name": "_from",
          "type": "address"
        },
        {
          "indexed": true,
          "internalType": "address",
          "name": "_to",
          "type": "address"
        },
        {
          "indexed": false,
          "internalType": "uint256",
          "name": "_id",
          "type": "uint256"
        },
        {
          "indexed": false,
          "internalType": "uint256",
          "name": "_value",
          "type": "uint256"
        }
      ],
      "name": "TransferSingle",
      "type": "event"
    },
    {
      "anonymous": false,
      "inputs": [
        {
          "indexed": false,
          "internalType": "string",
          "name": "_value",
          "type": "string"
        },
        {
          "indexed": true,
          "internalType": "uint256",
          "name": "_id",
          "type": "uint256"
        }
      ],
      "name": "URI",
      "type": "event"
    },
    {
      "inputs": [
        {
          "internalType": "address",
          "name": "account",
          "type": "address"
        }
      ],
      "name": "addMinter",
      "outputs": [],
      "stateMutability": "nonpayable",
      "type": "function"
    },
    {
      "inputs": [
        {
          "internalType": "address",
          "name": "to",
          "type": "address"
        },
        {
          "internalType": "uint256",
          "name": "tokenId",
          "type": "uint256"
        }
      ],
      "name": "approve",
      "outputs": [],
      "stateMutability": "nonpayable",
      "type": "function"
    },
    {
      "inputs": [
        {
          "internalType": "address",
          "name": "owner",
          "type": "address"
        },
        {
          "internalType": "uint256",
          "name": "id",
          "type": "uint256"
        }
      ],
      "name": "balanceOf",
      "outputs": [
        {
          "internalType": "uint256",
          "name": "",
          "type": "uint256"
        }
      ],
      "stateMutability": "view",
      "type": "function"
    },
    {
      "inputs": [
        {
          "internalType": "address",
          "name": "tokenOwner",
          "type": "address"
        }
      ],
      "name": "balanceOf",
      "outputs": [
        {
          "internalType": "uint256",
          "name": "",
          "type": "uint256"
        }
      ],
      "stateMutability": "view",
      "type": "function"
    },
    {
      "inputs": [
        {
          "internalType": "address[]",
          "name": "owners",
          "type": "address[]"
        },
        {
          "internalType": "uint256[]",
          "name": "ids",
          "type": "uint256[]"
        }
      ],
      "name": "balanceOfBatch",
      "outputs": [
        {
          "internalType": "uint256[]",
          "name": "",
          "type": "uint256[]"
        }
      ],
      "stateMutability": "view",
      "type": "function"
    },
    {
      "inputs": [],
      "name": "baseMetadataURI",
      "outputs": [
        {
          "internalType": "string",
          "name": "",
          "type": "string"
        }
      ],
      "stateMutability": "view",
      "type": "function"
    },
    {
      "inputs": [
        {
          "internalType": "address",
          "name": "from",
          "type": "address"
        },
        {
          "internalType": "uint256[]",
          "name": "ids",
          "type": "uint256[]"
        },
        {
          "internalType": "uint256[]",
          "name": "values",
          "type": "uint256[]"
        }
      ],
      "name": "batchBurnFrom",
      "outputs": [],
      "stateMutability": "nonpayable",
      "type": "function"
    },
    {
      "inputs": [
        {
          "internalType": "address",
          "name": "from",
          "type": "address"
        },
        {
          "internalType": "uint256[]",
          "name": "nftIds",
          "type": "uint256[]"
        }
      ],
      "name": "batchBurnFrom",
      "outputs": [],
      "stateMutability": "nonpayable",
      "type": "function"
    },
    {
      "inputs": [
        {
          "internalType": "address",
          "name": "to",
          "type": "address"
        },
        {
          "internalType": "uint256[]",
          "name": "nftIds",
          "type": "uint256[]"
        }
      ],
      "name": "batchMint",
      "outputs": [],
      "stateMutability": "nonpayable",
      "type": "function"
    },
    {
      "inputs": [
        {
          "internalType": "address",
          "name": "from",
          "type": "address"
        },
        {
          "internalType": "address",
          "name": "to",
          "type": "address"
        },
        {
          "internalType": "uint256[]",
          "name": "nftIds",
          "type": "uint256[]"
        }
      ],
      "name": "batchTransferFrom",
      "outputs": [],
      "stateMutability": "nonpayable",
      "type": "function"
    },
    {
      "inputs": [
        {
          "internalType": "address",
          "name": "from",
          "type": "address"
        },
        {
          "internalType": "uint256",
          "name": "id",
          "type": "uint256"
        },
        {
          "internalType": "uint256",
          "name": "value",
          "type": "uint256"
        }
      ],
      "name": "burnFrom",
      "outputs": [],
      "stateMutability": "nonpayable",
      "type": "function"
    },
    {
      "inputs": [
        {
          "internalType": "uint256",
          "name": "nftId",
          "type": "uint256"
        }
      ],
      "name": "collectionOf",
      "outputs": [
        {
          "internalType": "uint256",
          "name": "",
          "type": "uint256"
        }
      ],
      "stateMutability": "view",
      "type": "function"
    },
    {
      "inputs": [
        {
          "internalType": "uint256",
          "name": "collectionId",
          "type": "uint256"
        }
      ],
      "name": "createCollection",
      "outputs": [],
      "stateMutability": "nonpayable",
      "type": "function"
    },
    {
      "inputs": [
        {
          "internalType": "uint256",
          "name": "collectionId",
          "type": "uint256"
        }
      ],
      "name": "creator",
      "outputs": [
        {
          "internalType": "address",
          "name": "",
          "type": "address"
        }
      ],
      "stateMutability": "view",
      "type": "function"
    },
    {
      "inputs": [
        {
          "internalType": "uint256",
          "name": "tokenId",
          "type": "uint256"
        }
      ],
      "name": "getApproved",
      "outputs": [
        {
          "internalType": "address",
          "name": "",
          "type": "address"
        }
      ],
      "stateMutability": "view",
      "type": "function"
    },
    {
      "inputs": [
        {
          "internalType": "address",
          "name": "tokenOwner",
          "type": "address"
        },
        {
          "internalType": "address",
          "name": "operator",
          "type": "address"
        }
      ],
      "name": "isApprovedForAll",
      "outputs": [
        {
          "internalType": "bool",
          "name": "",
          "type": "bool"
        }
      ],
      "stateMutability": "view",
      "type": "function"
    },
    {
      "inputs": [
        {
          "internalType": "uint256",
          "name": "id",
          "type": "uint256"
        }
      ],
      "name": "isFungible",
      "outputs": [
        {
          "internalType": "bool",
          "name": "",
          "type": "bool"
        }
      ],
      "stateMutability": "pure",
      "type": "function"
    },
    {
      "inputs": [
        {
          "internalType": "address",
          "name": "",
          "type": "address"
        }
      ],
      "name": "isMinter",
      "outputs": [
        {
          "internalType": "bool",
          "name": "",
          "type": "bool"
        }
      ],
      "stateMutability": "view",
      "type": "function"
    },
    {
      "inputs": [
        {
          "internalType": "address",
          "name": "forwarder",
          "type": "address"
        }
      ],
      "name": "isTrustedForwarder",
      "outputs": [
        {
          "internalType": "bool",
          "name": "",
          "type": "bool"
        }
      ],
      "stateMutability": "view",
      "type": "function"
    },
    {
      "inputs": [
        {
          "internalType": "address",
          "name": "to",
          "type": "address"
        },
        {
          "internalType": "uint256",
          "name": "nftId",
          "type": "uint256"
        }
      ],
      "name": "mint",
      "outputs": [],
      "stateMutability": "nonpayable",
      "type": "function"
    },
    {
      "inputs": [],
      "name": "msgData",
      "outputs": [
        {
          "internalType": "bytes",
          "name": "ret",
          "type": "bytes"
        }
      ],
      "stateMutability": "view",
      "type": "function"
    },
    {
      "inputs": [],
      "name": "name",
      "outputs": [
        {
          "internalType": "string",
          "name": "",
          "type": "string"
        }
      ],
      "stateMutability": "view",
      "type": "function"
    },
    {
      "inputs": [],
      "name": "owner",
      "outputs": [
        {
          "internalType": "address",
          "name": "",
          "type": "address"
        }
      ],
      "stateMutability": "view",
      "type": "function"
    },
    {
      "inputs": [
        {
          "internalType": "uint256",
          "name": "nftId",
          "type": "uint256"
        }
      ],
      "name": "ownerOf",
      "outputs": [
        {
          "internalType": "address",
          "name": "",
          "type": "address"
        }
      ],
      "stateMutability": "view",
      "type": "function"
    },
    {
      "inputs": [
        {
          "internalType": "address[]",
          "name": "accounts",
          "type": "address[]"
        },
        {
          "internalType": "address[]",
          "name": "tokens",
          "type": "address[]"
        },
        {
          "internalType": "uint256[]",
          "name": "amounts",
          "type": "uint256[]"
        }
      ],
      "name": "recoverERC20s",
      "outputs": [],
      "stateMutability": "nonpayable",
      "type": "function"
    },
    {
      "inputs": [
        {
          "internalType": "address[]",
          "name": "accounts",
          "type": "address[]"
        },
        {
          "internalType": "address[]",
          "name": "contracts",
          "type": "address[]"
        },
        {
          "internalType": "uint256[]",
          "name": "tokenIds",
          "type": "uint256[]"
        }
      ],
      "name": "recoverERC721s",
      "outputs": [],
      "stateMutability": "nonpayable",
      "type": "function"
    },
    {
      "inputs": [],
      "name": "renounceMinter",
      "outputs": [],
      "stateMutability": "nonpayable",
      "type": "function"
    },
    {
      "inputs": [
        {
          "internalType": "address",
          "name": "to",
          "type": "address"
        },
        {
          "internalType": "uint256[]",
          "name": "ids",
          "type": "uint256[]"
        },
        {
          "internalType": "uint256[]",
          "name": "values",
          "type": "uint256[]"
        },
        {
          "internalType": "bytes",
          "name": "data",
          "type": "bytes"
        }
      ],
      "name": "safeBatchMint",
      "outputs": [],
      "stateMutability": "nonpayable",
      "type": "function"
    },
    {
      "inputs": [
        {
          "internalType": "address",
          "name": "from",
          "type": "address"
        },
        {
          "internalType": "address",
          "name": "to",
          "type": "address"
        },
        {
          "internalType": "uint256[]",
          "name": "ids",
          "type": "uint256[]"
        },
        {
          "internalType": "uint256[]",
          "name": "values",
          "type": "uint256[]"
        },
        {
          "internalType": "bytes",
          "name": "data",
          "type": "bytes"
        }
      ],
      "name": "safeBatchTransferFrom",
      "outputs": [],
      "stateMutability": "nonpayable",
      "type": "function"
    },
    {
      "inputs": [
        {
          "internalType": "address[]",
          "name": "recipients",
          "type": "address[]"
        },
        {
          "internalType": "uint256[]",
          "name": "ids",
          "type": "uint256[]"
        },
        {
          "internalType": "uint256[]",
          "name": "values",
          "type": "uint256[]"
        },
        {
          "internalType": "bytes",
          "name": "data",
          "type": "bytes"
        }
      ],
      "name": "safeDeliver",
      "outputs": [],
      "stateMutability": "nonpayable",
      "type": "function"
    },
    {
      "inputs": [
        {
          "internalType": "address",
          "name": "to",
          "type": "address"
        },
        {
          "internalType": "uint256",
          "name": "id",
          "type": "uint256"
        },
        {
          "internalType": "uint256",
          "name": "value",
          "type": "uint256"
        },
        {
          "internalType": "bytes",
          "name": "data",
          "type": "bytes"
        }
      ],
      "name": "safeMint",
      "outputs": [],
      "stateMutability": "nonpayable",
      "type": "function"
    },
    {
      "inputs": [
        {
          "internalType": "address",
          "name": "to",
          "type": "address"
        },
        {
          "internalType": "uint256",
          "name": "nftId",
          "type": "uint256"
        },
        {
          "internalType": "bytes",
          "name": "data",
          "type": "bytes"
        }
      ],
      "name": "safeMint",
      "outputs": [],
      "stateMutability": "nonpayable",
      "type": "function"
    },
    {
      "inputs": [
        {
          "internalType": "address",
          "name": "from",
          "type": "address"
        },
        {
          "internalType": "address",
          "name": "to",
          "type": "address"
        },
        {
          "internalType": "uint256",
          "name": "nftId",
          "type": "uint256"
        }
      ],
      "name": "safeTransferFrom",
      "outputs": [],
      "stateMutability": "nonpayable",
      "type": "function"
    },
    {
      "inputs": [
        {
          "internalType": "address",
          "name": "from",
          "type": "address"
        },
        {
          "internalType": "address",
          "name": "to",
          "type": "address"
        },
        {
          "internalType": "uint256",
          "name": "nftId",
          "type": "uint256"
        },
        {
          "internalType": "bytes",
          "name": "data",
          "type": "bytes"
        }
      ],
      "name": "safeTransferFrom",
      "outputs": [],
      "stateMutability": "nonpayable",
      "type": "function"
    },
    {
      "inputs": [
        {
          "internalType": "address",
          "name": "from",
          "type": "address"
        },
        {
          "internalType": "address",
          "name": "to",
          "type": "address"
        },
        {
          "internalType": "uint256",
          "name": "id",
          "type": "uint256"
        },
        {
          "internalType": "uint256",
          "name": "value",
          "type": "uint256"
        },
        {
          "internalType": "bytes",
          "name": "data",
          "type": "bytes"
        }
      ],
      "name": "safeTransferFrom",
      "outputs": [],
      "stateMutability": "nonpayable",
      "type": "function"
    },
    {
      "inputs": [
        {
          "internalType": "address",
          "name": "operator",
          "type": "address"
        },
        {
          "internalType": "bool",
          "name": "approved",
          "type": "bool"
        }
      ],
      "name": "setApprovalForAll",
      "outputs": [],
      "stateMutability": "nonpayable",
      "type": "function"
    },
    {
      "inputs": [
        {
          "internalType": "string",
          "name": "baseMetadataURI_",
          "type": "string"
        }
      ],
      "name": "setBaseMetadataURI",
      "outputs": [],
      "stateMutability": "nonpayable",
      "type": "function"
    },
    {
      "inputs": [
        {
          "internalType": "bytes4",
          "name": "interfaceId",
          "type": "bytes4"
        }
      ],
      "name": "supportsInterface",
      "outputs": [
        {
          "internalType": "bool",
          "name": "",
          "type": "bool"
        }
      ],
      "stateMutability": "view",
      "type": "function"
    },
    {
      "inputs": [],
      "name": "symbol",
      "outputs": [
        {
          "internalType": "string",
          "name": "",
          "type": "string"
        }
      ],
      "stateMutability": "view",
      "type": "function"
    },
    {
      "inputs": [
        {
          "internalType": "uint256",
          "name": "nftId",
          "type": "uint256"
        }
      ],
      "name": "tokenURI",
      "outputs": [
        {
          "internalType": "string",
          "name": "",
          "type": "string"
        }
      ],
      "stateMutability": "view",
      "type": "function"
    },
    {
      "inputs": [
        {
          "internalType": "uint256",
          "name": "id",
          "type": "uint256"
        }
      ],
      "name": "totalSupply",
      "outputs": [
        {
          "internalType": "uint256",
          "name": "",
          "type": "uint256"
        }
      ],
      "stateMutability": "view",
      "type": "function"
    },
    {
      "inputs": [
        {
          "internalType": "address",
          "name": "from",
          "type": "address"
        },
        {
          "internalType": "address",
          "name": "to",
          "type": "address"
        },
        {
          "internalType": "uint256",
          "name": "nftId",
          "type": "uint256"
        }
      ],
      "name": "transferFrom",
      "outputs": [],
      "stateMutability": "nonpayable",
      "type": "function"
    },
    {
      "inputs": [
        {
          "internalType": "address",
          "name": "newOwner",
          "type": "address"
        }
      ],
      "name": "transferOwnership",
      "outputs": [],
      "stateMutability": "nonpayable",
      "type": "function"
    },
    {
      "inputs": [
        {
          "internalType": "uint256",
          "name": "id",
          "type": "uint256"
        }
      ],
      "name": "uri",
      "outputs": [
        {
          "internalType": "string",
          "name": "",
          "type": "string"
        }
      ],
      "stateMutability": "view",
      "type": "function"
    }
  ],
  "bytecode": "0x60e06040523480156200001157600080fd5b50604051620061aa380380620061aa833981810160405260608110156200003757600080fd5b50805160208083015160409384015184518086018652601f81527f45524331313535373231496e76656e746f72794275726e61626c654d6f636b008185015285518087018752600481526324a72b2160e11b94810194909452600080546001600160a01b031916339081178255965195969395929491928591829189918991889182917f8be0079c531659141344cd1fd0a4f28419497f9722a3daafe3b4186f6b6457e0908290a3506001600160601b0319606091821b811660a05291901b1660805280158015906200010b575061010081105b6200015d576040805162461bcd60e51b815260206004820152601c60248201527f496e76656e746f72793a2077726f6e67206d61736b206c656e67746800000000604482015290519081900360640190fd5b60c052825162000175906006906020860190620001f6565b5081516200018b906007906020850190620001f6565b50505050620001a081620001aa60201b60201c565b50505050620002a2565b6001600160a01b0381166000818152600b6020526040808220805460ff19166001179055517f6ae172837ea30b801fbfcdd4108aa1d5bf8ff775444fd70256b44e6bf3dfc3f69190a250565b828054600181600116156101000203166002900490600052602060002090601f0160209004810192826200022e576000855562000279565b82601f106200024957805160ff191683800117855562000279565b8280016001018555821562000279579182015b82811115620002795782518255916020019190600101906200025c565b50620002879291506200028b565b5090565b5b808211156200028757600081556001016200028c565b60805160601c60a05160601c60c051615e4462000366600039806115375280611a245280612124528061219c528061249c528061266a52806126dd52806128535280612a2d5280612d5352806131225280613186528061374a5280613a255280613aa75280613c9f5280613eb05280613f7c5280614173528061428a52806146bb5280614a095280614e965280615665525080611d1352806153895280615b4f525080611d4e528061534e52806153e15280615b255280615bb05250615e446000f3fe608060405234801561001057600080fd5b50600436106102f35760003560e01c80638053493411610191578063c3666c36116100e3578063e8ab9ccc11610097578063f247296511610071578063f247296514611343578063f2fde38b146113f4578063f3993d111461141a576102f3565b8063e8ab9ccc146110ee578063e985e9c51461124c578063f242432a1461127a576102f3565b8063c7778baa116100c8578063c7778baa14611097578063c87b56dd146110b4578063d0011d9d146110d1576102f3565b8063c3666c3614610f81578063c4c2bfdc1461108f576102f3565b80639865027511610145578063adebf6f21161011f578063adebf6f214610e83578063b88d4fde14610ea0578063bd85b03914610f64576102f3565b80639865027514610e27578063a22cb46514610e2f578063aa271e1a14610e5d576102f3565b80638da5cb5b116101765780638da5cb5b14610df157806395d89b4114610df9578063983b2d5614610e01576102f3565b80638053493414610c3b5780638832e6e314610d6e576102f3565b806342842e0e1161024a5780635b2bd79e116101fe57806370a08231116101d857806370a0823114610a9957806373c8a95814610abf5780637e518ec814610bcd576102f3565b80635b2bd79e146109ea5780635cfa9297146109f25780636352211e14610a7c576102f3565b80634e1273f41161022f5780634e1273f414610899578063510b5158146109a7578063572b6c05146109c4576102f3565b806342842e0e146107e55780634684d7e91461081b576102f3565b80630d6a5bbb116102ac57806323b872dd1161028657806323b872dd146105c25780632eb2c2d6146105f857806340c10f19146107b9576102f3565b80630d6a5bbb146104555780630e89341c14610573578063124d91e514610590576102f3565b806306fdde03116102dd57806306fdde0314610371578063081812fc146103ee578063095ea7b314610427576102f3565b8062fdd58e146102f857806301ffc9a714610336575b600080fd5b6103246004803603604081101561030e57600080fd5b506001600160a01b0381351690602001356114d4565b60408051918252519081900360200190f35b61035d6004803603602081101561034c57600080fd5b50356001600160e01b0319166115c0565b604080519115158252519081900360200190f35b6103796115ed565b6040805160208082528351818301528351919283929083019185019080838360005b838110156103b357818101518382015260200161039b565b50505050905090810190601f1680156103e05780820380516001836020036101000a031916815260200191505b509250505060405180910390f35b61040b6004803603602081101561040457600080fd5b5035611684565b604080516001600160a01b039092168252519081900360200190f35b6104536004803603604081101561043d57600080fd5b506001600160a01b038135169060200135611723565b005b6104536004803603608081101561046b57600080fd5b6001600160a01b038235169190810190604081016020820135600160201b81111561049557600080fd5b8201836020820111156104a757600080fd5b803590602001918460208302840111600160201b831117156104c857600080fd5b919390929091602081019035600160201b8111156104e557600080fd5b8201836020820111156104f757600080fd5b803590602001918460208302840111600160201b8311171561051857600080fd5b919390929091602081019035600160201b81111561053557600080fd5b82018360208201111561054757600080fd5b803590602001918460018302840111600160201b8311171561056857600080fd5b50909250905061191f565b6103796004803603602081101561058957600080fd5b50356119da565b610453600480360360608110156105a657600080fd5b506001600160a01b0381351690602081013590604001356119e5565b610453600480360360608110156105d857600080fd5b506001600160a01b03813581169160208101359091169060400135611b38565b610453600480360360a081101561060e57600080fd5b6001600160a01b038235811692602081013590911691810190606081016040820135600160201b81111561064157600080fd5b82018360208201111561065357600080fd5b803590602001918460208302840111600160201b8311171561067457600080fd5b9190808060200260200160405190810160405280939291908181526020018383602002808284376000920191909152509295949360208101935035915050600160201b8111156106c357600080fd5b8201836020820111156106d557600080fd5b803590602001918460208302840111600160201b831117156106f657600080fd5b9190808060200260200160405190810160405280939291908181526020018383602002808284376000920191909152509295949360208101935035915050600160201b81111561074557600080fd5b82018360208201111561075757600080fd5b803590602001918460018302840111600160201b8311171561077857600080fd5b91908080601f016020809104026020016040519081016040528093929190818152602001838380828437600092019190915250929550611b5a945050505050565b610453600480360360408110156107cf57600080fd5b506001600160a01b038135169060200135611b6e565b610453600480360360608110156107fb57600080fd5b506001600160a01b03813581169160208101359091169060400135611b99565b6104536004803603604081101561083157600080fd5b6001600160a01b038235169190810190604081016020820135600160201b81111561085b57600080fd5b82018360208201111561086d57600080fd5b803590602001918460208302840111600160201b8311171561088e57600080fd5b509092509050611bb6565b610957600480360360408110156108af57600080fd5b810190602081018135600160201b8111156108c957600080fd5b8201836020820111156108db57600080fd5b803590602001918460208302840111600160201b831117156108fc57600080fd5b919390929091602081019035600160201b81111561091957600080fd5b82018360208201111561092b57600080fd5b803590602001918460208302840111600160201b8311171561094c57600080fd5b509092509050611bfe565b60408051602080825283518183015283519192839290830191858101910280838360005b8381101561099357818101518382015260200161097b565b505050509050019250505060405180910390f35b61040b600480360360208110156109bd57600080fd5b5035611d04565b61035d600480360360208110156109da57600080fd5b50356001600160a01b0316611d0f565b610379611d88565b61045360048036036080811015610a0857600080fd5b6001600160a01b038235169160208101359160408201359190810190608081016060820135600160201b811115610a3e57600080fd5b820183602082011115610a5057600080fd5b803590602001918460018302840111600160201b83111715610a7157600080fd5b509092509050611e16565b61040b60048036036020811015610a9257600080fd5b5035611e63565b61032460048036036020811015610aaf57600080fd5b50356001600160a01b0316611e6e565b61045360048036036060811015610ad557600080fd5b810190602081018135600160201b811115610aef57600080fd5b820183602082011115610b0157600080fd5b803590602001918460208302840111600160201b83111715610b2257600080fd5b919390929091602081019035600160201b811115610b3f57600080fd5b820183602082011115610b5157600080fd5b803590602001918460208302840111600160201b83111715610b7257600080fd5b919390929091602081019035600160201b811115610b8f57600080fd5b820183602082011115610ba157600080fd5b803590602001918460208302840111600160201b83111715610bc257600080fd5b509092509050611ee7565b61045360048036036020811015610be357600080fd5b810190602081018135600160201b811115610bfd57600080fd5b820183602082011115610c0f57600080fd5b803590602001918460018302840111600160201b83111715610c3057600080fd5b509092509050611fd9565b61045360048036036060811015610c5157600080fd5b6001600160a01b038235169190810190604081016020820135600160201b811115610c7b57600080fd5b820183602082011115610c8d57600080fd5b803590602001918460208302840111600160201b83111715610cae57600080fd5b9190808060200260200160405190810160405280939291908181526020018383602002808284376000920191909152509295949360208101935035915050600160201b811115610cfd57600080fd5b820183602082011115610d0f57600080fd5b803590602001918460208302840111600160201b83111715610d3057600080fd5b919080806020026020016040519081016040528093929190818152602001838360200280828437600092019190915250929550612055945050505050565b61045360048036036060811015610d8457600080fd5b6001600160a01b0382351691602081013591810190606081016040820135600160201b811115610db357600080fd5b820183602082011115610dc557600080fd5b803590602001918460018302840111600160201b83111715610de657600080fd5b509092509050612322565b61040b612377565b610379612386565b61045360048036036020811015610e1757600080fd5b50356001600160a01b03166123e7565b6104536123fe565b61045360048036036040811015610e4557600080fd5b506001600160a01b038135169060200135151561245c565b61035d60048036036020811015610e7357600080fd5b50356001600160a01b0316612466565b61035d60048036036020811015610e9957600080fd5b503561247b565b61045360048036036080811015610eb657600080fd5b6001600160a01b03823581169260208101359091169160408201359190810190608081016060820135600160201b811115610ef057600080fd5b820183602082011115610f0257600080fd5b803590602001918460018302840111600160201b83111715610f2357600080fd5b91908080601f016020809104026020016040519081016040528093929190818152602001838380828437600092019190915250929550612486945050505050565b61032460048036036020811015610f7a57600080fd5b5035612494565b61045360048036036060811015610f9757600080fd5b810190602081018135600160201b811115610fb157600080fd5b820183602082011115610fc357600080fd5b803590602001918460208302840111600160201b83111715610fe457600080fd5b919390929091602081019035600160201b81111561100157600080fd5b82018360208201111561101357600080fd5b803590602001918460208302840111600160201b8311171561103457600080fd5b919390929091602081019035600160201b81111561105157600080fd5b82018360208201111561106357600080fd5b803590602001918460208302840111600160201b8311171561108457600080fd5b50909250905061250b565b610379612653565b610324600480360360208110156110ad57600080fd5b5035612662565b610379600480360360208110156110ca57600080fd5b5035612701565b610453600480360360208110156110e757600080fd5b5035612776565b6104536004803603608081101561110457600080fd5b810190602081018135600160201b81111561111e57600080fd5b82018360208201111561113057600080fd5b803590602001918460208302840111600160201b8311171561115157600080fd5b919390929091602081019035600160201b81111561116e57600080fd5b82018360208201111561118057600080fd5b803590602001918460208302840111600160201b831117156111a157600080fd5b919390929091602081019035600160201b8111156111be57600080fd5b8201836020820111156111d057600080fd5b803590602001918460208302840111600160201b831117156111f157600080fd5b919390929091602081019035600160201b81111561120e57600080fd5b82018360208201111561122057600080fd5b803590602001918460018302840111600160201b8311171561124157600080fd5b50909250905061278a565b61035d6004803603604081101561126257600080fd5b506001600160a01b03813581169160200135166127a5565b610453600480360360a081101561129057600080fd5b6001600160a01b03823581169260208101359091169160408201359160608101359181019060a081016080820135600160201b8111156112cf57600080fd5b8201836020820111156112e157600080fd5b803590602001918460018302840111600160201b8311171561130257600080fd5b91908080601f0160208091040260200160405190810160405280939291908181526020018383808284376000920191909152509295506127b8945050505050565b6104536004803603604081101561135957600080fd5b6001600160a01b038235169190810190604081016020820135600160201b81111561138357600080fd5b82018360208201111561139557600080fd5b803590602001918460208302840111600160201b831117156113b657600080fd5b91908080602002602001604051908101604052809392919081815260200183836020028082843760009201919091525092955061293c945050505050565b6104536004803603602081101561140a57600080fd5b50356001600160a01b0316612ba9565b6104536004803603606081101561143057600080fd5b6001600160a01b038235811692602081013590911691810190606081016040820135600160201b81111561146357600080fd5b82018360208201111561147557600080fd5b803590602001918460208302840111600160201b8311171561149657600080fd5b919080806020026020016040519081016040528093929190818152602001838360200280828437600092019190915250929550612c0f945050505050565b60006001600160a01b038316611531576040805162461bcd60e51b815260206004820152601760248201527f496e76656e746f72793a207a65726f2061646472657373000000000000000000604482015290519081900360640190fd5b61155b827f0000000000000000000000000000000000000000000000000000000000000000612f06565b15611595576000828152600460205260409020546001600160a01b0384811691161461158857600061158b565b60015b60ff1690506115ba565b5060008181526002602090815260408083206001600160a01b03861684529091529020545b92915050565b60006001600160e01b03198216630a216a2b60e31b14806115e557506115e582612f2c565b90505b919050565b60068054604080516020601f60026000196101006001881615020190951694909404938401819004810282018101909252828152606093909290918301828280156116795780601f1061164e57610100808354040283529160200191611679565b820191906000526020600020905b81548152906001019060200180831161165c57829003601f168201915b505050505090505b90565b6000818152600460205260408120546001600160a01b0381166116ee576040805162461bcd60e51b815260206004820152601b60248201527f496e76656e746f72793a206e6f6e2d6578697374696e67204e46540000000000604482015290519081900360640190fd5b600160a01b8116156117195750506000818152600960205260409020546001600160a01b03166115e8565b60009150506115e8565b60008181526004602052604090205480611784576040805162461bcd60e51b815260206004820152601b60248201527f496e76656e746f72793a206e6f6e2d6578697374696e67204e46540000000000604482015290519081900360640190fd5b806001600160a01b0384811690821614156117e6576040805162461bcd60e51b815260206004820152601860248201527f496e76656e746f72793a2073656c662d617070726f76616c0000000000000000604482015290519081900360640190fd5b6117f7816117f2612f51565b612f5b565b611848576040805162461bcd60e51b815260206004820152601e60248201527f496e76656e746f72793a206e6f6e2d617070726f7665642073656e6465720000604482015290519081900360640190fd5b6001600160a01b03841661188257600160a01b82161561187d5760008381526004602052604090206001600160a01b03821690555b6118d8565b600160a01b82178083146118a25760008481526004602052604090208190555b506000838152600960205260409020805473ffffffffffffffffffffffffffffffffffffffff19166001600160a01b0386161790555b82846001600160a01b0316826001600160a01b03167f8c5be1e5ebec7d5bd14f71427d1e84f3dd0314c0f7b2291e5b200ac8c7c3b92560405160405180910390a450505050565b61192f61192a612f51565b612fa7565b6119d18787878080602002602001604051908101604052809392919081815260200183836020028082843760009201919091525050604080516020808b0282810182019093528a82529093508a92508991829185019084908082843760009201919091525050604080516020601f8a01819004810282018101909252888152925088915087908190840183828082843760009201919091525061301492505050565b50505050505050565b60606115e58261339f565b60006119ef612f51565b905060006119fd8583612f5b565b9050611a0884613472565b15611a1e57611a198585858461347c565b611ad3565b611a48847f0000000000000000000000000000000000000000000000000000000000000000612f06565b15611a8657611a5b8585858460006135d0565b60405184906000906001600160a01b03881690600080516020615def833981519152908390a4611ad3565b6040805162461bcd60e51b815260206004820152601960248201527f496e76656e746f72793a206e6f74206120746f6b656e20696400000000000000604482015290519081900360640190fd5b60006001600160a01b0316856001600160a01b0316836001600160a01b03167fc3d58168c5ae7397731d063d5bbf3d657854427343f4c083240f7aacaa2d0f628787604051808381526020018281526020019250505060405180910390a45050505050565b611b5583838360405180602001604052806000815250600061379e565b505050565b611b6785858585856138fa565b5050505050565b611b7961192a612f51565b611b958282604051806020016040528060008152506000613c44565b5050565b611b5583838360405180602001604052806000815250600161379e565b611bc161192a612f51565b611b5583838380806020026020016040519081016040528093929190818152602001838360200280828437600092019190915250613de992505050565b6060838214611c54576040805162461bcd60e51b815260206004820152601e60248201527f496e76656e746f72793a20696e636f6e73697374656e74206172726179730000604482015290519081900360640190fd5b60008467ffffffffffffffff81118015611c6d57600080fd5b50604051908082528060200260200182016040528015611c97578160200160208202803683370190505b50905060005b808614611cfa57611cdb878783818110611cb357fe5b905060200201356001600160a01b0316868684818110611ccf57fe5b905060200201356114d4565b828281518110611ce757fe5b6020908102919091010152600101611c9d565b5095945050505050565b60006115e58261416b565b60007f00000000000000000000000000000000000000000000000000000000000000006001600160a01b0316826001600160a01b031614806115e557507f00000000000000000000000000000000000000000000000000000000000000006001600160a01b0316826001600160a01b0316149050919050565b600a805460408051602060026001851615610100026000190190941693909304601f81018490048402820184019092528181529291830182828015611e0e5780601f10611de357610100808354040283529160200191611e0e565b820191906000526020600020905b815481529060010190602001808311611df157829003601f168201915b505050505081565b611e2161192a612f51565b611b6785858585858080601f01602080910402602001604051908101604052809392919081815260200183838082843760009201919091525061420592505050565b60006115e582614359565b60006001600160a01b038216611ecb576040805162461bcd60e51b815260206004820152601760248201527f496e76656e746f72793a207a65726f2061646472657373000000000000000000604482015290519081900360640190fd5b506001600160a01b031660009081526008602052604090205490565b611ef7611ef2612f51565b6143c3565b848381148015611f0657508082145b611f57576040805162461bcd60e51b815260206004820152601a60248201527f5265636f763a20696e636f6e73697374656e7420617272617973000000000000604482015290519081900360640190fd5b60005b818114611fcf57611fc7888883818110611f7057fe5b905060200201356001600160a01b0316858584818110611f8c57fe5b90506020020135888885818110611f9f57fe5b905060200201356001600160a01b03166001600160a01b03166144879092919063ffffffff16565b600101611f5a565b5050505050505050565b611fe4611ef2612f51565b611ff0600a8383615d25565b507f04b1dc5c136a3ce9fded8db0ce3d3366c58764ec3a8e4c2b9e52e4ddfe5ebbf7828260405180806020018281038252848482818152602001925080828437600083820152604051601f909101601f19169092018290039550909350505050a15050565b8151815181146120ac576040805162461bcd60e51b815260206004820152601e60248201527f496e76656e746f72793a20696e636f6e73697374656e74206172726179730000604482015290519081900360640190fd5b60006120b6612f51565b905060006120c48683612f5b565b90506000806000805b8681146122075760008982815181106120e257fe5b602002602001015190506120f581613472565b1561211e576121198b828b858151811061210b57fe5b60200260200101518961347c565b6121fe565b612148817f0000000000000000000000000000000000000000000000000000000000000000612f06565b15611a865761216e8b828b858151811061215e57fe5b60200260200101518960016135d0565b60405181906000906001600160a01b038e1690600080516020615def833981519152908390a460006121c0827f00000000000000000000000000000000000000000000000000000000000000006144ee565b9050856121d357809550600194506121fc565b8581146121f5576121e58c8787614504565b94506001939290920191846121fc565b8460010194505b505b506001016120cd565b50821561223d57612219898484614504565b6001600160a01b038916600090815260086020526040902080549183019182900390555b60006001600160a01b0316896001600160a01b0316866001600160a01b03167f4a39dc06d4c0dbc64b70af90fd698a233a518aa5d07e595d983b8c0526c8f7fb8b8b604051808060200180602001838103835285818151815260200191508051906020019060200280838360005b838110156122c35781810151838201526020016122ab565b50505050905001838103825284818151815260200191508051906020019060200280838360005b838110156123025781810151838201526020016122ea565b5050505090500194505050505060405180910390a4505050505050505050565b61232d61192a612f51565b612371848484848080601f01602080910402602001604051908101604052809392919081815260200183838082843760009201919091525060019250613c44915050565b50505050565b6000546001600160a01b031690565b60078054604080516020601f60026000196101006001881615020190951694909404938401819004810282018101909252828152606093909290918301828280156116795780601f1061164e57610100808354040283529160200191611679565b6123f2611ef2612f51565b6123fb81614544565b50565b6000612408612f51565b905061241381612fa7565b6001600160a01b0381166000818152600b6020526040808220805460ff19169055517fe94479a9f7e1952cc78f2d6baab678adc1b772d936c6583def489e524cb666929190a250565b611b958282614590565b600b6020526000908152604090205460ff1681565b60006115e582613472565b61237184848484600161379e565b60006124c0827f0000000000000000000000000000000000000000000000000000000000000000612f06565b156124f6576000828152600460205260409020546001600160a01b0316156124e95760016124ec565b60005b60ff1690506115e8565b506000818152600360205260409020546115e8565b612516611ef2612f51565b84838114801561252557508082145b612576576040805162461bcd60e51b815260206004820152601a60248201527f5265636f763a20696e636f6e73697374656e7420617272617973000000000000604482015290519081900360640190fd5b60005b818114611fcf5785858281811061258c57fe5b905060200201356001600160a01b03166001600160a01b03166323b872dd308a8a858181106125b757fe5b905060200201356001600160a01b03168787868181106125d357fe5b905060200201356040518463ffffffff1660e01b815260040180846001600160a01b03168152602001836001600160a01b031681526020018281526020019350505050600060405180830381600087803b15801561263057600080fd5b505af1158015612644573d6000803e3d6000fd5b50505050806001019050612579565b606061265d614671565b905090565b600061268e827f0000000000000000000000000000000000000000000000000000000000000000612f06565b6126d7576040805162461bcd60e51b8152602060048201526015602482015274125b9d995b9d1bdc9e4e881b9bdd08185b88139195605a1b604482015290519081900360640190fd5b6115e5827f00000000000000000000000000000000000000000000000000000000000000006144ee565b6000818152600460205260409020546060906001600160a01b031661276d576040805162461bcd60e51b815260206004820152601b60248201527f496e76656e746f72793a206e6f6e2d6578697374696e67204e46540000000000604482015290519081900360640190fd5b6115e5826119da565b612781611ef2612f51565b6123fb816146b5565b61279561192a612f51565b611fcf8888888888888888614817565b60006127b18383614b72565b9392505050565b60006127c2612f51565b90506001600160a01b03851661281f576040805162461bcd60e51b815260206004820152601b60248201527f496e76656e746f72793a207472616e7366657220746f207a65726f0000000000604482015290519081900360640190fd5b600061282b8783612f5b565b905061283685613472565b1561284d576128488787878785614ba0565b6128bb565b612877857f0000000000000000000000000000000000000000000000000000000000000000612f06565b15611a865761288b87878787856000614d0b565b84866001600160a01b0316886001600160a01b0316600080516020615def83398151915260405160405180910390a45b856001600160a01b0316876001600160a01b0316836001600160a01b03167fc3d58168c5ae7397731d063d5bbf3d657854427343f4c083240f7aacaa2d0f628888604051808381526020018281526020019250505060405180910390a461292a866001600160a01b0316614ec1565b156119d1576119d18787878787614ec7565b6000612946612f51565b905060006129548483612f5b565b835190915060008167ffffffffffffffff8111801561297257600080fd5b5060405190808252806020026020018201604052801561299c578160200160208202803683370190505b50905060008060005b848114612a935760008882815181106129ba57fe5b6020026020010151905060018583815181106129d257fe5b6020026020010181815250506129ff8a828785815181106129ef57fe5b60200260200101518a60016135d0565b60405181906000906001600160a01b038d1690600080516020615def833981519152908390a46000612a51827f00000000000000000000000000000000000000000000000000000000000000006144ee565b905084612a645780945060019350612a89565b848114612a8257612a768b8686614504565b80945060019350612a89565b8360010193505b50506001016129a5565b508115612ac557612aa5888383614504565b6001600160a01b0388166000908152600860205260409020805485900390555b60006001600160a01b0316886001600160a01b0316876001600160a01b03167f4a39dc06d4c0dbc64b70af90fd698a233a518aa5d07e595d983b8c0526c8f7fb8a87604051808060200180602001838103835285818151815260200191508051906020019060200280838360005b83811015612b4b578181015183820152602001612b33565b50505050905001838103825284818151815260200191508051906020019060200280838360005b83811015612b8a578181015183820152602001612b72565b5050505090500194505050505060405180910390a45050505050505050565b612bb4611ef2612f51565b6000805473ffffffffffffffffffffffffffffffffffffffff19166001600160a01b0383811691821780845560405192939116917f8be0079c531659141344cd1fd0a4f28419497f9722a3daafe3b4186f6b6457e09190a350565b6001600160a01b038216612c6a576040805162461bcd60e51b815260206004820152601b60248201527f496e76656e746f72793a207472616e7366657220746f207a65726f0000000000604482015290519081900360640190fd5b6000612c74612f51565b90506000612c828583612f5b565b835190915060008167ffffffffffffffff81118015612ca057600080fd5b50604051908082528060200260200182016040528015612cca578160200160208202803683370190505b50905060008060005b848114612dba576000888281518110612ce857fe5b602002602001015190506001858381518110612d0057fe5b602002602001018181525050612d1c8b8b8360018b6001614d0b565b808a6001600160a01b03168c6001600160a01b0316600080516020615def83398151915260405160405180910390a46000612d77827f00000000000000000000000000000000000000000000000000000000000000006144ee565b905084612d8a5780945060019350612db0565b848114612da957612d9d8c8c8787615038565b80945060019350612db0565b8360010193505b5050600101612cd3565b508115612dd857612dcd89898484615038565b612dd889898661508c565b876001600160a01b0316896001600160a01b0316612df4612f51565b6001600160a01b03167f4a39dc06d4c0dbc64b70af90fd698a233a518aa5d07e595d983b8c0526c8f7fb8a87604051808060200180602001838103835285818151815260200191508051906020019060200280838360005b83811015612e64578181015183820152602001612e4c565b50505050905001838103825284818151815260200191508051906020019060200280838360005b83811015612ea3578181015183820152602001612e8b565b5050505090500194505050505060405180910390a4612eca886001600160a01b0316614ec1565b8015612eda5750612eda886150d7565b15612efb57612efb898989866040518060200160405280600081525061516d565b505050505050505050565b6000600160ff1b8316158015906127b15750612f21826152d2565b909216151592915050565b60006001600160e01b031982166318167c6d60e21b14806115e557506115e5826152e3565b600061265d61533e565b6000816001600160a01b0316836001600160a01b031614806127b15750506001600160a01b03918216600090815260016020908152604080832093909416825291909152205460ff1690565b6001600160a01b0381166000908152600b602052604090205460ff166123fb576040805162461bcd60e51b815260206004820152601860248201527f4d696e746572526f6c653a206e6f742061204d696e7465720000000000000000604482015290519081900360640190fd5b6001600160a01b038416613069576040805162461bcd60e51b8152602060048201526017602482015276496e76656e746f72793a206d696e7420746f207a65726f60481b604482015290519081900360640190fd5b8251825181146130c0576040805162461bcd60e51b815260206004820152601e60248201527f496e76656e746f72793a20696e636f6e73697374656e74206172726179730000604482015290519081900360640190fd5b6000806000805b84811461324d5760008882815181106130dc57fe5b6020026020010151905060008883815181106130f457fe5b6020026020010151905061310782613472565b1561311c576131178b838361549e565b613243565b613146827f0000000000000000000000000000000000000000000000000000000000000000612f06565b15611a86576131588b83836001615588565b60405182906001600160a01b038d1690600090600080516020615def833981519152908290a460006131aa837f00000000000000000000000000000000000000000000000000000000000000006144ee565b9050866131bd5780965060019550613241565b86811461323a57856002600089815260200190815260200160002060008e6001600160a01b03166001600160a01b0316815260200190815260200160002060008282540192505081905550856003600089815260200190815260200160002060008282540192505081905550809650858501945060019550613241565b8560010195505b505b50506001016130c7565b5082156132a25760008381526002602090815260408083206001600160a01b038c1680855290835281842080548701905586845260038352818420805487019055835260089091529020805491830191820190555b6001600160a01b03881660006132b6612f51565b6001600160a01b03167f4a39dc06d4c0dbc64b70af90fd698a233a518aa5d07e595d983b8c0526c8f7fb8a8a604051808060200180602001838103835285818151815260200191508051906020019060200280838360005b8381101561332657818101518382015260200161330e565b50505050905001838103825284818151815260200191508051906020019060200280838360005b8381101561336557818101518382015260200161334d565b5050505090500194505050505060405180910390a461338c886001600160a01b0316614ec1565b15611fcf57611fcf60008989898961516d565b6060600a6133ac836156d8565b604051602001808380546001816001161561010002031660029004801561340a5780601f106133e857610100808354040283529182019161340a565b820191906000526020600020905b8154815290600101906020018083116133f6575b5050825160208401908083835b602083106134365780518252601f199092019160209182019101613417565b6001836020036101000a038019825116818451168082178552505050505050905001925050506040516020818303038152906040529050919050565b600160ff1b161590565b816134c6576040805162461bcd60e51b8152602060048201526015602482015274496e76656e746f72793a207a65726f2076616c756560581b604482015290519081900360640190fd5b80613518576040805162461bcd60e51b815260206004820152601e60248201527f496e76656e746f72793a206e6f6e2d617070726f7665642073656e6465720000604482015290519081900360640190fd5b60008381526002602090815260408083206001600160a01b038816845290915290205482811015613590576040805162461bcd60e51b815260206004820152601d60248201527f496e76656e746f72793a206e6f7420656e6f7567682062616c616e6365000000604482015290519081900360640190fd5b60008481526002602090815260408083206001600160a01b0390981683529681528682209285900390925593845260039052509190208054919091039055565b82600114613625576040805162461bcd60e51b815260206004820152601a60248201527f496e76656e746f72793a2077726f6e67204e46542076616c7565000000000000604482015290519081900360640190fd5b6000848152600460205260409020546001600160a01b0386811690821614613694576040805162461bcd60e51b815260206004820152601860248201527f496e76656e746f72793a206e6f6e2d6f776e6564204e46540000000000000000604482015290519081900360640190fd5b8261372557600160a01b8116158015906136d457506000858152600960205260409020546001600160a01b03166136c9612f51565b6001600160a01b0316145b613725576040805162461bcd60e51b815260206004820152601e60248201527f496e76656e746f72793a206e6f6e2d617070726f7665642073656e6465720000604482015290519081900360640190fd5b600085815260046020526040902061dead60f01b905581613796576137758661376e877f00000000000000000000000000000000000000000000000000000000000000006144ee565b6001614504565b6001600160a01b038616600090815260086020526040902080546000190190555b505050505050565b6001600160a01b0384166137f9576040805162461bcd60e51b815260206004820152601b60248201527f496e76656e746f72793a207472616e7366657220746f207a65726f0000000000604482015290519081900360640190fd5b6000613803612f51565b905060006138118783612f5b565b90506138238787876001856000614d0b565b84866001600160a01b0316886001600160a01b0316600080516020615def83398151915260405160405180910390a4856001600160a01b0316876001600160a01b0316836001600160a01b03167fc3d58168c5ae7397731d063d5bbf3d657854427343f4c083240f7aacaa2d0f62886001604051808381526020018281526020019250505060405180910390a46138c2866001600160a01b0316614ec1565b156119d1576138d0866150d7565b156138e8576138e3878787600188614ec7565b6119d1565b82156119d1576119d1878787876157cb565b6001600160a01b038416613955576040805162461bcd60e51b815260206004820152601b60248201527f496e76656e746f72793a207472616e7366657220746f207a65726f0000000000604482015290519081900360640190fd5b8251825181146139ac576040805162461bcd60e51b815260206004820152601e60248201527f496e76656e746f72793a20696e636f6e73697374656e74206172726179730000604482015290519081900360640190fd5b60006139b6612f51565b905060006139c48883612f5b565b90506000806000805b868114613b135760008a82815181106139e257fe5b602002602001015190506139f581613472565b15613a1f57613a1a8d8d838d8681518110613a0c57fe5b60200260200101518a614ba0565b613b0a565b613a49817f0000000000000000000000000000000000000000000000000000000000000000612f06565b15611a8657613a708d8d838d8681518110613a6057fe5b60200260200101518a6001614d0b565b808c6001600160a01b03168e6001600160a01b0316600080516020615def83398151915260405160405180910390a46000613acb827f00000000000000000000000000000000000000000000000000000000000000006144ee565b905085613ade5780955060019450613b08565b858114613b0157613af18e8e8888615038565b9450600193929092019184613b08565b8460010194505b505b506001016139cd565b508215613b3357613b268b8b8585615038565b8101613b338b8b8361508c565b896001600160a01b03168b6001600160a01b0316613b4f612f51565b6001600160a01b03167f4a39dc06d4c0dbc64b70af90fd698a233a518aa5d07e595d983b8c0526c8f7fb8c8c604051808060200180602001838103835285818151815260200191508051906020019060200280838360005b83811015613bbf578181015183820152602001613ba7565b50505050905001838103825284818151815260200191508051906020019060200280838360005b83811015613bfe578181015183820152602001613be6565b5050505090500194505050505060405180910390a4613c258a6001600160a01b0316614ec1565b15613c3757613c378b8b8b8b8b61516d565b5050505050505050505050565b6001600160a01b038416613c99576040805162461bcd60e51b8152602060048201526017602482015276496e76656e746f72793a206d696e7420746f207a65726f60481b604482015290519081900360640190fd5b613cc3837f0000000000000000000000000000000000000000000000000000000000000000612f06565b613d0c576040805162461bcd60e51b8152602060048201526015602482015274125b9d995b9d1bdc9e4e881b9bdd08185b88139195605a1b604482015290519081900360640190fd5b613d1a848460016000615588565b60405183906001600160a01b03861690600090600080516020615def833981519152908290a46001600160a01b0384166000613d54612f51565b6001600160a01b03167fc3d58168c5ae7397731d063d5bbf3d657854427343f4c083240f7aacaa2d0f62866001604051808381526020018281526020019250505060405180910390a4613daf846001600160a01b0316614ec1565b1561237157613dbd846150d7565b15613dd657613dd160008585600186614ec7565b612371565b80156123715761237160008585856157cb565b6001600160a01b038216613e3e576040805162461bcd60e51b8152602060048201526017602482015276496e76656e746f72793a206d696e7420746f207a65726f60481b604482015290519081900360640190fd5b805160008167ffffffffffffffff81118015613e5957600080fd5b50604051908082528060200260200182016040528015613e83578160200160208202803683370190505b50905060008060005b84811461400f576000868281518110613ea157fe5b60200260200101519050613ede7f000000000000000000000000000000000000000000000000000000000000000082612f0690919063ffffffff16565b613f27576040805162461bcd60e51b8152602060048201526015602482015274125b9d995b9d1bdc9e4e881b9bdd08185b88139195605a1b604482015290519081900360640190fd5b6001858381518110613f3557fe5b602002602001018181525050613f4e8882600180615588565b60405181906001600160a01b038a1690600090600080516020615def833981519152908290a46000613fa0827f00000000000000000000000000000000000000000000000000000000000000006144ee565b905084613fb35780945060019350614005565b848114613ffe5760008581526002602090815260408083206001600160a01b038d16845282528083208054880190559682526003905294909420805490930190925560019183614005565b8360010193505b5050600101613e8c565b5060008281526002602090815260408083206001600160a01b038a16808552908352818420805486019055858452600383528184208054860190558084526008909252822080548701905590614063612f51565b6001600160a01b03167f4a39dc06d4c0dbc64b70af90fd698a233a518aa5d07e595d983b8c0526c8f7fb8887604051808060200180602001838103835285818151815260200191508051906020019060200280838360005b838110156140d35781810151838201526020016140bb565b50505050905001838103825284818151815260200191508051906020019060200280838360005b838110156141125781810151838201526020016140fa565b5050505090500194505050505060405180910390a4614139866001600160a01b0316614ec1565b80156141495750614149866150d7565b156137965761379660008787866040518060200160405280600081525061516d565b6000614197827f0000000000000000000000000000000000000000000000000000000000000000612f06565b156141e9576040805162461bcd60e51b815260206004820152601b60248201527f496e76656e746f72793a206e6f74206120636f6c6c656374696f6e0000000000604482015290519081900360640190fd5b506000908152600560205260409020546001600160a01b031690565b6001600160a01b03841661425a576040805162461bcd60e51b8152602060048201526017602482015276496e76656e746f72793a206d696e7420746f207a65726f60481b604482015290519081900360640190fd5b6000614264612f51565b905061426f84613472565b156142845761427f85858561549e565b6142e7565b6142ae847f0000000000000000000000000000000000000000000000000000000000000000612f06565b15611a86576142c08585856000615588565b60405184906001600160a01b03871690600090600080516020615def833981519152908290a45b604080518581526020810185905281516001600160a01b0380891693600093918616927fc3d58168c5ae7397731d063d5bbf3d657854427343f4c083240f7aacaa2d0f629281900390910190a4614346856001600160a01b0316614ec1565b15611b6757611b67600086868686614ec7565b6000818152600460205260408120546001600160a01b0381166115e5576040805162461bcd60e51b815260206004820152601b60248201527f496e76656e746f72793a206e6f6e2d6578697374696e67204e46540000000000604482015290519081900360640190fd5b306001600160a01b0316638da5cb5b6040518163ffffffff1660e01b815260040160206040518083038186803b1580156143fc57600080fd5b505afa158015614410573d6000803e3d6000fd5b505050506040513d602081101561442657600080fd5b50516001600160a01b038281169116146123fb576040805162461bcd60e51b815260206004820152601660248201527f4f776e61626c653a206e6f7420746865206f776e657200000000000000000000604482015290519081900360640190fd5b604080516001600160a01b038416602482015260448082018490528251808303909101815260649091019091526020810180517bffffffffffffffffffffffffffffffffffffffffffffffffffffffff1663a9059cbb60e01b179052611b55908490615934565b60006144f9826152d2565b198316905092915050565b60008281526002602090815260408083206001600160a01b0390961683529481528482208054849003905592815260039092529190208054919091039055565b6001600160a01b0381166000818152600b6020526040808220805460ff19166001179055517f6ae172837ea30b801fbfcdd4108aa1d5bf8ff775444fd70256b44e6bf3dfc3f69190a250565b600061459a612f51565b9050806001600160a01b0316836001600160a01b03161415614603576040805162461bcd60e51b815260206004820152601860248201527f496e76656e746f72793a2073656c662d617070726f76616c0000000000000000604482015290519081900360640190fd5b6001600160a01b03818116600081815260016020908152604080832094881680845294825291829020805460ff1916871515908117909155825190815291517f17307eab39ab6107e8899845ad3d59bd9653f200f220920489ca2b5937696c319281900390910190a3505050565b606061467b615b17565b8080601f01602080910402602001604051908101604052809392919081815260200183838082843760009201919091525092935050505090565b6146df817f0000000000000000000000000000000000000000000000000000000000000000612f06565b15614731576040805162461bcd60e51b815260206004820152601b60248201527f496e76656e746f72793a206e6f74206120636f6c6c656374696f6e0000000000604482015290519081900360640190fd5b6000818152600560205260409020546001600160a01b03161561479b576040805162461bcd60e51b815260206004820152601e60248201527f496e76656e746f72793a206578697374696e6720636f6c6c656374696f6e0000604482015290519081900360640190fd5b6147a3612f51565b6000828152600560205260409020805473ffffffffffffffffffffffffffffffffffffffff19166001600160a01b03929092169190911790556147e581613472565b1515817f4ebf8ad0df535ba5e487bc9cb27fe44120ca81c3a95d3eba79c0bd1df2ab2d5d60405160405180910390a350565b86858114801561482657508084145b614877576040805162461bcd60e51b815260206004820152601e60248201527f496e76656e746f72793a20696e636f6e73697374656e74206172726179730000604482015290519081900360640190fd5b6000614881612f51565b905060005b828114613c375760008b8b8381811061489b57fe5b905060200201356001600160a01b0316905060006001600160a01b0316816001600160a01b0316141561490f576040805162461bcd60e51b8152602060048201526017602482015276496e76656e746f72793a206d696e7420746f207a65726f60481b604482015290519081900360640190fd5b60008a8a8481811061491d57fe5b905060200201359050600089898581811061493457fe5b90506020020135905061494682613472565b15614a035761495683838361549e565b604080518381526020810183905281516001600160a01b0380871693600093918a16927fc3d58168c5ae7397731d063d5bbf3d657854427343f4c083240f7aacaa2d0f629281900390910190a46149b5836001600160a01b0316614ec1565b156149fe576149fe60008484848c8c8080601f016020809104026020016040519081016040528093929190818152602001838380828437600092019190915250614ec792505050565b614b64565b614a2d827f0000000000000000000000000000000000000000000000000000000000000000612f06565b15611a8657614a3f8383836000615588565b60405182906001600160a01b03851690600090600080516020615def833981519152908290a4604080518381526001602082015281516001600160a01b0380871693600093918a16927fc3d58168c5ae7397731d063d5bbf3d657854427343f4c083240f7aacaa2d0f629281900390910190a4614ac4836001600160a01b0316614ec1565b156149fe57614ad2836150d7565b15614b2157614b1c6000848460018c8c8080601f016020809104026020016040519081016040528093929190818152602001838380828437600092019190915250614ec792505050565b6149fe565b6149fe600084848b8b8080601f0160208091040260200160405190810160405280939291908181526020018383808284376000920191909152506157cb92505050565b505050806001019050614886565b6001600160a01b03918216600090815260016020908152604080832093909416825291909152205460ff1690565b80614bf2576040805162461bcd60e51b815260206004820152601e60248201527f496e76656e746f72793a206e6f6e2d617070726f7665642073656e6465720000604482015290519081900360640190fd5b81614c3c576040805162461bcd60e51b8152602060048201526015602482015274496e76656e746f72793a207a65726f2076616c756560581b604482015290519081900360640190fd5b60008381526002602090815260408083206001600160a01b038916845290915290205482811015614cb4576040805162461bcd60e51b815260206004820152601d60248201527f496e76656e746f72793a206e6f7420656e6f7567682062616c616e6365000000604482015290519081900360640190fd5b846001600160a01b0316866001600160a01b0316146137965760009384526002602090815260408086206001600160a01b039889168752909152808520918490039091559390941682529190208054909101905550565b82600114614d60576040805162461bcd60e51b815260206004820152601a60248201527f496e76656e746f72793a2077726f6e67204e46542076616c7565000000000000604482015290519081900360640190fd5b6000848152600460205260409020546001600160a01b0387811690821614614dcf576040805162461bcd60e51b815260206004820152601860248201527f496e76656e746f72793a206e6f6e2d6f776e6564204e46540000000000000000604482015290519081900360640190fd5b82614e6057600160a01b811615801590614e0f57506000858152600960205260409020546001600160a01b0316614e04612f51565b6001600160a01b0316145b614e60576040805162461bcd60e51b815260206004820152601e60248201527f496e76656e746f72793a206e6f6e2d617070726f7665642073656e6465720000604482015290519081900360640190fd5b60008581526004602052604090206001600160a01b0387169055816119d157614e8b8787600161508c565b6119d18787614eba887f00000000000000000000000000000000000000000000000000000000000000006144ee565b6001615038565b3b151590565b63f23a6e6160e01b6001600160a01b03851663f23a6e61614ee6612f51565b888787876040518663ffffffff1660e01b815260040180866001600160a01b03168152602001856001600160a01b0316815260200184815260200183815260200180602001828103825283818151815260200191508051906020019080838360005b83811015614f60578181015183820152602001614f48565b50505050905090810190601f168015614f8d5780820380516001836020036101000a031916815260200191505b509650505050505050602060405180830381600087803b158015614fb057600080fd5b505af1158015614fc4573d6000803e3d6000fd5b505050506040513d6020811015614fda57600080fd5b50516001600160e01b03191614611b67576040805162461bcd60e51b815260206004820152601b60248201527f496e76656e746f72793a207472616e7366657220726566757365640000000000604482015290519081900360640190fd5b826001600160a01b0316846001600160a01b0316146123715760009182526002602090815260408084206001600160a01b039687168552909152808320805483900390559290931681522080549091019055565b816001600160a01b0316836001600160a01b031614611b55576001600160a01b0380841660009081526008602052604080822080548590039055918416815220805482019055505050565b60408051630271189760e51b6024808301919091528251808303909101815260449091018252602081810180517bffffffffffffffffffffffffffffffffffffffffffffffffffffffff166301ffc9a760e01b1781528251935160008082529485948594909392908183858b612710fa955080519450505050609e5a1161515a57fe5b8280156151645750815b95945050505050565b63bc197c8160e01b6001600160a01b03851663bc197c8161518c612f51565b888787876040518663ffffffff1660e01b815260040180866001600160a01b03168152602001856001600160a01b03168152602001806020018060200180602001848103845287818151815260200191508051906020019060200280838360005b838110156152055781810151838201526020016151ed565b50505050905001848103835286818151815260200191508051906020019060200280838360005b8381101561524457818101518382015260200161522c565b50505050905001848103825285818151815260200191508051906020019080838360005b83811015615280578181015183820152602001615268565b50505050905090810190601f1680156152ad5780820380516001836020036101000a031916815260200191505b5098505050505050505050602060405180830381600087803b158015614fb057600080fd5b6001610100919091031b6000190190565b60006001600160e01b031982166380ac58cd60e01b148061531457506001600160e01b03198216635b5e139f60e01b145b8061532f57506001600160e01b0319821663f3993d1160e01b145b806115e557506115e582615c7a565b6000338161534a615cfe565b90507f00000000000000000000000000000000000000000000000000000000000000006001600160a01b0316826001600160a01b031614806153bd57507f00000000000000000000000000000000000000000000000000000000000000006001600160a01b0316826001600160a01b0316145b156153cb5791506116819050565b6001600160a01b038216321480159061548a57507f00000000000000000000000000000000000000000000000000000000000000006001600160a01b031663e60125d682846040518363ffffffff1660e01b815260040180836001600160a01b03168152602001826001600160a01b031681526020019250505060206040518083038186803b15801561545d57600080fd5b505afa158015615471573d6000803e3d6000fd5b505050506040513d602081101561548757600080fd5b50515b156154985791506116819050565b50905090565b806154e8576040805162461bcd60e51b8152602060048201526015602482015274496e76656e746f72793a207a65726f2076616c756560581b604482015290519081900360640190fd5b60008281526003602052604090205481810181811161554e576040805162461bcd60e51b815260206004820152601a60248201527f496e76656e746f72793a20737570706c79206f766572666c6f77000000000000604482015290519081900360640190fd5b600093845260036020908152604080862092909255600281528185206001600160a01b039096168552949094525091902080549091019055565b816001146155dd576040805162461bcd60e51b815260206004820152601a60248201527f496e76656e746f72793a2077726f6e67204e46542076616c7565000000000000604482015290519081900360640190fd5b6000838152600460205260409020541561563e576040805162461bcd60e51b815260206004820152601d60248201527f496e76656e746f72793a206578697374696e672f6275726e74204e4654000000604482015290519081900360640190fd5b60008381526004602052604090206001600160a01b038516905580612371576000615689847f00000000000000000000000000000000000000000000000000000000000000006144ee565b600090815260036020908152604080832080546001908101909155600283528184206001600160a01b038a16855283528184208054820190556008909252909120805490910190555050505050565b6060816156fd57506040805180820190915260018152600360fc1b60208201526115e8565b8160005b811561571557600101600a82049150615701565b60008167ffffffffffffffff8111801561572e57600080fd5b506040519080825280601f01601f191660200182016040528015615759576020820181803683370190505b50859350905060001982015b83156157c257600a840660300160f81b8282806001900393508151811061578857fe5b60200101907effffffffffffffffffffffffffffffffffffffffffffffffffffffffffffff1916908160001a905350600a84049350615765565b50949350505050565b630a85bd0160e11b6001600160a01b03841663150b7a026157ea612f51565b8786866040518563ffffffff1660e01b815260040180856001600160a01b03168152602001846001600160a01b0316815260200183815260200180602001828103825283818151815260200191508051906020019080838360005b8381101561585d578181015183820152602001615845565b50505050905090810190601f16801561588a5780820380516001836020036101000a031916815260200191505b5095505050505050602060405180830381600087803b1580156158ac57600080fd5b505af11580156158c0573d6000803e3d6000fd5b505050506040513d60208110156158d657600080fd5b50516001600160e01b03191614612371576040805162461bcd60e51b815260206004820152601b60248201527f496e76656e746f72793a207472616e7366657220726566757365640000000000604482015290519081900360640190fd5b816159476001600160a01b038216614ec1565b615998576040805162461bcd60e51b815260206004820152601a60248201527f4552433230577261707065723a206e6f6e2d636f6e7472616374000000000000604482015290519081900360640190fd5b600080826001600160a01b0316846040518082805190602001908083835b602083106159d55780518252601f1990920191602091820191016159b6565b6001836020036101000a0380198251168184511680821785525050505050509050019150506000604051808303816000865af19150503d8060008114615a37576040519150601f19603f3d011682016040523d82523d6000602084013e615a3c565b606091505b50915091508115615abb57805115615ab657808060200190516020811015615a6357600080fd5b5051615ab6576040805162461bcd60e51b815260206004820152601e60248201527f4552433230577261707065723a206f7065726174696f6e206661696c65640000604482015290519081900360640190fd5b611b67565b8051615b0e576040805162461bcd60e51b815260206004820152601e60248201527f4552433230577261707065723a206f7065726174696f6e206661696c65640000604482015290519081900360640190fd5b80518082602001fd5b366000336001600160a01b037f000000000000000000000000000000000000000000000000000000000000000016811480615b8357507f00000000000000000000000000000000000000000000000000000000000000006001600160a01b0316816001600160a01b0316145b15615b9a57615b90615d0a565b9250925050615c76565b6001600160a01b0381163214801590615c6057507f00000000000000000000000000000000000000000000000000000000000000006001600160a01b031663e60125d6615be5615cfe565b836040518363ffffffff1660e01b815260040180836001600160a01b03168152602001826001600160a01b031681526020019250505060206040518083038186803b158015615c3357600080fd5b505afa158015615c47573d6000803e3d6000fd5b505050506040513d6020811015615c5d57600080fd5b50515b15615c6d57615b90615d0a565b60003692509250505b9091565b60006001600160e01b031982166301ffc9a760e01b1480615cab57506001600160e01b03198216636cdb3d1360e11b145b80615cc657506001600160e01b031982166303a24d0760e21b145b80615ce157506001600160e01b031982166304e72e2360e11b145b806115e55750506001600160e01b03191663bd85b03960e01b1490565b60131936013560601c90565b366000615d1d6013198301828481615dc6565b915091509091565b828054600181600116156101000203166002900490600052602060002090601f016020900481019282615d5b5760008555615da1565b82601f10615d745782800160ff19823516178555615da1565b82800160010185558215615da1579182015b82811115615da1578235825591602001919060010190615d86565b50615dad929150615db1565b5090565b5b80821115615dad5760008155600101615db2565b60008085851115615dd5578182fd5b83861115615de1578182fd5b505082019391909203915056feddf252ad1be2c89b69c2b068fc378daa952ba7f163c4a11628f55a4df523b3efa264697066735822122050a989b61e4755d3e47346556858880f3af3a8f13b0e934d2ff52a3c739d178c64736f6c63430007060033",
  "linkReferences": {},
  "deployedLinkReferences": {}
}