{
  "_format": "hh-sol-artifact-1",
  "contractName": "ERC1155721InventoryBurnableMock",
  "sourceName": "contracts/mocks/token/ERC1155721/ERC1155721InventoryBurnableMock.sol",
  "abi": [
    {
      "inputs": [
        {
          "internalType": "contract IForwarderRegistry",
          "name": "forwarderRegistry",
          "type": "address"
        },
        {
          "internalType": "address",
          "name": "universalForwarder",
          "type": "address"
        }
      ],
      "stateMutability": "nonpayable",
      "type": "constructor"
    },
    {
      "anonymous": false,
      "inputs": [
        {
          "indexed": true,
          "internalType": "address",
          "name": "_owner",
          "type": "address"
        },
        {
          "indexed": true,
          "internalType": "address",
          "name": "_approved",
          "type": "address"
        },
        {
          "indexed": true,
          "internalType": "uint256",
          "name": "_tokenId",
          "type": "uint256"
        }
      ],
      "name": "Approval",
      "type": "event"
    },
    {
      "anonymous": false,
      "inputs": [
        {
          "indexed": true,
          "internalType": "address",
          "name": "_owner",
          "type": "address"
        },
        {
          "indexed": true,
          "internalType": "address",
          "name": "_operator",
          "type": "address"
        },
        {
          "indexed": false,
          "internalType": "bool",
          "name": "_approved",
          "type": "bool"
        }
      ],
      "name": "ApprovalForAll",
      "type": "event"
    },
    {
      "anonymous": false,
      "inputs": [
        {
          "indexed": false,
          "internalType": "string",
          "name": "baseMetadataURI",
          "type": "string"
        }
      ],
      "name": "BaseMetadataURISet",
      "type": "event"
    },
    {
      "anonymous": false,
      "inputs": [
        {
          "indexed": true,
          "internalType": "uint256",
          "name": "collectionId",
          "type": "uint256"
        },
        {
          "indexed": true,
          "internalType": "bool",
          "name": "fungible",
          "type": "bool"
        }
      ],
      "name": "CollectionCreated",
      "type": "event"
    },
    {
      "anonymous": false,
      "inputs": [
        {
          "indexed": true,
          "internalType": "address",
          "name": "account",
          "type": "address"
        }
      ],
      "name": "MinterAdded",
      "type": "event"
    },
    {
      "anonymous": false,
      "inputs": [
        {
          "indexed": true,
          "internalType": "address",
          "name": "account",
          "type": "address"
        }
      ],
      "name": "MinterRemoved",
      "type": "event"
    },
    {
      "anonymous": false,
      "inputs": [
        {
          "indexed": true,
          "internalType": "address",
          "name": "previousOwner",
          "type": "address"
        },
        {
          "indexed": true,
          "internalType": "address",
          "name": "newOwner",
          "type": "address"
        }
      ],
      "name": "OwnershipTransferred",
      "type": "event"
    },
    {
      "anonymous": false,
      "inputs": [
        {
          "indexed": true,
          "internalType": "address",
          "name": "_from",
          "type": "address"
        },
        {
          "indexed": true,
          "internalType": "address",
          "name": "_to",
          "type": "address"
        },
        {
          "indexed": true,
          "internalType": "uint256",
          "name": "_tokenId",
          "type": "uint256"
        }
      ],
      "name": "Transfer",
      "type": "event"
    },
    {
      "anonymous": false,
      "inputs": [
        {
          "indexed": true,
          "internalType": "address",
          "name": "_operator",
          "type": "address"
        },
        {
          "indexed": true,
          "internalType": "address",
          "name": "_from",
          "type": "address"
        },
        {
          "indexed": true,
          "internalType": "address",
          "name": "_to",
          "type": "address"
        },
        {
          "indexed": false,
          "internalType": "uint256[]",
          "name": "_ids",
          "type": "uint256[]"
        },
        {
          "indexed": false,
          "internalType": "uint256[]",
          "name": "_values",
          "type": "uint256[]"
        }
      ],
      "name": "TransferBatch",
      "type": "event"
    },
    {
      "anonymous": false,
      "inputs": [
        {
          "indexed": true,
          "internalType": "address",
          "name": "_operator",
          "type": "address"
        },
        {
          "indexed": true,
          "internalType": "address",
          "name": "_from",
          "type": "address"
        },
        {
          "indexed": true,
          "internalType": "address",
          "name": "_to",
          "type": "address"
        },
        {
          "indexed": false,
          "internalType": "uint256",
          "name": "_id",
          "type": "uint256"
        },
        {
          "indexed": false,
          "internalType": "uint256",
          "name": "_value",
          "type": "uint256"
        }
      ],
      "name": "TransferSingle",
      "type": "event"
    },
    {
      "anonymous": false,
      "inputs": [
        {
          "indexed": false,
          "internalType": "string",
          "name": "_value",
          "type": "string"
        },
        {
          "indexed": true,
          "internalType": "uint256",
          "name": "_id",
          "type": "uint256"
        }
      ],
      "name": "URI",
      "type": "event"
    },
    {
      "inputs": [
        {
          "internalType": "address",
          "name": "account",
          "type": "address"
        }
      ],
      "name": "addMinter",
      "outputs": [],
      "stateMutability": "nonpayable",
      "type": "function"
    },
    {
      "inputs": [
        {
          "internalType": "address",
          "name": "to",
          "type": "address"
        },
        {
          "internalType": "uint256",
          "name": "tokenId",
          "type": "uint256"
        }
      ],
      "name": "approve",
      "outputs": [],
      "stateMutability": "nonpayable",
      "type": "function"
    },
    {
      "inputs": [
        {
          "internalType": "address",
          "name": "owner",
          "type": "address"
        },
        {
          "internalType": "uint256",
          "name": "id",
          "type": "uint256"
        }
      ],
      "name": "balanceOf",
      "outputs": [
        {
          "internalType": "uint256",
          "name": "",
          "type": "uint256"
        }
      ],
      "stateMutability": "view",
      "type": "function"
    },
    {
      "inputs": [
        {
          "internalType": "address",
          "name": "tokenOwner",
          "type": "address"
        }
      ],
      "name": "balanceOf",
      "outputs": [
        {
          "internalType": "uint256",
          "name": "",
          "type": "uint256"
        }
      ],
      "stateMutability": "view",
      "type": "function"
    },
    {
      "inputs": [
        {
          "internalType": "address[]",
          "name": "owners",
          "type": "address[]"
        },
        {
          "internalType": "uint256[]",
          "name": "ids",
          "type": "uint256[]"
        }
      ],
      "name": "balanceOfBatch",
      "outputs": [
        {
          "internalType": "uint256[]",
          "name": "",
          "type": "uint256[]"
        }
      ],
      "stateMutability": "view",
      "type": "function"
    },
    {
      "inputs": [],
      "name": "baseMetadataURI",
      "outputs": [
        {
          "internalType": "string",
          "name": "",
          "type": "string"
        }
      ],
      "stateMutability": "view",
      "type": "function"
    },
    {
      "inputs": [
        {
          "internalType": "address",
          "name": "from",
          "type": "address"
        },
        {
          "internalType": "uint256[]",
          "name": "ids",
          "type": "uint256[]"
        },
        {
          "internalType": "uint256[]",
          "name": "values",
          "type": "uint256[]"
        }
      ],
      "name": "batchBurnFrom",
      "outputs": [],
      "stateMutability": "nonpayable",
      "type": "function"
    },
    {
      "inputs": [
        {
          "internalType": "address",
          "name": "from",
          "type": "address"
        },
        {
          "internalType": "uint256[]",
          "name": "nftIds",
          "type": "uint256[]"
        }
      ],
      "name": "batchBurnFrom",
      "outputs": [],
      "stateMutability": "nonpayable",
      "type": "function"
    },
    {
      "inputs": [
        {
          "internalType": "address",
          "name": "to",
          "type": "address"
        },
        {
          "internalType": "uint256[]",
          "name": "nftIds",
          "type": "uint256[]"
        }
      ],
      "name": "batchMint",
      "outputs": [],
      "stateMutability": "nonpayable",
      "type": "function"
    },
    {
      "inputs": [
        {
          "internalType": "address",
          "name": "from",
          "type": "address"
        },
        {
          "internalType": "address",
          "name": "to",
          "type": "address"
        },
        {
          "internalType": "uint256[]",
          "name": "nftIds",
          "type": "uint256[]"
        }
      ],
      "name": "batchTransferFrom",
      "outputs": [],
      "stateMutability": "nonpayable",
      "type": "function"
    },
    {
      "inputs": [
        {
          "internalType": "address",
          "name": "from",
          "type": "address"
        },
        {
          "internalType": "uint256",
          "name": "id",
          "type": "uint256"
        },
        {
          "internalType": "uint256",
          "name": "value",
          "type": "uint256"
        }
      ],
      "name": "burnFrom",
      "outputs": [],
      "stateMutability": "nonpayable",
      "type": "function"
    },
    {
      "inputs": [
        {
          "internalType": "uint256",
          "name": "nftId",
          "type": "uint256"
        }
      ],
      "name": "collectionOf",
      "outputs": [
        {
          "internalType": "uint256",
          "name": "",
          "type": "uint256"
        }
      ],
      "stateMutability": "pure",
      "type": "function"
    },
    {
      "inputs": [
        {
          "internalType": "uint256",
          "name": "collectionId",
          "type": "uint256"
        }
      ],
      "name": "createCollection",
      "outputs": [],
      "stateMutability": "nonpayable",
      "type": "function"
    },
    {
      "inputs": [
        {
          "internalType": "uint256",
          "name": "collectionId",
          "type": "uint256"
        }
      ],
      "name": "creator",
      "outputs": [
        {
          "internalType": "address",
          "name": "",
          "type": "address"
        }
      ],
      "stateMutability": "view",
      "type": "function"
    },
    {
      "inputs": [
        {
          "internalType": "uint256",
          "name": "tokenId",
          "type": "uint256"
        }
      ],
      "name": "getApproved",
      "outputs": [
        {
          "internalType": "address",
          "name": "",
          "type": "address"
        }
      ],
      "stateMutability": "view",
      "type": "function"
    },
    {
      "inputs": [
        {
          "internalType": "address",
          "name": "tokenOwner",
          "type": "address"
        },
        {
          "internalType": "address",
          "name": "operator",
          "type": "address"
        }
      ],
      "name": "isApprovedForAll",
      "outputs": [
        {
          "internalType": "bool",
          "name": "",
          "type": "bool"
        }
      ],
      "stateMutability": "view",
      "type": "function"
    },
    {
      "inputs": [
        {
          "internalType": "uint256",
          "name": "id",
          "type": "uint256"
        }
      ],
      "name": "isFungible",
      "outputs": [
        {
          "internalType": "bool",
          "name": "",
          "type": "bool"
        }
      ],
      "stateMutability": "pure",
      "type": "function"
    },
    {
      "inputs": [
        {
          "internalType": "address",
          "name": "",
          "type": "address"
        }
      ],
      "name": "isMinter",
      "outputs": [
        {
          "internalType": "bool",
          "name": "",
          "type": "bool"
        }
      ],
      "stateMutability": "view",
      "type": "function"
    },
    {
      "inputs": [
        {
          "internalType": "address",
          "name": "forwarder",
          "type": "address"
        }
      ],
      "name": "isTrustedForwarder",
      "outputs": [
        {
          "internalType": "bool",
          "name": "",
          "type": "bool"
        }
      ],
      "stateMutability": "view",
      "type": "function"
    },
    {
      "inputs": [
        {
          "internalType": "address",
          "name": "to",
          "type": "address"
        },
        {
          "internalType": "uint256",
          "name": "nftId",
          "type": "uint256"
        }
      ],
      "name": "mint",
      "outputs": [],
      "stateMutability": "nonpayable",
      "type": "function"
    },
    {
      "inputs": [],
      "name": "msgData",
      "outputs": [
        {
          "internalType": "bytes",
          "name": "ret",
          "type": "bytes"
        }
      ],
      "stateMutability": "view",
      "type": "function"
    },
    {
      "inputs": [],
      "name": "name",
      "outputs": [
        {
          "internalType": "string",
          "name": "",
          "type": "string"
        }
      ],
      "stateMutability": "view",
      "type": "function"
    },
    {
      "inputs": [],
      "name": "owner",
      "outputs": [
        {
          "internalType": "address",
          "name": "",
          "type": "address"
        }
      ],
      "stateMutability": "view",
      "type": "function"
    },
    {
      "inputs": [
        {
          "internalType": "uint256",
          "name": "nftId",
          "type": "uint256"
        }
      ],
      "name": "ownerOf",
      "outputs": [
        {
          "internalType": "address",
          "name": "",
          "type": "address"
        }
      ],
      "stateMutability": "view",
      "type": "function"
    },
    {
      "inputs": [
        {
          "internalType": "address[]",
          "name": "accounts",
          "type": "address[]"
        },
        {
          "internalType": "address[]",
          "name": "tokens",
          "type": "address[]"
        },
        {
          "internalType": "uint256[]",
          "name": "amounts",
          "type": "uint256[]"
        }
      ],
      "name": "recoverERC20s",
      "outputs": [],
      "stateMutability": "nonpayable",
      "type": "function"
    },
    {
      "inputs": [
        {
          "internalType": "address[]",
          "name": "accounts",
          "type": "address[]"
        },
        {
          "internalType": "address[]",
          "name": "contracts",
          "type": "address[]"
        },
        {
          "internalType": "uint256[]",
          "name": "tokenIds",
          "type": "uint256[]"
        }
      ],
      "name": "recoverERC721s",
      "outputs": [],
      "stateMutability": "nonpayable",
      "type": "function"
    },
    {
      "inputs": [],
      "name": "renounceMinter",
      "outputs": [],
      "stateMutability": "nonpayable",
      "type": "function"
    },
    {
      "inputs": [
        {
          "internalType": "address",
          "name": "to",
          "type": "address"
        },
        {
          "internalType": "uint256[]",
          "name": "ids",
          "type": "uint256[]"
        },
        {
          "internalType": "uint256[]",
          "name": "values",
          "type": "uint256[]"
        },
        {
          "internalType": "bytes",
          "name": "data",
          "type": "bytes"
        }
      ],
      "name": "safeBatchMint",
      "outputs": [],
      "stateMutability": "nonpayable",
      "type": "function"
    },
    {
      "inputs": [
        {
          "internalType": "address",
          "name": "from",
          "type": "address"
        },
        {
          "internalType": "address",
          "name": "to",
          "type": "address"
        },
        {
          "internalType": "uint256[]",
          "name": "ids",
          "type": "uint256[]"
        },
        {
          "internalType": "uint256[]",
          "name": "values",
          "type": "uint256[]"
        },
        {
          "internalType": "bytes",
          "name": "data",
          "type": "bytes"
        }
      ],
      "name": "safeBatchTransferFrom",
      "outputs": [],
      "stateMutability": "nonpayable",
      "type": "function"
    },
    {
      "inputs": [
        {
          "internalType": "address[]",
          "name": "recipients",
          "type": "address[]"
        },
        {
          "internalType": "uint256[]",
          "name": "ids",
          "type": "uint256[]"
        },
        {
          "internalType": "uint256[]",
          "name": "values",
          "type": "uint256[]"
        },
        {
          "internalType": "bytes",
          "name": "data",
          "type": "bytes"
        }
      ],
      "name": "safeDeliver",
      "outputs": [],
      "stateMutability": "nonpayable",
      "type": "function"
    },
    {
      "inputs": [
        {
          "internalType": "address",
          "name": "to",
          "type": "address"
        },
        {
          "internalType": "uint256",
          "name": "id",
          "type": "uint256"
        },
        {
          "internalType": "uint256",
          "name": "value",
          "type": "uint256"
        },
        {
          "internalType": "bytes",
          "name": "data",
          "type": "bytes"
        }
      ],
      "name": "safeMint",
      "outputs": [],
      "stateMutability": "nonpayable",
      "type": "function"
    },
    {
      "inputs": [
        {
          "internalType": "address",
          "name": "to",
          "type": "address"
        },
        {
          "internalType": "uint256",
          "name": "nftId",
          "type": "uint256"
        },
        {
          "internalType": "bytes",
          "name": "data",
          "type": "bytes"
        }
      ],
      "name": "safeMint",
      "outputs": [],
      "stateMutability": "nonpayable",
      "type": "function"
    },
    {
      "inputs": [
        {
          "internalType": "address",
          "name": "from",
          "type": "address"
        },
        {
          "internalType": "address",
          "name": "to",
          "type": "address"
        },
        {
          "internalType": "uint256",
          "name": "nftId",
          "type": "uint256"
        }
      ],
      "name": "safeTransferFrom",
      "outputs": [],
      "stateMutability": "nonpayable",
      "type": "function"
    },
    {
      "inputs": [
        {
          "internalType": "address",
          "name": "from",
          "type": "address"
        },
        {
          "internalType": "address",
          "name": "to",
          "type": "address"
        },
        {
          "internalType": "uint256",
          "name": "nftId",
          "type": "uint256"
        },
        {
          "internalType": "bytes",
          "name": "data",
          "type": "bytes"
        }
      ],
      "name": "safeTransferFrom",
      "outputs": [],
      "stateMutability": "nonpayable",
      "type": "function"
    },
    {
      "inputs": [
        {
          "internalType": "address",
          "name": "from",
          "type": "address"
        },
        {
          "internalType": "address",
          "name": "to",
          "type": "address"
        },
        {
          "internalType": "uint256",
          "name": "id",
          "type": "uint256"
        },
        {
          "internalType": "uint256",
          "name": "value",
          "type": "uint256"
        },
        {
          "internalType": "bytes",
          "name": "data",
          "type": "bytes"
        }
      ],
      "name": "safeTransferFrom",
      "outputs": [],
      "stateMutability": "nonpayable",
      "type": "function"
    },
    {
      "inputs": [
        {
          "internalType": "address",
          "name": "operator",
          "type": "address"
        },
        {
          "internalType": "bool",
          "name": "approved",
          "type": "bool"
        }
      ],
      "name": "setApprovalForAll",
      "outputs": [],
      "stateMutability": "nonpayable",
      "type": "function"
    },
    {
      "inputs": [
        {
          "internalType": "string",
          "name": "baseMetadataURI_",
          "type": "string"
        }
      ],
      "name": "setBaseMetadataURI",
      "outputs": [],
      "stateMutability": "nonpayable",
      "type": "function"
    },
    {
      "inputs": [
        {
          "internalType": "bytes4",
          "name": "interfaceId",
          "type": "bytes4"
        }
      ],
      "name": "supportsInterface",
      "outputs": [
        {
          "internalType": "bool",
          "name": "",
          "type": "bool"
        }
      ],
      "stateMutability": "view",
      "type": "function"
    },
    {
      "inputs": [],
      "name": "symbol",
      "outputs": [
        {
          "internalType": "string",
          "name": "",
          "type": "string"
        }
      ],
      "stateMutability": "view",
      "type": "function"
    },
    {
      "inputs": [
        {
          "internalType": "uint256",
          "name": "nftId",
          "type": "uint256"
        }
      ],
      "name": "tokenURI",
      "outputs": [
        {
          "internalType": "string",
          "name": "",
          "type": "string"
        }
      ],
      "stateMutability": "view",
      "type": "function"
    },
    {
      "inputs": [
        {
          "internalType": "uint256",
          "name": "id",
          "type": "uint256"
        }
      ],
      "name": "totalSupply",
      "outputs": [
        {
          "internalType": "uint256",
          "name": "",
          "type": "uint256"
        }
      ],
      "stateMutability": "view",
      "type": "function"
    },
    {
      "inputs": [
        {
          "internalType": "address",
          "name": "from",
          "type": "address"
        },
        {
          "internalType": "address",
          "name": "to",
          "type": "address"
        },
        {
          "internalType": "uint256",
          "name": "nftId",
          "type": "uint256"
        }
      ],
      "name": "transferFrom",
      "outputs": [],
      "stateMutability": "nonpayable",
      "type": "function"
    },
    {
      "inputs": [
        {
          "internalType": "address",
          "name": "newOwner",
          "type": "address"
        }
      ],
      "name": "transferOwnership",
      "outputs": [],
      "stateMutability": "nonpayable",
      "type": "function"
    },
    {
      "inputs": [
        {
          "internalType": "uint256",
          "name": "id",
          "type": "uint256"
        }
      ],
      "name": "uri",
      "outputs": [
        {
          "internalType": "string",
          "name": "",
          "type": "string"
        }
      ],
      "stateMutability": "view",
      "type": "function"
    }
  ],
  "bytecode": "0x60c06040523480156200001157600080fd5b50604051620060d0380380620060d0833981810160405260408110156200003757600080fd5b508051602091820151604080518082018252601f81527f45524331313535373231496e76656e746f72794275726e61626c654d6f636b008186015281518083018352600481526324a72b2160e11b95810195909552600080546001600160a01b0319163390811782559251949593949293919286918691869182917f8be0079c531659141344cd1fd0a4f28419497f9722a3daafe3b4186f6b6457e0908290a3506001600160601b0319606091821b811660a05291901b1660805281516200010790600690602085019062000186565b5080516200011d90600790602084019062000186565b50505062000131816200013a60201b60201c565b50505062000232565b6001600160a01b0381166000818152600b6020526040808220805460ff19166001179055517f6ae172837ea30b801fbfcdd4108aa1d5bf8ff775444fd70256b44e6bf3dfc3f69190a250565b828054600181600116156101000203166002900490600052602060002090601f016020900481019282620001be576000855562000209565b82601f10620001d957805160ff191683800117855562000209565b8280016001018555821562000209579182015b8281111562000209578251825591602001919060010190620001ec565b50620002179291506200021b565b5090565b5b808211156200021757600081556001016200021c565b60805160601c60a05160601c615e566200027a60003980611d3452806153225280615b04525080611d6f52806152e7528061537a5280615ada5280615b655250615e566000f3fe608060405234801561001057600080fd5b50600436106102f35760003560e01c80638053493411610191578063c3666c36116100e3578063e8ab9ccc11610097578063f247296511610071578063f247296514611377578063f2fde38b1461142a578063f3993d1114611450576102f3565b8063e8ab9ccc14611118578063e985e9c51461127e578063f242432a146112ac576102f3565b8063c7778baa116100c8578063c7778baa146110c1578063c87b56dd146110de578063d0011d9d146110fb576102f3565b8063c3666c3614610fa5578063c4c2bfdc146110b9576102f3565b80639865027511610145578063adebf6f21161011f578063adebf6f214610ea5578063b88d4fde14610ec2578063bd85b03914610f88576102f3565b80639865027514610e49578063a22cb46514610e51578063aa271e1a14610e7f576102f3565b80638da5cb5b116101765780638da5cb5b14610e1357806395d89b4114610e1b578063983b2d5614610e23576102f3565b80638053493414610c575780638832e6e314610d8e576102f3565b806342842e0e1161024a5780635b2bd79e116101fe57806370a08231116101d857806370a0823114610aad57806373c8a95814610ad35780637e518ec814610be7576102f3565b80635b2bd79e146109fc5780635cfa929714610a045780636352211e14610a90576102f3565b80634e1273f41161022f5780634e1273f4146108a7578063510b5158146109b9578063572b6c05146109d6576102f3565b806342842e0e146107f15780634684d7e914610827576102f3565b80630d6a5bbb116102ac57806323b872dd1161028657806323b872dd146105c85780632eb2c2d6146105fe57806340c10f19146107c5576102f3565b80630d6a5bbb146104555780630e89341c14610579578063124d91e514610596576102f3565b806306fdde03116102dd57806306fdde0314610371578063081812fc146103ee578063095ea7b314610427576102f3565b8062fdd58e146102f857806301ffc9a714610336575b600080fd5b6103246004803603604081101561030e57600080fd5b506001600160a01b03813516906020013561150c565b60408051918252519081900360200190f35b61035d6004803603602081101561034c57600080fd5b50356001600160e01b0319166115d7565b604080519115158252519081900360200190f35b61037961161d565b6040805160208082528351818301528351919283929083019185019080838360005b838110156103b357818101518382015260200161039b565b50505050905090810190601f1680156103e05780820380516001836020036101000a031916815260200191505b509250505060405180910390f35b61040b6004803603602081101561040457600080fd5b50356116b4565b604080516001600160a01b039092168252519081900360200190f35b6104536004803603604081101561043d57600080fd5b506001600160a01b038135169060200135611753565b005b6104536004803603608081101561046b57600080fd5b6001600160a01b03823516919081019060408101602082013564010000000081111561049657600080fd5b8201836020820111156104a857600080fd5b803590602001918460208302840111640100000000831117156104ca57600080fd5b9193909290916020810190356401000000008111156104e857600080fd5b8201836020820111156104fa57600080fd5b8035906020019184602083028401116401000000008311171561051c57600080fd5b91939092909160208101903564010000000081111561053a57600080fd5b82018360208201111561054c57600080fd5b8035906020019184600183028401116401000000008311171561056e57600080fd5b50909250905061194f565b6103796004803603602081101561058f57600080fd5b5035611a0a565b610453600480360360608110156105ac57600080fd5b506001600160a01b038135169060208101359060400135611a15565b610453600480360360608110156105de57600080fd5b506001600160a01b03813581169160208101359091169060400135611b59565b610453600480360360a081101561061457600080fd5b6001600160a01b03823581169260208101359091169181019060608101604082013564010000000081111561064857600080fd5b82018360208201111561065a57600080fd5b8035906020019184602083028401116401000000008311171561067c57600080fd5b91908080602002602001604051908101604052809392919081815260200183836020028082843760009201919091525092959493602081019350359150506401000000008111156106cc57600080fd5b8201836020820111156106de57600080fd5b8035906020019184602083028401116401000000008311171561070057600080fd5b919080806020026020016040519081016040528093929190818152602001838360200280828437600092019190915250929594936020810193503591505064010000000081111561075057600080fd5b82018360208201111561076257600080fd5b8035906020019184600183028401116401000000008311171561078457600080fd5b91908080601f016020809104026020016040519081016040528093929190818152602001838380828437600092019190915250929550611b7b945050505050565b610453600480360360408110156107db57600080fd5b506001600160a01b038135169060200135611b8f565b6104536004803603606081101561080757600080fd5b506001600160a01b03813581169160208101359091169060400135611bba565b6104536004803603604081101561083d57600080fd5b6001600160a01b03823516919081019060408101602082013564010000000081111561086857600080fd5b82018360208201111561087a57600080fd5b8035906020019184602083028401116401000000008311171561089c57600080fd5b509092509050611bd7565b610969600480360360408110156108bd57600080fd5b8101906020810181356401000000008111156108d857600080fd5b8201836020820111156108ea57600080fd5b8035906020019184602083028401116401000000008311171561090c57600080fd5b91939092909160208101903564010000000081111561092a57600080fd5b82018360208201111561093c57600080fd5b8035906020019184602083028401116401000000008311171561095e57600080fd5b509092509050611c1f565b60408051602080825283518183015283519192839290830191858101910280838360005b838110156109a557818101518382015260200161098d565b505050509050019250505060405180910390f35b61040b600480360360208110156109cf57600080fd5b5035611d25565b61035d600480360360208110156109ec57600080fd5b50356001600160a01b0316611d30565b610379611da9565b61045360048036036080811015610a1a57600080fd5b6001600160a01b038235169160208101359160408201359190810190608081016060820135640100000000811115610a5157600080fd5b820183602082011115610a6357600080fd5b80359060200191846001830284011164010000000083111715610a8557600080fd5b509092509050611e37565b61040b60048036036020811015610aa657600080fd5b5035611e84565b61032460048036036020811015610ac357600080fd5b50356001600160a01b0316611e8f565b61045360048036036060811015610ae957600080fd5b810190602081018135640100000000811115610b0457600080fd5b820183602082011115610b1657600080fd5b80359060200191846020830284011164010000000083111715610b3857600080fd5b919390929091602081019035640100000000811115610b5657600080fd5b820183602082011115610b6857600080fd5b80359060200191846020830284011164010000000083111715610b8a57600080fd5b919390929091602081019035640100000000811115610ba857600080fd5b820183602082011115610bba57600080fd5b80359060200191846020830284011164010000000083111715610bdc57600080fd5b509092509050611f08565b61045360048036036020811015610bfd57600080fd5b810190602081018135640100000000811115610c1857600080fd5b820183602082011115610c2a57600080fd5b80359060200191846001830284011164010000000083111715610c4c57600080fd5b509092509050611ffa565b61045360048036036060811015610c6d57600080fd5b6001600160a01b038235169190810190604081016020820135640100000000811115610c9857600080fd5b820183602082011115610caa57600080fd5b80359060200191846020830284011164010000000083111715610ccc57600080fd5b9190808060200260200160405190810160405280939291908181526020018383602002808284376000920191909152509295949360208101935035915050640100000000811115610d1c57600080fd5b820183602082011115610d2e57600080fd5b80359060200191846020830284011164010000000083111715610d5057600080fd5b919080806020026020016040519081016040528093929190818152602001838360200280828437600092019190915250929550612076945050505050565b61045360048036036060811015610da457600080fd5b6001600160a01b0382351691602081013591810190606081016040820135640100000000811115610dd457600080fd5b820183602082011115610de657600080fd5b80359060200191846001830284011164010000000083111715610e0857600080fd5b509092509050612313565b61040b612368565b610379612377565b61045360048036036020811015610e3957600080fd5b50356001600160a01b03166123d8565b6104536123ef565b61045360048036036040811015610e6757600080fd5b506001600160a01b038135169060200135151561244d565b61035d60048036036020811015610e9557600080fd5b50356001600160a01b0316612457565b61035d60048036036020811015610ebb57600080fd5b503561246c565b61045360048036036080811015610ed857600080fd5b6001600160a01b03823581169260208101359091169160408201359190810190608081016060820135640100000000811115610f1357600080fd5b820183602082011115610f2557600080fd5b80359060200191846001830284011164010000000083111715610f4757600080fd5b91908080601f016020809104026020016040519081016040528093929190818152602001838380828437600092019190915250929550612477945050505050565b61032460048036036020811015610f9e57600080fd5b5035612485565b61045360048036036060811015610fbb57600080fd5b810190602081018135640100000000811115610fd657600080fd5b820183602082011115610fe857600080fd5b8035906020019184602083028401116401000000008311171561100a57600080fd5b91939092909160208101903564010000000081111561102857600080fd5b82018360208201111561103a57600080fd5b8035906020019184602083028401116401000000008311171561105c57600080fd5b91939092909160208101903564010000000081111561107a57600080fd5b82018360208201111561108c57600080fd5b803590602001918460208302840111640100000000831117156110ae57600080fd5b5090925090506124db565b610379612623565b610324600480360360208110156110d757600080fd5b5035612632565b610379600480360360208110156110f457600080fd5b5035612697565b6104536004803603602081101561111157600080fd5b503561270c565b6104536004803603608081101561112e57600080fd5b81019060208101813564010000000081111561114957600080fd5b82018360208201111561115b57600080fd5b8035906020019184602083028401116401000000008311171561117d57600080fd5b91939092909160208101903564010000000081111561119b57600080fd5b8201836020820111156111ad57600080fd5b803590602001918460208302840111640100000000831117156111cf57600080fd5b9193909290916020810190356401000000008111156111ed57600080fd5b8201836020820111156111ff57600080fd5b8035906020019184602083028401116401000000008311171561122157600080fd5b91939092909160208101903564010000000081111561123f57600080fd5b82018360208201111561125157600080fd5b8035906020019184600183028401116401000000008311171561127357600080fd5b509092509050612720565b61035d6004803603604081101561129457600080fd5b506001600160a01b038135811691602001351661273b565b610453600480360360a08110156112c257600080fd5b6001600160a01b03823581169260208101359091169160408201359160608101359181019060a08101608082013564010000000081111561130257600080fd5b82018360208201111561131457600080fd5b8035906020019184600183028401116401000000008311171561133657600080fd5b91908080601f01602080910402602001604051908101604052809392919081815260200183838082843760009201919091525092955061274e945050505050565b6104536004803603604081101561138d57600080fd5b6001600160a01b0382351691908101906040810160208201356401000000008111156113b857600080fd5b8201836020820111156113ca57600080fd5b803590602001918460208302840111640100000000831117156113ec57600080fd5b9190808060200260200160405190810160405280939291908181526020018383602002808284376000920191909152509295506128c3945050505050565b6104536004803603602081101561144057600080fd5b50356001600160a01b0316612b21565b6104536004803603606081101561146657600080fd5b6001600160a01b03823581169260208101359091169181019060608101604082013564010000000081111561149a57600080fd5b8201836020820111156114ac57600080fd5b803590602001918460208302840111640100000000831117156114ce57600080fd5b919080806020026020016040519081016040528093929190818152602001838360200280828437600092019190915250929550612b87945050505050565b60006001600160a01b038316611569576040805162461bcd60e51b815260206004820152601760248201527f496e76656e746f72793a207a65726f2061646472657373000000000000000000604482015290519081900360640190fd5b61157282612e6f565b156115ac576000828152600460205260409020546001600160a01b0384811691161461159f5760006115a2565b60015b60ff1690506115d1565b5060008181526002602090815260408083206001600160a01b03861684529091529020545b92915050565b60006001600160e01b031982167f510b5158000000000000000000000000000000000000000000000000000000001480611615575061161582612ec1565b90505b919050565b60068054604080516020601f60026000196101006001881615020190951694909404938401819004810282018101909252828152606093909290918301828280156116a95780601f1061167e576101008083540402835291602001916116a9565b820191906000526020600020905b81548152906001019060200180831161168c57829003601f168201915b505050505090505b90565b6000818152600460205260408120546001600160a01b03811661171e576040805162461bcd60e51b815260206004820152601b60248201527f496e76656e746f72793a206e6f6e2d6578697374696e67204e46540000000000604482015290519081900360640190fd5b600160a01b8116156117495750506000818152600960205260409020546001600160a01b0316611618565b6000915050611618565b600081815260046020526040902054806117b4576040805162461bcd60e51b815260206004820152601b60248201527f496e76656e746f72793a206e6f6e2d6578697374696e67204e46540000000000604482015290519081900360640190fd5b806001600160a01b038481169082161415611816576040805162461bcd60e51b815260206004820152601860248201527f496e76656e746f72793a2073656c662d617070726f76616c0000000000000000604482015290519081900360640190fd5b61182781611822612eff565b612f09565b611878576040805162461bcd60e51b815260206004820152601e60248201527f496e76656e746f72793a206e6f6e2d617070726f7665642073656e6465720000604482015290519081900360640190fd5b6001600160a01b0384166118b257600160a01b8216156118ad5760008381526004602052604090206001600160a01b03821690555b611908565b600160a01b82178083146118d25760008481526004602052604090208190555b506000838152600960205260409020805473ffffffffffffffffffffffffffffffffffffffff19166001600160a01b0386161790555b82846001600160a01b0316826001600160a01b03167f8c5be1e5ebec7d5bd14f71427d1e84f3dd0314c0f7b2291e5b200ac8c7c3b92560405160405180910390a450505050565b61195f61195a612eff565b612f55565b611a018787878080602002602001604051908101604052809392919081815260200183836020028082843760009201919091525050604080516020808b0282810182019093528a82529093508a92508991829185019084908082843760009201919091525050604080516020601f8a018190048102820181019092528881529250889150879081908401838280828437600092019190915250612fc292505050565b50505050505050565b606061161582613323565b6000611a1f612eff565b90506000611a2d8583612f09565b9050611a38846133f6565b15611a4e57611a498585858461341c565b611af4565b611a5784612e6f565b15611aa757611a6a858585846000613578565b60405184906000906001600160a01b038816907fddf252ad1be2c89b69c2b068fc378daa952ba7f163c4a11628f55a4df523b3ef908390a4611af4565b6040805162461bcd60e51b815260206004820152601960248201527f496e76656e746f72793a206e6f74206120746f6b656e20696400000000000000604482015290519081900360640190fd5b60006001600160a01b0316856001600160a01b0316836001600160a01b03167fc3d58168c5ae7397731d063d5bbf3d657854427343f4c083240f7aacaa2d0f628787604051808381526020018281526020019250505060405180910390a45050505050565b611b76838383604051806020016040528060008152506000613740565b505050565b611b8885858585856138ae565b5050505050565b611b9a61195a612eff565b611bb68282604051806020016040528060008152506000613bc8565b5050565b611b76838383604051806020016040528060008152506001613740565b611be261195a612eff565b611b7683838380806020026020016040519081016040528093929190818152602001838360200280828437600092019190915250613d6c92505050565b6060838214611c75576040805162461bcd60e51b815260206004820152601e60248201527f496e76656e746f72793a20696e636f6e73697374656e74206172726179730000604482015290519081900360640190fd5b60008467ffffffffffffffff81118015611c8e57600080fd5b50604051908082528060200260200182016040528015611cb8578160200160208202803683370190505b50905060005b808614611d1b57611cfc878783818110611cd457fe5b905060200201356001600160a01b0316868684818110611cf057fe5b9050602002013561150c565b828281518110611d0857fe5b6020908102919091010152600101611cbe565b5095945050505050565b6000611615826140c3565b60007f00000000000000000000000000000000000000000000000000000000000000006001600160a01b0316826001600160a01b0316148061161557507f00000000000000000000000000000000000000000000000000000000000000006001600160a01b0316826001600160a01b0316149050919050565b600a805460408051602060026001851615610100026000190190941693909304601f81018490048402820184019092528181529291830182828015611e2f5780601f10611e0457610100808354040283529160200191611e2f565b820191906000526020600020905b815481529060010190602001808311611e1257829003601f168201915b505050505081565b611e4261195a612eff565b611b8885858585858080601f01602080910402602001604051908101604052809392919081815260200183838082843760009201919091525061413c92505050565b600061161582614287565b60006001600160a01b038216611eec576040805162461bcd60e51b815260206004820152601760248201527f496e76656e746f72793a207a65726f2061646472657373000000000000000000604482015290519081900360640190fd5b506001600160a01b031660009081526008602052604090205490565b611f18611f13612eff565b6142f1565b848381148015611f2757508082145b611f78576040805162461bcd60e51b815260206004820152601a60248201527f5265636f763a20696e636f6e73697374656e7420617272617973000000000000604482015290519081900360640190fd5b60005b818114611ff057611fe8888883818110611f9157fe5b905060200201356001600160a01b0316858584818110611fad57fe5b90506020020135888885818110611fc057fe5b905060200201356001600160a01b03166001600160a01b03166143b59092919063ffffffff16565b600101611f7b565b5050505050505050565b612005611f13612eff565b612011600a8383615d57565b507f04b1dc5c136a3ce9fded8db0ce3d3366c58764ec3a8e4c2b9e52e4ddfe5ebbf7828260405180806020018281038252848482818152602001925080828437600083820152604051601f909101601f19169092018290039550909350505050a15050565b8151815181146120cd576040805162461bcd60e51b815260206004820152601e60248201527f496e76656e746f72793a20696e636f6e73697374656e74206172726179730000604482015290519081900360640190fd5b60006120d7612eff565b905060006120e58683612f09565b90506000806000805b8681146121f857600089828151811061210357fe5b60200260200101519050612116816133f6565b1561213f5761213a8b828b858151811061212c57fe5b60200260200101518961341c565b6121ef565b61214881612e6f565b15611aa75761216e8b828b858151811061215e57fe5b6020026020010151896001613578565b60405181906000906001600160a01b038e16907fddf252ad1be2c89b69c2b068fc378daa952ba7f163c4a11628f55a4df523b3ef908390a460006121b182614435565b9050856121c457809550600194506121ed565b8581146121e6576121d68c8787614442565b94506001939290920191846121ed565b8460010194505b505b506001016120ee565b50821561222e5761220a898484614442565b6001600160a01b038916600090815260086020526040902080549183019182900390555b60006001600160a01b0316896001600160a01b0316866001600160a01b03167f4a39dc06d4c0dbc64b70af90fd698a233a518aa5d07e595d983b8c0526c8f7fb8b8b604051808060200180602001838103835285818151815260200191508051906020019060200280838360005b838110156122b457818101518382015260200161229c565b50505050905001838103825284818151815260200191508051906020019060200280838360005b838110156122f35781810151838201526020016122db565b5050505090500194505050505060405180910390a4505050505050505050565b61231e61195a612eff565b612362848484848080601f01602080910402602001604051908101604052809392919081815260200183838082843760009201919091525060019250613bc8915050565b50505050565b6000546001600160a01b031690565b60078054604080516020601f60026000196101006001881615020190951694909404938401819004810282018101909252828152606093909290918301828280156116a95780601f1061167e576101008083540402835291602001916116a9565b6123e3611f13612eff565b6123ec81614482565b50565b60006123f9612eff565b905061240481612f55565b6001600160a01b0381166000818152600b6020526040808220805460ff19169055517fe94479a9f7e1952cc78f2d6baab678adc1b772d936c6583def489e524cb666929190a250565b611bb682826144ce565b600b6020526000908152604090205460ff1681565b6000611615826133f6565b612362848484846001613740565b600061249082612e6f565b156124c6576000828152600460205260409020546001600160a01b0316156124b95760016124bc565b60005b60ff169050611618565b50600081815260036020526040902054611618565b6124e6611f13612eff565b8483811480156124f557508082145b612546576040805162461bcd60e51b815260206004820152601a60248201527f5265636f763a20696e636f6e73697374656e7420617272617973000000000000604482015290519081900360640190fd5b60005b818114611ff05785858281811061255c57fe5b905060200201356001600160a01b03166001600160a01b03166323b872dd308a8a8581811061258757fe5b905060200201356001600160a01b03168787868181106125a357fe5b905060200201356040518463ffffffff1660e01b815260040180846001600160a01b03168152602001836001600160a01b031681526020018281526020019350505050600060405180830381600087803b15801561260057600080fd5b505af1158015612614573d6000803e3d6000fd5b50505050806001019050612549565b606061262d6145af565b905090565b600061263d82612e6f565b61268e576040805162461bcd60e51b815260206004820152601560248201527f496e76656e746f72793a206e6f7420616e204e46540000000000000000000000604482015290519081900360640190fd5b61161582614435565b6000818152600460205260409020546060906001600160a01b0316612703576040805162461bcd60e51b815260206004820152601b60248201527f496e76656e746f72793a206e6f6e2d6578697374696e67204e46540000000000604482015290519081900360640190fd5b61161582611a0a565b612717611f13612eff565b6123ec816145f3565b61272b61195a612eff565b611ff08888888888888888614734565b60006127478383614a86565b9392505050565b6000612758612eff565b90506001600160a01b0385166127b5576040805162461bcd60e51b815260206004820152601b60248201527f496e76656e746f72793a207472616e7366657220746f207a65726f0000000000604482015290519081900360640190fd5b60006127c18783612f09565b90506127cc856133f6565b156127e3576127de8787878785614ab4565b612842565b6127ec85612e6f565b15611aa75761280087878787856000614c27565b84866001600160a01b0316886001600160a01b03167fddf252ad1be2c89b69c2b068fc378daa952ba7f163c4a11628f55a4df523b3ef60405160405180910390a45b856001600160a01b0316876001600160a01b0316836001600160a01b03167fc3d58168c5ae7397731d063d5bbf3d657854427343f4c083240f7aacaa2d0f628888604051808381526020018281526020019250505060405180910390a46128b1866001600160a01b0316614dbc565b15611a0157611a018787878787614dc2565b60006128cd612eff565b905060006128db8483612f09565b835190915060008167ffffffffffffffff811180156128f957600080fd5b50604051908082528060200260200182016040528015612923578160200160208202803683370190505b50905060008060005b848114612a0b57600088828151811061294157fe5b60200260200101519050600185838151811061295957fe5b6020026020010181815250506129868a8287858151811061297657fe5b60200260200101518a6001613578565b60405181906000906001600160a01b038d16907fddf252ad1be2c89b69c2b068fc378daa952ba7f163c4a11628f55a4df523b3ef908390a460006129c982614435565b9050846129dc5780945060019350612a01565b8481146129fa576129ee8b8686614442565b80945060019350612a01565b8360010193505b505060010161292c565b508115612a3d57612a1d888383614442565b6001600160a01b0388166000908152600860205260409020805485900390555b60006001600160a01b0316886001600160a01b0316876001600160a01b03167f4a39dc06d4c0dbc64b70af90fd698a233a518aa5d07e595d983b8c0526c8f7fb8a87604051808060200180602001838103835285818151815260200191508051906020019060200280838360005b83811015612ac3578181015183820152602001612aab565b50505050905001838103825284818151815260200191508051906020019060200280838360005b83811015612b02578181015183820152602001612aea565b5050505090500194505050505060405180910390a45050505050505050565b612b2c611f13612eff565b6000805473ffffffffffffffffffffffffffffffffffffffff19166001600160a01b0383811691821780845560405192939116917f8be0079c531659141344cd1fd0a4f28419497f9722a3daafe3b4186f6b6457e09190a350565b6001600160a01b038216612be2576040805162461bcd60e51b815260206004820152601b60248201527f496e76656e746f72793a207472616e7366657220746f207a65726f0000000000604482015290519081900360640190fd5b6000612bec612eff565b90506000612bfa8583612f09565b835190915060008167ffffffffffffffff81118015612c1857600080fd5b50604051908082528060200260200182016040528015612c42578160200160208202803683370190505b50905060008060005b848114612d23576000888281518110612c6057fe5b602002602001015190506001858381518110612c7857fe5b602002602001018181525050612c948b8b8360018b6001614c27565b808a6001600160a01b03168c6001600160a01b03167fddf252ad1be2c89b69c2b068fc378daa952ba7f163c4a11628f55a4df523b3ef60405160405180910390a46000612ce082614435565b905084612cf35780945060019350612d19565b848114612d1257612d068c8c8787614f4c565b80945060019350612d19565b8360010193505b5050600101612c4b565b508115612d4157612d3689898484614f4c565b612d41898986614fa0565b876001600160a01b0316896001600160a01b0316612d5d612eff565b6001600160a01b03167f4a39dc06d4c0dbc64b70af90fd698a233a518aa5d07e595d983b8c0526c8f7fb8a87604051808060200180602001838103835285818151815260200191508051906020019060200280838360005b83811015612dcd578181015183820152602001612db5565b50505050905001838103825284818151815260200191508051906020019060200280838360005b83811015612e0c578181015183820152602001612df4565b5050505090500194505050505060405180910390a4612e33886001600160a01b0316614dbc565b8015612e435750612e4388614feb565b15612e6457612e6489898986604051806020016040528060008152506150b3565b505050505050505050565b60007f80000000000000000000000000000000000000000000000000000000000000008216158015906116155750507bffffffffffffffffffffffffffffffffffffffffffffffffffffffff16151590565b60006001600160e01b031982167f6059f1b4000000000000000000000000000000000000000000000000000000001480611615575061161582615231565b600061262d6152d7565b6000816001600160a01b0316836001600160a01b031614806127475750506001600160a01b03918216600090815260016020908152604080832093909416825291909152205460ff1690565b6001600160a01b0381166000908152600b602052604090205460ff166123ec576040805162461bcd60e51b815260206004820152601860248201527f4d696e746572526f6c653a206e6f742061204d696e7465720000000000000000604482015290519081900360640190fd5b6001600160a01b03841661301d576040805162461bcd60e51b815260206004820152601760248201527f496e76656e746f72793a206d696e7420746f207a65726f000000000000000000604482015290519081900360640190fd5b825182518114613074576040805162461bcd60e51b815260206004820152601e60248201527f496e76656e746f72793a20696e636f6e73697374656e74206172726179730000604482015290519081900360640190fd5b6000806000805b8481146131d157600088828151811061309057fe5b6020026020010151905060008883815181106130a857fe5b602002602001015190506130bb826133f6565b156130d0576130cb8b8383615437565b6131c7565b6130d982612e6f565b15611aa7576130eb8b83836001615529565b60405182906001600160a01b038d16906000907fddf252ad1be2c89b69c2b068fc378daa952ba7f163c4a11628f55a4df523b3ef908290a4600061312e83614435565b90508661314157809650600195506131c5565b8681146131be57856002600089815260200190815260200160002060008e6001600160a01b03166001600160a01b03168152602001908152602001600020600082825401925050819055508560036000898152602001908152602001600020600082825401925050819055508096508585019450600195506131c5565b8560010195505b505b505060010161307b565b5082156132265760008381526002602090815260408083206001600160a01b038c1680855290835281842080548701905586845260038352818420805487019055835260089091529020805491830191820190555b6001600160a01b038816600061323a612eff565b6001600160a01b03167f4a39dc06d4c0dbc64b70af90fd698a233a518aa5d07e595d983b8c0526c8f7fb8a8a604051808060200180602001838103835285818151815260200191508051906020019060200280838360005b838110156132aa578181015183820152602001613292565b50505050905001838103825284818151815260200191508051906020019060200280838360005b838110156132e95781810151838201526020016132d1565b5050505090500194505050505060405180910390a4613310886001600160a01b0316614dbc565b15611ff057611ff06000898989896150b3565b6060600a61333083615658565b604051602001808380546001816001161561010002031660029004801561338e5780601f1061336c57610100808354040283529182019161338e565b820191906000526020600020905b81548152906001019060200180831161337a575b5050825160208401908083835b602083106133ba5780518252601f19909201916020918201910161339b565b6001836020036101000a038019825116818451168082178552505050505050905001925050506040516020818303038152906040529050919050565b7f8000000000000000000000000000000000000000000000000000000000000000161590565b8161346e576040805162461bcd60e51b815260206004820152601560248201527f496e76656e746f72793a207a65726f2076616c75650000000000000000000000604482015290519081900360640190fd5b806134c0576040805162461bcd60e51b815260206004820152601e60248201527f496e76656e746f72793a206e6f6e2d617070726f7665642073656e6465720000604482015290519081900360640190fd5b60008381526002602090815260408083206001600160a01b038816845290915290205482811015613538576040805162461bcd60e51b815260206004820152601d60248201527f496e76656e746f72793a206e6f7420656e6f7567682062616c616e6365000000604482015290519081900360640190fd5b60008481526002602090815260408083206001600160a01b0390981683529681528682209285900390925593845260039052509190208054919091039055565b826001146135cd576040805162461bcd60e51b815260206004820152601a60248201527f496e76656e746f72793a2077726f6e67204e46542076616c7565000000000000604482015290519081900360640190fd5b6000848152600460205260409020546001600160a01b038681169082161461363c576040805162461bcd60e51b815260206004820152601860248201527f496e76656e746f72793a206e6f6e2d6f776e6564204e46540000000000000000604482015290519081900360640190fd5b826136cd57600160a01b81161580159061367c57506000858152600960205260409020546001600160a01b0316613671612eff565b6001600160a01b0316145b6136cd576040805162461bcd60e51b815260206004820152601e60248201527f496e76656e746f72793a206e6f6e2d617070726f7665642073656e6465720000604482015290519081900360640190fd5b60008581526004602052604090207fdead000000000000000000000000000000000000000000000000000000000000905581613738576137178661371087614435565b6001614442565b6001600160a01b038616600090815260086020526040902080546000190190555b505050505050565b6001600160a01b03841661379b576040805162461bcd60e51b815260206004820152601b60248201527f496e76656e746f72793a207472616e7366657220746f207a65726f0000000000604482015290519081900360640190fd5b60006137a5612eff565b905060006137b38783612f09565b90506137c58787876001856000614c27565b84866001600160a01b0316886001600160a01b03167fddf252ad1be2c89b69c2b068fc378daa952ba7f163c4a11628f55a4df523b3ef60405160405180910390a4856001600160a01b0316876001600160a01b0316836001600160a01b03167fc3d58168c5ae7397731d063d5bbf3d657854427343f4c083240f7aacaa2d0f62886001604051808381526020018281526020019250505060405180910390a4613876866001600160a01b0316614dbc565b15611a015761388486614feb565b1561389c57613897878787600188614dc2565b611a01565b8215611a0157611a0187878787615767565b6001600160a01b038416613909576040805162461bcd60e51b815260206004820152601b60248201527f496e76656e746f72793a207472616e7366657220746f207a65726f0000000000604482015290519081900360640190fd5b825182518114613960576040805162461bcd60e51b815260206004820152601e60248201527f496e76656e746f72793a20696e636f6e73697374656e74206172726179730000604482015290519081900360640190fd5b600061396a612eff565b905060006139788883612f09565b90506000806000805b868114613a975760008a828151811061399657fe5b602002602001015190506139a9816133f6565b156139d3576139ce8d8d838d86815181106139c057fe5b60200260200101518a614ab4565b613a8e565b6139dc81612e6f565b15611aa757613a038d8d838d86815181106139f357fe5b60200260200101518a6001614c27565b808c6001600160a01b03168e6001600160a01b03167fddf252ad1be2c89b69c2b068fc378daa952ba7f163c4a11628f55a4df523b3ef60405160405180910390a46000613a4f82614435565b905085613a625780955060019450613a8c565b858114613a8557613a758e8e8888614f4c565b9450600193929092019184613a8c565b8460010194505b505b50600101613981565b508215613ab757613aaa8b8b8585614f4c565b8101613ab78b8b83614fa0565b896001600160a01b03168b6001600160a01b0316613ad3612eff565b6001600160a01b03167f4a39dc06d4c0dbc64b70af90fd698a233a518aa5d07e595d983b8c0526c8f7fb8c8c604051808060200180602001838103835285818151815260200191508051906020019060200280838360005b83811015613b43578181015183820152602001613b2b565b50505050905001838103825284818151815260200191508051906020019060200280838360005b83811015613b82578181015183820152602001613b6a565b5050505090500194505050505060405180910390a4613ba98a6001600160a01b0316614dbc565b15613bbb57613bbb8b8b8b8b8b6150b3565b5050505050505050505050565b6001600160a01b038416613c23576040805162461bcd60e51b815260206004820152601760248201527f496e76656e746f72793a206d696e7420746f207a65726f000000000000000000604482015290519081900360640190fd5b613c2c83612e6f565b613c7d576040805162461bcd60e51b815260206004820152601560248201527f496e76656e746f72793a206e6f7420616e204e46540000000000000000000000604482015290519081900360640190fd5b613c8b848460016000615529565b60405183906001600160a01b038616906000907fddf252ad1be2c89b69c2b068fc378daa952ba7f163c4a11628f55a4df523b3ef908290a46001600160a01b0384166000613cd7612eff565b6001600160a01b03167fc3d58168c5ae7397731d063d5bbf3d657854427343f4c083240f7aacaa2d0f62866001604051808381526020018281526020019250505060405180910390a4613d32846001600160a01b0316614dbc565b1561236257613d4084614feb565b15613d5957613d5460008585600186614dc2565b612362565b8015612362576123626000858585615767565b6001600160a01b038216613dc7576040805162461bcd60e51b815260206004820152601760248201527f496e76656e746f72793a206d696e7420746f207a65726f000000000000000000604482015290519081900360640190fd5b805160008167ffffffffffffffff81118015613de257600080fd5b50604051908082528060200260200182016040528015613e0c578160200160208202803683370190505b50905060008060005b848114613f67576000868281518110613e2a57fe5b60200260200101519050613e3d81612e6f565b613e8e576040805162461bcd60e51b815260206004820152601560248201527f496e76656e746f72793a206e6f7420616e204e46540000000000000000000000604482015290519081900360640190fd5b6001858381518110613e9c57fe5b602002602001018181525050613eb58882600180615529565b60405181906001600160a01b038a16906000907fddf252ad1be2c89b69c2b068fc378daa952ba7f163c4a11628f55a4df523b3ef908290a46000613ef882614435565b905084613f0b5780945060019350613f5d565b848114613f565760008581526002602090815260408083206001600160a01b038d16845282528083208054880190559682526003905294909420805490930190925560019183613f5d565b8360010193505b5050600101613e15565b5060008281526002602090815260408083206001600160a01b038a16808552908352818420805486019055858452600383528184208054860190558084526008909252822080548701905590613fbb612eff565b6001600160a01b03167f4a39dc06d4c0dbc64b70af90fd698a233a518aa5d07e595d983b8c0526c8f7fb8887604051808060200180602001838103835285818151815260200191508051906020019060200280838360005b8381101561402b578181015183820152602001614013565b50505050905001838103825284818151815260200191508051906020019060200280838360005b8381101561406a578181015183820152602001614052565b5050505090500194505050505060405180910390a4614091866001600160a01b0316614dbc565b80156140a157506140a186614feb565b15613738576137386000878786604051806020016040528060008152506150b3565b60006140ce82612e6f565b15614120576040805162461bcd60e51b815260206004820152601b60248201527f496e76656e746f72793a206e6f74206120636f6c6c656374696f6e0000000000604482015290519081900360640190fd5b506000908152600560205260409020546001600160a01b031690565b6001600160a01b038416614197576040805162461bcd60e51b815260206004820152601760248201527f496e76656e746f72793a206d696e7420746f207a65726f000000000000000000604482015290519081900360640190fd5b60006141a1612eff565b90506141ac846133f6565b156141c1576141bc858585615437565b614215565b6141ca84612e6f565b15611aa7576141dc8585856000615529565b60405184906001600160a01b038716906000907fddf252ad1be2c89b69c2b068fc378daa952ba7f163c4a11628f55a4df523b3ef908290a45b604080518581526020810185905281516001600160a01b0380891693600093918616927fc3d58168c5ae7397731d063d5bbf3d657854427343f4c083240f7aacaa2d0f629281900390910190a4614274856001600160a01b0316614dbc565b15611b8857611b88600086868686614dc2565b6000818152600460205260408120546001600160a01b038116611615576040805162461bcd60e51b815260206004820152601b60248201527f496e76656e746f72793a206e6f6e2d6578697374696e67204e46540000000000604482015290519081900360640190fd5b306001600160a01b0316638da5cb5b6040518163ffffffff1660e01b815260040160206040518083038186803b15801561432a57600080fd5b505afa15801561433e573d6000803e3d6000fd5b505050506040513d602081101561435457600080fd5b50516001600160a01b038281169116146123ec576040805162461bcd60e51b815260206004820152601660248201527f4f776e61626c653a206e6f7420746865206f776e657200000000000000000000604482015290519081900360640190fd5b604080516001600160a01b038416602482015260448082018490528251808303909101815260649091019091526020810180517bffffffffffffffffffffffffffffffffffffffffffffffffffffffff167fa9059cbb00000000000000000000000000000000000000000000000000000000179052611b769084906158e9565b6001600160e01b03191690565b60008281526002602090815260408083206001600160a01b0390961683529481528482208054849003905592815260039092529190208054919091039055565b6001600160a01b0381166000818152600b6020526040808220805460ff19166001179055517f6ae172837ea30b801fbfcdd4108aa1d5bf8ff775444fd70256b44e6bf3dfc3f69190a250565b60006144d8612eff565b9050806001600160a01b0316836001600160a01b03161415614541576040805162461bcd60e51b815260206004820152601860248201527f496e76656e746f72793a2073656c662d617070726f76616c0000000000000000604482015290519081900360640190fd5b6001600160a01b03818116600081815260016020908152604080832094881680845294825291829020805460ff1916871515908117909155825190815291517f17307eab39ab6107e8899845ad3d59bd9653f200f220920489ca2b5937696c319281900390910190a3505050565b60606145b9615acc565b8080601f01602080910402602001604051908101604052809392919081815260200183838082843760009201919091525092935050505090565b6145fc81612e6f565b1561464e576040805162461bcd60e51b815260206004820152601b60248201527f496e76656e746f72793a206e6f74206120636f6c6c656374696f6e0000000000604482015290519081900360640190fd5b6000818152600560205260409020546001600160a01b0316156146b8576040805162461bcd60e51b815260206004820152601e60248201527f496e76656e746f72793a206578697374696e6720636f6c6c656374696f6e0000604482015290519081900360640190fd5b6146c0612eff565b6000828152600560205260409020805473ffffffffffffffffffffffffffffffffffffffff19166001600160a01b0392909216919091179055614702816133f6565b1515817f4ebf8ad0df535ba5e487bc9cb27fe44120ca81c3a95d3eba79c0bd1df2ab2d5d60405160405180910390a350565b86858114801561474357508084145b614794576040805162461bcd60e51b815260206004820152601e60248201527f496e76656e746f72793a20696e636f6e73697374656e74206172726179730000604482015290519081900360640190fd5b600061479e612eff565b905060005b828114613bbb5760008b8b838181106147b857fe5b905060200201356001600160a01b0316905060006001600160a01b0316816001600160a01b03161415614832576040805162461bcd60e51b815260206004820152601760248201527f496e76656e746f72793a206d696e7420746f207a65726f000000000000000000604482015290519081900360640190fd5b60008a8a8481811061484057fe5b905060200201359050600089898581811061485757fe5b905060200201359050614869826133f6565b1561492657614879838383615437565b604080518381526020810183905281516001600160a01b0380871693600093918a16927fc3d58168c5ae7397731d063d5bbf3d657854427343f4c083240f7aacaa2d0f629281900390910190a46148d8836001600160a01b0316614dbc565b156149215761492160008484848c8c8080601f016020809104026020016040519081016040528093929190818152602001838380828437600092019190915250614dc292505050565b614a78565b61492f82612e6f565b15611aa7576149418383836000615529565b60405182906001600160a01b038516906000907fddf252ad1be2c89b69c2b068fc378daa952ba7f163c4a11628f55a4df523b3ef908290a4604080518381526001602082015281516001600160a01b0380871693600093918a16927fc3d58168c5ae7397731d063d5bbf3d657854427343f4c083240f7aacaa2d0f629281900390910190a46149d8836001600160a01b0316614dbc565b15614921576149e683614feb565b15614a3557614a306000848460018c8c8080601f016020809104026020016040519081016040528093929190818152602001838380828437600092019190915250614dc292505050565b614921565b614921600084848b8b8080601f01602080910402602001604051908101604052809392919081815260200183838082843760009201919091525061576792505050565b5050508060010190506147a3565b6001600160a01b03918216600090815260016020908152604080832093909416825291909152205460ff1690565b80614b06576040805162461bcd60e51b815260206004820152601e60248201527f496e76656e746f72793a206e6f6e2d617070726f7665642073656e6465720000604482015290519081900360640190fd5b81614b58576040805162461bcd60e51b815260206004820152601560248201527f496e76656e746f72793a207a65726f2076616c75650000000000000000000000604482015290519081900360640190fd5b60008381526002602090815260408083206001600160a01b038916845290915290205482811015614bd0576040805162461bcd60e51b815260206004820152601d60248201527f496e76656e746f72793a206e6f7420656e6f7567682062616c616e6365000000604482015290519081900360640190fd5b846001600160a01b0316866001600160a01b0316146137385760009384526002602090815260408086206001600160a01b039889168752909152808520918490039091559390941682529190208054909101905550565b82600114614c7c576040805162461bcd60e51b815260206004820152601a60248201527f496e76656e746f72793a2077726f6e67204e46542076616c7565000000000000604482015290519081900360640190fd5b6000848152600460205260409020546001600160a01b0387811690821614614ceb576040805162461bcd60e51b815260206004820152601860248201527f496e76656e746f72793a206e6f6e2d6f776e6564204e46540000000000000000604482015290519081900360640190fd5b82614d7c57600160a01b811615801590614d2b57506000858152600960205260409020546001600160a01b0316614d20612eff565b6001600160a01b0316145b614d7c576040805162461bcd60e51b815260206004820152601e60248201527f496e76656e746f72793a206e6f6e2d617070726f7665642073656e6465720000604482015290519081900360640190fd5b60008581526004602052604090206001600160a01b038716905581611a0157614da787876001614fa0565b611a018787614db588614435565b6001614f4c565b3b151590565b7ff23a6e61000000000000000000000000000000000000000000000000000000006001600160a01b03851663f23a6e61614dfa612eff565b888787876040518663ffffffff1660e01b815260040180866001600160a01b03168152602001856001600160a01b0316815260200184815260200183815260200180602001828103825283818151815260200191508051906020019080838360005b83811015614e74578181015183820152602001614e5c565b50505050905090810190601f168015614ea15780820380516001836020036101000a031916815260200191505b509650505050505050602060405180830381600087803b158015614ec457600080fd5b505af1158015614ed8573d6000803e3d6000fd5b505050506040513d6020811015614eee57600080fd5b50516001600160e01b03191614611b88576040805162461bcd60e51b815260206004820152601b60248201527f496e76656e746f72793a207472616e7366657220726566757365640000000000604482015290519081900360640190fd5b826001600160a01b0316846001600160a01b0316146123625760009182526002602090815260408084206001600160a01b039687168552909152808320805483900390559290931681522080549091019055565b816001600160a01b0316836001600160a01b031614611b76576001600160a01b0380841660009081526008602052604080822080548590039055918416815220805482019055505050565b604080517f4e2312e0000000000000000000000000000000000000000000000000000000006024808301919091528251808303909101815260449091018252602081810180517bffffffffffffffffffffffffffffffffffffffffffffffffffffffff167f01ffc9a7000000000000000000000000000000000000000000000000000000001781528251935160008082529485948594909392908183858b612710fa955080519450505050609e5a116150a057fe5b8280156150aa5750815b95945050505050565b7fbc197c81000000000000000000000000000000000000000000000000000000006001600160a01b03851663bc197c816150eb612eff565b888787876040518663ffffffff1660e01b815260040180866001600160a01b03168152602001856001600160a01b03168152602001806020018060200180602001848103845287818151815260200191508051906020019060200280838360005b8381101561516457818101518382015260200161514c565b50505050905001848103835286818151815260200191508051906020019060200280838360005b838110156151a357818101518382015260200161518b565b50505050905001848103825285818151815260200191508051906020019080838360005b838110156151df5781810151838201526020016151c7565b50505050905090810190601f16801561520c5780820380516001836020036101000a031916815260200191505b5098505050505050505050602060405180830381600087803b158015614ec457600080fd5b60006001600160e01b031982167f80ac58cd00000000000000000000000000000000000000000000000000000000148061529457506001600160e01b031982167f5b5e139f00000000000000000000000000000000000000000000000000000000145b806152c857506001600160e01b031982167ff3993d1100000000000000000000000000000000000000000000000000000000145b80611615575061161582615c2f565b600033816152e3615d30565b90507f00000000000000000000000000000000000000000000000000000000000000006001600160a01b0316826001600160a01b0316148061535657507f00000000000000000000000000000000000000000000000000000000000000006001600160a01b0316826001600160a01b0316145b156153645791506116b19050565b6001600160a01b038216321480159061542357507f00000000000000000000000000000000000000000000000000000000000000006001600160a01b031663e60125d682846040518363ffffffff1660e01b815260040180836001600160a01b03168152602001826001600160a01b031681526020019250505060206040518083038186803b1580156153f657600080fd5b505afa15801561540a573d6000803e3d6000fd5b505050506040513d602081101561542057600080fd5b50515b156154315791506116b19050565b50905090565b80615489576040805162461bcd60e51b815260206004820152601560248201527f496e76656e746f72793a207a65726f2076616c75650000000000000000000000604482015290519081900360640190fd5b6000828152600360205260409020548181018181116154ef576040805162461bcd60e51b815260206004820152601a60248201527f496e76656e746f72793a20737570706c79206f766572666c6f77000000000000604482015290519081900360640190fd5b600093845260036020908152604080862092909255600281528185206001600160a01b039096168552949094525091902080549091019055565b8160011461557e576040805162461bcd60e51b815260206004820152601a60248201527f496e76656e746f72793a2077726f6e67204e46542076616c7565000000000000604482015290519081900360640190fd5b600083815260046020526040902054156155df576040805162461bcd60e51b815260206004820152601d60248201527f496e76656e746f72793a206578697374696e672f6275726e74204e4654000000604482015290519081900360640190fd5b60008381526004602052604090206001600160a01b03851690558061236257600061560984614435565b600090815260036020908152604080832080546001908101909155600283528184206001600160a01b038a16855283528184208054820190556008909252909120805490910190555050505050565b606081615699575060408051808201909152600181527f30000000000000000000000000000000000000000000000000000000000000006020820152611618565b8160005b81156156b157600101600a8204915061569d565b60008167ffffffffffffffff811180156156ca57600080fd5b506040519080825280601f01601f1916602001820160405280156156f5576020820181803683370190505b50859350905060001982015b831561575e57600a840660300160f81b8282806001900393508151811061572457fe5b60200101907effffffffffffffffffffffffffffffffffffffffffffffffffffffffffffff1916908160001a905350600a84049350615701565b50949350505050565b7f150b7a02000000000000000000000000000000000000000000000000000000006001600160a01b03841663150b7a0261579f612eff565b8786866040518563ffffffff1660e01b815260040180856001600160a01b03168152602001846001600160a01b0316815260200183815260200180602001828103825283818151815260200191508051906020019080838360005b838110156158125781810151838201526020016157fa565b50505050905090810190601f16801561583f5780820380516001836020036101000a031916815260200191505b5095505050505050602060405180830381600087803b15801561586157600080fd5b505af1158015615875573d6000803e3d6000fd5b505050506040513d602081101561588b57600080fd5b50516001600160e01b03191614612362576040805162461bcd60e51b815260206004820152601b60248201527f496e76656e746f72793a207472616e7366657220726566757365640000000000604482015290519081900360640190fd5b816158fc6001600160a01b038216614dbc565b61594d576040805162461bcd60e51b815260206004820152601a60248201527f4552433230577261707065723a206e6f6e2d636f6e7472616374000000000000604482015290519081900360640190fd5b600080826001600160a01b0316846040518082805190602001908083835b6020831061598a5780518252601f19909201916020918201910161596b565b6001836020036101000a0380198251168184511680821785525050505050509050019150506000604051808303816000865af19150503d80600081146159ec576040519150601f19603f3d011682016040523d82523d6000602084013e6159f1565b606091505b50915091508115615a7057805115615a6b57808060200190516020811015615a1857600080fd5b5051615a6b576040805162461bcd60e51b815260206004820152601e60248201527f4552433230577261707065723a206f7065726174696f6e206661696c65640000604482015290519081900360640190fd5b611b88565b8051615ac3576040805162461bcd60e51b815260206004820152601e60248201527f4552433230577261707065723a206f7065726174696f6e206661696c65640000604482015290519081900360640190fd5b80518082602001fd5b366000336001600160a01b037f000000000000000000000000000000000000000000000000000000000000000016811480615b3857507f00000000000000000000000000000000000000000000000000000000000000006001600160a01b0316816001600160a01b0316145b15615b4f57615b45615d3c565b9250925050615c2b565b6001600160a01b0381163214801590615c1557507f00000000000000000000000000000000000000000000000000000000000000006001600160a01b031663e60125d6615b9a615d30565b836040518363ffffffff1660e01b815260040180836001600160a01b03168152602001826001600160a01b031681526020019250505060206040518083038186803b158015615be857600080fd5b505afa158015615bfc573d6000803e3d6000fd5b505050506040513d6020811015615c1257600080fd5b50515b15615c2257615b45615d3c565b60003692509250505b9091565b60006001600160e01b031982167f01ffc9a7000000000000000000000000000000000000000000000000000000001480615c9257506001600160e01b031982167fd9b67a2600000000000000000000000000000000000000000000000000000000145b80615cc657506001600160e01b031982167f0e89341c00000000000000000000000000000000000000000000000000000000145b80615cfa57506001600160e01b031982167f09ce5c4600000000000000000000000000000000000000000000000000000000145b806116155750506001600160e01b0319167fbd85b039000000000000000000000000000000000000000000000000000000001490565b60131936013560601c90565b366000615d4f6013198301828481615df8565b915091509091565b828054600181600116156101000203166002900490600052602060002090601f016020900481019282615d8d5760008555615dd3565b82601f10615da65782800160ff19823516178555615dd3565b82800160010185558215615dd3579182015b82811115615dd3578235825591602001919060010190615db8565b50615ddf929150615de3565b5090565b5b80821115615ddf5760008155600101615de4565b60008085851115615e07578182fd5b83861115615e13578182fd5b505082019391909203915056fea2646970667358221220e222ad70d93a62060e07ae003e779ebfe96ace90d1328d55b48181d937b178c464736f6c63430007060033",
  "linkReferences": {},
  "deployedLinkReferences": {}
}