{
  "_format": "hh-sol-artifact-1",
  "contractName": "ERC1155721InventoryBurnableMock",
  "sourceName": "contracts/mocks/token/ERC1155721/ERC1155721InventoryBurnableMock.sol",
  "abi": [
    {
      "inputs": [],
      "stateMutability": "nonpayable",
      "type": "constructor"
    },
    {
      "anonymous": false,
      "inputs": [
        {
          "indexed": true,
          "internalType": "address",
          "name": "_owner",
          "type": "address"
        },
        {
          "indexed": true,
          "internalType": "address",
          "name": "_approved",
          "type": "address"
        },
        {
          "indexed": true,
          "internalType": "uint256",
          "name": "_tokenId",
          "type": "uint256"
        }
      ],
      "name": "Approval",
      "type": "event"
    },
    {
      "anonymous": false,
      "inputs": [
        {
          "indexed": true,
          "internalType": "address",
          "name": "_owner",
          "type": "address"
        },
        {
          "indexed": true,
          "internalType": "address",
          "name": "_operator",
          "type": "address"
        },
        {
          "indexed": false,
          "internalType": "bool",
          "name": "_approved",
          "type": "bool"
        }
      ],
      "name": "ApprovalForAll",
      "type": "event"
    },
    {
      "anonymous": false,
      "inputs": [
        {
          "indexed": false,
          "internalType": "string",
          "name": "baseMetadataURI",
          "type": "string"
        }
      ],
      "name": "BaseMetadataURISet",
      "type": "event"
    },
    {
      "anonymous": false,
      "inputs": [
        {
          "indexed": true,
          "internalType": "uint256",
          "name": "collectionId",
          "type": "uint256"
        },
        {
          "indexed": true,
          "internalType": "bool",
          "name": "fungible",
          "type": "bool"
        }
      ],
      "name": "CollectionCreated",
      "type": "event"
    },
    {
      "anonymous": false,
      "inputs": [
        {
          "indexed": true,
          "internalType": "address",
          "name": "account",
          "type": "address"
        }
      ],
      "name": "MinterAdded",
      "type": "event"
    },
    {
      "anonymous": false,
      "inputs": [
        {
          "indexed": true,
          "internalType": "address",
          "name": "account",
          "type": "address"
        }
      ],
      "name": "MinterRemoved",
      "type": "event"
    },
    {
      "anonymous": false,
      "inputs": [
        {
          "indexed": true,
          "internalType": "address",
          "name": "previousOwner",
          "type": "address"
        },
        {
          "indexed": true,
          "internalType": "address",
          "name": "newOwner",
          "type": "address"
        }
      ],
      "name": "OwnershipTransferred",
      "type": "event"
    },
    {
      "anonymous": false,
      "inputs": [
        {
          "indexed": true,
          "internalType": "address",
          "name": "_from",
          "type": "address"
        },
        {
          "indexed": true,
          "internalType": "address",
          "name": "_to",
          "type": "address"
        },
        {
          "indexed": true,
          "internalType": "uint256",
          "name": "_tokenId",
          "type": "uint256"
        }
      ],
      "name": "Transfer",
      "type": "event"
    },
    {
      "anonymous": false,
      "inputs": [
        {
          "indexed": true,
          "internalType": "address",
          "name": "_operator",
          "type": "address"
        },
        {
          "indexed": true,
          "internalType": "address",
          "name": "_from",
          "type": "address"
        },
        {
          "indexed": true,
          "internalType": "address",
          "name": "_to",
          "type": "address"
        },
        {
          "indexed": false,
          "internalType": "uint256[]",
          "name": "_ids",
          "type": "uint256[]"
        },
        {
          "indexed": false,
          "internalType": "uint256[]",
          "name": "_values",
          "type": "uint256[]"
        }
      ],
      "name": "TransferBatch",
      "type": "event"
    },
    {
      "anonymous": false,
      "inputs": [
        {
          "indexed": true,
          "internalType": "address",
          "name": "_operator",
          "type": "address"
        },
        {
          "indexed": true,
          "internalType": "address",
          "name": "_from",
          "type": "address"
        },
        {
          "indexed": true,
          "internalType": "address",
          "name": "_to",
          "type": "address"
        },
        {
          "indexed": false,
          "internalType": "uint256",
          "name": "_id",
          "type": "uint256"
        },
        {
          "indexed": false,
          "internalType": "uint256",
          "name": "_value",
          "type": "uint256"
        }
      ],
      "name": "TransferSingle",
      "type": "event"
    },
    {
      "anonymous": false,
      "inputs": [
        {
          "indexed": false,
          "internalType": "string",
          "name": "_value",
          "type": "string"
        },
        {
          "indexed": true,
          "internalType": "uint256",
          "name": "_id",
          "type": "uint256"
        }
      ],
      "name": "URI",
      "type": "event"
    },
    {
      "inputs": [
        {
          "internalType": "address",
          "name": "account",
          "type": "address"
        }
      ],
      "name": "addMinter",
      "outputs": [],
      "stateMutability": "nonpayable",
      "type": "function"
    },
    {
      "inputs": [
        {
          "internalType": "address",
          "name": "to",
          "type": "address"
        },
        {
          "internalType": "uint256",
          "name": "nftId",
          "type": "uint256"
        }
      ],
      "name": "approve",
      "outputs": [],
      "stateMutability": "nonpayable",
      "type": "function"
    },
    {
      "inputs": [
        {
          "internalType": "address",
          "name": "owner",
          "type": "address"
        },
        {
          "internalType": "uint256",
          "name": "id",
          "type": "uint256"
        }
      ],
      "name": "balanceOf",
      "outputs": [
        {
          "internalType": "uint256",
          "name": "",
          "type": "uint256"
        }
      ],
      "stateMutability": "view",
      "type": "function"
    },
    {
      "inputs": [
        {
          "internalType": "address",
          "name": "tokenOwner",
          "type": "address"
        }
      ],
      "name": "balanceOf",
      "outputs": [
        {
          "internalType": "uint256",
          "name": "",
          "type": "uint256"
        }
      ],
      "stateMutability": "view",
      "type": "function"
    },
    {
      "inputs": [
        {
          "internalType": "address[]",
          "name": "owners",
          "type": "address[]"
        },
        {
          "internalType": "uint256[]",
          "name": "ids",
          "type": "uint256[]"
        }
      ],
      "name": "balanceOfBatch",
      "outputs": [
        {
          "internalType": "uint256[]",
          "name": "",
          "type": "uint256[]"
        }
      ],
      "stateMutability": "view",
      "type": "function"
    },
    {
      "inputs": [],
      "name": "baseMetadataURI",
      "outputs": [
        {
          "internalType": "string",
          "name": "",
          "type": "string"
        }
      ],
      "stateMutability": "view",
      "type": "function"
    },
    {
      "inputs": [
        {
          "internalType": "address",
          "name": "from",
          "type": "address"
        },
        {
          "internalType": "uint256[]",
          "name": "ids",
          "type": "uint256[]"
        },
        {
          "internalType": "uint256[]",
          "name": "values",
          "type": "uint256[]"
        }
      ],
      "name": "batchBurnFrom",
      "outputs": [],
      "stateMutability": "nonpayable",
      "type": "function"
    },
    {
      "inputs": [
        {
          "internalType": "address",
          "name": "from",
          "type": "address"
        },
        {
          "internalType": "uint256[]",
          "name": "nftIds",
          "type": "uint256[]"
        }
      ],
      "name": "batchBurnFrom",
      "outputs": [],
      "stateMutability": "nonpayable",
      "type": "function"
    },
    {
      "inputs": [
        {
          "internalType": "address",
          "name": "to",
          "type": "address"
        },
        {
          "internalType": "uint256[]",
          "name": "nftIds",
          "type": "uint256[]"
        }
      ],
      "name": "batchMint",
      "outputs": [],
      "stateMutability": "nonpayable",
      "type": "function"
    },
    {
      "inputs": [
        {
          "internalType": "address",
          "name": "from",
          "type": "address"
        },
        {
          "internalType": "address",
          "name": "to",
          "type": "address"
        },
        {
          "internalType": "uint256[]",
          "name": "nftIds",
          "type": "uint256[]"
        }
      ],
      "name": "batchTransferFrom",
      "outputs": [],
      "stateMutability": "nonpayable",
      "type": "function"
    },
    {
      "inputs": [
        {
          "internalType": "address",
          "name": "from",
          "type": "address"
        },
        {
          "internalType": "uint256",
          "name": "id",
          "type": "uint256"
        },
        {
          "internalType": "uint256",
          "name": "value",
          "type": "uint256"
        }
      ],
      "name": "burnFrom",
      "outputs": [],
      "stateMutability": "nonpayable",
      "type": "function"
    },
    {
      "inputs": [
        {
          "internalType": "uint256",
          "name": "nftId",
          "type": "uint256"
        }
      ],
      "name": "collectionOf",
      "outputs": [
        {
          "internalType": "uint256",
          "name": "",
          "type": "uint256"
        }
      ],
      "stateMutability": "pure",
      "type": "function"
    },
    {
      "inputs": [
        {
          "internalType": "uint256",
          "name": "collectionId",
          "type": "uint256"
        }
      ],
      "name": "createCollection",
      "outputs": [],
      "stateMutability": "nonpayable",
      "type": "function"
    },
    {
      "inputs": [
        {
          "internalType": "uint256",
          "name": "collectionId",
          "type": "uint256"
        }
      ],
      "name": "creator",
      "outputs": [
        {
          "internalType": "address",
          "name": "",
          "type": "address"
        }
      ],
      "stateMutability": "view",
      "type": "function"
    },
    {
      "inputs": [
        {
          "internalType": "uint256",
          "name": "nftId",
          "type": "uint256"
        }
      ],
      "name": "getApproved",
      "outputs": [
        {
          "internalType": "address",
          "name": "",
          "type": "address"
        }
      ],
      "stateMutability": "view",
      "type": "function"
    },
    {
      "inputs": [
        {
          "internalType": "address",
          "name": "tokenOwner",
          "type": "address"
        },
        {
          "internalType": "address",
          "name": "operator",
          "type": "address"
        }
      ],
      "name": "isApprovedForAll",
      "outputs": [
        {
          "internalType": "bool",
          "name": "",
          "type": "bool"
        }
      ],
      "stateMutability": "view",
      "type": "function"
    },
    {
      "inputs": [
        {
          "internalType": "uint256",
          "name": "id",
          "type": "uint256"
        }
      ],
      "name": "isFungible",
      "outputs": [
        {
          "internalType": "bool",
          "name": "",
          "type": "bool"
        }
      ],
      "stateMutability": "pure",
      "type": "function"
    },
    {
      "inputs": [
        {
          "internalType": "address",
          "name": "",
          "type": "address"
        }
      ],
      "name": "isMinter",
      "outputs": [
        {
          "internalType": "bool",
          "name": "",
          "type": "bool"
        }
      ],
      "stateMutability": "view",
      "type": "function"
    },
    {
      "inputs": [
        {
          "internalType": "address",
          "name": "to",
          "type": "address"
        },
        {
          "internalType": "uint256",
          "name": "nftId",
          "type": "uint256"
        }
      ],
      "name": "mint",
      "outputs": [],
      "stateMutability": "nonpayable",
      "type": "function"
    },
    {
      "inputs": [],
      "name": "name",
      "outputs": [
        {
          "internalType": "string",
          "name": "",
          "type": "string"
        }
      ],
      "stateMutability": "view",
      "type": "function"
    },
    {
      "inputs": [],
      "name": "owner",
      "outputs": [
        {
          "internalType": "address",
          "name": "",
          "type": "address"
        }
      ],
      "stateMutability": "view",
      "type": "function"
    },
    {
      "inputs": [
        {
          "internalType": "uint256",
          "name": "nftId",
          "type": "uint256"
        }
      ],
      "name": "ownerOf",
      "outputs": [
        {
          "internalType": "address",
          "name": "",
          "type": "address"
        }
      ],
      "stateMutability": "view",
      "type": "function"
    },
    {
      "inputs": [],
      "name": "renounceMinter",
      "outputs": [],
      "stateMutability": "nonpayable",
      "type": "function"
    },
    {
      "inputs": [
        {
          "internalType": "address",
          "name": "to",
          "type": "address"
        },
        {
          "internalType": "uint256[]",
          "name": "ids",
          "type": "uint256[]"
        },
        {
          "internalType": "uint256[]",
          "name": "values",
          "type": "uint256[]"
        },
        {
          "internalType": "bytes",
          "name": "data",
          "type": "bytes"
        }
      ],
      "name": "safeBatchMint",
      "outputs": [],
      "stateMutability": "nonpayable",
      "type": "function"
    },
    {
      "inputs": [
        {
          "internalType": "address",
          "name": "from",
          "type": "address"
        },
        {
          "internalType": "address",
          "name": "to",
          "type": "address"
        },
        {
          "internalType": "uint256[]",
          "name": "ids",
          "type": "uint256[]"
        },
        {
          "internalType": "uint256[]",
          "name": "values",
          "type": "uint256[]"
        },
        {
          "internalType": "bytes",
          "name": "data",
          "type": "bytes"
        }
      ],
      "name": "safeBatchTransferFrom",
      "outputs": [],
      "stateMutability": "nonpayable",
      "type": "function"
    },
    {
      "inputs": [
        {
          "internalType": "address[]",
          "name": "recipients",
          "type": "address[]"
        },
        {
          "internalType": "uint256[]",
          "name": "ids",
          "type": "uint256[]"
        },
        {
          "internalType": "uint256[]",
          "name": "values",
          "type": "uint256[]"
        },
        {
          "internalType": "bytes",
          "name": "data",
          "type": "bytes"
        }
      ],
      "name": "safeDeliver",
      "outputs": [],
      "stateMutability": "nonpayable",
      "type": "function"
    },
    {
      "inputs": [
        {
          "internalType": "address",
          "name": "to",
          "type": "address"
        },
        {
          "internalType": "uint256",
          "name": "id",
          "type": "uint256"
        },
        {
          "internalType": "uint256",
          "name": "value",
          "type": "uint256"
        },
        {
          "internalType": "bytes",
          "name": "data",
          "type": "bytes"
        }
      ],
      "name": "safeMint",
      "outputs": [],
      "stateMutability": "nonpayable",
      "type": "function"
    },
    {
      "inputs": [
        {
          "internalType": "address",
          "name": "to",
          "type": "address"
        },
        {
          "internalType": "uint256",
          "name": "nftId",
          "type": "uint256"
        },
        {
          "internalType": "bytes",
          "name": "data",
          "type": "bytes"
        }
      ],
      "name": "safeMint",
      "outputs": [],
      "stateMutability": "nonpayable",
      "type": "function"
    },
    {
      "inputs": [
        {
          "internalType": "address",
          "name": "from",
          "type": "address"
        },
        {
          "internalType": "address",
          "name": "to",
          "type": "address"
        },
        {
          "internalType": "uint256",
          "name": "nftId",
          "type": "uint256"
        }
      ],
      "name": "safeTransferFrom",
      "outputs": [],
      "stateMutability": "nonpayable",
      "type": "function"
    },
    {
      "inputs": [
        {
          "internalType": "address",
          "name": "from",
          "type": "address"
        },
        {
          "internalType": "address",
          "name": "to",
          "type": "address"
        },
        {
          "internalType": "uint256",
          "name": "nftId",
          "type": "uint256"
        },
        {
          "internalType": "bytes",
          "name": "data",
          "type": "bytes"
        }
      ],
      "name": "safeTransferFrom",
      "outputs": [],
      "stateMutability": "nonpayable",
      "type": "function"
    },
    {
      "inputs": [
        {
          "internalType": "address",
          "name": "from",
          "type": "address"
        },
        {
          "internalType": "address",
          "name": "to",
          "type": "address"
        },
        {
          "internalType": "uint256",
          "name": "id",
          "type": "uint256"
        },
        {
          "internalType": "uint256",
          "name": "value",
          "type": "uint256"
        },
        {
          "internalType": "bytes",
          "name": "data",
          "type": "bytes"
        }
      ],
      "name": "safeTransferFrom",
      "outputs": [],
      "stateMutability": "nonpayable",
      "type": "function"
    },
    {
      "inputs": [
        {
          "internalType": "address",
          "name": "operator",
          "type": "address"
        },
        {
          "internalType": "bool",
          "name": "approved",
          "type": "bool"
        }
      ],
      "name": "setApprovalForAll",
      "outputs": [],
      "stateMutability": "nonpayable",
      "type": "function"
    },
    {
      "inputs": [
        {
          "internalType": "string",
          "name": "baseMetadataURI_",
          "type": "string"
        }
      ],
      "name": "setBaseMetadataURI",
      "outputs": [],
      "stateMutability": "nonpayable",
      "type": "function"
    },
    {
      "inputs": [
        {
          "internalType": "bytes4",
          "name": "interfaceId",
          "type": "bytes4"
        }
      ],
      "name": "supportsInterface",
      "outputs": [
        {
          "internalType": "bool",
          "name": "",
          "type": "bool"
        }
      ],
      "stateMutability": "view",
      "type": "function"
    },
    {
      "inputs": [],
      "name": "symbol",
      "outputs": [
        {
          "internalType": "string",
          "name": "",
          "type": "string"
        }
      ],
      "stateMutability": "view",
      "type": "function"
    },
    {
      "inputs": [
        {
          "internalType": "uint256",
          "name": "nftId",
          "type": "uint256"
        }
      ],
      "name": "tokenURI",
      "outputs": [
        {
          "internalType": "string",
          "name": "",
          "type": "string"
        }
      ],
      "stateMutability": "view",
      "type": "function"
    },
    {
      "inputs": [
        {
          "internalType": "uint256",
          "name": "id",
          "type": "uint256"
        }
      ],
      "name": "totalSupply",
      "outputs": [
        {
          "internalType": "uint256",
          "name": "",
          "type": "uint256"
        }
      ],
      "stateMutability": "view",
      "type": "function"
    },
    {
      "inputs": [
        {
          "internalType": "address",
          "name": "from",
          "type": "address"
        },
        {
          "internalType": "address",
          "name": "to",
          "type": "address"
        },
        {
          "internalType": "uint256",
          "name": "nftId",
          "type": "uint256"
        }
      ],
      "name": "transferFrom",
      "outputs": [],
      "stateMutability": "nonpayable",
      "type": "function"
    },
    {
      "inputs": [
        {
          "internalType": "address",
          "name": "newOwner",
          "type": "address"
        }
      ],
      "name": "transferOwnership",
      "outputs": [],
      "stateMutability": "nonpayable",
      "type": "function"
    },
    {
      "inputs": [
        {
          "internalType": "uint256",
          "name": "id",
          "type": "uint256"
        }
      ],
      "name": "uri",
      "outputs": [
        {
          "internalType": "string",
          "name": "",
          "type": "string"
        }
      ],
      "stateMutability": "view",
      "type": "function"
    }
  ],
  "bytecode": "0x60806040523480156200001157600080fd5b50604080518082018252601f81527f45524331313535373231496e76656e746f72794275726e61626c654d6f636b0060208083019182528351808501909452600484526324a72b2160e11b9084015281513393849392909162000077916005916200013a565b5080516200008d9060069060208401906200013a565b5050600980546001600160a01b0319166001600160a01b0384169081179091556040519091506000907f8be0079c531659141344cd1fd0a4f28419497f9722a3daafe3b4186f6b6457e0908290a350620000e781620000ee565b50620001e6565b6001600160a01b0381166000818152600b6020526040808220805460ff19166001179055517f6ae172837ea30b801fbfcdd4108aa1d5bf8ff775444fd70256b44e6bf3dfc3f69190a250565b828054600181600116156101000203166002900490600052602060002090601f016020900481019282620001725760008555620001bd565b82601f106200018d57805160ff1916838001178555620001bd565b82800160010185558215620001bd579182015b82811115620001bd578251825591602001919060010190620001a0565b50620001cb929150620001cf565b5090565b5b80821115620001cb5760008155600101620001d0565b61529980620001f66000396000f3fe608060405234801561001057600080fd5b50600436106102c75760003560e01c8063805349341161017b578063bd85b039116100d8578063e985e9c51161008c578063f247296511610071578063f24729651461122e578063f2fde38b146112e1578063f3993d1114611307576102c7565b8063e985e9c514611135578063f242432a14611163576102c7565b8063c87b56dd116100bd578063c87b56dd14610f95578063d0011d9d14610fb2578063e8ab9ccc14610fcf576102c7565b8063bd85b03914610f5b578063c7778baa14610f78576102c7565b8063986502751161012f578063aa271e1a11610114578063aa271e1a14610e52578063adebf6f214610e78578063b88d4fde14610e95576102c7565b80639865027514610e1c578063a22cb46514610e24576102c7565b80638da5cb5b116101605780638da5cb5b14610de657806395d89b4114610dee578063983b2d5614610df6576102c7565b80638053493414610bf45780638832e6e314610d2b576102c7565b806340c10f19116102295780635b2bd79e116101dd5780636352211e116101c25780636352211e14610b4157806370a0823114610b5e5780637e518ec814610b84576102c7565b80635b2bd79e14610a775780635cfa929714610a7f576102c7565b80634684d7e91161020e5780634684d7e9146108955780634e1273f414610948578063510b515814610a5a576102c7565b806340c10f191461083357806342842e0e1461085f576102c7565b80630d6a5bbb11610280578063124d91e511610265578063124d91e51461060457806323b872dd146106365780632eb2c2d61461066c576102c7565b80630d6a5bbb146104295780630e89341c146105e7576102c7565b806306fdde03116102b157806306fdde0314610345578063081812fc146103c2578063095ea7b3146103fb576102c7565b8062fdd58e146102cc57806301ffc9a71461030a575b600080fd5b6102f8600480360360408110156102e257600080fd5b506001600160a01b0381351690602001356113c3565b60408051918252519081900360200190f35b6103316004803603602081101561032057600080fd5b50356001600160e01b03191661148e565b604080519115158252519081900360200190f35b61034d6114d4565b6040805160208082528351818301528351919283929083019185019080838360005b8381101561038757818101518382015260200161036f565b50505050905090810190601f1680156103b45780820380516001836020036101000a031916815260200191505b509250505060405180910390f35b6103df600480360360208110156103d857600080fd5b503561156a565b604080516001600160a01b039092168252519081900360200190f35b6104276004803603604081101561041157600080fd5b506001600160a01b038135169060200135611609565b005b6104276004803603608081101561043f57600080fd5b6001600160a01b03823516919081019060408101602082013564010000000081111561046a57600080fd5b82018360208201111561047c57600080fd5b8035906020019184602083028401116401000000008311171561049e57600080fd5b91908080602002602001604051908101604052809392919081815260200183836020028082843760009201919091525092959493602081019350359150506401000000008111156104ee57600080fd5b82018360208201111561050057600080fd5b8035906020019184602083028401116401000000008311171561052257600080fd5b919080806020026020016040519081016040528093929190818152602001838360200280828437600092019190915250929594936020810193503591505064010000000081111561057257600080fd5b82018360208201111561058457600080fd5b803590602001918460018302840111640100000000831117156105a657600080fd5b91908080601f01602080910402602001604051908101604052809392919081815260200183838082843760009201919091525092955061175b945050505050565b61034d600480360360208110156105fd57600080fd5b503561177d565b6104276004803603606081101561061a57600080fd5b506001600160a01b038135169060208101359060400135611788565b6104276004803603606081101561064c57600080fd5b506001600160a01b038135811691602081013590911690604001356118cc565b610427600480360360a081101561068257600080fd5b6001600160a01b0382358116926020810135909116918101906060810160408201356401000000008111156106b657600080fd5b8201836020820111156106c857600080fd5b803590602001918460208302840111640100000000831117156106ea57600080fd5b919080806020026020016040519081016040528093929190818152602001838360200280828437600092019190915250929594936020810193503591505064010000000081111561073a57600080fd5b82018360208201111561074c57600080fd5b8035906020019184602083028401116401000000008311171561076e57600080fd5b91908080602002602001604051908101604052809392919081815260200183836020028082843760009201919091525092959493602081019350359150506401000000008111156107be57600080fd5b8201836020820111156107d057600080fd5b803590602001918460018302840111640100000000831117156107f257600080fd5b91908080601f0160208091040260200160405190810160405280939291908181526020018383808284376000920191909152509295506118ee945050505050565b6104276004803603604081101561084957600080fd5b506001600160a01b038135169060200135611902565b6104276004803603606081101561087557600080fd5b506001600160a01b0381358116916020810135909116906040013561192d565b610427600480360360408110156108ab57600080fd5b6001600160a01b0382351691908101906040810160208201356401000000008111156108d657600080fd5b8201836020820111156108e857600080fd5b8035906020019184602083028401116401000000008311171561090a57600080fd5b91908080602002602001604051908101604052809392919081815260200183836020028082843760009201919091525092955061194a945050505050565b610a0a6004803603604081101561095e57600080fd5b81019060208101813564010000000081111561097957600080fd5b82018360208201111561098b57600080fd5b803590602001918460208302840111640100000000831117156109ad57600080fd5b9193909290916020810190356401000000008111156109cb57600080fd5b8201836020820111156109dd57600080fd5b803590602001918460208302840111640100000000831117156109ff57600080fd5b50909250905061195f565b60408051602080825283518183015283519192839290830191858101910280838360005b83811015610a46578181015183820152602001610a2e565b505050509050019250505060405180910390f35b6103df60048036036020811015610a7057600080fd5b5035611a65565b61034d611a70565b61042760048036036080811015610a9557600080fd5b6001600160a01b038235169160208101359160408201359190810190608081016060820135640100000000811115610acc57600080fd5b820183602082011115610ade57600080fd5b80359060200191846001830284011164010000000083111715610b0057600080fd5b91908080601f016020809104026020016040519081016040528093929190818152602001838380828437600092019190915250929550611afe945050505050565b6103df60048036036020811015610b5757600080fd5b5035611b15565b6102f860048036036020811015610b7457600080fd5b50356001600160a01b0316611b20565b61042760048036036020811015610b9a57600080fd5b810190602081018135640100000000811115610bb557600080fd5b820183602082011115610bc757600080fd5b80359060200191846001830284011164010000000083111715610be957600080fd5b509092509050611b99565b61042760048036036060811015610c0a57600080fd5b6001600160a01b038235169190810190604081016020820135640100000000811115610c3557600080fd5b820183602082011115610c4757600080fd5b80359060200191846020830284011164010000000083111715610c6957600080fd5b9190808060200260200160405190810160405280939291908181526020018383602002808284376000920191909152509295949360208101935035915050640100000000811115610cb957600080fd5b820183602082011115610ccb57600080fd5b80359060200191846020830284011164010000000083111715610ced57600080fd5b919080806020026020016040519081016040528093929190818152602001838360200280828437600092019190915250929550611c1a945050505050565b61042760048036036060811015610d4157600080fd5b6001600160a01b0382351691602081013591810190606081016040820135640100000000811115610d7157600080fd5b820183602082011115610d8357600080fd5b80359060200191846001830284011164010000000083111715610da557600080fd5b91908080601f016020809104026020016040519081016040528093929190818152602001838380828437600092019190915250929550611eb7945050505050565b6103df611ecf565b61034d611ede565b61042760048036036020811015610e0c57600080fd5b50356001600160a01b0316611f3f565b610427611f56565b61042760048036036040811015610e3a57600080fd5b506001600160a01b0381351690602001351515611fb4565b61033160048036036020811015610e6857600080fd5b50356001600160a01b0316612093565b61033160048036036020811015610e8e57600080fd5b50356120a8565b61042760048036036080811015610eab57600080fd5b6001600160a01b03823581169260208101359091169160408201359190810190608081016060820135640100000000811115610ee657600080fd5b820183602082011115610ef857600080fd5b80359060200191846001830284011164010000000083111715610f1a57600080fd5b91908080601f0160208091040260200160405190810160405280939291908181526020018383808284376000920191909152509295506120b3945050505050565b6102f860048036036020811015610f7157600080fd5b50356120c1565b6102f860048036036020811015610f8e57600080fd5b5035612117565b61034d60048036036020811015610fab57600080fd5b503561217c565b61042760048036036020811015610fc857600080fd5b50356121f1565b61042760048036036080811015610fe557600080fd5b81019060208101813564010000000081111561100057600080fd5b82018360208201111561101257600080fd5b8035906020019184602083028401116401000000008311171561103457600080fd5b91939092909160208101903564010000000081111561105257600080fd5b82018360208201111561106457600080fd5b8035906020019184602083028401116401000000008311171561108657600080fd5b9193909290916020810190356401000000008111156110a457600080fd5b8201836020820111156110b657600080fd5b803590602001918460208302840111640100000000831117156110d857600080fd5b9193909290916020810190356401000000008111156110f657600080fd5b82018360208201111561110857600080fd5b8035906020019184600183028401116401000000008311171561112a57600080fd5b509092509050612205565b6103316004803603604081101561114b57600080fd5b506001600160a01b038135811691602001351661222a565b610427600480360360a081101561117957600080fd5b6001600160a01b03823581169260208101359091169160408201359160608101359181019060a0810160808201356401000000008111156111b957600080fd5b8201836020820111156111cb57600080fd5b803590602001918460018302840111640100000000831117156111ed57600080fd5b91908080601f016020809104026020016040519081016040528093929190818152602001838380828437600092019190915250929550612256945050505050565b6104276004803603604081101561124457600080fd5b6001600160a01b03823516919081019060408101602082013564010000000081111561126f57600080fd5b82018360208201111561128157600080fd5b803590602001918460208302840111640100000000831117156112a357600080fd5b9190808060200260200160405190810160405280939291908181526020018383602002808284376000920191909152509295506123d4945050505050565b610427600480360360208110156112f757600080fd5b50356001600160a01b0316612632565b6104276004803603606081101561131d57600080fd5b6001600160a01b03823581169260208101359091169181019060608101604082013564010000000081111561135157600080fd5b82018360208201111561136357600080fd5b8035906020019184602083028401116401000000008311171561138557600080fd5b91908080602002602001604051908101604052809392919081815260200183836020028082843760009201919091525092955061269a945050505050565b60006001600160a01b038316611420576040805162461bcd60e51b815260206004820152601760248201527f496e76656e746f72793a207a65726f2061646472657373000000000000000000604482015290519081900360640190fd5b61142982612982565b15611463576000828152600360205260409020546001600160a01b03848116911614611456576000611459565b60015b60ff169050611488565b5060008181526001602090815260408083206001600160a01b03861684529091529020545b92915050565b60006001600160e01b031982167f510b51580000000000000000000000000000000000000000000000000000000014806114cc57506114cc826129d4565b90505b919050565b60058054604080516020601f60026000196101006001881615020190951694909404938401819004810282018101909252828152606093909290918301828280156115605780601f1061153557610100808354040283529160200191611560565b820191906000526020600020905b81548152906001019060200180831161154357829003601f168201915b5050505050905090565b6000818152600360205260408120546001600160a01b0381166115d4576040805162461bcd60e51b815260206004820152601b60248201527f496e76656e746f72793a206e6f6e2d6578697374696e67204e46540000000000604482015290519081900360640190fd5b600160a01b8116156115ff5750506000818152600860205260409020546001600160a01b03166114cf565b60009150506114cf565b600061161482611b15565b9050806001600160a01b0316836001600160a01b0316141561167d576040805162461bcd60e51b815260206004820152601860248201527f496e76656e746f72793a2073656c662d617070726f76616c0000000000000000604482015290519081900360640190fd5b61168e81611689612a12565b612a16565b6116df576040805162461bcd60e51b815260206004820152601e60248201527f496e76656e746f72793a206e6f6e2d617070726f7665642073656e6465720000604482015290519081900360640190fd5b60008281526003602090815260408083206001600160a01b03808616600160a01b81179092556008909352818420805493881673ffffffffffffffffffffffffffffffffffffffff1990941684179055905185937f8c5be1e5ebec7d5bd14f71427d1e84f3dd0314c0f7b2291e5b200ac8c7c3b92591a4505050565b61176b611766612a12565b612a62565b61177784848484612acf565b50505050565b60606114cc82612e30565b6000611792612a12565b905060006117a08583612a16565b90506117ab84612f03565b156117c1576117bc85858584612f29565b611867565b6117ca84612982565b1561181a576117dd858585846000613085565b60405184906000906001600160a01b038816907fddf252ad1be2c89b69c2b068fc378daa952ba7f163c4a11628f55a4df523b3ef908390a4611867565b6040805162461bcd60e51b815260206004820152601960248201527f496e76656e746f72793a206e6f74206120746f6b656e20696400000000000000604482015290519081900360640190fd5b60006001600160a01b0316856001600160a01b0316836001600160a01b03167fc3d58168c5ae7397731d063d5bbf3d657854427343f4c083240f7aacaa2d0f628787604051808381526020018281526020019250505060405180910390a45050505050565b6118e983838360405180602001604052806000815250600061324d565b505050565b6118fb85858585856133bb565b5050505050565b61190d611766612a12565b61192982826040518060200160405280600081525060006136d5565b5050565b6118e983838360405180602001604052806000815250600161324d565b611955611766612a12565b6119298282613879565b60608382146119b5576040805162461bcd60e51b815260206004820152601e60248201527f496e76656e746f72793a20696e636f6e73697374656e74206172726179730000604482015290519081900360640190fd5b60008467ffffffffffffffff811180156119ce57600080fd5b506040519080825280602002602001820160405280156119f8578160200160208202803683370190505b50905060005b808614611a5b57611a3c878783818110611a1457fe5b905060200201356001600160a01b0316868684818110611a3057fe5b905060200201356113c3565b828281518110611a4857fe5b60209081029190910101526001016119fe565b5095945050505050565b60006114cc82613bcf565b600a805460408051602060026001851615610100026000190190941693909304601f81018490048402820184019092528181529291830182828015611af65780601f10611acb57610100808354040283529160200191611af6565b820191906000526020600020905b815481529060010190602001808311611ad957829003601f168201915b505050505081565b611b09611766612a12565b61177784848484613c48565b60006114cc82613d93565b60006001600160a01b038216611b7d576040805162461bcd60e51b815260206004820152601760248201527f496e76656e746f72793a207a65726f2061646472657373000000000000000000604482015290519081900360640190fd5b506001600160a01b031660009081526007602052604090205490565b611ba9611ba4612a12565b613dfd565b611bb5600a83836151c2565b507f04b1dc5c136a3ce9fded8db0ce3d3366c58764ec3a8e4c2b9e52e4ddfe5ebbf7828260405180806020018281038252848482818152602001925080828437600083820152604051601f909101601f19169092018290039550909350505050a15050565b815181518114611c71576040805162461bcd60e51b815260206004820152601e60248201527f496e76656e746f72793a20696e636f6e73697374656e74206172726179730000604482015290519081900360640190fd5b6000611c7b612a12565b90506000611c898683612a16565b90506000806000805b868114611d9c576000898281518110611ca757fe5b60200260200101519050611cba81612f03565b15611ce357611cde8b828b8581518110611cd057fe5b602002602001015189612f29565b611d93565b611cec81612982565b1561181a57611d128b828b8581518110611d0257fe5b6020026020010151896001613085565b60405181906000906001600160a01b038e16907fddf252ad1be2c89b69c2b068fc378daa952ba7f163c4a11628f55a4df523b3ef908390a46000611d5582613ec1565b905085611d685780955060019450611d91565b858114611d8a57611d7a8c8787613ece565b9450600193929092019184611d91565b8460010194505b505b50600101611c92565b508215611dd257611dae898484613ece565b6001600160a01b038916600090815260076020526040902080549183019182900390555b60006001600160a01b0316896001600160a01b0316866001600160a01b03167f4a39dc06d4c0dbc64b70af90fd698a233a518aa5d07e595d983b8c0526c8f7fb8b8b604051808060200180602001838103835285818151815260200191508051906020019060200280838360005b83811015611e58578181015183820152602001611e40565b50505050905001838103825284818151815260200191508051906020019060200280838360005b83811015611e97578181015183820152602001611e7f565b5050505090500194505050505060405180910390a4505050505050505050565b611ec2611766612a12565b6118e983838360016136d5565b6009546001600160a01b031690565b60068054604080516020601f60026000196101006001881615020190951694909404938401819004810282018101909252828152606093909290918301828280156115605780601f1061153557610100808354040283529160200191611560565b611f4a611ba4612a12565b611f5381613f0e565b50565b6000611f60612a12565b9050611f6b81612a62565b6001600160a01b0381166000818152600b6020526040808220805460ff19169055517fe94479a9f7e1952cc78f2d6baab678adc1b772d936c6583def489e524cb666929190a250565b6000611fbe612a12565b9050806001600160a01b0316836001600160a01b03161415612027576040805162461bcd60e51b815260206004820152601860248201527f496e76656e746f72793a2073656c662d617070726f76616c0000000000000000604482015290519081900360640190fd5b6001600160a01b0381811660008181526020818152604080832094881680845294825291829020805460ff1916871515908117909155825190815291517f17307eab39ab6107e8899845ad3d59bd9653f200f220920489ca2b5937696c319281900390910190a3505050565b600b6020526000908152604090205460ff1681565b60006114cc82612f03565b61177784848484600161324d565b60006120cc82612982565b15612102576000828152600360205260409020546001600160a01b0316156120f55760016120f8565b60005b60ff1690506114cf565b506000818152600260205260409020546114cf565b600061212282612982565b612173576040805162461bcd60e51b815260206004820152601560248201527f496e76656e746f72793a206e6f7420616e204e46540000000000000000000000604482015290519081900360640190fd5b6114cc82613ec1565b6000818152600360205260409020546060906001600160a01b03166121e8576040805162461bcd60e51b815260206004820152601b60248201527f496e76656e746f72793a206e6f6e2d6578697374696e67204e46540000000000604482015290519081900360640190fd5b6114cc8261177d565b6121fc611ba4612a12565b611f5381613f5a565b612210611766612a12565b612220888888888888888861409b565b5050505050505050565b6001600160a01b0391821660009081526020818152604080832093909416825291909152205460ff1690565b6000612260612a12565b90506001600160a01b0385166122bd576040805162461bcd60e51b815260206004820152601b60248201527f496e76656e746f72793a207472616e7366657220746f207a65726f0000000000604482015290519081900360640190fd5b60006122c98783612a16565b90506122d485612f03565b156122eb576122e687878787856143ed565b61234a565b6122f485612982565b1561181a5761230887878787856000614560565b84866001600160a01b0316886001600160a01b03167fddf252ad1be2c89b69c2b068fc378daa952ba7f163c4a11628f55a4df523b3ef60405160405180910390a45b856001600160a01b0316876001600160a01b0316836001600160a01b03167fc3d58168c5ae7397731d063d5bbf3d657854427343f4c083240f7aacaa2d0f628888604051808381526020018281526020019250505060405180910390a46123b9866001600160a01b03166146f5565b156123cb576123cb87878787876146fb565b50505050505050565b60006123de612a12565b905060006123ec8483612a16565b835190915060008167ffffffffffffffff8111801561240a57600080fd5b50604051908082528060200260200182016040528015612434578160200160208202803683370190505b50905060008060005b84811461251c57600088828151811061245257fe5b60200260200101519050600185838151811061246a57fe5b6020026020010181815250506124978a8287858151811061248757fe5b60200260200101518a6001613085565b60405181906000906001600160a01b038d16907fddf252ad1be2c89b69c2b068fc378daa952ba7f163c4a11628f55a4df523b3ef908390a460006124da82613ec1565b9050846124ed5780945060019350612512565b84811461250b576124ff8b8686613ece565b80945060019350612512565b8360010193505b505060010161243d565b50811561254e5761252e888383613ece565b6001600160a01b0388166000908152600760205260409020805485900390555b60006001600160a01b0316886001600160a01b0316876001600160a01b03167f4a39dc06d4c0dbc64b70af90fd698a233a518aa5d07e595d983b8c0526c8f7fb8a87604051808060200180602001838103835285818151815260200191508051906020019060200280838360005b838110156125d45781810151838201526020016125bc565b50505050905001838103825284818151815260200191508051906020019060200280838360005b838110156126135781810151838201526020016125fb565b5050505090500194505050505060405180910390a45050505050505050565b61263d611ba4612a12565b6009805473ffffffffffffffffffffffffffffffffffffffff19166001600160a01b0383811691821792839055604051919216907f8be0079c531659141344cd1fd0a4f28419497f9722a3daafe3b4186f6b6457e090600090a350565b6001600160a01b0382166126f5576040805162461bcd60e51b815260206004820152601b60248201527f496e76656e746f72793a207472616e7366657220746f207a65726f0000000000604482015290519081900360640190fd5b60006126ff612a12565b9050600061270d8583612a16565b835190915060008167ffffffffffffffff8111801561272b57600080fd5b50604051908082528060200260200182016040528015612755578160200160208202803683370190505b50905060008060005b84811461283657600088828151811061277357fe5b60200260200101519050600185838151811061278b57fe5b6020026020010181815250506127a78b8b8360018b6001614560565b808a6001600160a01b03168c6001600160a01b03167fddf252ad1be2c89b69c2b068fc378daa952ba7f163c4a11628f55a4df523b3ef60405160405180910390a460006127f382613ec1565b905084612806578094506001935061282c565b848114612825576128198c8c8787614885565b8094506001935061282c565b8360010193505b505060010161275e565b5081156128545761284989898484614885565b6128548989866148d9565b876001600160a01b0316896001600160a01b0316612870612a12565b6001600160a01b03167f4a39dc06d4c0dbc64b70af90fd698a233a518aa5d07e595d983b8c0526c8f7fb8a87604051808060200180602001838103835285818151815260200191508051906020019060200280838360005b838110156128e05781810151838201526020016128c8565b50505050905001838103825284818151815260200191508051906020019060200280838360005b8381101561291f578181015183820152602001612907565b5050505090500194505050505060405180910390a4612946886001600160a01b03166146f5565b8015612956575061295688614924565b156129775761297789898986604051806020016040528060008152506149ec565b505050505050505050565b60007f80000000000000000000000000000000000000000000000000000000000000008216158015906114cc5750507bffffffffffffffffffffffffffffffffffffffffffffffffffffffff16151590565b60006001600160e01b031982167f6059f1b40000000000000000000000000000000000000000000000000000000014806114cc57506114cc82614b6a565b3390565b6000816001600160a01b0316836001600160a01b03161480612a5b57506001600160a01b038084166000908152602081815260408083209386168352929052205460ff165b9392505050565b6001600160a01b0381166000908152600b602052604090205460ff16611f53576040805162461bcd60e51b815260206004820152601860248201527f4d696e746572526f6c653a206e6f742061204d696e7465720000000000000000604482015290519081900360640190fd5b6001600160a01b038416612b2a576040805162461bcd60e51b815260206004820152601760248201527f496e76656e746f72793a206d696e7420746f207a65726f000000000000000000604482015290519081900360640190fd5b825182518114612b81576040805162461bcd60e51b815260206004820152601e60248201527f496e76656e746f72793a20696e636f6e73697374656e74206172726179730000604482015290519081900360640190fd5b6000806000805b848114612cde576000888281518110612b9d57fe5b602002602001015190506000888381518110612bb557fe5b60200260200101519050612bc882612f03565b15612bdd57612bd88b8383614c10565b612cd4565b612be682612982565b1561181a57612bf88b83836001614d02565b60405182906001600160a01b038d16906000907fddf252ad1be2c89b69c2b068fc378daa952ba7f163c4a11628f55a4df523b3ef908290a46000612c3b83613ec1565b905086612c4e5780965060019550612cd2565b868114612ccb57856001600089815260200190815260200160002060008e6001600160a01b03166001600160a01b0316815260200190815260200160002060008282540192505081905550856002600089815260200190815260200160002060008282540192505081905550809650858501945060019550612cd2565b8560010195505b505b5050600101612b88565b508215612d335760008381526001602090815260408083206001600160a01b038c1680855290835281842080548701905586845260028352818420805487019055835260079091529020805491830191820190555b6001600160a01b0388166000612d47612a12565b6001600160a01b03167f4a39dc06d4c0dbc64b70af90fd698a233a518aa5d07e595d983b8c0526c8f7fb8a8a604051808060200180602001838103835285818151815260200191508051906020019060200280838360005b83811015612db7578181015183820152602001612d9f565b50505050905001838103825284818151815260200191508051906020019060200280838360005b83811015612df6578181015183820152602001612dde565b5050505090500194505050505060405180910390a4612e1d886001600160a01b03166146f5565b15612220576122206000898989896149ec565b6060600a612e3d83614e30565b6040516020018083805460018160011615610100020316600290048015612e9b5780601f10612e79576101008083540402835291820191612e9b565b820191906000526020600020905b815481529060010190602001808311612e87575b5050825160208401908083835b60208310612ec75780518252601f199092019160209182019101612ea8565b6001836020036101000a038019825116818451168082178552505050505050905001925050506040516020818303038152906040529050919050565b7f8000000000000000000000000000000000000000000000000000000000000000161590565b81612f7b576040805162461bcd60e51b815260206004820152601560248201527f496e76656e746f72793a207a65726f2076616c75650000000000000000000000604482015290519081900360640190fd5b80612fcd576040805162461bcd60e51b815260206004820152601e60248201527f496e76656e746f72793a206e6f6e2d617070726f7665642073656e6465720000604482015290519081900360640190fd5b60008381526001602090815260408083206001600160a01b038816845290915290205482811015613045576040805162461bcd60e51b815260206004820152601d60248201527f496e76656e746f72793a206e6f7420656e6f7567682062616c616e6365000000604482015290519081900360640190fd5b60008481526001602090815260408083206001600160a01b0390981683529681528682209285900390925593845260029052509190208054919091039055565b826001146130da576040805162461bcd60e51b815260206004820152601a60248201527f496e76656e746f72793a2077726f6e67204e46542076616c7565000000000000604482015290519081900360640190fd5b6000848152600360205260409020546001600160a01b0386811690821614613149576040805162461bcd60e51b815260206004820152601860248201527f496e76656e746f72793a206e6f6e2d6f776e6564204e46540000000000000000604482015290519081900360640190fd5b826131da57600160a01b81161580159061318957506000858152600860205260409020546001600160a01b031661317e612a12565b6001600160a01b0316145b6131da576040805162461bcd60e51b815260206004820152601e60248201527f496e76656e746f72793a206e6f6e2d617070726f7665642073656e6465720000604482015290519081900360640190fd5b60008581526003602052604090207fdead000000000000000000000000000000000000000000000000000000000000905581613245576132248661321d87613ec1565b6001613ece565b6001600160a01b038616600090815260076020526040902080546000190190555b505050505050565b6001600160a01b0384166132a8576040805162461bcd60e51b815260206004820152601b60248201527f496e76656e746f72793a207472616e7366657220746f207a65726f0000000000604482015290519081900360640190fd5b60006132b2612a12565b905060006132c08783612a16565b90506132d28787876001856000614560565b84866001600160a01b0316886001600160a01b03167fddf252ad1be2c89b69c2b068fc378daa952ba7f163c4a11628f55a4df523b3ef60405160405180910390a4856001600160a01b0316876001600160a01b0316836001600160a01b03167fc3d58168c5ae7397731d063d5bbf3d657854427343f4c083240f7aacaa2d0f62886001604051808381526020018281526020019250505060405180910390a4613383866001600160a01b03166146f5565b156123cb5761339186614924565b156133a9576133a48787876001886146fb565b6123cb565b82156123cb576123cb87878787614f3f565b6001600160a01b038416613416576040805162461bcd60e51b815260206004820152601b60248201527f496e76656e746f72793a207472616e7366657220746f207a65726f0000000000604482015290519081900360640190fd5b82518251811461346d576040805162461bcd60e51b815260206004820152601e60248201527f496e76656e746f72793a20696e636f6e73697374656e74206172726179730000604482015290519081900360640190fd5b6000613477612a12565b905060006134858883612a16565b90506000806000805b8681146135a45760008a82815181106134a357fe5b602002602001015190506134b681612f03565b156134e0576134db8d8d838d86815181106134cd57fe5b60200260200101518a6143ed565b61359b565b6134e981612982565b1561181a576135108d8d838d868151811061350057fe5b60200260200101518a6001614560565b808c6001600160a01b03168e6001600160a01b03167fddf252ad1be2c89b69c2b068fc378daa952ba7f163c4a11628f55a4df523b3ef60405160405180910390a4600061355c82613ec1565b90508561356f5780955060019450613599565b858114613592576135828e8e8888614885565b9450600193929092019184613599565b8460010194505b505b5060010161348e565b5082156135c4576135b78b8b8585614885565b81016135c48b8b836148d9565b896001600160a01b03168b6001600160a01b03166135e0612a12565b6001600160a01b03167f4a39dc06d4c0dbc64b70af90fd698a233a518aa5d07e595d983b8c0526c8f7fb8c8c604051808060200180602001838103835285818151815260200191508051906020019060200280838360005b83811015613650578181015183820152602001613638565b50505050905001838103825284818151815260200191508051906020019060200280838360005b8381101561368f578181015183820152602001613677565b5050505090500194505050505060405180910390a46136b68a6001600160a01b03166146f5565b156136c8576136c88b8b8b8b8b6149ec565b5050505050505050505050565b6001600160a01b038416613730576040805162461bcd60e51b815260206004820152601760248201527f496e76656e746f72793a206d696e7420746f207a65726f000000000000000000604482015290519081900360640190fd5b61373983612982565b61378a576040805162461bcd60e51b815260206004820152601560248201527f496e76656e746f72793a206e6f7420616e204e46540000000000000000000000604482015290519081900360640190fd5b613798848460016000614d02565b60405183906001600160a01b038616906000907fddf252ad1be2c89b69c2b068fc378daa952ba7f163c4a11628f55a4df523b3ef908290a46001600160a01b03841660006137e4612a12565b6001600160a01b03167fc3d58168c5ae7397731d063d5bbf3d657854427343f4c083240f7aacaa2d0f62866001604051808381526020018281526020019250505060405180910390a461383f846001600160a01b03166146f5565b156117775761384d84614924565b1561386657613861600085856001866146fb565b611777565b8015611777576117776000858585614f3f565b6001600160a01b0382166138d4576040805162461bcd60e51b815260206004820152601760248201527f496e76656e746f72793a206d696e7420746f207a65726f000000000000000000604482015290519081900360640190fd5b805160008167ffffffffffffffff811180156138ef57600080fd5b50604051908082528060200260200182016040528015613919578160200160208202803683370190505b50905060008060005b848114613a7357600086828151811061393757fe5b6020026020010151905061394a81612982565b61399b576040805162461bcd60e51b815260206004820152601560248201527f496e76656e746f72793a206e6f7420616e204e46540000000000000000000000604482015290519081900360640190fd5b60018583815181106139a957fe5b6020026020010181815250506139c28882600180614d02565b60405181906001600160a01b038a16906000907fddf252ad1be2c89b69c2b068fc378daa952ba7f163c4a11628f55a4df523b3ef908290a46000613a0582613ec1565b905084613a185780945060019350613a69565b848114613a625760008581526001602081815260408084206001600160a01b038e168552825280842080548901905597835260029052959020805490940190935591929183613a69565b8360010193505b5050600101613922565b5060008281526001602090815260408083206001600160a01b038a16808552908352818420805486019055858452600283528184208054860190558084526007909252822080548701905590613ac7612a12565b6001600160a01b03167f4a39dc06d4c0dbc64b70af90fd698a233a518aa5d07e595d983b8c0526c8f7fb8887604051808060200180602001838103835285818151815260200191508051906020019060200280838360005b83811015613b37578181015183820152602001613b1f565b50505050905001838103825284818151815260200191508051906020019060200280838360005b83811015613b76578181015183820152602001613b5e565b5050505090500194505050505060405180910390a4613b9d866001600160a01b03166146f5565b8015613bad5750613bad86614924565b15613245576132456000878786604051806020016040528060008152506149ec565b6000613bda82612982565b15613c2c576040805162461bcd60e51b815260206004820152601b60248201527f496e76656e746f72793a206e6f74206120636f6c6c656374696f6e0000000000604482015290519081900360640190fd5b506000908152600460205260409020546001600160a01b031690565b6001600160a01b038416613ca3576040805162461bcd60e51b815260206004820152601760248201527f496e76656e746f72793a206d696e7420746f207a65726f000000000000000000604482015290519081900360640190fd5b6000613cad612a12565b9050613cb884612f03565b15613ccd57613cc8858585614c10565b613d21565b613cd684612982565b1561181a57613ce88585856000614d02565b60405184906001600160a01b038716906000907fddf252ad1be2c89b69c2b068fc378daa952ba7f163c4a11628f55a4df523b3ef908290a45b604080518581526020810185905281516001600160a01b0380891693600093918616927fc3d58168c5ae7397731d063d5bbf3d657854427343f4c083240f7aacaa2d0f629281900390910190a4613d80856001600160a01b03166146f5565b156118fb576118fb6000868686866146fb565b6000818152600360205260408120546001600160a01b0381166114cc576040805162461bcd60e51b815260206004820152601b60248201527f496e76656e746f72793a206e6f6e2d6578697374696e67204e46540000000000604482015290519081900360640190fd5b306001600160a01b0316638da5cb5b6040518163ffffffff1660e01b815260040160206040518083038186803b158015613e3657600080fd5b505afa158015613e4a573d6000803e3d6000fd5b505050506040513d6020811015613e6057600080fd5b50516001600160a01b03828116911614611f53576040805162461bcd60e51b815260206004820152601660248201527f4f776e61626c653a206e6f7420746865206f776e657200000000000000000000604482015290519081900360640190fd5b6001600160e01b03191690565b60008281526001602090815260408083206001600160a01b0390961683529481528482208054849003905592815260029092529190208054919091039055565b6001600160a01b0381166000818152600b6020526040808220805460ff19166001179055517f6ae172837ea30b801fbfcdd4108aa1d5bf8ff775444fd70256b44e6bf3dfc3f69190a250565b613f6381612982565b15613fb5576040805162461bcd60e51b815260206004820152601b60248201527f496e76656e746f72793a206e6f74206120636f6c6c656374696f6e0000000000604482015290519081900360640190fd5b6000818152600460205260409020546001600160a01b03161561401f576040805162461bcd60e51b815260206004820152601e60248201527f496e76656e746f72793a206578697374696e6720636f6c6c656374696f6e0000604482015290519081900360640190fd5b614027612a12565b6000828152600460205260409020805473ffffffffffffffffffffffffffffffffffffffff19166001600160a01b039290921691909117905561406981612f03565b1515817f4ebf8ad0df535ba5e487bc9cb27fe44120ca81c3a95d3eba79c0bd1df2ab2d5d60405160405180910390a350565b8685811480156140aa57508084145b6140fb576040805162461bcd60e51b815260206004820152601e60248201527f496e76656e746f72793a20696e636f6e73697374656e74206172726179730000604482015290519081900360640190fd5b6000614105612a12565b905060005b8281146136c85760008b8b8381811061411f57fe5b905060200201356001600160a01b0316905060006001600160a01b0316816001600160a01b03161415614199576040805162461bcd60e51b815260206004820152601760248201527f496e76656e746f72793a206d696e7420746f207a65726f000000000000000000604482015290519081900360640190fd5b60008a8a848181106141a757fe5b90506020020135905060008989858181106141be57fe5b9050602002013590506141d082612f03565b1561428d576141e0838383614c10565b604080518381526020810183905281516001600160a01b0380871693600093918a16927fc3d58168c5ae7397731d063d5bbf3d657854427343f4c083240f7aacaa2d0f629281900390910190a461423f836001600160a01b03166146f5565b156142885761428860008484848c8c8080601f0160208091040260200160405190810160405280939291908181526020018383808284376000920191909152506146fb92505050565b6143df565b61429682612982565b1561181a576142a88383836000614d02565b60405182906001600160a01b038516906000907fddf252ad1be2c89b69c2b068fc378daa952ba7f163c4a11628f55a4df523b3ef908290a4604080518381526001602082015281516001600160a01b0380871693600093918a16927fc3d58168c5ae7397731d063d5bbf3d657854427343f4c083240f7aacaa2d0f629281900390910190a461433f836001600160a01b03166146f5565b156142885761434d83614924565b1561439c576143976000848460018c8c8080601f0160208091040260200160405190810160405280939291908181526020018383808284376000920191909152506146fb92505050565b614288565b614288600084848b8b8080601f016020809104026020016040519081016040528093929190818152602001838380828437600092019190915250614f3f92505050565b50505080600101905061410a565b8061443f576040805162461bcd60e51b815260206004820152601e60248201527f496e76656e746f72793a206e6f6e2d617070726f7665642073656e6465720000604482015290519081900360640190fd5b81614491576040805162461bcd60e51b815260206004820152601560248201527f496e76656e746f72793a207a65726f2076616c75650000000000000000000000604482015290519081900360640190fd5b60008381526001602090815260408083206001600160a01b038916845290915290205482811015614509576040805162461bcd60e51b815260206004820152601d60248201527f496e76656e746f72793a206e6f7420656e6f7567682062616c616e6365000000604482015290519081900360640190fd5b846001600160a01b0316866001600160a01b0316146132455760009384526001602090815260408086206001600160a01b039889168752909152808520918490039091559390941682529190208054909101905550565b826001146145b5576040805162461bcd60e51b815260206004820152601a60248201527f496e76656e746f72793a2077726f6e67204e46542076616c7565000000000000604482015290519081900360640190fd5b6000848152600360205260409020546001600160a01b0387811690821614614624576040805162461bcd60e51b815260206004820152601860248201527f496e76656e746f72793a206e6f6e2d6f776e6564204e46540000000000000000604482015290519081900360640190fd5b826146b557600160a01b81161580159061466457506000858152600860205260409020546001600160a01b0316614659612a12565b6001600160a01b0316145b6146b5576040805162461bcd60e51b815260206004820152601e60248201527f496e76656e746f72793a206e6f6e2d617070726f7665642073656e6465720000604482015290519081900360640190fd5b60008581526003602052604090206001600160a01b0387169055816123cb576146e0878760016148d9565b6123cb87876146ee88613ec1565b6001614885565b3b151590565b7ff23a6e61000000000000000000000000000000000000000000000000000000006001600160a01b03851663f23a6e61614733612a12565b888787876040518663ffffffff1660e01b815260040180866001600160a01b03168152602001856001600160a01b0316815260200184815260200183815260200180602001828103825283818151815260200191508051906020019080838360005b838110156147ad578181015183820152602001614795565b50505050905090810190601f1680156147da5780820380516001836020036101000a031916815260200191505b509650505050505050602060405180830381600087803b1580156147fd57600080fd5b505af1158015614811573d6000803e3d6000fd5b505050506040513d602081101561482757600080fd5b50516001600160e01b031916146118fb576040805162461bcd60e51b815260206004820152601b60248201527f496e76656e746f72793a207472616e7366657220726566757365640000000000604482015290519081900360640190fd5b826001600160a01b0316846001600160a01b0316146117775760009182526001602090815260408084206001600160a01b039687168552909152808320805483900390559290931681522080549091019055565b816001600160a01b0316836001600160a01b0316146118e9576001600160a01b0380841660009081526007602052604080822080548590039055918416815220805482019055505050565b604080517f4e2312e0000000000000000000000000000000000000000000000000000000006024808301919091528251808303909101815260449091018252602081810180517bffffffffffffffffffffffffffffffffffffffffffffffffffffffff167f01ffc9a7000000000000000000000000000000000000000000000000000000001781528251935160008082529485948594909392908183858b612710fa955080519450505050609e5a116149d957fe5b8280156149e35750815b95945050505050565b7fbc197c81000000000000000000000000000000000000000000000000000000006001600160a01b03851663bc197c81614a24612a12565b888787876040518663ffffffff1660e01b815260040180866001600160a01b03168152602001856001600160a01b03168152602001806020018060200180602001848103845287818151815260200191508051906020019060200280838360005b83811015614a9d578181015183820152602001614a85565b50505050905001848103835286818151815260200191508051906020019060200280838360005b83811015614adc578181015183820152602001614ac4565b50505050905001848103825285818151815260200191508051906020019080838360005b83811015614b18578181015183820152602001614b00565b50505050905090810190601f168015614b455780820380516001836020036101000a031916815260200191505b5098505050505050505050602060405180830381600087803b1580156147fd57600080fd5b60006001600160e01b031982167f80ac58cd000000000000000000000000000000000000000000000000000000001480614bcd57506001600160e01b031982167f5b5e139f00000000000000000000000000000000000000000000000000000000145b80614c0157506001600160e01b031982167ff3993d1100000000000000000000000000000000000000000000000000000000145b806114cc57506114cc826150c1565b80614c62576040805162461bcd60e51b815260206004820152601560248201527f496e76656e746f72793a207a65726f2076616c75650000000000000000000000604482015290519081900360640190fd5b600082815260026020526040902054818101818111614cc8576040805162461bcd60e51b815260206004820152601a60248201527f496e76656e746f72793a20737570706c79206f766572666c6f77000000000000604482015290519081900360640190fd5b600093845260026020908152604080862092909255600181528185206001600160a01b039096168552949094525091902080549091019055565b81600114614d57576040805162461bcd60e51b815260206004820152601a60248201527f496e76656e746f72793a2077726f6e67204e46542076616c7565000000000000604482015290519081900360640190fd5b60008381526003602052604090205415614db8576040805162461bcd60e51b815260206004820152601d60248201527f496e76656e746f72793a206578697374696e672f6275726e74204e4654000000604482015290519081900360640190fd5b60008381526003602052604090206001600160a01b038516905580611777576000614de284613ec1565b6000908152600260209081526040808320805460019081019091558083528184206001600160a01b038a16855283528184208054820190556007909252909120805490910190555050505050565b606081614e71575060408051808201909152600181527f300000000000000000000000000000000000000000000000000000000000000060208201526114cf565b8160005b8115614e8957600101600a82049150614e75565b60008167ffffffffffffffff81118015614ea257600080fd5b506040519080825280601f01601f191660200182016040528015614ecd576020820181803683370190505b50859350905060001982015b8315614f3657600a840660300160f81b82828060019003935081518110614efc57fe5b60200101907effffffffffffffffffffffffffffffffffffffffffffffffffffffffffffff1916908160001a905350600a84049350614ed9565b50949350505050565b7f150b7a02000000000000000000000000000000000000000000000000000000006001600160a01b03841663150b7a02614f77612a12565b8786866040518563ffffffff1660e01b815260040180856001600160a01b03168152602001846001600160a01b0316815260200183815260200180602001828103825283818151815260200191508051906020019080838360005b83811015614fea578181015183820152602001614fd2565b50505050905090810190601f1680156150175780820380516001836020036101000a031916815260200191505b5095505050505050602060405180830381600087803b15801561503957600080fd5b505af115801561504d573d6000803e3d6000fd5b505050506040513d602081101561506357600080fd5b50516001600160e01b03191614611777576040805162461bcd60e51b815260206004820152601b60248201527f496e76656e746f72793a207472616e7366657220726566757365640000000000604482015290519081900360640190fd5b60006001600160e01b031982167f01ffc9a700000000000000000000000000000000000000000000000000000000148061512457506001600160e01b031982167fd9b67a2600000000000000000000000000000000000000000000000000000000145b8061515857506001600160e01b031982167f0e89341c00000000000000000000000000000000000000000000000000000000145b8061518c57506001600160e01b031982167f09ce5c4600000000000000000000000000000000000000000000000000000000145b806114cc5750506001600160e01b0319167fbd85b039000000000000000000000000000000000000000000000000000000001490565b828054600181600116156101000203166002900490600052602060002090601f0160209004810192826151f8576000855561523e565b82601f106152115782800160ff1982351617855561523e565b8280016001018555821561523e579182015b8281111561523e578235825591602001919060010190615223565b5061524a92915061524e565b5090565b5b8082111561524a576000815560010161524f56fea2646970667358221220396bb6d55618251d53a78888477876a4fa7b1e072902c601caf4933df7715b8164736f6c63430007060033",
  "linkReferences": {},
  "deployedLinkReferences": {}
}