{
  "_format": "hh-sol-artifact-1",
  "contractName": "ERC721RentalMarket",
  "sourceName": "contracts/token/utils/ERC721RentalMarket.sol",
  "abi": [
    {
      "inputs": [
        {
          "internalType": "contract IForwarderRegistry",
          "name": "forwarderRegistry",
          "type": "address"
        },
        {
          "internalType": "address",
          "name": "universalForwarder",
          "type": "address"
        },
        {
          "internalType": "address",
          "name": "nftContract",
          "type": "address"
        },
        {
          "internalType": "uint256",
          "name": "periodInSeconds",
          "type": "uint256"
        },
        {
          "internalType": "address payable",
          "name": "operator",
          "type": "address"
        },
        {
          "internalType": "uint256",
          "name": "operatorShare",
          "type": "uint256"
        }
      ],
      "stateMutability": "nonpayable",
      "type": "constructor"
    },
    {
      "anonymous": false,
      "inputs": [
        {
          "indexed": false,
          "internalType": "address",
          "name": "from",
          "type": "address"
        },
        {
          "indexed": false,
          "internalType": "address",
          "name": "to",
          "type": "address"
        },
        {
          "indexed": false,
          "internalType": "uint256[]",
          "name": "tokenIds",
          "type": "uint256[]"
        },
        {
          "indexed": false,
          "internalType": "bytes",
          "name": "delegationData",
          "type": "bytes"
        }
      ],
      "name": "BatchDelegated",
      "type": "event"
    },
    {
      "anonymous": false,
      "inputs": [
        {
          "indexed": false,
          "internalType": "address",
          "name": "from",
          "type": "address"
        },
        {
          "indexed": false,
          "internalType": "address",
          "name": "to",
          "type": "address"
        },
        {
          "indexed": false,
          "internalType": "uint256",
          "name": "tokenId",
          "type": "uint256"
        },
        {
          "indexed": false,
          "internalType": "bytes",
          "name": "delegationData",
          "type": "bytes"
        }
      ],
      "name": "Delegated",
      "type": "event"
    },
    {
      "anonymous": false,
      "inputs": [
        {
          "indexed": true,
          "internalType": "address",
          "name": "previousOwner",
          "type": "address"
        },
        {
          "indexed": true,
          "internalType": "address",
          "name": "newOwner",
          "type": "address"
        }
      ],
      "name": "OwnershipTransferred",
      "type": "event"
    },
    {
      "anonymous": false,
      "inputs": [
        {
          "indexed": false,
          "internalType": "address",
          "name": "account",
          "type": "address"
        }
      ],
      "name": "Paused",
      "type": "event"
    },
    {
      "anonymous": false,
      "inputs": [
        {
          "indexed": false,
          "internalType": "address",
          "name": "payoutWallet_",
          "type": "address"
        }
      ],
      "name": "PayoutWalletSet",
      "type": "event"
    },
    {
      "anonymous": false,
      "inputs": [
        {
          "indexed": false,
          "internalType": "address",
          "name": "account",
          "type": "address"
        }
      ],
      "name": "Unpaused",
      "type": "event"
    },
    {
      "inputs": [],
      "name": "NATIVE_CURRENCY",
      "outputs": [
        {
          "internalType": "address",
          "name": "",
          "type": "address"
        }
      ],
      "stateMutability": "view",
      "type": "function"
    },
    {
      "inputs": [],
      "name": "NFT_CONTRACT",
      "outputs": [
        {
          "internalType": "address",
          "name": "",
          "type": "address"
        }
      ],
      "stateMutability": "view",
      "type": "function"
    },
    {
      "inputs": [],
      "name": "OPERATOR_SHARE",
      "outputs": [
        {
          "internalType": "uint256",
          "name": "",
          "type": "uint256"
        }
      ],
      "stateMutability": "view",
      "type": "function"
    },
    {
      "inputs": [],
      "name": "PERIOD_IN_SECONDS",
      "outputs": [
        {
          "internalType": "uint256",
          "name": "",
          "type": "uint256"
        }
      ],
      "stateMutability": "view",
      "type": "function"
    },
    {
      "inputs": [
        {
          "internalType": "address[]",
          "name": "tokens",
          "type": "address[]"
        }
      ],
      "name": "addWhitelistedCurrencies",
      "outputs": [],
      "stateMutability": "nonpayable",
      "type": "function"
    },
    {
      "inputs": [
        {
          "internalType": "uint256[]",
          "name": "tokenIds",
          "type": "uint256[]"
        }
      ],
      "name": "batchClaimPayout",
      "outputs": [],
      "stateMutability": "nonpayable",
      "type": "function"
    },
    {
      "inputs": [
        {
          "internalType": "uint256[]",
          "name": "tokenIds",
          "type": "uint256[]"
        }
      ],
      "name": "batchWithdrawToken",
      "outputs": [],
      "stateMutability": "nonpayable",
      "type": "function"
    },
    {
      "inputs": [
        {
          "internalType": "uint256",
          "name": "tokenId",
          "type": "uint256"
        }
      ],
      "name": "cancelLeaseAsLessee",
      "outputs": [],
      "stateMutability": "nonpayable",
      "type": "function"
    },
    {
      "inputs": [
        {
          "internalType": "uint256",
          "name": "tokenId",
          "type": "uint256"
        }
      ],
      "name": "claimPayout",
      "outputs": [],
      "stateMutability": "nonpayable",
      "type": "function"
    },
    {
      "inputs": [
        {
          "internalType": "uint256",
          "name": "tokenId",
          "type": "uint256"
        }
      ],
      "name": "delegationInfo",
      "outputs": [
        {
          "internalType": "address",
          "name": "from",
          "type": "address"
        },
        {
          "internalType": "address",
          "name": "to",
          "type": "address"
        },
        {
          "internalType": "bytes",
          "name": "delegationData",
          "type": "bytes"
        }
      ],
      "stateMutability": "view",
      "type": "function"
    },
    {
      "inputs": [
        {
          "internalType": "address",
          "name": "",
          "type": "address"
        }
      ],
      "name": "escrowedERC20s",
      "outputs": [
        {
          "internalType": "uint256",
          "name": "",
          "type": "uint256"
        }
      ],
      "stateMutability": "view",
      "type": "function"
    },
    {
      "inputs": [
        {
          "internalType": "address",
          "name": "forwarder",
          "type": "address"
        }
      ],
      "name": "isTrustedForwarder",
      "outputs": [
        {
          "internalType": "bool",
          "name": "",
          "type": "bool"
        }
      ],
      "stateMutability": "view",
      "type": "function"
    },
    {
      "inputs": [
        {
          "internalType": "uint256",
          "name": "",
          "type": "uint256"
        }
      ],
      "name": "leases",
      "outputs": [
        {
          "internalType": "address payable",
          "name": "lessee",
          "type": "address"
        },
        {
          "internalType": "uint256",
          "name": "startDate",
          "type": "uint256"
        },
        {
          "internalType": "uint256",
          "name": "duration",
          "type": "uint256"
        },
        {
          "internalType": "uint256",
          "name": "paid",
          "type": "uint256"
        }
      ],
      "stateMutability": "view",
      "type": "function"
    },
    {
      "inputs": [
        {
          "internalType": "uint256",
          "name": "",
          "type": "uint256"
        }
      ],
      "name": "listings",
      "outputs": [
        {
          "internalType": "address payable",
          "name": "owner",
          "type": "address"
        },
        {
          "internalType": "address payable",
          "name": "designatedLessee",
          "type": "address"
        },
        {
          "internalType": "address",
          "name": "currency",
          "type": "address"
        },
        {
          "internalType": "uint256",
          "name": "price",
          "type": "uint256"
        },
        {
          "internalType": "uint256",
          "name": "minimumDuration",
          "type": "uint256"
        },
        {
          "internalType": "bytes",
          "name": "delegationData",
          "type": "bytes"
        }
      ],
      "stateMutability": "view",
      "type": "function"
    },
    {
      "inputs": [
        {
          "internalType": "address",
          "name": "",
          "type": "address"
        },
        {
          "internalType": "address",
          "name": "from",
          "type": "address"
        },
        {
          "internalType": "uint256",
          "name": "tokenId",
          "type": "uint256"
        },
        {
          "internalType": "bytes",
          "name": "data",
          "type": "bytes"
        }
      ],
      "name": "onERC721Received",
      "outputs": [
        {
          "internalType": "bytes4",
          "name": "",
          "type": "bytes4"
        }
      ],
      "stateMutability": "nonpayable",
      "type": "function"
    },
    {
      "inputs": [],
      "name": "owner",
      "outputs": [
        {
          "internalType": "address",
          "name": "",
          "type": "address"
        }
      ],
      "stateMutability": "view",
      "type": "function"
    },
    {
      "inputs": [],
      "name": "pause",
      "outputs": [],
      "stateMutability": "nonpayable",
      "type": "function"
    },
    {
      "inputs": [],
      "name": "paused",
      "outputs": [
        {
          "internalType": "bool",
          "name": "",
          "type": "bool"
        }
      ],
      "stateMutability": "view",
      "type": "function"
    },
    {
      "inputs": [],
      "name": "payoutWallet",
      "outputs": [
        {
          "internalType": "address payable",
          "name": "",
          "type": "address"
        }
      ],
      "stateMutability": "view",
      "type": "function"
    },
    {
      "inputs": [
        {
          "internalType": "address[]",
          "name": "accounts",
          "type": "address[]"
        },
        {
          "internalType": "address[]",
          "name": "tokens",
          "type": "address[]"
        },
        {
          "internalType": "uint256[]",
          "name": "amounts",
          "type": "uint256[]"
        }
      ],
      "name": "recoverERC20s",
      "outputs": [],
      "stateMutability": "nonpayable",
      "type": "function"
    },
    {
      "inputs": [
        {
          "internalType": "address[]",
          "name": "accounts",
          "type": "address[]"
        },
        {
          "internalType": "address[]",
          "name": "contracts",
          "type": "address[]"
        },
        {
          "internalType": "uint256[]",
          "name": "tokenIds",
          "type": "uint256[]"
        }
      ],
      "name": "recoverERC721s",
      "outputs": [],
      "stateMutability": "nonpayable",
      "type": "function"
    },
    {
      "inputs": [
        {
          "internalType": "uint256",
          "name": "tokenId",
          "type": "uint256"
        },
        {
          "internalType": "uint256",
          "name": "duration",
          "type": "uint256"
        }
      ],
      "name": "rent",
      "outputs": [],
      "stateMutability": "nonpayable",
      "type": "function"
    },
    {
      "inputs": [
        {
          "internalType": "address payable",
          "name": "payoutWallet_",
          "type": "address"
        }
      ],
      "name": "setPayoutWallet",
      "outputs": [],
      "stateMutability": "nonpayable",
      "type": "function"
    },
    {
      "inputs": [
        {
          "internalType": "bytes4",
          "name": "interfaceId",
          "type": "bytes4"
        }
      ],
      "name": "supportsInterface",
      "outputs": [
        {
          "internalType": "bool",
          "name": "",
          "type": "bool"
        }
      ],
      "stateMutability": "view",
      "type": "function"
    },
    {
      "inputs": [
        {
          "internalType": "address",
          "name": "newOwner",
          "type": "address"
        }
      ],
      "name": "transferOwnership",
      "outputs": [],
      "stateMutability": "nonpayable",
      "type": "function"
    },
    {
      "inputs": [],
      "name": "unpause",
      "outputs": [],
      "stateMutability": "nonpayable",
      "type": "function"
    },
    {
      "inputs": [
        {
          "internalType": "uint256",
          "name": "tokenId",
          "type": "uint256"
        },
        {
          "internalType": "address",
          "name": "currency",
          "type": "address"
        },
        {
          "internalType": "uint256",
          "name": "price",
          "type": "uint256"
        },
        {
          "internalType": "uint256",
          "name": "minimumDuration",
          "type": "uint256"
        }
      ],
      "name": "updateListing",
      "outputs": [],
      "stateMutability": "nonpayable",
      "type": "function"
    },
    {
      "inputs": [
        {
          "internalType": "address",
          "name": "",
          "type": "address"
        }
      ],
      "name": "whitelistedCurrencies",
      "outputs": [
        {
          "internalType": "bool",
          "name": "",
          "type": "bool"
        }
      ],
      "stateMutability": "view",
      "type": "function"
    },
    {
      "inputs": [
        {
          "internalType": "uint256",
          "name": "tokenId",
          "type": "uint256"
        }
      ],
      "name": "withdrawToken",
      "outputs": [],
      "stateMutability": "nonpayable",
      "type": "function"
    }
  ],
  "bytecode": "0x61012060405234801561001157600080fd5b50604051620036a5380380620036a5833981810160405260c081101561003657600080fd5b50805160208201516040808401516060850151608086015160a090960151600080546001600160a01b03191633908117825594519697959693959294929391928892889288928892889288928892889286918390819083907f8be0079c531659141344cd1fd0a4f28419497f9722a3daafe3b4186f6b6457e0908290a35060008054911515600160a01b0260ff60a01b199092169190911790556001600160a01b03811661012b576040805162461bcd60e51b815260206004820152601460248201527f5061796f75743a207a65726f2061646472657373000000000000000000000000604482015290519081900360640190fd5b600180546001600160a01b0383166001600160a01b0319909116811790915560408051918252517fdd880d24a789958a6398c99c2e54ce31bc10a638cbc42f7dd34285479ae0f8559181900360200190a150506001600160601b0319606091821b811660a05291811b82166080529490941b90931660c0525060e05261010052505050505050505060805160601c60a05160601c60c05160601c60e051610100516134636200024260003980610cd9528061326b525080610af152806110cb52806117335280611ae85280611e6152806121bc528061295b525080610b285280610cb55280610d645280610e455280611f91525080610eeb5280612ef1525080610f265280612eb65280612f4952506134636000f3fe608060405234801561001057600080fd5b50600436106101cf5760003560e01c80636b8f9c4311610104578063889692b7116100a2578063c3666c3611610071578063c3666c36146107dc578063d4f8dec0146108f0578063de74e57b14610928578063f2fde38b146109fb576101cf565b8063889692b7146106fa5780638927a1061461076a5780638a69614e146107b75780638da5cb5b146107d4576101cf565b80637b81e459116100de5780637b81e459146106a757806381c4e89f146106c45780638456cb59146106ea5780638488bb4e146106f2576101cf565b80636b8f9c431461054a57806373c8a95814610570578063783a112b14610684576101cf565b8063436cc1381161017157806350baa6221161014b57806350baa6221461044a578063572b6c05146104675780635c975abb1461048d5780636a5da45014610495576101cf565b8063436cc138146103ac57806348045a8e146103d257806349f4265014610442576101cf565b8063150b7a02116101ad578063150b7a02146102b35780631fda9a02146103785780633ca4a2531461039c5780633f4ba83a146103a4576101cf565b806301ffc9a7146101d457806305abfbc21461022757806307a2a4e614610299575b600080fd5b610213600480360360208110156101ea57600080fd5b50357fffffffff0000000000000000000000000000000000000000000000000000000016610a21565b604080519115158252519081900360200190f35b6102976004803603602081101561023d57600080fd5b81019060208101813564010000000081111561025857600080fd5b82018360208201111561026a57600080fd5b8035906020019184602083028401116401000000008311171561028c57600080fd5b509092509050610aba565b005b6102a1610aef565b60408051918252519081900360200190f35b610343600480360360808110156102c957600080fd5b6001600160a01b0382358116926020810135909116916040820135919081019060808101606082013564010000000081111561030457600080fd5b82018360208201111561031657600080fd5b8035906020019184600183028401116401000000008311171561033857600080fd5b509092509050610b13565b604080517fffffffff000000000000000000000000000000000000000000000000000000009092168252519081900360200190f35b610380610cb3565b604080516001600160a01b039092168252519081900360200190f35b6102a1610cd7565b610297610cfb565b610213600480360360208110156103c257600080fd5b50356001600160a01b0316610d15565b610297600480360360208110156103e857600080fd5b81019060208101813564010000000081111561040357600080fd5b82018360208201111561041557600080fd5b8035906020019184602083028401116401000000008311171561043757600080fd5b509092509050610d2a565b610380610e15565b6102976004803603602081101561046057600080fd5b5035610e2d565b6102136004803603602081101561047d57600080fd5b50356001600160a01b0316610ee7565b610213610f60565b6104b2600480360360208110156104ab57600080fd5b5035610f70565b60405180846001600160a01b03168152602001836001600160a01b0316815260200180602001828103825283818151815260200191508051906020019080838360005b8381101561050d5781810151838201526020016104f5565b50505050905090810190601f16801561053a5780820380516001836020036101000a031916815260200191505b5094505050505060405180910390f35b6102976004803603602081101561056057600080fd5b50356001600160a01b031661111f565b6102976004803603606081101561058657600080fd5b8101906020810181356401000000008111156105a157600080fd5b8201836020820111156105b357600080fd5b803590602001918460208302840111640100000000831117156105d557600080fd5b9193909290916020810190356401000000008111156105f357600080fd5b82018360208201111561060557600080fd5b8035906020019184602083028401116401000000008311171561062757600080fd5b91939092909160208101903564010000000081111561064557600080fd5b82018360208201111561065757600080fd5b8035906020019184602083028401116401000000008311171561067957600080fd5b5090925090506111ec565b6102976004803603604081101561069a57600080fd5b50803590602001356113e1565b610297600480360360208110156106bd57600080fd5b5035611940565b6102a1600480360360208110156106da57600080fd5b50356001600160a01b0316611c40565b610297611c52565b610380611c65565b6102976004803603602081101561071057600080fd5b81019060208101813564010000000081111561072b57600080fd5b82018360208201111561073d57600080fd5b8035906020019184602083028401116401000000008311171561075f57600080fd5b509092509050611c74565b6107876004803603602081101561078057600080fd5b5035611cf7565b604080516001600160a01b0390951685526020850193909352838301919091526060830152519081900360800190f35b610297600480360360208110156107cd57600080fd5b5035611d2a565b610380611ed3565b610297600480360360608110156107f257600080fd5b81019060208101813564010000000081111561080d57600080fd5b82018360208201111561081f57600080fd5b8035906020019184602083028401116401000000008311171561084157600080fd5b91939092909160208101903564010000000081111561085f57600080fd5b82018360208201111561087157600080fd5b8035906020019184602083028401116401000000008311171561089357600080fd5b9193909290916020810190356401000000008111156108b157600080fd5b8201836020820111156108c357600080fd5b803590602001918460208302840111640100000000831117156108e557600080fd5b509092509050611ee3565b6102976004803603608081101561090657600080fd5b508035906001600160a01b0360208201351690604081013590606001356120f6565b6109456004803603602081101561093e57600080fd5b5035612391565b60405180876001600160a01b03168152602001866001600160a01b03168152602001856001600160a01b0316815260200184815260200183815260200180602001828103825283818151815260200191508051906020019080838360005b838110156109bb5781810151838201526020016109a3565b50505050905090810190601f1680156109e85780820380516001836020036101000a031916815260200191505b5097505050505050505060405180910390f35b61029760048036036020811015610a1157600080fd5b50356001600160a01b0316612460565b60007fffffffff0000000000000000000000000000000000000000000000000000000082167f01ffc9a7000000000000000000000000000000000000000000000000000000001480610ab457507fffffffff0000000000000000000000000000000000000000000000000000000082167f150b7a0200000000000000000000000000000000000000000000000000000000145b92915050565b8060005b81811015610ae957610ae1848483818110610ad557fe5b90506020020135611d2a565b600101610abe565b50505050565b7f000000000000000000000000000000000000000000000000000000000000000081565b6000610b1d6124c6565b336001600160a01b037f00000000000000000000000000000000000000000000000000000000000000001614610b9a576040805162461bcd60e51b815260206004820152601d60248201527f4e465452656e74616c3a2077726f6e67204e465420636f6e7472616374000000604482015290519081900360640190fd5b6000806000806000878760a0811015610bb257600080fd5b6001600160a01b03823581169260208101359091169160408201359160608101359181019060a081016080820135640100000000811115610bf257600080fd5b820183602082011115610c0457600080fd5b80359060200191846001830284011164010000000083111715610c2657600080fd5b91908080601f016020809104026020016040519081016040528093929190818152602001838380828437600092019190915250999e50979c50959a50939850929650610c8395508f94508a93508e92508991508890508787612525565b507f150b7a02000000000000000000000000000000000000000000000000000000009a9950505050505050505050565b7f000000000000000000000000000000000000000000000000000000000000000081565b7f000000000000000000000000000000000000000000000000000000000000000081565b610d0b610d0661266f565b61267e565b610d13612745565b565b60046020526000908152604090205460ff1681565b6000610d3461266f565b90508160005b818114610e0e576000858583818110610d4f57fe5b905060200201359050610d6281856127bb565b7f00000000000000000000000000000000000000000000000000000000000000006001600160a01b03166323b872dd3086846040518463ffffffff1660e01b815260040180846001600160a01b03168152602001836001600160a01b031681526020018281526020019350505050600060405180830381600087803b158015610dea57600080fd5b505af1158015610dfe573d6000803e3d6000fd5b5050505050806001019050610d3a565b5050505050565b73eeeeeeeeeeeeeeeeeeeeeeeeeeeeeeeeeeeeeeee81565b6000610e3761266f565b9050610e4382826127bb565b7f00000000000000000000000000000000000000000000000000000000000000006001600160a01b03166323b872dd3083856040518463ffffffff1660e01b815260040180846001600160a01b03168152602001836001600160a01b031681526020018281526020019350505050600060405180830381600087803b158015610ecb57600080fd5b505af1158015610edf573d6000803e3d6000fd5b505050505050565b60007f00000000000000000000000000000000000000000000000000000000000000006001600160a01b0316826001600160a01b03161480610ab457507f00000000000000000000000000000000000000000000000000000000000000006001600160a01b0316826001600160a01b0316149050919050565b600054600160a01b900460ff1681565b6000818152600260208181526040808420815160c08101835281546001600160a01b039081168252600180840154821683870152838701549091168285015260038301546060808401919091526004840154608084015260058401805486516101009482161594909402600019011697909704601f810187900487028301870190955284825287969095879593949360a086019392918301828280156110575780601f1061102c57610100808354040283529160200191611057565b820191906000526020600020905b81548152906001019060200180831161103a57829003601f168201915b5050509190925250508151919250506001600160a01b0381161561111557600086815260036020818152604092839020835160808101855281546001600160a01b031680825260018301549382019390935260028201549481019490945290910154606083015280158015906110f85750427f0000000000000000000000000000000000000000000000000000000000000000836040015102836020015101105b156111125760a09093015191955091935091506111189050565b50505b50505b9193909250565b61112a610d0661266f565b6001600160a01b038116611185576040805162461bcd60e51b815260206004820152601460248201527f5061796f75743a207a65726f2061646472657373000000000000000000000000604482015290519081900360640190fd5b6001805473ffffffffffffffffffffffffffffffffffffffff19166001600160a01b03838116919091179182905560408051929091168252517fdd880d24a789958a6398c99c2e54ce31bc10a638cbc42f7dd34285479ae0f855916020908290030190a150565b6111f7610d0661266f565b84838114801561120657508082145b611257576040805162461bcd60e51b815260206004820152601a60248201527f5265636f763a20696e636f6e73697374656e7420617272617973000000000000604482015290519081900360640190fd5b60005b8181146113d757600086868381811061126f57fe5b905060200201356001600160a01b03169050600085858481811061128f57fe5b6001600160a01b03851660008181526005602090815260408083205481517f70a082310000000000000000000000000000000000000000000000000000000081523060048201529151958302979097013597509195945091926370a082319260248084019391929182900301818887803b15801561130c57600080fd5b505af1158015611320573d6000803e3d6000fd5b505050506040513d602081101561133657600080fd5b505103905080821115611390576040805162461bcd60e51b815260206004820152601b60248201527f5265636f763a20696e73756666696369656e742062616c616e63650000000000604482015290519081900360640190fd5b6113c98b8b8681811061139f57fe5b905060200201356001600160a01b031683856001600160a01b0316612a9b9092919063ffffffff16565b50505080600101905061125a565b5050505050505050565b6113e96124c6565b8061143b576040805162461bcd60e51b815260206004820152601860248201527f4e465452656e74616c3a207a65726f206475726174696f6e0000000000000000604482015290519081900360640190fd5b6000828152600260208181526040808420815160c08101835281546001600160a01b0390811682526001808401548216838701528387015490911682850152600383015460608301526004830154608083015260058301805485516101009382161593909302600019011696909604601f81018690048602820186019094528381529094919360a08601939192919083018282801561151b5780601f106114f05761010080835404028352916020019161151b565b820191906000526020600020905b8154815290600101906020018083116114fe57829003601f168201915b5050509190925250508151919250506001600160a01b038116611585576040805162461bcd60e51b815260206004820152601c60248201527f4e465452656e74616c3a206e6f74206f6e20746865206d61726b657400000000604482015290519081900360640190fd5b60408201516001600160a01b0381166115e5576040805162461bcd60e51b815260206004820152601a60248201527f4e465452656e74616c3a2072656e74616c2064697361626c6564000000000000604482015290519081900360640190fd5b60006115ef61266f565b60208501519091506001600160a01b038116158061161e5750816001600160a01b0316816001600160a01b0316145b61166f576040805162461bcd60e51b815260206004820152601a60248201527f4e465452656e74616c3a2070726976617465206c697374696e67000000000000604482015290519081900360640190fd5b608085015180156116cf57808710156116cf576040805162461bcd60e51b815260206004820152601d60248201527f4e465452656e74616c3a206475726174696f6e20746f6f2073686f7274000000604482015290519081900360640190fd5b60608087015160008a815260036020818152604092839020835160808101855281546001600160a01b031680825260018301549382019390935260028201549481019490945290910154938201939093529091156117cc57604081015160208201517f000000000000000000000000000000000000000000000000000000000000000082020142116117a8576040805162461bcd60e51b815260206004820152601960248201527f4e465452656e74616c3a20616c72656164792072656e74656400000000000000604482015290519081900360640190fd5b82156117ca576060820151810380156117c8576117c8888a868402612b1b565b505b505b6040518060800160405280866001600160a01b031681526020014281526020018a81526020016001815250600360008c815260200190815260200160002060008201518160000160006101000a8154816001600160a01b0302191690836001600160a01b031602179055506020820151816001015560408201518160020155606082015181600301559050508160001461186d5761186d858888858d612c0d565b7f7708c68dd11925cef5c6d4fe125d46fbaada4686f4daeb31ac69e4439d0f2d0187868c8b60a0015160405180856001600160a01b03168152602001846001600160a01b0316815260200183815260200180602001828103825283818151815260200191508051906020019080838360005b838110156118f75781810151838201526020016118df565b50505050905090810190601f1680156119245780820380516001836020036101000a031916815260200191505b509550505050505060405180910390a150505050505050505050565b6000818152600260208181526040808420815160c08101835281546001600160a01b0390811682526001808401548216838701528387015490911682850152600383015460608301526004830154608083015260058301805485516101009382161593909302600019011696909604601f81018690048602820186019094528381529094919360a086019391929190830182828015611a205780601f106119f557610100808354040283529160200191611a20565b820191906000526020600020905b815481529060010190602001808311611a0357829003601f168201915b50505091909252505050600083815260036020818152604092839020835160808101855281546001600160a01b031680825260018301549382019390935260028201549481019490945290910154606083015291925090611a7f61266f565b6001600160a01b0316816001600160a01b031614611ae4576040805162461bcd60e51b815260206004820152601960248201527f4e465452656e74616c3a206e6f7420746865206c657373656500000000000000604482015290519081900360640190fd5b60007f00000000000000000000000000000000000000000000000000000000000000008360200151420381611b1557fe5b0460010190508360800151811015611b74576040805162461bcd60e51b815260206004820152601c60248201527f4e465452656e74616c3a2063616e6e6f742063616e63656c2079657400000000604482015290519081900360640190fd5b6040830151808210611bcd576040805162461bcd60e51b815260206004820152601f60248201527f4e465452656e74616c3a206c656173652066756c6c7920657865637574656400604482015290519081900360640190fd5b600086815260036020526040902060020182905560608501518015611c37576040860151611c0081868686038502612dbc565b606086015184038015611c3457611c1e828960000151858402612b1b565b6000898152600360208190526040909120018590555b50505b50505050505050565b60056020526000908152604090205481565b611c5d610d0661266f565b610d13612e47565b6001546001600160a01b031681565b611c7f610d0661266f565b60005b808214611cf257600160046000858585818110611c9b57fe5b602090810292909201356001600160a01b031683525081019190915260400160002080547fffffffffffffffffffffffffffffffffffffffffffffffffffffffffffffff0016911515919091179055600101611c82565b505050565b600360208190526000918252604090912080546001820154600283015492909301546001600160a01b0390911692919084565b6000818152600260208181526040808420815160c08101835281546001600160a01b0390811682526001808401548216838701528387015490911682850152600383015460608301526004830154608083015260058301805485516101009382161593909302600019011696909604601f81018690048602820186019094528381529094919360a086019391929190830182828015611e0a5780601f10611ddf57610100808354040283529160200191611e0a565b820191906000526020600020905b815481529060010190602001808311611ded57829003601f168201915b5050509190925250508151919250506001600160a01b03811615611cf25760008381526003602052604090206002810154606084015182546001600160a01b031615801590611e5857508015155b15610edf5760007f00000000000000000000000000000000000000000000000000000000000000008460010154420381611e8e57fe5b046001019050828110611ea15782611ea3565b805b6003850154909350830380156113d757611ec4876040015187858402612b1b565b50505060039190910155505050565b6000546001600160a01b03165b90565b611eee610d0661266f565b848381148015611efd57508082145b611f4e576040805162461bcd60e51b815260206004820152601a60248201527f5265636f763a20696e636f6e73697374656e7420617272617973000000000000604482015290519081900360640190fd5b60005b8181146113d7576000848483818110611f6657fe5b9050602002013590506000878784818110611f7d57fe5b905060200201356001600160a01b031690507f00000000000000000000000000000000000000000000000000000000000000006001600160a01b0316816001600160a01b03161415612033576000828152600260205260409020546001600160a01b031615612033576040805162461bcd60e51b815260206004820152601860248201527f5265636f763a20746f6b656e20697320666f722072656e740000000000000000604482015290519081900360640190fd5b87878481811061203f57fe5b905060200201356001600160a01b03166001600160a01b03166323b872dd308c8c8781811061206a57fe5b905060200201356001600160a01b0316856040518463ffffffff1660e01b815260040180846001600160a01b03168152602001836001600160a01b031681526020018281526020019350505050600060405180830381600087803b1580156120d157600080fd5b505af11580156120e5573d6000803e3d6000fd5b505050505050806001019050611f51565b60008481526002602081905260409091208054918101546003820154600483015492936001600160a01b039081169392169161213061266f565b6001600160a01b0316846001600160a01b031614612195576040805162461bcd60e51b815260206004820152601c60248201527f4e465452656e74616c3a206e6f7420746865204e4654206f776e657200000000604482015290519081900360640190fd5b6000898152600360205260409020600281015481546001600160a01b0316156122a35760007f000000000000000000000000000000000000000000000000000000000000000083600101544203816121e957fe5b04600101905083811015612244576040805162461bcd60e51b815260206004820152601c60248201527f4e465452656e74616c3a2063616e6e6f742063616e63656c2079657400000000604482015290519081900360640190fd5b81811015612278576002830181905584156122785782546122749087906001600160a01b03168385038802612dbc565b8091505b84156122a15760038301548203801561229f576003840183905561229f8789838902612b1b565b505b505b8884146122b257600387018990555b896001600160a01b0316856001600160a01b031614612375576001600160a01b038a1615806122f957506001600160a01b038a1660009081526004602052604090205460ff165b61234a576040805162461bcd60e51b815260206004820152601660248201527f52656e74616c3a2077726f6e672063757272656e637900000000000000000000604482015290519081900360640190fd5b60028701805473ffffffffffffffffffffffffffffffffffffffff19166001600160a01b038c161790555b87831461238457600487018890555b5050505050505050505050565b600260208181526000928352604092839020805460018083015483860154600385015460048601546005870180548b516101009782161597909702600019011699909904601f8101899004890286018901909a528985526001600160a01b039586169993861698959092169690959194919392908301828280156124565780601f1061242b57610100808354040283529160200191612456565b820191906000526020600020905b81548152906001019060200180831161243957829003601f168201915b5050505050905086565b61246b610d0661266f565b6000805473ffffffffffffffffffffffffffffffffffffffff19166001600160a01b0383811691821780845560405192939116917f8be0079c531659141344cd1fd0a4f28419497f9722a3daafe3b4186f6b6457e09190a350565b600054600160a01b900460ff1615610d13576040805162461bcd60e51b815260206004820152601060248201527f5061757361626c653a2070617573656400000000000000000000000000000000604482015290519081900360640190fd5b6001600160a01b038416158061255357506001600160a01b03841660009081526004602052604090205460ff165b6125a4576040805162461bcd60e51b815260206004820152601660248201527f52656e74616c3a2077726f6e672063757272656e637900000000000000000000604482015290519081900360640190fd5b6040805160c0810182526001600160a01b03808a1682528881166020808401918252888316848601908152606085018981526080860189815260a0870189815260008e815260028087529990208851815490891673ffffffffffffffffffffffffffffffffffffffff199182161782559651600182018054918a1691891691909117905593519884018054999097169890951697909717909455925160038401559351600483015551805192939192612663926005850192019061334c565b50505050505050505050565b6000612679612ea6565b905090565b306001600160a01b0316638da5cb5b6040518163ffffffff1660e01b815260040160206040518083038186803b1580156126b757600080fd5b505afa1580156126cb573d6000803e3d6000fd5b505050506040513d60208110156126e157600080fd5b50516001600160a01b03828116911614612742576040805162461bcd60e51b815260206004820152601660248201527f4f776e61626c653a206e6f7420746865206f776e657200000000000000000000604482015290519081900360640190fd5b50565b61274d613006565b600080547fffffffffffffffffffffff00ffffffffffffffffffffffffffffffffffffffff1690557f5db9ee0a495bf2e6ff9c91a7834c1ba4fdd244a5e8aa4e537bd38aeae4b073aa61279e61266f565b604080516001600160a01b039092168252519081900360200190a1565b6000828152600260208181526040808420815160c08101835281546001600160a01b0390811682526001808401548216838701528387015490911682850152600383015460608301526004830154608083015260058301805485516101009382161593909302600019011696909604601f81018690048602820186019094528381529094919360a08601939192919083018282801561289b5780601f106128705761010080835404028352916020019161289b565b820191906000526020600020905b81548152906001019060200180831161287e57829003601f168201915b5050509190925250508151919250506001600160a01b038082169084161461290a576040805162461bcd60e51b815260206004820152601c60248201527f4e465452656e74616c3a206e6f7420746865204e4654206f776e657200000000604482015290519081900360640190fd5b600084815260036020818152604092839020835160808101855281546001600160a01b03168082526001830154938201939093526002820154948101859052920154606083015290919015612a3d577f0000000000000000000000000000000000000000000000000000000000000000810282602001510142116129d5576040805162461bcd60e51b815260206004820152601760248201527f4e465452656e74616c3a207374696c6c2072656e746564000000000000000000604482015290519081900360640190fd5b60608401518015612a00576060830151820380156129fe576129fe866040015186848402612b1b565b505b5060008681526003602081905260408220805473ffffffffffffffffffffffffffffffffffffffff19168155600181018390556002810183905501555b60008681526002602081905260408220805473ffffffffffffffffffffffffffffffffffffffff1990811682556001820180548216905591810180549092169091556003810182905560048101829055906113d760058301826133d8565b604080516001600160a01b038416602482015260448082018490528251808303909101815260649091019091526020810180517bffffffffffffffffffffffffffffffffffffffffffffffffffffffff167fa9059cbb00000000000000000000000000000000000000000000000000000000179052611cf2908490613064565b600080612b2783613265565b90925090506001600160a01b03851673eeeeeeeeeeeeeeeeeeeeeeeeeeeeeeeeeeeeeeee1415612bc8576001546040516001600160a01b039091169082156108fc029083906000818181858888f19350505050158015612b8b573d6000803e3d6000fd5b506040516001600160a01b0385169083156108fc029084906000818181858888f19350505050158015612bc2573d6000803e3d6000fd5b50610e0e565b6001600160a01b038086166000818152600560205260409020805486900390556001548792612bf992911684612a9b565b610edf6001600160a01b0382168685612a9b565b600080612c1984613265565b90925090508383026001600160a01b03861673eeeeeeeeeeeeeeeeeeeeeeeeeeeeeeeeeeeeeeee1415612d545780341015612c9b576040805162461bcd60e51b815260206004820152601860248201527f52656e74616c3a206e6f7420656e6f7567682076616c75650000000000000000604482015290519081900360640190fd5b6040516001600160a01b0388169084156108fc029085906000818181858888f19350505050158015612cd1573d6000803e3d6000fd5b506001546040516001600160a01b039091169083156108fc029084906000818181858888f19350505050158015612d0c573d6000803e3d6000fd5b5080341115612d4f576040516001600160a01b038916903483900380156108fc02916000818181858888f19350505050158015612d4d573d6000803e3d6000fd5b505b6113d7565b612d696001600160a01b038716898986613294565b600154612d85906001600160a01b03888116918b911685613294565b836001146113d7576001600160a01b038616600081815260056020526040902080549287900392830190556113d790893084613294565b6001600160a01b03831673eeeeeeeeeeeeeeeeeeeeeeeeeeeeeeeeeeeeeeee1415612e1d576040516001600160a01b0383169082156108fc029083906000818181858888f19350505050158015612e17573d6000803e3d6000fd5b50611cf2565b6001600160a01b038316600081815260056020526040902080548390039055611cf2908383612a9b565b612e4f6124c6565b600080547fffffffffffffffffffffff00ffffffffffffffffffffffffffffffffffffffff16600160a01b1790557f62e78cea01bee320cd4e420270b5ea74000d11b0c9f74754ebdbfc544b05a25861279e61266f565b60003381612eb261331c565b90507f00000000000000000000000000000000000000000000000000000000000000006001600160a01b0316826001600160a01b03161480612f2557507f00000000000000000000000000000000000000000000000000000000000000006001600160a01b0316826001600160a01b0316145b15612f33579150611ee09050565b6001600160a01b0382163214801590612ff257507f00000000000000000000000000000000000000000000000000000000000000006001600160a01b031663e60125d682846040518363ffffffff1660e01b815260040180836001600160a01b03168152602001826001600160a01b031681526020019250505060206040518083038186803b158015612fc557600080fd5b505afa158015612fd9573d6000803e3d6000fd5b505050506040513d6020811015612fef57600080fd5b50515b15613000579150611ee09050565b50905090565b600054600160a01b900460ff16610d13576040805162461bcd60e51b815260206004820152601460248201527f5061757361626c653a206e6f7420706175736564000000000000000000000000604482015290519081900360640190fd5b816130776001600160a01b038216613346565b6130c8576040805162461bcd60e51b815260206004820152601a60248201527f4552433230577261707065723a206e6f6e2d636f6e7472616374000000000000604482015290519081900360640190fd5b600080826001600160a01b0316846040518082805190602001908083835b6020831061312357805182527fffffffffffffffffffffffffffffffffffffffffffffffffffffffffffffffe090920191602091820191016130e6565b6001836020036101000a0380198251168184511680821785525050505050509050019150506000604051808303816000865af19150503d8060008114613185576040519150601f19603f3d011682016040523d82523d6000602084013e61318a565b606091505b5091509150811561320957805115613204578080602001905160208110156131b157600080fd5b5051613204576040805162461bcd60e51b815260206004820152601e60248201527f4552433230577261707065723a206f7065726174696f6e206661696c65640000604482015290519081900360640190fd5b610e0e565b805161325c576040805162461bcd60e51b815260206004820152601e60248201527f4552433230577261707065723a206f7065726174696f6e206661696c65640000604482015290519081900360640190fd5b80518082602001fd5b620186a07f00000000000000000000000000000000000000000000000000000000000000008202049081900391565b604080516001600160a01b0380861660248301528416604482015260648082018490528251808303909101815260849091019091526020810180517bffffffffffffffffffffffffffffffffffffffffffffffffffffffff167f23b872dd00000000000000000000000000000000000000000000000000000000179052610ae9908590613064565b7fffffffffffffffffffffffffffffffffffffffffffffffffffffffffffffffec36013560601c90565b3b151590565b828054600181600116156101000203166002900490600052602060002090601f01602090048101928261338257600085556133c8565b82601f1061339b57805160ff19168380011785556133c8565b828001600101855582156133c8579182015b828111156133c85782518255916020019190600101906133ad565b506133d4929150613418565b5090565b50805460018160011615610100020316600290046000825580601f106133fe5750612742565b601f01602090049060005260206000209081019061274291905b5b808211156133d4576000815560010161341956fea26469706673582212206af6a5dfa8310dc705871fad28b7d6a0c0398e234068f1aedf02caf68892544864736f6c63430007060033",
  "linkReferences": {},
  "deployedLinkReferences": {}
}