{
  "_format": "hh-sol-artifact-1",
  "contractName": "ERC721PausableMock",
  "sourceName": "contracts/mocks/token/ERC721/ERC721PausableMock.sol",
  "abi": [
    {
      "inputs": [],
      "stateMutability": "nonpayable",
      "type": "constructor"
    },
    {
      "anonymous": false,
      "inputs": [
        {
          "indexed": true,
          "internalType": "address",
          "name": "_owner",
          "type": "address"
        },
        {
          "indexed": true,
          "internalType": "address",
          "name": "_approved",
          "type": "address"
        },
        {
          "indexed": true,
          "internalType": "uint256",
          "name": "_tokenId",
          "type": "uint256"
        }
      ],
      "name": "Approval",
      "type": "event"
    },
    {
      "anonymous": false,
      "inputs": [
        {
          "indexed": true,
          "internalType": "address",
          "name": "_owner",
          "type": "address"
        },
        {
          "indexed": true,
          "internalType": "address",
          "name": "_operator",
          "type": "address"
        },
        {
          "indexed": false,
          "internalType": "bool",
          "name": "_approved",
          "type": "bool"
        }
      ],
      "name": "ApprovalForAll",
      "type": "event"
    },
    {
      "anonymous": false,
      "inputs": [
        {
          "indexed": false,
          "internalType": "string",
          "name": "baseMetadataURI",
          "type": "string"
        }
      ],
      "name": "BaseMetadataURISet",
      "type": "event"
    },
    {
      "anonymous": false,
      "inputs": [
        {
          "indexed": true,
          "internalType": "address",
          "name": "account",
          "type": "address"
        }
      ],
      "name": "MinterAdded",
      "type": "event"
    },
    {
      "anonymous": false,
      "inputs": [
        {
          "indexed": true,
          "internalType": "address",
          "name": "account",
          "type": "address"
        }
      ],
      "name": "MinterRemoved",
      "type": "event"
    },
    {
      "anonymous": false,
      "inputs": [
        {
          "indexed": true,
          "internalType": "address",
          "name": "previousOwner",
          "type": "address"
        },
        {
          "indexed": true,
          "internalType": "address",
          "name": "newOwner",
          "type": "address"
        }
      ],
      "name": "OwnershipTransferred",
      "type": "event"
    },
    {
      "anonymous": false,
      "inputs": [
        {
          "indexed": false,
          "internalType": "address",
          "name": "account",
          "type": "address"
        }
      ],
      "name": "Paused",
      "type": "event"
    },
    {
      "anonymous": false,
      "inputs": [
        {
          "indexed": true,
          "internalType": "address",
          "name": "_from",
          "type": "address"
        },
        {
          "indexed": true,
          "internalType": "address",
          "name": "_to",
          "type": "address"
        },
        {
          "indexed": true,
          "internalType": "uint256",
          "name": "_tokenId",
          "type": "uint256"
        }
      ],
      "name": "Transfer",
      "type": "event"
    },
    {
      "anonymous": false,
      "inputs": [
        {
          "indexed": false,
          "internalType": "address",
          "name": "account",
          "type": "address"
        }
      ],
      "name": "Unpaused",
      "type": "event"
    },
    {
      "inputs": [
        {
          "internalType": "address",
          "name": "account",
          "type": "address"
        }
      ],
      "name": "addMinter",
      "outputs": [],
      "stateMutability": "nonpayable",
      "type": "function"
    },
    {
      "inputs": [
        {
          "internalType": "address",
          "name": "to",
          "type": "address"
        },
        {
          "internalType": "uint256",
          "name": "tokenId",
          "type": "uint256"
        }
      ],
      "name": "approve",
      "outputs": [],
      "stateMutability": "nonpayable",
      "type": "function"
    },
    {
      "inputs": [
        {
          "internalType": "address",
          "name": "owner",
          "type": "address"
        }
      ],
      "name": "balanceOf",
      "outputs": [
        {
          "internalType": "uint256",
          "name": "",
          "type": "uint256"
        }
      ],
      "stateMutability": "view",
      "type": "function"
    },
    {
      "inputs": [],
      "name": "baseMetadataURI",
      "outputs": [
        {
          "internalType": "string",
          "name": "",
          "type": "string"
        }
      ],
      "stateMutability": "view",
      "type": "function"
    },
    {
      "inputs": [
        {
          "internalType": "address",
          "name": "from",
          "type": "address"
        },
        {
          "internalType": "uint256[]",
          "name": "tokenIds",
          "type": "uint256[]"
        }
      ],
      "name": "batchBurnFrom",
      "outputs": [],
      "stateMutability": "nonpayable",
      "type": "function"
    },
    {
      "inputs": [
        {
          "internalType": "address",
          "name": "to",
          "type": "address"
        },
        {
          "internalType": "uint256[]",
          "name": "nftIds",
          "type": "uint256[]"
        }
      ],
      "name": "batchMint",
      "outputs": [],
      "stateMutability": "nonpayable",
      "type": "function"
    },
    {
      "inputs": [
        {
          "internalType": "address",
          "name": "from",
          "type": "address"
        },
        {
          "internalType": "address",
          "name": "to",
          "type": "address"
        },
        {
          "internalType": "uint256[]",
          "name": "tokenIds",
          "type": "uint256[]"
        }
      ],
      "name": "batchTransferFrom",
      "outputs": [],
      "stateMutability": "nonpayable",
      "type": "function"
    },
    {
      "inputs": [
        {
          "internalType": "address",
          "name": "from",
          "type": "address"
        },
        {
          "internalType": "uint256",
          "name": "tokenId",
          "type": "uint256"
        }
      ],
      "name": "burnFrom",
      "outputs": [],
      "stateMutability": "nonpayable",
      "type": "function"
    },
    {
      "inputs": [
        {
          "internalType": "uint256",
          "name": "tokenId",
          "type": "uint256"
        }
      ],
      "name": "getApproved",
      "outputs": [
        {
          "internalType": "address",
          "name": "",
          "type": "address"
        }
      ],
      "stateMutability": "view",
      "type": "function"
    },
    {
      "inputs": [
        {
          "internalType": "address",
          "name": "owner",
          "type": "address"
        },
        {
          "internalType": "address",
          "name": "operator",
          "type": "address"
        }
      ],
      "name": "isApprovedForAll",
      "outputs": [
        {
          "internalType": "bool",
          "name": "",
          "type": "bool"
        }
      ],
      "stateMutability": "view",
      "type": "function"
    },
    {
      "inputs": [
        {
          "internalType": "address",
          "name": "",
          "type": "address"
        }
      ],
      "name": "isMinter",
      "outputs": [
        {
          "internalType": "bool",
          "name": "",
          "type": "bool"
        }
      ],
      "stateMutability": "view",
      "type": "function"
    },
    {
      "inputs": [
        {
          "internalType": "address",
          "name": "to",
          "type": "address"
        },
        {
          "internalType": "uint256",
          "name": "nftId",
          "type": "uint256"
        }
      ],
      "name": "mint",
      "outputs": [],
      "stateMutability": "nonpayable",
      "type": "function"
    },
    {
      "inputs": [],
      "name": "name",
      "outputs": [
        {
          "internalType": "string",
          "name": "",
          "type": "string"
        }
      ],
      "stateMutability": "view",
      "type": "function"
    },
    {
      "inputs": [],
      "name": "owner",
      "outputs": [
        {
          "internalType": "address",
          "name": "",
          "type": "address"
        }
      ],
      "stateMutability": "view",
      "type": "function"
    },
    {
      "inputs": [
        {
          "internalType": "uint256",
          "name": "tokenId",
          "type": "uint256"
        }
      ],
      "name": "ownerOf",
      "outputs": [
        {
          "internalType": "address",
          "name": "",
          "type": "address"
        }
      ],
      "stateMutability": "view",
      "type": "function"
    },
    {
      "inputs": [],
      "name": "pause",
      "outputs": [],
      "stateMutability": "nonpayable",
      "type": "function"
    },
    {
      "inputs": [],
      "name": "paused",
      "outputs": [
        {
          "internalType": "bool",
          "name": "",
          "type": "bool"
        }
      ],
      "stateMutability": "view",
      "type": "function"
    },
    {
      "inputs": [],
      "name": "renounceMinter",
      "outputs": [],
      "stateMutability": "nonpayable",
      "type": "function"
    },
    {
      "inputs": [
        {
          "internalType": "address",
          "name": "to",
          "type": "address"
        },
        {
          "internalType": "uint256",
          "name": "nftId",
          "type": "uint256"
        },
        {
          "internalType": "bytes",
          "name": "data",
          "type": "bytes"
        }
      ],
      "name": "safeMint",
      "outputs": [],
      "stateMutability": "nonpayable",
      "type": "function"
    },
    {
      "inputs": [
        {
          "internalType": "address",
          "name": "from",
          "type": "address"
        },
        {
          "internalType": "address",
          "name": "to",
          "type": "address"
        },
        {
          "internalType": "uint256",
          "name": "tokenId",
          "type": "uint256"
        }
      ],
      "name": "safeTransferFrom",
      "outputs": [],
      "stateMutability": "nonpayable",
      "type": "function"
    },
    {
      "inputs": [
        {
          "internalType": "address",
          "name": "from",
          "type": "address"
        },
        {
          "internalType": "address",
          "name": "to",
          "type": "address"
        },
        {
          "internalType": "uint256",
          "name": "tokenId",
          "type": "uint256"
        },
        {
          "internalType": "bytes",
          "name": "data",
          "type": "bytes"
        }
      ],
      "name": "safeTransferFrom",
      "outputs": [],
      "stateMutability": "nonpayable",
      "type": "function"
    },
    {
      "inputs": [
        {
          "internalType": "address",
          "name": "operator",
          "type": "address"
        },
        {
          "internalType": "bool",
          "name": "approved",
          "type": "bool"
        }
      ],
      "name": "setApprovalForAll",
      "outputs": [],
      "stateMutability": "nonpayable",
      "type": "function"
    },
    {
      "inputs": [
        {
          "internalType": "string",
          "name": "baseMetadataURI_",
          "type": "string"
        }
      ],
      "name": "setBaseMetadataURI",
      "outputs": [],
      "stateMutability": "nonpayable",
      "type": "function"
    },
    {
      "inputs": [
        {
          "internalType": "bytes4",
          "name": "interfaceId",
          "type": "bytes4"
        }
      ],
      "name": "supportsInterface",
      "outputs": [
        {
          "internalType": "bool",
          "name": "",
          "type": "bool"
        }
      ],
      "stateMutability": "view",
      "type": "function"
    },
    {
      "inputs": [],
      "name": "symbol",
      "outputs": [
        {
          "internalType": "string",
          "name": "",
          "type": "string"
        }
      ],
      "stateMutability": "view",
      "type": "function"
    },
    {
      "inputs": [
        {
          "internalType": "uint256",
          "name": "nftId",
          "type": "uint256"
        }
      ],
      "name": "tokenURI",
      "outputs": [
        {
          "internalType": "string",
          "name": "",
          "type": "string"
        }
      ],
      "stateMutability": "view",
      "type": "function"
    },
    {
      "inputs": [
        {
          "internalType": "address",
          "name": "from",
          "type": "address"
        },
        {
          "internalType": "address",
          "name": "to",
          "type": "address"
        },
        {
          "internalType": "uint256",
          "name": "tokenId",
          "type": "uint256"
        }
      ],
      "name": "transferFrom",
      "outputs": [],
      "stateMutability": "nonpayable",
      "type": "function"
    },
    {
      "inputs": [
        {
          "internalType": "address",
          "name": "newOwner",
          "type": "address"
        }
      ],
      "name": "transferOwnership",
      "outputs": [],
      "stateMutability": "nonpayable",
      "type": "function"
    },
    {
      "inputs": [],
      "name": "unpause",
      "outputs": [],
      "stateMutability": "nonpayable",
      "type": "function"
    }
  ],
  "bytecode": "0x60806040523480156200001157600080fd5b5060408051808201825260128152714552433732314275726e61626c654d6f636b60701b602080830191825283518085019094526005845264229b9918a160d91b908401526000805460ff1916905581513393849392909162000077916001916200013a565b5080516200008d9060029060208401906200013a565b5050600780546001600160a01b0319166001600160a01b0384169081179091556040519091506000907f8be0079c531659141344cd1fd0a4f28419497f9722a3daafe3b4186f6b6457e0908290a350620000e781620000ee565b50620001e6565b6001600160a01b038116600081815260096020526040808220805460ff19166001179055517f6ae172837ea30b801fbfcdd4108aa1d5bf8ff775444fd70256b44e6bf3dfc3f69190a250565b828054600181600116156101000203166002900490600052602060002090601f016020900481019282620001725760008555620001bd565b82601f106200018d57805160ff1916838001178555620001bd565b82800160010185558215620001bd579182015b82811115620001bd578251825591602001919060010190620001a0565b50620001cb929150620001cf565b5090565b5b80821115620001cb5760008155600101620001d0565b61237880620001f66000396000f3fe608060405234801561001057600080fd5b50600436106101cf5760003560e01c80637e518ec811610104578063a22cb465116100a2578063e985e9c511610071578063e985e9c51461077f578063f2472965146107ad578063f2fde38b14610860578063f3993d1114610886576101cf565b8063a22cb46514610648578063aa271e1a14610676578063b88d4fde1461069c578063c87b56dd14610762576101cf565b80638da5cb5b116100de5780638da5cb5b1461060a57806395d89b4114610612578063983b2d561461061a5780639865027514610640576101cf565b80637e518ec8146104d75780638456cb59146105475780638832e6e31461054f576101cf565b806342842e0e116101715780635c975abb1161014b5780635c975abb1461044e5780636352211e1461045657806370a082311461047357806379cc6790146104ab576101cf565b806342842e0e1461035d5780634684d7e9146103935780635b2bd79e14610446576101cf565b8063095ea7b3116101ad578063095ea7b3146102c557806323b872dd146102f35780633f4ba83a1461032957806340c10f1914610331576101cf565b806301ffc9a7146101d457806306fdde031461020f578063081812fc1461028c575b600080fd5b6101fb600480360360208110156101ea57600080fd5b50356001600160e01b031916610942565b604080519115158252519081900360200190f35b610217610988565b6040805160208082528351818301528351919283929083019185019080838360005b83811015610251578181015183820152602001610239565b50505050905090810190601f16801561027e5780820380516001836020036101000a031916815260200191505b509250505060405180910390f35b6102a9600480360360208110156102a257600080fd5b5035610a1d565b604080516001600160a01b039092168252519081900360200190f35b6102f1600480360360408110156102db57600080fd5b506001600160a01b038135169060200135610abc565b005b6102f16004803603606081101561030957600080fd5b506001600160a01b03813581169160208101359091169060400135610c19565b6102f1610c31565b6102f16004803603604081101561034757600080fd5b506001600160a01b038135169060200135610c4b565b6102f16004803603606081101561037357600080fd5b506001600160a01b03813581169160208101359091169060400135610c7b565b6102f1600480360360408110156103a957600080fd5b6001600160a01b0382351691908101906040810160208201356401000000008111156103d457600080fd5b8201836020820111156103e657600080fd5b8035906020019184602083028401116401000000008311171561040857600080fd5b919080806020026020016040519081016040528093929190818152602001838360200280828437600092019190915250929550610c8e945050505050565b610217610ca3565b6101fb610d31565b6102a96004803603602081101561046c57600080fd5b5035610d3a565b6104996004803603602081101561048957600080fd5b50356001600160a01b0316610da4565b60408051918252519081900360200190f35b6102f1600480360360408110156104c157600080fd5b506001600160a01b038135169060200135610e1d565b6102f1600480360360208110156104ed57600080fd5b81019060208101813564010000000081111561050857600080fd5b82018360208201111561051a57600080fd5b8035906020019184600183028401116401000000008311171561053c57600080fd5b509092509050610e2f565b6102f1610eab565b6102f16004803603606081101561056557600080fd5b6001600160a01b038235169160208101359181019060608101604082013564010000000081111561059557600080fd5b8201836020820111156105a757600080fd5b803590602001918460018302840111640100000000831117156105c957600080fd5b91908080601f016020809104026020016040519081016040528093929190818152602001838380828437600092019190915250929550610ebe945050505050565b6102a9610ed6565b610217610ee5565b6102f16004803603602081101561063057600080fd5b50356001600160a01b0316610f43565b6102f1610f5a565b6102f16004803603604081101561065e57600080fd5b506001600160a01b0381351690602001351515610fb8565b6101fb6004803603602081101561068c57600080fd5b50356001600160a01b0316611099565b6102f1600480360360808110156106b257600080fd5b6001600160a01b038235811692602081013590911691604082013591908101906080810160608201356401000000008111156106ed57600080fd5b8201836020820111156106ff57600080fd5b8035906020019184600183028401116401000000008311171561072157600080fd5b91908080601f0160208091040260200160405190810160405280939291908181526020018383808284376000920191909152509295506110ae945050505050565b6102176004803603602081101561077857600080fd5b50356110c8565b6101fb6004803603604081101561079557600080fd5b506001600160a01b038135811691602001351661113d565b6102f1600480360360408110156107c357600080fd5b6001600160a01b0382351691908101906040810160208201356401000000008111156107ee57600080fd5b82018360208201111561080057600080fd5b8035906020019184602083028401116401000000008311171561082257600080fd5b91908080602002602001604051908101604052809392919081815260200183836020028082843760009201919091525092955061116b945050505050565b6102f16004803603602081101561087657600080fd5b50356001600160a01b031661117d565b6102f16004803603606081101561089c57600080fd5b6001600160a01b0382358116926020810135909116918101906060810160408201356401000000008111156108d057600080fd5b8201836020820111156108e257600080fd5b8035906020019184602083028401116401000000008311171561090457600080fd5b9190808060200260200160405190810160405280939291908181526020018383602002808284376000920191909152509295506111f0945050505050565b60006001600160e01b031982167f8b8b4ef500000000000000000000000000000000000000000000000000000000148061098057506109808261125e565b90505b919050565b60018054604080516020601f60026000196101008789161502019095169490940493840181900481028201810190925282815260609390929091830182828015610a135780601f106109e857610100808354040283529160200191610a13565b820191906000526020600020905b8154815290600101906020018083116109f657829003601f168201915b5050505050905090565b6000818152600460205260408120546001600160a01b038116610a87576040805162461bcd60e51b815260206004820152601860248201527f4552433732313a206e6f6e2d6578697374696e67204e46540000000000000000604482015290519081900360640190fd5b600160a01b811615610ab25750506000818152600660205260409020546001600160a01b0316610983565b6000915050610983565b6000610ac782610d3a565b9050806001600160a01b0316836001600160a01b03161415610b30576040805162461bcd60e51b815260206004820152601560248201527f4552433732313a2073656c662d617070726f76616c0000000000000000000000604482015290519081900360640190fd5b610b4181610b3c61132b565b61132f565b610b92576040805162461bcd60e51b815260206004820152601b60248201527f4552433732313a206e6f6e2d617070726f7665642073656e6465720000000000604482015290519081900360640190fd5b60008281526004602090815260408083206001600160a01b03808616600160a01b8117909255600690935281842080549388167fffffffffffffffffffffffff000000000000000000000000000000000000000090941684179055905185937f8c5be1e5ebec7d5bd14f71427d1e84f3dd0314c0f7b2291e5b200ac8c7c3b92591a4505050565b610c2161137d565b610c2c8383836113d5565b505050565b610c41610c3c61132b565b6113f2565b610c496114b6565b565b610c5b610c5661132b565b61150e565b610c77828260405180602001604052806000815250600061157b565b5050565b610c8361137d565b610c2c838383611646565b610c99610c5661132b565b610c778282611663565b6008805460408051602060026001851615610100026000190190941693909304601f81018490048402820184019092528181529291830182828015610d295780601f10610cfe57610100808354040283529160200191610d29565b820191906000526020600020905b815481529060010190602001808311610d0c57829003601f168201915b505050505081565b60005460ff1681565b6000818152600460205260408120546001600160a01b038116610980576040805162461bcd60e51b815260206004820152601860248201527f4552433732313a206e6f6e2d6578697374696e67204e46540000000000000000604482015290519081900360640190fd5b60006001600160a01b038216610e01576040805162461bcd60e51b815260206004820152601460248201527f4552433732313a207a65726f2061646472657373000000000000000000000000604482015290519081900360640190fd5b506001600160a01b031660009081526005602052604090205490565b610e2561137d565b610c7782826117b5565b610e3a610c3c61132b565b610e46600883836122a1565b507f04b1dc5c136a3ce9fded8db0ce3d3366c58764ec3a8e4c2b9e52e4ddfe5ebbf7828260405180806020018281038252848482818152602001925080828437600083820152604051601f909101601f19169092018290039550909350505050a15050565b610eb6610c3c61132b565b610c4961181a565b610ec9610c5661132b565b610c2c838383600161157b565b6007546001600160a01b031690565b60028054604080516020601f6000196101006001871615020190941685900493840181900481028201810190925282815260609390929091830182828015610a135780601f106109e857610100808354040283529160200191610a13565b610f4e610c3c61132b565b610f5781611858565b50565b6000610f6461132b565b9050610f6f8161150e565b6001600160a01b038116600081815260096020526040808220805460ff19169055517fe94479a9f7e1952cc78f2d6baab678adc1b772d936c6583def489e524cb666929190a250565b6000610fc261132b565b9050806001600160a01b0316836001600160a01b0316141561102b576040805162461bcd60e51b815260206004820152601560248201527f4552433732313a2073656c662d617070726f76616c0000000000000000000000604482015290519081900360640190fd5b6001600160a01b03818116600081815260036020908152604080832094881680845294825291829020805460ff1916871515908117909155825190815291517f17307eab39ab6107e8899845ad3d59bd9653f200f220920489ca2b5937696c319281900390910190a3505050565b60096020526000908152604090205460ff1681565b6110b661137d565b6110c2848484846118a4565b50505050565b6000818152600460205260409020546060906001600160a01b0316611134576040805162461bcd60e51b815260206004820152601860248201527f4552433732313a206e6f6e2d6578697374696e67204e46540000000000000000604482015290519081900360640190fd5b610980826118b2565b6001600160a01b03918216600090815260036020908152604080832093909416825291909152205460ff1690565b61117361137d565b610c778282611985565b611188610c3c61132b565b600780547fffffffffffffffffffffffff0000000000000000000000000000000000000000166001600160a01b0383811691821792839055604051919216907f8be0079c531659141344cd1fd0a4f28419497f9722a3daafe3b4186f6b6457e090600090a350565b6111f861137d565b611203838383611a40565b6001600160a01b038216610c2c576040805162461bcd60e51b815260206004820152601860248201527f4552433732313a207472616e7366657220746f207a65726f0000000000000000604482015290519081900360640190fd5b60006001600160e01b031982167f01ffc9a70000000000000000000000000000000000000000000000000000000014806112c157506001600160e01b031982167f80ac58cd00000000000000000000000000000000000000000000000000000000145b806112f557506001600160e01b031982167f5b5e139f00000000000000000000000000000000000000000000000000000000145b806109805750506001600160e01b0319167ff3993d11000000000000000000000000000000000000000000000000000000001490565b3390565b6000816001600160a01b0316836001600160a01b0316148061137657506001600160a01b0380841660009081526003602090815260408083209386168352929052205460ff165b9392505050565b60005460ff1615610c49576040805162461bcd60e51b815260206004820152601060248201527f5061757361626c653a2070617573656400000000000000000000000000000000604482015290519081900360640190fd5b610c2c838383604051806020016040528060008152506000611b4c565b306001600160a01b0316638da5cb5b6040518163ffffffff1660e01b815260040160206040518083038186803b15801561142b57600080fd5b505afa15801561143f573d6000803e3d6000fd5b505050506040513d602081101561145557600080fd5b50516001600160a01b03828116911614610f57576040805162461bcd60e51b815260206004820152601660248201527f4f776e61626c653a206e6f7420746865206f776e657200000000000000000000604482015290519081900360640190fd5b6114be611c44565b6000805460ff191690557f5db9ee0a495bf2e6ff9c91a7834c1ba4fdd244a5e8aa4e537bd38aeae4b073aa6114f161132b565b604080516001600160a01b039092168252519081900360200190a1565b6001600160a01b03811660009081526009602052604090205460ff16610f57576040805162461bcd60e51b815260206004820152601860248201527f4d696e746572526f6c653a206e6f742061204d696e7465720000000000000000604482015290519081900360640190fd5b6001600160a01b0384166115d6576040805162461bcd60e51b815260206004820152601460248201527f4552433732313a206d696e7420746f207a65726f000000000000000000000000604482015290519081900360640190fd5b6115e284846000611c9b565b60405183906001600160a01b038616906000907fddf252ad1be2c89b69c2b068fc378daa952ba7f163c4a11628f55a4df523b3ef908290a48080156116345750611634846001600160a01b0316611d3d565b156110c2576110c26000858585611d43565b610c2c838383604051806020016040528060008152506001611b4c565b6001600160a01b0382166116be576040805162461bcd60e51b815260206004820152601460248201527f4552433732313a206d696e7420746f207a65726f000000000000000000000000604482015290519081900360640190fd5b805160008167ffffffffffffffff811180156116d957600080fd5b50604051908082528060200260200182016040528015611703578160200160208202803683370190505b50905060005b82811461178f57600084828151811061171e57fe5b60200260200101519050600183838151811061173657fe5b60200260200101818152505061174e86826001611c9b565b60405181906001600160a01b038816906000907fddf252ad1be2c89b69c2b068fc378daa952ba7f163c4a11628f55a4df523b3ef908290a450600101611709565b50506001600160a01b039092166000908152600560205260409020805490920190915550565b60006117bf61132b565b905060006117cd848361132f565b90506117dc8484836000611ec5565b60405183906000906001600160a01b038716907fddf252ad1be2c89b69c2b068fc378daa952ba7f163c4a11628f55a4df523b3ef908390a450505050565b61182261137d565b6000805460ff191660011790557f62e78cea01bee320cd4e420270b5ea74000d11b0c9f74754ebdbfc544b05a2586114f161132b565b6001600160a01b038116600081815260096020526040808220805460ff19166001179055517f6ae172837ea30b801fbfcdd4108aa1d5bf8ff775444fd70256b44e6bf3dfc3f69190a250565b6110c2848484846001611b4c565b606060086118bf83612020565b604051602001808380546001816001161561010002031660029004801561191d5780601f106118fb57610100808354040283529182019161191d565b820191906000526020600020905b815481529060010190602001808311611909575b5050825160208401908083835b602083106119495780518252601f19909201916020918201910161192a565b6001836020036101000a038019825116818451168082178552505050505050905001925050506040516020818303038152906040529050919050565b600061198f61132b565b9050600061199d848361132f565b835190915060005b818114611a125760008582815181106119ba57fe5b602002602001015190506119d18782866001611ec5565b60405181906000906001600160a01b038a16907fddf252ad1be2c89b69c2b068fc378daa952ba7f163c4a11628f55a4df523b3ef908390a4506001016119a5565b508015611a39576001600160a01b0385166000908152600560205260409020805482900390555b5050505050565b6001600160a01b038216611a9b576040805162461bcd60e51b815260206004820152601860248201527f4552433732313a207472616e7366657220746f207a65726f0000000000000000604482015290519081900360640190fd5b6000611aa561132b565b90506000611ab3858361132f565b835190915060005b818114611b32576000858281518110611ad057fe5b60200260200101519050611ae888888387600161212f565b80876001600160a01b0316896001600160a01b03167fddf252ad1be2c89b69c2b068fc378daa952ba7f163c4a11628f55a4df523b3ef60405160405180910390a450600101611abb565b508015611b4457611b44868683612256565b505050505050565b6001600160a01b038416611ba7576040805162461bcd60e51b815260206004820152601860248201527f4552433732313a207472616e7366657220746f207a65726f0000000000000000604482015290519081900360640190fd5b6000611bb161132b565b90506000611bbf878361132f565b9050611bcf87878784600061212f565b84866001600160a01b0316886001600160a01b03167fddf252ad1be2c89b69c2b068fc378daa952ba7f163c4a11628f55a4df523b3ef60405160405180910390a4828015611c2a5750611c2a866001600160a01b0316611d3d565b15611c3b57611c3b87878787611d43565b50505050505050565b60005460ff16610c49576040805162461bcd60e51b815260206004820152601460248201527f5061757361626c653a206e6f7420706175736564000000000000000000000000604482015290519081900360640190fd5b60008281526004602052604090205415611cfc576040805162461bcd60e51b815260206004820152601a60248201527f4552433732313a206578697374696e672f6275726e74204e4654000000000000604482015290519081900360640190fd5b60008281526004602052604090206001600160a01b038416905580610c2c5750506001600160a01b0316600090815260056020526040902080546001019055565b3b151590565b7f150b7a02000000000000000000000000000000000000000000000000000000006001600160a01b03841663150b7a02611d7b61132b565b8786866040518563ffffffff1660e01b815260040180856001600160a01b03168152602001846001600160a01b0316815260200183815260200180602001828103825283818151815260200191508051906020019080838360005b83811015611dee578181015183820152602001611dd6565b50505050905090810190601f168015611e1b5780820380516001836020036101000a031916815260200191505b5095505050505050602060405180830381600087803b158015611e3d57600080fd5b505af1158015611e51573d6000803e3d6000fd5b505050506040513d6020811015611e6757600080fd5b50516001600160e01b031916146110c2576040805162461bcd60e51b815260206004820152601860248201527f4552433732313a207472616e7366657220726566757365640000000000000000604482015290519081900360640190fd5b6000838152600460205260409020546001600160a01b0385811690821614611f34576040805162461bcd60e51b815260206004820152601560248201527f4552433732313a206e6f6e2d6f776e6564204e46540000000000000000000000604482015290519081900360640190fd5b82611fc557600160a01b811615801590611f7457506000848152600660205260409020546001600160a01b0316611f6961132b565b6001600160a01b0316145b611fc5576040805162461bcd60e51b815260206004820152601b60248201527f4552433732313a206e6f6e2d617070726f7665642073656e6465720000000000604482015290519081900360640190fd5b60008481526004602052604090207fdead000000000000000000000000000000000000000000000000000000000000905581611a3957505050506001600160a01b031660009081526005602052604090208054600019019055565b606081612061575060408051808201909152600181527f30000000000000000000000000000000000000000000000000000000000000006020820152610983565b8160005b811561207957600101600a82049150612065565b60008167ffffffffffffffff8111801561209257600080fd5b506040519080825280601f01601f1916602001820160405280156120bd576020820181803683370190505b50859350905060001982015b831561212657600a840660300160f81b828280600190039350815181106120ec57fe5b60200101907effffffffffffffffffffffffffffffffffffffffffffffffffffffffffffff1916908160001a905350600a840493506120c9565b50949350505050565b6000838152600460205260409020546001600160a01b038681169082161461219e576040805162461bcd60e51b815260206004820152601560248201527f4552433732313a206e6f6e2d6f776e6564204e46540000000000000000000000604482015290519081900360640190fd5b8261222f57600160a01b8116158015906121de57506000848152600660205260409020546001600160a01b03166121d361132b565b6001600160a01b0316145b61222f576040805162461bcd60e51b815260206004820152601b60248201527f4552433732313a206e6f6e2d617070726f7665642073656e6465720000000000604482015290519081900360640190fd5b60008481526004602052604090206001600160a01b038616905581611b4457611b44868660015b816001600160a01b0316836001600160a01b031614610c2c576001600160a01b0380841660009081526005602052604080822080548590039055918416815220805482019055505050565b828054600181600116156101000203166002900490600052602060002090601f0160209004810192826122d7576000855561231d565b82601f106122f05782800160ff1982351617855561231d565b8280016001018555821561231d579182015b8281111561231d578235825591602001919060010190612302565b5061232992915061232d565b5090565b5b80821115612329576000815560010161232e56fea2646970667358221220128534e6ed943720afc625c4073541a67d7d4afa749deba70ac3e3321d3540cb64736f6c63430007060033",
  "linkReferences": {},
  "deployedLinkReferences": {}
}