{
  "_format": "hh-sol-artifact-1",
  "contractName": "ERC721PausableMock",
  "sourceName": "contracts/mocks/token/ERC721/ERC721PausableMock.sol",
  "abi": [
    {
      "inputs": [],
      "stateMutability": "nonpayable",
      "type": "constructor"
    },
    {
      "anonymous": false,
      "inputs": [
        {
          "indexed": true,
          "internalType": "address",
          "name": "_owner",
          "type": "address"
        },
        {
          "indexed": true,
          "internalType": "address",
          "name": "_approved",
          "type": "address"
        },
        {
          "indexed": true,
          "internalType": "uint256",
          "name": "_tokenId",
          "type": "uint256"
        }
      ],
      "name": "Approval",
      "type": "event"
    },
    {
      "anonymous": false,
      "inputs": [
        {
          "indexed": true,
          "internalType": "address",
          "name": "_owner",
          "type": "address"
        },
        {
          "indexed": true,
          "internalType": "address",
          "name": "_operator",
          "type": "address"
        },
        {
          "indexed": false,
          "internalType": "bool",
          "name": "_approved",
          "type": "bool"
        }
      ],
      "name": "ApprovalForAll",
      "type": "event"
    },
    {
      "anonymous": false,
      "inputs": [
        {
          "indexed": false,
          "internalType": "string",
          "name": "baseMetadataURI",
          "type": "string"
        }
      ],
      "name": "BaseMetadataURISet",
      "type": "event"
    },
    {
      "anonymous": false,
      "inputs": [
        {
          "indexed": true,
          "internalType": "address",
          "name": "account",
          "type": "address"
        }
      ],
      "name": "MinterAdded",
      "type": "event"
    },
    {
      "anonymous": false,
      "inputs": [
        {
          "indexed": true,
          "internalType": "address",
          "name": "account",
          "type": "address"
        }
      ],
      "name": "MinterRemoved",
      "type": "event"
    },
    {
      "anonymous": false,
      "inputs": [
        {
          "indexed": true,
          "internalType": "address",
          "name": "previousOwner",
          "type": "address"
        },
        {
          "indexed": true,
          "internalType": "address",
          "name": "newOwner",
          "type": "address"
        }
      ],
      "name": "OwnershipTransferred",
      "type": "event"
    },
    {
      "anonymous": false,
      "inputs": [
        {
          "indexed": false,
          "internalType": "address",
          "name": "account",
          "type": "address"
        }
      ],
      "name": "Paused",
      "type": "event"
    },
    {
      "anonymous": false,
      "inputs": [
        {
          "indexed": true,
          "internalType": "address",
          "name": "_from",
          "type": "address"
        },
        {
          "indexed": true,
          "internalType": "address",
          "name": "_to",
          "type": "address"
        },
        {
          "indexed": true,
          "internalType": "uint256",
          "name": "_tokenId",
          "type": "uint256"
        }
      ],
      "name": "Transfer",
      "type": "event"
    },
    {
      "anonymous": false,
      "inputs": [
        {
          "indexed": false,
          "internalType": "address",
          "name": "account",
          "type": "address"
        }
      ],
      "name": "Unpaused",
      "type": "event"
    },
    {
      "inputs": [
        {
          "internalType": "address",
          "name": "account",
          "type": "address"
        }
      ],
      "name": "addMinter",
      "outputs": [],
      "stateMutability": "nonpayable",
      "type": "function"
    },
    {
      "inputs": [
        {
          "internalType": "address",
          "name": "to",
          "type": "address"
        },
        {
          "internalType": "uint256",
          "name": "tokenId",
          "type": "uint256"
        }
      ],
      "name": "approve",
      "outputs": [],
      "stateMutability": "nonpayable",
      "type": "function"
    },
    {
      "inputs": [
        {
          "internalType": "address",
          "name": "owner",
          "type": "address"
        }
      ],
      "name": "balanceOf",
      "outputs": [
        {
          "internalType": "uint256",
          "name": "",
          "type": "uint256"
        }
      ],
      "stateMutability": "view",
      "type": "function"
    },
    {
      "inputs": [],
      "name": "baseMetadataURI",
      "outputs": [
        {
          "internalType": "string",
          "name": "",
          "type": "string"
        }
      ],
      "stateMutability": "view",
      "type": "function"
    },
    {
      "inputs": [
        {
          "internalType": "address",
          "name": "from",
          "type": "address"
        },
        {
          "internalType": "uint256[]",
          "name": "tokenIds",
          "type": "uint256[]"
        }
      ],
      "name": "batchBurnFrom",
      "outputs": [],
      "stateMutability": "nonpayable",
      "type": "function"
    },
    {
      "inputs": [
        {
          "internalType": "address",
          "name": "to",
          "type": "address"
        },
        {
          "internalType": "uint256[]",
          "name": "nftIds",
          "type": "uint256[]"
        }
      ],
      "name": "batchMint",
      "outputs": [],
      "stateMutability": "nonpayable",
      "type": "function"
    },
    {
      "inputs": [
        {
          "internalType": "address",
          "name": "from",
          "type": "address"
        },
        {
          "internalType": "address",
          "name": "to",
          "type": "address"
        },
        {
          "internalType": "uint256[]",
          "name": "tokenIds",
          "type": "uint256[]"
        }
      ],
      "name": "batchTransferFrom",
      "outputs": [],
      "stateMutability": "nonpayable",
      "type": "function"
    },
    {
      "inputs": [
        {
          "internalType": "address",
          "name": "from",
          "type": "address"
        },
        {
          "internalType": "uint256",
          "name": "tokenId",
          "type": "uint256"
        }
      ],
      "name": "burnFrom",
      "outputs": [],
      "stateMutability": "nonpayable",
      "type": "function"
    },
    {
      "inputs": [
        {
          "internalType": "bytes32",
          "name": "c__0x0324e2ad",
          "type": "bytes32"
        }
      ],
      "name": "c_0x0324e2ad",
      "outputs": [],
      "stateMutability": "pure",
      "type": "function"
    },
    {
      "inputs": [
        {
          "internalType": "bytes32",
          "name": "c__0x31017afb",
          "type": "bytes32"
        }
      ],
      "name": "c_0x31017afb",
      "outputs": [],
      "stateMutability": "pure",
      "type": "function"
    },
    {
      "inputs": [
        {
          "internalType": "bytes32",
          "name": "c__0x4bf5d1c4",
          "type": "bytes32"
        }
      ],
      "name": "c_0x4bf5d1c4",
      "outputs": [],
      "stateMutability": "pure",
      "type": "function"
    },
    {
      "inputs": [
        {
          "internalType": "bytes32",
          "name": "c__0x53d96c90",
          "type": "bytes32"
        }
      ],
      "name": "c_0x53d96c90",
      "outputs": [],
      "stateMutability": "pure",
      "type": "function"
    },
    {
      "inputs": [
        {
          "internalType": "bytes32",
          "name": "c__0x9e16b403",
          "type": "bytes32"
        }
      ],
      "name": "c_0x9e16b403",
      "outputs": [],
      "stateMutability": "pure",
      "type": "function"
    },
    {
      "inputs": [
        {
          "internalType": "uint256",
          "name": "tokenId",
          "type": "uint256"
        }
      ],
      "name": "getApproved",
      "outputs": [
        {
          "internalType": "address",
          "name": "",
          "type": "address"
        }
      ],
      "stateMutability": "view",
      "type": "function"
    },
    {
      "inputs": [
        {
          "internalType": "address",
          "name": "owner",
          "type": "address"
        },
        {
          "internalType": "address",
          "name": "operator",
          "type": "address"
        }
      ],
      "name": "isApprovedForAll",
      "outputs": [
        {
          "internalType": "bool",
          "name": "",
          "type": "bool"
        }
      ],
      "stateMutability": "view",
      "type": "function"
    },
    {
      "inputs": [
        {
          "internalType": "address",
          "name": "",
          "type": "address"
        }
      ],
      "name": "isMinter",
      "outputs": [
        {
          "internalType": "bool",
          "name": "",
          "type": "bool"
        }
      ],
      "stateMutability": "view",
      "type": "function"
    },
    {
      "inputs": [
        {
          "internalType": "address",
          "name": "to",
          "type": "address"
        },
        {
          "internalType": "uint256",
          "name": "nftId",
          "type": "uint256"
        }
      ],
      "name": "mint",
      "outputs": [],
      "stateMutability": "nonpayable",
      "type": "function"
    },
    {
      "inputs": [],
      "name": "name",
      "outputs": [
        {
          "internalType": "string",
          "name": "",
          "type": "string"
        }
      ],
      "stateMutability": "view",
      "type": "function"
    },
    {
      "inputs": [],
      "name": "owner",
      "outputs": [
        {
          "internalType": "address",
          "name": "",
          "type": "address"
        }
      ],
      "stateMutability": "view",
      "type": "function"
    },
    {
      "inputs": [
        {
          "internalType": "uint256",
          "name": "tokenId",
          "type": "uint256"
        }
      ],
      "name": "ownerOf",
      "outputs": [
        {
          "internalType": "address",
          "name": "",
          "type": "address"
        }
      ],
      "stateMutability": "view",
      "type": "function"
    },
    {
      "inputs": [],
      "name": "pause",
      "outputs": [],
      "stateMutability": "nonpayable",
      "type": "function"
    },
    {
      "inputs": [],
      "name": "paused",
      "outputs": [
        {
          "internalType": "bool",
          "name": "",
          "type": "bool"
        }
      ],
      "stateMutability": "view",
      "type": "function"
    },
    {
      "inputs": [],
      "name": "renounceMinter",
      "outputs": [],
      "stateMutability": "nonpayable",
      "type": "function"
    },
    {
      "inputs": [
        {
          "internalType": "address",
          "name": "to",
          "type": "address"
        },
        {
          "internalType": "uint256",
          "name": "nftId",
          "type": "uint256"
        },
        {
          "internalType": "bytes",
          "name": "data",
          "type": "bytes"
        }
      ],
      "name": "safeMint",
      "outputs": [],
      "stateMutability": "nonpayable",
      "type": "function"
    },
    {
      "inputs": [
        {
          "internalType": "address",
          "name": "from",
          "type": "address"
        },
        {
          "internalType": "address",
          "name": "to",
          "type": "address"
        },
        {
          "internalType": "uint256",
          "name": "tokenId",
          "type": "uint256"
        }
      ],
      "name": "safeTransferFrom",
      "outputs": [],
      "stateMutability": "nonpayable",
      "type": "function"
    },
    {
      "inputs": [
        {
          "internalType": "address",
          "name": "from",
          "type": "address"
        },
        {
          "internalType": "address",
          "name": "to",
          "type": "address"
        },
        {
          "internalType": "uint256",
          "name": "tokenId",
          "type": "uint256"
        },
        {
          "internalType": "bytes",
          "name": "data",
          "type": "bytes"
        }
      ],
      "name": "safeTransferFrom",
      "outputs": [],
      "stateMutability": "nonpayable",
      "type": "function"
    },
    {
      "inputs": [
        {
          "internalType": "address",
          "name": "operator",
          "type": "address"
        },
        {
          "internalType": "bool",
          "name": "approved",
          "type": "bool"
        }
      ],
      "name": "setApprovalForAll",
      "outputs": [],
      "stateMutability": "nonpayable",
      "type": "function"
    },
    {
      "inputs": [
        {
          "internalType": "string",
          "name": "baseMetadataURI_",
          "type": "string"
        }
      ],
      "name": "setBaseMetadataURI",
      "outputs": [],
      "stateMutability": "nonpayable",
      "type": "function"
    },
    {
      "inputs": [
        {
          "internalType": "bytes4",
          "name": "interfaceId",
          "type": "bytes4"
        }
      ],
      "name": "supportsInterface",
      "outputs": [
        {
          "internalType": "bool",
          "name": "",
          "type": "bool"
        }
      ],
      "stateMutability": "view",
      "type": "function"
    },
    {
      "inputs": [],
      "name": "symbol",
      "outputs": [
        {
          "internalType": "string",
          "name": "",
          "type": "string"
        }
      ],
      "stateMutability": "view",
      "type": "function"
    },
    {
      "inputs": [
        {
          "internalType": "uint256",
          "name": "nftId",
          "type": "uint256"
        }
      ],
      "name": "tokenURI",
      "outputs": [
        {
          "internalType": "string",
          "name": "",
          "type": "string"
        }
      ],
      "stateMutability": "view",
      "type": "function"
    },
    {
      "inputs": [
        {
          "internalType": "address",
          "name": "from",
          "type": "address"
        },
        {
          "internalType": "address",
          "name": "to",
          "type": "address"
        },
        {
          "internalType": "uint256",
          "name": "tokenId",
          "type": "uint256"
        }
      ],
      "name": "transferFrom",
      "outputs": [],
      "stateMutability": "nonpayable",
      "type": "function"
    },
    {
      "inputs": [
        {
          "internalType": "address",
          "name": "newOwner",
          "type": "address"
        }
      ],
      "name": "transferOwnership",
      "outputs": [],
      "stateMutability": "nonpayable",
      "type": "function"
    },
    {
      "inputs": [],
      "name": "unpause",
      "outputs": [],
      "stateMutability": "nonpayable",
      "type": "function"
    }
  ],
  "bytecode": "0x60806040523480156200001157600080fd5b5033806040518060400160405280601281526020017f4552433732314275726e61626c654d6f636b00000000000000000000000000008152506040518060400160405280600581526020017f45373231420000000000000000000000000000000000000000000000000000008152506000806000806101000a81548160ff02191690831515021790555050620000d07f01898fb7433591365e7a64882867494581ef247344be82e4d412af24ddf9960960001b620002f160201b60201c565b620001047f4ef619e81fabde8cf4746c63609d874edf10b12f61c276fe60e39f565095dae160001b620002f160201b60201c565b620001387f62e6606ba85be94fa9f45109a47ad2b8a2bb1fa137357061d90d6031c895cbb960001b620002f160201b60201c565b81600190805190602001906200015092919062000398565b50620001857fbfd7910be684f73c37ca62b6b0ef5e4626ade6b106deddbf36f834a5c8f4743760001b620002f160201b60201c565b620001b97f5fc8158f1632154c5af67da401071375883998180fa777d13ef88863061505b560001b620002f160201b60201c565b8060029080519060200190620001d192919062000398565b50505080600760006101000a81548173ffffffffffffffffffffffffffffffffffffffff021916908373ffffffffffffffffffffffffffffffffffffffff1602179055508073ffffffffffffffffffffffffffffffffffffffff16600073ffffffffffffffffffffffffffffffffffffffff167f8be0079c531659141344cd1fd0a4f28419497f9722a3daafe3b4186f6b6457e060405160405180910390a3506200028281620002f460201b60201c565b50620002b77f0784bd6a5d70356130090054c9c1cf273c699e9c392f5f0259a34b3dea4af50160001b6200039260201b60201c565b620002eb7f35b0603e11ca7914974020a709b33044f3549f558e898fbb39d556ddf1cbf29660001b6200039560201b60201c565b6200044e565b50565b6001600960008373ffffffffffffffffffffffffffffffffffffffff1673ffffffffffffffffffffffffffffffffffffffff16815260200190815260200160002060006101000a81548160ff0219169083151502179055508073ffffffffffffffffffffffffffffffffffffffff167f6ae172837ea30b801fbfcdd4108aa1d5bf8ff775444fd70256b44e6bf3dfc3f660405160405180910390a250565b50565b50565b828054600181600116156101000203166002900490600052602060002090601f016020900481019282620003d057600085556200041c565b82601f10620003eb57805160ff19168380011785556200041c565b828001600101855582156200041c579182015b828111156200041b578251825591602001919060010190620003fe565b5b5090506200042b91906200042f565b5090565b5b808211156200044a57600081600090555060010162000430565b5090565b6173f5806200045e6000396000f3fe608060405234801561001057600080fd5b50600436106102265760003560e01c80638456cb591161012a578063aa271e1a116100bd578063d71930721161008c578063f247296511610071578063f247296514610d87578063f2fde38b14610e5f578063f3993d1114610ea357610226565b8063d719307214610cdf578063e985e9c514610d0d57610226565b8063aa271e1a14610aab578063b88d4fde14610b05578063c0005ea514610c0a578063c87b56dd14610c3857610226565b806395d89b41116100f957806395d89b411461098a578063983b2d5614610a0d5780639865027514610a51578063a22cb46514610a5b57610226565b80638456cb59146108395780638832e6e3146108435780638da5cb5b146109285780638fd8bb561461095c57610226565b80634684d7e9116101bd5780636352211e1161018c57806370a082311161017157806370a082311461071a57806379cc6790146107725780637e518ec8146107c057610226565b80636352211e14610694578063688f4f08146106ec57610226565b80634684d7e9146104eb5780634de67cb9146105c35780635b2bd79e146105f15780635c975abb1461067457610226565b806323b872dd116101f957806323b872dd146103b75780633f4ba83a1461042557806340c10f191461042f57806342842e0e1461047d57610226565b806301ffc9a71461022b57806306fdde031461028e578063081812fc14610311578063095ea7b314610369575b600080fd5b6102766004803603602081101561024157600080fd5b8101908080357bffffffffffffffffffffffffffffffffffffffffffffffffffffffff19169060200190929190505050610f9b565b60405180821515815260200191505060405180910390f35b610296611099565b6040518080602001828103825283818151815260200191508051906020019080838360005b838110156102d65780820151818401526020810190506102bb565b50505050905090810190601f1680156103035780820380516001836020036101000a031916815260200191505b509250505060405180910390f35b61033d6004803603602081101561032757600080fd5b81019080803590602001909291905050506111bf565b604051808273ffffffffffffffffffffffffffffffffffffffff16815260200191505060405180910390f35b6103b56004803603604081101561037f57600080fd5b81019080803573ffffffffffffffffffffffffffffffffffffffff16906020019092919080359060200190929190505050611576565b005b610423600480360360608110156103cd57600080fd5b81019080803573ffffffffffffffffffffffffffffffffffffffff169060200190929190803573ffffffffffffffffffffffffffffffffffffffff16906020019092919080359060200190929190505050611a8b565b005b61042d611b7f565b005b61047b6004803603604081101561044557600080fd5b81019080803573ffffffffffffffffffffffffffffffffffffffff16906020019092919080359060200190929190505050611c75565b005b6104e96004803603606081101561049357600080fd5b81019080803573ffffffffffffffffffffffffffffffffffffffff169060200190929190803573ffffffffffffffffffffffffffffffffffffffff16906020019092919080359060200190929190505050611d81565b005b6105c16004803603604081101561050157600080fd5b81019080803573ffffffffffffffffffffffffffffffffffffffff1690602001909291908035906020019064010000000081111561053e57600080fd5b82018360208201111561055057600080fd5b8035906020019184602083028401116401000000008311171561057257600080fd5b919080806020026020016040519081016040528093929190818152602001838360200280828437600081840152601f19601f820116905080830192505050505050509192919290505050611e75565b005b6105ef600480360360208110156105d957600080fd5b8101908080359060200190929190505050611f6f565b005b6105f9611f72565b6040518080602001828103825283818151815260200191508051906020019080838360005b8381101561063957808201518184015260208101905061061e565b50505050905090810190601f1680156106665780820380516001836020036101000a031916815260200191505b509250505060405180910390f35b61067c612010565b60405180821515815260200191505060405180910390f35b6106c0600480360360208110156106aa57600080fd5b8101908080359060200190929190505050612021565b604051808273ffffffffffffffffffffffffffffffffffffffff16815260200191505060405180910390f35b6107186004803603602081101561070257600080fd5b8101908080359060200190929190505050612273565b005b61075c6004803603602081101561073057600080fd5b81019080803573ffffffffffffffffffffffffffffffffffffffff169060200190929190505050612276565b6040518082815260200191505060405180910390f35b6107be6004803603604081101561078857600080fd5b81019080803573ffffffffffffffffffffffffffffffffffffffff16906020019092919080359060200190929190505050612496565b005b610837600480360360208110156107d657600080fd5b81019080803590602001906401000000008111156107f357600080fd5b82018360208201111561080557600080fd5b8035906020019184600183028401116401000000008311171561082757600080fd5b9091929391929390505050612588565b005b610841612745565b005b6109266004803603606081101561085957600080fd5b81019080803573ffffffffffffffffffffffffffffffffffffffff16906020019092919080359060200190929190803590602001906401000000008111156108a057600080fd5b8201836020820111156108b257600080fd5b803590602001918460018302840111640100000000831117156108d457600080fd5b91908080601f016020809104026020016040519081016040528093929190818152602001838380828437600081840152601f19601f82011690508083019250505050505050919291929050505061283b565b005b610930612939565b604051808273ffffffffffffffffffffffffffffffffffffffff16815260200191505060405180910390f35b6109886004803603602081101561097257600080fd5b8101908080359060200190929190505050612963565b005b610992612966565b6040518080602001828103825283818151815260200191508051906020019080838360005b838110156109d25780820151818401526020810190506109b7565b50505050905090810190601f1680156109ff5780820380516001836020036101000a031916815260200191505b509250505060405180910390f35b610a4f60048036036020811015610a2357600080fd5b81019080803573ffffffffffffffffffffffffffffffffffffffff169060200190929190505050612a8c565b005b610a59612aa8565b005b610aa960048036036040811015610a7157600080fd5b81019080803573ffffffffffffffffffffffffffffffffffffffff169060200190929190803515159060200190929190505050612b5b565b005b610aed60048036036020811015610ac157600080fd5b81019080803573ffffffffffffffffffffffffffffffffffffffff169060200190929190505050612eed565b60405180821515815260200191505060405180910390f35b610c0860048036036080811015610b1b57600080fd5b81019080803573ffffffffffffffffffffffffffffffffffffffff169060200190929190803573ffffffffffffffffffffffffffffffffffffffff1690602001909291908035906020019092919080359060200190640100000000811115610b8257600080fd5b820183602082011115610b9457600080fd5b80359060200191846001830284011164010000000083111715610bb657600080fd5b91908080601f016020809104026020016040519081016040528093929190818152602001838380828437600081840152601f19601f820116905080830192505050505050509192919290505050612f0d565b005b610c3660048036036020811015610c2057600080fd5b8101908080359060200190929190505050613003565b005b610c6460048036036020811015610c4e57600080fd5b8101908080359060200190929190505050613006565b6040518080602001828103825283818151815260200191508051906020019080838360005b83811015610ca4578082015181840152602081019050610c89565b50505050905090810190601f168015610cd15780820380516001836020036101000a031916815260200191505b509250505060405180910390f35b610d0b60048036036020811015610cf557600080fd5b8101908080359060200190929190505050613202565b005b610d6f60048036036040811015610d2357600080fd5b81019080803573ffffffffffffffffffffffffffffffffffffffff169060200190929190803573ffffffffffffffffffffffffffffffffffffffff169060200190929190505050613205565b60405180821515815260200191505060405180910390f35b610e5d60048036036040811015610d9d57600080fd5b81019080803573ffffffffffffffffffffffffffffffffffffffff16906020019092919080359060200190640100000000811115610dda57600080fd5b820183602082011115610dec57600080fd5b80359060200191846020830284011164010000000083111715610e0e57600080fd5b919080806020026020016040519081016040528093929190818152602001838360200280828437600081840152601f19601f82011690508083019250505050505050919291929050505061331d565b005b610ea160048036036020811015610e7557600080fd5b81019080803573ffffffffffffffffffffffffffffffffffffffff16906020019092919050505061340f565b005b610f9960048036036060811015610eb957600080fd5b81019080803573ffffffffffffffffffffffffffffffffffffffff169060200190929190803573ffffffffffffffffffffffffffffffffffffffff16906020019092919080359060200190640100000000811115610f1657600080fd5b820183602082011115610f2857600080fd5b80359060200191846020830284011164010000000083111715610f4a57600080fd5b919080806020026020016040519081016040528093929190818152602001838360200280828437600081840152601f19601f8201169050808301925050505050505091929192905050506134df565b005b6000610fc97f91af3ecd656d490e29267a4f3cc0b3e4a9814c9ce2878c689961af8a6ba228dc60001b612273565b610ff57f072f5913235528ea3a6ff90ad33bb0ead58cb2356cb6c0d8d6d9da292ba976a860001b612273565b6110217f3bd80110425e0bed08022b355cdc95fd96d63f357b1138baa389ef848cb003c260001b612273565b7f8b8b4ef5000000000000000000000000000000000000000000000000000000007bffffffffffffffffffffffffffffffffffffffffffffffffffffffff1916827bffffffffffffffffffffffffffffffffffffffffffffffffffffffff19161480611092575061109182613726565b5b9050919050565b60606110c77f8e6cb8cae5a8d818bb03ce0c7dd2c401496f24f5852d30a5707021ccd06b90a860001b613003565b6110f37f13af1f94f4609d9afe83e89503d1a28971d946ab390d65d09757805f374cef8760001b613003565b61111f7f4b636376805baf119e8c631357afe9d4263da6ffd31f603642a3ba813cefe1c160001b613003565b60018054600181600116156101000203166002900480601f0160208091040260200160405190810160405280929190818152602001828054600181600116156101000203166002900480156111b55780601f1061118a576101008083540402835291602001916111b5565b820191906000526020600020905b81548152906001019060200180831161119857829003601f168201915b5050505050905090565b60006111ed7f8181d8916208769f6b5840b6e587846ae3073a51225d29dda74075d73ef36d9d60001b613003565b6112197f934f904934f4b1696378aed6330d9fc24c79ef4c38c2742cf1ad328f7f2528b160001b613003565b6112457fe97bb7da92c807f54a8a1eda89a6b44ab169fc5915bf5df157402eed0c2170f460001b613003565b6000600460008481526020019081526020016000205490506112897f43933368b2ff3a9bb4fea8466f4a74c2ae5a70fc79cc867048eea7c212e3366060001b613003565b6112b57f5ece2d4f54668499ef94581db2f5f3dc35f3c07ebbdf8877ad8da743137b72e260001b613003565b6112e17f7e0d8d76fe87b52c71bf121fc400eefcad8504d092d49a8db66e65e6415b80e760001b613003565b600073ffffffffffffffffffffffffffffffffffffffff168173ffffffffffffffffffffffffffffffffffffffff161415611384576040517f08c379a00000000000000000000000000000000000000000000000000000000081526004018080602001828103825260188152602001807f4552433732313a206e6f6e2d6578697374696e67204e4654000000000000000081525060200191505060405180910390fd5b6113b07ffed529393ef74fbd61d531692c7bf7d0f16506352e43af96782403c95a58cf6f60001b613003565b6113dc7f71057fa8ca8b6252bd517fbaf01be8b9c77d489b879c24c3084f5b6a61f0b18860001b613003565b6114087f2e9be08bec619e701f837a0213f47d19498ebfb074a040280233f0bead19a85a60001b613003565b6000740100000000000000000000000000000000000000008216146114e7576114537f1e21e04167e924680b843932f4917f87e4886bfaead3695075d1cab0f0accfb360001b613003565b61147f7f14880d718ec632784c8abc598e76c248c77b489f826729f2f06932261f6091ed60001b613003565b6114ab7fe78973a01e73856171830b3b3b2e33bc5b8e25fff1767994e78a8020b0d6198f60001b613003565b6006600084815260200190815260200160002060009054906101000a900473ffffffffffffffffffffffffffffffffffffffff16915050611571565b6115137fe4b9230e21905331a9493e1169e8a1539eb7ab99e624c3187992a5058073277160001b613003565b61153f7f8103402c01116b85a335e3df5d954e50072e2f2a6842731eb67061746b36607f60001b613003565b61156b7f14d219a0fe93c3b04d1d981b265ca34ca420c935a5934a4eb49aafc9a7a939d360001b613003565b60009150505b919050565b6115a27f6e082fc0d92c9b46a440d73dd849ae08aee10532d5a7f643f20629f775e7e95460001b613003565b6115ce7f2fb997aa37d65928c4e67d4ab892523ea0a92a4612ad3ee16e4faa8452721c1460001b613003565b6115fa7f410d1ba801bd346bacad2432f74797c66f7ff2780a4486db06e39fb26af8c1c460001b613003565b600061160582612021565b90506116337fa0045e7c992afc25b81a2ca5fb91e3288c737fe784c06aaa92affdcd9e6ed69e60001b613003565b61165f7f84242c1853bcfc740211ff608f807dfe9480a02fe6c2646421db82cbce06a8d360001b613003565b61168b7f2c6ca026b621f1bf2b0b2217aa901db145a6029b3a56dd0bbc6501c8c8b5385b60001b613003565b8073ffffffffffffffffffffffffffffffffffffffff168373ffffffffffffffffffffffffffffffffffffffff16141561172d576040517f08c379a00000000000000000000000000000000000000000000000000000000081526004018080602001828103825260158152602001807f4552433732313a2073656c662d617070726f76616c000000000000000000000081525060200191505060405180910390fd5b6117597f718610efd098aa9f2803049fe5b4c555798cbbcf5fb77df343e57bbb558f9dbd60001b613003565b6117857fa6870cce89b61e1883968c7abfe821a86909db64e94ba73dd0b596e9894565c560001b613003565b6117b17f5cfac01b070831c396d29f04c2ec9d4d24acfb5ba501cab8fc6a7ef050610e9960001b613003565b6117dd7f23e5f8e3a7ebf33598813c7a19e44855870a74b7be8bbbd78fc815d58fc8e7bc60001b613003565b6117ee816117e961394c565b613954565b611860576040517f08c379a000000000000000000000000000000000000000000000000000000000815260040180806020018281038252601b8152602001807f4552433732313a206e6f6e2d617070726f7665642073656e646572000000000081525060200191505060405180910390fd5b61188c7f4694bf8adbb30f2a146d05fc206e73bfae43c7e7aa668ea42e3f2d881c1a149660001b613003565b6118b87f079fb872ee8844c666df263c9e6eaa6882dddf61eb26e709961a5f7b91d872a460001b613003565b6118e47fa1f81d214ad1845a43ce797dad3815933e9442d19a516be793f939f4c564c0bc60001b613003565b740100000000000000000000000000000000000000008173ffffffffffffffffffffffffffffffffffffffff161760046000848152602001908152602001600020819055506119557f48c9f03eb80c088ca58be40428ff6b819c4aa0a1665e4d74d2f72e9a3ebb471760001b613003565b6119817f1b8c2034cb1243a3b1254f1f8afe084c22e3532389a71329ee0a11358a844b0860001b613003565b826006600084815260200190815260200160002060006101000a81548173ffffffffffffffffffffffffffffffffffffffff021916908373ffffffffffffffffffffffffffffffffffffffff1602179055506119ff7fd2c1105d65b014e3035b4bb5f2b41b1ee0dd84007583c7eb2408a30353b0b0b560001b613003565b611a2b7f80dce22c466eee2cbb3e1fe2370eee2c9e6d66b2d6055ca7140610f381e7a5b660001b613003565b818373ffffffffffffffffffffffffffffffffffffffff168273ffffffffffffffffffffffffffffffffffffffff167f8c5be1e5ebec7d5bd14f71427d1e84f3dd0314c0f7b2291e5b200ac8c7c3b92560405160405180910390a4505050565b611ab77f0429564eeda623e9e8fedcbc9a58324eb9c9ca654283a90f044cb51c8091ee7560001b612963565b611ae37f8124b3ed9fbc2bf64130a9496a79c9f133eec307da258611dfd100fc99246f7f60001b612963565b611b0f7f86116cdbe183c3808fc729dd010a1b39276686db7fa83b0fbba7c51b68224e2e60001b612963565b611b17613aa2565b611b437fd781a9ca6a4fc6e98b394e9327e037eae96f3489faff9495e7308d96e978df2a60001b612963565b611b6f7f1a4eceb071c8aa539c4f038a13625ec36ca3995548539408e50417d13199c64660001b612963565b611b7a838383613b25565b505050565b611bab7fe7431562cd6dd2098ae3c61b524479d5006e938c3c9f712359b21047d90c074460001b612963565b611bd77f69ddf289c135ca9de1cbef257f6b3bc7784ea19e55a15ae2860ce72c1725718160001b612963565b611c037f61cf06baf4b16a0fa2118acca4a44172c514eef703b6d17f59de11ff24a2b80760001b612963565b611c13611c0e61394c565b613bcb565b611c3f7f3699b6e6285c22fd9cec952b289bde0d6ca02e3c49ed08b5a712cb3b24b10fb760001b612963565b611c6b7fbd78b1f67847b75ceb657c4a5d34e350c51853e5b6307cfad48769fc17814a9860001b612963565b611c73613cef565b565b611ca17fbae026cf316caf64d5e7ffc5b04b93263cf4def40ac425015b6c4635fffcdc2b60001b613202565b611ccd7fe421ab2533291e9ffa4bd180abaa7e5d28f4589b7bdffef4ee9a5d5a36a79d8460001b613202565b611cf97f7edb0a98f8819fc7c47f19455113693735b7b1ff6c4a11019293cc46e189a76760001b613202565b611d09611d0461394c565b613d67565b611d357f897c4cfd1d2e4fae3a575a83ee52fe122b6ddcd09173b8d1e9d595325f94db2160001b613202565b611d617fe69f159da54a9f1dca5a108bede8f534f51750668466a1626b8a1ae927c3933560001b613202565b611d7d8282604051806020016040528060008152506000613e29565b5050565b611dad7fdeb1d066173657821e798f5a7c3ecc92b6b4b4ae16b5c5e0d87baa7644ed9e7960001b612963565b611dd97f9b01ff66fcc8d1cb168ac080bda2950c15e6b959caf7b13e0381c652c8b1cfa660001b612963565b611e057ff9f43b4c16c18f707cd4cdb20b814f38c755e9324b7912c8ecbf7a95a33f7ecc60001b612963565b611e0d613aa2565b611e397f40679edaac766ce6ed1d21937964c3b59109bd68e4602b1f908142316b18a9e960001b612963565b611e657f705b6ff80e9de557b6d1fbd548d9e7fdb5266a2cd4933bd45b9bd3d8c76f893460001b612963565b611e7083838361420e565b505050565b611ea17f30431e91277e48b49946a9b953a1a631988a24b37469cfb881a274c4bee393c160001b613202565b611ecd7f7d5d36dafc23c401b2028cd0e6c67706fdb3caece9431821fd194f84da52ca8a60001b613202565b611ef97f180bed08a98556f4b3bffa67e6a31038e9d808ac1a8496ec7d6eaeeeb3cdb31a60001b613202565b611f09611f0461394c565b613d67565b611f357f6104f44e1e5429e06fec1a52d57306eba0531ce0f824fd9192ceefff3c86db7460001b613202565b611f617fc267e7eab817f6c7fd68d12c802fba3504862a05faaebb9c15b9ced44ee1fc1160001b613202565b611f6b82826142b4565b5050565b50565b60088054600181600116156101000203166002900480601f0160208091040260200160405190810160405280929190818152602001828054600181600116156101000203166002900480156120085780601f10611fdd57610100808354040283529160200191612008565b820191906000526020600020905b815481529060010190602001808311611feb57829003601f168201915b505050505081565b60008054906101000a900460ff1681565b600061204f7f0cfd96c3c0c17341c5c77dc3e8027a9abe738dd44afa7ff01707e13f2411e50560001b613003565b61207b7f16de8774825683300023bfd773edd90821b24e251b273bc428a7c219d9a2cac060001b613003565b6120a77fd10b58ecfb807c727afb9a8d74e180670d16c5e819be223987452024421f61e060001b613003565b6000600460008481526020019081526020016000205490506120eb7ff669280242595b094623cfa81e882ce09712251c7897ae68f8328aad843d8e0d60001b613003565b6121177f1cf23b91469f444dac369d56a8bd9402b0b93372781eadb18bedf4df15388b0660001b613003565b6121437f32acdfba7daf7ec41b754e3ad21716b50e57b85335c82f80d7e75af8bb634b6360001b613003565b600073ffffffffffffffffffffffffffffffffffffffff168173ffffffffffffffffffffffffffffffffffffffff1614156121e6576040517f08c379a00000000000000000000000000000000000000000000000000000000081526004018080602001828103825260188152602001807f4552433732313a206e6f6e2d6578697374696e67204e4654000000000000000081525060200191505060405180910390fd5b6122127f93b6dc9795ebd6cf4bb9e4978fbb9bf438f1efc7846bbda7bcc7621dd72f396b60001b613003565b61223e7f5f2d535d6e630ccfcab64a7a6e011549cfc41ccf429fba894d86cbb50f22825960001b613003565b61226a7f024a791ddaa27335155ce56b19e7bc817c7fa0b7667523619a53051b00d14fed60001b613003565b80915050919050565b50565b60006122a47f19e9021d51c599b31daaf02d3d2b3d5b7c3e35b7ffd5c0aa4379668fb669533060001b613003565b6122d07f92f9edd2097c365a22d2f888405653a6ed8adb03a0446bbdb670ec0bfe2b001d60001b613003565b6122fc7fcdff77b7ac30673d5a09e2dc48963f813a03060f878fb0dbb5b421c85b0894ee60001b613003565b6123287fc22a4cee9e60bacdad7053c19619a637e070171cec23eb1d7e2ee180774be57060001b613003565b600073ffffffffffffffffffffffffffffffffffffffff168273ffffffffffffffffffffffffffffffffffffffff1614156123cb576040517f08c379a00000000000000000000000000000000000000000000000000000000081526004018080602001828103825260148152602001807f4552433732313a207a65726f206164647265737300000000000000000000000081525060200191505060405180910390fd5b6123f77f2a40617119094dffe0a1ffb329a3180bc1eff4e875c7a65a45969c7f3c508af760001b613003565b6124237fd98da5a51e6ab5e88db3c8d9b79e59b0c907950f1ddda5469ac83f21969e0a5060001b613003565b61244f7fc40a3deced5fd94f3da42422bf5fbb3654332430cfddd0b51590699a66a9282060001b613003565b600560008373ffffffffffffffffffffffffffffffffffffffff1673ffffffffffffffffffffffffffffffffffffffff168152602001908152602001600020549050919050565b6124c27fd0d98e63a5816e1504082576585603d5fd28693851d5578dbd4c17888cabe86460001b612963565b6124ee7f3079f563fa993227a614a0e29ab3aca2677f3d56454ba1cb12949676ddc831d860001b612963565b61251a7fdaf5e68229d1ea037bc2e55a162e59b4d3c97a9fac208379449608d5b5e5b08360001b612963565b612522613aa2565b61254e7feb394c7e8c1bc3fed4b486d54a3b811f5b76b6d6888175191b5e1b4daa24153260001b612963565b61257a7f90481d3ccf1ee7e05747dfd1871dc59d42ccb468a30ca3c817e61babf4c7b4da60001b612963565b6125848282614848565b5050565b6125b47f7a798900079f8abfec5d8e2dbe01957da86924048545474d2e8cc4455ff9b8d160001b611f6f565b6125e07fe5e96d6f82b06fe1194e47d7e09774604275383795b69bf66729b57c43f3a68160001b611f6f565b61260c7f1bab262e01d292ebc7268f0af663a93ea4cfca3b15a21a9bd3b88ed5d7a2575d60001b611f6f565b61261c61261761394c565b613bcb565b6126487f889c29d91f479e9e5ea327b67cd360470392306bab96df204f280c7db9ea52ed60001b611f6f565b6126747fe36810d14b53a066d2911963f7e0dcf3b24615a7ccdad7d1cdfb9eb2a23f966360001b611f6f565b818160089190612685929190617314565b506126b27ff608c0d0ece8312aa6b4686eba824834606e1e579f33a0c28b1a959db81b457060001b611f6f565b6126de7f0266515aefe9459e801de01c95b7c8eb072550f55c42ed42ab0afeccf3e2ab7760001b611f6f565b7f04b1dc5c136a3ce9fded8db0ce3d3366c58764ec3a8e4c2b9e52e4ddfe5ebbf7828260405180806020018281038252848482818152602001925080828437600081840152601f19601f820116905080830192505050935050505060405180910390a15050565b6127717f7c4e7b74128ab9e8819f57f61d36f84dedbf840b6cbf2daf879ed457afc42d7c60001b612963565b61279d7f23d22c8bb9988df66e542860fc4b0a312e2c5eb728a10a750166121f9a6e1f3560001b612963565b6127c97f6b26241c755fa8ccd7d79a912c2cbcddc5c603dca737ff963a2fdc004fe8144a60001b612963565b6127d96127d461394c565b613bcb565b6128057f259d5d9c755664dc3f36ad9ab0b2574e345dfa7d8e947386042d51c2a0eed7d660001b612963565b6128317fa78a2ae396227a59c662f807101df7746a218929bec07a7cf118de8ea503707c60001b612963565b612839614a5d565b565b6128677f8b84d7edb59ab4cc23aa668abc06c1f18079fb922fe382c35dd58d7c5a31b4b360001b613202565b6128937f7aa4f9cbe22096cfdcb9f05d75c5ee96f63dd8480cb469496f6e429fbb314e2260001b613202565b6128bf7fe544474e67ed93c3d943d1e2710d13556908b0d4339d67be6efd7aef48e6849360001b613202565b6128cf6128ca61394c565b613d67565b6128fb7f9fed4fec05410039a4896e514296870d0d0fcf5822312a5562a21d160d14878560001b613202565b6129277f631be5585f26e7d56a289bfd6fb1216cb12b760eee06c46e6c63f0647450c12360001b613202565b6129348383836001613e29565b505050565b6000600760009054906101000a900473ffffffffffffffffffffffffffffffffffffffff16905090565b50565b60606129947faacaad39fb4f8600f3baac4766003d8700f4adc8ec305615b5142f25d0ec99fa60001b613003565b6129c07f26c390e37498002c9c8c7bea7d16a54e7fd2e98d5ade41e5158dac8a8095792760001b613003565b6129ec7f2e2e344b9fe4f40da6b3bc98c1878e6e7eee6eb70582d3827fb5e5aef1bc317e60001b613003565b60028054600181600116156101000203166002900480601f016020809104026020016040519081016040528092919081815260200182805460018160011615610100020316600290048015612a825780601f10612a5757610100808354040283529160200191612a82565b820191906000526020600020905b815481529060010190602001808311612a6557829003601f168201915b5050505050905090565b612a9c612a9761394c565b613bcb565b612aa581614ad5565b50565b6000612ab261394c565b9050612abd81613d67565b6000600960008373ffffffffffffffffffffffffffffffffffffffff1673ffffffffffffffffffffffffffffffffffffffff16815260200190815260200160002060006101000a81548160ff0219169083151502179055508073ffffffffffffffffffffffffffffffffffffffff167fe94479a9f7e1952cc78f2d6baab678adc1b772d936c6583def489e524cb6669260405160405180910390a250565b612b877f42a1393a940f4d0fa7998226c57fe8d2b3742761f02ccd5bd70eb814216a92a560001b613003565b612bb37fce94e82c6b61e41492300cec4f7593fc5cc863fd04ee16d70741ab5e018091b060001b613003565b612bdf7fff6c6bd977623fe6c11f7d7efc091987fe6c7246f6249a006dadd64b1a25ddf460001b613003565b6000612be961394c565b9050612c177f3d06490f88581cf392cb86969adc3bb22d07a2fe49787678c942538a5b95a67160001b613003565b612c437fd4980a2ff4458f0d382de545ceb9caedfd3399cbc88a3a9e7950599e7edc982460001b613003565b612c6f7f778f417ca6a030a1909b63f2078c73dd27f376e9e9dec20931edc18b2eba689160001b613003565b8073ffffffffffffffffffffffffffffffffffffffff168373ffffffffffffffffffffffffffffffffffffffff161415612d11576040517f08c379a00000000000000000000000000000000000000000000000000000000081526004018080602001828103825260158152602001807f4552433732313a2073656c662d617070726f76616c000000000000000000000081525060200191505060405180910390fd5b612d3d7f61b63ad708ac3f193a8aa794e01d7f539f5fe6c26d72fab6b7a3397a271bf92c60001b613003565b612d697fe0d35761a4aa8cc72bdcdd209bd6e91b3b34b36b194aafcec8c34fd28572422d60001b613003565b612d957ff4d9ac38f28005309ac4cf95d9f8a07bd317fffc1103890e7d0a83414a86481160001b613003565b81600360008373ffffffffffffffffffffffffffffffffffffffff1673ffffffffffffffffffffffffffffffffffffffff16815260200190815260200160002060008573ffffffffffffffffffffffffffffffffffffffff1673ffffffffffffffffffffffffffffffffffffffff16815260200190815260200160002060006101000a81548160ff021916908315150217905550612e557fdc62cd040341d2671357f16f560a859be87128d0f43bfd8f60d2209a0aea3d5360001b613003565b612e817f9851fb1ecdf9251c8d27ddfae425adfe7374438dfbacc05e89404848da386f1460001b613003565b8273ffffffffffffffffffffffffffffffffffffffff168173ffffffffffffffffffffffffffffffffffffffff167f17307eab39ab6107e8899845ad3d59bd9653f200f220920489ca2b5937696c318460405180821515815260200191505060405180910390a3505050565b60096020528060005260406000206000915054906101000a900460ff1681565b612f397f6c0a9f806fd7e72553892bb3860a7d571f0f28e87daca49a46601e62a3a6312e60001b612963565b612f657f9ec77e8aad926afdff23879a237eec3b6b76ee9f67c6f8b93c536dfcfbc5817560001b612963565b612f917fd037ea1631ef19eb9017d3870c8b7cdd72c5fc9ac77f8ea131c6879ec62a805b60001b612963565b612f99613aa2565b612fc57f552c8e3aecf8219cf8a81ea9135a41ef71f07e17515923c4f1bab982f39498a060001b612963565b612ff17f93144708cbd805d8ed7c764af85d2f0c416d08bb8f06d907931b8bfa1b55667d60001b612963565b612ffd84848484614b73565b50505050565b50565b60606130347ff97e332f4624cb19c55e4cfb99013030a54ed56eec604e65256ea5651c4c768f60001b613202565b6130607f0fa761774b8efb61f7cc58e534b807d7a11663bc15f2c2fbf835e742b949982860001b613202565b61308c7f4ade9e6d5f308109ba7b406fb229d3effccf36ffbba6b206c05cbef99678e19760001b613202565b6130b87f9f786c20d496dac9730a370fef0acd05e376e0c9e820e9183a48f6585c16eadd60001b613202565b600073ffffffffffffffffffffffffffffffffffffffff16600460008481526020019081526020016000205473ffffffffffffffffffffffffffffffffffffffff16141561316e576040517f08c379a00000000000000000000000000000000000000000000000000000000081526004018080602001828103825260188152602001807f4552433732313a206e6f6e2d6578697374696e67204e4654000000000000000081525060200191505060405180910390fd5b61319a7fab75150f59228ee54b1bc3a5cb6377122bedb7f25ec9c8ec1b587b55194e66a260001b613202565b6131c67fca296494b71aa7589dc03a99a90d2c58f242435b6198f6b1f532677230b6e7a960001b613202565b6131f27f52959ead7e0d7bbe46ebf3f798a4f336d9033503a9409df44c3a1357af07a5fc60001b613202565b6131fb82614c0b565b9050919050565b50565b60006132337f8bfd403cdeb14985fd2a5eea57c9adf4965051adc88345886a4ba228fe5affbe60001b613003565b61325f7ff7eb77e025fb92301f1e8a0232e929477647f1b572afd79783a3be8285f83f5760001b613003565b61328b7f7a9284a0c450e42f2a8f921893d58a8871917419c5de8cc3dc03426649bea52360001b613003565b600360008473ffffffffffffffffffffffffffffffffffffffff1673ffffffffffffffffffffffffffffffffffffffff16815260200190815260200160002060008373ffffffffffffffffffffffffffffffffffffffff1673ffffffffffffffffffffffffffffffffffffffff16815260200190815260200160002060009054906101000a900460ff16905092915050565b6133497f1714715b5969f762aa4f9f1b83d5bb3ddae139c70baf2e746f2fd1daf743a5cc60001b612963565b6133757f9f5234b7e9be9c1fc0c263368634cccbed51cfde78fc61db9a2a001c30d5760060001b612963565b6133a17fc1786a93554a10f7b60ecf2d1fe35f4d943f3dd50efec2d014f0d06acb63717660001b612963565b6133a9613aa2565b6133d57fadc3e14b845f703d3aa48407e3289748de9692679b6ee20060807416030fcc1c60001b612963565b6134017f4331d3570ff461ec03a93abf986635efa6537395e0f97bf729d9c833b51cc8fe60001b612963565b61340b8282614d67565b5050565b61341f61341a61394c565b613bcb565b80600760006101000a81548173ffffffffffffffffffffffffffffffffffffffff021916908373ffffffffffffffffffffffffffffffffffffffff1602179055508073ffffffffffffffffffffffffffffffffffffffff16600760009054906101000a900473ffffffffffffffffffffffffffffffffffffffff1673ffffffffffffffffffffffffffffffffffffffff167f8be0079c531659141344cd1fd0a4f28419497f9722a3daafe3b4186f6b6457e060405160405180910390a350565b61350b7f07720b13b8b788c4924ec9c11ea591d1b3fca70e726ee5d776105e3c1f9c8c3260001b612963565b6135377ffea2659d6ae7c12bc83231f6277d6ce9885b1821f16e4aae258ce5ce3de71a2c60001b612963565b6135637f6154420497f465f043c067cfde467456db464c29fa230acd797cb504474bb4e360001b612963565b61356b613aa2565b6135977f0d9810ad8862e6f14ccd2a54e48640a0ee3b3411fa30903d920a85a1ef39b4fb60001b612963565b6135c37f2e9f6909e64e9f20c777caefd074051d6543a78ed8bea8b5b7d8d89c71c3d4b560001b612963565b6135ce83838361521d565b6135fa7fc5e6bd823ecf6d098571ab54183d6a05a31cc14748b9f3e861587fdad447338360001b612963565b6136267f94bb565d464d8e75ba2e8bc3f9be23e475c3067554702f23c2769a818e3acd0960001b612963565b6136527f96fc88a1a9f7ffb5f720f89504e043563e59286fb7fb134c5711c87bfff8d76c60001b612963565b600073ffffffffffffffffffffffffffffffffffffffff168273ffffffffffffffffffffffffffffffffffffffff1614156136f5576040517f08c379a00000000000000000000000000000000000000000000000000000000081526004018080602001828103825260188152602001807f4552433732313a207472616e7366657220746f207a65726f000000000000000081525060200191505060405180910390fd5b6137217f364c6ca7b9965c248660c61a7694468ce4f1c6aee14445b7d4dfd98a6fa4239d60001b612963565b505050565b60006137547f45c407258efd0b8016f9ef2fb7654239c936eacd057b727ab94152a99d2247f360001b613003565b6137807f5eda1d890365495bc57b7ad9df14adebf99067276c0fdfd125989bed6df1951460001b613003565b6137ac7f49e7002fc07fcdde6ac3535be9b02ee891191d7f536f14893f9fb124439fadc660001b613003565b7f01ffc9a7000000000000000000000000000000000000000000000000000000007bffffffffffffffffffffffffffffffffffffffffffffffffffffffff1916827bffffffffffffffffffffffffffffffffffffffffffffffffffffffff1916148061387557507f80ac58cd000000000000000000000000000000000000000000000000000000007bffffffffffffffffffffffffffffffffffffffffffffffffffffffff1916827bffffffffffffffffffffffffffffffffffffffffffffffffffffffff1916145b806138dd57507f5b5e139f000000000000000000000000000000000000000000000000000000007bffffffffffffffffffffffffffffffffffffffffffffffffffffffff1916827bffffffffffffffffffffffffffffffffffffffffffffffffffffffff1916145b8061394557507ff3993d11000000000000000000000000000000000000000000000000000000007bffffffffffffffffffffffffffffffffffffffffffffffffffffffff1916827bffffffffffffffffffffffffffffffffffffffffffffffffffffffff1916145b9050919050565b600033905090565b60006139827fecbb7d33e8b743c1299d3675b34090dc89a05be556c55c32cdd6cdf17d24d83e60001b613003565b6139ae7f74fc48aba2f2fea2f50f650ec8ad01219028d80cc49f68299c8bb65251cac3a960001b613003565b6139da7faec3deb3fc912b169d21b205d13c7c9ade380f7e72218d4e9195c6443f4efdcb60001b613003565b8173ffffffffffffffffffffffffffffffffffffffff168373ffffffffffffffffffffffffffffffffffffffff161480613a9a5750600360008473ffffffffffffffffffffffffffffffffffffffff1673ffffffffffffffffffffffffffffffffffffffff16815260200190815260200160002060008373ffffffffffffffffffffffffffffffffffffffff1673ffffffffffffffffffffffffffffffffffffffff16815260200190815260200160002060009054906101000a900460ff165b905092915050565b60008054906101000a900460ff1615613b23576040517f08c379a00000000000000000000000000000000000000000000000000000000081526004018080602001828103825260108152602001807f5061757361626c653a207061757365640000000000000000000000000000000081525060200191505060405180910390fd5b565b613b517fb324545a940fc0e21ef3a1c40f5d81463e20e77c227a0738b173794d0cd935fb60001b613003565b613b7d7faffe118f3dadad94ac8b2bb002c8cbc9b388dc85bd0a8b500560525c514584a160001b613003565b613ba97fc6edc849176e3e184f714602bb167e518b2d6d0fb74f6b1f00204668ee16379960001b613003565b613bc68383836040518060200160405280600081525060006157e5565b505050565b3073ffffffffffffffffffffffffffffffffffffffff16638da5cb5b6040518163ffffffff1660e01b815260040160206040518083038186803b158015613c1157600080fd5b505afa158015613c25573d6000803e3d6000fd5b505050506040513d6020811015613c3b57600080fd5b810190808051906020019092919050505073ffffffffffffffffffffffffffffffffffffffff168173ffffffffffffffffffffffffffffffffffffffff1614613cec576040517f08c379a00000000000000000000000000000000000000000000000000000000081526004018080602001828103825260168152602001807f4f776e61626c653a206e6f7420746865206f776e65720000000000000000000081525060200191505060405180910390fd5b50565b613cf7615c97565b60008060006101000a81548160ff0219169083151502179055507f5db9ee0a495bf2e6ff9c91a7834c1ba4fdd244a5e8aa4e537bd38aeae4b073aa613d3a61394c565b604051808273ffffffffffffffffffffffffffffffffffffffff16815260200191505060405180910390a1565b600960008273ffffffffffffffffffffffffffffffffffffffff1673ffffffffffffffffffffffffffffffffffffffff16815260200190815260200160002060009054906101000a900460ff16613e26576040517f08c379a00000000000000000000000000000000000000000000000000000000081526004018080602001828103825260188152602001807f4d696e746572526f6c653a206e6f742061204d696e746572000000000000000081525060200191505060405180910390fd5b50565b613e557faddc15ccc559f525dad7a31fab9a502a094a0bb73912cca8454566b8095f918160001b613003565b613e817ffed5c1b517b3eed23456cf1acd64ba5530318c76b344763894d07c6a8fec907560001b613003565b613ead7f77b90285cb346e67ecf81412aa25fe49ed77a7ab69d4493c2209711edacf6cdc60001b613003565b613ed97f5132852388329f490ffcd1cf8087cb4ccbcce4b7701486133d3785169363c4f460001b613003565b600073ffffffffffffffffffffffffffffffffffffffff168473ffffffffffffffffffffffffffffffffffffffff161415613f7c576040517f08c379a00000000000000000000000000000000000000000000000000000000081526004018080602001828103825260148152602001807f4552433732313a206d696e7420746f207a65726f00000000000000000000000081525060200191505060405180910390fd5b613fa87f3020fb0ae57c568de08cb4e76539f61ca31e3465db43d6b47cdfff4bbd43c04a60001b613003565b613fd47fc5fe1df01552bddd72e2c9ec678ee814819b4f0e042a7cb9d58e48fd941d5d2460001b613003565b6140007f3e9160331646e86d0f6e3c06fe0ba534afb3429b43d12e72e0e1bd5211938ab060001b613003565b61400c84846000615d19565b6140387f4d184d3520698ddc1a80417892090c95665e3de527719b9389b9376f9422b7e860001b613003565b6140647f7889d44b979241af573dadc64c48af4d1ba21bc25caa72b79a920b0828c8694b60001b613003565b828473ffffffffffffffffffffffffffffffffffffffff16600073ffffffffffffffffffffffffffffffffffffffff167fddf252ad1be2c89b69c2b068fc378daa952ba7f163c4a11628f55a4df523b3ef60405160405180910390a46140ec7f8a57c36bf697a19f0bd58feb6a8dd946e4362e14fc15a0f49ed346d8a3e127d660001b613003565b6141187f222e80860c463e0ea5f5d42a515a95abfb06b7f45d73f6050bb8a5a8e8da30e860001b613003565b808015614140575061413f8473ffffffffffffffffffffffffffffffffffffffff1661603d565b5b156141db576141717f75fd8b9dd383421cdaf0293bcdccadd3d688beaefa32db160756c73d5a13e76660001b613003565b61419d7f15b73afaf97d0ccf7625d02314f43c5d136f9f9391824e8939dc8847cb7aeb5560001b613003565b6141c97f8ee4b006cae26a820645eb635adc159cb6664b90dbb15ba35ac8ad75e01e1af560001b613003565b6141d66000858585616050565b614208565b6142077f04def58dc041207ba4d0f07cde0908b12ae6843e0969d053b188b5dd2f3bf9db60001b613003565b5b50505050565b61423a7f8471bad425ef9f4ff8638e90da6fd875f0c950a3b0142f4fe73f432ef85fd58460001b613003565b6142667f93f22fb900ba62c69ad3a895c0a85ecdf300659ca4847557136fd3791865c7e460001b613003565b6142927f05fba6bd0e84c73ae14d51d431787715d59fe5a193dfd2673d7e06e0e3b73a2860001b613003565b6142af8383836040518060200160405280600081525060016157e5565b505050565b6142e07f9f43e8df59ce68de677be3026aa13b3f721985b454543c8696fae6174e070dd660001b613003565b61430c7f84d6ce4a9850495d2211a38f9013fa62a60720ee748fa4018ff499d7db48ab0760001b613003565b6143387f4777389553f3e49cbc5f6f0687cd2a1f1ad5a2bcf0ca2be2b644de34d7f6210a60001b613003565b6143647fc525c3ac81c57ec7df2df7721fca5946272f5ea14f2e8275f237cda74de3fc6e60001b613003565b600073ffffffffffffffffffffffffffffffffffffffff168273ffffffffffffffffffffffffffffffffffffffff161415614407576040517f08c379a00000000000000000000000000000000000000000000000000000000081526004018080602001828103825260148152602001807f4552433732313a206d696e7420746f207a65726f00000000000000000000000081525060200191505060405180910390fd5b6144337fea8059bb8cd0ba99d8dbce997187a8857f943454506417d349d6c67dd5dbde8a60001b613003565b61445f7fa995a46c782e2f51a25d1f9cb4d89cb4ca642b877a3c2a5936224b0f3458a47c60001b613003565b61448b7ff3527913387aa3887810cc0f81665e8ebbac4fd3afe7b9eb872bc090c65bdc0860001b613003565b6000815190506144bd7f8eeeff1309a653f4646eb55142b535a1d5e5ca0424f39ed8e8df74383ad3cd8860001b613003565b6144e97f95fb7f5d7ce6c524e07794c10e245087c8053b9e08e03b47a102242db173575760001b613003565b60008167ffffffffffffffff8111801561450257600080fd5b506040519080825280602002602001820160405280156145315781602001602082028036833780820191505090505b5090506145607fc89cd174cea571cdb236a3938c5dcd24e8ad8e73777847397a5d09bc988bae5560001b613003565b61458c7f7c8311ca155cff3f32b553993079cd98f6374165c45b93c2f7e1be0daf716c2660001b613003565b60005b82811461479c576145c27fa0073af5f49fb1978eabc8807be4259c82e3ade95243f41c41e23f5c1a6c8b4c60001b613003565b6145ee7fda8afdcfdb26a64799f9376d8f049f6728f00de0a7d57dab799925a17a90f57a60001b613003565b60008482815181106145fc57fe5b602002602001015190506146327f5720157d60173f0120edffbcad2f49b90d30d0b8c8b78887b33336536b665fc760001b613003565b61465e7fd034e04554a5a19d1d341305df5a9639af966f47c643ac3da19f466db28eb2bb60001b613003565b600183838151811061466c57fe5b6020026020010181815250506146a47f3741a554103b56adcb04d27d3ee044dda1892728f1950825e1124aadaee1de2160001b613003565b6146d07f67a8a7560131a184e1dfd6300ef3eb466ee2573bb6d790b79ef00030f1e9a19a60001b613003565b6146dc86826001615d19565b6147087f1f5be447cf306faa618c5ef68ae2af1033c3386bfb5d565693ec994115f7cfbb60001b613003565b6147347f2731e559214c2d89447e05508b3140d076dd4cf6bc6ad17178eedccc6c8e3eff60001b613003565b808673ffffffffffffffffffffffffffffffffffffffff16600073ffffffffffffffffffffffffffffffffffffffff167fddf252ad1be2c89b69c2b068fc378daa952ba7f163c4a11628f55a4df523b3ef60405160405180910390a45080600101905061458f565b506147c97fd57aa0b90e7b830bfbcbc52b5a0e983751425fa81b056bcb8393668fec8d59fd60001b613003565b6147f57f9f9f9d8f5da49864135eb8439c23a731c1d3e3af8f879f332ad41cc54b294a6d60001b613003565b81600560008673ffffffffffffffffffffffffffffffffffffffff1673ffffffffffffffffffffffffffffffffffffffff1681526020019081526020016000206000828254019250508190555050505050565b6148747f7181517df10958a8e36aa80ddfdd18dfd5ce57d02638a5a5fb527962a2b159cf60001b612273565b6148a07f2645e85f67ad76f1ed2300e04e86e0ded47635b1809e683b20c2f5a9a6b0b29060001b612273565b6148cc7fb64ac8812fee4c2776cb5d0e0c3fa987379c1d1b49921eb9c8aa003edeb3da9560001b612273565b60006148d661394c565b90506149047f683b696c886d86ed59a04af5e0665248463374c317418726ea2ea9539142e2e660001b612273565b6149307f6f2d3fe066309d70886d1b7f92892b91d710e5139b94f7533bbfefdbf8249c9660001b612273565b600061493c8483613954565b905061496a7ff6bf48a1bfa2ba476baed2c8c096beee405ab6874856c94a2583e855e12088ec60001b612273565b6149967f0ae93869f45e1ec8e9a01bc26749bd6828904ced9ffb6cf54951e22272a753bc60001b612273565b6149a38484836000616342565b6149cf7fa3762d0314cbced8493bca77b1b94b8450bd2b5e74a0fa564b41971080c3287360001b612273565b6149fb7fb3135199caa09a87082f69c8655dbc8c02757974c2cbc542e8d9ebd47ee8b7bb60001b612273565b82600073ffffffffffffffffffffffffffffffffffffffff168573ffffffffffffffffffffffffffffffffffffffff167fddf252ad1be2c89b69c2b068fc378daa952ba7f163c4a11628f55a4df523b3ef60405160405180910390a450505050565b614a65613aa2565b60016000806101000a81548160ff0219169083151502179055507f62e78cea01bee320cd4e420270b5ea74000d11b0c9f74754ebdbfc544b05a258614aa861394c565b604051808273ffffffffffffffffffffffffffffffffffffffff16815260200191505060405180910390a1565b6001600960008373ffffffffffffffffffffffffffffffffffffffff1673ffffffffffffffffffffffffffffffffffffffff16815260200190815260200160002060006101000a81548160ff0219169083151502179055508073ffffffffffffffffffffffffffffffffffffffff167f6ae172837ea30b801fbfcdd4108aa1d5bf8ff775444fd70256b44e6bf3dfc3f660405160405180910390a250565b614b9f7f5f93121146a7985e6f10db443b6c8db67676a628a2e4652f1da108a9486cac4a60001b613003565b614bcb7f9d55b442f77e9fa009a22fe01d29ea332dca610d7b4778c8bad3e8fed011c79060001b613003565b614bf77f3175574aa35fd05b36876ca13300c7a8826442d72c39888dfa959ea06b7c835b60001b613003565b614c058484848460016157e5565b50505050565b6060614c397f1c9aa8b0a38f069e1470ab73c22da607a105214ef5de328816e9d32a1e8b441b60001b611f6f565b614c657f5170b3391e3dcb54efdddd1865c65f8bcdfb112f0c2230607b93231388faea7b60001b611f6f565b614c917f378669c14060759ae4c60ec9f0fc205bcc45a295b03ae0f63f92feae3939ea1460001b611f6f565b6008614c9c83616965565b6040516020018083805460018160011615610100020316600290048015614cfa5780601f10614cd8576101008083540402835291820191614cfa565b820191906000526020600020905b815481529060010190602001808311614ce6575b505082805190602001908083835b60208310614d2b5780518252602082019150602081019050602083039250614d08565b6001836020036101000a038019825116818451168082178552505050505050905001925050506040516020818303038152906040529050919050565b614d937f8934d88f2b10ab03599d9236370cff287d5054a0ab24edf7b80fd494f77cc6c460001b612273565b614dbf7fbb084d6e10f8359c6cc8caf022c3d31875bae104dd7ef629f706e7b7142689b260001b612273565b614deb7fbd425366937d9b544052360d9c662666edb1892d29c9aa34fa244da3d2a6d79460001b612273565b6000614df561394c565b9050614e237f02a318170165a814f7f51a0f9a212351f62a11f4781f9cd23e472de1ee2ea8d660001b612273565b614e4f7f49835256933ddf743f179f10454f96321ba0e09fc3024f3c09515a5f4dd4d4c760001b612273565b6000614e5b8483613954565b9050614e897f7db72ab87338d7008dfd2516f496aea791a4486e19dffd6b10d36914d41025b560001b612273565b614eb57fd4f832940987f4589c782500a05a50013e85ed3de3c1f3ed3983f08c467ff86860001b612273565b600083519050614ee77f7fff977a9ac0a72d2b41e08eee39352897694aecb2c02936c257ea9117606abd60001b612273565b614f137fe4accdf5dccc9f9a3db7c9a21667ecdcdc76108e333246ebd58eba70d2e6f35c60001b612273565b60005b8181146150b257614f497fb5a07ae49c60218e88bf4e76623bfa00fa35424d984ee181bc8d9a95aa7d6d6060001b612273565b614f757ffb8c29c7deb07cbadcb2794f88910aea51d90e1c725a15a9d1820a5ea16d2bd060001b612273565b6000858281518110614f8357fe5b60200260200101519050614fb97fbb6d7149f8d648552685efb2c590c471f5c9a6a71394fa37f58cf5c4f27508bb60001b612273565b614fe57fc07cdbe51803eaadc538ad4bfcea07de64e408c0a3c4e3dc302255164184334660001b612273565b614ff28782866001616342565b61501e7f4a31c9cc11a7eefc8214a2e18cdeeb6fa75b91d3648acf9573572f2db9a07fe760001b612273565b61504a7fa1eb06bac24e94ef634ed46cadc1ddeab224a837caee3fd02685f5e25cee71d460001b612273565b80600073ffffffffffffffffffffffffffffffffffffffff168873ffffffffffffffffffffffffffffffffffffffff167fddf252ad1be2c89b69c2b068fc378daa952ba7f163c4a11628f55a4df523b3ef60405160405180910390a450806001019050614f16565b506150df7f23670a1f6e736c85ad9f31e211e867f08f4cf4e6768fa0d16539ec61440c22d760001b612273565b61510b7f14f80ac2d24b40bf2660f59686db2ea2ff2baa642e144240fc3712e92aaca18360001b612273565b600081146151e95761513f7fd662314f5b300cef6047c56d805282f3990af654dcf0d55a59c35c2b919d5c6760001b612273565b61516b7f7b113fced5b28cabb3552263a3d747c8d06e60fd6778b69d8d86b35baaab812660001b612273565b6151977fc24aeb825a4e49bf0775d93aadd1f59554d898b5095dabc204fd68cb26354db860001b612273565b80600560008773ffffffffffffffffffffffffffffffffffffffff1673ffffffffffffffffffffffffffffffffffffffff16815260200190815260200160002060008282540392505081905550615216565b6152157f0463ac6c4a3b8e2dbf5f8cf53afbe2c20fa7b39c41f0bb5e763e8a7c2de2e48d60001b612273565b5b5050505050565b6152497f1d3ad214e7278e687b231f5e206e4869d9e0be0b87c7e8cdc43974fdf1267a8860001b613003565b6152757f07cb9dea70eead0fffd7286f47a9606c5d817f9e00a45dc2196423e942f3f6f160001b613003565b6152a17fffb25a86ee06ba78060bfce2b0ded5fd343d3daab0d340e350e59238cce183b060001b613003565b6152cd7f027787774dac5cdcc05be851d33d82d24e140816e7028fb49e1aaa404e47a76360001b613003565b600073ffffffffffffffffffffffffffffffffffffffff168273ffffffffffffffffffffffffffffffffffffffff161415615370576040517f08c379a00000000000000000000000000000000000000000000000000000000081526004018080602001828103825260188152602001807f4552433732313a207472616e7366657220746f207a65726f000000000000000081525060200191505060405180910390fd5b61539c7f50e7abd651525700d0c64a113e3ee70d7cbacd6935ed80469fd0e3761215962b60001b613003565b6153c87f99e596465d9eecde9b1f63e687bd1074b26d20539c802c02c48344e4999f653b60001b613003565b6153f47f180332fc556720f01a9278fab0b0bb2a781d9b2cc85fb29aa7352b14009ef83e60001b613003565b60006153fe61394c565b905061542c7f563ca086db142527c958b9d9e04be64d0b295e0dd5bafd5fbafc33d9cbefc30760001b613003565b6154587f692b7a91fc8da899144eef5e725ea8ced8b8b2fb6826e6ca5362166255250b0360001b613003565b60006154648583613954565b90506154927f36411edb9a5130c42f59eb456f94b9b435584265fefdf981e07f2655f114ff3360001b613003565b6154be7fd3bab555930f0b4876c3ce616b6538d8f9ec2d328390369072d549a7f7f6bec460001b613003565b6000835190506154f07f49e096005496e0598b268e0d9a35f0e41ab890580d9e429b4e316a4f55968d3960001b613003565b61551c7fd452e44e6c988c92da7489f0762440abe637e9e5b17ed362929330e5e7ac9b0160001b613003565b60005b8181146156bb576155527ffc06ee0888aea73536256f8e09a44f9219fd5a2dbecc8226d9ec70e7a7d9b95a60001b613003565b61557e7f4253c9af2b2465f14c7cd498eb65f52cc6fef17878091ade3fd4dc14a80f3a8e60001b613003565b600085828151811061558c57fe5b602002602001015190506155c27ffe7c8ba579dbd875d9676a53af8782b4046aa5a8ff47403ee5b45c7a7f448c9b60001b613003565b6155ee7f308c7e11942940f1774dd738c1247236d6c5182d02725ff4adb5020eebec78ca60001b613003565b6155fc888883876001616aac565b6156287f92ccf81ab87f0fb7f996c8710ca29de97f6e0f98dd9350468ae915ef89f1ab5560001b613003565b6156547f4feb79c7fa518bdcda5e25a0a4345b669e9d3d665b17b593cda679e25e88b9c760001b613003565b808773ffffffffffffffffffffffffffffffffffffffff168973ffffffffffffffffffffffffffffffffffffffff167fddf252ad1be2c89b69c2b068fc378daa952ba7f163c4a11628f55a4df523b3ef60405160405180910390a45080600101905061551f565b506156e87f980ab6d0c6cc5acb5449c1b94b5897b5956fe550c263b354315a86906619f7b660001b613003565b6157147f398e034f9e0e494ebe60cfa84a2612ec0dfec23d4036f13e57fe4317412c3c6460001b613003565b600081146157b0576157487fc5ee3182f93827ab971ee70c83d815c4092da90f2a8e5c3a533584e504dee6e560001b613003565b6157747f33e868bb8213224cf2b98dca07ff127b5fb2a60ff742aa0a940a0279985e5cf960001b613003565b6157a07f3692554aaef7cceef1e263c6be6b42d241a35df542cd96951f2fe9d0e55f7de960001b613003565b6157ab8686836170b0565b6157dd565b6157dc7f685ac3522bf5dbda2f64d9e42d22fa915d18dab59bbb65371805a2dc96f863e860001b613003565b5b505050505050565b6158117fd636b7ab9e3a568c119b4270e956e78d6a33d07fef23ba3639cd598324d0045460001b613003565b61583d7f357a6a9df3eb123e7c9a1ddd29ed8d4802c7a668b37a1e54a427bd9be2353b8360001b613003565b6158697f42844c76402a70df5a9166be796b416cca03d87fb32d507f2502ca6574c1893360001b613003565b6158957f075a111b02f5f0911184e6acb0f9da4a700a65f1eb1c48b182c7370af583e0c760001b613003565b600073ffffffffffffffffffffffffffffffffffffffff168473ffffffffffffffffffffffffffffffffffffffff161415615938576040517f08c379a00000000000000000000000000000000000000000000000000000000081526004018080602001828103825260188152602001807f4552433732313a207472616e7366657220746f207a65726f000000000000000081525060200191505060405180910390fd5b6159647fc27aff8b8febfa69c91d3f856c4ef1336836d747fe81e7f1558400f4b09583fa60001b613003565b6159907f8802cd1892af57eaa136849b9f58d626f394bf4ab68e56898700b78cf652721e60001b613003565b6159bc7fa6dd3da9629fe93d3fcf0adae807d5651ca5fbe1e3035c159146fa9437d1ad9460001b613003565b60006159c661394c565b90506159f47f17adf1de93d7bf771855849c9c7e65a7cf3295f6059c8c1da4b847449c58377460001b613003565b615a207fc5aaa0f6b80ee7147922dab33743dbc5efaf00c0aed5d245af7eb1647a1f60e160001b613003565b6000615a2c8783613954565b9050615a5a7fc9de33d6c09beed38e87b523e262bff70923d2eb6fd9804d9cd30cb196bc5e6660001b613003565b615a867f176d16b536d21cef46887b725abc2e642fce0b2c418100c49b8a860bea1aaa6260001b613003565b615a94878787846000616aac565b615ac07f3d39126046bbf8da3df51f25b40088ede3d4ffdd0410a7cf6a236fa52d325b3960001b613003565b615aec7f6d6808e15d6ebb4e2af0ca5ae110343449fa3c2706db3881d3231baa73384a0260001b613003565b848673ffffffffffffffffffffffffffffffffffffffff168873ffffffffffffffffffffffffffffffffffffffff167fddf252ad1be2c89b69c2b068fc378daa952ba7f163c4a11628f55a4df523b3ef60405160405180910390a4615b737f6f02b47dd5774c84b6706bdc8a4aebba215bd20a426d0b2c7b191e9b73ea6a4860001b613003565b615b9f7f1c609a5751dc4c210a4412599a1c96a635560dce16784ed165f2f532c96f2d7660001b613003565b828015615bc75750615bc68673ffffffffffffffffffffffffffffffffffffffff1661603d565b5b15615c6157615bf87f4f9df30de4c54579a39c0f4e8d37333f755322651e045f5a83c3d9b127bf433f60001b613003565b615c247fdbdabf6cb4f74712a94ef47da61433c3783c57e3e585898b0b7895acf622bebb60001b613003565b615c507fb14849ad598c2859adccce1b7ec390f87d719eb6f1ada9768608a136eb8f6dc560001b613003565b615c5c87878787616050565b615c8e565b615c8d7fd7ad4f837040abec99923d29fa386f8bd0545eca110becdd1d2f7c585e4eb9f760001b613003565b5b50505050505050565b60008054906101000a900460ff16615d17576040517f08c379a00000000000000000000000000000000000000000000000000000000081526004018080602001828103825260148152602001807f5061757361626c653a206e6f742070617573656400000000000000000000000081525060200191505060405180910390fd5b565b615d457fb0be70c567f9fb4af166074f544c79380fec331e1a2a71c6817226e1229a8dab60001b613003565b615d717faf11acf3d42ef2f403c9a82237d686a780966e0b8791e6e76ba6c2cd1a93390560001b613003565b615d9d7f8d0c87176d9743782a8e743fb86a3ae2df1a6b0f47e116cb29193744c71dd19560001b613003565b615dc97f50ae879b5cb55820b07c44a191c3b36c62f4139f0a2fe6ae2a0cf44b7e99d8fe60001b613003565b6000600460008481526020019081526020016000205414615e52576040517f08c379a000000000000000000000000000000000000000000000000000000000815260040180806020018281038252601a8152602001807f4552433732313a206578697374696e672f6275726e74204e465400000000000081525060200191505060405180910390fd5b615e7e7ff2023f365fd682de47086028de642197360dc3314f0faf70e359d4fb373e327060001b613003565b615eaa7f62164848a71213781d2edcbe7147fe7cb4b447559e363a612f04a992e894ee1860001b613003565b615ed67f8c5dc018152e4eda26646cfa13536cdf0c376ef772330f87c98fb02c082d6c5360001b613003565b8273ffffffffffffffffffffffffffffffffffffffff166004600084815260200190815260200160002081905550615f307feae32892f82a504d2f871b645078370d10dfab7a6fa201a19b56717afd8a7b5b60001b613003565b615f5c7ff0364d8fccf390aeda9022f48d340d85c26f5fcf1fc33d93b71d8d756dd6f4fe60001b613003565b8061600b57615f8d7f025867a94022bf17d44d05dc9692dc5f6733e7b03a2412f7336fa77c41ef459c60001b613003565b615fb97f9e45ff9b115fae23e629bb95dee5760b8583c33ea9693ea54c267f8bfba20b0e60001b613003565b600560008473ffffffffffffffffffffffffffffffffffffffff1673ffffffffffffffffffffffffffffffffffffffff1681526020019081526020016000206000815460010191905081905550616038565b6160377f09d255f1f04004ce2104739ae4e7af0826cf599668361981fa9976fb9cc21aa960001b613003565b5b505050565b600080823b905060008111915050919050565b61607c7fb3b7436d4b971e633c03bd4de9232f9aac8610387e7d17aca623b2179a7c56b760001b613003565b6160a87f025d5020ed4cc64aee3b5e82079757b5378b244450f7b4320201b0196331894b60001b613003565b6160d47fee673150993f58b975aa5dfb5cf327db804f62fc6356406803a1f4e91fab620560001b613003565b6161007f60b915376f75f63d14cf04e685744969c39f8121af18f3e8eacdc13f755d9ece60001b613003565b7f150b7a02000000000000000000000000000000000000000000000000000000007bffffffffffffffffffffffffffffffffffffffffffffffffffffffff19168373ffffffffffffffffffffffffffffffffffffffff1663150b7a0261616461394c565b8786866040518563ffffffff1660e01b8152600401808573ffffffffffffffffffffffffffffffffffffffff1681526020018473ffffffffffffffffffffffffffffffffffffffff16815260200183815260200180602001828103825283818151815260200191508051906020019080838360005b838110156161f45780820151818401526020810190506161d9565b50505050905090810190601f1680156162215780820380516001836020036101000a031916815260200191505b5095505050505050602060405180830381600087803b15801561624357600080fd5b505af1158015616257573d6000803e3d6000fd5b505050506040513d602081101561626d57600080fd5b81019080805190602001909291905050507bffffffffffffffffffffffffffffffffffffffffffffffffffffffff191614616310576040517f08c379a00000000000000000000000000000000000000000000000000000000081526004018080602001828103825260188152602001807f4552433732313a207472616e736665722072656675736564000000000000000081525060200191505060405180910390fd5b61633c7f1153ca127ed9fc0871ceef55b9fc2a036aec41f7b0f52e44971ce47cb0bbaa9060001b613003565b50505050565b61636e7f01954647c9d7fedd94e20d2cac343aa135c6543fce3c43f62fa3f427d78338fe60001b612273565b61639a7fcc66953b16d7f7f0211b79b8c952cc6f7a661386107af9b11b05325326581c3760001b612273565b6163c67f09778170d07a554143f6a682c30b5b48ac25ca66b1542a415662963e005ce2f460001b612273565b60006004600085815260200190815260200160002054905061640a7f24b4228584e0f50c7490db7e82d057b1e589ed3a9086e733e2e20887e335bfd860001b612273565b6164367ffde825987019d11a620ba8c3ca5d918a18605d7114fa2f888d75cd0dad5db20260001b612273565b6164627fc1da942e61c8af94b7cad80ca6580e86b8c71994ea0f5586595e963b7d80dd7d60001b612273565b8073ffffffffffffffffffffffffffffffffffffffff168573ffffffffffffffffffffffffffffffffffffffff1614616503576040517f08c379a00000000000000000000000000000000000000000000000000000000081526004018080602001828103825260158152602001807f4552433732313a206e6f6e2d6f776e6564204e4654000000000000000000000081525060200191505060405180910390fd5b61652f7f76545f5c9f4b11c4666054f8aca2e8afe3fa13e48cbb7393f41994163427265560001b612273565b61655b7fdda6c26276fe093576433317e764a6221d5ed14023952f1f7fb81aa1f1885ee160001b612273565b6165877faea03ee3863ae84539d6140e5bab99030ae305629e0ab212bcc7a4d47ba0a47960001b612273565b8261676c576165b87fe0df417c12a0866d956c67b785a1dce4df3ff7b83c2758efaf369565ce34711660001b612273565b6165e47fe07c869477eefe9c4d329774a6e1fab055e77b59fc1f9598c4b44fbc53cc6b1660001b612273565b6166107f15c07cddf7af79d7c52967c552c51e699cc5b94e004549d7799254481abd192460001b612273565b61663c7f145949739e09572d5456572162d03c29419b299a4b657dafc30158869e6c9bc760001b612273565b6000740100000000000000000000000000000000000000008216141580156166c957506006600085815260200190815260200160002060009054906101000a900473ffffffffffffffffffffffffffffffffffffffff1673ffffffffffffffffffffffffffffffffffffffff166166b161394c565b73ffffffffffffffffffffffffffffffffffffffff16145b61673b576040517f08c379a000000000000000000000000000000000000000000000000000000000815260040180806020018281038252601b8152602001807f4552433732313a206e6f6e2d617070726f7665642073656e646572000000000081525060200191505060405180910390fd5b6167677f17ab634811a62d107e68f45b76fa7ea81d0e15b0833e425ee23b6511c841b91960001b612273565b616799565b6167987f8110a0b8ba2741832b8c4a60a27c348bcf2a54e5d000363c7bd0399faaf1158260001b612273565b5b6167c57fab41028d333887139ffa4388ef2435e0d9da59c227b2cb970008e295e50cd93660001b612273565b6167f17f3cc2b75a31c90c1e9f23d32cf6ac5e82cfff1b6f0130ba34c24f8903c7667e2960001b612273565b7fdead00000000000000000000000000000000000000000000000000000000000060046000868152602001908152602001600020819055506168557f262fd95fc49ee2537a6ada1795e2edf5f6de02f7a5cff4cd6a16b604421515d760001b612273565b6168817fe86eb6a21728a8207ba8795e4376494a508732f9eb32730c18f8f41b330ca1ed60001b612273565b81616931576168b27fb4389485aaa8c347ed4b615a99bcb81f3ec76e371eb6f756fa51bc30f7c61f3460001b612273565b6168de7f1ba2d19a49da4f35b82f4826de99c4245ef4364c5ca859ef5a66428bc6b9ecff60001b612273565b600560008673ffffffffffffffffffffffffffffffffffffffff1673ffffffffffffffffffffffffffffffffffffffff16815260200190815260200160002060008154600190039190508190555061695e565b61695d7fb7764347ae23060b136a506b978082994932ea0da4c2fdf03e535b9348dd5efd60001b612273565b5b5050505050565b606060008214156169ad576040518060400160405280600181526020017f30000000000000000000000000000000000000000000000000000000000000008152509050616aa7565b600082905060005b600082146169d7578080600101915050600a82816169cf57fe5b0491506169b5565b60008167ffffffffffffffff811180156169f057600080fd5b506040519080825280601f01601f191660200182016040528015616a235781602001600182028036833780820191505090505b50905060006001830390508593505b60008414616a9f57600a8481616a4457fe5b0660300160f81b82828060019003935081518110616a5e57fe5b60200101907effffffffffffffffffffffffffffffffffffffffffffffffffffffffffffff1916908160001a905350600a8481616a9757fe5b049350616a32565b819450505050505b919050565b616ad87fb42205bf391af3e8e554f5e4e95186fabf6d3c2d400dc6dc77e1a95efba0f0a360001b613003565b616b047fd62cb91b7cd2f41d70a06ac8cd1dbc1fd96f4315efee9c7d5981a717af2c105560001b613003565b616b307f40145eb7db4d33d84949bf1673d7ee228514bf24f8a25d38a29dbd25cf2f3d5c60001b613003565b600060046000858152602001908152602001600020549050616b747fa5079d4372ad538c4c4cc77571d90c708507ee3882f6d11468cda99c9c3d147860001b613003565b616ba07f83d3b45c1abcb5f5f0b7b61e660aa58100f1a78dad4a165f80bd9876b7b1210660001b613003565b616bcc7f6b29aa21171f1cd0e88ecc4930fdd9aecba08849f4269040ed67d24f57e762ff60001b613003565b8073ffffffffffffffffffffffffffffffffffffffff168673ffffffffffffffffffffffffffffffffffffffff1614616c6d576040517f08c379a00000000000000000000000000000000000000000000000000000000081526004018080602001828103825260158152602001807f4552433732313a206e6f6e2d6f776e6564204e4654000000000000000000000081525060200191505060405180910390fd5b616c997f3f21d52db2245dabc14ae1089b0c34d40b3e481a27293d02ff2d9c293f4159ca60001b613003565b616cc57f7127f8cbbd5b7187697d13afdc934850c962d69305b446e4ec04d017c83c849760001b613003565b616cf17f245641d4a84f3c6f214aa88690e145ed68da063006fe1c31699afff6d5b7233060001b613003565b82616ed657616d227f38957dad6003bb016a0c00b46ab770509769f7752b2474a975c98321a7a59f3960001b613003565b616d4e7f04f3a8201bbadc4e6494a706dfd8882ec59525271b083531208ed7086230142460001b613003565b616d7a7f8350237a10d24313d9ffffc775e04a25f4c72a5eea4cdc3d1bce894415dd673960001b613003565b616da67fcceb4a8c77ded5d22f1069503d83fc717caa624634aece6aeb1a4d87365336fd60001b613003565b600074010000000000000000000000000000000000000000821614158015616e3357506006600085815260200190815260200160002060009054906101000a900473ffffffffffffffffffffffffffffffffffffffff1673ffffffffffffffffffffffffffffffffffffffff16616e1b61394c565b73ffffffffffffffffffffffffffffffffffffffff16145b616ea5576040517f08c379a000000000000000000000000000000000000000000000000000000000815260040180806020018281038252601b8152602001807f4552433732313a206e6f6e2d617070726f7665642073656e646572000000000081525060200191505060405180910390fd5b616ed17f1da9e68353ee3f113e8a9404b0f77c5867d2220f08e0d13ad1cafe0a2589c33b60001b613003565b616f03565b616f027f400f8de0973a9dd9d8ad29e1d22e73af1a52d6fc1d28d9e8e2c0da4394b91cc060001b613003565b5b616f2f7fc41910c1589bca55bf9e887d7d5310d5d23c4589af4e7daa5c2836817c0f315060001b613003565b616f5b7f7cf41e04a406cdf9f5026b848710313a09c86281c261ab84276e42c0f512962360001b613003565b8473ffffffffffffffffffffffffffffffffffffffff166004600086815260200190815260200160002081905550616fb57f7f256bcbbf0e200c2719101d10725e85c3fae3ac7e63fd2aeb2fab0fd396b69a60001b613003565b616fe17f21cf5310b82878b349d5132709f2128903973fe056771d9dd734f53ac03fba8d60001b613003565b8161707b576170127f81e206239b77b21f6a1c3eba570276c00e290e1633606dda8321d62cd8ede55d60001b613003565b61703e7f851737ac9f7687f890b718bf8af9972d1250708cbc95f74efc2bea61a9e460ac60001b613003565b61706a7fb16dbb4ab2fdf8f68d480facc4854586a19beccf982712aa2cdf5244ff30d10a60001b613003565b617076868660016170b0565b6170a8565b6170a77fd36dd6b2a37486b7fd20a0bcb2de6311e08092677530eb1b29d10b0d56cd253760001b613003565b5b505050505050565b6170dc7fa43079022045953ff7a26e9d1cdceb19ec12e8ab6cec778226ceb5752ea0ab3060001b613003565b6171087f4b5907ebd1b267a7b6c5ae9cadfbebe6b04e3b7dd7a0896d4806a8a80966918d60001b613003565b6171347fa8a60ef71bb05cdcda7ab00798ea8e5a25797a0c5e0bb388d0f2d5a783fd5dae60001b613003565b8173ffffffffffffffffffffffffffffffffffffffff168373ffffffffffffffffffffffffffffffffffffffff16146172e2576171937fad57bd95fd33487746467c2d11efbded32ce759d8f8b42e4b1a877a3c23cadff60001b613003565b6171bf7fd727d151a3ca5f6027b936253ed95aee38b7a228851cfd0f25b18fe490bc9b9d60001b613003565b6171eb7f72d84f72b6bf40f8394ddf365889d83fbb2c88c1828e1ff6ef2c3fc0a8ad114960001b613003565b80600560008573ffffffffffffffffffffffffffffffffffffffff1673ffffffffffffffffffffffffffffffffffffffff168152602001908152602001600020600082825403925050819055506172647ff3cc889404b1e00a6fa52f47759c8b8d35758d9a1202446161604e7ab8b911d760001b613003565b6172907f304b50322a7c557d367ef4332598eb6623933efd810b050b3f3a89388eca24cd60001b613003565b80600560008473ffffffffffffffffffffffffffffffffffffffff1673ffffffffffffffffffffffffffffffffffffffff1681526020019081526020016000206000828254019250508190555061730f565b61730e7f24f3d0e7e733b716b6ff81285c0629b77ced3b08d57f214ed373cb5ceaa051a160001b613003565b5b505050565b828054600181600116156101000203166002900490600052602060002090601f01602090048101928261734a5760008555617391565b82601f1061736357803560ff1916838001178555617391565b82800160010185558215617391579182015b82811115617390578235825591602001919060010190617375565b5b50905061739e91906173a2565b5090565b5b808211156173bb5760008160009055506001016173a3565b509056fea2646970667358221220abad889b7a8728b9bc6a1490725787e092e2b19ea383ed81fda1f1004d7bfee864736f6c63430007060033",
  "linkReferences": {},
  "deployedLinkReferences": {}
}