{
  "_format": "hh-sol-artifact-1",
  "contractName": "ERC1155InventoryBurnableMock",
  "sourceName": "contracts/mocks/token/ERC1155/ERC1155InventoryBurnableMock.sol",
  "abi": [
    {
      "inputs": [],
      "stateMutability": "nonpayable",
      "type": "constructor"
    },
    {
      "anonymous": false,
      "inputs": [
        {
          "indexed": true,
          "internalType": "address",
          "name": "_owner",
          "type": "address"
        },
        {
          "indexed": true,
          "internalType": "address",
          "name": "_operator",
          "type": "address"
        },
        {
          "indexed": false,
          "internalType": "bool",
          "name": "_approved",
          "type": "bool"
        }
      ],
      "name": "ApprovalForAll",
      "type": "event"
    },
    {
      "anonymous": false,
      "inputs": [
        {
          "indexed": false,
          "internalType": "string",
          "name": "baseMetadataURI",
          "type": "string"
        }
      ],
      "name": "BaseMetadataURISet",
      "type": "event"
    },
    {
      "anonymous": false,
      "inputs": [
        {
          "indexed": true,
          "internalType": "uint256",
          "name": "collectionId",
          "type": "uint256"
        },
        {
          "indexed": true,
          "internalType": "bool",
          "name": "fungible",
          "type": "bool"
        }
      ],
      "name": "CollectionCreated",
      "type": "event"
    },
    {
      "anonymous": false,
      "inputs": [
        {
          "indexed": true,
          "internalType": "address",
          "name": "account",
          "type": "address"
        }
      ],
      "name": "MinterAdded",
      "type": "event"
    },
    {
      "anonymous": false,
      "inputs": [
        {
          "indexed": true,
          "internalType": "address",
          "name": "account",
          "type": "address"
        }
      ],
      "name": "MinterRemoved",
      "type": "event"
    },
    {
      "anonymous": false,
      "inputs": [
        {
          "indexed": true,
          "internalType": "address",
          "name": "previousOwner",
          "type": "address"
        },
        {
          "indexed": true,
          "internalType": "address",
          "name": "newOwner",
          "type": "address"
        }
      ],
      "name": "OwnershipTransferred",
      "type": "event"
    },
    {
      "anonymous": false,
      "inputs": [
        {
          "indexed": true,
          "internalType": "address",
          "name": "_operator",
          "type": "address"
        },
        {
          "indexed": true,
          "internalType": "address",
          "name": "_from",
          "type": "address"
        },
        {
          "indexed": true,
          "internalType": "address",
          "name": "_to",
          "type": "address"
        },
        {
          "indexed": false,
          "internalType": "uint256[]",
          "name": "_ids",
          "type": "uint256[]"
        },
        {
          "indexed": false,
          "internalType": "uint256[]",
          "name": "_values",
          "type": "uint256[]"
        }
      ],
      "name": "TransferBatch",
      "type": "event"
    },
    {
      "anonymous": false,
      "inputs": [
        {
          "indexed": true,
          "internalType": "address",
          "name": "_operator",
          "type": "address"
        },
        {
          "indexed": true,
          "internalType": "address",
          "name": "_from",
          "type": "address"
        },
        {
          "indexed": true,
          "internalType": "address",
          "name": "_to",
          "type": "address"
        },
        {
          "indexed": false,
          "internalType": "uint256",
          "name": "_id",
          "type": "uint256"
        },
        {
          "indexed": false,
          "internalType": "uint256",
          "name": "_value",
          "type": "uint256"
        }
      ],
      "name": "TransferSingle",
      "type": "event"
    },
    {
      "anonymous": false,
      "inputs": [
        {
          "indexed": false,
          "internalType": "string",
          "name": "_value",
          "type": "string"
        },
        {
          "indexed": true,
          "internalType": "uint256",
          "name": "_id",
          "type": "uint256"
        }
      ],
      "name": "URI",
      "type": "event"
    },
    {
      "inputs": [
        {
          "internalType": "address",
          "name": "account",
          "type": "address"
        }
      ],
      "name": "addMinter",
      "outputs": [],
      "stateMutability": "nonpayable",
      "type": "function"
    },
    {
      "inputs": [
        {
          "internalType": "address",
          "name": "owner",
          "type": "address"
        },
        {
          "internalType": "uint256",
          "name": "id",
          "type": "uint256"
        }
      ],
      "name": "balanceOf",
      "outputs": [
        {
          "internalType": "uint256",
          "name": "",
          "type": "uint256"
        }
      ],
      "stateMutability": "view",
      "type": "function"
    },
    {
      "inputs": [
        {
          "internalType": "address[]",
          "name": "owners",
          "type": "address[]"
        },
        {
          "internalType": "uint256[]",
          "name": "ids",
          "type": "uint256[]"
        }
      ],
      "name": "balanceOfBatch",
      "outputs": [
        {
          "internalType": "uint256[]",
          "name": "",
          "type": "uint256[]"
        }
      ],
      "stateMutability": "view",
      "type": "function"
    },
    {
      "inputs": [],
      "name": "baseMetadataURI",
      "outputs": [
        {
          "internalType": "string",
          "name": "",
          "type": "string"
        }
      ],
      "stateMutability": "view",
      "type": "function"
    },
    {
      "inputs": [
        {
          "internalType": "address",
          "name": "from",
          "type": "address"
        },
        {
          "internalType": "uint256[]",
          "name": "ids",
          "type": "uint256[]"
        },
        {
          "internalType": "uint256[]",
          "name": "values",
          "type": "uint256[]"
        }
      ],
      "name": "batchBurnFrom",
      "outputs": [],
      "stateMutability": "nonpayable",
      "type": "function"
    },
    {
      "inputs": [
        {
          "internalType": "address",
          "name": "from",
          "type": "address"
        },
        {
          "internalType": "uint256",
          "name": "id",
          "type": "uint256"
        },
        {
          "internalType": "uint256",
          "name": "value",
          "type": "uint256"
        }
      ],
      "name": "burnFrom",
      "outputs": [],
      "stateMutability": "nonpayable",
      "type": "function"
    },
    {
      "inputs": [
        {
          "internalType": "uint256",
          "name": "nftId",
          "type": "uint256"
        }
      ],
      "name": "collectionOf",
      "outputs": [
        {
          "internalType": "uint256",
          "name": "",
          "type": "uint256"
        }
      ],
      "stateMutability": "pure",
      "type": "function"
    },
    {
      "inputs": [
        {
          "internalType": "uint256",
          "name": "collectionId",
          "type": "uint256"
        }
      ],
      "name": "createCollection",
      "outputs": [],
      "stateMutability": "nonpayable",
      "type": "function"
    },
    {
      "inputs": [
        {
          "internalType": "uint256",
          "name": "collectionId",
          "type": "uint256"
        }
      ],
      "name": "creator",
      "outputs": [
        {
          "internalType": "address",
          "name": "",
          "type": "address"
        }
      ],
      "stateMutability": "view",
      "type": "function"
    },
    {
      "inputs": [
        {
          "internalType": "address",
          "name": "tokenOwner",
          "type": "address"
        },
        {
          "internalType": "address",
          "name": "operator",
          "type": "address"
        }
      ],
      "name": "isApprovedForAll",
      "outputs": [
        {
          "internalType": "bool",
          "name": "",
          "type": "bool"
        }
      ],
      "stateMutability": "view",
      "type": "function"
    },
    {
      "inputs": [
        {
          "internalType": "uint256",
          "name": "id",
          "type": "uint256"
        }
      ],
      "name": "isFungible",
      "outputs": [
        {
          "internalType": "bool",
          "name": "",
          "type": "bool"
        }
      ],
      "stateMutability": "pure",
      "type": "function"
    },
    {
      "inputs": [
        {
          "internalType": "address",
          "name": "",
          "type": "address"
        }
      ],
      "name": "isMinter",
      "outputs": [
        {
          "internalType": "bool",
          "name": "",
          "type": "bool"
        }
      ],
      "stateMutability": "view",
      "type": "function"
    },
    {
      "inputs": [],
      "name": "owner",
      "outputs": [
        {
          "internalType": "address",
          "name": "",
          "type": "address"
        }
      ],
      "stateMutability": "view",
      "type": "function"
    },
    {
      "inputs": [
        {
          "internalType": "uint256",
          "name": "nftId",
          "type": "uint256"
        }
      ],
      "name": "ownerOf",
      "outputs": [
        {
          "internalType": "address",
          "name": "",
          "type": "address"
        }
      ],
      "stateMutability": "view",
      "type": "function"
    },
    {
      "inputs": [],
      "name": "renounceMinter",
      "outputs": [],
      "stateMutability": "nonpayable",
      "type": "function"
    },
    {
      "inputs": [
        {
          "internalType": "address",
          "name": "to",
          "type": "address"
        },
        {
          "internalType": "uint256[]",
          "name": "ids",
          "type": "uint256[]"
        },
        {
          "internalType": "uint256[]",
          "name": "values",
          "type": "uint256[]"
        },
        {
          "internalType": "bytes",
          "name": "data",
          "type": "bytes"
        }
      ],
      "name": "safeBatchMint",
      "outputs": [],
      "stateMutability": "nonpayable",
      "type": "function"
    },
    {
      "inputs": [
        {
          "internalType": "address",
          "name": "from",
          "type": "address"
        },
        {
          "internalType": "address",
          "name": "to",
          "type": "address"
        },
        {
          "internalType": "uint256[]",
          "name": "ids",
          "type": "uint256[]"
        },
        {
          "internalType": "uint256[]",
          "name": "values",
          "type": "uint256[]"
        },
        {
          "internalType": "bytes",
          "name": "data",
          "type": "bytes"
        }
      ],
      "name": "safeBatchTransferFrom",
      "outputs": [],
      "stateMutability": "nonpayable",
      "type": "function"
    },
    {
      "inputs": [
        {
          "internalType": "address",
          "name": "to",
          "type": "address"
        },
        {
          "internalType": "uint256",
          "name": "id",
          "type": "uint256"
        },
        {
          "internalType": "uint256",
          "name": "value",
          "type": "uint256"
        },
        {
          "internalType": "bytes",
          "name": "data",
          "type": "bytes"
        }
      ],
      "name": "safeMint",
      "outputs": [],
      "stateMutability": "nonpayable",
      "type": "function"
    },
    {
      "inputs": [
        {
          "internalType": "address",
          "name": "from",
          "type": "address"
        },
        {
          "internalType": "address",
          "name": "to",
          "type": "address"
        },
        {
          "internalType": "uint256",
          "name": "id",
          "type": "uint256"
        },
        {
          "internalType": "uint256",
          "name": "value",
          "type": "uint256"
        },
        {
          "internalType": "bytes",
          "name": "data",
          "type": "bytes"
        }
      ],
      "name": "safeTransferFrom",
      "outputs": [],
      "stateMutability": "nonpayable",
      "type": "function"
    },
    {
      "inputs": [
        {
          "internalType": "address",
          "name": "operator",
          "type": "address"
        },
        {
          "internalType": "bool",
          "name": "approved",
          "type": "bool"
        }
      ],
      "name": "setApprovalForAll",
      "outputs": [],
      "stateMutability": "nonpayable",
      "type": "function"
    },
    {
      "inputs": [
        {
          "internalType": "string",
          "name": "baseMetadataURI_",
          "type": "string"
        }
      ],
      "name": "setBaseMetadataURI",
      "outputs": [],
      "stateMutability": "nonpayable",
      "type": "function"
    },
    {
      "inputs": [
        {
          "internalType": "bytes4",
          "name": "interfaceId",
          "type": "bytes4"
        }
      ],
      "name": "supportsInterface",
      "outputs": [
        {
          "internalType": "bool",
          "name": "",
          "type": "bool"
        }
      ],
      "stateMutability": "view",
      "type": "function"
    },
    {
      "inputs": [
        {
          "internalType": "uint256",
          "name": "id",
          "type": "uint256"
        }
      ],
      "name": "totalSupply",
      "outputs": [
        {
          "internalType": "uint256",
          "name": "",
          "type": "uint256"
        }
      ],
      "stateMutability": "view",
      "type": "function"
    },
    {
      "inputs": [
        {
          "internalType": "address",
          "name": "newOwner",
          "type": "address"
        }
      ],
      "name": "transferOwnership",
      "outputs": [],
      "stateMutability": "nonpayable",
      "type": "function"
    },
    {
      "inputs": [
        {
          "internalType": "uint256",
          "name": "id",
          "type": "uint256"
        }
      ],
      "name": "uri",
      "outputs": [
        {
          "internalType": "string",
          "name": "",
          "type": "string"
        }
      ],
      "stateMutability": "view",
      "type": "function"
    }
  ],
  "bytecode": "0x608060405234801561001057600080fd5b50600580546001600160a01b03191633908117909155604051819081906000907f8be0079c531659141344cd1fd0a4f28419497f9722a3daafe3b4186f6b6457e0908290a35061005f81610065565b506100b1565b6001600160a01b038116600081815260076020526040808220805460ff19166001179055517f6ae172837ea30b801fbfcdd4108aa1d5bf8ff775444fd70256b44e6bf3dfc3f69190a250565b61326b80620000c16000396000f3fe608060405234801561001057600080fd5b50600436106101a25760003560e01c806380534934116100ee578063adebf6f211610097578063d0011d9d11610071578063d0011d9d14610b25578063e985e9c514610b42578063f242432a14610b70578063f2fde38b14610c3b576101a2565b8063adebf6f214610ace578063bd85b03914610aeb578063c7778baa14610b08576101a2565b806398650275116100c85780639865027514610a72578063a22cb46514610a7a578063aa271e1a14610aa8576101a2565b8063805349341461090d5780638da5cb5b14610a44578063983b2d5614610a4c576101a2565b80634e1273f4116101505780635cfa92971161012a5780635cfa9297146107be5780636352211e146108805780637e518ec81461089d576101a2565b80634e1273f41461066b578063510b51581461077d5780635b2bd79e146107b6576101a2565b80630e89341c116101815780630e89341c146103e0578063124d91e5146104725780632eb2c2d6146104a4576101a2565b8062fdd58e146101a757806301ffc9a7146101e55780630d6a5bbb14610220575b600080fd5b6101d3600480360360408110156101bd57600080fd5b506001600160a01b038135169060200135610c61565b60408051918252519081900360200190f35b61020c600480360360208110156101fb57600080fd5b50356001600160e01b031916610d2c565b604080519115158252519081900360200190f35b6103de6004803603608081101561023657600080fd5b6001600160a01b03823516919081019060408101602082013564010000000081111561026157600080fd5b82018360208201111561027357600080fd5b8035906020019184602083028401116401000000008311171561029557600080fd5b91908080602002602001604051908101604052809392919081815260200183836020028082843760009201919091525092959493602081019350359150506401000000008111156102e557600080fd5b8201836020820111156102f757600080fd5b8035906020019184602083028401116401000000008311171561031957600080fd5b919080806020026020016040519081016040528093929190818152602001838360200280828437600092019190915250929594936020810193503591505064010000000081111561036957600080fd5b82018360208201111561037b57600080fd5b8035906020019184600183028401116401000000008311171561039d57600080fd5b91908080601f016020809104026020016040519081016040528093929190818152602001838380828437600092019190915250929550610d72945050505050565b005b6103fd600480360360208110156103f657600080fd5b5035610d94565b6040805160208082528351818301528351919283929083019185019080838360005b8381101561043757818101518382015260200161041f565b50505050905090810190601f1680156104645780820380516001836020036101000a031916815260200191505b509250505060405180910390f35b6103de6004803603606081101561048857600080fd5b506001600160a01b038135169060208101359060400135610d9f565b6103de600480360360a08110156104ba57600080fd5b6001600160a01b0382358116926020810135909116918101906060810160408201356401000000008111156104ee57600080fd5b82018360208201111561050057600080fd5b8035906020019184602083028401116401000000008311171561052257600080fd5b919080806020026020016040519081016040528093929190818152602001838360200280828437600092019190915250929594936020810193503591505064010000000081111561057257600080fd5b82018360208201111561058457600080fd5b803590602001918460208302840111640100000000831117156105a657600080fd5b91908080602002602001604051908101604052809392919081815260200183836020028082843760009201919091525092959493602081019350359150506401000000008111156105f657600080fd5b82018360208201111561060857600080fd5b8035906020019184600183028401116401000000008311171561062a57600080fd5b91908080601f016020809104026020016040519081016040528093929190818152602001838380828437600092019190915250929550610ef0945050505050565b61072d6004803603604081101561068157600080fd5b81019060208101813564010000000081111561069c57600080fd5b8201836020820111156106ae57600080fd5b803590602001918460208302840111640100000000831117156106d057600080fd5b9193909290916020810190356401000000008111156106ee57600080fd5b82018360208201111561070057600080fd5b8035906020019184602083028401116401000000008311171561072257600080fd5b509092509050610f04565b60408051602080825283518183015283519192839290830191858101910280838360005b83811015610769578181015183820152602001610751565b505050509050019250505060405180910390f35b61079a6004803603602081101561079357600080fd5b503561100a565b604080516001600160a01b039092168252519081900360200190f35b6103fd611015565b6103de600480360360808110156107d457600080fd5b6001600160a01b03823516916020810135916040820135919081019060808101606082013564010000000081111561080b57600080fd5b82018360208201111561081d57600080fd5b8035906020019184600183028401116401000000008311171561083f57600080fd5b91908080601f0160208091040260200160405190810160405280939291908181526020018383808284376000920191909152509295506110a3945050505050565b61079a6004803603602081101561089657600080fd5b50356110ba565b6103de600480360360208110156108b357600080fd5b8101906020810181356401000000008111156108ce57600080fd5b8201836020820111156108e057600080fd5b8035906020019184600183028401116401000000008311171561090257600080fd5b509092509050611124565b6103de6004803603606081101561092357600080fd5b6001600160a01b03823516919081019060408101602082013564010000000081111561094e57600080fd5b82018360208201111561096057600080fd5b8035906020019184602083028401116401000000008311171561098257600080fd5b91908080602002602001604051908101604052809392919081815260200183836020028082843760009201919091525092959493602081019350359150506401000000008111156109d257600080fd5b8201836020820111156109e457600080fd5b80359060200191846020830284011164010000000083111715610a0657600080fd5b9190808060200260200160405190810160405280939291908181526020018383602002808284376000920191909152509295506111a5945050505050565b61079a6114a7565b6103de60048036036020811015610a6257600080fd5b50356001600160a01b03166114b6565b6103de6114cd565b6103de60048036036040811015610a9057600080fd5b506001600160a01b038135169060200135151561152b565b61020c60048036036020811015610abe57600080fd5b50356001600160a01b031661160a565b61020c60048036036020811015610ae457600080fd5b503561161f565b6101d360048036036020811015610b0157600080fd5b503561162a565b6101d360048036036020811015610b1e57600080fd5b5035611680565b6103de60048036036020811015610b3b57600080fd5b50356116e5565b61020c60048036036040811015610b5857600080fd5b506001600160a01b03813581169160200135166116f9565b6103de600480360360a0811015610b8657600080fd5b6001600160a01b03823581169260208101359091169160408201359160608101359181019060a081016080820135640100000000811115610bc657600080fd5b820183602082011115610bd857600080fd5b80359060200191846001830284011164010000000083111715610bfa57600080fd5b91908080601f016020809104026020016040519081016040528093929190818152602001838380828437600092019190915250929550611725945050505050565b6103de60048036036020811015610c5157600080fd5b50356001600160a01b03166118ab565b60006001600160a01b038316610cbe576040805162461bcd60e51b815260206004820152601760248201527f496e76656e746f72793a207a65726f2061646472657373000000000000000000604482015290519081900360640190fd5b610cc78261191e565b15610d01576000828152600360205260409020546001600160a01b03848116911614610cf4576000610cf7565b60015b60ff169050610d26565b5060008181526001602090815260408083206001600160a01b03861684529091529020545b92915050565b60006001600160e01b031982167f510b5158000000000000000000000000000000000000000000000000000000001480610d6a5750610d6a82611970565b90505b919050565b610d82610d7d6119ae565b6119b2565b610d8e84848484611a1f565b50505050565b6060610d6a82611d36565b6000610da96119ae565b9050610db58482611e09565b610e06576040805162461bcd60e51b815260206004820152601e60248201527f496e76656e746f72793a206e6f6e2d617070726f7665642073656e6465720000604482015290519081900360640190fd5b610e0f83611e55565b15610e2457610e1f848484611e7b565b610e8c565b610e2d8361191e565b15610e3f57610e1f8484846000611f84565b6040805162461bcd60e51b815260206004820152601960248201527f496e76656e746f72793a206e6f74206120746f6b656e20696400000000000000604482015290519081900360640190fd5b60006001600160a01b0316846001600160a01b0316826001600160a01b03167fc3d58168c5ae7397731d063d5bbf3d657854427343f4c083240f7aacaa2d0f628686604051808381526020018281526020019250505060405180910390a450505050565b610efd85858585856120cd565b5050505050565b6060838214610f5a576040805162461bcd60e51b815260206004820152601e60248201527f496e76656e746f72793a20696e636f6e73697374656e74206172726179730000604482015290519081900360640190fd5b60008467ffffffffffffffff81118015610f7357600080fd5b50604051908082528060200260200182016040528015610f9d578160200160208202803683370190505b50905060005b80861461100057610fe1878783818110610fb957fe5b905060200201356001600160a01b0316868684818110610fd557fe5b90506020020135610c61565b828281518110610fed57fe5b6020908102919091010152600101610fa3565b5095945050505050565b6000610d6a826123c9565b6006805460408051602060026001851615610100026000190190941693909304601f8101849004840282018401909252818152929183018282801561109b5780601f106110705761010080835404028352916020019161109b565b820191906000526020600020905b81548152906001019060200180831161107e57829003601f168201915b505050505081565b6110ae610d7d6119ae565b610d8e84848484612442565b6000818152600360205260408120546001600160a01b038116610d6a576040805162461bcd60e51b815260206004820152601b60248201527f496e76656e746f72793a206e6f6e2d6578697374696e67204e46540000000000604482015290519081900360640190fd5b61113461112f6119ae565b612557565b61114060068383613194565b507f04b1dc5c136a3ce9fded8db0ce3d3366c58764ec3a8e4c2b9e52e4ddfe5ebbf7828260405180806020018281038252848482818152602001925080828437600083820152604051601f909101601f19169092018290039550909350505050a15050565b8151815181146111fc576040805162461bcd60e51b815260206004820152601e60248201527f496e76656e746f72793a20696e636f6e73697374656e74206172726179730000604482015290519081900360640190fd5b60006112066119ae565b90506112128582611e09565b611263576040805162461bcd60e51b815260206004820152601e60248201527f496e76656e746f72793a206e6f6e2d617070726f7665642073656e6465720000604482015290519081900360640190fd5b60008060005b84811461138257600087828151811061127e57fe5b60200260200101519050600087838151811061129657fe5b602002602001015190506112a982611e55565b156112be576112b98a8383611e7b565b611378565b6112c78261191e565b15610e3f576112d98a83836001611f84565b60006112e48361261b565b9050856112f75780955060019450611376565b85811461136f57846001600088815260200190815260200160002060008d6001600160a01b03166001600160a01b031681526020019081526020016000206000828254039250508190555084600260008881526020019081526020016000206000828254039250508190555080955060019450611376565b8460010194505b505b5050600101611269565b5081156113c45760008281526001602090815260408083206001600160a01b038b16845282528083208054859003905584835260029091529020805482900390555b60006001600160a01b0316876001600160a01b0316846001600160a01b03167f4a39dc06d4c0dbc64b70af90fd698a233a518aa5d07e595d983b8c0526c8f7fb8989604051808060200180602001838103835285818151815260200191508051906020019060200280838360005b8381101561144a578181015183820152602001611432565b50505050905001838103825284818151815260200191508051906020019060200280838360005b83811015611489578181015183820152602001611471565b5050505090500194505050505060405180910390a450505050505050565b6005546001600160a01b031690565b6114c161112f6119ae565b6114ca81612628565b50565b60006114d76119ae565b90506114e2816119b2565b6001600160a01b038116600081815260076020526040808220805460ff19169055517fe94479a9f7e1952cc78f2d6baab678adc1b772d936c6583def489e524cb666929190a250565b60006115356119ae565b9050806001600160a01b0316836001600160a01b0316141561159e576040805162461bcd60e51b815260206004820152601860248201527f496e76656e746f72793a2073656c662d617070726f76616c0000000000000000604482015290519081900360640190fd5b6001600160a01b0381811660008181526020818152604080832094881680845294825291829020805460ff1916871515908117909155825190815291517f17307eab39ab6107e8899845ad3d59bd9653f200f220920489ca2b5937696c319281900390910190a3505050565b60076020526000908152604090205460ff1681565b6000610d6a82611e55565b60006116358261191e565b1561166b576000828152600360205260409020546001600160a01b03161561165e576001611661565b60005b60ff169050610d6d565b50600081815260026020526040902054610d6d565b600061168b8261191e565b6116dc576040805162461bcd60e51b815260206004820152601560248201527f496e76656e746f72793a206e6f7420616e204e46540000000000000000000000604482015290519081900360640190fd5b610d6a8261261b565b6116f061112f6119ae565b6114ca81612674565b6001600160a01b0391821660009081526020818152604080832093909416825291909152205460ff1690565b600061172f6119ae565b90506001600160a01b03851661178c576040805162461bcd60e51b815260206004820152601b60248201527f496e76656e746f72793a207472616e7366657220746f207a65726f0000000000604482015290519081900360640190fd5b6117968682611e09565b6117e7576040805162461bcd60e51b815260206004820152601e60248201527f496e76656e746f72793a206e6f6e2d617070726f7665642073656e6465720000604482015290519081900360640190fd5b6117f084611e55565b1561180657611801868686866127c0565b611822565b61180f8461191e565b15610e3f576118018686868660006128de565b846001600160a01b0316866001600160a01b0316826001600160a01b03167fc3d58168c5ae7397731d063d5bbf3d657854427343f4c083240f7aacaa2d0f628787604051808381526020018281526020019250505060405180910390a4611891856001600160a01b0316612a0f565b156118a3576118a38686868686612a15565b505050505050565b6118b661112f6119ae565b600580547fffffffffffffffffffffffff0000000000000000000000000000000000000000166001600160a01b0383811691821792839055604051919216907f8be0079c531659141344cd1fd0a4f28419497f9722a3daafe3b4186f6b6457e090600090a350565b60007f8000000000000000000000000000000000000000000000000000000000000000821615801590610d6a5750507bffffffffffffffffffffffffffffffffffffffffffffffffffffffff16151590565b60006001600160e01b031982167f921ed8d1000000000000000000000000000000000000000000000000000000001480610d6a5750610d6a82612b9f565b3390565b6001600160a01b03811660009081526007602052604090205460ff166114ca576040805162461bcd60e51b815260206004820152601860248201527f4d696e746572526f6c653a206e6f742061204d696e7465720000000000000000604482015290519081900360640190fd5b6001600160a01b038416611a7a576040805162461bcd60e51b815260206004820152601760248201527f496e76656e746f72793a206d696e7420746f207a65726f000000000000000000604482015290519081900360640190fd5b825182518114611ad1576040805162461bcd60e51b815260206004820152601e60248201527f496e76656e746f72793a20696e636f6e73697374656e74206172726179730000604482015290519081900360640190fd5b60008060005b838114611bf0576000878281518110611aec57fe5b602002602001015190506000878381518110611b0457fe5b60200260200101519050611b1782611e55565b15611b2c57611b278a8383612ca0565b611be6565b611b358261191e565b15610e3f57611b478a83836001612d92565b6000611b528361261b565b905085611b655780955060019450611be4565b858114611bdd57846001600088815260200190815260200160002060008d6001600160a01b03166001600160a01b031681526020019081526020016000206000828254019250508190555084600260008881526020019081526020016000206000828254019250508190555080955060019450611be4565b8460010194505b505b5050600101611ad7565b508115611c305760008281526001602090815260408083206001600160a01b038b1684528252808320805485019055848352600290915290208054820190555b6001600160a01b0387166000611c446119ae565b6001600160a01b03167f4a39dc06d4c0dbc64b70af90fd698a233a518aa5d07e595d983b8c0526c8f7fb8989604051808060200180602001838103835285818151815260200191508051906020019060200280838360005b83811015611cb4578181015183820152602001611c9c565b50505050905001838103825284818151815260200191508051906020019060200280838360005b83811015611cf3578181015183820152602001611cdb565b5050505090500194505050505060405180910390a4611d1a876001600160a01b0316612a0f565b15611d2d57611d2d600088888888612eb3565b50505050505050565b60606006611d4383613031565b6040516020018083805460018160011615610100020316600290048015611da15780601f10611d7f576101008083540402835291820191611da1565b820191906000526020600020905b815481529060010190602001808311611d8d575b5050825160208401908083835b60208310611dcd5780518252601f199092019160209182019101611dae565b6001836020036101000a038019825116818451168082178552505050505050905001925050506040516020818303038152906040529050919050565b6000816001600160a01b0316836001600160a01b03161480611e4e57506001600160a01b038084166000908152602081815260408083209386168352929052205460ff165b9392505050565b7f8000000000000000000000000000000000000000000000000000000000000000161590565b80611ecd576040805162461bcd60e51b815260206004820152601560248201527f496e76656e746f72793a207a65726f2076616c75650000000000000000000000604482015290519081900360640190fd5b60008281526001602090815260408083206001600160a01b038716845290915290205481811015611f45576040805162461bcd60e51b815260206004820152601d60248201527f496e76656e746f72793a206e6f7420656e6f7567682062616c616e6365000000604482015290519081900360640190fd5b60008381526001602090815260408083206001600160a01b03909716835295815285822092849003909255928352600290529190208054919091039055565b81600114611fd9576040805162461bcd60e51b815260206004820152601a60248201527f496e76656e746f72793a2077726f6e67204e46542076616c7565000000000000604482015290519081900360640190fd5b6000838152600360205260409020546001600160a01b03858116911614612047576040805162461bcd60e51b815260206004820152601860248201527f496e76656e746f72793a206e6f6e2d6f776e6564204e46540000000000000000604482015290519081900360640190fd5b60008381526003602052604090207fdead000000000000000000000000000000000000000000000000000000000000905580610d8e5760006120888461261b565b60008181526001602090815260408083206001600160a01b038a1684528252808320805460001990810190915593835260029091529020805490910190555050505050565b6001600160a01b038416612128576040805162461bcd60e51b815260206004820152601b60248201527f496e76656e746f72793a207472616e7366657220746f207a65726f0000000000604482015290519081900360640190fd5b82518251811461217f576040805162461bcd60e51b815260206004820152601e60248201527f496e76656e746f72793a20696e636f6e73697374656e74206172726179730000604482015290519081900360640190fd5b60006121896119ae565b90506121958782611e09565b6121e6576040805162461bcd60e51b815260206004820152601e60248201527f496e76656e746f72793a206e6f6e2d617070726f7665642073656e6465720000604482015290519081900360640190fd5b60008060005b8481146122ae57600088828151811061220157fe5b60200260200101519050600088838151811061221957fe5b6020026020010151905061222c82611e55565b156122425761223d8c8c84846127c0565b6122a4565b61224b8261191e565b15610e3f5761225e8c8c848460016128de565b60006122698361261b565b90508561227c57809550600194506122a2565b85811461229b5761228f8d8d8888613140565b809550600194506122a2565b8460010194505b505b50506001016121ec565b5081156122c1576122c189898484613140565b876001600160a01b0316896001600160a01b0316846001600160a01b03167f4a39dc06d4c0dbc64b70af90fd698a233a518aa5d07e595d983b8c0526c8f7fb8a8a604051808060200180602001838103835285818151815260200191508051906020019060200280838360005b8381101561234657818101518382015260200161232e565b50505050905001838103825284818151815260200191508051906020019060200280838360005b8381101561238557818101518382015260200161236d565b5050505090500194505050505060405180910390a46123ac886001600160a01b0316612a0f565b156123be576123be8989898989612eb3565b505050505050505050565b60006123d48261191e565b15612426576040805162461bcd60e51b815260206004820152601b60248201527f496e76656e746f72793a206e6f74206120636f6c6c656374696f6e0000000000604482015290519081900360640190fd5b506000908152600460205260409020546001600160a01b031690565b6001600160a01b03841661249d576040805162461bcd60e51b815260206004820152601760248201527f496e76656e746f72793a206d696e7420746f207a65726f000000000000000000604482015290519081900360640190fd5b6124a683611e55565b156124bb576124b6848484612ca0565b6124d6565b6124c48361191e565b15610e3f576124b68484846000612d92565b6001600160a01b03841660006124ea6119ae565b6001600160a01b03167fc3d58168c5ae7397731d063d5bbf3d657854427343f4c083240f7aacaa2d0f628686604051808381526020018281526020019250505060405180910390a4612544846001600160a01b0316612a0f565b15610d8e57610d8e600085858585612a15565b306001600160a01b0316638da5cb5b6040518163ffffffff1660e01b815260040160206040518083038186803b15801561259057600080fd5b505afa1580156125a4573d6000803e3d6000fd5b505050506040513d60208110156125ba57600080fd5b50516001600160a01b038281169116146114ca576040805162461bcd60e51b815260206004820152601660248201527f4f776e61626c653a206e6f7420746865206f776e657200000000000000000000604482015290519081900360640190fd5b6001600160e01b03191690565b6001600160a01b038116600081815260076020526040808220805460ff19166001179055517f6ae172837ea30b801fbfcdd4108aa1d5bf8ff775444fd70256b44e6bf3dfc3f69190a250565b61267d8161191e565b156126cf576040805162461bcd60e51b815260206004820152601b60248201527f496e76656e746f72793a206e6f74206120636f6c6c656374696f6e0000000000604482015290519081900360640190fd5b6000818152600460205260409020546001600160a01b031615612739576040805162461bcd60e51b815260206004820152601e60248201527f496e76656e746f72793a206578697374696e6720636f6c6c656374696f6e0000604482015290519081900360640190fd5b6127416119ae565b600082815260046020526040902080547fffffffffffffffffffffffff0000000000000000000000000000000000000000166001600160a01b039290921691909117905561278e81611e55565b1515817f4ebf8ad0df535ba5e487bc9cb27fe44120ca81c3a95d3eba79c0bd1df2ab2d5d60405160405180910390a350565b80612812576040805162461bcd60e51b815260206004820152601560248201527f496e76656e746f72793a207a65726f2076616c75650000000000000000000000604482015290519081900360640190fd5b60008281526001602090815260408083206001600160a01b03881684529091529020548181101561288a576040805162461bcd60e51b815260206004820152601d60248201527f496e76656e746f72793a206e6f7420656e6f7567682062616c616e6365000000604482015290519081900360640190fd5b836001600160a01b0316856001600160a01b031614610efd5760009283526001602090815260408085206001600160a01b039788168652909152808420918390039091559290931681522080549091019055565b81600114612933576040805162461bcd60e51b815260206004820152601a60248201527f496e76656e746f72793a2077726f6e67204e46542076616c7565000000000000604482015290519081900360640190fd5b6000838152600360205260409020546001600160a01b038681169116146129a1576040805162461bcd60e51b815260206004820152601860248201527f496e76656e746f72793a206e6f6e2d6f776e6564204e46540000000000000000604482015290519081900360640190fd5b60008381526003602052604090206001600160a01b038516905580610efd5760006129cb8461261b565b60009081526001602081815260408084206001600160a01b039a8b168552909152808320805460001901905596909716815294909420805490950190945550505050565b3b151590565b7ff23a6e61000000000000000000000000000000000000000000000000000000006001600160a01b03851663f23a6e61612a4d6119ae565b888787876040518663ffffffff1660e01b815260040180866001600160a01b03168152602001856001600160a01b0316815260200184815260200183815260200180602001828103825283818151815260200191508051906020019080838360005b83811015612ac7578181015183820152602001612aaf565b50505050905090810190601f168015612af45780820380516001836020036101000a031916815260200191505b509650505050505050602060405180830381600087803b158015612b1757600080fd5b505af1158015612b2b573d6000803e3d6000fd5b505050506040513d6020811015612b4157600080fd5b50516001600160e01b03191614610efd576040805162461bcd60e51b815260206004820152601b60248201527f496e76656e746f72793a207472616e7366657220726566757365640000000000604482015290519081900360640190fd5b60006001600160e01b031982167f01ffc9a7000000000000000000000000000000000000000000000000000000001480612c0257506001600160e01b031982167fd9b67a2600000000000000000000000000000000000000000000000000000000145b80612c3657506001600160e01b031982167f0e89341c00000000000000000000000000000000000000000000000000000000145b80612c6a57506001600160e01b031982167f09ce5c4600000000000000000000000000000000000000000000000000000000145b80610d6a5750506001600160e01b0319167fbd85b039000000000000000000000000000000000000000000000000000000001490565b80612cf2576040805162461bcd60e51b815260206004820152601560248201527f496e76656e746f72793a207a65726f2076616c75650000000000000000000000604482015290519081900360640190fd5b600082815260026020526040902054818101818111612d58576040805162461bcd60e51b815260206004820152601a60248201527f496e76656e746f72793a20737570706c79206f766572666c6f77000000000000604482015290519081900360640190fd5b600093845260026020908152604080862092909255600181528185206001600160a01b039096168552949094525091902080549091019055565b81600114612de7576040805162461bcd60e51b815260206004820152601a60248201527f496e76656e746f72793a2077726f6e67204e46542076616c7565000000000000604482015290519081900360640190fd5b60008381526003602052604090205415612e48576040805162461bcd60e51b815260206004820152601d60248201527f496e76656e746f72793a206578697374696e672f6275726e74204e4654000000604482015290519081900360640190fd5b60008381526003602052604090206001600160a01b038516905580610d8e576000612e728461261b565b6000908152600260209081526040808320805460019081019091558083528184206001600160a01b038a168552909252909120805490910190555050505050565b7fbc197c81000000000000000000000000000000000000000000000000000000006001600160a01b03851663bc197c81612eeb6119ae565b888787876040518663ffffffff1660e01b815260040180866001600160a01b03168152602001856001600160a01b03168152602001806020018060200180602001848103845287818151815260200191508051906020019060200280838360005b83811015612f64578181015183820152602001612f4c565b50505050905001848103835286818151815260200191508051906020019060200280838360005b83811015612fa3578181015183820152602001612f8b565b50505050905001848103825285818151815260200191508051906020019080838360005b83811015612fdf578181015183820152602001612fc7565b50505050905090810190601f16801561300c5780820380516001836020036101000a031916815260200191505b5098505050505050505050602060405180830381600087803b158015612b1757600080fd5b606081613072575060408051808201909152600181527f30000000000000000000000000000000000000000000000000000000000000006020820152610d6d565b8160005b811561308a57600101600a82049150613076565b60008167ffffffffffffffff811180156130a357600080fd5b506040519080825280601f01601f1916602001820160405280156130ce576020820181803683370190505b50859350905060001982015b831561313757600a840660300160f81b828280600190039350815181106130fd57fe5b60200101907effffffffffffffffffffffffffffffffffffffffffffffffffffffffffffff1916908160001a905350600a840493506130da565b50949350505050565b826001600160a01b0316846001600160a01b031614610d8e5760009182526001602090815260408084206001600160a01b039687168552909152808320805483900390559290931681522080549091019055565b828054600181600116156101000203166002900490600052602060002090601f0160209004810192826131ca5760008555613210565b82601f106131e35782800160ff19823516178555613210565b82800160010185558215613210579182015b828111156132105782358255916020019190600101906131f5565b5061321c929150613220565b5090565b5b8082111561321c576000815560010161322156fea26469706673582212201b1ff455166d4e34add341ccbb068c3ee4f11b7dfe45f5da559eef048b28dbb364736f6c63430007060033",
  "linkReferences": {},
  "deployedLinkReferences": {}
}