{
  "_format": "hh-sol-artifact-1",
  "contractName": "ERC1155InventoryBurnableMock",
  "sourceName": "contracts/mocks/token/ERC1155/ERC1155InventoryBurnableMock.sol",
  "abi": [
    {
      "inputs": [
        {
          "internalType": "contract IForwarderRegistry",
          "name": "forwarderRegistry",
          "type": "address"
        },
        {
          "internalType": "address",
          "name": "universalForwarder",
          "type": "address"
        },
        {
          "internalType": "uint256",
          "name": "collectionMaskLength",
          "type": "uint256"
        }
      ],
      "stateMutability": "nonpayable",
      "type": "constructor"
    },
    {
      "anonymous": false,
      "inputs": [
        {
          "indexed": true,
          "internalType": "address",
          "name": "_owner",
          "type": "address"
        },
        {
          "indexed": true,
          "internalType": "address",
          "name": "_operator",
          "type": "address"
        },
        {
          "indexed": false,
          "internalType": "bool",
          "name": "_approved",
          "type": "bool"
        }
      ],
      "name": "ApprovalForAll",
      "type": "event"
    },
    {
      "anonymous": false,
      "inputs": [
        {
          "indexed": false,
          "internalType": "string",
          "name": "baseMetadataURI",
          "type": "string"
        }
      ],
      "name": "BaseMetadataURISet",
      "type": "event"
    },
    {
      "anonymous": false,
      "inputs": [
        {
          "indexed": true,
          "internalType": "uint256",
          "name": "collectionId",
          "type": "uint256"
        },
        {
          "indexed": true,
          "internalType": "bool",
          "name": "fungible",
          "type": "bool"
        }
      ],
      "name": "CollectionCreated",
      "type": "event"
    },
    {
      "anonymous": false,
      "inputs": [
        {
          "indexed": true,
          "internalType": "address",
          "name": "account",
          "type": "address"
        }
      ],
      "name": "MinterAdded",
      "type": "event"
    },
    {
      "anonymous": false,
      "inputs": [
        {
          "indexed": true,
          "internalType": "address",
          "name": "account",
          "type": "address"
        }
      ],
      "name": "MinterRemoved",
      "type": "event"
    },
    {
      "anonymous": false,
      "inputs": [
        {
          "indexed": true,
          "internalType": "address",
          "name": "previousOwner",
          "type": "address"
        },
        {
          "indexed": true,
          "internalType": "address",
          "name": "newOwner",
          "type": "address"
        }
      ],
      "name": "OwnershipTransferred",
      "type": "event"
    },
    {
      "anonymous": false,
      "inputs": [
        {
          "indexed": true,
          "internalType": "address",
          "name": "_operator",
          "type": "address"
        },
        {
          "indexed": true,
          "internalType": "address",
          "name": "_from",
          "type": "address"
        },
        {
          "indexed": true,
          "internalType": "address",
          "name": "_to",
          "type": "address"
        },
        {
          "indexed": false,
          "internalType": "uint256[]",
          "name": "_ids",
          "type": "uint256[]"
        },
        {
          "indexed": false,
          "internalType": "uint256[]",
          "name": "_values",
          "type": "uint256[]"
        }
      ],
      "name": "TransferBatch",
      "type": "event"
    },
    {
      "anonymous": false,
      "inputs": [
        {
          "indexed": true,
          "internalType": "address",
          "name": "_operator",
          "type": "address"
        },
        {
          "indexed": true,
          "internalType": "address",
          "name": "_from",
          "type": "address"
        },
        {
          "indexed": true,
          "internalType": "address",
          "name": "_to",
          "type": "address"
        },
        {
          "indexed": false,
          "internalType": "uint256",
          "name": "_id",
          "type": "uint256"
        },
        {
          "indexed": false,
          "internalType": "uint256",
          "name": "_value",
          "type": "uint256"
        }
      ],
      "name": "TransferSingle",
      "type": "event"
    },
    {
      "anonymous": false,
      "inputs": [
        {
          "indexed": false,
          "internalType": "string",
          "name": "_value",
          "type": "string"
        },
        {
          "indexed": true,
          "internalType": "uint256",
          "name": "_id",
          "type": "uint256"
        }
      ],
      "name": "URI",
      "type": "event"
    },
    {
      "inputs": [
        {
          "internalType": "address",
          "name": "account",
          "type": "address"
        }
      ],
      "name": "addMinter",
      "outputs": [],
      "stateMutability": "nonpayable",
      "type": "function"
    },
    {
      "inputs": [
        {
          "internalType": "address",
          "name": "owner",
          "type": "address"
        },
        {
          "internalType": "uint256",
          "name": "id",
          "type": "uint256"
        }
      ],
      "name": "balanceOf",
      "outputs": [
        {
          "internalType": "uint256",
          "name": "",
          "type": "uint256"
        }
      ],
      "stateMutability": "view",
      "type": "function"
    },
    {
      "inputs": [
        {
          "internalType": "address[]",
          "name": "owners",
          "type": "address[]"
        },
        {
          "internalType": "uint256[]",
          "name": "ids",
          "type": "uint256[]"
        }
      ],
      "name": "balanceOfBatch",
      "outputs": [
        {
          "internalType": "uint256[]",
          "name": "",
          "type": "uint256[]"
        }
      ],
      "stateMutability": "view",
      "type": "function"
    },
    {
      "inputs": [],
      "name": "baseMetadataURI",
      "outputs": [
        {
          "internalType": "string",
          "name": "",
          "type": "string"
        }
      ],
      "stateMutability": "view",
      "type": "function"
    },
    {
      "inputs": [
        {
          "internalType": "address",
          "name": "from",
          "type": "address"
        },
        {
          "internalType": "uint256[]",
          "name": "ids",
          "type": "uint256[]"
        },
        {
          "internalType": "uint256[]",
          "name": "values",
          "type": "uint256[]"
        }
      ],
      "name": "batchBurnFrom",
      "outputs": [],
      "stateMutability": "nonpayable",
      "type": "function"
    },
    {
      "inputs": [
        {
          "internalType": "address",
          "name": "from",
          "type": "address"
        },
        {
          "internalType": "uint256",
          "name": "id",
          "type": "uint256"
        },
        {
          "internalType": "uint256",
          "name": "value",
          "type": "uint256"
        }
      ],
      "name": "burnFrom",
      "outputs": [],
      "stateMutability": "nonpayable",
      "type": "function"
    },
    {
      "inputs": [
        {
          "internalType": "uint256",
          "name": "nftId",
          "type": "uint256"
        }
      ],
      "name": "collectionOf",
      "outputs": [
        {
          "internalType": "uint256",
          "name": "",
          "type": "uint256"
        }
      ],
      "stateMutability": "view",
      "type": "function"
    },
    {
      "inputs": [
        {
          "internalType": "uint256",
          "name": "collectionId",
          "type": "uint256"
        }
      ],
      "name": "createCollection",
      "outputs": [],
      "stateMutability": "nonpayable",
      "type": "function"
    },
    {
      "inputs": [
        {
          "internalType": "uint256",
          "name": "collectionId",
          "type": "uint256"
        }
      ],
      "name": "creator",
      "outputs": [
        {
          "internalType": "address",
          "name": "",
          "type": "address"
        }
      ],
      "stateMutability": "view",
      "type": "function"
    },
    {
      "inputs": [
        {
          "internalType": "address",
          "name": "tokenOwner",
          "type": "address"
        },
        {
          "internalType": "address",
          "name": "operator",
          "type": "address"
        }
      ],
      "name": "isApprovedForAll",
      "outputs": [
        {
          "internalType": "bool",
          "name": "",
          "type": "bool"
        }
      ],
      "stateMutability": "view",
      "type": "function"
    },
    {
      "inputs": [
        {
          "internalType": "uint256",
          "name": "id",
          "type": "uint256"
        }
      ],
      "name": "isFungible",
      "outputs": [
        {
          "internalType": "bool",
          "name": "",
          "type": "bool"
        }
      ],
      "stateMutability": "pure",
      "type": "function"
    },
    {
      "inputs": [
        {
          "internalType": "address",
          "name": "",
          "type": "address"
        }
      ],
      "name": "isMinter",
      "outputs": [
        {
          "internalType": "bool",
          "name": "",
          "type": "bool"
        }
      ],
      "stateMutability": "view",
      "type": "function"
    },
    {
      "inputs": [
        {
          "internalType": "address",
          "name": "forwarder",
          "type": "address"
        }
      ],
      "name": "isTrustedForwarder",
      "outputs": [
        {
          "internalType": "bool",
          "name": "",
          "type": "bool"
        }
      ],
      "stateMutability": "view",
      "type": "function"
    },
    {
      "inputs": [],
      "name": "msgData",
      "outputs": [
        {
          "internalType": "bytes",
          "name": "ret",
          "type": "bytes"
        }
      ],
      "stateMutability": "view",
      "type": "function"
    },
    {
      "inputs": [],
      "name": "owner",
      "outputs": [
        {
          "internalType": "address",
          "name": "",
          "type": "address"
        }
      ],
      "stateMutability": "view",
      "type": "function"
    },
    {
      "inputs": [
        {
          "internalType": "uint256",
          "name": "nftId",
          "type": "uint256"
        }
      ],
      "name": "ownerOf",
      "outputs": [
        {
          "internalType": "address",
          "name": "",
          "type": "address"
        }
      ],
      "stateMutability": "view",
      "type": "function"
    },
    {
      "inputs": [
        {
          "internalType": "address[]",
          "name": "accounts",
          "type": "address[]"
        },
        {
          "internalType": "address[]",
          "name": "tokens",
          "type": "address[]"
        },
        {
          "internalType": "uint256[]",
          "name": "amounts",
          "type": "uint256[]"
        }
      ],
      "name": "recoverERC20s",
      "outputs": [],
      "stateMutability": "nonpayable",
      "type": "function"
    },
    {
      "inputs": [
        {
          "internalType": "address[]",
          "name": "accounts",
          "type": "address[]"
        },
        {
          "internalType": "address[]",
          "name": "contracts",
          "type": "address[]"
        },
        {
          "internalType": "uint256[]",
          "name": "tokenIds",
          "type": "uint256[]"
        }
      ],
      "name": "recoverERC721s",
      "outputs": [],
      "stateMutability": "nonpayable",
      "type": "function"
    },
    {
      "inputs": [],
      "name": "renounceMinter",
      "outputs": [],
      "stateMutability": "nonpayable",
      "type": "function"
    },
    {
      "inputs": [
        {
          "internalType": "address",
          "name": "to",
          "type": "address"
        },
        {
          "internalType": "uint256[]",
          "name": "ids",
          "type": "uint256[]"
        },
        {
          "internalType": "uint256[]",
          "name": "values",
          "type": "uint256[]"
        },
        {
          "internalType": "bytes",
          "name": "data",
          "type": "bytes"
        }
      ],
      "name": "safeBatchMint",
      "outputs": [],
      "stateMutability": "nonpayable",
      "type": "function"
    },
    {
      "inputs": [
        {
          "internalType": "address",
          "name": "from",
          "type": "address"
        },
        {
          "internalType": "address",
          "name": "to",
          "type": "address"
        },
        {
          "internalType": "uint256[]",
          "name": "ids",
          "type": "uint256[]"
        },
        {
          "internalType": "uint256[]",
          "name": "values",
          "type": "uint256[]"
        },
        {
          "internalType": "bytes",
          "name": "data",
          "type": "bytes"
        }
      ],
      "name": "safeBatchTransferFrom",
      "outputs": [],
      "stateMutability": "nonpayable",
      "type": "function"
    },
    {
      "inputs": [
        {
          "internalType": "address",
          "name": "to",
          "type": "address"
        },
        {
          "internalType": "uint256",
          "name": "id",
          "type": "uint256"
        },
        {
          "internalType": "uint256",
          "name": "value",
          "type": "uint256"
        },
        {
          "internalType": "bytes",
          "name": "data",
          "type": "bytes"
        }
      ],
      "name": "safeMint",
      "outputs": [],
      "stateMutability": "nonpayable",
      "type": "function"
    },
    {
      "inputs": [
        {
          "internalType": "address",
          "name": "from",
          "type": "address"
        },
        {
          "internalType": "address",
          "name": "to",
          "type": "address"
        },
        {
          "internalType": "uint256",
          "name": "id",
          "type": "uint256"
        },
        {
          "internalType": "uint256",
          "name": "value",
          "type": "uint256"
        },
        {
          "internalType": "bytes",
          "name": "data",
          "type": "bytes"
        }
      ],
      "name": "safeTransferFrom",
      "outputs": [],
      "stateMutability": "nonpayable",
      "type": "function"
    },
    {
      "inputs": [
        {
          "internalType": "address",
          "name": "operator",
          "type": "address"
        },
        {
          "internalType": "bool",
          "name": "approved",
          "type": "bool"
        }
      ],
      "name": "setApprovalForAll",
      "outputs": [],
      "stateMutability": "nonpayable",
      "type": "function"
    },
    {
      "inputs": [
        {
          "internalType": "string",
          "name": "baseMetadataURI_",
          "type": "string"
        }
      ],
      "name": "setBaseMetadataURI",
      "outputs": [],
      "stateMutability": "nonpayable",
      "type": "function"
    },
    {
      "inputs": [
        {
          "internalType": "bytes4",
          "name": "interfaceId",
          "type": "bytes4"
        }
      ],
      "name": "supportsInterface",
      "outputs": [
        {
          "internalType": "bool",
          "name": "",
          "type": "bool"
        }
      ],
      "stateMutability": "view",
      "type": "function"
    },
    {
      "inputs": [
        {
          "internalType": "uint256",
          "name": "id",
          "type": "uint256"
        }
      ],
      "name": "totalSupply",
      "outputs": [
        {
          "internalType": "uint256",
          "name": "",
          "type": "uint256"
        }
      ],
      "stateMutability": "view",
      "type": "function"
    },
    {
      "inputs": [
        {
          "internalType": "address",
          "name": "newOwner",
          "type": "address"
        }
      ],
      "name": "transferOwnership",
      "outputs": [],
      "stateMutability": "nonpayable",
      "type": "function"
    },
    {
      "inputs": [
        {
          "internalType": "uint256",
          "name": "id",
          "type": "uint256"
        }
      ],
      "name": "uri",
      "outputs": [
        {
          "internalType": "string",
          "name": "",
          "type": "string"
        }
      ],
      "stateMutability": "view",
      "type": "function"
    }
  ],
  "bytecode": "0x60e06040523480156200001157600080fd5b506040516200418e3803806200418e833981810160405260608110156200003757600080fd5b5080516020820151604092830151600080546001600160a01b03191633908117825594519394929391929183918691869185918291907f8be0079c531659141344cd1fd0a4f28419497f9722a3daafe3b4186f6b6457e0908290a3506001600160601b0319606091821b811660a05291901b166080528015801590620000be575061010081105b62000110576040805162461bcd60e51b815260206004820152601c60248201527f496e76656e746f72793a2077726f6e67206d61736b206c656e67746800000000604482015290519081900360640190fd5b60c0526200011e8162000128565b5050505062000174565b6001600160a01b038116600081815260076020526040808220805460ff19166001179055517f6ae172837ea30b801fbfcdd4108aa1d5bf8ff775444fd70256b44e6bf3dfc3f69190a250565b60805160601c60a05160601c60c051613f746200021a60003980610f4652806110cd52806116ee528061172c5280611a765280611c445280611cbf5280611e0c5280612148528061218652806126b0528061289452806128d35280612a5f5280612b705280612e1c528061318b52806137c15250806112dd52806134dd5280613d2352508061131852806134a252806135355280613cf95280613d845250613f746000f3fe608060405234801561001057600080fd5b50600436106101ce5760003560e01c80638053493411610104578063bd85b039116100a2578063d0011d9d11610071578063d0011d9d14610da7578063e985e9c514610dc4578063f242432a14610df2578063f2fde38b14610ebd576101ce565b8063bd85b03914610c51578063c3666c3614610c6e578063c4c2bfdc14610d82578063c7778baa14610d8a576101ce565b806398650275116100de5780639865027514610bd8578063a22cb46514610be0578063aa271e1a14610c0e578063adebf6f214610c34576101ce565b80638053493414610a735780638da5cb5b14610baa578063983b2d5614610bb2576101ce565b8063510b5158116101715780635cfa92971161014b5780635cfa9297146108105780636352211e146108d257806373c8a958146108ef5780637e518ec814610a03576101ce565b8063510b5158146107a9578063572b6c05146107e25780635b2bd79e14610808576101ce565b80630e89341c116101ad5780630e89341c1461040c578063124d91e51461049e5780632eb2c2d6146104d05780634e1273f414610697576101ce565b8062fdd58e146101d357806301ffc9a7146102115780630d6a5bbb1461024c575b600080fd5b6101ff600480360360408110156101e957600080fd5b506001600160a01b038135169060200135610ee3565b60408051918252519081900360200190f35b6102386004803603602081101561022757600080fd5b50356001600160e01b031916610fcf565b604080519115158252519081900360200190f35b61040a6004803603608081101561026257600080fd5b6001600160a01b03823516919081019060408101602082013564010000000081111561028d57600080fd5b82018360208201111561029f57600080fd5b803590602001918460208302840111640100000000831117156102c157600080fd5b919080806020026020016040519081016040528093929190818152602001838360200280828437600092019190915250929594936020810193503591505064010000000081111561031157600080fd5b82018360208201111561032357600080fd5b8035906020019184602083028401116401000000008311171561034557600080fd5b919080806020026020016040519081016040528093929190818152602001838360200280828437600092019190915250929594936020810193503591505064010000000081111561039557600080fd5b8201836020820111156103a757600080fd5b803590602001918460018302840111640100000000831117156103c957600080fd5b91908080601f016020809104026020016040519081016040528093929190818152602001838380828437600092019190915250929550611015945050505050565b005b6104296004803603602081101561042257600080fd5b5035611037565b6040805160208082528351818301528351919283929083019185019080838360005b8381101561046357818101518382015260200161044b565b50505050905090810190601f1680156104905780820380516001836020036101000a031916815260200191505b509250505060405180910390f35b61040a600480360360608110156104b457600080fd5b506001600160a01b038135169060208101359060400135611042565b61040a600480360360a08110156104e657600080fd5b6001600160a01b03823581169260208101359091169181019060608101604082013564010000000081111561051a57600080fd5b82018360208201111561052c57600080fd5b8035906020019184602083028401116401000000008311171561054e57600080fd5b919080806020026020016040519081016040528093929190818152602001838360200280828437600092019190915250929594936020810193503591505064010000000081111561059e57600080fd5b8201836020820111156105b057600080fd5b803590602001918460208302840111640100000000831117156105d257600080fd5b919080806020026020016040519081016040528093929190818152602001838360200280828437600092019190915250929594936020810193503591505064010000000081111561062257600080fd5b82018360208201111561063457600080fd5b8035906020019184600183028401116401000000008311171561065657600080fd5b91908080601f0160208091040260200160405190810160405280939291908181526020018383808284376000920191909152509295506111b4945050505050565b610759600480360360408110156106ad57600080fd5b8101906020810181356401000000008111156106c857600080fd5b8201836020820111156106da57600080fd5b803590602001918460208302840111640100000000831117156106fc57600080fd5b91939092909160208101903564010000000081111561071a57600080fd5b82018360208201111561072c57600080fd5b8035906020019184602083028401116401000000008311171561074e57600080fd5b5090925090506111c8565b60408051602080825283518183015283519192839290830191858101910280838360005b8381101561079557818101518382015260200161077d565b505050509050019250505060405180910390f35b6107c6600480360360208110156107bf57600080fd5b50356112ce565b604080516001600160a01b039092168252519081900360200190f35b610238600480360360208110156107f857600080fd5b50356001600160a01b03166112d9565b610429611352565b61040a6004803603608081101561082657600080fd5b6001600160a01b03823516916020810135916040820135919081019060808101606082013564010000000081111561085d57600080fd5b82018360208201111561086f57600080fd5b8035906020019184600183028401116401000000008311171561089157600080fd5b91908080601f0160208091040260200160405190810160405280939291908181526020018383808284376000920191909152509295506113e0945050505050565b6107c6600480360360208110156108e857600080fd5b50356113f7565b61040a6004803603606081101561090557600080fd5b81019060208101813564010000000081111561092057600080fd5b82018360208201111561093257600080fd5b8035906020019184602083028401116401000000008311171561095457600080fd5b91939092909160208101903564010000000081111561097257600080fd5b82018360208201111561098457600080fd5b803590602001918460208302840111640100000000831117156109a657600080fd5b9193909290916020810190356401000000008111156109c457600080fd5b8201836020820111156109d657600080fd5b803590602001918460208302840111640100000000831117156109f857600080fd5b509092509050611461565b61040a60048036036020811015610a1957600080fd5b810190602081018135640100000000811115610a3457600080fd5b820183602082011115610a4657600080fd5b80359060200191846001830284011164010000000083111715610a6857600080fd5b509092509050611553565b61040a60048036036060811015610a8957600080fd5b6001600160a01b038235169190810190604081016020820135640100000000811115610ab457600080fd5b820183602082011115610ac657600080fd5b80359060200191846020830284011164010000000083111715610ae857600080fd5b9190808060200260200160405190810160405280939291908181526020018383602002808284376000920191909152509295949360208101935035915050640100000000811115610b3857600080fd5b820183602082011115610b4a57600080fd5b80359060200191846020830284011164010000000083111715610b6c57600080fd5b9190808060200260200160405190810160405280939291908181526020018383602002808284376000920191909152509295506115cf945050505050565b6107c66118e8565b61040a60048036036020811015610bc857600080fd5b50356001600160a01b03166118f8565b61040a61190f565b61040a60048036036040811015610bf657600080fd5b506001600160a01b038135169060200135151561196d565b61023860048036036020811015610c2457600080fd5b50356001600160a01b0316611a4e565b61023860048036036020811015610c4a57600080fd5b5035611a63565b6101ff60048036036020811015610c6757600080fd5b5035611a6e565b61040a60048036036060811015610c8457600080fd5b810190602081018135640100000000811115610c9f57600080fd5b820183602082011115610cb157600080fd5b80359060200191846020830284011164010000000083111715610cd357600080fd5b919390929091602081019035640100000000811115610cf157600080fd5b820183602082011115610d0357600080fd5b80359060200191846020830284011164010000000083111715610d2557600080fd5b919390929091602081019035640100000000811115610d4357600080fd5b820183602082011115610d5557600080fd5b80359060200191846020830284011164010000000083111715610d7757600080fd5b509092509050611ae5565b610429611c2d565b6101ff60048036036020811015610da057600080fd5b5035611c3c565b61040a60048036036020811015610dbd57600080fd5b5035611ce3565b61023860048036036040811015610dda57600080fd5b506001600160a01b0381358116916020013516611cf7565b61040a600480360360a0811015610e0857600080fd5b6001600160a01b03823581169260208101359091169160408201359160608101359181019060a081016080820135640100000000811115610e4857600080fd5b820183602082011115610e5a57600080fd5b80359060200191846001830284011164010000000083111715610e7c57600080fd5b91908080601f016020809104026020016040519081016040528093929190818152602001838380828437600092019190915250929550611d25945050505050565b61040a60048036036020811015610ed357600080fd5b50356001600160a01b0316611ecc565b60006001600160a01b038316610f40576040805162461bcd60e51b815260206004820152601760248201527f496e76656e746f72793a207a65726f2061646472657373000000000000000000604482015290519081900360640190fd5b610f6a827f0000000000000000000000000000000000000000000000000000000000000000611f3d565b15610fa4576000828152600460205260409020546001600160a01b03848116911614610f97576000610f9a565b60015b60ff169050610fc9565b5060008181526002602090815260408083206001600160a01b03861684529091529020545b92915050565b60006001600160e01b031982167f510b515800000000000000000000000000000000000000000000000000000000148061100d575061100d82611f80565b90505b919050565b611025611020611fbe565b611fc8565b61103184848484612035565b50505050565b606061100d82612361565b600061104c611fbe565b90506110588482612434565b6110a9576040805162461bcd60e51b815260206004820152601e60248201527f496e76656e746f72793a206e6f6e2d617070726f7665642073656e6465720000604482015290519081900360640190fd5b6110b283612480565b156110c7576110c28484846124a6565b611150565b6110f1837f0000000000000000000000000000000000000000000000000000000000000000611f3d565b15611103576110c284848460006125af565b6040805162461bcd60e51b815260206004820152601960248201527f496e76656e746f72793a206e6f74206120746f6b656e20696400000000000000604482015290519081900360640190fd5b60006001600160a01b0316846001600160a01b0316826001600160a01b03167fc3d58168c5ae7397731d063d5bbf3d657854427343f4c083240f7aacaa2d0f628686604051808381526020018281526020019250505060405180910390a450505050565b6111c18585858585612719565b5050505050565b606083821461121e576040805162461bcd60e51b815260206004820152601e60248201527f496e76656e746f72793a20696e636f6e73697374656e74206172726179730000604482015290519081900360640190fd5b60008467ffffffffffffffff8111801561123757600080fd5b50604051908082528060200260200182016040528015611261578160200160208202803683370190505b50905060005b8086146112c4576112a587878381811061127d57fe5b905060200201356001600160a01b031686868481811061129957fe5b90506020020135610ee3565b8282815181106112b157fe5b6020908102919091010152600101611267565b5095945050505050565b600061100d82612a57565b60007f00000000000000000000000000000000000000000000000000000000000000006001600160a01b0316826001600160a01b0316148061100d57507f00000000000000000000000000000000000000000000000000000000000000006001600160a01b0316826001600160a01b0316149050919050565b6006805460408051602060026001851615610100026000190190941693909304601f810184900484028201840190925281815292918301828280156113d85780601f106113ad576101008083540402835291602001916113d8565b820191906000526020600020905b8154815290600101906020018083116113bb57829003601f168201915b505050505081565b6113eb611020611fbe565b61103184848484612af1565b6000818152600460205260408120546001600160a01b03811661100d576040805162461bcd60e51b815260206004820152601b60248201527f496e76656e746f72793a206e6f6e2d6578697374696e67204e46540000000000604482015290519081900360640190fd5b61147161146c611fbe565b612c27565b84838114801561148057508082145b6114d1576040805162461bcd60e51b815260206004820152601a60248201527f5265636f763a20696e636f6e73697374656e7420617272617973000000000000604482015290519081900360640190fd5b60005b818114611549576115418888838181106114ea57fe5b905060200201356001600160a01b031685858481811061150657fe5b9050602002013588888581811061151957fe5b905060200201356001600160a01b03166001600160a01b0316612ceb9092919063ffffffff16565b6001016114d4565b5050505050505050565b61155e61146c611fbe565b61156a60068383613e75565b507f04b1dc5c136a3ce9fded8db0ce3d3366c58764ec3a8e4c2b9e52e4ddfe5ebbf7828260405180806020018281038252848482818152602001925080828437600083820152604051601f909101601f19169092018290039550909350505050a15050565b815181518114611626576040805162461bcd60e51b815260206004820152601e60248201527f496e76656e746f72793a20696e636f6e73697374656e74206172726179730000604482015290519081900360640190fd5b6000611630611fbe565b905061163c8582612434565b61168d576040805162461bcd60e51b815260206004820152601e60248201527f496e76656e746f72793a206e6f6e2d617070726f7665642073656e6465720000604482015290519081900360640190fd5b60008060005b8481146117c35760008782815181106116a857fe5b6020026020010151905060008783815181106116c057fe5b602002602001015190506116d382612480565b156116e8576116e38a83836124a6565b6117b9565b611712827f0000000000000000000000000000000000000000000000000000000000000000611f3d565b15611103576117248a838360016125af565b6000611750837f0000000000000000000000000000000000000000000000000000000000000000612d70565b90508561176357809550600194506117b7565b8581146117b05760008681526002602090815260408083206001600160a01b038f1684528252808320805489900390559782526003905295909520805494909403909355600192846117b7565b8460010194505b505b5050600101611693565b5081156118055760008281526002602090815260408083206001600160a01b038b16845282528083208054859003905584835260039091529020805482900390555b60006001600160a01b0316876001600160a01b0316846001600160a01b03167f4a39dc06d4c0dbc64b70af90fd698a233a518aa5d07e595d983b8c0526c8f7fb8989604051808060200180602001838103835285818151815260200191508051906020019060200280838360005b8381101561188b578181015183820152602001611873565b50505050905001838103825284818151815260200191508051906020019060200280838360005b838110156118ca5781810151838201526020016118b2565b5050505090500194505050505060405180910390a450505050505050565b6000546001600160a01b03165b90565b61190361146c611fbe565b61190c81612d86565b50565b6000611919611fbe565b905061192481611fc8565b6001600160a01b038116600081815260076020526040808220805460ff19169055517fe94479a9f7e1952cc78f2d6baab678adc1b772d936c6583def489e524cb666929190a250565b6000611977611fbe565b9050806001600160a01b0316836001600160a01b031614156119e0576040805162461bcd60e51b815260206004820152601860248201527f496e76656e746f72793a2073656c662d617070726f76616c0000000000000000604482015290519081900360640190fd5b6001600160a01b03818116600081815260016020908152604080832094881680845294825291829020805460ff1916871515908117909155825190815291517f17307eab39ab6107e8899845ad3d59bd9653f200f220920489ca2b5937696c319281900390910190a3505050565b60076020526000908152604090205460ff1681565b600061100d82612480565b6000611a9a827f0000000000000000000000000000000000000000000000000000000000000000611f3d565b15611ad0576000828152600460205260409020546001600160a01b031615611ac3576001611ac6565b60005b60ff169050611010565b50600081815260036020526040902054611010565b611af061146c611fbe565b848381148015611aff57508082145b611b50576040805162461bcd60e51b815260206004820152601a60248201527f5265636f763a20696e636f6e73697374656e7420617272617973000000000000604482015290519081900360640190fd5b60005b81811461154957858582818110611b6657fe5b905060200201356001600160a01b03166001600160a01b03166323b872dd308a8a85818110611b9157fe5b905060200201356001600160a01b0316878786818110611bad57fe5b905060200201356040518463ffffffff1660e01b815260040180846001600160a01b03168152602001836001600160a01b031681526020018281526020019350505050600060405180830381600087803b158015611c0a57600080fd5b505af1158015611c1e573d6000803e3d6000fd5b50505050806001019050611b53565b6060611c37612dd2565b905090565b6000611c68827f0000000000000000000000000000000000000000000000000000000000000000611f3d565b611cb9576040805162461bcd60e51b815260206004820152601560248201527f496e76656e746f72793a206e6f7420616e204e46540000000000000000000000604482015290519081900360640190fd5b61100d827f0000000000000000000000000000000000000000000000000000000000000000612d70565b611cee61146c611fbe565b61190c81612e16565b6001600160a01b03918216600090815260016020908152604080832093909416825291909152205460ff1690565b6000611d2f611fbe565b90506001600160a01b038516611d8c576040805162461bcd60e51b815260206004820152601b60248201527f496e76656e746f72793a207472616e7366657220746f207a65726f0000000000604482015290519081900360640190fd5b611d968682612434565b611de7576040805162461bcd60e51b815260206004820152601e60248201527f496e76656e746f72793a206e6f6e2d617070726f7665642073656e6465720000604482015290519081900360640190fd5b611df084612480565b15611e0657611e0186868686612f83565b611e43565b611e30847f0000000000000000000000000000000000000000000000000000000000000000611f3d565b1561110357611e018686868660006130a1565b846001600160a01b0316866001600160a01b0316826001600160a01b03167fc3d58168c5ae7397731d063d5bbf3d657854427343f4c083240f7aacaa2d0f628787604051808381526020018281526020019250505060405180910390a4611eb2856001600160a01b03166131f0565b15611ec457611ec486868686866131f6565b505050505050565b611ed761146c611fbe565b600080547fffffffffffffffffffffffff0000000000000000000000000000000000000000166001600160a01b0383811691821780845560405192939116917f8be0079c531659141344cd1fd0a4f28419497f9722a3daafe3b4186f6b6457e09190a350565b60007f8000000000000000000000000000000000000000000000000000000000000000831615801590611f795750611f7482613380565b831615155b9392505050565b60006001600160e01b031982167f921ed8d100000000000000000000000000000000000000000000000000000000148061100d575061100d82613391565b6000611c37613492565b6001600160a01b03811660009081526007602052604090205460ff1661190c576040805162461bcd60e51b815260206004820152601860248201527f4d696e746572526f6c653a206e6f742061204d696e7465720000000000000000604482015290519081900360640190fd5b6001600160a01b038416612090576040805162461bcd60e51b815260206004820152601760248201527f496e76656e746f72793a206d696e7420746f207a65726f000000000000000000604482015290519081900360640190fd5b8251825181146120e7576040805162461bcd60e51b815260206004820152601e60248201527f496e76656e746f72793a20696e636f6e73697374656e74206172726179730000604482015290519081900360640190fd5b60008060005b83811461221b57600087828151811061210257fe5b60200260200101519050600087838151811061211a57fe5b6020026020010151905061212d82612480565b156121425761213d8a83836135f2565b612211565b61216c827f0000000000000000000000000000000000000000000000000000000000000000611f3d565b156111035761217e8a838360016136e4565b60006121aa837f0000000000000000000000000000000000000000000000000000000000000000612d70565b9050856121bd578095506001945061220f565b8581146122085760008681526002602090815260408083206001600160a01b038f1684528252808320805489019055978252600390529590952080549094019093556001928461220f565b8460010194505b505b50506001016120ed565b50811561225b5760008281526002602090815260408083206001600160a01b038b1684528252808320805485019055848352600390915290208054820190555b6001600160a01b038716600061226f611fbe565b6001600160a01b03167f4a39dc06d4c0dbc64b70af90fd698a233a518aa5d07e595d983b8c0526c8f7fb8989604051808060200180602001838103835285818151815260200191508051906020019060200280838360005b838110156122df5781810151838201526020016122c7565b50505050905001838103825284818151815260200191508051906020019060200280838360005b8381101561231e578181015183820152602001612306565b5050505090500194505050505060405180910390a4612345876001600160a01b03166131f0565b1561235857612358600088888888613827565b50505050505050565b6060600661236e836139a5565b60405160200180838054600181600116156101000203166002900480156123cc5780601f106123aa5761010080835404028352918201916123cc565b820191906000526020600020905b8154815290600101906020018083116123b8575b5050825160208401908083835b602083106123f85780518252601f1990920191602091820191016123d9565b6001836020036101000a038019825116818451168082178552505050505050905001925050506040516020818303038152906040529050919050565b6000816001600160a01b0316836001600160a01b03161480611f795750506001600160a01b03918216600090815260016020908152604080832093909416825291909152205460ff1690565b7f8000000000000000000000000000000000000000000000000000000000000000161590565b806124f8576040805162461bcd60e51b815260206004820152601560248201527f496e76656e746f72793a207a65726f2076616c75650000000000000000000000604482015290519081900360640190fd5b60008281526002602090815260408083206001600160a01b038716845290915290205481811015612570576040805162461bcd60e51b815260206004820152601d60248201527f496e76656e746f72793a206e6f7420656e6f7567682062616c616e6365000000604482015290519081900360640190fd5b60008381526002602090815260408083206001600160a01b03909716835295815285822092849003909255928352600390529190208054919091039055565b81600114612604576040805162461bcd60e51b815260206004820152601a60248201527f496e76656e746f72793a2077726f6e67204e46542076616c7565000000000000604482015290519081900360640190fd5b6000838152600460205260409020546001600160a01b03858116911614612672576040805162461bcd60e51b815260206004820152601860248201527f496e76656e746f72793a206e6f6e2d6f776e6564204e46540000000000000000604482015290519081900360640190fd5b60008381526004602052604090207fdead0000000000000000000000000000000000000000000000000000000000009055806110315760006126d4847f0000000000000000000000000000000000000000000000000000000000000000612d70565b60008181526002602090815260408083206001600160a01b038a1684528252808320805460001990810190915593835260039091529020805490910190555050505050565b6001600160a01b038416612774576040805162461bcd60e51b815260206004820152601b60248201527f496e76656e746f72793a207472616e7366657220746f207a65726f0000000000604482015290519081900360640190fd5b8251825181146127cb576040805162461bcd60e51b815260206004820152601e60248201527f496e76656e746f72793a20696e636f6e73697374656e74206172726179730000604482015290519081900360640190fd5b60006127d5611fbe565b90506127e18782612434565b612832576040805162461bcd60e51b815260206004820152601e60248201527f496e76656e746f72793a206e6f6e2d617070726f7665642073656e6465720000604482015290519081900360640190fd5b60008060005b84811461293c57600088828151811061284d57fe5b60200260200101519050600088838151811061286557fe5b6020026020010151905061287882612480565b1561288e576128898c8c8484612f83565b612932565b6128b8827f0000000000000000000000000000000000000000000000000000000000000000611f3d565b15611103576128cb8c8c848460016130a1565b60006128f7837f0000000000000000000000000000000000000000000000000000000000000000612d70565b90508561290a5780955060019450612930565b8581146129295761291d8d8d8888613ab4565b80955060019450612930565b8460010194505b505b5050600101612838565b50811561294f5761294f89898484613ab4565b876001600160a01b0316896001600160a01b0316846001600160a01b03167f4a39dc06d4c0dbc64b70af90fd698a233a518aa5d07e595d983b8c0526c8f7fb8a8a604051808060200180602001838103835285818151815260200191508051906020019060200280838360005b838110156129d45781810151838201526020016129bc565b50505050905001838103825284818151815260200191508051906020019060200280838360005b83811015612a135781810151838201526020016129fb565b5050505090500194505050505060405180910390a4612a3a886001600160a01b03166131f0565b15612a4c57612a4c8989898989613827565b505050505050505050565b6000612a83827f0000000000000000000000000000000000000000000000000000000000000000611f3d565b15612ad5576040805162461bcd60e51b815260206004820152601b60248201527f496e76656e746f72793a206e6f74206120636f6c6c656374696f6e0000000000604482015290519081900360640190fd5b506000908152600560205260409020546001600160a01b031690565b6001600160a01b038416612b4c576040805162461bcd60e51b815260206004820152601760248201527f496e76656e746f72793a206d696e7420746f207a65726f000000000000000000604482015290519081900360640190fd5b612b5583612480565b15612b6a57612b658484846135f2565b612ba6565b612b94837f0000000000000000000000000000000000000000000000000000000000000000611f3d565b1561110357612b6584848460006136e4565b6001600160a01b0384166000612bba611fbe565b6001600160a01b03167fc3d58168c5ae7397731d063d5bbf3d657854427343f4c083240f7aacaa2d0f628686604051808381526020018281526020019250505060405180910390a4612c14846001600160a01b03166131f0565b15611031576110316000858585856131f6565b306001600160a01b0316638da5cb5b6040518163ffffffff1660e01b815260040160206040518083038186803b158015612c6057600080fd5b505afa158015612c74573d6000803e3d6000fd5b505050506040513d6020811015612c8a57600080fd5b50516001600160a01b0382811691161461190c576040805162461bcd60e51b815260206004820152601660248201527f4f776e61626c653a206e6f7420746865206f776e657200000000000000000000604482015290519081900360640190fd5b604080516001600160a01b038416602482015260448082018490528251808303909101815260649091019091526020810180517bffffffffffffffffffffffffffffffffffffffffffffffffffffffff167fa9059cbb00000000000000000000000000000000000000000000000000000000179052612d6b908490613b08565b505050565b6000612d7b82613380565b198316905092915050565b6001600160a01b038116600081815260076020526040808220805460ff19166001179055517f6ae172837ea30b801fbfcdd4108aa1d5bf8ff775444fd70256b44e6bf3dfc3f69190a250565b6060612ddc613ceb565b8080601f01602080910402602001604051908101604052809392919081815260200183838082843760009201919091525092935050505090565b612e40817f0000000000000000000000000000000000000000000000000000000000000000611f3d565b15612e92576040805162461bcd60e51b815260206004820152601b60248201527f496e76656e746f72793a206e6f74206120636f6c6c656374696f6e0000000000604482015290519081900360640190fd5b6000818152600560205260409020546001600160a01b031615612efc576040805162461bcd60e51b815260206004820152601e60248201527f496e76656e746f72793a206578697374696e6720636f6c6c656374696f6e0000604482015290519081900360640190fd5b612f04611fbe565b600082815260056020526040902080547fffffffffffffffffffffffff0000000000000000000000000000000000000000166001600160a01b0392909216919091179055612f5181612480565b1515817f4ebf8ad0df535ba5e487bc9cb27fe44120ca81c3a95d3eba79c0bd1df2ab2d5d60405160405180910390a350565b80612fd5576040805162461bcd60e51b815260206004820152601560248201527f496e76656e746f72793a207a65726f2076616c75650000000000000000000000604482015290519081900360640190fd5b60008281526002602090815260408083206001600160a01b03881684529091529020548181101561304d576040805162461bcd60e51b815260206004820152601d60248201527f496e76656e746f72793a206e6f7420656e6f7567682062616c616e6365000000604482015290519081900360640190fd5b836001600160a01b0316856001600160a01b0316146111c15760009283526002602090815260408085206001600160a01b039788168652909152808420918390039091559290931681522080549091019055565b816001146130f6576040805162461bcd60e51b815260206004820152601a60248201527f496e76656e746f72793a2077726f6e67204e46542076616c7565000000000000604482015290519081900360640190fd5b6000838152600460205260409020546001600160a01b03868116911614613164576040805162461bcd60e51b815260206004820152601860248201527f496e76656e746f72793a206e6f6e2d6f776e6564204e46540000000000000000604482015290519081900360640190fd5b60008381526004602052604090206001600160a01b0385169055806111c15760006131af847f0000000000000000000000000000000000000000000000000000000000000000612d70565b60009081526002602090815260408083206001600160a01b03998a168452909152808220805460001901905595909616865250505091208054600101905550565b3b151590565b7ff23a6e61000000000000000000000000000000000000000000000000000000006001600160a01b03851663f23a6e6161322e611fbe565b888787876040518663ffffffff1660e01b815260040180866001600160a01b03168152602001856001600160a01b0316815260200184815260200183815260200180602001828103825283818151815260200191508051906020019080838360005b838110156132a8578181015183820152602001613290565b50505050905090810190601f1680156132d55780820380516001836020036101000a031916815260200191505b509650505050505050602060405180830381600087803b1580156132f857600080fd5b505af115801561330c573d6000803e3d6000fd5b505050506040513d602081101561332257600080fd5b50516001600160e01b031916146111c1576040805162461bcd60e51b815260206004820152601b60248201527f496e76656e746f72793a207472616e7366657220726566757365640000000000604482015290519081900360640190fd5b6001610100919091031b6000190190565b60006001600160e01b031982167f01ffc9a70000000000000000000000000000000000000000000000000000000014806133f457506001600160e01b031982167fd9b67a2600000000000000000000000000000000000000000000000000000000145b8061342857506001600160e01b031982167f0e89341c00000000000000000000000000000000000000000000000000000000145b8061345c57506001600160e01b031982167f09ce5c4600000000000000000000000000000000000000000000000000000000145b8061100d5750506001600160e01b0319167fbd85b039000000000000000000000000000000000000000000000000000000001490565b6000338161349e613e4e565b90507f00000000000000000000000000000000000000000000000000000000000000006001600160a01b0316826001600160a01b0316148061351157507f00000000000000000000000000000000000000000000000000000000000000006001600160a01b0316826001600160a01b0316145b1561351f5791506118f59050565b6001600160a01b03821632148015906135de57507f00000000000000000000000000000000000000000000000000000000000000006001600160a01b031663e60125d682846040518363ffffffff1660e01b815260040180836001600160a01b03168152602001826001600160a01b031681526020019250505060206040518083038186803b1580156135b157600080fd5b505afa1580156135c5573d6000803e3d6000fd5b505050506040513d60208110156135db57600080fd5b50515b156135ec5791506118f59050565b50905090565b80613644576040805162461bcd60e51b815260206004820152601560248201527f496e76656e746f72793a207a65726f2076616c75650000000000000000000000604482015290519081900360640190fd5b6000828152600360205260409020548181018181116136aa576040805162461bcd60e51b815260206004820152601a60248201527f496e76656e746f72793a20737570706c79206f766572666c6f77000000000000604482015290519081900360640190fd5b600093845260036020908152604080862092909255600281528185206001600160a01b039096168552949094525091902080549091019055565b81600114613739576040805162461bcd60e51b815260206004820152601a60248201527f496e76656e746f72793a2077726f6e67204e46542076616c7565000000000000604482015290519081900360640190fd5b6000838152600460205260409020541561379a576040805162461bcd60e51b815260206004820152601d60248201527f496e76656e746f72793a206578697374696e672f6275726e74204e4654000000604482015290519081900360640190fd5b60008381526004602052604090206001600160a01b0385169055806110315760006137e5847f0000000000000000000000000000000000000000000000000000000000000000612d70565b600090815260036020908152604080832080546001908101909155600283528184206001600160a01b038a168552909252909120805490910190555050505050565b7fbc197c81000000000000000000000000000000000000000000000000000000006001600160a01b03851663bc197c8161385f611fbe565b888787876040518663ffffffff1660e01b815260040180866001600160a01b03168152602001856001600160a01b03168152602001806020018060200180602001848103845287818151815260200191508051906020019060200280838360005b838110156138d85781810151838201526020016138c0565b50505050905001848103835286818151815260200191508051906020019060200280838360005b838110156139175781810151838201526020016138ff565b50505050905001848103825285818151815260200191508051906020019080838360005b8381101561395357818101518382015260200161393b565b50505050905090810190601f1680156139805780820380516001836020036101000a031916815260200191505b5098505050505050505050602060405180830381600087803b1580156132f857600080fd5b6060816139e6575060408051808201909152600181527f30000000000000000000000000000000000000000000000000000000000000006020820152611010565b8160005b81156139fe57600101600a820491506139ea565b60008167ffffffffffffffff81118015613a1757600080fd5b506040519080825280601f01601f191660200182016040528015613a42576020820181803683370190505b50859350905060001982015b8315613aab57600a840660300160f81b82828060019003935081518110613a7157fe5b60200101907effffffffffffffffffffffffffffffffffffffffffffffffffffffffffffff1916908160001a905350600a84049350613a4e565b50949350505050565b826001600160a01b0316846001600160a01b0316146110315760009182526002602090815260408084206001600160a01b039687168552909152808320805483900390559290931681522080549091019055565b81613b1b6001600160a01b0382166131f0565b613b6c576040805162461bcd60e51b815260206004820152601a60248201527f4552433230577261707065723a206e6f6e2d636f6e7472616374000000000000604482015290519081900360640190fd5b600080826001600160a01b0316846040518082805190602001908083835b60208310613ba95780518252601f199092019160209182019101613b8a565b6001836020036101000a0380198251168184511680821785525050505050509050019150506000604051808303816000865af19150503d8060008114613c0b576040519150601f19603f3d011682016040523d82523d6000602084013e613c10565b606091505b50915091508115613c8f57805115613c8a57808060200190516020811015613c3757600080fd5b5051613c8a576040805162461bcd60e51b815260206004820152601e60248201527f4552433230577261707065723a206f7065726174696f6e206661696c65640000604482015290519081900360640190fd5b6111c1565b8051613ce2576040805162461bcd60e51b815260206004820152601e60248201527f4552433230577261707065723a206f7065726174696f6e206661696c65640000604482015290519081900360640190fd5b80518082602001fd5b366000336001600160a01b037f000000000000000000000000000000000000000000000000000000000000000016811480613d5757507f00000000000000000000000000000000000000000000000000000000000000006001600160a01b0316816001600160a01b0316145b15613d6e57613d64613e5a565b9250925050613e4a565b6001600160a01b0381163214801590613e3457507f00000000000000000000000000000000000000000000000000000000000000006001600160a01b031663e60125d6613db9613e4e565b836040518363ffffffff1660e01b815260040180836001600160a01b03168152602001826001600160a01b031681526020019250505060206040518083038186803b158015613e0757600080fd5b505afa158015613e1b573d6000803e3d6000fd5b505050506040513d6020811015613e3157600080fd5b50515b15613e4157613d64613e5a565b60003692509250505b9091565b60131936013560601c90565b366000613e6d6013198301828481613f16565b915091509091565b828054600181600116156101000203166002900490600052602060002090601f016020900481019282613eab5760008555613ef1565b82601f10613ec45782800160ff19823516178555613ef1565b82800160010185558215613ef1579182015b82811115613ef1578235825591602001919060010190613ed6565b50613efd929150613f01565b5090565b5b80821115613efd5760008155600101613f02565b60008085851115613f25578182fd5b83861115613f31578182fd5b505082019391909203915056fea26469706673582212200d62eb00efca1a6bcd2c3b7b7bc744304f6c00c493642300e0710e4f3be8424c64736f6c63430007060033",
  "linkReferences": {},
  "deployedLinkReferences": {}
}