{
  "_format": "hh-sol-artifact-1",
  "contractName": "ERC1155InventoryBurnableMock",
  "sourceName": "contracts/mocks/token/ERC1155/ERC1155InventoryBurnableMock.sol",
  "abi": [
    {
      "inputs": [
        {
          "internalType": "contract IForwarderRegistry",
          "name": "forwarderRegistry",
          "type": "address"
        },
        {
          "internalType": "address",
          "name": "universalForwarder",
          "type": "address"
        }
      ],
      "stateMutability": "nonpayable",
      "type": "constructor"
    },
    {
      "anonymous": false,
      "inputs": [
        {
          "indexed": true,
          "internalType": "address",
          "name": "_owner",
          "type": "address"
        },
        {
          "indexed": true,
          "internalType": "address",
          "name": "_operator",
          "type": "address"
        },
        {
          "indexed": false,
          "internalType": "bool",
          "name": "_approved",
          "type": "bool"
        }
      ],
      "name": "ApprovalForAll",
      "type": "event"
    },
    {
      "anonymous": false,
      "inputs": [
        {
          "indexed": false,
          "internalType": "string",
          "name": "baseMetadataURI",
          "type": "string"
        }
      ],
      "name": "BaseMetadataURISet",
      "type": "event"
    },
    {
      "anonymous": false,
      "inputs": [
        {
          "indexed": true,
          "internalType": "uint256",
          "name": "collectionId",
          "type": "uint256"
        },
        {
          "indexed": true,
          "internalType": "bool",
          "name": "fungible",
          "type": "bool"
        }
      ],
      "name": "CollectionCreated",
      "type": "event"
    },
    {
      "anonymous": false,
      "inputs": [
        {
          "indexed": true,
          "internalType": "address",
          "name": "account",
          "type": "address"
        }
      ],
      "name": "MinterAdded",
      "type": "event"
    },
    {
      "anonymous": false,
      "inputs": [
        {
          "indexed": true,
          "internalType": "address",
          "name": "account",
          "type": "address"
        }
      ],
      "name": "MinterRemoved",
      "type": "event"
    },
    {
      "anonymous": false,
      "inputs": [
        {
          "indexed": true,
          "internalType": "address",
          "name": "previousOwner",
          "type": "address"
        },
        {
          "indexed": true,
          "internalType": "address",
          "name": "newOwner",
          "type": "address"
        }
      ],
      "name": "OwnershipTransferred",
      "type": "event"
    },
    {
      "anonymous": false,
      "inputs": [
        {
          "indexed": true,
          "internalType": "address",
          "name": "_operator",
          "type": "address"
        },
        {
          "indexed": true,
          "internalType": "address",
          "name": "_from",
          "type": "address"
        },
        {
          "indexed": true,
          "internalType": "address",
          "name": "_to",
          "type": "address"
        },
        {
          "indexed": false,
          "internalType": "uint256[]",
          "name": "_ids",
          "type": "uint256[]"
        },
        {
          "indexed": false,
          "internalType": "uint256[]",
          "name": "_values",
          "type": "uint256[]"
        }
      ],
      "name": "TransferBatch",
      "type": "event"
    },
    {
      "anonymous": false,
      "inputs": [
        {
          "indexed": true,
          "internalType": "address",
          "name": "_operator",
          "type": "address"
        },
        {
          "indexed": true,
          "internalType": "address",
          "name": "_from",
          "type": "address"
        },
        {
          "indexed": true,
          "internalType": "address",
          "name": "_to",
          "type": "address"
        },
        {
          "indexed": false,
          "internalType": "uint256",
          "name": "_id",
          "type": "uint256"
        },
        {
          "indexed": false,
          "internalType": "uint256",
          "name": "_value",
          "type": "uint256"
        }
      ],
      "name": "TransferSingle",
      "type": "event"
    },
    {
      "anonymous": false,
      "inputs": [
        {
          "indexed": false,
          "internalType": "string",
          "name": "_value",
          "type": "string"
        },
        {
          "indexed": true,
          "internalType": "uint256",
          "name": "_id",
          "type": "uint256"
        }
      ],
      "name": "URI",
      "type": "event"
    },
    {
      "inputs": [
        {
          "internalType": "address",
          "name": "account",
          "type": "address"
        }
      ],
      "name": "addMinter",
      "outputs": [],
      "stateMutability": "nonpayable",
      "type": "function"
    },
    {
      "inputs": [
        {
          "internalType": "address",
          "name": "owner",
          "type": "address"
        },
        {
          "internalType": "uint256",
          "name": "id",
          "type": "uint256"
        }
      ],
      "name": "balanceOf",
      "outputs": [
        {
          "internalType": "uint256",
          "name": "",
          "type": "uint256"
        }
      ],
      "stateMutability": "view",
      "type": "function"
    },
    {
      "inputs": [
        {
          "internalType": "address[]",
          "name": "owners",
          "type": "address[]"
        },
        {
          "internalType": "uint256[]",
          "name": "ids",
          "type": "uint256[]"
        }
      ],
      "name": "balanceOfBatch",
      "outputs": [
        {
          "internalType": "uint256[]",
          "name": "",
          "type": "uint256[]"
        }
      ],
      "stateMutability": "view",
      "type": "function"
    },
    {
      "inputs": [],
      "name": "baseMetadataURI",
      "outputs": [
        {
          "internalType": "string",
          "name": "",
          "type": "string"
        }
      ],
      "stateMutability": "view",
      "type": "function"
    },
    {
      "inputs": [
        {
          "internalType": "address",
          "name": "from",
          "type": "address"
        },
        {
          "internalType": "uint256[]",
          "name": "ids",
          "type": "uint256[]"
        },
        {
          "internalType": "uint256[]",
          "name": "values",
          "type": "uint256[]"
        }
      ],
      "name": "batchBurnFrom",
      "outputs": [],
      "stateMutability": "nonpayable",
      "type": "function"
    },
    {
      "inputs": [
        {
          "internalType": "address",
          "name": "from",
          "type": "address"
        },
        {
          "internalType": "uint256",
          "name": "id",
          "type": "uint256"
        },
        {
          "internalType": "uint256",
          "name": "value",
          "type": "uint256"
        }
      ],
      "name": "burnFrom",
      "outputs": [],
      "stateMutability": "nonpayable",
      "type": "function"
    },
    {
      "inputs": [
        {
          "internalType": "uint256",
          "name": "nftId",
          "type": "uint256"
        }
      ],
      "name": "collectionOf",
      "outputs": [
        {
          "internalType": "uint256",
          "name": "",
          "type": "uint256"
        }
      ],
      "stateMutability": "pure",
      "type": "function"
    },
    {
      "inputs": [
        {
          "internalType": "uint256",
          "name": "collectionId",
          "type": "uint256"
        }
      ],
      "name": "createCollection",
      "outputs": [],
      "stateMutability": "nonpayable",
      "type": "function"
    },
    {
      "inputs": [
        {
          "internalType": "uint256",
          "name": "collectionId",
          "type": "uint256"
        }
      ],
      "name": "creator",
      "outputs": [
        {
          "internalType": "address",
          "name": "",
          "type": "address"
        }
      ],
      "stateMutability": "view",
      "type": "function"
    },
    {
      "inputs": [
        {
          "internalType": "address",
          "name": "tokenOwner",
          "type": "address"
        },
        {
          "internalType": "address",
          "name": "operator",
          "type": "address"
        }
      ],
      "name": "isApprovedForAll",
      "outputs": [
        {
          "internalType": "bool",
          "name": "",
          "type": "bool"
        }
      ],
      "stateMutability": "view",
      "type": "function"
    },
    {
      "inputs": [
        {
          "internalType": "uint256",
          "name": "id",
          "type": "uint256"
        }
      ],
      "name": "isFungible",
      "outputs": [
        {
          "internalType": "bool",
          "name": "",
          "type": "bool"
        }
      ],
      "stateMutability": "pure",
      "type": "function"
    },
    {
      "inputs": [
        {
          "internalType": "address",
          "name": "",
          "type": "address"
        }
      ],
      "name": "isMinter",
      "outputs": [
        {
          "internalType": "bool",
          "name": "",
          "type": "bool"
        }
      ],
      "stateMutability": "view",
      "type": "function"
    },
    {
      "inputs": [
        {
          "internalType": "address",
          "name": "forwarder",
          "type": "address"
        }
      ],
      "name": "isTrustedForwarder",
      "outputs": [
        {
          "internalType": "bool",
          "name": "",
          "type": "bool"
        }
      ],
      "stateMutability": "view",
      "type": "function"
    },
    {
      "inputs": [],
      "name": "msgData",
      "outputs": [
        {
          "internalType": "bytes",
          "name": "ret",
          "type": "bytes"
        }
      ],
      "stateMutability": "view",
      "type": "function"
    },
    {
      "inputs": [],
      "name": "owner",
      "outputs": [
        {
          "internalType": "address",
          "name": "",
          "type": "address"
        }
      ],
      "stateMutability": "view",
      "type": "function"
    },
    {
      "inputs": [
        {
          "internalType": "uint256",
          "name": "nftId",
          "type": "uint256"
        }
      ],
      "name": "ownerOf",
      "outputs": [
        {
          "internalType": "address",
          "name": "",
          "type": "address"
        }
      ],
      "stateMutability": "view",
      "type": "function"
    },
    {
      "inputs": [
        {
          "internalType": "address[]",
          "name": "accounts",
          "type": "address[]"
        },
        {
          "internalType": "address[]",
          "name": "tokens",
          "type": "address[]"
        },
        {
          "internalType": "uint256[]",
          "name": "amounts",
          "type": "uint256[]"
        }
      ],
      "name": "recoverERC20s",
      "outputs": [],
      "stateMutability": "nonpayable",
      "type": "function"
    },
    {
      "inputs": [
        {
          "internalType": "address[]",
          "name": "accounts",
          "type": "address[]"
        },
        {
          "internalType": "address[]",
          "name": "contracts",
          "type": "address[]"
        },
        {
          "internalType": "uint256[]",
          "name": "tokenIds",
          "type": "uint256[]"
        }
      ],
      "name": "recoverERC721s",
      "outputs": [],
      "stateMutability": "nonpayable",
      "type": "function"
    },
    {
      "inputs": [],
      "name": "renounceMinter",
      "outputs": [],
      "stateMutability": "nonpayable",
      "type": "function"
    },
    {
      "inputs": [
        {
          "internalType": "address",
          "name": "to",
          "type": "address"
        },
        {
          "internalType": "uint256[]",
          "name": "ids",
          "type": "uint256[]"
        },
        {
          "internalType": "uint256[]",
          "name": "values",
          "type": "uint256[]"
        },
        {
          "internalType": "bytes",
          "name": "data",
          "type": "bytes"
        }
      ],
      "name": "safeBatchMint",
      "outputs": [],
      "stateMutability": "nonpayable",
      "type": "function"
    },
    {
      "inputs": [
        {
          "internalType": "address",
          "name": "from",
          "type": "address"
        },
        {
          "internalType": "address",
          "name": "to",
          "type": "address"
        },
        {
          "internalType": "uint256[]",
          "name": "ids",
          "type": "uint256[]"
        },
        {
          "internalType": "uint256[]",
          "name": "values",
          "type": "uint256[]"
        },
        {
          "internalType": "bytes",
          "name": "data",
          "type": "bytes"
        }
      ],
      "name": "safeBatchTransferFrom",
      "outputs": [],
      "stateMutability": "nonpayable",
      "type": "function"
    },
    {
      "inputs": [
        {
          "internalType": "address",
          "name": "to",
          "type": "address"
        },
        {
          "internalType": "uint256",
          "name": "id",
          "type": "uint256"
        },
        {
          "internalType": "uint256",
          "name": "value",
          "type": "uint256"
        },
        {
          "internalType": "bytes",
          "name": "data",
          "type": "bytes"
        }
      ],
      "name": "safeMint",
      "outputs": [],
      "stateMutability": "nonpayable",
      "type": "function"
    },
    {
      "inputs": [
        {
          "internalType": "address",
          "name": "from",
          "type": "address"
        },
        {
          "internalType": "address",
          "name": "to",
          "type": "address"
        },
        {
          "internalType": "uint256",
          "name": "id",
          "type": "uint256"
        },
        {
          "internalType": "uint256",
          "name": "value",
          "type": "uint256"
        },
        {
          "internalType": "bytes",
          "name": "data",
          "type": "bytes"
        }
      ],
      "name": "safeTransferFrom",
      "outputs": [],
      "stateMutability": "nonpayable",
      "type": "function"
    },
    {
      "inputs": [
        {
          "internalType": "address",
          "name": "operator",
          "type": "address"
        },
        {
          "internalType": "bool",
          "name": "approved",
          "type": "bool"
        }
      ],
      "name": "setApprovalForAll",
      "outputs": [],
      "stateMutability": "nonpayable",
      "type": "function"
    },
    {
      "inputs": [
        {
          "internalType": "string",
          "name": "baseMetadataURI_",
          "type": "string"
        }
      ],
      "name": "setBaseMetadataURI",
      "outputs": [],
      "stateMutability": "nonpayable",
      "type": "function"
    },
    {
      "inputs": [
        {
          "internalType": "bytes4",
          "name": "interfaceId",
          "type": "bytes4"
        }
      ],
      "name": "supportsInterface",
      "outputs": [
        {
          "internalType": "bool",
          "name": "",
          "type": "bool"
        }
      ],
      "stateMutability": "view",
      "type": "function"
    },
    {
      "inputs": [
        {
          "internalType": "uint256",
          "name": "id",
          "type": "uint256"
        }
      ],
      "name": "totalSupply",
      "outputs": [
        {
          "internalType": "uint256",
          "name": "",
          "type": "uint256"
        }
      ],
      "stateMutability": "view",
      "type": "function"
    },
    {
      "inputs": [
        {
          "internalType": "address",
          "name": "newOwner",
          "type": "address"
        }
      ],
      "name": "transferOwnership",
      "outputs": [],
      "stateMutability": "nonpayable",
      "type": "function"
    },
    {
      "inputs": [
        {
          "internalType": "uint256",
          "name": "id",
          "type": "uint256"
        }
      ],
      "name": "uri",
      "outputs": [
        {
          "internalType": "string",
          "name": "",
          "type": "string"
        }
      ],
      "stateMutability": "view",
      "type": "function"
    }
  ],
  "bytecode": "0x60c06040523480156200001157600080fd5b5060405162003e6338038062003e63833981810160405260408110156200003757600080fd5b508051602090910151600080546001600160a01b03191633908117825560405190918491849184918291907f8be0079c531659141344cd1fd0a4f28419497f9722a3daafe3b4186f6b6457e0908290a3506001600160601b0319606091821b811660a05291901b16608052620000ad81620000b6565b50505062000102565b6001600160a01b038116600081815260076020526040808220805460ff19166001179055517f6ae172837ea30b801fbfcdd4108aa1d5bf8ff775444fd70256b44e6bf3dfc3f69190a250565b60805160601c60a05160601c613d196200014a6000398061129b52806132a35280613ac85250806112d6528061326852806132fb5280613a9e5280613b295250613d196000f3fe608060405234801561001057600080fd5b50600436106101ce5760003560e01c80638053493411610104578063bd85b039116100a2578063d0011d9d11610071578063d0011d9d14610da7578063e985e9c514610dc4578063f242432a14610df2578063f2fde38b14610ebd576101ce565b8063bd85b03914610c51578063c3666c3614610c6e578063c4c2bfdc14610d82578063c7778baa14610d8a576101ce565b806398650275116100de5780639865027514610bd8578063a22cb46514610be0578063aa271e1a14610c0e578063adebf6f214610c34576101ce565b80638053493414610a735780638da5cb5b14610baa578063983b2d5614610bb2576101ce565b8063510b5158116101715780635cfa92971161014b5780635cfa9297146108105780636352211e146108d257806373c8a958146108ef5780637e518ec814610a03576101ce565b8063510b5158146107a9578063572b6c05146107e25780635b2bd79e14610808576101ce565b80630e89341c116101ad5780630e89341c1461040c578063124d91e51461049e5780632eb2c2d6146104d05780634e1273f414610697576101ce565b8062fdd58e146101d357806301ffc9a7146102115780630d6a5bbb1461024c575b600080fd5b6101ff600480360360408110156101e957600080fd5b506001600160a01b038135169060200135610ee3565b60408051918252519081900360200190f35b6102386004803603602081101561022757600080fd5b50356001600160e01b031916610fae565b604080519115158252519081900360200190f35b61040a6004803603608081101561026257600080fd5b6001600160a01b03823516919081019060408101602082013564010000000081111561028d57600080fd5b82018360208201111561029f57600080fd5b803590602001918460208302840111640100000000831117156102c157600080fd5b919080806020026020016040519081016040528093929190818152602001838360200280828437600092019190915250929594936020810193503591505064010000000081111561031157600080fd5b82018360208201111561032357600080fd5b8035906020019184602083028401116401000000008311171561034557600080fd5b919080806020026020016040519081016040528093929190818152602001838360200280828437600092019190915250929594936020810193503591505064010000000081111561039557600080fd5b8201836020820111156103a757600080fd5b803590602001918460018302840111640100000000831117156103c957600080fd5b91908080601f016020809104026020016040519081016040528093929190818152602001838380828437600092019190915250929550610ff4945050505050565b005b6104296004803603602081101561042257600080fd5b5035611016565b6040805160208082528351818301528351919283929083019185019080838360005b8381101561046357818101518382015260200161044b565b50505050905090810190601f1680156104905780820380516001836020036101000a031916815260200191505b509250505060405180910390f35b61040a600480360360608110156104b457600080fd5b506001600160a01b038135169060208101359060400135611021565b61040a600480360360a08110156104e657600080fd5b6001600160a01b03823581169260208101359091169181019060608101604082013564010000000081111561051a57600080fd5b82018360208201111561052c57600080fd5b8035906020019184602083028401116401000000008311171561054e57600080fd5b919080806020026020016040519081016040528093929190818152602001838360200280828437600092019190915250929594936020810193503591505064010000000081111561059e57600080fd5b8201836020820111156105b057600080fd5b803590602001918460208302840111640100000000831117156105d257600080fd5b919080806020026020016040519081016040528093929190818152602001838360200280828437600092019190915250929594936020810193503591505064010000000081111561062257600080fd5b82018360208201111561063457600080fd5b8035906020019184600183028401116401000000008311171561065657600080fd5b91908080601f016020809104026020016040519081016040528093929190818152602001838380828437600092019190915250929550611172945050505050565b610759600480360360408110156106ad57600080fd5b8101906020810181356401000000008111156106c857600080fd5b8201836020820111156106da57600080fd5b803590602001918460208302840111640100000000831117156106fc57600080fd5b91939092909160208101903564010000000081111561071a57600080fd5b82018360208201111561072c57600080fd5b8035906020019184602083028401116401000000008311171561074e57600080fd5b509092509050611186565b60408051602080825283518183015283519192839290830191858101910280838360005b8381101561079557818101518382015260200161077d565b505050509050019250505060405180910390f35b6107c6600480360360208110156107bf57600080fd5b503561128c565b604080516001600160a01b039092168252519081900360200190f35b610238600480360360208110156107f857600080fd5b50356001600160a01b0316611297565b610429611310565b61040a6004803603608081101561082657600080fd5b6001600160a01b03823516916020810135916040820135919081019060808101606082013564010000000081111561085d57600080fd5b82018360208201111561086f57600080fd5b8035906020019184600183028401116401000000008311171561089157600080fd5b91908080601f01602080910402602001604051908101604052809392919081815260200183838082843760009201919091525092955061139e945050505050565b6107c6600480360360208110156108e857600080fd5b50356113b5565b61040a6004803603606081101561090557600080fd5b81019060208101813564010000000081111561092057600080fd5b82018360208201111561093257600080fd5b8035906020019184602083028401116401000000008311171561095457600080fd5b91939092909160208101903564010000000081111561097257600080fd5b82018360208201111561098457600080fd5b803590602001918460208302840111640100000000831117156109a657600080fd5b9193909290916020810190356401000000008111156109c457600080fd5b8201836020820111156109d657600080fd5b803590602001918460208302840111640100000000831117156109f857600080fd5b50909250905061141f565b61040a60048036036020811015610a1957600080fd5b810190602081018135640100000000811115610a3457600080fd5b820183602082011115610a4657600080fd5b80359060200191846001830284011164010000000083111715610a6857600080fd5b509092509050611511565b61040a60048036036060811015610a8957600080fd5b6001600160a01b038235169190810190604081016020820135640100000000811115610ab457600080fd5b820183602082011115610ac657600080fd5b80359060200191846020830284011164010000000083111715610ae857600080fd5b9190808060200260200160405190810160405280939291908181526020018383602002808284376000920191909152509295949360208101935035915050640100000000811115610b3857600080fd5b820183602082011115610b4a57600080fd5b80359060200191846020830284011164010000000083111715610b6c57600080fd5b91908080602002602001604051908101604052809392919081815260200183836020028082843760009201919091525092955061158d945050505050565b6107c6611864565b61040a60048036036020811015610bc857600080fd5b50356001600160a01b0316611874565b61040a61188b565b61040a60048036036040811015610bf657600080fd5b506001600160a01b03813516906020013515156118e9565b61023860048036036020811015610c2457600080fd5b50356001600160a01b03166119ca565b61023860048036036020811015610c4a57600080fd5b50356119df565b6101ff60048036036020811015610c6757600080fd5b50356119ea565b61040a60048036036060811015610c8457600080fd5b810190602081018135640100000000811115610c9f57600080fd5b820183602082011115610cb157600080fd5b80359060200191846020830284011164010000000083111715610cd357600080fd5b919390929091602081019035640100000000811115610cf157600080fd5b820183602082011115610d0357600080fd5b80359060200191846020830284011164010000000083111715610d2557600080fd5b919390929091602081019035640100000000811115610d4357600080fd5b820183602082011115610d5557600080fd5b80359060200191846020830284011164010000000083111715610d7757600080fd5b509092509050611a40565b610429611b88565b6101ff60048036036020811015610da057600080fd5b5035611b97565b61040a60048036036020811015610dbd57600080fd5b5035611bfc565b61023860048036036040811015610dda57600080fd5b506001600160a01b0381358116916020013516611c10565b61040a600480360360a0811015610e0857600080fd5b6001600160a01b03823581169260208101359091169160408201359160608101359181019060a081016080820135640100000000811115610e4857600080fd5b820183602082011115610e5a57600080fd5b80359060200191846001830284011164010000000083111715610e7c57600080fd5b91908080601f016020809104026020016040519081016040528093929190818152602001838380828437600092019190915250929550611c3e945050505050565b61040a60048036036020811015610ed357600080fd5b50356001600160a01b0316611dc4565b60006001600160a01b038316610f40576040805162461bcd60e51b815260206004820152601760248201527f496e76656e746f72793a207a65726f2061646472657373000000000000000000604482015290519081900360640190fd5b610f4982611e35565b15610f83576000828152600460205260409020546001600160a01b03848116911614610f76576000610f79565b60015b60ff169050610fa8565b5060008181526002602090815260408083206001600160a01b03861684529091529020545b92915050565b60006001600160e01b031982167f510b5158000000000000000000000000000000000000000000000000000000001480610fec5750610fec82611e87565b90505b919050565b611004610fff611ec5565b611ecf565b61101084848484611f3c565b50505050565b6060610fec82612226565b600061102b611ec5565b905061103784826122f9565b611088576040805162461bcd60e51b815260206004820152601e60248201527f496e76656e746f72793a206e6f6e2d617070726f7665642073656e6465720000604482015290519081900360640190fd5b61109183612347565b156110a6576110a184848461236d565b61110e565b6110af83611e35565b156110c1576110a18484846000612476565b6040805162461bcd60e51b815260206004820152601960248201527f496e76656e746f72793a206e6f74206120746f6b656e20696400000000000000604482015290519081900360640190fd5b60006001600160a01b0316846001600160a01b0316826001600160a01b03167fc3d58168c5ae7397731d063d5bbf3d657854427343f4c083240f7aacaa2d0f628686604051808381526020018281526020019250505060405180910390a450505050565b61117f85858585856125bf565b5050505050565b60608382146111dc576040805162461bcd60e51b815260206004820152601e60248201527f496e76656e746f72793a20696e636f6e73697374656e74206172726179730000604482015290519081900360640190fd5b60008467ffffffffffffffff811180156111f557600080fd5b5060405190808252806020026020018201604052801561121f578160200160208202803683370190505b50905060005b8086146112825761126387878381811061123b57fe5b905060200201356001600160a01b031686868481811061125757fe5b90506020020135610ee3565b82828151811061126f57fe5b6020908102919091010152600101611225565b5095945050505050565b6000610fec826128bb565b60007f00000000000000000000000000000000000000000000000000000000000000006001600160a01b0316826001600160a01b03161480610fec57507f00000000000000000000000000000000000000000000000000000000000000006001600160a01b0316826001600160a01b0316149050919050565b6006805460408051602060026001851615610100026000190190941693909304601f810184900484028201840190925281815292918301828280156113965780601f1061136b57610100808354040283529160200191611396565b820191906000526020600020905b81548152906001019060200180831161137957829003601f168201915b505050505081565b6113a9610fff611ec5565b61101084848484612934565b6000818152600460205260408120546001600160a01b038116610fec576040805162461bcd60e51b815260206004820152601b60248201527f496e76656e746f72793a206e6f6e2d6578697374696e67204e46540000000000604482015290519081900360640190fd5b61142f61142a611ec5565b612a49565b84838114801561143e57508082145b61148f576040805162461bcd60e51b815260206004820152601a60248201527f5265636f763a20696e636f6e73697374656e7420617272617973000000000000604482015290519081900360640190fd5b60005b818114611507576114ff8888838181106114a857fe5b905060200201356001600160a01b03168585848181106114c457fe5b905060200201358888858181106114d757fe5b905060200201356001600160a01b03166001600160a01b0316612b0d9092919063ffffffff16565b600101611492565b5050505050505050565b61151c61142a611ec5565b61152860068383613c1a565b507f04b1dc5c136a3ce9fded8db0ce3d3366c58764ec3a8e4c2b9e52e4ddfe5ebbf7828260405180806020018281038252848482818152602001925080828437600083820152604051601f909101601f19169092018290039550909350505050a15050565b8151815181146115e4576040805162461bcd60e51b815260206004820152601e60248201527f496e76656e746f72793a20696e636f6e73697374656e74206172726179730000604482015290519081900360640190fd5b60006115ee611ec5565b90506115fa85826122f9565b61164b576040805162461bcd60e51b815260206004820152601e60248201527f496e76656e746f72793a206e6f6e2d617070726f7665642073656e6465720000604482015290519081900360640190fd5b60008060005b84811461173f57600087828151811061166657fe5b60200260200101519050600087838151811061167e57fe5b6020026020010151905061169182612347565b156116a6576116a18a838361236d565b611735565b6116af82611e35565b156110c1576116c18a83836001612476565b60006116cc83612b92565b9050856116df5780955060019450611733565b85811461172c5760008681526002602090815260408083206001600160a01b038f168452825280832080548990039055978252600390529590952080549490940390935560019284611733565b8460010194505b505b5050600101611651565b5081156117815760008281526002602090815260408083206001600160a01b038b16845282528083208054859003905584835260039091529020805482900390555b60006001600160a01b0316876001600160a01b0316846001600160a01b03167f4a39dc06d4c0dbc64b70af90fd698a233a518aa5d07e595d983b8c0526c8f7fb8989604051808060200180602001838103835285818151815260200191508051906020019060200280838360005b838110156118075781810151838201526020016117ef565b50505050905001838103825284818151815260200191508051906020019060200280838360005b8381101561184657818101518382015260200161182e565b5050505090500194505050505060405180910390a450505050505050565b6000546001600160a01b03165b90565b61187f61142a611ec5565b61188881612b9f565b50565b6000611895611ec5565b90506118a081611ecf565b6001600160a01b038116600081815260076020526040808220805460ff19169055517fe94479a9f7e1952cc78f2d6baab678adc1b772d936c6583def489e524cb666929190a250565b60006118f3611ec5565b9050806001600160a01b0316836001600160a01b0316141561195c576040805162461bcd60e51b815260206004820152601860248201527f496e76656e746f72793a2073656c662d617070726f76616c0000000000000000604482015290519081900360640190fd5b6001600160a01b03818116600081815260016020908152604080832094881680845294825291829020805460ff1916871515908117909155825190815291517f17307eab39ab6107e8899845ad3d59bd9653f200f220920489ca2b5937696c319281900390910190a3505050565b60076020526000908152604090205460ff1681565b6000610fec82612347565b60006119f582611e35565b15611a2b576000828152600460205260409020546001600160a01b031615611a1e576001611a21565b60005b60ff169050610fef565b50600081815260036020526040902054610fef565b611a4b61142a611ec5565b848381148015611a5a57508082145b611aab576040805162461bcd60e51b815260206004820152601a60248201527f5265636f763a20696e636f6e73697374656e7420617272617973000000000000604482015290519081900360640190fd5b60005b81811461150757858582818110611ac157fe5b905060200201356001600160a01b03166001600160a01b03166323b872dd308a8a85818110611aec57fe5b905060200201356001600160a01b0316878786818110611b0857fe5b905060200201356040518463ffffffff1660e01b815260040180846001600160a01b03168152602001836001600160a01b031681526020018281526020019350505050600060405180830381600087803b158015611b6557600080fd5b505af1158015611b79573d6000803e3d6000fd5b50505050806001019050611aae565b6060611b92612beb565b905090565b6000611ba282611e35565b611bf3576040805162461bcd60e51b815260206004820152601560248201527f496e76656e746f72793a206e6f7420616e204e46540000000000000000000000604482015290519081900360640190fd5b610fec82612b92565b611c0761142a611ec5565b61188881612c2f565b6001600160a01b03918216600090815260016020908152604080832093909416825291909152205460ff1690565b6000611c48611ec5565b90506001600160a01b038516611ca5576040805162461bcd60e51b815260206004820152601b60248201527f496e76656e746f72793a207472616e7366657220746f207a65726f0000000000604482015290519081900360640190fd5b611caf86826122f9565b611d00576040805162461bcd60e51b815260206004820152601e60248201527f496e76656e746f72793a206e6f6e2d617070726f7665642073656e6465720000604482015290519081900360640190fd5b611d0984612347565b15611d1f57611d1a86868686612d7b565b611d3b565b611d2884611e35565b156110c157611d1a868686866000612e99565b846001600160a01b0316866001600160a01b0316826001600160a01b03167fc3d58168c5ae7397731d063d5bbf3d657854427343f4c083240f7aacaa2d0f628787604051808381526020018281526020019250505060405180910390a4611daa856001600160a01b0316612fc7565b15611dbc57611dbc8686868686612fcd565b505050505050565b611dcf61142a611ec5565b600080547fffffffffffffffffffffffff0000000000000000000000000000000000000000166001600160a01b0383811691821780845560405192939116917f8be0079c531659141344cd1fd0a4f28419497f9722a3daafe3b4186f6b6457e09190a350565b60007f8000000000000000000000000000000000000000000000000000000000000000821615801590610fec5750507bffffffffffffffffffffffffffffffffffffffffffffffffffffffff16151590565b60006001600160e01b031982167f921ed8d1000000000000000000000000000000000000000000000000000000001480610fec5750610fec82613157565b6000611b92613258565b6001600160a01b03811660009081526007602052604090205460ff16611888576040805162461bcd60e51b815260206004820152601860248201527f4d696e746572526f6c653a206e6f742061204d696e7465720000000000000000604482015290519081900360640190fd5b6001600160a01b038416611f97576040805162461bcd60e51b815260206004820152601760248201527f496e76656e746f72793a206d696e7420746f207a65726f000000000000000000604482015290519081900360640190fd5b825182518114611fee576040805162461bcd60e51b815260206004820152601e60248201527f496e76656e746f72793a20696e636f6e73697374656e74206172726179730000604482015290519081900360640190fd5b60008060005b8381146120e057600087828151811061200957fe5b60200260200101519050600087838151811061202157fe5b6020026020010151905061203482612347565b15612049576120448a83836133b8565b6120d6565b61205282611e35565b156110c1576120648a838360016134aa565b600061206f83612b92565b90508561208257809550600194506120d4565b8581146120cd5760008681526002602090815260408083206001600160a01b038f168452825280832080548901905597825260039052959095208054909401909355600192846120d4565b8460010194505b505b5050600101611ff4565b5081156121205760008281526002602090815260408083206001600160a01b038b1684528252808320805485019055848352600390915290208054820190555b6001600160a01b0387166000612134611ec5565b6001600160a01b03167f4a39dc06d4c0dbc64b70af90fd698a233a518aa5d07e595d983b8c0526c8f7fb8989604051808060200180602001838103835285818151815260200191508051906020019060200280838360005b838110156121a457818101518382015260200161218c565b50505050905001838103825284818151815260200191508051906020019060200280838360005b838110156121e35781810151838201526020016121cb565b5050505090500194505050505060405180910390a461220a876001600160a01b0316612fc7565b1561221d5761221d6000888888886135cc565b50505050505050565b606060066122338361374a565b60405160200180838054600181600116156101000203166002900480156122915780601f1061226f576101008083540402835291820191612291565b820191906000526020600020905b81548152906001019060200180831161227d575b5050825160208401908083835b602083106122bd5780518252601f19909201916020918201910161229e565b6001836020036101000a038019825116818451168082178552505050505050905001925050506040516020818303038152906040529050919050565b6000816001600160a01b0316836001600160a01b0316148061234057506001600160a01b0380841660009081526001602090815260408083209386168352929052205460ff165b9392505050565b7f8000000000000000000000000000000000000000000000000000000000000000161590565b806123bf576040805162461bcd60e51b815260206004820152601560248201527f496e76656e746f72793a207a65726f2076616c75650000000000000000000000604482015290519081900360640190fd5b60008281526002602090815260408083206001600160a01b038716845290915290205481811015612437576040805162461bcd60e51b815260206004820152601d60248201527f496e76656e746f72793a206e6f7420656e6f7567682062616c616e6365000000604482015290519081900360640190fd5b60008381526002602090815260408083206001600160a01b03909716835295815285822092849003909255928352600390529190208054919091039055565b816001146124cb576040805162461bcd60e51b815260206004820152601a60248201527f496e76656e746f72793a2077726f6e67204e46542076616c7565000000000000604482015290519081900360640190fd5b6000838152600460205260409020546001600160a01b03858116911614612539576040805162461bcd60e51b815260206004820152601860248201527f496e76656e746f72793a206e6f6e2d6f776e6564204e46540000000000000000604482015290519081900360640190fd5b60008381526004602052604090207fdead00000000000000000000000000000000000000000000000000000000000090558061101057600061257a84612b92565b60008181526002602090815260408083206001600160a01b038a1684528252808320805460001990810190915593835260039091529020805490910190555050505050565b6001600160a01b03841661261a576040805162461bcd60e51b815260206004820152601b60248201527f496e76656e746f72793a207472616e7366657220746f207a65726f0000000000604482015290519081900360640190fd5b825182518114612671576040805162461bcd60e51b815260206004820152601e60248201527f496e76656e746f72793a20696e636f6e73697374656e74206172726179730000604482015290519081900360640190fd5b600061267b611ec5565b905061268787826122f9565b6126d8576040805162461bcd60e51b815260206004820152601e60248201527f496e76656e746f72793a206e6f6e2d617070726f7665642073656e6465720000604482015290519081900360640190fd5b60008060005b8481146127a05760008882815181106126f357fe5b60200260200101519050600088838151811061270b57fe5b6020026020010151905061271e82612347565b156127345761272f8c8c8484612d7b565b612796565b61273d82611e35565b156110c1576127508c8c84846001612e99565b600061275b83612b92565b90508561276e5780955060019450612794565b85811461278d576127818d8d8888613859565b80955060019450612794565b8460010194505b505b50506001016126de565b5081156127b3576127b389898484613859565b876001600160a01b0316896001600160a01b0316846001600160a01b03167f4a39dc06d4c0dbc64b70af90fd698a233a518aa5d07e595d983b8c0526c8f7fb8a8a604051808060200180602001838103835285818151815260200191508051906020019060200280838360005b83811015612838578181015183820152602001612820565b50505050905001838103825284818151815260200191508051906020019060200280838360005b8381101561287757818101518382015260200161285f565b5050505090500194505050505060405180910390a461289e886001600160a01b0316612fc7565b156128b0576128b089898989896135cc565b505050505050505050565b60006128c682611e35565b15612918576040805162461bcd60e51b815260206004820152601b60248201527f496e76656e746f72793a206e6f74206120636f6c6c656374696f6e0000000000604482015290519081900360640190fd5b506000908152600560205260409020546001600160a01b031690565b6001600160a01b03841661298f576040805162461bcd60e51b815260206004820152601760248201527f496e76656e746f72793a206d696e7420746f207a65726f000000000000000000604482015290519081900360640190fd5b61299883612347565b156129ad576129a88484846133b8565b6129c8565b6129b683611e35565b156110c1576129a884848460006134aa565b6001600160a01b03841660006129dc611ec5565b6001600160a01b03167fc3d58168c5ae7397731d063d5bbf3d657854427343f4c083240f7aacaa2d0f628686604051808381526020018281526020019250505060405180910390a4612a36846001600160a01b0316612fc7565b1561101057611010600085858585612fcd565b306001600160a01b0316638da5cb5b6040518163ffffffff1660e01b815260040160206040518083038186803b158015612a8257600080fd5b505afa158015612a96573d6000803e3d6000fd5b505050506040513d6020811015612aac57600080fd5b50516001600160a01b03828116911614611888576040805162461bcd60e51b815260206004820152601660248201527f4f776e61626c653a206e6f7420746865206f776e657200000000000000000000604482015290519081900360640190fd5b604080516001600160a01b038416602482015260448082018490528251808303909101815260649091019091526020810180517bffffffffffffffffffffffffffffffffffffffffffffffffffffffff167fa9059cbb00000000000000000000000000000000000000000000000000000000179052612b8d9084906138ad565b505050565b6001600160e01b03191690565b6001600160a01b038116600081815260076020526040808220805460ff19166001179055517f6ae172837ea30b801fbfcdd4108aa1d5bf8ff775444fd70256b44e6bf3dfc3f69190a250565b6060612bf5613a90565b8080601f01602080910402602001604051908101604052809392919081815260200183838082843760009201919091525092935050505090565b612c3881611e35565b15612c8a576040805162461bcd60e51b815260206004820152601b60248201527f496e76656e746f72793a206e6f74206120636f6c6c656374696f6e0000000000604482015290519081900360640190fd5b6000818152600560205260409020546001600160a01b031615612cf4576040805162461bcd60e51b815260206004820152601e60248201527f496e76656e746f72793a206578697374696e6720636f6c6c656374696f6e0000604482015290519081900360640190fd5b612cfc611ec5565b600082815260056020526040902080547fffffffffffffffffffffffff0000000000000000000000000000000000000000166001600160a01b0392909216919091179055612d4981612347565b1515817f4ebf8ad0df535ba5e487bc9cb27fe44120ca81c3a95d3eba79c0bd1df2ab2d5d60405160405180910390a350565b80612dcd576040805162461bcd60e51b815260206004820152601560248201527f496e76656e746f72793a207a65726f2076616c75650000000000000000000000604482015290519081900360640190fd5b60008281526002602090815260408083206001600160a01b038816845290915290205481811015612e45576040805162461bcd60e51b815260206004820152601d60248201527f496e76656e746f72793a206e6f7420656e6f7567682062616c616e6365000000604482015290519081900360640190fd5b836001600160a01b0316856001600160a01b03161461117f5760009283526002602090815260408085206001600160a01b039788168652909152808420918390039091559290931681522080549091019055565b81600114612eee576040805162461bcd60e51b815260206004820152601a60248201527f496e76656e746f72793a2077726f6e67204e46542076616c7565000000000000604482015290519081900360640190fd5b6000838152600460205260409020546001600160a01b03868116911614612f5c576040805162461bcd60e51b815260206004820152601860248201527f496e76656e746f72793a206e6f6e2d6f776e6564204e46540000000000000000604482015290519081900360640190fd5b60008381526004602052604090206001600160a01b03851690558061117f576000612f8684612b92565b60009081526002602090815260408083206001600160a01b03998a168452909152808220805460001901905595909616865250505091208054600101905550565b3b151590565b7ff23a6e61000000000000000000000000000000000000000000000000000000006001600160a01b03851663f23a6e61613005611ec5565b888787876040518663ffffffff1660e01b815260040180866001600160a01b03168152602001856001600160a01b0316815260200184815260200183815260200180602001828103825283818151815260200191508051906020019080838360005b8381101561307f578181015183820152602001613067565b50505050905090810190601f1680156130ac5780820380516001836020036101000a031916815260200191505b509650505050505050602060405180830381600087803b1580156130cf57600080fd5b505af11580156130e3573d6000803e3d6000fd5b505050506040513d60208110156130f957600080fd5b50516001600160e01b0319161461117f576040805162461bcd60e51b815260206004820152601b60248201527f496e76656e746f72793a207472616e7366657220726566757365640000000000604482015290519081900360640190fd5b60006001600160e01b031982167f01ffc9a70000000000000000000000000000000000000000000000000000000014806131ba57506001600160e01b031982167fd9b67a2600000000000000000000000000000000000000000000000000000000145b806131ee57506001600160e01b031982167f0e89341c00000000000000000000000000000000000000000000000000000000145b8061322257506001600160e01b031982167f09ce5c4600000000000000000000000000000000000000000000000000000000145b80610fec5750506001600160e01b0319167fbd85b039000000000000000000000000000000000000000000000000000000001490565b60003381613264613bf3565b90507f00000000000000000000000000000000000000000000000000000000000000006001600160a01b0316826001600160a01b031614806132d757507f00000000000000000000000000000000000000000000000000000000000000006001600160a01b0316826001600160a01b0316145b156132e55791506118719050565b6001600160a01b03821632148015906133a457507f00000000000000000000000000000000000000000000000000000000000000006001600160a01b031663e60125d682846040518363ffffffff1660e01b815260040180836001600160a01b03168152602001826001600160a01b031681526020019250505060206040518083038186803b15801561337757600080fd5b505afa15801561338b573d6000803e3d6000fd5b505050506040513d60208110156133a157600080fd5b50515b156133b25791506118719050565b50905090565b8061340a576040805162461bcd60e51b815260206004820152601560248201527f496e76656e746f72793a207a65726f2076616c75650000000000000000000000604482015290519081900360640190fd5b600082815260036020526040902054818101818111613470576040805162461bcd60e51b815260206004820152601a60248201527f496e76656e746f72793a20737570706c79206f766572666c6f77000000000000604482015290519081900360640190fd5b600093845260036020908152604080862092909255600281528185206001600160a01b039096168552949094525091902080549091019055565b816001146134ff576040805162461bcd60e51b815260206004820152601a60248201527f496e76656e746f72793a2077726f6e67204e46542076616c7565000000000000604482015290519081900360640190fd5b60008381526004602052604090205415613560576040805162461bcd60e51b815260206004820152601d60248201527f496e76656e746f72793a206578697374696e672f6275726e74204e4654000000604482015290519081900360640190fd5b60008381526004602052604090206001600160a01b03851690558061101057600061358a84612b92565b600090815260036020908152604080832080546001908101909155600283528184206001600160a01b038a168552909252909120805490910190555050505050565b7fbc197c81000000000000000000000000000000000000000000000000000000006001600160a01b03851663bc197c81613604611ec5565b888787876040518663ffffffff1660e01b815260040180866001600160a01b03168152602001856001600160a01b03168152602001806020018060200180602001848103845287818151815260200191508051906020019060200280838360005b8381101561367d578181015183820152602001613665565b50505050905001848103835286818151815260200191508051906020019060200280838360005b838110156136bc5781810151838201526020016136a4565b50505050905001848103825285818151815260200191508051906020019080838360005b838110156136f85781810151838201526020016136e0565b50505050905090810190601f1680156137255780820380516001836020036101000a031916815260200191505b5098505050505050505050602060405180830381600087803b1580156130cf57600080fd5b60608161378b575060408051808201909152600181527f30000000000000000000000000000000000000000000000000000000000000006020820152610fef565b8160005b81156137a357600101600a8204915061378f565b60008167ffffffffffffffff811180156137bc57600080fd5b506040519080825280601f01601f1916602001820160405280156137e7576020820181803683370190505b50859350905060001982015b831561385057600a840660300160f81b8282806001900393508151811061381657fe5b60200101907effffffffffffffffffffffffffffffffffffffffffffffffffffffffffffff1916908160001a905350600a840493506137f3565b50949350505050565b826001600160a01b0316846001600160a01b0316146110105760009182526002602090815260408084206001600160a01b039687168552909152808320805483900390559290931681522080549091019055565b816138c06001600160a01b038216612fc7565b613911576040805162461bcd60e51b815260206004820152601a60248201527f4552433230577261707065723a206e6f6e2d636f6e7472616374000000000000604482015290519081900360640190fd5b600080826001600160a01b0316846040518082805190602001908083835b6020831061394e5780518252601f19909201916020918201910161392f565b6001836020036101000a0380198251168184511680821785525050505050509050019150506000604051808303816000865af19150503d80600081146139b0576040519150601f19603f3d011682016040523d82523d6000602084013e6139b5565b606091505b50915091508115613a3457805115613a2f578080602001905160208110156139dc57600080fd5b5051613a2f576040805162461bcd60e51b815260206004820152601e60248201527f4552433230577261707065723a206f7065726174696f6e206661696c65640000604482015290519081900360640190fd5b61117f565b8051613a87576040805162461bcd60e51b815260206004820152601e60248201527f4552433230577261707065723a206f7065726174696f6e206661696c65640000604482015290519081900360640190fd5b80518082602001fd5b366000336001600160a01b037f000000000000000000000000000000000000000000000000000000000000000016811480613afc57507f00000000000000000000000000000000000000000000000000000000000000006001600160a01b0316816001600160a01b0316145b15613b1357613b09613bff565b9250925050613bef565b6001600160a01b0381163214801590613bd957507f00000000000000000000000000000000000000000000000000000000000000006001600160a01b031663e60125d6613b5e613bf3565b836040518363ffffffff1660e01b815260040180836001600160a01b03168152602001826001600160a01b031681526020019250505060206040518083038186803b158015613bac57600080fd5b505afa158015613bc0573d6000803e3d6000fd5b505050506040513d6020811015613bd657600080fd5b50515b15613be657613b09613bff565b60003692509250505b9091565b60131936013560601c90565b366000613c126013198301828481613cbb565b915091509091565b828054600181600116156101000203166002900490600052602060002090601f016020900481019282613c505760008555613c96565b82601f10613c695782800160ff19823516178555613c96565b82800160010185558215613c96579182015b82811115613c96578235825591602001919060010190613c7b565b50613ca2929150613ca6565b5090565b5b80821115613ca25760008155600101613ca7565b60008085851115613cca578182fd5b83861115613cd6578182fd5b505082019391909203915056fea2646970667358221220e9366422d0fe38e52e7b2e141cd083af5cabed573858707a7fb22c50b9d5dc3064736f6c63430007060033",
  "linkReferences": {},
  "deployedLinkReferences": {}
}