{
  "_format": "hh-sol-artifact-1",
  "contractName": "ERC1155InventoryBurnableMock",
  "sourceName": "contracts/mocks/token/ERC1155/ERC1155InventoryBurnableMock.sol",
  "abi": [
    {
      "inputs": [],
      "stateMutability": "nonpayable",
      "type": "constructor"
    },
    {
      "anonymous": false,
      "inputs": [
        {
          "indexed": true,
          "internalType": "address",
          "name": "_owner",
          "type": "address"
        },
        {
          "indexed": true,
          "internalType": "address",
          "name": "_operator",
          "type": "address"
        },
        {
          "indexed": false,
          "internalType": "bool",
          "name": "_approved",
          "type": "bool"
        }
      ],
      "name": "ApprovalForAll",
      "type": "event"
    },
    {
      "anonymous": false,
      "inputs": [
        {
          "indexed": false,
          "internalType": "string",
          "name": "baseMetadataURI",
          "type": "string"
        }
      ],
      "name": "BaseMetadataURISet",
      "type": "event"
    },
    {
      "anonymous": false,
      "inputs": [
        {
          "indexed": true,
          "internalType": "uint256",
          "name": "collectionId",
          "type": "uint256"
        },
        {
          "indexed": true,
          "internalType": "bool",
          "name": "fungible",
          "type": "bool"
        }
      ],
      "name": "CollectionCreated",
      "type": "event"
    },
    {
      "anonymous": false,
      "inputs": [
        {
          "indexed": true,
          "internalType": "address",
          "name": "account",
          "type": "address"
        }
      ],
      "name": "MinterAdded",
      "type": "event"
    },
    {
      "anonymous": false,
      "inputs": [
        {
          "indexed": true,
          "internalType": "address",
          "name": "account",
          "type": "address"
        }
      ],
      "name": "MinterRemoved",
      "type": "event"
    },
    {
      "anonymous": false,
      "inputs": [
        {
          "indexed": true,
          "internalType": "address",
          "name": "previousOwner",
          "type": "address"
        },
        {
          "indexed": true,
          "internalType": "address",
          "name": "newOwner",
          "type": "address"
        }
      ],
      "name": "OwnershipTransferred",
      "type": "event"
    },
    {
      "anonymous": false,
      "inputs": [
        {
          "indexed": true,
          "internalType": "address",
          "name": "_operator",
          "type": "address"
        },
        {
          "indexed": true,
          "internalType": "address",
          "name": "_from",
          "type": "address"
        },
        {
          "indexed": true,
          "internalType": "address",
          "name": "_to",
          "type": "address"
        },
        {
          "indexed": false,
          "internalType": "uint256[]",
          "name": "_ids",
          "type": "uint256[]"
        },
        {
          "indexed": false,
          "internalType": "uint256[]",
          "name": "_values",
          "type": "uint256[]"
        }
      ],
      "name": "TransferBatch",
      "type": "event"
    },
    {
      "anonymous": false,
      "inputs": [
        {
          "indexed": true,
          "internalType": "address",
          "name": "_operator",
          "type": "address"
        },
        {
          "indexed": true,
          "internalType": "address",
          "name": "_from",
          "type": "address"
        },
        {
          "indexed": true,
          "internalType": "address",
          "name": "_to",
          "type": "address"
        },
        {
          "indexed": false,
          "internalType": "uint256",
          "name": "_id",
          "type": "uint256"
        },
        {
          "indexed": false,
          "internalType": "uint256",
          "name": "_value",
          "type": "uint256"
        }
      ],
      "name": "TransferSingle",
      "type": "event"
    },
    {
      "anonymous": false,
      "inputs": [
        {
          "indexed": false,
          "internalType": "string",
          "name": "_value",
          "type": "string"
        },
        {
          "indexed": true,
          "internalType": "uint256",
          "name": "_id",
          "type": "uint256"
        }
      ],
      "name": "URI",
      "type": "event"
    },
    {
      "inputs": [
        {
          "internalType": "address",
          "name": "account",
          "type": "address"
        }
      ],
      "name": "addMinter",
      "outputs": [],
      "stateMutability": "nonpayable",
      "type": "function"
    },
    {
      "inputs": [
        {
          "internalType": "address",
          "name": "owner",
          "type": "address"
        },
        {
          "internalType": "uint256",
          "name": "id",
          "type": "uint256"
        }
      ],
      "name": "balanceOf",
      "outputs": [
        {
          "internalType": "uint256",
          "name": "",
          "type": "uint256"
        }
      ],
      "stateMutability": "view",
      "type": "function"
    },
    {
      "inputs": [
        {
          "internalType": "address[]",
          "name": "owners",
          "type": "address[]"
        },
        {
          "internalType": "uint256[]",
          "name": "ids",
          "type": "uint256[]"
        }
      ],
      "name": "balanceOfBatch",
      "outputs": [
        {
          "internalType": "uint256[]",
          "name": "",
          "type": "uint256[]"
        }
      ],
      "stateMutability": "view",
      "type": "function"
    },
    {
      "inputs": [],
      "name": "baseMetadataURI",
      "outputs": [
        {
          "internalType": "string",
          "name": "",
          "type": "string"
        }
      ],
      "stateMutability": "view",
      "type": "function"
    },
    {
      "inputs": [
        {
          "internalType": "address",
          "name": "from",
          "type": "address"
        },
        {
          "internalType": "uint256[]",
          "name": "ids",
          "type": "uint256[]"
        },
        {
          "internalType": "uint256[]",
          "name": "values",
          "type": "uint256[]"
        }
      ],
      "name": "batchBurnFrom",
      "outputs": [],
      "stateMutability": "nonpayable",
      "type": "function"
    },
    {
      "inputs": [
        {
          "internalType": "address",
          "name": "from",
          "type": "address"
        },
        {
          "internalType": "uint256",
          "name": "id",
          "type": "uint256"
        },
        {
          "internalType": "uint256",
          "name": "value",
          "type": "uint256"
        }
      ],
      "name": "burnFrom",
      "outputs": [],
      "stateMutability": "nonpayable",
      "type": "function"
    },
    {
      "inputs": [
        {
          "internalType": "bytes32",
          "name": "c__0x11e80024",
          "type": "bytes32"
        }
      ],
      "name": "c_0x11e80024",
      "outputs": [],
      "stateMutability": "pure",
      "type": "function"
    },
    {
      "inputs": [
        {
          "internalType": "bytes32",
          "name": "c__0x23339a13",
          "type": "bytes32"
        }
      ],
      "name": "c_0x23339a13",
      "outputs": [],
      "stateMutability": "pure",
      "type": "function"
    },
    {
      "inputs": [
        {
          "internalType": "bytes32",
          "name": "c__0x31017afb",
          "type": "bytes32"
        }
      ],
      "name": "c_0x31017afb",
      "outputs": [],
      "stateMutability": "pure",
      "type": "function"
    },
    {
      "inputs": [
        {
          "internalType": "bytes32",
          "name": "c__0x9329567f",
          "type": "bytes32"
        }
      ],
      "name": "c_0x9329567f",
      "outputs": [],
      "stateMutability": "pure",
      "type": "function"
    },
    {
      "inputs": [
        {
          "internalType": "bytes32",
          "name": "c__0xaba5a90a",
          "type": "bytes32"
        }
      ],
      "name": "c_0xaba5a90a",
      "outputs": [],
      "stateMutability": "pure",
      "type": "function"
    },
    {
      "inputs": [
        {
          "internalType": "uint256",
          "name": "nftId",
          "type": "uint256"
        }
      ],
      "name": "collectionOf",
      "outputs": [
        {
          "internalType": "uint256",
          "name": "",
          "type": "uint256"
        }
      ],
      "stateMutability": "pure",
      "type": "function"
    },
    {
      "inputs": [
        {
          "internalType": "uint256",
          "name": "collectionId",
          "type": "uint256"
        }
      ],
      "name": "createCollection",
      "outputs": [],
      "stateMutability": "nonpayable",
      "type": "function"
    },
    {
      "inputs": [
        {
          "internalType": "uint256",
          "name": "collectionId",
          "type": "uint256"
        }
      ],
      "name": "creator",
      "outputs": [
        {
          "internalType": "address",
          "name": "",
          "type": "address"
        }
      ],
      "stateMutability": "view",
      "type": "function"
    },
    {
      "inputs": [
        {
          "internalType": "address",
          "name": "tokenOwner",
          "type": "address"
        },
        {
          "internalType": "address",
          "name": "operator",
          "type": "address"
        }
      ],
      "name": "isApprovedForAll",
      "outputs": [
        {
          "internalType": "bool",
          "name": "",
          "type": "bool"
        }
      ],
      "stateMutability": "view",
      "type": "function"
    },
    {
      "inputs": [
        {
          "internalType": "uint256",
          "name": "id",
          "type": "uint256"
        }
      ],
      "name": "isFungible",
      "outputs": [
        {
          "internalType": "bool",
          "name": "",
          "type": "bool"
        }
      ],
      "stateMutability": "pure",
      "type": "function"
    },
    {
      "inputs": [
        {
          "internalType": "address",
          "name": "",
          "type": "address"
        }
      ],
      "name": "isMinter",
      "outputs": [
        {
          "internalType": "bool",
          "name": "",
          "type": "bool"
        }
      ],
      "stateMutability": "view",
      "type": "function"
    },
    {
      "inputs": [],
      "name": "owner",
      "outputs": [
        {
          "internalType": "address",
          "name": "",
          "type": "address"
        }
      ],
      "stateMutability": "view",
      "type": "function"
    },
    {
      "inputs": [
        {
          "internalType": "uint256",
          "name": "nftId",
          "type": "uint256"
        }
      ],
      "name": "ownerOf",
      "outputs": [
        {
          "internalType": "address",
          "name": "",
          "type": "address"
        }
      ],
      "stateMutability": "view",
      "type": "function"
    },
    {
      "inputs": [],
      "name": "renounceMinter",
      "outputs": [],
      "stateMutability": "nonpayable",
      "type": "function"
    },
    {
      "inputs": [
        {
          "internalType": "address",
          "name": "to",
          "type": "address"
        },
        {
          "internalType": "uint256[]",
          "name": "ids",
          "type": "uint256[]"
        },
        {
          "internalType": "uint256[]",
          "name": "values",
          "type": "uint256[]"
        },
        {
          "internalType": "bytes",
          "name": "data",
          "type": "bytes"
        }
      ],
      "name": "safeBatchMint",
      "outputs": [],
      "stateMutability": "nonpayable",
      "type": "function"
    },
    {
      "inputs": [
        {
          "internalType": "address",
          "name": "from",
          "type": "address"
        },
        {
          "internalType": "address",
          "name": "to",
          "type": "address"
        },
        {
          "internalType": "uint256[]",
          "name": "ids",
          "type": "uint256[]"
        },
        {
          "internalType": "uint256[]",
          "name": "values",
          "type": "uint256[]"
        },
        {
          "internalType": "bytes",
          "name": "data",
          "type": "bytes"
        }
      ],
      "name": "safeBatchTransferFrom",
      "outputs": [],
      "stateMutability": "nonpayable",
      "type": "function"
    },
    {
      "inputs": [
        {
          "internalType": "address",
          "name": "to",
          "type": "address"
        },
        {
          "internalType": "uint256",
          "name": "id",
          "type": "uint256"
        },
        {
          "internalType": "uint256",
          "name": "value",
          "type": "uint256"
        },
        {
          "internalType": "bytes",
          "name": "data",
          "type": "bytes"
        }
      ],
      "name": "safeMint",
      "outputs": [],
      "stateMutability": "nonpayable",
      "type": "function"
    },
    {
      "inputs": [
        {
          "internalType": "address",
          "name": "from",
          "type": "address"
        },
        {
          "internalType": "address",
          "name": "to",
          "type": "address"
        },
        {
          "internalType": "uint256",
          "name": "id",
          "type": "uint256"
        },
        {
          "internalType": "uint256",
          "name": "value",
          "type": "uint256"
        },
        {
          "internalType": "bytes",
          "name": "data",
          "type": "bytes"
        }
      ],
      "name": "safeTransferFrom",
      "outputs": [],
      "stateMutability": "nonpayable",
      "type": "function"
    },
    {
      "inputs": [
        {
          "internalType": "address",
          "name": "operator",
          "type": "address"
        },
        {
          "internalType": "bool",
          "name": "approved",
          "type": "bool"
        }
      ],
      "name": "setApprovalForAll",
      "outputs": [],
      "stateMutability": "nonpayable",
      "type": "function"
    },
    {
      "inputs": [
        {
          "internalType": "string",
          "name": "baseMetadataURI_",
          "type": "string"
        }
      ],
      "name": "setBaseMetadataURI",
      "outputs": [],
      "stateMutability": "nonpayable",
      "type": "function"
    },
    {
      "inputs": [
        {
          "internalType": "bytes4",
          "name": "interfaceId",
          "type": "bytes4"
        }
      ],
      "name": "supportsInterface",
      "outputs": [
        {
          "internalType": "bool",
          "name": "",
          "type": "bool"
        }
      ],
      "stateMutability": "view",
      "type": "function"
    },
    {
      "inputs": [
        {
          "internalType": "uint256",
          "name": "id",
          "type": "uint256"
        }
      ],
      "name": "totalSupply",
      "outputs": [
        {
          "internalType": "uint256",
          "name": "",
          "type": "uint256"
        }
      ],
      "stateMutability": "view",
      "type": "function"
    },
    {
      "inputs": [
        {
          "internalType": "address",
          "name": "newOwner",
          "type": "address"
        }
      ],
      "name": "transferOwnership",
      "outputs": [],
      "stateMutability": "nonpayable",
      "type": "function"
    },
    {
      "inputs": [
        {
          "internalType": "uint256",
          "name": "id",
          "type": "uint256"
        }
      ],
      "name": "uri",
      "outputs": [
        {
          "internalType": "string",
          "name": "",
          "type": "string"
        }
      ],
      "stateMutability": "view",
      "type": "function"
    }
  ],
  "bytecode": "0x60806040523480156200001157600080fd5b50338080600560006101000a81548173ffffffffffffffffffffffffffffffffffffffff021916908373ffffffffffffffffffffffffffffffffffffffff1602179055508073ffffffffffffffffffffffffffffffffffffffff16600073ffffffffffffffffffffffffffffffffffffffff167f8be0079c531659141344cd1fd0a4f28419497f9722a3daafe3b4186f6b6457e060405160405180910390a350620000c281620000fd60201b60201c565b50620000f77fcd1638d07518e47b94158dd757fda991cede80bd11922276fa78cadab030fcee60001b6200019b60201b60201c565b6200019e565b6001600760008373ffffffffffffffffffffffffffffffffffffffff1673ffffffffffffffffffffffffffffffffffffffff16815260200190815260200160002060006101000a81548160ff0219169083151502179055508073ffffffffffffffffffffffffffffffffffffffff167f6ae172837ea30b801fbfcdd4108aa1d5bf8ff775444fd70256b44e6bf3dfc3f660405160405180910390a250565b50565b61af9180620001ae6000396000f3fe608060405234801561001057600080fd5b50600436106101d85760003560e01c806371c8a47b11610104578063aa271e1a116100a2578063d0011d9d11610071578063d0011d9d14610fcb578063e985e9c514610ff9578063f242432a14611073578063f2fde38b14611182576101d8565b8063aa271e1a14610ea9578063adebf6f214610f03578063bd85b03914610f47578063c7778baa14610f89576101d8565b80638da5cb5b116100de5780638da5cb5b14610dd7578063983b2d5614610e0b5780639865027514610e4f578063a22cb46514610e59576101d8565b806371c8a47b14610bc45780637e518ec814610bf25780638053493414610c6b576101d8565b80634de67cb91161017c5780635cfa92971161014b5780635cfa929714610a215780636352211e14610b105780636bbffbe014610b685780636d5966bf14610b96576101d8565b80634de67cb9146107f55780634e1273f414610823578063510b5158146109465780635b2bd79e1461099e576101d8565b80630d6a5bbb116101b85780630d6a5bbb146102d05780630e89341c146104d3578063124d91e51461057a5780632eb2c2d6146105d2576101d8565b80628f5f67146101dd578062fdd58e1461020b57806301ffc9a71461026d575b600080fd5b610209600480360360208110156101f357600080fd5b81019080803590602001909291905050506111c6565b005b6102576004803603604081101561022157600080fd5b81019080803573ffffffffffffffffffffffffffffffffffffffff169060200190929190803590602001909291905050506111c9565b6040518082815260200191505060405180910390f35b6102b86004803603602081101561028357600080fd5b8101908080357bffffffffffffffffffffffffffffffffffffffffffffffffffffffff1916906020019092919050505061156c565b60405180821515815260200191505060405180910390f35b6104d1600480360360808110156102e657600080fd5b81019080803573ffffffffffffffffffffffffffffffffffffffff1690602001909291908035906020019064010000000081111561032357600080fd5b82018360208201111561033557600080fd5b8035906020019184602083028401116401000000008311171561035757600080fd5b919080806020026020016040519081016040528093929190818152602001838360200280828437600081840152601f19601f820116905080830192505050505050509192919290803590602001906401000000008111156103b757600080fd5b8201836020820111156103c957600080fd5b803590602001918460208302840111640100000000831117156103eb57600080fd5b919080806020026020016040519081016040528093929190818152602001838360200280828437600081840152601f19601f8201169050808301925050505050505091929192908035906020019064010000000081111561044b57600080fd5b82018360208201111561045d57600080fd5b8035906020019184600183028401116401000000008311171561047f57600080fd5b91908080601f016020809104026020016040519081016040528093929190818152602001838380828437600081840152601f19601f82011690508083019250505050505050919291929050505061166a565b005b6104ff600480360360208110156104e957600080fd5b8101908080359060200190929190505050611768565b6040518080602001828103825283818151815260200191508051906020019080838360005b8381101561053f578082015181840152602081019050610524565b50505050905090810190601f16801561056c5780820380516001836020036101000a031916815260200191505b509250505060405180910390f35b6105d06004803603606081101561059057600080fd5b81019080803573ffffffffffffffffffffffffffffffffffffffff16906020019092919080359060200190929190803590602001909291905050506117fe565b005b6107f3600480360360a08110156105e857600080fd5b81019080803573ffffffffffffffffffffffffffffffffffffffff169060200190929190803573ffffffffffffffffffffffffffffffffffffffff1690602001909291908035906020019064010000000081111561064557600080fd5b82018360208201111561065757600080fd5b8035906020019184602083028401116401000000008311171561067957600080fd5b919080806020026020016040519081016040528093929190818152602001838360200280828437600081840152601f19601f820116905080830192505050505050509192919290803590602001906401000000008111156106d957600080fd5b8201836020820111156106eb57600080fd5b8035906020019184602083028401116401000000008311171561070d57600080fd5b919080806020026020016040519081016040528093929190818152602001838360200280828437600081840152601f19601f8201169050808301925050505050505091929192908035906020019064010000000081111561076d57600080fd5b82018360208201111561077f57600080fd5b803590602001918460018302840111640100000000831117156107a157600080fd5b91908080601f016020809104026020016040519081016040528093929190818152602001838380828437600081840152601f19601f820116905080830192505050505050509192919290505050611d86565b005b6108216004803603602081101561080b57600080fd5b8101908080359060200190929190505050611e1e565b005b6108ef6004803603604081101561083957600080fd5b810190808035906020019064010000000081111561085657600080fd5b82018360208201111561086857600080fd5b8035906020019184602083028401116401000000008311171561088a57600080fd5b9091929391929390803590602001906401000000008111156108ab57600080fd5b8201836020820111156108bd57600080fd5b803590602001918460208302840111640100000000831117156108df57600080fd5b9091929391929390505050611e21565b6040518080602001828103825283818151815260200191508051906020019060200280838360005b83811015610932578082015181840152602081019050610917565b505050509050019250505060405180910390f35b6109726004803603602081101561095c57600080fd5b81019080803590602001909291905050506121a9565b604051808273ffffffffffffffffffffffffffffffffffffffff16815260200191505060405180910390f35b6109a661223f565b6040518080602001828103825283818151815260200191508051906020019080838360005b838110156109e65780820151818401526020810190506109cb565b50505050905090810190601f168015610a135780820380516001836020036101000a031916815260200191505b509250505060405180910390f35b610b0e60048036036080811015610a3757600080fd5b81019080803573ffffffffffffffffffffffffffffffffffffffff169060200190929190803590602001909291908035906020019092919080359060200190640100000000811115610a8857600080fd5b820183602082011115610a9a57600080fd5b80359060200191846001830284011164010000000083111715610abc57600080fd5b91908080601f016020809104026020016040519081016040528093929190818152602001838380828437600081840152601f19601f8201169050808301925050505050505091929192905050506122dd565b005b610b3c60048036036020811015610b2657600080fd5b81019080803590602001909291905050506123db565b604051808273ffffffffffffffffffffffffffffffffffffffff16815260200191505060405180910390f35b610b9460048036036020811015610b7e57600080fd5b810190808035906020019092919050505061262d565b005b610bc260048036036020811015610bac57600080fd5b8101908080359060200190929190505050612630565b005b610bf060048036036020811015610bda57600080fd5b8101908080359060200190929190505050612633565b005b610c6960048036036020811015610c0857600080fd5b8101908080359060200190640100000000811115610c2557600080fd5b820183602082011115610c3757600080fd5b80359060200191846001830284011164010000000083111715610c5957600080fd5b9091929391929390505050612636565b005b610dd560048036036060811015610c8157600080fd5b81019080803573ffffffffffffffffffffffffffffffffffffffff16906020019092919080359060200190640100000000811115610cbe57600080fd5b820183602082011115610cd057600080fd5b80359060200191846020830284011164010000000083111715610cf257600080fd5b919080806020026020016040519081016040528093929190818152602001838360200280828437600081840152601f19601f82011690508083019250505050505050919291929080359060200190640100000000811115610d5257600080fd5b820183602082011115610d6457600080fd5b80359060200191846020830284011164010000000083111715610d8657600080fd5b919080806020026020016040519081016040528093929190818152602001838360200280828437600081840152601f19601f8201169050808301925050505050505091929192905050506127f3565b005b610ddf613826565b604051808273ffffffffffffffffffffffffffffffffffffffff16815260200191505060405180910390f35b610e4d60048036036020811015610e2157600080fd5b81019080803573ffffffffffffffffffffffffffffffffffffffff169060200190929190505050613850565b005b610e5761386c565b005b610ea760048036036040811015610e6f57600080fd5b81019080803573ffffffffffffffffffffffffffffffffffffffff16906020019092919080351515906020019092919050505061391f565b005b610eeb60048036036020811015610ebf57600080fd5b81019080803573ffffffffffffffffffffffffffffffffffffffff169060200190929190505050613cb0565b60405180821515815260200191505060405180910390f35b610f2f60048036036020811015610f1957600080fd5b8101908080359060200190929190505050613cd0565b60405180821515815260200191505060405180910390f35b610f7360048036036020811015610f5d57600080fd5b8101908080359060200190929190505050613d66565b6040518082815260200191505060405180910390f35b610fb560048036036020811015610f9f57600080fd5b8101908080359060200190929190505050613f78565b6040518082815260200191505060405180910390f35b610ff760048036036020811015610fe157600080fd5b8101908080359060200190929190505050614139565b005b61105b6004803603604081101561100f57600080fd5b81019080803573ffffffffffffffffffffffffffffffffffffffff169060200190929190803573ffffffffffffffffffffffffffffffffffffffff169060200190929190505050614231565b60405180821515815260200191505060405180910390f35b611180600480360360a081101561108957600080fd5b81019080803573ffffffffffffffffffffffffffffffffffffffff169060200190929190803573ffffffffffffffffffffffffffffffffffffffff1690602001909291908035906020019092919080359060200190929190803590602001906401000000008111156110fa57600080fd5b82018360208201111561110c57600080fd5b8035906020019184600183028401116401000000008311171561112e57600080fd5b91908080601f016020809104026020016040519081016040528093929190818152602001838380828437600081840152601f19601f820116905080830192505050505050509192919290505050614348565b005b6111c46004803603602081101561119857600080fd5b81019080803573ffffffffffffffffffffffffffffffffffffffff169060200190929190505050614b65565b005b50565b60006111f77fd0573779785065628f23834d92b2cb89dc3bf5e7f0c8a21fbb63efa01db3f4b860001b612633565b6112237f1e2069e583b70fd027b2a8346e2a36e4f6ab99e605d470cbb1664e5bf334a65460001b612633565b61124f7fa11fb8710bb4619527d4a53e1c1c7a5a9aeba136d883a774c49e970860bac34260001b612633565b61127b7f8738959252adef26e170a9aff53b7858d9b7dcebfef967a1584f48e2d2d2149760001b612633565b600073ffffffffffffffffffffffffffffffffffffffff168373ffffffffffffffffffffffffffffffffffffffff16141561131e576040517f08c379a00000000000000000000000000000000000000000000000000000000081526004018080602001828103825260178152602001807f496e76656e746f72793a207a65726f206164647265737300000000000000000081525060200191505060405180910390fd5b61134a7fdd91677df45046a7b61f6706b82728306838582132abeaee066db1b543dbfb4e60001b612633565b6113767f9ea8e4451284908bfb3ba1e98d6b48295352c9cf78755f115ba44a0a6c4391e060001b612633565b6113a27f8e37e3f1d8e87d3f0ea4de37fff4966d5e020ff86fd5b3ba33a71235d643eae760001b612633565b6113ab82614c35565b1561148e576113dc7fc1231b191f8f3a532b568e953ba9dd9347fcf574a8ab8f8a1c54a17bf9edca4c60001b612633565b6114087f14aac45d7d1276be234762665da9d01cb956b275d579f49cfb6877a50789cd0e60001b612633565b6114347f7666502ec335ee20fb343ba97abc544c2d1d9a861826b70bad114b4cf59576ed60001b612633565b8273ffffffffffffffffffffffffffffffffffffffff16600360008481526020019081526020016000205473ffffffffffffffffffffffffffffffffffffffff1614611481576000611484565b60015b60ff169050611566565b6114ba7f360cba3c863de43bdd9f6b65aad22d8b77eb9dd8e4164f215ecbd1808ff6b17860001b612633565b6114e67f0884ab5e942ef5e28752a6d8fc224b294075f1729dbf5990349866a80216b01460001b612633565b6115127faa1d6a1c219335e0ddb052191e15d3b92d33ab87c907c983de09e0d0ce4b427360001b612633565b6001600083815260200190815260200160002060008473ffffffffffffffffffffffffffffffffffffffff1673ffffffffffffffffffffffffffffffffffffffff1681526020019081526020016000205490505b92915050565b600061159a7f375a687bff5740e2cb9a6a99f3503ed9e1510b31bdf8035a71cb22d2985a73c060001b612630565b6115c67fffc89d918a48006eac1c02bf4e2e4bbf8bbcda4f8a838cb4a434dd903874ce5760001b612630565b6115f27f4446a48baa045c28e068822a4b568684aca7bf67b4912b49458395dab0a10a3760001b612630565b7f510b5158000000000000000000000000000000000000000000000000000000007bffffffffffffffffffffffffffffffffffffffffffffffffffffffff1916827bffffffffffffffffffffffffffffffffffffffffffffffffffffffff19161480611663575061166282614d03565b5b9050919050565b6116967f6349fabeb940cd87996fca0ce1ffc4df18c3abda5159913dfa92857c851bfc0160001b612630565b6116c27f85bcc60e4763671707cca61e946f5a783d897b206c3432e590feca2fe3a5249760001b612630565b6116ee7f7d9c0a825d7f51c8dceb4a415707a969bb6f2da907c974dfb71aa86e303ec5d060001b612630565b6116fe6116f9614e01565b614e09565b61172a7fe1680323e48de56b88123f98acc2ac61c7f5c1eb7726352e12b062f282ee765860001b612630565b6117567fda31111e9f38252a4ebe0c3e79a332c96d0ebc4538844883dbe90739c0ac4cfe60001b612630565b61176284848484614ecb565b50505050565b60606117967f32c1b74eef33f657054ff266ebab69e3addc4f451476da13b8a4e4336e17c6db60001b612630565b6117c27fd1ff9214897bd927a271e96e296e9eb15f5a357e4734454c1073f75f86b6841460001b612630565b6117ee7fd7f9ecbbe35c862e482ac17a753fbfd5d904e0bd2ca7974a6fb5a3cd889c39ec60001b612630565b6117f782616008565b9050919050565b61182a7fe0ba9e1e14358b9118f06c1fac6bcf72651f5a5009c528943d339a5bd08b3ac860001b6111c6565b6118567f99ea545d59a0e160946378ac87c5ad84c90567b485c0708c7a13a54b0b43933060001b6111c6565b6118827f475ab3025156e4b0b7b09c32cb6a8713baf3a72d713cd658c39de39f224bbc8860001b6111c6565b600061188c614e01565b90506118ba7f12d2359c4378e7a2b10ef8430e491a611a8eda0c8a60d5ed9513005a6f130a9760001b6111c6565b6118e67f065a8504b7d71138cfad04c8b044a926012ada0053b79b0c4af8485e43933e6560001b6111c6565b6119127ff6839c1998503a8db9f621a146ac48c585afe278e29a4f98be0a2df2e809553060001b6111c6565b61191c8482616164565b61198e576040517f08c379a000000000000000000000000000000000000000000000000000000000815260040180806020018281038252601e8152602001807f496e76656e746f72793a206e6f6e2d617070726f7665642073656e646572000081525060200191505060405180910390fd5b6119ba7f3bab9ba632fedb39e54c59f497e6ec86344d5e0858e1144f9fb5bda896564c3d60001b6111c6565b6119e67f9b9d54be629f26f330f719afc81172ecf008ba555b7a697fd4ecefb514a4fe3060001b6111c6565b611a127f582c2887aab37668070212a95015c86431d36a2d4b1be11e5198e8c3778dda8d60001b6111c6565b611a1b836162b1565b15611ab457611a4c7f0f88bfa07633d320dadd119ed297a55e4b8d59ddfa933d17c1fcd9e6297a9cd260001b6111c6565b611a787f7b03bb16722f4cc4a730555dc8b2f48bc6a40ec4c778018cfd446bb8fbca6aec60001b6111c6565b611aa47f8c83425235f2a0ab7f2c445b4a9b2b2d6a928b39a4ad3e7c295920a54966f5dc60001b6111c6565b611aaf848484616364565b611ca3565b611ae07fbaa60cb1e020cc157dee60ce5dec52bcb7d60821765dfcff50f188f610faf2c860001b6111c6565b611b0c7f28b7e788b0c86f296ce50d418a7dd078c70f068a83341678107c2fad07d422cb60001b6111c6565b611b1583614c35565b15611bb057611b467f3da120902a25d132988bbdd56c641b8e82ff5517986707ed82df56c401be306c60001b6111c6565b611b727fac15b394ed42512928c212b22abd30910bcea9a7f00714850abc1d571dc2219360001b6111c6565b611b9e7f23f5bed9544657916b12179eb239992a642065c646300e8872d0e7c9e973efe560001b6111c6565b611bab84848460006167b7565b611ca2565b611bdc7fe74ab7c6cd8b6aafd0f140b46d386422031534ee9a8161897b18c455ef9c5a8060001b6111c6565b611c087ff8845855d68a1dc66535249cea2c81550b388ec561ce30a5187d222af40d5f3860001b6111c6565b611c347f42515f07b3eda71ee914b4d0fbf255d2ac6307d735bbcd4e6df142b1d52469dc60001b6111c6565b6040517f08c379a00000000000000000000000000000000000000000000000000000000081526004018080602001828103825260198152602001807f496e76656e746f72793a206e6f74206120746f6b656e2069640000000000000081525060200191505060405180910390fd5b5b611ccf7fc1c6c55d9de3be334d88e1ae8f5b2a478e208b2490fd7f5abbf83d161129ed8a60001b6111c6565b611cfb7fa21b0d42db9f4e4a0abb6fefbf70ddab360ab89578882eb9cc8996c937b47e5060001b6111c6565b600073ffffffffffffffffffffffffffffffffffffffff168473ffffffffffffffffffffffffffffffffffffffff168273ffffffffffffffffffffffffffffffffffffffff167fc3d58168c5ae7397731d063d5bbf3d657854427343f4c083240f7aacaa2d0f628686604051808381526020018281526020019250505060405180910390a450505050565b611db27f31714c287dbf4c13ccc0e54f194d34f86eb13e033d6a123c51d276682c9d95c960001b61262d565b611dde7f50e785702363626d7778a9c56f182e6aa7e1d256f2d7da46a54d1b29318d413760001b61262d565b611e0a7f2ee7818a8b22fe805a257aee86b16170329f22c8b5472cfb0f47c6cb9108715160001b61262d565b611e178585858585616cfd565b5050505050565b50565b6060611e4f7ff9387cb22317f794a78cf6e494581548d65d540d5a51cab9992f47610a1c8cdc60001b612633565b611e7b7fa00a45ad76cdf9ac301740d072e0cd2eb3096be43c55e3981504d9ac6c11caf360001b612633565b611ea77f76c37eada364e7ad7f4c17dcb1c765088676a96fc8f2facc0499e51b26b80dd860001b612633565b611ed37f69e309af372ae7f0a26f4a15b8bc79c70317abd49fbb25a60b5380f6c0de4edf60001b612633565b828290508585905014611f4e576040517f08c379a000000000000000000000000000000000000000000000000000000000815260040180806020018281038252601e8152602001807f496e76656e746f72793a20696e636f6e73697374656e7420617272617973000081525060200191505060405180910390fd5b611f7a7f03ca9934893a0b11862b7daa8241dafa1638e58e30c33a304d1952efd4f17d1d60001b612633565b611fa67f98d6f72017d5916f8b89e6a423f6fb1263e50e29f77bbee75939d1a651c7c67d60001b612633565b611fd27f6973fd2822295f7623838cbf5043b692c363258ac19791d50b0115b5f99e76f360001b612633565b60008585905067ffffffffffffffff81118015611fee57600080fd5b5060405190808252806020026020018201604052801561201d5781602001602082028036833780820191505090505b50905061204c7fa9c42faf8af8aefc47c3bfb0a64c1885c24aec0d5ed4a354881f4943de40f16d60001b612633565b6120787fbce6394d332b76fbf0a6187b8fa9aee3c0436ab95a6aad37d2c082bc5295f29460001b612633565b60005b868690508114612144576120b17fb15d87dec090f0794e7bf64d2641752345f46c6335f46a4bf42a2691c7da6aa560001b612633565b6120dd7fa19272b3140654f8c1cff7415002be536b942127a7cb28add414bc908c37db5060001b612633565b6121218787838181106120ec57fe5b9050602002013573ffffffffffffffffffffffffffffffffffffffff1686868481811061211557fe5b905060200201356111c9565b82828151811061212d57fe5b60200260200101818152505080600101905061207b565b506121717f1a45384965ee4ecff22640d9a4f51e45e724990c60f8c920931195f14f28f6ed60001b612633565b61219d7f69f2f19fcc65b59ea4506fd6be5c1a0e9e3fff4a7383c74bb74f7b73f841367360001b612633565b80915050949350505050565b60006121d77fe34df077ca76a5f30391c874d9bf3613266f8177051d590e408c32d014b3e50260001b612630565b6122037f1977ff1f4f6f3ec2995ffe5cd12836ca61dc5d0774f674a6fda13730a5c5bb0f60001b612630565b61222f7f98c71d096cb5afd3cfcc241f15c044be11112e06a73988b62d1f5829bfc5bafb60001b612630565b61223882617e2f565b9050919050565b60068054600181600116156101000203166002900480601f0160208091040260200160405190810160405280929190818152602001828054600181600116156101000203166002900480156122d55780601f106122aa576101008083540402835291602001916122d5565b820191906000526020600020905b8154815290600101906020018083116122b857829003601f168201915b505050505081565b6123097fc3046d52aa9af4aa8a38acf6939c1376e6f666ede49a8d027aef2d6730baf91060001b612630565b6123357f4b6717efe70f1046459774a8186c8a994b27a5f9d04643c471e58a25246a2bec60001b612630565b6123617fba843f8f38633b1127bc998a9642c5a7670f252f18da18ee3659c030f235678f60001b612630565b61237161236c614e01565b614e09565b61239d7f6d838cfe836213209d97bd190fbde4709d2c43684edd30f66793a03f3194769260001b612630565b6123c97f013df316989b67e1a8ce1ff4eee2c3aaab270a99a870e92d8a8bccb16c37235360001b612630565b6123d58484848461801c565b50505050565b60006124097ffc59fb60a67d68ccc943a08bea255237a8934f8573254c419d44acee78b9fb5060001b612633565b6124357f98f1a734197ce0144080b5dcab6ead2cc6448ae6ac9f74591b10fe14068dde8360001b612633565b6124617f4229c7945cfd62041b3ba6e4c405407793bcf9dae0f45f36cd4366446dded2bb60001b612633565b6000600360008481526020019081526020016000205490506124a57f76f6271e85367142214df8b00432d533a5a584b2beed694be1b982b7b8e8ba0e60001b612633565b6124d17f010e4ef836c8323f1b11ac94bb76bbc29163205384aa84a2d9dc4df82b3d2b8960001b612633565b6124fd7fa8baab55596048ea96020b9fb409fdedf74ed1133e5b72ec3e119ae964ce022860001b612633565b600073ffffffffffffffffffffffffffffffffffffffff168173ffffffffffffffffffffffffffffffffffffffff1614156125a0576040517f08c379a000000000000000000000000000000000000000000000000000000000815260040180806020018281038252601b8152602001807f496e76656e746f72793a206e6f6e2d6578697374696e67204e4654000000000081525060200191505060405180910390fd5b6125cc7f63fffd706903801446a7efabf7df92c4d9fdada94d086ad790cd0aef24c5f40e60001b612633565b6125f87f24f73a4c85f0b800a1d1385e752f32f97057b20ddb6e8a0dc360be5906b64fc560001b612633565b6126247f705f4d31556b1218dfbe3ca5ed50e80c1f8f65216bc9ce328bbc7679108b70ac60001b612633565b80915050919050565b50565b50565b50565b6126627f7a798900079f8abfec5d8e2dbe01957da86924048545474d2e8cc4455ff9b8d160001b611e1e565b61268e7fe5e96d6f82b06fe1194e47d7e09774604275383795b69bf66729b57c43f3a68160001b611e1e565b6126ba7f1bab262e01d292ebc7268f0af663a93ea4cfca3b15a21a9bd3b88ed5d7a2575d60001b611e1e565b6126ca6126c5614e01565b6186ae565b6126f67f889c29d91f479e9e5ea327b67cd360470392306bab96df204f280c7db9ea52ed60001b611e1e565b6127227fe36810d14b53a066d2911963f7e0dcf3b24615a7ccdad7d1cdfb9eb2a23f966360001b611e1e565b81816006919061273392919061aeb0565b506127607ff608c0d0ece8312aa6b4686eba824834606e1e579f33a0c28b1a959db81b457060001b611e1e565b61278c7f0266515aefe9459e801de01c95b7c8eb072550f55c42ed42ab0afeccf3e2ab7760001b611e1e565b7f04b1dc5c136a3ce9fded8db0ce3d3366c58764ec3a8e4c2b9e52e4ddfe5ebbf7828260405180806020018281038252848482818152602001925080828437600081840152601f19601f820116905080830192505050935050505060405180910390a15050565b61281f7fa7d1de2e7fa8cd999562c97feb47e28b70c1ba3131b3ea469d0dfcad8283278160001b6111c6565b61284b7f66a4de672a3dd6260ad30988ebcb2aac2ac23800175fb88016fb21972df038e260001b6111c6565b6128777f0439a75fc217170fde0ab7c43e9e080c31b82e8b6942ea85db04224439475bc660001b6111c6565b6000825190506128a97f80b0a627cab64469d8691ce36f7045a6890a9f220e36f75b3ffdaeeaf721436660001b6111c6565b6128d57f069d4e1aacf3de565c3d878a306f6a985fb427c1ca579d00eccb295cd033230a60001b6111c6565b6129017ffebd9aca53b371a01d3553abda633dcd84155652e9f594be55576131f6c29f3060001b6111c6565b81518114612977576040517f08c379a000000000000000000000000000000000000000000000000000000000815260040180806020018281038252601e8152602001807f496e76656e746f72793a20696e636f6e73697374656e7420617272617973000081525060200191505060405180910390fd5b6129a37f3077de342a739dd036dcc4173ca21e369cd5302b43c951455f15cf6347b2b48e60001b6111c6565b6129cf7faabb06e9302f27fe3875de936b68f1d66c434333c84c5e14a01f0a1a3b2b144260001b6111c6565b6129fb7fd9793fc6376fb5aa7d66b4b1a2506dda344aee770ad92d5813ba7fc8e9e66e8860001b6111c6565b6000612a05614e01565b9050612a337fc241a6bdbc6602151df752f28d7b7d66446a8b0b8cdb9872089dee1d14d6415e60001b6111c6565b612a5f7f96a32323348f774d748eff9fdaa628828e54230a1f8c836930196cccad594f6460001b6111c6565b612a8b7fb5778c41ab3e6583befda4a4985a9797e830e4141ca3f437a0ec11e762ccd40560001b6111c6565b612a958582616164565b612b07576040517f08c379a000000000000000000000000000000000000000000000000000000000815260040180806020018281038252601e8152602001807f496e76656e746f72793a206e6f6e2d617070726f7665642073656e646572000081525060200191505060405180910390fd5b612b337faa7e5d341b808b20031104b94e12f44cedfa4a071f99f4b67c6483abf9aca58b60001b6111c6565b612b5f7f106296349740e325ea97373b9b0a4cdbcac38ed54e9bc3ffa2a068eec063fca060001b6111c6565b612b8b7f5a3cd7385ea8e621d88060ca99144434d2ebcc2bf67993b5be9f8c44b58be9e260001b6111c6565b6000612bb97f6a1d68ba84635912298d181f63ab1dce39b9b65fd6aea6ed0bd760909412e58060001b6111c6565b612be57f3db809812d4d711cfc7c1f50e312a6952358880458d25106668baf4803837e2c60001b6111c6565b6000612c137f6c235977b1f305640beb16acc61dd33f43042cf8173c72b731114f7c8b1516be60001b6111c6565b612c3f7f04cb648defa1595dd443b4ae01ca0e6a5ce847de1722266e88164c35b33af9ab60001b6111c6565b60005b8481146134d057612c757ff55ff8278f00a55080b0921ee99806c0b6eefb3fecf4ccdb74f2d5bf37aeac3d60001b6111c6565b612ca17faaa210af45720979af34553aeec9f6c447c574b99bce3b67c30db87a9163b0d460001b6111c6565b6000878281518110612caf57fe5b60200260200101519050612ce57ff42c7d54d7eaf3db409377df15faf1c0fb0d1ed428b8a01e3c459a5802de49ac60001b6111c6565b612d117f58f69a7b3218c368da4acb6a57ed92c4fc87b80e7ba9b4bd2a02b417a561e6d260001b6111c6565b6000878381518110612d1f57fe5b60200260200101519050612d557fb4d6a09844962aa535c7ea930de5c662c9f15238d4ba1cf2d87870d84e484ecc60001b6111c6565b612d817f5caabe995c6c619d73b6eea0d4e10e34d0e18ad736121b46127b41c5942cb4ff60001b6111c6565b612d8a826162b1565b15612e2357612dbb7fa03ab90c8b2ba5df343ec4fbd95ccc4911b554aca5d8b05b250eb51925bc415460001b6111c6565b612de77f41a51bd426883d7ddf9cc9efe61e9b0466b1aca5bbe5f45aee1452a98baf781f60001b6111c6565b612e137feec58818805ae8651fa0e4d26cba21244e5ec8ed4de90df44542bc2e5a555e7160001b6111c6565b612e1e8a8383616364565b6134c3565b612e4f7fa57783bd69062db452beb353e8656f7d2c23aace86550059693a241d2fc0673760001b6111c6565b612e7b7fd15ac667d9ac15cb1dccff66523138183aa3b825e72e43b1be5a666c7089d9ec60001b6111c6565b612e8482614c35565b156133d057612eb57ff60e10eb4782b3b6659b32c2b435fe4149414826d7aba3109169af09a1ef71bc60001b6111c6565b612ee17f18bc99dea02dde838368c1675a59c44dc00454bc403c92fd9a83b6b13b88f31760001b6111c6565b612f0d7f020615026d72788ce1bc3280ed743bb5c5687b28e7bf0e0ede712e3cbc36c33860001b6111c6565b612f1a8a838360016167b7565b612f467f75fe1a312811aa956356c5237882dbc86ac70a513e23e30d79757356ac5950dc60001b6111c6565b612f727f794b6a5300dd132fe2120301da0a5cf1614d64dc8703b670c80bcf75d26fa45d60001b6111c6565b6000612f7d836187d2565b9050612fab7f3c4da757099d80be542fb2bba0d4d5aeb51759b1b6882b7fd499e4393b2e147d60001b6111c6565b612fd77fe5c6913592b828e5bb68a0a78c24381daf0141dbf328568ef2a942a58a777ba760001b6111c6565b60008614156130c85761300c7f0f26423a0b38685ae4605b8b5a6037652e924c4fdb1fffdc0d445b0b6352508360001b6111c6565b6130387f038df342db5a2a8877a882f1a21336612d42f9348434988bbade6dd96c7e82b560001b6111c6565b6130647f6efa0c1d0e2d8f3c3b10b99989b2fc5ba6b973653121614f54d9df48dcd7f70560001b6111c6565b8095506130937fbcb470252ad5728b6c107fde6989291592486383e31988921c8c4664d2ac962d60001b6111c6565b6130bf7f60f5c9b598fcb542e3f3f41756c91d41d3122f30eef405d33865aef2f12f90ad60001b6111c6565b600194506133ca565b6130f47fc72e6cf887e5fcaef8db50e0eef74a056ce3d40ebc5f2437b0e63d6be635398e60001b6111c6565b6131207f71426a8d9c7a526a7193110df8957d9903cf72cc4b0d25222b5930cf86cb965d60001b6111c6565b61314c7f1076a51992d1d2a500c689b017910f7787b25ef32db8d1c42f3f80fba46d902f60001b6111c6565b85811461336a5761317f7f53d6842134ca70fc6727da5f2e800bf1d624d37f8dda263c6f1d00dddc78636560001b6111c6565b6131ab7ffc0215b38a34e21da88016fe0fb8ab4c6694e130b1a5df422c23b3bd9c30bc0560001b6111c6565b6131d77f35855c6408d99795c0e5a7ee957529bf30cd3ccdd60fb6267ebbb2cd30bbf8d260001b6111c6565b846001600088815260200190815260200160002060008d73ffffffffffffffffffffffffffffffffffffffff1673ffffffffffffffffffffffffffffffffffffffff168152602001908152602001600020600082825403925050819055506132617f195eab048701f7fd6d1e51b4ade39628a1241481d77ee8b62ebb845d41c79bdd60001b6111c6565b61328d7fcda032003db19e54983c96ec19f45c2fb23ab42708e18ce53750b7169870a61360001b6111c6565b8460026000888152602001908152602001600020600082825403925050819055506132da7ffb9388ed4a30d67847f98a59c93a4f73ff97be921213676660d81d57cbd3feea60001b6111c6565b6133067f67f9db68e8b7372b15e653113abca97f2d54fd6f4f08527b6392168249193c4a60001b6111c6565b8095506133357f6846458d9b0f5f0e33cb89c3d311f48395e7a81a4f21e2aa34bbf415439948ac60001b6111c6565b6133617f8357efdf83552ccf19cae1d481bae5f4ff3be584b61aa70b51245022a12ac1fd60001b6111c6565b600194506133c9565b6133967fa9a239fe689ec7d7a96c65516a76db7e4a2863f8f764b514dfa8dbe55738a63060001b6111c6565b6133c27f6592e18fa5711fce8abb7f7b14ca6c95039aea0537f8b4db270ca7045c7f6ecb60001b6111c6565b8460010194505b5b506134c2565b6133fc7fa1f709e86496c874ac8e1ebb6c00c59a41c7b61aa108778fc507dc1a548fd5b460001b6111c6565b6134287fdc694eb60f592ae8fc8173eb1e136d8f7f6e71cb8cba9b958a8f7b2a7ae5ac1560001b6111c6565b6134547fd31b52c4f07ec068b013b30f12c2d1ee75636020b99ce4ab97127694a058b0a560001b6111c6565b6040517f08c379a00000000000000000000000000000000000000000000000000000000081526004018080602001828103825260198152602001807f496e76656e746f72793a206e6f74206120746f6b656e2069640000000000000081525060200191505060405180910390fd5b5b5050806001019050612c42565b506134fd7f145d491e516c1ec1ceb77130d46c613e57bc5e8081249b7c414a7296e26c56d160001b6111c6565b6135297fc81e434980c0d00725b9cd0bf85b433b78087ed613817ea2a313f96b0f59932260001b6111c6565b600082146136915761355d7fb46baf87544cc44924ae0a416affa0f444fbd621754a7b56c5a5825bfbdb634e60001b6111c6565b6135897f5189bc121cd2fc030a83c73b4664920614c4ea4ed00e94242bb5b99f947881b960001b6111c6565b6135b57f373539746bb090e1e3354d9140b8fe7a8c8c5ebebd495c73b05e9a410e27b41360001b6111c6565b806001600084815260200190815260200160002060008973ffffffffffffffffffffffffffffffffffffffff1673ffffffffffffffffffffffffffffffffffffffff1681526020019081526020016000206000828254039250508190555061363f7f8e268fb61701576d1531ad0e173d83c4f8a345f2ff9e51cee0d9ec2cfd69493e60001b6111c6565b61366b7f26bf5c13f5bd9a3e662f25576ed58cd190cd5af3222894ccfbb47167c611c43260001b6111c6565b8060026000848152602001908152602001600020600082825403925050819055506136be565b6136bd7fc16256298f4ac5a98f61bd96894540aedd2ae405509534ee9438fbca3d6a396060001b6111c6565b5b6136ea7ffd09b5b7d59779b965b906806257f3b251de192aa23cac6ebc267c765afb2bfe60001b6111c6565b6137167f5bc080b3afabb526e3182fc5758b0a8e8eb0e9317729149f8d438d83a5502cee60001b6111c6565b600073ffffffffffffffffffffffffffffffffffffffff168773ffffffffffffffffffffffffffffffffffffffff168473ffffffffffffffffffffffffffffffffffffffff167f4a39dc06d4c0dbc64b70af90fd698a233a518aa5d07e595d983b8c0526c8f7fb8989604051808060200180602001838103835285818151815260200191508051906020019060200280838360005b838110156137c65780820151818401526020810190506137ab565b50505050905001838103825284818151815260200191508051906020019060200280838360005b838110156138085780820151818401526020810190506137ed565b5050505090500194505050505060405180910390a450505050505050565b6000600560009054906101000a900473ffffffffffffffffffffffffffffffffffffffff16905090565b61386061385b614e01565b6186ae565b6138698161886c565b50565b6000613876614e01565b905061388181614e09565b6000600760008373ffffffffffffffffffffffffffffffffffffffff1673ffffffffffffffffffffffffffffffffffffffff16815260200190815260200160002060006101000a81548160ff0219169083151502179055508073ffffffffffffffffffffffffffffffffffffffff167fe94479a9f7e1952cc78f2d6baab678adc1b772d936c6583def489e524cb6669260405160405180910390a250565b61394b7f34732ceebdc52a7f71c399e1e4d2d8e8967290fc9cb560ddb0e5ab04e3507aef60001b612633565b6139777ff9774cb0c37c351161667d5d72cfc0c37222a1986aa4550c19d2c98b935fbf3e60001b612633565b6139a37fccc52dbfd478828a56c25cc1097267b6677c2bcbd5d75cf77657cd5aa20c72c160001b612633565b60006139ad614e01565b90506139db7f82a9d9fde572139c38993f27a8d450e1efff334f0cc809aeaed412204a09634e60001b612633565b613a077fa90c71e25fcd1aafe00e3f26547e2cae8984da5e87b3dc7ae90ab1df13441f4a60001b612633565b613a337fb59e257435a88d73710629598c67988192f29d14ea6795be29ef74349d355f6360001b612633565b8073ffffffffffffffffffffffffffffffffffffffff168373ffffffffffffffffffffffffffffffffffffffff161415613ad5576040517f08c379a00000000000000000000000000000000000000000000000000000000081526004018080602001828103825260188152602001807f496e76656e746f72793a2073656c662d617070726f76616c000000000000000081525060200191505060405180910390fd5b613b017f147c5aa85b8670cd996c7334ff0798f120c24587bd6f9dc2232e3045db8a2ab360001b612633565b613b2d7fd4ba31ae6a373fd24f0d64bca8fb4bde7cf4f54c2927497a145c6e405557e3e460001b612633565b613b597f6c50940c7beff3e09095224cf62c532aa494dc43d0dea63ce6fd98f7cbca994f60001b612633565b816000808373ffffffffffffffffffffffffffffffffffffffff1673ffffffffffffffffffffffffffffffffffffffff16815260200190815260200160002060008573ffffffffffffffffffffffffffffffffffffffff1673ffffffffffffffffffffffffffffffffffffffff16815260200190815260200160002060006101000a81548160ff021916908315150217905550613c187fe20b5c78afe32fc86519d4631729cf759c1a124c18ffd672b254d1e5585c8ddb60001b612633565b613c447fefdc2b84f85ce5cd5e3ef7fabfbd5fd91fa2963800387ac4470b8202d5615b8a60001b612633565b8273ffffffffffffffffffffffffffffffffffffffff168173ffffffffffffffffffffffffffffffffffffffff167f17307eab39ab6107e8899845ad3d59bd9653f200f220920489ca2b5937696c318460405180821515815260200191505060405180910390a3505050565b60076020528060005260406000206000915054906101000a900460ff1681565b6000613cfe7fd465c97e937629553f416390347ee48d7a2652b9b4d28d262770397e2a2f934960001b612633565b613d2a7f0d585b43b8f40b04d20e2ee1432602c497c163c560eb5d234c1c901006d4df3160001b612633565b613d567fa6efcbddf128b8fff39f0fcca18708a4cf6a9c5a4d31987f084e50899d4a6dd660001b612633565b613d5f826162b1565b9050919050565b6000613d947fc16f3a5f3f2c4b29aff86ea8e86ad1ed28b83e12b107ead011fd7833bf93f81f60001b612633565b613dc07f96cd57563f2de36a61d9b57fc8bb7a178810bd3686fc54f98458cb8fbe0993bf60001b612633565b613dec7f4b68d57dff2bdd9aa117ce563cf0a1dd2cca6d9b9437a27a4c923c01104684a160001b612633565b613df582614c35565b15613ed957613e267fd416321ad2103bc45f54755d6c9ca363184802e92d6683071358680ad403b6b360001b612633565b613e527fdc4054968d062c36cbfa807ba67102c728c181681282ed58e087bb57ce4689a960001b612633565b613e7e7f42a214d4538e339edf25f40db32acf925d7568cc7b3e47f60fea0a9516eec69e60001b612633565b600073ffffffffffffffffffffffffffffffffffffffff16600360008481526020019081526020016000205473ffffffffffffffffffffffffffffffffffffffff1614613ecc576001613ecf565b60005b60ff169050613f73565b613f057f137978bcb5a3c8a9f4874639688cc46a704ed33eab2a45dc6d3049917d7f86f060001b612633565b613f307e8809a2f29e090ff9eebab17268f1f71d9a90e6c3c768cdc7a24a88a22881f260001b612633565b613f5c7f5dc8b6984f6537373034b03d292f2fcd5886e0d4633d33863371ad3352726f3b60001b612633565b600260008381526020019081526020016000205490505b919050565b6000613fa67f81c8ab7023ed4397c44c423bed6e3c778dd49871137e2ab7ae51a55606d8f71860001b612633565b613fd27f8a16d585cb2a38a85b8a102387536c8fb7b695abc20fada8de556735972e0fe760001b612633565b613ffe7fad4c4ebc563d16d70ceb980dc04bd442f598de6b76f4f4d6fa77815bdf0f054460001b612633565b61402a7f984bea0301f807a770c96842a160eef37b39faf5414242e6c86cfc76c00b4eef60001b612633565b61403382614c35565b6140a5576040517f08c379a00000000000000000000000000000000000000000000000000000000081526004018080602001828103825260158152602001807f496e76656e746f72793a206e6f7420616e204e4654000000000000000000000081525060200191505060405180910390fd5b6140d17f9e5e4b2cf822da6080a88df2e94b694dba2e04c5f1714a91ecd47093d220dd9460001b612633565b6140fd7fb71356143b29567f1ba90f31825796336cabe05f430309a8e1b7eeac025b787a60001b612633565b6141297f696d0584512dffb7df7a918b0dedd012d98f5d89524a8ff9d53278208efa0a4c60001b612633565b614132826187d2565b9050919050565b6141657f988bcb97b7e633a122ca67051af3efa220f0186d45c8305e850c1748438ab64b60001b612630565b6141917f92e963243c57bc763f478f8edb8fe121deb25916e1e5984df376ea9629d794de60001b612630565b6141bd7f14a3bd9ac04f72d427aeed614c566e6e69df85c84a05be161232ebd513f1e43060001b612630565b6141cd6141c8614e01565b6186ae565b6141f97f8610f0fed9959de94bcb8d374e9dfcf63c158ea586b9cd35d3e3c9331ce8ea4260001b612630565b6142257f2b9d39220dcd2161ae1819724c9e90bd76a43739eb8367a49c7c6748d232963760001b612630565b61422e8161890a565b50565b600061425f7f9674b06b6a2ed61fbe38e3bed653a71549a2afe1c104d4ab2343216c90d7074d60001b612633565b61428b7fa811103c24c22b7135259f3f2fe477260c2d7240bbde654094a51a7254dacef960001b612633565b6142b77ff89862dd6989fcd744184778634eea3c6a4a17909e701ba0f6f8fe5c32d8eebb60001b612633565b6000808473ffffffffffffffffffffffffffffffffffffffff1673ffffffffffffffffffffffffffffffffffffffff16815260200190815260200160002060008373ffffffffffffffffffffffffffffffffffffffff1673ffffffffffffffffffffffffffffffffffffffff16815260200190815260200160002060009054906101000a900460ff16905092915050565b6143747fd645fe010437bdbec33269133f39992a7b13d69b7d8b3ab6e90b11a7e669da1f60001b61262d565b6143a07fcd08143a66896b7f17455630656fcd85fe16b1c3c549d59339537d0287e2807a60001b61262d565b6143cc7fc48fe77c0332f3658fc7c77c70179f7c7907f332bfbbc4af74d054863c42a7ff60001b61262d565b60006143d6614e01565b90506144047f843948cbf0f0e8a22ba919f6c8821ad50e50f0edfd362775f06d63d9c20b8cac60001b61262d565b6144307f9763f7158fc38368f9c388637e3bbb63fc30f2e81070642516b8cdcb2844034e60001b61262d565b61445c7f3f1eea4685a8405e354c9266c4c3bbe05f26005178ecb29dece99b51fd97571560001b61262d565b600073ffffffffffffffffffffffffffffffffffffffff168573ffffffffffffffffffffffffffffffffffffffff1614156144ff576040517f08c379a000000000000000000000000000000000000000000000000000000000815260040180806020018281038252601b8152602001807f496e76656e746f72793a207472616e7366657220746f207a65726f000000000081525060200191505060405180910390fd5b61452b7fb86507be55397dc4d03b5374df6c2af9e03489d38a42883f95264db5c2d241fa60001b61262d565b6145577f35975c67eaf13d051c1d90cee750704b4a20862ef635f25eb5fa43a9b29f9c0d60001b61262d565b6145837f3e35ba83f58bacc4fe63cf78fcc137e13bbce18ad327391b11f1e4127b642b4b60001b61262d565b6145af7f2b896bfdb1730fe97e0c422c5f42c8abf88e2e66a8b9f3edbd9a02eac6885e7060001b61262d565b6145b98682616164565b61462b576040517f08c379a000000000000000000000000000000000000000000000000000000000815260040180806020018281038252601e8152602001807f496e76656e746f72793a206e6f6e2d617070726f7665642073656e646572000081525060200191505060405180910390fd5b6146577ffcb3e5efa050597719eea45fa5e158750289f6965bb10a59c1f7a7a4d3a3ac5560001b61262d565b6146837f3435a84105d5cef47f6dfde265dc50fa6f164ce8251cd4b18e76bfc217db39c960001b61262d565b6146af7f9bd56d35733a424a30a6af12d74157d60f593670a1248f5698151ea1f057d66060001b61262d565b6146b8846162b1565b15614752576146e97fa5400acf862c526a196ffecb2f16dcf55cd94e6c384f6ba10fe9e5845ef4e61a60001b61262d565b6147157fd1364d0795c067a6f94aa37d6b0ca5f34f7942bab72835eb63690f1ae3fee6d860001b61262d565b6147417ff6fdf3ee1092e9f9862974d225e2e8097512b843ab8b5f421c09a39cb5d5d32860001b61262d565b61474d86868686618d2b565b614942565b61477e7f3aa94faa2403dd7cf90dc67b20abe0bcc666c44be565154476a752d659b2121360001b61262d565b6147aa7f3286510daa7e3638cc6cd88e41a305e0c9adc1014362bbe5d0e8c9d01a62dc2a60001b61262d565b6147b384614c35565b1561484f576147e47ff34f3fc7c83ab3b439f8e04ee7538d1690469c22281ef4d447360ef72db26b9760001b61262d565b6148107f10721a847556f1f994ad1f903356624edd8b40a0cc06109b17f23c1ac321758960001b61262d565b61483c7f6c5cf030c1d23ab976a7fc4dc8db17ecd20a7f8a5cf7147808b7944f3f9c860760001b61262d565b61484a8686868660006192a6565b614941565b61487b7fdefe52f70fe706cf252ffd556d552a4f2e07e54a83968b9bb62421d09651ad4660001b61262d565b6148a77f01f95fb96953ca8930dbfff6af525b7d32aa1b0ba4e26c15cc607883f5f0bc6360001b61262d565b6148d37fb43d70b40494159fc087b7e5403c89c49cdb6bbe145bf4416523ddea514c29a660001b61262d565b6040517f08c379a00000000000000000000000000000000000000000000000000000000081526004018080602001828103825260198152602001807f496e76656e746f72793a206e6f74206120746f6b656e2069640000000000000081525060200191505060405180910390fd5b5b61496e7f29a29aaeb0681e28ca338f32514942036d9eec864005f54883bab31151acf54560001b61262d565b61499a7f9e234d03ff65b0fdafe0203570b266e0e626d1b31be1d7097161c084ac1573fa60001b61262d565b8473ffffffffffffffffffffffffffffffffffffffff168673ffffffffffffffffffffffffffffffffffffffff168273ffffffffffffffffffffffffffffffffffffffff167fc3d58168c5ae7397731d063d5bbf3d657854427343f4c083240f7aacaa2d0f628787604051808381526020018281526020019250505060405180910390a4614a4a7f1d3b1527cf8b058b2855e84945b831d6103d814b9441f1aac72aef715ca2811960001b61262d565b614a767fb35f00847fe51686c5615441fef832de130959a9933757d469d676061ab8a04860001b61262d565b614a958573ffffffffffffffffffffffffffffffffffffffff16619876565b15614b3057614ac67f25fb2085633f348d6226d7b1c66722b2964a03af8ede080b75783a030044d09260001b61262d565b614af27f014251b8af2bd8e875876690ae884f7d3ace3dc88b5ccf00c25940b70ec9156060001b61262d565b614b1e7f245cc365a95dd18e3026316678c94f73b6985d8e455328c14e227ad505cddb5e60001b61262d565b614b2b8686868686619889565b614b5d565b614b5c7f7ec8834e3545dc4ee9a2c0b6fd71579087334ae57c27768f7eee0181682cda7c60001b61262d565b5b505050505050565b614b75614b70614e01565b6186ae565b80600560006101000a81548173ffffffffffffffffffffffffffffffffffffffff021916908373ffffffffffffffffffffffffffffffffffffffff1602179055508073ffffffffffffffffffffffffffffffffffffffff16600560009054906101000a900473ffffffffffffffffffffffffffffffffffffffff1673ffffffffffffffffffffffffffffffffffffffff167f8be0079c531659141344cd1fd0a4f28419497f9722a3daafe3b4186f6b6457e060405160405180910390a350565b6000614c637f34132617af8b225325ec7c6c99e2b1f7e44918f71421c8ed2b0daf4f0f34213560001b619b6b565b614c8f7f8edfd9cbebb4b71e5bf47d7f6cba8bc37edad7de6044e60855d350bc64ce4b0760001b619b6b565b614cbb7f7bb7f22d99fef8285f8b5e26f441a1c5ef7db323c1b8d505d10886dd4868038060001b619b6b565b60007f8000000000000000000000000000000000000000000000000000000000000000831614158015614cfc5750600060e063ffffffff8016901b19831614155b9050919050565b6000614d317f05f479fca9641769183625e305783bfca0aad822c17ead010ca39e1bfdf972a460001b6111c6565b614d5d7f1e11e0ac7f994ab78fe1419bb90857f0d80ba9a1ea66d33cc01a282ffc37969260001b6111c6565b614d897f5384f866235becac6be707c4b123181d56babf46c79518d087b7b5b900cdbe6460001b6111c6565b7f921ed8d1000000000000000000000000000000000000000000000000000000007bffffffffffffffffffffffffffffffffffffffffffffffffffffffff1916827bffffffffffffffffffffffffffffffffffffffffffffffffffffffff19161480614dfa5750614df982619b6e565b5b9050919050565b600033905090565b600760008273ffffffffffffffffffffffffffffffffffffffff1673ffffffffffffffffffffffffffffffffffffffff16815260200190815260200160002060009054906101000a900460ff16614ec8576040517f08c379a00000000000000000000000000000000000000000000000000000000081526004018080602001828103825260188152602001807f4d696e746572526f6c653a206e6f742061204d696e746572000000000000000081525060200191505060405180910390fd5b50565b614ef77f6700660d93b484854af68f889d264763820fb2af0fb4edc61b07a315fe26aa1560001b61262d565b614f237f5bd6129e65da59d78cb0ce5c45bf78f1bd92634397d7e2411e761970028d5cf660001b61262d565b614f4f7f4d839466e5428b3055b2be5c126038ca8c298193d0ab0f8e4f4a10a174ae0f9d60001b61262d565b614f7b7fdb60f11157e73e964425be9411bee6167484815df11a9ff62be6449615bdcd5c60001b61262d565b600073ffffffffffffffffffffffffffffffffffffffff168473ffffffffffffffffffffffffffffffffffffffff16141561501e576040517f08c379a00000000000000000000000000000000000000000000000000000000081526004018080602001828103825260178152602001807f496e76656e746f72793a206d696e7420746f207a65726f00000000000000000081525060200191505060405180910390fd5b61504a7f791b95c1f7d1d133343d78f1c637459ee10497a5eaf07f625fe6c62c699042e460001b61262d565b6150767f5c4ed1eec96f77254958fd800792bb1c0996f119e27f58ae205317dd10b37fed60001b61262d565b6150a27fa3f0bab629bae3d016c40f068faa87dfcdc5543ffc912cf06f4472a272d8d62160001b61262d565b6000835190506150d47fe03be9d8518964d3eadd13ae0287905c9b9d38f4c03e7539120d0af81acf186a60001b61262d565b6151007f828aa85860f080e6deb70f876f6c48355f9d69e117869e4ae8f8ef13839b420460001b61262d565b61512c7fe9fea543400e6d2b0ffcc9f1eba2d39a9cbc61f9af727c2fa46b9f6a8935c7a660001b61262d565b825181146151a2576040517f08c379a000000000000000000000000000000000000000000000000000000000815260040180806020018281038252601e8152602001807f496e76656e746f72793a20696e636f6e73697374656e7420617272617973000081525060200191505060405180910390fd5b6151ce7f6c4f4a585df428af384770ff601d96c5db88c91bd8fc6a6bbd7147964984feef60001b61262d565b6151fa7f63c1f5d2d718cb3dba697ce2e9902967a0d286da991f1603f189de954999a39960001b61262d565b6152267f9eef8ae2e8f10b2e8d65334402992d1a229315d4f8acf5a36e84272da2ed57b860001b61262d565b60006152547f7883985336e616a9286db836f1c7df9a2b01249ab7a189be5b89d9b915a5aee460001b61262d565b6152807f5897fd052ebdf89bd9b7e7cfe6266e930f9cde2323f7a291a3cb730e059232c160001b61262d565b60006152ae7ff39d8f3374289f9bb655d87db5088be8f003e0b0c03a5c84d1eba57e2a81291160001b61262d565b6152da7fc6e1cb35e4e8e6e171afc8a68faaa62dbe1cb129c4a05b2576c7d7ee845ba8f960001b61262d565b60005b838114615b6b576153107fb43af46d0c09bc88299f11def0da1460c9e69119ef2a903bfc7f7f5fdb92651c60001b61262d565b61533c7f7c924e271cf314ee7d4977810d266b586ebdb0a42bb9562891785887a1fce3fd60001b61262d565b600087828151811061534a57fe5b602002602001015190506153807f41883d9bd3fda239b783093f6968afda992a41d0d3bfbe3e1109318f17fe058260001b61262d565b6153ac7f15a3ff3a570937c892b2f81568026f02ba454d66d0fdca7a552f8aa928deafc460001b61262d565b60008783815181106153ba57fe5b602002602001015190506153f07f927ee8ac1c6cc526b0b99b1a533978c607db2f7def856883ca6b7e27e324075260001b61262d565b61541c7f779d4133f41aeb70a6581c84b883bd216332adba5fc796ddc8a282d76e7846d660001b61262d565b615425826162b1565b156154be576154567fd2e6c7a98d4b196150d1ba1fb2490f389932eb2426c94980c80c4e8db2ebdef960001b61262d565b6154827f4c2277e1d493a54d9a139e6788d0535495cf27bb5426eec888ca67f3c2178aac60001b61262d565b6154ae7f5ccea91ba949d4ed69b00ac04363bf77b87de50cccb0d2e51ae27f042ed0343360001b61262d565b6154b98a8383619dfc565b615b5e565b6154ea7f723204f1e67687ef4ad0eb7873f8aa3bf693e2e950d11d8fb5e7cd594974618e60001b61262d565b6155167f0fc2840b95168c9049cffff9aa674b1d3b08d902721a86a9e9c1d29b619b73fd60001b61262d565b61551f82614c35565b15615a6b576155507fc45d7edd6627210b10644954edbad9da218591302c11277dd1741e69e17cf45960001b61262d565b61557c7f6b26124929376cb670e94b2ce2b91060604923d0ceb5324a471f5748d6dd31f960001b61262d565b6155a87fcd95fb4414df557f4e12538eaa8ada3aeec3be19c80c8b4cd8193056f300058960001b61262d565b6155b58a8383600161a270565b6155e17fbeffd02362d9d684aff1c960f287c9d27a69b8fd3c4dd3ff159b21ba76745b1660001b61262d565b61560d7fed85f8ddcc088ccea16ab3c18131cfb01378f98d651b7677429999eabb8884b560001b61262d565b6000615618836187d2565b90506156467f6c5fb955aeec0153f9fe5debb020babe17fd63ba78cb8a4379df2a7f9f76295a60001b61262d565b6156727fa0c3717bce3e8ba52dc248f5166ae46c65bbced064e8ecfc46212652d256e4fd60001b61262d565b6000861415615763576156a77fb7d9e4b268321e02a87cd160ca499af1fc71395104e90edc99731911fa4d6dd560001b61262d565b6156d37f74d6d0117120b74e99901cef6f2fbd7be4191a28d3accba8a9dad416f6b1e5c160001b61262d565b6156ff7f87651667b8fe2b9e040f770fd3af14593e80b5d4d9ca1684a124318991176fcb60001b61262d565b80955061572e7f2299c9c5132909eb922495f959d8cbdb203449c84536652216d5fd6a17ac0bcd60001b61262d565b61575a7fa7a7dfec0a46a8cf437062296d0b800a457a23aca23ce7e6e9cc10b2cc0ad4d960001b61262d565b60019450615a65565b61578f7fea21271e6db0ddc633145f6b455d2d2beff36ed2e9404a4f87ae1b472c84e5fd60001b61262d565b6157bb7f84bcfc18fd32795a750f054e986c420e5d27da38935831bce84e0951fe7e7c5460001b61262d565b6157e77ffef5891aa847a4b18ab955b0bbf2c02bf6f3088a3cde18ecdf9a76902bc5be9660001b61262d565b858114615a055761581a7fc61ed90049fcfb5ab545c2e2a5cf21b447c51c0fe51327b89054371e0673139b60001b61262d565b6158467f1cfff04d8b1e2342258659922e6f8ea1e708eaa3686f0c98f01dfc338f8c108860001b61262d565b6158727f3ae0a823fc8ebd40c27875d562fd3e81360f68330b490f6b5af0f47fa720b74e60001b61262d565b846001600088815260200190815260200160002060008d73ffffffffffffffffffffffffffffffffffffffff1673ffffffffffffffffffffffffffffffffffffffff168152602001908152602001600020600082825401925050819055506158fc7f26d9a9aedf916254dba02040561e23bdc20b852adf2466a1ce08dcd82b8267c360001b61262d565b6159287f9e3e62c72232685e2774f5374eb8e49175580af6de45b29efb64759e55afdb4060001b61262d565b8460026000888152602001908152602001600020600082825401925050819055506159757f0458c9a94f05050b78906a900cd3097726cbfd02a359ec2d43712eb65752555660001b61262d565b6159a17fe67fe8c2e479626cc77270c70361e81163a3efa45f31d746f505b7cb69cb395e60001b61262d565b8095506159d07fb1cc52840c28efb815393729e3f33358c2b8e41a42b3738075db2aeca725b0e760001b61262d565b6159fc7f9469ca2c61174d960ba44379853fb7b299aa9447796232ddc922d87f5deb620560001b61262d565b60019450615a64565b615a317f8bb1517cf079deb1e546709c52f212229fc32ca2a8c5a843d8211da956e4866e60001b61262d565b615a5d7f083ea04efc0aa65c7bf7b83757ca0f96dc5f6e2fa4e5e4f3c48714bb75355e3b60001b61262d565b8460010194505b5b50615b5d565b615a977f5533219017ce1047a62adf26f2c78ab29ebb932f7994f3e87b33fcdc1cb16a5b60001b61262d565b615ac37f68e338e06e7dec5ee7157a476331faea186c964045a60a766aec91ccc762946960001b61262d565b615aef7f3027732cb047dce34e18db26a6e153f76ee677243647120c6130f312c1762c3560001b61262d565b6040517f08c379a00000000000000000000000000000000000000000000000000000000081526004018080602001828103825260198152602001807f496e76656e746f72793a206e6f74206120746f6b656e2069640000000000000081525060200191505060405180910390fd5b5b50508060010190506152dd565b50615b987f65644c4d2e4c08d4824d5b7a87bb3974f1f904bf9549f327537080a60d728ac560001b61262d565b615bc47f6983a6e3d17583211fc1de524cb0d8b49cd56a89a40b39fb014d79d6143bdd1960001b61262d565b60008214615d2c57615bf87fad16be3ed980bf75375e4be7e49921a2f39c09dd53056a65c4ce5745beed8a0d60001b61262d565b615c247f93cedddb20ec9561d9be94a010337c09cac9d697d5432a280766c26b25a2860960001b61262d565b615c507f0c16a366d584469c5aeb300cb57f8c59185da8dfc0e193688b3ff9b54850a79860001b61262d565b806001600084815260200190815260200160002060008973ffffffffffffffffffffffffffffffffffffffff1673ffffffffffffffffffffffffffffffffffffffff16815260200190815260200160002060008282540192505081905550615cda7f1f6319db9690dd17e536451c501ee6bae3bf61155d2b2697d427410791eaaa2560001b61262d565b615d067fb9e99dbf2c113c0302e3445dda46eff2db43b3acfbb1519e2dd0b94e9432475360001b61262d565b806002600084815260200190815260200160002060008282540192505081905550615d59565b615d587fae23a7cac386171adf829e6b1d579ab63bc8138d7fa816ffc953754e51d10aef60001b61262d565b5b615d857f15335371cd1886ae05102eb5013e5bf8bcdd10acf1d5102e53ac4bde3c879da560001b61262d565b615db17f6ed287746541748aa94abb9730e194820a8d9ecc0d9926445c36dcafe9fb99e660001b61262d565b8673ffffffffffffffffffffffffffffffffffffffff16600073ffffffffffffffffffffffffffffffffffffffff16615de8614e01565b73ffffffffffffffffffffffffffffffffffffffff167f4a39dc06d4c0dbc64b70af90fd698a233a518aa5d07e595d983b8c0526c8f7fb8989604051808060200180602001838103835285818151815260200191508051906020019060200280838360005b83811015615e68578082015181840152602081019050615e4d565b50505050905001838103825284818151815260200191508051906020019060200280838360005b83811015615eaa578082015181840152602081019050615e8f565b5050505090500194505050505060405180910390a4615eeb7f7922a41f72565e54f53e5379bfc00f5c6cbf4e09469e7f370e5664edef0ec5ba60001b61262d565b615f177feec1130d9b40a824b48ec23c04cf519190f43454145c95cd16fcc98f47a7fab560001b61262d565b615f368773ffffffffffffffffffffffffffffffffffffffff16619876565b15615fd257615f677f0b9df8521bf5a1113ff37a02ba191671c9c4cab58cb5a757e51ebdf859b3381760001b61262d565b615f937fdb514322cc88acf699f3cd1c6fb9a35bc9260c71a5281d1b7d08070d1d987ed460001b61262d565b615fbf7f1ec0d02e4a7a53587f7f9afd69cbb7dd51cc47b44464e167469b4255c25a3d2060001b61262d565b615fcd60008888888861a77e565b615fff565b615ffe7f64f724c74fd18e7a76f1a1b3576c48fae0887cf245441f21d5fecab6696ca3b160001b61262d565b5b50505050505050565b60606160367f1c9aa8b0a38f069e1470ab73c22da607a105214ef5de328816e9d32a1e8b441b60001b611e1e565b6160627f5170b3391e3dcb54efdddd1865c65f8bcdfb112f0c2230607b93231388faea7b60001b611e1e565b61608e7f378669c14060759ae4c60ec9f0fc205bcc45a295b03ae0f63f92feae3939ea1460001b611e1e565b60066160998361aae2565b60405160200180838054600181600116156101000203166002900480156160f75780601f106160d55761010080835404028352918201916160f7565b820191906000526020600020905b8154815290600101906020018083116160e3575b505082805190602001908083835b602083106161285780518252602082019150602081019050602083039250616105565b6001836020036101000a038019825116818451168082178552505050505050905001925050506040516020818303038152906040529050919050565b60006161927fbef1f6d4ed47d8fb8fde13273dd3e8ded7170677c02187128f79a95074928c5a60001b612633565b6161be7f4630da60d0bc146c9f7ef54ba5419e160cd2b424e8ccf6d36f0d9fd7429bd27460001b612633565b6161ea7f4fc2580459b215038ec393a5b3cf27680af65e9e743306d461e626614ba1fc7660001b612633565b8173ffffffffffffffffffffffffffffffffffffffff168373ffffffffffffffffffffffffffffffffffffffff1614806162a957506000808473ffffffffffffffffffffffffffffffffffffffff1673ffffffffffffffffffffffffffffffffffffffff16815260200190815260200160002060008373ffffffffffffffffffffffffffffffffffffffff1673ffffffffffffffffffffffffffffffffffffffff16815260200190815260200160002060009054906101000a900460ff165b905092915050565b60006162df7fed9fc71c744ea71b9cf2ba55c2d494233fcfb712960f41109307a90a60776ee060001b619b6b565b61630b7fb675b7f5d29b89e9c6850a2a0844fae122e658d730f820598fa14bccdd3a6fc160001b619b6b565b6163377f62b30ea66711399f1be3918d0096d18aa951fee6b06119bef078df6ff41f2d3160001b619b6b565b60007f80000000000000000000000000000000000000000000000000000000000000008316149050919050565b6163907f233c708f7fbf2b62ed4e78c9b8dc6dddd782e9eb52e122b6c9c0c61faebf033860001b6111c6565b6163bc7f9de597e743318b3ecada2e319636728f4436d7c0796d7d9aed79134270f9d84360001b6111c6565b6163e87f24e0fb78805c70b80f6e9d10ba1e54503bf533f7a4e27417c54f1d6fbcf9a5e460001b6111c6565b6164147fd3d6d3192a6674fae3477e88a9c60605a6a171a48b8c233fa0a2f2af66edc86060001b6111c6565b600081141561648b576040517f08c379a00000000000000000000000000000000000000000000000000000000081526004018080602001828103825260158152602001807f496e76656e746f72793a207a65726f2076616c7565000000000000000000000081525060200191505060405180910390fd5b6164b77f2ad142f82ccbfd96fa65e34a808e69670fe4a2c8efa73ac2ac9cf109a88a721660001b6111c6565b6164e37f6e5991b40721fb6e543b2b6cf53c85639fe0b9ead2f371917665b0568ce80ec760001b6111c6565b61650f7f30ee329b19a78c0689992c2e335a2e8d4e829b4b5a9ddc85658761516d6c17f760001b6111c6565b60006001600084815260200190815260200160002060008573ffffffffffffffffffffffffffffffffffffffff1673ffffffffffffffffffffffffffffffffffffffff1681526020019081526020016000205490506165907f336813281b1fb1d739496452a1fe238810cda002c8160bbd6e54290e4923e8d360001b6111c6565b6165bc7f79bf35947fe785ef4a18f9e180e264ce5e9b6c221df50341407c837d9f1f6f4260001b6111c6565b6165e87fffaa49bac4460fb251b74a70235ea5c4e71eaf5b6d3b114943c8e5013815134260001b6111c6565b8181101561665e576040517f08c379a000000000000000000000000000000000000000000000000000000000815260040180806020018281038252601d8152602001807f496e76656e746f72793a206e6f7420656e6f7567682062616c616e636500000081525060200191505060405180910390fd5b61668a7f2982d1202a3f14e2501ddc63be8c52c99b0ad7d73703197e83e5ded32c8d264460001b6111c6565b6166b67f09bacef1f6a07f4b4b4a88300d1966a35c57f6be1b02394b2f74eb0648ab52f160001b6111c6565b6166e27f4115be2c2568bb1ce630c9bf107aeb434d7607eabbbc3f64df7369e6b9a9a34f60001b6111c6565b8181036001600085815260200190815260200160002060008673ffffffffffffffffffffffffffffffffffffffff1673ffffffffffffffffffffffffffffffffffffffff168152602001908152602001600020819055506167647eb7baa4d193f0c82c5193e915e29eeefd26e2efe7ba131fa91e279958ceb73460001b6111c6565b6167907fd0ba9520d68877f0071bfdb3fa19d7f7792ee80d902b665535e19c7983f83aaf60001b6111c6565b81600260008581526020019081526020016000206000828254039250508190555050505050565b6167e37fe676cab8c179720a9ffbe959d047c7f5bdce4f077cd3bbb19e92ce23b8544e3460001b6111c6565b61680f7f4c841042859e4a97308aaba9346f1f3b72be15dda42838632e497c0006ff5e9660001b6111c6565b61683b7f157392683552564d61ac747b9b75dd293cfae6b7f3a6f485eb259fe9d4dc37a960001b6111c6565b6168677fad727bd2a425c9dc3e4883afc71dd162f2aa900ec009b9fc23d1ae44b129cd4e60001b6111c6565b600182146168dd576040517f08c379a000000000000000000000000000000000000000000000000000000000815260040180806020018281038252601a8152602001807f496e76656e746f72793a2077726f6e67204e46542076616c756500000000000081525060200191505060405180910390fd5b6169097f7bd5023a2e8c3d238a887b6bfe5eff925caabd9d57f45cf30846ea5692ac66e860001b6111c6565b6169357ff4aa994942dd87a6cedbfab5f8fa3038bde70a798543c8823887dd84379bf9ae60001b6111c6565b6169617ff2dd572afd7c2d25c93a3e59f36a1e3ede4aad45eb5145dfdc9787a5e732359660001b6111c6565b61698d7fdb84b868f084fedb5b9edc3649ebf756d147e0e92bd49b274e51ed5398b7ad3960001b6111c6565b600360008481526020019081526020016000205473ffffffffffffffffffffffffffffffffffffffff168473ffffffffffffffffffffffffffffffffffffffff1614616a41576040517f08c379a00000000000000000000000000000000000000000000000000000000081526004018080602001828103825260188152602001807f496e76656e746f72793a206e6f6e2d6f776e6564204e4654000000000000000081525060200191505060405180910390fd5b616a6d7f853fa95ed3ec0449e5ac9f8404f8747e913564a52b8cfeb15fb15f91b809f6c760001b6111c6565b616a997fb4a5de72a28dbd72abaeb1d075a38ee12e191a5078b83622aacea8515ca7272560001b6111c6565b616ac57f805b5346803da5903c32d0dd5cf58e915b87806273f2186e7a1cd8176620065660001b6111c6565b7fdead0000000000000000000000000000000000000000000000000000000000006003600085815260200190815260200160002081905550616b297fd64e7ef3fc812746e1ee7e31615ee03adfed30d228ee52ffae73c56b22f29a4c60001b6111c6565b616b557f3c986cddad2bd48481f4618a674293edc7f427aa32ec14351e999dd0cea53a9360001b6111c6565b80616cca57616b867f036f8f795b5ca3d7c14fac586a75ed4487e593c7bb798d9c9c09e4a8381605af60001b6111c6565b616bb27fbdde0275b73b3cd4754e34a6dd69c2b100ec21d29dfdc5a1db64f3d70163062f60001b6111c6565b616bde7fc496f554e8179dfce9260ae8ccb8246dc84bc7a3a69a6b808979c2a688b936a160001b6111c6565b6000616be9846187d2565b9050616c177f274b6eb26dc4761d0130545b75cdb8771166ada162a867bc71c9b52631b20e1a60001b6111c6565b6001600082815260200190815260200160002060008673ffffffffffffffffffffffffffffffffffffffff1673ffffffffffffffffffffffffffffffffffffffff168152602001908152602001600020600081546001900391905081905550616ca27f357f2bf6aa0fb15da6d3e78207b67eb63c248c27667dd7f1b2e4cbe38d47847260001b6111c6565b6002600082815260200190815260200160002060008154600190039190508190555050616cf7565b616cf67f6573d73b154313bc5c05ac45b2f4647bbe99f5dc16675f6d376639fa01d72dee60001b6111c6565b5b50505050565b616d297fcecf8002f31f070aa130f9e7ab4687c582810528c82df6e8356d25a5ed7fe8a460001b61262d565b616d557f0a21cb25a20d24aa19b108bf5844db811ab7cb06532f525fc224cf6ff7a0f9b660001b61262d565b616d817fd2b744ed63e4c61b737d42df9a5f1b971b9ae3e2a104d7ee27b213c52c389d4d60001b61262d565b616dad7f72c8bb71e9acb3f230603d2b33aa9e05b7b47e5472cd62bfd9461b441a945b4060001b61262d565b600073ffffffffffffffffffffffffffffffffffffffff168473ffffffffffffffffffffffffffffffffffffffff161415616e50576040517f08c379a000000000000000000000000000000000000000000000000000000000815260040180806020018281038252601b8152602001807f496e76656e746f72793a207472616e7366657220746f207a65726f000000000081525060200191505060405180910390fd5b616e7c7f8d7ca89be5d2d1005df0eed2e5ecd10e865cc8e0efcb2ce2853b264521ee429360001b61262d565b616ea87f452d63be18f9246b68b743f7a5370bfa7ec6d2a651d6c1a184013bfffd83474f60001b61262d565b616ed47f17d10a2303ccc34cc62a752f6735943b7fcaa11c5cc8890675a737c269f066f660001b61262d565b600083519050616f067fa1b239021d67b2dd741d81633998fdb036a138dbcfab641581c287f31fa5cc8460001b61262d565b616f327f3e6424c2831ba8764e11a750e1cae30e67445945f576cbb077a07c9edc36fdef60001b61262d565b616f5e7f02890858432ad55169ea06915de7e1e084f580be5b787ba52b20f11b8db5a6ba60001b61262d565b82518114616fd4576040517f08c379a000000000000000000000000000000000000000000000000000000000815260040180806020018281038252601e8152602001807f496e76656e746f72793a20696e636f6e73697374656e7420617272617973000081525060200191505060405180910390fd5b6170007febfee03ac6df14bc7a429fc9af034851325668304c6c3122c26f9a4f704eb49860001b61262d565b61702c7f5f1789888c151cef2c0cbdc7aa2db875a57e03fd18720913e246c38355a9f23f60001b61262d565b6170587f24f2e0d24f70ed7e76f86bb5ce0a6afa4231a95bf667dcd45566692cda225c5860001b61262d565b6000617062614e01565b90506170907f25ab28f65edc1ab09a7bbf72040f8ba6befd7ee7b9c25ed0edb3142be538f86c60001b61262d565b6170bc7f7ec4e5a541ee48822b694483b596ec5157a12752a9d0d08594a4b4f53703e01460001b61262d565b6170e87f5ac0c8713d0c4e4f0dd055900f2be8f069dce657f578d0565974b0c317cfd57260001b61262d565b6170f28782616164565b617164576040517f08c379a000000000000000000000000000000000000000000000000000000000815260040180806020018281038252601e8152602001807f496e76656e746f72793a206e6f6e2d617070726f7665642073656e646572000081525060200191505060405180910390fd5b6171907f7d9b4cc8ff29a85fd0583e19cb1a22da19e321e40bca5da6d552886119b6e81860001b61262d565b6171bc7fc0b6aa59fe30495b3a473be497b264ea3560bc5c7335f25cef57d780caa6930460001b61262d565b6171e87fa90b618d25e8873a26fe9a8787f1790cb8e9f810f014c76a8133b75d4a4190ea60001b61262d565b60006172167fb3b6df8d6bf3d1b73065b2345452d5c4f347ffedcfc188e2ef3a345256813f2760001b61262d565b6172427fb677d56bacca9e881ecc0fb5f9e39f61b7c1fa3e69e589a83dee444574daf2f160001b61262d565b60006172707f7db27eb8bf19e7a270149338107899ab654be3ba0310166bc553f7c8122d040f60001b61262d565b61729c7f73f1ead978d360828753761c3a82fe2b7a35fc84712cc73f84c894d985ae556060001b61262d565b60005b848114617a64576172d27fc92509bed205d6adc69bc81ecbabc6f9ec5315405ccf28de3b702b0d75865e1760001b61262d565b6172fe7fd60c8208be9d732f37488719a4f0382597909649216ca7cb314408dbb0e448b860001b61262d565b600088828151811061730c57fe5b602002602001015190506173427ffb5d4ae6cfb2d6b243439cbb9e36305bc193b01cec197069f4f90a5452546bd960001b61262d565b61736e7fc703d334e9e4275864adc6fa63f1209e2b54ec5cd0aeefde2eeac6b927eaebb960001b61262d565b600088838151811061737c57fe5b602002602001015190506173b27fb421c8c980a8fb79f7a7a787f275f680f4d54e46f603ecd4b1c8b15fe63f298b60001b61262d565b6173de7f3e08ad720b74d7602a834b183e5387ab2b3a83d9fdbec0ae33b89e0bc3b04c8360001b61262d565b6173e7826162b1565b15617481576174187f1e09200334544a6e29a6920e4bb4ee4eaa010e8c0aaf47b6136fbbecd504360c60001b61262d565b6174447f7837290eb843140807d40f57f2075520d1de6c5b12cee47d0800b0cd769cbdbb60001b61262d565b6174707f6d45f8a958a21be4868c75abd335e24b85e77289d902186b8c3929e765486dd960001b61262d565b61747c8c8c8484618d2b565b617a57565b6174ad7f0bf4297bc78e523f79c0358d7402e93f898e59d8646c8e919070d56519bd910260001b61262d565b6174d97fd925cc5eea2550fa5da708eda9139cce80f192eb4c2d051730537c9966efbd1560001b61262d565b6174e282614c35565b15617964576175137faa4ee0f5b621b6ca50c2c2154f261be0964c49c493dd2f145c38f562b204cce760001b61262d565b61753f7f50c499f9695e0662d533b1df63dd123bd97d779aeea29c2cc6b7d7aa9abdae8c60001b61262d565b61756b7f4342e0bcae154d66a87cbfaf649a900ec2274d2df2dec3d2a143bb84e371d15460001b61262d565b6175798c8c848460016192a6565b6175a57feaf1cfac4e14d06431bebf1ede64a4e0c7a47734289dfc09302d60e5b5393a4360001b61262d565b6175d17f2f19df28748b4c709c2fc6573015638ebf4008c0663f75f95cb4fcd7921752e260001b61262d565b60006175dc836187d2565b905061760a7f36dd581b3171a3f6cb06eab58a03909facf9bcebe8f2072875a5e1cb25bc4a0d60001b61262d565b6176367f20caac273bf21a29514d535fd718d22ff45746a13e0d2fd9efa2dc3329690b6e60001b61262d565b60008614156177275761766b7f3915cefce4e113cca440eeae2c819c8c3efed0273812c4b2b7ac753ad0bed6db60001b61262d565b6176977f51f2f9516bf6073b9206975ef443eaa141a2f11f22f0698a8d8b29b55d89dc5560001b61262d565b6176c37fd35fdbd4849a34284cd08d236d1a6d8bd9da92567ef60b31cbb3ce84432be61560001b61262d565b8095506176f27f8b49e2a623f770aa862d679353b580b10c214c6f928559604776dfe39ac24af660001b61262d565b61771e7f9ef2806e86d3c6a0c6036f5d9b28e8ec0fd032fc98ce4c3811a55df1fecc9eaf60001b61262d565b6001945061795e565b6177537f8dcae65f965e4fcbe6d408b7453b072a5096923fb1c486e291f42ec59257e8bb60001b61262d565b61777f7f3e852689eac62040467ea70d41cd041927aca29423bc5d5e2d3abaaeaa8b274f60001b61262d565b6177ab7f17c2c427008d9d0076f247a3c183b64da219d49a023d7e37442ae42d32cb396060001b61262d565b8581146178fe576177de7ff79be262e07b94c4b0e6ffdabd83313e82548c357601c198afa627cfc17f22a160001b61262d565b61780a7f0a3636f18a1cec9e14d1f09707f3c6e008859aa6569f5944153d58c9888b16d760001b61262d565b6178367f4e5dfded36b348cbafca1645c79a2019e284e926111dcef463e28ae961b8358d60001b61262d565b6178428d8d888861ac29565b61786e7fffb79d524b3b322ea6dbc652fdfe1291feb48d85814a34910955063194994a0a60001b61262d565b61789a7f73a4f1d387eb21151d78b9e67d7756d0410bbb8c05b8e93b76f17a082f1316b460001b61262d565b8095506178c97f5c18048b04a0a51781a06e67c6f815b860174a7b95dddc31bd65bfff5363070d60001b61262d565b6178f57f46d751afd8889b7fffa15039e7333fba547ed77555ca64ea76a14b19028fa29060001b61262d565b6001945061795d565b61792a7f6943e9dcae3e4dcc45803f45e3e5c7d52907f318ebb3291a039c3e03e70a90e060001b61262d565b6179567f433ec2d9d337061a67518c8f8cfec1a51cb59fc613fbf5c7f67720eafae56dc360001b61262d565b8460010194505b5b50617a56565b6179907f2e3d34a38c4b21299eb6e7b879110508f9b8697ae8f5afee443b4c5bfcc38a1060001b61262d565b6179bc7f5af8a993677868dc05bee6cd381e3ed3435834d9eba2ceec901f7a8860ad5fa860001b61262d565b6179e87f546e0e2731c6e8cc0cf6c544cf86599f748427d4542c4b63684c8d307d97709f60001b61262d565b6040517f08c379a00000000000000000000000000000000000000000000000000000000081526004018080602001828103825260198152602001807f496e76656e746f72793a206e6f74206120746f6b656e2069640000000000000081525060200191505060405180910390fd5b5b505080600101905061729f565b50617a917fc6d0407c04015b43dbcab43b4ec1669bc0821d44ab37a521ff746868abff27fe60001b61262d565b617abd7fe9ef691688f5c2045ce2633dc07b00d832739658d73f1b8e088e4ca774fb815760001b61262d565b60008214617b5a57617af17f78b3fb4383230b5d1a8e6a520a134f457b961746d69efde6dcbff0d52342180160001b61262d565b617b1d7fb6373eff31cf8309498412460778c3c64a4686d21c65483615ec26547e60508260001b61262d565b617b497ff2a0981e772e65960860c1d67ceba65ef0758652f4805a5fe15d4cebd6a64a2160001b61262d565b617b558989848461ac29565b617b87565b617b867fd1f63bcadf7dd734b8ee831631f0a628e39478518ddcba56549437894e4513f960001b61262d565b5b617bb37f6cc21e4af56ae3890347967a3cd3b19a814c2a9b85df3bff6689b3b960b4411460001b61262d565b617bdf7fe1ed54c4a4faecb83ddea05f4548a17c076ed1943d2e1424d5af6faca05b525f60001b61262d565b8773ffffffffffffffffffffffffffffffffffffffff168973ffffffffffffffffffffffffffffffffffffffff168473ffffffffffffffffffffffffffffffffffffffff167f4a39dc06d4c0dbc64b70af90fd698a233a518aa5d07e595d983b8c0526c8f7fb8a8a604051808060200180602001838103835285818151815260200191508051906020019060200280838360005b83811015617c8e578082015181840152602081019050617c73565b50505050905001838103825284818151815260200191508051906020019060200280838360005b83811015617cd0578082015181840152602081019050617cb5565b5050505090500194505050505060405180910390a4617d117f14a7466d19721785ea53aaabe863c4410fe31a8a9eb9d3de005ad4dfe892b23560001b61262d565b617d3d7fa0b27d15df8bf22604c71699115d1c13d7329ed9cd2daab45d2d7f9a860e086160001b61262d565b617d5c8873ffffffffffffffffffffffffffffffffffffffff16619876565b15617df757617d8d7f4866bfa38c3c854cf581690f9932b7d3db64b5497a55de75d9570d2d34cf2c9560001b61262d565b617db97fb12edeeba6a741ca7542acd3a6b15fabf29442095ba9fb9a8813e737f16091a560001b61262d565b617de57f032775bd54c4a4bb59d08b4625934402b62a42bd9c72f192cb4873b134a754f360001b61262d565b617df2898989898961a77e565b617e24565b617e237f3be5ab870672ca753447b524b5b92ce4ee3ecd529d3bfd7ee5d44fb1e88b8e9660001b61262d565b5b505050505050505050565b6000617e5d7f8372423b2498712bc8b092c26b7575098ac25ef08c042fadd27f067b412914ff60001b612633565b617e897f91dae1433bc1d4254670272ed556abc4b60bcd1b23907bd565f9e499528b8be460001b612633565b617eb57f0a6157f426386fe8cc5eaf6ed1d6d82048843ff0c41c499d87af73bbbff6780960001b612633565b617ee17f07bd4de6a4c57f8b2bc67197a3a5c07a0c7c79c79fb86a37e1f3a9ca1441762360001b612633565b617eea82614c35565b15617f5d576040517f08c379a000000000000000000000000000000000000000000000000000000000815260040180806020018281038252601b8152602001807f496e76656e746f72793a206e6f74206120636f6c6c656374696f6e000000000081525060200191505060405180910390fd5b617f897f76104c4fe0931336e096f920ec748bea648bdbf957df59fb66e328e2dbcf48a960001b612633565b617fb57f956121f3d767cfc7a2a427dbe5487dc6a35360501c658a51f517e8edd3c4cc0960001b612633565b617fe17fa2fcb2230ea65fc5b1bc98060b25d5d1ae332a78797f62f73fa857a9600487c560001b612633565b6004600083815260200190815260200160002060009054906101000a900473ffffffffffffffffffffffffffffffffffffffff169050919050565b6180487f9b6bc59111b9d69aacc17642f85d09888e1d60f8a03e6823a11ba3dabd50661d60001b61262d565b6180747fecd86732fdb5545d97465c735b5ebd4000f99fe47a3b583425f92a25dd511cf260001b61262d565b6180a07fa1f7b199930243a997312e98eacbb69a736990db8fc9f5c3bf0ed311da2e5fcd60001b61262d565b6180cc7f5637b8d92705365a72f97a8623029e4aed00050ccdc103fcc8084e6f954315c060001b61262d565b600073ffffffffffffffffffffffffffffffffffffffff168473ffffffffffffffffffffffffffffffffffffffff16141561816f576040517f08c379a00000000000000000000000000000000000000000000000000000000081526004018080602001828103825260178152602001807f496e76656e746f72793a206d696e7420746f207a65726f00000000000000000081525060200191505060405180910390fd5b61819b7f64b64d9b9898793fe5bf2cfcf927f51c4cd088f1c5ab1ef93fc71fc6c92991f560001b61262d565b6181c77fb60df03c8c29f8056e787c103b318b008b35e4f1f9fb89c660c7ede612077bf460001b61262d565b6181f37f395fbc875034988654bb83ce295ce17fb49cc7569f662d5c7451c3eee635474860001b61262d565b6181fc836162b1565b156182955761822d7f9b7cdcf92f80d13c8eaf924acc00b5eda29ef3b3fef2ef3eb541b73d80ae9b7260001b61262d565b6182597f920fdb419e54a096ecfde370ff83417cd10de2e5b0a93384fc67e32b956dd53160001b61262d565b6182857f4641e18db3ff6919ba36092785b156501a9946686f4a63547c5e371341eb515b60001b61262d565b618290848484619dfc565b618484565b6182c17f2bcba1742761f06cf3c852b71ce52f983f9225b350e54ad5c9431732e52ddfa860001b61262d565b6182ed7f05a0bbc2eec1ca65ec57f1c366a3f5e1578e8b3a9f063ea93c3a3d745c0b52f760001b61262d565b6182f683614c35565b15618391576183277f0bbb1289c79acb20df254a3687c9f2512892cebe6119014155fab87f1533748760001b61262d565b6183537f6b3384a3d687ad58ee8ab7ff02dacaac7cbd60848f3d8ec9e165a494240768d360001b61262d565b61837f7fe07ebd67ccf4f21609388f37f562efd1b76a76f63d9e5a092c8000ae2f3b3b4460001b61262d565b61838c848484600061a270565b618483565b6183bd7fcd8ad4657a37fecebb4dbd909f94e394f95097768fdb8a0c7d32541353c04f6860001b61262d565b6183e97f0d6daf29886eb8791d40571608e09ffa03cf7468f737edf93fbfcd8fb6802eec60001b61262d565b6184157f4ae9e59134c36c3d6cc7c949a088af957a5d9e31bc52acee075eb8848c203f5c60001b61262d565b6040517f08c379a00000000000000000000000000000000000000000000000000000000081526004018080602001828103825260198152602001807f496e76656e746f72793a206e6f74206120746f6b656e2069640000000000000081525060200191505060405180910390fd5b5b6184b07fb7ce294bce2f656200e588ed830c23f4e713e419c2fd0f70a19fe0b151d9699860001b61262d565b6184dc7fd2b99f621521d8e4de44555f8fa9dabad502cd57030860659d16f804a1bd98ee60001b61262d565b8373ffffffffffffffffffffffffffffffffffffffff16600073ffffffffffffffffffffffffffffffffffffffff16618513614e01565b73ffffffffffffffffffffffffffffffffffffffff167fc3d58168c5ae7397731d063d5bbf3d657854427343f4c083240f7aacaa2d0f628686604051808381526020018281526020019250505060405180910390a46185947f2b1ffb788f744fbda70769b124cd435bd4c60f4edbe701e33e9c8ee4b682624560001b61262d565b6185c07f2a424dc9c82ba1eed981ff4aead997db58efbdc5f1c917e5ad364c3b53be734d60001b61262d565b6185df8473ffffffffffffffffffffffffffffffffffffffff16619876565b1561867b576186107fb18b354eef0a38bcbec8e0e13c6560c9e47b379b5f9e3e75277e0b7c1336442660001b61262d565b61863c7fc755d05dd6a908eed9c6edc9099af702adbe8494ab408ac3e08119a37e1594de60001b61262d565b6186687ffd82832522e72c51286935e30cd0a2f384513463948b614e0f83e6cd59f1159260001b61262d565b618676600085858585619889565b6186a8565b6186a77f86589d6ab3a2e7be283667f09948c3db3c34ffc98df1a475a5c45880c2c3d76960001b61262d565b5b50505050565b3073ffffffffffffffffffffffffffffffffffffffff16638da5cb5b6040518163ffffffff1660e01b815260040160206040518083038186803b1580156186f457600080fd5b505afa158015618708573d6000803e3d6000fd5b505050506040513d602081101561871e57600080fd5b810190808051906020019092919050505073ffffffffffffffffffffffffffffffffffffffff168173ffffffffffffffffffffffffffffffffffffffff16146187cf576040517f08c379a00000000000000000000000000000000000000000000000000000000081526004018080602001828103825260168152602001807f4f776e61626c653a206e6f7420746865206f776e65720000000000000000000081525060200191505060405180910390fd5b50565b60006188007f3408f41d31eb00b3bc2e0f54b103c1882010cffcc4d022d75c551fd3964d2f1260001b619b6b565b61882c7fffce922ddbd3ff02a9b5820b08b841e18a7685ac2a1a73063ee6757e67eda59c60001b619b6b565b6188587fdbc60c1bbcbc3aca99258b883c8dd2e66f0644a366cb7f8cd99e3e50315a52ce60001b619b6b565b60e063ffffffff8016901b82169050919050565b6001600760008373ffffffffffffffffffffffffffffffffffffffff1673ffffffffffffffffffffffffffffffffffffffff16815260200190815260200160002060006101000a81548160ff0219169083151502179055508073ffffffffffffffffffffffffffffffffffffffff167f6ae172837ea30b801fbfcdd4108aa1d5bf8ff775444fd70256b44e6bf3dfc3f660405160405180910390a250565b6189367f8b06ef8794557c219d61a561a91f5ef2f03a82cea52a20a891696a26aa285b3760001b612633565b6189627fdab5f5f2a0c1e46c6f35fe5c5bf6063aa13300d77c3191b1fe5226c6b791a72860001b612633565b61898e7f2d4bfc76497b9defe4621013a2b4e9d1da4217d10e0e96087366a979e5ac701160001b612633565b6189ba7f8433d17f3d25ee896fd254a7919aad4127c878b1ac32c8c20cc99dc5eab5402360001b612633565b6189c381614c35565b15618a36576040517f08c379a000000000000000000000000000000000000000000000000000000000815260040180806020018281038252601b8152602001807f496e76656e746f72793a206e6f74206120636f6c6c656374696f6e000000000081525060200191505060405180910390fd5b618a627f60df7a025541fd523e21b5099e158e3bdc975d2a7dc20f7ccfe2a2151b896f3d60001b612633565b618a8e7fdd7122feaf7a15ed93b3979906a7973dd90c6bc76ebb625a5794ff28414e864d60001b612633565b618aba7f2bcc91a155bd276d3b7132f16f739c8012b44aa43162bd273ed661329013566a60001b612633565b618ae67f90628f9b2712185b1680b337a82c73598ed6481cc55d19a4dd0253f5923f558560001b612633565b600073ffffffffffffffffffffffffffffffffffffffff166004600083815260200190815260200160002060009054906101000a900473ffffffffffffffffffffffffffffffffffffffff1673ffffffffffffffffffffffffffffffffffffffff1614618bbb576040517f08c379a000000000000000000000000000000000000000000000000000000000815260040180806020018281038252601e8152602001807f496e76656e746f72793a206578697374696e6720636f6c6c656374696f6e000081525060200191505060405180910390fd5b618be77f35f491cab3a4c947acb51ae446fa8c713753be02ec39e773f79bf617f3b8556f60001b612633565b618c137f98c5515a36403d2f77b76884fb480d05c77940a8ba463640a5f4746646d5767560001b612633565b618c3f7f779d147ee40d1d06d066c59e70b3e2b4235c5e8fa57786aea3cba72f869434fa60001b612633565b618c47614e01565b6004600083815260200190815260200160002060006101000a81548173ffffffffffffffffffffffffffffffffffffffff021916908373ffffffffffffffffffffffffffffffffffffffff160217905550618cc47f9b1cf4f8628ba0d5a5cbea11177260e43f2ea5bf0f6eb94736e94f8e6ebc66ae60001b612633565b618cf07f520166cbd240cd38d928b2c80ec3d40ec16c70e689a30a1571aac54d8a5da7de60001b612633565b618cf9816162b1565b1515817f4ebf8ad0df535ba5e487bc9cb27fe44120ca81c3a95d3eba79c0bd1df2ab2d5d60405160405180910390a350565b618d577f57801e4489aac36dcbed87583b8ce15c6e182bdab1df451eadfcaf1f459934c160001b61262d565b618d837f23450a64f4d2d7e6e5f9febccf0a87a4421b3d21f27a37d6ca81d8f3a8e6910d60001b61262d565b618daf7f629924540c17193a7dbefa77d6e5efb2ae2a4e46370e84a05d109d98b934bf2060001b61262d565b618ddb7fb92f6ea3723803b74e8dd3cd40abc1bb118ada134e1784948a89b4770466c2b060001b61262d565b6000811415618e52576040517f08c379a00000000000000000000000000000000000000000000000000000000081526004018080602001828103825260158152602001807f496e76656e746f72793a207a65726f2076616c7565000000000000000000000081525060200191505060405180910390fd5b618e7e7f2a098732e3ddaefe1eb94110415bb8a9afa31d3d4535116650db2cd83378b20260001b61262d565b618eaa7f31de0798ade1ce6976fb19ca4072069aa8373175690f3325d486281bab9c1b3060001b61262d565b618ed67ff9df25d559a8b099b5a29f74ea7f87a8d16d37d5ea753188bdae09ee982354e360001b61262d565b60006001600084815260200190815260200160002060008673ffffffffffffffffffffffffffffffffffffffff1673ffffffffffffffffffffffffffffffffffffffff168152602001908152602001600020549050618f577f9ad901aed2e95bc8ae1ba4bd7d9bc6ea7dae73d256a0b2590d63d1530dda794e60001b61262d565b618f837f73571f5f7926da20b98de4f03c062f089a5d3fe3e00ee3a9d75248e4525e593b60001b61262d565b618faf7f0b5ab4e97275dc2e5be26f20ee9ee762994cdf70df1a542f02972952c8ec8ae660001b61262d565b81811015619025576040517f08c379a000000000000000000000000000000000000000000000000000000000815260040180806020018281038252601d8152602001807f496e76656e746f72793a206e6f7420656e6f7567682062616c616e636500000081525060200191505060405180910390fd5b6190517fe3008a974fed489545b48994f07ab730ffb2557ec0eb63781030780645ceb2e560001b61262d565b61907d7fcdd74c0e1270809a67865175965189f132bf39c31fbe12fb7a83f8b068200a5660001b61262d565b6190a97f61eafe755d791cb762bf147d7a397169acbe1c94cb434e5e4172a5c4e23532b960001b61262d565b8373ffffffffffffffffffffffffffffffffffffffff168573ffffffffffffffffffffffffffffffffffffffff1614619272576191087ffcc167d090720b10d3f3b4ea75644bac4d08af4b658da63abea9f35868700f6a60001b61262d565b6191347f6467bb7ff439f5c818451cb74e6945ee136539efb3cd09e2eb422d403b91e0b560001b61262d565b6191607f1f6fc4aeb32610a18c2d2af07831a9acc4e8d7d1cf357523ed690ca6abeb396a60001b61262d565b8181036001600085815260200190815260200160002060008773ffffffffffffffffffffffffffffffffffffffff1673ffffffffffffffffffffffffffffffffffffffff168152602001908152602001600020819055506191e37f2db8514ae31f53ceb2410b1e9b40d6f1f96636514820dcfd04443158c1c7695a60001b61262d565b61920f7fc7419ff0b62fa8aa754826ef86151e0f4c404c715971ba6e035427df84d99be560001b61262d565b816001600085815260200190815260200160002060008673ffffffffffffffffffffffffffffffffffffffff1673ffffffffffffffffffffffffffffffffffffffff1681526020019081526020016000206000828254019250508190555061929f565b61929e7fa05bc84b80fa687c1fb862e7aebb3e99aebd0bf0ed61a46da9f27d56eb6ce71060001b61262d565b5b5050505050565b6192d27f2fd68379ca14b7db8111a90364883014d02105cda94b0722235c35b6e9379fc260001b61262d565b6192fe7f975030103d6d337aa9e4e47b7e67d9ac8e54246cbbc22974f3dd396f6c99c6a160001b61262d565b61932a7f24c95f26d7f07391ad425fc6fcbbba5ce49f0b0185cc9d977026ed3ef54d30e260001b61262d565b6193567f3f3ea1de58c916dae8def9db88029bc83bf79ead6369ed9468605833404b879760001b61262d565b600182146193cc576040517f08c379a000000000000000000000000000000000000000000000000000000000815260040180806020018281038252601a8152602001807f496e76656e746f72793a2077726f6e67204e46542076616c756500000000000081525060200191505060405180910390fd5b6193f87fd8d643e8ed2b61d8841c025d7608a4610ef6a00a5c4fa846c34f2f78a5c094df60001b61262d565b6194247f054302552056b0669960c445f0aaff316e134302c404f1fbc47645e845cc940e60001b61262d565b6194507fa998ff91c24750e60e490a22bc528dc972dae1ba9231bafdf0c019780634091060001b61262d565b61947c7f92b7def5c5ac7f7c67860a15bfc7da36dae4e5e0069c53ae471e09013b95192f60001b61262d565b600360008481526020019081526020016000205473ffffffffffffffffffffffffffffffffffffffff168573ffffffffffffffffffffffffffffffffffffffff1614619530576040517f08c379a00000000000000000000000000000000000000000000000000000000081526004018080602001828103825260188152602001807f496e76656e746f72793a206e6f6e2d6f776e6564204e4654000000000000000081525060200191505060405180910390fd5b61955c7f8d4ec19a41e130dabcc8c92eb6c7e84d6a632503c6a7fbf739ffbde57eca87b860001b61262d565b6195887fef8eda61a6bf931392f35935f0b90be084ca8bb12a99eceefb5ad7ad0e21f22f60001b61262d565b6195b47f9e854899f4e73bbe5df15883e6b73ad8d72c0729af5c641e671a3dd92279612260001b61262d565b8373ffffffffffffffffffffffffffffffffffffffff16600360008581526020019081526020016000208190555061960e7f4cfc05366ce27fbd5e36b8cbb0417d134924af84a85d94ef83fc3e7029edeba460001b61262d565b61963a7fd070047a97a0cb50149e9b8a93a3933289b8b2b5d7712f105fe45045f7d46af760001b61262d565b806198425761966b7fdec18706afe78dc80061b842f72023fc8cb37a167e21dbf30de78276252bce0360001b61262d565b6196977fc012549596414c0a0903ec97b9eb00e5ee7103d5b55454cb1683b73f1d6572f460001b61262d565b6196c37f94db8d2f6a5e6c9ab9f12c000e198e3356b634c449f2b72eb5971071164d91b360001b61262d565b60006196ce846187d2565b90506196fc7f76b32aa76a72a506357380f354dbdc1cbe8ab6f6084cf1c7d070d7cd2c46b49860001b61262d565b6197287fbab0f024af47f67d9f7a2d3fedb057a8e85fd751d8a3cd0143637cee75b7184960001b61262d565b600180600083815260200190815260200160002060008873ffffffffffffffffffffffffffffffffffffffff1673ffffffffffffffffffffffffffffffffffffffff168152602001908152602001600020600082825403925050819055506197b27fb9161fd138274b2022210f079bcaef96355468c9da778df316acd93fd3c3f73f60001b61262d565b6197de7fc1fd5bd648ac70554512136239493ba15b2a6d388a5a64d16ce75d12779885bc60001b61262d565b600180600083815260200190815260200160002060008773ffffffffffffffffffffffffffffffffffffffff1673ffffffffffffffffffffffffffffffffffffffff168152602001908152602001600020600082825401925050819055505061986f565b61986e7fa7b7b4534365994b404dde89d16ea10a4f2357290801db1dd4ef47deee8ac06860001b61262d565b5b5050505050565b600080823b905060008111915050919050565b6198b57f05d4eabced4a90bc15fe1363d1a39b0026c03b81a825c0a82aa8861c967300c460001b612633565b6198e17ff6c9ba956753ec49666702d2237e8ff3b9c60baf3ac68523fac483c31ff1b63160001b612633565b61990d7f1c9fbd969656e9225a24f0352001238ee7f5b381e50699467d086d99ecf6acc960001b612633565b6199397fd9a2510c585de86f20c32d87f365937844a6346aebf914e4a85409eb7f04937d60001b612633565b63f23a6e6160e01b7bffffffffffffffffffffffffffffffffffffffffffffffffffffffff19168473ffffffffffffffffffffffffffffffffffffffff1663f23a6e61619984614e01565b888787876040518663ffffffff1660e01b8152600401808673ffffffffffffffffffffffffffffffffffffffff1681526020018573ffffffffffffffffffffffffffffffffffffffff16815260200184815260200183815260200180602001828103825283818151815260200191508051906020019080838360005b83811015619a1b578082015181840152602081019050619a00565b50505050905090810190601f168015619a485780820380516001836020036101000a031916815260200191505b509650505050505050602060405180830381600087803b158015619a6b57600080fd5b505af1158015619a7f573d6000803e3d6000fd5b505050506040513d6020811015619a9557600080fd5b81019080805190602001909291905050507bffffffffffffffffffffffffffffffffffffffffffffffffffffffff191614619b38576040517f08c379a000000000000000000000000000000000000000000000000000000000815260040180806020018281038252601b8152602001807f496e76656e746f72793a207472616e736665722072656675736564000000000081525060200191505060405180910390fd5b619b647fa738110d8fd9c8d232e532ba6040fa049501cff7a292ef7fc2fd7cb09ac547a960001b612633565b5050505050565b50565b6000619b9c7fadfa95640147ab4c0d8e179ddcac69e18a21437cb50d0dc4471e78f81fe9f5e860001b612633565b619bc87f2234a02ae4d0203c1a2641ed80ac160b16d1206553cd60aedf05b4e854f0117560001b612633565b619bf47f808fe83f7b40774a06658e923bade4c6926d9e810609f7344d5c76edf281650d60001b612633565b7f01ffc9a7000000000000000000000000000000000000000000000000000000007bffffffffffffffffffffffffffffffffffffffffffffffffffffffff1916827bffffffffffffffffffffffffffffffffffffffffffffffffffffffff19161480619cbd57507fd9b67a26000000000000000000000000000000000000000000000000000000007bffffffffffffffffffffffffffffffffffffffffffffffffffffffff1916827bffffffffffffffffffffffffffffffffffffffffffffffffffffffff1916145b80619d2557507f0e89341c000000000000000000000000000000000000000000000000000000007bffffffffffffffffffffffffffffffffffffffffffffffffffffffff1916827bffffffffffffffffffffffffffffffffffffffffffffffffffffffff1916145b80619d8d57507f09ce5c46000000000000000000000000000000000000000000000000000000007bffffffffffffffffffffffffffffffffffffffffffffffffffffffff1916827bffffffffffffffffffffffffffffffffffffffffffffffffffffffff1916145b80619df557507fbd85b039000000000000000000000000000000000000000000000000000000007bffffffffffffffffffffffffffffffffffffffffffffffffffffffff1916827bffffffffffffffffffffffffffffffffffffffffffffffffffffffff1916145b9050919050565b619e287f178ceedd55af8ff573ee0aec5af1633bd5df5a5a8f5c09fc4f33e2b9ab61a7f460001b61262d565b619e547f2d1b054b439bb3093fe2e926d40d351f826e1654f0bf299c28ec52fd671fd49960001b61262d565b619e807f9a97ba3c043f3fe3ee66560fe4be369d390168cb0b448efd0f2b11f91e028daa60001b61262d565b619eac7f3b4d71eff7ed0b9c9345e00ba6f568606440271117fe9ab73d1706f87d11202060001b61262d565b6000811415619f23576040517f08c379a00000000000000000000000000000000000000000000000000000000081526004018080602001828103825260158152602001807f496e76656e746f72793a207a65726f2076616c7565000000000000000000000081525060200191505060405180910390fd5b619f4f7fdc7ffb5b7cfbbeb38822463ad41119a150860a25b533b515a6f8b82bd3ffe01a60001b61262d565b619f7b7f4a5a3bdc2f2ca50f57ea7c520e69cb528506cb54b2723a943460f39f2cbcf9c360001b61262d565b619fa77f36edf2bcdf80246405b0c1b0584e3918e8f6b33f8769230672c1ee42d51aafbb60001b61262d565b600060026000848152602001908152602001600020549050619feb7f22c5b5a4fd9d7466833aab817f33f87e201dd9ff474f6e089752f9885471d87160001b61262d565b61a0177f5d6f5971094ab27a28615f329bbd23271859fd7ac07569735aa5b9f95d0d431c60001b61262d565b6000828201905061a04a7ffd9a036f4498877860318169eedccf4bd1c4f1b12ef10896b893d56c4bc09b1360001b61262d565b61a0767fb1aa95e651212d9c3fee4b398c47a6a02e03f2ebeef6797b45b7608b8704c69a60001b61262d565b61a0a27f88ea7bb131e8e9db76595b69df29b45fb78122bb00b99d8b1fdd31207e925f7a60001b61262d565b81811161a117576040517f08c379a000000000000000000000000000000000000000000000000000000000815260040180806020018281038252601a8152602001807f496e76656e746f72793a20737570706c79206f766572666c6f7700000000000081525060200191505060405180910390fd5b61a1437fc51623669666851b6625e6d2b799a308ff126044a3c8961bf86e1f34f7fbddbf60001b61262d565b61a16f7ff85d223790d83e287fe8570ef8b7de1e303f00a133056b2292f228d8a0961e6a60001b61262d565b61a19b7f5dfc4b0ccb4b4fb406f69faa4a8e93bac76303c441ff7df688b109d86f2d83b360001b61262d565b80600260008681526020019081526020016000208190555061a1df7fda1aedd290667e6e578c4c832808e5fe4ce6ac3ed76b2ed987680f87b83639a960001b61262d565b61a20b7f1faafc37183f87505409d98e2b2b0bd95073030b4c89d47afce73828af2f38fa60001b61262d565b826001600086815260200190815260200160002060008773ffffffffffffffffffffffffffffffffffffffff1673ffffffffffffffffffffffffffffffffffffffff168152602001908152602001600020600082825401925050819055505050505050565b61a29c7fa676a98b1fcc180353a694c228020fbae59514b0d9bb15c76f30e58b5e08a92660001b61262d565b61a2c87fde6690c3eeb232ddf2200e2b06a917c584facc968c27eeeebb213f567b18430060001b61262d565b61a2f37e1e6d2efa19603b2664496bbb78780f62bf2fc2987f2648b2ebbb1da5ea03ee60001b61262d565b61a31f7f461897ae50eb2aa8c1a86dc8988f89c6e33d1f038cfff91678f00bcb6c1c5b2f60001b61262d565b6001821461a395576040517f08c379a000000000000000000000000000000000000000000000000000000000815260040180806020018281038252601a8152602001807f496e76656e746f72793a2077726f6e67204e46542076616c756500000000000081525060200191505060405180910390fd5b61a3c17f449ddfcad336a7ab535391547c38045d142955c9b1ca22e4d38dbccfc7c88b5760001b61262d565b61a3ed7ff46e2bce6a18b24bb3f3869bcd320e7fc552627a0e42c715c43b226dc347e58660001b61262d565b61a4197f53d70686b76ad85d18962a13d34dbc3147b29c60244cb14b41c106b7bd26014460001b61262d565b61a4457f2342f51344d175914d7f2c1448981bd376feef5c932374177d7f20ec9e91ebc460001b61262d565b600060036000858152602001908152602001600020541461a4ce576040517f08c379a000000000000000000000000000000000000000000000000000000000815260040180806020018281038252601d8152602001807f496e76656e746f72793a206578697374696e672f6275726e74204e465400000081525060200191505060405180910390fd5b61a4fa7fae796472379f73874bfbdf24f100ed4f06100b59bd95d399a8084d4cad0c954660001b61262d565b61a5267f70eeef4bd1468afc7ef6834744abeaf2ac1854a46a64cd5659117db9db5e983860001b61262d565b61a5527f86c605d840ddeafdf148ef4daca3bcbe7734169bfff4474fa521d16e16f0d84360001b61262d565b8373ffffffffffffffffffffffffffffffffffffffff16600360008581526020019081526020016000208190555061a5ac7f3922f065ea500053f91c3811ce8f834a2ae09a5e479278d205bc43d0f80b3f2f60001b61262d565b61a5d87f2f631b47483849c5dc288c77de6b923afbe61672133151153a8109b1550c8d5660001b61262d565b8061a74b5761a6097ffa42ef6acaac54e2d0915b64ce3a4a23d79a283de8a9b219ba223060233dbdae60001b61262d565b61a6357f0d5aded6025cdca56bd3e2d68636e00db15aac5fbefadb7e3fcef4eced42d75760001b61262d565b61a6617fad3a909176978e1c450b2e4acf74b679d85b2a3cc5022ad57e5f34738d2c80b160001b61262d565b600061a66c846187d2565b905061a69a7fd312f006ab854cd6588bbef30d2ef72053008bb625acd67e88c89232e92b503160001b61262d565b60026000828152602001908152602001600020600081546001019190508190555061a6e77f5965612a5d847901b4014c6588fe9aee52ff6deeb66047d01343e313163c833060001b61262d565b6001600082815260200190815260200160002060008673ffffffffffffffffffffffffffffffffffffffff1673ffffffffffffffffffffffffffffffffffffffff16815260200190815260200160002060008154600101919050819055505061a778565b61a7777fc41d2b6a3154caf35d47c178865af251581ec639ff630a185c4f31c06d8ff87660001b61262d565b5b50505050565b61a7aa7f7d10864fb0a4aedc20e442e807bea0f6919d10eeaa1f021c97a5f215a1012f0460001b612633565b61a7d67fe349439bb5f36664722cb8f584c53fd55da073ef5fd4ff3197edfa378ed96b2c60001b612633565b61a8027f2edac629d0b066ea94aac6394c400610e1412197b305ba242fd8c4dfd153b58b60001b612633565b61a82e7f72ee40dc5eecda898fa2839fc208dd25275ca14983f5f2582cca10221d3d0b7a60001b612633565b63bc197c8160e01b7bffffffffffffffffffffffffffffffffffffffffffffffffffffffff19168473ffffffffffffffffffffffffffffffffffffffff1663bc197c8161a879614e01565b888787876040518663ffffffff1660e01b8152600401808673ffffffffffffffffffffffffffffffffffffffff1681526020018573ffffffffffffffffffffffffffffffffffffffff168152602001806020018060200180602001848103845287818151815260200191508051906020019060200280838360005b8381101561a90f57808201518184015260208101905061a8f4565b50505050905001848103835286818151815260200191508051906020019060200280838360005b8381101561a95157808201518184015260208101905061a936565b50505050905001848103825285818151815260200191508051906020019080838360005b8381101561a99057808201518184015260208101905061a975565b50505050905090810190601f16801561a9bd5780820380516001836020036101000a031916815260200191505b5098505050505050505050602060405180830381600087803b15801561a9e257600080fd5b505af115801561a9f6573d6000803e3d6000fd5b505050506040513d602081101561aa0c57600080fd5b81019080805190602001909291905050507bffffffffffffffffffffffffffffffffffffffffffffffffffffffff19161461aaaf576040517f08c379a000000000000000000000000000000000000000000000000000000000815260040180806020018281038252601b8152602001807f496e76656e746f72793a207472616e736665722072656675736564000000000081525060200191505060405180910390fd5b61aadb7f45eed796109b210b28a94480230c2b5d15205f14ed98d4c42eb93e6e6f3cfc3960001b612633565b5050505050565b6060600082141561ab2a576040518060400160405280600181526020017f3000000000000000000000000000000000000000000000000000000000000000815250905061ac24565b600082905060005b6000821461ab54578080600101915050600a828161ab4c57fe5b04915061ab32565b60008167ffffffffffffffff8111801561ab6d57600080fd5b506040519080825280601f01601f19166020018201604052801561aba05781602001600182028036833780820191505090505b50905060006001830390508593505b6000841461ac1c57600a848161abc157fe5b0660300160f81b8282806001900393508151811061abdb57fe5b60200101907effffffffffffffffffffffffffffffffffffffffffffffffffffffffffffff1916908160001a905350600a848161ac1457fe5b04935061abaf565b819450505050505b919050565b61ac557f9d41909482cbda02c77e4035bf721df28e1ca1a726e53450eb53332d7af607a760001b61262d565b61ac817f66cde8140a5d87da3dba11006fc644811e2c8edd5494f44051c4ca2a90323de060001b61262d565b61acad7f368dc91723a47a6bae1e4d7288e63a5bc8376cf129123d64c764805a027a9fc860001b61262d565b8273ffffffffffffffffffffffffffffffffffffffff168473ffffffffffffffffffffffffffffffffffffffff161461ae7d5761ad0c7f8d8723f35d55cc6cfc91ec935320626b71ff5145134b8219fd4a76896acb378c60001b61262d565b61ad387f01b7e270642aff7039924f07dd2374410fa36dba857d1c69bb93ad407b7b2d3760001b61262d565b61ad647f4989bc64e4e333c7238ba67834b986deb219ddb92e05edb46e8f4bbf9d7d1dc560001b61262d565b806001600084815260200190815260200160002060008673ffffffffffffffffffffffffffffffffffffffff1673ffffffffffffffffffffffffffffffffffffffff1681526020019081526020016000206000828254039250508190555061adee7f81f749dad196383306919748f832e0bb57e938da4d044309ee0d715ae7607de760001b61262d565b61ae1a7fdf99b55eb254652772388f965833973be5c87f62e4f300388f80113d2ba718dc60001b61262d565b806001600084815260200190815260200160002060008573ffffffffffffffffffffffffffffffffffffffff1673ffffffffffffffffffffffffffffffffffffffff1681526020019081526020016000206000828254019250508190555061aeaa565b61aea97fe667c8e1118ad17efcb265b6dedfe5b4988ecc7cf82e8662dcbf832d013f359a60001b61262d565b5b50505050565b828054600181600116156101000203166002900490600052602060002090601f01602090048101928261aee6576000855561af2d565b82601f1061aeff57803560ff191683800117855561af2d565b8280016001018555821561af2d579182015b8281111561af2c57823582559160200191906001019061af11565b5b50905061af3a919061af3e565b5090565b5b8082111561af5757600081600090555060010161af3f565b509056fea2646970667358221220df0cb3fdd229c95f48ef712e0565528c28e1a4cedf9ce60b7edc149abaec806764736f6c63430007060033",
  "linkReferences": {},
  "deployedLinkReferences": {}
}