{
  "_format": "hh-sol-artifact-1",
  "contractName": "ERC20ReceiverMock",
  "sourceName": "contracts/mocks/token/ERC20/ERC20ReceiverMock.sol",
  "abi": [
    {
      "inputs": [
        {
          "internalType": "bool",
          "name": "accept20",
          "type": "bool"
        }
      ],
      "stateMutability": "nonpayable",
      "type": "constructor"
    },
    {
      "anonymous": false,
      "inputs": [
        {
          "indexed": false,
          "internalType": "address",
          "name": "sender",
          "type": "address"
        },
        {
          "indexed": false,
          "internalType": "address",
          "name": "from",
          "type": "address"
        },
        {
          "indexed": false,
          "internalType": "uint256",
          "name": "value",
          "type": "uint256"
        },
        {
          "indexed": false,
          "internalType": "bytes",
          "name": "data",
          "type": "bytes"
        },
        {
          "indexed": false,
          "internalType": "uint256",
          "name": "gas",
          "type": "uint256"
        }
      ],
      "name": "ERC20Received",
      "type": "event"
    },
    {
      "inputs": [
        {
          "internalType": "bytes32",
          "name": "c__0x7c661987",
          "type": "bytes32"
        }
      ],
      "name": "c_0x7c661987",
      "outputs": [],
      "stateMutability": "pure",
      "type": "function"
    },
    {
      "inputs": [
        {
          "internalType": "bytes32",
          "name": "c__0xa2319191",
          "type": "bytes32"
        }
      ],
      "name": "c_0xa2319191",
      "outputs": [],
      "stateMutability": "pure",
      "type": "function"
    },
    {
      "inputs": [
        {
          "internalType": "address",
          "name": "sender",
          "type": "address"
        },
        {
          "internalType": "address",
          "name": "from",
          "type": "address"
        },
        {
          "internalType": "uint256",
          "name": "value",
          "type": "uint256"
        },
        {
          "internalType": "bytes",
          "name": "data",
          "type": "bytes"
        }
      ],
      "name": "onERC20Received",
      "outputs": [
        {
          "internalType": "bytes4",
          "name": "",
          "type": "bytes4"
        }
      ],
      "stateMutability": "nonpayable",
      "type": "function"
    },
    {
      "inputs": [
        {
          "internalType": "bytes4",
          "name": "interfaceId",
          "type": "bytes4"
        }
      ],
      "name": "supportsInterface",
      "outputs": [
        {
          "internalType": "bool",
          "name": "",
          "type": "bool"
        }
      ],
      "stateMutability": "view",
      "type": "function"
    }
  ],
  "bytecode": "0x608060405234801561001057600080fd5b506040516108013803806108018339818101604052602081101561003357600080fd5b81019080805190602001909291905050506100767f05af00239e925525f4a4451028f1e6cb8894b56fdedbcfc28092b9e260428f2860001b6100f960201b60201c565b6100a87fec7082876c6597294f1176082ef439d1a44b5d87e9d84b59d9895c5df8b1ea7660001b6100f960201b60201c565b6100da7f6171d0ca908a03a8aa3612db24d8ba1fde1fe26b996f52044235857e87185d0660001b6100f960201b60201c565b806000806101000a81548160ff021916908315150217905550506100fc565b50565b6106f68061010b6000396000f3fe608060405234801561001057600080fd5b506004361061004c5760003560e01c806301ffc9a7146100515780634fc35859146100b4578063604ba88f146101ec578063f367151f1461021a575b600080fd5b61009c6004803603602081101561006757600080fd5b8101908080357bffffffffffffffffffffffffffffffffffffffffffffffffffffffff19169060200190929190505050610248565b60405180821515815260200191505060405180910390f35b6101b7600480360360808110156100ca57600080fd5b81019080803573ffffffffffffffffffffffffffffffffffffffff169060200190929190803573ffffffffffffffffffffffffffffffffffffffff169060200190929190803590602001909291908035906020019064010000000081111561013157600080fd5b82018360208201111561014357600080fd5b8035906020019184600183028401116401000000008311171561016557600080fd5b91908080601f016020809104026020016040519081016040528093929190818152602001838380828437600081840152601f19601f82011690508083019250505050505050919291929050505061039e565b60405180827bffffffffffffffffffffffffffffffffffffffffffffffffffffffff1916815260200191505060405180910390f35b6102186004803603602081101561020257600080fd5b81019080803590602001909291905050506106ba565b005b6102466004803603602081101561023057600080fd5b81019080803590602001909291905050506106bd565b005b60006102767f4aead0431af464ed359c1fca782986ae937af6ce96b51fe54d7440b7c518e7bb60001b6106bd565b6102a27f791d8748ac4e5b6ec667874d4f5fd87debd1455046fff3de15fecd4ac4b1490b60001b6106bd565b6102ce7faf84bf9126eaf24c0be5155e3825aafe21273ebafda70717b153e187aeb7642660001b6106bd565b7f01ffc9a7000000000000000000000000000000000000000000000000000000007bffffffffffffffffffffffffffffffffffffffffffffffffffffffff1916827bffffffffffffffffffffffffffffffffffffffffffffffffffffffff1916148061039757507f4fc35859000000000000000000000000000000000000000000000000000000007bffffffffffffffffffffffffffffffffffffffffffffffffffffffff1916827bffffffffffffffffffffffffffffffffffffffffffffffffffffffff1916145b9050919050565b60006103cc7f9828489ac7e641920afaac163342f889c21765ce29937ff26db07c87b3de0a4160001b6106ba565b6103f87ffb446b62e98bbe35c7e8ff9bab709f3b5031023e66883169da8d6669809f4aad60001b6106ba565b6104247f7c47419a88a8c1292460e6b6b3e2cf3d0bc67f00b72ad6a9178399f2031fb9fa60001b6106ba565b60008054906101000a900460ff1615610623576104637f0803787ee14a665545d62149ca1dd3370471204c4fee1487050f415515dc407960001b6106ba565b61048f7f9008b54bda883579e66eb1b935bfa777900706e411a3e4296d51788154ead1ce60001b6106ba565b6104bb7f29273d13f4d6d7cd1f98cc4d02fe96c9567d7f58ca6c43f5c44936a7d0d443b960001b6106ba565b7f4e669eb778cc38e0f3ce5337506502c4531ff873bff6ea014994632e7a759b2d858585855a604051808673ffffffffffffffffffffffffffffffffffffffff1681526020018573ffffffffffffffffffffffffffffffffffffffff16815260200184815260200180602001838152602001828103825284818151815260200191508051906020019080838360005b8381101561056557808201518184015260208101905061054a565b50505050905090810190601f1680156105925780820380516001836020036101000a031916815260200191505b50965050505050505060405180910390a16105cf7f3121eeb13182d7aa53464f84e6b2ffb93eb0f239546305d08f9a3cd2d72b325660001b6106ba565b6105fb7ffef94f68722a53f4fd1fbe6ddb06375c8a9c7800deafd615e1e5dd731055ca3b60001b6106ba565b7f4fc358590000000000000000000000000000000000000000000000000000000090506106b2565b61064f7fbc4c71070760eeb496ef1f5c0b3e5286674364f502b129a4086b70f9099aa38160001b6106ba565b61067b7fa824a882c7e78c295eaac739111aaaa6e5ee043f13775a3ab33a513429cdf4b160001b6106ba565b6106a77fd4ed3776bbe0fd5a751bbb7fc2ef29c7697907715cdb94e5dbbfb43e7a3df7b260001b6106ba565b63ffffffff60e01b90505b949350505050565b50565b5056fea2646970667358221220b091ba9a7c7e3c48952dd2d39a7327bc256fe84555d0a1a366531ba7a0652bf164736f6c63430007060033",
  "linkReferences": {},
  "deployedLinkReferences": {}
}