{
  "_format": "hh-sol-artifact-1",
  "contractName": "ERC1155721ReceiverMock",
  "sourceName": "contracts/mocks/token/ERC1155721/ERC1155721ReceiverMock.sol",
  "abi": [
    {
      "inputs": [
        {
          "internalType": "bool",
          "name": "supports721",
          "type": "bool"
        },
        {
          "internalType": "bool",
          "name": "supports1155",
          "type": "bool"
        }
      ],
      "stateMutability": "nonpayable",
      "type": "constructor"
    },
    {
      "anonymous": false,
      "inputs": [
        {
          "indexed": false,
          "internalType": "address",
          "name": "operator",
          "type": "address"
        },
        {
          "indexed": false,
          "internalType": "address",
          "name": "from",
          "type": "address"
        },
        {
          "indexed": false,
          "internalType": "uint256",
          "name": "tokenId",
          "type": "uint256"
        },
        {
          "indexed": false,
          "internalType": "bytes",
          "name": "data",
          "type": "bytes"
        },
        {
          "indexed": false,
          "internalType": "uint256",
          "name": "gas",
          "type": "uint256"
        }
      ],
      "name": "Received",
      "type": "event"
    },
    {
      "anonymous": false,
      "inputs": [
        {
          "indexed": false,
          "internalType": "address",
          "name": "operator",
          "type": "address"
        },
        {
          "indexed": false,
          "internalType": "address",
          "name": "from",
          "type": "address"
        },
        {
          "indexed": false,
          "internalType": "uint256[]",
          "name": "ids",
          "type": "uint256[]"
        },
        {
          "indexed": false,
          "internalType": "uint256[]",
          "name": "values",
          "type": "uint256[]"
        },
        {
          "indexed": false,
          "internalType": "bytes",
          "name": "data",
          "type": "bytes"
        },
        {
          "indexed": false,
          "internalType": "uint256",
          "name": "gas",
          "type": "uint256"
        }
      ],
      "name": "ReceivedBatch",
      "type": "event"
    },
    {
      "anonymous": false,
      "inputs": [
        {
          "indexed": false,
          "internalType": "address",
          "name": "operator",
          "type": "address"
        },
        {
          "indexed": false,
          "internalType": "address",
          "name": "from",
          "type": "address"
        },
        {
          "indexed": false,
          "internalType": "uint256",
          "name": "id",
          "type": "uint256"
        },
        {
          "indexed": false,
          "internalType": "uint256",
          "name": "value",
          "type": "uint256"
        },
        {
          "indexed": false,
          "internalType": "bytes",
          "name": "data",
          "type": "bytes"
        },
        {
          "indexed": false,
          "internalType": "uint256",
          "name": "gas",
          "type": "uint256"
        }
      ],
      "name": "ReceivedSingle",
      "type": "event"
    },
    {
      "inputs": [
        {
          "internalType": "bytes32",
          "name": "c__0x054cfb38",
          "type": "bytes32"
        }
      ],
      "name": "c_0x054cfb38",
      "outputs": [],
      "stateMutability": "pure",
      "type": "function"
    },
    {
      "inputs": [
        {
          "internalType": "bytes32",
          "name": "c__0x46521be6",
          "type": "bytes32"
        }
      ],
      "name": "c_0x46521be6",
      "outputs": [],
      "stateMutability": "pure",
      "type": "function"
    },
    {
      "inputs": [
        {
          "internalType": "bytes32",
          "name": "c__0xd04909f6",
          "type": "bytes32"
        }
      ],
      "name": "c_0xd04909f6",
      "outputs": [],
      "stateMutability": "pure",
      "type": "function"
    },
    {
      "inputs": [
        {
          "internalType": "bytes32",
          "name": "c__0xe2e62e6a",
          "type": "bytes32"
        }
      ],
      "name": "c_0xe2e62e6a",
      "outputs": [],
      "stateMutability": "pure",
      "type": "function"
    },
    {
      "inputs": [
        {
          "internalType": "bytes32",
          "name": "c__0xf6b3f458",
          "type": "bytes32"
        }
      ],
      "name": "c_0xf6b3f458",
      "outputs": [],
      "stateMutability": "pure",
      "type": "function"
    },
    {
      "inputs": [
        {
          "internalType": "address",
          "name": "operator",
          "type": "address"
        },
        {
          "internalType": "address",
          "name": "from",
          "type": "address"
        },
        {
          "internalType": "uint256[]",
          "name": "ids",
          "type": "uint256[]"
        },
        {
          "internalType": "uint256[]",
          "name": "values",
          "type": "uint256[]"
        },
        {
          "internalType": "bytes",
          "name": "data",
          "type": "bytes"
        }
      ],
      "name": "onERC1155BatchReceived",
      "outputs": [
        {
          "internalType": "bytes4",
          "name": "",
          "type": "bytes4"
        }
      ],
      "stateMutability": "nonpayable",
      "type": "function"
    },
    {
      "inputs": [
        {
          "internalType": "address",
          "name": "operator",
          "type": "address"
        },
        {
          "internalType": "address",
          "name": "from",
          "type": "address"
        },
        {
          "internalType": "uint256",
          "name": "id",
          "type": "uint256"
        },
        {
          "internalType": "uint256",
          "name": "value",
          "type": "uint256"
        },
        {
          "internalType": "bytes",
          "name": "data",
          "type": "bytes"
        }
      ],
      "name": "onERC1155Received",
      "outputs": [
        {
          "internalType": "bytes4",
          "name": "",
          "type": "bytes4"
        }
      ],
      "stateMutability": "nonpayable",
      "type": "function"
    },
    {
      "inputs": [
        {
          "internalType": "address",
          "name": "operator",
          "type": "address"
        },
        {
          "internalType": "address",
          "name": "from",
          "type": "address"
        },
        {
          "internalType": "uint256",
          "name": "tokenId",
          "type": "uint256"
        },
        {
          "internalType": "bytes",
          "name": "data",
          "type": "bytes"
        }
      ],
      "name": "onERC721Received",
      "outputs": [
        {
          "internalType": "bytes4",
          "name": "",
          "type": "bytes4"
        }
      ],
      "stateMutability": "nonpayable",
      "type": "function"
    },
    {
      "inputs": [
        {
          "internalType": "bytes4",
          "name": "interfaceId",
          "type": "bytes4"
        }
      ],
      "name": "supportsInterface",
      "outputs": [
        {
          "internalType": "bool",
          "name": "",
          "type": "bool"
        }
      ],
      "stateMutability": "view",
      "type": "function"
    }
  ],
  "bytecode": "0x60806040523480156200001157600080fd5b506040516200162838038062001628833981810160405260408110156200003757600080fd5b8101908080519060200190929190805190602001909291905050508082620000887fe1e82f33948963887bcf0f4f7fff1f450ef268b196afa8871d47509492c3466f60001b620001fd60201b60201c565b620000bc7f904f96f763519dc3823b10bf5dc3f51dd774c4d58b115953a8297500a1b0993860001b620001fd60201b60201c565b620000f07f35575b3c71eff3346ec7b8468d35bff9553f770741231e22e7bac2afff80591560001b620001fd60201b60201c565b806000806101000a81548160ff021916908315150217905550506200013e7f20e7402757f71af2d47e967c32aca11610e936dd8bf789b9d1a93ad3b5d9662660001b6200020060201b60201c565b620001727ff097ef571622f85cdb2e43c796ac318026d759e927ec095d5db75015c68f21be60001b6200020060201b60201c565b620001a67f785b4565fa0040876b6bea1dc70c6d4737fd9bb312c478c9008ede803d7921a960001b6200020060201b60201c565b80600060016101000a81548160ff02191690831515021790555050620001f57f1edeaee98306c51cdd66f88e8557470069a27eb6873df3e45a7b30152751dd5160001b6200020360201b60201c565b505062000206565b50565b50565b50565b61141280620002166000396000f3fe608060405234801561001057600080fd5b50600436106100a35760003560e01c8063c0945b3611610076578063e3670d481161005b578063e3670d4814610523578063e58ea42b14610551578063f23a6e611461057f576100a3565b8063c0945b36146104c7578063cbb9155d146104f5576100a3565b806301ffc9a7146100a8578063150b7a021461010b5780638bb1f98714610243578063bc197c8114610271575b600080fd5b6100f3600480360360208110156100be57600080fd5b8101908080357bffffffffffffffffffffffffffffffffffffffffffffffffffffffff191690602001909291905050506106c1565b60405180821515815260200191505060405180910390f35b61020e6004803603608081101561012157600080fd5b81019080803573ffffffffffffffffffffffffffffffffffffffff169060200190929190803573ffffffffffffffffffffffffffffffffffffffff169060200190929190803590602001909291908035906020019064010000000081111561018857600080fd5b82018360208201111561019a57600080fd5b803590602001918460018302840111640100000000831117156101bc57600080fd5b91908080601f016020809104026020016040519081016040528093929190818152602001838380828437600081840152601f19601f820116905080830192505050505050509192919290505050610767565b60405180827bffffffffffffffffffffffffffffffffffffffffffffffffffffffff1916815260200191505060405180910390f35b61026f6004803603602081101561025957600080fd5b8101908080359060200190929190505050610a83565b005b610492600480360360a081101561028757600080fd5b81019080803573ffffffffffffffffffffffffffffffffffffffff169060200190929190803573ffffffffffffffffffffffffffffffffffffffff169060200190929190803590602001906401000000008111156102e457600080fd5b8201836020820111156102f657600080fd5b8035906020019184602083028401116401000000008311171561031857600080fd5b919080806020026020016040519081016040528093929190818152602001838360200280828437600081840152601f19601f8201169050808301925050505050505091929192908035906020019064010000000081111561037857600080fd5b82018360208201111561038a57600080fd5b803590602001918460208302840111640100000000831117156103ac57600080fd5b919080806020026020016040519081016040528093929190818152602001838360200280828437600081840152601f19601f8201169050808301925050505050505091929192908035906020019064010000000081111561040c57600080fd5b82018360208201111561041e57600080fd5b8035906020019184600183028401116401000000008311171561044057600080fd5b91908080601f016020809104026020016040519081016040528093929190818152602001838380828437600081840152601f19601f820116905080830192505050505050509192919290505050610a86565b60405180827bffffffffffffffffffffffffffffffffffffffffffffffffffffffff1916815260200191505060405180910390f35b6104f3600480360360208110156104dd57600080fd5b8101908080359060200190929190505050610e16565b005b6105216004803603602081101561050b57600080fd5b8101908080359060200190929190505050610e19565b005b61054f6004803603602081101561053957600080fd5b8101908080359060200190929190505050610e1c565b005b61057d6004803603602081101561056757600080fd5b8101908080359060200190929190505050610e1f565b005b61068c600480360360a081101561059557600080fd5b81019080803573ffffffffffffffffffffffffffffffffffffffff169060200190929190803573ffffffffffffffffffffffffffffffffffffffff16906020019092919080359060200190929190803590602001909291908035906020019064010000000081111561060657600080fd5b82018360208201111561061857600080fd5b8035906020019184600183028401116401000000008311171561063a57600080fd5b91908080601f016020809104026020016040519081016040528093929190818152602001838380828437600081840152601f19601f820116905080830192505050505050509192919290505050610e22565b60405180827bffffffffffffffffffffffffffffffffffffffffffffffffffffffff1916815260200191505060405180910390f35b60006106ef7f7c4ab984bd8357cc7e09e0ae903bd87b5b30eda12f8684e5de755e6efb0f18e560001b610a83565b61071b7f37b909cd157971e567affbf1e37db7a297f27c862bbd4d3415ccf40935e058c260001b610a83565b6107477f9ebd8a3e929b3fe1ac52c218f7eac01497cd8eb126a04da635dc9c1ecede668a60001b610a83565b61075082611130565b80610760575061075f82611286565b5b9050919050565b60006107957f2968c65e7c5a5b0daad00172682959301598416f0461de88e1e5c2e26cbb95a960001b610e19565b6107c17fc075747ad5659db04ac035054759c195aa269c2243d87f14107ff5b1bc780a6b60001b610e19565b6107ed7f0c136e90af645a3112de19eedd8eff9ad2dea72b1476d6b582a2412d3875094060001b610e19565b60008054906101000a900460ff16156109ec5761082c7fa1357f231953831a3a6df903da0abeaa39fa22663bc9341aec9fb380fb2cde5560001b610e19565b6108587f5faed5824f23ab9086905e96e496fc0cbd6d50e82994d14a517d8f5831a9fb0960001b610e19565b6108847fff8141414e8165921947a928545eb86821c1f2762b8176adbe4b6503b9ca5ffc60001b610e19565b7f28fa6e16458f9c24aa59ddd4085264573006dbe30304837873c7deafc702b038858585855a604051808673ffffffffffffffffffffffffffffffffffffffff1681526020018573ffffffffffffffffffffffffffffffffffffffff16815260200184815260200180602001838152602001828103825284818151815260200191508051906020019080838360005b8381101561092e578082015181840152602081019050610913565b50505050905090810190601f16801561095b5780820380516001836020036101000a031916815260200191505b50965050505050505060405180910390a16109987fae5c9223a5b6ad2c11f766a95e74ab7f9e94c1252d76f9d7e4d0baf200cc68c960001b610e19565b6109c47f558370fe4b139cc27894903336afea336e74ad937214cf15eee43554eb4204d660001b610e19565b7f150b7a02000000000000000000000000000000000000000000000000000000009050610a7b565b610a187f35f95846b3950f72a76aa247b3dce35e65a33852c117c845c9e1464fc2d02bfb60001b610e19565b610a447fdb00671581778068ccb694f6a23d18941782472d301bc5efae5e0c962c9de9ed60001b610e19565b610a707f6912dbc81b65441a86459fa5826b392e983f5bae2fd86e7f0e29aaf8cbcf86c760001b610e19565b63ffffffff60e01b90505b949350505050565b50565b6000610ab47f268921dc3b6b7f823d5c1d650f2b99a6ffa4d2fc4a03b998c54f6265d2660e1260001b610e1f565b610ae07f75d22802983d62a716880d857485bc5f06c351c452bdd1cf94247d41c04a76bc60001b610e1f565b610b0c7f0c399f2b5755994b2488fa170518344183e9d25415b325f2afec15af21131fde60001b610e1f565b600060019054906101000a900460ff1615610d7e57610b4d7feb16ab3e1df78eaf99198c36212a24993e2f7c5c35be5ed418f37a0c8e41e2ea60001b610e1f565b610b797fe40f0cac2be6ef65f4af0717525437d39b52202ca7d277e65b09682426f57c1960001b610e1f565b610ba57f90301123677847cf3237906ce0beecc7c03d4de380e5065bc31fa0ce3102f63e60001b610e1f565b7f8667b06aa891a7720ada21ca62207388e6c8bd0ebee8a3d70ed6d3382e1e375386868686865a604051808773ffffffffffffffffffffffffffffffffffffffff1681526020018673ffffffffffffffffffffffffffffffffffffffff168152602001806020018060200180602001858152602001848103845288818151815260200191508051906020019060200280838360005b83811015610c55578082015181840152602081019050610c3a565b50505050905001848103835287818151815260200191508051906020019060200280838360005b83811015610c97578082015181840152602081019050610c7c565b50505050905001848103825286818151815260200191508051906020019080838360005b83811015610cd6578082015181840152602081019050610cbb565b50505050905090810190601f168015610d035780820380516001836020036101000a031916815260200191505b50995050505050505050505060405180910390a1610d437f9f9bdea00f881f3a743fdf7a23852acb668fa165e8298e05603a1bd92d39167560001b610e1f565b610d6f7f0f3eaf975c18bbc93f36edc81fc4c5e86b587395d6326139a6c7216d995d50af60001b610e1f565b63bc197c8160e01b9050610e0d565b610daa7fe6f03d3424267762bda8da7419f122e30cb0688141158fe91f3a4888572372ba60001b610e1f565b610dd67f7cd751a0be3455cf2cfd69152abcea72529a3ecacc86e478e4b6a014fbdf0b3e60001b610e1f565b610e027f43514178156a8e030cbfed24261d1f560882090fbfd64db850622020fd465c1560001b610e1f565b63ffffffff60e01b90505b95945050505050565b50565b50565b50565b50565b6000610e507f3d91153291013f4bfc3d130818f87bb8bd8d124c467303481fb1a6ec9977597b60001b610e1f565b610e7c7f4e6866de8a08c2cd1f33c6c9aa35146db6d0e898a6db7459983eb705699deb1b60001b610e1f565b610ea87f571687d57a84640a8dfc954d8c8139960b657ad573d06bebf08c9d0bff4cd9b160001b610e1f565b600060019054906101000a900460ff161561109857610ee97fcc428275cd0199262ec149127b800b653d578c9d895de6dd3394256749c788b760001b610e1f565b610f157ff0c6a7e60ae9a49c1015f2e5e3f4ee219cbb86be61feb1b312ad8957e8c2155560001b610e1f565b610f417f82ceb0e18c6f2740c15fdb7f51595f35af9b0637dbbe938a5bab0bdca8d164fd60001b610e1f565b7fbafaa6e1c57bb05a9b952e12b8ff1bcbfd2a0d9f6c8097c6fb28e241610cac5286868686865a604051808773ffffffffffffffffffffffffffffffffffffffff1681526020018673ffffffffffffffffffffffffffffffffffffffff16815260200185815260200184815260200180602001838152602001828103825284818151815260200191508051906020019080838360005b83811015610ff2578082015181840152602081019050610fd7565b50505050905090810190601f16801561101f5780820380516001836020036101000a031916815260200191505b5097505050505050505060405180910390a161105d7f7eb443a0ae1a53f5edcea2321a5cb9423e44b7fd56745896b99517c26ecc139f60001b610e1f565b6110897fa11abcc75dd1bc6488438b03c98ff6a8b451277e4c365bcfe8cc1829a389e09e60001b610e1f565b63f23a6e6160e01b9050611127565b6110c47f0cb029eafd6953fe2ef9a7c604cc683f3a035d5a6b5f1776468d479428e5b94560001b610e1f565b6110f07f60ca08d4ed69d7d52e5a5a49e614cae0eb0a85b53439baafba23d98c7bfdd77260001b610e1f565b61111c7fdcaadc418ddd6d13551a711dac76d47939816dbab59d0eb96abf0078651f27e660001b610e1f565b63ffffffff60e01b90505b95945050505050565b600061115e7f8e78bd84b8de8ab276571647011d55878fac86beb6fcdc3430c643638b823ba960001b610e16565b61118a7f5b56151732f15aaccf3a16c70a1e0510020dec0192a0bd31e6d3f214195ec9a660001b610e16565b6111b67fc306e4b4b75e22e0c8ca681b6badb0771ec8367cc7d234410d0bda8e08b4546e60001b610e16565b7f01ffc9a7000000000000000000000000000000000000000000000000000000007bffffffffffffffffffffffffffffffffffffffffffffffffffffffff1916827bffffffffffffffffffffffffffffffffffffffffffffffffffffffff1916148061127f57507f150b7a02000000000000000000000000000000000000000000000000000000007bffffffffffffffffffffffffffffffffffffffffffffffffffffffff1916827bffffffffffffffffffffffffffffffffffffffffffffffffffffffff1916145b9050919050565b60006112b47faf06a9661a04b72e573adc0d5bcbde5908996181ae4a225df526f9ceeddc533d60001b610e1c565b6112e07f2fc1f7d391a2b5a8e00642c5433a90b5880ceab46288711b76e6d7b11abb387f60001b610e1c565b61130c7f8be486d2fcf7db67e0def2537031f96ba9f24748dc4d1e2db0b00f424b9f478560001b610e1c565b7f01ffc9a7000000000000000000000000000000000000000000000000000000007bffffffffffffffffffffffffffffffffffffffffffffffffffffffff1916827bffffffffffffffffffffffffffffffffffffffffffffffffffffffff191614806113d557507f4e2312e0000000000000000000000000000000000000000000000000000000007bffffffffffffffffffffffffffffffffffffffffffffffffffffffff1916827bffffffffffffffffffffffffffffffffffffffffffffffffffffffff1916145b905091905056fea2646970667358221220315649e535b1dfca2969a6ab80c9d5aa1b7671d96423731e1ed3c80274bd77b664736f6c63430007060033",
  "linkReferences": {},
  "deployedLinkReferences": {}
}