{
  "_format": "hh-sol-artifact-1",
  "contractName": "ERC1155InventoryPausableMock",
  "sourceName": "contracts/mocks/token/ERC1155/ERC1155InventoryPausableMock.sol",
  "abi": [
    {
      "inputs": [],
      "stateMutability": "nonpayable",
      "type": "constructor"
    },
    {
      "anonymous": false,
      "inputs": [
        {
          "indexed": true,
          "internalType": "address",
          "name": "_owner",
          "type": "address"
        },
        {
          "indexed": true,
          "internalType": "address",
          "name": "_operator",
          "type": "address"
        },
        {
          "indexed": false,
          "internalType": "bool",
          "name": "_approved",
          "type": "bool"
        }
      ],
      "name": "ApprovalForAll",
      "type": "event"
    },
    {
      "anonymous": false,
      "inputs": [
        {
          "indexed": false,
          "internalType": "string",
          "name": "baseMetadataURI",
          "type": "string"
        }
      ],
      "name": "BaseMetadataURISet",
      "type": "event"
    },
    {
      "anonymous": false,
      "inputs": [
        {
          "indexed": true,
          "internalType": "uint256",
          "name": "collectionId",
          "type": "uint256"
        },
        {
          "indexed": true,
          "internalType": "bool",
          "name": "fungible",
          "type": "bool"
        }
      ],
      "name": "CollectionCreated",
      "type": "event"
    },
    {
      "anonymous": false,
      "inputs": [
        {
          "indexed": true,
          "internalType": "address",
          "name": "account",
          "type": "address"
        }
      ],
      "name": "MinterAdded",
      "type": "event"
    },
    {
      "anonymous": false,
      "inputs": [
        {
          "indexed": true,
          "internalType": "address",
          "name": "account",
          "type": "address"
        }
      ],
      "name": "MinterRemoved",
      "type": "event"
    },
    {
      "anonymous": false,
      "inputs": [
        {
          "indexed": true,
          "internalType": "address",
          "name": "previousOwner",
          "type": "address"
        },
        {
          "indexed": true,
          "internalType": "address",
          "name": "newOwner",
          "type": "address"
        }
      ],
      "name": "OwnershipTransferred",
      "type": "event"
    },
    {
      "anonymous": false,
      "inputs": [
        {
          "indexed": false,
          "internalType": "address",
          "name": "account",
          "type": "address"
        }
      ],
      "name": "Paused",
      "type": "event"
    },
    {
      "anonymous": false,
      "inputs": [
        {
          "indexed": true,
          "internalType": "address",
          "name": "_operator",
          "type": "address"
        },
        {
          "indexed": true,
          "internalType": "address",
          "name": "_from",
          "type": "address"
        },
        {
          "indexed": true,
          "internalType": "address",
          "name": "_to",
          "type": "address"
        },
        {
          "indexed": false,
          "internalType": "uint256[]",
          "name": "_ids",
          "type": "uint256[]"
        },
        {
          "indexed": false,
          "internalType": "uint256[]",
          "name": "_values",
          "type": "uint256[]"
        }
      ],
      "name": "TransferBatch",
      "type": "event"
    },
    {
      "anonymous": false,
      "inputs": [
        {
          "indexed": true,
          "internalType": "address",
          "name": "_operator",
          "type": "address"
        },
        {
          "indexed": true,
          "internalType": "address",
          "name": "_from",
          "type": "address"
        },
        {
          "indexed": true,
          "internalType": "address",
          "name": "_to",
          "type": "address"
        },
        {
          "indexed": false,
          "internalType": "uint256",
          "name": "_id",
          "type": "uint256"
        },
        {
          "indexed": false,
          "internalType": "uint256",
          "name": "_value",
          "type": "uint256"
        }
      ],
      "name": "TransferSingle",
      "type": "event"
    },
    {
      "anonymous": false,
      "inputs": [
        {
          "indexed": false,
          "internalType": "string",
          "name": "_value",
          "type": "string"
        },
        {
          "indexed": true,
          "internalType": "uint256",
          "name": "_id",
          "type": "uint256"
        }
      ],
      "name": "URI",
      "type": "event"
    },
    {
      "anonymous": false,
      "inputs": [
        {
          "indexed": false,
          "internalType": "address",
          "name": "account",
          "type": "address"
        }
      ],
      "name": "Unpaused",
      "type": "event"
    },
    {
      "inputs": [
        {
          "internalType": "address",
          "name": "account",
          "type": "address"
        }
      ],
      "name": "addMinter",
      "outputs": [],
      "stateMutability": "nonpayable",
      "type": "function"
    },
    {
      "inputs": [
        {
          "internalType": "address",
          "name": "owner",
          "type": "address"
        },
        {
          "internalType": "uint256",
          "name": "id",
          "type": "uint256"
        }
      ],
      "name": "balanceOf",
      "outputs": [
        {
          "internalType": "uint256",
          "name": "",
          "type": "uint256"
        }
      ],
      "stateMutability": "view",
      "type": "function"
    },
    {
      "inputs": [
        {
          "internalType": "address[]",
          "name": "owners",
          "type": "address[]"
        },
        {
          "internalType": "uint256[]",
          "name": "ids",
          "type": "uint256[]"
        }
      ],
      "name": "balanceOfBatch",
      "outputs": [
        {
          "internalType": "uint256[]",
          "name": "",
          "type": "uint256[]"
        }
      ],
      "stateMutability": "view",
      "type": "function"
    },
    {
      "inputs": [],
      "name": "baseMetadataURI",
      "outputs": [
        {
          "internalType": "string",
          "name": "",
          "type": "string"
        }
      ],
      "stateMutability": "view",
      "type": "function"
    },
    {
      "inputs": [
        {
          "internalType": "address",
          "name": "from",
          "type": "address"
        },
        {
          "internalType": "uint256[]",
          "name": "ids",
          "type": "uint256[]"
        },
        {
          "internalType": "uint256[]",
          "name": "values",
          "type": "uint256[]"
        }
      ],
      "name": "batchBurnFrom",
      "outputs": [],
      "stateMutability": "nonpayable",
      "type": "function"
    },
    {
      "inputs": [
        {
          "internalType": "address",
          "name": "from",
          "type": "address"
        },
        {
          "internalType": "uint256",
          "name": "id",
          "type": "uint256"
        },
        {
          "internalType": "uint256",
          "name": "value",
          "type": "uint256"
        }
      ],
      "name": "burnFrom",
      "outputs": [],
      "stateMutability": "nonpayable",
      "type": "function"
    },
    {
      "inputs": [
        {
          "internalType": "uint256",
          "name": "nftId",
          "type": "uint256"
        }
      ],
      "name": "collectionOf",
      "outputs": [
        {
          "internalType": "uint256",
          "name": "",
          "type": "uint256"
        }
      ],
      "stateMutability": "pure",
      "type": "function"
    },
    {
      "inputs": [
        {
          "internalType": "uint256",
          "name": "collectionId",
          "type": "uint256"
        }
      ],
      "name": "createCollection",
      "outputs": [],
      "stateMutability": "nonpayable",
      "type": "function"
    },
    {
      "inputs": [
        {
          "internalType": "uint256",
          "name": "collectionId",
          "type": "uint256"
        }
      ],
      "name": "creator",
      "outputs": [
        {
          "internalType": "address",
          "name": "",
          "type": "address"
        }
      ],
      "stateMutability": "view",
      "type": "function"
    },
    {
      "inputs": [
        {
          "internalType": "address",
          "name": "tokenOwner",
          "type": "address"
        },
        {
          "internalType": "address",
          "name": "operator",
          "type": "address"
        }
      ],
      "name": "isApprovedForAll",
      "outputs": [
        {
          "internalType": "bool",
          "name": "",
          "type": "bool"
        }
      ],
      "stateMutability": "view",
      "type": "function"
    },
    {
      "inputs": [
        {
          "internalType": "uint256",
          "name": "id",
          "type": "uint256"
        }
      ],
      "name": "isFungible",
      "outputs": [
        {
          "internalType": "bool",
          "name": "",
          "type": "bool"
        }
      ],
      "stateMutability": "pure",
      "type": "function"
    },
    {
      "inputs": [
        {
          "internalType": "address",
          "name": "",
          "type": "address"
        }
      ],
      "name": "isMinter",
      "outputs": [
        {
          "internalType": "bool",
          "name": "",
          "type": "bool"
        }
      ],
      "stateMutability": "view",
      "type": "function"
    },
    {
      "inputs": [],
      "name": "owner",
      "outputs": [
        {
          "internalType": "address",
          "name": "",
          "type": "address"
        }
      ],
      "stateMutability": "view",
      "type": "function"
    },
    {
      "inputs": [
        {
          "internalType": "uint256",
          "name": "nftId",
          "type": "uint256"
        }
      ],
      "name": "ownerOf",
      "outputs": [
        {
          "internalType": "address",
          "name": "",
          "type": "address"
        }
      ],
      "stateMutability": "view",
      "type": "function"
    },
    {
      "inputs": [],
      "name": "pause",
      "outputs": [],
      "stateMutability": "nonpayable",
      "type": "function"
    },
    {
      "inputs": [],
      "name": "paused",
      "outputs": [
        {
          "internalType": "bool",
          "name": "",
          "type": "bool"
        }
      ],
      "stateMutability": "view",
      "type": "function"
    },
    {
      "inputs": [],
      "name": "renounceMinter",
      "outputs": [],
      "stateMutability": "nonpayable",
      "type": "function"
    },
    {
      "inputs": [
        {
          "internalType": "address",
          "name": "to",
          "type": "address"
        },
        {
          "internalType": "uint256[]",
          "name": "ids",
          "type": "uint256[]"
        },
        {
          "internalType": "uint256[]",
          "name": "values",
          "type": "uint256[]"
        },
        {
          "internalType": "bytes",
          "name": "data",
          "type": "bytes"
        }
      ],
      "name": "safeBatchMint",
      "outputs": [],
      "stateMutability": "nonpayable",
      "type": "function"
    },
    {
      "inputs": [
        {
          "internalType": "address",
          "name": "from",
          "type": "address"
        },
        {
          "internalType": "address",
          "name": "to",
          "type": "address"
        },
        {
          "internalType": "uint256[]",
          "name": "ids",
          "type": "uint256[]"
        },
        {
          "internalType": "uint256[]",
          "name": "values",
          "type": "uint256[]"
        },
        {
          "internalType": "bytes",
          "name": "data",
          "type": "bytes"
        }
      ],
      "name": "safeBatchTransferFrom",
      "outputs": [],
      "stateMutability": "nonpayable",
      "type": "function"
    },
    {
      "inputs": [
        {
          "internalType": "address",
          "name": "to",
          "type": "address"
        },
        {
          "internalType": "uint256",
          "name": "id",
          "type": "uint256"
        },
        {
          "internalType": "uint256",
          "name": "value",
          "type": "uint256"
        },
        {
          "internalType": "bytes",
          "name": "data",
          "type": "bytes"
        }
      ],
      "name": "safeMint",
      "outputs": [],
      "stateMutability": "nonpayable",
      "type": "function"
    },
    {
      "inputs": [
        {
          "internalType": "address",
          "name": "from",
          "type": "address"
        },
        {
          "internalType": "address",
          "name": "to",
          "type": "address"
        },
        {
          "internalType": "uint256",
          "name": "id",
          "type": "uint256"
        },
        {
          "internalType": "uint256",
          "name": "value",
          "type": "uint256"
        },
        {
          "internalType": "bytes",
          "name": "data",
          "type": "bytes"
        }
      ],
      "name": "safeTransferFrom",
      "outputs": [],
      "stateMutability": "nonpayable",
      "type": "function"
    },
    {
      "inputs": [
        {
          "internalType": "address",
          "name": "operator",
          "type": "address"
        },
        {
          "internalType": "bool",
          "name": "approved",
          "type": "bool"
        }
      ],
      "name": "setApprovalForAll",
      "outputs": [],
      "stateMutability": "nonpayable",
      "type": "function"
    },
    {
      "inputs": [
        {
          "internalType": "string",
          "name": "baseMetadataURI_",
          "type": "string"
        }
      ],
      "name": "setBaseMetadataURI",
      "outputs": [],
      "stateMutability": "nonpayable",
      "type": "function"
    },
    {
      "inputs": [
        {
          "internalType": "bytes4",
          "name": "interfaceId",
          "type": "bytes4"
        }
      ],
      "name": "supportsInterface",
      "outputs": [
        {
          "internalType": "bool",
          "name": "",
          "type": "bool"
        }
      ],
      "stateMutability": "view",
      "type": "function"
    },
    {
      "inputs": [
        {
          "internalType": "uint256",
          "name": "id",
          "type": "uint256"
        }
      ],
      "name": "totalSupply",
      "outputs": [
        {
          "internalType": "uint256",
          "name": "",
          "type": "uint256"
        }
      ],
      "stateMutability": "view",
      "type": "function"
    },
    {
      "inputs": [
        {
          "internalType": "address",
          "name": "newOwner",
          "type": "address"
        }
      ],
      "name": "transferOwnership",
      "outputs": [],
      "stateMutability": "nonpayable",
      "type": "function"
    },
    {
      "inputs": [],
      "name": "unpause",
      "outputs": [],
      "stateMutability": "nonpayable",
      "type": "function"
    },
    {
      "inputs": [
        {
          "internalType": "uint256",
          "name": "id",
          "type": "uint256"
        }
      ],
      "name": "uri",
      "outputs": [
        {
          "internalType": "string",
          "name": "",
          "type": "string"
        }
      ],
      "stateMutability": "view",
      "type": "function"
    }
  ],
  "bytecode": "0x60806040523480156200001157600080fd5b506000805460ff19168155600680546001600160a01b03191633908117909155604051909182918291907f8be0079c531659141344cd1fd0a4f28419497f9722a3daafe3b4186f6b6457e0908290a3506200006c8162000073565b50620000bf565b6001600160a01b038116600081815260086020526040808220805460ff19166001179055517f6ae172837ea30b801fbfcdd4108aa1d5bf8ff775444fd70256b44e6bf3dfc3f69190a250565b61341f80620000cf6000396000f3fe608060405234801561001057600080fd5b50600436106101c35760003560e01c806380534934116100f9578063adebf6f211610097578063d0011d9d11610071578063d0011d9d14610b5e578063e985e9c514610b7b578063f242432a14610ba9578063f2fde38b14610c74576101c3565b8063adebf6f214610b07578063bd85b03914610b24578063c7778baa14610b41576101c3565b8063983b2d56116100d3578063983b2d5614610a855780639865027514610aab578063a22cb46514610ab3578063aa271e1a14610ae1576101c3565b8063805349341461093e5780638456cb5914610a755780638da5cb5b14610a7d576101c3565b80634e1273f4116101665780635c975abb116101405780635c975abb146107e75780635cfa9297146107ef5780636352211e146108b15780637e518ec8146108ce576101c3565b80634e1273f414610694578063510b5158146107a65780635b2bd79e146107df576101c3565b80630e89341c116101a25780630e89341c14610401578063124d91e5146104935780632eb2c2d6146104c55780633f4ba83a1461068c576101c3565b8062fdd58e146101c857806301ffc9a7146102065780630d6a5bbb14610241575b600080fd5b6101f4600480360360408110156101de57600080fd5b506001600160a01b038135169060200135610c9a565b60408051918252519081900360200190f35b61022d6004803603602081101561021c57600080fd5b50356001600160e01b031916610d65565b604080519115158252519081900360200190f35b6103ff6004803603608081101561025757600080fd5b6001600160a01b03823516919081019060408101602082013564010000000081111561028257600080fd5b82018360208201111561029457600080fd5b803590602001918460208302840111640100000000831117156102b657600080fd5b919080806020026020016040519081016040528093929190818152602001838360200280828437600092019190915250929594936020810193503591505064010000000081111561030657600080fd5b82018360208201111561031857600080fd5b8035906020019184602083028401116401000000008311171561033a57600080fd5b919080806020026020016040519081016040528093929190818152602001838360200280828437600092019190915250929594936020810193503591505064010000000081111561038a57600080fd5b82018360208201111561039c57600080fd5b803590602001918460018302840111640100000000831117156103be57600080fd5b91908080601f016020809104026020016040519081016040528093929190818152602001838380828437600092019190915250929550610dab945050505050565b005b61041e6004803603602081101561041757600080fd5b5035610dcd565b6040805160208082528351818301528351919283929083019185019080838360005b83811015610458578181015183820152602001610440565b50505050905090810190601f1680156104855780820380516001836020036101000a031916815260200191505b509250505060405180910390f35b6103ff600480360360608110156104a957600080fd5b506001600160a01b038135169060208101359060400135610dd8565b6103ff600480360360a08110156104db57600080fd5b6001600160a01b03823581169260208101359091169181019060608101604082013564010000000081111561050f57600080fd5b82018360208201111561052157600080fd5b8035906020019184602083028401116401000000008311171561054357600080fd5b919080806020026020016040519081016040528093929190818152602001838360200280828437600092019190915250929594936020810193503591505064010000000081111561059357600080fd5b8201836020820111156105a557600080fd5b803590602001918460208302840111640100000000831117156105c757600080fd5b919080806020026020016040519081016040528093929190818152602001838360200280828437600092019190915250929594936020810193503591505064010000000081111561061757600080fd5b82018360208201111561062957600080fd5b8035906020019184600183028401116401000000008311171561064b57600080fd5b91908080601f016020809104026020016040519081016040528093929190818152602001838380828437600092019190915250929550610df0945050505050565b6103ff610e0c565b610756600480360360408110156106aa57600080fd5b8101906020810181356401000000008111156106c557600080fd5b8201836020820111156106d757600080fd5b803590602001918460208302840111640100000000831117156106f957600080fd5b91939092909160208101903564010000000081111561071757600080fd5b82018360208201111561072957600080fd5b8035906020019184602083028401116401000000008311171561074b57600080fd5b509092509050610e26565b60408051602080825283518183015283519192839290830191858101910280838360005b8381101561079257818101518382015260200161077a565b505050509050019250505060405180910390f35b6107c3600480360360208110156107bc57600080fd5b5035610f2c565b604080516001600160a01b039092168252519081900360200190f35b61041e610f37565b61022d610fc5565b6103ff6004803603608081101561080557600080fd5b6001600160a01b03823516916020810135916040820135919081019060808101606082013564010000000081111561083c57600080fd5b82018360208201111561084e57600080fd5b8035906020019184600183028401116401000000008311171561087057600080fd5b91908080601f016020809104026020016040519081016040528093929190818152602001838380828437600092019190915250929550610fce945050505050565b6107c3600480360360208110156108c757600080fd5b5035610fe5565b6103ff600480360360208110156108e457600080fd5b8101906020810181356401000000008111156108ff57600080fd5b82018360208201111561091157600080fd5b8035906020019184600183028401116401000000008311171561093357600080fd5b50909250905061104f565b6103ff6004803603606081101561095457600080fd5b6001600160a01b03823516919081019060408101602082013564010000000081111561097f57600080fd5b82018360208201111561099157600080fd5b803590602001918460208302840111640100000000831117156109b357600080fd5b9190808060200260200160405190810160405280939291908181526020018383602002808284376000920191909152509295949360208101935035915050640100000000811115610a0357600080fd5b820183602082011115610a1557600080fd5b80359060200191846020830284011164010000000083111715610a3757600080fd5b9190808060200260200160405190810160405280939291908181526020018383602002808284376000920191909152509295506110cb945050505050565b6103ff6110de565b6107c36110f1565b6103ff60048036036020811015610a9b57600080fd5b50356001600160a01b0316611100565b6103ff611117565b6103ff60048036036040811015610ac957600080fd5b506001600160a01b0381351690602001351515611175565b61022d60048036036020811015610af757600080fd5b50356001600160a01b0316611256565b61022d60048036036020811015610b1d57600080fd5b503561126b565b6101f460048036036020811015610b3a57600080fd5b5035611276565b6101f460048036036020811015610b5757600080fd5b50356112cc565b6103ff60048036036020811015610b7457600080fd5b5035611331565b61022d60048036036040811015610b9157600080fd5b506001600160a01b0381358116916020013516611345565b6103ff600480360360a0811015610bbf57600080fd5b6001600160a01b03823581169260208101359091169160408201359160608101359181019060a081016080820135640100000000811115610bff57600080fd5b820183602082011115610c1157600080fd5b80359060200191846001830284011164010000000083111715610c3357600080fd5b91908080601f016020809104026020016040519081016040528093929190818152602001838380828437600092019190915250929550611373945050505050565b6103ff60048036036020811015610c8a57600080fd5b50356001600160a01b0316611388565b60006001600160a01b038316610cf7576040805162461bcd60e51b815260206004820152601760248201527f496e76656e746f72793a207a65726f2061646472657373000000000000000000604482015290519081900360640190fd5b610d00826113fb565b15610d3a576000828152600460205260409020546001600160a01b03848116911614610d2d576000610d30565b60015b60ff169050610d5f565b5060008181526002602090815260408083206001600160a01b03861684529091529020545b92915050565b60006001600160e01b031982167f510b5158000000000000000000000000000000000000000000000000000000001480610da35750610da38261144d565b90505b919050565b610dbb610db661148b565b61148f565b610dc7848484846114fc565b50505050565b6060610da382611837565b610de061190a565b610deb838383611962565b505050565b610df861190a565b610e058585858585611a66565b5050505050565b610e1c610e1761148b565b611a73565b610e24611b37565b565b6060838214610e7c576040805162461bcd60e51b815260206004820152601e60248201527f496e76656e746f72793a20696e636f6e73697374656e74206172726179730000604482015290519081900360640190fd5b60008467ffffffffffffffff81118015610e9557600080fd5b50604051908082528060200260200182016040528015610ebf578160200160208202803683370190505b50905060005b808614610f2257610f03878783818110610edb57fe5b905060200201356001600160a01b0316868684818110610ef757fe5b90506020020135610c9a565b828281518110610f0f57fe5b6020908102919091010152600101610ec5565b5095945050505050565b6000610da382611b8f565b6007805460408051602060026001851615610100026000190190941693909304601f81018490048402820184019092528181529291830182828015610fbd5780601f10610f9257610100808354040283529160200191610fbd565b820191906000526020600020905b815481529060010190602001808311610fa057829003601f168201915b505050505081565b60005460ff1681565b610fd9610db661148b565b610dc784848484611c08565b6000818152600460205260408120546001600160a01b038116610da3576040805162461bcd60e51b815260206004820152601b60248201527f496e76656e746f72793a206e6f6e2d6578697374696e67204e46540000000000604482015290519081900360640190fd5b61105a610e1761148b565b61106660078383613348565b507f04b1dc5c136a3ce9fded8db0ce3d3366c58764ec3a8e4c2b9e52e4ddfe5ebbf7828260405180806020018281038252848482818152602001925080828437600083820152604051601f909101601f19169092018290039550909350505050a15050565b6110d361190a565b610deb838383611d1d565b6110e9610e1761148b565b610e24611ff4565b6006546001600160a01b031690565b61110b610e1761148b565b61111481612032565b50565b600061112161148b565b905061112c8161148f565b6001600160a01b038116600081815260086020526040808220805460ff19169055517fe94479a9f7e1952cc78f2d6baab678adc1b772d936c6583def489e524cb666929190a250565b600061117f61148b565b9050806001600160a01b0316836001600160a01b031614156111e8576040805162461bcd60e51b815260206004820152601860248201527f496e76656e746f72793a2073656c662d617070726f76616c0000000000000000604482015290519081900360640190fd5b6001600160a01b03818116600081815260016020908152604080832094881680845294825291829020805460ff1916871515908117909155825190815291517f17307eab39ab6107e8899845ad3d59bd9653f200f220920489ca2b5937696c319281900390910190a3505050565b60086020526000908152604090205460ff1681565b6000610da38261207e565b6000611281826113fb565b156112b7576000828152600460205260409020546001600160a01b0316156112aa5760016112ad565b60005b60ff169050610da6565b50600081815260036020526040902054610da6565b60006112d7826113fb565b611328576040805162461bcd60e51b815260206004820152601560248201527f496e76656e746f72793a206e6f7420616e204e46540000000000000000000000604482015290519081900360640190fd5b610da3826120a4565b61133c610e1761148b565b611114816120b1565b6001600160a01b03918216600090815260016020908152604080832093909416825291909152205460ff1690565b61137b61190a565b610e0585858585856121fd565b611393610e1761148b565b600680547fffffffffffffffffffffffff0000000000000000000000000000000000000000166001600160a01b0383811691821792839055604051919216907f8be0079c531659141344cd1fd0a4f28419497f9722a3daafe3b4186f6b6457e090600090a350565b60007f8000000000000000000000000000000000000000000000000000000000000000821615801590610da35750507bffffffffffffffffffffffffffffffffffffffffffffffffffffffff16151590565b60006001600160e01b031982167f921ed8d1000000000000000000000000000000000000000000000000000000001480610da35750610da382612383565b3390565b6001600160a01b03811660009081526008602052604090205460ff16611114576040805162461bcd60e51b815260206004820152601860248201527f4d696e746572526f6c653a206e6f742061204d696e7465720000000000000000604482015290519081900360640190fd5b6001600160a01b038416611557576040805162461bcd60e51b815260206004820152601760248201527f496e76656e746f72793a206d696e7420746f207a65726f000000000000000000604482015290519081900360640190fd5b8251825181146115ae576040805162461bcd60e51b815260206004820152601e60248201527f496e76656e746f72793a20696e636f6e73697374656e74206172726179730000604482015290519081900360640190fd5b60008060005b8381146116f15760008782815181106115c957fe5b6020026020010151905060008783815181106115e157fe5b602002602001015190506115f48261207e565b15611609576116048a8383612484565b6116e7565b611612826113fb565b1561169a576116248a83836001612576565b600061162f836120a4565b9050856116425780955060019450611694565b85811461168d5760008681526002602090815260408083206001600160a01b038f16845282528083208054890190559782526003905295909520805490940190935560019284611694565b8460010194505b506116e7565b6040805162461bcd60e51b815260206004820152601960248201527f496e76656e746f72793a206e6f74206120746f6b656e20696400000000000000604482015290519081900360640190fd5b50506001016115b4565b5081156117315760008281526002602090815260408083206001600160a01b038b1684528252808320805485019055848352600390915290208054820190555b6001600160a01b038716600061174561148b565b6001600160a01b03167f4a39dc06d4c0dbc64b70af90fd698a233a518aa5d07e595d983b8c0526c8f7fb8989604051808060200180602001838103835285818151815260200191508051906020019060200280838360005b838110156117b557818101518382015260200161179d565b50505050905001838103825284818151815260200191508051906020019060200280838360005b838110156117f45781810151838201526020016117dc565b5050505090500194505050505060405180910390a461181b876001600160a01b0316612698565b1561182e5761182e60008888888861269e565b50505050505050565b60606007611844836128a4565b60405160200180838054600181600116156101000203166002900480156118a25780601f106118805761010080835404028352918201916118a2565b820191906000526020600020905b81548152906001019060200180831161188e575b5050825160208401908083835b602083106118ce5780518252601f1990920191602091820191016118af565b6001836020036101000a038019825116818451168082178552505050505050905001925050506040516020818303038152906040529050919050565b60005460ff1615610e24576040805162461bcd60e51b815260206004820152601060248201527f5061757361626c653a2070617573656400000000000000000000000000000000604482015290519081900360640190fd5b600061196c61148b565b905061197884826129b3565b6119c9576040805162461bcd60e51b815260206004820152601e60248201527f496e76656e746f72793a206e6f6e2d617070726f7665642073656e6465720000604482015290519081900360640190fd5b6119d28361207e565b156119e7576119e2848484612a01565b611a02565b6119f0836113fb565b1561169a576119e28484846000612b0a565b60006001600160a01b0316846001600160a01b0316826001600160a01b03167fc3d58168c5ae7397731d063d5bbf3d657854427343f4c083240f7aacaa2d0f628686604051808381526020018281526020019250505060405180910390a450505050565b610e058585858585612c53565b306001600160a01b0316638da5cb5b6040518163ffffffff1660e01b815260040160206040518083038186803b158015611aac57600080fd5b505afa158015611ac0573d6000803e3d6000fd5b505050506040513d6020811015611ad657600080fd5b50516001600160a01b03828116911614611114576040805162461bcd60e51b815260206004820152601660248201527f4f776e61626c653a206e6f7420746865206f776e657200000000000000000000604482015290519081900360640190fd5b611b3f612f4f565b6000805460ff191690557f5db9ee0a495bf2e6ff9c91a7834c1ba4fdd244a5e8aa4e537bd38aeae4b073aa611b7261148b565b604080516001600160a01b039092168252519081900360200190a1565b6000611b9a826113fb565b15611bec576040805162461bcd60e51b815260206004820152601b60248201527f496e76656e746f72793a206e6f74206120636f6c6c656374696f6e0000000000604482015290519081900360640190fd5b506000908152600560205260409020546001600160a01b031690565b6001600160a01b038416611c63576040805162461bcd60e51b815260206004820152601760248201527f496e76656e746f72793a206d696e7420746f207a65726f000000000000000000604482015290519081900360640190fd5b611c6c8361207e565b15611c8157611c7c848484612484565b611c9c565b611c8a836113fb565b1561169a57611c7c8484846000612576565b6001600160a01b0384166000611cb061148b565b6001600160a01b03167fc3d58168c5ae7397731d063d5bbf3d657854427343f4c083240f7aacaa2d0f628686604051808381526020018281526020019250505060405180910390a4611d0a846001600160a01b0316612698565b15610dc757610dc7600085858585612fa6565b815181518114611d74576040805162461bcd60e51b815260206004820152601e60248201527f496e76656e746f72793a20696e636f6e73697374656e74206172726179730000604482015290519081900360640190fd5b6000611d7e61148b565b9050611d8a85826129b3565b611ddb576040805162461bcd60e51b815260206004820152601e60248201527f496e76656e746f72793a206e6f6e2d617070726f7665642073656e6465720000604482015290519081900360640190fd5b60008060005b848114611ecf576000878281518110611df657fe5b602002602001015190506000878381518110611e0e57fe5b60200260200101519050611e218261207e565b15611e3657611e318a8383612a01565b611ec5565b611e3f826113fb565b1561169a57611e518a83836001612b0a565b6000611e5c836120a4565b905085611e6f5780955060019450611ec3565b858114611ebc5760008681526002602090815260408083206001600160a01b038f168452825280832080548990039055978252600390529590952080549490940390935560019284611ec3565b8460010194505b505b5050600101611de1565b508115611f115760008281526002602090815260408083206001600160a01b038b16845282528083208054859003905584835260039091529020805482900390555b60006001600160a01b0316876001600160a01b0316846001600160a01b03167f4a39dc06d4c0dbc64b70af90fd698a233a518aa5d07e595d983b8c0526c8f7fb8989604051808060200180602001838103835285818151815260200191508051906020019060200280838360005b83811015611f97578181015183820152602001611f7f565b50505050905001838103825284818151815260200191508051906020019060200280838360005b83811015611fd6578181015183820152602001611fbe565b5050505090500194505050505060405180910390a450505050505050565b611ffc61190a565b6000805460ff191660011790557f62e78cea01bee320cd4e420270b5ea74000d11b0c9f74754ebdbfc544b05a258611b7261148b565b6001600160a01b038116600081815260086020526040808220805460ff19166001179055517f6ae172837ea30b801fbfcdd4108aa1d5bf8ff775444fd70256b44e6bf3dfc3f69190a250565b7f8000000000000000000000000000000000000000000000000000000000000000161590565b6001600160e01b03191690565b6120ba816113fb565b1561210c576040805162461bcd60e51b815260206004820152601b60248201527f496e76656e746f72793a206e6f74206120636f6c6c656374696f6e0000000000604482015290519081900360640190fd5b6000818152600560205260409020546001600160a01b031615612176576040805162461bcd60e51b815260206004820152601e60248201527f496e76656e746f72793a206578697374696e6720636f6c6c656374696f6e0000604482015290519081900360640190fd5b61217e61148b565b600082815260056020526040902080547fffffffffffffffffffffffff0000000000000000000000000000000000000000166001600160a01b03929092169190911790556121cb8161207e565b1515817f4ebf8ad0df535ba5e487bc9cb27fe44120ca81c3a95d3eba79c0bd1df2ab2d5d60405160405180910390a350565b600061220761148b565b90506001600160a01b038516612264576040805162461bcd60e51b815260206004820152601b60248201527f496e76656e746f72793a207472616e7366657220746f207a65726f0000000000604482015290519081900360640190fd5b61226e86826129b3565b6122bf576040805162461bcd60e51b815260206004820152601e60248201527f496e76656e746f72793a206e6f6e2d617070726f7665642073656e6465720000604482015290519081900360640190fd5b6122c88461207e565b156122de576122d9868686866130a8565b6122fa565b6122e7846113fb565b1561169a576122d98686868660006131c6565b846001600160a01b0316866001600160a01b0316826001600160a01b03167fc3d58168c5ae7397731d063d5bbf3d657854427343f4c083240f7aacaa2d0f628787604051808381526020018281526020019250505060405180910390a4612369856001600160a01b0316612698565b1561237b5761237b8686868686612fa6565b505050505050565b60006001600160e01b031982167f01ffc9a70000000000000000000000000000000000000000000000000000000014806123e657506001600160e01b031982167fd9b67a2600000000000000000000000000000000000000000000000000000000145b8061241a57506001600160e01b031982167f0e89341c00000000000000000000000000000000000000000000000000000000145b8061244e57506001600160e01b031982167f09ce5c4600000000000000000000000000000000000000000000000000000000145b80610da35750506001600160e01b0319167fbd85b039000000000000000000000000000000000000000000000000000000001490565b806124d6576040805162461bcd60e51b815260206004820152601560248201527f496e76656e746f72793a207a65726f2076616c75650000000000000000000000604482015290519081900360640190fd5b60008281526003602052604090205481810181811161253c576040805162461bcd60e51b815260206004820152601a60248201527f496e76656e746f72793a20737570706c79206f766572666c6f77000000000000604482015290519081900360640190fd5b600093845260036020908152604080862092909255600281528185206001600160a01b039096168552949094525091902080549091019055565b816001146125cb576040805162461bcd60e51b815260206004820152601a60248201527f496e76656e746f72793a2077726f6e67204e46542076616c7565000000000000604482015290519081900360640190fd5b6000838152600460205260409020541561262c576040805162461bcd60e51b815260206004820152601d60248201527f496e76656e746f72793a206578697374696e672f6275726e74204e4654000000604482015290519081900360640190fd5b60008381526004602052604090206001600160a01b038516905580610dc7576000612656846120a4565b600090815260036020908152604080832080546001908101909155600283528184206001600160a01b038a168552909252909120805490910190555050505050565b3b151590565b7fbc197c81000000000000000000000000000000000000000000000000000000006001600160a01b03851663bc197c816126d661148b565b888787876040518663ffffffff1660e01b815260040180866001600160a01b03168152602001856001600160a01b03168152602001806020018060200180602001848103845287818151815260200191508051906020019060200280838360005b8381101561274f578181015183820152602001612737565b50505050905001848103835286818151815260200191508051906020019060200280838360005b8381101561278e578181015183820152602001612776565b50505050905001848103825285818151815260200191508051906020019080838360005b838110156127ca5781810151838201526020016127b2565b50505050905090810190601f1680156127f75780820380516001836020036101000a031916815260200191505b5098505050505050505050602060405180830381600087803b15801561281c57600080fd5b505af1158015612830573d6000803e3d6000fd5b505050506040513d602081101561284657600080fd5b50516001600160e01b03191614610e05576040805162461bcd60e51b815260206004820152601b60248201527f496e76656e746f72793a207472616e7366657220726566757365640000000000604482015290519081900360640190fd5b6060816128e5575060408051808201909152600181527f30000000000000000000000000000000000000000000000000000000000000006020820152610da6565b8160005b81156128fd57600101600a820491506128e9565b60008167ffffffffffffffff8111801561291657600080fd5b506040519080825280601f01601f191660200182016040528015612941576020820181803683370190505b50859350905060001982015b83156129aa57600a840660300160f81b8282806001900393508151811061297057fe5b60200101907effffffffffffffffffffffffffffffffffffffffffffffffffffffffffffff1916908160001a905350600a8404935061294d565b50949350505050565b6000816001600160a01b0316836001600160a01b031614806129fa57506001600160a01b0380841660009081526001602090815260408083209386168352929052205460ff165b9392505050565b80612a53576040805162461bcd60e51b815260206004820152601560248201527f496e76656e746f72793a207a65726f2076616c75650000000000000000000000604482015290519081900360640190fd5b60008281526002602090815260408083206001600160a01b038716845290915290205481811015612acb576040805162461bcd60e51b815260206004820152601d60248201527f496e76656e746f72793a206e6f7420656e6f7567682062616c616e6365000000604482015290519081900360640190fd5b60008381526002602090815260408083206001600160a01b03909716835295815285822092849003909255928352600390529190208054919091039055565b81600114612b5f576040805162461bcd60e51b815260206004820152601a60248201527f496e76656e746f72793a2077726f6e67204e46542076616c7565000000000000604482015290519081900360640190fd5b6000838152600460205260409020546001600160a01b03858116911614612bcd576040805162461bcd60e51b815260206004820152601860248201527f496e76656e746f72793a206e6f6e2d6f776e6564204e46540000000000000000604482015290519081900360640190fd5b60008381526004602052604090207fdead000000000000000000000000000000000000000000000000000000000000905580610dc7576000612c0e846120a4565b60008181526002602090815260408083206001600160a01b038a1684528252808320805460001990810190915593835260039091529020805490910190555050505050565b6001600160a01b038416612cae576040805162461bcd60e51b815260206004820152601b60248201527f496e76656e746f72793a207472616e7366657220746f207a65726f0000000000604482015290519081900360640190fd5b825182518114612d05576040805162461bcd60e51b815260206004820152601e60248201527f496e76656e746f72793a20696e636f6e73697374656e74206172726179730000604482015290519081900360640190fd5b6000612d0f61148b565b9050612d1b87826129b3565b612d6c576040805162461bcd60e51b815260206004820152601e60248201527f496e76656e746f72793a206e6f6e2d617070726f7665642073656e6465720000604482015290519081900360640190fd5b60008060005b848114612e34576000888281518110612d8757fe5b602002602001015190506000888381518110612d9f57fe5b60200260200101519050612db28261207e565b15612dc857612dc38c8c84846130a8565b612e2a565b612dd1826113fb565b1561169a57612de48c8c848460016131c6565b6000612def836120a4565b905085612e025780955060019450612e28565b858114612e2157612e158d8d88886132f4565b80955060019450612e28565b8460010194505b505b5050600101612d72565b508115612e4757612e47898984846132f4565b876001600160a01b0316896001600160a01b0316846001600160a01b03167f4a39dc06d4c0dbc64b70af90fd698a233a518aa5d07e595d983b8c0526c8f7fb8a8a604051808060200180602001838103835285818151815260200191508051906020019060200280838360005b83811015612ecc578181015183820152602001612eb4565b50505050905001838103825284818151815260200191508051906020019060200280838360005b83811015612f0b578181015183820152602001612ef3565b5050505090500194505050505060405180910390a4612f32886001600160a01b0316612698565b15612f4457612f44898989898961269e565b505050505050505050565b60005460ff16610e24576040805162461bcd60e51b815260206004820152601460248201527f5061757361626c653a206e6f7420706175736564000000000000000000000000604482015290519081900360640190fd5b7ff23a6e61000000000000000000000000000000000000000000000000000000006001600160a01b03851663f23a6e61612fde61148b565b888787876040518663ffffffff1660e01b815260040180866001600160a01b03168152602001856001600160a01b0316815260200184815260200183815260200180602001828103825283818151815260200191508051906020019080838360005b83811015613058578181015183820152602001613040565b50505050905090810190601f1680156130855780820380516001836020036101000a031916815260200191505b509650505050505050602060405180830381600087803b15801561281c57600080fd5b806130fa576040805162461bcd60e51b815260206004820152601560248201527f496e76656e746f72793a207a65726f2076616c75650000000000000000000000604482015290519081900360640190fd5b60008281526002602090815260408083206001600160a01b038816845290915290205481811015613172576040805162461bcd60e51b815260206004820152601d60248201527f496e76656e746f72793a206e6f7420656e6f7567682062616c616e6365000000604482015290519081900360640190fd5b836001600160a01b0316856001600160a01b031614610e055760009283526002602090815260408085206001600160a01b039788168652909152808420918390039091559290931681522080549091019055565b8160011461321b576040805162461bcd60e51b815260206004820152601a60248201527f496e76656e746f72793a2077726f6e67204e46542076616c7565000000000000604482015290519081900360640190fd5b6000838152600460205260409020546001600160a01b03868116911614613289576040805162461bcd60e51b815260206004820152601860248201527f496e76656e746f72793a206e6f6e2d6f776e6564204e46540000000000000000604482015290519081900360640190fd5b60008381526004602052604090206001600160a01b038516905580610e055760006132b3846120a4565b60009081526002602090815260408083206001600160a01b03998a168452909152808220805460001901905595909616865250505091208054600101905550565b826001600160a01b0316846001600160a01b031614610dc75760009182526002602090815260408084206001600160a01b039687168552909152808320805483900390559290931681522080549091019055565b828054600181600116156101000203166002900490600052602060002090601f01602090048101928261337e57600085556133c4565b82601f106133975782800160ff198235161785556133c4565b828001600101855582156133c4579182015b828111156133c45782358255916020019190600101906133a9565b506133d09291506133d4565b5090565b5b808211156133d057600081556001016133d556fea26469706673582212205e896eb348f282ec278e82fa985610f9a811dc2dcce6f7db6657d8c22681da0164736f6c63430007060033",
  "linkReferences": {},
  "deployedLinkReferences": {}
}