{
  "_format": "hh-sol-artifact-1",
  "contractName": "ERC721Mock",
  "sourceName": "contracts/mocks/token/ERC721/ERC721Mock.sol",
  "abi": [
    {
      "inputs": [],
      "stateMutability": "nonpayable",
      "type": "constructor"
    },
    {
      "anonymous": false,
      "inputs": [
        {
          "indexed": true,
          "internalType": "address",
          "name": "_owner",
          "type": "address"
        },
        {
          "indexed": true,
          "internalType": "address",
          "name": "_approved",
          "type": "address"
        },
        {
          "indexed": true,
          "internalType": "uint256",
          "name": "_tokenId",
          "type": "uint256"
        }
      ],
      "name": "Approval",
      "type": "event"
    },
    {
      "anonymous": false,
      "inputs": [
        {
          "indexed": true,
          "internalType": "address",
          "name": "_owner",
          "type": "address"
        },
        {
          "indexed": true,
          "internalType": "address",
          "name": "_operator",
          "type": "address"
        },
        {
          "indexed": false,
          "internalType": "bool",
          "name": "_approved",
          "type": "bool"
        }
      ],
      "name": "ApprovalForAll",
      "type": "event"
    },
    {
      "anonymous": false,
      "inputs": [
        {
          "indexed": false,
          "internalType": "string",
          "name": "baseMetadataURI",
          "type": "string"
        }
      ],
      "name": "BaseMetadataURISet",
      "type": "event"
    },
    {
      "anonymous": false,
      "inputs": [
        {
          "indexed": true,
          "internalType": "address",
          "name": "account",
          "type": "address"
        }
      ],
      "name": "MinterAdded",
      "type": "event"
    },
    {
      "anonymous": false,
      "inputs": [
        {
          "indexed": true,
          "internalType": "address",
          "name": "account",
          "type": "address"
        }
      ],
      "name": "MinterRemoved",
      "type": "event"
    },
    {
      "anonymous": false,
      "inputs": [
        {
          "indexed": true,
          "internalType": "address",
          "name": "previousOwner",
          "type": "address"
        },
        {
          "indexed": true,
          "internalType": "address",
          "name": "newOwner",
          "type": "address"
        }
      ],
      "name": "OwnershipTransferred",
      "type": "event"
    },
    {
      "anonymous": false,
      "inputs": [
        {
          "indexed": true,
          "internalType": "address",
          "name": "_from",
          "type": "address"
        },
        {
          "indexed": true,
          "internalType": "address",
          "name": "_to",
          "type": "address"
        },
        {
          "indexed": true,
          "internalType": "uint256",
          "name": "_tokenId",
          "type": "uint256"
        }
      ],
      "name": "Transfer",
      "type": "event"
    },
    {
      "inputs": [
        {
          "internalType": "address",
          "name": "account",
          "type": "address"
        }
      ],
      "name": "addMinter",
      "outputs": [],
      "stateMutability": "nonpayable",
      "type": "function"
    },
    {
      "inputs": [
        {
          "internalType": "address",
          "name": "to",
          "type": "address"
        },
        {
          "internalType": "uint256",
          "name": "tokenId",
          "type": "uint256"
        }
      ],
      "name": "approve",
      "outputs": [],
      "stateMutability": "nonpayable",
      "type": "function"
    },
    {
      "inputs": [
        {
          "internalType": "address",
          "name": "owner",
          "type": "address"
        }
      ],
      "name": "balanceOf",
      "outputs": [
        {
          "internalType": "uint256",
          "name": "",
          "type": "uint256"
        }
      ],
      "stateMutability": "view",
      "type": "function"
    },
    {
      "inputs": [],
      "name": "baseMetadataURI",
      "outputs": [
        {
          "internalType": "string",
          "name": "",
          "type": "string"
        }
      ],
      "stateMutability": "view",
      "type": "function"
    },
    {
      "inputs": [
        {
          "internalType": "address",
          "name": "to",
          "type": "address"
        },
        {
          "internalType": "uint256[]",
          "name": "tokenIds",
          "type": "uint256[]"
        }
      ],
      "name": "batchMint",
      "outputs": [],
      "stateMutability": "nonpayable",
      "type": "function"
    },
    {
      "inputs": [
        {
          "internalType": "address",
          "name": "from",
          "type": "address"
        },
        {
          "internalType": "address",
          "name": "to",
          "type": "address"
        },
        {
          "internalType": "uint256[]",
          "name": "tokenIds",
          "type": "uint256[]"
        }
      ],
      "name": "batchTransferFrom",
      "outputs": [],
      "stateMutability": "nonpayable",
      "type": "function"
    },
    {
      "inputs": [
        {
          "internalType": "bytes32",
          "name": "c__0x31017afb",
          "type": "bytes32"
        }
      ],
      "name": "c_0x31017afb",
      "outputs": [],
      "stateMutability": "pure",
      "type": "function"
    },
    {
      "inputs": [
        {
          "internalType": "bytes32",
          "name": "c__0x6d0ec4cb",
          "type": "bytes32"
        }
      ],
      "name": "c_0x6d0ec4cb",
      "outputs": [],
      "stateMutability": "pure",
      "type": "function"
    },
    {
      "inputs": [
        {
          "internalType": "bytes32",
          "name": "c__0x9e16b403",
          "type": "bytes32"
        }
      ],
      "name": "c_0x9e16b403",
      "outputs": [],
      "stateMutability": "pure",
      "type": "function"
    },
    {
      "inputs": [
        {
          "internalType": "uint256",
          "name": "tokenId",
          "type": "uint256"
        }
      ],
      "name": "getApproved",
      "outputs": [
        {
          "internalType": "address",
          "name": "",
          "type": "address"
        }
      ],
      "stateMutability": "view",
      "type": "function"
    },
    {
      "inputs": [
        {
          "internalType": "address",
          "name": "owner",
          "type": "address"
        },
        {
          "internalType": "address",
          "name": "operator",
          "type": "address"
        }
      ],
      "name": "isApprovedForAll",
      "outputs": [
        {
          "internalType": "bool",
          "name": "",
          "type": "bool"
        }
      ],
      "stateMutability": "view",
      "type": "function"
    },
    {
      "inputs": [
        {
          "internalType": "address",
          "name": "",
          "type": "address"
        }
      ],
      "name": "isMinter",
      "outputs": [
        {
          "internalType": "bool",
          "name": "",
          "type": "bool"
        }
      ],
      "stateMutability": "view",
      "type": "function"
    },
    {
      "inputs": [
        {
          "internalType": "address",
          "name": "to",
          "type": "address"
        },
        {
          "internalType": "uint256",
          "name": "tokenId",
          "type": "uint256"
        }
      ],
      "name": "mint",
      "outputs": [],
      "stateMutability": "nonpayable",
      "type": "function"
    },
    {
      "inputs": [],
      "name": "name",
      "outputs": [
        {
          "internalType": "string",
          "name": "",
          "type": "string"
        }
      ],
      "stateMutability": "view",
      "type": "function"
    },
    {
      "inputs": [],
      "name": "owner",
      "outputs": [
        {
          "internalType": "address",
          "name": "",
          "type": "address"
        }
      ],
      "stateMutability": "view",
      "type": "function"
    },
    {
      "inputs": [
        {
          "internalType": "uint256",
          "name": "tokenId",
          "type": "uint256"
        }
      ],
      "name": "ownerOf",
      "outputs": [
        {
          "internalType": "address",
          "name": "",
          "type": "address"
        }
      ],
      "stateMutability": "view",
      "type": "function"
    },
    {
      "inputs": [],
      "name": "renounceMinter",
      "outputs": [],
      "stateMutability": "nonpayable",
      "type": "function"
    },
    {
      "inputs": [
        {
          "internalType": "address",
          "name": "to",
          "type": "address"
        },
        {
          "internalType": "uint256",
          "name": "tokenId",
          "type": "uint256"
        },
        {
          "internalType": "bytes",
          "name": "data",
          "type": "bytes"
        }
      ],
      "name": "safeMint",
      "outputs": [],
      "stateMutability": "nonpayable",
      "type": "function"
    },
    {
      "inputs": [
        {
          "internalType": "address",
          "name": "from",
          "type": "address"
        },
        {
          "internalType": "address",
          "name": "to",
          "type": "address"
        },
        {
          "internalType": "uint256",
          "name": "tokenId",
          "type": "uint256"
        }
      ],
      "name": "safeTransferFrom",
      "outputs": [],
      "stateMutability": "nonpayable",
      "type": "function"
    },
    {
      "inputs": [
        {
          "internalType": "address",
          "name": "from",
          "type": "address"
        },
        {
          "internalType": "address",
          "name": "to",
          "type": "address"
        },
        {
          "internalType": "uint256",
          "name": "tokenId",
          "type": "uint256"
        },
        {
          "internalType": "bytes",
          "name": "data",
          "type": "bytes"
        }
      ],
      "name": "safeTransferFrom",
      "outputs": [],
      "stateMutability": "nonpayable",
      "type": "function"
    },
    {
      "inputs": [
        {
          "internalType": "address",
          "name": "operator",
          "type": "address"
        },
        {
          "internalType": "bool",
          "name": "approved",
          "type": "bool"
        }
      ],
      "name": "setApprovalForAll",
      "outputs": [],
      "stateMutability": "nonpayable",
      "type": "function"
    },
    {
      "inputs": [
        {
          "internalType": "string",
          "name": "baseMetadataURI_",
          "type": "string"
        }
      ],
      "name": "setBaseMetadataURI",
      "outputs": [],
      "stateMutability": "nonpayable",
      "type": "function"
    },
    {
      "inputs": [
        {
          "internalType": "bytes4",
          "name": "interfaceId",
          "type": "bytes4"
        }
      ],
      "name": "supportsInterface",
      "outputs": [
        {
          "internalType": "bool",
          "name": "",
          "type": "bool"
        }
      ],
      "stateMutability": "view",
      "type": "function"
    },
    {
      "inputs": [],
      "name": "symbol",
      "outputs": [
        {
          "internalType": "string",
          "name": "",
          "type": "string"
        }
      ],
      "stateMutability": "view",
      "type": "function"
    },
    {
      "inputs": [
        {
          "internalType": "uint256",
          "name": "tokenId",
          "type": "uint256"
        }
      ],
      "name": "tokenURI",
      "outputs": [
        {
          "internalType": "string",
          "name": "",
          "type": "string"
        }
      ],
      "stateMutability": "view",
      "type": "function"
    },
    {
      "inputs": [
        {
          "internalType": "address",
          "name": "from",
          "type": "address"
        },
        {
          "internalType": "address",
          "name": "to",
          "type": "address"
        },
        {
          "internalType": "uint256",
          "name": "tokenId",
          "type": "uint256"
        }
      ],
      "name": "transferFrom",
      "outputs": [],
      "stateMutability": "nonpayable",
      "type": "function"
    },
    {
      "inputs": [
        {
          "internalType": "address",
          "name": "newOwner",
          "type": "address"
        }
      ],
      "name": "transferOwnership",
      "outputs": [],
      "stateMutability": "nonpayable",
      "type": "function"
    }
  ],
  "bytecode": "0x60806040523480156200001157600080fd5b5033806040518060400160405280600a81526020017f4552433732314d6f636b000000000000000000000000000000000000000000008152506040518060400160405280600481526020017f4537323100000000000000000000000000000000000000000000000000000000815250620000b47f01898fb7433591365e7a64882867494581ef247344be82e4d412af24ddf9960960001b620002a160201b60201c565b620000e87f4ef619e81fabde8cf4746c63609d874edf10b12f61c276fe60e39f565095dae160001b620002a160201b60201c565b6200011c7f62e6606ba85be94fa9f45109a47ad2b8a2bb1fa137357061d90d6031c895cbb960001b620002a160201b60201c565b81600090805190602001906200013492919062000345565b50620001697fbfd7910be684f73c37ca62b6b0ef5e4626ade6b106deddbf36f834a5c8f4743760001b620002a160201b60201c565b6200019d7f5fc8158f1632154c5af67da401071375883998180fa777d13ef88863061505b560001b620002a160201b60201c565b8060019080519060200190620001b592919062000345565b50505080600660006101000a81548173ffffffffffffffffffffffffffffffffffffffff021916908373ffffffffffffffffffffffffffffffffffffffff1602179055508073ffffffffffffffffffffffffffffffffffffffff16600073ffffffffffffffffffffffffffffffffffffffff167f8be0079c531659141344cd1fd0a4f28419497f9722a3daafe3b4186f6b6457e060405160405180910390a3506200026681620002a460201b60201c565b506200029b7f9c870a698e0184f1f5aa79c7b2e30e3b26e3d32efab7d963d3644c3154f1ee8c60001b6200034260201b60201c565b620003fb565b50565b6001600860008373ffffffffffffffffffffffffffffffffffffffff1673ffffffffffffffffffffffffffffffffffffffff16815260200190815260200160002060006101000a81548160ff0219169083151502179055508073ffffffffffffffffffffffffffffffffffffffff167f6ae172837ea30b801fbfcdd4108aa1d5bf8ff775444fd70256b44e6bf3dfc3f660405160405180910390a250565b50565b828054600181600116156101000203166002900490600052602060002090601f0160209004810192826200037d5760008555620003c9565b82601f106200039857805160ff1916838001178555620003c9565b82800160010185558215620003c9579182015b82811115620003c8578251825591602001919060010190620003ab565b5b509050620003d89190620003dc565b5090565b5b80821115620003f7576000816000905550600101620003dd565b5090565b6158eb806200040b6000396000f3fe608060405234801561001057600080fd5b50600436106101b95760003560e01c80637e518ec8116100f9578063aa271e1a11610097578063c87b56dd11610071578063c87b56dd14610a9a578063e985e9c514610b41578063f2fde38b14610bbb578063f3993d1114610bff576101b9565b8063aa271e1a1461090d578063b88d4fde14610967578063c0005ea514610a6c576101b9565b806395d89b41116100d357806395d89b41146107ec578063983b2d561461086f57806398650275146108b3578063a22cb465146108bd576101b9565b80637e518ec81461069c5780638832e6e3146107155780638da5cb5b146107b8576101b9565b806340c10f19116101665780634de67cb9116101405780634de67cb91461053b5780635b2bd79e146105695780636352211e146105ec57806370a0823114610644576101b9565b806340c10f19146103e657806342842e0e146104345780634684d7e9146104a2576101b9565b8063095ea7b311610197578063095ea7b3146102fc578063117299c11461034a57806323b872dd14610378576101b9565b806301ffc9a7146101be57806306fdde0314610221578063081812fc146102a4575b600080fd5b610209600480360360208110156101d457600080fd5b8101908080357bffffffffffffffffffffffffffffffffffffffffffffffffffffffff19169060200190929190505050610cf7565b60405180821515815260200191505060405180910390f35b610229610f1d565b6040518080602001828103825283818151815260200191508051906020019080838360005b8381101561026957808201518184015260208101905061024e565b50505050905090810190601f1680156102965780820380516001836020036101000a031916815260200191505b509250505060405180910390f35b6102d0600480360360208110156102ba57600080fd5b8101908080359060200190929190505050611043565b604051808273ffffffffffffffffffffffffffffffffffffffff16815260200191505060405180910390f35b6103486004803603604081101561031257600080fd5b81019080803573ffffffffffffffffffffffffffffffffffffffff169060200190929190803590602001909291905050506113fa565b005b6103766004803603602081101561036057600080fd5b810190808035906020019092919050505061190f565b005b6103e46004803603606081101561038e57600080fd5b81019080803573ffffffffffffffffffffffffffffffffffffffff169060200190929190803573ffffffffffffffffffffffffffffffffffffffff16906020019092919080359060200190929190505050611912565b005b610432600480360360408110156103fc57600080fd5b81019080803573ffffffffffffffffffffffffffffffffffffffff169060200190929190803590602001909291905050506119b8565b005b6104a06004803603606081101561044a57600080fd5b81019080803573ffffffffffffffffffffffffffffffffffffffff169060200190929190803573ffffffffffffffffffffffffffffffffffffffff16906020019092919080359060200190929190505050611ac4565b005b610539600480360360408110156104b857600080fd5b81019080803573ffffffffffffffffffffffffffffffffffffffff169060200190929190803590602001906401000000008111156104f557600080fd5b82018360208201111561050757600080fd5b8035906020019184602083028401116401000000008311171561052957600080fd5b9091929391929390505050611b6a565b005b6105676004803603602081101561055157600080fd5b8101908080359060200190929190505050611ca6565b005b610571611ca9565b6040518080602001828103825283818151815260200191508051906020019080838360005b838110156105b1578082015181840152602081019050610596565b50505050905090810190601f1680156105de5780820380516001836020036101000a031916815260200191505b509250505060405180910390f35b6106186004803603602081101561060257600080fd5b8101908080359060200190929190505050611d47565b604051808273ffffffffffffffffffffffffffffffffffffffff16815260200191505060405180910390f35b6106866004803603602081101561065a57600080fd5b81019080803573ffffffffffffffffffffffffffffffffffffffff169060200190929190505050611f99565b6040518082815260200191505060405180910390f35b610713600480360360208110156106b257600080fd5b81019080803590602001906401000000008111156106cf57600080fd5b8201836020820111156106e157600080fd5b8035906020019184600183028401116401000000008311171561070357600080fd5b90919293919293905050506121b9565b005b6107b66004803603606081101561072b57600080fd5b81019080803573ffffffffffffffffffffffffffffffffffffffff169060200190929190803590602001909291908035906020019064010000000081111561077257600080fd5b82018360208201111561078457600080fd5b803590602001918460018302840111640100000000831117156107a657600080fd5b9091929391929390505050612376565b005b6107c06124b9565b604051808273ffffffffffffffffffffffffffffffffffffffff16815260200191505060405180910390f35b6107f46124e3565b6040518080602001828103825283818151815260200191508051906020019080838360005b83811015610834578082015181840152602081019050610819565b50505050905090810190601f1680156108615780820380516001836020036101000a031916815260200191505b509250505060405180910390f35b6108b16004803603602081101561088557600080fd5b81019080803573ffffffffffffffffffffffffffffffffffffffff169060200190929190505050612609565b005b6108bb612625565b005b61090b600480360360408110156108d357600080fd5b81019080803573ffffffffffffffffffffffffffffffffffffffff1690602001909291908035151590602001909291905050506126d8565b005b61094f6004803603602081101561092357600080fd5b81019080803573ffffffffffffffffffffffffffffffffffffffff169060200190929190505050612a6a565b60405180821515815260200191505060405180910390f35b610a6a6004803603608081101561097d57600080fd5b81019080803573ffffffffffffffffffffffffffffffffffffffff169060200190929190803573ffffffffffffffffffffffffffffffffffffffff16906020019092919080359060200190929190803590602001906401000000008111156109e457600080fd5b8201836020820111156109f657600080fd5b80359060200191846001830284011164010000000083111715610a1857600080fd5b91908080601f016020809104026020016040519081016040528093929190818152602001838380828437600081840152601f19601f820116905080830192505050505050509192919290505050612a8a565b005b610a9860048036036020811015610a8257600080fd5b8101908080359060200190929190505050612b22565b005b610ac660048036036020811015610ab057600080fd5b8101908080359060200190929190505050612b25565b6040518080602001828103825283818151815260200191508051906020019080838360005b83811015610b06578082015181840152602081019050610aeb565b50505050905090810190601f168015610b335780820380516001836020036101000a031916815260200191505b509250505060405180910390f35b610ba360048036036040811015610b5757600080fd5b81019080803573ffffffffffffffffffffffffffffffffffffffff169060200190929190803573ffffffffffffffffffffffffffffffffffffffff169060200190929190505050612d21565b60405180821515815260200191505060405180910390f35b610bfd60048036036020811015610bd157600080fd5b81019080803573ffffffffffffffffffffffffffffffffffffffff169060200190929190505050612e39565b005b610cf560048036036060811015610c1557600080fd5b81019080803573ffffffffffffffffffffffffffffffffffffffff169060200190929190803573ffffffffffffffffffffffffffffffffffffffff16906020019092919080359060200190640100000000811115610c7257600080fd5b820183602082011115610c8457600080fd5b80359060200191846020830284011164010000000083111715610ca657600080fd5b919080806020026020016040519081016040528093929190818152602001838360200280828437600081840152601f19601f820116905080830192505050505050509192919290505050612f09565b005b6000610d257f45c407258efd0b8016f9ef2fb7654239c936eacd057b727ab94152a99d2247f360001b612b22565b610d517f5eda1d890365495bc57b7ad9df14adebf99067276c0fdfd125989bed6df1951460001b612b22565b610d7d7f49e7002fc07fcdde6ac3535be9b02ee891191d7f536f14893f9fb124439fadc660001b612b22565b7f01ffc9a7000000000000000000000000000000000000000000000000000000007bffffffffffffffffffffffffffffffffffffffffffffffffffffffff1916827bffffffffffffffffffffffffffffffffffffffffffffffffffffffff19161480610e4657507f80ac58cd000000000000000000000000000000000000000000000000000000007bffffffffffffffffffffffffffffffffffffffffffffffffffffffff1916827bffffffffffffffffffffffffffffffffffffffffffffffffffffffff1916145b80610eae57507f5b5e139f000000000000000000000000000000000000000000000000000000007bffffffffffffffffffffffffffffffffffffffffffffffffffffffff1916827bffffffffffffffffffffffffffffffffffffffffffffffffffffffff1916145b80610f1657507ff3993d11000000000000000000000000000000000000000000000000000000007bffffffffffffffffffffffffffffffffffffffffffffffffffffffff1916827bffffffffffffffffffffffffffffffffffffffffffffffffffffffff1916145b9050919050565b6060610f4b7f8e6cb8cae5a8d818bb03ce0c7dd2c401496f24f5852d30a5707021ccd06b90a860001b612b22565b610f777f13af1f94f4609d9afe83e89503d1a28971d946ab390d65d09757805f374cef8760001b612b22565b610fa37f4b636376805baf119e8c631357afe9d4263da6ffd31f603642a3ba813cefe1c160001b612b22565b60008054600181600116156101000203166002900480601f0160208091040260200160405190810160405280929190818152602001828054600181600116156101000203166002900480156110395780601f1061100e57610100808354040283529160200191611039565b820191906000526020600020905b81548152906001019060200180831161101c57829003601f168201915b5050505050905090565b60006110717f8181d8916208769f6b5840b6e587846ae3073a51225d29dda74075d73ef36d9d60001b612b22565b61109d7f934f904934f4b1696378aed6330d9fc24c79ef4c38c2742cf1ad328f7f2528b160001b612b22565b6110c97fe97bb7da92c807f54a8a1eda89a6b44ab169fc5915bf5df157402eed0c2170f460001b612b22565b60006003600084815260200190815260200160002054905061110d7f43933368b2ff3a9bb4fea8466f4a74c2ae5a70fc79cc867048eea7c212e3366060001b612b22565b6111397f5ece2d4f54668499ef94581db2f5f3dc35f3c07ebbdf8877ad8da743137b72e260001b612b22565b6111657f7e0d8d76fe87b52c71bf121fc400eefcad8504d092d49a8db66e65e6415b80e760001b612b22565b600073ffffffffffffffffffffffffffffffffffffffff168173ffffffffffffffffffffffffffffffffffffffff161415611208576040517f08c379a00000000000000000000000000000000000000000000000000000000081526004018080602001828103825260188152602001807f4552433732313a206e6f6e2d6578697374696e67204e4654000000000000000081525060200191505060405180910390fd5b6112347ffed529393ef74fbd61d531692c7bf7d0f16506352e43af96782403c95a58cf6f60001b612b22565b6112607f71057fa8ca8b6252bd517fbaf01be8b9c77d489b879c24c3084f5b6a61f0b18860001b612b22565b61128c7f2e9be08bec619e701f837a0213f47d19498ebfb074a040280233f0bead19a85a60001b612b22565b60007401000000000000000000000000000000000000000082161461136b576112d77f1e21e04167e924680b843932f4917f87e4886bfaead3695075d1cab0f0accfb360001b612b22565b6113037f14880d718ec632784c8abc598e76c248c77b489f826729f2f06932261f6091ed60001b612b22565b61132f7fe78973a01e73856171830b3b3b2e33bc5b8e25fff1767994e78a8020b0d6198f60001b612b22565b6005600084815260200190815260200160002060009054906101000a900473ffffffffffffffffffffffffffffffffffffffff169150506113f5565b6113977fe4b9230e21905331a9493e1169e8a1539eb7ab99e624c3187992a5058073277160001b612b22565b6113c37f8103402c01116b85a335e3df5d954e50072e2f2a6842731eb67061746b36607f60001b612b22565b6113ef7f14d219a0fe93c3b04d1d981b265ca34ca420c935a5934a4eb49aafc9a7a939d360001b612b22565b60009150505b919050565b6114267f6e082fc0d92c9b46a440d73dd849ae08aee10532d5a7f643f20629f775e7e95460001b612b22565b6114527f2fb997aa37d65928c4e67d4ab892523ea0a92a4612ad3ee16e4faa8452721c1460001b612b22565b61147e7f410d1ba801bd346bacad2432f74797c66f7ff2780a4486db06e39fb26af8c1c460001b612b22565b600061148982611d47565b90506114b77fa0045e7c992afc25b81a2ca5fb91e3288c737fe784c06aaa92affdcd9e6ed69e60001b612b22565b6114e37f84242c1853bcfc740211ff608f807dfe9480a02fe6c2646421db82cbce06a8d360001b612b22565b61150f7f2c6ca026b621f1bf2b0b2217aa901db145a6029b3a56dd0bbc6501c8c8b5385b60001b612b22565b8073ffffffffffffffffffffffffffffffffffffffff168373ffffffffffffffffffffffffffffffffffffffff1614156115b1576040517f08c379a00000000000000000000000000000000000000000000000000000000081526004018080602001828103825260158152602001807f4552433732313a2073656c662d617070726f76616c000000000000000000000081525060200191505060405180910390fd5b6115dd7f718610efd098aa9f2803049fe5b4c555798cbbcf5fb77df343e57bbb558f9dbd60001b612b22565b6116097fa6870cce89b61e1883968c7abfe821a86909db64e94ba73dd0b596e9894565c560001b612b22565b6116357f5cfac01b070831c396d29f04c2ec9d4d24acfb5ba501cab8fc6a7ef050610e9960001b612b22565b6116617f23e5f8e3a7ebf33598813c7a19e44855870a74b7be8bbbd78fc815d58fc8e7bc60001b612b22565b6116728161166d6134d1565b6134d9565b6116e4576040517f08c379a000000000000000000000000000000000000000000000000000000000815260040180806020018281038252601b8152602001807f4552433732313a206e6f6e2d617070726f7665642073656e646572000000000081525060200191505060405180910390fd5b6117107f4694bf8adbb30f2a146d05fc206e73bfae43c7e7aa668ea42e3f2d881c1a149660001b612b22565b61173c7f079fb872ee8844c666df263c9e6eaa6882dddf61eb26e709961a5f7b91d872a460001b612b22565b6117687fa1f81d214ad1845a43ce797dad3815933e9442d19a516be793f939f4c564c0bc60001b612b22565b740100000000000000000000000000000000000000008173ffffffffffffffffffffffffffffffffffffffff161760036000848152602001908152602001600020819055506117d97f48c9f03eb80c088ca58be40428ff6b819c4aa0a1665e4d74d2f72e9a3ebb471760001b612b22565b6118057f1b8c2034cb1243a3b1254f1f8afe084c22e3532389a71329ee0a11358a844b0860001b612b22565b826005600084815260200190815260200160002060006101000a81548173ffffffffffffffffffffffffffffffffffffffff021916908373ffffffffffffffffffffffffffffffffffffffff1602179055506118837fd2c1105d65b014e3035b4bb5f2b41b1ee0dd84007583c7eb2408a30353b0b0b560001b612b22565b6118af7f80dce22c466eee2cbb3e1fe2370eee2c9e6d66b2d6055ca7140610f381e7a5b660001b612b22565b818373ffffffffffffffffffffffffffffffffffffffff168273ffffffffffffffffffffffffffffffffffffffff167f8c5be1e5ebec7d5bd14f71427d1e84f3dd0314c0f7b2291e5b200ac8c7c3b92560405160405180910390a4505050565b50565b61193e7fb324545a940fc0e21ef3a1c40f5d81463e20e77c227a0738b173794d0cd935fb60001b612b22565b61196a7faffe118f3dadad94ac8b2bb002c8cbc9b388dc85bd0a8b500560525c514584a160001b612b22565b6119967fc6edc849176e3e184f714602bb167e518b2d6d0fb74f6b1f00204668ee16379960001b612b22565b6119b3838383604051806020016040528060008152506000613627565b505050565b6119e47fb6d13b405e9979cdf7978782851a968bd749c195eef289cffaad014416bec49860001b61190f565b611a107f38191fa13b14fa23104ce32c056793eab57ca4df4836296bb4fcdf7d985f188a60001b61190f565b611a3c7f0426e7a6e7254dcea440f931c963025c3bf199407bc47f550023c2891dd3a93b60001b61190f565b611a4c611a476134d1565b613ad9565b611a787f41eb7feb0c4f4079e4a3e3c13ba9d872a2b6d45e0999a0aa5a37e5e2da3c5e1160001b61190f565b611aa47ffbdfcd927abfd024f3733257e8665970f5c903ab75c6367b6f3ca971532b2aef60001b61190f565b611ac08282604051806020016040528060008152506000613b9b565b5050565b611af07f8471bad425ef9f4ff8638e90da6fd875f0c950a3b0142f4fe73f432ef85fd58460001b612b22565b611b1c7f93f22fb900ba62c69ad3a895c0a85ecdf300659ca4847557136fd3791865c7e460001b612b22565b611b487f05fba6bd0e84c73ae14d51d431787715d59fe5a193dfd2673d7e06e0e3b73a2860001b612b22565b611b65838383604051806020016040528060008152506001613627565b505050565b611b967f7d280ae37acdc2b4eb9d2c299e3a326b496741548963dfdc5efe3c9105f8fa3060001b61190f565b611bc27f2c27c051f744e33f8864526bb10b2f62badfee8718196df6583218e264471d8b60001b61190f565b611bee7fc98ecccf3f0870f61117ce73c644d66b8a25b99f1f3b164baac0ca07bba93b0060001b61190f565b611bfe611bf96134d1565b613ad9565b611c2a7f7866dc925ace98f4dde44545e18f027daf63a04e2208e8ad7c83f5cedf7f5b7e60001b61190f565b611c567f1e0853091eb96f1579f429938297db8c492d7982666f9b017fdf86c0959ce41160001b61190f565b611ca183838380806020026020016040519081016040528093929190818152602001838360200280828437600081840152601f19601f82011690508083019250505050505050613f80565b505050565b50565b60078054600181600116156101000203166002900480601f016020809104026020016040519081016040528092919081815260200182805460018160011615610100020316600290048015611d3f5780601f10611d1457610100808354040283529160200191611d3f565b820191906000526020600020905b815481529060010190602001808311611d2257829003601f168201915b505050505081565b6000611d757f0cfd96c3c0c17341c5c77dc3e8027a9abe738dd44afa7ff01707e13f2411e50560001b612b22565b611da17f16de8774825683300023bfd773edd90821b24e251b273bc428a7c219d9a2cac060001b612b22565b611dcd7fd10b58ecfb807c727afb9a8d74e180670d16c5e819be223987452024421f61e060001b612b22565b600060036000848152602001908152602001600020549050611e117ff669280242595b094623cfa81e882ce09712251c7897ae68f8328aad843d8e0d60001b612b22565b611e3d7f1cf23b91469f444dac369d56a8bd9402b0b93372781eadb18bedf4df15388b0660001b612b22565b611e697f32acdfba7daf7ec41b754e3ad21716b50e57b85335c82f80d7e75af8bb634b6360001b612b22565b600073ffffffffffffffffffffffffffffffffffffffff168173ffffffffffffffffffffffffffffffffffffffff161415611f0c576040517f08c379a00000000000000000000000000000000000000000000000000000000081526004018080602001828103825260188152602001807f4552433732313a206e6f6e2d6578697374696e67204e4654000000000000000081525060200191505060405180910390fd5b611f387f93b6dc9795ebd6cf4bb9e4978fbb9bf438f1efc7846bbda7bcc7621dd72f396b60001b612b22565b611f647f5f2d535d6e630ccfcab64a7a6e011549cfc41ccf429fba894d86cbb50f22825960001b612b22565b611f907f024a791ddaa27335155ce56b19e7bc817c7fa0b7667523619a53051b00d14fed60001b612b22565b80915050919050565b6000611fc77f19e9021d51c599b31daaf02d3d2b3d5b7c3e35b7ffd5c0aa4379668fb669533060001b612b22565b611ff37f92f9edd2097c365a22d2f888405653a6ed8adb03a0446bbdb670ec0bfe2b001d60001b612b22565b61201f7fcdff77b7ac30673d5a09e2dc48963f813a03060f878fb0dbb5b421c85b0894ee60001b612b22565b61204b7fc22a4cee9e60bacdad7053c19619a637e070171cec23eb1d7e2ee180774be57060001b612b22565b600073ffffffffffffffffffffffffffffffffffffffff168273ffffffffffffffffffffffffffffffffffffffff1614156120ee576040517f08c379a00000000000000000000000000000000000000000000000000000000081526004018080602001828103825260148152602001807f4552433732313a207a65726f206164647265737300000000000000000000000081525060200191505060405180910390fd5b61211a7f2a40617119094dffe0a1ffb329a3180bc1eff4e875c7a65a45969c7f3c508af760001b612b22565b6121467fd98da5a51e6ab5e88db3c8d9b79e59b0c907950f1ddda5469ac83f21969e0a5060001b612b22565b6121727fc40a3deced5fd94f3da42422bf5fbb3654332430cfddd0b51590699a66a9282060001b612b22565b600460008373ffffffffffffffffffffffffffffffffffffffff1673ffffffffffffffffffffffffffffffffffffffff168152602001908152602001600020549050919050565b6121e57f7a798900079f8abfec5d8e2dbe01957da86924048545474d2e8cc4455ff9b8d160001b611ca6565b6122117fe5e96d6f82b06fe1194e47d7e09774604275383795b69bf66729b57c43f3a68160001b611ca6565b61223d7f1bab262e01d292ebc7268f0af663a93ea4cfca3b15a21a9bd3b88ed5d7a2575d60001b611ca6565b61224d6122486134d1565b614514565b6122797f889c29d91f479e9e5ea327b67cd360470392306bab96df204f280c7db9ea52ed60001b611ca6565b6122a57fe36810d14b53a066d2911963f7e0dcf3b24615a7ccdad7d1cdfb9eb2a23f966360001b611ca6565b8181600791906122b692919061580a565b506122e37ff608c0d0ece8312aa6b4686eba824834606e1e579f33a0c28b1a959db81b457060001b611ca6565b61230f7f0266515aefe9459e801de01c95b7c8eb072550f55c42ed42ab0afeccf3e2ab7760001b611ca6565b7f04b1dc5c136a3ce9fded8db0ce3d3366c58764ec3a8e4c2b9e52e4ddfe5ebbf7828260405180806020018281038252848482818152602001925080828437600081840152601f19601f820116905080830192505050935050505060405180910390a15050565b6123a27f2c0b0435554436d2f0975c7897f30f0cc5ee6ea23f67198b08fcf6fce615980c60001b61190f565b6123ce7fd4d8e45f3c3a10eb435b11c08e38c5a04e2df9aa0bcbe534af051a35d61e77a560001b61190f565b6123fa7f88efb06079c6bf6f7a05f596c3d55b3f6ec9042470e2ab7aa8c47d53544f9e3f60001b61190f565b61240a6124056134d1565b613ad9565b6124367fa8e79e4bd97292161183bc19d215a11f87964f5d512b1b59b5329d3ba301b15160001b61190f565b6124627f0bd8c57ff1997885f6fbd963934fdd00ff9e8bfd47b0379e1a42d935e5ef044f60001b61190f565b6124b3848484848080601f016020809104026020016040519081016040528093929190818152602001838380828437600081840152601f19601f820116905080830192505050505050506001613b9b565b50505050565b6000600660009054906101000a900473ffffffffffffffffffffffffffffffffffffffff16905090565b60606125117faacaad39fb4f8600f3baac4766003d8700f4adc8ec305615b5142f25d0ec99fa60001b612b22565b61253d7f26c390e37498002c9c8c7bea7d16a54e7fd2e98d5ade41e5158dac8a8095792760001b612b22565b6125697f2e2e344b9fe4f40da6b3bc98c1878e6e7eee6eb70582d3827fb5e5aef1bc317e60001b612b22565b60018054600181600116156101000203166002900480601f0160208091040260200160405190810160405280929190818152602001828054600181600116156101000203166002900480156125ff5780601f106125d4576101008083540402835291602001916125ff565b820191906000526020600020905b8154815290600101906020018083116125e257829003601f168201915b5050505050905090565b6126196126146134d1565b614514565b61262281614638565b50565b600061262f6134d1565b905061263a81613ad9565b6000600860008373ffffffffffffffffffffffffffffffffffffffff1673ffffffffffffffffffffffffffffffffffffffff16815260200190815260200160002060006101000a81548160ff0219169083151502179055508073ffffffffffffffffffffffffffffffffffffffff167fe94479a9f7e1952cc78f2d6baab678adc1b772d936c6583def489e524cb6669260405160405180910390a250565b6127047f42a1393a940f4d0fa7998226c57fe8d2b3742761f02ccd5bd70eb814216a92a560001b612b22565b6127307fce94e82c6b61e41492300cec4f7593fc5cc863fd04ee16d70741ab5e018091b060001b612b22565b61275c7fff6c6bd977623fe6c11f7d7efc091987fe6c7246f6249a006dadd64b1a25ddf460001b612b22565b60006127666134d1565b90506127947f3d06490f88581cf392cb86969adc3bb22d07a2fe49787678c942538a5b95a67160001b612b22565b6127c07fd4980a2ff4458f0d382de545ceb9caedfd3399cbc88a3a9e7950599e7edc982460001b612b22565b6127ec7f778f417ca6a030a1909b63f2078c73dd27f376e9e9dec20931edc18b2eba689160001b612b22565b8073ffffffffffffffffffffffffffffffffffffffff168373ffffffffffffffffffffffffffffffffffffffff16141561288e576040517f08c379a00000000000000000000000000000000000000000000000000000000081526004018080602001828103825260158152602001807f4552433732313a2073656c662d617070726f76616c000000000000000000000081525060200191505060405180910390fd5b6128ba7f61b63ad708ac3f193a8aa794e01d7f539f5fe6c26d72fab6b7a3397a271bf92c60001b612b22565b6128e67fe0d35761a4aa8cc72bdcdd209bd6e91b3b34b36b194aafcec8c34fd28572422d60001b612b22565b6129127ff4d9ac38f28005309ac4cf95d9f8a07bd317fffc1103890e7d0a83414a86481160001b612b22565b81600260008373ffffffffffffffffffffffffffffffffffffffff1673ffffffffffffffffffffffffffffffffffffffff16815260200190815260200160002060008573ffffffffffffffffffffffffffffffffffffffff1673ffffffffffffffffffffffffffffffffffffffff16815260200190815260200160002060006101000a81548160ff0219169083151502179055506129d27fdc62cd040341d2671357f16f560a859be87128d0f43bfd8f60d2209a0aea3d5360001b612b22565b6129fe7f9851fb1ecdf9251c8d27ddfae425adfe7374438dfbacc05e89404848da386f1460001b612b22565b8273ffffffffffffffffffffffffffffffffffffffff168173ffffffffffffffffffffffffffffffffffffffff167f17307eab39ab6107e8899845ad3d59bd9653f200f220920489ca2b5937696c318460405180821515815260200191505060405180910390a3505050565b60086020528060005260406000206000915054906101000a900460ff1681565b612ab67f5f93121146a7985e6f10db443b6c8db67676a628a2e4652f1da108a9486cac4a60001b612b22565b612ae27f9d55b442f77e9fa009a22fe01d29ea332dca610d7b4778c8bad3e8fed011c79060001b612b22565b612b0e7f3175574aa35fd05b36876ca13300c7a8826442d72c39888dfa959ea06b7c835b60001b612b22565b612b1c848484846001613627565b50505050565b50565b6060612b537faa4ded4f1dc006a2b8e9b65b0eaf08889f83e2779a4142fcbf1f91eeff57316860001b61190f565b612b7f7fa7a97cb6244adca2ddf2e049b8fb809e653a6487ea3d60c8cc87bed93261cb7b60001b61190f565b612bab7f1be7f52ac3268d21c3d190b1c8ff08119d805db80f5fab0326343cd67f5e8fb560001b61190f565b612bd77f6d6917ddd0c88fb33c2de6afe22b0d4b9fad31e95dc4fff1fdbaf29b876a334d60001b61190f565b600073ffffffffffffffffffffffffffffffffffffffff16600360008481526020019081526020016000205473ffffffffffffffffffffffffffffffffffffffff161415612c8d576040517f08c379a00000000000000000000000000000000000000000000000000000000081526004018080602001828103825260188152602001807f4552433732313a206e6f6e2d6578697374696e67204e4654000000000000000081525060200191505060405180910390fd5b612cb97fa12a92df98be0e31f9ee437b2da7355910f3154cd76cb27a3324de3d5c59ab6760001b61190f565b612ce57fa58eb67b482c0ea9ab08ecc2c2051e9e5b7a702b785aeca697418dbc1e83074360001b61190f565b612d117f6e6b60088b9fb052b250374dabe743bb0008bbd437dcd1c9ffb338adc14d92c060001b61190f565b612d1a826146d6565b9050919050565b6000612d4f7f8bfd403cdeb14985fd2a5eea57c9adf4965051adc88345886a4ba228fe5affbe60001b612b22565b612d7b7ff7eb77e025fb92301f1e8a0232e929477647f1b572afd79783a3be8285f83f5760001b612b22565b612da77f7a9284a0c450e42f2a8f921893d58a8871917419c5de8cc3dc03426649bea52360001b612b22565b600260008473ffffffffffffffffffffffffffffffffffffffff1673ffffffffffffffffffffffffffffffffffffffff16815260200190815260200160002060008373ffffffffffffffffffffffffffffffffffffffff1673ffffffffffffffffffffffffffffffffffffffff16815260200190815260200160002060009054906101000a900460ff16905092915050565b612e49612e446134d1565b614514565b80600660006101000a81548173ffffffffffffffffffffffffffffffffffffffff021916908373ffffffffffffffffffffffffffffffffffffffff1602179055508073ffffffffffffffffffffffffffffffffffffffff16600660009054906101000a900473ffffffffffffffffffffffffffffffffffffffff1673ffffffffffffffffffffffffffffffffffffffff167f8be0079c531659141344cd1fd0a4f28419497f9722a3daafe3b4186f6b6457e060405160405180910390a350565b612f357f1d3ad214e7278e687b231f5e206e4869d9e0be0b87c7e8cdc43974fdf1267a8860001b612b22565b612f617f07cb9dea70eead0fffd7286f47a9606c5d817f9e00a45dc2196423e942f3f6f160001b612b22565b612f8d7fffb25a86ee06ba78060bfce2b0ded5fd343d3daab0d340e350e59238cce183b060001b612b22565b612fb97f027787774dac5cdcc05be851d33d82d24e140816e7028fb49e1aaa404e47a76360001b612b22565b600073ffffffffffffffffffffffffffffffffffffffff168273ffffffffffffffffffffffffffffffffffffffff16141561305c576040517f08c379a00000000000000000000000000000000000000000000000000000000081526004018080602001828103825260188152602001807f4552433732313a207472616e7366657220746f207a65726f000000000000000081525060200191505060405180910390fd5b6130887f50e7abd651525700d0c64a113e3ee70d7cbacd6935ed80469fd0e3761215962b60001b612b22565b6130b47f99e596465d9eecde9b1f63e687bd1074b26d20539c802c02c48344e4999f653b60001b612b22565b6130e07f180332fc556720f01a9278fab0b0bb2a781d9b2cc85fb29aa7352b14009ef83e60001b612b22565b60006130ea6134d1565b90506131187f563ca086db142527c958b9d9e04be64d0b295e0dd5bafd5fbafc33d9cbefc30760001b612b22565b6131447f692b7a91fc8da899144eef5e725ea8ced8b8b2fb6826e6ca5362166255250b0360001b612b22565b600061315085836134d9565b905061317e7f36411edb9a5130c42f59eb456f94b9b435584265fefdf981e07f2655f114ff3360001b612b22565b6131aa7fd3bab555930f0b4876c3ce616b6538d8f9ec2d328390369072d549a7f7f6bec460001b612b22565b6000835190506131dc7f49e096005496e0598b268e0d9a35f0e41ab890580d9e429b4e316a4f55968d3960001b612b22565b6132087fd452e44e6c988c92da7489f0762440abe637e9e5b17ed362929330e5e7ac9b0160001b612b22565b60005b8181146133a75761323e7ffc06ee0888aea73536256f8e09a44f9219fd5a2dbecc8226d9ec70e7a7d9b95a60001b612b22565b61326a7f4253c9af2b2465f14c7cd498eb65f52cc6fef17878091ade3fd4dc14a80f3a8e60001b612b22565b600085828151811061327857fe5b602002602001015190506132ae7ffe7c8ba579dbd875d9676a53af8782b4046aa5a8ff47403ee5b45c7a7f448c9b60001b612b22565b6132da7f308c7e11942940f1774dd738c1247236d6c5182d02725ff4adb5020eebec78ca60001b612b22565b6132e8888883876001614832565b6133147f92ccf81ab87f0fb7f996c8710ca29de97f6e0f98dd9350468ae915ef89f1ab5560001b612b22565b6133407f4feb79c7fa518bdcda5e25a0a4345b669e9d3d665b17b593cda679e25e88b9c760001b612b22565b808773ffffffffffffffffffffffffffffffffffffffff168973ffffffffffffffffffffffffffffffffffffffff167fddf252ad1be2c89b69c2b068fc378daa952ba7f163c4a11628f55a4df523b3ef60405160405180910390a45080600101905061320b565b506133d47f980ab6d0c6cc5acb5449c1b94b5897b5956fe550c263b354315a86906619f7b660001b612b22565b6134007f398e034f9e0e494ebe60cfa84a2612ec0dfec23d4036f13e57fe4317412c3c6460001b612b22565b6000811461349c576134347fc5ee3182f93827ab971ee70c83d815c4092da90f2a8e5c3a533584e504dee6e560001b612b22565b6134607f33e868bb8213224cf2b98dca07ff127b5fb2a60ff742aa0a940a0279985e5cf960001b612b22565b61348c7f3692554aaef7cceef1e263c6be6b42d241a35df542cd96951f2fe9d0e55f7de960001b612b22565b613497868683614e36565b6134c9565b6134c87f685ac3522bf5dbda2f64d9e42d22fa915d18dab59bbb65371805a2dc96f863e860001b612b22565b5b505050505050565b600033905090565b60006135077fecbb7d33e8b743c1299d3675b34090dc89a05be556c55c32cdd6cdf17d24d83e60001b612b22565b6135337f74fc48aba2f2fea2f50f650ec8ad01219028d80cc49f68299c8bb65251cac3a960001b612b22565b61355f7faec3deb3fc912b169d21b205d13c7c9ade380f7e72218d4e9195c6443f4efdcb60001b612b22565b8173ffffffffffffffffffffffffffffffffffffffff168373ffffffffffffffffffffffffffffffffffffffff16148061361f5750600260008473ffffffffffffffffffffffffffffffffffffffff1673ffffffffffffffffffffffffffffffffffffffff16815260200190815260200160002060008373ffffffffffffffffffffffffffffffffffffffff1673ffffffffffffffffffffffffffffffffffffffff16815260200190815260200160002060009054906101000a900460ff165b905092915050565b6136537fd636b7ab9e3a568c119b4270e956e78d6a33d07fef23ba3639cd598324d0045460001b612b22565b61367f7f357a6a9df3eb123e7c9a1ddd29ed8d4802c7a668b37a1e54a427bd9be2353b8360001b612b22565b6136ab7f42844c76402a70df5a9166be796b416cca03d87fb32d507f2502ca6574c1893360001b612b22565b6136d77f075a111b02f5f0911184e6acb0f9da4a700a65f1eb1c48b182c7370af583e0c760001b612b22565b600073ffffffffffffffffffffffffffffffffffffffff168473ffffffffffffffffffffffffffffffffffffffff16141561377a576040517f08c379a00000000000000000000000000000000000000000000000000000000081526004018080602001828103825260188152602001807f4552433732313a207472616e7366657220746f207a65726f000000000000000081525060200191505060405180910390fd5b6137a67fc27aff8b8febfa69c91d3f856c4ef1336836d747fe81e7f1558400f4b09583fa60001b612b22565b6137d27f8802cd1892af57eaa136849b9f58d626f394bf4ab68e56898700b78cf652721e60001b612b22565b6137fe7fa6dd3da9629fe93d3fcf0adae807d5651ca5fbe1e3035c159146fa9437d1ad9460001b612b22565b60006138086134d1565b90506138367f17adf1de93d7bf771855849c9c7e65a7cf3295f6059c8c1da4b847449c58377460001b612b22565b6138627fc5aaa0f6b80ee7147922dab33743dbc5efaf00c0aed5d245af7eb1647a1f60e160001b612b22565b600061386e87836134d9565b905061389c7fc9de33d6c09beed38e87b523e262bff70923d2eb6fd9804d9cd30cb196bc5e6660001b612b22565b6138c87f176d16b536d21cef46887b725abc2e642fce0b2c418100c49b8a860bea1aaa6260001b612b22565b6138d6878787846000614832565b6139027f3d39126046bbf8da3df51f25b40088ede3d4ffdd0410a7cf6a236fa52d325b3960001b612b22565b61392e7f6d6808e15d6ebb4e2af0ca5ae110343449fa3c2706db3881d3231baa73384a0260001b612b22565b848673ffffffffffffffffffffffffffffffffffffffff168873ffffffffffffffffffffffffffffffffffffffff167fddf252ad1be2c89b69c2b068fc378daa952ba7f163c4a11628f55a4df523b3ef60405160405180910390a46139b57f6f02b47dd5774c84b6706bdc8a4aebba215bd20a426d0b2c7b191e9b73ea6a4860001b612b22565b6139e17f1c609a5751dc4c210a4412599a1c96a635560dce16784ed165f2f532c96f2d7660001b612b22565b828015613a095750613a088673ffffffffffffffffffffffffffffffffffffffff1661509a565b5b15613aa357613a3a7f4f9df30de4c54579a39c0f4e8d37333f755322651e045f5a83c3d9b127bf433f60001b612b22565b613a667fdbdabf6cb4f74712a94ef47da61433c3783c57e3e585898b0b7895acf622bebb60001b612b22565b613a927fb14849ad598c2859adccce1b7ec390f87d719eb6f1ada9768608a136eb8f6dc560001b612b22565b613a9e878787876150ad565b613ad0565b613acf7fd7ad4f837040abec99923d29fa386f8bd0545eca110becdd1d2f7c585e4eb9f760001b612b22565b5b50505050505050565b600860008273ffffffffffffffffffffffffffffffffffffffff1673ffffffffffffffffffffffffffffffffffffffff16815260200190815260200160002060009054906101000a900460ff16613b98576040517f08c379a00000000000000000000000000000000000000000000000000000000081526004018080602001828103825260188152602001807f4d696e746572526f6c653a206e6f742061204d696e746572000000000000000081525060200191505060405180910390fd5b50565b613bc77faddc15ccc559f525dad7a31fab9a502a094a0bb73912cca8454566b8095f918160001b612b22565b613bf37ffed5c1b517b3eed23456cf1acd64ba5530318c76b344763894d07c6a8fec907560001b612b22565b613c1f7f77b90285cb346e67ecf81412aa25fe49ed77a7ab69d4493c2209711edacf6cdc60001b612b22565b613c4b7f5132852388329f490ffcd1cf8087cb4ccbcce4b7701486133d3785169363c4f460001b612b22565b600073ffffffffffffffffffffffffffffffffffffffff168473ffffffffffffffffffffffffffffffffffffffff161415613cee576040517f08c379a00000000000000000000000000000000000000000000000000000000081526004018080602001828103825260148152602001807f4552433732313a206d696e7420746f207a65726f00000000000000000000000081525060200191505060405180910390fd5b613d1a7f3020fb0ae57c568de08cb4e76539f61ca31e3465db43d6b47cdfff4bbd43c04a60001b612b22565b613d467fc5fe1df01552bddd72e2c9ec678ee814819b4f0e042a7cb9d58e48fd941d5d2460001b612b22565b613d727f3e9160331646e86d0f6e3c06fe0ba534afb3429b43d12e72e0e1bd5211938ab060001b612b22565b613d7e8484600061539f565b613daa7f4d184d3520698ddc1a80417892090c95665e3de527719b9389b9376f9422b7e860001b612b22565b613dd67f7889d44b979241af573dadc64c48af4d1ba21bc25caa72b79a920b0828c8694b60001b612b22565b828473ffffffffffffffffffffffffffffffffffffffff16600073ffffffffffffffffffffffffffffffffffffffff167fddf252ad1be2c89b69c2b068fc378daa952ba7f163c4a11628f55a4df523b3ef60405160405180910390a4613e5e7f8a57c36bf697a19f0bd58feb6a8dd946e4362e14fc15a0f49ed346d8a3e127d660001b612b22565b613e8a7f222e80860c463e0ea5f5d42a515a95abfb06b7f45d73f6050bb8a5a8e8da30e860001b612b22565b808015613eb25750613eb18473ffffffffffffffffffffffffffffffffffffffff1661509a565b5b15613f4d57613ee37f75fd8b9dd383421cdaf0293bcdccadd3d688beaefa32db160756c73d5a13e76660001b612b22565b613f0f7f15b73afaf97d0ccf7625d02314f43c5d136f9f9391824e8939dc8847cb7aeb5560001b612b22565b613f3b7f8ee4b006cae26a820645eb635adc159cb6664b90dbb15ba35ac8ad75e01e1af560001b612b22565b613f4860008585856150ad565b613f7a565b613f797f04def58dc041207ba4d0f07cde0908b12ae6843e0969d053b188b5dd2f3bf9db60001b612b22565b5b50505050565b613fac7f9f43e8df59ce68de677be3026aa13b3f721985b454543c8696fae6174e070dd660001b612b22565b613fd87f84d6ce4a9850495d2211a38f9013fa62a60720ee748fa4018ff499d7db48ab0760001b612b22565b6140047f4777389553f3e49cbc5f6f0687cd2a1f1ad5a2bcf0ca2be2b644de34d7f6210a60001b612b22565b6140307fc525c3ac81c57ec7df2df7721fca5946272f5ea14f2e8275f237cda74de3fc6e60001b612b22565b600073ffffffffffffffffffffffffffffffffffffffff168273ffffffffffffffffffffffffffffffffffffffff1614156140d3576040517f08c379a00000000000000000000000000000000000000000000000000000000081526004018080602001828103825260148152602001807f4552433732313a206d696e7420746f207a65726f00000000000000000000000081525060200191505060405180910390fd5b6140ff7fea8059bb8cd0ba99d8dbce997187a8857f943454506417d349d6c67dd5dbde8a60001b612b22565b61412b7fa995a46c782e2f51a25d1f9cb4d89cb4ca642b877a3c2a5936224b0f3458a47c60001b612b22565b6141577ff3527913387aa3887810cc0f81665e8ebbac4fd3afe7b9eb872bc090c65bdc0860001b612b22565b6000815190506141897f8eeeff1309a653f4646eb55142b535a1d5e5ca0424f39ed8e8df74383ad3cd8860001b612b22565b6141b57f95fb7f5d7ce6c524e07794c10e245087c8053b9e08e03b47a102242db173575760001b612b22565b60008167ffffffffffffffff811180156141ce57600080fd5b506040519080825280602002602001820160405280156141fd5781602001602082028036833780820191505090505b50905061422c7fc89cd174cea571cdb236a3938c5dcd24e8ad8e73777847397a5d09bc988bae5560001b612b22565b6142587f7c8311ca155cff3f32b553993079cd98f6374165c45b93c2f7e1be0daf716c2660001b612b22565b60005b8281146144685761428e7fa0073af5f49fb1978eabc8807be4259c82e3ade95243f41c41e23f5c1a6c8b4c60001b612b22565b6142ba7fda8afdcfdb26a64799f9376d8f049f6728f00de0a7d57dab799925a17a90f57a60001b612b22565b60008482815181106142c857fe5b602002602001015190506142fe7f5720157d60173f0120edffbcad2f49b90d30d0b8c8b78887b33336536b665fc760001b612b22565b61432a7fd034e04554a5a19d1d341305df5a9639af966f47c643ac3da19f466db28eb2bb60001b612b22565b600183838151811061433857fe5b6020026020010181815250506143707f3741a554103b56adcb04d27d3ee044dda1892728f1950825e1124aadaee1de2160001b612b22565b61439c7f67a8a7560131a184e1dfd6300ef3eb466ee2573bb6d790b79ef00030f1e9a19a60001b612b22565b6143a88682600161539f565b6143d47f1f5be447cf306faa618c5ef68ae2af1033c3386bfb5d565693ec994115f7cfbb60001b612b22565b6144007f2731e559214c2d89447e05508b3140d076dd4cf6bc6ad17178eedccc6c8e3eff60001b612b22565b808673ffffffffffffffffffffffffffffffffffffffff16600073ffffffffffffffffffffffffffffffffffffffff167fddf252ad1be2c89b69c2b068fc378daa952ba7f163c4a11628f55a4df523b3ef60405160405180910390a45080600101905061425b565b506144957fd57aa0b90e7b830bfbcbc52b5a0e983751425fa81b056bcb8393668fec8d59fd60001b612b22565b6144c17f9f9f9d8f5da49864135eb8439c23a731c1d3e3af8f879f332ad41cc54b294a6d60001b612b22565b81600460008673ffffffffffffffffffffffffffffffffffffffff1673ffffffffffffffffffffffffffffffffffffffff1681526020019081526020016000206000828254019250508190555050505050565b3073ffffffffffffffffffffffffffffffffffffffff16638da5cb5b6040518163ffffffff1660e01b815260040160206040518083038186803b15801561455a57600080fd5b505afa15801561456e573d6000803e3d6000fd5b505050506040513d602081101561458457600080fd5b810190808051906020019092919050505073ffffffffffffffffffffffffffffffffffffffff168173ffffffffffffffffffffffffffffffffffffffff1614614635576040517f08c379a00000000000000000000000000000000000000000000000000000000081526004018080602001828103825260168152602001807f4f776e61626c653a206e6f7420746865206f776e65720000000000000000000081525060200191505060405180910390fd5b50565b6001600860008373ffffffffffffffffffffffffffffffffffffffff1673ffffffffffffffffffffffffffffffffffffffff16815260200190815260200160002060006101000a81548160ff0219169083151502179055508073ffffffffffffffffffffffffffffffffffffffff167f6ae172837ea30b801fbfcdd4108aa1d5bf8ff775444fd70256b44e6bf3dfc3f660405160405180910390a250565b60606147047f1c9aa8b0a38f069e1470ab73c22da607a105214ef5de328816e9d32a1e8b441b60001b611ca6565b6147307f5170b3391e3dcb54efdddd1865c65f8bcdfb112f0c2230607b93231388faea7b60001b611ca6565b61475c7f378669c14060759ae4c60ec9f0fc205bcc45a295b03ae0f63f92feae3939ea1460001b611ca6565b6007614767836156c3565b60405160200180838054600181600116156101000203166002900480156147c55780601f106147a35761010080835404028352918201916147c5565b820191906000526020600020905b8154815290600101906020018083116147b1575b505082805190602001908083835b602083106147f657805182526020820191506020810190506020830392506147d3565b6001836020036101000a038019825116818451168082178552505050505050905001925050506040516020818303038152906040529050919050565b61485e7fb42205bf391af3e8e554f5e4e95186fabf6d3c2d400dc6dc77e1a95efba0f0a360001b612b22565b61488a7fd62cb91b7cd2f41d70a06ac8cd1dbc1fd96f4315efee9c7d5981a717af2c105560001b612b22565b6148b67f40145eb7db4d33d84949bf1673d7ee228514bf24f8a25d38a29dbd25cf2f3d5c60001b612b22565b6000600360008581526020019081526020016000205490506148fa7fa5079d4372ad538c4c4cc77571d90c708507ee3882f6d11468cda99c9c3d147860001b612b22565b6149267f83d3b45c1abcb5f5f0b7b61e660aa58100f1a78dad4a165f80bd9876b7b1210660001b612b22565b6149527f6b29aa21171f1cd0e88ecc4930fdd9aecba08849f4269040ed67d24f57e762ff60001b612b22565b8073ffffffffffffffffffffffffffffffffffffffff168673ffffffffffffffffffffffffffffffffffffffff16146149f3576040517f08c379a00000000000000000000000000000000000000000000000000000000081526004018080602001828103825260158152602001807f4552433732313a206e6f6e2d6f776e6564204e4654000000000000000000000081525060200191505060405180910390fd5b614a1f7f3f21d52db2245dabc14ae1089b0c34d40b3e481a27293d02ff2d9c293f4159ca60001b612b22565b614a4b7f7127f8cbbd5b7187697d13afdc934850c962d69305b446e4ec04d017c83c849760001b612b22565b614a777f245641d4a84f3c6f214aa88690e145ed68da063006fe1c31699afff6d5b7233060001b612b22565b82614c5c57614aa87f38957dad6003bb016a0c00b46ab770509769f7752b2474a975c98321a7a59f3960001b612b22565b614ad47f04f3a8201bbadc4e6494a706dfd8882ec59525271b083531208ed7086230142460001b612b22565b614b007f8350237a10d24313d9ffffc775e04a25f4c72a5eea4cdc3d1bce894415dd673960001b612b22565b614b2c7fcceb4a8c77ded5d22f1069503d83fc717caa624634aece6aeb1a4d87365336fd60001b612b22565b600074010000000000000000000000000000000000000000821614158015614bb957506005600085815260200190815260200160002060009054906101000a900473ffffffffffffffffffffffffffffffffffffffff1673ffffffffffffffffffffffffffffffffffffffff16614ba16134d1565b73ffffffffffffffffffffffffffffffffffffffff16145b614c2b576040517f08c379a000000000000000000000000000000000000000000000000000000000815260040180806020018281038252601b8152602001807f4552433732313a206e6f6e2d617070726f7665642073656e646572000000000081525060200191505060405180910390fd5b614c577f1da9e68353ee3f113e8a9404b0f77c5867d2220f08e0d13ad1cafe0a2589c33b60001b612b22565b614c89565b614c887f400f8de0973a9dd9d8ad29e1d22e73af1a52d6fc1d28d9e8e2c0da4394b91cc060001b612b22565b5b614cb57fc41910c1589bca55bf9e887d7d5310d5d23c4589af4e7daa5c2836817c0f315060001b612b22565b614ce17f7cf41e04a406cdf9f5026b848710313a09c86281c261ab84276e42c0f512962360001b612b22565b8473ffffffffffffffffffffffffffffffffffffffff166003600086815260200190815260200160002081905550614d3b7f7f256bcbbf0e200c2719101d10725e85c3fae3ac7e63fd2aeb2fab0fd396b69a60001b612b22565b614d677f21cf5310b82878b349d5132709f2128903973fe056771d9dd734f53ac03fba8d60001b612b22565b81614e0157614d987f81e206239b77b21f6a1c3eba570276c00e290e1633606dda8321d62cd8ede55d60001b612b22565b614dc47f851737ac9f7687f890b718bf8af9972d1250708cbc95f74efc2bea61a9e460ac60001b612b22565b614df07fb16dbb4ab2fdf8f68d480facc4854586a19beccf982712aa2cdf5244ff30d10a60001b612b22565b614dfc86866001614e36565b614e2e565b614e2d7fd36dd6b2a37486b7fd20a0bcb2de6311e08092677530eb1b29d10b0d56cd253760001b612b22565b5b505050505050565b614e627fa43079022045953ff7a26e9d1cdceb19ec12e8ab6cec778226ceb5752ea0ab3060001b612b22565b614e8e7f4b5907ebd1b267a7b6c5ae9cadfbebe6b04e3b7dd7a0896d4806a8a80966918d60001b612b22565b614eba7fa8a60ef71bb05cdcda7ab00798ea8e5a25797a0c5e0bb388d0f2d5a783fd5dae60001b612b22565b8173ffffffffffffffffffffffffffffffffffffffff168373ffffffffffffffffffffffffffffffffffffffff161461506857614f197fad57bd95fd33487746467c2d11efbded32ce759d8f8b42e4b1a877a3c23cadff60001b612b22565b614f457fd727d151a3ca5f6027b936253ed95aee38b7a228851cfd0f25b18fe490bc9b9d60001b612b22565b614f717f72d84f72b6bf40f8394ddf365889d83fbb2c88c1828e1ff6ef2c3fc0a8ad114960001b612b22565b80600460008573ffffffffffffffffffffffffffffffffffffffff1673ffffffffffffffffffffffffffffffffffffffff16815260200190815260200160002060008282540392505081905550614fea7ff3cc889404b1e00a6fa52f47759c8b8d35758d9a1202446161604e7ab8b911d760001b612b22565b6150167f304b50322a7c557d367ef4332598eb6623933efd810b050b3f3a89388eca24cd60001b612b22565b80600460008473ffffffffffffffffffffffffffffffffffffffff1673ffffffffffffffffffffffffffffffffffffffff16815260200190815260200160002060008282540192505081905550615095565b6150947f24f3d0e7e733b716b6ff81285c0629b77ced3b08d57f214ed373cb5ceaa051a160001b612b22565b5b505050565b600080823b905060008111915050919050565b6150d97fb3b7436d4b971e633c03bd4de9232f9aac8610387e7d17aca623b2179a7c56b760001b612b22565b6151057f025d5020ed4cc64aee3b5e82079757b5378b244450f7b4320201b0196331894b60001b612b22565b6151317fee673150993f58b975aa5dfb5cf327db804f62fc6356406803a1f4e91fab620560001b612b22565b61515d7f60b915376f75f63d14cf04e685744969c39f8121af18f3e8eacdc13f755d9ece60001b612b22565b7f150b7a02000000000000000000000000000000000000000000000000000000007bffffffffffffffffffffffffffffffffffffffffffffffffffffffff19168373ffffffffffffffffffffffffffffffffffffffff1663150b7a026151c16134d1565b8786866040518563ffffffff1660e01b8152600401808573ffffffffffffffffffffffffffffffffffffffff1681526020018473ffffffffffffffffffffffffffffffffffffffff16815260200183815260200180602001828103825283818151815260200191508051906020019080838360005b83811015615251578082015181840152602081019050615236565b50505050905090810190601f16801561527e5780820380516001836020036101000a031916815260200191505b5095505050505050602060405180830381600087803b1580156152a057600080fd5b505af11580156152b4573d6000803e3d6000fd5b505050506040513d60208110156152ca57600080fd5b81019080805190602001909291905050507bffffffffffffffffffffffffffffffffffffffffffffffffffffffff19161461536d576040517f08c379a00000000000000000000000000000000000000000000000000000000081526004018080602001828103825260188152602001807f4552433732313a207472616e736665722072656675736564000000000000000081525060200191505060405180910390fd5b6153997f1153ca127ed9fc0871ceef55b9fc2a036aec41f7b0f52e44971ce47cb0bbaa9060001b612b22565b50505050565b6153cb7fb0be70c567f9fb4af166074f544c79380fec331e1a2a71c6817226e1229a8dab60001b612b22565b6153f77faf11acf3d42ef2f403c9a82237d686a780966e0b8791e6e76ba6c2cd1a93390560001b612b22565b6154237f8d0c87176d9743782a8e743fb86a3ae2df1a6b0f47e116cb29193744c71dd19560001b612b22565b61544f7f50ae879b5cb55820b07c44a191c3b36c62f4139f0a2fe6ae2a0cf44b7e99d8fe60001b612b22565b60006003600084815260200190815260200160002054146154d8576040517f08c379a000000000000000000000000000000000000000000000000000000000815260040180806020018281038252601a8152602001807f4552433732313a206578697374696e672f6275726e74204e465400000000000081525060200191505060405180910390fd5b6155047ff2023f365fd682de47086028de642197360dc3314f0faf70e359d4fb373e327060001b612b22565b6155307f62164848a71213781d2edcbe7147fe7cb4b447559e363a612f04a992e894ee1860001b612b22565b61555c7f8c5dc018152e4eda26646cfa13536cdf0c376ef772330f87c98fb02c082d6c5360001b612b22565b8273ffffffffffffffffffffffffffffffffffffffff1660036000848152602001908152602001600020819055506155b67feae32892f82a504d2f871b645078370d10dfab7a6fa201a19b56717afd8a7b5b60001b612b22565b6155e27ff0364d8fccf390aeda9022f48d340d85c26f5fcf1fc33d93b71d8d756dd6f4fe60001b612b22565b80615691576156137f025867a94022bf17d44d05dc9692dc5f6733e7b03a2412f7336fa77c41ef459c60001b612b22565b61563f7f9e45ff9b115fae23e629bb95dee5760b8583c33ea9693ea54c267f8bfba20b0e60001b612b22565b600460008473ffffffffffffffffffffffffffffffffffffffff1673ffffffffffffffffffffffffffffffffffffffff16815260200190815260200160002060008154600101919050819055506156be565b6156bd7f09d255f1f04004ce2104739ae4e7af0826cf599668361981fa9976fb9cc21aa960001b612b22565b5b505050565b6060600082141561570b576040518060400160405280600181526020017f30000000000000000000000000000000000000000000000000000000000000008152509050615805565b600082905060005b60008214615735578080600101915050600a828161572d57fe5b049150615713565b60008167ffffffffffffffff8111801561574e57600080fd5b506040519080825280601f01601f1916602001820160405280156157815781602001600182028036833780820191505090505b50905060006001830390508593505b600084146157fd57600a84816157a257fe5b0660300160f81b828280600190039350815181106157bc57fe5b60200101907effffffffffffffffffffffffffffffffffffffffffffffffffffffffffffff1916908160001a905350600a84816157f557fe5b049350615790565b819450505050505b919050565b828054600181600116156101000203166002900490600052602060002090601f0160209004810192826158405760008555615887565b82601f1061585957803560ff1916838001178555615887565b82800160010185558215615887579182015b8281111561588657823582559160200191906001019061586b565b5b5090506158949190615898565b5090565b5b808211156158b1576000816000905550600101615899565b509056fea264697066735822122058267bfa15c409267c99ddc02c68829d724f069ceacb10c5fb2d773fa3aa1c8764736f6c63430007060033",
  "linkReferences": {},
  "deployedLinkReferences": {}
}