{
  "_format": "hh-sol-artifact-1",
  "contractName": "ERC721Mock",
  "sourceName": "contracts/mocks/token/ERC721/ERC721Mock.sol",
  "abi": [
    {
      "inputs": [],
      "stateMutability": "nonpayable",
      "type": "constructor"
    },
    {
      "anonymous": false,
      "inputs": [
        {
          "indexed": true,
          "internalType": "address",
          "name": "_owner",
          "type": "address"
        },
        {
          "indexed": true,
          "internalType": "address",
          "name": "_approved",
          "type": "address"
        },
        {
          "indexed": true,
          "internalType": "uint256",
          "name": "_tokenId",
          "type": "uint256"
        }
      ],
      "name": "Approval",
      "type": "event"
    },
    {
      "anonymous": false,
      "inputs": [
        {
          "indexed": true,
          "internalType": "address",
          "name": "_owner",
          "type": "address"
        },
        {
          "indexed": true,
          "internalType": "address",
          "name": "_operator",
          "type": "address"
        },
        {
          "indexed": false,
          "internalType": "bool",
          "name": "_approved",
          "type": "bool"
        }
      ],
      "name": "ApprovalForAll",
      "type": "event"
    },
    {
      "anonymous": false,
      "inputs": [
        {
          "indexed": false,
          "internalType": "string",
          "name": "baseMetadataURI",
          "type": "string"
        }
      ],
      "name": "BaseMetadataURISet",
      "type": "event"
    },
    {
      "anonymous": false,
      "inputs": [
        {
          "indexed": true,
          "internalType": "address",
          "name": "account",
          "type": "address"
        }
      ],
      "name": "MinterAdded",
      "type": "event"
    },
    {
      "anonymous": false,
      "inputs": [
        {
          "indexed": true,
          "internalType": "address",
          "name": "account",
          "type": "address"
        }
      ],
      "name": "MinterRemoved",
      "type": "event"
    },
    {
      "anonymous": false,
      "inputs": [
        {
          "indexed": true,
          "internalType": "address",
          "name": "previousOwner",
          "type": "address"
        },
        {
          "indexed": true,
          "internalType": "address",
          "name": "newOwner",
          "type": "address"
        }
      ],
      "name": "OwnershipTransferred",
      "type": "event"
    },
    {
      "anonymous": false,
      "inputs": [
        {
          "indexed": true,
          "internalType": "address",
          "name": "_from",
          "type": "address"
        },
        {
          "indexed": true,
          "internalType": "address",
          "name": "_to",
          "type": "address"
        },
        {
          "indexed": true,
          "internalType": "uint256",
          "name": "_tokenId",
          "type": "uint256"
        }
      ],
      "name": "Transfer",
      "type": "event"
    },
    {
      "inputs": [
        {
          "internalType": "address",
          "name": "account",
          "type": "address"
        }
      ],
      "name": "addMinter",
      "outputs": [],
      "stateMutability": "nonpayable",
      "type": "function"
    },
    {
      "inputs": [
        {
          "internalType": "address",
          "name": "to",
          "type": "address"
        },
        {
          "internalType": "uint256",
          "name": "tokenId",
          "type": "uint256"
        }
      ],
      "name": "approve",
      "outputs": [],
      "stateMutability": "nonpayable",
      "type": "function"
    },
    {
      "inputs": [
        {
          "internalType": "address",
          "name": "owner",
          "type": "address"
        }
      ],
      "name": "balanceOf",
      "outputs": [
        {
          "internalType": "uint256",
          "name": "",
          "type": "uint256"
        }
      ],
      "stateMutability": "view",
      "type": "function"
    },
    {
      "inputs": [],
      "name": "baseMetadataURI",
      "outputs": [
        {
          "internalType": "string",
          "name": "",
          "type": "string"
        }
      ],
      "stateMutability": "view",
      "type": "function"
    },
    {
      "inputs": [
        {
          "internalType": "address",
          "name": "to",
          "type": "address"
        },
        {
          "internalType": "uint256[]",
          "name": "tokenIds",
          "type": "uint256[]"
        }
      ],
      "name": "batchMint",
      "outputs": [],
      "stateMutability": "nonpayable",
      "type": "function"
    },
    {
      "inputs": [
        {
          "internalType": "address",
          "name": "from",
          "type": "address"
        },
        {
          "internalType": "address",
          "name": "to",
          "type": "address"
        },
        {
          "internalType": "uint256[]",
          "name": "tokenIds",
          "type": "uint256[]"
        }
      ],
      "name": "batchTransferFrom",
      "outputs": [],
      "stateMutability": "nonpayable",
      "type": "function"
    },
    {
      "inputs": [
        {
          "internalType": "uint256",
          "name": "tokenId",
          "type": "uint256"
        }
      ],
      "name": "getApproved",
      "outputs": [
        {
          "internalType": "address",
          "name": "",
          "type": "address"
        }
      ],
      "stateMutability": "view",
      "type": "function"
    },
    {
      "inputs": [
        {
          "internalType": "address",
          "name": "owner",
          "type": "address"
        },
        {
          "internalType": "address",
          "name": "operator",
          "type": "address"
        }
      ],
      "name": "isApprovedForAll",
      "outputs": [
        {
          "internalType": "bool",
          "name": "",
          "type": "bool"
        }
      ],
      "stateMutability": "view",
      "type": "function"
    },
    {
      "inputs": [
        {
          "internalType": "address",
          "name": "",
          "type": "address"
        }
      ],
      "name": "isMinter",
      "outputs": [
        {
          "internalType": "bool",
          "name": "",
          "type": "bool"
        }
      ],
      "stateMutability": "view",
      "type": "function"
    },
    {
      "inputs": [
        {
          "internalType": "address",
          "name": "to",
          "type": "address"
        },
        {
          "internalType": "uint256",
          "name": "tokenId",
          "type": "uint256"
        }
      ],
      "name": "mint",
      "outputs": [],
      "stateMutability": "nonpayable",
      "type": "function"
    },
    {
      "inputs": [],
      "name": "name",
      "outputs": [
        {
          "internalType": "string",
          "name": "",
          "type": "string"
        }
      ],
      "stateMutability": "view",
      "type": "function"
    },
    {
      "inputs": [],
      "name": "owner",
      "outputs": [
        {
          "internalType": "address",
          "name": "",
          "type": "address"
        }
      ],
      "stateMutability": "view",
      "type": "function"
    },
    {
      "inputs": [
        {
          "internalType": "uint256",
          "name": "tokenId",
          "type": "uint256"
        }
      ],
      "name": "ownerOf",
      "outputs": [
        {
          "internalType": "address",
          "name": "",
          "type": "address"
        }
      ],
      "stateMutability": "view",
      "type": "function"
    },
    {
      "inputs": [],
      "name": "renounceMinter",
      "outputs": [],
      "stateMutability": "nonpayable",
      "type": "function"
    },
    {
      "inputs": [
        {
          "internalType": "address",
          "name": "to",
          "type": "address"
        },
        {
          "internalType": "uint256",
          "name": "tokenId",
          "type": "uint256"
        },
        {
          "internalType": "bytes",
          "name": "data",
          "type": "bytes"
        }
      ],
      "name": "safeMint",
      "outputs": [],
      "stateMutability": "nonpayable",
      "type": "function"
    },
    {
      "inputs": [
        {
          "internalType": "address",
          "name": "from",
          "type": "address"
        },
        {
          "internalType": "address",
          "name": "to",
          "type": "address"
        },
        {
          "internalType": "uint256",
          "name": "tokenId",
          "type": "uint256"
        }
      ],
      "name": "safeTransferFrom",
      "outputs": [],
      "stateMutability": "nonpayable",
      "type": "function"
    },
    {
      "inputs": [
        {
          "internalType": "address",
          "name": "from",
          "type": "address"
        },
        {
          "internalType": "address",
          "name": "to",
          "type": "address"
        },
        {
          "internalType": "uint256",
          "name": "tokenId",
          "type": "uint256"
        },
        {
          "internalType": "bytes",
          "name": "data",
          "type": "bytes"
        }
      ],
      "name": "safeTransferFrom",
      "outputs": [],
      "stateMutability": "nonpayable",
      "type": "function"
    },
    {
      "inputs": [
        {
          "internalType": "address",
          "name": "operator",
          "type": "address"
        },
        {
          "internalType": "bool",
          "name": "approved",
          "type": "bool"
        }
      ],
      "name": "setApprovalForAll",
      "outputs": [],
      "stateMutability": "nonpayable",
      "type": "function"
    },
    {
      "inputs": [
        {
          "internalType": "string",
          "name": "baseMetadataURI_",
          "type": "string"
        }
      ],
      "name": "setBaseMetadataURI",
      "outputs": [],
      "stateMutability": "nonpayable",
      "type": "function"
    },
    {
      "inputs": [
        {
          "internalType": "bytes4",
          "name": "interfaceId",
          "type": "bytes4"
        }
      ],
      "name": "supportsInterface",
      "outputs": [
        {
          "internalType": "bool",
          "name": "",
          "type": "bool"
        }
      ],
      "stateMutability": "view",
      "type": "function"
    },
    {
      "inputs": [],
      "name": "symbol",
      "outputs": [
        {
          "internalType": "string",
          "name": "",
          "type": "string"
        }
      ],
      "stateMutability": "view",
      "type": "function"
    },
    {
      "inputs": [
        {
          "internalType": "uint256",
          "name": "tokenId",
          "type": "uint256"
        }
      ],
      "name": "tokenURI",
      "outputs": [
        {
          "internalType": "string",
          "name": "",
          "type": "string"
        }
      ],
      "stateMutability": "view",
      "type": "function"
    },
    {
      "inputs": [
        {
          "internalType": "address",
          "name": "from",
          "type": "address"
        },
        {
          "internalType": "address",
          "name": "to",
          "type": "address"
        },
        {
          "internalType": "uint256",
          "name": "tokenId",
          "type": "uint256"
        }
      ],
      "name": "transferFrom",
      "outputs": [],
      "stateMutability": "nonpayable",
      "type": "function"
    },
    {
      "inputs": [
        {
          "internalType": "address",
          "name": "newOwner",
          "type": "address"
        }
      ],
      "name": "transferOwnership",
      "outputs": [],
      "stateMutability": "nonpayable",
      "type": "function"
    }
  ],
  "bytecode": "0x60806040523480156200001157600080fd5b50604080518082018252600a8152694552433732314d6f636b60b01b6020808301918252835180850190945260048452634537323160e01b90840152815133938493929091620000649160009162000127565b5080516200007a90600190602084019062000127565b5050600680546001600160a01b0319166001600160a01b0384169081179091556040519091506000907f8be0079c531659141344cd1fd0a4f28419497f9722a3daafe3b4186f6b6457e0908290a350620000d481620000db565b50620001d3565b6001600160a01b038116600081815260086020526040808220805460ff19166001179055517f6ae172837ea30b801fbfcdd4108aa1d5bf8ff775444fd70256b44e6bf3dfc3f69190a250565b828054600181600116156101000203166002900490600052602060002090601f0160209004810192826200015f5760008555620001aa565b82601f106200017a57805160ff1916838001178555620001aa565b82800160010185558215620001aa579182015b82811115620001aa5782518255916020019190600101906200018d565b50620001b8929150620001bc565b5090565b5b80821115620001b85760008155600101620001bd565b611e1480620001e36000396000f3fe608060405234801561001057600080fd5b50600436106101985760003560e01c80638832e6e3116100e3578063aa271e1a1161008c578063e985e9c511610066578063e985e9c5146106b3578063f2fde38b146106e1578063f3993d111461070757610198565b8063aa271e1a146105aa578063b88d4fde146105d0578063c87b56dd1461069657610198565b8063983b2d56116100bd578063983b2d561461054e5780639865027514610574578063a22cb4651461057c57610198565b80638832e6e3146104b95780638da5cb5b1461053e57806395d89b411461054657610198565b806342842e0e116101455780636352211e1161011f5780636352211e146103f457806370a08231146104115780637e518ec81461044957610198565b806342842e0e146103365780634684d7e91461036c5780635b2bd79e146103ec57610198565b8063095ea7b311610176578063095ea7b3146102a657806323b872dd146102d457806340c10f191461030a57610198565b806301ffc9a71461019d57806306fdde03146101f0578063081812fc1461026d575b600080fd5b6101dc600480360360208110156101b357600080fd5b50357fffffffff00000000000000000000000000000000000000000000000000000000166107c3565b604080519115158252519081900360200190f35b6101f86108f6565b6040805160208082528351818301528351919283929083019185019080838360005b8381101561023257818101518382015260200161021a565b50505050905090810190601f16801561025f5780820380516001836020036101000a031916815260200191505b509250505060405180910390f35b61028a6004803603602081101561028357600080fd5b503561098c565b604080516001600160a01b039092168252519081900360200190f35b6102d2600480360360408110156102bc57600080fd5b506001600160a01b038135169060200135610a3c565b005b6102d2600480360360608110156102ea57600080fd5b506001600160a01b03813581169160208101359091169060400135610baa565b6102d26004803603604081101561032057600080fd5b506001600160a01b038135169060200135610bcc565b6102d26004803603606081101561034c57600080fd5b506001600160a01b03813581169160208101359091169060400135610bfc565b6102d26004803603604081101561038257600080fd5b6001600160a01b0382351691908101906040810160208201356401000000008111156103ad57600080fd5b8201836020820111156103bf57600080fd5b803590602001918460208302840111640100000000831117156103e157600080fd5b509092509050610c19565b6101f8610c61565b61028a6004803603602081101561040a57600080fd5b5035610cef565b6104376004803603602081101561042757600080fd5b50356001600160a01b0316610d59565b60408051918252519081900360200190f35b6102d26004803603602081101561045f57600080fd5b81019060208101813564010000000081111561047a57600080fd5b82018360208201111561048c57600080fd5b803590602001918460018302840111640100000000831117156104ae57600080fd5b509092509050610dd2565b6102d2600480360360608110156104cf57600080fd5b6001600160a01b03823516916020810135918101906060810160408201356401000000008111156104ff57600080fd5b82018360208201111561051157600080fd5b8035906020019184600183028401116401000000008311171561053357600080fd5b509092509050610e53565b61028a610ea8565b6101f8610eb7565b6102d26004803603602081101561056457600080fd5b50356001600160a01b0316610f17565b6102d2610f2e565b6102d26004803603604081101561059257600080fd5b506001600160a01b0381351690602001351515610f8c565b6101dc600480360360208110156105c057600080fd5b50356001600160a01b031661106d565b6102d2600480360360808110156105e657600080fd5b6001600160a01b0382358116926020810135909116916040820135919081019060808101606082013564010000000081111561062157600080fd5b82018360208201111561063357600080fd5b8035906020019184600183028401116401000000008311171561065557600080fd5b91908080601f016020809104026020016040519081016040528093929190818152602001838380828437600092019190915250929550611082945050505050565b6101f8600480360360208110156106ac57600080fd5b5035611090565b6101dc600480360360408110156106c957600080fd5b506001600160a01b0381358116916020013516611105565b6102d2600480360360208110156106f757600080fd5b50356001600160a01b0316611133565b6102d26004803603606081101561071d57600080fd5b6001600160a01b03823581169260208101359091169181019060608101604082013564010000000081111561075157600080fd5b82018360208201111561076357600080fd5b8035906020019184602083028401116401000000008311171561078557600080fd5b9190808060200260200160405190810160405280939291908181526020018383602002808284376000920191909152509295506111a6945050505050565b60007fffffffff0000000000000000000000000000000000000000000000000000000082167f01ffc9a700000000000000000000000000000000000000000000000000000000148061085657507fffffffff0000000000000000000000000000000000000000000000000000000082167f80ac58cd00000000000000000000000000000000000000000000000000000000145b806108a257507fffffffff0000000000000000000000000000000000000000000000000000000082167f5b5e139f00000000000000000000000000000000000000000000000000000000145b806108ee57507fffffffff0000000000000000000000000000000000000000000000000000000082167ff3993d1100000000000000000000000000000000000000000000000000000000145b90505b919050565b60008054604080516020601f60026000196101006001881615020190951694909404938401819004810282018101909252828152606093909290918301828280156109825780601f1061095757610100808354040283529160200191610982565b820191906000526020600020905b81548152906001019060200180831161096557829003601f168201915b5050505050905090565b6000818152600360205260408120546001600160a01b0381166109f6576040805162461bcd60e51b815260206004820152601860248201527f4552433732313a206e6f6e2d6578697374696e67204e46540000000000000000604482015290519081900360640190fd5b74010000000000000000000000000000000000000000811615610a325750506000818152600560205260409020546001600160a01b03166108f1565b60009150506108f1565b6000610a4782610cef565b9050806001600160a01b0316836001600160a01b03161415610ab0576040805162461bcd60e51b815260206004820152601560248201527f4552433732313a2073656c662d617070726f76616c0000000000000000000000604482015290519081900360640190fd5b610ac181610abc6112b2565b6112b6565b610b12576040805162461bcd60e51b815260206004820152601b60248201527f4552433732313a206e6f6e2d617070726f7665642073656e6465720000000000604482015290519081900360640190fd5b60008281526003602090815260408083206001600160a01b03808616740100000000000000000000000000000000000000008117909255600590935281842080549388167fffffffffffffffffffffffff000000000000000000000000000000000000000090941684179055905185937f8c5be1e5ebec7d5bd14f71427d1e84f3dd0314c0f7b2291e5b200ac8c7c3b92591a4505050565b610bc7838383604051806020016040528060008152506000611304565b505050565b610bdc610bd76112b2565b6113fc565b610bf88282604051806020016040528060008152506000611469565b5050565b610bc7838383604051806020016040528060008152506001611304565b610c24610bd76112b2565b610bc78383838080602002602001604051908101604052809392919081815260200183836020028082843760009201919091525061153492505050565b6007805460408051602060026001851615610100026000190190941693909304601f81018490048402820184019092528181529291830182828015610ce75780601f10610cbc57610100808354040283529160200191610ce7565b820191906000526020600020905b815481529060010190602001808311610cca57829003601f168201915b505050505081565b6000818152600360205260408120546001600160a01b0381166108ee576040805162461bcd60e51b815260206004820152601860248201527f4552433732313a206e6f6e2d6578697374696e67204e46540000000000000000604482015290519081900360640190fd5b60006001600160a01b038216610db6576040805162461bcd60e51b815260206004820152601460248201527f4552433732313a207a65726f2061646472657373000000000000000000000000604482015290519081900360640190fd5b506001600160a01b031660009081526004602052604090205490565b610de2610ddd6112b2565b611686565b610dee60078383611d3d565b507f04b1dc5c136a3ce9fded8db0ce3d3366c58764ec3a8e4c2b9e52e4ddfe5ebbf7828260405180806020018281038252848482818152602001925080828437600083820152604051601f909101601f19169092018290039550909350505050a15050565b610e5e610bd76112b2565b610ea2848484848080601f01602080910402602001604051908101604052809392919081815260200183838082843760009201919091525060019250611469915050565b50505050565b6006546001600160a01b031690565b60018054604080516020601f600260001961010087891615020190951694909404938401819004810282018101909252828152606093909290918301828280156109825780601f1061095757610100808354040283529160200191610982565b610f22610ddd6112b2565b610f2b8161174a565b50565b6000610f386112b2565b9050610f43816113fc565b6001600160a01b038116600081815260086020526040808220805460ff19169055517fe94479a9f7e1952cc78f2d6baab678adc1b772d936c6583def489e524cb666929190a250565b6000610f966112b2565b9050806001600160a01b0316836001600160a01b03161415610fff576040805162461bcd60e51b815260206004820152601560248201527f4552433732313a2073656c662d617070726f76616c0000000000000000000000604482015290519081900360640190fd5b6001600160a01b03818116600081815260026020908152604080832094881680845294825291829020805460ff1916871515908117909155825190815291517f17307eab39ab6107e8899845ad3d59bd9653f200f220920489ca2b5937696c319281900390910190a3505050565b60086020526000908152604090205460ff1681565b610ea2848484846001611304565b6000818152600360205260409020546060906001600160a01b03166110fc576040805162461bcd60e51b815260206004820152601860248201527f4552433732313a206e6f6e2d6578697374696e67204e46540000000000000000604482015290519081900360640190fd5b6108ee82611796565b6001600160a01b03918216600090815260026020908152604080832093909416825291909152205460ff1690565b61113e610ddd6112b2565b600680547fffffffffffffffffffffffff0000000000000000000000000000000000000000166001600160a01b0383811691821792839055604051919216907f8be0079c531659141344cd1fd0a4f28419497f9722a3daafe3b4186f6b6457e090600090a350565b6001600160a01b038216611201576040805162461bcd60e51b815260206004820152601860248201527f4552433732313a207472616e7366657220746f207a65726f0000000000000000604482015290519081900360640190fd5b600061120b6112b2565b9050600061121985836112b6565b835190915060005b81811461129857600085828151811061123657fe5b6020026020010151905061124e888883876001611869565b80876001600160a01b0316896001600160a01b03167fddf252ad1be2c89b69c2b068fc378daa952ba7f163c4a11628f55a4df523b3ef60405160405180910390a450600101611221565b5080156112aa576112aa8686836119a1565b505050505050565b3390565b6000816001600160a01b0316836001600160a01b031614806112fd57506001600160a01b0380841660009081526002602090815260408083209386168352929052205460ff165b9392505050565b6001600160a01b03841661135f576040805162461bcd60e51b815260206004820152601860248201527f4552433732313a207472616e7366657220746f207a65726f0000000000000000604482015290519081900360640190fd5b60006113696112b2565b9050600061137787836112b6565b9050611387878787846000611869565b84866001600160a01b0316886001600160a01b03167fddf252ad1be2c89b69c2b068fc378daa952ba7f163c4a11628f55a4df523b3ef60405160405180910390a48280156113e257506113e2866001600160a01b03166119ec565b156113f3576113f3878787876119f2565b50505050505050565b6001600160a01b03811660009081526008602052604090205460ff16610f2b576040805162461bcd60e51b815260206004820152601860248201527f4d696e746572526f6c653a206e6f742061204d696e7465720000000000000000604482015290519081900360640190fd5b6001600160a01b0384166114c4576040805162461bcd60e51b815260206004820152601460248201527f4552433732313a206d696e7420746f207a65726f000000000000000000000000604482015290519081900360640190fd5b6114d084846000611b8c565b60405183906001600160a01b038616906000907fddf252ad1be2c89b69c2b068fc378daa952ba7f163c4a11628f55a4df523b3ef908290a48080156115225750611522846001600160a01b03166119ec565b15610ea257610ea260008585856119f2565b6001600160a01b03821661158f576040805162461bcd60e51b815260206004820152601460248201527f4552433732313a206d696e7420746f207a65726f000000000000000000000000604482015290519081900360640190fd5b805160008167ffffffffffffffff811180156115aa57600080fd5b506040519080825280602002602001820160405280156115d4578160200160208202803683370190505b50905060005b8281146116605760008482815181106115ef57fe5b60200260200101519050600183838151811061160757fe5b60200260200101818152505061161f86826001611b8c565b60405181906001600160a01b038816906000907fddf252ad1be2c89b69c2b068fc378daa952ba7f163c4a11628f55a4df523b3ef908290a4506001016115da565b50506001600160a01b039092166000908152600460205260409020805490920190915550565b306001600160a01b0316638da5cb5b6040518163ffffffff1660e01b815260040160206040518083038186803b1580156116bf57600080fd5b505afa1580156116d3573d6000803e3d6000fd5b505050506040513d60208110156116e957600080fd5b50516001600160a01b03828116911614610f2b576040805162461bcd60e51b815260206004820152601660248201527f4f776e61626c653a206e6f7420746865206f776e657200000000000000000000604482015290519081900360640190fd5b6001600160a01b038116600081815260086020526040808220805460ff19166001179055517f6ae172837ea30b801fbfcdd4108aa1d5bf8ff775444fd70256b44e6bf3dfc3f69190a250565b606060076117a383611c2e565b60405160200180838054600181600116156101000203166002900480156118015780601f106117df576101008083540402835291820191611801565b820191906000526020600020905b8154815290600101906020018083116117ed575b5050825160208401908083835b6020831061182d5780518252601f19909201916020918201910161180e565b6001836020036101000a038019825116818451168082178552505050505050905001925050506040516020818303038152906040529050919050565b6000838152600360205260409020546001600160a01b03868116908216146118d8576040805162461bcd60e51b815260206004820152601560248201527f4552433732313a206e6f6e2d6f776e6564204e46540000000000000000000000604482015290519081900360640190fd5b8261197a577401000000000000000000000000000000000000000081161580159061192957506000848152600560205260409020546001600160a01b031661191e6112b2565b6001600160a01b0316145b61197a576040805162461bcd60e51b815260206004820152601b60248201527f4552433732313a206e6f6e2d617070726f7665642073656e6465720000000000604482015290519081900360640190fd5b60008481526003602052604090206001600160a01b0386169055816112aa576112aa868660015b816001600160a01b0316836001600160a01b031614610bc7576001600160a01b0380841660009081526004602052604080822080548590039055918416815220805482019055505050565b3b151590565b7f150b7a02000000000000000000000000000000000000000000000000000000006001600160a01b03841663150b7a02611a2a6112b2565b8786866040518563ffffffff1660e01b815260040180856001600160a01b03168152602001846001600160a01b0316815260200183815260200180602001828103825283818151815260200191508051906020019080838360005b83811015611a9d578181015183820152602001611a85565b50505050905090810190601f168015611aca5780820380516001836020036101000a031916815260200191505b5095505050505050602060405180830381600087803b158015611aec57600080fd5b505af1158015611b00573d6000803e3d6000fd5b505050506040513d6020811015611b1657600080fd5b50517fffffffff000000000000000000000000000000000000000000000000000000001614610ea2576040805162461bcd60e51b815260206004820152601860248201527f4552433732313a207472616e7366657220726566757365640000000000000000604482015290519081900360640190fd5b60008281526003602052604090205415611bed576040805162461bcd60e51b815260206004820152601a60248201527f4552433732313a206578697374696e672f6275726e74204e4654000000000000604482015290519081900360640190fd5b60008281526003602052604090206001600160a01b038416905580610bc75750506001600160a01b0316600090815260046020526040902080546001019055565b606081611c6f575060408051808201909152600181527f300000000000000000000000000000000000000000000000000000000000000060208201526108f1565b8160005b8115611c8757600101600a82049150611c73565b60008167ffffffffffffffff81118015611ca057600080fd5b506040519080825280601f01601f191660200182016040528015611ccb576020820181803683370190505b50859350905060001982015b8315611d3457600a840660300160f81b82828060019003935081518110611cfa57fe5b60200101907effffffffffffffffffffffffffffffffffffffffffffffffffffffffffffff1916908160001a905350600a84049350611cd7565b50949350505050565b828054600181600116156101000203166002900490600052602060002090601f016020900481019282611d735760008555611db9565b82601f10611d8c5782800160ff19823516178555611db9565b82800160010185558215611db9579182015b82811115611db9578235825591602001919060010190611d9e565b50611dc5929150611dc9565b5090565b5b80821115611dc55760008155600101611dca56fea26469706673582212201660e73eae268074e0cdea8afc59a421b8cc70c5ea935340473a555acf96a0f864736f6c63430007060033",
  "linkReferences": {},
  "deployedLinkReferences": {}
}