{
  "_format": "hh-sol-artifact-1",
  "contractName": "ERC1155InventoryIdentifiersLib",
  "sourceName": "contracts/token/ERC1155/ERC1155InventoryBase.sol",
  "abi": [
    {
      "inputs": [
        {
          "internalType": "bytes32",
          "name": "c__0xce2b1d17",
          "type": "bytes32"
        }
      ],
      "name": "c_0xce2b1d17",
      "outputs": [],
      "stateMutability": "pure",
      "type": "function"
    }
  ],
  "bytecode": "0x609c610024600b82828239805160001a607314601757fe5b30600052607381538281f3fe730000000000000000000000000000000000000000301460806040526004361060335760003560e01c806340c5d315146038575b600080fd5b606160048036036020811015604c57600080fd5b81019080803590602001909291905050506063565b005b5056fea2646970667358221220532c42eeb405bf2ff3d461928de335cb2c41659bee9b01935cd59157dfbe282164736f6c63430007060033",
  "linkReferences": {},
  "deployedLinkReferences": {}
}