{
  "_format": "hh-sol-artifact-1",
  "contractName": "ERC721BurnableMock",
  "sourceName": "contracts/mocks/token/ERC721/ERC721BurnableMock.sol",
  "abi": [
    {
      "inputs": [],
      "stateMutability": "nonpayable",
      "type": "constructor"
    },
    {
      "anonymous": false,
      "inputs": [
        {
          "indexed": true,
          "internalType": "address",
          "name": "_owner",
          "type": "address"
        },
        {
          "indexed": true,
          "internalType": "address",
          "name": "_approved",
          "type": "address"
        },
        {
          "indexed": true,
          "internalType": "uint256",
          "name": "_tokenId",
          "type": "uint256"
        }
      ],
      "name": "Approval",
      "type": "event"
    },
    {
      "anonymous": false,
      "inputs": [
        {
          "indexed": true,
          "internalType": "address",
          "name": "_owner",
          "type": "address"
        },
        {
          "indexed": true,
          "internalType": "address",
          "name": "_operator",
          "type": "address"
        },
        {
          "indexed": false,
          "internalType": "bool",
          "name": "_approved",
          "type": "bool"
        }
      ],
      "name": "ApprovalForAll",
      "type": "event"
    },
    {
      "anonymous": false,
      "inputs": [
        {
          "indexed": false,
          "internalType": "string",
          "name": "baseMetadataURI",
          "type": "string"
        }
      ],
      "name": "BaseMetadataURISet",
      "type": "event"
    },
    {
      "anonymous": false,
      "inputs": [
        {
          "indexed": true,
          "internalType": "address",
          "name": "account",
          "type": "address"
        }
      ],
      "name": "MinterAdded",
      "type": "event"
    },
    {
      "anonymous": false,
      "inputs": [
        {
          "indexed": true,
          "internalType": "address",
          "name": "account",
          "type": "address"
        }
      ],
      "name": "MinterRemoved",
      "type": "event"
    },
    {
      "anonymous": false,
      "inputs": [
        {
          "indexed": true,
          "internalType": "address",
          "name": "previousOwner",
          "type": "address"
        },
        {
          "indexed": true,
          "internalType": "address",
          "name": "newOwner",
          "type": "address"
        }
      ],
      "name": "OwnershipTransferred",
      "type": "event"
    },
    {
      "anonymous": false,
      "inputs": [
        {
          "indexed": true,
          "internalType": "address",
          "name": "_from",
          "type": "address"
        },
        {
          "indexed": true,
          "internalType": "address",
          "name": "_to",
          "type": "address"
        },
        {
          "indexed": true,
          "internalType": "uint256",
          "name": "_tokenId",
          "type": "uint256"
        }
      ],
      "name": "Transfer",
      "type": "event"
    },
    {
      "inputs": [
        {
          "internalType": "address",
          "name": "account",
          "type": "address"
        }
      ],
      "name": "addMinter",
      "outputs": [],
      "stateMutability": "nonpayable",
      "type": "function"
    },
    {
      "inputs": [
        {
          "internalType": "address",
          "name": "to",
          "type": "address"
        },
        {
          "internalType": "uint256",
          "name": "tokenId",
          "type": "uint256"
        }
      ],
      "name": "approve",
      "outputs": [],
      "stateMutability": "nonpayable",
      "type": "function"
    },
    {
      "inputs": [
        {
          "internalType": "address",
          "name": "owner",
          "type": "address"
        }
      ],
      "name": "balanceOf",
      "outputs": [
        {
          "internalType": "uint256",
          "name": "",
          "type": "uint256"
        }
      ],
      "stateMutability": "view",
      "type": "function"
    },
    {
      "inputs": [],
      "name": "baseMetadataURI",
      "outputs": [
        {
          "internalType": "string",
          "name": "",
          "type": "string"
        }
      ],
      "stateMutability": "view",
      "type": "function"
    },
    {
      "inputs": [
        {
          "internalType": "address",
          "name": "from",
          "type": "address"
        },
        {
          "internalType": "uint256[]",
          "name": "tokenIds",
          "type": "uint256[]"
        }
      ],
      "name": "batchBurnFrom",
      "outputs": [],
      "stateMutability": "nonpayable",
      "type": "function"
    },
    {
      "inputs": [
        {
          "internalType": "address",
          "name": "to",
          "type": "address"
        },
        {
          "internalType": "uint256[]",
          "name": "nftIds",
          "type": "uint256[]"
        }
      ],
      "name": "batchMint",
      "outputs": [],
      "stateMutability": "nonpayable",
      "type": "function"
    },
    {
      "inputs": [
        {
          "internalType": "address",
          "name": "from",
          "type": "address"
        },
        {
          "internalType": "address",
          "name": "to",
          "type": "address"
        },
        {
          "internalType": "uint256[]",
          "name": "tokenIds",
          "type": "uint256[]"
        }
      ],
      "name": "batchTransferFrom",
      "outputs": [],
      "stateMutability": "nonpayable",
      "type": "function"
    },
    {
      "inputs": [
        {
          "internalType": "address",
          "name": "from",
          "type": "address"
        },
        {
          "internalType": "uint256",
          "name": "tokenId",
          "type": "uint256"
        }
      ],
      "name": "burnFrom",
      "outputs": [],
      "stateMutability": "nonpayable",
      "type": "function"
    },
    {
      "inputs": [
        {
          "internalType": "bytes32",
          "name": "c__0x0324e2ad",
          "type": "bytes32"
        }
      ],
      "name": "c_0x0324e2ad",
      "outputs": [],
      "stateMutability": "pure",
      "type": "function"
    },
    {
      "inputs": [
        {
          "internalType": "bytes32",
          "name": "c__0x31017afb",
          "type": "bytes32"
        }
      ],
      "name": "c_0x31017afb",
      "outputs": [],
      "stateMutability": "pure",
      "type": "function"
    },
    {
      "inputs": [
        {
          "internalType": "bytes32",
          "name": "c__0x53d96c90",
          "type": "bytes32"
        }
      ],
      "name": "c_0x53d96c90",
      "outputs": [],
      "stateMutability": "pure",
      "type": "function"
    },
    {
      "inputs": [
        {
          "internalType": "bytes32",
          "name": "c__0x9e16b403",
          "type": "bytes32"
        }
      ],
      "name": "c_0x9e16b403",
      "outputs": [],
      "stateMutability": "pure",
      "type": "function"
    },
    {
      "inputs": [
        {
          "internalType": "uint256",
          "name": "tokenId",
          "type": "uint256"
        }
      ],
      "name": "getApproved",
      "outputs": [
        {
          "internalType": "address",
          "name": "",
          "type": "address"
        }
      ],
      "stateMutability": "view",
      "type": "function"
    },
    {
      "inputs": [
        {
          "internalType": "address",
          "name": "owner",
          "type": "address"
        },
        {
          "internalType": "address",
          "name": "operator",
          "type": "address"
        }
      ],
      "name": "isApprovedForAll",
      "outputs": [
        {
          "internalType": "bool",
          "name": "",
          "type": "bool"
        }
      ],
      "stateMutability": "view",
      "type": "function"
    },
    {
      "inputs": [
        {
          "internalType": "address",
          "name": "",
          "type": "address"
        }
      ],
      "name": "isMinter",
      "outputs": [
        {
          "internalType": "bool",
          "name": "",
          "type": "bool"
        }
      ],
      "stateMutability": "view",
      "type": "function"
    },
    {
      "inputs": [
        {
          "internalType": "address",
          "name": "to",
          "type": "address"
        },
        {
          "internalType": "uint256",
          "name": "nftId",
          "type": "uint256"
        }
      ],
      "name": "mint",
      "outputs": [],
      "stateMutability": "nonpayable",
      "type": "function"
    },
    {
      "inputs": [],
      "name": "name",
      "outputs": [
        {
          "internalType": "string",
          "name": "",
          "type": "string"
        }
      ],
      "stateMutability": "view",
      "type": "function"
    },
    {
      "inputs": [],
      "name": "owner",
      "outputs": [
        {
          "internalType": "address",
          "name": "",
          "type": "address"
        }
      ],
      "stateMutability": "view",
      "type": "function"
    },
    {
      "inputs": [
        {
          "internalType": "uint256",
          "name": "tokenId",
          "type": "uint256"
        }
      ],
      "name": "ownerOf",
      "outputs": [
        {
          "internalType": "address",
          "name": "",
          "type": "address"
        }
      ],
      "stateMutability": "view",
      "type": "function"
    },
    {
      "inputs": [],
      "name": "renounceMinter",
      "outputs": [],
      "stateMutability": "nonpayable",
      "type": "function"
    },
    {
      "inputs": [
        {
          "internalType": "address",
          "name": "to",
          "type": "address"
        },
        {
          "internalType": "uint256",
          "name": "nftId",
          "type": "uint256"
        },
        {
          "internalType": "bytes",
          "name": "data",
          "type": "bytes"
        }
      ],
      "name": "safeMint",
      "outputs": [],
      "stateMutability": "nonpayable",
      "type": "function"
    },
    {
      "inputs": [
        {
          "internalType": "address",
          "name": "from",
          "type": "address"
        },
        {
          "internalType": "address",
          "name": "to",
          "type": "address"
        },
        {
          "internalType": "uint256",
          "name": "tokenId",
          "type": "uint256"
        }
      ],
      "name": "safeTransferFrom",
      "outputs": [],
      "stateMutability": "nonpayable",
      "type": "function"
    },
    {
      "inputs": [
        {
          "internalType": "address",
          "name": "from",
          "type": "address"
        },
        {
          "internalType": "address",
          "name": "to",
          "type": "address"
        },
        {
          "internalType": "uint256",
          "name": "tokenId",
          "type": "uint256"
        },
        {
          "internalType": "bytes",
          "name": "data",
          "type": "bytes"
        }
      ],
      "name": "safeTransferFrom",
      "outputs": [],
      "stateMutability": "nonpayable",
      "type": "function"
    },
    {
      "inputs": [
        {
          "internalType": "address",
          "name": "operator",
          "type": "address"
        },
        {
          "internalType": "bool",
          "name": "approved",
          "type": "bool"
        }
      ],
      "name": "setApprovalForAll",
      "outputs": [],
      "stateMutability": "nonpayable",
      "type": "function"
    },
    {
      "inputs": [
        {
          "internalType": "string",
          "name": "baseMetadataURI_",
          "type": "string"
        }
      ],
      "name": "setBaseMetadataURI",
      "outputs": [],
      "stateMutability": "nonpayable",
      "type": "function"
    },
    {
      "inputs": [
        {
          "internalType": "bytes4",
          "name": "interfaceId",
          "type": "bytes4"
        }
      ],
      "name": "supportsInterface",
      "outputs": [
        {
          "internalType": "bool",
          "name": "",
          "type": "bool"
        }
      ],
      "stateMutability": "view",
      "type": "function"
    },
    {
      "inputs": [],
      "name": "symbol",
      "outputs": [
        {
          "internalType": "string",
          "name": "",
          "type": "string"
        }
      ],
      "stateMutability": "view",
      "type": "function"
    },
    {
      "inputs": [
        {
          "internalType": "uint256",
          "name": "nftId",
          "type": "uint256"
        }
      ],
      "name": "tokenURI",
      "outputs": [
        {
          "internalType": "string",
          "name": "",
          "type": "string"
        }
      ],
      "stateMutability": "view",
      "type": "function"
    },
    {
      "inputs": [
        {
          "internalType": "address",
          "name": "from",
          "type": "address"
        },
        {
          "internalType": "address",
          "name": "to",
          "type": "address"
        },
        {
          "internalType": "uint256",
          "name": "tokenId",
          "type": "uint256"
        }
      ],
      "name": "transferFrom",
      "outputs": [],
      "stateMutability": "nonpayable",
      "type": "function"
    },
    {
      "inputs": [
        {
          "internalType": "address",
          "name": "newOwner",
          "type": "address"
        }
      ],
      "name": "transferOwnership",
      "outputs": [],
      "stateMutability": "nonpayable",
      "type": "function"
    }
  ],
  "bytecode": "0x60806040523480156200001157600080fd5b5033806040518060400160405280601281526020017f4552433732314275726e61626c654d6f636b00000000000000000000000000008152506040518060400160405280600581526020017f4537323142000000000000000000000000000000000000000000000000000000815250620000b47f01898fb7433591365e7a64882867494581ef247344be82e4d412af24ddf9960960001b620002a160201b60201c565b620000e87f4ef619e81fabde8cf4746c63609d874edf10b12f61c276fe60e39f565095dae160001b620002a160201b60201c565b6200011c7f62e6606ba85be94fa9f45109a47ad2b8a2bb1fa137357061d90d6031c895cbb960001b620002a160201b60201c565b81600090805190602001906200013492919062000345565b50620001697fbfd7910be684f73c37ca62b6b0ef5e4626ade6b106deddbf36f834a5c8f4743760001b620002a160201b60201c565b6200019d7f5fc8158f1632154c5af67da401071375883998180fa777d13ef88863061505b560001b620002a160201b60201c565b8060019080519060200190620001b592919062000345565b50505080600660006101000a81548173ffffffffffffffffffffffffffffffffffffffff021916908373ffffffffffffffffffffffffffffffffffffffff1602179055508073ffffffffffffffffffffffffffffffffffffffff16600073ffffffffffffffffffffffffffffffffffffffff167f8be0079c531659141344cd1fd0a4f28419497f9722a3daafe3b4186f6b6457e060405160405180910390a3506200026681620002a460201b60201c565b506200029b7f0784bd6a5d70356130090054c9c1cf273c699e9c392f5f0259a34b3dea4af50160001b6200034260201b60201c565b620003fb565b50565b6001600860008373ffffffffffffffffffffffffffffffffffffffff1673ffffffffffffffffffffffffffffffffffffffff16815260200190815260200160002060006101000a81548160ff0219169083151502179055508073ffffffffffffffffffffffffffffffffffffffff167f6ae172837ea30b801fbfcdd4108aa1d5bf8ff775444fd70256b44e6bf3dfc3f660405160405180910390a250565b50565b828054600181600116156101000203166002900490600052602060002090601f0160209004810192826200037d5760008555620003c9565b82601f106200039857805160ff1916838001178555620003c9565b82800160010185558215620003c9579182015b82811115620003c8578251825591602001919060010190620003ab565b5b509050620003d89190620003dc565b5090565b5b80821115620003f7576000816000905550600101620003dd565b5090565b616849806200040b6000396000f3fe608060405234801561001057600080fd5b50600436106101da5760003560e01c80638832e6e311610104578063b88d4fde116100a2578063e985e9c511610071578063e985e9c514610c5f578063f247296514610cd9578063f2fde38b14610db1578063f3993d1114610df5576101da565b8063b88d4fde14610a57578063c0005ea514610b5c578063c87b56dd14610b8a578063d719307214610c31576101da565b8063983b2d56116100de578063983b2d561461095f57806398650275146109a3578063a22cb465146109ad578063aa271e1a146109fd576101da565b80638832e6e3146107c35780638da5cb5b146108a857806395d89b41146108dc576101da565b80634684d7e91161017c578063688f4f081161014b578063688f4f081461067657806370a08231146106a457806379cc6790146106fc5780637e518ec81461074a576101da565b80634684d7e9146104955780634de67cb91461056d5780635b2bd79e1461059b5780636352211e1461061e576101da565b8063095ea7b3116101b8578063095ea7b31461031d57806323b872dd1461036b57806340c10f19146103d957806342842e0e14610427576101da565b806301ffc9a7146101df57806306fdde0314610242578063081812fc146102c5575b600080fd5b61022a600480360360208110156101f557600080fd5b8101908080357bffffffffffffffffffffffffffffffffffffffffffffffffffffffff19169060200190929190505050610eed565b60405180821515815260200191505060405180910390f35b61024a610feb565b6040518080602001828103825283818151815260200191508051906020019080838360005b8381101561028a57808201518184015260208101905061026f565b50505050905090810190601f1680156102b75780820380516001836020036101000a031916815260200191505b509250505060405180910390f35b6102f1600480360360208110156102db57600080fd5b8101908080359060200190929190505050611111565b604051808273ffffffffffffffffffffffffffffffffffffffff16815260200191505060405180910390f35b6103696004803603604081101561033357600080fd5b81019080803573ffffffffffffffffffffffffffffffffffffffff169060200190929190803590602001909291905050506114c8565b005b6103d76004803603606081101561038157600080fd5b81019080803573ffffffffffffffffffffffffffffffffffffffff169060200190929190803573ffffffffffffffffffffffffffffffffffffffff169060200190929190803590602001909291905050506119dd565b005b610425600480360360408110156103ef57600080fd5b81019080803573ffffffffffffffffffffffffffffffffffffffff16906020019092919080359060200190929190505050611a83565b005b6104936004803603606081101561043d57600080fd5b81019080803573ffffffffffffffffffffffffffffffffffffffff169060200190929190803573ffffffffffffffffffffffffffffffffffffffff16906020019092919080359060200190929190505050611b8f565b005b61056b600480360360408110156104ab57600080fd5b81019080803573ffffffffffffffffffffffffffffffffffffffff169060200190929190803590602001906401000000008111156104e857600080fd5b8201836020820111156104fa57600080fd5b8035906020019184602083028401116401000000008311171561051c57600080fd5b919080806020026020016040519081016040528093929190818152602001838360200280828437600081840152601f19601f820116905080830192505050505050509192919290505050611c35565b005b6105996004803603602081101561058357600080fd5b8101908080359060200190929190505050611d2f565b005b6105a3611d32565b6040518080602001828103825283818151815260200191508051906020019080838360005b838110156105e35780820151818401526020810190506105c8565b50505050905090810190601f1680156106105780820380516001836020036101000a031916815260200191505b509250505060405180910390f35b61064a6004803603602081101561063457600080fd5b8101908080359060200190929190505050611dd0565b604051808273ffffffffffffffffffffffffffffffffffffffff16815260200191505060405180910390f35b6106a26004803603602081101561068c57600080fd5b8101908080359060200190929190505050612022565b005b6106e6600480360360208110156106ba57600080fd5b81019080803573ffffffffffffffffffffffffffffffffffffffff169060200190929190505050612025565b6040518082815260200191505060405180910390f35b6107486004803603604081101561071257600080fd5b81019080803573ffffffffffffffffffffffffffffffffffffffff16906020019092919080359060200190929190505050612245565b005b6107c16004803603602081101561076057600080fd5b810190808035906020019064010000000081111561077d57600080fd5b82018360208201111561078f57600080fd5b803590602001918460018302840111640100000000831117156107b157600080fd5b909192939192939050505061245a565b005b6108a6600480360360608110156107d957600080fd5b81019080803573ffffffffffffffffffffffffffffffffffffffff169060200190929190803590602001909291908035906020019064010000000081111561082057600080fd5b82018360208201111561083257600080fd5b8035906020019184600183028401116401000000008311171561085457600080fd5b91908080601f016020809104026020016040519081016040528093929190818152602001838380828437600081840152601f19601f820116905080830192505050505050509192919290505050612617565b005b6108b0612715565b604051808273ffffffffffffffffffffffffffffffffffffffff16815260200191505060405180910390f35b6108e461273f565b6040518080602001828103825283818151815260200191508051906020019080838360005b83811015610924578082015181840152602081019050610909565b50505050905090810190601f1680156109515780820380516001836020036101000a031916815260200191505b509250505060405180910390f35b6109a16004803603602081101561097557600080fd5b81019080803573ffffffffffffffffffffffffffffffffffffffff169060200190929190505050612865565b005b6109ab612881565b005b6109fb600480360360408110156109c357600080fd5b81019080803573ffffffffffffffffffffffffffffffffffffffff169060200190929190803515159060200190929190505050612934565b005b610a3f60048036036020811015610a1357600080fd5b81019080803573ffffffffffffffffffffffffffffffffffffffff169060200190929190505050612cc6565b60405180821515815260200191505060405180910390f35b610b5a60048036036080811015610a6d57600080fd5b81019080803573ffffffffffffffffffffffffffffffffffffffff169060200190929190803573ffffffffffffffffffffffffffffffffffffffff1690602001909291908035906020019092919080359060200190640100000000811115610ad457600080fd5b820183602082011115610ae657600080fd5b80359060200191846001830284011164010000000083111715610b0857600080fd5b91908080601f016020809104026020016040519081016040528093929190818152602001838380828437600081840152601f19601f820116905080830192505050505050509192919290505050612ce6565b005b610b8860048036036020811015610b7257600080fd5b8101908080359060200190929190505050612d7e565b005b610bb660048036036020811015610ba057600080fd5b8101908080359060200190929190505050612d81565b6040518080602001828103825283818151815260200191508051906020019080838360005b83811015610bf6578082015181840152602081019050610bdb565b50505050905090810190601f168015610c235780820380516001836020036101000a031916815260200191505b509250505060405180910390f35b610c5d60048036036020811015610c4757600080fd5b8101908080359060200190929190505050612f7d565b005b610cc160048036036040811015610c7557600080fd5b81019080803573ffffffffffffffffffffffffffffffffffffffff169060200190929190803573ffffffffffffffffffffffffffffffffffffffff169060200190929190505050612f80565b60405180821515815260200191505060405180910390f35b610daf60048036036040811015610cef57600080fd5b81019080803573ffffffffffffffffffffffffffffffffffffffff16906020019092919080359060200190640100000000811115610d2c57600080fd5b820183602082011115610d3e57600080fd5b80359060200191846020830284011164010000000083111715610d6057600080fd5b919080806020026020016040519081016040528093929190818152602001838360200280828437600081840152601f19601f820116905080830192505050505050509192919290505050613098565b005b610df360048036036020811015610dc757600080fd5b81019080803573ffffffffffffffffffffffffffffffffffffffff16906020019092919050505061354e565b005b610eeb60048036036060811015610e0b57600080fd5b81019080803573ffffffffffffffffffffffffffffffffffffffff169060200190929190803573ffffffffffffffffffffffffffffffffffffffff16906020019092919080359060200190640100000000811115610e6857600080fd5b820183602082011115610e7a57600080fd5b80359060200191846020830284011164010000000083111715610e9c57600080fd5b919080806020026020016040519081016040528093929190818152602001838360200280828437600081840152601f19601f82011690508083019250505050505050919291929050505061361e565b005b6000610f1b7f91af3ecd656d490e29267a4f3cc0b3e4a9814c9ce2878c689961af8a6ba228dc60001b612022565b610f477f072f5913235528ea3a6ff90ad33bb0ead58cb2356cb6c0d8d6d9da292ba976a860001b612022565b610f737f3bd80110425e0bed08022b355cdc95fd96d63f357b1138baa389ef848cb003c260001b612022565b7f8b8b4ef5000000000000000000000000000000000000000000000000000000007bffffffffffffffffffffffffffffffffffffffffffffffffffffffff1916827bffffffffffffffffffffffffffffffffffffffffffffffffffffffff19161480610fe45750610fe382613be6565b5b9050919050565b60606110197f8e6cb8cae5a8d818bb03ce0c7dd2c401496f24f5852d30a5707021ccd06b90a860001b612d7e565b6110457f13af1f94f4609d9afe83e89503d1a28971d946ab390d65d09757805f374cef8760001b612d7e565b6110717f4b636376805baf119e8c631357afe9d4263da6ffd31f603642a3ba813cefe1c160001b612d7e565b60008054600181600116156101000203166002900480601f0160208091040260200160405190810160405280929190818152602001828054600181600116156101000203166002900480156111075780601f106110dc57610100808354040283529160200191611107565b820191906000526020600020905b8154815290600101906020018083116110ea57829003601f168201915b5050505050905090565b600061113f7f8181d8916208769f6b5840b6e587846ae3073a51225d29dda74075d73ef36d9d60001b612d7e565b61116b7f934f904934f4b1696378aed6330d9fc24c79ef4c38c2742cf1ad328f7f2528b160001b612d7e565b6111977fe97bb7da92c807f54a8a1eda89a6b44ab169fc5915bf5df157402eed0c2170f460001b612d7e565b6000600360008481526020019081526020016000205490506111db7f43933368b2ff3a9bb4fea8466f4a74c2ae5a70fc79cc867048eea7c212e3366060001b612d7e565b6112077f5ece2d4f54668499ef94581db2f5f3dc35f3c07ebbdf8877ad8da743137b72e260001b612d7e565b6112337f7e0d8d76fe87b52c71bf121fc400eefcad8504d092d49a8db66e65e6415b80e760001b612d7e565b600073ffffffffffffffffffffffffffffffffffffffff168173ffffffffffffffffffffffffffffffffffffffff1614156112d6576040517f08c379a00000000000000000000000000000000000000000000000000000000081526004018080602001828103825260188152602001807f4552433732313a206e6f6e2d6578697374696e67204e4654000000000000000081525060200191505060405180910390fd5b6113027ffed529393ef74fbd61d531692c7bf7d0f16506352e43af96782403c95a58cf6f60001b612d7e565b61132e7f71057fa8ca8b6252bd517fbaf01be8b9c77d489b879c24c3084f5b6a61f0b18860001b612d7e565b61135a7f2e9be08bec619e701f837a0213f47d19498ebfb074a040280233f0bead19a85a60001b612d7e565b600074010000000000000000000000000000000000000000821614611439576113a57f1e21e04167e924680b843932f4917f87e4886bfaead3695075d1cab0f0accfb360001b612d7e565b6113d17f14880d718ec632784c8abc598e76c248c77b489f826729f2f06932261f6091ed60001b612d7e565b6113fd7fe78973a01e73856171830b3b3b2e33bc5b8e25fff1767994e78a8020b0d6198f60001b612d7e565b6005600084815260200190815260200160002060009054906101000a900473ffffffffffffffffffffffffffffffffffffffff169150506114c3565b6114657fe4b9230e21905331a9493e1169e8a1539eb7ab99e624c3187992a5058073277160001b612d7e565b6114917f8103402c01116b85a335e3df5d954e50072e2f2a6842731eb67061746b36607f60001b612d7e565b6114bd7f14d219a0fe93c3b04d1d981b265ca34ca420c935a5934a4eb49aafc9a7a939d360001b612d7e565b60009150505b919050565b6114f47f6e082fc0d92c9b46a440d73dd849ae08aee10532d5a7f643f20629f775e7e95460001b612d7e565b6115207f2fb997aa37d65928c4e67d4ab892523ea0a92a4612ad3ee16e4faa8452721c1460001b612d7e565b61154c7f410d1ba801bd346bacad2432f74797c66f7ff2780a4486db06e39fb26af8c1c460001b612d7e565b600061155782611dd0565b90506115857fa0045e7c992afc25b81a2ca5fb91e3288c737fe784c06aaa92affdcd9e6ed69e60001b612d7e565b6115b17f84242c1853bcfc740211ff608f807dfe9480a02fe6c2646421db82cbce06a8d360001b612d7e565b6115dd7f2c6ca026b621f1bf2b0b2217aa901db145a6029b3a56dd0bbc6501c8c8b5385b60001b612d7e565b8073ffffffffffffffffffffffffffffffffffffffff168373ffffffffffffffffffffffffffffffffffffffff16141561167f576040517f08c379a00000000000000000000000000000000000000000000000000000000081526004018080602001828103825260158152602001807f4552433732313a2073656c662d617070726f76616c000000000000000000000081525060200191505060405180910390fd5b6116ab7f718610efd098aa9f2803049fe5b4c555798cbbcf5fb77df343e57bbb558f9dbd60001b612d7e565b6116d77fa6870cce89b61e1883968c7abfe821a86909db64e94ba73dd0b596e9894565c560001b612d7e565b6117037f5cfac01b070831c396d29f04c2ec9d4d24acfb5ba501cab8fc6a7ef050610e9960001b612d7e565b61172f7f23e5f8e3a7ebf33598813c7a19e44855870a74b7be8bbbd78fc815d58fc8e7bc60001b612d7e565b6117408161173b613e0c565b613e14565b6117b2576040517f08c379a000000000000000000000000000000000000000000000000000000000815260040180806020018281038252601b8152602001807f4552433732313a206e6f6e2d617070726f7665642073656e646572000000000081525060200191505060405180910390fd5b6117de7f4694bf8adbb30f2a146d05fc206e73bfae43c7e7aa668ea42e3f2d881c1a149660001b612d7e565b61180a7f079fb872ee8844c666df263c9e6eaa6882dddf61eb26e709961a5f7b91d872a460001b612d7e565b6118367fa1f81d214ad1845a43ce797dad3815933e9442d19a516be793f939f4c564c0bc60001b612d7e565b740100000000000000000000000000000000000000008173ffffffffffffffffffffffffffffffffffffffff161760036000848152602001908152602001600020819055506118a77f48c9f03eb80c088ca58be40428ff6b819c4aa0a1665e4d74d2f72e9a3ebb471760001b612d7e565b6118d37f1b8c2034cb1243a3b1254f1f8afe084c22e3532389a71329ee0a11358a844b0860001b612d7e565b826005600084815260200190815260200160002060006101000a81548173ffffffffffffffffffffffffffffffffffffffff021916908373ffffffffffffffffffffffffffffffffffffffff1602179055506119517fd2c1105d65b014e3035b4bb5f2b41b1ee0dd84007583c7eb2408a30353b0b0b560001b612d7e565b61197d7f80dce22c466eee2cbb3e1fe2370eee2c9e6d66b2d6055ca7140610f381e7a5b660001b612d7e565b818373ffffffffffffffffffffffffffffffffffffffff168273ffffffffffffffffffffffffffffffffffffffff167f8c5be1e5ebec7d5bd14f71427d1e84f3dd0314c0f7b2291e5b200ac8c7c3b92560405160405180910390a4505050565b611a097fb324545a940fc0e21ef3a1c40f5d81463e20e77c227a0738b173794d0cd935fb60001b612d7e565b611a357faffe118f3dadad94ac8b2bb002c8cbc9b388dc85bd0a8b500560525c514584a160001b612d7e565b611a617fc6edc849176e3e184f714602bb167e518b2d6d0fb74f6b1f00204668ee16379960001b612d7e565b611a7e838383604051806020016040528060008152506000613f62565b505050565b611aaf7fbae026cf316caf64d5e7ffc5b04b93263cf4def40ac425015b6c4635fffcdc2b60001b612f7d565b611adb7fe421ab2533291e9ffa4bd180abaa7e5d28f4589b7bdffef4ee9a5d5a36a79d8460001b612f7d565b611b077f7edb0a98f8819fc7c47f19455113693735b7b1ff6c4a11019293cc46e189a76760001b612f7d565b611b17611b12613e0c565b614414565b611b437f897c4cfd1d2e4fae3a575a83ee52fe122b6ddcd09173b8d1e9d595325f94db2160001b612f7d565b611b6f7fe69f159da54a9f1dca5a108bede8f534f51750668466a1626b8a1ae927c3933560001b612f7d565b611b8b82826040518060200160405280600081525060006144d6565b5050565b611bbb7f8471bad425ef9f4ff8638e90da6fd875f0c950a3b0142f4fe73f432ef85fd58460001b612d7e565b611be77f93f22fb900ba62c69ad3a895c0a85ecdf300659ca4847557136fd3791865c7e460001b612d7e565b611c137f05fba6bd0e84c73ae14d51d431787715d59fe5a193dfd2673d7e06e0e3b73a2860001b612d7e565b611c30838383604051806020016040528060008152506001613f62565b505050565b611c617f30431e91277e48b49946a9b953a1a631988a24b37469cfb881a274c4bee393c160001b612f7d565b611c8d7f7d5d36dafc23c401b2028cd0e6c67706fdb3caece9431821fd194f84da52ca8a60001b612f7d565b611cb97f180bed08a98556f4b3bffa67e6a31038e9d808ac1a8496ec7d6eaeeeb3cdb31a60001b612f7d565b611cc9611cc4613e0c565b614414565b611cf57f6104f44e1e5429e06fec1a52d57306eba0531ce0f824fd9192ceefff3c86db7460001b612f7d565b611d217fc267e7eab817f6c7fd68d12c802fba3504862a05faaebb9c15b9ced44ee1fc1160001b612f7d565b611d2b82826148bb565b5050565b50565b60078054600181600116156101000203166002900480601f016020809104026020016040519081016040528092919081815260200182805460018160011615610100020316600290048015611dc85780601f10611d9d57610100808354040283529160200191611dc8565b820191906000526020600020905b815481529060010190602001808311611dab57829003601f168201915b505050505081565b6000611dfe7f0cfd96c3c0c17341c5c77dc3e8027a9abe738dd44afa7ff01707e13f2411e50560001b612d7e565b611e2a7f16de8774825683300023bfd773edd90821b24e251b273bc428a7c219d9a2cac060001b612d7e565b611e567fd10b58ecfb807c727afb9a8d74e180670d16c5e819be223987452024421f61e060001b612d7e565b600060036000848152602001908152602001600020549050611e9a7ff669280242595b094623cfa81e882ce09712251c7897ae68f8328aad843d8e0d60001b612d7e565b611ec67f1cf23b91469f444dac369d56a8bd9402b0b93372781eadb18bedf4df15388b0660001b612d7e565b611ef27f32acdfba7daf7ec41b754e3ad21716b50e57b85335c82f80d7e75af8bb634b6360001b612d7e565b600073ffffffffffffffffffffffffffffffffffffffff168173ffffffffffffffffffffffffffffffffffffffff161415611f95576040517f08c379a00000000000000000000000000000000000000000000000000000000081526004018080602001828103825260188152602001807f4552433732313a206e6f6e2d6578697374696e67204e4654000000000000000081525060200191505060405180910390fd5b611fc17f93b6dc9795ebd6cf4bb9e4978fbb9bf438f1efc7846bbda7bcc7621dd72f396b60001b612d7e565b611fed7f5f2d535d6e630ccfcab64a7a6e011549cfc41ccf429fba894d86cbb50f22825960001b612d7e565b6120197f024a791ddaa27335155ce56b19e7bc817c7fa0b7667523619a53051b00d14fed60001b612d7e565b80915050919050565b50565b60006120537f19e9021d51c599b31daaf02d3d2b3d5b7c3e35b7ffd5c0aa4379668fb669533060001b612d7e565b61207f7f92f9edd2097c365a22d2f888405653a6ed8adb03a0446bbdb670ec0bfe2b001d60001b612d7e565b6120ab7fcdff77b7ac30673d5a09e2dc48963f813a03060f878fb0dbb5b421c85b0894ee60001b612d7e565b6120d77fc22a4cee9e60bacdad7053c19619a637e070171cec23eb1d7e2ee180774be57060001b612d7e565b600073ffffffffffffffffffffffffffffffffffffffff168273ffffffffffffffffffffffffffffffffffffffff16141561217a576040517f08c379a00000000000000000000000000000000000000000000000000000000081526004018080602001828103825260148152602001807f4552433732313a207a65726f206164647265737300000000000000000000000081525060200191505060405180910390fd5b6121a67f2a40617119094dffe0a1ffb329a3180bc1eff4e875c7a65a45969c7f3c508af760001b612d7e565b6121d27fd98da5a51e6ab5e88db3c8d9b79e59b0c907950f1ddda5469ac83f21969e0a5060001b612d7e565b6121fe7fc40a3deced5fd94f3da42422bf5fbb3654332430cfddd0b51590699a66a9282060001b612d7e565b600460008373ffffffffffffffffffffffffffffffffffffffff1673ffffffffffffffffffffffffffffffffffffffff168152602001908152602001600020549050919050565b6122717f7181517df10958a8e36aa80ddfdd18dfd5ce57d02638a5a5fb527962a2b159cf60001b612022565b61229d7f2645e85f67ad76f1ed2300e04e86e0ded47635b1809e683b20c2f5a9a6b0b29060001b612022565b6122c97fb64ac8812fee4c2776cb5d0e0c3fa987379c1d1b49921eb9c8aa003edeb3da9560001b612022565b60006122d3613e0c565b90506123017f683b696c886d86ed59a04af5e0665248463374c317418726ea2ea9539142e2e660001b612022565b61232d7f6f2d3fe066309d70886d1b7f92892b91d710e5139b94f7533bbfefdbf8249c9660001b612022565b60006123398483613e14565b90506123677ff6bf48a1bfa2ba476baed2c8c096beee405ab6874856c94a2583e855e12088ec60001b612022565b6123937f0ae93869f45e1ec8e9a01bc26749bd6828904ced9ffb6cf54951e22272a753bc60001b612022565b6123a08484836000614e4f565b6123cc7fa3762d0314cbced8493bca77b1b94b8450bd2b5e74a0fa564b41971080c3287360001b612022565b6123f87fb3135199caa09a87082f69c8655dbc8c02757974c2cbc542e8d9ebd47ee8b7bb60001b612022565b82600073ffffffffffffffffffffffffffffffffffffffff168573ffffffffffffffffffffffffffffffffffffffff167fddf252ad1be2c89b69c2b068fc378daa952ba7f163c4a11628f55a4df523b3ef60405160405180910390a450505050565b6124867f7a798900079f8abfec5d8e2dbe01957da86924048545474d2e8cc4455ff9b8d160001b611d2f565b6124b27fe5e96d6f82b06fe1194e47d7e09774604275383795b69bf66729b57c43f3a68160001b611d2f565b6124de7f1bab262e01d292ebc7268f0af663a93ea4cfca3b15a21a9bd3b88ed5d7a2575d60001b611d2f565b6124ee6124e9613e0c565b615472565b61251a7f889c29d91f479e9e5ea327b67cd360470392306bab96df204f280c7db9ea52ed60001b611d2f565b6125467fe36810d14b53a066d2911963f7e0dcf3b24615a7ccdad7d1cdfb9eb2a23f966360001b611d2f565b818160079190612557929190616768565b506125847ff608c0d0ece8312aa6b4686eba824834606e1e579f33a0c28b1a959db81b457060001b611d2f565b6125b07f0266515aefe9459e801de01c95b7c8eb072550f55c42ed42ab0afeccf3e2ab7760001b611d2f565b7f04b1dc5c136a3ce9fded8db0ce3d3366c58764ec3a8e4c2b9e52e4ddfe5ebbf7828260405180806020018281038252848482818152602001925080828437600081840152601f19601f820116905080830192505050935050505060405180910390a15050565b6126437f8b84d7edb59ab4cc23aa668abc06c1f18079fb922fe382c35dd58d7c5a31b4b360001b612f7d565b61266f7f7aa4f9cbe22096cfdcb9f05d75c5ee96f63dd8480cb469496f6e429fbb314e2260001b612f7d565b61269b7fe544474e67ed93c3d943d1e2710d13556908b0d4339d67be6efd7aef48e6849360001b612f7d565b6126ab6126a6613e0c565b614414565b6126d77f9fed4fec05410039a4896e514296870d0d0fcf5822312a5562a21d160d14878560001b612f7d565b6127037f631be5585f26e7d56a289bfd6fb1216cb12b760eee06c46e6c63f0647450c12360001b612f7d565b61271083838360016144d6565b505050565b6000600660009054906101000a900473ffffffffffffffffffffffffffffffffffffffff16905090565b606061276d7faacaad39fb4f8600f3baac4766003d8700f4adc8ec305615b5142f25d0ec99fa60001b612d7e565b6127997f26c390e37498002c9c8c7bea7d16a54e7fd2e98d5ade41e5158dac8a8095792760001b612d7e565b6127c57f2e2e344b9fe4f40da6b3bc98c1878e6e7eee6eb70582d3827fb5e5aef1bc317e60001b612d7e565b60018054600181600116156101000203166002900480601f01602080910402602001604051908101604052809291908181526020018280546001816001161561010002031660029004801561285b5780601f106128305761010080835404028352916020019161285b565b820191906000526020600020905b81548152906001019060200180831161283e57829003601f168201915b5050505050905090565b612875612870613e0c565b615472565b61287e81615596565b50565b600061288b613e0c565b905061289681614414565b6000600860008373ffffffffffffffffffffffffffffffffffffffff1673ffffffffffffffffffffffffffffffffffffffff16815260200190815260200160002060006101000a81548160ff0219169083151502179055508073ffffffffffffffffffffffffffffffffffffffff167fe94479a9f7e1952cc78f2d6baab678adc1b772d936c6583def489e524cb6669260405160405180910390a250565b6129607f42a1393a940f4d0fa7998226c57fe8d2b3742761f02ccd5bd70eb814216a92a560001b612d7e565b61298c7fce94e82c6b61e41492300cec4f7593fc5cc863fd04ee16d70741ab5e018091b060001b612d7e565b6129b87fff6c6bd977623fe6c11f7d7efc091987fe6c7246f6249a006dadd64b1a25ddf460001b612d7e565b60006129c2613e0c565b90506129f07f3d06490f88581cf392cb86969adc3bb22d07a2fe49787678c942538a5b95a67160001b612d7e565b612a1c7fd4980a2ff4458f0d382de545ceb9caedfd3399cbc88a3a9e7950599e7edc982460001b612d7e565b612a487f778f417ca6a030a1909b63f2078c73dd27f376e9e9dec20931edc18b2eba689160001b612d7e565b8073ffffffffffffffffffffffffffffffffffffffff168373ffffffffffffffffffffffffffffffffffffffff161415612aea576040517f08c379a00000000000000000000000000000000000000000000000000000000081526004018080602001828103825260158152602001807f4552433732313a2073656c662d617070726f76616c000000000000000000000081525060200191505060405180910390fd5b612b167f61b63ad708ac3f193a8aa794e01d7f539f5fe6c26d72fab6b7a3397a271bf92c60001b612d7e565b612b427fe0d35761a4aa8cc72bdcdd209bd6e91b3b34b36b194aafcec8c34fd28572422d60001b612d7e565b612b6e7ff4d9ac38f28005309ac4cf95d9f8a07bd317fffc1103890e7d0a83414a86481160001b612d7e565b81600260008373ffffffffffffffffffffffffffffffffffffffff1673ffffffffffffffffffffffffffffffffffffffff16815260200190815260200160002060008573ffffffffffffffffffffffffffffffffffffffff1673ffffffffffffffffffffffffffffffffffffffff16815260200190815260200160002060006101000a81548160ff021916908315150217905550612c2e7fdc62cd040341d2671357f16f560a859be87128d0f43bfd8f60d2209a0aea3d5360001b612d7e565b612c5a7f9851fb1ecdf9251c8d27ddfae425adfe7374438dfbacc05e89404848da386f1460001b612d7e565b8273ffffffffffffffffffffffffffffffffffffffff168173ffffffffffffffffffffffffffffffffffffffff167f17307eab39ab6107e8899845ad3d59bd9653f200f220920489ca2b5937696c318460405180821515815260200191505060405180910390a3505050565b60086020528060005260406000206000915054906101000a900460ff1681565b612d127f5f93121146a7985e6f10db443b6c8db67676a628a2e4652f1da108a9486cac4a60001b612d7e565b612d3e7f9d55b442f77e9fa009a22fe01d29ea332dca610d7b4778c8bad3e8fed011c79060001b612d7e565b612d6a7f3175574aa35fd05b36876ca13300c7a8826442d72c39888dfa959ea06b7c835b60001b612d7e565b612d78848484846001613f62565b50505050565b50565b6060612daf7ff97e332f4624cb19c55e4cfb99013030a54ed56eec604e65256ea5651c4c768f60001b612f7d565b612ddb7f0fa761774b8efb61f7cc58e534b807d7a11663bc15f2c2fbf835e742b949982860001b612f7d565b612e077f4ade9e6d5f308109ba7b406fb229d3effccf36ffbba6b206c05cbef99678e19760001b612f7d565b612e337f9f786c20d496dac9730a370fef0acd05e376e0c9e820e9183a48f6585c16eadd60001b612f7d565b600073ffffffffffffffffffffffffffffffffffffffff16600360008481526020019081526020016000205473ffffffffffffffffffffffffffffffffffffffff161415612ee9576040517f08c379a00000000000000000000000000000000000000000000000000000000081526004018080602001828103825260188152602001807f4552433732313a206e6f6e2d6578697374696e67204e4654000000000000000081525060200191505060405180910390fd5b612f157fab75150f59228ee54b1bc3a5cb6377122bedb7f25ec9c8ec1b587b55194e66a260001b612f7d565b612f417fca296494b71aa7589dc03a99a90d2c58f242435b6198f6b1f532677230b6e7a960001b612f7d565b612f6d7f52959ead7e0d7bbe46ebf3f798a4f336d9033503a9409df44c3a1357af07a5fc60001b612f7d565b612f7682615634565b9050919050565b50565b6000612fae7f8bfd403cdeb14985fd2a5eea57c9adf4965051adc88345886a4ba228fe5affbe60001b612d7e565b612fda7ff7eb77e025fb92301f1e8a0232e929477647f1b572afd79783a3be8285f83f5760001b612d7e565b6130067f7a9284a0c450e42f2a8f921893d58a8871917419c5de8cc3dc03426649bea52360001b612d7e565b600260008473ffffffffffffffffffffffffffffffffffffffff1673ffffffffffffffffffffffffffffffffffffffff16815260200190815260200160002060008373ffffffffffffffffffffffffffffffffffffffff1673ffffffffffffffffffffffffffffffffffffffff16815260200190815260200160002060009054906101000a900460ff16905092915050565b6130c47f8934d88f2b10ab03599d9236370cff287d5054a0ab24edf7b80fd494f77cc6c460001b612022565b6130f07fbb084d6e10f8359c6cc8caf022c3d31875bae104dd7ef629f706e7b7142689b260001b612022565b61311c7fbd425366937d9b544052360d9c662666edb1892d29c9aa34fa244da3d2a6d79460001b612022565b6000613126613e0c565b90506131547f02a318170165a814f7f51a0f9a212351f62a11f4781f9cd23e472de1ee2ea8d660001b612022565b6131807f49835256933ddf743f179f10454f96321ba0e09fc3024f3c09515a5f4dd4d4c760001b612022565b600061318c8483613e14565b90506131ba7f7db72ab87338d7008dfd2516f496aea791a4486e19dffd6b10d36914d41025b560001b612022565b6131e67fd4f832940987f4589c782500a05a50013e85ed3de3c1f3ed3983f08c467ff86860001b612022565b6000835190506132187f7fff977a9ac0a72d2b41e08eee39352897694aecb2c02936c257ea9117606abd60001b612022565b6132447fe4accdf5dccc9f9a3db7c9a21667ecdcdc76108e333246ebd58eba70d2e6f35c60001b612022565b60005b8181146133e35761327a7fb5a07ae49c60218e88bf4e76623bfa00fa35424d984ee181bc8d9a95aa7d6d6060001b612022565b6132a67ffb8c29c7deb07cbadcb2794f88910aea51d90e1c725a15a9d1820a5ea16d2bd060001b612022565b60008582815181106132b457fe5b602002602001015190506132ea7fbb6d7149f8d648552685efb2c590c471f5c9a6a71394fa37f58cf5c4f27508bb60001b612022565b6133167fc07cdbe51803eaadc538ad4bfcea07de64e408c0a3c4e3dc302255164184334660001b612022565b6133238782866001614e4f565b61334f7f4a31c9cc11a7eefc8214a2e18cdeeb6fa75b91d3648acf9573572f2db9a07fe760001b612022565b61337b7fa1eb06bac24e94ef634ed46cadc1ddeab224a837caee3fd02685f5e25cee71d460001b612022565b80600073ffffffffffffffffffffffffffffffffffffffff168873ffffffffffffffffffffffffffffffffffffffff167fddf252ad1be2c89b69c2b068fc378daa952ba7f163c4a11628f55a4df523b3ef60405160405180910390a450806001019050613247565b506134107f23670a1f6e736c85ad9f31e211e867f08f4cf4e6768fa0d16539ec61440c22d760001b612022565b61343c7f14f80ac2d24b40bf2660f59686db2ea2ff2baa642e144240fc3712e92aaca18360001b612022565b6000811461351a576134707fd662314f5b300cef6047c56d805282f3990af654dcf0d55a59c35c2b919d5c6760001b612022565b61349c7f7b113fced5b28cabb3552263a3d747c8d06e60fd6778b69d8d86b35baaab812660001b612022565b6134c87fc24aeb825a4e49bf0775d93aadd1f59554d898b5095dabc204fd68cb26354db860001b612022565b80600460008773ffffffffffffffffffffffffffffffffffffffff1673ffffffffffffffffffffffffffffffffffffffff16815260200190815260200160002060008282540392505081905550613547565b6135467f0463ac6c4a3b8e2dbf5f8cf53afbe2c20fa7b39c41f0bb5e763e8a7c2de2e48d60001b612022565b5b5050505050565b61355e613559613e0c565b615472565b80600660006101000a81548173ffffffffffffffffffffffffffffffffffffffff021916908373ffffffffffffffffffffffffffffffffffffffff1602179055508073ffffffffffffffffffffffffffffffffffffffff16600660009054906101000a900473ffffffffffffffffffffffffffffffffffffffff1673ffffffffffffffffffffffffffffffffffffffff167f8be0079c531659141344cd1fd0a4f28419497f9722a3daafe3b4186f6b6457e060405160405180910390a350565b61364a7f1d3ad214e7278e687b231f5e206e4869d9e0be0b87c7e8cdc43974fdf1267a8860001b612d7e565b6136767f07cb9dea70eead0fffd7286f47a9606c5d817f9e00a45dc2196423e942f3f6f160001b612d7e565b6136a27fffb25a86ee06ba78060bfce2b0ded5fd343d3daab0d340e350e59238cce183b060001b612d7e565b6136ce7f027787774dac5cdcc05be851d33d82d24e140816e7028fb49e1aaa404e47a76360001b612d7e565b600073ffffffffffffffffffffffffffffffffffffffff168273ffffffffffffffffffffffffffffffffffffffff161415613771576040517f08c379a00000000000000000000000000000000000000000000000000000000081526004018080602001828103825260188152602001807f4552433732313a207472616e7366657220746f207a65726f000000000000000081525060200191505060405180910390fd5b61379d7f50e7abd651525700d0c64a113e3ee70d7cbacd6935ed80469fd0e3761215962b60001b612d7e565b6137c97f99e596465d9eecde9b1f63e687bd1074b26d20539c802c02c48344e4999f653b60001b612d7e565b6137f57f180332fc556720f01a9278fab0b0bb2a781d9b2cc85fb29aa7352b14009ef83e60001b612d7e565b60006137ff613e0c565b905061382d7f563ca086db142527c958b9d9e04be64d0b295e0dd5bafd5fbafc33d9cbefc30760001b612d7e565b6138597f692b7a91fc8da899144eef5e725ea8ced8b8b2fb6826e6ca5362166255250b0360001b612d7e565b60006138658583613e14565b90506138937f36411edb9a5130c42f59eb456f94b9b435584265fefdf981e07f2655f114ff3360001b612d7e565b6138bf7fd3bab555930f0b4876c3ce616b6538d8f9ec2d328390369072d549a7f7f6bec460001b612d7e565b6000835190506138f17f49e096005496e0598b268e0d9a35f0e41ab890580d9e429b4e316a4f55968d3960001b612d7e565b61391d7fd452e44e6c988c92da7489f0762440abe637e9e5b17ed362929330e5e7ac9b0160001b612d7e565b60005b818114613abc576139537ffc06ee0888aea73536256f8e09a44f9219fd5a2dbecc8226d9ec70e7a7d9b95a60001b612d7e565b61397f7f4253c9af2b2465f14c7cd498eb65f52cc6fef17878091ade3fd4dc14a80f3a8e60001b612d7e565b600085828151811061398d57fe5b602002602001015190506139c37ffe7c8ba579dbd875d9676a53af8782b4046aa5a8ff47403ee5b45c7a7f448c9b60001b612d7e565b6139ef7f308c7e11942940f1774dd738c1247236d6c5182d02725ff4adb5020eebec78ca60001b612d7e565b6139fd888883876001615790565b613a297f92ccf81ab87f0fb7f996c8710ca29de97f6e0f98dd9350468ae915ef89f1ab5560001b612d7e565b613a557f4feb79c7fa518bdcda5e25a0a4345b669e9d3d665b17b593cda679e25e88b9c760001b612d7e565b808773ffffffffffffffffffffffffffffffffffffffff168973ffffffffffffffffffffffffffffffffffffffff167fddf252ad1be2c89b69c2b068fc378daa952ba7f163c4a11628f55a4df523b3ef60405160405180910390a450806001019050613920565b50613ae97f980ab6d0c6cc5acb5449c1b94b5897b5956fe550c263b354315a86906619f7b660001b612d7e565b613b157f398e034f9e0e494ebe60cfa84a2612ec0dfec23d4036f13e57fe4317412c3c6460001b612d7e565b60008114613bb157613b497fc5ee3182f93827ab971ee70c83d815c4092da90f2a8e5c3a533584e504dee6e560001b612d7e565b613b757f33e868bb8213224cf2b98dca07ff127b5fb2a60ff742aa0a940a0279985e5cf960001b612d7e565b613ba17f3692554aaef7cceef1e263c6be6b42d241a35df542cd96951f2fe9d0e55f7de960001b612d7e565b613bac868683615d94565b613bde565b613bdd7f685ac3522bf5dbda2f64d9e42d22fa915d18dab59bbb65371805a2dc96f863e860001b612d7e565b5b505050505050565b6000613c147f45c407258efd0b8016f9ef2fb7654239c936eacd057b727ab94152a99d2247f360001b612d7e565b613c407f5eda1d890365495bc57b7ad9df14adebf99067276c0fdfd125989bed6df1951460001b612d7e565b613c6c7f49e7002fc07fcdde6ac3535be9b02ee891191d7f536f14893f9fb124439fadc660001b612d7e565b7f01ffc9a7000000000000000000000000000000000000000000000000000000007bffffffffffffffffffffffffffffffffffffffffffffffffffffffff1916827bffffffffffffffffffffffffffffffffffffffffffffffffffffffff19161480613d3557507f80ac58cd000000000000000000000000000000000000000000000000000000007bffffffffffffffffffffffffffffffffffffffffffffffffffffffff1916827bffffffffffffffffffffffffffffffffffffffffffffffffffffffff1916145b80613d9d57507f5b5e139f000000000000000000000000000000000000000000000000000000007bffffffffffffffffffffffffffffffffffffffffffffffffffffffff1916827bffffffffffffffffffffffffffffffffffffffffffffffffffffffff1916145b80613e0557507ff3993d11000000000000000000000000000000000000000000000000000000007bffffffffffffffffffffffffffffffffffffffffffffffffffffffff1916827bffffffffffffffffffffffffffffffffffffffffffffffffffffffff1916145b9050919050565b600033905090565b6000613e427fecbb7d33e8b743c1299d3675b34090dc89a05be556c55c32cdd6cdf17d24d83e60001b612d7e565b613e6e7f74fc48aba2f2fea2f50f650ec8ad01219028d80cc49f68299c8bb65251cac3a960001b612d7e565b613e9a7faec3deb3fc912b169d21b205d13c7c9ade380f7e72218d4e9195c6443f4efdcb60001b612d7e565b8173ffffffffffffffffffffffffffffffffffffffff168373ffffffffffffffffffffffffffffffffffffffff161480613f5a5750600260008473ffffffffffffffffffffffffffffffffffffffff1673ffffffffffffffffffffffffffffffffffffffff16815260200190815260200160002060008373ffffffffffffffffffffffffffffffffffffffff1673ffffffffffffffffffffffffffffffffffffffff16815260200190815260200160002060009054906101000a900460ff165b905092915050565b613f8e7fd636b7ab9e3a568c119b4270e956e78d6a33d07fef23ba3639cd598324d0045460001b612d7e565b613fba7f357a6a9df3eb123e7c9a1ddd29ed8d4802c7a668b37a1e54a427bd9be2353b8360001b612d7e565b613fe67f42844c76402a70df5a9166be796b416cca03d87fb32d507f2502ca6574c1893360001b612d7e565b6140127f075a111b02f5f0911184e6acb0f9da4a700a65f1eb1c48b182c7370af583e0c760001b612d7e565b600073ffffffffffffffffffffffffffffffffffffffff168473ffffffffffffffffffffffffffffffffffffffff1614156140b5576040517f08c379a00000000000000000000000000000000000000000000000000000000081526004018080602001828103825260188152602001807f4552433732313a207472616e7366657220746f207a65726f000000000000000081525060200191505060405180910390fd5b6140e17fc27aff8b8febfa69c91d3f856c4ef1336836d747fe81e7f1558400f4b09583fa60001b612d7e565b61410d7f8802cd1892af57eaa136849b9f58d626f394bf4ab68e56898700b78cf652721e60001b612d7e565b6141397fa6dd3da9629fe93d3fcf0adae807d5651ca5fbe1e3035c159146fa9437d1ad9460001b612d7e565b6000614143613e0c565b90506141717f17adf1de93d7bf771855849c9c7e65a7cf3295f6059c8c1da4b847449c58377460001b612d7e565b61419d7fc5aaa0f6b80ee7147922dab33743dbc5efaf00c0aed5d245af7eb1647a1f60e160001b612d7e565b60006141a98783613e14565b90506141d77fc9de33d6c09beed38e87b523e262bff70923d2eb6fd9804d9cd30cb196bc5e6660001b612d7e565b6142037f176d16b536d21cef46887b725abc2e642fce0b2c418100c49b8a860bea1aaa6260001b612d7e565b614211878787846000615790565b61423d7f3d39126046bbf8da3df51f25b40088ede3d4ffdd0410a7cf6a236fa52d325b3960001b612d7e565b6142697f6d6808e15d6ebb4e2af0ca5ae110343449fa3c2706db3881d3231baa73384a0260001b612d7e565b848673ffffffffffffffffffffffffffffffffffffffff168873ffffffffffffffffffffffffffffffffffffffff167fddf252ad1be2c89b69c2b068fc378daa952ba7f163c4a11628f55a4df523b3ef60405160405180910390a46142f07f6f02b47dd5774c84b6706bdc8a4aebba215bd20a426d0b2c7b191e9b73ea6a4860001b612d7e565b61431c7f1c609a5751dc4c210a4412599a1c96a635560dce16784ed165f2f532c96f2d7660001b612d7e565b82801561434457506143438673ffffffffffffffffffffffffffffffffffffffff16615ff8565b5b156143de576143757f4f9df30de4c54579a39c0f4e8d37333f755322651e045f5a83c3d9b127bf433f60001b612d7e565b6143a17fdbdabf6cb4f74712a94ef47da61433c3783c57e3e585898b0b7895acf622bebb60001b612d7e565b6143cd7fb14849ad598c2859adccce1b7ec390f87d719eb6f1ada9768608a136eb8f6dc560001b612d7e565b6143d98787878761600b565b61440b565b61440a7fd7ad4f837040abec99923d29fa386f8bd0545eca110becdd1d2f7c585e4eb9f760001b612d7e565b5b50505050505050565b600860008273ffffffffffffffffffffffffffffffffffffffff1673ffffffffffffffffffffffffffffffffffffffff16815260200190815260200160002060009054906101000a900460ff166144d3576040517f08c379a00000000000000000000000000000000000000000000000000000000081526004018080602001828103825260188152602001807f4d696e746572526f6c653a206e6f742061204d696e746572000000000000000081525060200191505060405180910390fd5b50565b6145027faddc15ccc559f525dad7a31fab9a502a094a0bb73912cca8454566b8095f918160001b612d7e565b61452e7ffed5c1b517b3eed23456cf1acd64ba5530318c76b344763894d07c6a8fec907560001b612d7e565b61455a7f77b90285cb346e67ecf81412aa25fe49ed77a7ab69d4493c2209711edacf6cdc60001b612d7e565b6145867f5132852388329f490ffcd1cf8087cb4ccbcce4b7701486133d3785169363c4f460001b612d7e565b600073ffffffffffffffffffffffffffffffffffffffff168473ffffffffffffffffffffffffffffffffffffffff161415614629576040517f08c379a00000000000000000000000000000000000000000000000000000000081526004018080602001828103825260148152602001807f4552433732313a206d696e7420746f207a65726f00000000000000000000000081525060200191505060405180910390fd5b6146557f3020fb0ae57c568de08cb4e76539f61ca31e3465db43d6b47cdfff4bbd43c04a60001b612d7e565b6146817fc5fe1df01552bddd72e2c9ec678ee814819b4f0e042a7cb9d58e48fd941d5d2460001b612d7e565b6146ad7f3e9160331646e86d0f6e3c06fe0ba534afb3429b43d12e72e0e1bd5211938ab060001b612d7e565b6146b9848460006162fd565b6146e57f4d184d3520698ddc1a80417892090c95665e3de527719b9389b9376f9422b7e860001b612d7e565b6147117f7889d44b979241af573dadc64c48af4d1ba21bc25caa72b79a920b0828c8694b60001b612d7e565b828473ffffffffffffffffffffffffffffffffffffffff16600073ffffffffffffffffffffffffffffffffffffffff167fddf252ad1be2c89b69c2b068fc378daa952ba7f163c4a11628f55a4df523b3ef60405160405180910390a46147997f8a57c36bf697a19f0bd58feb6a8dd946e4362e14fc15a0f49ed346d8a3e127d660001b612d7e565b6147c57f222e80860c463e0ea5f5d42a515a95abfb06b7f45d73f6050bb8a5a8e8da30e860001b612d7e565b8080156147ed57506147ec8473ffffffffffffffffffffffffffffffffffffffff16615ff8565b5b156148885761481e7f75fd8b9dd383421cdaf0293bcdccadd3d688beaefa32db160756c73d5a13e76660001b612d7e565b61484a7f15b73afaf97d0ccf7625d02314f43c5d136f9f9391824e8939dc8847cb7aeb5560001b612d7e565b6148767f8ee4b006cae26a820645eb635adc159cb6664b90dbb15ba35ac8ad75e01e1af560001b612d7e565b614883600085858561600b565b6148b5565b6148b47f04def58dc041207ba4d0f07cde0908b12ae6843e0969d053b188b5dd2f3bf9db60001b612d7e565b5b50505050565b6148e77f9f43e8df59ce68de677be3026aa13b3f721985b454543c8696fae6174e070dd660001b612d7e565b6149137f84d6ce4a9850495d2211a38f9013fa62a60720ee748fa4018ff499d7db48ab0760001b612d7e565b61493f7f4777389553f3e49cbc5f6f0687cd2a1f1ad5a2bcf0ca2be2b644de34d7f6210a60001b612d7e565b61496b7fc525c3ac81c57ec7df2df7721fca5946272f5ea14f2e8275f237cda74de3fc6e60001b612d7e565b600073ffffffffffffffffffffffffffffffffffffffff168273ffffffffffffffffffffffffffffffffffffffff161415614a0e576040517f08c379a00000000000000000000000000000000000000000000000000000000081526004018080602001828103825260148152602001807f4552433732313a206d696e7420746f207a65726f00000000000000000000000081525060200191505060405180910390fd5b614a3a7fea8059bb8cd0ba99d8dbce997187a8857f943454506417d349d6c67dd5dbde8a60001b612d7e565b614a667fa995a46c782e2f51a25d1f9cb4d89cb4ca642b877a3c2a5936224b0f3458a47c60001b612d7e565b614a927ff3527913387aa3887810cc0f81665e8ebbac4fd3afe7b9eb872bc090c65bdc0860001b612d7e565b600081519050614ac47f8eeeff1309a653f4646eb55142b535a1d5e5ca0424f39ed8e8df74383ad3cd8860001b612d7e565b614af07f95fb7f5d7ce6c524e07794c10e245087c8053b9e08e03b47a102242db173575760001b612d7e565b60008167ffffffffffffffff81118015614b0957600080fd5b50604051908082528060200260200182016040528015614b385781602001602082028036833780820191505090505b509050614b677fc89cd174cea571cdb236a3938c5dcd24e8ad8e73777847397a5d09bc988bae5560001b612d7e565b614b937f7c8311ca155cff3f32b553993079cd98f6374165c45b93c2f7e1be0daf716c2660001b612d7e565b60005b828114614da357614bc97fa0073af5f49fb1978eabc8807be4259c82e3ade95243f41c41e23f5c1a6c8b4c60001b612d7e565b614bf57fda8afdcfdb26a64799f9376d8f049f6728f00de0a7d57dab799925a17a90f57a60001b612d7e565b6000848281518110614c0357fe5b60200260200101519050614c397f5720157d60173f0120edffbcad2f49b90d30d0b8c8b78887b33336536b665fc760001b612d7e565b614c657fd034e04554a5a19d1d341305df5a9639af966f47c643ac3da19f466db28eb2bb60001b612d7e565b6001838381518110614c7357fe5b602002602001018181525050614cab7f3741a554103b56adcb04d27d3ee044dda1892728f1950825e1124aadaee1de2160001b612d7e565b614cd77f67a8a7560131a184e1dfd6300ef3eb466ee2573bb6d790b79ef00030f1e9a19a60001b612d7e565b614ce3868260016162fd565b614d0f7f1f5be447cf306faa618c5ef68ae2af1033c3386bfb5d565693ec994115f7cfbb60001b612d7e565b614d3b7f2731e559214c2d89447e05508b3140d076dd4cf6bc6ad17178eedccc6c8e3eff60001b612d7e565b808673ffffffffffffffffffffffffffffffffffffffff16600073ffffffffffffffffffffffffffffffffffffffff167fddf252ad1be2c89b69c2b068fc378daa952ba7f163c4a11628f55a4df523b3ef60405160405180910390a450806001019050614b96565b50614dd07fd57aa0b90e7b830bfbcbc52b5a0e983751425fa81b056bcb8393668fec8d59fd60001b612d7e565b614dfc7f9f9f9d8f5da49864135eb8439c23a731c1d3e3af8f879f332ad41cc54b294a6d60001b612d7e565b81600460008673ffffffffffffffffffffffffffffffffffffffff1673ffffffffffffffffffffffffffffffffffffffff1681526020019081526020016000206000828254019250508190555050505050565b614e7b7f01954647c9d7fedd94e20d2cac343aa135c6543fce3c43f62fa3f427d78338fe60001b612022565b614ea77fcc66953b16d7f7f0211b79b8c952cc6f7a661386107af9b11b05325326581c3760001b612022565b614ed37f09778170d07a554143f6a682c30b5b48ac25ca66b1542a415662963e005ce2f460001b612022565b600060036000858152602001908152602001600020549050614f177f24b4228584e0f50c7490db7e82d057b1e589ed3a9086e733e2e20887e335bfd860001b612022565b614f437ffde825987019d11a620ba8c3ca5d918a18605d7114fa2f888d75cd0dad5db20260001b612022565b614f6f7fc1da942e61c8af94b7cad80ca6580e86b8c71994ea0f5586595e963b7d80dd7d60001b612022565b8073ffffffffffffffffffffffffffffffffffffffff168573ffffffffffffffffffffffffffffffffffffffff1614615010576040517f08c379a00000000000000000000000000000000000000000000000000000000081526004018080602001828103825260158152602001807f4552433732313a206e6f6e2d6f776e6564204e4654000000000000000000000081525060200191505060405180910390fd5b61503c7f76545f5c9f4b11c4666054f8aca2e8afe3fa13e48cbb7393f41994163427265560001b612022565b6150687fdda6c26276fe093576433317e764a6221d5ed14023952f1f7fb81aa1f1885ee160001b612022565b6150947faea03ee3863ae84539d6140e5bab99030ae305629e0ab212bcc7a4d47ba0a47960001b612022565b82615279576150c57fe0df417c12a0866d956c67b785a1dce4df3ff7b83c2758efaf369565ce34711660001b612022565b6150f17fe07c869477eefe9c4d329774a6e1fab055e77b59fc1f9598c4b44fbc53cc6b1660001b612022565b61511d7f15c07cddf7af79d7c52967c552c51e699cc5b94e004549d7799254481abd192460001b612022565b6151497f145949739e09572d5456572162d03c29419b299a4b657dafc30158869e6c9bc760001b612022565b6000740100000000000000000000000000000000000000008216141580156151d657506005600085815260200190815260200160002060009054906101000a900473ffffffffffffffffffffffffffffffffffffffff1673ffffffffffffffffffffffffffffffffffffffff166151be613e0c565b73ffffffffffffffffffffffffffffffffffffffff16145b615248576040517f08c379a000000000000000000000000000000000000000000000000000000000815260040180806020018281038252601b8152602001807f4552433732313a206e6f6e2d617070726f7665642073656e646572000000000081525060200191505060405180910390fd5b6152747f17ab634811a62d107e68f45b76fa7ea81d0e15b0833e425ee23b6511c841b91960001b612022565b6152a6565b6152a57f8110a0b8ba2741832b8c4a60a27c348bcf2a54e5d000363c7bd0399faaf1158260001b612022565b5b6152d27fab41028d333887139ffa4388ef2435e0d9da59c227b2cb970008e295e50cd93660001b612022565b6152fe7f3cc2b75a31c90c1e9f23d32cf6ac5e82cfff1b6f0130ba34c24f8903c7667e2960001b612022565b7fdead00000000000000000000000000000000000000000000000000000000000060036000868152602001908152602001600020819055506153627f262fd95fc49ee2537a6ada1795e2edf5f6de02f7a5cff4cd6a16b604421515d760001b612022565b61538e7fe86eb6a21728a8207ba8795e4376494a508732f9eb32730c18f8f41b330ca1ed60001b612022565b8161543e576153bf7fb4389485aaa8c347ed4b615a99bcb81f3ec76e371eb6f756fa51bc30f7c61f3460001b612022565b6153eb7f1ba2d19a49da4f35b82f4826de99c4245ef4364c5ca859ef5a66428bc6b9ecff60001b612022565b600460008673ffffffffffffffffffffffffffffffffffffffff1673ffffffffffffffffffffffffffffffffffffffff16815260200190815260200160002060008154600190039190508190555061546b565b61546a7fb7764347ae23060b136a506b978082994932ea0da4c2fdf03e535b9348dd5efd60001b612022565b5b5050505050565b3073ffffffffffffffffffffffffffffffffffffffff16638da5cb5b6040518163ffffffff1660e01b815260040160206040518083038186803b1580156154b857600080fd5b505afa1580156154cc573d6000803e3d6000fd5b505050506040513d60208110156154e257600080fd5b810190808051906020019092919050505073ffffffffffffffffffffffffffffffffffffffff168173ffffffffffffffffffffffffffffffffffffffff1614615593576040517f08c379a00000000000000000000000000000000000000000000000000000000081526004018080602001828103825260168152602001807f4f776e61626c653a206e6f7420746865206f776e65720000000000000000000081525060200191505060405180910390fd5b50565b6001600860008373ffffffffffffffffffffffffffffffffffffffff1673ffffffffffffffffffffffffffffffffffffffff16815260200190815260200160002060006101000a81548160ff0219169083151502179055508073ffffffffffffffffffffffffffffffffffffffff167f6ae172837ea30b801fbfcdd4108aa1d5bf8ff775444fd70256b44e6bf3dfc3f660405160405180910390a250565b60606156627f1c9aa8b0a38f069e1470ab73c22da607a105214ef5de328816e9d32a1e8b441b60001b611d2f565b61568e7f5170b3391e3dcb54efdddd1865c65f8bcdfb112f0c2230607b93231388faea7b60001b611d2f565b6156ba7f378669c14060759ae4c60ec9f0fc205bcc45a295b03ae0f63f92feae3939ea1460001b611d2f565b60076156c583616621565b60405160200180838054600181600116156101000203166002900480156157235780601f10615701576101008083540402835291820191615723565b820191906000526020600020905b81548152906001019060200180831161570f575b505082805190602001908083835b602083106157545780518252602082019150602081019050602083039250615731565b6001836020036101000a038019825116818451168082178552505050505050905001925050506040516020818303038152906040529050919050565b6157bc7fb42205bf391af3e8e554f5e4e95186fabf6d3c2d400dc6dc77e1a95efba0f0a360001b612d7e565b6157e87fd62cb91b7cd2f41d70a06ac8cd1dbc1fd96f4315efee9c7d5981a717af2c105560001b612d7e565b6158147f40145eb7db4d33d84949bf1673d7ee228514bf24f8a25d38a29dbd25cf2f3d5c60001b612d7e565b6000600360008581526020019081526020016000205490506158587fa5079d4372ad538c4c4cc77571d90c708507ee3882f6d11468cda99c9c3d147860001b612d7e565b6158847f83d3b45c1abcb5f5f0b7b61e660aa58100f1a78dad4a165f80bd9876b7b1210660001b612d7e565b6158b07f6b29aa21171f1cd0e88ecc4930fdd9aecba08849f4269040ed67d24f57e762ff60001b612d7e565b8073ffffffffffffffffffffffffffffffffffffffff168673ffffffffffffffffffffffffffffffffffffffff1614615951576040517f08c379a00000000000000000000000000000000000000000000000000000000081526004018080602001828103825260158152602001807f4552433732313a206e6f6e2d6f776e6564204e4654000000000000000000000081525060200191505060405180910390fd5b61597d7f3f21d52db2245dabc14ae1089b0c34d40b3e481a27293d02ff2d9c293f4159ca60001b612d7e565b6159a97f7127f8cbbd5b7187697d13afdc934850c962d69305b446e4ec04d017c83c849760001b612d7e565b6159d57f245641d4a84f3c6f214aa88690e145ed68da063006fe1c31699afff6d5b7233060001b612d7e565b82615bba57615a067f38957dad6003bb016a0c00b46ab770509769f7752b2474a975c98321a7a59f3960001b612d7e565b615a327f04f3a8201bbadc4e6494a706dfd8882ec59525271b083531208ed7086230142460001b612d7e565b615a5e7f8350237a10d24313d9ffffc775e04a25f4c72a5eea4cdc3d1bce894415dd673960001b612d7e565b615a8a7fcceb4a8c77ded5d22f1069503d83fc717caa624634aece6aeb1a4d87365336fd60001b612d7e565b600074010000000000000000000000000000000000000000821614158015615b1757506005600085815260200190815260200160002060009054906101000a900473ffffffffffffffffffffffffffffffffffffffff1673ffffffffffffffffffffffffffffffffffffffff16615aff613e0c565b73ffffffffffffffffffffffffffffffffffffffff16145b615b89576040517f08c379a000000000000000000000000000000000000000000000000000000000815260040180806020018281038252601b8152602001807f4552433732313a206e6f6e2d617070726f7665642073656e646572000000000081525060200191505060405180910390fd5b615bb57f1da9e68353ee3f113e8a9404b0f77c5867d2220f08e0d13ad1cafe0a2589c33b60001b612d7e565b615be7565b615be67f400f8de0973a9dd9d8ad29e1d22e73af1a52d6fc1d28d9e8e2c0da4394b91cc060001b612d7e565b5b615c137fc41910c1589bca55bf9e887d7d5310d5d23c4589af4e7daa5c2836817c0f315060001b612d7e565b615c3f7f7cf41e04a406cdf9f5026b848710313a09c86281c261ab84276e42c0f512962360001b612d7e565b8473ffffffffffffffffffffffffffffffffffffffff166003600086815260200190815260200160002081905550615c997f7f256bcbbf0e200c2719101d10725e85c3fae3ac7e63fd2aeb2fab0fd396b69a60001b612d7e565b615cc57f21cf5310b82878b349d5132709f2128903973fe056771d9dd734f53ac03fba8d60001b612d7e565b81615d5f57615cf67f81e206239b77b21f6a1c3eba570276c00e290e1633606dda8321d62cd8ede55d60001b612d7e565b615d227f851737ac9f7687f890b718bf8af9972d1250708cbc95f74efc2bea61a9e460ac60001b612d7e565b615d4e7fb16dbb4ab2fdf8f68d480facc4854586a19beccf982712aa2cdf5244ff30d10a60001b612d7e565b615d5a86866001615d94565b615d8c565b615d8b7fd36dd6b2a37486b7fd20a0bcb2de6311e08092677530eb1b29d10b0d56cd253760001b612d7e565b5b505050505050565b615dc07fa43079022045953ff7a26e9d1cdceb19ec12e8ab6cec778226ceb5752ea0ab3060001b612d7e565b615dec7f4b5907ebd1b267a7b6c5ae9cadfbebe6b04e3b7dd7a0896d4806a8a80966918d60001b612d7e565b615e187fa8a60ef71bb05cdcda7ab00798ea8e5a25797a0c5e0bb388d0f2d5a783fd5dae60001b612d7e565b8173ffffffffffffffffffffffffffffffffffffffff168373ffffffffffffffffffffffffffffffffffffffff1614615fc657615e777fad57bd95fd33487746467c2d11efbded32ce759d8f8b42e4b1a877a3c23cadff60001b612d7e565b615ea37fd727d151a3ca5f6027b936253ed95aee38b7a228851cfd0f25b18fe490bc9b9d60001b612d7e565b615ecf7f72d84f72b6bf40f8394ddf365889d83fbb2c88c1828e1ff6ef2c3fc0a8ad114960001b612d7e565b80600460008573ffffffffffffffffffffffffffffffffffffffff1673ffffffffffffffffffffffffffffffffffffffff16815260200190815260200160002060008282540392505081905550615f487ff3cc889404b1e00a6fa52f47759c8b8d35758d9a1202446161604e7ab8b911d760001b612d7e565b615f747f304b50322a7c557d367ef4332598eb6623933efd810b050b3f3a89388eca24cd60001b612d7e565b80600460008473ffffffffffffffffffffffffffffffffffffffff1673ffffffffffffffffffffffffffffffffffffffff16815260200190815260200160002060008282540192505081905550615ff3565b615ff27f24f3d0e7e733b716b6ff81285c0629b77ced3b08d57f214ed373cb5ceaa051a160001b612d7e565b5b505050565b600080823b905060008111915050919050565b6160377fb3b7436d4b971e633c03bd4de9232f9aac8610387e7d17aca623b2179a7c56b760001b612d7e565b6160637f025d5020ed4cc64aee3b5e82079757b5378b244450f7b4320201b0196331894b60001b612d7e565b61608f7fee673150993f58b975aa5dfb5cf327db804f62fc6356406803a1f4e91fab620560001b612d7e565b6160bb7f60b915376f75f63d14cf04e685744969c39f8121af18f3e8eacdc13f755d9ece60001b612d7e565b7f150b7a02000000000000000000000000000000000000000000000000000000007bffffffffffffffffffffffffffffffffffffffffffffffffffffffff19168373ffffffffffffffffffffffffffffffffffffffff1663150b7a0261611f613e0c565b8786866040518563ffffffff1660e01b8152600401808573ffffffffffffffffffffffffffffffffffffffff1681526020018473ffffffffffffffffffffffffffffffffffffffff16815260200183815260200180602001828103825283818151815260200191508051906020019080838360005b838110156161af578082015181840152602081019050616194565b50505050905090810190601f1680156161dc5780820380516001836020036101000a031916815260200191505b5095505050505050602060405180830381600087803b1580156161fe57600080fd5b505af1158015616212573d6000803e3d6000fd5b505050506040513d602081101561622857600080fd5b81019080805190602001909291905050507bffffffffffffffffffffffffffffffffffffffffffffffffffffffff1916146162cb576040517f08c379a00000000000000000000000000000000000000000000000000000000081526004018080602001828103825260188152602001807f4552433732313a207472616e736665722072656675736564000000000000000081525060200191505060405180910390fd5b6162f77f1153ca127ed9fc0871ceef55b9fc2a036aec41f7b0f52e44971ce47cb0bbaa9060001b612d7e565b50505050565b6163297fb0be70c567f9fb4af166074f544c79380fec331e1a2a71c6817226e1229a8dab60001b612d7e565b6163557faf11acf3d42ef2f403c9a82237d686a780966e0b8791e6e76ba6c2cd1a93390560001b612d7e565b6163817f8d0c87176d9743782a8e743fb86a3ae2df1a6b0f47e116cb29193744c71dd19560001b612d7e565b6163ad7f50ae879b5cb55820b07c44a191c3b36c62f4139f0a2fe6ae2a0cf44b7e99d8fe60001b612d7e565b6000600360008481526020019081526020016000205414616436576040517f08c379a000000000000000000000000000000000000000000000000000000000815260040180806020018281038252601a8152602001807f4552433732313a206578697374696e672f6275726e74204e465400000000000081525060200191505060405180910390fd5b6164627ff2023f365fd682de47086028de642197360dc3314f0faf70e359d4fb373e327060001b612d7e565b61648e7f62164848a71213781d2edcbe7147fe7cb4b447559e363a612f04a992e894ee1860001b612d7e565b6164ba7f8c5dc018152e4eda26646cfa13536cdf0c376ef772330f87c98fb02c082d6c5360001b612d7e565b8273ffffffffffffffffffffffffffffffffffffffff1660036000848152602001908152602001600020819055506165147feae32892f82a504d2f871b645078370d10dfab7a6fa201a19b56717afd8a7b5b60001b612d7e565b6165407ff0364d8fccf390aeda9022f48d340d85c26f5fcf1fc33d93b71d8d756dd6f4fe60001b612d7e565b806165ef576165717f025867a94022bf17d44d05dc9692dc5f6733e7b03a2412f7336fa77c41ef459c60001b612d7e565b61659d7f9e45ff9b115fae23e629bb95dee5760b8583c33ea9693ea54c267f8bfba20b0e60001b612d7e565b600460008473ffffffffffffffffffffffffffffffffffffffff1673ffffffffffffffffffffffffffffffffffffffff168152602001908152602001600020600081546001019190508190555061661c565b61661b7f09d255f1f04004ce2104739ae4e7af0826cf599668361981fa9976fb9cc21aa960001b612d7e565b5b505050565b60606000821415616669576040518060400160405280600181526020017f30000000000000000000000000000000000000000000000000000000000000008152509050616763565b600082905060005b60008214616693578080600101915050600a828161668b57fe5b049150616671565b60008167ffffffffffffffff811180156166ac57600080fd5b506040519080825280601f01601f1916602001820160405280156166df5781602001600182028036833780820191505090505b50905060006001830390508593505b6000841461675b57600a848161670057fe5b0660300160f81b8282806001900393508151811061671a57fe5b60200101907effffffffffffffffffffffffffffffffffffffffffffffffffffffffffffff1916908160001a905350600a848161675357fe5b0493506166ee565b819450505050505b919050565b828054600181600116156101000203166002900490600052602060002090601f01602090048101928261679e57600085556167e5565b82601f106167b757803560ff19168380011785556167e5565b828001600101855582156167e5579182015b828111156167e45782358255916020019190600101906167c9565b5b5090506167f291906167f6565b5090565b5b8082111561680f5760008160009055506001016167f7565b509056fea2646970667358221220c044b5a5e85d6acc16227026b8bee0d1e1fbafde19c1dfa539665ee2e85ef8a464736f6c63430007060033",
  "linkReferences": {},
  "deployedLinkReferences": {}
}