{
  "_format": "hh-sol-artifact-1",
  "contractName": "ERC721BurnableMock",
  "sourceName": "contracts/mocks/token/ERC721/ERC721BurnableMock.sol",
  "abi": [
    {
      "inputs": [
        {
          "internalType": "contract IForwarderRegistry",
          "name": "forwarderRegistry",
          "type": "address"
        },
        {
          "internalType": "address",
          "name": "universalForwarder",
          "type": "address"
        }
      ],
      "stateMutability": "nonpayable",
      "type": "constructor"
    },
    {
      "anonymous": false,
      "inputs": [
        {
          "indexed": true,
          "internalType": "address",
          "name": "_owner",
          "type": "address"
        },
        {
          "indexed": true,
          "internalType": "address",
          "name": "_approved",
          "type": "address"
        },
        {
          "indexed": true,
          "internalType": "uint256",
          "name": "_tokenId",
          "type": "uint256"
        }
      ],
      "name": "Approval",
      "type": "event"
    },
    {
      "anonymous": false,
      "inputs": [
        {
          "indexed": true,
          "internalType": "address",
          "name": "_owner",
          "type": "address"
        },
        {
          "indexed": true,
          "internalType": "address",
          "name": "_operator",
          "type": "address"
        },
        {
          "indexed": false,
          "internalType": "bool",
          "name": "_approved",
          "type": "bool"
        }
      ],
      "name": "ApprovalForAll",
      "type": "event"
    },
    {
      "anonymous": false,
      "inputs": [
        {
          "indexed": false,
          "internalType": "string",
          "name": "baseMetadataURI",
          "type": "string"
        }
      ],
      "name": "BaseMetadataURISet",
      "type": "event"
    },
    {
      "anonymous": false,
      "inputs": [
        {
          "indexed": true,
          "internalType": "address",
          "name": "account",
          "type": "address"
        }
      ],
      "name": "MinterAdded",
      "type": "event"
    },
    {
      "anonymous": false,
      "inputs": [
        {
          "indexed": true,
          "internalType": "address",
          "name": "account",
          "type": "address"
        }
      ],
      "name": "MinterRemoved",
      "type": "event"
    },
    {
      "anonymous": false,
      "inputs": [
        {
          "indexed": true,
          "internalType": "address",
          "name": "previousOwner",
          "type": "address"
        },
        {
          "indexed": true,
          "internalType": "address",
          "name": "newOwner",
          "type": "address"
        }
      ],
      "name": "OwnershipTransferred",
      "type": "event"
    },
    {
      "anonymous": false,
      "inputs": [
        {
          "indexed": true,
          "internalType": "address",
          "name": "_from",
          "type": "address"
        },
        {
          "indexed": true,
          "internalType": "address",
          "name": "_to",
          "type": "address"
        },
        {
          "indexed": true,
          "internalType": "uint256",
          "name": "_tokenId",
          "type": "uint256"
        }
      ],
      "name": "Transfer",
      "type": "event"
    },
    {
      "inputs": [
        {
          "internalType": "address",
          "name": "account",
          "type": "address"
        }
      ],
      "name": "addMinter",
      "outputs": [],
      "stateMutability": "nonpayable",
      "type": "function"
    },
    {
      "inputs": [
        {
          "internalType": "address",
          "name": "to",
          "type": "address"
        },
        {
          "internalType": "uint256",
          "name": "tokenId",
          "type": "uint256"
        }
      ],
      "name": "approve",
      "outputs": [],
      "stateMutability": "nonpayable",
      "type": "function"
    },
    {
      "inputs": [
        {
          "internalType": "address",
          "name": "owner",
          "type": "address"
        }
      ],
      "name": "balanceOf",
      "outputs": [
        {
          "internalType": "uint256",
          "name": "",
          "type": "uint256"
        }
      ],
      "stateMutability": "view",
      "type": "function"
    },
    {
      "inputs": [],
      "name": "baseMetadataURI",
      "outputs": [
        {
          "internalType": "string",
          "name": "",
          "type": "string"
        }
      ],
      "stateMutability": "view",
      "type": "function"
    },
    {
      "inputs": [
        {
          "internalType": "address",
          "name": "from",
          "type": "address"
        },
        {
          "internalType": "uint256[]",
          "name": "tokenIds",
          "type": "uint256[]"
        }
      ],
      "name": "batchBurnFrom",
      "outputs": [],
      "stateMutability": "nonpayable",
      "type": "function"
    },
    {
      "inputs": [
        {
          "internalType": "address",
          "name": "to",
          "type": "address"
        },
        {
          "internalType": "uint256[]",
          "name": "nftIds",
          "type": "uint256[]"
        }
      ],
      "name": "batchMint",
      "outputs": [],
      "stateMutability": "nonpayable",
      "type": "function"
    },
    {
      "inputs": [
        {
          "internalType": "address",
          "name": "from",
          "type": "address"
        },
        {
          "internalType": "address",
          "name": "to",
          "type": "address"
        },
        {
          "internalType": "uint256[]",
          "name": "tokenIds",
          "type": "uint256[]"
        }
      ],
      "name": "batchTransferFrom",
      "outputs": [],
      "stateMutability": "nonpayable",
      "type": "function"
    },
    {
      "inputs": [
        {
          "internalType": "address",
          "name": "from",
          "type": "address"
        },
        {
          "internalType": "uint256",
          "name": "tokenId",
          "type": "uint256"
        }
      ],
      "name": "burnFrom",
      "outputs": [],
      "stateMutability": "nonpayable",
      "type": "function"
    },
    {
      "inputs": [
        {
          "internalType": "uint256",
          "name": "tokenId",
          "type": "uint256"
        }
      ],
      "name": "getApproved",
      "outputs": [
        {
          "internalType": "address",
          "name": "",
          "type": "address"
        }
      ],
      "stateMutability": "view",
      "type": "function"
    },
    {
      "inputs": [
        {
          "internalType": "address",
          "name": "owner",
          "type": "address"
        },
        {
          "internalType": "address",
          "name": "operator",
          "type": "address"
        }
      ],
      "name": "isApprovedForAll",
      "outputs": [
        {
          "internalType": "bool",
          "name": "",
          "type": "bool"
        }
      ],
      "stateMutability": "view",
      "type": "function"
    },
    {
      "inputs": [
        {
          "internalType": "address",
          "name": "",
          "type": "address"
        }
      ],
      "name": "isMinter",
      "outputs": [
        {
          "internalType": "bool",
          "name": "",
          "type": "bool"
        }
      ],
      "stateMutability": "view",
      "type": "function"
    },
    {
      "inputs": [
        {
          "internalType": "address",
          "name": "forwarder",
          "type": "address"
        }
      ],
      "name": "isTrustedForwarder",
      "outputs": [
        {
          "internalType": "bool",
          "name": "",
          "type": "bool"
        }
      ],
      "stateMutability": "view",
      "type": "function"
    },
    {
      "inputs": [
        {
          "internalType": "address",
          "name": "to",
          "type": "address"
        },
        {
          "internalType": "uint256",
          "name": "nftId",
          "type": "uint256"
        }
      ],
      "name": "mint",
      "outputs": [],
      "stateMutability": "nonpayable",
      "type": "function"
    },
    {
      "inputs": [],
      "name": "msgData",
      "outputs": [
        {
          "internalType": "bytes",
          "name": "ret",
          "type": "bytes"
        }
      ],
      "stateMutability": "view",
      "type": "function"
    },
    {
      "inputs": [],
      "name": "name",
      "outputs": [
        {
          "internalType": "string",
          "name": "",
          "type": "string"
        }
      ],
      "stateMutability": "view",
      "type": "function"
    },
    {
      "inputs": [],
      "name": "owner",
      "outputs": [
        {
          "internalType": "address",
          "name": "",
          "type": "address"
        }
      ],
      "stateMutability": "view",
      "type": "function"
    },
    {
      "inputs": [
        {
          "internalType": "uint256",
          "name": "tokenId",
          "type": "uint256"
        }
      ],
      "name": "ownerOf",
      "outputs": [
        {
          "internalType": "address",
          "name": "",
          "type": "address"
        }
      ],
      "stateMutability": "view",
      "type": "function"
    },
    {
      "inputs": [
        {
          "internalType": "address[]",
          "name": "accounts",
          "type": "address[]"
        },
        {
          "internalType": "address[]",
          "name": "tokens",
          "type": "address[]"
        },
        {
          "internalType": "uint256[]",
          "name": "amounts",
          "type": "uint256[]"
        }
      ],
      "name": "recoverERC20s",
      "outputs": [],
      "stateMutability": "nonpayable",
      "type": "function"
    },
    {
      "inputs": [
        {
          "internalType": "address[]",
          "name": "accounts",
          "type": "address[]"
        },
        {
          "internalType": "address[]",
          "name": "contracts",
          "type": "address[]"
        },
        {
          "internalType": "uint256[]",
          "name": "tokenIds",
          "type": "uint256[]"
        }
      ],
      "name": "recoverERC721s",
      "outputs": [],
      "stateMutability": "nonpayable",
      "type": "function"
    },
    {
      "inputs": [],
      "name": "renounceMinter",
      "outputs": [],
      "stateMutability": "nonpayable",
      "type": "function"
    },
    {
      "inputs": [
        {
          "internalType": "address",
          "name": "to",
          "type": "address"
        },
        {
          "internalType": "uint256",
          "name": "nftId",
          "type": "uint256"
        },
        {
          "internalType": "bytes",
          "name": "data",
          "type": "bytes"
        }
      ],
      "name": "safeMint",
      "outputs": [],
      "stateMutability": "nonpayable",
      "type": "function"
    },
    {
      "inputs": [
        {
          "internalType": "address",
          "name": "from",
          "type": "address"
        },
        {
          "internalType": "address",
          "name": "to",
          "type": "address"
        },
        {
          "internalType": "uint256",
          "name": "tokenId",
          "type": "uint256"
        }
      ],
      "name": "safeTransferFrom",
      "outputs": [],
      "stateMutability": "nonpayable",
      "type": "function"
    },
    {
      "inputs": [
        {
          "internalType": "address",
          "name": "from",
          "type": "address"
        },
        {
          "internalType": "address",
          "name": "to",
          "type": "address"
        },
        {
          "internalType": "uint256",
          "name": "tokenId",
          "type": "uint256"
        },
        {
          "internalType": "bytes",
          "name": "data",
          "type": "bytes"
        }
      ],
      "name": "safeTransferFrom",
      "outputs": [],
      "stateMutability": "nonpayable",
      "type": "function"
    },
    {
      "inputs": [
        {
          "internalType": "address",
          "name": "operator",
          "type": "address"
        },
        {
          "internalType": "bool",
          "name": "approved",
          "type": "bool"
        }
      ],
      "name": "setApprovalForAll",
      "outputs": [],
      "stateMutability": "nonpayable",
      "type": "function"
    },
    {
      "inputs": [
        {
          "internalType": "string",
          "name": "baseMetadataURI_",
          "type": "string"
        }
      ],
      "name": "setBaseMetadataURI",
      "outputs": [],
      "stateMutability": "nonpayable",
      "type": "function"
    },
    {
      "inputs": [
        {
          "internalType": "bytes4",
          "name": "interfaceId",
          "type": "bytes4"
        }
      ],
      "name": "supportsInterface",
      "outputs": [
        {
          "internalType": "bool",
          "name": "",
          "type": "bool"
        }
      ],
      "stateMutability": "view",
      "type": "function"
    },
    {
      "inputs": [],
      "name": "symbol",
      "outputs": [
        {
          "internalType": "string",
          "name": "",
          "type": "string"
        }
      ],
      "stateMutability": "view",
      "type": "function"
    },
    {
      "inputs": [
        {
          "internalType": "uint256",
          "name": "nftId",
          "type": "uint256"
        }
      ],
      "name": "tokenURI",
      "outputs": [
        {
          "internalType": "string",
          "name": "",
          "type": "string"
        }
      ],
      "stateMutability": "view",
      "type": "function"
    },
    {
      "inputs": [
        {
          "internalType": "address",
          "name": "from",
          "type": "address"
        },
        {
          "internalType": "address",
          "name": "to",
          "type": "address"
        },
        {
          "internalType": "uint256",
          "name": "tokenId",
          "type": "uint256"
        }
      ],
      "name": "transferFrom",
      "outputs": [],
      "stateMutability": "nonpayable",
      "type": "function"
    },
    {
      "inputs": [
        {
          "internalType": "address",
          "name": "newOwner",
          "type": "address"
        }
      ],
      "name": "transferOwnership",
      "outputs": [],
      "stateMutability": "nonpayable",
      "type": "function"
    }
  ],
  "bytecode": "0x60c06040523480156200001157600080fd5b5060405162002eb338038062002eb3833981810160405260408110156200003757600080fd5b50805160209182015160408051808201825260128152714552433732314275726e61626c654d6f636b60701b81860152815180830183526005815264229b9918a160d91b95810195909552600080546001600160a01b0319163390811782559251949593949293919286918691869182917f8be0079c531659141344cd1fd0a4f28419497f9722a3daafe3b4186f6b6457e0908290a3506001600160601b0319606091821b811660a05291901b166080528151620000fd9060019060208501906200017c565b508051620001139060029060208401906200017c565b50505062000127816200013060201b60201c565b50505062000228565b6001600160a01b038116600081815260086020526040808220805460ff19166001179055517f6ae172837ea30b801fbfcdd4108aa1d5bf8ff775444fd70256b44e6bf3dfc3f69190a250565b828054600181600116156101000203166002900490600052602060002090601f016020900481019282620001b45760008555620001ff565b82601f10620001cf57805160ff1916838001178555620001ff565b82800160010185558215620001ff579182015b82811115620001ff578251825591602001919060010190620001e2565b506200020d92915062000211565b5090565b5b808211156200020d576000815560010162000212565b60805160601c60a05160601c612c436200027060003980610f95528061238952806128e3525080610fd0528061234e52806123e152806128b952806129445250612c436000f3fe608060405234801561001057600080fd5b50600436106101da5760003560e01c80638832e6e311610104578063b88d4fde116100a2578063e985e9c511610071578063e985e9c5146109c8578063f2472965146109f6578063f2fde38b14610aa9578063f3993d1114610acf576101da565b8063b88d4fde146107c9578063c3666c361461088f578063c4c2bfdc146109a3578063c87b56dd146109ab576101da565b8063983b2d56116100de578063983b2d5614610747578063986502751461076d578063a22cb46514610775578063aa271e1a146107a3576101da565b80638832e6e31461067c5780638da5cb5b1461073757806395d89b411461073f576101da565b80634684d7e91161017c57806370a082311161014b57806370a082311461049457806373c8a958146104cc57806379cc6790146105e05780637e518ec81461060c576101da565b80634684d7e914610396578063572b6c05146104495780635b2bd79e1461046f5780636352211e14610477576101da565b8063095ea7b3116101b8578063095ea7b3146102d057806323b872dd146102fe57806340c10f191461033457806342842e0e14610360576101da565b806301ffc9a7146101df57806306fdde031461021a578063081812fc14610297575b600080fd5b610206600480360360208110156101f557600080fd5b50356001600160e01b031916610b8b565b604080519115158252519081900360200190f35b610222610bd1565b6040805160208082528351818301528351919283929083019185019080838360005b8381101561025c578181015183820152602001610244565b50505050905090810190601f1680156102895780820380516001836020036101000a031916815260200191505b509250505060405180910390f35b6102b4600480360360208110156102ad57600080fd5b5035610c67565b604080516001600160a01b039092168252519081900360200190f35b6102fc600480360360408110156102e657600080fd5b506001600160a01b038135169060200135610d06565b005b6102fc6004803603606081101561031457600080fd5b506001600160a01b03813581169160208101359091169060400135610f0d565b6102fc6004803603604081101561034a57600080fd5b506001600160a01b038135169060200135610f2f565b6102fc6004803603606081101561037657600080fd5b506001600160a01b03813581169160208101359091169060400135610f5f565b6102fc600480360360408110156103ac57600080fd5b6001600160a01b0382351691908101906040810160208201356401000000008111156103d757600080fd5b8201836020820111156103e957600080fd5b8035906020019184602083028401116401000000008311171561040b57600080fd5b919080806020026020016040519081016040528093929190818152602001838360200280828437600092019190915250929550610f7c945050505050565b6102066004803603602081101561045f57600080fd5b50356001600160a01b0316610f91565b61022261100a565b6102b46004803603602081101561048d57600080fd5b5035611098565b6104ba600480360360208110156104aa57600080fd5b50356001600160a01b0316611102565b60408051918252519081900360200190f35b6102fc600480360360608110156104e257600080fd5b8101906020810181356401000000008111156104fd57600080fd5b82018360208201111561050f57600080fd5b8035906020019184602083028401116401000000008311171561053157600080fd5b91939092909160208101903564010000000081111561054f57600080fd5b82018360208201111561056157600080fd5b8035906020019184602083028401116401000000008311171561058357600080fd5b9193909290916020810190356401000000008111156105a157600080fd5b8201836020820111156105b357600080fd5b803590602001918460208302840111640100000000831117156105d557600080fd5b50909250905061117b565b6102fc600480360360408110156105f657600080fd5b506001600160a01b03813516906020013561126d565b6102fc6004803603602081101561062257600080fd5b81019060208101813564010000000081111561063d57600080fd5b82018360208201111561064f57600080fd5b8035906020019184600183028401116401000000008311171561067157600080fd5b5090925090506112d2565b6102fc6004803603606081101561069257600080fd5b6001600160a01b03823516916020810135918101906060810160408201356401000000008111156106c257600080fd5b8201836020820111156106d457600080fd5b803590602001918460018302840111640100000000831117156106f657600080fd5b91908080601f01602080910402602001604051908101604052809392919081815260200183838082843760009201919091525092955061134e945050505050565b6102b4611366565b610222611375565b6102fc6004803603602081101561075d57600080fd5b50356001600160a01b03166113d3565b6102fc6113ea565b6102fc6004803603604081101561078b57600080fd5b506001600160a01b0381351690602001351515611448565b610206600480360360208110156107b957600080fd5b50356001600160a01b0316611529565b6102fc600480360360808110156107df57600080fd5b6001600160a01b0382358116926020810135909116916040820135919081019060808101606082013564010000000081111561081a57600080fd5b82018360208201111561082c57600080fd5b8035906020019184600183028401116401000000008311171561084e57600080fd5b91908080601f01602080910402602001604051908101604052809392919081815260200183838082843760009201919091525092955061153e945050505050565b6102fc600480360360608110156108a557600080fd5b8101906020810181356401000000008111156108c057600080fd5b8201836020820111156108d257600080fd5b803590602001918460208302840111640100000000831117156108f457600080fd5b91939092909160208101903564010000000081111561091257600080fd5b82018360208201111561092457600080fd5b8035906020019184602083028401116401000000008311171561094657600080fd5b91939092909160208101903564010000000081111561096457600080fd5b82018360208201111561097657600080fd5b8035906020019184602083028401116401000000008311171561099857600080fd5b509092509050611552565b61022261169a565b610222600480360360208110156109c157600080fd5b50356116a9565b610206600480360360408110156109de57600080fd5b506001600160a01b038135811691602001351661171e565b6102fc60048036036040811015610a0c57600080fd5b6001600160a01b038235169190810190604081016020820135640100000000811115610a3757600080fd5b820183602082011115610a4957600080fd5b80359060200191846020830284011164010000000083111715610a6b57600080fd5b91908080602002602001604051908101604052809392919081815260200183836020028082843760009201919091525092955061174c945050505050565b6102fc60048036036020811015610abf57600080fd5b50356001600160a01b0316611807565b6102fc60048036036060811015610ae557600080fd5b6001600160a01b038235811692602081013590911691810190606081016040820135640100000000811115610b1957600080fd5b820183602082011115610b2b57600080fd5b80359060200191846020830284011164010000000083111715610b4d57600080fd5b919080806020026020016040519081016040528093929190818152602001838360200280828437600092019190915250929550611878945050505050565b60006001600160e01b031982167f8b8b4ef5000000000000000000000000000000000000000000000000000000001480610bc95750610bc982611984565b90505b919050565b60018054604080516020601f60026000196101008789161502019095169490940493840181900481028201810190925282815260609390929091830182828015610c5c5780601f10610c3157610100808354040283529160200191610c5c565b820191906000526020600020905b815481529060010190602001808311610c3f57829003601f168201915b505050505090505b90565b6000818152600460205260408120546001600160a01b038116610cd1576040805162461bcd60e51b815260206004820152601860248201527f4552433732313a206e6f6e2d6578697374696e67204e46540000000000000000604482015290519081900360640190fd5b600160a01b811615610cfc5750506000818152600660205260409020546001600160a01b0316610bcc565b6000915050610bcc565b60008181526004602052604090205480610d67576040805162461bcd60e51b815260206004820152601860248201527f4552433732313a206e6f6e2d6578697374696e67204e46540000000000000000604482015290519081900360640190fd5b806001600160a01b038481169082161415610dc9576040805162461bcd60e51b815260206004820152601560248201527f4552433732313a2073656c662d617070726f76616c0000000000000000000000604482015290519081900360640190fd5b610dda81610dd5611a51565b611a5b565b610e2b576040805162461bcd60e51b815260206004820152601b60248201527f4552433732313a206e6f6e2d617070726f7665642073656e6465720000000000604482015290519081900360640190fd5b6001600160a01b038416610e6557600160a01b821615610e605760008381526004602052604090206001600160a01b03821690555b610ec6565b600160a01b8217808314610e855760008481526004602052604090208190555b50600083815260066020526040902080547fffffffffffffffffffffffff0000000000000000000000000000000000000000166001600160a01b0386161790555b82846001600160a01b0316826001600160a01b03167f8c5be1e5ebec7d5bd14f71427d1e84f3dd0314c0f7b2291e5b200ac8c7c3b92560405160405180910390a450505050565b610f2a838383604051806020016040528060008152506000611aa9565b505050565b610f3f610f3a611a51565b611ba1565b610f5b8282604051806020016040528060008152506000611c0e565b5050565b610f2a838383604051806020016040528060008152506001611aa9565b610f87610f3a611a51565b610f5b8282611cd9565b60007f00000000000000000000000000000000000000000000000000000000000000006001600160a01b0316826001600160a01b03161480610bc957507f00000000000000000000000000000000000000000000000000000000000000006001600160a01b0316826001600160a01b0316149050919050565b6007805460408051602060026001851615610100026000190190941693909304601f810184900484028201840190925281815292918301828280156110905780601f1061106557610100808354040283529160200191611090565b820191906000526020600020905b81548152906001019060200180831161107357829003601f168201915b505050505081565b6000818152600460205260408120546001600160a01b038116610bc9576040805162461bcd60e51b815260206004820152601860248201527f4552433732313a206e6f6e2d6578697374696e67204e46540000000000000000604482015290519081900360640190fd5b60006001600160a01b03821661115f576040805162461bcd60e51b815260206004820152601460248201527f4552433732313a207a65726f2061646472657373000000000000000000000000604482015290519081900360640190fd5b506001600160a01b031660009081526005602052604090205490565b61118b611186611a51565b611dca565b84838114801561119a57508082145b6111eb576040805162461bcd60e51b815260206004820152601a60248201527f5265636f763a20696e636f6e73697374656e7420617272617973000000000000604482015290519081900360640190fd5b60005b8181146112635761125b88888381811061120457fe5b905060200201356001600160a01b031685858481811061122057fe5b9050602002013588888581811061123357fe5b905060200201356001600160a01b03166001600160a01b0316611e8e9092919063ffffffff16565b6001016111ee565b5050505050505050565b6000611277611a51565b905060006112858483611a5b565b90506112948484836000611f0e565b60405183906000906001600160a01b038716907fddf252ad1be2c89b69c2b068fc378daa952ba7f163c4a11628f55a4df523b3ef908390a450505050565b6112dd611186611a51565b6112e960078383612b44565b507f04b1dc5c136a3ce9fded8db0ce3d3366c58764ec3a8e4c2b9e52e4ddfe5ebbf7828260405180806020018281038252848482818152602001925080828437600083820152604051601f909101601f19169092018290039550909350505050a15050565b611359610f3a611a51565b610f2a8383836001611c0e565b6000546001600160a01b031690565b60028054604080516020601f6000196101006001871615020190941685900493840181900481028201810190925282815260609390929091830182828015610c5c5780601f10610c3157610100808354040283529160200191610c5c565b6113de611186611a51565b6113e781612069565b50565b60006113f4611a51565b90506113ff81611ba1565b6001600160a01b038116600081815260086020526040808220805460ff19169055517fe94479a9f7e1952cc78f2d6baab678adc1b772d936c6583def489e524cb666929190a250565b6000611452611a51565b9050806001600160a01b0316836001600160a01b031614156114bb576040805162461bcd60e51b815260206004820152601560248201527f4552433732313a2073656c662d617070726f76616c0000000000000000000000604482015290519081900360640190fd5b6001600160a01b03818116600081815260036020908152604080832094881680845294825291829020805460ff1916871515908117909155825190815291517f17307eab39ab6107e8899845ad3d59bd9653f200f220920489ca2b5937696c319281900390910190a3505050565b60086020526000908152604090205460ff1681565b61154c848484846001611aa9565b50505050565b61155d611186611a51565b84838114801561156c57508082145b6115bd576040805162461bcd60e51b815260206004820152601a60248201527f5265636f763a20696e636f6e73697374656e7420617272617973000000000000604482015290519081900360640190fd5b60005b818114611263578585828181106115d357fe5b905060200201356001600160a01b03166001600160a01b03166323b872dd308a8a858181106115fe57fe5b905060200201356001600160a01b031687878681811061161a57fe5b905060200201356040518463ffffffff1660e01b815260040180846001600160a01b03168152602001836001600160a01b031681526020018281526020019350505050600060405180830381600087803b15801561167757600080fd5b505af115801561168b573d6000803e3d6000fd5b505050508060010190506115c0565b60606116a46120b5565b905090565b6000818152600460205260409020546060906001600160a01b0316611715576040805162461bcd60e51b815260206004820152601860248201527f4552433732313a206e6f6e2d6578697374696e67204e46540000000000000000604482015290519081900360640190fd5b610bc9826120f9565b6001600160a01b03918216600090815260036020908152604080832093909416825291909152205460ff1690565b6000611756611a51565b905060006117648483611a5b565b835190915060005b8181146117d957600085828151811061178157fe5b602002602001015190506117988782866001611f0e565b60405181906000906001600160a01b038a16907fddf252ad1be2c89b69c2b068fc378daa952ba7f163c4a11628f55a4df523b3ef908390a45060010161176c565b508015611800576001600160a01b0385166000908152600560205260409020805482900390555b5050505050565b611812611186611a51565b600080547fffffffffffffffffffffffff0000000000000000000000000000000000000000166001600160a01b0383811691821780845560405192939116917f8be0079c531659141344cd1fd0a4f28419497f9722a3daafe3b4186f6b6457e09190a350565b6001600160a01b0382166118d3576040805162461bcd60e51b815260206004820152601860248201527f4552433732313a207472616e7366657220746f207a65726f0000000000000000604482015290519081900360640190fd5b60006118dd611a51565b905060006118eb8583611a5b565b835190915060005b81811461196a57600085828151811061190857fe5b602002602001015190506119208888838760016121cc565b80876001600160a01b0316896001600160a01b03167fddf252ad1be2c89b69c2b068fc378daa952ba7f163c4a11628f55a4df523b3ef60405160405180910390a4506001016118f3565b50801561197c5761197c8686836122f3565b505050505050565b60006001600160e01b031982167f01ffc9a70000000000000000000000000000000000000000000000000000000014806119e757506001600160e01b031982167f80ac58cd00000000000000000000000000000000000000000000000000000000145b80611a1b57506001600160e01b031982167f5b5e139f00000000000000000000000000000000000000000000000000000000145b80610bc95750506001600160e01b0319167ff3993d11000000000000000000000000000000000000000000000000000000001490565b60006116a461233e565b6000816001600160a01b0316836001600160a01b03161480611aa257506001600160a01b0380841660009081526003602090815260408083209386168352929052205460ff165b9392505050565b6001600160a01b038416611b04576040805162461bcd60e51b815260206004820152601860248201527f4552433732313a207472616e7366657220746f207a65726f0000000000000000604482015290519081900360640190fd5b6000611b0e611a51565b90506000611b1c8783611a5b565b9050611b2c8787878460006121cc565b84866001600160a01b0316886001600160a01b03167fddf252ad1be2c89b69c2b068fc378daa952ba7f163c4a11628f55a4df523b3ef60405160405180910390a4828015611b875750611b87866001600160a01b031661249e565b15611b9857611b98878787876124a4565b50505050505050565b6001600160a01b03811660009081526008602052604090205460ff166113e7576040805162461bcd60e51b815260206004820152601860248201527f4d696e746572526f6c653a206e6f742061204d696e7465720000000000000000604482015290519081900360640190fd5b6001600160a01b038416611c69576040805162461bcd60e51b815260206004820152601460248201527f4552433732313a206d696e7420746f207a65726f000000000000000000000000604482015290519081900360640190fd5b611c7584846000612626565b60405183906001600160a01b038616906000907fddf252ad1be2c89b69c2b068fc378daa952ba7f163c4a11628f55a4df523b3ef908290a4808015611cc75750611cc7846001600160a01b031661249e565b1561154c5761154c60008585856124a4565b6001600160a01b038216611d34576040805162461bcd60e51b815260206004820152601460248201527f4552433732313a206d696e7420746f207a65726f000000000000000000000000604482015290519081900360640190fd5b805160005b818114611da5576000838281518110611d4e57fe5b60200260200101519050611d6485826001612626565b60405181906001600160a01b038716906000907fddf252ad1be2c89b69c2b068fc378daa952ba7f163c4a11628f55a4df523b3ef908290a450600101611d39565b506001600160a01b039092166000908152600560205260409020805490920190915550565b306001600160a01b0316638da5cb5b6040518163ffffffff1660e01b815260040160206040518083038186803b158015611e0357600080fd5b505afa158015611e17573d6000803e3d6000fd5b505050506040513d6020811015611e2d57600080fd5b50516001600160a01b038281169116146113e7576040805162461bcd60e51b815260206004820152601660248201527f4f776e61626c653a206e6f7420746865206f776e657200000000000000000000604482015290519081900360640190fd5b604080516001600160a01b038416602482015260448082018490528251808303909101815260649091019091526020810180517bffffffffffffffffffffffffffffffffffffffffffffffffffffffff167fa9059cbb00000000000000000000000000000000000000000000000000000000179052610f2a9084906126c8565b6000838152600460205260409020546001600160a01b0385811690821614611f7d576040805162461bcd60e51b815260206004820152601560248201527f4552433732313a206e6f6e2d6f776e6564204e46540000000000000000000000604482015290519081900360640190fd5b8261200e57600160a01b811615801590611fbd57506000848152600660205260409020546001600160a01b0316611fb2611a51565b6001600160a01b0316145b61200e576040805162461bcd60e51b815260206004820152601b60248201527f4552433732313a206e6f6e2d617070726f7665642073656e6465720000000000604482015290519081900360640190fd5b60008481526004602052604090207fdead00000000000000000000000000000000000000000000000000000000000090558161180057505050506001600160a01b031660009081526005602052604090208054600019019055565b6001600160a01b038116600081815260086020526040808220805460ff19166001179055517f6ae172837ea30b801fbfcdd4108aa1d5bf8ff775444fd70256b44e6bf3dfc3f69190a250565b60606120bf6128ab565b8080601f01602080910402602001604051908101604052809392919081815260200183838082843760009201919091525092935050505090565b6060600761210683612a0e565b60405160200180838054600181600116156101000203166002900480156121645780601f10612142576101008083540402835291820191612164565b820191906000526020600020905b815481529060010190602001808311612150575b5050825160208401908083835b602083106121905780518252601f199092019160209182019101612171565b6001836020036101000a038019825116818451168082178552505050505050905001925050506040516020818303038152906040529050919050565b6000838152600460205260409020546001600160a01b038681169082161461223b576040805162461bcd60e51b815260206004820152601560248201527f4552433732313a206e6f6e2d6f776e6564204e46540000000000000000000000604482015290519081900360640190fd5b826122cc57600160a01b81161580159061227b57506000848152600660205260409020546001600160a01b0316612270611a51565b6001600160a01b0316145b6122cc576040805162461bcd60e51b815260206004820152601b60248201527f4552433732313a206e6f6e2d617070726f7665642073656e6465720000000000604482015290519081900360640190fd5b60008481526004602052604090206001600160a01b03861690558161197c5761197c868660015b816001600160a01b0316836001600160a01b031614610f2a576001600160a01b0380841660009081526005602052604080822080548590039055918416815220805482019055505050565b6000338161234a612b1d565b90507f00000000000000000000000000000000000000000000000000000000000000006001600160a01b0316826001600160a01b031614806123bd57507f00000000000000000000000000000000000000000000000000000000000000006001600160a01b0316826001600160a01b0316145b156123cb579150610c649050565b6001600160a01b038216321480159061248a57507f00000000000000000000000000000000000000000000000000000000000000006001600160a01b031663e60125d682846040518363ffffffff1660e01b815260040180836001600160a01b03168152602001826001600160a01b031681526020019250505060206040518083038186803b15801561245d57600080fd5b505afa158015612471573d6000803e3d6000fd5b505050506040513d602081101561248757600080fd5b50515b15612498579150610c649050565b50905090565b3b151590565b7f150b7a02000000000000000000000000000000000000000000000000000000006001600160a01b03841663150b7a026124dc611a51565b8786866040518563ffffffff1660e01b815260040180856001600160a01b03168152602001846001600160a01b0316815260200183815260200180602001828103825283818151815260200191508051906020019080838360005b8381101561254f578181015183820152602001612537565b50505050905090810190601f16801561257c5780820380516001836020036101000a031916815260200191505b5095505050505050602060405180830381600087803b15801561259e57600080fd5b505af11580156125b2573d6000803e3d6000fd5b505050506040513d60208110156125c857600080fd5b50516001600160e01b0319161461154c576040805162461bcd60e51b815260206004820152601860248201527f4552433732313a207472616e7366657220726566757365640000000000000000604482015290519081900360640190fd5b60008281526004602052604090205415612687576040805162461bcd60e51b815260206004820152601a60248201527f4552433732313a206578697374696e672f6275726e74204e4654000000000000604482015290519081900360640190fd5b60008281526004602052604090206001600160a01b038416905580610f2a5750506001600160a01b0316600090815260056020526040902080546001019055565b816126db6001600160a01b03821661249e565b61272c576040805162461bcd60e51b815260206004820152601a60248201527f4552433230577261707065723a206e6f6e2d636f6e7472616374000000000000604482015290519081900360640190fd5b600080826001600160a01b0316846040518082805190602001908083835b602083106127695780518252601f19909201916020918201910161274a565b6001836020036101000a0380198251168184511680821785525050505050509050019150506000604051808303816000865af19150503d80600081146127cb576040519150601f19603f3d011682016040523d82523d6000602084013e6127d0565b606091505b5091509150811561284f5780511561284a578080602001905160208110156127f757600080fd5b505161284a576040805162461bcd60e51b815260206004820152601e60248201527f4552433230577261707065723a206f7065726174696f6e206661696c65640000604482015290519081900360640190fd5b611800565b80516128a2576040805162461bcd60e51b815260206004820152601e60248201527f4552433230577261707065723a206f7065726174696f6e206661696c65640000604482015290519081900360640190fd5b80518082602001fd5b366000336001600160a01b037f00000000000000000000000000000000000000000000000000000000000000001681148061291757507f00000000000000000000000000000000000000000000000000000000000000006001600160a01b0316816001600160a01b0316145b1561292e57612924612b29565b9250925050612a0a565b6001600160a01b03811632148015906129f457507f00000000000000000000000000000000000000000000000000000000000000006001600160a01b031663e60125d6612979612b1d565b836040518363ffffffff1660e01b815260040180836001600160a01b03168152602001826001600160a01b031681526020019250505060206040518083038186803b1580156129c757600080fd5b505afa1580156129db573d6000803e3d6000fd5b505050506040513d60208110156129f157600080fd5b50515b15612a0157612924612b29565b60003692509250505b9091565b606081612a4f575060408051808201909152600181527f30000000000000000000000000000000000000000000000000000000000000006020820152610bcc565b8160005b8115612a6757600101600a82049150612a53565b60008167ffffffffffffffff81118015612a8057600080fd5b506040519080825280601f01601f191660200182016040528015612aab576020820181803683370190505b50859350905060001982015b8315612b1457600a840660300160f81b82828060019003935081518110612ada57fe5b60200101907effffffffffffffffffffffffffffffffffffffffffffffffffffffffffffff1916908160001a905350600a84049350612ab7565b50949350505050565b60131936013560601c90565b366000612b3c6013198301828481612be5565b915091509091565b828054600181600116156101000203166002900490600052602060002090601f016020900481019282612b7a5760008555612bc0565b82601f10612b935782800160ff19823516178555612bc0565b82800160010185558215612bc0579182015b82811115612bc0578235825591602001919060010190612ba5565b50612bcc929150612bd0565b5090565b5b80821115612bcc5760008155600101612bd1565b60008085851115612bf4578182fd5b83861115612c00578182fd5b505082019391909203915056fea2646970667358221220bde8b1fbe5ebc9d9809c39e17b0779da9d506bdba9bb4bdd7af8502eff7f1f6b64736f6c63430007060033",
  "linkReferences": {},
  "deployedLinkReferences": {}
}