{
  "_format": "hh-sol-artifact-1",
  "contractName": "ERC721BurnableMock",
  "sourceName": "contracts/mocks/token/ERC721/ERC721BurnableMock.sol",
  "abi": [
    {
      "inputs": [],
      "stateMutability": "nonpayable",
      "type": "constructor"
    },
    {
      "anonymous": false,
      "inputs": [
        {
          "indexed": true,
          "internalType": "address",
          "name": "_owner",
          "type": "address"
        },
        {
          "indexed": true,
          "internalType": "address",
          "name": "_approved",
          "type": "address"
        },
        {
          "indexed": true,
          "internalType": "uint256",
          "name": "_tokenId",
          "type": "uint256"
        }
      ],
      "name": "Approval",
      "type": "event"
    },
    {
      "anonymous": false,
      "inputs": [
        {
          "indexed": true,
          "internalType": "address",
          "name": "_owner",
          "type": "address"
        },
        {
          "indexed": true,
          "internalType": "address",
          "name": "_operator",
          "type": "address"
        },
        {
          "indexed": false,
          "internalType": "bool",
          "name": "_approved",
          "type": "bool"
        }
      ],
      "name": "ApprovalForAll",
      "type": "event"
    },
    {
      "anonymous": false,
      "inputs": [
        {
          "indexed": false,
          "internalType": "string",
          "name": "baseMetadataURI",
          "type": "string"
        }
      ],
      "name": "BaseMetadataURISet",
      "type": "event"
    },
    {
      "anonymous": false,
      "inputs": [
        {
          "indexed": true,
          "internalType": "address",
          "name": "account",
          "type": "address"
        }
      ],
      "name": "MinterAdded",
      "type": "event"
    },
    {
      "anonymous": false,
      "inputs": [
        {
          "indexed": true,
          "internalType": "address",
          "name": "account",
          "type": "address"
        }
      ],
      "name": "MinterRemoved",
      "type": "event"
    },
    {
      "anonymous": false,
      "inputs": [
        {
          "indexed": true,
          "internalType": "address",
          "name": "previousOwner",
          "type": "address"
        },
        {
          "indexed": true,
          "internalType": "address",
          "name": "newOwner",
          "type": "address"
        }
      ],
      "name": "OwnershipTransferred",
      "type": "event"
    },
    {
      "anonymous": false,
      "inputs": [
        {
          "indexed": true,
          "internalType": "address",
          "name": "_from",
          "type": "address"
        },
        {
          "indexed": true,
          "internalType": "address",
          "name": "_to",
          "type": "address"
        },
        {
          "indexed": true,
          "internalType": "uint256",
          "name": "_tokenId",
          "type": "uint256"
        }
      ],
      "name": "Transfer",
      "type": "event"
    },
    {
      "inputs": [
        {
          "internalType": "address",
          "name": "account",
          "type": "address"
        }
      ],
      "name": "addMinter",
      "outputs": [],
      "stateMutability": "nonpayable",
      "type": "function"
    },
    {
      "inputs": [
        {
          "internalType": "address",
          "name": "to",
          "type": "address"
        },
        {
          "internalType": "uint256",
          "name": "tokenId",
          "type": "uint256"
        }
      ],
      "name": "approve",
      "outputs": [],
      "stateMutability": "nonpayable",
      "type": "function"
    },
    {
      "inputs": [
        {
          "internalType": "address",
          "name": "owner",
          "type": "address"
        }
      ],
      "name": "balanceOf",
      "outputs": [
        {
          "internalType": "uint256",
          "name": "",
          "type": "uint256"
        }
      ],
      "stateMutability": "view",
      "type": "function"
    },
    {
      "inputs": [],
      "name": "baseMetadataURI",
      "outputs": [
        {
          "internalType": "string",
          "name": "",
          "type": "string"
        }
      ],
      "stateMutability": "view",
      "type": "function"
    },
    {
      "inputs": [
        {
          "internalType": "address",
          "name": "from",
          "type": "address"
        },
        {
          "internalType": "uint256[]",
          "name": "tokenIds",
          "type": "uint256[]"
        }
      ],
      "name": "batchBurnFrom",
      "outputs": [],
      "stateMutability": "nonpayable",
      "type": "function"
    },
    {
      "inputs": [
        {
          "internalType": "address",
          "name": "to",
          "type": "address"
        },
        {
          "internalType": "uint256[]",
          "name": "nftIds",
          "type": "uint256[]"
        }
      ],
      "name": "batchMint",
      "outputs": [],
      "stateMutability": "nonpayable",
      "type": "function"
    },
    {
      "inputs": [
        {
          "internalType": "address",
          "name": "from",
          "type": "address"
        },
        {
          "internalType": "address",
          "name": "to",
          "type": "address"
        },
        {
          "internalType": "uint256[]",
          "name": "tokenIds",
          "type": "uint256[]"
        }
      ],
      "name": "batchTransferFrom",
      "outputs": [],
      "stateMutability": "nonpayable",
      "type": "function"
    },
    {
      "inputs": [
        {
          "internalType": "address",
          "name": "from",
          "type": "address"
        },
        {
          "internalType": "uint256",
          "name": "tokenId",
          "type": "uint256"
        }
      ],
      "name": "burnFrom",
      "outputs": [],
      "stateMutability": "nonpayable",
      "type": "function"
    },
    {
      "inputs": [
        {
          "internalType": "uint256",
          "name": "tokenId",
          "type": "uint256"
        }
      ],
      "name": "getApproved",
      "outputs": [
        {
          "internalType": "address",
          "name": "",
          "type": "address"
        }
      ],
      "stateMutability": "view",
      "type": "function"
    },
    {
      "inputs": [
        {
          "internalType": "address",
          "name": "owner",
          "type": "address"
        },
        {
          "internalType": "address",
          "name": "operator",
          "type": "address"
        }
      ],
      "name": "isApprovedForAll",
      "outputs": [
        {
          "internalType": "bool",
          "name": "",
          "type": "bool"
        }
      ],
      "stateMutability": "view",
      "type": "function"
    },
    {
      "inputs": [
        {
          "internalType": "address",
          "name": "",
          "type": "address"
        }
      ],
      "name": "isMinter",
      "outputs": [
        {
          "internalType": "bool",
          "name": "",
          "type": "bool"
        }
      ],
      "stateMutability": "view",
      "type": "function"
    },
    {
      "inputs": [
        {
          "internalType": "address",
          "name": "to",
          "type": "address"
        },
        {
          "internalType": "uint256",
          "name": "nftId",
          "type": "uint256"
        }
      ],
      "name": "mint",
      "outputs": [],
      "stateMutability": "nonpayable",
      "type": "function"
    },
    {
      "inputs": [],
      "name": "name",
      "outputs": [
        {
          "internalType": "string",
          "name": "",
          "type": "string"
        }
      ],
      "stateMutability": "view",
      "type": "function"
    },
    {
      "inputs": [],
      "name": "owner",
      "outputs": [
        {
          "internalType": "address",
          "name": "",
          "type": "address"
        }
      ],
      "stateMutability": "view",
      "type": "function"
    },
    {
      "inputs": [
        {
          "internalType": "uint256",
          "name": "tokenId",
          "type": "uint256"
        }
      ],
      "name": "ownerOf",
      "outputs": [
        {
          "internalType": "address",
          "name": "",
          "type": "address"
        }
      ],
      "stateMutability": "view",
      "type": "function"
    },
    {
      "inputs": [],
      "name": "renounceMinter",
      "outputs": [],
      "stateMutability": "nonpayable",
      "type": "function"
    },
    {
      "inputs": [
        {
          "internalType": "address",
          "name": "to",
          "type": "address"
        },
        {
          "internalType": "uint256",
          "name": "nftId",
          "type": "uint256"
        },
        {
          "internalType": "bytes",
          "name": "data",
          "type": "bytes"
        }
      ],
      "name": "safeMint",
      "outputs": [],
      "stateMutability": "nonpayable",
      "type": "function"
    },
    {
      "inputs": [
        {
          "internalType": "address",
          "name": "from",
          "type": "address"
        },
        {
          "internalType": "address",
          "name": "to",
          "type": "address"
        },
        {
          "internalType": "uint256",
          "name": "tokenId",
          "type": "uint256"
        }
      ],
      "name": "safeTransferFrom",
      "outputs": [],
      "stateMutability": "nonpayable",
      "type": "function"
    },
    {
      "inputs": [
        {
          "internalType": "address",
          "name": "from",
          "type": "address"
        },
        {
          "internalType": "address",
          "name": "to",
          "type": "address"
        },
        {
          "internalType": "uint256",
          "name": "tokenId",
          "type": "uint256"
        },
        {
          "internalType": "bytes",
          "name": "data",
          "type": "bytes"
        }
      ],
      "name": "safeTransferFrom",
      "outputs": [],
      "stateMutability": "nonpayable",
      "type": "function"
    },
    {
      "inputs": [
        {
          "internalType": "address",
          "name": "operator",
          "type": "address"
        },
        {
          "internalType": "bool",
          "name": "approved",
          "type": "bool"
        }
      ],
      "name": "setApprovalForAll",
      "outputs": [],
      "stateMutability": "nonpayable",
      "type": "function"
    },
    {
      "inputs": [
        {
          "internalType": "string",
          "name": "baseMetadataURI_",
          "type": "string"
        }
      ],
      "name": "setBaseMetadataURI",
      "outputs": [],
      "stateMutability": "nonpayable",
      "type": "function"
    },
    {
      "inputs": [
        {
          "internalType": "bytes4",
          "name": "interfaceId",
          "type": "bytes4"
        }
      ],
      "name": "supportsInterface",
      "outputs": [
        {
          "internalType": "bool",
          "name": "",
          "type": "bool"
        }
      ],
      "stateMutability": "view",
      "type": "function"
    },
    {
      "inputs": [],
      "name": "symbol",
      "outputs": [
        {
          "internalType": "string",
          "name": "",
          "type": "string"
        }
      ],
      "stateMutability": "view",
      "type": "function"
    },
    {
      "inputs": [
        {
          "internalType": "uint256",
          "name": "nftId",
          "type": "uint256"
        }
      ],
      "name": "tokenURI",
      "outputs": [
        {
          "internalType": "string",
          "name": "",
          "type": "string"
        }
      ],
      "stateMutability": "view",
      "type": "function"
    },
    {
      "inputs": [
        {
          "internalType": "address",
          "name": "from",
          "type": "address"
        },
        {
          "internalType": "address",
          "name": "to",
          "type": "address"
        },
        {
          "internalType": "uint256",
          "name": "tokenId",
          "type": "uint256"
        }
      ],
      "name": "transferFrom",
      "outputs": [],
      "stateMutability": "nonpayable",
      "type": "function"
    },
    {
      "inputs": [
        {
          "internalType": "address",
          "name": "newOwner",
          "type": "address"
        }
      ],
      "name": "transferOwnership",
      "outputs": [],
      "stateMutability": "nonpayable",
      "type": "function"
    }
  ],
  "bytecode": "0x60806040523480156200001157600080fd5b5060408051808201825260128152714552433732314275726e61626c654d6f636b60701b602080830191825283518085019094526005845264229b9918a160d91b908401528151339384939290916200006d9160009162000130565b5080516200008390600190602084019062000130565b5050600680546001600160a01b0319166001600160a01b0384169081179091556040519091506000907f8be0079c531659141344cd1fd0a4f28419497f9722a3daafe3b4186f6b6457e0908290a350620000dd81620000e4565b50620001dc565b6001600160a01b038116600081815260086020526040808220805460ff19166001179055517f6ae172837ea30b801fbfcdd4108aa1d5bf8ff775444fd70256b44e6bf3dfc3f69190a250565b828054600181600116156101000203166002900490600052602060002090601f016020900481019282620001685760008555620001b3565b82601f106200018357805160ff1916838001178555620001b3565b82800160010185558215620001b3579182015b82811115620001b357825182559160200191906001019062000196565b50620001c1929150620001c5565b5090565b5b80821115620001c15760008155600101620001c6565b61210080620001ec6000396000f3fe608060405234801561001057600080fd5b50600436106101ae5760003560e01c80638832e6e3116100ee578063aa271e1a11610097578063e985e9c511610071578063e985e9c514610746578063f247296514610774578063f2fde38b14610827578063f3993d111461084d576101ae565b8063aa271e1a1461063d578063b88d4fde14610663578063c87b56dd14610729576101ae565b8063983b2d56116100c8578063983b2d56146105e15780639865027514610607578063a22cb4651461060f576101ae565b80638832e6e3146105165780638da5cb5b146105d157806395d89b41146105d9576101ae565b806342842e0e1161015b5780636352211e116101355780636352211e1461042557806370a082311461044257806379cc67901461047a5780637e518ec8146104a6576101ae565b806342842e0e146103345780634684d7e91461036a5780635b2bd79e1461041d576101ae565b8063095ea7b31161018c578063095ea7b3146102a457806323b872dd146102d257806340c10f1914610308576101ae565b806301ffc9a7146101b357806306fdde03146101ee578063081812fc1461026b575b600080fd5b6101da600480360360208110156101c957600080fd5b50356001600160e01b031916610909565b604080519115158252519081900360200190f35b6101f661094f565b6040805160208082528351818301528351919283929083019185019080838360005b83811015610230578181015183820152602001610218565b50505050905090810190601f16801561025d5780820380516001836020036101000a031916815260200191505b509250505060405180910390f35b6102886004803603602081101561028157600080fd5b50356109e5565b604080516001600160a01b039092168252519081900360200190f35b6102d0600480360360408110156102ba57600080fd5b506001600160a01b038135169060200135610a84565b005b6102d0600480360360608110156102e857600080fd5b506001600160a01b03813581169160208101359091169060400135610be1565b6102d06004803603604081101561031e57600080fd5b506001600160a01b038135169060200135610c03565b6102d06004803603606081101561034a57600080fd5b506001600160a01b03813581169160208101359091169060400135610c33565b6102d06004803603604081101561038057600080fd5b6001600160a01b0382351691908101906040810160208201356401000000008111156103ab57600080fd5b8201836020820111156103bd57600080fd5b803590602001918460208302840111640100000000831117156103df57600080fd5b919080806020026020016040519081016040528093929190818152602001838360200280828437600092019190915250929550610c50945050505050565b6101f6610c65565b6102886004803603602081101561043b57600080fd5b5035610cf3565b6104686004803603602081101561045857600080fd5b50356001600160a01b0316610d5d565b60408051918252519081900360200190f35b6102d06004803603604081101561049057600080fd5b506001600160a01b038135169060200135610dd6565b6102d0600480360360208110156104bc57600080fd5b8101906020810181356401000000008111156104d757600080fd5b8201836020820111156104e957600080fd5b8035906020019184600183028401116401000000008311171561050b57600080fd5b509092509050610e3b565b6102d06004803603606081101561052c57600080fd5b6001600160a01b038235169160208101359181019060608101604082013564010000000081111561055c57600080fd5b82018360208201111561056e57600080fd5b8035906020019184600183028401116401000000008311171561059057600080fd5b91908080601f016020809104026020016040519081016040528093929190818152602001838380828437600092019190915250929550610ebc945050505050565b610288610ed4565b6101f6610ee3565b6102d0600480360360208110156105f757600080fd5b50356001600160a01b0316610f43565b6102d0610f5a565b6102d06004803603604081101561062557600080fd5b506001600160a01b0381351690602001351515610fb8565b6101da6004803603602081101561065357600080fd5b50356001600160a01b0316611099565b6102d06004803603608081101561067957600080fd5b6001600160a01b038235811692602081013590911691604082013591908101906080810160608201356401000000008111156106b457600080fd5b8201836020820111156106c657600080fd5b803590602001918460018302840111640100000000831117156106e857600080fd5b91908080601f0160208091040260200160405190810160405280939291908181526020018383808284376000920191909152509295506110ae945050505050565b6101f66004803603602081101561073f57600080fd5b50356110c2565b6101da6004803603604081101561075c57600080fd5b506001600160a01b0381358116916020013516611137565b6102d06004803603604081101561078a57600080fd5b6001600160a01b0382351691908101906040810160208201356401000000008111156107b557600080fd5b8201836020820111156107c757600080fd5b803590602001918460208302840111640100000000831117156107e957600080fd5b919080806020026020016040519081016040528093929190818152602001838360200280828437600092019190915250929550611165945050505050565b6102d06004803603602081101561083d57600080fd5b50356001600160a01b0316611220565b6102d06004803603606081101561086357600080fd5b6001600160a01b03823581169260208101359091169181019060608101604082013564010000000081111561089757600080fd5b8201836020820111156108a957600080fd5b803590602001918460208302840111640100000000831117156108cb57600080fd5b919080806020026020016040519081016040528093929190818152602001838360200280828437600092019190915250929550611293945050505050565b60006001600160e01b031982167f8b8b4ef500000000000000000000000000000000000000000000000000000000148061094757506109478261139f565b90505b919050565b60008054604080516020601f60026000196101006001881615020190951694909404938401819004810282018101909252828152606093909290918301828280156109db5780601f106109b0576101008083540402835291602001916109db565b820191906000526020600020905b8154815290600101906020018083116109be57829003601f168201915b5050505050905090565b6000818152600360205260408120546001600160a01b038116610a4f576040805162461bcd60e51b815260206004820152601860248201527f4552433732313a206e6f6e2d6578697374696e67204e46540000000000000000604482015290519081900360640190fd5b600160a01b811615610a7a5750506000818152600560205260409020546001600160a01b031661094a565b600091505061094a565b6000610a8f82610cf3565b9050806001600160a01b0316836001600160a01b03161415610af8576040805162461bcd60e51b815260206004820152601560248201527f4552433732313a2073656c662d617070726f76616c0000000000000000000000604482015290519081900360640190fd5b610b0981610b0461146c565b611470565b610b5a576040805162461bcd60e51b815260206004820152601b60248201527f4552433732313a206e6f6e2d617070726f7665642073656e6465720000000000604482015290519081900360640190fd5b60008281526003602090815260408083206001600160a01b03808616600160a01b8117909255600590935281842080549388167fffffffffffffffffffffffff000000000000000000000000000000000000000090941684179055905185937f8c5be1e5ebec7d5bd14f71427d1e84f3dd0314c0f7b2291e5b200ac8c7c3b92591a4505050565b610bfe8383836040518060200160405280600081525060006114be565b505050565b610c13610c0e61146c565b6115b6565b610c2f8282604051806020016040528060008152506000611623565b5050565b610bfe8383836040518060200160405280600081525060016114be565b610c5b610c0e61146c565b610c2f82826116ee565b6007805460408051602060026001851615610100026000190190941693909304601f81018490048402820184019092528181529291830182828015610ceb5780601f10610cc057610100808354040283529160200191610ceb565b820191906000526020600020905b815481529060010190602001808311610cce57829003601f168201915b505050505081565b6000818152600360205260408120546001600160a01b038116610947576040805162461bcd60e51b815260206004820152601860248201527f4552433732313a206e6f6e2d6578697374696e67204e46540000000000000000604482015290519081900360640190fd5b60006001600160a01b038216610dba576040805162461bcd60e51b815260206004820152601460248201527f4552433732313a207a65726f2061646472657373000000000000000000000000604482015290519081900360640190fd5b506001600160a01b031660009081526004602052604090205490565b6000610de061146c565b90506000610dee8483611470565b9050610dfd8484836000611840565b60405183906000906001600160a01b038716907fddf252ad1be2c89b69c2b068fc378daa952ba7f163c4a11628f55a4df523b3ef908390a450505050565b610e4b610e4661146c565b61199b565b610e5760078383612029565b507f04b1dc5c136a3ce9fded8db0ce3d3366c58764ec3a8e4c2b9e52e4ddfe5ebbf7828260405180806020018281038252848482818152602001925080828437600083820152604051601f909101601f19169092018290039550909350505050a15050565b610ec7610c0e61146c565b610bfe8383836001611623565b6006546001600160a01b031690565b60018054604080516020601f600260001961010087891615020190951694909404938401819004810282018101909252828152606093909290918301828280156109db5780601f106109b0576101008083540402835291602001916109db565b610f4e610e4661146c565b610f5781611a5f565b50565b6000610f6461146c565b9050610f6f816115b6565b6001600160a01b038116600081815260086020526040808220805460ff19169055517fe94479a9f7e1952cc78f2d6baab678adc1b772d936c6583def489e524cb666929190a250565b6000610fc261146c565b9050806001600160a01b0316836001600160a01b0316141561102b576040805162461bcd60e51b815260206004820152601560248201527f4552433732313a2073656c662d617070726f76616c0000000000000000000000604482015290519081900360640190fd5b6001600160a01b03818116600081815260026020908152604080832094881680845294825291829020805460ff1916871515908117909155825190815291517f17307eab39ab6107e8899845ad3d59bd9653f200f220920489ca2b5937696c319281900390910190a3505050565b60086020526000908152604090205460ff1681565b6110bc8484848460016114be565b50505050565b6000818152600360205260409020546060906001600160a01b031661112e576040805162461bcd60e51b815260206004820152601860248201527f4552433732313a206e6f6e2d6578697374696e67204e46540000000000000000604482015290519081900360640190fd5b61094782611aab565b6001600160a01b03918216600090815260026020908152604080832093909416825291909152205460ff1690565b600061116f61146c565b9050600061117d8483611470565b835190915060005b8181146111f257600085828151811061119a57fe5b602002602001015190506111b18782866001611840565b60405181906000906001600160a01b038a16907fddf252ad1be2c89b69c2b068fc378daa952ba7f163c4a11628f55a4df523b3ef908390a450600101611185565b508015611219576001600160a01b0385166000908152600460205260409020805482900390555b5050505050565b61122b610e4661146c565b600680547fffffffffffffffffffffffff0000000000000000000000000000000000000000166001600160a01b0383811691821792839055604051919216907f8be0079c531659141344cd1fd0a4f28419497f9722a3daafe3b4186f6b6457e090600090a350565b6001600160a01b0382166112ee576040805162461bcd60e51b815260206004820152601860248201527f4552433732313a207472616e7366657220746f207a65726f0000000000000000604482015290519081900360640190fd5b60006112f861146c565b905060006113068583611470565b835190915060005b81811461138557600085828151811061132357fe5b6020026020010151905061133b888883876001611b7e565b80876001600160a01b0316896001600160a01b03167fddf252ad1be2c89b69c2b068fc378daa952ba7f163c4a11628f55a4df523b3ef60405160405180910390a45060010161130e565b50801561139757611397868683611ca5565b505050505050565b60006001600160e01b031982167f01ffc9a700000000000000000000000000000000000000000000000000000000148061140257506001600160e01b031982167f80ac58cd00000000000000000000000000000000000000000000000000000000145b8061143657506001600160e01b031982167f5b5e139f00000000000000000000000000000000000000000000000000000000145b806109475750506001600160e01b0319167ff3993d11000000000000000000000000000000000000000000000000000000001490565b3390565b6000816001600160a01b0316836001600160a01b031614806114b757506001600160a01b0380841660009081526002602090815260408083209386168352929052205460ff165b9392505050565b6001600160a01b038416611519576040805162461bcd60e51b815260206004820152601860248201527f4552433732313a207472616e7366657220746f207a65726f0000000000000000604482015290519081900360640190fd5b600061152361146c565b905060006115318783611470565b9050611541878787846000611b7e565b84866001600160a01b0316886001600160a01b03167fddf252ad1be2c89b69c2b068fc378daa952ba7f163c4a11628f55a4df523b3ef60405160405180910390a482801561159c575061159c866001600160a01b0316611cf0565b156115ad576115ad87878787611cf6565b50505050505050565b6001600160a01b03811660009081526008602052604090205460ff16610f57576040805162461bcd60e51b815260206004820152601860248201527f4d696e746572526f6c653a206e6f742061204d696e7465720000000000000000604482015290519081900360640190fd5b6001600160a01b03841661167e576040805162461bcd60e51b815260206004820152601460248201527f4552433732313a206d696e7420746f207a65726f000000000000000000000000604482015290519081900360640190fd5b61168a84846000611e78565b60405183906001600160a01b038616906000907fddf252ad1be2c89b69c2b068fc378daa952ba7f163c4a11628f55a4df523b3ef908290a48080156116dc57506116dc846001600160a01b0316611cf0565b156110bc576110bc6000858585611cf6565b6001600160a01b038216611749576040805162461bcd60e51b815260206004820152601460248201527f4552433732313a206d696e7420746f207a65726f000000000000000000000000604482015290519081900360640190fd5b805160008167ffffffffffffffff8111801561176457600080fd5b5060405190808252806020026020018201604052801561178e578160200160208202803683370190505b50905060005b82811461181a5760008482815181106117a957fe5b6020026020010151905060018383815181106117c157fe5b6020026020010181815250506117d986826001611e78565b60405181906001600160a01b038816906000907fddf252ad1be2c89b69c2b068fc378daa952ba7f163c4a11628f55a4df523b3ef908290a450600101611794565b50506001600160a01b039092166000908152600460205260409020805490920190915550565b6000838152600360205260409020546001600160a01b03858116908216146118af576040805162461bcd60e51b815260206004820152601560248201527f4552433732313a206e6f6e2d6f776e6564204e46540000000000000000000000604482015290519081900360640190fd5b8261194057600160a01b8116158015906118ef57506000848152600560205260409020546001600160a01b03166118e461146c565b6001600160a01b0316145b611940576040805162461bcd60e51b815260206004820152601b60248201527f4552433732313a206e6f6e2d617070726f7665642073656e6465720000000000604482015290519081900360640190fd5b60008481526003602052604090207fdead00000000000000000000000000000000000000000000000000000000000090558161121957505050506001600160a01b031660009081526004602052604090208054600019019055565b306001600160a01b0316638da5cb5b6040518163ffffffff1660e01b815260040160206040518083038186803b1580156119d457600080fd5b505afa1580156119e8573d6000803e3d6000fd5b505050506040513d60208110156119fe57600080fd5b50516001600160a01b03828116911614610f57576040805162461bcd60e51b815260206004820152601660248201527f4f776e61626c653a206e6f7420746865206f776e657200000000000000000000604482015290519081900360640190fd5b6001600160a01b038116600081815260086020526040808220805460ff19166001179055517f6ae172837ea30b801fbfcdd4108aa1d5bf8ff775444fd70256b44e6bf3dfc3f69190a250565b60606007611ab883611f1a565b6040516020018083805460018160011615610100020316600290048015611b165780601f10611af4576101008083540402835291820191611b16565b820191906000526020600020905b815481529060010190602001808311611b02575b5050825160208401908083835b60208310611b425780518252601f199092019160209182019101611b23565b6001836020036101000a038019825116818451168082178552505050505050905001925050506040516020818303038152906040529050919050565b6000838152600360205260409020546001600160a01b0386811690821614611bed576040805162461bcd60e51b815260206004820152601560248201527f4552433732313a206e6f6e2d6f776e6564204e46540000000000000000000000604482015290519081900360640190fd5b82611c7e57600160a01b811615801590611c2d57506000848152600560205260409020546001600160a01b0316611c2261146c565b6001600160a01b0316145b611c7e576040805162461bcd60e51b815260206004820152601b60248201527f4552433732313a206e6f6e2d617070726f7665642073656e6465720000000000604482015290519081900360640190fd5b60008481526003602052604090206001600160a01b03861690558161139757611397868660015b816001600160a01b0316836001600160a01b031614610bfe576001600160a01b0380841660009081526004602052604080822080548590039055918416815220805482019055505050565b3b151590565b7f150b7a02000000000000000000000000000000000000000000000000000000006001600160a01b03841663150b7a02611d2e61146c565b8786866040518563ffffffff1660e01b815260040180856001600160a01b03168152602001846001600160a01b0316815260200183815260200180602001828103825283818151815260200191508051906020019080838360005b83811015611da1578181015183820152602001611d89565b50505050905090810190601f168015611dce5780820380516001836020036101000a031916815260200191505b5095505050505050602060405180830381600087803b158015611df057600080fd5b505af1158015611e04573d6000803e3d6000fd5b505050506040513d6020811015611e1a57600080fd5b50516001600160e01b031916146110bc576040805162461bcd60e51b815260206004820152601860248201527f4552433732313a207472616e7366657220726566757365640000000000000000604482015290519081900360640190fd5b60008281526003602052604090205415611ed9576040805162461bcd60e51b815260206004820152601a60248201527f4552433732313a206578697374696e672f6275726e74204e4654000000000000604482015290519081900360640190fd5b60008281526003602052604090206001600160a01b038416905580610bfe5750506001600160a01b0316600090815260046020526040902080546001019055565b606081611f5b575060408051808201909152600181527f3000000000000000000000000000000000000000000000000000000000000000602082015261094a565b8160005b8115611f7357600101600a82049150611f5f565b60008167ffffffffffffffff81118015611f8c57600080fd5b506040519080825280601f01601f191660200182016040528015611fb7576020820181803683370190505b50859350905060001982015b831561202057600a840660300160f81b82828060019003935081518110611fe657fe5b60200101907effffffffffffffffffffffffffffffffffffffffffffffffffffffffffffff1916908160001a905350600a84049350611fc3565b50949350505050565b828054600181600116156101000203166002900490600052602060002090601f01602090048101928261205f57600085556120a5565b82601f106120785782800160ff198235161785556120a5565b828001600101855582156120a5579182015b828111156120a557823582559160200191906001019061208a565b506120b19291506120b5565b5090565b5b808211156120b157600081556001016120b656fea2646970667358221220f226c3d5f1aea9e422996f980e5d29bab81579fac63b4a578a957adb6adc1af964736f6c63430007060033",
  "linkReferences": {},
  "deployedLinkReferences": {}
}