{
  "_format": "hh-sol-artifact-1",
  "contractName": "ERC1155TokenReceiverMock",
  "sourceName": "contracts/mocks/token/ERC1155/ERC1155TokenReceiverMock.sol",
  "abi": [
    {
      "inputs": [
        {
          "internalType": "bool",
          "name": "accept1155",
          "type": "bool"
        }
      ],
      "stateMutability": "nonpayable",
      "type": "constructor"
    },
    {
      "anonymous": false,
      "inputs": [
        {
          "indexed": false,
          "internalType": "address",
          "name": "operator",
          "type": "address"
        },
        {
          "indexed": false,
          "internalType": "address",
          "name": "from",
          "type": "address"
        },
        {
          "indexed": false,
          "internalType": "uint256[]",
          "name": "ids",
          "type": "uint256[]"
        },
        {
          "indexed": false,
          "internalType": "uint256[]",
          "name": "values",
          "type": "uint256[]"
        },
        {
          "indexed": false,
          "internalType": "bytes",
          "name": "data",
          "type": "bytes"
        },
        {
          "indexed": false,
          "internalType": "uint256",
          "name": "gas",
          "type": "uint256"
        }
      ],
      "name": "ReceivedBatch",
      "type": "event"
    },
    {
      "anonymous": false,
      "inputs": [
        {
          "indexed": false,
          "internalType": "address",
          "name": "operator",
          "type": "address"
        },
        {
          "indexed": false,
          "internalType": "address",
          "name": "from",
          "type": "address"
        },
        {
          "indexed": false,
          "internalType": "uint256",
          "name": "id",
          "type": "uint256"
        },
        {
          "indexed": false,
          "internalType": "uint256",
          "name": "value",
          "type": "uint256"
        },
        {
          "indexed": false,
          "internalType": "bytes",
          "name": "data",
          "type": "bytes"
        },
        {
          "indexed": false,
          "internalType": "uint256",
          "name": "gas",
          "type": "uint256"
        }
      ],
      "name": "ReceivedSingle",
      "type": "event"
    },
    {
      "inputs": [
        {
          "internalType": "bytes32",
          "name": "c__0xd04909f6",
          "type": "bytes32"
        }
      ],
      "name": "c_0xd04909f6",
      "outputs": [],
      "stateMutability": "pure",
      "type": "function"
    },
    {
      "inputs": [
        {
          "internalType": "bytes32",
          "name": "c__0xf6b3f458",
          "type": "bytes32"
        }
      ],
      "name": "c_0xf6b3f458",
      "outputs": [],
      "stateMutability": "pure",
      "type": "function"
    },
    {
      "inputs": [
        {
          "internalType": "address",
          "name": "operator",
          "type": "address"
        },
        {
          "internalType": "address",
          "name": "from",
          "type": "address"
        },
        {
          "internalType": "uint256[]",
          "name": "ids",
          "type": "uint256[]"
        },
        {
          "internalType": "uint256[]",
          "name": "values",
          "type": "uint256[]"
        },
        {
          "internalType": "bytes",
          "name": "data",
          "type": "bytes"
        }
      ],
      "name": "onERC1155BatchReceived",
      "outputs": [
        {
          "internalType": "bytes4",
          "name": "",
          "type": "bytes4"
        }
      ],
      "stateMutability": "nonpayable",
      "type": "function"
    },
    {
      "inputs": [
        {
          "internalType": "address",
          "name": "operator",
          "type": "address"
        },
        {
          "internalType": "address",
          "name": "from",
          "type": "address"
        },
        {
          "internalType": "uint256",
          "name": "id",
          "type": "uint256"
        },
        {
          "internalType": "uint256",
          "name": "value",
          "type": "uint256"
        },
        {
          "internalType": "bytes",
          "name": "data",
          "type": "bytes"
        }
      ],
      "name": "onERC1155Received",
      "outputs": [
        {
          "internalType": "bytes4",
          "name": "",
          "type": "bytes4"
        }
      ],
      "stateMutability": "nonpayable",
      "type": "function"
    },
    {
      "inputs": [
        {
          "internalType": "bytes4",
          "name": "interfaceId",
          "type": "bytes4"
        }
      ],
      "name": "supportsInterface",
      "outputs": [
        {
          "internalType": "bool",
          "name": "",
          "type": "bool"
        }
      ],
      "stateMutability": "view",
      "type": "function"
    }
  ],
  "bytecode": "0x608060405234801561001057600080fd5b50604051610dfa380380610dfa8339818101604052602081101561003357600080fd5b81019080805190602001909291905050506100767f20e7402757f71af2d47e967c32aca11610e936dd8bf789b9d1a93ad3b5d9662660001b6100f960201b60201c565b6100a87ff097ef571622f85cdb2e43c796ac318026d759e927ec095d5db75015c68f21be60001b6100f960201b60201c565b6100da7f785b4565fa0040876b6bea1dc70c6d4737fd9bb312c478c9008ede803d7921a960001b6100f960201b60201c565b806000806101000a81548160ff021916908315150217905550506100fc565b50565b610cef8061010b6000396000f3fe608060405234801561001057600080fd5b50600436106100675760003560e01c8063e3670d4811610050578063e3670d4814610325578063e58ea42b14610353578063f23a6e611461038157610067565b806301ffc9a71461006c578063bc197c81146100cf575b600080fd5b6100b76004803603602081101561008257600080fd5b8101908080357bffffffffffffffffffffffffffffffffffffffffffffffffffffffff191690602001909291905050506104c3565b60405180821515815260200191505060405180910390f35b6102f0600480360360a08110156100e557600080fd5b81019080803573ffffffffffffffffffffffffffffffffffffffff169060200190929190803573ffffffffffffffffffffffffffffffffffffffff1690602001909291908035906020019064010000000081111561014257600080fd5b82018360208201111561015457600080fd5b8035906020019184602083028401116401000000008311171561017657600080fd5b919080806020026020016040519081016040528093929190818152602001838360200280828437600081840152601f19601f820116905080830192505050505050509192919290803590602001906401000000008111156101d657600080fd5b8201836020820111156101e857600080fd5b8035906020019184602083028401116401000000008311171561020a57600080fd5b919080806020026020016040519081016040528093929190818152602001838360200280828437600081840152601f19601f8201169050808301925050505050505091929192908035906020019064010000000081111561026a57600080fd5b82018360208201111561027c57600080fd5b8035906020019184600183028401116401000000008311171561029e57600080fd5b91908080601f016020809104026020016040519081016040528093929190818152602001838380828437600081840152601f19601f820116905080830192505050505050509192919290505050610619565b60405180827bffffffffffffffffffffffffffffffffffffffffffffffffffffffff1916815260200191505060405180910390f35b6103516004803603602081101561033b57600080fd5b81019080803590602001909291905050506109a7565b005b61037f6004803603602081101561036957600080fd5b81019080803590602001909291905050506109aa565b005b61048e600480360360a081101561039757600080fd5b81019080803573ffffffffffffffffffffffffffffffffffffffff169060200190929190803573ffffffffffffffffffffffffffffffffffffffff16906020019092919080359060200190929190803590602001909291908035906020019064010000000081111561040857600080fd5b82018360208201111561041a57600080fd5b8035906020019184600183028401116401000000008311171561043c57600080fd5b91908080601f016020809104026020016040519081016040528093929190818152602001838380828437600081840152601f19601f8201169050808301925050505050505091929192905050506109ad565b60405180827bffffffffffffffffffffffffffffffffffffffffffffffffffffffff1916815260200191505060405180910390f35b60006104f17faf06a9661a04b72e573adc0d5bcbde5908996181ae4a225df526f9ceeddc533d60001b6109a7565b61051d7f2fc1f7d391a2b5a8e00642c5433a90b5880ceab46288711b76e6d7b11abb387f60001b6109a7565b6105497f8be486d2fcf7db67e0def2537031f96ba9f24748dc4d1e2db0b00f424b9f478560001b6109a7565b7f01ffc9a7000000000000000000000000000000000000000000000000000000007bffffffffffffffffffffffffffffffffffffffffffffffffffffffff1916827bffffffffffffffffffffffffffffffffffffffffffffffffffffffff1916148061061257507f4e2312e0000000000000000000000000000000000000000000000000000000007bffffffffffffffffffffffffffffffffffffffffffffffffffffffff1916827bffffffffffffffffffffffffffffffffffffffffffffffffffffffff1916145b9050919050565b60006106477f268921dc3b6b7f823d5c1d650f2b99a6ffa4d2fc4a03b998c54f6265d2660e1260001b6109aa565b6106737f75d22802983d62a716880d857485bc5f06c351c452bdd1cf94247d41c04a76bc60001b6109aa565b61069f7f0c399f2b5755994b2488fa170518344183e9d25415b325f2afec15af21131fde60001b6109aa565b60008054906101000a900460ff161561090f576106de7feb16ab3e1df78eaf99198c36212a24993e2f7c5c35be5ed418f37a0c8e41e2ea60001b6109aa565b61070a7fe40f0cac2be6ef65f4af0717525437d39b52202ca7d277e65b09682426f57c1960001b6109aa565b6107367f90301123677847cf3237906ce0beecc7c03d4de380e5065bc31fa0ce3102f63e60001b6109aa565b7f8667b06aa891a7720ada21ca62207388e6c8bd0ebee8a3d70ed6d3382e1e375386868686865a604051808773ffffffffffffffffffffffffffffffffffffffff1681526020018673ffffffffffffffffffffffffffffffffffffffff168152602001806020018060200180602001858152602001848103845288818151815260200191508051906020019060200280838360005b838110156107e65780820151818401526020810190506107cb565b50505050905001848103835287818151815260200191508051906020019060200280838360005b8381101561082857808201518184015260208101905061080d565b50505050905001848103825286818151815260200191508051906020019080838360005b8381101561086757808201518184015260208101905061084c565b50505050905090810190601f1680156108945780820380516001836020036101000a031916815260200191505b50995050505050505050505060405180910390a16108d47f9f9bdea00f881f3a743fdf7a23852acb668fa165e8298e05603a1bd92d39167560001b6109aa565b6109007f0f3eaf975c18bbc93f36edc81fc4c5e86b587395d6326139a6c7216d995d50af60001b6109aa565b63bc197c8160e01b905061099e565b61093b7fe6f03d3424267762bda8da7419f122e30cb0688141158fe91f3a4888572372ba60001b6109aa565b6109677f7cd751a0be3455cf2cfd69152abcea72529a3ecacc86e478e4b6a014fbdf0b3e60001b6109aa565b6109937f43514178156a8e030cbfed24261d1f560882090fbfd64db850622020fd465c1560001b6109aa565b63ffffffff60e01b90505b95945050505050565b50565b50565b60006109db7f3d91153291013f4bfc3d130818f87bb8bd8d124c467303481fb1a6ec9977597b60001b6109aa565b610a077f4e6866de8a08c2cd1f33c6c9aa35146db6d0e898a6db7459983eb705699deb1b60001b6109aa565b610a337f571687d57a84640a8dfc954d8c8139960b657ad573d06bebf08c9d0bff4cd9b160001b6109aa565b60008054906101000a900460ff1615610c2157610a727fcc428275cd0199262ec149127b800b653d578c9d895de6dd3394256749c788b760001b6109aa565b610a9e7ff0c6a7e60ae9a49c1015f2e5e3f4ee219cbb86be61feb1b312ad8957e8c2155560001b6109aa565b610aca7f82ceb0e18c6f2740c15fdb7f51595f35af9b0637dbbe938a5bab0bdca8d164fd60001b6109aa565b7fbafaa6e1c57bb05a9b952e12b8ff1bcbfd2a0d9f6c8097c6fb28e241610cac5286868686865a604051808773ffffffffffffffffffffffffffffffffffffffff1681526020018673ffffffffffffffffffffffffffffffffffffffff16815260200185815260200184815260200180602001838152602001828103825284818151815260200191508051906020019080838360005b83811015610b7b578082015181840152602081019050610b60565b50505050905090810190601f168015610ba85780820380516001836020036101000a031916815260200191505b5097505050505050505060405180910390a1610be67f7eb443a0ae1a53f5edcea2321a5cb9423e44b7fd56745896b99517c26ecc139f60001b6109aa565b610c127fa11abcc75dd1bc6488438b03c98ff6a8b451277e4c365bcfe8cc1829a389e09e60001b6109aa565b63f23a6e6160e01b9050610cb0565b610c4d7f0cb029eafd6953fe2ef9a7c604cc683f3a035d5a6b5f1776468d479428e5b94560001b6109aa565b610c797f60ca08d4ed69d7d52e5a5a49e614cae0eb0a85b53439baafba23d98c7bfdd77260001b6109aa565b610ca57fdcaadc418ddd6d13551a711dac76d47939816dbab59d0eb96abf0078651f27e660001b6109aa565b63ffffffff60e01b90505b9594505050505056fea26469706673582212209dc808f515a036c44f85401338ca5d364a5f76817b03ea1f36dbfb4148ef1c1a64736f6c63430007060033",
  "linkReferences": {},
  "deployedLinkReferences": {}
}