{
  "_format": "hh-sol-artifact-1",
  "contractName": "TrustlessNFTDelegationRegistry",
  "sourceName": "contracts/token/utils/TrustlessNFTDelegationRegistry.sol",
  "abi": [
    {
      "anonymous": false,
      "inputs": [
        {
          "indexed": false,
          "internalType": "address",
          "name": "owner",
          "type": "address"
        },
        {
          "indexed": false,
          "internalType": "address",
          "name": "user",
          "type": "address"
        },
        {
          "indexed": false,
          "internalType": "address",
          "name": "nftContract",
          "type": "address"
        },
        {
          "indexed": false,
          "internalType": "uint256[]",
          "name": "tokenIds",
          "type": "uint256[]"
        },
        {
          "indexed": false,
          "internalType": "contract INFTDelegationManager",
          "name": "delegationManager",
          "type": "address"
        },
        {
          "indexed": false,
          "internalType": "bytes",
          "name": "data",
          "type": "bytes"
        }
      ],
      "name": "BatchDelegation",
      "type": "event"
    },
    {
      "anonymous": false,
      "inputs": [
        {
          "indexed": false,
          "internalType": "address",
          "name": "owner",
          "type": "address"
        },
        {
          "indexed": false,
          "internalType": "address",
          "name": "user",
          "type": "address"
        },
        {
          "indexed": false,
          "internalType": "address",
          "name": "nftContract",
          "type": "address"
        },
        {
          "indexed": false,
          "internalType": "uint256",
          "name": "tokenId",
          "type": "uint256"
        },
        {
          "indexed": false,
          "internalType": "contract INFTDelegationManager",
          "name": "delegationManager",
          "type": "address"
        },
        {
          "indexed": false,
          "internalType": "bytes",
          "name": "data",
          "type": "bytes"
        }
      ],
      "name": "SingleDelegation",
      "type": "event"
    },
    {
      "inputs": [
        {
          "internalType": "address",
          "name": "nftContract",
          "type": "address"
        },
        {
          "internalType": "uint256",
          "name": "tokenId",
          "type": "uint256"
        }
      ],
      "name": "delegationInfo",
      "outputs": [
        {
          "internalType": "address",
          "name": "owner",
          "type": "address"
        },
        {
          "internalType": "address",
          "name": "user",
          "type": "address"
        },
        {
          "internalType": "bytes",
          "name": "data",
          "type": "bytes"
        }
      ],
      "stateMutability": "view",
      "type": "function"
    },
    {
      "inputs": [
        {
          "internalType": "address",
          "name": "",
          "type": "address"
        },
        {
          "internalType": "uint256",
          "name": "",
          "type": "uint256"
        }
      ],
      "name": "lastDelegationManagerUsed",
      "outputs": [
        {
          "internalType": "contract INFTDelegationManager",
          "name": "",
          "type": "address"
        }
      ],
      "stateMutability": "view",
      "type": "function"
    },
    {
      "inputs": [
        {
          "internalType": "address",
          "name": "owner",
          "type": "address"
        },
        {
          "internalType": "address",
          "name": "user",
          "type": "address"
        },
        {
          "internalType": "address",
          "name": "nftContract",
          "type": "address"
        },
        {
          "internalType": "uint256[]",
          "name": "tokenIds",
          "type": "uint256[]"
        },
        {
          "internalType": "bytes",
          "name": "data",
          "type": "bytes"
        }
      ],
      "name": "onBatchDelegation",
      "outputs": [],
      "stateMutability": "nonpayable",
      "type": "function"
    },
    {
      "inputs": [
        {
          "internalType": "address",
          "name": "owner",
          "type": "address"
        },
        {
          "internalType": "address",
          "name": "user",
          "type": "address"
        },
        {
          "internalType": "address",
          "name": "nftContract",
          "type": "address"
        },
        {
          "internalType": "uint256",
          "name": "tokenId",
          "type": "uint256"
        },
        {
          "internalType": "bytes",
          "name": "data",
          "type": "bytes"
        }
      ],
      "name": "onSingleDelegation",
      "outputs": [],
      "stateMutability": "nonpayable",
      "type": "function"
    },
    {
      "inputs": [
        {
          "internalType": "address",
          "name": "nftContract",
          "type": "address"
        },
        {
          "internalType": "contract INFTDelegationManager",
          "name": "delegationManager",
          "type": "address"
        },
        {
          "internalType": "bool",
          "name": "registered",
          "type": "bool"
        }
      ],
      "name": "registerDelegationManager",
      "outputs": [],
      "stateMutability": "nonpayable",
      "type": "function"
    },
    {
      "inputs": [
        {
          "internalType": "address",
          "name": "",
          "type": "address"
        },
        {
          "internalType": "contract INFTDelegationManager",
          "name": "",
          "type": "address"
        }
      ],
      "name": "registeredDelegationManagers",
      "outputs": [
        {
          "internalType": "bool",
          "name": "",
          "type": "bool"
        }
      ],
      "stateMutability": "view",
      "type": "function"
    }
  ],
  "bytecode": "0x608060405234801561001057600080fd5b50610a2c806100206000396000f3fe608060405234801561001057600080fd5b50600436106100725760003560e01c80638a8940c9116100505780638a8940c9146102625780638b24f40f1461029a578063bd44facd1461033257610072565b806320f06f671461007757806340aeb1231461015c5780636ff1396714610220575b600080fd5b61015a600480360360a081101561008d57600080fd5b6001600160a01b03823581169260208101358216926040820135909216918101906080810160608201356401000000008111156100c957600080fd5b8201836020820111156100db57600080fd5b803590602001918460208302840111640100000000831117156100fd57600080fd5b91939092909160208101903564010000000081111561011b57600080fd5b82018360208201111561012d57600080fd5b8035906020019184600183028401116401000000008311171561014f57600080fd5b50909250905061037a565b005b6101886004803603604081101561017257600080fd5b506001600160a01b038135169060200135610543565b60405180846001600160a01b03168152602001836001600160a01b0316815260200180602001828103825283818151815260200191508051906020019080838360005b838110156101e35781810151838201526020016101cb565b50505050905090810190601f1680156102105780820380516001836020036101000a031916815260200191505b5094505050505060405180910390f35b61024e6004803603604081101561023657600080fd5b506001600160a01b0381358116916020013516610705565b604080519115158252519081900360200190f35b61015a6004803603606081101561027857600080fd5b506001600160a01b038135811691602081013590911690604001351515610722565b61015a600480360360a08110156102b057600080fd5b6001600160a01b03823581169260208101358216926040820135909216916060820135919081019060a0810160808201356401000000008111156102f357600080fd5b82018360208201111561030557600080fd5b8035906020019184600183028401116401000000008311171561032757600080fd5b5090925090506107d3565b61035e6004803603604081101561034857600080fd5b506001600160a01b038135169060200135610938565b604080516001600160a01b039092168252519081900360200190f35b6001600160a01b0385166000908152602081815260408083203380855292529091205460ff166103f1576040805162461bcd60e51b815260206004820152600b60248201527f6e6f7420616c6c6f776564000000000000000000000000000000000000000000604482015290519081900360640190fd5b60005b808514610465576001600160a01b0387166000908152600160205260408120839188888581811061042157fe5b90506020020135815260200190815260200160002060006101000a8154816001600160a01b0302191690836001600160a01b031602179055508060010190506103f4565b507f2cf34ff0b3486c195c55cfd823890bad7f46b24bee3af9ce7bcd005c9a2ff9fd888888888886898960405180896001600160a01b03168152602001886001600160a01b03168152602001876001600160a01b0316815260200180602001856001600160a01b03168152602001806020018381038352888882818152602001925060200280828437600083820152601f01601f191690910184810383528581526020019050858580828437600083820152604051601f909101601f19169092018290039c50909a5050505050505050505050a15050505050505050565b6001600160a01b038083166000908152600160209081526040808320858452909152812054909182916060911680158015906105a257506001600160a01b038087166000908152602081815260408083209385168352929052205460ff165b156106fd57806001600160a01b03166340aeb12387876040518363ffffffff1660e01b815260040180836001600160a01b031681526020018281526020019250505060006040518083038186803b1580156105fc57600080fd5b505afa158015610610573d6000803e3d6000fd5b505050506040513d6000823e601f3d908101601f19168201604052606081101561063957600080fd5b8151602083015160408085018051915193959294830192918464010000000082111561066457600080fd5b90830190602082018581111561067957600080fd5b825164010000000081118282018810171561069357600080fd5b82525081516020918201929091019080838360005b838110156106c05781810151838201526020016106a8565b50505050905090810190601f1680156106ed5780820380516001836020036101000a031916815260200191505b5060405250939750919550935050505b509250925092565b600060208181529281526040808220909352908152205460ff1681565b61072c338461095e565b61077d576040805162461bcd60e51b815260206004820152600b60248201527f6e6f7420616c6c6f776564000000000000000000000000000000000000000000604482015290519081900360640190fd5b6001600160a01b039283166000908152602081815260408083209490951682529290925291902080547fffffffffffffffffffffffffffffffffffffffffffffffffffffffffffffff0016911515919091179055565b6001600160a01b0384166000908152602081815260408083203380855292529091205460ff1661084a576040805162461bcd60e51b815260206004820152600b60248201527f6e6f7420616c6c6f776564000000000000000000000000000000000000000000604482015290519081900360640190fd5b6001600160a01b03858116600081815260016020908152604080832089845282529182902080547fffffffffffffffffffffffff00000000000000000000000000000000000000001686861690811790915582518c86168152948b16918501919091529083019190915260608201869052608082015260c060a082018181529082018490527f9a8ac8cf3721cbc96481b6d2a816b83e713e1b5a3d4ed8271c4c5cfa5401cac791899189918991899187918a918a9160e08201848480828437600083820152604051601f909101601f19169092018290039a509098505050505050505050a150505050505050565b60016020908152600092835260408084209091529082529020546001600160a01b031681565b6000816001600160a01b0316836001600160a01b031614806109ef5750816001600160a01b0316638da5cb5b6040518163ffffffff1660e01b815260040160206040518083038186803b1580156109b457600080fd5b505afa1580156109c8573d6000803e3d6000fd5b505050506040513d60208110156109de57600080fd5b50516001600160a01b038481169116145b939250505056fea264697066735822122017fa8e43c6a0504be2ced772c6f1cbcd20c64b2d671ceab8b0e7380b8a19ef0b64736f6c63430007060033",
  "linkReferences": {},
  "deployedLinkReferences": {}
}