{
  "_format": "hh-sol-artifact-1",
  "contractName": "ERC1155InventoryDelegationManager",
  "sourceName": "contracts/token/utils/ERC1155InventoryDelegationManager.sol",
  "abi": [
    {
      "inputs": [
        {
          "internalType": "contract IForwarderRegistry",
          "name": "forwarderRegistry",
          "type": "address"
        },
        {
          "internalType": "address",
          "name": "universalForwarder",
          "type": "address"
        },
        {
          "internalType": "contract IDelegatableERC1155Inventory",
          "name": "nftContract",
          "type": "address"
        },
        {
          "internalType": "contract INFTDelegationRegistry",
          "name": "nftDelegationRegistry",
          "type": "address"
        }
      ],
      "stateMutability": "nonpayable",
      "type": "constructor"
    },
    {
      "anonymous": false,
      "inputs": [
        {
          "indexed": false,
          "internalType": "address",
          "name": "owner",
          "type": "address"
        },
        {
          "indexed": false,
          "internalType": "address",
          "name": "user",
          "type": "address"
        },
        {
          "indexed": false,
          "internalType": "address",
          "name": "nftContract",
          "type": "address"
        },
        {
          "indexed": false,
          "internalType": "uint256[]",
          "name": "tokenIds",
          "type": "uint256[]"
        },
        {
          "indexed": false,
          "internalType": "contract INFTDelegationManager",
          "name": "delegationManager",
          "type": "address"
        },
        {
          "indexed": false,
          "internalType": "bytes",
          "name": "data",
          "type": "bytes"
        }
      ],
      "name": "BatchDelegation",
      "type": "event"
    },
    {
      "anonymous": false,
      "inputs": [
        {
          "indexed": true,
          "internalType": "address",
          "name": "previousOwner",
          "type": "address"
        },
        {
          "indexed": true,
          "internalType": "address",
          "name": "newOwner",
          "type": "address"
        }
      ],
      "name": "OwnershipTransferred",
      "type": "event"
    },
    {
      "anonymous": false,
      "inputs": [
        {
          "indexed": false,
          "internalType": "address",
          "name": "owner",
          "type": "address"
        },
        {
          "indexed": false,
          "internalType": "address",
          "name": "user",
          "type": "address"
        },
        {
          "indexed": false,
          "internalType": "address",
          "name": "nftContract",
          "type": "address"
        },
        {
          "indexed": false,
          "internalType": "uint256",
          "name": "tokenId",
          "type": "uint256"
        },
        {
          "indexed": false,
          "internalType": "contract INFTDelegationManager",
          "name": "delegationManager",
          "type": "address"
        },
        {
          "indexed": false,
          "internalType": "bytes",
          "name": "data",
          "type": "bytes"
        }
      ],
      "name": "SingleDelegation",
      "type": "event"
    },
    {
      "inputs": [],
      "name": "NFT_CONTRACT",
      "outputs": [
        {
          "internalType": "contract IDelegatableERC1155Inventory",
          "name": "",
          "type": "address"
        }
      ],
      "stateMutability": "view",
      "type": "function"
    },
    {
      "inputs": [],
      "name": "NFT_DELEGATION_REGISTRY",
      "outputs": [
        {
          "internalType": "contract INFTDelegationRegistry",
          "name": "",
          "type": "address"
        }
      ],
      "stateMutability": "view",
      "type": "function"
    },
    {
      "inputs": [
        {
          "internalType": "uint256",
          "name": "",
          "type": "uint256"
        }
      ],
      "name": "_delegations",
      "outputs": [
        {
          "internalType": "address",
          "name": "from",
          "type": "address"
        },
        {
          "internalType": "address",
          "name": "to",
          "type": "address"
        },
        {
          "internalType": "bytes",
          "name": "delegationData",
          "type": "bytes"
        }
      ],
      "stateMutability": "view",
      "type": "function"
    },
    {
      "inputs": [
        {
          "internalType": "uint256[]",
          "name": "tokenIds",
          "type": "uint256[]"
        }
      ],
      "name": "batchEndDelegation",
      "outputs": [],
      "stateMutability": "nonpayable",
      "type": "function"
    },
    {
      "inputs": [
        {
          "internalType": "address",
          "name": "nftContract",
          "type": "address"
        },
        {
          "internalType": "uint256",
          "name": "tokenId",
          "type": "uint256"
        }
      ],
      "name": "delegationInfo",
      "outputs": [
        {
          "internalType": "address",
          "name": "from",
          "type": "address"
        },
        {
          "internalType": "address",
          "name": "to",
          "type": "address"
        },
        {
          "internalType": "bytes",
          "name": "delegationData",
          "type": "bytes"
        }
      ],
      "stateMutability": "view",
      "type": "function"
    },
    {
      "inputs": [
        {
          "internalType": "uint256",
          "name": "tokenId",
          "type": "uint256"
        }
      ],
      "name": "endDelegation",
      "outputs": [],
      "stateMutability": "nonpayable",
      "type": "function"
    },
    {
      "inputs": [
        {
          "internalType": "address",
          "name": "forwarder",
          "type": "address"
        }
      ],
      "name": "isTrustedForwarder",
      "outputs": [
        {
          "internalType": "bool",
          "name": "",
          "type": "bool"
        }
      ],
      "stateMutability": "view",
      "type": "function"
    },
    {
      "inputs": [
        {
          "internalType": "address",
          "name": "",
          "type": "address"
        },
        {
          "internalType": "address",
          "name": "from",
          "type": "address"
        },
        {
          "internalType": "uint256[]",
          "name": "ids",
          "type": "uint256[]"
        },
        {
          "internalType": "uint256[]",
          "name": "",
          "type": "uint256[]"
        },
        {
          "internalType": "bytes",
          "name": "data",
          "type": "bytes"
        }
      ],
      "name": "onERC1155BatchReceived",
      "outputs": [
        {
          "internalType": "bytes4",
          "name": "",
          "type": "bytes4"
        }
      ],
      "stateMutability": "nonpayable",
      "type": "function"
    },
    {
      "inputs": [
        {
          "internalType": "address",
          "name": "",
          "type": "address"
        },
        {
          "internalType": "address",
          "name": "from",
          "type": "address"
        },
        {
          "internalType": "uint256",
          "name": "id",
          "type": "uint256"
        },
        {
          "internalType": "uint256",
          "name": "",
          "type": "uint256"
        },
        {
          "internalType": "bytes",
          "name": "data",
          "type": "bytes"
        }
      ],
      "name": "onERC1155Received",
      "outputs": [
        {
          "internalType": "bytes4",
          "name": "",
          "type": "bytes4"
        }
      ],
      "stateMutability": "nonpayable",
      "type": "function"
    },
    {
      "inputs": [],
      "name": "owner",
      "outputs": [
        {
          "internalType": "address",
          "name": "",
          "type": "address"
        }
      ],
      "stateMutability": "view",
      "type": "function"
    },
    {
      "inputs": [
        {
          "internalType": "address[]",
          "name": "accounts",
          "type": "address[]"
        },
        {
          "internalType": "address[]",
          "name": "tokens",
          "type": "address[]"
        },
        {
          "internalType": "uint256[]",
          "name": "amounts",
          "type": "uint256[]"
        }
      ],
      "name": "recoverERC20s",
      "outputs": [],
      "stateMutability": "nonpayable",
      "type": "function"
    },
    {
      "inputs": [
        {
          "internalType": "address[]",
          "name": "accounts",
          "type": "address[]"
        },
        {
          "internalType": "address[]",
          "name": "contracts",
          "type": "address[]"
        },
        {
          "internalType": "uint256[]",
          "name": "tokenIds",
          "type": "uint256[]"
        }
      ],
      "name": "recoverERC721s",
      "outputs": [],
      "stateMutability": "nonpayable",
      "type": "function"
    },
    {
      "inputs": [
        {
          "internalType": "bytes4",
          "name": "interfaceId",
          "type": "bytes4"
        }
      ],
      "name": "supportsInterface",
      "outputs": [
        {
          "internalType": "bool",
          "name": "",
          "type": "bool"
        }
      ],
      "stateMutability": "view",
      "type": "function"
    },
    {
      "inputs": [
        {
          "internalType": "address",
          "name": "newOwner",
          "type": "address"
        }
      ],
      "name": "transferOwnership",
      "outputs": [],
      "stateMutability": "nonpayable",
      "type": "function"
    }
  ],
  "bytecode": "0x61010060405234801561001157600080fd5b506040516121a63803806121a68339818101604052608081101561003457600080fd5b5080516020820151604080840151606090940151600080546001600160a01b03191633908117825592519495939491928692869282917f8be0079c531659141344cd1fd0a4f28419497f9722a3daafe3b4186f6b6457e0908290a3506001600160601b0319606091821b811660a05291811b821660805292831b811660e052911b1660c052505060805160601c60a05160601c60c05160601c60e05160601c61205f610147600039806107ec52806108155280610c885280610d1a5280610e60528061103a5280611212528061138352806113f752806116875280611947525080610ceb528061100952806116565250806109365280611c155250806109715280611bda5280611c6d525061205f6000f3fe608060405234801561001057600080fd5b50600436106100ea5760003560e01c8063a4aa60dc1161008c578063c3666c3611610066578063c3666c3614610512578063f23a6e6114610626578063f2fde38b146106bb578063f6068b0c146106e1576100ea565b8063a4aa60dc1461038b578063a5291e7c146103a8578063bc197c81146103b0576100ea565b8063572b6c05116100c8578063572b6c051461022a57806373c8a958146102505780638da5cb5b146103665780638f4fa7e91461036e576100ea565b806301ffc9a7146100ef5780631fda9a021461014257806340aeb12314610166575b600080fd5b61012e6004803603602081101561010557600080fd5b50357fffffffff0000000000000000000000000000000000000000000000000000000016610751565b604080519115158252519081900360200190f35b61014a6107ea565b604080516001600160a01b039092168252519081900360200190f35b6101926004803603604081101561017c57600080fd5b506001600160a01b03813516906020013561080e565b60405180846001600160a01b03168152602001836001600160a01b0316815260200180602001828103825283818151815260200191508051906020019080838360005b838110156101ed5781810151838201526020016101d5565b50505050905090810190601f16801561021a5780820380516001836020036101000a031916815260200191505b5094505050505060405180910390f35b61012e6004803603602081101561024057600080fd5b50356001600160a01b0316610932565b6103646004803603606081101561026657600080fd5b81019060208101813564010000000081111561028157600080fd5b82018360208201111561029357600080fd5b803590602001918460208302840111640100000000831117156102b557600080fd5b9193909290916020810190356401000000008111156102d357600080fd5b8201836020820111156102e557600080fd5b8035906020019184602083028401116401000000008311171561030757600080fd5b91939092909160208101903564010000000081111561032557600080fd5b82018360208201111561033757600080fd5b8035906020019184602083028401116401000000008311171561035957600080fd5b5090925090506109ab565b005b61014a610a9d565b6101926004803603602081101561038457600080fd5b5035610aad565b610364600480360360208110156103a157600080fd5b5035610b66565b61014a610ce9565b6104dd600480360360a08110156103c657600080fd5b6001600160a01b0382358116926020810135909116918101906060810160408201356401000000008111156103fa57600080fd5b82018360208201111561040c57600080fd5b8035906020019184602083028401116401000000008311171561042e57600080fd5b91939092909160208101903564010000000081111561044c57600080fd5b82018360208201111561045e57600080fd5b8035906020019184602083028401116401000000008311171561048057600080fd5b91939092909160208101903564010000000081111561049e57600080fd5b8201836020820111156104b057600080fd5b803590602001918460018302840111640100000000831117156104d257600080fd5b509092509050610d0d565b604080517fffffffff000000000000000000000000000000000000000000000000000000009092168252519081900360200190f35b6103646004803603606081101561052857600080fd5b81019060208101813564010000000081111561054357600080fd5b82018360208201111561055557600080fd5b8035906020019184602083028401116401000000008311171561057757600080fd5b91939092909160208101903564010000000081111561059557600080fd5b8201836020820111156105a757600080fd5b803590602001918460208302840111640100000000831117156105c957600080fd5b9193909290916020810190356401000000008111156105e757600080fd5b8201836020820111156105f957600080fd5b8035906020019184602083028401116401000000008311171561061b57600080fd5b509092509050611164565b6104dd600480360360a081101561063c57600080fd5b6001600160a01b03823581169260208101359091169160408201359160608101359181019060a08101608082013564010000000081111561067c57600080fd5b82018360208201111561068e57600080fd5b803590602001918460018302840111640100000000831117156106b057600080fd5b509092509050611376565b610364600480360360208110156106d157600080fd5b50356001600160a01b0316611787565b610364600480360360208110156106f757600080fd5b81019060208101813564010000000081111561071257600080fd5b82018360208201111561072457600080fd5b8035906020019184602083028401116401000000008311171561074657600080fd5b5090925090506117ed565b60007fffffffff0000000000000000000000000000000000000000000000000000000082167f01ffc9a70000000000000000000000000000000000000000000000000000000014806107e457507fffffffff0000000000000000000000000000000000000000000000000000000082167f4e2312e000000000000000000000000000000000000000000000000000000000145b92915050565b7f000000000000000000000000000000000000000000000000000000000000000081565b60008060607f00000000000000000000000000000000000000000000000000000000000000006001600160a01b0316856001600160a01b0316141561092b576000848152600160208181526040808420815160608101835281546001600160a01b0390811682528286015416818501526002808301805485516101009882161598909802600019011691909104601f8101869004860287018601855280875291959294938601939091908301828280156109095780601f106108de57610100808354040283529160200191610909565b820191906000526020600020905b8154815290600101906020018083116108ec57829003601f168201915b5050505050815250509050806000015181602001518260400151935093509350505b9250925092565b60007f00000000000000000000000000000000000000000000000000000000000000006001600160a01b0316826001600160a01b031614806107e457507f00000000000000000000000000000000000000000000000000000000000000006001600160a01b0316826001600160a01b0316149050919050565b6109bb6109b6611a6f565b611a7e565b8483811480156109ca57508082145b610a1b576040805162461bcd60e51b815260206004820152601a60248201527f5265636f763a20696e636f6e73697374656e7420617272617973000000000000604482015290519081900360640190fd5b60005b818114610a9357610a8b888883818110610a3457fe5b905060200201356001600160a01b0316858584818110610a5057fe5b90506020020135888885818110610a6357fe5b905060200201356001600160a01b03166001600160a01b0316611b459092919063ffffffff16565b600101610a1e565b5050505050505050565b6000546001600160a01b03165b90565b6001602081815260009283526040928390208054818401546002808401805488516101009882161598909802600019011691909104601f81018690048602870186019097528686526001600160a01b039283169692909116949293909190830182828015610b5c5780601f10610b3157610100808354040283529160200191610b5c565b820191906000526020600020905b815481529060010190602001808311610b3f57829003601f168201915b5050505050905083565b6000610b70611a6f565b6000838152600160205260409020549091506001600160a01b03808316911614610be1576040805162461bcd60e51b815260206004820152601e60248201527f44656c656761746f723a206e6f742074686520746f6b656e206f776e65720000604482015290519081900360640190fd5b60008281526001602081905260408220805473ffffffffffffffffffffffffffffffffffffffff199081168255918101805490921690915590610c276002830182611f44565b5050604080517ff242432a0000000000000000000000000000000000000000000000000000000081523060048201526001600160a01b038381166024830152604482018590526001606483015260a06084830152600060a4830181905292517f00000000000000000000000000000000000000000000000000000000000000009091169263f242432a9260c4808201939182900301818387803b158015610ccd57600080fd5b505af1158015610ce1573d6000803e3d6000fd5b505050505050565b7f000000000000000000000000000000000000000000000000000000000000000081565b6000336001600160a01b037f00000000000000000000000000000000000000000000000000000000000000001614610d8c576040805162461bcd60e51b815260206004820152601960248201527f44656c656761746f723a2077726f6e6720636f6e747261637400000000000000604482015290519081900360640190fd5b60008084846040811015610d9f57600080fd5b6001600160a01b038235169190810190604081016020820135640100000000811115610dca57600080fd5b820183602082011115610ddc57600080fd5b80359060200191846001830284011164010000000083111715610dfe57600080fd5b91908080601f01602080910402602001604051908101604052809392919081815260200183838082843760009201829052509799509297508e96955050505050505b8181146110065760008b8b83818110610e5557fe5b9050602002013590507f00000000000000000000000000000000000000000000000000000000000000006001600160a01b031663adebf6f2826040518263ffffffff1660e01b81526004018082815260200191505060206040518083038186803b158015610ec257600080fd5b505afa158015610ed6573d6000803e3d6000fd5b505050506040513d6020811015610eec57600080fd5b505115610f40576040805162461bcd60e51b815260206004820152601460248201527f44656c656761746f723a206f6e6c79204e465473000000000000000000000000604482015290519081900360640190fd5b60405180606001604052808e6001600160a01b03168152602001866001600160a01b03168152602001858152506001600083815260200190815260200160002060008201518160000160006101000a8154816001600160a01b0302191690836001600160a01b0316021790555060208201518160010160006101000a8154816001600160a01b0302191690836001600160a01b031602179055506040820151816002019080519060200190610ff6929190611f88565b5090505050806001019050610e40565b507f00000000000000000000000000000000000000000000000000000000000000006001600160a01b03166320f06f678c857f00000000000000000000000000000000000000000000000000000000000000008e8e8c8c6040518863ffffffff1660e01b815260040180886001600160a01b03168152602001876001600160a01b03168152602001866001600160a01b0316815260200180602001806020018381038352878782818152602001925060200280828437600083820152601f01601f191690910184810383528581526020019050858580828437600081840152601f19601f8201169050808301925050509950505050505050505050600060405180830381600087803b15801561111b57600080fd5b505af115801561112f573d6000803e3d6000fd5b507fbc197c81000000000000000000000000000000000000000000000000000000009f9e505050505050505050505050505050565b61116f6109b6611a6f565b84838114801561117e57508082145b6111cf576040805162461bcd60e51b815260206004820152601a60248201527f5265636f763a20696e636f6e73697374656e7420617272617973000000000000604482015290519081900360640190fd5b60005b818114610a935760008484838181106111e757fe5b90506020020135905060008787848181106111fe57fe5b905060200201356001600160a01b031690507f00000000000000000000000000000000000000000000000000000000000000006001600160a01b0316816001600160a01b031614156112b3576000828152600160205260409020546001600160a01b03166112b3576040805162461bcd60e51b815260206004820152601960248201527f5265636f763a20746f6b656e2069732064656c65676174656400000000000000604482015290519081900360640190fd5b8787848181106112bf57fe5b905060200201356001600160a01b03166001600160a01b03166323b872dd308c8c878181106112ea57fe5b905060200201356001600160a01b0316856040518463ffffffff1660e01b815260040180846001600160a01b03168152602001836001600160a01b031681526020018281526020019350505050600060405180830381600087803b15801561135157600080fd5b505af1158015611365573d6000803e3d6000fd5b5050505050508060010190506111d2565b6000336001600160a01b037f000000000000000000000000000000000000000000000000000000000000000016146113f5576040805162461bcd60e51b815260206004820152601960248201527f44656c656761746f723a2077726f6e6720636f6e747261637400000000000000604482015290519081900360640190fd5b7f00000000000000000000000000000000000000000000000000000000000000006001600160a01b031663adebf6f2866040518263ffffffff1660e01b81526004018082815260200191505060206040518083038186803b15801561145957600080fd5b505afa15801561146d573d6000803e3d6000fd5b505050506040513d602081101561148357600080fd5b5051156114d7576040805162461bcd60e51b815260206004820152601460248201527f44656c656761746f723a206f6e6c79204e465473000000000000000000000000604482015290519081900360640190fd5b600080848460408110156114ea57600080fd5b6001600160a01b03823516919081019060408101602082013564010000000081111561151557600080fd5b82018360208201111561152757600080fd5b8035906020019184600183028401116401000000008311171561154957600080fd5b91908080601f016020809104026020016040519081016040528093929190818152602001838380828437600081840152601f19601f820116905080830192505050505050509192919290505050915091506040518060600160405280896001600160a01b03168152602001836001600160a01b03168152602001828152506001600089815260200190815260200160002060008201518160000160006101000a8154816001600160a01b0302191690836001600160a01b0316021790555060208201518160010160006101000a8154816001600160a01b0302191690836001600160a01b031602179055506040820151816002019080519060200190611650929190611f88565b509050507f00000000000000000000000000000000000000000000000000000000000000006001600160a01b0316638b24f40f89847f00000000000000000000000000000000000000000000000000000000000000008b8a8a6040518763ffffffff1660e01b815260040180876001600160a01b03168152602001866001600160a01b03168152602001856001600160a01b03168152602001848152602001806020018281038252848482818152602001925080828437600081840152601f19601f820116905080830192505050975050505050505050600060405180830381600087803b15801561174157600080fd5b505af1158015611755573d6000803e3d6000fd5b507ff23a6e61000000000000000000000000000000000000000000000000000000009c9b505050505050505050505050565b6117926109b6611a6f565b6000805473ffffffffffffffffffffffffffffffffffffffff19166001600160a01b0383811691821780845560405192939116917f8be0079c531659141344cd1fd0a4f28419497f9722a3daafe3b4186f6b6457e09190a350565b60006117f7611a6f565b90508160008167ffffffffffffffff8111801561181357600080fd5b5060405190808252806020026020018201604052801561183d578160200160208202803683370190505b50905060005b82811461194457600086868381811061185857fe5b6020908102929092013560008181526001909352604090922054919250506001600160a01b038681169116146118d5576040805162461bcd60e51b815260206004820152601e60248201527f44656c656761746f723a206e6f742074686520746f6b656e206f776e65720000604482015290519081900360640190fd5b60018383815181106118e357fe5b602090810291909101810191909152600082815260019182905260408120805473ffffffffffffffffffffffffffffffffffffffff19908116825592810180549093169092556119366002830182611f44565b505050806001019050611843565b507f00000000000000000000000000000000000000000000000000000000000000006001600160a01b0316632eb2c2d630858888866040518663ffffffff1660e01b815260040180866001600160a01b03168152602001856001600160a01b0316815260200180602001806020018060200184810384528787828181526020019250602002808284376000838201819052601f909101601f19169092018681038552875181528751602091820193828a0193509102908190849084905b83811015611a19578181015183820152602001611a01565b5050505090500184810382526000815260200198505050505050505050600060405180830381600087803b158015611a5057600080fd5b505af1158015611a64573d6000803e3d6000fd5b505050505050505050565b6000611a79611bca565b905090565b306001600160a01b0316638da5cb5b6040518163ffffffff1660e01b815260040160206040518083038186803b158015611ab757600080fd5b505afa158015611acb573d6000803e3d6000fd5b505050506040513d6020811015611ae157600080fd5b50516001600160a01b03828116911614611b42576040805162461bcd60e51b815260206004820152601660248201527f4f776e61626c653a206e6f7420746865206f776e657200000000000000000000604482015290519081900360640190fd5b50565b604080516001600160a01b038416602482015260448082018490528251808303909101815260649091019091526020810180517bffffffffffffffffffffffffffffffffffffffffffffffffffffffff167fa9059cbb00000000000000000000000000000000000000000000000000000000179052611bc5908490611d2a565b505050565b60003381611bd6611f14565b90507f00000000000000000000000000000000000000000000000000000000000000006001600160a01b0316826001600160a01b03161480611c4957507f00000000000000000000000000000000000000000000000000000000000000006001600160a01b0316826001600160a01b0316145b15611c57579150610aaa9050565b6001600160a01b0382163214801590611d1657507f00000000000000000000000000000000000000000000000000000000000000006001600160a01b031663e60125d682846040518363ffffffff1660e01b815260040180836001600160a01b03168152602001826001600160a01b031681526020019250505060206040518083038186803b158015611ce957600080fd5b505afa158015611cfd573d6000803e3d6000fd5b505050506040513d6020811015611d1357600080fd5b50515b15611d24579150610aaa9050565b50905090565b81611d3d6001600160a01b038216611f3e565b611d8e576040805162461bcd60e51b815260206004820152601a60248201527f4552433230577261707065723a206e6f6e2d636f6e7472616374000000000000604482015290519081900360640190fd5b600080826001600160a01b0316846040518082805190602001908083835b60208310611dcb5780518252601f199092019160209182019101611dac565b6001836020036101000a0380198251168184511680821785525050505050509050019150506000604051808303816000865af19150503d8060008114611e2d576040519150601f19603f3d011682016040523d82523d6000602084013e611e32565b606091505b50915091508115611eb157805115611eac57808060200190516020811015611e5957600080fd5b5051611eac576040805162461bcd60e51b815260206004820152601e60248201527f4552433230577261707065723a206f7065726174696f6e206661696c65640000604482015290519081900360640190fd5b611f0d565b8051611f04576040805162461bcd60e51b815260206004820152601e60248201527f4552433230577261707065723a206f7065726174696f6e206661696c65640000604482015290519081900360640190fd5b80518082602001fd5b5050505050565b7fffffffffffffffffffffffffffffffffffffffffffffffffffffffffffffffec36013560601c90565b3b151590565b50805460018160011615610100020316600290046000825580601f10611f6a5750611b42565b601f016020900490600052602060002090810190611b429190612014565b828054600181600116156101000203166002900490600052602060002090601f016020900481019282611fbe5760008555612004565b82601f10611fd757805160ff1916838001178555612004565b82800160010185558215612004579182015b82811115612004578251825591602001919060010190611fe9565b50612010929150612014565b5090565b5b80821115612010576000815560010161201556fea26469706673582212207d5f5c132ba5cad63d33b838100527c8df9b1132f9e2061fa0badacc1c532d6264736f6c63430007060033",
  "linkReferences": {},
  "deployedLinkReferences": {}
}