{
  "_format": "hh-sol-artifact-1",
  "contractName": "ERC1155InventoryRentalMarket",
  "sourceName": "contracts/token/utils/ERC1155InventoryRentalMarket.sol",
  "abi": [
    {
      "inputs": [
        {
          "internalType": "contract IForwarderRegistry",
          "name": "forwarderRegistry",
          "type": "address"
        },
        {
          "internalType": "address",
          "name": "universalForwarder",
          "type": "address"
        },
        {
          "internalType": "address",
          "name": "nftContract",
          "type": "address"
        },
        {
          "internalType": "uint256",
          "name": "periodInSeconds",
          "type": "uint256"
        },
        {
          "internalType": "address payable",
          "name": "operator",
          "type": "address"
        },
        {
          "internalType": "uint256",
          "name": "operatorShare",
          "type": "uint256"
        }
      ],
      "stateMutability": "nonpayable",
      "type": "constructor"
    },
    {
      "anonymous": false,
      "inputs": [
        {
          "indexed": false,
          "internalType": "address",
          "name": "from",
          "type": "address"
        },
        {
          "indexed": false,
          "internalType": "address",
          "name": "to",
          "type": "address"
        },
        {
          "indexed": false,
          "internalType": "uint256[]",
          "name": "tokenIds",
          "type": "uint256[]"
        },
        {
          "indexed": false,
          "internalType": "bytes",
          "name": "delegationData",
          "type": "bytes"
        }
      ],
      "name": "BatchDelegated",
      "type": "event"
    },
    {
      "anonymous": false,
      "inputs": [
        {
          "indexed": false,
          "internalType": "address",
          "name": "from",
          "type": "address"
        },
        {
          "indexed": false,
          "internalType": "address",
          "name": "to",
          "type": "address"
        },
        {
          "indexed": false,
          "internalType": "uint256",
          "name": "tokenId",
          "type": "uint256"
        },
        {
          "indexed": false,
          "internalType": "bytes",
          "name": "delegationData",
          "type": "bytes"
        }
      ],
      "name": "Delegated",
      "type": "event"
    },
    {
      "anonymous": false,
      "inputs": [
        {
          "indexed": true,
          "internalType": "address",
          "name": "previousOwner",
          "type": "address"
        },
        {
          "indexed": true,
          "internalType": "address",
          "name": "newOwner",
          "type": "address"
        }
      ],
      "name": "OwnershipTransferred",
      "type": "event"
    },
    {
      "anonymous": false,
      "inputs": [
        {
          "indexed": false,
          "internalType": "address",
          "name": "account",
          "type": "address"
        }
      ],
      "name": "Paused",
      "type": "event"
    },
    {
      "anonymous": false,
      "inputs": [
        {
          "indexed": false,
          "internalType": "address",
          "name": "payoutWallet_",
          "type": "address"
        }
      ],
      "name": "PayoutWalletSet",
      "type": "event"
    },
    {
      "anonymous": false,
      "inputs": [
        {
          "indexed": false,
          "internalType": "address",
          "name": "account",
          "type": "address"
        }
      ],
      "name": "Unpaused",
      "type": "event"
    },
    {
      "inputs": [],
      "name": "NATIVE_CURRENCY",
      "outputs": [
        {
          "internalType": "address",
          "name": "",
          "type": "address"
        }
      ],
      "stateMutability": "view",
      "type": "function"
    },
    {
      "inputs": [],
      "name": "NFT_CONTRACT",
      "outputs": [
        {
          "internalType": "address",
          "name": "",
          "type": "address"
        }
      ],
      "stateMutability": "view",
      "type": "function"
    },
    {
      "inputs": [],
      "name": "OPERATOR_SHARE",
      "outputs": [
        {
          "internalType": "uint256",
          "name": "",
          "type": "uint256"
        }
      ],
      "stateMutability": "view",
      "type": "function"
    },
    {
      "inputs": [],
      "name": "PERIOD_IN_SECONDS",
      "outputs": [
        {
          "internalType": "uint256",
          "name": "",
          "type": "uint256"
        }
      ],
      "stateMutability": "view",
      "type": "function"
    },
    {
      "inputs": [
        {
          "internalType": "address[]",
          "name": "tokens",
          "type": "address[]"
        }
      ],
      "name": "addWhitelistedCurrencies",
      "outputs": [],
      "stateMutability": "nonpayable",
      "type": "function"
    },
    {
      "inputs": [
        {
          "internalType": "uint256[]",
          "name": "tokenIds",
          "type": "uint256[]"
        }
      ],
      "name": "batchClaimPayout",
      "outputs": [],
      "stateMutability": "nonpayable",
      "type": "function"
    },
    {
      "inputs": [
        {
          "internalType": "uint256[]",
          "name": "tokenIds",
          "type": "uint256[]"
        }
      ],
      "name": "batchWithdrawToken",
      "outputs": [],
      "stateMutability": "nonpayable",
      "type": "function"
    },
    {
      "inputs": [
        {
          "internalType": "uint256",
          "name": "tokenId",
          "type": "uint256"
        }
      ],
      "name": "cancelLeaseAsLessee",
      "outputs": [],
      "stateMutability": "nonpayable",
      "type": "function"
    },
    {
      "inputs": [
        {
          "internalType": "uint256",
          "name": "tokenId",
          "type": "uint256"
        }
      ],
      "name": "claimPayout",
      "outputs": [],
      "stateMutability": "nonpayable",
      "type": "function"
    },
    {
      "inputs": [
        {
          "internalType": "uint256",
          "name": "tokenId",
          "type": "uint256"
        }
      ],
      "name": "delegationInfo",
      "outputs": [
        {
          "internalType": "address",
          "name": "from",
          "type": "address"
        },
        {
          "internalType": "address",
          "name": "to",
          "type": "address"
        },
        {
          "internalType": "bytes",
          "name": "delegationData",
          "type": "bytes"
        }
      ],
      "stateMutability": "view",
      "type": "function"
    },
    {
      "inputs": [
        {
          "internalType": "address",
          "name": "",
          "type": "address"
        }
      ],
      "name": "escrowedERC20s",
      "outputs": [
        {
          "internalType": "uint256",
          "name": "",
          "type": "uint256"
        }
      ],
      "stateMutability": "view",
      "type": "function"
    },
    {
      "inputs": [
        {
          "internalType": "address",
          "name": "forwarder",
          "type": "address"
        }
      ],
      "name": "isTrustedForwarder",
      "outputs": [
        {
          "internalType": "bool",
          "name": "",
          "type": "bool"
        }
      ],
      "stateMutability": "view",
      "type": "function"
    },
    {
      "inputs": [
        {
          "internalType": "uint256",
          "name": "",
          "type": "uint256"
        }
      ],
      "name": "leases",
      "outputs": [
        {
          "internalType": "address payable",
          "name": "lessee",
          "type": "address"
        },
        {
          "internalType": "uint256",
          "name": "startDate",
          "type": "uint256"
        },
        {
          "internalType": "uint256",
          "name": "duration",
          "type": "uint256"
        },
        {
          "internalType": "uint256",
          "name": "paid",
          "type": "uint256"
        }
      ],
      "stateMutability": "view",
      "type": "function"
    },
    {
      "inputs": [
        {
          "internalType": "uint256",
          "name": "",
          "type": "uint256"
        }
      ],
      "name": "listings",
      "outputs": [
        {
          "internalType": "address payable",
          "name": "owner",
          "type": "address"
        },
        {
          "internalType": "address payable",
          "name": "designatedLessee",
          "type": "address"
        },
        {
          "internalType": "address",
          "name": "currency",
          "type": "address"
        },
        {
          "internalType": "uint256",
          "name": "price",
          "type": "uint256"
        },
        {
          "internalType": "uint256",
          "name": "minimumDuration",
          "type": "uint256"
        },
        {
          "internalType": "bytes",
          "name": "delegationData",
          "type": "bytes"
        }
      ],
      "stateMutability": "view",
      "type": "function"
    },
    {
      "inputs": [
        {
          "internalType": "address",
          "name": "",
          "type": "address"
        },
        {
          "internalType": "address",
          "name": "from",
          "type": "address"
        },
        {
          "internalType": "uint256[]",
          "name": "ids",
          "type": "uint256[]"
        },
        {
          "internalType": "uint256[]",
          "name": "",
          "type": "uint256[]"
        },
        {
          "internalType": "bytes",
          "name": "data",
          "type": "bytes"
        }
      ],
      "name": "onERC1155BatchReceived",
      "outputs": [
        {
          "internalType": "bytes4",
          "name": "",
          "type": "bytes4"
        }
      ],
      "stateMutability": "nonpayable",
      "type": "function"
    },
    {
      "inputs": [
        {
          "internalType": "address",
          "name": "",
          "type": "address"
        },
        {
          "internalType": "address",
          "name": "from",
          "type": "address"
        },
        {
          "internalType": "uint256",
          "name": "id",
          "type": "uint256"
        },
        {
          "internalType": "uint256",
          "name": "",
          "type": "uint256"
        },
        {
          "internalType": "bytes",
          "name": "data",
          "type": "bytes"
        }
      ],
      "name": "onERC1155Received",
      "outputs": [
        {
          "internalType": "bytes4",
          "name": "",
          "type": "bytes4"
        }
      ],
      "stateMutability": "nonpayable",
      "type": "function"
    },
    {
      "inputs": [],
      "name": "owner",
      "outputs": [
        {
          "internalType": "address",
          "name": "",
          "type": "address"
        }
      ],
      "stateMutability": "view",
      "type": "function"
    },
    {
      "inputs": [],
      "name": "pause",
      "outputs": [],
      "stateMutability": "nonpayable",
      "type": "function"
    },
    {
      "inputs": [],
      "name": "paused",
      "outputs": [
        {
          "internalType": "bool",
          "name": "",
          "type": "bool"
        }
      ],
      "stateMutability": "view",
      "type": "function"
    },
    {
      "inputs": [],
      "name": "payoutWallet",
      "outputs": [
        {
          "internalType": "address payable",
          "name": "",
          "type": "address"
        }
      ],
      "stateMutability": "view",
      "type": "function"
    },
    {
      "inputs": [
        {
          "internalType": "address[]",
          "name": "accounts",
          "type": "address[]"
        },
        {
          "internalType": "address[]",
          "name": "tokens",
          "type": "address[]"
        },
        {
          "internalType": "uint256[]",
          "name": "amounts",
          "type": "uint256[]"
        }
      ],
      "name": "recoverERC20s",
      "outputs": [],
      "stateMutability": "nonpayable",
      "type": "function"
    },
    {
      "inputs": [
        {
          "internalType": "address[]",
          "name": "accounts",
          "type": "address[]"
        },
        {
          "internalType": "address[]",
          "name": "contracts",
          "type": "address[]"
        },
        {
          "internalType": "uint256[]",
          "name": "tokenIds",
          "type": "uint256[]"
        }
      ],
      "name": "recoverERC721s",
      "outputs": [],
      "stateMutability": "nonpayable",
      "type": "function"
    },
    {
      "inputs": [
        {
          "internalType": "uint256",
          "name": "tokenId",
          "type": "uint256"
        },
        {
          "internalType": "uint256",
          "name": "duration",
          "type": "uint256"
        }
      ],
      "name": "rent",
      "outputs": [],
      "stateMutability": "nonpayable",
      "type": "function"
    },
    {
      "inputs": [
        {
          "internalType": "address payable",
          "name": "payoutWallet_",
          "type": "address"
        }
      ],
      "name": "setPayoutWallet",
      "outputs": [],
      "stateMutability": "nonpayable",
      "type": "function"
    },
    {
      "inputs": [
        {
          "internalType": "bytes4",
          "name": "interfaceId",
          "type": "bytes4"
        }
      ],
      "name": "supportsInterface",
      "outputs": [
        {
          "internalType": "bool",
          "name": "",
          "type": "bool"
        }
      ],
      "stateMutability": "view",
      "type": "function"
    },
    {
      "inputs": [
        {
          "internalType": "address",
          "name": "newOwner",
          "type": "address"
        }
      ],
      "name": "transferOwnership",
      "outputs": [],
      "stateMutability": "nonpayable",
      "type": "function"
    },
    {
      "inputs": [],
      "name": "unpause",
      "outputs": [],
      "stateMutability": "nonpayable",
      "type": "function"
    },
    {
      "inputs": [
        {
          "internalType": "uint256",
          "name": "tokenId",
          "type": "uint256"
        },
        {
          "internalType": "address",
          "name": "currency",
          "type": "address"
        },
        {
          "internalType": "uint256",
          "name": "price",
          "type": "uint256"
        },
        {
          "internalType": "uint256",
          "name": "minimumDuration",
          "type": "uint256"
        }
      ],
      "name": "updateListing",
      "outputs": [],
      "stateMutability": "nonpayable",
      "type": "function"
    },
    {
      "inputs": [
        {
          "internalType": "address",
          "name": "",
          "type": "address"
        }
      ],
      "name": "whitelistedCurrencies",
      "outputs": [
        {
          "internalType": "bool",
          "name": "",
          "type": "bool"
        }
      ],
      "stateMutability": "view",
      "type": "function"
    },
    {
      "inputs": [
        {
          "internalType": "uint256",
          "name": "tokenId",
          "type": "uint256"
        }
      ],
      "name": "withdrawToken",
      "outputs": [],
      "stateMutability": "nonpayable",
      "type": "function"
    }
  ],
  "bytecode": "0x61012060405234801561001157600080fd5b5060405162003b5d38038062003b5d833981810160405260c081101561003657600080fd5b50805160208201516040808401516060850151608086015160a090960151600080546001600160a01b03191633908117825594519697959693959294929391928892889288928892889288928892889286918390819083907f8be0079c531659141344cd1fd0a4f28419497f9722a3daafe3b4186f6b6457e0908290a35060008054911515600160a01b0260ff60a01b199092169190911790556001600160a01b03811661012b576040805162461bcd60e51b815260206004820152601460248201527f5061796f75743a207a65726f2061646472657373000000000000000000000000604482015290519081900360640190fd5b600180546001600160a01b0383166001600160a01b0319909116811790915560408051918252517fdd880d24a789958a6398c99c2e54ce31bc10a638cbc42f7dd34285479ae0f8559181900360200190a150506001600160601b0319606091821b811660a05291811b82166080529490941b90931660c0525060e05261010052505050505050505060805160601c60a05160601c60c05160601c60e051610100516139116200024c60003980610c765280613715525080610c2e528061115c52806117ba5280611b6f5280611ee852806123f95280612c73525080610c525280610d635280610f175280611f7752806121ce52806126aa528061271e525080610f7c52806133b9525080610fb7528061337e528061341152506139116000f3fe608060405234801561001057600080fd5b50600436106101da5760003560e01c8063783a112b116101045780638a69614e116100a2578063d4f8dec011610071578063d4f8dec014610998578063de74e57b146109d0578063f23a6e6114610aa3578063f2fde38b14610b38576101da565b80638a69614e146106fd5780638da5cb5b1461071a578063bc197c8114610722578063c3666c3614610884576101da565b80638456cb59116100de5780638456cb59146106305780638488bb4e14610638578063889692b7146106405780638927a106146106b0576101da565b8063783a112b146105ca5780637b81e459146105ed57806381c4e89f1461060a576101da565b806348045a8e1161017c5780635c975abb1161014b5780635c975abb146103d35780636a5da450146103db5780636b8f9c431461049057806373c8a958146104b6576101da565b806348045a8e1461031857806349f426501461038857806350baa62214610390578063572b6c05146103ad576101da565b80631fda9a02116101b85780631fda9a02146102be5780633ca4a253146102e25780633f4ba83a146102ea578063436cc138146102f2576101da565b806301ffc9a7146101df57806305abfbc21461023257806307a2a4e6146102a4575b600080fd5b61021e600480360360208110156101f557600080fd5b50357fffffffff0000000000000000000000000000000000000000000000000000000016610b5e565b604080519115158252519081900360200190f35b6102a26004803603602081101561024857600080fd5b81019060208101813564010000000081111561026357600080fd5b82018360208201111561027557600080fd5b8035906020019184602083028401116401000000008311171561029757600080fd5b509092509050610bf7565b005b6102ac610c2c565b60408051918252519081900360200190f35b6102c6610c50565b604080516001600160a01b039092168252519081900360200190f35b6102ac610c74565b6102a2610c98565b61021e6004803603602081101561030857600080fd5b50356001600160a01b0316610cb2565b6102a26004803603602081101561032e57600080fd5b81019060208101813564010000000081111561034957600080fd5b82018360208201111561035b57600080fd5b8035906020019184602083028401116401000000008311171561037d57600080fd5b509092509050610cc7565b6102c6610e8a565b6102a2600480360360208110156103a657600080fd5b5035610ea2565b61021e600480360360208110156103c357600080fd5b50356001600160a01b0316610f78565b61021e610ff1565b6103f8600480360360208110156103f157600080fd5b5035611001565b60405180846001600160a01b03168152602001836001600160a01b0316815260200180602001828103825283818151815260200191508051906020019080838360005b8381101561045357818101518382015260200161043b565b50505050905090810190601f1680156104805780820380516001836020036101000a031916815260200191505b5094505050505060405180910390f35b6102a2600480360360208110156104a657600080fd5b50356001600160a01b03166111b0565b6102a2600480360360608110156104cc57600080fd5b8101906020810181356401000000008111156104e757600080fd5b8201836020820111156104f957600080fd5b8035906020019184602083028401116401000000008311171561051b57600080fd5b91939092909160208101903564010000000081111561053957600080fd5b82018360208201111561054b57600080fd5b8035906020019184602083028401116401000000008311171561056d57600080fd5b91939092909160208101903564010000000081111561058b57600080fd5b82018360208201111561059d57600080fd5b803590602001918460208302840111640100000000831117156105bf57600080fd5b50909250905061127d565b6102a2600480360360408110156105e057600080fd5b5080359060200135611468565b6102a26004803603602081101561060357600080fd5b50356119c7565b6102ac6004803603602081101561062057600080fd5b50356001600160a01b0316611cc7565b6102a2611cd9565b6102c6611cec565b6102a26004803603602081101561065657600080fd5b81019060208101813564010000000081111561067157600080fd5b82018360208201111561068357600080fd5b803590602001918460208302840111640100000000831117156106a557600080fd5b509092509050611cfb565b6106cd600480360360208110156106c657600080fd5b5035611d7e565b604080516001600160a01b0390951685526020850193909352838301919091526060830152519081900360800190f35b6102a26004803603602081101561071357600080fd5b5035611db1565b6102c6611f5a565b61084f600480360360a081101561073857600080fd5b6001600160a01b03823581169260208101359091169181019060608101604082013564010000000081111561076c57600080fd5b82018360208201111561077e57600080fd5b803590602001918460208302840111640100000000831117156107a057600080fd5b9193909290916020810190356401000000008111156107be57600080fd5b8201836020820111156107d057600080fd5b803590602001918460208302840111640100000000831117156107f257600080fd5b91939092909160208101903564010000000081111561081057600080fd5b82018360208201111561082257600080fd5b8035906020019184600183028401116401000000008311171561084457600080fd5b509092509050611f6a565b604080517fffffffff000000000000000000000000000000000000000000000000000000009092168252519081900360200190f35b6102a26004803603606081101561089a57600080fd5b8101906020810181356401000000008111156108b557600080fd5b8201836020820111156108c757600080fd5b803590602001918460208302840111640100000000831117156108e957600080fd5b91939092909160208101903564010000000081111561090757600080fd5b82018360208201111561091957600080fd5b8035906020019184602083028401116401000000008311171561093b57600080fd5b91939092909160208101903564010000000081111561095957600080fd5b82018360208201111561096b57600080fd5b8035906020019184602083028401116401000000008311171561098d57600080fd5b509092509050612120565b6102a2600480360360808110156109ae57600080fd5b508035906001600160a01b036020820135169060408101359060600135612333565b6109ed600480360360208110156109e657600080fd5b50356125ce565b60405180876001600160a01b03168152602001866001600160a01b03168152602001856001600160a01b0316815260200184815260200183815260200180602001828103825283818151815260200191508051906020019080838360005b83811015610a63578181015183820152602001610a4b565b50505050905090810190601f168015610a905780820380516001836020036101000a031916815260200191505b5097505050505050505060405180910390f35b61084f600480360360a0811015610ab957600080fd5b6001600160a01b03823581169260208101359091169160408201359160608101359181019060a081016080820135640100000000811115610af957600080fd5b820183602082011115610b0b57600080fd5b80359060200191846001830284011164010000000083111715610b2d57600080fd5b50909250905061269d565b6102a260048036036020811015610b4e57600080fd5b50356001600160a01b0316612921565b60007fffffffff0000000000000000000000000000000000000000000000000000000082167f01ffc9a7000000000000000000000000000000000000000000000000000000001480610bf157507fffffffff0000000000000000000000000000000000000000000000000000000082167f4e2312e000000000000000000000000000000000000000000000000000000000145b92915050565b8060005b81811015610c2657610c1e848483818110610c1257fe5b90506020020135611db1565b600101610bfb565b50505050565b7f000000000000000000000000000000000000000000000000000000000000000081565b7f000000000000000000000000000000000000000000000000000000000000000081565b7f000000000000000000000000000000000000000000000000000000000000000081565b610ca8610ca3612987565b612996565b610cb0612a5d565b565b60046020526000908152604090205460ff1681565b6000610cd1612987565b905060008267ffffffffffffffff81118015610cec57600080fd5b50604051908082528060200260200182016040528015610d16578160200160208202803683370190505b50905060005b808414610d6057610d3f858583818110610d3257fe5b9050602002013584612ad3565b6001828281518110610d4d57fe5b6020908102919091010152600101610d1c565b507f00000000000000000000000000000000000000000000000000000000000000006001600160a01b0316632eb2c2d630848787866040518663ffffffff1660e01b815260040180866001600160a01b03168152602001856001600160a01b0316815260200180602001806020018060200184810384528787828181526020019250602002808284376000838201819052601f909101601f19169092018681038552875181528751602091820193828a0193509102908190849084905b83811015610e35578181015183820152602001610e1d565b5050505090500184810382526000815260200198505050505050505050600060405180830381600087803b158015610e6c57600080fd5b505af1158015610e80573d6000803e3d6000fd5b5050505050505050565b73eeeeeeeeeeeeeeeeeeeeeeeeeeeeeeeeeeeeeeee81565b6000610eac612987565b9050610eb88282612ad3565b604080517ff242432a0000000000000000000000000000000000000000000000000000000081523060048201526001600160a01b038381166024830152604482018590526001606483015260a06084830152600060a4830181905292517f00000000000000000000000000000000000000000000000000000000000000009091169263f242432a9260c4808201939182900301818387803b158015610f5c57600080fd5b505af1158015610f70573d6000803e3d6000fd5b505050505050565b60007f00000000000000000000000000000000000000000000000000000000000000006001600160a01b0316826001600160a01b03161480610bf157507f00000000000000000000000000000000000000000000000000000000000000006001600160a01b0316826001600160a01b0316149050919050565b600054600160a01b900460ff1681565b6000818152600260208181526040808420815160c08101835281546001600160a01b039081168252600180840154821683870152838701549091168285015260038301546060808401919091526004840154608084015260058401805486516101009482161594909402600019011697909704601f810187900487028301870190955284825287969095879593949360a086019392918301828280156110e85780601f106110bd576101008083540402835291602001916110e8565b820191906000526020600020905b8154815290600101906020018083116110cb57829003601f168201915b5050509190925250508151919250506001600160a01b038116156111a657600086815260036020818152604092839020835160808101855281546001600160a01b031680825260018301549382019390935260028201549481019490945290910154606083015280158015906111895750427f0000000000000000000000000000000000000000000000000000000000000000836040015102836020015101105b156111a35760a09093015191955091935091506111a99050565b50505b50505b9193909250565b6111bb610ca3612987565b6001600160a01b038116611216576040805162461bcd60e51b815260206004820152601460248201527f5061796f75743a207a65726f2061646472657373000000000000000000000000604482015290519081900360640190fd5b6001805473ffffffffffffffffffffffffffffffffffffffff19166001600160a01b03838116919091179182905560408051929091168252517fdd880d24a789958a6398c99c2e54ce31bc10a638cbc42f7dd34285479ae0f855916020908290030190a150565b611288610ca3612987565b84838114801561129757508082145b6112e8576040805162461bcd60e51b815260206004820152601a60248201527f5265636f763a20696e636f6e73697374656e7420617272617973000000000000604482015290519081900360640190fd5b60005b818114610e8057600086868381811061130057fe5b905060200201356001600160a01b03169050600085858481811061132057fe5b6001600160a01b03851660008181526005602090815260408083205481517f70a082310000000000000000000000000000000000000000000000000000000081523060048201529151958302979097013597509195945091926370a082319260248084019391929182900301818887803b15801561139d57600080fd5b505af11580156113b1573d6000803e3d6000fd5b505050506040513d60208110156113c757600080fd5b505103905080821115611421576040805162461bcd60e51b815260206004820152601b60248201527f5265636f763a20696e73756666696369656e742062616c616e63650000000000604482015290519081900360640190fd5b61145a8b8b8681811061143057fe5b905060200201356001600160a01b031683856001600160a01b0316612db39092919063ffffffff16565b5050508060010190506112eb565b611470612e33565b806114c2576040805162461bcd60e51b815260206004820152601860248201527f4e465452656e74616c3a207a65726f206475726174696f6e0000000000000000604482015290519081900360640190fd5b6000828152600260208181526040808420815160c08101835281546001600160a01b0390811682526001808401548216838701528387015490911682850152600383015460608301526004830154608083015260058301805485516101009382161593909302600019011696909604601f81018690048602820186019094528381529094919360a0860193919291908301828280156115a25780601f10611577576101008083540402835291602001916115a2565b820191906000526020600020905b81548152906001019060200180831161158557829003601f168201915b5050509190925250508151919250506001600160a01b03811661160c576040805162461bcd60e51b815260206004820152601c60248201527f4e465452656e74616c3a206e6f74206f6e20746865206d61726b657400000000604482015290519081900360640190fd5b60408201516001600160a01b03811661166c576040805162461bcd60e51b815260206004820152601a60248201527f4e465452656e74616c3a2072656e74616c2064697361626c6564000000000000604482015290519081900360640190fd5b6000611676612987565b60208501519091506001600160a01b03811615806116a55750816001600160a01b0316816001600160a01b0316145b6116f6576040805162461bcd60e51b815260206004820152601a60248201527f4e465452656e74616c3a2070726976617465206c697374696e67000000000000604482015290519081900360640190fd5b608085015180156117565780871015611756576040805162461bcd60e51b815260206004820152601d60248201527f4e465452656e74616c3a206475726174696f6e20746f6f2073686f7274000000604482015290519081900360640190fd5b60608087015160008a815260036020818152604092839020835160808101855281546001600160a01b0316808252600183015493820193909352600282015494810194909452909101549382019390935290911561185357604081015160208201517f0000000000000000000000000000000000000000000000000000000000000000820201421161182f576040805162461bcd60e51b815260206004820152601960248201527f4e465452656e74616c3a20616c72656164792072656e74656400000000000000604482015290519081900360640190fd5b82156118515760608201518103801561184f5761184f888a868402612e92565b505b505b6040518060800160405280866001600160a01b031681526020014281526020018a81526020016001815250600360008c815260200190815260200160002060008201518160000160006101000a8154816001600160a01b0302191690836001600160a01b03160217905550602082015181600101556040820151816002015560608201518160030155905050816000146118f4576118f4858888858d612f8b565b7f7708c68dd11925cef5c6d4fe125d46fbaada4686f4daeb31ac69e4439d0f2d0187868c8b60a0015160405180856001600160a01b03168152602001846001600160a01b0316815260200183815260200180602001828103825283818151815260200191508051906020019080838360005b8381101561197e578181015183820152602001611966565b50505050905090810190601f1680156119ab5780820380516001836020036101000a031916815260200191505b509550505050505060405180910390a150505050505050505050565b6000818152600260208181526040808420815160c08101835281546001600160a01b0390811682526001808401548216838701528387015490911682850152600383015460608301526004830154608083015260058301805485516101009382161593909302600019011696909604601f81018690048602820186019094528381529094919360a086019391929190830182828015611aa75780601f10611a7c57610100808354040283529160200191611aa7565b820191906000526020600020905b815481529060010190602001808311611a8a57829003601f168201915b50505091909252505050600083815260036020818152604092839020835160808101855281546001600160a01b031680825260018301549382019390935260028201549481019490945290910154606083015291925090611b06612987565b6001600160a01b0316816001600160a01b031614611b6b576040805162461bcd60e51b815260206004820152601960248201527f4e465452656e74616c3a206e6f7420746865206c657373656500000000000000604482015290519081900360640190fd5b60007f00000000000000000000000000000000000000000000000000000000000000008360200151420381611b9c57fe5b0460010190508360800151811015611bfb576040805162461bcd60e51b815260206004820152601c60248201527f4e465452656e74616c3a2063616e6e6f742063616e63656c2079657400000000604482015290519081900360640190fd5b6040830151808210611c54576040805162461bcd60e51b815260206004820152601f60248201527f4e465452656e74616c3a206c656173652066756c6c7920657865637574656400604482015290519081900360640190fd5b600086815260036020526040902060020182905560608501518015611cbe576040860151611c878186868603850261313a565b606086015184038015611cbb57611ca5828960000151858402612e92565b6000898152600360208190526040909120018590555b50505b50505050505050565b60056020526000908152604090205481565b611ce4610ca3612987565b610cb06131c5565b6001546001600160a01b031681565b611d06610ca3612987565b60005b808214611d7957600160046000858585818110611d2257fe5b602090810292909201356001600160a01b031683525081019190915260400160002080547fffffffffffffffffffffffffffffffffffffffffffffffffffffffffffffff0016911515919091179055600101611d09565b505050565b600360208190526000918252604090912080546001820154600283015492909301546001600160a01b0390911692919084565b6000818152600260208181526040808420815160c08101835281546001600160a01b0390811682526001808401548216838701528387015490911682850152600383015460608301526004830154608083015260058301805485516101009382161593909302600019011696909604601f81018690048602820186019094528381529094919360a086019391929190830182828015611e915780601f10611e6657610100808354040283529160200191611e91565b820191906000526020600020905b815481529060010190602001808311611e7457829003601f168201915b5050509190925250508151919250506001600160a01b03811615611d795760008381526003602052604090206002810154606084015182546001600160a01b031615801590611edf57508015155b15610f705760007f00000000000000000000000000000000000000000000000000000000000000008460010154420381611f1557fe5b046001019050828110611f285782611f2a565b805b600385015490935083038015610e8057611f4b876040015187858402612e92565b50505060039190910155505050565b6000546001600160a01b03165b90565b6000336001600160a01b037f00000000000000000000000000000000000000000000000000000000000000001614611fe9576040805162461bcd60e51b815260206004820152601d60248201527f4e465452656e74616c3a2077726f6e67204e465420636f6e7472616374000000604482015290519081900360640190fd5b6000806000806000878760a081101561200157600080fd5b6001600160a01b03823581169260208101359091169160408201359160608101359181019060a08101608082013564010000000081111561204157600080fd5b82018360208201111561205357600080fd5b8035906020019184600183028401116401000000008311171561207557600080fd5b91908080601f01602080910402602001604051908101604052809392919081815260200183838082843760009201829052509a9f50989d50969b5094995097505050505050505b808c146120ec576120e48e878f8f858181106120d457fe5b9050602002013588888888613224565b6001016120bc565b507fbc197c81000000000000000000000000000000000000000000000000000000009e9d5050505050505050505050505050565b61212b610ca3612987565b84838114801561213a57508082145b61218b576040805162461bcd60e51b815260206004820152601a60248201527f5265636f763a20696e636f6e73697374656e7420617272617973000000000000604482015290519081900360640190fd5b60005b818114610e805760008484838181106121a357fe5b90506020020135905060008787848181106121ba57fe5b905060200201356001600160a01b031690507f00000000000000000000000000000000000000000000000000000000000000006001600160a01b0316816001600160a01b03161415612270576000828152600260205260409020546001600160a01b031615612270576040805162461bcd60e51b815260206004820152601860248201527f5265636f763a20746f6b656e20697320666f722072656e740000000000000000604482015290519081900360640190fd5b87878481811061227c57fe5b905060200201356001600160a01b03166001600160a01b03166323b872dd308c8c878181106122a757fe5b905060200201356001600160a01b0316856040518463ffffffff1660e01b815260040180846001600160a01b03168152602001836001600160a01b031681526020018281526020019350505050600060405180830381600087803b15801561230e57600080fd5b505af1158015612322573d6000803e3d6000fd5b50505050505080600101905061218e565b60008481526002602081905260409091208054918101546003820154600483015492936001600160a01b039081169392169161236d612987565b6001600160a01b0316846001600160a01b0316146123d2576040805162461bcd60e51b815260206004820152601c60248201527f4e465452656e74616c3a206e6f7420746865204e4654206f776e657200000000604482015290519081900360640190fd5b6000898152600360205260409020600281015481546001600160a01b0316156124e05760007f0000000000000000000000000000000000000000000000000000000000000000836001015442038161242657fe5b04600101905083811015612481576040805162461bcd60e51b815260206004820152601c60248201527f4e465452656e74616c3a2063616e6e6f742063616e63656c2079657400000000604482015290519081900360640190fd5b818110156124b5576002830181905584156124b55782546124b19087906001600160a01b0316838503880261313a565b8091505b84156124de576003830154820380156124dc57600384018390556124dc8789838902612e92565b505b505b8884146124ef57600387018990555b896001600160a01b0316856001600160a01b0316146125b2576001600160a01b038a16158061253657506001600160a01b038a1660009081526004602052604090205460ff165b612587576040805162461bcd60e51b815260206004820152601660248201527f52656e74616c3a2077726f6e672063757272656e637900000000000000000000604482015290519081900360640190fd5b60028701805473ffffffffffffffffffffffffffffffffffffffff19166001600160a01b038c161790555b8783146125c157600487018890555b5050505050505050505050565b600260208181526000928352604092839020805460018083015483860154600385015460048601546005870180548b516101009782161597909702600019011699909904601f8101899004890286018901909a528985526001600160a01b039586169993861698959092169690959194919392908301828280156126935780601f1061266857610100808354040283529160200191612693565b820191906000526020600020905b81548152906001019060200180831161267657829003601f168201915b5050505050905086565b6000336001600160a01b037f0000000000000000000000000000000000000000000000000000000000000000161461271c576040805162461bcd60e51b815260206004820152601d60248201527f4e465452656e74616c3a2077726f6e67204e465420636f6e7472616374000000604482015290519081900360640190fd5b7f00000000000000000000000000000000000000000000000000000000000000006001600160a01b031663adebf6f2866040518263ffffffff1660e01b81526004018082815260200191505060206040518083038186803b15801561278057600080fd5b505afa158015612794573d6000803e3d6000fd5b505050506040513d60208110156127aa57600080fd5b5051156127fe576040805162461bcd60e51b815260206004820152601460248201527f4e465452656e74616c3a206f6e6c79204e465473000000000000000000000000604482015290519081900360640190fd5b6000806000806000878760a081101561281657600080fd5b6001600160a01b03823581169260208101359091169160408201359160608101359181019060a08101608082013564010000000081111561285657600080fd5b82018360208201111561286857600080fd5b8035906020019184600183028401116401000000008311171561288a57600080fd5b91908080601f016020809104026020016040519081016040528093929190818152602001838380828437600081840152601f19601f820116905080830192505050505050509192919290505050945094509450945094506128f08b868c87878787613224565b507ff23a6e61000000000000000000000000000000000000000000000000000000009b9a5050505050505050505050565b61292c610ca3612987565b6000805473ffffffffffffffffffffffffffffffffffffffff19166001600160a01b0383811691821780845560405192939116917f8be0079c531659141344cd1fd0a4f28419497f9722a3daafe3b4186f6b6457e09190a350565b600061299161336e565b905090565b306001600160a01b0316638da5cb5b6040518163ffffffff1660e01b815260040160206040518083038186803b1580156129cf57600080fd5b505afa1580156129e3573d6000803e3d6000fd5b505050506040513d60208110156129f957600080fd5b50516001600160a01b03828116911614612a5a576040805162461bcd60e51b815260206004820152601660248201527f4f776e61626c653a206e6f7420746865206f776e657200000000000000000000604482015290519081900360640190fd5b50565b612a656134ce565b600080547fffffffffffffffffffffff00ffffffffffffffffffffffffffffffffffffffff1690557f5db9ee0a495bf2e6ff9c91a7834c1ba4fdd244a5e8aa4e537bd38aeae4b073aa612ab6612987565b604080516001600160a01b039092168252519081900360200190a1565b6000828152600260208181526040808420815160c08101835281546001600160a01b0390811682526001808401548216838701528387015490911682850152600383015460608301526004830154608083015260058301805485516101009382161593909302600019011696909604601f81018690048602820186019094528381529094919360a086019391929190830182828015612bb35780601f10612b8857610100808354040283529160200191612bb3565b820191906000526020600020905b815481529060010190602001808311612b9657829003601f168201915b5050509190925250508151919250506001600160a01b0380821690841614612c22576040805162461bcd60e51b815260206004820152601c60248201527f4e465452656e74616c3a206e6f7420746865204e4654206f776e657200000000604482015290519081900360640190fd5b600084815260036020818152604092839020835160808101855281546001600160a01b03168082526001830154938201939093526002820154948101859052920154606083015290919015612d55577f000000000000000000000000000000000000000000000000000000000000000081028260200151014211612ced576040805162461bcd60e51b815260206004820152601760248201527f4e465452656e74616c3a207374696c6c2072656e746564000000000000000000604482015290519081900360640190fd5b60608401518015612d1857606083015182038015612d1657612d16866040015186848402612e92565b505b5060008681526003602081905260408220805473ffffffffffffffffffffffffffffffffffffffff19168155600181018390556002810183905501555b60008681526002602081905260408220805473ffffffffffffffffffffffffffffffffffffffff199081168255600182018054821690559181018054909216909155600381018290556004810182905590610e8060058301826137f6565b604080516001600160a01b038416602482015260448082018490528251808303909101815260649091019091526020810180517bffffffffffffffffffffffffffffffffffffffffffffffffffffffff167fa9059cbb00000000000000000000000000000000000000000000000000000000179052611d7990849061352c565b600054600160a01b900460ff1615610cb0576040805162461bcd60e51b815260206004820152601060248201527f5061757361626c653a2070617573656400000000000000000000000000000000604482015290519081900360640190fd5b600080612e9e8361370f565b90925090506001600160a01b03851673eeeeeeeeeeeeeeeeeeeeeeeeeeeeeeeeeeeeeeee1415612f3f576001546040516001600160a01b039091169082156108fc029083906000818181858888f19350505050158015612f02573d6000803e3d6000fd5b506040516001600160a01b0385169083156108fc029084906000818181858888f19350505050158015612f39573d6000803e3d6000fd5b50612f84565b6001600160a01b038086166000818152600560205260409020805486900390556001548792612f7092911684612db3565b610f706001600160a01b0382168685612db3565b5050505050565b600080612f978461370f565b90925090508383026001600160a01b03861673eeeeeeeeeeeeeeeeeeeeeeeeeeeeeeeeeeeeeeee14156130d25780341015613019576040805162461bcd60e51b815260206004820152601860248201527f52656e74616c3a206e6f7420656e6f7567682076616c75650000000000000000604482015290519081900360640190fd5b6040516001600160a01b0388169084156108fc029085906000818181858888f1935050505015801561304f573d6000803e3d6000fd5b506001546040516001600160a01b039091169083156108fc029084906000818181858888f1935050505015801561308a573d6000803e3d6000fd5b50803411156130cd576040516001600160a01b038916903483900380156108fc02916000818181858888f193505050501580156130cb573d6000803e3d6000fd5b505b610e80565b6130e76001600160a01b03871689898661373e565b600154613103906001600160a01b03888116918b91168561373e565b83600114610e80576001600160a01b03861660008181526005602052604090208054928790039283019055610e809089308461373e565b6001600160a01b03831673eeeeeeeeeeeeeeeeeeeeeeeeeeeeeeeeeeeeeeee141561319b576040516001600160a01b0383169082156108fc029083906000818181858888f19350505050158015613195573d6000803e3d6000fd5b50611d79565b6001600160a01b038316600081815260056020526040902080548390039055611d79908383612db3565b6131cd612e33565b600080547fffffffffffffffffffffff00ffffffffffffffffffffffffffffffffffffffff16600160a01b1790557f62e78cea01bee320cd4e420270b5ea74000d11b0c9f74754ebdbfc544b05a258612ab6612987565b6001600160a01b038416158061325257506001600160a01b03841660009081526004602052604090205460ff165b6132a3576040805162461bcd60e51b815260206004820152601660248201527f52656e74616c3a2077726f6e672063757272656e637900000000000000000000604482015290519081900360640190fd5b6040805160c0810182526001600160a01b03808a1682528881166020808401918252888316848601908152606085018981526080860189815260a0870189815260008e815260028087529990208851815490891673ffffffffffffffffffffffffffffffffffffffff199182161782559651600182018054918a1691891691909117905593519884018054999097169890951697909717909455925160038401559351600483015551805192939192613362926005850192019061383a565b50505050505050505050565b6000338161337a6137c6565b90507f00000000000000000000000000000000000000000000000000000000000000006001600160a01b0316826001600160a01b031614806133ed57507f00000000000000000000000000000000000000000000000000000000000000006001600160a01b0316826001600160a01b0316145b156133fb579150611f679050565b6001600160a01b03821632148015906134ba57507f00000000000000000000000000000000000000000000000000000000000000006001600160a01b031663e60125d682846040518363ffffffff1660e01b815260040180836001600160a01b03168152602001826001600160a01b031681526020019250505060206040518083038186803b15801561348d57600080fd5b505afa1580156134a1573d6000803e3d6000fd5b505050506040513d60208110156134b757600080fd5b50515b156134c8579150611f679050565b50905090565b600054600160a01b900460ff16610cb0576040805162461bcd60e51b815260206004820152601460248201527f5061757361626c653a206e6f7420706175736564000000000000000000000000604482015290519081900360640190fd5b8161353f6001600160a01b0382166137f0565b613590576040805162461bcd60e51b815260206004820152601a60248201527f4552433230577261707065723a206e6f6e2d636f6e7472616374000000000000604482015290519081900360640190fd5b600080826001600160a01b0316846040518082805190602001908083835b602083106135cd5780518252601f1990920191602091820191016135ae565b6001836020036101000a0380198251168184511680821785525050505050509050019150506000604051808303816000865af19150503d806000811461362f576040519150601f19603f3d011682016040523d82523d6000602084013e613634565b606091505b509150915081156136b3578051156136ae5780806020019051602081101561365b57600080fd5b50516136ae576040805162461bcd60e51b815260206004820152601e60248201527f4552433230577261707065723a206f7065726174696f6e206661696c65640000604482015290519081900360640190fd5b612f84565b8051613706576040805162461bcd60e51b815260206004820152601e60248201527f4552433230577261707065723a206f7065726174696f6e206661696c65640000604482015290519081900360640190fd5b80518082602001fd5b620186a07f00000000000000000000000000000000000000000000000000000000000000008202049081900391565b604080516001600160a01b0380861660248301528416604482015260648082018490528251808303909101815260849091019091526020810180517bffffffffffffffffffffffffffffffffffffffffffffffffffffffff167f23b872dd00000000000000000000000000000000000000000000000000000000179052610c2690859061352c565b7fffffffffffffffffffffffffffffffffffffffffffffffffffffffffffffffec36013560601c90565b3b151590565b50805460018160011615610100020316600290046000825580601f1061381c5750612a5a565b601f016020900490600052602060002090810190612a5a91906138c6565b828054600181600116156101000203166002900490600052602060002090601f01602090048101928261387057600085556138b6565b82601f1061388957805160ff19168380011785556138b6565b828001600101855582156138b6579182015b828111156138b657825182559160200191906001019061389b565b506138c29291506138c6565b5090565b5b808211156138c257600081556001016138c756fea2646970667358221220a9bf4bb2f689c5ede27f9ffc3eeed1d0e848372d5348b0dad2ea2f1631b45ec264736f6c63430007060033",
  "linkReferences": {},
  "deployedLinkReferences": {}
}