{
  "_format": "hh-sol-artifact-1",
  "contractName": "ERC721DelegationManager",
  "sourceName": "contracts/token/utils/ERC721DelegationManager.sol",
  "abi": [
    {
      "inputs": [
        {
          "internalType": "contract IForwarderRegistry",
          "name": "forwarderRegistry",
          "type": "address"
        },
        {
          "internalType": "address",
          "name": "universalForwarder",
          "type": "address"
        },
        {
          "internalType": "contract IRecoverableERC721",
          "name": "nftContract",
          "type": "address"
        },
        {
          "internalType": "contract INFTDelegationRegistry",
          "name": "nftDelegationRegistry",
          "type": "address"
        }
      ],
      "stateMutability": "nonpayable",
      "type": "constructor"
    },
    {
      "anonymous": false,
      "inputs": [
        {
          "indexed": false,
          "internalType": "address",
          "name": "owner",
          "type": "address"
        },
        {
          "indexed": false,
          "internalType": "address",
          "name": "user",
          "type": "address"
        },
        {
          "indexed": false,
          "internalType": "address",
          "name": "nftContract",
          "type": "address"
        },
        {
          "indexed": false,
          "internalType": "uint256[]",
          "name": "tokenIds",
          "type": "uint256[]"
        },
        {
          "indexed": false,
          "internalType": "contract INFTDelegationManager",
          "name": "delegationManager",
          "type": "address"
        },
        {
          "indexed": false,
          "internalType": "bytes",
          "name": "data",
          "type": "bytes"
        }
      ],
      "name": "BatchDelegation",
      "type": "event"
    },
    {
      "anonymous": false,
      "inputs": [
        {
          "indexed": true,
          "internalType": "address",
          "name": "previousOwner",
          "type": "address"
        },
        {
          "indexed": true,
          "internalType": "address",
          "name": "newOwner",
          "type": "address"
        }
      ],
      "name": "OwnershipTransferred",
      "type": "event"
    },
    {
      "anonymous": false,
      "inputs": [
        {
          "indexed": false,
          "internalType": "address",
          "name": "owner",
          "type": "address"
        },
        {
          "indexed": false,
          "internalType": "address",
          "name": "user",
          "type": "address"
        },
        {
          "indexed": false,
          "internalType": "address",
          "name": "nftContract",
          "type": "address"
        },
        {
          "indexed": false,
          "internalType": "uint256",
          "name": "tokenId",
          "type": "uint256"
        },
        {
          "indexed": false,
          "internalType": "contract INFTDelegationManager",
          "name": "delegationManager",
          "type": "address"
        },
        {
          "indexed": false,
          "internalType": "bytes",
          "name": "data",
          "type": "bytes"
        }
      ],
      "name": "SingleDelegation",
      "type": "event"
    },
    {
      "inputs": [],
      "name": "NFT_CONTRACT",
      "outputs": [
        {
          "internalType": "contract IRecoverableERC721",
          "name": "",
          "type": "address"
        }
      ],
      "stateMutability": "view",
      "type": "function"
    },
    {
      "inputs": [],
      "name": "NFT_DELEGATION_REGISTRY",
      "outputs": [
        {
          "internalType": "contract INFTDelegationRegistry",
          "name": "",
          "type": "address"
        }
      ],
      "stateMutability": "view",
      "type": "function"
    },
    {
      "inputs": [
        {
          "internalType": "uint256",
          "name": "",
          "type": "uint256"
        }
      ],
      "name": "_delegations",
      "outputs": [
        {
          "internalType": "address",
          "name": "from",
          "type": "address"
        },
        {
          "internalType": "address",
          "name": "to",
          "type": "address"
        },
        {
          "internalType": "bytes",
          "name": "delegationData",
          "type": "bytes"
        }
      ],
      "stateMutability": "view",
      "type": "function"
    },
    {
      "inputs": [
        {
          "internalType": "uint256[]",
          "name": "tokenIds",
          "type": "uint256[]"
        }
      ],
      "name": "batchEndDelegation",
      "outputs": [],
      "stateMutability": "nonpayable",
      "type": "function"
    },
    {
      "inputs": [
        {
          "internalType": "address",
          "name": "nftContract",
          "type": "address"
        },
        {
          "internalType": "uint256",
          "name": "tokenId",
          "type": "uint256"
        }
      ],
      "name": "delegationInfo",
      "outputs": [
        {
          "internalType": "address",
          "name": "from",
          "type": "address"
        },
        {
          "internalType": "address",
          "name": "to",
          "type": "address"
        },
        {
          "internalType": "bytes",
          "name": "delegationData",
          "type": "bytes"
        }
      ],
      "stateMutability": "view",
      "type": "function"
    },
    {
      "inputs": [
        {
          "internalType": "uint256",
          "name": "tokenId",
          "type": "uint256"
        }
      ],
      "name": "endDelegation",
      "outputs": [],
      "stateMutability": "nonpayable",
      "type": "function"
    },
    {
      "inputs": [
        {
          "internalType": "address",
          "name": "forwarder",
          "type": "address"
        }
      ],
      "name": "isTrustedForwarder",
      "outputs": [
        {
          "internalType": "bool",
          "name": "",
          "type": "bool"
        }
      ],
      "stateMutability": "view",
      "type": "function"
    },
    {
      "inputs": [
        {
          "internalType": "address",
          "name": "",
          "type": "address"
        },
        {
          "internalType": "address",
          "name": "from",
          "type": "address"
        },
        {
          "internalType": "uint256",
          "name": "tokenId",
          "type": "uint256"
        },
        {
          "internalType": "bytes",
          "name": "data",
          "type": "bytes"
        }
      ],
      "name": "onERC721Received",
      "outputs": [
        {
          "internalType": "bytes4",
          "name": "",
          "type": "bytes4"
        }
      ],
      "stateMutability": "nonpayable",
      "type": "function"
    },
    {
      "inputs": [],
      "name": "owner",
      "outputs": [
        {
          "internalType": "address",
          "name": "",
          "type": "address"
        }
      ],
      "stateMutability": "view",
      "type": "function"
    },
    {
      "inputs": [
        {
          "internalType": "address[]",
          "name": "accounts",
          "type": "address[]"
        },
        {
          "internalType": "address[]",
          "name": "tokens",
          "type": "address[]"
        },
        {
          "internalType": "uint256[]",
          "name": "amounts",
          "type": "uint256[]"
        }
      ],
      "name": "recoverERC20s",
      "outputs": [],
      "stateMutability": "nonpayable",
      "type": "function"
    },
    {
      "inputs": [
        {
          "internalType": "address[]",
          "name": "accounts",
          "type": "address[]"
        },
        {
          "internalType": "address[]",
          "name": "contracts",
          "type": "address[]"
        },
        {
          "internalType": "uint256[]",
          "name": "tokenIds",
          "type": "uint256[]"
        }
      ],
      "name": "recoverERC721s",
      "outputs": [],
      "stateMutability": "nonpayable",
      "type": "function"
    },
    {
      "inputs": [
        {
          "internalType": "bytes4",
          "name": "interfaceId",
          "type": "bytes4"
        }
      ],
      "name": "supportsInterface",
      "outputs": [
        {
          "internalType": "bool",
          "name": "",
          "type": "bool"
        }
      ],
      "stateMutability": "view",
      "type": "function"
    },
    {
      "inputs": [
        {
          "internalType": "address",
          "name": "newOwner",
          "type": "address"
        }
      ],
      "name": "transferOwnership",
      "outputs": [],
      "stateMutability": "nonpayable",
      "type": "function"
    }
  ],
  "bytecode": "0x61010060405234801561001157600080fd5b50604051611a28380380611a288339818101604052608081101561003457600080fd5b5080516020820151604080840151606090940151600080546001600160a01b03191633908117825592519495939491928692869282917f8be0079c531659141344cd1fd0a4f28419497f9722a3daafe3b4186f6b6457e0908290a3506001600160601b0319606091821b811660a05291811b821660805292831b811660c052911b1660e052505060805160601c60a05160601c60c05160601c60e05160601c6118fa61012e600039806108ab5280610ec05250806106ba52806108dc52806109dd5280610a065280610e1c5280610f905280611246525080610b27528061149d525080610b62528061146252806114f552506118fa6000f3fe608060405234801561001057600080fd5b50600436106100df5760003560e01c80638da5cb5b1161008c578063a5291e7c11610066578063a5291e7c14610462578063c3666c361461046a578063f2fde38b1461057e578063f6068b0c146105a4576100df565b80638da5cb5b146104205780638f4fa7e914610428578063a4aa60dc14610445576100df565b806340aeb123116100bd57806340aeb12314610220578063572b6c05146102e457806373c8a9581461030a576100df565b806301ffc9a7146100e4578063150b7a02146101375780631fda9a02146101fc575b600080fd5b610123600480360360208110156100fa57600080fd5b50357fffffffff0000000000000000000000000000000000000000000000000000000016610614565b604080519115158252519081900360200190f35b6101c76004803603608081101561014d57600080fd5b6001600160a01b0382358116926020810135909116916040820135919081019060808101606082013564010000000081111561018857600080fd5b82018360208201111561019a57600080fd5b803590602001918460018302840111640100000000831117156101bc57600080fd5b5090925090506106ad565b604080517fffffffff000000000000000000000000000000000000000000000000000000009092168252519081900360200190f35b6102046109db565b604080516001600160a01b039092168252519081900360200190f35b61024c6004803603604081101561023657600080fd5b506001600160a01b0381351690602001356109ff565b60405180846001600160a01b03168152602001836001600160a01b0316815260200180602001828103825283818151815260200191508051906020019080838360005b838110156102a757818101518382015260200161028f565b50505050905090810190601f1680156102d45780820380516001836020036101000a031916815260200191505b5094505050505060405180910390f35b610123600480360360208110156102fa57600080fd5b50356001600160a01b0316610b23565b61041e6004803603606081101561032057600080fd5b81019060208101813564010000000081111561033b57600080fd5b82018360208201111561034d57600080fd5b8035906020019184602083028401116401000000008311171561036f57600080fd5b91939092909160208101903564010000000081111561038d57600080fd5b82018360208201111561039f57600080fd5b803590602001918460208302840111640100000000831117156103c157600080fd5b9193909290916020810190356401000000008111156103df57600080fd5b8201836020820111156103f157600080fd5b8035906020019184602083028401116401000000008311171561041357600080fd5b509092509050610b9c565b005b610204610c8e565b61024c6004803603602081101561043e57600080fd5b5035610c9e565b61041e6004803603602081101561045b57600080fd5b5035610d57565b610204610ebe565b61041e6004803603606081101561048057600080fd5b81019060208101813564010000000081111561049b57600080fd5b8201836020820111156104ad57600080fd5b803590602001918460208302840111640100000000831117156104cf57600080fd5b9193909290916020810190356401000000008111156104ed57600080fd5b8201836020820111156104ff57600080fd5b8035906020019184602083028401116401000000008311171561052157600080fd5b91939092909160208101903564010000000081111561053f57600080fd5b82018360208201111561055157600080fd5b8035906020019184602083028401116401000000008311171561057357600080fd5b509092509050610ee2565b61041e6004803603602081101561059457600080fd5b50356001600160a01b03166110f4565b61041e600480360360208110156105ba57600080fd5b8101906020810181356401000000008111156105d557600080fd5b8201836020820111156105e757600080fd5b8035906020019184602083028401116401000000008311171561060957600080fd5b50909250905061115a565b60007fffffffff0000000000000000000000000000000000000000000000000000000082167f01ffc9a70000000000000000000000000000000000000000000000000000000014806106a757507fffffffff0000000000000000000000000000000000000000000000000000000082167f150b7a0200000000000000000000000000000000000000000000000000000000145b92915050565b6000336001600160a01b037f0000000000000000000000000000000000000000000000000000000000000000161461072c576040805162461bcd60e51b815260206004820152601960248201527f44656c656761746f723a2077726f6e6720636f6e747261637400000000000000604482015290519081900360640190fd5b6000808484604081101561073f57600080fd5b6001600160a01b03823516919081019060408101602082013564010000000081111561076a57600080fd5b82018360208201111561077c57600080fd5b8035906020019184600183028401116401000000008311171561079e57600080fd5b91908080601f016020809104026020016040519081016040528093929190818152602001838380828437600081840152601f19601f820116905080830192505050505050509192919290505050915091506040518060600160405280886001600160a01b03168152602001836001600160a01b03168152602001828152506001600088815260200190815260200160002060008201518160000160006101000a8154816001600160a01b0302191690836001600160a01b0316021790555060208201518160010160006101000a8154816001600160a01b0302191690836001600160a01b0316021790555060408201518160020190805190602001906108a59291906117e3565b509050507f00000000000000000000000000000000000000000000000000000000000000006001600160a01b0316638b24f40f88847f00000000000000000000000000000000000000000000000000000000000000008a8a8a6040518763ffffffff1660e01b815260040180876001600160a01b03168152602001866001600160a01b03168152602001856001600160a01b03168152602001848152602001806020018281038252848482818152602001925080828437600081840152601f19601f820116905080830192505050975050505050505050600060405180830381600087803b15801561099657600080fd5b505af11580156109aa573d6000803e3d6000fd5b507f150b7a02000000000000000000000000000000000000000000000000000000009b9a5050505050505050505050565b7f000000000000000000000000000000000000000000000000000000000000000081565b60008060607f00000000000000000000000000000000000000000000000000000000000000006001600160a01b0316856001600160a01b03161415610b1c576000848152600160208181526040808420815160608101835281546001600160a01b0390811682528286015416818501526002808301805485516101009882161598909802600019011691909104601f810186900486028701860185528087529195929493860193909190830182828015610afa5780601f10610acf57610100808354040283529160200191610afa565b820191906000526020600020905b815481529060010190602001808311610add57829003601f168201915b5050505050815250509050806000015181602001518260400151935093509350505b9250925092565b60007f00000000000000000000000000000000000000000000000000000000000000006001600160a01b0316826001600160a01b031614806106a757507f00000000000000000000000000000000000000000000000000000000000000006001600160a01b0316826001600160a01b0316149050919050565b610bac610ba76112f7565b611306565b848381148015610bbb57508082145b610c0c576040805162461bcd60e51b815260206004820152601a60248201527f5265636f763a20696e636f6e73697374656e7420617272617973000000000000604482015290519081900360640190fd5b60005b818114610c8457610c7c888883818110610c2557fe5b905060200201356001600160a01b0316858584818110610c4157fe5b90506020020135888885818110610c5457fe5b905060200201356001600160a01b03166001600160a01b03166113cd9092919063ffffffff16565b600101610c0f565b5050505050505050565b6000546001600160a01b03165b90565b6001602081815260009283526040928390208054818401546002808401805488516101009882161598909802600019011691909104601f81018690048602870186019097528686526001600160a01b039283169692909116949293909190830182828015610d4d5780601f10610d2257610100808354040283529160200191610d4d565b820191906000526020600020905b815481529060010190602001808311610d3057829003601f168201915b5050505050905083565b6000610d616112f7565b6000838152600160205260409020549091506001600160a01b03808316911614610dd2576040805162461bcd60e51b815260206004820152601e60248201527f44656c656761746f723a20746f6b656e206e6f742064656c6567617465640000604482015290519081900360640190fd5b60008281526001602081905260408220805473ffffffffffffffffffffffffffffffffffffffff199081168255918101805490921690915590610e18600283018261186f565b50507f00000000000000000000000000000000000000000000000000000000000000006001600160a01b03166323b872dd3083856040518463ffffffff1660e01b815260040180846001600160a01b03168152602001836001600160a01b031681526020018281526020019350505050600060405180830381600087803b158015610ea257600080fd5b505af1158015610eb6573d6000803e3d6000fd5b505050505050565b7f000000000000000000000000000000000000000000000000000000000000000081565b610eed610ba76112f7565b848381148015610efc57508082145b610f4d576040805162461bcd60e51b815260206004820152601a60248201527f5265636f763a20696e636f6e73697374656e7420617272617973000000000000604482015290519081900360640190fd5b60005b818114610c84576000848483818110610f6557fe5b9050602002013590506000878784818110610f7c57fe5b905060200201356001600160a01b031690507f00000000000000000000000000000000000000000000000000000000000000006001600160a01b0316816001600160a01b03161415611031576000828152600160205260409020546001600160a01b0316611031576040805162461bcd60e51b815260206004820152601960248201527f5265636f763a20746f6b656e2069732064656c65676174656400000000000000604482015290519081900360640190fd5b87878481811061103d57fe5b905060200201356001600160a01b03166001600160a01b03166323b872dd308c8c8781811061106857fe5b905060200201356001600160a01b0316856040518463ffffffff1660e01b815260040180846001600160a01b03168152602001836001600160a01b031681526020018281526020019350505050600060405180830381600087803b1580156110cf57600080fd5b505af11580156110e3573d6000803e3d6000fd5b505050505050806001019050610f50565b6110ff610ba76112f7565b6000805473ffffffffffffffffffffffffffffffffffffffff19166001600160a01b0383811691821780845560405192939116917f8be0079c531659141344cd1fd0a4f28419497f9722a3daafe3b4186f6b6457e09190a350565b60006111646112f7565b90508160005b8181146112f057600085858381811061117f57fe5b6020908102929092013560008181526001909352604090922054919250506001600160a01b038581169116146111fc576040805162461bcd60e51b815260206004820152601e60248201527f44656c656761746f723a20746f6b656e206e6f742064656c6567617465640000604482015290519081900360640190fd5b60008181526001602081905260408220805473ffffffffffffffffffffffffffffffffffffffff199081168255918101805490921690915590611242600283018261186f565b50507f00000000000000000000000000000000000000000000000000000000000000006001600160a01b03166323b872dd3086846040518463ffffffff1660e01b815260040180846001600160a01b03168152602001836001600160a01b031681526020018281526020019350505050600060405180830381600087803b1580156112cc57600080fd5b505af11580156112e0573d6000803e3d6000fd5b505050505080600101905061116a565b5050505050565b6000611301611452565b905090565b306001600160a01b0316638da5cb5b6040518163ffffffff1660e01b815260040160206040518083038186803b15801561133f57600080fd5b505afa158015611353573d6000803e3d6000fd5b505050506040513d602081101561136957600080fd5b50516001600160a01b038281169116146113ca576040805162461bcd60e51b815260206004820152601660248201527f4f776e61626c653a206e6f7420746865206f776e657200000000000000000000604482015290519081900360640190fd5b50565b604080516001600160a01b038416602482015260448082018490528251808303909101815260649091019091526020810180517bffffffffffffffffffffffffffffffffffffffffffffffffffffffff167fa9059cbb0000000000000000000000000000000000000000000000000000000017905261144d9084906115b2565b505050565b6000338161145e6117b3565b90507f00000000000000000000000000000000000000000000000000000000000000006001600160a01b0316826001600160a01b031614806114d157507f00000000000000000000000000000000000000000000000000000000000000006001600160a01b0316826001600160a01b0316145b156114df579150610c9b9050565b6001600160a01b038216321480159061159e57507f00000000000000000000000000000000000000000000000000000000000000006001600160a01b031663e60125d682846040518363ffffffff1660e01b815260040180836001600160a01b03168152602001826001600160a01b031681526020019250505060206040518083038186803b15801561157157600080fd5b505afa158015611585573d6000803e3d6000fd5b505050506040513d602081101561159b57600080fd5b50515b156115ac579150610c9b9050565b50905090565b816115c56001600160a01b0382166117dd565b611616576040805162461bcd60e51b815260206004820152601a60248201527f4552433230577261707065723a206e6f6e2d636f6e7472616374000000000000604482015290519081900360640190fd5b600080826001600160a01b0316846040518082805190602001908083835b6020831061167157805182527fffffffffffffffffffffffffffffffffffffffffffffffffffffffffffffffe09092019160209182019101611634565b6001836020036101000a0380198251168184511680821785525050505050509050019150506000604051808303816000865af19150503d80600081146116d3576040519150601f19603f3d011682016040523d82523d6000602084013e6116d8565b606091505b5091509150811561175757805115611752578080602001905160208110156116ff57600080fd5b5051611752576040805162461bcd60e51b815260206004820152601e60248201527f4552433230577261707065723a206f7065726174696f6e206661696c65640000604482015290519081900360640190fd5b6112f0565b80516117aa576040805162461bcd60e51b815260206004820152601e60248201527f4552433230577261707065723a206f7065726174696f6e206661696c65640000604482015290519081900360640190fd5b80518082602001fd5b7fffffffffffffffffffffffffffffffffffffffffffffffffffffffffffffffec36013560601c90565b3b151590565b828054600181600116156101000203166002900490600052602060002090601f016020900481019282611819576000855561185f565b82601f1061183257805160ff191683800117855561185f565b8280016001018555821561185f579182015b8281111561185f578251825591602001919060010190611844565b5061186b9291506118af565b5090565b50805460018160011615610100020316600290046000825580601f1061189557506113ca565b601f0160209004906000526020600020908101906113ca91905b5b8082111561186b57600081556001016118b056fea264697066735822122020b16c7b0e4113586d673cebf40ac894773eb5df8a1338e54f0ceb809d82a55164736f6c63430007060033",
  "linkReferences": {},
  "deployedLinkReferences": {}
}