{
  "_format": "hh-sol-artifact-1",
  "contractName": "NFTRentalMarket",
  "sourceName": "contracts/token/utils/NFTRentalMarket.sol",
  "abi": [
    {
      "inputs": [
        {
          "internalType": "contract IForwarderRegistry",
          "name": "forwarderRegistry",
          "type": "address"
        },
        {
          "internalType": "address",
          "name": "universalForwarder",
          "type": "address"
        },
        {
          "internalType": "address",
          "name": "nftContract",
          "type": "address"
        },
        {
          "internalType": "uint256",
          "name": "periodInSeconds",
          "type": "uint256"
        },
        {
          "internalType": "address payable",
          "name": "operator",
          "type": "address"
        },
        {
          "internalType": "uint256",
          "name": "operatorShare",
          "type": "uint256"
        }
      ],
      "stateMutability": "nonpayable",
      "type": "constructor"
    },
    {
      "anonymous": false,
      "inputs": [
        {
          "indexed": false,
          "internalType": "address",
          "name": "from",
          "type": "address"
        },
        {
          "indexed": false,
          "internalType": "address",
          "name": "to",
          "type": "address"
        },
        {
          "indexed": false,
          "internalType": "uint256[]",
          "name": "tokenIds",
          "type": "uint256[]"
        },
        {
          "indexed": false,
          "internalType": "bytes",
          "name": "delegationData",
          "type": "bytes"
        }
      ],
      "name": "BatchDelegated",
      "type": "event"
    },
    {
      "anonymous": false,
      "inputs": [
        {
          "indexed": false,
          "internalType": "address",
          "name": "from",
          "type": "address"
        },
        {
          "indexed": false,
          "internalType": "address",
          "name": "to",
          "type": "address"
        },
        {
          "indexed": false,
          "internalType": "uint256",
          "name": "tokenId",
          "type": "uint256"
        },
        {
          "indexed": false,
          "internalType": "bytes",
          "name": "delegationData",
          "type": "bytes"
        }
      ],
      "name": "Delegated",
      "type": "event"
    },
    {
      "anonymous": false,
      "inputs": [
        {
          "indexed": true,
          "internalType": "address",
          "name": "previousOwner",
          "type": "address"
        },
        {
          "indexed": true,
          "internalType": "address",
          "name": "newOwner",
          "type": "address"
        }
      ],
      "name": "OwnershipTransferred",
      "type": "event"
    },
    {
      "anonymous": false,
      "inputs": [
        {
          "indexed": false,
          "internalType": "address",
          "name": "account",
          "type": "address"
        }
      ],
      "name": "Paused",
      "type": "event"
    },
    {
      "anonymous": false,
      "inputs": [
        {
          "indexed": false,
          "internalType": "address",
          "name": "payoutWallet_",
          "type": "address"
        }
      ],
      "name": "PayoutWalletSet",
      "type": "event"
    },
    {
      "anonymous": false,
      "inputs": [
        {
          "indexed": false,
          "internalType": "address",
          "name": "account",
          "type": "address"
        }
      ],
      "name": "Unpaused",
      "type": "event"
    },
    {
      "inputs": [],
      "name": "NATIVE_CURRENCY",
      "outputs": [
        {
          "internalType": "address",
          "name": "",
          "type": "address"
        }
      ],
      "stateMutability": "view",
      "type": "function"
    },
    {
      "inputs": [],
      "name": "NFT_CONTRACT",
      "outputs": [
        {
          "internalType": "address",
          "name": "",
          "type": "address"
        }
      ],
      "stateMutability": "view",
      "type": "function"
    },
    {
      "inputs": [],
      "name": "OPERATOR_SHARE",
      "outputs": [
        {
          "internalType": "uint256",
          "name": "",
          "type": "uint256"
        }
      ],
      "stateMutability": "view",
      "type": "function"
    },
    {
      "inputs": [],
      "name": "PERIOD_IN_SECONDS",
      "outputs": [
        {
          "internalType": "uint256",
          "name": "",
          "type": "uint256"
        }
      ],
      "stateMutability": "view",
      "type": "function"
    },
    {
      "inputs": [
        {
          "internalType": "address[]",
          "name": "tokens",
          "type": "address[]"
        }
      ],
      "name": "addWhitelistedCurrencies",
      "outputs": [],
      "stateMutability": "nonpayable",
      "type": "function"
    },
    {
      "inputs": [
        {
          "internalType": "uint256[]",
          "name": "tokenIds",
          "type": "uint256[]"
        }
      ],
      "name": "batchClaimPayout",
      "outputs": [],
      "stateMutability": "nonpayable",
      "type": "function"
    },
    {
      "inputs": [
        {
          "internalType": "uint256",
          "name": "tokenId",
          "type": "uint256"
        }
      ],
      "name": "cancelLeaseAsLessee",
      "outputs": [],
      "stateMutability": "nonpayable",
      "type": "function"
    },
    {
      "inputs": [
        {
          "internalType": "uint256",
          "name": "tokenId",
          "type": "uint256"
        }
      ],
      "name": "claimPayout",
      "outputs": [],
      "stateMutability": "nonpayable",
      "type": "function"
    },
    {
      "inputs": [
        {
          "internalType": "uint256",
          "name": "tokenId",
          "type": "uint256"
        }
      ],
      "name": "delegationInfo",
      "outputs": [
        {
          "internalType": "address",
          "name": "from",
          "type": "address"
        },
        {
          "internalType": "address",
          "name": "to",
          "type": "address"
        },
        {
          "internalType": "bytes",
          "name": "delegationData",
          "type": "bytes"
        }
      ],
      "stateMutability": "view",
      "type": "function"
    },
    {
      "inputs": [
        {
          "internalType": "address",
          "name": "",
          "type": "address"
        }
      ],
      "name": "escrowedERC20s",
      "outputs": [
        {
          "internalType": "uint256",
          "name": "",
          "type": "uint256"
        }
      ],
      "stateMutability": "view",
      "type": "function"
    },
    {
      "inputs": [
        {
          "internalType": "address",
          "name": "forwarder",
          "type": "address"
        }
      ],
      "name": "isTrustedForwarder",
      "outputs": [
        {
          "internalType": "bool",
          "name": "",
          "type": "bool"
        }
      ],
      "stateMutability": "view",
      "type": "function"
    },
    {
      "inputs": [
        {
          "internalType": "uint256",
          "name": "",
          "type": "uint256"
        }
      ],
      "name": "leases",
      "outputs": [
        {
          "internalType": "address payable",
          "name": "lessee",
          "type": "address"
        },
        {
          "internalType": "uint256",
          "name": "startDate",
          "type": "uint256"
        },
        {
          "internalType": "uint256",
          "name": "duration",
          "type": "uint256"
        },
        {
          "internalType": "uint256",
          "name": "paid",
          "type": "uint256"
        }
      ],
      "stateMutability": "view",
      "type": "function"
    },
    {
      "inputs": [
        {
          "internalType": "uint256",
          "name": "",
          "type": "uint256"
        }
      ],
      "name": "listings",
      "outputs": [
        {
          "internalType": "address payable",
          "name": "owner",
          "type": "address"
        },
        {
          "internalType": "address payable",
          "name": "designatedLessee",
          "type": "address"
        },
        {
          "internalType": "address",
          "name": "currency",
          "type": "address"
        },
        {
          "internalType": "uint256",
          "name": "price",
          "type": "uint256"
        },
        {
          "internalType": "uint256",
          "name": "minimumDuration",
          "type": "uint256"
        },
        {
          "internalType": "bytes",
          "name": "delegationData",
          "type": "bytes"
        }
      ],
      "stateMutability": "view",
      "type": "function"
    },
    {
      "inputs": [],
      "name": "owner",
      "outputs": [
        {
          "internalType": "address",
          "name": "",
          "type": "address"
        }
      ],
      "stateMutability": "view",
      "type": "function"
    },
    {
      "inputs": [],
      "name": "pause",
      "outputs": [],
      "stateMutability": "nonpayable",
      "type": "function"
    },
    {
      "inputs": [],
      "name": "paused",
      "outputs": [
        {
          "internalType": "bool",
          "name": "",
          "type": "bool"
        }
      ],
      "stateMutability": "view",
      "type": "function"
    },
    {
      "inputs": [],
      "name": "payoutWallet",
      "outputs": [
        {
          "internalType": "address payable",
          "name": "",
          "type": "address"
        }
      ],
      "stateMutability": "view",
      "type": "function"
    },
    {
      "inputs": [
        {
          "internalType": "address[]",
          "name": "accounts",
          "type": "address[]"
        },
        {
          "internalType": "address[]",
          "name": "tokens",
          "type": "address[]"
        },
        {
          "internalType": "uint256[]",
          "name": "amounts",
          "type": "uint256[]"
        }
      ],
      "name": "recoverERC20s",
      "outputs": [],
      "stateMutability": "nonpayable",
      "type": "function"
    },
    {
      "inputs": [
        {
          "internalType": "address[]",
          "name": "accounts",
          "type": "address[]"
        },
        {
          "internalType": "address[]",
          "name": "contracts",
          "type": "address[]"
        },
        {
          "internalType": "uint256[]",
          "name": "tokenIds",
          "type": "uint256[]"
        }
      ],
      "name": "recoverERC721s",
      "outputs": [],
      "stateMutability": "nonpayable",
      "type": "function"
    },
    {
      "inputs": [
        {
          "internalType": "uint256",
          "name": "tokenId",
          "type": "uint256"
        },
        {
          "internalType": "uint256",
          "name": "duration",
          "type": "uint256"
        }
      ],
      "name": "rent",
      "outputs": [],
      "stateMutability": "nonpayable",
      "type": "function"
    },
    {
      "inputs": [
        {
          "internalType": "address payable",
          "name": "payoutWallet_",
          "type": "address"
        }
      ],
      "name": "setPayoutWallet",
      "outputs": [],
      "stateMutability": "nonpayable",
      "type": "function"
    },
    {
      "inputs": [
        {
          "internalType": "address",
          "name": "newOwner",
          "type": "address"
        }
      ],
      "name": "transferOwnership",
      "outputs": [],
      "stateMutability": "nonpayable",
      "type": "function"
    },
    {
      "inputs": [],
      "name": "unpause",
      "outputs": [],
      "stateMutability": "nonpayable",
      "type": "function"
    },
    {
      "inputs": [
        {
          "internalType": "uint256",
          "name": "tokenId",
          "type": "uint256"
        },
        {
          "internalType": "address",
          "name": "currency",
          "type": "address"
        },
        {
          "internalType": "uint256",
          "name": "price",
          "type": "uint256"
        },
        {
          "internalType": "uint256",
          "name": "minimumDuration",
          "type": "uint256"
        }
      ],
      "name": "updateListing",
      "outputs": [],
      "stateMutability": "nonpayable",
      "type": "function"
    },
    {
      "inputs": [
        {
          "internalType": "address",
          "name": "",
          "type": "address"
        }
      ],
      "name": "whitelistedCurrencies",
      "outputs": [
        {
          "internalType": "bool",
          "name": "",
          "type": "bool"
        }
      ],
      "stateMutability": "view",
      "type": "function"
    }
  ],
  "bytecode": "0x61012060405234801561001157600080fd5b50604051612be0380380612be0833981810160405260c081101561003457600080fd5b50805160208201516040808401516060850151608086015160a090960151600080546001600160a01b03191633908117825594519697959693959294929391928892889286918390819083907f8be0079c531659141344cd1fd0a4f28419497f9722a3daafe3b4186f6b6457e0908290a35060008054911515600160a01b0260ff60a01b199092169190911790556001600160a01b03811661011d576040805162461bcd60e51b815260206004820152601460248201527f5061796f75743a207a65726f2061646472657373000000000000000000000000604482015290519081900360640190fd5b600180546001600160a01b0383166001600160a01b0319909116811790915560408051918252517fdd880d24a789958a6398c99c2e54ce31bc10a638cbc42f7dd34285479ae0f8559181900360200190a150506001600160601b0319606091821b811660a05291811b82166080529490941b90931660c0525060e05261010052505060805160601c60a05160601c60c05160601c60e051610100516129c7610219600039806108e352806128b052508061089b5280610b305280611198528061154d52806118c65280611c245250806108bf52806119f9525080610950528061253652508061098b52806124fb528061258e52506129c76000f3fe608060405234801561001057600080fd5b50600436106101a35760003560e01c8063783a112b116100ee5780638927a10611610097578063c3666c3611610071578063c3666c361461061f578063d4f8dec014610733578063de74e57b1461076b578063f2fde38b1461083e576101a3565b80638927a106146105ad5780638a69614e146105fa5780638da5cb5b14610617576101a3565b80638456cb59116100c85780638456cb591461052d5780638488bb4e14610535578063889692b71461053d576101a3565b8063783a112b146104c75780637b81e459146104ea57806381c4e89f14610507576101a3565b806349f42650116101505780636a5da4501161012a5780636a5da450146102d85780636b8f9c431461038d57806373c8a958146103b3576101a3565b806349f42650146102a2578063572b6c05146102aa5780635c975abb146102d0576101a3565b80633ca4a253116101815780633ca4a253146102585780633f4ba83a14610260578063436cc13814610268576101a3565b806305abfbc2146101a857806307a2a4e61461021a5780631fda9a0214610234575b600080fd5b610218600480360360208110156101be57600080fd5b8101906020810181356401000000008111156101d957600080fd5b8201836020820111156101eb57600080fd5b8035906020019184602083028401116401000000008311171561020d57600080fd5b509092509050610864565b005b610222610899565b60408051918252519081900360200190f35b61023c6108bd565b604080516001600160a01b039092168252519081900360200190f35b6102226108e1565b610218610905565b61028e6004803603602081101561027e57600080fd5b50356001600160a01b031661091f565b604080519115158252519081900360200190f35b61023c610934565b61028e600480360360208110156102c057600080fd5b50356001600160a01b031661094c565b61028e6109c5565b6102f5600480360360208110156102ee57600080fd5b50356109d5565b60405180846001600160a01b03168152602001836001600160a01b0316815260200180602001828103825283818151815260200191508051906020019080838360005b83811015610350578181015183820152602001610338565b50505050905090810190601f16801561037d5780820380516001836020036101000a031916815260200191505b5094505050505060405180910390f35b610218600480360360208110156103a357600080fd5b50356001600160a01b0316610b84565b610218600480360360608110156103c957600080fd5b8101906020810181356401000000008111156103e457600080fd5b8201836020820111156103f657600080fd5b8035906020019184602083028401116401000000008311171561041857600080fd5b91939092909160208101903564010000000081111561043657600080fd5b82018360208201111561044857600080fd5b8035906020019184602083028401116401000000008311171561046a57600080fd5b91939092909160208101903564010000000081111561048857600080fd5b82018360208201111561049a57600080fd5b803590602001918460208302840111640100000000831117156104bc57600080fd5b509092509050610c51565b610218600480360360408110156104dd57600080fd5b5080359060200135610e46565b6102186004803603602081101561050057600080fd5b50356113a5565b6102226004803603602081101561051d57600080fd5b50356001600160a01b03166116a5565b6102186116b7565b61023c6116ca565b6102186004803603602081101561055357600080fd5b81019060208101813564010000000081111561056e57600080fd5b82018360208201111561058057600080fd5b803590602001918460208302840111640100000000831117156105a257600080fd5b5090925090506116d9565b6105ca600480360360208110156105c357600080fd5b503561175c565b604080516001600160a01b0390951685526020850193909352838301919091526060830152519081900360800190f35b6102186004803603602081101561061057600080fd5b503561178f565b61023c61193b565b6102186004803603606081101561063557600080fd5b81019060208101813564010000000081111561065057600080fd5b82018360208201111561066257600080fd5b8035906020019184602083028401116401000000008311171561068457600080fd5b9193909290916020810190356401000000008111156106a257600080fd5b8201836020820111156106b457600080fd5b803590602001918460208302840111640100000000831117156106d657600080fd5b9193909290916020810190356401000000008111156106f457600080fd5b82018360208201111561070657600080fd5b8035906020019184602083028401116401000000008311171561072857600080fd5b50909250905061194b565b6102186004803603608081101561074957600080fd5b508035906001600160a01b036020820135169060408101359060600135611b5e565b6107886004803603602081101561078157600080fd5b5035611df9565b60405180876001600160a01b03168152602001866001600160a01b03168152602001856001600160a01b0316815260200184815260200183815260200180602001828103825283818151815260200191508051906020019080838360005b838110156107fe5781810151838201526020016107e6565b50505050905090810190601f16801561082b5780820380516001836020036101000a031916815260200191505b5097505050505050505060405180910390f35b6102186004803603602081101561085457600080fd5b50356001600160a01b0316611ec8565b8060005b818110156108935761088b84848381811061087f57fe5b9050602002013561178f565b600101610868565b50505050565b7f000000000000000000000000000000000000000000000000000000000000000081565b7f000000000000000000000000000000000000000000000000000000000000000081565b7f000000000000000000000000000000000000000000000000000000000000000081565b610915610910611f2e565b611f3d565b61091d612004565b565b60046020526000908152604090205460ff1681565b73eeeeeeeeeeeeeeeeeeeeeeeeeeeeeeeeeeeeeeee81565b60007f00000000000000000000000000000000000000000000000000000000000000006001600160a01b0316826001600160a01b031614806109bf57507f00000000000000000000000000000000000000000000000000000000000000006001600160a01b0316826001600160a01b0316145b92915050565b600054600160a01b900460ff1681565b6000818152600260208181526040808420815160c08101835281546001600160a01b039081168252600180840154821683870152838701549091168285015260038301546060808401919091526004840154608084015260058401805486516101009482161594909402600019011697909704601f810187900487028301870190955284825287969095879593949360a08601939291830182828015610abc5780601f10610a9157610100808354040283529160200191610abc565b820191906000526020600020905b815481529060010190602001808311610a9f57829003601f168201915b5050509190925250508151919250506001600160a01b03811615610b7a57600086815260036020818152604092839020835160808101855281546001600160a01b03168082526001830154938201939093526002820154948101949094529091015460608301528015801590610b5d5750427f0000000000000000000000000000000000000000000000000000000000000000836040015102836020015101105b15610b775760a0909301519195509193509150610b7d9050565b50505b50505b9193909250565b610b8f610910611f2e565b6001600160a01b038116610bea576040805162461bcd60e51b815260206004820152601460248201527f5061796f75743a207a65726f2061646472657373000000000000000000000000604482015290519081900360640190fd5b6001805473ffffffffffffffffffffffffffffffffffffffff19166001600160a01b03838116919091179182905560408051929091168252517fdd880d24a789958a6398c99c2e54ce31bc10a638cbc42f7dd34285479ae0f855916020908290030190a150565b610c5c610910611f2e565b848381148015610c6b57508082145b610cbc576040805162461bcd60e51b815260206004820152601a60248201527f5265636f763a20696e636f6e73697374656e7420617272617973000000000000604482015290519081900360640190fd5b60005b818114610e3c576000868683818110610cd457fe5b905060200201356001600160a01b031690506000858584818110610cf457fe5b6001600160a01b03851660008181526005602090815260408083205481517f70a082310000000000000000000000000000000000000000000000000000000081523060048201529151958302979097013597509195945091926370a082319260248084019391929182900301818887803b158015610d7157600080fd5b505af1158015610d85573d6000803e3d6000fd5b505050506040513d6020811015610d9b57600080fd5b505103905080821115610df5576040805162461bcd60e51b815260206004820152601b60248201527f5265636f763a20696e73756666696369656e742062616c616e63650000000000604482015290519081900360640190fd5b610e2e8b8b86818110610e0457fe5b905060200201356001600160a01b031683856001600160a01b031661207a9092919063ffffffff16565b505050806001019050610cbf565b5050505050505050565b610e4e6120fa565b80610ea0576040805162461bcd60e51b815260206004820152601860248201527f4e465452656e74616c3a207a65726f206475726174696f6e0000000000000000604482015290519081900360640190fd5b6000828152600260208181526040808420815160c08101835281546001600160a01b0390811682526001808401548216838701528387015490911682850152600383015460608301526004830154608083015260058301805485516101009382161593909302600019011696909604601f81018690048602820186019094528381529094919360a086019391929190830182828015610f805780601f10610f5557610100808354040283529160200191610f80565b820191906000526020600020905b815481529060010190602001808311610f6357829003601f168201915b5050509190925250508151919250506001600160a01b038116610fea576040805162461bcd60e51b815260206004820152601c60248201527f4e465452656e74616c3a206e6f74206f6e20746865206d61726b657400000000604482015290519081900360640190fd5b60408201516001600160a01b03811661104a576040805162461bcd60e51b815260206004820152601a60248201527f4e465452656e74616c3a2072656e74616c2064697361626c6564000000000000604482015290519081900360640190fd5b6000611054611f2e565b60208501519091506001600160a01b03811615806110835750816001600160a01b0316816001600160a01b0316145b6110d4576040805162461bcd60e51b815260206004820152601a60248201527f4e465452656e74616c3a2070726976617465206c697374696e67000000000000604482015290519081900360640190fd5b608085015180156111345780871015611134576040805162461bcd60e51b815260206004820152601d60248201527f4e465452656e74616c3a206475726174696f6e20746f6f2073686f7274000000604482015290519081900360640190fd5b60608087015160008a815260036020818152604092839020835160808101855281546001600160a01b0316808252600183015493820193909352600282015494810194909452909101549382019390935290911561123157604081015160208201517f0000000000000000000000000000000000000000000000000000000000000000820201421161120d576040805162461bcd60e51b815260206004820152601960248201527f4e465452656e74616c3a20616c72656164792072656e74656400000000000000604482015290519081900360640190fd5b821561122f5760608201518103801561122d5761122d888a868402612159565b505b505b6040518060800160405280866001600160a01b031681526020014281526020018a81526020016001815250600360008c815260200190815260200160002060008201518160000160006101000a8154816001600160a01b0302191690836001600160a01b03160217905550602082015181600101556040820151816002015560608201518160030155905050816000146112d2576112d2858888858d612252565b7f7708c68dd11925cef5c6d4fe125d46fbaada4686f4daeb31ac69e4439d0f2d0187868c8b60a0015160405180856001600160a01b03168152602001846001600160a01b0316815260200183815260200180602001828103825283818151815260200191508051906020019080838360005b8381101561135c578181015183820152602001611344565b50505050905090810190601f1680156113895780820380516001836020036101000a031916815260200191505b509550505050505060405180910390a150505050505050505050565b6000818152600260208181526040808420815160c08101835281546001600160a01b0390811682526001808401548216838701528387015490911682850152600383015460608301526004830154608083015260058301805485516101009382161593909302600019011696909604601f81018690048602820186019094528381529094919360a0860193919291908301828280156114855780601f1061145a57610100808354040283529160200191611485565b820191906000526020600020905b81548152906001019060200180831161146857829003601f168201915b50505091909252505050600083815260036020818152604092839020835160808101855281546001600160a01b0316808252600183015493820193909352600282015494810194909452909101546060830152919250906114e4611f2e565b6001600160a01b0316816001600160a01b031614611549576040805162461bcd60e51b815260206004820152601960248201527f4e465452656e74616c3a206e6f7420746865206c657373656500000000000000604482015290519081900360640190fd5b60007f0000000000000000000000000000000000000000000000000000000000000000836020015142038161157a57fe5b04600101905083608001518110156115d9576040805162461bcd60e51b815260206004820152601c60248201527f4e465452656e74616c3a2063616e6e6f742063616e63656c2079657400000000604482015290519081900360640190fd5b6040830151808210611632576040805162461bcd60e51b815260206004820152601f60248201527f4e465452656e74616c3a206c656173652066756c6c7920657865637574656400604482015290519081900360640190fd5b60008681526003602052604090206002018290556060850151801561169c57604086015161166581868686038502612401565b60608601518403801561169957611683828960000151858402612159565b6000898152600360208190526040909120018590555b50505b50505050505050565b60056020526000908152604090205481565b6116c2610910611f2e565b61091d61248c565b6001546001600160a01b031681565b6116e4610910611f2e565b60005b8082146117575760016004600085858581811061170057fe5b602090810292909201356001600160a01b031683525081019190915260400160002080547fffffffffffffffffffffffffffffffffffffffffffffffffffffffffffffff00169115159190911790556001016116e7565b505050565b600360208190526000918252604090912080546001820154600283015492909301546001600160a01b0390911692919084565b6000818152600260208181526040808420815160c08101835281546001600160a01b0390811682526001808401548216838701528387015490911682850152600383015460608301526004830154608083015260058301805485516101009382161593909302600019011696909604601f81018690048602820186019094528381529094919360a08601939192919083018282801561186f5780601f106118445761010080835404028352916020019161186f565b820191906000526020600020905b81548152906001019060200180831161185257829003601f168201915b5050509190925250508151919250506001600160a01b038116156117575760008381526003602052604090206002810154606084015182546001600160a01b0316158015906118bd57508015155b156119335760007f000000000000000000000000000000000000000000000000000000000000000084600101544203816118f357fe5b0460010190508281106119065782611908565b805b600385015490935083038015610e3c57611929876040015187858402612159565b6003850184905550505b505050505050565b6000546001600160a01b03165b90565b611956610910611f2e565b84838114801561196557508082145b6119b6576040805162461bcd60e51b815260206004820152601a60248201527f5265636f763a20696e636f6e73697374656e7420617272617973000000000000604482015290519081900360640190fd5b60005b818114610e3c5760008484838181106119ce57fe5b90506020020135905060008787848181106119e557fe5b905060200201356001600160a01b031690507f00000000000000000000000000000000000000000000000000000000000000006001600160a01b0316816001600160a01b03161415611a9b576000828152600260205260409020546001600160a01b031615611a9b576040805162461bcd60e51b815260206004820152601860248201527f5265636f763a20746f6b656e20697320666f722072656e740000000000000000604482015290519081900360640190fd5b878784818110611aa757fe5b905060200201356001600160a01b03166001600160a01b03166323b872dd308c8c87818110611ad257fe5b905060200201356001600160a01b0316856040518463ffffffff1660e01b815260040180846001600160a01b03168152602001836001600160a01b031681526020018281526020019350505050600060405180830381600087803b158015611b3957600080fd5b505af1158015611b4d573d6000803e3d6000fd5b5050505050508060010190506119b9565b60008481526002602081905260409091208054918101546003820154600483015492936001600160a01b0390811693921691611b98611f2e565b6001600160a01b0316846001600160a01b031614611bfd576040805162461bcd60e51b815260206004820152601c60248201527f4e465452656e74616c3a206e6f7420746865204e4654206f776e657200000000604482015290519081900360640190fd5b6000898152600360205260409020600281015481546001600160a01b031615611d0b5760007f00000000000000000000000000000000000000000000000000000000000000008360010154420381611c5157fe5b04600101905083811015611cac576040805162461bcd60e51b815260206004820152601c60248201527f4e465452656e74616c3a2063616e6e6f742063616e63656c2079657400000000604482015290519081900360640190fd5b81811015611ce057600283018190558415611ce0578254611cdc9087906001600160a01b03168385038802612401565b8091505b8415611d0957600383015482038015611d075760038401839055611d078789838902612159565b505b505b888414611d1a57600387018990555b896001600160a01b0316856001600160a01b031614611ddd576001600160a01b038a161580611d6157506001600160a01b038a1660009081526004602052604090205460ff165b611db2576040805162461bcd60e51b815260206004820152601660248201527f52656e74616c3a2077726f6e672063757272656e637900000000000000000000604482015290519081900360640190fd5b60028701805473ffffffffffffffffffffffffffffffffffffffff19166001600160a01b038c161790555b878314611dec57600487018890555b5050505050505050505050565b600260208181526000928352604092839020805460018083015483860154600385015460048601546005870180548b516101009782161597909702600019011699909904601f8101899004890286018901909a528985526001600160a01b03958616999386169895909216969095919491939290830182828015611ebe5780601f10611e9357610100808354040283529160200191611ebe565b820191906000526020600020905b815481529060010190602001808311611ea157829003601f168201915b5050505050905086565b611ed3610910611f2e565b6000805473ffffffffffffffffffffffffffffffffffffffff19166001600160a01b0383811691821780845560405192939116917f8be0079c531659141344cd1fd0a4f28419497f9722a3daafe3b4186f6b6457e09190a350565b6000611f386124eb565b905090565b306001600160a01b0316638da5cb5b6040518163ffffffff1660e01b815260040160206040518083038186803b158015611f7657600080fd5b505afa158015611f8a573d6000803e3d6000fd5b505050506040513d6020811015611fa057600080fd5b50516001600160a01b03828116911614612001576040805162461bcd60e51b815260206004820152601660248201527f4f776e61626c653a206e6f7420746865206f776e657200000000000000000000604482015290519081900360640190fd5b50565b61200c61264b565b600080547fffffffffffffffffffffff00ffffffffffffffffffffffffffffffffffffffff1690557f5db9ee0a495bf2e6ff9c91a7834c1ba4fdd244a5e8aa4e537bd38aeae4b073aa61205d611f2e565b604080516001600160a01b039092168252519081900360200190a1565b604080516001600160a01b038416602482015260448082018490528251808303909101815260649091019091526020810180517bffffffffffffffffffffffffffffffffffffffffffffffffffffffff167fa9059cbb000000000000000000000000000000000000000000000000000000001790526117579084906126a9565b600054600160a01b900460ff161561091d576040805162461bcd60e51b815260206004820152601060248201527f5061757361626c653a2070617573656400000000000000000000000000000000604482015290519081900360640190fd5b600080612165836128aa565b90925090506001600160a01b03851673eeeeeeeeeeeeeeeeeeeeeeeeeeeeeeeeeeeeeeee1415612206576001546040516001600160a01b039091169082156108fc029083906000818181858888f193505050501580156121c9573d6000803e3d6000fd5b506040516001600160a01b0385169083156108fc029084906000818181858888f19350505050158015612200573d6000803e3d6000fd5b5061224b565b6001600160a01b0380861660008181526005602052604090208054869003905560015487926122379291168461207a565b6119336001600160a01b038216868561207a565b5050505050565b60008061225e846128aa565b90925090508383026001600160a01b03861673eeeeeeeeeeeeeeeeeeeeeeeeeeeeeeeeeeeeeeee141561239957803410156122e0576040805162461bcd60e51b815260206004820152601860248201527f52656e74616c3a206e6f7420656e6f7567682076616c75650000000000000000604482015290519081900360640190fd5b6040516001600160a01b0388169084156108fc029085906000818181858888f19350505050158015612316573d6000803e3d6000fd5b506001546040516001600160a01b039091169083156108fc029084906000818181858888f19350505050158015612351573d6000803e3d6000fd5b5080341115612394576040516001600160a01b038916903483900380156108fc02916000818181858888f19350505050158015612392573d6000803e3d6000fd5b505b610e3c565b6123ae6001600160a01b0387168989866128d9565b6001546123ca906001600160a01b03888116918b9116856128d9565b83600114610e3c576001600160a01b03861660008181526005602052604090208054928790039283019055610e3c908930846128d9565b6001600160a01b03831673eeeeeeeeeeeeeeeeeeeeeeeeeeeeeeeeeeeeeeee1415612462576040516001600160a01b0383169082156108fc029083906000818181858888f1935050505015801561245c573d6000803e3d6000fd5b50611757565b6001600160a01b03831660008181526005602052604090208054839003905561175790838361207a565b6124946120fa565b600080547fffffffffffffffffffffff00ffffffffffffffffffffffffffffffffffffffff16600160a01b1790557f62e78cea01bee320cd4e420270b5ea74000d11b0c9f74754ebdbfc544b05a25861205d611f2e565b600033816124f7612961565b90507f00000000000000000000000000000000000000000000000000000000000000006001600160a01b0316826001600160a01b0316148061256a57507f00000000000000000000000000000000000000000000000000000000000000006001600160a01b0316826001600160a01b0316145b156125785791506119489050565b6001600160a01b038216321480159061263757507f00000000000000000000000000000000000000000000000000000000000000006001600160a01b031663e60125d682846040518363ffffffff1660e01b815260040180836001600160a01b03168152602001826001600160a01b031681526020019250505060206040518083038186803b15801561260a57600080fd5b505afa15801561261e573d6000803e3d6000fd5b505050506040513d602081101561263457600080fd5b50515b156126455791506119489050565b50905090565b600054600160a01b900460ff1661091d576040805162461bcd60e51b815260206004820152601460248201527f5061757361626c653a206e6f7420706175736564000000000000000000000000604482015290519081900360640190fd5b816126bc6001600160a01b03821661298b565b61270d576040805162461bcd60e51b815260206004820152601a60248201527f4552433230577261707065723a206e6f6e2d636f6e7472616374000000000000604482015290519081900360640190fd5b600080826001600160a01b0316846040518082805190602001908083835b6020831061276857805182527fffffffffffffffffffffffffffffffffffffffffffffffffffffffffffffffe0909201916020918201910161272b565b6001836020036101000a0380198251168184511680821785525050505050509050019150506000604051808303816000865af19150503d80600081146127ca576040519150601f19603f3d011682016040523d82523d6000602084013e6127cf565b606091505b5091509150811561284e57805115612849578080602001905160208110156127f657600080fd5b5051612849576040805162461bcd60e51b815260206004820152601e60248201527f4552433230577261707065723a206f7065726174696f6e206661696c65640000604482015290519081900360640190fd5b61224b565b80516128a1576040805162461bcd60e51b815260206004820152601e60248201527f4552433230577261707065723a206f7065726174696f6e206661696c65640000604482015290519081900360640190fd5b80518082602001fd5b620186a07f00000000000000000000000000000000000000000000000000000000000000008202049081900391565b604080516001600160a01b0380861660248301528416604482015260648082018490528251808303909101815260849091019091526020810180517bffffffffffffffffffffffffffffffffffffffffffffffffffffffff167f23b872dd000000000000000000000000000000000000000000000000000000001790526108939085906126a9565b7fffffffffffffffffffffffffffffffffffffffffffffffffffffffffffffffec36013560601c90565b3b15159056fea26469706673582212207a4b325b5c4ff22f525cc8602ec2cb1db1c12152d01d71a83ab521e65f37f39864736f6c63430007060033",
  "linkReferences": {},
  "deployedLinkReferences": {}
}