{
  "_format": "hh-sol-artifact-1",
  "contractName": "ERC1155InventoryPausableMock",
  "sourceName": "contracts/token/ERC1155/mocks/ERC1155InventoryPausableMock.sol",
  "abi": [
    {
      "inputs": [
        {
          "internalType": "contract IForwarderRegistry",
          "name": "forwarderRegistry",
          "type": "address"
        },
        {
          "internalType": "address",
          "name": "universalForwarder",
          "type": "address"
        },
        {
          "internalType": "uint256",
          "name": "collectionMaskLength",
          "type": "uint256"
        }
      ],
      "stateMutability": "nonpayable",
      "type": "constructor"
    },
    {
      "anonymous": false,
      "inputs": [
        {
          "indexed": true,
          "internalType": "address",
          "name": "_owner",
          "type": "address"
        },
        {
          "indexed": true,
          "internalType": "address",
          "name": "_operator",
          "type": "address"
        },
        {
          "indexed": false,
          "internalType": "bool",
          "name": "_approved",
          "type": "bool"
        }
      ],
      "name": "ApprovalForAll",
      "type": "event"
    },
    {
      "anonymous": false,
      "inputs": [
        {
          "indexed": false,
          "internalType": "string",
          "name": "baseMetadataURI",
          "type": "string"
        }
      ],
      "name": "BaseMetadataURISet",
      "type": "event"
    },
    {
      "anonymous": false,
      "inputs": [
        {
          "indexed": true,
          "internalType": "uint256",
          "name": "collectionId",
          "type": "uint256"
        },
        {
          "indexed": true,
          "internalType": "bool",
          "name": "fungible",
          "type": "bool"
        }
      ],
      "name": "CollectionCreated",
      "type": "event"
    },
    {
      "anonymous": false,
      "inputs": [
        {
          "indexed": true,
          "internalType": "address",
          "name": "account",
          "type": "address"
        }
      ],
      "name": "MinterAdded",
      "type": "event"
    },
    {
      "anonymous": false,
      "inputs": [
        {
          "indexed": true,
          "internalType": "address",
          "name": "account",
          "type": "address"
        }
      ],
      "name": "MinterRemoved",
      "type": "event"
    },
    {
      "anonymous": false,
      "inputs": [
        {
          "indexed": true,
          "internalType": "address",
          "name": "previousOwner",
          "type": "address"
        },
        {
          "indexed": true,
          "internalType": "address",
          "name": "newOwner",
          "type": "address"
        }
      ],
      "name": "OwnershipTransferred",
      "type": "event"
    },
    {
      "anonymous": false,
      "inputs": [
        {
          "indexed": false,
          "internalType": "address",
          "name": "account",
          "type": "address"
        }
      ],
      "name": "Paused",
      "type": "event"
    },
    {
      "anonymous": false,
      "inputs": [
        {
          "indexed": true,
          "internalType": "address",
          "name": "_operator",
          "type": "address"
        },
        {
          "indexed": true,
          "internalType": "address",
          "name": "_from",
          "type": "address"
        },
        {
          "indexed": true,
          "internalType": "address",
          "name": "_to",
          "type": "address"
        },
        {
          "indexed": false,
          "internalType": "uint256[]",
          "name": "_ids",
          "type": "uint256[]"
        },
        {
          "indexed": false,
          "internalType": "uint256[]",
          "name": "_values",
          "type": "uint256[]"
        }
      ],
      "name": "TransferBatch",
      "type": "event"
    },
    {
      "anonymous": false,
      "inputs": [
        {
          "indexed": true,
          "internalType": "address",
          "name": "_operator",
          "type": "address"
        },
        {
          "indexed": true,
          "internalType": "address",
          "name": "_from",
          "type": "address"
        },
        {
          "indexed": true,
          "internalType": "address",
          "name": "_to",
          "type": "address"
        },
        {
          "indexed": false,
          "internalType": "uint256",
          "name": "_id",
          "type": "uint256"
        },
        {
          "indexed": false,
          "internalType": "uint256",
          "name": "_value",
          "type": "uint256"
        }
      ],
      "name": "TransferSingle",
      "type": "event"
    },
    {
      "anonymous": false,
      "inputs": [
        {
          "indexed": false,
          "internalType": "string",
          "name": "_value",
          "type": "string"
        },
        {
          "indexed": true,
          "internalType": "uint256",
          "name": "_id",
          "type": "uint256"
        }
      ],
      "name": "URI",
      "type": "event"
    },
    {
      "anonymous": false,
      "inputs": [
        {
          "indexed": false,
          "internalType": "address",
          "name": "account",
          "type": "address"
        }
      ],
      "name": "Unpaused",
      "type": "event"
    },
    {
      "inputs": [
        {
          "internalType": "address",
          "name": "account",
          "type": "address"
        }
      ],
      "name": "addMinter",
      "outputs": [],
      "stateMutability": "nonpayable",
      "type": "function"
    },
    {
      "inputs": [
        {
          "internalType": "address",
          "name": "owner",
          "type": "address"
        },
        {
          "internalType": "uint256",
          "name": "id",
          "type": "uint256"
        }
      ],
      "name": "balanceOf",
      "outputs": [
        {
          "internalType": "uint256",
          "name": "",
          "type": "uint256"
        }
      ],
      "stateMutability": "view",
      "type": "function"
    },
    {
      "inputs": [
        {
          "internalType": "address[]",
          "name": "owners",
          "type": "address[]"
        },
        {
          "internalType": "uint256[]",
          "name": "ids",
          "type": "uint256[]"
        }
      ],
      "name": "balanceOfBatch",
      "outputs": [
        {
          "internalType": "uint256[]",
          "name": "",
          "type": "uint256[]"
        }
      ],
      "stateMutability": "view",
      "type": "function"
    },
    {
      "inputs": [],
      "name": "baseMetadataURI",
      "outputs": [
        {
          "internalType": "string",
          "name": "",
          "type": "string"
        }
      ],
      "stateMutability": "view",
      "type": "function"
    },
    {
      "inputs": [
        {
          "internalType": "address",
          "name": "from",
          "type": "address"
        },
        {
          "internalType": "uint256[]",
          "name": "ids",
          "type": "uint256[]"
        },
        {
          "internalType": "uint256[]",
          "name": "values",
          "type": "uint256[]"
        }
      ],
      "name": "batchBurnFrom",
      "outputs": [],
      "stateMutability": "nonpayable",
      "type": "function"
    },
    {
      "inputs": [
        {
          "internalType": "address",
          "name": "from",
          "type": "address"
        },
        {
          "internalType": "uint256",
          "name": "id",
          "type": "uint256"
        },
        {
          "internalType": "uint256",
          "name": "value",
          "type": "uint256"
        }
      ],
      "name": "burnFrom",
      "outputs": [],
      "stateMutability": "nonpayable",
      "type": "function"
    },
    {
      "inputs": [
        {
          "internalType": "uint256",
          "name": "nftId",
          "type": "uint256"
        }
      ],
      "name": "collectionOf",
      "outputs": [
        {
          "internalType": "uint256",
          "name": "",
          "type": "uint256"
        }
      ],
      "stateMutability": "view",
      "type": "function"
    },
    {
      "inputs": [
        {
          "internalType": "uint256",
          "name": "collectionId",
          "type": "uint256"
        }
      ],
      "name": "createCollection",
      "outputs": [],
      "stateMutability": "nonpayable",
      "type": "function"
    },
    {
      "inputs": [
        {
          "internalType": "uint256",
          "name": "collectionId",
          "type": "uint256"
        }
      ],
      "name": "creator",
      "outputs": [
        {
          "internalType": "address",
          "name": "",
          "type": "address"
        }
      ],
      "stateMutability": "view",
      "type": "function"
    },
    {
      "inputs": [
        {
          "internalType": "address",
          "name": "tokenOwner",
          "type": "address"
        },
        {
          "internalType": "address",
          "name": "operator",
          "type": "address"
        }
      ],
      "name": "isApprovedForAll",
      "outputs": [
        {
          "internalType": "bool",
          "name": "",
          "type": "bool"
        }
      ],
      "stateMutability": "view",
      "type": "function"
    },
    {
      "inputs": [
        {
          "internalType": "uint256",
          "name": "id",
          "type": "uint256"
        }
      ],
      "name": "isFungible",
      "outputs": [
        {
          "internalType": "bool",
          "name": "",
          "type": "bool"
        }
      ],
      "stateMutability": "pure",
      "type": "function"
    },
    {
      "inputs": [
        {
          "internalType": "address",
          "name": "",
          "type": "address"
        }
      ],
      "name": "isMinter",
      "outputs": [
        {
          "internalType": "bool",
          "name": "",
          "type": "bool"
        }
      ],
      "stateMutability": "view",
      "type": "function"
    },
    {
      "inputs": [
        {
          "internalType": "address",
          "name": "forwarder",
          "type": "address"
        }
      ],
      "name": "isTrustedForwarder",
      "outputs": [
        {
          "internalType": "bool",
          "name": "",
          "type": "bool"
        }
      ],
      "stateMutability": "view",
      "type": "function"
    },
    {
      "inputs": [],
      "name": "msgData",
      "outputs": [
        {
          "internalType": "bytes",
          "name": "ret",
          "type": "bytes"
        }
      ],
      "stateMutability": "view",
      "type": "function"
    },
    {
      "inputs": [],
      "name": "owner",
      "outputs": [
        {
          "internalType": "address",
          "name": "",
          "type": "address"
        }
      ],
      "stateMutability": "view",
      "type": "function"
    },
    {
      "inputs": [
        {
          "internalType": "uint256",
          "name": "nftId",
          "type": "uint256"
        }
      ],
      "name": "ownerOf",
      "outputs": [
        {
          "internalType": "address",
          "name": "",
          "type": "address"
        }
      ],
      "stateMutability": "view",
      "type": "function"
    },
    {
      "inputs": [],
      "name": "pause",
      "outputs": [],
      "stateMutability": "nonpayable",
      "type": "function"
    },
    {
      "inputs": [],
      "name": "paused",
      "outputs": [
        {
          "internalType": "bool",
          "name": "",
          "type": "bool"
        }
      ],
      "stateMutability": "view",
      "type": "function"
    },
    {
      "inputs": [
        {
          "internalType": "address[]",
          "name": "accounts",
          "type": "address[]"
        },
        {
          "internalType": "address[]",
          "name": "tokens",
          "type": "address[]"
        },
        {
          "internalType": "uint256[]",
          "name": "amounts",
          "type": "uint256[]"
        }
      ],
      "name": "recoverERC20s",
      "outputs": [],
      "stateMutability": "nonpayable",
      "type": "function"
    },
    {
      "inputs": [
        {
          "internalType": "address[]",
          "name": "accounts",
          "type": "address[]"
        },
        {
          "internalType": "address[]",
          "name": "contracts",
          "type": "address[]"
        },
        {
          "internalType": "uint256[]",
          "name": "tokenIds",
          "type": "uint256[]"
        }
      ],
      "name": "recoverERC721s",
      "outputs": [],
      "stateMutability": "nonpayable",
      "type": "function"
    },
    {
      "inputs": [],
      "name": "renounceMinter",
      "outputs": [],
      "stateMutability": "nonpayable",
      "type": "function"
    },
    {
      "inputs": [
        {
          "internalType": "address",
          "name": "to",
          "type": "address"
        },
        {
          "internalType": "uint256[]",
          "name": "ids",
          "type": "uint256[]"
        },
        {
          "internalType": "uint256[]",
          "name": "values",
          "type": "uint256[]"
        },
        {
          "internalType": "bytes",
          "name": "data",
          "type": "bytes"
        }
      ],
      "name": "safeBatchMint",
      "outputs": [],
      "stateMutability": "nonpayable",
      "type": "function"
    },
    {
      "inputs": [
        {
          "internalType": "address",
          "name": "from",
          "type": "address"
        },
        {
          "internalType": "address",
          "name": "to",
          "type": "address"
        },
        {
          "internalType": "uint256[]",
          "name": "ids",
          "type": "uint256[]"
        },
        {
          "internalType": "uint256[]",
          "name": "values",
          "type": "uint256[]"
        },
        {
          "internalType": "bytes",
          "name": "data",
          "type": "bytes"
        }
      ],
      "name": "safeBatchTransferFrom",
      "outputs": [],
      "stateMutability": "nonpayable",
      "type": "function"
    },
    {
      "inputs": [
        {
          "internalType": "address",
          "name": "to",
          "type": "address"
        },
        {
          "internalType": "uint256",
          "name": "id",
          "type": "uint256"
        },
        {
          "internalType": "uint256",
          "name": "value",
          "type": "uint256"
        },
        {
          "internalType": "bytes",
          "name": "data",
          "type": "bytes"
        }
      ],
      "name": "safeMint",
      "outputs": [],
      "stateMutability": "nonpayable",
      "type": "function"
    },
    {
      "inputs": [
        {
          "internalType": "address",
          "name": "from",
          "type": "address"
        },
        {
          "internalType": "address",
          "name": "to",
          "type": "address"
        },
        {
          "internalType": "uint256",
          "name": "id",
          "type": "uint256"
        },
        {
          "internalType": "uint256",
          "name": "value",
          "type": "uint256"
        },
        {
          "internalType": "bytes",
          "name": "data",
          "type": "bytes"
        }
      ],
      "name": "safeTransferFrom",
      "outputs": [],
      "stateMutability": "nonpayable",
      "type": "function"
    },
    {
      "inputs": [
        {
          "internalType": "address",
          "name": "operator",
          "type": "address"
        },
        {
          "internalType": "bool",
          "name": "approved",
          "type": "bool"
        }
      ],
      "name": "setApprovalForAll",
      "outputs": [],
      "stateMutability": "nonpayable",
      "type": "function"
    },
    {
      "inputs": [
        {
          "internalType": "string",
          "name": "baseMetadataURI_",
          "type": "string"
        }
      ],
      "name": "setBaseMetadataURI",
      "outputs": [],
      "stateMutability": "nonpayable",
      "type": "function"
    },
    {
      "inputs": [
        {
          "internalType": "bytes4",
          "name": "interfaceId",
          "type": "bytes4"
        }
      ],
      "name": "supportsInterface",
      "outputs": [
        {
          "internalType": "bool",
          "name": "",
          "type": "bool"
        }
      ],
      "stateMutability": "view",
      "type": "function"
    },
    {
      "inputs": [
        {
          "internalType": "uint256",
          "name": "id",
          "type": "uint256"
        }
      ],
      "name": "totalSupply",
      "outputs": [
        {
          "internalType": "uint256",
          "name": "",
          "type": "uint256"
        }
      ],
      "stateMutability": "view",
      "type": "function"
    },
    {
      "inputs": [
        {
          "internalType": "address",
          "name": "newOwner",
          "type": "address"
        }
      ],
      "name": "transferOwnership",
      "outputs": [],
      "stateMutability": "nonpayable",
      "type": "function"
    },
    {
      "inputs": [],
      "name": "unpause",
      "outputs": [],
      "stateMutability": "nonpayable",
      "type": "function"
    },
    {
      "inputs": [
        {
          "internalType": "uint256",
          "name": "id",
          "type": "uint256"
        }
      ],
      "name": "uri",
      "outputs": [
        {
          "internalType": "string",
          "name": "",
          "type": "string"
        }
      ],
      "stateMutability": "view",
      "type": "function"
    }
  ],
  "bytecode": "0x60e06040523480156200001157600080fd5b50604051620043b5380380620043b5833981810160405260608110156200003757600080fd5b5080516020820151604092830151600080546001600160a81b0319163361010081029190911782559451939492939192859285928592918391829182918891889187918291907f8be0079c531659141344cd1fd0a4f28419497f9722a3daafe3b4186f6b6457e0908290a3506001600160601b0319606091821b811660a05291901b166080528015801590620000ce575061010081105b62000120576040805162461bcd60e51b815260206004820152601c60248201527f496e76656e746f72793a2077726f6e67206d61736b206c656e67746800000000604482015290519081900360640190fd5b60c05250620001319050816200013e565b505050505050506200018a565b6001600160a01b038116600081815260076020526040808220805460ff19166001179055517f6ae172837ea30b801fbfcdd4108aa1d5bf8ff775444fd70256b44e6bf3dfc3f69190a250565b60805160601c60a05160601c60c0516141856200023060003980610f7f528061168d528061185b52806118d65280611bd65280611c145280611ff652806121c152806122d25280612528528061256652806128325280612a805280612f815280613558528061373c528061377b5280613fa65250806111de5280612c9d5280613c735250806112195280612c625280612cf55280613c495280613cd452506141856000f3fe608060405234801561001057600080fd5b50600436106101ef5760003560e01c8063805349341161010f578063bd85b039116100a2578063d0011d9d11610071578063d0011d9d14610de0578063e985e9c514610dfd578063f242432a14610e2b578063f2fde38b14610ef6576101ef565b8063bd85b03914610c8a578063c3666c3614610ca7578063c4c2bfdc14610dbb578063c7778baa14610dc3576101ef565b806398650275116100de5780639865027514610c11578063a22cb46514610c19578063aa271e1a14610c47578063adebf6f214610c6d576101ef565b80638053493414610aa45780638456cb5914610bdb5780638da5cb5b14610be3578063983b2d5614610beb576101ef565b8063510b5158116101875780635cfa9297116101565780635cfa9297146108415780636352211e1461090357806373c8a958146109205780637e518ec814610a34576101ef565b8063510b5158146107d2578063572b6c051461080b5780635b2bd79e146108315780635c975abb14610839576101ef565b8063124d91e5116101c3578063124d91e5146104bf5780632eb2c2d6146104f15780633f4ba83a146106b85780634e1273f4146106c0576101ef565b8062fdd58e146101f457806301ffc9a7146102325780630d6a5bbb1461026d5780630e89341c1461042d575b600080fd5b6102206004803603604081101561020a57600080fd5b506001600160a01b038135169060200135610f1c565b60408051918252519081900360200190f35b6102596004803603602081101561024857600080fd5b50356001600160e01b031916611008565b604080519115158252519081900360200190f35b61042b6004803603608081101561028357600080fd5b6001600160a01b0382351691908101906040810160208201356401000000008111156102ae57600080fd5b8201836020820111156102c057600080fd5b803590602001918460208302840111640100000000831117156102e257600080fd5b919080806020026020016040519081016040528093929190818152602001838360200280828437600092019190915250929594936020810193503591505064010000000081111561033257600080fd5b82018360208201111561034457600080fd5b8035906020019184602083028401116401000000008311171561036657600080fd5b91908080602002602001604051908101604052809392919081815260200183836020028082843760009201919091525092959493602081019350359150506401000000008111156103b657600080fd5b8201836020820111156103c857600080fd5b803590602001918460018302840111640100000000831117156103ea57600080fd5b91908080601f01602080910402602001604051908101604052809392919081815260200183838082843760009201919091525092955061104e945050505050565b005b61044a6004803603602081101561044357600080fd5b5035611070565b6040805160208082528351818301528351919283929083019185019080838360005b8381101561048457818101518382015260200161046c565b50505050905090810190601f1680156104b15780820380516001836020036101000a031916815260200191505b509250505060405180910390f35b61042b600480360360608110156104d557600080fd5b506001600160a01b03813516906020810135906040013561107b565b61042b600480360360a081101561050757600080fd5b6001600160a01b03823581169260208101359091169181019060608101604082013564010000000081111561053b57600080fd5b82018360208201111561054d57600080fd5b8035906020019184602083028401116401000000008311171561056f57600080fd5b91908080602002602001604051908101604052809392919081815260200183836020028082843760009201919091525092959493602081019350359150506401000000008111156105bf57600080fd5b8201836020820111156105d157600080fd5b803590602001918460208302840111640100000000831117156105f357600080fd5b919080806020026020016040519081016040528093929190818152602001838360200280828437600092019190915250929594936020810193503591505064010000000081111561064357600080fd5b82018360208201111561065557600080fd5b8035906020019184600183028401116401000000008311171561067757600080fd5b91908080601f016020809104026020016040519081016040528093929190818152602001838380828437600092019190915250929550611093945050505050565b61042b6110af565b610782600480360360408110156106d657600080fd5b8101906020810181356401000000008111156106f157600080fd5b82018360208201111561070357600080fd5b8035906020019184602083028401116401000000008311171561072557600080fd5b91939092909160208101903564010000000081111561074357600080fd5b82018360208201111561075557600080fd5b8035906020019184602083028401116401000000008311171561077757600080fd5b5090925090506110c9565b60408051602080825283518183015283519192839290830191858101910280838360005b838110156107be5781810151838201526020016107a6565b505050509050019250505060405180910390f35b6107ef600480360360208110156107e857600080fd5b50356111cf565b604080516001600160a01b039092168252519081900360200190f35b6102596004803603602081101561082157600080fd5b50356001600160a01b03166111da565b61044a611253565b6102596112e1565b61042b6004803603608081101561085757600080fd5b6001600160a01b03823516916020810135916040820135919081019060808101606082013564010000000081111561088e57600080fd5b8201836020820111156108a057600080fd5b803590602001918460018302840111640100000000831117156108c257600080fd5b91908080601f0160208091040260200160405190810160405280939291908181526020018383808284376000920191909152509295506112ea945050505050565b6107ef6004803603602081101561091957600080fd5b5035611301565b61042b6004803603606081101561093657600080fd5b81019060208101813564010000000081111561095157600080fd5b82018360208201111561096357600080fd5b8035906020019184602083028401116401000000008311171561098557600080fd5b9193909290916020810190356401000000008111156109a357600080fd5b8201836020820111156109b557600080fd5b803590602001918460208302840111640100000000831117156109d757600080fd5b9193909290916020810190356401000000008111156109f557600080fd5b820183602082011115610a0757600080fd5b80359060200191846020830284011164010000000083111715610a2957600080fd5b50909250905061136b565b61042b60048036036020811015610a4a57600080fd5b810190602081018135640100000000811115610a6557600080fd5b820183602082011115610a7757600080fd5b80359060200191846001830284011164010000000083111715610a9957600080fd5b509092509050611458565b61042b60048036036060811015610aba57600080fd5b6001600160a01b038235169190810190604081016020820135640100000000811115610ae557600080fd5b820183602082011115610af757600080fd5b80359060200191846020830284011164010000000083111715610b1957600080fd5b9190808060200260200160405190810160405280939291908181526020018383602002808284376000920191909152509295949360208101935035915050640100000000811115610b6957600080fd5b820183602082011115610b7b57600080fd5b80359060200191846020830284011164010000000083111715610b9d57600080fd5b9190808060200260200160405190810160405280939291908181526020018383602002808284376000920191909152509295506114d4945050505050565b61042b6114e7565b6107ef6114fa565b61042b60048036036020811015610c0157600080fd5b50356001600160a01b031661150f565b61042b611526565b61042b60048036036040811015610c2f57600080fd5b506001600160a01b0381351690602001351515611584565b61025960048036036020811015610c5d57600080fd5b50356001600160a01b0316611665565b61025960048036036020811015610c8357600080fd5b503561167a565b61022060048036036020811015610ca057600080fd5b5035611685565b61042b60048036036060811015610cbd57600080fd5b810190602081018135640100000000811115610cd857600080fd5b820183602082011115610cea57600080fd5b80359060200191846020830284011164010000000083111715610d0c57600080fd5b919390929091602081019035640100000000811115610d2a57600080fd5b820183602082011115610d3c57600080fd5b80359060200191846020830284011164010000000083111715610d5e57600080fd5b919390929091602081019035640100000000811115610d7c57600080fd5b820183602082011115610d8e57600080fd5b80359060200191846020830284011164010000000083111715610db057600080fd5b5090925090506116fc565b61044a611844565b61022060048036036020811015610dd957600080fd5b5035611853565b61042b60048036036020811015610df657600080fd5b50356118fa565b61025960048036036040811015610e1357600080fd5b506001600160a01b038135811691602001351661190e565b61042b600480360360a0811015610e4157600080fd5b6001600160a01b03823581169260208101359091169160408201359160608101359181019060a081016080820135640100000000811115610e8157600080fd5b820183602082011115610e9357600080fd5b80359060200191846001830284011164010000000083111715610eb557600080fd5b91908080601f01602080910402602001604051908101604052809392919081815260200183838082843760009201919091525092955061193c945050505050565b61042b60048036036020811015610f0c57600080fd5b50356001600160a01b0316611951565b60006001600160a01b038316610f79576040805162461bcd60e51b815260206004820152601760248201527f496e76656e746f72793a207a65726f2061646472657373000000000000000000604482015290519081900360640190fd5b610fa3827f00000000000000000000000000000000000000000000000000000000000000006119cb565b15610fdd576000828152600460205260409020546001600160a01b03848116911614610fd0576000610fd3565b60015b60ff169050611002565b5060008181526002602090815260408083206001600160a01b03861684529091529020545b92915050565b60006001600160e01b031982167f510b5158000000000000000000000000000000000000000000000000000000001480611046575061104682611a0e565b90505b919050565b61105e611059611a4c565b611a56565b61106a84848484611ac3565b50505050565b606061104682611e40565b611083611f13565b61108e838383611f6b565b505050565b61109b611f13565b6110a88585858585612090565b5050505050565b6110bf6110ba611a4c565b61209d565b6110c7612161565b565b606083821461111f576040805162461bcd60e51b815260206004820152601e60248201527f496e76656e746f72793a20696e636f6e73697374656e74206172726179730000604482015290519081900360640190fd5b60008467ffffffffffffffff8111801561113857600080fd5b50604051908082528060200260200182016040528015611162578160200160208202803683370190505b50905060005b8086146111c5576111a687878381811061117e57fe5b905060200201356001600160a01b031686868481811061119a57fe5b90506020020135610f1c565b8282815181106111b257fe5b6020908102919091010152600101611168565b5095945050505050565b6000611046826121b9565b60007f00000000000000000000000000000000000000000000000000000000000000006001600160a01b0316826001600160a01b0316148061104657507f00000000000000000000000000000000000000000000000000000000000000006001600160a01b0316826001600160a01b0316149050919050565b6006805460408051602060026001851615610100026000190190941693909304601f810184900484028201840190925281815292918301828280156112d95780601f106112ae576101008083540402835291602001916112d9565b820191906000526020600020905b8154815290600101906020018083116112bc57829003601f168201915b505050505081565b60005460ff1681565b6112f5611059611a4c565b61106a84848484612253565b6000818152600460205260408120546001600160a01b038116611046576040805162461bcd60e51b815260206004820152601b60248201527f496e76656e746f72793a206e6f6e2d6578697374696e67204e46540000000000604482015290519081900360640190fd5b6113766110ba611a4c565b84838114801561138557508082145b6113d6576040805162461bcd60e51b815260206004820152601a60248201527f5265636f763a20696e636f6e73697374656e7420617272617973000000000000604482015290519081900360640190fd5b60005b81811461144e576114468888838181106113ef57fe5b905060200201356001600160a01b031685858481811061140b57fe5b9050602002013588888581811061141e57fe5b905060200201356001600160a01b03166001600160a01b03166123899092919063ffffffff16565b6001016113d9565b5050505050505050565b6114636110ba611a4c565b61146f60068383614086565b507f04b1dc5c136a3ce9fded8db0ce3d3366c58764ec3a8e4c2b9e52e4ddfe5ebbf7828260405180806020018281038252848482818152602001925080828437600083820152604051601f909101601f19169092018290039550909350505050a15050565b6114dc611f13565b61108e838383612409565b6114f26110ba611a4c565b6110c7612722565b60005461010090046001600160a01b03165b90565b61151a6110ba611a4c565b61152381612760565b50565b6000611530611a4c565b905061153b81611a56565b6001600160a01b038116600081815260076020526040808220805460ff19169055517fe94479a9f7e1952cc78f2d6baab678adc1b772d936c6583def489e524cb666929190a250565b600061158e611a4c565b9050806001600160a01b0316836001600160a01b031614156115f7576040805162461bcd60e51b815260206004820152601860248201527f496e76656e746f72793a2073656c662d617070726f76616c0000000000000000604482015290519081900360640190fd5b6001600160a01b03818116600081815260016020908152604080832094881680845294825291829020805460ff1916871515908117909155825190815291517f17307eab39ab6107e8899845ad3d59bd9653f200f220920489ca2b5937696c319281900390910190a3505050565b60076020526000908152604090205460ff1681565b6000611046826127ac565b60006116b1827f00000000000000000000000000000000000000000000000000000000000000006119cb565b156116e7576000828152600460205260409020546001600160a01b0316156116da5760016116dd565b60005b60ff169050611049565b50600081815260036020526040902054611049565b6117076110ba611a4c565b84838114801561171657508082145b611767576040805162461bcd60e51b815260206004820152601a60248201527f5265636f763a20696e636f6e73697374656e7420617272617973000000000000604482015290519081900360640190fd5b60005b81811461144e5785858281811061177d57fe5b905060200201356001600160a01b03166001600160a01b03166323b872dd308a8a858181106117a857fe5b905060200201356001600160a01b03168787868181106117c457fe5b905060200201356040518463ffffffff1660e01b815260040180846001600160a01b03168152602001836001600160a01b031681526020018281526020019350505050600060405180830381600087803b15801561182157600080fd5b505af1158015611835573d6000803e3d6000fd5b5050505080600101905061176a565b606061184e6127d2565b905090565b600061187f827f00000000000000000000000000000000000000000000000000000000000000006119cb565b6118d0576040805162461bcd60e51b815260206004820152601560248201527f496e76656e746f72793a206e6f7420616e204e46540000000000000000000000604482015290519081900360640190fd5b611046827f0000000000000000000000000000000000000000000000000000000000000000612816565b6119056110ba611a4c565b6115238161282c565b6001600160a01b03918216600090815260016020908152604080832093909416825291909152205460ff1690565b611944611f13565b6110a88585858585612999565b61195c6110ba611a4c565b600080547fffffffffffffffffffffff0000000000000000000000000000000000000000ff166101006001600160a01b0384811682810293909317808555604051939492900416917f8be0079c531659141344cd1fd0a4f28419497f9722a3daafe3b4186f6b6457e09190a350565b60007f8000000000000000000000000000000000000000000000000000000000000000831615801590611a075750611a0282612b40565b831615155b9392505050565b60006001600160e01b031982167f921ed8d1000000000000000000000000000000000000000000000000000000001480611046575061104682612b51565b600061184e612c52565b6001600160a01b03811660009081526007602052604090205460ff16611523576040805162461bcd60e51b815260206004820152601860248201527f4d696e746572526f6c653a206e6f742061204d696e7465720000000000000000604482015290519081900360640190fd5b6001600160a01b038416611b1e576040805162461bcd60e51b815260206004820152601760248201527f496e76656e746f72793a206d696e7420746f207a65726f000000000000000000604482015290519081900360640190fd5b825182518114611b75576040805162461bcd60e51b815260206004820152601e60248201527f496e76656e746f72793a20696e636f6e73697374656e74206172726179730000604482015290519081900360640190fd5b60008060005b838114611cfa576000878281518110611b9057fe5b602002602001015190506000878381518110611ba857fe5b60200260200101519050611bbb826127ac565b15611bd057611bcb8a8383612db2565b611cf0565b611bfa827f00000000000000000000000000000000000000000000000000000000000000006119cb565b15611ca357611c0c8a83836001612ea4565b6000611c38837f0000000000000000000000000000000000000000000000000000000000000000612816565b905085611c4b5780955060019450611c9d565b858114611c965760008681526002602090815260408083206001600160a01b038f16845282528083208054890190559782526003905295909520805490940190935560019284611c9d565b8460010194505b50611cf0565b6040805162461bcd60e51b815260206004820152601960248201527f496e76656e746f72793a206e6f74206120746f6b656e20696400000000000000604482015290519081900360640190fd5b5050600101611b7b565b508115611d3a5760008281526002602090815260408083206001600160a01b038b1684528252808320805485019055848352600390915290208054820190555b6001600160a01b0387166000611d4e611a4c565b6001600160a01b03167f4a39dc06d4c0dbc64b70af90fd698a233a518aa5d07e595d983b8c0526c8f7fb8989604051808060200180602001838103835285818151815260200191508051906020019060200280838360005b83811015611dbe578181015183820152602001611da6565b50505050905001838103825284818151815260200191508051906020019060200280838360005b83811015611dfd578181015183820152602001611de5565b5050505090500194505050505060405180910390a4611e24876001600160a01b0316612fe7565b15611e3757611e37600088888888612fed565b50505050505050565b60606006611e4d836131f3565b6040516020018083805460018160011615610100020316600290048015611eab5780601f10611e89576101008083540402835291820191611eab565b820191906000526020600020905b815481529060010190602001808311611e97575b5050825160208401908083835b60208310611ed75780518252601f199092019160209182019101611eb8565b6001836020036101000a038019825116818451168082178552505050505050905001925050506040516020818303038152906040529050919050565b60005460ff16156110c7576040805162461bcd60e51b815260206004820152601060248201527f5061757361626c653a2070617573656400000000000000000000000000000000604482015290519081900360640190fd5b6000611f75611a4c565b9050611f818482613302565b611fd2576040805162461bcd60e51b815260206004820152601e60248201527f496e76656e746f72793a206e6f6e2d617070726f7665642073656e6465720000604482015290519081900360640190fd5b611fdb836127ac565b15611ff057611feb84848461334e565b61202c565b61201a837f00000000000000000000000000000000000000000000000000000000000000006119cb565b15611ca357611feb8484846000613457565b60006001600160a01b0316846001600160a01b0316826001600160a01b03167fc3d58168c5ae7397731d063d5bbf3d657854427343f4c083240f7aacaa2d0f628686604051808381526020018281526020019250505060405180910390a450505050565b6110a885858585856135c1565b306001600160a01b0316638da5cb5b6040518163ffffffff1660e01b815260040160206040518083038186803b1580156120d657600080fd5b505afa1580156120ea573d6000803e3d6000fd5b505050506040513d602081101561210057600080fd5b50516001600160a01b03828116911614611523576040805162461bcd60e51b815260206004820152601660248201527f4f776e61626c653a206e6f7420746865206f776e657200000000000000000000604482015290519081900360640190fd5b6121696138ff565b6000805460ff191690557f5db9ee0a495bf2e6ff9c91a7834c1ba4fdd244a5e8aa4e537bd38aeae4b073aa61219c611a4c565b604080516001600160a01b039092168252519081900360200190a1565b60006121e5827f00000000000000000000000000000000000000000000000000000000000000006119cb565b15612237576040805162461bcd60e51b815260206004820152601b60248201527f496e76656e746f72793a206e6f74206120636f6c6c656374696f6e0000000000604482015290519081900360640190fd5b506000908152600560205260409020546001600160a01b031690565b6001600160a01b0384166122ae576040805162461bcd60e51b815260206004820152601760248201527f496e76656e746f72793a206d696e7420746f207a65726f000000000000000000604482015290519081900360640190fd5b6122b7836127ac565b156122cc576122c7848484612db2565b612308565b6122f6837f00000000000000000000000000000000000000000000000000000000000000006119cb565b15611ca3576122c78484846000612ea4565b6001600160a01b038416600061231c611a4c565b6001600160a01b03167fc3d58168c5ae7397731d063d5bbf3d657854427343f4c083240f7aacaa2d0f628686604051808381526020018281526020019250505060405180910390a4612376846001600160a01b0316612fe7565b1561106a5761106a600085858585613956565b604080516001600160a01b038416602482015260448082018490528251808303909101815260649091019091526020810180517bffffffffffffffffffffffffffffffffffffffffffffffffffffffff167fa9059cbb0000000000000000000000000000000000000000000000000000000017905261108e908490613a58565b815181518114612460576040805162461bcd60e51b815260206004820152601e60248201527f496e76656e746f72793a20696e636f6e73697374656e74206172726179730000604482015290519081900360640190fd5b600061246a611a4c565b90506124768582613302565b6124c7576040805162461bcd60e51b815260206004820152601e60248201527f496e76656e746f72793a206e6f6e2d617070726f7665642073656e6465720000604482015290519081900360640190fd5b60008060005b8481146125fd5760008782815181106124e257fe5b6020026020010151905060008783815181106124fa57fe5b6020026020010151905061250d826127ac565b156125225761251d8a838361334e565b6125f3565b61254c827f00000000000000000000000000000000000000000000000000000000000000006119cb565b15611ca35761255e8a83836001613457565b600061258a837f0000000000000000000000000000000000000000000000000000000000000000612816565b90508561259d57809550600194506125f1565b8581146125ea5760008681526002602090815260408083206001600160a01b038f1684528252808320805489900390559782526003905295909520805494909403909355600192846125f1565b8460010194505b505b50506001016124cd565b50811561263f5760008281526002602090815260408083206001600160a01b038b16845282528083208054859003905584835260039091529020805482900390555b60006001600160a01b0316876001600160a01b0316846001600160a01b03167f4a39dc06d4c0dbc64b70af90fd698a233a518aa5d07e595d983b8c0526c8f7fb8989604051808060200180602001838103835285818151815260200191508051906020019060200280838360005b838110156126c55781810151838201526020016126ad565b50505050905001838103825284818151815260200191508051906020019060200280838360005b838110156127045781810151838201526020016126ec565b5050505090500194505050505060405180910390a450505050505050565b61272a611f13565b6000805460ff191660011790557f62e78cea01bee320cd4e420270b5ea74000d11b0c9f74754ebdbfc544b05a25861219c611a4c565b6001600160a01b038116600081815260076020526040808220805460ff19166001179055517f6ae172837ea30b801fbfcdd4108aa1d5bf8ff775444fd70256b44e6bf3dfc3f69190a250565b7f8000000000000000000000000000000000000000000000000000000000000000161590565b60606127dc613c3b565b8080601f01602080910402602001604051908101604052809392919081815260200183838082843760009201919091525092935050505090565b600061282182612b40565b198316905092915050565b612856817f00000000000000000000000000000000000000000000000000000000000000006119cb565b156128a8576040805162461bcd60e51b815260206004820152601b60248201527f496e76656e746f72793a206e6f74206120636f6c6c656374696f6e0000000000604482015290519081900360640190fd5b6000818152600560205260409020546001600160a01b031615612912576040805162461bcd60e51b815260206004820152601e60248201527f496e76656e746f72793a206578697374696e6720636f6c6c656374696f6e0000604482015290519081900360640190fd5b61291a611a4c565b600082815260056020526040902080547fffffffffffffffffffffffff0000000000000000000000000000000000000000166001600160a01b0392909216919091179055612967816127ac565b1515817f4ebf8ad0df535ba5e487bc9cb27fe44120ca81c3a95d3eba79c0bd1df2ab2d5d60405160405180910390a350565b60006129a3611a4c565b90506001600160a01b038516612a00576040805162461bcd60e51b815260206004820152601b60248201527f496e76656e746f72793a207472616e7366657220746f207a65726f0000000000604482015290519081900360640190fd5b612a0a8682613302565b612a5b576040805162461bcd60e51b815260206004820152601e60248201527f496e76656e746f72793a206e6f6e2d617070726f7665642073656e6465720000604482015290519081900360640190fd5b612a64846127ac565b15612a7a57612a7586868686613d9e565b612ab7565b612aa4847f00000000000000000000000000000000000000000000000000000000000000006119cb565b15611ca357612a75868686866000613ebc565b846001600160a01b0316866001600160a01b0316826001600160a01b03167fc3d58168c5ae7397731d063d5bbf3d657854427343f4c083240f7aacaa2d0f628787604051808381526020018281526020019250505060405180910390a4612b26856001600160a01b0316612fe7565b15612b3857612b388686868686613956565b505050505050565b6001610100919091031b6000190190565b60006001600160e01b031982167f01ffc9a7000000000000000000000000000000000000000000000000000000001480612bb457506001600160e01b031982167fd9b67a2600000000000000000000000000000000000000000000000000000000145b80612be857506001600160e01b031982167f0e89341c00000000000000000000000000000000000000000000000000000000145b80612c1c57506001600160e01b031982167f09ce5c4600000000000000000000000000000000000000000000000000000000145b806110465750506001600160e01b0319167fbd85b039000000000000000000000000000000000000000000000000000000001490565b60003381612c5e61400b565b90507f00000000000000000000000000000000000000000000000000000000000000006001600160a01b0316826001600160a01b03161480612cd157507f00000000000000000000000000000000000000000000000000000000000000006001600160a01b0316826001600160a01b0316145b15612cdf57915061150c9050565b6001600160a01b0382163214801590612d9e57507f00000000000000000000000000000000000000000000000000000000000000006001600160a01b031663e60125d682846040518363ffffffff1660e01b815260040180836001600160a01b03168152602001826001600160a01b031681526020019250505060206040518083038186803b158015612d7157600080fd5b505afa158015612d85573d6000803e3d6000fd5b505050506040513d6020811015612d9b57600080fd5b50515b15612dac57915061150c9050565b50905090565b80612e04576040805162461bcd60e51b815260206004820152601560248201527f496e76656e746f72793a207a65726f2076616c75650000000000000000000000604482015290519081900360640190fd5b600082815260036020526040902054818101818111612e6a576040805162461bcd60e51b815260206004820152601a60248201527f496e76656e746f72793a20737570706c79206f766572666c6f77000000000000604482015290519081900360640190fd5b600093845260036020908152604080862092909255600281528185206001600160a01b039096168552949094525091902080549091019055565b81600114612ef9576040805162461bcd60e51b815260206004820152601a60248201527f496e76656e746f72793a2077726f6e67204e46542076616c7565000000000000604482015290519081900360640190fd5b60008381526004602052604090205415612f5a576040805162461bcd60e51b815260206004820152601d60248201527f496e76656e746f72793a206578697374696e672f6275726e74204e4654000000604482015290519081900360640190fd5b60008381526004602052604090206001600160a01b03851690558061106a576000612fa5847f0000000000000000000000000000000000000000000000000000000000000000612816565b600090815260036020908152604080832080546001908101909155600283528184206001600160a01b038a168552909252909120805490910190555050505050565b3b151590565b7fbc197c81000000000000000000000000000000000000000000000000000000006001600160a01b03851663bc197c81613025611a4c565b888787876040518663ffffffff1660e01b815260040180866001600160a01b03168152602001856001600160a01b03168152602001806020018060200180602001848103845287818151815260200191508051906020019060200280838360005b8381101561309e578181015183820152602001613086565b50505050905001848103835286818151815260200191508051906020019060200280838360005b838110156130dd5781810151838201526020016130c5565b50505050905001848103825285818151815260200191508051906020019080838360005b83811015613119578181015183820152602001613101565b50505050905090810190601f1680156131465780820380516001836020036101000a031916815260200191505b5098505050505050505050602060405180830381600087803b15801561316b57600080fd5b505af115801561317f573d6000803e3d6000fd5b505050506040513d602081101561319557600080fd5b50516001600160e01b031916146110a8576040805162461bcd60e51b815260206004820152601b60248201527f496e76656e746f72793a207472616e7366657220726566757365640000000000604482015290519081900360640190fd5b606081613234575060408051808201909152600181527f30000000000000000000000000000000000000000000000000000000000000006020820152611049565b8160005b811561324c57600101600a82049150613238565b60008167ffffffffffffffff8111801561326557600080fd5b506040519080825280601f01601f191660200182016040528015613290576020820181803683370190505b50859350905060001982015b83156132f957600a840660300160f81b828280600190039350815181106132bf57fe5b60200101907effffffffffffffffffffffffffffffffffffffffffffffffffffffffffffff1916908160001a905350600a8404935061329c565b50949350505050565b6000816001600160a01b0316836001600160a01b03161480611a075750506001600160a01b03918216600090815260016020908152604080832093909416825291909152205460ff1690565b806133a0576040805162461bcd60e51b815260206004820152601560248201527f496e76656e746f72793a207a65726f2076616c75650000000000000000000000604482015290519081900360640190fd5b60008281526002602090815260408083206001600160a01b038716845290915290205481811015613418576040805162461bcd60e51b815260206004820152601d60248201527f496e76656e746f72793a206e6f7420656e6f7567682062616c616e6365000000604482015290519081900360640190fd5b60008381526002602090815260408083206001600160a01b03909716835295815285822092849003909255928352600390529190208054919091039055565b816001146134ac576040805162461bcd60e51b815260206004820152601a60248201527f496e76656e746f72793a2077726f6e67204e46542076616c7565000000000000604482015290519081900360640190fd5b6000838152600460205260409020546001600160a01b0385811691161461351a576040805162461bcd60e51b815260206004820152601860248201527f496e76656e746f72793a206e6f6e2d6f776e6564204e46540000000000000000604482015290519081900360640190fd5b60008381526004602052604090207fdead00000000000000000000000000000000000000000000000000000000000090558061106a57600061357c847f0000000000000000000000000000000000000000000000000000000000000000612816565b60008181526002602090815260408083206001600160a01b038a1684528252808320805460001990810190915593835260039091529020805490910190555050505050565b6001600160a01b03841661361c576040805162461bcd60e51b815260206004820152601b60248201527f496e76656e746f72793a207472616e7366657220746f207a65726f0000000000604482015290519081900360640190fd5b825182518114613673576040805162461bcd60e51b815260206004820152601e60248201527f496e76656e746f72793a20696e636f6e73697374656e74206172726179730000604482015290519081900360640190fd5b600061367d611a4c565b90506136898782613302565b6136da576040805162461bcd60e51b815260206004820152601e60248201527f496e76656e746f72793a206e6f6e2d617070726f7665642073656e6465720000604482015290519081900360640190fd5b60008060005b8481146137e45760008882815181106136f557fe5b60200260200101519050600088838151811061370d57fe5b60200260200101519050613720826127ac565b15613736576137318c8c8484613d9e565b6137da565b613760827f00000000000000000000000000000000000000000000000000000000000000006119cb565b15611ca3576137738c8c84846001613ebc565b600061379f837f0000000000000000000000000000000000000000000000000000000000000000612816565b9050856137b257809550600194506137d8565b8581146137d1576137c58d8d8888614017565b809550600194506137d8565b8460010194505b505b50506001016136e0565b5081156137f7576137f789898484614017565b876001600160a01b0316896001600160a01b0316846001600160a01b03167f4a39dc06d4c0dbc64b70af90fd698a233a518aa5d07e595d983b8c0526c8f7fb8a8a604051808060200180602001838103835285818151815260200191508051906020019060200280838360005b8381101561387c578181015183820152602001613864565b50505050905001838103825284818151815260200191508051906020019060200280838360005b838110156138bb5781810151838201526020016138a3565b5050505090500194505050505060405180910390a46138e2886001600160a01b0316612fe7565b156138f4576138f48989898989612fed565b505050505050505050565b60005460ff166110c7576040805162461bcd60e51b815260206004820152601460248201527f5061757361626c653a206e6f7420706175736564000000000000000000000000604482015290519081900360640190fd5b7ff23a6e61000000000000000000000000000000000000000000000000000000006001600160a01b03851663f23a6e6161398e611a4c565b888787876040518663ffffffff1660e01b815260040180866001600160a01b03168152602001856001600160a01b0316815260200184815260200183815260200180602001828103825283818151815260200191508051906020019080838360005b83811015613a085781810151838201526020016139f0565b50505050905090810190601f168015613a355780820380516001836020036101000a031916815260200191505b509650505050505050602060405180830381600087803b15801561316b57600080fd5b81613a6b6001600160a01b038216612fe7565b613abc576040805162461bcd60e51b815260206004820152601a60248201527f4552433230577261707065723a206e6f6e2d636f6e7472616374000000000000604482015290519081900360640190fd5b600080826001600160a01b0316846040518082805190602001908083835b60208310613af95780518252601f199092019160209182019101613ada565b6001836020036101000a0380198251168184511680821785525050505050509050019150506000604051808303816000865af19150503d8060008114613b5b576040519150601f19603f3d011682016040523d82523d6000602084013e613b60565b606091505b50915091508115613bdf57805115613bda57808060200190516020811015613b8757600080fd5b5051613bda576040805162461bcd60e51b815260206004820152601e60248201527f4552433230577261707065723a206f7065726174696f6e206661696c65640000604482015290519081900360640190fd5b6110a8565b8051613c32576040805162461bcd60e51b815260206004820152601e60248201527f4552433230577261707065723a206f7065726174696f6e206661696c65640000604482015290519081900360640190fd5b80518082602001fd5b366000336001600160a01b037f000000000000000000000000000000000000000000000000000000000000000016811480613ca757507f00000000000000000000000000000000000000000000000000000000000000006001600160a01b0316816001600160a01b0316145b15613cbe57613cb461406b565b9250925050613d9a565b6001600160a01b0381163214801590613d8457507f00000000000000000000000000000000000000000000000000000000000000006001600160a01b031663e60125d6613d0961400b565b836040518363ffffffff1660e01b815260040180836001600160a01b03168152602001826001600160a01b031681526020019250505060206040518083038186803b158015613d5757600080fd5b505afa158015613d6b573d6000803e3d6000fd5b505050506040513d6020811015613d8157600080fd5b50515b15613d9157613cb461406b565b60003692509250505b9091565b80613df0576040805162461bcd60e51b815260206004820152601560248201527f496e76656e746f72793a207a65726f2076616c75650000000000000000000000604482015290519081900360640190fd5b60008281526002602090815260408083206001600160a01b038816845290915290205481811015613e68576040805162461bcd60e51b815260206004820152601d60248201527f496e76656e746f72793a206e6f7420656e6f7567682062616c616e6365000000604482015290519081900360640190fd5b836001600160a01b0316856001600160a01b0316146110a85760009283526002602090815260408085206001600160a01b039788168652909152808420918390039091559290931681522080549091019055565b81600114613f11576040805162461bcd60e51b815260206004820152601a60248201527f496e76656e746f72793a2077726f6e67204e46542076616c7565000000000000604482015290519081900360640190fd5b6000838152600460205260409020546001600160a01b03868116911614613f7f576040805162461bcd60e51b815260206004820152601860248201527f496e76656e746f72793a206e6f6e2d6f776e6564204e46540000000000000000604482015290519081900360640190fd5b60008381526004602052604090206001600160a01b0385169055806110a8576000613fca847f0000000000000000000000000000000000000000000000000000000000000000612816565b60009081526002602090815260408083206001600160a01b03998a168452909152808220805460001901905595909616865250505091208054600101905550565b60131936013560601c90565b826001600160a01b0316846001600160a01b03161461106a5760009182526002602090815260408084206001600160a01b039687168552909152808320805483900390559290931681522080549091019055565b36600061407e6013198301828481614127565b915091509091565b828054600181600116156101000203166002900490600052602060002090601f0160209004810192826140bc5760008555614102565b82601f106140d55782800160ff19823516178555614102565b82800160010185558215614102579182015b828111156141025782358255916020019190600101906140e7565b5061410e929150614112565b5090565b5b8082111561410e5760008155600101614113565b60008085851115614136578182fd5b83861115614142578182fd5b505082019391909203915056fea2646970667358221220504af697ca658b128dc7816a8677520d4e7b9262d3324eae43be48f9523a1f5964736f6c63430007060033",
  "linkReferences": {},
  "deployedLinkReferences": {}
}