{
  "_format": "hh-sol-artifact-1",
  "contractName": "ERC20BurnableMock",
  "sourceName": "contracts/mocks/token/ERC20/ERC20BurnableMock.sol",
  "abi": [
    {
      "inputs": [
        {
          "internalType": "address[]",
          "name": "recipients",
          "type": "address[]"
        },
        {
          "internalType": "uint256[]",
          "name": "values",
          "type": "uint256[]"
        },
        {
          "internalType": "contract IForwarderRegistry",
          "name": "forwarderRegistry",
          "type": "address"
        },
        {
          "internalType": "address",
          "name": "universalForwarder",
          "type": "address"
        }
      ],
      "stateMutability": "nonpayable",
      "type": "constructor"
    },
    {
      "anonymous": false,
      "inputs": [
        {
          "indexed": true,
          "internalType": "address",
          "name": "_owner",
          "type": "address"
        },
        {
          "indexed": true,
          "internalType": "address",
          "name": "_spender",
          "type": "address"
        },
        {
          "indexed": false,
          "internalType": "uint256",
          "name": "_value",
          "type": "uint256"
        }
      ],
      "name": "Approval",
      "type": "event"
    },
    {
      "anonymous": false,
      "inputs": [
        {
          "indexed": true,
          "internalType": "address",
          "name": "previousOwner",
          "type": "address"
        },
        {
          "indexed": true,
          "internalType": "address",
          "name": "newOwner",
          "type": "address"
        }
      ],
      "name": "OwnershipTransferred",
      "type": "event"
    },
    {
      "anonymous": false,
      "inputs": [
        {
          "indexed": true,
          "internalType": "address",
          "name": "_from",
          "type": "address"
        },
        {
          "indexed": true,
          "internalType": "address",
          "name": "_to",
          "type": "address"
        },
        {
          "indexed": false,
          "internalType": "uint256",
          "name": "_value",
          "type": "uint256"
        }
      ],
      "name": "Transfer",
      "type": "event"
    },
    {
      "inputs": [],
      "name": "DOMAIN_SEPARATOR",
      "outputs": [
        {
          "internalType": "bytes32",
          "name": "",
          "type": "bytes32"
        }
      ],
      "stateMutability": "view",
      "type": "function"
    },
    {
      "inputs": [
        {
          "internalType": "address",
          "name": "owner",
          "type": "address"
        },
        {
          "internalType": "address",
          "name": "spender",
          "type": "address"
        }
      ],
      "name": "allowance",
      "outputs": [
        {
          "internalType": "uint256",
          "name": "",
          "type": "uint256"
        }
      ],
      "stateMutability": "view",
      "type": "function"
    },
    {
      "inputs": [
        {
          "internalType": "address",
          "name": "spender",
          "type": "address"
        },
        {
          "internalType": "uint256",
          "name": "value",
          "type": "uint256"
        }
      ],
      "name": "approve",
      "outputs": [
        {
          "internalType": "bool",
          "name": "",
          "type": "bool"
        }
      ],
      "stateMutability": "nonpayable",
      "type": "function"
    },
    {
      "inputs": [
        {
          "internalType": "address",
          "name": "account",
          "type": "address"
        }
      ],
      "name": "balanceOf",
      "outputs": [
        {
          "internalType": "uint256",
          "name": "",
          "type": "uint256"
        }
      ],
      "stateMutability": "view",
      "type": "function"
    },
    {
      "inputs": [
        {
          "internalType": "address[]",
          "name": "owners",
          "type": "address[]"
        },
        {
          "internalType": "uint256[]",
          "name": "values",
          "type": "uint256[]"
        }
      ],
      "name": "batchBurnFrom",
      "outputs": [
        {
          "internalType": "bool",
          "name": "",
          "type": "bool"
        }
      ],
      "stateMutability": "nonpayable",
      "type": "function"
    },
    {
      "inputs": [
        {
          "internalType": "address[]",
          "name": "recipients",
          "type": "address[]"
        },
        {
          "internalType": "uint256[]",
          "name": "values",
          "type": "uint256[]"
        }
      ],
      "name": "batchMint",
      "outputs": [],
      "stateMutability": "nonpayable",
      "type": "function"
    },
    {
      "inputs": [
        {
          "internalType": "address[]",
          "name": "recipients",
          "type": "address[]"
        },
        {
          "internalType": "uint256[]",
          "name": "values",
          "type": "uint256[]"
        }
      ],
      "name": "batchTransfer",
      "outputs": [
        {
          "internalType": "bool",
          "name": "",
          "type": "bool"
        }
      ],
      "stateMutability": "nonpayable",
      "type": "function"
    },
    {
      "inputs": [
        {
          "internalType": "address",
          "name": "from",
          "type": "address"
        },
        {
          "internalType": "address[]",
          "name": "recipients",
          "type": "address[]"
        },
        {
          "internalType": "uint256[]",
          "name": "values",
          "type": "uint256[]"
        }
      ],
      "name": "batchTransferFrom",
      "outputs": [
        {
          "internalType": "bool",
          "name": "",
          "type": "bool"
        }
      ],
      "stateMutability": "nonpayable",
      "type": "function"
    },
    {
      "inputs": [
        {
          "internalType": "uint256",
          "name": "amount",
          "type": "uint256"
        }
      ],
      "name": "burn",
      "outputs": [
        {
          "internalType": "bool",
          "name": "",
          "type": "bool"
        }
      ],
      "stateMutability": "nonpayable",
      "type": "function"
    },
    {
      "inputs": [
        {
          "internalType": "address",
          "name": "from",
          "type": "address"
        },
        {
          "internalType": "uint256",
          "name": "value",
          "type": "uint256"
        }
      ],
      "name": "burnFrom",
      "outputs": [
        {
          "internalType": "bool",
          "name": "",
          "type": "bool"
        }
      ],
      "stateMutability": "nonpayable",
      "type": "function"
    },
    {
      "inputs": [],
      "name": "decimals",
      "outputs": [
        {
          "internalType": "uint8",
          "name": "",
          "type": "uint8"
        }
      ],
      "stateMutability": "view",
      "type": "function"
    },
    {
      "inputs": [
        {
          "internalType": "address",
          "name": "spender",
          "type": "address"
        },
        {
          "internalType": "uint256",
          "name": "subtractedValue",
          "type": "uint256"
        }
      ],
      "name": "decreaseAllowance",
      "outputs": [
        {
          "internalType": "bool",
          "name": "",
          "type": "bool"
        }
      ],
      "stateMutability": "nonpayable",
      "type": "function"
    },
    {
      "inputs": [],
      "name": "deploymentChainId",
      "outputs": [
        {
          "internalType": "uint256",
          "name": "",
          "type": "uint256"
        }
      ],
      "stateMutability": "view",
      "type": "function"
    },
    {
      "inputs": [
        {
          "internalType": "address",
          "name": "spender",
          "type": "address"
        },
        {
          "internalType": "uint256",
          "name": "addedValue",
          "type": "uint256"
        }
      ],
      "name": "increaseAllowance",
      "outputs": [
        {
          "internalType": "bool",
          "name": "",
          "type": "bool"
        }
      ],
      "stateMutability": "nonpayable",
      "type": "function"
    },
    {
      "inputs": [
        {
          "internalType": "address",
          "name": "forwarder",
          "type": "address"
        }
      ],
      "name": "isTrustedForwarder",
      "outputs": [
        {
          "internalType": "bool",
          "name": "",
          "type": "bool"
        }
      ],
      "stateMutability": "view",
      "type": "function"
    },
    {
      "inputs": [
        {
          "internalType": "address",
          "name": "to",
          "type": "address"
        },
        {
          "internalType": "uint256",
          "name": "value",
          "type": "uint256"
        }
      ],
      "name": "mint",
      "outputs": [],
      "stateMutability": "nonpayable",
      "type": "function"
    },
    {
      "inputs": [],
      "name": "name",
      "outputs": [
        {
          "internalType": "string",
          "name": "",
          "type": "string"
        }
      ],
      "stateMutability": "view",
      "type": "function"
    },
    {
      "inputs": [
        {
          "internalType": "address",
          "name": "",
          "type": "address"
        }
      ],
      "name": "nonces",
      "outputs": [
        {
          "internalType": "uint256",
          "name": "",
          "type": "uint256"
        }
      ],
      "stateMutability": "view",
      "type": "function"
    },
    {
      "inputs": [],
      "name": "owner",
      "outputs": [
        {
          "internalType": "address",
          "name": "",
          "type": "address"
        }
      ],
      "stateMutability": "view",
      "type": "function"
    },
    {
      "inputs": [
        {
          "internalType": "address",
          "name": "owner",
          "type": "address"
        },
        {
          "internalType": "address",
          "name": "spender",
          "type": "address"
        },
        {
          "internalType": "uint256",
          "name": "value",
          "type": "uint256"
        },
        {
          "internalType": "uint256",
          "name": "deadline",
          "type": "uint256"
        },
        {
          "internalType": "uint8",
          "name": "v",
          "type": "uint8"
        },
        {
          "internalType": "bytes32",
          "name": "r",
          "type": "bytes32"
        },
        {
          "internalType": "bytes32",
          "name": "s",
          "type": "bytes32"
        }
      ],
      "name": "permit",
      "outputs": [],
      "stateMutability": "nonpayable",
      "type": "function"
    },
    {
      "inputs": [
        {
          "internalType": "address[]",
          "name": "accounts",
          "type": "address[]"
        },
        {
          "internalType": "address[]",
          "name": "tokens",
          "type": "address[]"
        },
        {
          "internalType": "uint256[]",
          "name": "amounts",
          "type": "uint256[]"
        }
      ],
      "name": "recoverERC20s",
      "outputs": [],
      "stateMutability": "nonpayable",
      "type": "function"
    },
    {
      "inputs": [
        {
          "internalType": "address[]",
          "name": "accounts",
          "type": "address[]"
        },
        {
          "internalType": "address[]",
          "name": "contracts",
          "type": "address[]"
        },
        {
          "internalType": "uint256[]",
          "name": "tokenIds",
          "type": "uint256[]"
        }
      ],
      "name": "recoverERC721s",
      "outputs": [],
      "stateMutability": "nonpayable",
      "type": "function"
    },
    {
      "inputs": [
        {
          "internalType": "address",
          "name": "to",
          "type": "address"
        },
        {
          "internalType": "uint256",
          "name": "amount",
          "type": "uint256"
        },
        {
          "internalType": "bytes",
          "name": "data",
          "type": "bytes"
        }
      ],
      "name": "safeTransfer",
      "outputs": [
        {
          "internalType": "bool",
          "name": "",
          "type": "bool"
        }
      ],
      "stateMutability": "nonpayable",
      "type": "function"
    },
    {
      "inputs": [
        {
          "internalType": "address",
          "name": "from",
          "type": "address"
        },
        {
          "internalType": "address",
          "name": "to",
          "type": "address"
        },
        {
          "internalType": "uint256",
          "name": "amount",
          "type": "uint256"
        },
        {
          "internalType": "bytes",
          "name": "data",
          "type": "bytes"
        }
      ],
      "name": "safeTransferFrom",
      "outputs": [
        {
          "internalType": "bool",
          "name": "",
          "type": "bool"
        }
      ],
      "stateMutability": "nonpayable",
      "type": "function"
    },
    {
      "inputs": [
        {
          "internalType": "bytes4",
          "name": "interfaceId",
          "type": "bytes4"
        }
      ],
      "name": "supportsInterface",
      "outputs": [
        {
          "internalType": "bool",
          "name": "",
          "type": "bool"
        }
      ],
      "stateMutability": "view",
      "type": "function"
    },
    {
      "inputs": [],
      "name": "symbol",
      "outputs": [
        {
          "internalType": "string",
          "name": "",
          "type": "string"
        }
      ],
      "stateMutability": "view",
      "type": "function"
    },
    {
      "inputs": [],
      "name": "tokenURI",
      "outputs": [
        {
          "internalType": "string",
          "name": "",
          "type": "string"
        }
      ],
      "stateMutability": "view",
      "type": "function"
    },
    {
      "inputs": [],
      "name": "totalSupply",
      "outputs": [
        {
          "internalType": "uint256",
          "name": "",
          "type": "uint256"
        }
      ],
      "stateMutability": "view",
      "type": "function"
    },
    {
      "inputs": [
        {
          "internalType": "address",
          "name": "to",
          "type": "address"
        },
        {
          "internalType": "uint256",
          "name": "value",
          "type": "uint256"
        }
      ],
      "name": "transfer",
      "outputs": [
        {
          "internalType": "bool",
          "name": "",
          "type": "bool"
        }
      ],
      "stateMutability": "nonpayable",
      "type": "function"
    },
    {
      "inputs": [
        {
          "internalType": "address",
          "name": "from",
          "type": "address"
        },
        {
          "internalType": "address",
          "name": "to",
          "type": "address"
        },
        {
          "internalType": "uint256",
          "name": "value",
          "type": "uint256"
        }
      ],
      "name": "transferFrom",
      "outputs": [
        {
          "internalType": "bool",
          "name": "",
          "type": "bool"
        }
      ],
      "stateMutability": "nonpayable",
      "type": "function"
    },
    {
      "inputs": [
        {
          "internalType": "address",
          "name": "newOwner",
          "type": "address"
        }
      ],
      "name": "transferOwnership",
      "outputs": [],
      "stateMutability": "nonpayable",
      "type": "function"
    }
  ],
  "bytecode": "0x6101206040523480156200001257600080fd5b50604051620037dd380380620037dd833981810160405260808110156200003857600080fd5b81019080805160405193929190846401000000008211156200005957600080fd5b9083019060208201858111156200006f57600080fd5b82518660208202830111640100000000821117156200008d57600080fd5b82525081516020918201928201910280838360005b83811015620000bc578181015183820152602001620000a2565b5050505090500160405260200180516040519392919084640100000000821115620000e657600080fd5b908301906020820185811115620000fc57600080fd5b82518660208202830111640100000000821117156200011a57600080fd5b82525081516020918201928201910280838360005b83811015620001495781810151838201526020016200012f565b50505050919091016040818152602084810151948201518284018352600a8452694552433230204d6f636b60b01b828501528251808401845260038082526204532360ec1b82850152845180860186529081526275726960e81b93810193909352600080546001600160a01b03191633908117825594519799509197509395939450601293919286928692869286928c928c92918291907f8be0079c531659141344cd1fd0a4f28419497f9722a3daafe3b4186f6b6457e0908290a3506001600160601b0319606091821b811660a05291901b166080528351620002359060029060208701906200058a565b5082516200024b9060039060208601906200058a565b507fff0000000000000000000000000000000000000000000000000000000000000060f883901b166101005280516200028c9060049060208401906200058a565b504660c08190526200029f8186620002c5565b60e05250620002bb97508b96508a9550506200034f9350505050565b5050505062000636565b8051602091820120604080517f8b73c3c69bb8fe3d512ecc4cf759cc79239f7b179b0ffacaa9a75d522b39400f81850152808201929092527fc89efdaa54c0f20c7adf612882df0950f5a951637e0307cdcb4c672f298b8bc6606083015260808201939093523060a0808301919091528351808303909101815260c0909101909252815191012090565b815181518114620003a7576040805162461bcd60e51b815260206004820152601a60248201527f45524332303a20696e636f6e73697374656e7420617272617973000000000000604482015290519081900360640190fd5b6000805b8281146200051c576000858281518110620003c257fe5b6020026020010151905060006001600160a01b0316816001600160a01b0316141562000435576040805162461bcd60e51b815260206004820152601360248201527f45524332303a207a65726f206164647265737300000000000000000000000000604482015290519081900360640190fd5b60008583815181106200044457fe5b6020026020010151905080600014620004d057838101848111620004af576040805162461bcd60e51b815260206004820152601660248201527f45524332303a2076616c756573206f766572666c6f7700000000000000000000604482015290519081900360640190fd5b6001600160a01b038316600090815260056020526040902080548301905593505b6040805182815290516001600160a01b038416916000917fddf252ad1be2c89b69c2b068fc378daa952ba7f163c4a11628f55a4df523b3ef9181900360200190a35050600101620003ab565b50801562000584576007548181018181116200057f576040805162461bcd60e51b815260206004820152601660248201527f45524332303a20737570706c79206f766572666c6f7700000000000000000000604482015290519081900360640190fd5b600755505b50505050565b828054600181600116156101000203166002900490600052602060002090601f016020900481019282620005c257600085556200060d565b82601f10620005dd57805160ff19168380011785556200060d565b828001600101855582156200060d579182015b828111156200060d578251825591602001919060010190620005f0565b506200061b9291506200061f565b5090565b5b808211156200061b576000815560010162000620565b60805160601c60a05160601c60c05160e0516101005160f81c61314a6200069360003980610de2525080610eca525080610e095280611d835250806114305280612fd552508061146b5280612f9a528061302d525061314a6000f3fe608060405234801561001057600080fd5b50600436106101e55760003560e01c806370a082311161010f578063a9059cbb116100a2578063d505accf11610071578063d505accf14610b22578063dd62ed3e14610b73578063eb79554914610ba1578063f2fde38b14610c26576101e5565b8063a9059cbb1461094a578063b88d4fde14610976578063c3666c3614610a06578063cd0d009614610b1a576101e5565b806388d695b2116100de57806388d695b2146108305780638da5cb5b146108f257806395d89b4114610916578063a457c2d71461091e576101e5565b806370a08231146106a457806373c8a958146106ca57806379cc6790146107de5780637ecebe001461080a576101e5565b80633644e5151161018757806342966c681161015657806342966c68146104685780634885b25414610485578063572b6c0514610557578063685731071461057d576101e5565b80633644e515146103fe57806339509351146104065780633c130d901461043257806340c10f191461043a576101e5565b806318160ddd116101c357806318160ddd146102ce5780631b9a7529146102e857806323b872dd146103aa578063313ce567146103e0576101e5565b806301ffc9a7146101ea57806306fdde0314610225578063095ea7b3146102a2575b600080fd5b6102116004803603602081101561020057600080fd5b50356001600160e01b031916610c4c565b604080519115158252519081900360200190f35b61022d610c90565b6040805160208082528351818301528351919283929083019185019080838360005b8381101561026757818101518382015260200161024f565b50505050905090810190601f1680156102945780820380516001836020036101000a031916815260200191505b509250505060405180910390f35b610211600480360360408110156102b857600080fd5b506001600160a01b038135169060200135610d24565b6102d6610d41565b60408051918252519081900360200190f35b610211600480360360408110156102fe57600080fd5b81019060208101813564010000000081111561031957600080fd5b82018360208201111561032b57600080fd5b8035906020019184602083028401116401000000008311171561034d57600080fd5b91939092909160208101903564010000000081111561036b57600080fd5b82018360208201111561037d57600080fd5b8035906020019184602083028401116401000000008311171561039f57600080fd5b509092509050610d47565b610211600480360360608110156103c057600080fd5b506001600160a01b03813581169160208101359091169060400135610dc1565b6103e8610de0565b6040805160ff9092168252519081900360200190f35b6102d6610e04565b6102116004803603604081101561041c57600080fd5b506001600160a01b038135169060200135610ef0565b61022d61105e565b6104666004803603604081101561045057600080fd5b506001600160a01b0381351690602001356110bf565b005b6102116004803603602081101561047e57600080fd5b50356110dd565b6102116004803603606081101561049b57600080fd5b6001600160a01b0382351691908101906040810160208201356401000000008111156104c657600080fd5b8201836020820111156104d857600080fd5b803590602001918460208302840111640100000000831117156104fa57600080fd5b91939092909160208101903564010000000081111561051857600080fd5b82018360208201111561052a57600080fd5b8035906020019184602083028401116401000000008311171561054c57600080fd5b5090925090506110f8565b6102116004803603602081101561056d57600080fd5b50356001600160a01b031661142c565b6104666004803603604081101561059357600080fd5b8101906020810181356401000000008111156105ae57600080fd5b8201836020820111156105c057600080fd5b803590602001918460208302840111640100000000831117156105e257600080fd5b919080806020026020016040519081016040528093929190818152602001838360200280828437600092019190915250929594936020810193503591505064010000000081111561063257600080fd5b82018360208201111561064457600080fd5b8035906020019184602083028401116401000000008311171561066657600080fd5b9190808060200260200160405190810160405280939291908181526020018383602002808284376000920191909152509295506114a5945050505050565b6102d6600480360360208110156106ba57600080fd5b50356001600160a01b03166114ba565b610466600480360360608110156106e057600080fd5b8101906020810181356401000000008111156106fb57600080fd5b82018360208201111561070d57600080fd5b8035906020019184602083028401116401000000008311171561072f57600080fd5b91939092909160208101903564010000000081111561074d57600080fd5b82018360208201111561075f57600080fd5b8035906020019184602083028401116401000000008311171561078157600080fd5b91939092909160208101903564010000000081111561079f57600080fd5b8201836020820111156107b157600080fd5b803590602001918460208302840111640100000000831117156107d357600080fd5b5090925090506114d5565b610211600480360360408110156107f457600080fd5b506001600160a01b038135169060200135611678565b6102d66004803603602081101561082057600080fd5b50356001600160a01b0316611684565b6102116004803603604081101561084657600080fd5b81019060208101813564010000000081111561086157600080fd5b82018360208201111561087357600080fd5b8035906020019184602083028401116401000000008311171561089557600080fd5b9193909290916020810190356401000000008111156108b357600080fd5b8201836020820111156108c557600080fd5b803590602001918460208302840111640100000000831117156108e757600080fd5b509092509050611696565b6108fa6119a5565b604080516001600160a01b039092168252519081900360200190f35b61022d6119b4565b6102116004803603604081101561093457600080fd5b506001600160a01b038135169060200135611a15565b6102116004803603604081101561096057600080fd5b506001600160a01b038135169060200135611a84565b6102116004803603608081101561098c57600080fd5b6001600160a01b038235811692602081013590911691604082013591908101906080810160608201356401000000008111156109c757600080fd5b8201836020820111156109d957600080fd5b803590602001918460018302840111640100000000831117156109fb57600080fd5b509092509050611a98565b61046660048036036060811015610a1c57600080fd5b810190602081018135640100000000811115610a3757600080fd5b820183602082011115610a4957600080fd5b80359060200191846020830284011164010000000083111715610a6b57600080fd5b919390929091602081019035640100000000811115610a8957600080fd5b820183602082011115610a9b57600080fd5b80359060200191846020830284011164010000000083111715610abd57600080fd5b919390929091602081019035640100000000811115610adb57600080fd5b820183602082011115610aed57600080fd5b80359060200191846020830284011164010000000083111715610b0f57600080fd5b509092509050611c39565b6102d6611d81565b610466600480360360e0811015610b3857600080fd5b506001600160a01b03813581169160208101359091169060408101359060608101359060ff6080820135169060a08101359060c00135611da5565b6102d660048036036040811015610b8957600080fd5b506001600160a01b0381358116916020013516612024565b61021160048036036060811015610bb757600080fd5b6001600160a01b0382351691602081013591810190606081016040820135640100000000811115610be757600080fd5b820183602082011115610bf957600080fd5b80359060200191846001830284011164010000000083111715610c1b57600080fd5b50909250905061204f565b61046660048036036020811015610c3c57600080fd5b50356001600160a01b03166121ee565b60006001600160e01b031982167f28963e1e000000000000000000000000000000000000000000000000000000001480610c8a5750610c8a8261225f565b92915050565b60028054604080516020601f6000196101006001871615020190941685900493840181900481028201810190925282815260609390929091830182828015610d195780601f10610cee57610100808354040283529160200191610d19565b820191906000526020600020905b815481529060010190602001808311610cfc57829003601f168201915b505050505090505b90565b6000610d38610d3161229d565b84846122ac565b50600192915050565b60075490565b6000610db68585808060200260200160405190810160405280939291908181526020018383602002808284376000920191909152505060408051602080890282810182019093528882529093508892508791829185019084908082843760009201919091525061236992505050565b506001949350505050565b6000610dd6610dce61229d565b85858561257a565b5060019392505050565b7f000000000000000000000000000000000000000000000000000000000000000090565b6000467f00000000000000000000000000000000000000000000000000000000000000008114610ec8576002805460408051602060018416156101000260001901909316849004601f8101849004840282018401909252818152610ec393859391929091830182828015610eb95780601f10610e8e57610100808354040283529160200191610eb9565b820191906000526020600020905b815481529060010190602001808311610e9c57829003601f168201915b50505050506125af565b610eea565b7f00000000000000000000000000000000000000000000000000000000000000005b91505090565b60006001600160a01b038316610f4d576040805162461bcd60e51b815260206004820152601b60248201527f45524332303a207a65726f2061646472657373207370656e6465720000000000604482015290519081900360640190fd5b6000610f5761229d565b6001600160a01b03808216600090815260066020908152604080832093891683529290522054909150831561100857808401818111610fdd576040805162461bcd60e51b815260206004820152601960248201527f45524332303a20616c6c6f77616e6365206f766572666c6f7700000000000000604482015290519081900360640190fd5b6001600160a01b038084166000908152600660209081526040808320938a1683529290522081905590505b846001600160a01b0316826001600160a01b03167f8c5be1e5ebec7d5bd14f71427d1e84f3dd0314c0f7b2291e5b200ac8c7c3b925836040518082815260200191505060405180910390a3506001949350505050565b60048054604080516020601f6002600019610100600188161502019095169490940493840181900481028201810190925282815260609390929091830182828015610d195780601f10610cee57610100808354040283529160200191610d19565b6110cf6110ca61229d565b612639565b6110d98282612700565b5050565b60006110f06110ea61229d565b83612823565b506001919050565b60008382811461114f576040805162461bcd60e51b815260206004820152601a60248201527f45524332303a20696e636f6e73697374656e7420617272617973000000000000604482015290519081900360640190fd5b6001600160a01b0387166000908152600560205260408120549080805b8481146113615760008a8a8381811061118157fe5b905060200201356001600160a01b0316905060006001600160a01b0316816001600160a01b031614156111fb576040805162461bcd60e51b815260206004820152601660248201527f45524332303a20746f207a65726f206164647265737300000000000000000000604482015290519081900360640190fd5b600089898481811061120957fe5b9050602002013590508060001461130c57848101858111611271576040805162461bcd60e51b815260206004820152601660248201527f45524332303a2076616c756573206f766572666c6f7700000000000000000000604482015290519081900360640190fd5b809550826001600160a01b03168e6001600160a01b0316146112b0576001600160a01b038316600090815260056020526040902080548301905561130a565b86821115611305576040805162461bcd60e51b815260206004820152601b60248201527f45524332303a20696e73756666696369656e742062616c616e63650000000000604482015290519081900360640190fd5b938101935b505b816001600160a01b03168d6001600160a01b03167fddf252ad1be2c89b69c2b068fc378daa952ba7f163c4a11628f55a4df523b3ef836040518082815260200191505060405180910390a3505060010161116c565b5081158015906113715750808214155b156113eb578183038381106113cd576040805162461bcd60e51b815260206004820152601b60248201527f45524332303a20696e73756666696369656e742062616c616e63650000000000604482015290519081900360640190fd5b6001600160a01b038b16600090815260056020526040902090820190555b60006113f561229d565b9050806001600160a01b03168b6001600160a01b03161461141b5761141b8b8285612902565b5060019a9950505050505050505050565b60007f00000000000000000000000000000000000000000000000000000000000000006001600160a01b0316826001600160a01b03161480610c8a57507f00000000000000000000000000000000000000000000000000000000000000006001600160a01b0316826001600160a01b0316149050919050565b6114b06110ca61229d565b6110d98282612a11565b6001600160a01b031660009081526005602052604090205490565b6114e06110ca61229d565b8483811480156114ef57508082145b611540576040805162461bcd60e51b815260206004820152601a60248201527f5265636f763a20696e636f6e73697374656e7420617272617973000000000000604482015290519081900360640190fd5b60005b81811461166e5785858281811061155657fe5b905060200201356001600160a01b03166001600160a01b031663a9059cbb89898481811061158057fe5b905060200201356001600160a01b031686868581811061159c57fe5b905060200201356040518363ffffffff1660e01b815260040180836001600160a01b0316815260200182815260200192505050602060405180830381600087803b1580156115e957600080fd5b505af11580156115fd573d6000803e3d6000fd5b505050506040513d602081101561161357600080fd5b5051611666576040805162461bcd60e51b815260206004820152601660248201527f5265636f763a207472616e73666572206661696c656400000000000000000000604482015290519081900360640190fd5b600101611543565b5050505050505050565b6000610d388383612c41565b60016020526000908152604090205481565b6000838281146116ed576040805162461bcd60e51b815260206004820152601a60248201527f45524332303a20696e636f6e73697374656e7420617272617973000000000000604482015290519081900360640190fd5b60006116f761229d565b6001600160a01b03811660009081526005602052604081205491925080805b85811461190b5760008b8b8381811061172b57fe5b905060200201356001600160a01b0316905060006001600160a01b0316816001600160a01b031614156117a5576040805162461bcd60e51b815260206004820152601660248201527f45524332303a20746f207a65726f206164647265737300000000000000000000604482015290519081900360640190fd5b60008a8a848181106117b357fe5b905060200201359050806000146118b65784810185811161181b576040805162461bcd60e51b815260206004820152601660248201527f45524332303a2076616c756573206f766572666c6f7700000000000000000000604482015290519081900360640190fd5b809550826001600160a01b0316886001600160a01b03161461185a576001600160a01b03831660009081526005602052604090208054830190556118b4565b868211156118af576040805162461bcd60e51b815260206004820152601b60248201527f45524332303a20696e73756666696369656e742062616c616e63650000000000604482015290519081900360640190fd5b938101935b505b816001600160a01b0316876001600160a01b03167fddf252ad1be2c89b69c2b068fc378daa952ba7f163c4a11628f55a4df523b3ef836040518082815260200191505060405180910390a35050600101611716565b50811580159061191b5750808214155b1561199557818303838110611977576040805162461bcd60e51b815260206004820152601b60248201527f45524332303a20696e73756666696369656e742062616c616e63650000000000604482015290519081900360640190fd5b6001600160a01b038516600090815260056020526040902090820190555b5060019998505050505050505050565b6000546001600160a01b031690565b60038054604080516020601f6002600019610100600188161502019095169490940493840181900481028201810190925282815260609390929091830182828015610d195780601f10610cee57610100808354040283529160200191610d19565b60006001600160a01b038316611a72576040805162461bcd60e51b815260206004820152601b60248201527f45524332303a207a65726f2061646472657373207370656e6465720000000000604482015290519081900360640190fd5b610d38611a7d61229d565b8484612902565b6000610d38611a9161229d565b8484612c80565b600080611aa361229d565b9050611ab18188888861257a565b611ac3866001600160a01b0316612de7565b15611c2c577f4fc35859000000000000000000000000000000000000000000000000000000007bffffffffffffffffffffffffffffffffffffffffffffffffffffffff1916866001600160a01b0316634fc35859838a8989896040518663ffffffff1660e01b815260040180866001600160a01b03168152602001856001600160a01b03168152602001848152602001806020018281038252848482818152602001925080828437600081840152601f19601f8201169050808301925050509650505050505050602060405180830381600087803b158015611ba457600080fd5b505af1158015611bb8573d6000803e3d6000fd5b505050506040513d6020811015611bce57600080fd5b50516001600160e01b03191614611c2c576040805162461bcd60e51b815260206004820152601760248201527f45524332303a207472616e736665722072656675736564000000000000000000604482015290519081900360640190fd5b5060019695505050505050565b611c446110ca61229d565b848381148015611c5357508082145b611ca4576040805162461bcd60e51b815260206004820152601a60248201527f5265636f763a20696e636f6e73697374656e7420617272617973000000000000604482015290519081900360640190fd5b60005b81811461166e57858582818110611cba57fe5b905060200201356001600160a01b03166001600160a01b03166323b872dd308a8a85818110611ce557fe5b905060200201356001600160a01b0316878786818110611d0157fe5b905060200201356040518463ffffffff1660e01b815260040180846001600160a01b03168152602001836001600160a01b031681526020018281526020019350505050600060405180830381600087803b158015611d5e57600080fd5b505af1158015611d72573d6000803e3d6000fd5b50505050806001019050611ca7565b7f000000000000000000000000000000000000000000000000000000000000000081565b6001600160a01b038716611e00576040805162461bcd60e51b815260206004820152601960248201527f45524332303a207a65726f2061646472657373206f776e657200000000000000604482015290519081900360640190fd5b83421115611e55576040805162461bcd60e51b815260206004820152601560248201527f45524332303a2065787069726564207065726d69740000000000000000000000604482015290519081900360640190fd5b6001600160a01b0380881660008181526001602081815260408084208054938401905580517f6e71edae12b1b97f4d1f60370fef10105fa2faae0126114a169c64845d6126c98184015280820195909552948b166060850152608084018a905260a084019190915260c08084018990528451808503909101815260e09093019093528151919092012090611ee7610e04565b8260405160200180807f190100000000000000000000000000000000000000000000000000000000000081525060020183815260200182815260200192505050604051602081830303815290604052805190602001209050600060018287878760405160008152602001604052604051808581526020018460ff1681526020018381526020018281526020019450505050506020604051602081039080840390855afa158015611f9b573d6000803e3d6000fd5b505050602060405103519050896001600160a01b0316816001600160a01b03161461200d576040805162461bcd60e51b815260206004820152601560248201527f45524332303a20696e76616c6964207065726d69740000000000000000000000604482015290519081900360640190fd5b6120188a8a8a6122ac565b50505050505050505050565b6001600160a01b03918216600090815260066020908152604080832093909416825291909152205490565b60008061205a61229d565b9050612067818787612c80565b612079866001600160a01b0316612de7565b156121e2577f4fc35859000000000000000000000000000000000000000000000000000000007bffffffffffffffffffffffffffffffffffffffffffffffffffffffff1916866001600160a01b0316634fc3585983848989896040518663ffffffff1660e01b815260040180866001600160a01b03168152602001856001600160a01b03168152602001848152602001806020018281038252848482818152602001925080828437600081840152601f19601f8201169050808301925050509650505050505050602060405180830381600087803b15801561215a57600080fd5b505af115801561216e573d6000803e3d6000fd5b505050506040513d602081101561218457600080fd5b50516001600160e01b031916146121e2576040805162461bcd60e51b815260206004820152601760248201527f45524332303a207472616e736665722072656675736564000000000000000000604482015290519081900360640190fd5b50600195945050505050565b6121f96110ca61229d565b600080547fffffffffffffffffffffffff0000000000000000000000000000000000000000166001600160a01b0383811691821780845560405192939116917f8be0079c531659141344cd1fd0a4f28419497f9722a3daafe3b4186f6b6457e09190a350565b60006001600160e01b031982167f20c07ed1000000000000000000000000000000000000000000000000000000001480610c8a5750610c8a82612ded565b60006122a7612f8a565b905090565b6001600160a01b038216612307576040805162461bcd60e51b815260206004820152601b60248201527f45524332303a207a65726f2061646472657373207370656e6465720000000000604482015290519081900360640190fd5b6001600160a01b03808416600081815260066020908152604080832094871680845294825291829020859055815185815291517f8c5be1e5ebec7d5bd14f71427d1e84f3dd0314c0f7b2291e5b200ac8c7c3b9259281900390910190a3505050565b8151815181146123c0576040805162461bcd60e51b815260206004820152601a60248201527f45524332303a20696e636f6e73697374656e7420617272617973000000000000604482015290519081900360640190fd5b60006123ca61229d565b90506000805b8381146125725760008682815181106123e557fe5b6020026020010151905060008683815181106123fd57fe5b602002602001015190508060001461249e576001600160a01b03821660009081526005602052604090205481810381811061247f576040805162461bcd60e51b815260206004820152601b60248201527f45524332303a20696e73756666696369656e742062616c616e63650000000000604482015290519081900360640190fd5b6001600160a01b03841660009081526005602052604090205550928301925b6040805182815290516000916001600160a01b038516917fddf252ad1be2c89b69c2b068fc378daa952ba7f163c4a11628f55a4df523b3ef9181900360200190a3846001600160a01b0316826001600160a01b03161461250357612503828683612902565b831561256857600754848103818110612563576040805162461bcd60e51b815260206004820152601660248201527f45524332303a20737570706c79206f766572666c6f7700000000000000000000604482015290519081900360640190fd5b600755505b50506001016123d0565b505050505050565b612585838383612c80565b836001600160a01b0316836001600160a01b0316146125a9576125a9838583612902565b50505050565b8051602091820120604080517f8b73c3c69bb8fe3d512ecc4cf759cc79239f7b179b0ffacaa9a75d522b39400f81850152808201929092527fc89efdaa54c0f20c7adf612882df0950f5a951637e0307cdcb4c672f298b8bc6606083015260808201939093523060a0808301919091528351808303909101815260c0909101909252815191012090565b306001600160a01b0316638da5cb5b6040518163ffffffff1660e01b815260040160206040518083038186803b15801561267257600080fd5b505afa158015612686573d6000803e3d6000fd5b505050506040513d602081101561269c57600080fd5b50516001600160a01b038281169116146126fd576040805162461bcd60e51b815260206004820152601660248201527f4f776e61626c653a206e6f7420746865206f776e657200000000000000000000604482015290519081900360640190fd5b50565b6001600160a01b03821661275b576040805162461bcd60e51b815260206004820152601360248201527f45524332303a207a65726f206164647265737300000000000000000000000000604482015290519081900360640190fd5b60075481156127dd578082018181116127bb576040805162461bcd60e51b815260206004820152601660248201527f45524332303a20737570706c79206f766572666c6f7700000000000000000000604482015290519081900360640190fd5b6007556001600160a01b03831660009081526005602052604090208054830190555b6040805183815290516001600160a01b038516916000917fddf252ad1be2c89b69c2b068fc378daa952ba7f163c4a11628f55a4df523b3ef9181900360200190a3505050565b80156128bd576001600160a01b038216600090815260056020526040902054818103818110612899576040805162461bcd60e51b815260206004820152601b60248201527f45524332303a20696e73756666696369656e742062616c616e63650000000000604482015290519081900360640190fd5b6001600160a01b038416600090815260056020526040902055506007805482900390555b6040805182815290516000916001600160a01b038516917fddf252ad1be2c89b69c2b068fc378daa952ba7f163c4a11628f55a4df523b3ef9181900360200190a35050565b6001600160a01b03808416600090815260066020908152604080832093861683529290522054600019811480159061293957508115155b156129c057818103818110612995576040805162461bcd60e51b815260206004820152601d60248201527f45524332303a20696e73756666696369656e7420616c6c6f77616e6365000000604482015290519081900360640190fd5b6001600160a01b03808616600090815260066020908152604080832093881683529290522081905590505b826001600160a01b0316846001600160a01b03167f8c5be1e5ebec7d5bd14f71427d1e84f3dd0314c0f7b2291e5b200ac8c7c3b925836040518082815260200191505060405180910390a350505050565b815181518114612a68576040805162461bcd60e51b815260206004820152601a60248201527f45524332303a20696e636f6e73697374656e7420617272617973000000000000604482015290519081900360640190fd5b6000805b828114612bd6576000858281518110612a8157fe5b6020026020010151905060006001600160a01b0316816001600160a01b03161415612af3576040805162461bcd60e51b815260206004820152601360248201527f45524332303a207a65726f206164647265737300000000000000000000000000604482015290519081900360640190fd5b6000858381518110612b0157fe5b6020026020010151905080600014612b8b57838101848111612b6a576040805162461bcd60e51b815260206004820152601660248201527f45524332303a2076616c756573206f766572666c6f7700000000000000000000604482015290519081900360640190fd5b6001600160a01b038316600090815260056020526040902080548301905593505b6040805182815290516001600160a01b038416916000917fddf252ad1be2c89b69c2b068fc378daa952ba7f163c4a11628f55a4df523b3ef9181900360200190a35050600101612a6c565b5080156125a957600754818101818111612c37576040805162461bcd60e51b815260206004820152601660248201527f45524332303a20737570706c79206f766572666c6f7700000000000000000000604482015290519081900360640190fd5b6007555050505050565b612c4b8282612823565b6000612c5561229d565b9050806001600160a01b0316836001600160a01b031614612c7b57612c7b838284612902565b505050565b6001600160a01b038216612cdb576040805162461bcd60e51b815260206004820152601660248201527f45524332303a20746f207a65726f206164647265737300000000000000000000604482015290519081900360640190fd5b8015612d97576001600160a01b038316600090815260056020526040902054818103818110612d51576040805162461bcd60e51b815260206004820152601b60248201527f45524332303a20696e73756666696369656e742062616c616e63650000000000604482015290519081900360640190fd5b836001600160a01b0316856001600160a01b031614612d94576001600160a01b038086166000908152600560205260408082208490559186168152208054840190555b50505b816001600160a01b0316836001600160a01b03167fddf252ad1be2c89b69c2b068fc378daa952ba7f163c4a11628f55a4df523b3ef836040518082815260200191505060405180910390a3505050565b3b151590565b60006001600160e01b031982167f01ffc9a7000000000000000000000000000000000000000000000000000000001480612e5057506001600160e01b031982167f36372b0700000000000000000000000000000000000000000000000000000000145b80612e8457506001600160e01b031982167fa219a02500000000000000000000000000000000000000000000000000000000145b80612eb857506001600160e01b031982167f3c130d9000000000000000000000000000000000000000000000000000000000145b80612eec57506001600160e01b031982167f9d07518600000000000000000000000000000000000000000000000000000000145b80612f2057506001600160e01b031982167fc05327e600000000000000000000000000000000000000000000000000000000145b80612f5457506001600160e01b031982167f53f41a9700000000000000000000000000000000000000000000000000000000145b80610c8a5750506001600160e01b0319167f9d8ff7da000000000000000000000000000000000000000000000000000000001490565b60003381612f966130ea565b90507f00000000000000000000000000000000000000000000000000000000000000006001600160a01b0316826001600160a01b0316148061300957507f00000000000000000000000000000000000000000000000000000000000000006001600160a01b0316826001600160a01b0316145b15613017579150610d219050565b6001600160a01b03821632148015906130d657507f00000000000000000000000000000000000000000000000000000000000000006001600160a01b031663e60125d682846040518363ffffffff1660e01b815260040180836001600160a01b03168152602001826001600160a01b031681526020019250505060206040518083038186803b1580156130a957600080fd5b505afa1580156130bd573d6000803e3d6000fd5b505050506040513d60208110156130d357600080fd5b50515b156130e4579150610d219050565b50905090565b7fffffffffffffffffffffffffffffffffffffffffffffffffffffffffffffffec36013560601c9056fea26469706673582212200cd26bf331ddd8f2d831cbb0261a950da93d16df6a7573f528f4460291559ef864736f6c63430007060033",
  "linkReferences": {},
  "deployedLinkReferences": {}
}