{
  "_format": "hh-sol-artifact-1",
  "contractName": "ChildERC20BurnableMock",
  "sourceName": "contracts/mocks/token/ERC20/ChildERC20BurnableMock.sol",
  "abi": [
    {
      "inputs": [
        {
          "internalType": "address[]",
          "name": "recipients",
          "type": "address[]"
        },
        {
          "internalType": "uint256[]",
          "name": "values",
          "type": "uint256[]"
        },
        {
          "internalType": "contract IForwarderRegistry",
          "name": "forwarderRegistry",
          "type": "address"
        },
        {
          "internalType": "address",
          "name": "universalForwarder",
          "type": "address"
        }
      ],
      "stateMutability": "nonpayable",
      "type": "constructor"
    },
    {
      "anonymous": false,
      "inputs": [
        {
          "indexed": true,
          "internalType": "address",
          "name": "_owner",
          "type": "address"
        },
        {
          "indexed": true,
          "internalType": "address",
          "name": "_spender",
          "type": "address"
        },
        {
          "indexed": false,
          "internalType": "uint256",
          "name": "_value",
          "type": "uint256"
        }
      ],
      "name": "Approval",
      "type": "event"
    },
    {
      "anonymous": false,
      "inputs": [
        {
          "indexed": true,
          "internalType": "address",
          "name": "previousOwner",
          "type": "address"
        },
        {
          "indexed": true,
          "internalType": "address",
          "name": "newOwner",
          "type": "address"
        }
      ],
      "name": "OwnershipTransferred",
      "type": "event"
    },
    {
      "anonymous": false,
      "inputs": [
        {
          "indexed": true,
          "internalType": "address",
          "name": "_from",
          "type": "address"
        },
        {
          "indexed": true,
          "internalType": "address",
          "name": "_to",
          "type": "address"
        },
        {
          "indexed": false,
          "internalType": "uint256",
          "name": "_value",
          "type": "uint256"
        }
      ],
      "name": "Transfer",
      "type": "event"
    },
    {
      "anonymous": false,
      "inputs": [
        {
          "indexed": false,
          "internalType": "address",
          "name": "account",
          "type": "address"
        },
        {
          "indexed": false,
          "internalType": "uint256",
          "name": "value",
          "type": "uint256"
        }
      ],
      "name": "Withdrawn",
      "type": "event"
    },
    {
      "inputs": [],
      "name": "DOMAIN_SEPARATOR",
      "outputs": [
        {
          "internalType": "bytes32",
          "name": "",
          "type": "bytes32"
        }
      ],
      "stateMutability": "view",
      "type": "function"
    },
    {
      "inputs": [
        {
          "internalType": "address",
          "name": "owner",
          "type": "address"
        },
        {
          "internalType": "address",
          "name": "spender",
          "type": "address"
        }
      ],
      "name": "allowance",
      "outputs": [
        {
          "internalType": "uint256",
          "name": "",
          "type": "uint256"
        }
      ],
      "stateMutability": "view",
      "type": "function"
    },
    {
      "inputs": [
        {
          "internalType": "address",
          "name": "spender",
          "type": "address"
        },
        {
          "internalType": "uint256",
          "name": "value",
          "type": "uint256"
        }
      ],
      "name": "approve",
      "outputs": [
        {
          "internalType": "bool",
          "name": "",
          "type": "bool"
        }
      ],
      "stateMutability": "nonpayable",
      "type": "function"
    },
    {
      "inputs": [
        {
          "internalType": "address",
          "name": "account",
          "type": "address"
        }
      ],
      "name": "balanceOf",
      "outputs": [
        {
          "internalType": "uint256",
          "name": "",
          "type": "uint256"
        }
      ],
      "stateMutability": "view",
      "type": "function"
    },
    {
      "inputs": [
        {
          "internalType": "address[]",
          "name": "owners",
          "type": "address[]"
        },
        {
          "internalType": "uint256[]",
          "name": "values",
          "type": "uint256[]"
        }
      ],
      "name": "batchBurnFrom",
      "outputs": [
        {
          "internalType": "bool",
          "name": "",
          "type": "bool"
        }
      ],
      "stateMutability": "nonpayable",
      "type": "function"
    },
    {
      "inputs": [
        {
          "internalType": "address[]",
          "name": "recipients",
          "type": "address[]"
        },
        {
          "internalType": "uint256[]",
          "name": "values",
          "type": "uint256[]"
        }
      ],
      "name": "batchMint",
      "outputs": [],
      "stateMutability": "nonpayable",
      "type": "function"
    },
    {
      "inputs": [
        {
          "internalType": "address[]",
          "name": "recipients",
          "type": "address[]"
        },
        {
          "internalType": "uint256[]",
          "name": "values",
          "type": "uint256[]"
        }
      ],
      "name": "batchTransfer",
      "outputs": [
        {
          "internalType": "bool",
          "name": "",
          "type": "bool"
        }
      ],
      "stateMutability": "nonpayable",
      "type": "function"
    },
    {
      "inputs": [
        {
          "internalType": "address",
          "name": "from",
          "type": "address"
        },
        {
          "internalType": "address[]",
          "name": "recipients",
          "type": "address[]"
        },
        {
          "internalType": "uint256[]",
          "name": "values",
          "type": "uint256[]"
        }
      ],
      "name": "batchTransferFrom",
      "outputs": [
        {
          "internalType": "bool",
          "name": "",
          "type": "bool"
        }
      ],
      "stateMutability": "nonpayable",
      "type": "function"
    },
    {
      "inputs": [
        {
          "internalType": "uint256",
          "name": "amount",
          "type": "uint256"
        }
      ],
      "name": "burn",
      "outputs": [
        {
          "internalType": "bool",
          "name": "",
          "type": "bool"
        }
      ],
      "stateMutability": "nonpayable",
      "type": "function"
    },
    {
      "inputs": [
        {
          "internalType": "address",
          "name": "from",
          "type": "address"
        },
        {
          "internalType": "uint256",
          "name": "value",
          "type": "uint256"
        }
      ],
      "name": "burnFrom",
      "outputs": [
        {
          "internalType": "bool",
          "name": "",
          "type": "bool"
        }
      ],
      "stateMutability": "nonpayable",
      "type": "function"
    },
    {
      "inputs": [],
      "name": "decimals",
      "outputs": [
        {
          "internalType": "uint8",
          "name": "",
          "type": "uint8"
        }
      ],
      "stateMutability": "view",
      "type": "function"
    },
    {
      "inputs": [
        {
          "internalType": "address",
          "name": "spender",
          "type": "address"
        },
        {
          "internalType": "uint256",
          "name": "subtractedValue",
          "type": "uint256"
        }
      ],
      "name": "decreaseAllowance",
      "outputs": [
        {
          "internalType": "bool",
          "name": "",
          "type": "bool"
        }
      ],
      "stateMutability": "nonpayable",
      "type": "function"
    },
    {
      "inputs": [],
      "name": "deploymentChainId",
      "outputs": [
        {
          "internalType": "uint256",
          "name": "",
          "type": "uint256"
        }
      ],
      "stateMutability": "view",
      "type": "function"
    },
    {
      "inputs": [
        {
          "internalType": "address",
          "name": "user",
          "type": "address"
        },
        {
          "internalType": "bytes",
          "name": "depositData",
          "type": "bytes"
        }
      ],
      "name": "deposit",
      "outputs": [],
      "stateMutability": "nonpayable",
      "type": "function"
    },
    {
      "inputs": [],
      "name": "depositor",
      "outputs": [
        {
          "internalType": "address",
          "name": "",
          "type": "address"
        }
      ],
      "stateMutability": "view",
      "type": "function"
    },
    {
      "inputs": [
        {
          "internalType": "address",
          "name": "spender",
          "type": "address"
        },
        {
          "internalType": "uint256",
          "name": "addedValue",
          "type": "uint256"
        }
      ],
      "name": "increaseAllowance",
      "outputs": [
        {
          "internalType": "bool",
          "name": "",
          "type": "bool"
        }
      ],
      "stateMutability": "nonpayable",
      "type": "function"
    },
    {
      "inputs": [
        {
          "internalType": "address",
          "name": "forwarder",
          "type": "address"
        }
      ],
      "name": "isTrustedForwarder",
      "outputs": [
        {
          "internalType": "bool",
          "name": "",
          "type": "bool"
        }
      ],
      "stateMutability": "view",
      "type": "function"
    },
    {
      "inputs": [
        {
          "internalType": "address",
          "name": "to",
          "type": "address"
        },
        {
          "internalType": "uint256",
          "name": "value",
          "type": "uint256"
        }
      ],
      "name": "mint",
      "outputs": [],
      "stateMutability": "nonpayable",
      "type": "function"
    },
    {
      "inputs": [],
      "name": "name",
      "outputs": [
        {
          "internalType": "string",
          "name": "",
          "type": "string"
        }
      ],
      "stateMutability": "view",
      "type": "function"
    },
    {
      "inputs": [
        {
          "internalType": "address",
          "name": "",
          "type": "address"
        }
      ],
      "name": "nonces",
      "outputs": [
        {
          "internalType": "uint256",
          "name": "",
          "type": "uint256"
        }
      ],
      "stateMutability": "view",
      "type": "function"
    },
    {
      "inputs": [
        {
          "internalType": "address",
          "name": "",
          "type": "address"
        },
        {
          "internalType": "address",
          "name": "from",
          "type": "address"
        },
        {
          "internalType": "uint256",
          "name": "amount",
          "type": "uint256"
        },
        {
          "internalType": "bytes",
          "name": "",
          "type": "bytes"
        }
      ],
      "name": "onERC20Received",
      "outputs": [
        {
          "internalType": "bytes4",
          "name": "",
          "type": "bytes4"
        }
      ],
      "stateMutability": "nonpayable",
      "type": "function"
    },
    {
      "inputs": [],
      "name": "owner",
      "outputs": [
        {
          "internalType": "address",
          "name": "",
          "type": "address"
        }
      ],
      "stateMutability": "view",
      "type": "function"
    },
    {
      "inputs": [
        {
          "internalType": "address",
          "name": "owner",
          "type": "address"
        },
        {
          "internalType": "address",
          "name": "spender",
          "type": "address"
        },
        {
          "internalType": "uint256",
          "name": "value",
          "type": "uint256"
        },
        {
          "internalType": "uint256",
          "name": "deadline",
          "type": "uint256"
        },
        {
          "internalType": "uint8",
          "name": "v",
          "type": "uint8"
        },
        {
          "internalType": "bytes32",
          "name": "r",
          "type": "bytes32"
        },
        {
          "internalType": "bytes32",
          "name": "s",
          "type": "bytes32"
        }
      ],
      "name": "permit",
      "outputs": [],
      "stateMutability": "nonpayable",
      "type": "function"
    },
    {
      "inputs": [
        {
          "internalType": "address[]",
          "name": "accounts",
          "type": "address[]"
        },
        {
          "internalType": "address[]",
          "name": "tokens",
          "type": "address[]"
        },
        {
          "internalType": "uint256[]",
          "name": "amounts",
          "type": "uint256[]"
        }
      ],
      "name": "recoverERC20s",
      "outputs": [],
      "stateMutability": "nonpayable",
      "type": "function"
    },
    {
      "inputs": [
        {
          "internalType": "address[]",
          "name": "accounts",
          "type": "address[]"
        },
        {
          "internalType": "address[]",
          "name": "contracts",
          "type": "address[]"
        },
        {
          "internalType": "uint256[]",
          "name": "tokenIds",
          "type": "uint256[]"
        }
      ],
      "name": "recoverERC721s",
      "outputs": [],
      "stateMutability": "nonpayable",
      "type": "function"
    },
    {
      "inputs": [
        {
          "internalType": "address",
          "name": "to",
          "type": "address"
        },
        {
          "internalType": "uint256",
          "name": "amount",
          "type": "uint256"
        },
        {
          "internalType": "bytes",
          "name": "data",
          "type": "bytes"
        }
      ],
      "name": "safeTransfer",
      "outputs": [
        {
          "internalType": "bool",
          "name": "",
          "type": "bool"
        }
      ],
      "stateMutability": "nonpayable",
      "type": "function"
    },
    {
      "inputs": [
        {
          "internalType": "address",
          "name": "from",
          "type": "address"
        },
        {
          "internalType": "address",
          "name": "to",
          "type": "address"
        },
        {
          "internalType": "uint256",
          "name": "amount",
          "type": "uint256"
        },
        {
          "internalType": "bytes",
          "name": "data",
          "type": "bytes"
        }
      ],
      "name": "safeTransferFrom",
      "outputs": [
        {
          "internalType": "bool",
          "name": "",
          "type": "bool"
        }
      ],
      "stateMutability": "nonpayable",
      "type": "function"
    },
    {
      "inputs": [
        {
          "internalType": "address",
          "name": "childChainManager",
          "type": "address"
        }
      ],
      "name": "setDepositor",
      "outputs": [],
      "stateMutability": "nonpayable",
      "type": "function"
    },
    {
      "inputs": [
        {
          "internalType": "bytes4",
          "name": "interfaceId",
          "type": "bytes4"
        }
      ],
      "name": "supportsInterface",
      "outputs": [
        {
          "internalType": "bool",
          "name": "",
          "type": "bool"
        }
      ],
      "stateMutability": "view",
      "type": "function"
    },
    {
      "inputs": [],
      "name": "symbol",
      "outputs": [
        {
          "internalType": "string",
          "name": "",
          "type": "string"
        }
      ],
      "stateMutability": "view",
      "type": "function"
    },
    {
      "inputs": [],
      "name": "test",
      "outputs": [],
      "stateMutability": "nonpayable",
      "type": "function"
    },
    {
      "inputs": [],
      "name": "tokenURI",
      "outputs": [
        {
          "internalType": "string",
          "name": "",
          "type": "string"
        }
      ],
      "stateMutability": "view",
      "type": "function"
    },
    {
      "inputs": [],
      "name": "totalSupply",
      "outputs": [
        {
          "internalType": "uint256",
          "name": "",
          "type": "uint256"
        }
      ],
      "stateMutability": "view",
      "type": "function"
    },
    {
      "inputs": [
        {
          "internalType": "address",
          "name": "to",
          "type": "address"
        },
        {
          "internalType": "uint256",
          "name": "value",
          "type": "uint256"
        }
      ],
      "name": "transfer",
      "outputs": [
        {
          "internalType": "bool",
          "name": "",
          "type": "bool"
        }
      ],
      "stateMutability": "nonpayable",
      "type": "function"
    },
    {
      "inputs": [
        {
          "internalType": "address",
          "name": "from",
          "type": "address"
        },
        {
          "internalType": "address",
          "name": "to",
          "type": "address"
        },
        {
          "internalType": "uint256",
          "name": "value",
          "type": "uint256"
        }
      ],
      "name": "transferFrom",
      "outputs": [
        {
          "internalType": "bool",
          "name": "",
          "type": "bool"
        }
      ],
      "stateMutability": "nonpayable",
      "type": "function"
    },
    {
      "inputs": [
        {
          "internalType": "address",
          "name": "newOwner",
          "type": "address"
        }
      ],
      "name": "transferOwnership",
      "outputs": [],
      "stateMutability": "nonpayable",
      "type": "function"
    },
    {
      "inputs": [
        {
          "internalType": "uint256",
          "name": "amount",
          "type": "uint256"
        }
      ],
      "name": "withdraw",
      "outputs": [],
      "stateMutability": "nonpayable",
      "type": "function"
    }
  ],
  "bytecode": "0x6101206040523480156200001257600080fd5b5060405162003c4838038062003c48833981810160405260808110156200003857600080fd5b81019080805160405193929190846401000000008211156200005957600080fd5b9083019060208201858111156200006f57600080fd5b82518660208202830111640100000000821117156200008d57600080fd5b82525081516020918201928201910280838360005b83811015620000bc578181015183820152602001620000a2565b5050505090500160405260200180516040519392919084640100000000821115620000e657600080fd5b908301906020820185811115620000fc57600080fd5b82518660208202830111640100000000821117156200011a57600080fd5b82525081516020918201928201910280838360005b83811015620001495781810151838201526020016200012f565b5050505090500160405260200180519060200190929190805190602001909291905050506040518060400160405280601081526020016f4368696c64204552433230204d6f636b60801b815250604051806040016040528060048152602001630434532360e41b81525060126040518060400160405280600381526020016275726960e81b81525083838383838383838d8d33806000806101000a8154816001600160a01b0302191690836001600160a01b03160217905550806001600160a01b031660006001600160a01b03167f8be0079c531659141344cd1fd0a4f28419497f9722a3daafe3b4186f6b6457e060405160405180910390a3506001600160601b0319606091821b811660a05291901b16608052835162000273906002906020870190620005cc565b50825162000289906003906020860190620005cc565b507fff0000000000000000000000000000000000000000000000000000000000000060f883901b16610100528051620002ca906004906020840190620005cc565b504660c0819052620002dd818662000307565b60e05250620002fd9b508f9a508e99505062000391975050505050505050565b5050505062000678565b8051602091820120604080517f8b73c3c69bb8fe3d512ecc4cf759cc79239f7b179b0ffacaa9a75d522b39400f81850152808201929092527fc89efdaa54c0f20c7adf612882df0950f5a951637e0307cdcb4c672f298b8bc6606083015260808201939093523060a0808301919091528351808303909101815260c0909101909252815191012090565b815181518114620003e9576040805162461bcd60e51b815260206004820152601a60248201527f45524332303a20696e636f6e73697374656e7420617272617973000000000000604482015290519081900360640190fd5b6000805b8281146200055e5760008582815181106200040457fe5b6020026020010151905060006001600160a01b0316816001600160a01b0316141562000477576040805162461bcd60e51b815260206004820152601360248201527f45524332303a207a65726f206164647265737300000000000000000000000000604482015290519081900360640190fd5b60008583815181106200048657fe5b60200260200101519050806000146200051257838101848111620004f1576040805162461bcd60e51b815260206004820152601660248201527f45524332303a2076616c756573206f766572666c6f7700000000000000000000604482015290519081900360640190fd5b6001600160a01b038316600090815260056020526040902080548301905593505b6040805182815290516001600160a01b038416916000917fddf252ad1be2c89b69c2b068fc378daa952ba7f163c4a11628f55a4df523b3ef9181900360200190a35050600101620003ed565b508015620005c657600754818101818111620005c1576040805162461bcd60e51b815260206004820152601660248201527f45524332303a20737570706c79206f766572666c6f7700000000000000000000604482015290519081900360640190fd5b600755505b50505050565b828054600181600116156101000203166002900490600052602060002090601f0160209004810192826200060457600085556200064f565b82601f106200061f57805160ff19168380011785556200064f565b828001600101855582156200064f579182015b828111156200064f57825182559160200191906001019062000632565b506200065d92915062000661565b5090565b5b808211156200065d576000815560010162000662565b60805160601c60a05160601c60c05160e0516101005160f81c613573620006d56000398061105252508061113a525080611079528061204b525080611702528061326152508061173d528061322652806132b952506135736000f3fe608060405234801561001057600080fd5b50600436106102775760003560e01c806373c8a95811610160578063c3666c36116100d8578063dd62ed3e1161008c578063f2c098b711610071578063f2c098b714610e0a578063f2fde38b14610e30578063f8a8fd6d14610e5657610277565b8063dd62ed3e14610d57578063eb79554914610d8557610277565b8063cd0d0096116100bd578063cd0d009614610c7e578063cf2c52cb14610c86578063d505accf14610d0657610277565b8063c3666c3614610b62578063c7c4ff4614610c7657610277565b80638da5cb5b1161012f578063a457c2d711610114578063a457c2d714610a7a578063a9059cbb14610aa6578063b88d4fde14610ad257610277565b80638da5cb5b14610a4e57806395d89b4114610a7257610277565b806373c8a9581461082657806379cc67901461093a5780637ecebe001461096657806388d695b21461098c57610277565b806339509351116101f35780634885b254116101c2578063572b6c05116101a7578063572b6c05146106b357806368573107146106d957806370a082311461080057610277565b80634885b254146105345780634fc358591461060657610277565b806339509351146104b75780633c130d90146104e357806340c10f19146104eb57806342966c681461051757610277565b80631b9a75291161024a5780632e1a7d4d1161022f5780632e1a7d4d14610472578063313ce567146104915780633644e515146104af57610277565b80631b9a75291461037a57806323b872dd1461043c57610277565b806301ffc9a71461027c57806306fdde03146102b7578063095ea7b31461033457806318160ddd14610360575b600080fd5b6102a36004803603602081101561029257600080fd5b50356001600160e01b031916610e5e565b604080519115158252519081900360200190f35b6102bf610ea2565b6040805160208082528351818301528351919283929083019185019080838360005b838110156102f95781810151838201526020016102e1565b50505050905090810190601f1680156103265780820380516001836020036101000a031916815260200191505b509250505060405180910390f35b6102a36004803603604081101561034a57600080fd5b506001600160a01b038135169060200135610f36565b610368610f53565b60408051918252519081900360200190f35b6102a36004803603604081101561039057600080fd5b8101906020810181356401000000008111156103ab57600080fd5b8201836020820111156103bd57600080fd5b803590602001918460208302840111640100000000831117156103df57600080fd5b9193909290916020810190356401000000008111156103fd57600080fd5b82018360208201111561040f57600080fd5b8035906020019184602083028401116401000000008311171561043157600080fd5b509092509050610f59565b6102a36004803603606081101561045257600080fd5b506001600160a01b03813581169160208101359091169060400135610fd3565b61048f6004803603602081101561048857600080fd5b5035610ff2565b005b610499611050565b6040805160ff9092168252519081900360200190f35b610368611074565b6102a3600480360360408110156104cd57600080fd5b506001600160a01b038135169060200135611160565b6102bf6112ce565b61048f6004803603604081101561050157600080fd5b506001600160a01b03813516906020013561132f565b6102a36004803603602081101561052d57600080fd5b503561134d565b6102a36004803603606081101561054a57600080fd5b6001600160a01b03823516919081019060408101602082013564010000000081111561057557600080fd5b82018360208201111561058757600080fd5b803590602001918460208302840111640100000000831117156105a957600080fd5b9193909290916020810190356401000000008111156105c757600080fd5b8201836020820111156105d957600080fd5b803590602001918460208302840111640100000000831117156105fb57600080fd5b509092509050611368565b6106966004803603608081101561061c57600080fd5b6001600160a01b0382358116926020810135909116916040820135919081019060808101606082013564010000000081111561065757600080fd5b82018360208201111561066957600080fd5b8035906020019184600183028401116401000000008311171561068b57600080fd5b50909250905061169c565b604080516001600160e01b03199092168252519081900360200190f35b6102a3600480360360208110156106c957600080fd5b50356001600160a01b03166116fe565b61048f600480360360408110156106ef57600080fd5b81019060208101813564010000000081111561070a57600080fd5b82018360208201111561071c57600080fd5b8035906020019184602083028401116401000000008311171561073e57600080fd5b919080806020026020016040519081016040528093929190818152602001838360200280828437600092019190915250929594936020810193503591505064010000000081111561078e57600080fd5b8201836020820111156107a057600080fd5b803590602001918460208302840111640100000000831117156107c257600080fd5b919080806020026020016040519081016040528093929190818152602001838360200280828437600092019190915250929550611777945050505050565b6103686004803603602081101561081657600080fd5b50356001600160a01b031661178c565b61048f6004803603606081101561083c57600080fd5b81019060208101813564010000000081111561085757600080fd5b82018360208201111561086957600080fd5b8035906020019184602083028401116401000000008311171561088b57600080fd5b9193909290916020810190356401000000008111156108a957600080fd5b8201836020820111156108bb57600080fd5b803590602001918460208302840111640100000000831117156108dd57600080fd5b9193909290916020810190356401000000008111156108fb57600080fd5b82018360208201111561090d57600080fd5b8035906020019184602083028401116401000000008311171561092f57600080fd5b5090925090506117a7565b6102a36004803603604081101561095057600080fd5b506001600160a01b03813516906020013561194a565b6103686004803603602081101561097c57600080fd5b50356001600160a01b0316611956565b6102a3600480360360408110156109a257600080fd5b8101906020810181356401000000008111156109bd57600080fd5b8201836020820111156109cf57600080fd5b803590602001918460208302840111640100000000831117156109f157600080fd5b919390929091602081019035640100000000811115610a0f57600080fd5b820183602082011115610a2157600080fd5b80359060200191846020830284011164010000000083111715610a4357600080fd5b509092509050611968565b610a56611c77565b604080516001600160a01b039092168252519081900360200190f35b6102bf611c86565b6102a360048036036040811015610a9057600080fd5b506001600160a01b038135169060200135611ce7565b6102a360048036036040811015610abc57600080fd5b506001600160a01b038135169060200135611d56565b6102a360048036036080811015610ae857600080fd5b6001600160a01b03823581169260208101359091169160408201359190810190608081016060820135640100000000811115610b2357600080fd5b820183602082011115610b3557600080fd5b80359060200191846001830284011164010000000083111715610b5757600080fd5b509092509050611d6a565b61048f60048036036060811015610b7857600080fd5b810190602081018135640100000000811115610b9357600080fd5b820183602082011115610ba557600080fd5b80359060200191846020830284011164010000000083111715610bc757600080fd5b919390929091602081019035640100000000811115610be557600080fd5b820183602082011115610bf757600080fd5b80359060200191846020830284011164010000000083111715610c1957600080fd5b919390929091602081019035640100000000811115610c3757600080fd5b820183602082011115610c4957600080fd5b80359060200191846020830284011164010000000083111715610c6b57600080fd5b509092509050611ef2565b610a5661203a565b610368612049565b61048f60048036036040811015610c9c57600080fd5b6001600160a01b038235169190810190604081016020820135640100000000811115610cc757600080fd5b820183602082011115610cd957600080fd5b80359060200191846001830284011164010000000083111715610cfb57600080fd5b50909250905061206d565b61048f600480360360e0811015610d1c57600080fd5b506001600160a01b03813581169160208101359091169060408101359060608101359060ff6080820135169060a08101359060c001356120a3565b61036860048036036040811015610d6d57600080fd5b506001600160a01b0381358116916020013516612322565b6102a360048036036060811015610d9b57600080fd5b6001600160a01b0382351691602081013591810190606081016040820135640100000000811115610dcb57600080fd5b820183602082011115610ddd57600080fd5b80359060200191846001830284011164010000000083111715610dff57600080fd5b50909250905061234d565b61048f60048036036020811015610e2057600080fd5b50356001600160a01b03166124d3565b61048f60048036036020811015610e4657600080fd5b50356001600160a01b0316612518565b61048f612589565b60006001600160e01b031982167f28963e1e000000000000000000000000000000000000000000000000000000001480610e9c5750610e9c826125c6565b92915050565b60028054604080516020601f6000196101006001871615020190941685900493840181900481028201810190925282815260609390929091830182828015610f2b5780601f10610f0057610100808354040283529160200191610f2b565b820191906000526020600020905b815481529060010190602001808311610f0e57829003601f168201915b505050505090505b90565b6000610f4a610f436125e0565b84846125ef565b50600192915050565b60075490565b6000610fc8858580806020026020016040519081016040528093929190818152602001838360200280828437600092019190915250506040805160208089028281018201909352888252909350889250879182918501908490808284376000920191909152506126ac92505050565b506001949350505050565b6000610fe8610fe06125e0565b8585856128bd565b5060019392505050565b6000610ffc6125e0565b905061100881836128ec565b604080516001600160a01b03831681526020810184905281517f7084f5476618d8e60b11ef0d7d3f06914655adb8793e28ff7f018d4c76d505d5929181900390910190a15050565b7f000000000000000000000000000000000000000000000000000000000000000090565b6000467f00000000000000000000000000000000000000000000000000000000000000008114611138576002805460408051602060018416156101000260001901909316849004601f8101849004840282018401909252818152611133938593919290918301828280156111295780601f106110fe57610100808354040283529160200191611129565b820191906000526020600020905b81548152906001019060200180831161110c57829003601f168201915b505050505061292b565b61115a565b7f00000000000000000000000000000000000000000000000000000000000000005b91505090565b60006001600160a01b0383166111bd576040805162461bcd60e51b815260206004820152601b60248201527f45524332303a207a65726f2061646472657373207370656e6465720000000000604482015290519081900360640190fd5b60006111c76125e0565b6001600160a01b0380821660009081526006602090815260408083209389168352929052205490915083156112785780840181811161124d576040805162461bcd60e51b815260206004820152601960248201527f45524332303a20616c6c6f77616e6365206f766572666c6f7700000000000000604482015290519081900360640190fd5b6001600160a01b038084166000908152600660209081526040808320938a1683529290522081905590505b846001600160a01b0316826001600160a01b03167f8c5be1e5ebec7d5bd14f71427d1e84f3dd0314c0f7b2291e5b200ac8c7c3b925836040518082815260200191505060405180910390a3506001949350505050565b60048054604080516020601f6002600019610100600188161502019095169490940493840181900481028201810190925282815260609390929091830182828015610f2b5780601f10610f0057610100808354040283529160200191610f2b565b61133f61133a6125e0565b6129b5565b6113498282612a7c565b5050565b600061136061135a6125e0565b83612b9f565b506001919050565b6000838281146113bf576040805162461bcd60e51b815260206004820152601a60248201527f45524332303a20696e636f6e73697374656e7420617272617973000000000000604482015290519081900360640190fd5b6001600160a01b0387166000908152600560205260408120549080805b8481146115d15760008a8a838181106113f157fe5b905060200201356001600160a01b0316905060006001600160a01b0316816001600160a01b0316141561146b576040805162461bcd60e51b815260206004820152601660248201527f45524332303a20746f207a65726f206164647265737300000000000000000000604482015290519081900360640190fd5b600089898481811061147957fe5b9050602002013590508060001461157c578481018581116114e1576040805162461bcd60e51b815260206004820152601660248201527f45524332303a2076616c756573206f766572666c6f7700000000000000000000604482015290519081900360640190fd5b809550826001600160a01b03168e6001600160a01b031614611520576001600160a01b038316600090815260056020526040902080548301905561157a565b86821115611575576040805162461bcd60e51b815260206004820152601b60248201527f45524332303a20696e73756666696369656e742062616c616e63650000000000604482015290519081900360640190fd5b938101935b505b816001600160a01b03168d6001600160a01b03167fddf252ad1be2c89b69c2b068fc378daa952ba7f163c4a11628f55a4df523b3ef836040518082815260200191505060405180910390a350506001016113dc565b5081158015906115e15750808214155b1561165b5781830383811061163d576040805162461bcd60e51b815260206004820152601b60248201527f45524332303a20696e73756666696369656e742062616c616e63650000000000604482015290519081900360640190fd5b6001600160a01b038b16600090815260056020526040902090820190555b60006116656125e0565b9050806001600160a01b03168b6001600160a01b03161461168b5761168b8b8285612c7e565b5060019a9950505050505050505050565b60006116a83085612b9f565b604080516001600160a01b03871681526020810186905281517f7084f5476618d8e60b11ef0d7d3f06914655adb8793e28ff7f018d4c76d505d5929181900390910190a150634fc3585960e01b95945050505050565b60007f00000000000000000000000000000000000000000000000000000000000000006001600160a01b0316826001600160a01b03161480610e9c57507f00000000000000000000000000000000000000000000000000000000000000006001600160a01b0316826001600160a01b0316149050919050565b61178261133a6125e0565b6113498282612d8d565b6001600160a01b031660009081526005602052604090205490565b6117b261133a6125e0565b8483811480156117c157508082145b611812576040805162461bcd60e51b815260206004820152601a60248201527f5265636f763a20696e636f6e73697374656e7420617272617973000000000000604482015290519081900360640190fd5b60005b8181146119405785858281811061182857fe5b905060200201356001600160a01b03166001600160a01b031663a9059cbb89898481811061185257fe5b905060200201356001600160a01b031686868581811061186e57fe5b905060200201356040518363ffffffff1660e01b815260040180836001600160a01b0316815260200182815260200192505050602060405180830381600087803b1580156118bb57600080fd5b505af11580156118cf573d6000803e3d6000fd5b505050506040513d60208110156118e557600080fd5b5051611938576040805162461bcd60e51b815260206004820152601660248201527f5265636f763a207472616e73666572206661696c656400000000000000000000604482015290519081900360640190fd5b600101611815565b5050505050505050565b6000610f4a83836128ec565b60016020526000908152604090205481565b6000838281146119bf576040805162461bcd60e51b815260206004820152601a60248201527f45524332303a20696e636f6e73697374656e7420617272617973000000000000604482015290519081900360640190fd5b60006119c96125e0565b6001600160a01b03811660009081526005602052604081205491925080805b858114611bdd5760008b8b838181106119fd57fe5b905060200201356001600160a01b0316905060006001600160a01b0316816001600160a01b03161415611a77576040805162461bcd60e51b815260206004820152601660248201527f45524332303a20746f207a65726f206164647265737300000000000000000000604482015290519081900360640190fd5b60008a8a84818110611a8557fe5b90506020020135905080600014611b8857848101858111611aed576040805162461bcd60e51b815260206004820152601660248201527f45524332303a2076616c756573206f766572666c6f7700000000000000000000604482015290519081900360640190fd5b809550826001600160a01b0316886001600160a01b031614611b2c576001600160a01b0383166000908152600560205260409020805483019055611b86565b86821115611b81576040805162461bcd60e51b815260206004820152601b60248201527f45524332303a20696e73756666696369656e742062616c616e63650000000000604482015290519081900360640190fd5b938101935b505b816001600160a01b0316876001600160a01b03167fddf252ad1be2c89b69c2b068fc378daa952ba7f163c4a11628f55a4df523b3ef836040518082815260200191505060405180910390a350506001016119e8565b508115801590611bed5750808214155b15611c6757818303838110611c49576040805162461bcd60e51b815260206004820152601b60248201527f45524332303a20696e73756666696369656e742062616c616e63650000000000604482015290519081900360640190fd5b6001600160a01b038516600090815260056020526040902090820190555b5060019998505050505050505050565b6000546001600160a01b031690565b60038054604080516020601f6002600019610100600188161502019095169490940493840181900481028201810190925282815260609390929091830182828015610f2b5780601f10610f0057610100808354040283529160200191610f2b565b60006001600160a01b038316611d44576040805162461bcd60e51b815260206004820152601b60248201527f45524332303a207a65726f2061646472657373207370656e6465720000000000604482015290519081900360640190fd5b610f4a611d4f6125e0565b8484612c7e565b6000610f4a611d636125e0565b8484612fbd565b600080611d756125e0565b9050611d83818888886128bd565b611d95866001600160a01b0316613124565b15611ee557634fc3585960e01b7bffffffffffffffffffffffffffffffffffffffffffffffffffffffff1916866001600160a01b0316634fc35859838a8989896040518663ffffffff1660e01b815260040180866001600160a01b03168152602001856001600160a01b03168152602001848152602001806020018281038252848482818152602001925080828437600081840152601f19601f8201169050808301925050509650505050505050602060405180830381600087803b158015611e5d57600080fd5b505af1158015611e71573d6000803e3d6000fd5b505050506040513d6020811015611e8757600080fd5b50516001600160e01b03191614611ee5576040805162461bcd60e51b815260206004820152601760248201527f45524332303a207472616e736665722072656675736564000000000000000000604482015290519081900360640190fd5b5060019695505050505050565b611efd61133a6125e0565b848381148015611f0c57508082145b611f5d576040805162461bcd60e51b815260206004820152601a60248201527f5265636f763a20696e636f6e73697374656e7420617272617973000000000000604482015290519081900360640190fd5b60005b81811461194057858582818110611f7357fe5b905060200201356001600160a01b03166001600160a01b03166323b872dd308a8a85818110611f9e57fe5b905060200201356001600160a01b0316878786818110611fba57fe5b905060200201356040518463ffffffff1660e01b815260040180846001600160a01b03168152602001836001600160a01b031681526020018281526020019350505050600060405180830381600087803b15801561201757600080fd5b505af115801561202b573d6000803e3d6000fd5b50505050806001019050611f60565b6008546001600160a01b031681565b7f000000000000000000000000000000000000000000000000000000000000000081565b61207d6120786125e0565b61312a565b60008282602081101561208f57600080fd5b5035905061209d8482612a7c565b50505050565b6001600160a01b0387166120fe576040805162461bcd60e51b815260206004820152601960248201527f45524332303a207a65726f2061646472657373206f776e657200000000000000604482015290519081900360640190fd5b83421115612153576040805162461bcd60e51b815260206004820152601560248201527f45524332303a2065787069726564207065726d69740000000000000000000000604482015290519081900360640190fd5b6001600160a01b0380881660008181526001602081815260408084208054938401905580517f6e71edae12b1b97f4d1f60370fef10105fa2faae0126114a169c64845d6126c98184015280820195909552948b166060850152608084018a905260a084019190915260c08084018990528451808503909101815260e090930190935281519190920120906121e5611074565b8260405160200180807f190100000000000000000000000000000000000000000000000000000000000081525060020183815260200182815260200192505050604051602081830303815290604052805190602001209050600060018287878760405160008152602001604052604051808581526020018460ff1681526020018381526020018281526020019450505050506020604051602081039080840390855afa158015612299573d6000803e3d6000fd5b505050602060405103519050896001600160a01b0316816001600160a01b03161461230b576040805162461bcd60e51b815260206004820152601560248201527f45524332303a20696e76616c6964207065726d69740000000000000000000000604482015290519081900360640190fd5b6123168a8a8a6125ef565b50505050505050505050565b6001600160a01b03918216600090815260066020908152604080832093909416825291909152205490565b6000806123586125e0565b9050612365818787612fbd565b612377866001600160a01b0316613124565b156124c757634fc3585960e01b7bffffffffffffffffffffffffffffffffffffffffffffffffffffffff1916866001600160a01b0316634fc3585983848989896040518663ffffffff1660e01b815260040180866001600160a01b03168152602001856001600160a01b03168152602001848152602001806020018281038252848482818152602001925080828437600081840152601f19601f8201169050808301925050509650505050505050602060405180830381600087803b15801561243f57600080fd5b505af1158015612453573d6000803e3d6000fd5b505050506040513d602081101561246957600080fd5b50516001600160e01b031916146124c7576040805162461bcd60e51b815260206004820152601760248201527f45524332303a207472616e736665722072656675736564000000000000000000604482015290519081900360640190fd5b50600195945050505050565b6124de61133a6125e0565b600880547fffffffffffffffffffffffff0000000000000000000000000000000000000000166001600160a01b0392909216919091179055565b61252361133a6125e0565b600080547fffffffffffffffffffffffff0000000000000000000000000000000000000000166001600160a01b0383811691821780845560405192939116917f8be0079c531659141344cd1fd0a4f28419497f9722a3daafe3b4186f6b6457e09190a350565b604080516000808252602082015281517f7084f5476618d8e60b11ef0d7d3f06914655adb8793e28ff7f018d4c76d505d5929181900390910190a1565b60006125d18261318c565b80610e9c5750610e9c826131ca565b60006125ea613216565b905090565b6001600160a01b03821661264a576040805162461bcd60e51b815260206004820152601b60248201527f45524332303a207a65726f2061646472657373207370656e6465720000000000604482015290519081900360640190fd5b6001600160a01b03808416600081815260066020908152604080832094871680845294825291829020859055815185815291517f8c5be1e5ebec7d5bd14f71427d1e84f3dd0314c0f7b2291e5b200ac8c7c3b9259281900390910190a3505050565b815181518114612703576040805162461bcd60e51b815260206004820152601a60248201527f45524332303a20696e636f6e73697374656e7420617272617973000000000000604482015290519081900360640190fd5b600061270d6125e0565b90506000805b8381146128b557600086828151811061272857fe5b60200260200101519050600086838151811061274057fe5b60200260200101519050806000146127e1576001600160a01b0382166000908152600560205260409020548181038181106127c2576040805162461bcd60e51b815260206004820152601b60248201527f45524332303a20696e73756666696369656e742062616c616e63650000000000604482015290519081900360640190fd5b6001600160a01b03841660009081526005602052604090205550928301925b6040805182815290516000916001600160a01b038516917fddf252ad1be2c89b69c2b068fc378daa952ba7f163c4a11628f55a4df523b3ef9181900360200190a3846001600160a01b0316826001600160a01b03161461284657612846828683612c7e565b83156128ab576007548481038181106128a6576040805162461bcd60e51b815260206004820152601660248201527f45524332303a20737570706c79206f766572666c6f7700000000000000000000604482015290519081900360640190fd5b600755505b5050600101612713565b505050505050565b6128c8838383612fbd565b836001600160a01b0316836001600160a01b03161461209d5761209d838583612c7e565b6128f68282612b9f565b60006129006125e0565b9050806001600160a01b0316836001600160a01b03161461292657612926838284612c7e565b505050565b8051602091820120604080517f8b73c3c69bb8fe3d512ecc4cf759cc79239f7b179b0ffacaa9a75d522b39400f81850152808201929092527fc89efdaa54c0f20c7adf612882df0950f5a951637e0307cdcb4c672f298b8bc6606083015260808201939093523060a0808301919091528351808303909101815260c0909101909252815191012090565b306001600160a01b0316638da5cb5b6040518163ffffffff1660e01b815260040160206040518083038186803b1580156129ee57600080fd5b505afa158015612a02573d6000803e3d6000fd5b505050506040513d6020811015612a1857600080fd5b50516001600160a01b03828116911614612a79576040805162461bcd60e51b815260206004820152601660248201527f4f776e61626c653a206e6f7420746865206f776e657200000000000000000000604482015290519081900360640190fd5b50565b6001600160a01b038216612ad7576040805162461bcd60e51b815260206004820152601360248201527f45524332303a207a65726f206164647265737300000000000000000000000000604482015290519081900360640190fd5b6007548115612b5957808201818111612b37576040805162461bcd60e51b815260206004820152601660248201527f45524332303a20737570706c79206f766572666c6f7700000000000000000000604482015290519081900360640190fd5b6007556001600160a01b03831660009081526005602052604090208054830190555b6040805183815290516001600160a01b038516916000917fddf252ad1be2c89b69c2b068fc378daa952ba7f163c4a11628f55a4df523b3ef9181900360200190a3505050565b8015612c39576001600160a01b038216600090815260056020526040902054818103818110612c15576040805162461bcd60e51b815260206004820152601b60248201527f45524332303a20696e73756666696369656e742062616c616e63650000000000604482015290519081900360640190fd5b6001600160a01b038416600090815260056020526040902055506007805482900390555b6040805182815290516000916001600160a01b038516917fddf252ad1be2c89b69c2b068fc378daa952ba7f163c4a11628f55a4df523b3ef9181900360200190a35050565b6001600160a01b038084166000908152600660209081526040808320938616835292905220546000198114801590612cb557508115155b15612d3c57818103818110612d11576040805162461bcd60e51b815260206004820152601d60248201527f45524332303a20696e73756666696369656e7420616c6c6f77616e6365000000604482015290519081900360640190fd5b6001600160a01b03808616600090815260066020908152604080832093881683529290522081905590505b826001600160a01b0316846001600160a01b03167f8c5be1e5ebec7d5bd14f71427d1e84f3dd0314c0f7b2291e5b200ac8c7c3b925836040518082815260200191505060405180910390a350505050565b815181518114612de4576040805162461bcd60e51b815260206004820152601a60248201527f45524332303a20696e636f6e73697374656e7420617272617973000000000000604482015290519081900360640190fd5b6000805b828114612f52576000858281518110612dfd57fe5b6020026020010151905060006001600160a01b0316816001600160a01b03161415612e6f576040805162461bcd60e51b815260206004820152601360248201527f45524332303a207a65726f206164647265737300000000000000000000000000604482015290519081900360640190fd5b6000858381518110612e7d57fe5b6020026020010151905080600014612f0757838101848111612ee6576040805162461bcd60e51b815260206004820152601660248201527f45524332303a2076616c756573206f766572666c6f7700000000000000000000604482015290519081900360640190fd5b6001600160a01b038316600090815260056020526040902080548301905593505b6040805182815290516001600160a01b038416916000917fddf252ad1be2c89b69c2b068fc378daa952ba7f163c4a11628f55a4df523b3ef9181900360200190a35050600101612de8565b50801561209d57600754818101818111612fb3576040805162461bcd60e51b815260206004820152601660248201527f45524332303a20737570706c79206f766572666c6f7700000000000000000000604482015290519081900360640190fd5b6007555050505050565b6001600160a01b038216613018576040805162461bcd60e51b815260206004820152601660248201527f45524332303a20746f207a65726f206164647265737300000000000000000000604482015290519081900360640190fd5b80156130d4576001600160a01b03831660009081526005602052604090205481810381811061308e576040805162461bcd60e51b815260206004820152601b60248201527f45524332303a20696e73756666696369656e742062616c616e63650000000000604482015290519081900360640190fd5b836001600160a01b0316856001600160a01b0316146130d1576001600160a01b038086166000908152600560205260408082208490559186168152208054840190555b50505b816001600160a01b0316836001600160a01b03167fddf252ad1be2c89b69c2b068fc378daa952ba7f163c4a11628f55a4df523b3ef836040518082815260200191505060405180910390a3505050565b3b151590565b6008546001600160a01b03828116911614612a79576040805162461bcd60e51b815260206004820152601a60248201527f4368696c6445524332303a206f6e6c79206465706f7369746f72000000000000604482015290519081900360640190fd5b60006001600160e01b031982167f20c07ed1000000000000000000000000000000000000000000000000000000001480610e9c5750610e9c82613376565b60006001600160e01b031982167f01ffc9a7000000000000000000000000000000000000000000000000000000001480610e9c5750506001600160e01b031916634fc3585960e01b1490565b60003381613222613513565b90507f00000000000000000000000000000000000000000000000000000000000000006001600160a01b0316826001600160a01b0316148061329557507f00000000000000000000000000000000000000000000000000000000000000006001600160a01b0316826001600160a01b0316145b156132a3579150610f339050565b6001600160a01b038216321480159061336257507f00000000000000000000000000000000000000000000000000000000000000006001600160a01b031663e60125d682846040518363ffffffff1660e01b815260040180836001600160a01b03168152602001826001600160a01b031681526020019250505060206040518083038186803b15801561333557600080fd5b505afa158015613349573d6000803e3d6000fd5b505050506040513d602081101561335f57600080fd5b50515b15613370579150610f339050565b50905090565b60006001600160e01b031982167f01ffc9a70000000000000000000000000000000000000000000000000000000014806133d957506001600160e01b031982167f36372b0700000000000000000000000000000000000000000000000000000000145b8061340d57506001600160e01b031982167fa219a02500000000000000000000000000000000000000000000000000000000145b8061344157506001600160e01b031982167f3c130d9000000000000000000000000000000000000000000000000000000000145b8061347557506001600160e01b031982167f9d07518600000000000000000000000000000000000000000000000000000000145b806134a957506001600160e01b031982167fc05327e600000000000000000000000000000000000000000000000000000000145b806134dd57506001600160e01b031982167f53f41a9700000000000000000000000000000000000000000000000000000000145b80610e9c5750506001600160e01b0319167f9d8ff7da000000000000000000000000000000000000000000000000000000001490565b7fffffffffffffffffffffffffffffffffffffffffffffffffffffffffffffffec36013560601c9056fea2646970667358221220cdf33a0faa18fb1e8d06cdb390f1462d837011d3ea2f7070c378e5755761956864736f6c63430007060033",
  "linkReferences": {},
  "deployedLinkReferences": {}
}