{
  "_format": "hh-sol-artifact-1",
  "contractName": "ChildERC20BurnableMock",
  "sourceName": "contracts/mocks/token/ERC20/ChildERC20BurnableMock.sol",
  "abi": [
    {
      "inputs": [
        {
          "internalType": "address[]",
          "name": "recipients",
          "type": "address[]"
        },
        {
          "internalType": "uint256[]",
          "name": "values",
          "type": "uint256[]"
        },
        {
          "internalType": "address",
          "name": "childChainManager",
          "type": "address"
        },
        {
          "internalType": "contract IForwarderRegistry",
          "name": "forwarderRegistry",
          "type": "address"
        },
        {
          "internalType": "address",
          "name": "universalForwarder",
          "type": "address"
        }
      ],
      "stateMutability": "nonpayable",
      "type": "constructor"
    },
    {
      "anonymous": false,
      "inputs": [
        {
          "indexed": true,
          "internalType": "address",
          "name": "_owner",
          "type": "address"
        },
        {
          "indexed": true,
          "internalType": "address",
          "name": "_spender",
          "type": "address"
        },
        {
          "indexed": false,
          "internalType": "uint256",
          "name": "_value",
          "type": "uint256"
        }
      ],
      "name": "Approval",
      "type": "event"
    },
    {
      "anonymous": false,
      "inputs": [
        {
          "indexed": true,
          "internalType": "address",
          "name": "previousOwner",
          "type": "address"
        },
        {
          "indexed": true,
          "internalType": "address",
          "name": "newOwner",
          "type": "address"
        }
      ],
      "name": "OwnershipTransferred",
      "type": "event"
    },
    {
      "anonymous": false,
      "inputs": [
        {
          "indexed": true,
          "internalType": "address",
          "name": "_from",
          "type": "address"
        },
        {
          "indexed": true,
          "internalType": "address",
          "name": "_to",
          "type": "address"
        },
        {
          "indexed": false,
          "internalType": "uint256",
          "name": "_value",
          "type": "uint256"
        }
      ],
      "name": "Transfer",
      "type": "event"
    },
    {
      "anonymous": false,
      "inputs": [
        {
          "indexed": false,
          "internalType": "address",
          "name": "account",
          "type": "address"
        },
        {
          "indexed": false,
          "internalType": "uint256",
          "name": "value",
          "type": "uint256"
        }
      ],
      "name": "Withdrawn",
      "type": "event"
    },
    {
      "inputs": [],
      "name": "DOMAIN_SEPARATOR",
      "outputs": [
        {
          "internalType": "bytes32",
          "name": "",
          "type": "bytes32"
        }
      ],
      "stateMutability": "view",
      "type": "function"
    },
    {
      "inputs": [
        {
          "internalType": "address",
          "name": "owner",
          "type": "address"
        },
        {
          "internalType": "address",
          "name": "spender",
          "type": "address"
        }
      ],
      "name": "allowance",
      "outputs": [
        {
          "internalType": "uint256",
          "name": "",
          "type": "uint256"
        }
      ],
      "stateMutability": "view",
      "type": "function"
    },
    {
      "inputs": [
        {
          "internalType": "address",
          "name": "spender",
          "type": "address"
        },
        {
          "internalType": "uint256",
          "name": "value",
          "type": "uint256"
        }
      ],
      "name": "approve",
      "outputs": [
        {
          "internalType": "bool",
          "name": "",
          "type": "bool"
        }
      ],
      "stateMutability": "nonpayable",
      "type": "function"
    },
    {
      "inputs": [
        {
          "internalType": "address",
          "name": "account",
          "type": "address"
        }
      ],
      "name": "balanceOf",
      "outputs": [
        {
          "internalType": "uint256",
          "name": "",
          "type": "uint256"
        }
      ],
      "stateMutability": "view",
      "type": "function"
    },
    {
      "inputs": [
        {
          "internalType": "address[]",
          "name": "owners",
          "type": "address[]"
        },
        {
          "internalType": "uint256[]",
          "name": "values",
          "type": "uint256[]"
        }
      ],
      "name": "batchBurnFrom",
      "outputs": [
        {
          "internalType": "bool",
          "name": "",
          "type": "bool"
        }
      ],
      "stateMutability": "nonpayable",
      "type": "function"
    },
    {
      "inputs": [
        {
          "internalType": "address[]",
          "name": "recipients",
          "type": "address[]"
        },
        {
          "internalType": "uint256[]",
          "name": "values",
          "type": "uint256[]"
        }
      ],
      "name": "batchMint",
      "outputs": [],
      "stateMutability": "nonpayable",
      "type": "function"
    },
    {
      "inputs": [
        {
          "internalType": "address[]",
          "name": "recipients",
          "type": "address[]"
        },
        {
          "internalType": "uint256[]",
          "name": "values",
          "type": "uint256[]"
        }
      ],
      "name": "batchTransfer",
      "outputs": [
        {
          "internalType": "bool",
          "name": "",
          "type": "bool"
        }
      ],
      "stateMutability": "nonpayable",
      "type": "function"
    },
    {
      "inputs": [
        {
          "internalType": "address",
          "name": "from",
          "type": "address"
        },
        {
          "internalType": "address[]",
          "name": "recipients",
          "type": "address[]"
        },
        {
          "internalType": "uint256[]",
          "name": "values",
          "type": "uint256[]"
        }
      ],
      "name": "batchTransferFrom",
      "outputs": [
        {
          "internalType": "bool",
          "name": "",
          "type": "bool"
        }
      ],
      "stateMutability": "nonpayable",
      "type": "function"
    },
    {
      "inputs": [
        {
          "internalType": "uint256",
          "name": "amount",
          "type": "uint256"
        }
      ],
      "name": "burn",
      "outputs": [
        {
          "internalType": "bool",
          "name": "",
          "type": "bool"
        }
      ],
      "stateMutability": "nonpayable",
      "type": "function"
    },
    {
      "inputs": [
        {
          "internalType": "address",
          "name": "from",
          "type": "address"
        },
        {
          "internalType": "uint256",
          "name": "value",
          "type": "uint256"
        }
      ],
      "name": "burnFrom",
      "outputs": [
        {
          "internalType": "bool",
          "name": "",
          "type": "bool"
        }
      ],
      "stateMutability": "nonpayable",
      "type": "function"
    },
    {
      "inputs": [],
      "name": "childChainManager",
      "outputs": [
        {
          "internalType": "address",
          "name": "",
          "type": "address"
        }
      ],
      "stateMutability": "view",
      "type": "function"
    },
    {
      "inputs": [],
      "name": "decimals",
      "outputs": [
        {
          "internalType": "uint8",
          "name": "",
          "type": "uint8"
        }
      ],
      "stateMutability": "view",
      "type": "function"
    },
    {
      "inputs": [
        {
          "internalType": "address",
          "name": "spender",
          "type": "address"
        },
        {
          "internalType": "uint256",
          "name": "subtractedValue",
          "type": "uint256"
        }
      ],
      "name": "decreaseAllowance",
      "outputs": [
        {
          "internalType": "bool",
          "name": "",
          "type": "bool"
        }
      ],
      "stateMutability": "nonpayable",
      "type": "function"
    },
    {
      "inputs": [],
      "name": "deploymentChainId",
      "outputs": [
        {
          "internalType": "uint256",
          "name": "",
          "type": "uint256"
        }
      ],
      "stateMutability": "view",
      "type": "function"
    },
    {
      "inputs": [
        {
          "internalType": "address",
          "name": "user",
          "type": "address"
        },
        {
          "internalType": "bytes",
          "name": "depositData",
          "type": "bytes"
        }
      ],
      "name": "deposit",
      "outputs": [],
      "stateMutability": "nonpayable",
      "type": "function"
    },
    {
      "inputs": [
        {
          "internalType": "address",
          "name": "spender",
          "type": "address"
        },
        {
          "internalType": "uint256",
          "name": "addedValue",
          "type": "uint256"
        }
      ],
      "name": "increaseAllowance",
      "outputs": [
        {
          "internalType": "bool",
          "name": "",
          "type": "bool"
        }
      ],
      "stateMutability": "nonpayable",
      "type": "function"
    },
    {
      "inputs": [
        {
          "internalType": "address",
          "name": "forwarder",
          "type": "address"
        }
      ],
      "name": "isTrustedForwarder",
      "outputs": [
        {
          "internalType": "bool",
          "name": "",
          "type": "bool"
        }
      ],
      "stateMutability": "view",
      "type": "function"
    },
    {
      "inputs": [
        {
          "internalType": "address",
          "name": "to",
          "type": "address"
        },
        {
          "internalType": "uint256",
          "name": "value",
          "type": "uint256"
        }
      ],
      "name": "mint",
      "outputs": [],
      "stateMutability": "nonpayable",
      "type": "function"
    },
    {
      "inputs": [],
      "name": "name",
      "outputs": [
        {
          "internalType": "string",
          "name": "",
          "type": "string"
        }
      ],
      "stateMutability": "view",
      "type": "function"
    },
    {
      "inputs": [
        {
          "internalType": "address",
          "name": "",
          "type": "address"
        }
      ],
      "name": "nonces",
      "outputs": [
        {
          "internalType": "uint256",
          "name": "",
          "type": "uint256"
        }
      ],
      "stateMutability": "view",
      "type": "function"
    },
    {
      "inputs": [
        {
          "internalType": "address",
          "name": "",
          "type": "address"
        },
        {
          "internalType": "address",
          "name": "from",
          "type": "address"
        },
        {
          "internalType": "uint256",
          "name": "amount",
          "type": "uint256"
        },
        {
          "internalType": "bytes",
          "name": "",
          "type": "bytes"
        }
      ],
      "name": "onERC20Received",
      "outputs": [
        {
          "internalType": "bytes4",
          "name": "",
          "type": "bytes4"
        }
      ],
      "stateMutability": "nonpayable",
      "type": "function"
    },
    {
      "inputs": [],
      "name": "owner",
      "outputs": [
        {
          "internalType": "address",
          "name": "",
          "type": "address"
        }
      ],
      "stateMutability": "view",
      "type": "function"
    },
    {
      "inputs": [
        {
          "internalType": "address",
          "name": "owner",
          "type": "address"
        },
        {
          "internalType": "address",
          "name": "spender",
          "type": "address"
        },
        {
          "internalType": "uint256",
          "name": "value",
          "type": "uint256"
        },
        {
          "internalType": "uint256",
          "name": "deadline",
          "type": "uint256"
        },
        {
          "internalType": "uint8",
          "name": "v",
          "type": "uint8"
        },
        {
          "internalType": "bytes32",
          "name": "r",
          "type": "bytes32"
        },
        {
          "internalType": "bytes32",
          "name": "s",
          "type": "bytes32"
        }
      ],
      "name": "permit",
      "outputs": [],
      "stateMutability": "nonpayable",
      "type": "function"
    },
    {
      "inputs": [
        {
          "internalType": "address[]",
          "name": "accounts",
          "type": "address[]"
        },
        {
          "internalType": "address[]",
          "name": "tokens",
          "type": "address[]"
        },
        {
          "internalType": "uint256[]",
          "name": "amounts",
          "type": "uint256[]"
        }
      ],
      "name": "recoverERC20s",
      "outputs": [],
      "stateMutability": "nonpayable",
      "type": "function"
    },
    {
      "inputs": [
        {
          "internalType": "address[]",
          "name": "accounts",
          "type": "address[]"
        },
        {
          "internalType": "address[]",
          "name": "contracts",
          "type": "address[]"
        },
        {
          "internalType": "uint256[]",
          "name": "tokenIds",
          "type": "uint256[]"
        }
      ],
      "name": "recoverERC721s",
      "outputs": [],
      "stateMutability": "nonpayable",
      "type": "function"
    },
    {
      "inputs": [
        {
          "internalType": "address",
          "name": "to",
          "type": "address"
        },
        {
          "internalType": "uint256",
          "name": "amount",
          "type": "uint256"
        },
        {
          "internalType": "bytes",
          "name": "data",
          "type": "bytes"
        }
      ],
      "name": "safeTransfer",
      "outputs": [
        {
          "internalType": "bool",
          "name": "",
          "type": "bool"
        }
      ],
      "stateMutability": "nonpayable",
      "type": "function"
    },
    {
      "inputs": [
        {
          "internalType": "address",
          "name": "from",
          "type": "address"
        },
        {
          "internalType": "address",
          "name": "to",
          "type": "address"
        },
        {
          "internalType": "uint256",
          "name": "amount",
          "type": "uint256"
        },
        {
          "internalType": "bytes",
          "name": "data",
          "type": "bytes"
        }
      ],
      "name": "safeTransferFrom",
      "outputs": [
        {
          "internalType": "bool",
          "name": "",
          "type": "bool"
        }
      ],
      "stateMutability": "nonpayable",
      "type": "function"
    },
    {
      "inputs": [
        {
          "internalType": "string",
          "name": "tokenURI_",
          "type": "string"
        }
      ],
      "name": "setTokenURI",
      "outputs": [],
      "stateMutability": "nonpayable",
      "type": "function"
    },
    {
      "inputs": [
        {
          "internalType": "bytes4",
          "name": "interfaceId",
          "type": "bytes4"
        }
      ],
      "name": "supportsInterface",
      "outputs": [
        {
          "internalType": "bool",
          "name": "",
          "type": "bool"
        }
      ],
      "stateMutability": "view",
      "type": "function"
    },
    {
      "inputs": [],
      "name": "symbol",
      "outputs": [
        {
          "internalType": "string",
          "name": "",
          "type": "string"
        }
      ],
      "stateMutability": "view",
      "type": "function"
    },
    {
      "inputs": [],
      "name": "tokenURI",
      "outputs": [
        {
          "internalType": "string",
          "name": "",
          "type": "string"
        }
      ],
      "stateMutability": "view",
      "type": "function"
    },
    {
      "inputs": [],
      "name": "totalSupply",
      "outputs": [
        {
          "internalType": "uint256",
          "name": "",
          "type": "uint256"
        }
      ],
      "stateMutability": "view",
      "type": "function"
    },
    {
      "inputs": [
        {
          "internalType": "address",
          "name": "to",
          "type": "address"
        },
        {
          "internalType": "uint256",
          "name": "value",
          "type": "uint256"
        }
      ],
      "name": "transfer",
      "outputs": [
        {
          "internalType": "bool",
          "name": "",
          "type": "bool"
        }
      ],
      "stateMutability": "nonpayable",
      "type": "function"
    },
    {
      "inputs": [
        {
          "internalType": "address",
          "name": "from",
          "type": "address"
        },
        {
          "internalType": "address",
          "name": "to",
          "type": "address"
        },
        {
          "internalType": "uint256",
          "name": "value",
          "type": "uint256"
        }
      ],
      "name": "transferFrom",
      "outputs": [
        {
          "internalType": "bool",
          "name": "",
          "type": "bool"
        }
      ],
      "stateMutability": "nonpayable",
      "type": "function"
    },
    {
      "inputs": [
        {
          "internalType": "address",
          "name": "newOwner",
          "type": "address"
        }
      ],
      "name": "transferOwnership",
      "outputs": [],
      "stateMutability": "nonpayable",
      "type": "function"
    },
    {
      "inputs": [
        {
          "internalType": "uint256",
          "name": "amount",
          "type": "uint256"
        }
      ],
      "name": "withdraw",
      "outputs": [],
      "stateMutability": "nonpayable",
      "type": "function"
    }
  ],
  "bytecode": "0x6101206040523480156200001257600080fd5b5060405162003ecc38038062003ecc833981810160405260a08110156200003857600080fd5b81019080805160405193929190846401000000008211156200005957600080fd5b9083019060208201858111156200006f57600080fd5b82518660208202830111640100000000821117156200008d57600080fd5b82525081516020918201928201910280838360005b83811015620000bc578181015183820152602001620000a2565b5050505090500160405260200180516040519392919084640100000000821115620000e657600080fd5b908301906020820185811115620000fc57600080fd5b82518660208202830111640100000000821117156200011a57600080fd5b82525081516020918201928201910280838360005b83811015620001495781810151838201526020016200012f565b505050509050016040526020018051906020019092919080519060200190929190805190602001909291905050506040518060400160405280601081526020016f4368696c64204552433230204d6f636b60801b815250604051806040016040528060048152602001630434532360e41b81525060126040518060400160405280600381526020016275726960e81b815250868085858585838383838f8f33806000806101000a8154816001600160a01b0302191690836001600160a01b03160217905550806001600160a01b031660006001600160a01b03167f8be0079c531659141344cd1fd0a4f28419497f9722a3daafe3b4186f6b6457e060405160405180910390a3506001600160601b0319606091821b811660a05291901b1660805283516200027f906002906020870190620005fb565b50825162000295906003906020860190620005fb565b507fff0000000000000000000000000000000000000000000000000000000000000060f883901b16610100528051620002d6906004906020840190620005fb565b504660c0819052620002e9818662000336565b60e0525050600880546001600160a01b0319166001600160a01b039990991698909817909755506200032b9a508f99508e9850620003c0975050505050505050565b5050505050620006a7565b8051602091820120604080517f8b73c3c69bb8fe3d512ecc4cf759cc79239f7b179b0ffacaa9a75d522b39400f81850152808201929092527fc89efdaa54c0f20c7adf612882df0950f5a951637e0307cdcb4c672f298b8bc6606083015260808201939093523060a0808301919091528351808303909101815260c0909101909252815191012090565b81518151811462000418576040805162461bcd60e51b815260206004820152601a60248201527f45524332303a20696e636f6e73697374656e7420617272617973000000000000604482015290519081900360640190fd5b6000805b8281146200058d5760008582815181106200043357fe5b6020026020010151905060006001600160a01b0316816001600160a01b03161415620004a6576040805162461bcd60e51b815260206004820152601360248201527f45524332303a207a65726f206164647265737300000000000000000000000000604482015290519081900360640190fd5b6000858381518110620004b557fe5b6020026020010151905080600014620005415783810184811162000520576040805162461bcd60e51b815260206004820152601660248201527f45524332303a2076616c756573206f766572666c6f7700000000000000000000604482015290519081900360640190fd5b6001600160a01b038316600090815260056020526040902080548301905593505b6040805182815290516001600160a01b038416916000917fddf252ad1be2c89b69c2b068fc378daa952ba7f163c4a11628f55a4df523b3ef9181900360200190a350506001016200041c565b508015620005f557600754818101818111620005f0576040805162461bcd60e51b815260206004820152601660248201527f45524332303a20737570706c79206f766572666c6f7700000000000000000000604482015290519081900360640190fd5b600755505b50505050565b828054600181600116156101000203166002900490600052602060002090601f0160209004810192826200063357600085556200067e565b82601f106200064e57805160ff19168380011785556200067e565b828001600101855582156200067e579182015b828111156200067e57825182559160200191906001019062000661565b506200068c92915062000690565b5090565b5b808211156200068c576000815560010162000691565b60805160601c60a05160601c60c05160e0516101005160f81c6137c862000704600039806110795250806111615250806110a0528061202052508061178d52806131f65250806117c852806131bb528061324e52506137c86000f3fe608060405234801561001057600080fd5b506004361061025c5760003560e01c806373c8a95811610145578063c3666c36116100bd578063d505accf1161008c578063e0df5b6f11610071578063e0df5b6f14610d6a578063eb79554914610dda578063f2fde38b14610e5f5761025c565b8063d505accf14610ceb578063dd62ed3e14610d3c5761025c565b8063c3666c3614610b47578063c8291d8414610c5b578063cd0d009614610c63578063cf2c52cb14610c6b5761025c565b80638da5cb5b11610114578063a457c2d7116100f9578063a457c2d714610a5f578063a9059cbb14610a8b578063b88d4fde14610ab75761025c565b80638da5cb5b14610a3357806395d89b4114610a575761025c565b806373c8a9581461080b57806379cc67901461091f5780637ecebe001461094b57806388d695b2146109715761025c565b806339509351116101d85780634885b254116101a7578063572b6c051161018c578063572b6c051461069857806368573107146106be57806370a08231146107e55761025c565b80634885b254146105195780634fc35859146105eb5761025c565b8063395093511461049c5780633c130d90146104c857806340c10f19146104d057806342966c68146104fc5761025c565b80631b9a75291161022f5780632e1a7d4d116102145780632e1a7d4d14610457578063313ce567146104765780633644e515146104945761025c565b80631b9a75291461035f57806323b872dd146104215761025c565b806301ffc9a71461026157806306fdde031461029c578063095ea7b31461031957806318160ddd14610345575b600080fd5b6102886004803603602081101561027757600080fd5b50356001600160e01b031916610e85565b604080519115158252519081900360200190f35b6102a4610ec9565b6040805160208082528351818301528351919283929083019185019080838360005b838110156102de5781810151838201526020016102c6565b50505050905090810190601f16801561030b5780820380516001836020036101000a031916815260200191505b509250505060405180910390f35b6102886004803603604081101561032f57600080fd5b506001600160a01b038135169060200135610f5d565b61034d610f7a565b60408051918252519081900360200190f35b6102886004803603604081101561037557600080fd5b81019060208101813564010000000081111561039057600080fd5b8201836020820111156103a257600080fd5b803590602001918460208302840111640100000000831117156103c457600080fd5b9193909290916020810190356401000000008111156103e257600080fd5b8201836020820111156103f457600080fd5b8035906020019184602083028401116401000000008311171561041657600080fd5b509092509050610f80565b6102886004803603606081101561043757600080fd5b506001600160a01b03813581169160208101359091169060400135610ffa565b6104746004803603602081101561046d57600080fd5b5035611019565b005b61047e611077565b6040805160ff9092168252519081900360200190f35b61034d61109b565b610288600480360360408110156104b257600080fd5b506001600160a01b038135169060200135611187565b6102a46112f5565b610474600480360360408110156104e657600080fd5b506001600160a01b038135169060200135611356565b6102886004803603602081101561051257600080fd5b5035611374565b6102886004803603606081101561052f57600080fd5b6001600160a01b03823516919081019060408101602082013564010000000081111561055a57600080fd5b82018360208201111561056c57600080fd5b8035906020019184602083028401116401000000008311171561058e57600080fd5b9193909290916020810190356401000000008111156105ac57600080fd5b8201836020820111156105be57600080fd5b803590602001918460208302840111640100000000831117156105e057600080fd5b50909250905061138f565b61067b6004803603608081101561060157600080fd5b6001600160a01b0382358116926020810135909116916040820135919081019060808101606082013564010000000081111561063c57600080fd5b82018360208201111561064e57600080fd5b8035906020019184600183028401116401000000008311171561067057600080fd5b5090925090506116c3565b604080516001600160e01b03199092168252519081900360200190f35b610288600480360360208110156106ae57600080fd5b50356001600160a01b0316611789565b610474600480360360408110156106d457600080fd5b8101906020810181356401000000008111156106ef57600080fd5b82018360208201111561070157600080fd5b8035906020019184602083028401116401000000008311171561072357600080fd5b919080806020026020016040519081016040528093929190818152602001838360200280828437600092019190915250929594936020810193503591505064010000000081111561077357600080fd5b82018360208201111561078557600080fd5b803590602001918460208302840111640100000000831117156107a757600080fd5b919080806020026020016040519081016040528093929190818152602001838360200280828437600092019190915250929550611802945050505050565b61034d600480360360208110156107fb57600080fd5b50356001600160a01b0316611817565b6104746004803603606081101561082157600080fd5b81019060208101813564010000000081111561083c57600080fd5b82018360208201111561084e57600080fd5b8035906020019184602083028401116401000000008311171561087057600080fd5b91939092909160208101903564010000000081111561088e57600080fd5b8201836020820111156108a057600080fd5b803590602001918460208302840111640100000000831117156108c257600080fd5b9193909290916020810190356401000000008111156108e057600080fd5b8201836020820111156108f257600080fd5b8035906020019184602083028401116401000000008311171561091457600080fd5b509092509050611832565b6102886004803603604081101561093557600080fd5b506001600160a01b03813516906020013561191f565b61034d6004803603602081101561096157600080fd5b50356001600160a01b031661192b565b6102886004803603604081101561098757600080fd5b8101906020810181356401000000008111156109a257600080fd5b8201836020820111156109b457600080fd5b803590602001918460208302840111640100000000831117156109d657600080fd5b9193909290916020810190356401000000008111156109f457600080fd5b820183602082011115610a0657600080fd5b80359060200191846020830284011164010000000083111715610a2857600080fd5b50909250905061193d565b610a3b611c4c565b604080516001600160a01b039092168252519081900360200190f35b6102a4611c5b565b61028860048036036040811015610a7557600080fd5b506001600160a01b038135169060200135611cbc565b61028860048036036040811015610aa157600080fd5b506001600160a01b038135169060200135611d2b565b61028860048036036080811015610acd57600080fd5b6001600160a01b03823581169260208101359091169160408201359190810190608081016060820135640100000000811115610b0857600080fd5b820183602082011115610b1a57600080fd5b80359060200191846001830284011164010000000083111715610b3c57600080fd5b509092509050611d3f565b61047460048036036060811015610b5d57600080fd5b810190602081018135640100000000811115610b7857600080fd5b820183602082011115610b8a57600080fd5b80359060200191846020830284011164010000000083111715610bac57600080fd5b919390929091602081019035640100000000811115610bca57600080fd5b820183602082011115610bdc57600080fd5b80359060200191846020830284011164010000000083111715610bfe57600080fd5b919390929091602081019035640100000000811115610c1c57600080fd5b820183602082011115610c2e57600080fd5b80359060200191846020830284011164010000000083111715610c5057600080fd5b509092509050611ec7565b610a3b61200f565b61034d61201e565b61047460048036036040811015610c8157600080fd5b6001600160a01b038235169190810190604081016020820135640100000000811115610cac57600080fd5b820183602082011115610cbe57600080fd5b80359060200191846001830284011164010000000083111715610ce057600080fd5b509092509050612042565b610474600480360360e0811015610d0157600080fd5b506001600160a01b03813581169160208101359091169060408101359060608101359060ff6080820135169060a08101359060c00135612078565b61034d60048036036040811015610d5257600080fd5b506001600160a01b03813581169160200135166122f7565b61047460048036036020811015610d8057600080fd5b810190602081018135640100000000811115610d9b57600080fd5b820183602082011115610dad57600080fd5b80359060200191846001830284011164010000000083111715610dcf57600080fd5b509092509050612322565b61028860048036036060811015610df057600080fd5b6001600160a01b0382351691602081013591810190606081016040820135640100000000811115610e2057600080fd5b820183602082011115610e3257600080fd5b80359060200191846001830284011164010000000083111715610e5457600080fd5b50909250905061233e565b61047460048036036020811015610e7557600080fd5b50356001600160a01b03166124c4565b60006001600160e01b031982167f28963e1e000000000000000000000000000000000000000000000000000000001480610ec35750610ec382612535565b92915050565b60028054604080516020601f6000196101006001871615020190941685900493840181900481028201810190925282815260609390929091830182828015610f525780601f10610f2757610100808354040283529160200191610f52565b820191906000526020600020905b815481529060010190602001808311610f3557829003601f168201915b505050505090505b90565b6000610f71610f6a61254f565b848461255e565b50600192915050565b60075490565b6000610fef8585808060200260200160405190810160405280939291908181526020018383602002808284376000920191909152505060408051602080890282810182019093528882529093508892508791829185019084908082843760009201919091525061261b92505050565b506001949350505050565b600061100f61100761254f565b8585856127d7565b5060019392505050565b600061102361254f565b905061102f8183612806565b604080516001600160a01b03831681526020810184905281517f7084f5476618d8e60b11ef0d7d3f06914655adb8793e28ff7f018d4c76d505d5929181900390910190a15050565b7f000000000000000000000000000000000000000000000000000000000000000090565b6000467f0000000000000000000000000000000000000000000000000000000000000000811461115f576002805460408051602060018416156101000260001901909316849004601f810184900484028201840190925281815261115a938593919290918301828280156111505780601f1061112557610100808354040283529160200191611150565b820191906000526020600020905b81548152906001019060200180831161113357829003601f168201915b5050505050612840565b611181565b7f00000000000000000000000000000000000000000000000000000000000000005b91505090565b60006001600160a01b0383166111e4576040805162461bcd60e51b815260206004820152601b60248201527f45524332303a207a65726f2061646472657373207370656e6465720000000000604482015290519081900360640190fd5b60006111ee61254f565b6001600160a01b03808216600090815260066020908152604080832093891683529290522054909150831561129f57808401818111611274576040805162461bcd60e51b815260206004820152601960248201527f45524332303a20616c6c6f77616e6365206f766572666c6f7700000000000000604482015290519081900360640190fd5b6001600160a01b038084166000908152600660209081526040808320938a1683529290522081905590505b846001600160a01b0316826001600160a01b03167f8c5be1e5ebec7d5bd14f71427d1e84f3dd0314c0f7b2291e5b200ac8c7c3b925836040518082815260200191505060405180910390a3506001949350505050565b60048054604080516020601f6002600019610100600188161502019095169490940493840181900481028201810190925282815260609390929091830182828015610f525780601f10610f2757610100808354040283529160200191610f52565b61136661136161254f565b6128ca565b6113708282612991565b5050565b600061138761138161254f565b83612ab4565b506001919050565b6000838281146113e6576040805162461bcd60e51b815260206004820152601a60248201527f45524332303a20696e636f6e73697374656e7420617272617973000000000000604482015290519081900360640190fd5b6001600160a01b0387166000908152600560205260408120549080805b8481146115f85760008a8a8381811061141857fe5b905060200201356001600160a01b0316905060006001600160a01b0316816001600160a01b03161415611492576040805162461bcd60e51b815260206004820152601660248201527f45524332303a20746f207a65726f206164647265737300000000000000000000604482015290519081900360640190fd5b60008989848181106114a057fe5b905060200201359050806000146115a357848101858111611508576040805162461bcd60e51b815260206004820152601660248201527f45524332303a2076616c756573206f766572666c6f7700000000000000000000604482015290519081900360640190fd5b809550826001600160a01b03168e6001600160a01b031614611547576001600160a01b03831660009081526005602052604090208054830190556115a1565b8682111561159c576040805162461bcd60e51b815260206004820152601b60248201527f45524332303a20696e73756666696369656e742062616c616e63650000000000604482015290519081900360640190fd5b938101935b505b816001600160a01b03168d6001600160a01b03167fddf252ad1be2c89b69c2b068fc378daa952ba7f163c4a11628f55a4df523b3ef836040518082815260200191505060405180910390a35050600101611403565b5081158015906116085750808214155b1561168257818303838110611664576040805162461bcd60e51b815260206004820152601b60248201527f45524332303a20696e73756666696369656e742062616c616e63650000000000604482015290519081900360640190fd5b6001600160a01b038b16600090815260056020526040902090820190555b600061168c61254f565b9050806001600160a01b03168b6001600160a01b0316146116b2576116b28b8285612b93565b5060019a9950505050505050505050565b6000306116ce61254f565b6001600160a01b031614611729576040805162461bcd60e51b815260206004820152601860248201527f4368696c6445524332303a2077726f6e672073656e6465720000000000000000604482015290519081900360640190fd5b6117333085612ab4565b604080516001600160a01b03871681526020810186905281517f7084f5476618d8e60b11ef0d7d3f06914655adb8793e28ff7f018d4c76d505d5929181900390910190a150634fc3585960e01b95945050505050565b60007f00000000000000000000000000000000000000000000000000000000000000006001600160a01b0316826001600160a01b03161480610ec357507f00000000000000000000000000000000000000000000000000000000000000006001600160a01b0316826001600160a01b0316149050919050565b61180d61136161254f565b6113708282612ca2565b6001600160a01b031660009081526005602052604090205490565b61183d61136161254f565b84838114801561184c57508082145b61189d576040805162461bcd60e51b815260206004820152601a60248201527f5265636f763a20696e636f6e73697374656e7420617272617973000000000000604482015290519081900360640190fd5b60005b8181146119155761190d8888838181106118b657fe5b905060200201356001600160a01b03168585848181106118d257fe5b905060200201358888858181106118e557fe5b905060200201356001600160a01b03166001600160a01b0316612ed29092919063ffffffff16565b6001016118a0565b5050505050505050565b6000610f718383612806565b60016020526000908152604090205481565b600083828114611994576040805162461bcd60e51b815260206004820152601a60248201527f45524332303a20696e636f6e73697374656e7420617272617973000000000000604482015290519081900360640190fd5b600061199e61254f565b6001600160a01b03811660009081526005602052604081205491925080805b858114611bb25760008b8b838181106119d257fe5b905060200201356001600160a01b0316905060006001600160a01b0316816001600160a01b03161415611a4c576040805162461bcd60e51b815260206004820152601660248201527f45524332303a20746f207a65726f206164647265737300000000000000000000604482015290519081900360640190fd5b60008a8a84818110611a5a57fe5b90506020020135905080600014611b5d57848101858111611ac2576040805162461bcd60e51b815260206004820152601660248201527f45524332303a2076616c756573206f766572666c6f7700000000000000000000604482015290519081900360640190fd5b809550826001600160a01b0316886001600160a01b031614611b01576001600160a01b0383166000908152600560205260409020805483019055611b5b565b86821115611b56576040805162461bcd60e51b815260206004820152601b60248201527f45524332303a20696e73756666696369656e742062616c616e63650000000000604482015290519081900360640190fd5b938101935b505b816001600160a01b0316876001600160a01b03167fddf252ad1be2c89b69c2b068fc378daa952ba7f163c4a11628f55a4df523b3ef836040518082815260200191505060405180910390a350506001016119bd565b508115801590611bc25750808214155b15611c3c57818303838110611c1e576040805162461bcd60e51b815260206004820152601b60248201527f45524332303a20696e73756666696369656e742062616c616e63650000000000604482015290519081900360640190fd5b6001600160a01b038516600090815260056020526040902090820190555b5060019998505050505050505050565b6000546001600160a01b031690565b60038054604080516020601f6002600019610100600188161502019095169490940493840181900481028201810190925282815260609390929091830182828015610f525780601f10610f2757610100808354040283529160200191610f52565b60006001600160a01b038316611d19576040805162461bcd60e51b815260206004820152601b60248201527f45524332303a207a65726f2061646472657373207370656e6465720000000000604482015290519081900360640190fd5b610f71611d2461254f565b8484612b93565b6000610f71611d3861254f565b8484612f52565b600080611d4a61254f565b9050611d58818888886127d7565b611d6a866001600160a01b03166130b9565b15611eba57634fc3585960e01b7bffffffffffffffffffffffffffffffffffffffffffffffffffffffff1916866001600160a01b0316634fc35859838a8989896040518663ffffffff1660e01b815260040180866001600160a01b03168152602001856001600160a01b03168152602001848152602001806020018281038252848482818152602001925080828437600081840152601f19601f8201169050808301925050509650505050505050602060405180830381600087803b158015611e3257600080fd5b505af1158015611e46573d6000803e3d6000fd5b505050506040513d6020811015611e5c57600080fd5b50516001600160e01b03191614611eba576040805162461bcd60e51b815260206004820152601760248201527f45524332303a207472616e736665722072656675736564000000000000000000604482015290519081900360640190fd5b5060019695505050505050565b611ed261136161254f565b848381148015611ee157508082145b611f32576040805162461bcd60e51b815260206004820152601a60248201527f5265636f763a20696e636f6e73697374656e7420617272617973000000000000604482015290519081900360640190fd5b60005b81811461191557858582818110611f4857fe5b905060200201356001600160a01b03166001600160a01b03166323b872dd308a8a85818110611f7357fe5b905060200201356001600160a01b0316878786818110611f8f57fe5b905060200201356040518463ffffffff1660e01b815260040180846001600160a01b03168152602001836001600160a01b031681526020018281526020019350505050600060405180830381600087803b158015611fec57600080fd5b505af1158015612000573d6000803e3d6000fd5b50505050806001019050611f35565b6008546001600160a01b031681565b7f000000000000000000000000000000000000000000000000000000000000000081565b61205261204d61254f565b6130bf565b60008282602081101561206457600080fd5b503590506120728482612991565b50505050565b6001600160a01b0387166120d3576040805162461bcd60e51b815260206004820152601960248201527f45524332303a207a65726f2061646472657373206f776e657200000000000000604482015290519081900360640190fd5b83421115612128576040805162461bcd60e51b815260206004820152601560248201527f45524332303a2065787069726564207065726d69740000000000000000000000604482015290519081900360640190fd5b6001600160a01b0380881660008181526001602081815260408084208054938401905580517f6e71edae12b1b97f4d1f60370fef10105fa2faae0126114a169c64845d6126c98184015280820195909552948b166060850152608084018a905260a084019190915260c08084018990528451808503909101815260e090930190935281519190920120906121ba61109b565b8260405160200180807f190100000000000000000000000000000000000000000000000000000000000081525060020183815260200182815260200192505050604051602081830303815290604052805190602001209050600060018287878760405160008152602001604052604051808581526020018460ff1681526020018381526020018281526020019450505050506020604051602081039080840390855afa15801561226e573d6000803e3d6000fd5b505050602060405103519050896001600160a01b0316816001600160a01b0316146122e0576040805162461bcd60e51b815260206004820152601560248201527f45524332303a20696e76616c6964207065726d69740000000000000000000000604482015290519081900360640190fd5b6122eb8a8a8a61255e565b50505050505050505050565b6001600160a01b03918216600090815260066020908152604080832093909416825291909152205490565b61232d61136161254f565b612339600483836136d3565b505050565b60008061234961254f565b9050612356818787612f52565b612368866001600160a01b03166130b9565b156124b857634fc3585960e01b7bffffffffffffffffffffffffffffffffffffffffffffffffffffffff1916866001600160a01b0316634fc3585983848989896040518663ffffffff1660e01b815260040180866001600160a01b03168152602001856001600160a01b03168152602001848152602001806020018281038252848482818152602001925080828437600081840152601f19601f8201169050808301925050509650505050505050602060405180830381600087803b15801561243057600080fd5b505af1158015612444573d6000803e3d6000fd5b505050506040513d602081101561245a57600080fd5b50516001600160e01b031916146124b8576040805162461bcd60e51b815260206004820152601760248201527f45524332303a207472616e736665722072656675736564000000000000000000604482015290519081900360640190fd5b50600195945050505050565b6124cf61136161254f565b600080547fffffffffffffffffffffffff0000000000000000000000000000000000000000166001600160a01b0383811691821780845560405192939116917f8be0079c531659141344cd1fd0a4f28419497f9722a3daafe3b4186f6b6457e09190a350565b600061254082613121565b80610ec35750610ec38261315f565b60006125596131ab565b905090565b6001600160a01b0382166125b9576040805162461bcd60e51b815260206004820152601b60248201527f45524332303a207a65726f2061646472657373207370656e6465720000000000604482015290519081900360640190fd5b6001600160a01b03808416600081815260066020908152604080832094871680845294825291829020859055815185815291517f8c5be1e5ebec7d5bd14f71427d1e84f3dd0314c0f7b2291e5b200ac8c7c3b9259281900390910190a3505050565b815181518114612672576040805162461bcd60e51b815260206004820152601a60248201527f45524332303a20696e636f6e73697374656e7420617272617973000000000000604482015290519081900360640190fd5b600061267c61254f565b90506000805b8381146127bf57600086828151811061269757fe5b6020026020010151905060008683815181106126af57fe5b6020026020010151905080600014612750576001600160a01b038216600090815260056020526040902054818103818110612731576040805162461bcd60e51b815260206004820152601b60248201527f45524332303a20696e73756666696369656e742062616c616e63650000000000604482015290519081900360640190fd5b6001600160a01b03841660009081526005602052604090205550928301925b6040805182815290516000916001600160a01b038516917fddf252ad1be2c89b69c2b068fc378daa952ba7f163c4a11628f55a4df523b3ef9181900360200190a3846001600160a01b0316826001600160a01b0316146127b5576127b5828683612b93565b5050600101612682565b5080156127d0576007805482900390555b5050505050565b6127e2838383612f52565b836001600160a01b0316836001600160a01b03161461207257612072838583612b93565b6128108282612ab4565b600061281a61254f565b9050806001600160a01b0316836001600160a01b03161461233957612339838284612b93565b8051602091820120604080517f8b73c3c69bb8fe3d512ecc4cf759cc79239f7b179b0ffacaa9a75d522b39400f81850152808201929092527fc89efdaa54c0f20c7adf612882df0950f5a951637e0307cdcb4c672f298b8bc6606083015260808201939093523060a0808301919091528351808303909101815260c0909101909252815191012090565b306001600160a01b0316638da5cb5b6040518163ffffffff1660e01b815260040160206040518083038186803b15801561290357600080fd5b505afa158015612917573d6000803e3d6000fd5b505050506040513d602081101561292d57600080fd5b50516001600160a01b0382811691161461298e576040805162461bcd60e51b815260206004820152601660248201527f4f776e61626c653a206e6f7420746865206f776e657200000000000000000000604482015290519081900360640190fd5b50565b6001600160a01b0382166129ec576040805162461bcd60e51b815260206004820152601360248201527f45524332303a207a65726f206164647265737300000000000000000000000000604482015290519081900360640190fd5b6007548115612a6e57808201818111612a4c576040805162461bcd60e51b815260206004820152601660248201527f45524332303a20737570706c79206f766572666c6f7700000000000000000000604482015290519081900360640190fd5b6007556001600160a01b03831660009081526005602052604090208054830190555b6040805183815290516001600160a01b038516916000917fddf252ad1be2c89b69c2b068fc378daa952ba7f163c4a11628f55a4df523b3ef9181900360200190a3505050565b8015612b4e576001600160a01b038216600090815260056020526040902054818103818110612b2a576040805162461bcd60e51b815260206004820152601b60248201527f45524332303a20696e73756666696369656e742062616c616e63650000000000604482015290519081900360640190fd5b6001600160a01b038416600090815260056020526040902055506007805482900390555b6040805182815290516000916001600160a01b038516917fddf252ad1be2c89b69c2b068fc378daa952ba7f163c4a11628f55a4df523b3ef9181900360200190a35050565b6001600160a01b038084166000908152600660209081526040808320938616835292905220546000198114801590612bca57508115155b15612c5157818103818110612c26576040805162461bcd60e51b815260206004820152601d60248201527f45524332303a20696e73756666696369656e7420616c6c6f77616e6365000000604482015290519081900360640190fd5b6001600160a01b03808616600090815260066020908152604080832093881683529290522081905590505b826001600160a01b0316846001600160a01b03167f8c5be1e5ebec7d5bd14f71427d1e84f3dd0314c0f7b2291e5b200ac8c7c3b925836040518082815260200191505060405180910390a350505050565b815181518114612cf9576040805162461bcd60e51b815260206004820152601a60248201527f45524332303a20696e636f6e73697374656e7420617272617973000000000000604482015290519081900360640190fd5b6000805b828114612e67576000858281518110612d1257fe5b6020026020010151905060006001600160a01b0316816001600160a01b03161415612d84576040805162461bcd60e51b815260206004820152601360248201527f45524332303a207a65726f206164647265737300000000000000000000000000604482015290519081900360640190fd5b6000858381518110612d9257fe5b6020026020010151905080600014612e1c57838101848111612dfb576040805162461bcd60e51b815260206004820152601660248201527f45524332303a2076616c756573206f766572666c6f7700000000000000000000604482015290519081900360640190fd5b6001600160a01b038316600090815260056020526040902080548301905593505b6040805182815290516001600160a01b038416916000917fddf252ad1be2c89b69c2b068fc378daa952ba7f163c4a11628f55a4df523b3ef9181900360200190a35050600101612cfd565b50801561207257600754818101818111612ec8576040805162461bcd60e51b815260206004820152601660248201527f45524332303a20737570706c79206f766572666c6f7700000000000000000000604482015290519081900360640190fd5b6007555050505050565b604080516001600160a01b038416602482015260448082018490528251808303909101815260649091019091526020810180517bffffffffffffffffffffffffffffffffffffffffffffffffffffffff167fa9059cbb0000000000000000000000000000000000000000000000000000000017905261233990849061330b565b6001600160a01b038216612fad576040805162461bcd60e51b815260206004820152601660248201527f45524332303a20746f207a65726f206164647265737300000000000000000000604482015290519081900360640190fd5b8015613069576001600160a01b038316600090815260056020526040902054818103818110613023576040805162461bcd60e51b815260206004820152601b60248201527f45524332303a20696e73756666696369656e742062616c616e63650000000000604482015290519081900360640190fd5b836001600160a01b0316856001600160a01b031614613066576001600160a01b038086166000908152600560205260408082208490559186168152208054840190555b50505b816001600160a01b0316836001600160a01b03167fddf252ad1be2c89b69c2b068fc378daa952ba7f163c4a11628f55a4df523b3ef836040518082815260200191505060405180910390a3505050565b3b151590565b6008546001600160a01b0382811691161461298e576040805162461bcd60e51b815260206004820152601a60248201527f4368696c6445524332303a206f6e6c79206465706f7369746f72000000000000604482015290519081900360640190fd5b60006001600160e01b031982167f20c07ed1000000000000000000000000000000000000000000000000000000001480610ec35750610ec38261350c565b60006001600160e01b031982167f01ffc9a7000000000000000000000000000000000000000000000000000000001480610ec35750506001600160e01b031916634fc3585960e01b1490565b600033816131b76136a9565b90507f00000000000000000000000000000000000000000000000000000000000000006001600160a01b0316826001600160a01b0316148061322a57507f00000000000000000000000000000000000000000000000000000000000000006001600160a01b0316826001600160a01b0316145b15613238579150610f5a9050565b6001600160a01b03821632148015906132f757507f00000000000000000000000000000000000000000000000000000000000000006001600160a01b031663e60125d682846040518363ffffffff1660e01b815260040180836001600160a01b03168152602001826001600160a01b031681526020019250505060206040518083038186803b1580156132ca57600080fd5b505afa1580156132de573d6000803e3d6000fd5b505050506040513d60208110156132f457600080fd5b50515b15613305579150610f5a9050565b50905090565b8161331e6001600160a01b0382166130b9565b61336f576040805162461bcd60e51b815260206004820152601a60248201527f4552433230577261707065723a206e6f6e2d636f6e7472616374000000000000604482015290519081900360640190fd5b600080826001600160a01b0316846040518082805190602001908083835b602083106133ca57805182527fffffffffffffffffffffffffffffffffffffffffffffffffffffffffffffffe0909201916020918201910161338d565b6001836020036101000a0380198251168184511680821785525050505050509050019150506000604051808303816000865af19150503d806000811461342c576040519150601f19603f3d011682016040523d82523d6000602084013e613431565b606091505b509150915081156134b0578051156134ab5780806020019051602081101561345857600080fd5b50516134ab576040805162461bcd60e51b815260206004820152601e60248201527f4552433230577261707065723a206f7065726174696f6e206661696c65640000604482015290519081900360640190fd5b6127d0565b8051613503576040805162461bcd60e51b815260206004820152601e60248201527f4552433230577261707065723a206f7065726174696f6e206661696c65640000604482015290519081900360640190fd5b80518082602001fd5b60006001600160e01b031982167f01ffc9a700000000000000000000000000000000000000000000000000000000148061356f57506001600160e01b031982167f36372b0700000000000000000000000000000000000000000000000000000000145b806135a357506001600160e01b031982167fa219a02500000000000000000000000000000000000000000000000000000000145b806135d757506001600160e01b031982167f3c130d9000000000000000000000000000000000000000000000000000000000145b8061360b57506001600160e01b031982167f9d07518600000000000000000000000000000000000000000000000000000000145b8061363f57506001600160e01b031982167fc05327e600000000000000000000000000000000000000000000000000000000145b8061367357506001600160e01b031982167f53f41a9700000000000000000000000000000000000000000000000000000000145b80610ec35750506001600160e01b0319167f9d8ff7da000000000000000000000000000000000000000000000000000000001490565b7fffffffffffffffffffffffffffffffffffffffffffffffffffffffffffffffec36013560601c90565b828054600181600116156101000203166002900490600052602060002090601f016020900481019282613709576000855561376d565b82601f10613740578280017fffffffffffffffffffffffffffffffffffffffffffffffffffffffffffffff0082351617855561376d565b8280016001018555821561376d579182015b8281111561376d578235825591602001919060010190613752565b5061377992915061377d565b5090565b5b80821115613779576000815560010161377e56fea26469706673582212207ce69366c298bb9003974f151ca12a347199e9b1082548d6813c19657b7a474064736f6c63430007060033",
  "linkReferences": {},
  "deployedLinkReferences": {}
}