{
  "_format": "hh-sol-artifact-1",
  "contractName": "ChildERC20BurnableMock",
  "sourceName": "contracts/mocks/token/ERC20/ChildERC20BurnableMock.sol",
  "abi": [
    {
      "inputs": [
        {
          "internalType": "address[]",
          "name": "recipients",
          "type": "address[]"
        },
        {
          "internalType": "uint256[]",
          "name": "values",
          "type": "uint256[]"
        },
        {
          "internalType": "address",
          "name": "childChainManager",
          "type": "address"
        },
        {
          "internalType": "contract IForwarderRegistry",
          "name": "forwarderRegistry",
          "type": "address"
        },
        {
          "internalType": "address",
          "name": "universalForwarder",
          "type": "address"
        }
      ],
      "stateMutability": "nonpayable",
      "type": "constructor"
    },
    {
      "anonymous": false,
      "inputs": [
        {
          "indexed": true,
          "internalType": "address",
          "name": "_owner",
          "type": "address"
        },
        {
          "indexed": true,
          "internalType": "address",
          "name": "_spender",
          "type": "address"
        },
        {
          "indexed": false,
          "internalType": "uint256",
          "name": "_value",
          "type": "uint256"
        }
      ],
      "name": "Approval",
      "type": "event"
    },
    {
      "anonymous": false,
      "inputs": [
        {
          "indexed": true,
          "internalType": "address",
          "name": "previousOwner",
          "type": "address"
        },
        {
          "indexed": true,
          "internalType": "address",
          "name": "newOwner",
          "type": "address"
        }
      ],
      "name": "OwnershipTransferred",
      "type": "event"
    },
    {
      "anonymous": false,
      "inputs": [
        {
          "indexed": true,
          "internalType": "address",
          "name": "_from",
          "type": "address"
        },
        {
          "indexed": true,
          "internalType": "address",
          "name": "_to",
          "type": "address"
        },
        {
          "indexed": false,
          "internalType": "uint256",
          "name": "_value",
          "type": "uint256"
        }
      ],
      "name": "Transfer",
      "type": "event"
    },
    {
      "anonymous": false,
      "inputs": [
        {
          "indexed": false,
          "internalType": "address",
          "name": "account",
          "type": "address"
        },
        {
          "indexed": false,
          "internalType": "uint256",
          "name": "value",
          "type": "uint256"
        }
      ],
      "name": "Withdrawn",
      "type": "event"
    },
    {
      "inputs": [],
      "name": "DOMAIN_SEPARATOR",
      "outputs": [
        {
          "internalType": "bytes32",
          "name": "",
          "type": "bytes32"
        }
      ],
      "stateMutability": "view",
      "type": "function"
    },
    {
      "inputs": [
        {
          "internalType": "address",
          "name": "owner",
          "type": "address"
        },
        {
          "internalType": "address",
          "name": "spender",
          "type": "address"
        }
      ],
      "name": "allowance",
      "outputs": [
        {
          "internalType": "uint256",
          "name": "",
          "type": "uint256"
        }
      ],
      "stateMutability": "view",
      "type": "function"
    },
    {
      "inputs": [
        {
          "internalType": "address",
          "name": "spender",
          "type": "address"
        },
        {
          "internalType": "uint256",
          "name": "value",
          "type": "uint256"
        }
      ],
      "name": "approve",
      "outputs": [
        {
          "internalType": "bool",
          "name": "",
          "type": "bool"
        }
      ],
      "stateMutability": "nonpayable",
      "type": "function"
    },
    {
      "inputs": [
        {
          "internalType": "address",
          "name": "account",
          "type": "address"
        }
      ],
      "name": "balanceOf",
      "outputs": [
        {
          "internalType": "uint256",
          "name": "",
          "type": "uint256"
        }
      ],
      "stateMutability": "view",
      "type": "function"
    },
    {
      "inputs": [
        {
          "internalType": "address[]",
          "name": "owners",
          "type": "address[]"
        },
        {
          "internalType": "uint256[]",
          "name": "values",
          "type": "uint256[]"
        }
      ],
      "name": "batchBurnFrom",
      "outputs": [
        {
          "internalType": "bool",
          "name": "",
          "type": "bool"
        }
      ],
      "stateMutability": "nonpayable",
      "type": "function"
    },
    {
      "inputs": [
        {
          "internalType": "address[]",
          "name": "recipients",
          "type": "address[]"
        },
        {
          "internalType": "uint256[]",
          "name": "values",
          "type": "uint256[]"
        }
      ],
      "name": "batchMint",
      "outputs": [],
      "stateMutability": "nonpayable",
      "type": "function"
    },
    {
      "inputs": [
        {
          "internalType": "address[]",
          "name": "recipients",
          "type": "address[]"
        },
        {
          "internalType": "uint256[]",
          "name": "values",
          "type": "uint256[]"
        }
      ],
      "name": "batchTransfer",
      "outputs": [
        {
          "internalType": "bool",
          "name": "",
          "type": "bool"
        }
      ],
      "stateMutability": "nonpayable",
      "type": "function"
    },
    {
      "inputs": [
        {
          "internalType": "address",
          "name": "from",
          "type": "address"
        },
        {
          "internalType": "address[]",
          "name": "recipients",
          "type": "address[]"
        },
        {
          "internalType": "uint256[]",
          "name": "values",
          "type": "uint256[]"
        }
      ],
      "name": "batchTransferFrom",
      "outputs": [
        {
          "internalType": "bool",
          "name": "",
          "type": "bool"
        }
      ],
      "stateMutability": "nonpayable",
      "type": "function"
    },
    {
      "inputs": [
        {
          "internalType": "uint256",
          "name": "amount",
          "type": "uint256"
        }
      ],
      "name": "burn",
      "outputs": [
        {
          "internalType": "bool",
          "name": "",
          "type": "bool"
        }
      ],
      "stateMutability": "nonpayable",
      "type": "function"
    },
    {
      "inputs": [
        {
          "internalType": "address",
          "name": "from",
          "type": "address"
        },
        {
          "internalType": "uint256",
          "name": "value",
          "type": "uint256"
        }
      ],
      "name": "burnFrom",
      "outputs": [
        {
          "internalType": "bool",
          "name": "",
          "type": "bool"
        }
      ],
      "stateMutability": "nonpayable",
      "type": "function"
    },
    {
      "inputs": [
        {
          "internalType": "bytes32",
          "name": "c__0x1c8f23b3",
          "type": "bytes32"
        }
      ],
      "name": "c_0x1c8f23b3",
      "outputs": [],
      "stateMutability": "pure",
      "type": "function"
    },
    {
      "inputs": [
        {
          "internalType": "bytes32",
          "name": "c__0x32377826",
          "type": "bytes32"
        }
      ],
      "name": "c_0x32377826",
      "outputs": [],
      "stateMutability": "pure",
      "type": "function"
    },
    {
      "inputs": [
        {
          "internalType": "bytes32",
          "name": "c__0x73b7530f",
          "type": "bytes32"
        }
      ],
      "name": "c_0x73b7530f",
      "outputs": [],
      "stateMutability": "pure",
      "type": "function"
    },
    {
      "inputs": [
        {
          "internalType": "bytes32",
          "name": "c__0x89dc1cc3",
          "type": "bytes32"
        }
      ],
      "name": "c_0x89dc1cc3",
      "outputs": [],
      "stateMutability": "pure",
      "type": "function"
    },
    {
      "inputs": [
        {
          "internalType": "bytes32",
          "name": "c__0xa2319191",
          "type": "bytes32"
        }
      ],
      "name": "c_0xa2319191",
      "outputs": [],
      "stateMutability": "pure",
      "type": "function"
    },
    {
      "inputs": [
        {
          "internalType": "bytes32",
          "name": "c__0xd53fc4e9",
          "type": "bytes32"
        }
      ],
      "name": "c_0xd53fc4e9",
      "outputs": [],
      "stateMutability": "pure",
      "type": "function"
    },
    {
      "inputs": [],
      "name": "childChainManager",
      "outputs": [
        {
          "internalType": "address",
          "name": "",
          "type": "address"
        }
      ],
      "stateMutability": "view",
      "type": "function"
    },
    {
      "inputs": [],
      "name": "decimals",
      "outputs": [
        {
          "internalType": "uint8",
          "name": "",
          "type": "uint8"
        }
      ],
      "stateMutability": "view",
      "type": "function"
    },
    {
      "inputs": [
        {
          "internalType": "address",
          "name": "spender",
          "type": "address"
        },
        {
          "internalType": "uint256",
          "name": "subtractedValue",
          "type": "uint256"
        }
      ],
      "name": "decreaseAllowance",
      "outputs": [
        {
          "internalType": "bool",
          "name": "",
          "type": "bool"
        }
      ],
      "stateMutability": "nonpayable",
      "type": "function"
    },
    {
      "inputs": [],
      "name": "deploymentChainId",
      "outputs": [
        {
          "internalType": "uint256",
          "name": "",
          "type": "uint256"
        }
      ],
      "stateMutability": "view",
      "type": "function"
    },
    {
      "inputs": [
        {
          "internalType": "address",
          "name": "user",
          "type": "address"
        },
        {
          "internalType": "bytes",
          "name": "depositData",
          "type": "bytes"
        }
      ],
      "name": "deposit",
      "outputs": [],
      "stateMutability": "nonpayable",
      "type": "function"
    },
    {
      "inputs": [
        {
          "internalType": "address",
          "name": "spender",
          "type": "address"
        },
        {
          "internalType": "uint256",
          "name": "addedValue",
          "type": "uint256"
        }
      ],
      "name": "increaseAllowance",
      "outputs": [
        {
          "internalType": "bool",
          "name": "",
          "type": "bool"
        }
      ],
      "stateMutability": "nonpayable",
      "type": "function"
    },
    {
      "inputs": [
        {
          "internalType": "address",
          "name": "forwarder",
          "type": "address"
        }
      ],
      "name": "isTrustedForwarder",
      "outputs": [
        {
          "internalType": "bool",
          "name": "",
          "type": "bool"
        }
      ],
      "stateMutability": "view",
      "type": "function"
    },
    {
      "inputs": [
        {
          "internalType": "address",
          "name": "to",
          "type": "address"
        },
        {
          "internalType": "uint256",
          "name": "value",
          "type": "uint256"
        }
      ],
      "name": "mint",
      "outputs": [],
      "stateMutability": "nonpayable",
      "type": "function"
    },
    {
      "inputs": [],
      "name": "name",
      "outputs": [
        {
          "internalType": "string",
          "name": "",
          "type": "string"
        }
      ],
      "stateMutability": "view",
      "type": "function"
    },
    {
      "inputs": [
        {
          "internalType": "address",
          "name": "",
          "type": "address"
        }
      ],
      "name": "nonces",
      "outputs": [
        {
          "internalType": "uint256",
          "name": "",
          "type": "uint256"
        }
      ],
      "stateMutability": "view",
      "type": "function"
    },
    {
      "inputs": [
        {
          "internalType": "address",
          "name": "",
          "type": "address"
        },
        {
          "internalType": "address",
          "name": "from",
          "type": "address"
        },
        {
          "internalType": "uint256",
          "name": "amount",
          "type": "uint256"
        },
        {
          "internalType": "bytes",
          "name": "",
          "type": "bytes"
        }
      ],
      "name": "onERC20Received",
      "outputs": [
        {
          "internalType": "bytes4",
          "name": "",
          "type": "bytes4"
        }
      ],
      "stateMutability": "nonpayable",
      "type": "function"
    },
    {
      "inputs": [],
      "name": "owner",
      "outputs": [
        {
          "internalType": "address",
          "name": "",
          "type": "address"
        }
      ],
      "stateMutability": "view",
      "type": "function"
    },
    {
      "inputs": [
        {
          "internalType": "address",
          "name": "owner",
          "type": "address"
        },
        {
          "internalType": "address",
          "name": "spender",
          "type": "address"
        },
        {
          "internalType": "uint256",
          "name": "value",
          "type": "uint256"
        },
        {
          "internalType": "uint256",
          "name": "deadline",
          "type": "uint256"
        },
        {
          "internalType": "uint8",
          "name": "v",
          "type": "uint8"
        },
        {
          "internalType": "bytes32",
          "name": "r",
          "type": "bytes32"
        },
        {
          "internalType": "bytes32",
          "name": "s",
          "type": "bytes32"
        }
      ],
      "name": "permit",
      "outputs": [],
      "stateMutability": "nonpayable",
      "type": "function"
    },
    {
      "inputs": [
        {
          "internalType": "address[]",
          "name": "accounts",
          "type": "address[]"
        },
        {
          "internalType": "address[]",
          "name": "tokens",
          "type": "address[]"
        },
        {
          "internalType": "uint256[]",
          "name": "amounts",
          "type": "uint256[]"
        }
      ],
      "name": "recoverERC20s",
      "outputs": [],
      "stateMutability": "nonpayable",
      "type": "function"
    },
    {
      "inputs": [
        {
          "internalType": "address[]",
          "name": "accounts",
          "type": "address[]"
        },
        {
          "internalType": "address[]",
          "name": "contracts",
          "type": "address[]"
        },
        {
          "internalType": "uint256[]",
          "name": "tokenIds",
          "type": "uint256[]"
        }
      ],
      "name": "recoverERC721s",
      "outputs": [],
      "stateMutability": "nonpayable",
      "type": "function"
    },
    {
      "inputs": [
        {
          "internalType": "address",
          "name": "to",
          "type": "address"
        },
        {
          "internalType": "uint256",
          "name": "amount",
          "type": "uint256"
        },
        {
          "internalType": "bytes",
          "name": "data",
          "type": "bytes"
        }
      ],
      "name": "safeTransfer",
      "outputs": [
        {
          "internalType": "bool",
          "name": "",
          "type": "bool"
        }
      ],
      "stateMutability": "nonpayable",
      "type": "function"
    },
    {
      "inputs": [
        {
          "internalType": "address",
          "name": "from",
          "type": "address"
        },
        {
          "internalType": "address",
          "name": "to",
          "type": "address"
        },
        {
          "internalType": "uint256",
          "name": "amount",
          "type": "uint256"
        },
        {
          "internalType": "bytes",
          "name": "data",
          "type": "bytes"
        }
      ],
      "name": "safeTransferFrom",
      "outputs": [
        {
          "internalType": "bool",
          "name": "",
          "type": "bool"
        }
      ],
      "stateMutability": "nonpayable",
      "type": "function"
    },
    {
      "inputs": [
        {
          "internalType": "string",
          "name": "tokenURI_",
          "type": "string"
        }
      ],
      "name": "setTokenURI",
      "outputs": [],
      "stateMutability": "nonpayable",
      "type": "function"
    },
    {
      "inputs": [
        {
          "internalType": "bytes4",
          "name": "interfaceId",
          "type": "bytes4"
        }
      ],
      "name": "supportsInterface",
      "outputs": [
        {
          "internalType": "bool",
          "name": "",
          "type": "bool"
        }
      ],
      "stateMutability": "view",
      "type": "function"
    },
    {
      "inputs": [],
      "name": "symbol",
      "outputs": [
        {
          "internalType": "string",
          "name": "",
          "type": "string"
        }
      ],
      "stateMutability": "view",
      "type": "function"
    },
    {
      "inputs": [],
      "name": "tokenURI",
      "outputs": [
        {
          "internalType": "string",
          "name": "",
          "type": "string"
        }
      ],
      "stateMutability": "view",
      "type": "function"
    },
    {
      "inputs": [],
      "name": "totalSupply",
      "outputs": [
        {
          "internalType": "uint256",
          "name": "",
          "type": "uint256"
        }
      ],
      "stateMutability": "view",
      "type": "function"
    },
    {
      "inputs": [
        {
          "internalType": "address",
          "name": "to",
          "type": "address"
        },
        {
          "internalType": "uint256",
          "name": "value",
          "type": "uint256"
        }
      ],
      "name": "transfer",
      "outputs": [
        {
          "internalType": "bool",
          "name": "",
          "type": "bool"
        }
      ],
      "stateMutability": "nonpayable",
      "type": "function"
    },
    {
      "inputs": [
        {
          "internalType": "address",
          "name": "from",
          "type": "address"
        },
        {
          "internalType": "address",
          "name": "to",
          "type": "address"
        },
        {
          "internalType": "uint256",
          "name": "value",
          "type": "uint256"
        }
      ],
      "name": "transferFrom",
      "outputs": [
        {
          "internalType": "bool",
          "name": "",
          "type": "bool"
        }
      ],
      "stateMutability": "nonpayable",
      "type": "function"
    },
    {
      "inputs": [
        {
          "internalType": "address",
          "name": "newOwner",
          "type": "address"
        }
      ],
      "name": "transferOwnership",
      "outputs": [],
      "stateMutability": "nonpayable",
      "type": "function"
    },
    {
      "inputs": [
        {
          "internalType": "uint256",
          "name": "amount",
          "type": "uint256"
        }
      ],
      "name": "withdraw",
      "outputs": [],
      "stateMutability": "nonpayable",
      "type": "function"
    }
  ],
  "bytecode": "0x6101206040523480156200001257600080fd5b506040516200cf363803806200cf36833981810160405260a08110156200003857600080fd5b81019080805160405193929190846401000000008211156200005957600080fd5b838201915060208201858111156200007057600080fd5b82518660208202830111640100000000821117156200008e57600080fd5b8083526020830192505050908051906020019060200280838360005b83811015620000c7578082015181840152602081019050620000aa565b5050505090500160405260200180516040519392919084640100000000821115620000f157600080fd5b838201915060208201858111156200010857600080fd5b82518660208202830111640100000000821117156200012657600080fd5b8083526020830192505050908051906020019060200280838360005b838110156200015f57808201518184015260208101905062000142565b505050509050016040526020018051906020019092919080519060200190929190805190602001909291905050506040518060400160405280601081526020017f4368696c64204552433230204d6f636b000000000000000000000000000000008152506040518060400160405280600481526020017f434532300000000000000000000000000000000000000000000000000000000081525060126040518060400160405280600381526020017f7572690000000000000000000000000000000000000000000000000000000000815250868085858585838383838f8f33806000806101000a81548173ffffffffffffffffffffffffffffffffffffffff021916908373ffffffffffffffffffffffffffffffffffffffff1602179055508073ffffffffffffffffffffffffffffffffffffffff16600073ffffffffffffffffffffffffffffffffffffffff167f8be0079c531659141344cd1fd0a4f28419497f9722a3daafe3b4186f6b6457e060405160405180910390a3508073ffffffffffffffffffffffffffffffffffffffff1660a08173ffffffffffffffffffffffffffffffffffffffff1660601b815250508173ffffffffffffffffffffffffffffffffffffffff1660808173ffffffffffffffffffffffffffffffffffffffff1660601b8152505050506200037e7f6ad64343884fef283ac34d6b1734cff4bc6f4f87f42cf63b984e2a37f57a9b4160001b6200091a60201b60201c565b620003b27f5ab64a98b6bb162ac95f22ecfce6c4a762871f2f94a4e46cafcfb63de7f7195060001b6200091a60201b60201c565b620003e67fec43397a470c0671e0b7fac3bfcc1762098ce930abc003ca08b1924e850543a260001b6200091a60201b60201c565b8360029080519060200190620003fe929190620017bd565b50620004337f13d5affcf7f67b74a51ae94812af388249439386aca1cd8253860ae3dbc16e4160001b6200091a60201b60201c565b620004677f2935c352dde457385c783cd1274a2861e935b970f2cb412a3bf02f5b3317990a60001b6200091a60201b60201c565b82600390805190602001906200047f929190620017bd565b50620004b47feb675418522e18b15e4d8dafb7d8aa1ab245dadc5fe83302a362bf772ff975e060001b6200091a60201b60201c565b620004e87f2d79b48921561dde782983b13663b13a677a35e5e214aa5243900a419887c12960001b6200091a60201b60201c565b8160ff166101008160ff1660f81b815250506200052e7f464e8df06c49787199adc93ba7bffa2394de1f616c5e46782d4e4f3a02b6181060001b6200091a60201b60201c565b620005627f465d064048076173b224887e1864edb17bfcf100967f287c9fbb7115ebf0967360001b6200091a60201b60201c565b80600490805190602001906200057a929190620017bd565b50620005af7f4dd7832ae7891666e3a52738b7409dfb97e3e1f02f800ac7d6ef0cf6be949d7360001b6200091a60201b60201c565b620005e37fa1dd4b4253faee9cb2fdf6b1c8e45cb42c6ab36fca98455f48fc8ecabde5257360001b6200091a60201b60201c565b6000620006197fa571706ffd4f9e0cdd5c3cc9160aed25836a50a0f225dc6fe60a479d1d36448a60001b6200091a60201b60201c565b469050620006507f149c9fab1f1fd65fdefcd3d7810703b550a55bb975ca3270d403bab703a975db60001b6200091a60201b60201c565b620006847f0a2a2819eda73d30ec16fa15840c934f89e2d18d23a782a14a406882ac3266ea60001b6200091a60201b60201c565b8060c08181525050620006c07fca576539af85dc7613b0eba6a2a9e6f576e4c499b4b74e1aa976909a414c911d60001b6200091a60201b60201c565b620006f47f46719f5fd6d3f50958bb25d576f7e4463c162d05b1b6ba84dffa64908c5e7d2a60001b6200091a60201b60201c565b6200070681866200091d60201b60201c565b60e081815250505050505050620007467f25a616b0b3903c17b7616c078a3eadc31e8e6308b3574e8731c700f28939390b60001b62000a6760201b60201c565b505050506200077e7f1804f65f99f4bbf534515235bd8a5d67b1424267a8bb2a5cd7b0d5eea0cf17f360001b62000a6a60201b60201c565b620007b27f57b4722b17cac4fdcdb265bc949d6df542098c2ca000466aa84b9b49a5da1e3960001b62000a6a60201b60201c565b620007e67fdc1324b11390263b9563817ead2634212f80ffad5ba08ca33be1dd1834ee0c5860001b62000a6a60201b60201c565b80600860006101000a81548173ffffffffffffffffffffffffffffffffffffffff021916908373ffffffffffffffffffffffffffffffffffffffff160217905550506200085c7fd8ab09ab31575eb8600925f22f701b22de406e4abb0bca7a3f3f8994ede566ad60001b62000a6d60201b60201c565b5050505050620008957f8e50549af19fc47e5cc8afd816308c08d943ee036a2e9c396316ffe84bdcce7f60001b62000a7060201b60201c565b620008c97fe3a4a46d06475856ae604e431bfe4bf87cdfbf1e07f8c516fdccec2a1fadd5f560001b62000a7060201b60201c565b620008fd7fabe5a991287426cd0712427779f802c9e1742ae3ace26fd03eda584e4887382160001b62000a7060201b60201c565b6200090f858562000a7360201b60201c565b505050505062001873565b50565b6000620009537f944c756d5d5f2a243e454b45fc9555d5da7652dd4606d195dc34efbf761fdf8560001b6200091a60201b60201c565b620009877faa08908f9f4beadbac7e4c7f998a0acfcbb4350d736ee7e36f1579fae9bd064760001b6200091a60201b60201c565b620009bb7fd732a1b4cb4603fac188410fc428b31ff987007b8863a01a3eed940aaf97080460001b6200091a60201b60201c565b7f8b73c3c69bb8fe3d512ecc4cf759cc79239f7b179b0ffacaa9a75d522b39400f82805190602001207fc89efdaa54c0f20c7adf612882df0950f5a951637e0307cdcb4c672f298b8bc68530604051602001808681526020018581526020018481526020018381526020018273ffffffffffffffffffffffffffffffffffffffff1681526020019550505050505060405160208183030381529060405280519060200120905092915050565b50565b50565b50565b50565b62000aa77f20fc3a3025e46ba68506603cf55a8ab7589421dc8cc9acd80bdc1e6ae81f05c460001b6200091a60201b60201c565b62000adb7fba9abe6a98cdc1f94ba4e225b482fd128eb20d7d06898ce3fcfc5f502d9d1b0860001b6200091a60201b60201c565b62000b0f7f3ba48f63ffe8b5ccfb3d0838ad68ca5a11190b8c7f2a437b94073bebc146687c60001b6200091a60201b60201c565b60008251905062000b497fcffebafbf9e4663757c3f9bd87018bcf88449b7964c7f65690af35a583373be960001b6200091a60201b60201c565b62000b7d7f536085bfab79c3adf33b0b3d83d9783b283121e3905692cb791e7cdb4e9307a260001b6200091a60201b60201c565b62000bb17f28a09ac6290879af2293f0fbcebda75f1387155822a9e3d43f7d7227943b292960001b6200091a60201b60201c565b8151811462000c28576040517f08c379a000000000000000000000000000000000000000000000000000000000815260040180806020018281038252601a8152602001807f45524332303a20696e636f6e73697374656e742061727261797300000000000081525060200191505060405180910390fd5b62000c5c7f4f30f646ddddb494189e6910f6792e9e86625ce13475948614bd943ef381721560001b6200091a60201b60201c565b62000c907fd8ef06c94df637ec3f9113c7a73da0f5f512d8f8fd38f37902fe6be519cff0ab60001b6200091a60201b60201c565b62000cc47f80d539030dd34f2eb0d37883a4ecfe160d66aae6c9626aad2973cd90572ca22160001b6200091a60201b60201c565b600062000cfa7f1b3654878968e204d754e0a487961a65282ab1dce5a0526be95c49f0b2756b4f60001b6200091a60201b60201c565b62000d2e7fddd11b869e300f1c3a8c38881b13af11f9349d9483da72e8db7d9b21d9379a5460001b6200091a60201b60201c565b60005b828114620014415762000d6d7f554ae65dece2c41c56ba42dd945a857d5ce2ad3847acb3f531b5ec48aaefa2e660001b6200091a60201b60201c565b62000da17f248219498dcb66ef28903989e639a6de2182f75180726d5bcd0fbd3778731fdf60001b6200091a60201b60201c565b600085828151811062000db057fe5b6020026020010151905062000dee7f32c034bd3455704f3783113d545a7ab7dbe141c0501bc8bd361c5ce7d5957f5a60001b6200091a60201b60201c565b62000e227f08a2e445ee1d9bf21680de1ec5c4c2cc4bafbe808661464ed3897c1539dcf3c860001b6200091a60201b60201c565b62000e567fe7750c41b5b900f1393ad6711460fd1bb15fae5128017093d43fc2dec50449ff60001b6200091a60201b60201c565b600073ffffffffffffffffffffffffffffffffffffffff168173ffffffffffffffffffffffffffffffffffffffff16141562000efa576040517f08c379a00000000000000000000000000000000000000000000000000000000081526004018080602001828103825260138152602001807f45524332303a207a65726f20616464726573730000000000000000000000000081525060200191505060405180910390fd5b62000f2e7fd1ab9a79035ce45704c7580e6d0a24e156e52d6245a0928d24b3a00dd9f1a8ff60001b6200091a60201b60201c565b62000f627f3421be204182a90b101c1d4be8b936b071e75bffbbbc91fc85bab45aa6e3192660001b6200091a60201b60201c565b62000f967f59e6a4d533dce51cf4484487e0b92903d0780a5377b28a65f49f84e6658c83ae60001b6200091a60201b60201c565b600085838151811062000fa557fe5b6020026020010151905062000fe37fc2c40173c340c7fa464da1bb0224fd8d05c1d3e8231a6c7df88ee9096808bcd360001b6200091a60201b60201c565b620010177fbbe8dea263cea70d1629ed86c54e6475a6bde4fc7a2e475664247cb68f97326560001b6200091a60201b60201c565b600081146200133057620010547f918047cdef3cbeae26152c625941fe68f100821b3d592678f8fc073d17ac1bba60001b6200091a60201b60201c565b620010887fad2185a253d17741595df38ff3aa658d6f512195ec20834724c455b43a17844860001b6200091a60201b60201c565b620010bc7faafc7c9fab73064c7f704e57ab8a392c8d68581d5956073c5c1a19608f95a12860001b6200091a60201b60201c565b60008185019050620010f77f7fb926d15eb74ada58463bb7b8465664548a47d7dedc379af5ac974dcc974f1660001b6200091a60201b60201c565b6200112b7f65b39fea598a03fb39e80c488a4f4b2039c9332952aceb58211351459b6796f560001b6200091a60201b60201c565b6200115f7fbe9a7c48aadf276ca12582a73255f836be03e56d19d1431ea228f7c8cc8dc90660001b6200091a60201b60201c565b848111620011d5576040517f08c379a00000000000000000000000000000000000000000000000000000000081526004018080602001828103825260168152602001807f45524332303a2076616c756573206f766572666c6f770000000000000000000081525060200191505060405180910390fd5b620012097f4eada8eb3370e0ffab5b6480c9f708ff38f9f7d5e9ce173fc491bc174fbcabab60001b6200091a60201b60201c565b6200123d7fcc9df20e360e0c354d314f6c355a7d77f27351b25843d3a363d282afdc6688b160001b6200091a60201b60201c565b620012717fc738a37396cb337512ad461fbba31a6d7edd4803389b35cad465b3143ac6a99c60001b6200091a60201b60201c565b809450620012a87f5a1570ab7171545ced0efed1dcd550e352ae069952e06fa0c8031a7ee055cc0b60001b6200091a60201b60201c565b620012dc7ff5706860fcd71ae977a4419e8637de134112a93b9e8e6ea0232f43fca41935dd60001b6200091a60201b60201c565b81600560008573ffffffffffffffffffffffffffffffffffffffff1673ffffffffffffffffffffffffffffffffffffffff168152602001908152602001600020600082825401925050819055505062001365565b620013647fe46f076c769a75777f187475ecebc8fde86e2263520863db7d61261ba876d47360001b6200091a60201b60201c565b5b620013997f57bd54e293dcbc8aaa34547ffd71546e2054d69a2652ebb36c08ee6951fdf28660001b6200091a60201b60201c565b620013cd7f291fb6e70d34689648ea6276e18abccbe359700acac4e46d2dfa59fb680947e660001b6200091a60201b60201c565b8173ffffffffffffffffffffffffffffffffffffffff16600073ffffffffffffffffffffffffffffffffffffffff167fddf252ad1be2c89b69c2b068fc378daa952ba7f163c4a11628f55a4df523b3ef836040518082815260200191505060405180910390a3505080600101905062000d31565b50620014767fa3192109964a953eddcded1124c212145fdfc6191b449e292afeec0c6724bd9c60001b6200091a60201b60201c565b620014aa7fe3a3c92252356f4da6b5a5856b6ff25f8912015c3e64a498716da6cefe3f985e60001b6200091a60201b60201c565b600081146200178257620014e77fb4a3a3630c0c9767f60c5c1c80db2cf3410300342ce9836e8884d31d5b94b95060001b6200091a60201b60201c565b6200151b7fd554ec3cb88eb40c74c6daba4a5c78c2deb776e0224a69d15f7ff4ba7db3e30160001b6200091a60201b60201c565b6200154f7fc4c4b7fccd54e59915f5bbc138504538f30e4478f364df05e33da7049d6d63ea60001b6200091a60201b60201c565b600060075490506200158a7fabac5bdfda460ff7318f2f227a8e332fae4d305960f530c989e339c6164c375e60001b6200091a60201b60201c565b620015be7fc31f9794bfc938e6743f55edafa3bfc4803ae39f0872e8a6610b484fba95cb3a60001b6200091a60201b60201c565b60008282019050620015f97f9b5b5e0770170c858dd9a83af0a8caf5a29bff4120ec57930939f9660e94797360001b6200091a60201b60201c565b6200162d7f513ef81a9b5da7e778533e59a53984765117fe9028a88b0d605772b90bcbd84f60001b6200091a60201b60201c565b620016617f3105da534cf8b8cc1d35308d92775b113eff17c2459205aa8eb5998313ef17de60001b6200091a60201b60201c565b818111620016d7576040517f08c379a00000000000000000000000000000000000000000000000000000000081526004018080602001828103825260168152602001807f45524332303a20737570706c79206f766572666c6f770000000000000000000081525060200191505060405180910390fd5b6200170b7fb1db0c6c18210b5bd4dac396c547d7e9b4b77f74bffca52402ca421f94bc233160001b6200091a60201b60201c565b6200173f7f94cd230bf64d3d479ecba3ff2381c227c58cab061fa582c21118a27b4ef0074460001b6200091a60201b60201c565b620017737f8ac8cf9bf4101a974552ce734d9d12bd2ec82a8c628b0cf73c77197054a93e9960001b6200091a60201b60201c565b806007819055505050620017b7565b620017b67f534874bb5c95905b6710526d9e5b9bbf9bf55c670ea3b24c7f154f0bd264d54d60001b6200091a60201b60201c565b5b50505050565b828054600181600116156101000203166002900490600052602060002090601f016020900481019282620017f5576000855562001841565b82601f106200181057805160ff191683800117855562001841565b8280016001018555821562001841579182015b828111156200184057825182559160200191906001019062001823565b5b50905062001850919062001854565b5090565b5b808211156200186f57600081600090555060010162001855565b5090565b60805160601c60a05160601c60c05160e0516101005160f81c61b666620018d060003980611e9e5250806120a3525080611fd35280615f75525080613f89528061ad9e525080613fde528061ad49528061ae34525061b6666000f3fe608060405234801561001057600080fd5b50600436106102de5760003560e01c806379cc679011610186578063c3666c36116100e3578063dd62ed3e11610097578063f2fde38b11610071578063f2fde38b146115b5578063f367151f146115f9578063fece510e14611627576102de565b8063dd62ed3e1461140b578063e0df5b6f14611483578063eb795549146114fc576102de565b8063cd0d0096116100c8578063cd0d0096146112bb578063cf2c52cb146112d9578063d505accf14611372576102de565b8063c3666c3614611164578063c8291d8414611287576102de565b806395d89b411161013a578063a9059cbb1161011f578063a9059cbb14610ff9578063b88d4fde1461105d578063bbec9e3b14611136576102de565b806395d89b4114610f12578063a457c2d714610f95576102de565b806388d695b21161016b57806388d695b214610dcc5780638da5cb5b14610eb0578063932a446214610ee4576102de565b806379cc679014610d105780637ecebe0014610d74576102de565b80633c130d901161023f5780634fc35859116101f357806368573107116101cd5780636857310714610a4957806370a0823114610b9557806373c8a95814610bed576102de565b80634fc35859146108cb578063572b6c05146109c157806360c5ddc514610a1b576102de565b806342966c681161022457806342966c68146107555780634885b254146107995780634dc890cb1461089d576102de565b80633c130d901461068457806340c10f1914610707576102de565b806323b872dd11610296578063313ce5671161027b578063313ce567146105e15780633644e515146106025780633950935114610620576102de565b806323b872dd1461052f5780632e1a7d4d146105b3576102de565b8063095ea7b3116102c7578063095ea7b3146103c957806318160ddd1461042d5780631b9a75291461044b576102de565b806301ffc9a7146102e357806306fdde0314610346575b600080fd5b61032e600480360360208110156102f957600080fd5b8101908080357bffffffffffffffffffffffffffffffffffffffffffffffffffffffff19169060200190929190505050611655565b60405180821515815260200191505060405180910390f35b61034e611753565b6040518080602001828103825283818151815260200191508051906020019080838360005b8381101561038e578082015181840152602081019050610373565b50505050905090810190601f1680156103bb5780820380516001836020036101000a031916815260200191505b509250505060405180910390f35b610415600480360360408110156103df57600080fd5b81019080803573ffffffffffffffffffffffffffffffffffffffff16906020019092919080359060200190929190505050611879565b60405180821515815260200191505060405180910390f35b610435611973565b6040518082815260200191505060405180910390f35b6105176004803603604081101561046157600080fd5b810190808035906020019064010000000081111561047e57600080fd5b82018360208201111561049057600080fd5b803590602001918460208302840111640100000000831117156104b257600080fd5b9091929391929390803590602001906401000000008111156104d357600080fd5b8201836020820111156104e557600080fd5b8035906020019184602083028401116401000000008311171561050757600080fd5b9091929391929390505050611a01565b60405180821515815260200191505060405180910390f35b61059b6004803603606081101561054557600080fd5b81019080803573ffffffffffffffffffffffffffffffffffffffff169060200190929190803573ffffffffffffffffffffffffffffffffffffffff16906020019092919080359060200190929190505050611b77565b60405180821515815260200191505060405180910390f35b6105df600480360360208110156105c957600080fd5b8101908080359060200190929190505050611c73565b005b6105e9611e16565b604051808260ff16815260200191505060405180910390f35b61060a611ec2565b6040518082815260200191505060405180910390f35b61066c6004803603604081101561063657600080fd5b81019080803573ffffffffffffffffffffffffffffffffffffffff169060200190929190803590602001909291905050506120c9565b60405180821515815260200191505060405180910390f35b61068c61281f565b6040518080602001828103825283818151815260200191508051906020019080838360005b838110156106cc5780820151818401526020810190506106b1565b50505050905090810190601f1680156106f95780820380516001836020036101000a031916815260200191505b509250505060405180910390f35b6107536004803603604081101561071d57600080fd5b81019080803573ffffffffffffffffffffffffffffffffffffffff16906020019092919080359060200190929190505050612945565b005b6107816004803603602081101561076b57600080fd5b8101908080359060200190929190505050612a3f565b60405180821515815260200191505060405180910390f35b610885600480360360608110156107af57600080fd5b81019080803573ffffffffffffffffffffffffffffffffffffffff169060200190929190803590602001906401000000008111156107ec57600080fd5b8201836020820111156107fe57600080fd5b8035906020019184602083028401116401000000008311171561082057600080fd5b90919293919293908035906020019064010000000081111561084157600080fd5b82018360208201111561085357600080fd5b8035906020019184602083028401116401000000008311171561087557600080fd5b9091929391929390505050612b37565b60405180821515815260200191505060405180910390f35b6108c9600480360360208110156108b357600080fd5b8101908080359060200190929190505050613c69565b005b61098c600480360360808110156108e157600080fd5b81019080803573ffffffffffffffffffffffffffffffffffffffff169060200190929190803573ffffffffffffffffffffffffffffffffffffffff169060200190929190803590602001909291908035906020019064010000000081111561094857600080fd5b82018360208201111561095a57600080fd5b8035906020019184600183028401116401000000008311171561097c57600080fd5b9091929391929390505050613c6c565b60405180827bffffffffffffffffffffffffffffffffffffffffffffffffffffffff1916815260200191505060405180910390f35b610a03600480360360208110156109d757600080fd5b81019080803573ffffffffffffffffffffffffffffffffffffffff169060200190929190505050613f85565b60405180821515815260200191505060405180910390f35b610a4760048036036020811015610a3157600080fd5b8101908080359060200190929190505050614033565b005b610b9360048036036040811015610a5f57600080fd5b8101908080359060200190640100000000811115610a7c57600080fd5b820183602082011115610a8e57600080fd5b80359060200191846020830284011164010000000083111715610ab057600080fd5b919080806020026020016040519081016040528093929190818152602001838360200280828437600081840152601f19601f82011690508083019250505050505050919291929080359060200190640100000000811115610b1057600080fd5b820183602082011115610b2257600080fd5b80359060200191846020830284011164010000000083111715610b4457600080fd5b919080806020026020016040519081016040528093929190818152602001838360200280828437600081840152601f19601f820116905080830192505050505050509192919290505050614036565b005b610bd760048036036020811015610bab57600080fd5b81019080803573ffffffffffffffffffffffffffffffffffffffff169060200190929190505050614130565b6040518082815260200191505060405180910390f35b610d0e60048036036060811015610c0357600080fd5b8101908080359060200190640100000000811115610c2057600080fd5b820183602082011115610c3257600080fd5b80359060200191846020830284011164010000000083111715610c5457600080fd5b909192939192939080359060200190640100000000811115610c7557600080fd5b820183602082011115610c8757600080fd5b80359060200191846020830284011164010000000083111715610ca957600080fd5b909192939192939080359060200190640100000000811115610cca57600080fd5b820183602082011115610cdc57600080fd5b80359060200191846020830284011164010000000083111715610cfe57600080fd5b90919293919293905050506141fd565b005b610d5c60048036036040811015610d2657600080fd5b81019080803573ffffffffffffffffffffffffffffffffffffffff16906020019092919080359060200190929190505050614347565b60405180821515815260200191505060405180910390f35b610db660048036036020811015610d8a57600080fd5b81019080803573ffffffffffffffffffffffffffffffffffffffff169060200190929190505050614439565b6040518082815260200191505060405180910390f35b610e9860048036036040811015610de257600080fd5b8101908080359060200190640100000000811115610dff57600080fd5b820183602082011115610e1157600080fd5b80359060200191846020830284011164010000000083111715610e3357600080fd5b909192939192939080359060200190640100000000811115610e5457600080fd5b820183602082011115610e6657600080fd5b80359060200191846020830284011164010000000083111715610e8857600080fd5b9091929391929390505050614451565b60405180821515815260200191505060405180910390f35b610eb8615435565b604051808273ffffffffffffffffffffffffffffffffffffffff16815260200191505060405180910390f35b610f1060048036036020811015610efa57600080fd5b810190808035906020019092919050505061545e565b005b610f1a615461565b6040518080602001828103825283818151815260200191508051906020019080838360005b83811015610f5a578082015181840152602081019050610f3f565b50505050905090810190601f168015610f875780820380516001836020036101000a031916815260200191505b509250505060405180910390f35b610fe160048036036040811015610fab57600080fd5b81019080803573ffffffffffffffffffffffffffffffffffffffff16906020019092919080359060200190929190505050615587565b60405180821515815260200191505060405180910390f35b6110456004803603604081101561100f57600080fd5b81019080803573ffffffffffffffffffffffffffffffffffffffff169060200190929190803590602001909291905050506157d4565b60405180821515815260200191505060405180910390f35b61111e6004803603608081101561107357600080fd5b81019080803573ffffffffffffffffffffffffffffffffffffffff169060200190929190803573ffffffffffffffffffffffffffffffffffffffff16906020019092919080359060200190929190803590602001906401000000008111156110da57600080fd5b8201836020820111156110ec57600080fd5b8035906020019184600183028401116401000000008311171561110e57600080fd5b90919293919293905050506158ce565b60405180821515815260200191505060405180910390f35b6111626004803603602081101561114c57600080fd5b8101908080359060200190929190505050615d84565b005b6112856004803603606081101561117a57600080fd5b810190808035906020019064010000000081111561119757600080fd5b8201836020820111156111a957600080fd5b803590602001918460208302840111640100000000831117156111cb57600080fd5b9091929391929390803590602001906401000000008111156111ec57600080fd5b8201836020820111156111fe57600080fd5b8035906020019184602083028401116401000000008311171561122057600080fd5b90919293919293908035906020019064010000000081111561124157600080fd5b82018360208201111561125357600080fd5b8035906020019184602083028401116401000000008311171561127557600080fd5b9091929391929390505050615d87565b005b61128f615f4d565b604051808273ffffffffffffffffffffffffffffffffffffffff16815260200191505060405180910390f35b6112c3615f73565b6040518082815260200191505060405180910390f35b611370600480360360408110156112ef57600080fd5b81019080803573ffffffffffffffffffffffffffffffffffffffff1690602001909291908035906020019064010000000081111561132c57600080fd5b82018360208201111561133e57600080fd5b8035906020019184600183028401116401000000008311171561136057600080fd5b9091929391929390505050615f97565b005b611409600480360360e081101561138857600080fd5b81019080803573ffffffffffffffffffffffffffffffffffffffff169060200190929190803573ffffffffffffffffffffffffffffffffffffffff1690602001909291908035906020019092919080359060200190929190803560ff1690602001909291908035906020019092919080359060200190929190505050616110565b005b61146d6004803603604081101561142157600080fd5b81019080803573ffffffffffffffffffffffffffffffffffffffff169060200190929190803573ffffffffffffffffffffffffffffffffffffffff169060200190929190505050616836565b6040518082815260200191505060405180910390f35b6114fa6004803603602081101561149957600080fd5b81019080803590602001906401000000008111156114b657600080fd5b8201836020820111156114c857600080fd5b803590602001918460018302840111640100000000831117156114ea57600080fd5b9091929391929390505050616941565b005b61159d6004803603606081101561151257600080fd5b81019080803573ffffffffffffffffffffffffffffffffffffffff169060200190929190803590602001909291908035906020019064010000000081111561155957600080fd5b82018360208201111561156b57600080fd5b8035906020019184600183028401116401000000008311171561158d57600080fd5b9091929391929390505050616a43565b60405180821515815260200191505060405180910390f35b6115f7600480360360208110156115cb57600080fd5b81019080803573ffffffffffffffffffffffffffffffffffffffff169060200190929190505050616ef6565b005b6116256004803603602081101561160f57600080fd5b8101908080359060200190929190505050616fc3565b005b6116536004803603602081101561163d57600080fd5b8101908080359060200190929190505050616fc6565b005b60006116837f77e8dd8a6f5c0a2145edfc967365e665b7584be7d9d3bb5d29aee5cb8cf62f8460001b616fc6565b6116af7f1fbd93419c6528be033c56af0b623352e5c4b5058e5b9370d3720fe0f21d290c60001b616fc6565b6116db7f21be25f871a47ac31724943c8b45e7495aa3fa7748bfdc9f2b4da5e73a590ba860001b616fc6565b7f28963e1e000000000000000000000000000000000000000000000000000000007bffffffffffffffffffffffffffffffffffffffffffffffffffffffff1916827bffffffffffffffffffffffffffffffffffffffffffffffffffffffff1916148061174c575061174b82616fc9565b5b9050919050565b60606117817f9af501d6d74813bd9f79398a17aecb103c67aece07ebc7cab488824d1c6a656060001b615d84565b6117ad7fad0282687166db44805fe8b6c7fbf35a02a5657b2d832bcb0d6bc994c337849560001b615d84565b6117d97fb4d6ab28b8ffd17016eabf0661ce941bb1c1403bec4015cd8ab2295eb0d49c6560001b615d84565b60028054600181600116156101000203166002900480601f01602080910402602001604051908101604052809291908181526020018280546001816001161561010002031660029004801561186f5780601f106118445761010080835404028352916020019161186f565b820191906000526020600020905b81548152906001019060200180831161185257829003601f168201915b5050505050905090565b60006118a77f416ca2263b848c273beecb4cac95a621c3a493f874591ad2e9102d37f94d9bc960001b615d84565b6118d37f2e61f98a6bafd678978dd9d20b4bdfb12614f9257a12d5f127195a5ec080e6bd60001b615d84565b6118ff7f05fac10b8952945a1a6026734e5f02f6fe73846d818777f4e78cfd98d4b5770960001b615d84565b61191161190a61706e565b8484617101565b61193d7f1090a74941accb22b66efcab366428c4aa31de916843881a11ec4ff44597d97f60001b615d84565b6119697f8529a3a63f5e075bf3e78ba80e65680b26c4e5bf6cb3a0abc2f87cf5638833c260001b615d84565b6001905092915050565b60006119a17f38e8822c91e7b97bbac640257102111d03cdcd47279ed59b0c0445325568f18460001b615d84565b6119cd7fd54605552e9b8dc61e8f4681f7c08c56807ba4535ddec10a6aefea7d82e6e22260001b615d84565b6119f97fad45d939aa3eee42689667b83325239240892864752a60ffaf7f7e4857ef890860001b615d84565b600754905090565b6000611a2f7f718b2d68b158cfb570912f4c9fbda98e12331e98f767c52d5793919b8ff756c060001b614033565b611a5b7fd3c64676948078cb9cccfdf0999b99752f47e5edd67ed7ea168c896c26e8abe560001b614033565b611a877f691fee095a0aca80a5f255ef0d7c13544f37abebdf8e780712c517301abdf7f160001b614033565b611b13858580806020026020016040519081016040528093929190818152602001838360200280828437600081840152601f19601f82011690508083019250505050505050848480806020026020016040519081016040528093929190818152602001838360200280828437600081840152601f19601f8201169050808301925050505050505061741b565b611b3f7f0391d36ca45fd3b6e61252b5d0d60cc4e14c07390b136c76c6c53155a7f92ac560001b614033565b611b6b7fe72b86989f8b963d8c48ee03421fbe31f9167873d464a1b430d32af298eaf15260001b614033565b60019050949350505050565b6000611ba57f1e4c59443df9e15ddb635ceff882437608f2bfa756d2f7aa243d69e4c3bab2ec60001b615d84565b611bd17ffb6be6d8ac005e71c0d30ff398c4992f70059d450daaeb9d06b4210ea843c84560001b615d84565b611bfd7f7db64aae479b761306c7bf17270dbb947b9a356a896b0b4fdb72c0bfc7e3701360001b615d84565b611c10611c0861706e565b858585617ee9565b611c3c7fd9eb9bfaefb98420eca1628b804aad582669d82b40289e34ab7abd1418f02e6d60001b615d84565b611c687f5265a06f2e0113d3558fc137b597c251795aadd4c5c30b60c8a4e96afed97a0360001b615d84565b600190509392505050565b611c9f7f736a2b7b6fcb6d28698fb7ad3da224289a9eef80c28ac827bedb3ec698b4e77660001b61545e565b611ccb7fdb3e78a9f69e0b9b3004a2ad7680735b2bd4a5ae881d7485408c439ee25f723c60001b61545e565b611cf77fafbc725a59a68dcb5daddef743da341b79600ddba40d2461edd7148c4765367f60001b61545e565b6000611d0161706e565b9050611d2f7f0c93752c1e2b10da5532819b0f18b8d0f046fd6befecd23c621776e5e9151c5d60001b61545e565b611d5b7f6d5c30f0e5ad5d0b9d7ff7c92ed7c5dcda59f6790c36dc9db4d56c7480005bef60001b61545e565b611d6581836180ca565b611d917f68d5e4c4cacefc8ea85c7e83b3122d56e62b03393de4d8f6b9bbb5ef11f016cf60001b61545e565b611dbd7f327dea244357d3fc342120987fc5ff7d043de0de9bfa76842896eabb309b3b1560001b61545e565b7f7084f5476618d8e60b11ef0d7d3f06914655adb8793e28ff7f018d4c76d505d58183604051808373ffffffffffffffffffffffffffffffffffffffff1681526020018281526020019250505060405180910390a15050565b6000611e447fc65841c71884691441c3127eed0b8644569c343fec4fb76f0283e14cd09e9da460001b615d84565b611e707f46fad09e76c75decdef2670290f33660e75fdf80dac1c67098dc9551887eb62860001b615d84565b611e9c7fa08f19c71e317ecc65b1ec2de043e1842dd6b65d8c64f106ef2a339397e908ea60001b615d84565b7f0000000000000000000000000000000000000000000000000000000000000000905090565b6000611ef07f250bcea77d914629c8b79ef7a49b6d8bba27d4be8eb11510244f65951c8e217d60001b615d84565b611f1c7f7b16575ebd991aab6a1f923b0ddaccfe3a803d1eba81f2b290b80436f573618260001b615d84565b611f487f128dbc4f472e27b6a1905c04a0150e2aebb2b17ab8d9d44d43db07d239a4de6a60001b615d84565b6000611f767fb2bb0ed281ce5262b8314983a7e98d55744c39fb866dccd84332271b1e4333e760001b615d84565b469050611fa57ff990457abdb54f6a213854599efd48e26232e584581826435202209d73af0b8660001b615d84565b611fd17f44a953d01a79bcf485b3aac43dc36cdb7484fbe60f0f93cf152c3e24f1b3d3c260001b615d84565b7f000000000000000000000000000000000000000000000000000000000000000081146120a15761209c8160028054600181600116156101000203166002900480601f0160208091040260200160405190810160405280929190818152602001828054600181600116156101000203166002900480156120925780601f1061206757610100808354040283529160200191612092565b820191906000526020600020905b81548152906001019060200180831161207557829003601f168201915b505050505061830d565b6120c3565b7f00000000000000000000000000000000000000000000000000000000000000005b91505090565b60006120f77f1c17b6bc380b91a8b0a5be56981c5d3ad847f669846cfe35ac92d1da29a3e72d60001b615d84565b6121237fecd83eb0201c01b38cc1eb4a3030e3fa18904b283df26c8aaeda5e34ffa3b7e860001b615d84565b61214f7f3e2a6d85bc31a78ba09a5872bbaa2c3fbf9ea9207aef452eb0dba5bf2cb8e15c60001b615d84565b61217b7fad147017f57b2f601ff91c2886206b1a0e637771fceed11e937cd97784fecd8660001b615d84565b600073ffffffffffffffffffffffffffffffffffffffff168373ffffffffffffffffffffffffffffffffffffffff16141561221e576040517f08c379a000000000000000000000000000000000000000000000000000000000815260040180806020018281038252601b8152602001807f45524332303a207a65726f2061646472657373207370656e646572000000000081525060200191505060405180910390fd5b61224a7f7ee9071f6e5bb201500c87c7633521d55b9a25753a5cced19360d496497d480060001b615d84565b6122767f871983adea94cffff02b16ea8edb977bed6598e234ffeb2ef7f9f8baf0869d2a60001b615d84565b6122a27f7564ed50660cc4fd3776f0e55ef474b52e5f9ea0bb5dd9b6fbeba9c731e4230160001b615d84565b60006122ac61706e565b90506122da7f35fe309d469157be57e793c616637854dc0cadba3c302c95badb4ea9f69d625860001b615d84565b6123067f8699fd1714315f26f0b0910233b21ab5ad4b4d14da90c39e301642208349d33d60001b615d84565b6000600660008373ffffffffffffffffffffffffffffffffffffffff1673ffffffffffffffffffffffffffffffffffffffff16815260200190815260200160002060008673ffffffffffffffffffffffffffffffffffffffff1673ffffffffffffffffffffffffffffffffffffffff1681526020019081526020016000205490506123b37ff18ad36a832d090b00491871537d37995f3020ad933c3fa3a8f5c40db5d9462360001b615d84565b6123df7f0989a22f78a0cccf3e9d5626cc0375a99a2df36335f721e22772662a1fe11ebd60001b615d84565b600084146126d1576124137fd3e7b2111d39934c964fb0af24a209e781810c16f528206c03b143cedd5690e560001b615d84565b61243f7fc6ca77780a4affac2640810d1133538d503dac21076cf0808557093c19dbc81e60001b615d84565b61246b7f80675552ed196645eeff9f3b7f66c678ae872217e2a4a757fdd846ce0af3286360001b615d84565b6000848201905061249e7fdcebe991d9a22eb9579c9549a4eeb6e104e430a75141310da1337994382fea4c60001b615d84565b6124ca7fb21f28e76acfaccfd806c3927140fb98655a1402ddd8579ea85979ad3161f4eb60001b615d84565b6124f67f274e8f4708f39243762af49e0ba297aec40457579612de43acc41f2046f07a9060001b615d84565b81811161256b576040517f08c379a00000000000000000000000000000000000000000000000000000000081526004018080602001828103825260198152602001807f45524332303a20616c6c6f77616e6365206f766572666c6f770000000000000081525060200191505060405180910390fd5b6125977f3963dc5676bfd7cc3c6e7e5ae6774b2df6a76d99d9575956e32113b1fe4d160560001b615d84565b6125c37f8e46572da8fa846a41015a93059488c0faa4eeacd0a0b52b3cc096d187abfecd60001b615d84565b6125ef7f6b13179d8ccdc19d3c36620d378622f383a34944a5e62dc3d84445dd96041de160001b615d84565b80600660008573ffffffffffffffffffffffffffffffffffffffff1673ffffffffffffffffffffffffffffffffffffffff16815260200190815260200160002060008873ffffffffffffffffffffffffffffffffffffffff1673ffffffffffffffffffffffffffffffffffffffff1681526020019081526020016000208190555061269c7f2dcf1e6acbc19d4d3fcfce809f61ead832acaa989663682c88da80d91154588960001b615d84565b6126c87fff24410fb6ddd95a336f81792d3a5e7c2b367d3911ee584fdf273539d0cb751760001b615d84565b809150506126fe565b6126fd7f2c1eeb6d6b895b8aa081a910edc069f0319d873661ea4b0d596873875604769b60001b615d84565b5b61272a7f72181b23a4e67be39a74415773a17cb38595560180e0a62c29a9ebc5c755287260001b615d84565b6127567fb9521cdd1137115b690683fe3aa6e9fde984094da1bb3ac663904c8b4fc4348f60001b615d84565b8473ffffffffffffffffffffffffffffffffffffffff168273ffffffffffffffffffffffffffffffffffffffff167f8c5be1e5ebec7d5bd14f71427d1e84f3dd0314c0f7b2291e5b200ac8c7c3b925836040518082815260200191505060405180910390a36127e77f59637bb3f4c8efdfa631c0054039986c8f10600ab52ee539152f9644cf72446f60001b615d84565b6128137f9b7480db72a22df7455d7f82a75163d49aa674e4c9ad766312639635de90fe1560001b615d84565b60019250505092915050565b606061284d7fd8c7f8cdffc297b5d9975d5eca30b9105005902e80d051c40350ad9a3ac4d5cb60001b615d84565b6128797fcfbe76c106a8a513fe41155f4c15cb665e294c62a622c12625f504cae218798760001b615d84565b6128a57fca42029069cbe00ed4b524f583bc5ba883cbe455aaeed0d0ea7e0aea55028cd260001b615d84565b60048054600181600116156101000203166002900480601f01602080910402602001604051908101604052809291908181526020018280546001816001161561010002031660029004801561293b5780601f106129105761010080835404028352916020019161293b565b820191906000526020600020905b81548152906001019060200180831161291e57829003601f168201915b5050505050905090565b6129717f71e00768419dbfba13462b308205facb60307949700c354202dc2437d3ae728e60001b616fc6565b61299d7f02cc0af248a0809335bb3a04fc9df5e87492e3a9b992fe6e82f90064c06511cf60001b616fc6565b6129c97f03e906d3047fc672e742b2253177c210a568591e596ad592729493a629e35d9260001b616fc6565b6129d96129d461706e565b61843f565b612a057f690038c525bf35f8350622f2e6c0071a40d854f63675bcb2cea81fcaaf73b00f60001b616fc6565b612a317fec2be05aacec01cc1adefe11476d47ed7fa63c204990ebbde29e2da5b01c7e2460001b616fc6565b612a3b8282618563565b5050565b6000612a6d7f0f9c1d7fb7e408a5362b1a330a117ac8dc0305479c74d8bc76aaad5e783678d760001b614033565b612a997f5246ae95498c42cea199c0f9bb2d9c2e8c41bc7af5c0aae8d533e2d13e69dddf60001b614033565b612ac57f529dd84b3cd8630e047a11b7f9fb412d249c875e1c7a4879f38c3da37440a12760001b614033565b612ad6612ad061706e565b83618b4a565b612b027f4140eabafae64b51df0ad6dc6a7751204f0bde5a51fcfe0d9a9c1fc5cd062b9a60001b614033565b612b2e7fb1d8041fe0a88a459ae753c9158b3516b04dfb1a9c394df2c3146bc082dd0bef60001b614033565b60019050919050565b6000612b657ff7200401a38bc896178e927b509d0d01a5a79aa966a1a728d7af1317440c128160001b615d84565b612b917ff490f61ce2888b63740cca17bcaa2c8163a33b9a963516eacda42d4bae4f75f060001b615d84565b612bbd7f7ecff817ed22c5aa2826514a3020f076abb759fee85a5bc8d350787f4ba90aa660001b615d84565b6000858590509050612bf17fa4682a38512b45eec0aaa3f684ce6e993d9b4c1d179da8f7e66acfeb8de9309e60001b615d84565b612c1d7f3c3fc48ce16f4083668937c8af329b8c140747f0f096cf36cc5ff6a3c9bfbca260001b615d84565b612c497f7498d4c989c9b99b6431c402a345f440563e886eb9600606f534b89578d4c6fc60001b615d84565b838390508114612cc1576040517f08c379a000000000000000000000000000000000000000000000000000000000815260040180806020018281038252601a8152602001807f45524332303a20696e636f6e73697374656e742061727261797300000000000081525060200191505060405180910390fd5b612ced7f82f9bf4b0e8832647d160b642928efbd2118a2c4d304b5e05fddc84c29b2ed8f60001b615d84565b612d197f32d6f53f929aec23b53821debd370b1b4641a2f6c046a9370179d9fb717558d460001b615d84565b612d457f5f417b4bb8db4439fd26b1bde956dc5fff1abfe3453e1dec589603bd3b282a8360001b615d84565b6000600560008973ffffffffffffffffffffffffffffffffffffffff1673ffffffffffffffffffffffffffffffffffffffff168152602001908152602001600020549050612db57f2a0f118d0cfbacd01ec89fb819c0d3e33091e03c5873a1ce0d385bf9c2383d4360001b615d84565b612de17ff17762718f058334d922b91ff67fb41305fd6aaa8d2c414ff277eb7b82008c7360001b615d84565b6000612e0f7fa5b50e9323ecc522970204f4cf108f1a4bbb5e1021718efebae51eb8feabe6b560001b615d84565b612e3b7fcdcd1f789e44168e230362a103cabc9d49296de06aebd92287bfd7cd463b3e1760001b615d84565b6000612e697fd805496487dadf280742ffe23d91ebdd790dfb3707e769ef448252e516e975d660001b615d84565b612e957f940abc35a6d171adfa8d549f11538a18dcd436372bfd6475847b70bd577534ce60001b615d84565b60005b84811461375f57612ecb7f1a7c810ca0ab34ea6330994e787f12b4898bee1717ec0267695b82c1ac0c6de360001b615d84565b612ef77f8e727726f002a39c2bcc873841e9ea4b6ada33a503e3a4bb15dde8a2a3d50a3260001b615d84565b60008a8a83818110612f0557fe5b9050602002013573ffffffffffffffffffffffffffffffffffffffff169050612f507f435f7721b70efa895c39623e4ab027a2ee3a43e4d4bd4061b726da9fa8a4241760001b615d84565b612f7c7f14de14d7e5a268394d29f92863328caa2b14e3682f0117245c31b4982e35c69260001b615d84565b612fa87fb8f81449c93381caafec318d1b1f7494b20fe7443a62fd8af447adeb13590e4b60001b615d84565b600073ffffffffffffffffffffffffffffffffffffffff168173ffffffffffffffffffffffffffffffffffffffff16141561304b576040517f08c379a00000000000000000000000000000000000000000000000000000000081526004018080602001828103825260168152602001807f45524332303a20746f207a65726f20616464726573730000000000000000000081525060200191505060405180910390fd5b6130777f3f9375e82c97ea5856a8abadeb3647dca50c4282d8975dca6a236bf8f989398960001b615d84565b6130a37f7a3540b77d5587fe408e07d34d7e4282bcc19c0d0e466510d19811da7eb0dcfc60001b615d84565b6130cf7f800f514a754d8c914d689965d16c4750c692efefdedd0dfdb212c32ee4345b7a60001b615d84565b60008989848181106130dd57fe5b9050602002013590506131127fc1c378871c9089c5da3defc6f49dfc9b815631f5d7087b5ee364ebb7ff81332660001b615d84565b61313e7f2c236f6ca84a2d906c4e582e92e8792f1446f39baae1ae347baba91291b389be60001b615d84565b60008114613668576131727f6a129e6a9016103040bf2f58ff6d15068c4a494007c8692f80cf42f285c688cb60001b615d84565b61319e7ffd50badf5699fa7608223621c8e37629b75f870748b588416c5f4ff63c0b6a1c60001b615d84565b6131ca7f279e209f2aaa0d7feb412eb5e7983918e028bfe2552e86be8bc2942727afd05860001b615d84565b600081860190506131fd7f7d0895a6c80d34ae02930d1d3a1eff0bc9850d3cfcd3c0978317abc520c8f50960001b615d84565b6132297f0e3b216b12eb9f112389626cc24c58a6dc27ebb7fb9e62a8509a6998ef52a55160001b615d84565b6132557fa7f80aef8f2ed551c17f8328de0c229ba9bc6f615bc02b1a09b7da19889edf6460001b615d84565b8581116132ca576040517f08c379a00000000000000000000000000000000000000000000000000000000081526004018080602001828103825260168152602001807f45524332303a2076616c756573206f766572666c6f770000000000000000000081525060200191505060405180910390fd5b6132f67fa5b9c872a43f02fc3f13e588b47164147bba66a426da75ed779de22d1053b52960001b615d84565b6133227f400985eebeb001b96f28ec85026e381522b0318ee4145a2a14a11b9940a6607960001b615d84565b61334e7f86aed583fd3ad101bfafceca2eebd874d12af74800747cc5686c0cb94932e35c60001b615d84565b80955061337d7fcd6778cb5a6e8d84db9e71028ed4f6e586042a34d226decb8c78828dbed55b8760001b615d84565b6133a97f16dfb3031186a338288fdc313debc65df83dfc42716879514fb9c4ee4230695660001b615d84565b8273ffffffffffffffffffffffffffffffffffffffff168e73ffffffffffffffffffffffffffffffffffffffff16146134b2576134087f25750e2e45411bbdda5986305a1fade06f8e5530e6c57403f994811045ab4b5260001b615d84565b6134347f6ab138354575fae9931f3ce437fec2f229f2834ca63231346df2b68cd7cb6cad60001b615d84565b6134607fdbd1fdcbec02f893d069b8f1ab6deb085241564ca611d12b5fb9ec51302655fe60001b615d84565b81600560008573ffffffffffffffffffffffffffffffffffffffff1673ffffffffffffffffffffffffffffffffffffffff16815260200190815260200160002060008282540192505081905550613662565b6134de7fd7cb6ac457603b19c0a1f43ca682c745ea31d2bdbf35bdfef06b2f0e2462a97560001b615d84565b61350a7f4d92374a10808d46d6aab1eb0cda72c1d78e1b3dfda564e2b27f02dd8690d40d60001b615d84565b6135367f811747dce95ebd8b6ec70dcdb0a6066831e1605f6fe52716942eccb63b1d5c6f60001b615d84565b6135627f6726754803fa98b216ab3c3bf06e2353c1a6f1832bf530973a65cb06f07847f460001b615d84565b868211156135d8576040517f08c379a000000000000000000000000000000000000000000000000000000000815260040180806020018281038252601b8152602001807f45524332303a20696e73756666696369656e742062616c616e6365000000000081525060200191505060405180910390fd5b6136047fc90a639f0f7e611c64b36c36ba114fbfde66e3a3aa641bdadca64837570f632460001b615d84565b6136307f41c233d7191224232af4b55eb79bef7d6c83284f6c4042c319ce22ba13ddaf3460001b615d84565b61365c7f69f09bafc9e6acfe03a94509a3081fb878c7d3456fd68d3e8d898e8300efa6f660001b615d84565b81850194505b50613695565b6136947f95705870fe7adbe8730a32d571c56f0f8feb761ad95f1022b0e15705440d0a0860001b615d84565b5b6136c17f3e76ef852d5633e83cb723acc90c7ff7ccf47de942d9144990a60328a31f47b260001b615d84565b6136ed7f8152b42f4aec0f9406deda351c04719c0de8a2f527bfeae0b9c829de609d767960001b615d84565b8173ffffffffffffffffffffffffffffffffffffffff168d73ffffffffffffffffffffffffffffffffffffffff167fddf252ad1be2c89b69c2b068fc378daa952ba7f163c4a11628f55a4df523b3ef836040518082815260200191505060405180910390a35050806001019050612e98565b5061378c7feae0d342d086df9f4888d7d01ccb45c3be2b5bf413f7b67cbee6b1c7f1d87f4e60001b615d84565b6137b87f1cbdce65df74bd3d4266b49335f6e815a483e6cb8c909910a594ad66e2cc529460001b615d84565b600082141580156137c95750808214155b15613a22576137fa7f335dfe2c7bab6f2e8625e98d02b131a7e8117a30ab7dfd0fe01b20afe43d1d5560001b615d84565b6138267fa4cc473d71edb8579a283d2848095a2e3cdfd5b47c4cdea6087d641e8d218a3560001b615d84565b6138527f18bc253f51c1cd3ddc73e6d8387209d615295a67473d864de8cdfb4f0f6c3e2560001b615d84565b600082840390506138857fa1fa8375a950207f517ff4eecccaa5428058b59eff41998605cc45558caaab8760001b615d84565b6138b17f086610c4a534650bf27b59d17a3059d278e1eff055a5ef78f253b5427733639160001b615d84565b6138dd7f5034048a813ad8ff6df92f2aca9759c080251e0ce5c8e8a8752402d93188a37c60001b615d84565b838110613952576040517f08c379a000000000000000000000000000000000000000000000000000000000815260040180806020018281038252601b8152602001807f45524332303a20696e73756666696369656e742062616c616e6365000000000081525060200191505060405180910390fd5b61397e7f7b68f181e286f36970fdb749fdb675fcde7f58e75ff2486270e84f839434714160001b615d84565b6139aa7f64f4d251116a850c888c8472adbe932e6f98e856444f0762339afbab8930f10560001b615d84565b6139d67f80abb3c17c2c289be3aa988385f52e70e7f8d7e249040bada572e912c9b67c8c60001b615d84565b818101600560008d73ffffffffffffffffffffffffffffffffffffffff1673ffffffffffffffffffffffffffffffffffffffff1681526020019081526020016000208190555050613a4f565b613a4e7faf4ca0c067e025f825145c4a3c028dd075403adfc54232684fcb49f245788b8e60001b615d84565b5b613a7b7f7acc7cae163b21d3c7b0e3139797267d60d69454071c7b7778a998d17846f55460001b615d84565b613aa77f4483ca6b844bd6090678dc2f4bd50e08b81eae79be7c5c069cc478a89c93d1de60001b615d84565b6000613ab161706e565b9050613adf7f928643c4eae9e29cd6aefa5629c09d049747fb60019d13ec67a53b461ca04d0460001b615d84565b613b0b7f8c45edccb031b7da265b8f551e4e37d46eec63e925700955eea931e57bf5f1b260001b615d84565b8073ffffffffffffffffffffffffffffffffffffffff168b73ffffffffffffffffffffffffffffffffffffffff1614613bd257613b6a7f073dd681347e0d9cf6bc401eac104f316824740e3b0843332f50e6c46e2c70a460001b615d84565b613b967fad00eb7fc5f48758487d4fcfc90acdb49fc2c56713723ffbf5a7fc21edc6900e60001b615d84565b613bc27f3fec7ee5c87710982176dadcbbc70b46207db04554c18b74acfde7ee025a06d860001b615d84565b613bcd8b828561901c565b613bff565b613bfe7fa8db448361d0956a91cf8ca8cb263ca28ab8568231f86d0eeb56d7504c55fba360001b615d84565b5b613c2b7fba0dbd5b4c37723818f725072bd41d805f65efc0823b892d1f97f9ec93412c8b60001b615d84565b613c577f30c906576eb61245f8a1050af94e9522d2e25edde4578086fb7d45a94f99314560001b615d84565b60019550505050505095945050505050565b50565b6000613c9a7f36db026e062e7ec52c6b00fe8c62df2425529b9820312822dcbc51b3b6bf645960001b61545e565b613cc67f39e56a7a1b6f50ddbda053dd5834a53d3d913354d256047b0b09df47c0da6f3a60001b61545e565b613cf27fff322649629a2a2880e461db10744dc80a0dbd583c3881b81f8adc98c4f5546660001b61545e565b613d1e7fe15add570a1677e4dcd8b371a222cce3e6c680191b4122d4627621672040797a60001b61545e565b3073ffffffffffffffffffffffffffffffffffffffff16613d3d61706e565b73ffffffffffffffffffffffffffffffffffffffff1614613dc6576040517f08c379a00000000000000000000000000000000000000000000000000000000081526004018080602001828103825260188152602001807f4368696c6445524332303a2077726f6e672073656e646572000000000000000081525060200191505060405180910390fd5b613df27f9eaba2eef7414753eb5726df56a46c0d1b6d4071fe0dcb7b5cac58bdc710cf8b60001b61545e565b613e1e7fca55cc36af517188ca8492f2b0b128d4ff6578c278f36b83636b18ea2567422760001b61545e565b613e4a7f4eb93fdee69327e22aa4238c4d4e30fe08e5f21008f9368d96332ca8385d1d9360001b61545e565b613e543085618b4a565b613e807f7d94b83502205a18df66b1658a4a8e34a242705588985664435ca6387e4e9e2f60001b61545e565b613eac7f7891efb7571b414dd34310856c07aa7abcd2cb83007fb5b7218d420321c73b0660001b61545e565b7f7084f5476618d8e60b11ef0d7d3f06914655adb8793e28ff7f018d4c76d505d58585604051808373ffffffffffffffffffffffffffffffffffffffff1681526020018281526020019250505060405180910390a1613f2d7f4200dd4585aa5ee42e68c9cc1033457141e9d84d0fe32ac6fbbaf73dda908fff60001b61545e565b613f597f415e9063d5a20012e6e9176f05a92877416ebae2217e793cced2f04da19676c260001b61545e565b7f4fc3585900000000000000000000000000000000000000000000000000000000905095945050505050565b60007f000000000000000000000000000000000000000000000000000000000000000073ffffffffffffffffffffffffffffffffffffffff168273ffffffffffffffffffffffffffffffffffffffff16148061402c57507f000000000000000000000000000000000000000000000000000000000000000073ffffffffffffffffffffffffffffffffffffffff168273ffffffffffffffffffffffffffffffffffffffff16145b9050919050565b50565b6140627fe31d673b1cf6f93b6ec10aabc9e039139e05a30f0aa5e0f5dea55d44b916a87060001b616fc6565b61408e7f0cd6fb2159cf0cecb4a1f2309e0f6bdb1ba7ac47ed86aa9a6c302d1e7214aa5460001b616fc6565b6140ba7fa31927fc0596823b129272b2e24da6109631ba6cf50a86fbb0d60a073f7f638960001b616fc6565b6140ca6140c561706e565b61843f565b6140f67ff8b1098f2906bb3d69f89c2fc789619887250e50e7fbd267dc574faae933a86160001b616fc6565b6141227fc5f01a612eaa021633a76c6c731c79c5faf54da01c4d0ac810851ca65f53b52960001b616fc6565b61412c8282619589565b5050565b600061415e7faf6510b656d01c558643a829cffcb27a9b61e4f011921b4b3557e8d90fbb4ca660001b615d84565b61418a7fa27bf65f816cdc2338576634e0d49cd95220448794f3c01069541cc318e63e8360001b615d84565b6141b67f504bdb8539eb7bbdd9b97c38b8f5b2db6b7d72a5f52b4cf6352a609b83207cc360001b615d84565b600560008373ffffffffffffffffffffffffffffffffffffffff1673ffffffffffffffffffffffffffffffffffffffff168152602001908152602001600020549050919050565b61420d61420861706e565b61843f565b6000868690509050848490508114801561422957508282905081145b61429b576040517f08c379a000000000000000000000000000000000000000000000000000000000815260040180806020018281038252601a8152602001807f5265636f763a20696e636f6e73697374656e742061727261797300000000000081525060200191505060405180910390fd5b60005b81811461433d576143328888838181106142b457fe5b9050602002013573ffffffffffffffffffffffffffffffffffffffff168585848181106142dd57fe5b905060200201358888858181106142f057fe5b9050602002013573ffffffffffffffffffffffffffffffffffffffff1673ffffffffffffffffffffffffffffffffffffffff1661a13f9092919063ffffffff16565b80600101905061429e565b5050505050505050565b60006143757f6565d557ff2908aeea2bda66c95da49e6e4bc4a3a9ab20ad7ed01c488101f0e760001b614033565b6143a17f19f30d68a1b22c9c30a4595ae6e22c9c00ad24b758c918e91e3e0a351e5b3fcb60001b614033565b6143cd7f18813ff275a5e298f9daea370d3c7b9f3380705ce27c4521dfdaaca34c3a3fac60001b614033565b6143d783836180ca565b6144037f1aede9f0d6c23885df6f1ea32b473c7cd2c5f5f27162af341d40efd76f1752ae60001b614033565b61442f7fda77b7ec4d89c6755962111de3da49c224c7d5be7c00c0a639046d6e05801d1260001b614033565b6001905092915050565b60016020528060005260406000206000915090505481565b600061447f7f36dce1c0a9e8f2acd20eb315901ab7ccd1d73659391c625f0cf3d2a1fe3308e760001b615d84565b6144ab7f658bb304eee077b21e91e64ae86a4bd335a2b057e7c6985b336e46fac77607c660001b615d84565b6144d77fe7f8b1e40503dc8205e2a254d615cd73e4849dea989dd07fb3c719dbfe388b0c60001b615d84565b600085859050905061450b7f75ae101b6a7d2dd2fca27e06f67826ce748f5d7d9c09671f9e7828d4717730a760001b615d84565b6145377fe3f27090027d88acfd1b759916643f78eef89c36e027b0eaab0a68d388bf924760001b615d84565b6145637f77261a0ea1605354d068ce5abe171f2da4c0487b91262ac98b1e697dbbd64fa660001b615d84565b8383905081146145db576040517f08c379a000000000000000000000000000000000000000000000000000000000815260040180806020018281038252601a8152602001807f45524332303a20696e636f6e73697374656e742061727261797300000000000081525060200191505060405180910390fd5b6146077fbcb64d285fd01610abcf6aa580a576c575e1d8bcde98c2ea8a727f411b969eb560001b615d84565b6146337f454d563a03d59baa83fa3408aeef544a9579814e321c861a7782619620169cfb60001b615d84565b61465f7fe6640b30e190403ee2cb1d7e532e0a53ff32f61383010c8125f3b3bf574c0e8660001b615d84565b600061466961706e565b90506146977f031a1f2d5d901d68256e9fefcb4126791da39ca99fcd96ced77f48630e17839160001b615d84565b6146c37f5fd923802db602e1a20ab918561d4c0b5d4d98c30c26384d25388ab773a1613860001b615d84565b6000600560008373ffffffffffffffffffffffffffffffffffffffff1673ffffffffffffffffffffffffffffffffffffffff1681526020019081526020016000205490506147337f092fff64f8db892c99dd77096c3ca32fa4f59dc31a2d65fe16816c5362f4eb1f60001b615d84565b61475f7f8d214c48c3917b839c7d04027f063e12fb03d1575a1185c3fa8dc664eed4fcfc60001b615d84565b600061478d7f2ba05cc2ba5dd26087de4641afd48c9149d17031df6e159da84b59f8a194777a60001b615d84565b6147b97f10109886322e42d3114a5d9dd78d054817441dbe8bbcfde30ae990777e6b950660001b615d84565b60006147e77f608bad52219acede4e39248dce767d9d77751271b49990ef4a321254fd675c4160001b615d84565b6148127e6b9669359e58f5a97c8348b6b45e2508cca350064b625ef23a5216f54e122260001b615d84565b60005b8581146150dc576148487fc09b9820abeddea647ad499eca3d4d9a7ff108019ea289d0f433dc11f2962ae260001b615d84565b6148747fccc8edcbdd7a7474e25d81233319591f32d9143733acd6fb06103d9200f693f560001b615d84565b60008b8b8381811061488257fe5b9050602002013573ffffffffffffffffffffffffffffffffffffffff1690506148cd7f0f2eb2c04df4aabb0ccb0f48a1259aaedf6fa20d2d3533e28d2e0606ef5e608d60001b615d84565b6148f97faf645f21ea9e1c26d017dcbae2198f445933f36d8248b3eddce01ac6fc4cd61160001b615d84565b6149257f19cd3bb810f02cec8db45733c9f269fb46ef9e52b49f468ba765ec7de8d1fabf60001b615d84565b600073ffffffffffffffffffffffffffffffffffffffff168173ffffffffffffffffffffffffffffffffffffffff1614156149c8576040517f08c379a00000000000000000000000000000000000000000000000000000000081526004018080602001828103825260168152602001807f45524332303a20746f207a65726f20616464726573730000000000000000000081525060200191505060405180910390fd5b6149f47f740eb951917aa43d3af4cdd7b4592f5ed5b25eb2861ea4293cdfe8fcef4ca4f460001b615d84565b614a207f468408a8ec4193b71be0a4b6a27d1b85cfe6db2820ad9616e0216b9480a5c7ac60001b615d84565b614a4c7fcde0ffc376bb880affead61fed844b72985527e3847efc849925ba6f1ee00b4e60001b615d84565b60008a8a84818110614a5a57fe5b905060200201359050614a8f7fee97907d57103c3128c7488a8231956000ceb4eda1d004ccff0b4287d49b078d60001b615d84565b614abb7fe29cca4c540157aa7440801021870222779360aaba90cb369a2409bc5c1db8ec60001b615d84565b60008114614fe557614aef7f0851e779049e5acce41bf7aa879dccd890cd322938e8f5804ceb70b6d1b5afc660001b615d84565b614b1b7f66f92b4a36afce9f68d42fa5a02d7fffdb110783bfb3fb23a88c53df81d54c3d60001b615d84565b614b477f9f7d6e955251a2a07bda636446881037017f6d31794a9d57166d57396d5ca89460001b615d84565b60008186019050614b7a7f03d343941d8f6d1946c3982335298e36a5538a1d07cf129cba8cec3fe33585ca60001b615d84565b614ba67f151844943a7db9a3dd1ed760f3df27f183ace41fb09e7d9df12174e86678016460001b615d84565b614bd27f9e5d0fde2d898a1decc3105c57df41d1caa99087ab629f1c5112c954dae1c15560001b615d84565b858111614c47576040517f08c379a00000000000000000000000000000000000000000000000000000000081526004018080602001828103825260168152602001807f45524332303a2076616c756573206f766572666c6f770000000000000000000081525060200191505060405180910390fd5b614c737f860f947499a0ff628c5b9175181f65bc4a0ea2d820717a84ec5c9e8edb54c0d760001b615d84565b614c9f7f752ff33bfbea31ea8b4682471a9f66c03f504b26004bb58e85a85243fbb4ecf660001b615d84565b614ccb7fe11a764daef8acf6269a53cd7096d59f955a4116cef92319e66eb8acb1443ce160001b615d84565b809550614cfa7f4b412ae673abe1b08c331868720bbf1b6f18bf23fa68046d1861725b5bf769b960001b615d84565b614d267f209096d6178d18ba626e430c8025d3dba3fec64dd2145d964d674ccfac34cc2f60001b615d84565b8273ffffffffffffffffffffffffffffffffffffffff168873ffffffffffffffffffffffffffffffffffffffff1614614e2f57614d857f3b51e109b4a35a41567fdb354470fd3fffe988d4ea19a3019340c7df7449b05360001b615d84565b614db17feb780cd8dece157902c05b16afc302b0adce7708d6543609dd092a9e646578f060001b615d84565b614ddd7f113bbaffbad4d03b28d832a59614ba7c50d6a0920c76289aeadb71fca3a409d760001b615d84565b81600560008573ffffffffffffffffffffffffffffffffffffffff1673ffffffffffffffffffffffffffffffffffffffff16815260200190815260200160002060008282540192505081905550614fdf565b614e5b7f4357b81c1e8c6c8b1d0ee03aa7f71a74b13775d5376c391a74070946e77b1f2560001b615d84565b614e877fd652acde2368d709ad76ddcc227ff68403d9819906e520b692cd3297d216703360001b615d84565b614eb37fe66d5e4692b519879d6c4c8805ae1109fea60a0affe88ad11dc90a6e85f6ca9660001b615d84565b614edf7fcc6d76953523d7530b78bf4af2e6f293809eb82cd210422024fe3ee45ed53d8a60001b615d84565b86821115614f55576040517f08c379a000000000000000000000000000000000000000000000000000000000815260040180806020018281038252601b8152602001807f45524332303a20696e73756666696369656e742062616c616e6365000000000081525060200191505060405180910390fd5b614f817ff56aaf50a3f11ca31449c592194d631f19e9c664e52a873e69bee10b10e694fd60001b615d84565b614fad7fb75b414157439ab5f7a44caf1cd36b65b42f76b4adbdbafc27a3f1e887f7f4e860001b615d84565b614fd97fefd9b57db00e26ea1253a0f3825b34eda1237f25bed7792703139a7df309466160001b615d84565b81850194505b50615012565b6150117fc74145e24585e8812b1654bb7b4a38e26518e0c496a3c38536e5c1783896c32260001b615d84565b5b61503e7f7f65033f22f6802a932b55dfcc4fe4b675899be8597abac42ef9949011ad42fe60001b615d84565b61506a7faf58c048e1263ac2fb385ae9d0e6c390fe0e1d503ad05162fe915ba638d2ca8360001b615d84565b8173ffffffffffffffffffffffffffffffffffffffff168773ffffffffffffffffffffffffffffffffffffffff167fddf252ad1be2c89b69c2b068fc378daa952ba7f163c4a11628f55a4df523b3ef836040518082815260200191505060405180910390a35050806001019050614815565b506151097f505999a18b5ab0bfc0c4b3fa58fe537056957f630e1c18c380ae5e72aaa5909d60001b615d84565b6151357f29fbee7d00c9c503d31fdc2d5e5e34f4515f478f409fcf1a85903e817780594460001b615d84565b600082141580156151465750808214155b1561539f576151777fe00b6a4f3220bca4d304ed203dc7d3b104e0b65301f5d5369a3a43216c5674dc60001b615d84565b6151a37f4d2b93e24ed72683f733e56ec0dde271bca680ec64072670b0122e707e1874dd60001b615d84565b6151cf7f55ad5a130ea663d155c1b0f190a81c66800b49e8055507cda100ffb2f40fbb4560001b615d84565b600082840390506152027fafa4576e288ee6e295c5a9fd820d49d00845f3553980cf6eafac4bdeb01794de60001b615d84565b61522e7fac4dac563959ef5f976f64bfe3afffc554e23655e4850baa0184639b7f899a4160001b615d84565b61525a7f722193c0156abf75c3e5fdbd9de7430b67420cd50dc94fc5eb139cea45e9364d60001b615d84565b8381106152cf576040517f08c379a000000000000000000000000000000000000000000000000000000000815260040180806020018281038252601b8152602001807f45524332303a20696e73756666696369656e742062616c616e6365000000000081525060200191505060405180910390fd5b6152fb7fde4aa99655404cbe4f32bc8b27fbb66d8025b0e38b5a8cd93a3d8adcf5b598f360001b615d84565b6153277f3dc9c9ae21c691eb33d2a7a104aaffb46714ba721b3c539843ae7dc12fa82ef360001b615d84565b6153537f3384725aba087476a352ee88b4bb83897d454c2001d3249c46f577f0041b023d60001b615d84565b818101600560008773ffffffffffffffffffffffffffffffffffffffff1673ffffffffffffffffffffffffffffffffffffffff16815260200190815260200160002081905550506153cc565b6153cb7f96cc9f008d9982e70f1f0bb8adf802828ae8d53ca62bef2f4cfcf3a81c0830a160001b615d84565b5b6153f87fdb418a7169e6a0592423b7fc9fe855a3f53f9f1fa8a2918b5b3dc30dffbcaef960001b615d84565b6154247f6186f4137f7698c514362d57007b5af97d5d21283e597058ba6eb7a05f61073060001b615d84565b600195505050505050949350505050565b60008060009054906101000a900473ffffffffffffffffffffffffffffffffffffffff16905090565b50565b606061548f7fa720545d98fb7f42715ed4d5941edb346bb63e0fd1d859a26b6e126d40af385160001b615d84565b6154bb7faea62c8cfd0590f9f53c867313bea30d6aadc26fe4b817a00fd3325a727703cc60001b615d84565b6154e77ff24e710780a0f8c903bb5211e93f752083774507c65a7e4d4388e48826ebfdfd60001b615d84565b60038054600181600116156101000203166002900480601f01602080910402602001604051908101604052809291908181526020018280546001816001161561010002031660029004801561557d5780601f106155525761010080835404028352916020019161557d565b820191906000526020600020905b81548152906001019060200180831161556057829003601f168201915b5050505050905090565b60006155b57feab1b372dd52356ba09929967e21d0dc341ddb156b48b20cd8bf5914f1c352a560001b615d84565b6155e17ffca3473c59c91432dc003b80958a167b14c399670af45dd698192d57b5ce967160001b615d84565b61560d7f79dcb37e555affe9515f548559ea927a573349058a1b1734ee96a02642e0057b60001b615d84565b6156397f71786fc87a98982b466ac33a920d2370895c9afe591ed603f6c309066859b01b60001b615d84565b600073ffffffffffffffffffffffffffffffffffffffff168373ffffffffffffffffffffffffffffffffffffffff1614156156dc576040517f08c379a000000000000000000000000000000000000000000000000000000000815260040180806020018281038252601b8152602001807f45524332303a207a65726f2061646472657373207370656e646572000000000081525060200191505060405180910390fd5b6157087f84848eafcab678a7263ac53234d91780c9c314f05849c42d9025d2c069b82ae360001b615d84565b6157347f4678e92ee9cb4bd18622e43ae5ac464f1f3227493ae9cf97e93f2b6ec725984c60001b615d84565b6157607f42f2e48a82ca21748b6b34c1f7598cd272cc0d1f2e2c487da8efcca37577272160001b615d84565b61577261576b61706e565b848461901c565b61579e7f5af985276cd153971f961d8baa4ee063c6b35ca3c57b547a697d1821711be43060001b615d84565b6157ca7f08fec270ee1147b025fb0dc3bdd4b6651ddffc4c495cfafe1bd41c00a9c04e0560001b615d84565b6001905092915050565b60006158027ff7b3efbdfdf5bb59a61d4cfe0697a0d1968684e27f58495bcdaa2cf67b71ce5360001b615d84565b61582e7f8defee9f3f13fdd061ac975299a8d8f3bc4d537bddac2eb8a19279aa163e8a7960001b615d84565b61585a7f569cbc49bf2cfdc900addce274b9e69eac58a5eecaa4404a1ebe8670b322cf7460001b615d84565b61586c61586561706e565b848461a1e1565b6158987fb81f8c67dee055e8dee10cda56419903ff52c40c36d467b5f303cb8ab9fe367f60001b615d84565b6158c47fbfd7bb5e82206557021e99dce10522851fdcdc96b81b9c3bbd52b682c7b9e26060001b615d84565b6001905092915050565b60006158fc7f9e5bbe52fa1073e368c0257cd32b5921ba0bf8613af52d8f94b898677b81801760001b615d84565b6159287ff145f591610c65b5f6a7f6558b7e073b24bfcd1b0b6603e6a51e69e299cc169b60001b615d84565b6159547fbdb986566b6fe2bdb5067f725908d235bd37061ee025767df5a4b23755374e2c60001b615d84565b600061595e61706e565b905061598c7f0708c12144730737f56b7e26bde8d1779d495f5af65dc3096378ca6339bf2e7f60001b615d84565b6159b87feb45a7a95624ce4c70d467d41c137661e614f592e4c8714d0d3d09bad4dac3ab60001b615d84565b6159c481888888617ee9565b6159f07f1fd737f43548cc9152aa176ace0846bcd020c7db108c1a3d35aa894fdbe9f78260001b615d84565b615a1c7f9e1de48bcb6249f60e87edec3d9c75feb4177478811a16402b9a31f74a685b5660001b615d84565b615a3b8673ffffffffffffffffffffffffffffffffffffffff1661a92c565b15615cf157615a6c7facc1daeb33c27ca5ff394179c759c2a40d110105aecc8b587946296740b5ae6260001b615d84565b615a987f258f93739b28070280d845c4123d01a9c82989bb303e7c595ff86741ae6b834060001b615d84565b615ac47f3c0821a8f6272ae4b7f728ae94c86e7d4d8db6811907e321d2b696a4804cfd9f60001b615d84565b615af07fe4b610991d34e9f015362306bf33cb083b1202355d7928c3a22853fa6745215460001b615d84565b7f4fc35859000000000000000000000000000000000000000000000000000000007bffffffffffffffffffffffffffffffffffffffffffffffffffffffff19168673ffffffffffffffffffffffffffffffffffffffff16634fc35859838a8989896040518663ffffffff1660e01b8152600401808673ffffffffffffffffffffffffffffffffffffffff1681526020018573ffffffffffffffffffffffffffffffffffffffff168152602001848152602001806020018281038252848482818152602001925080828437600081840152601f19601f8201169050808301925050509650505050505050602060405180830381600087803b158015615bf357600080fd5b505af1158015615c07573d6000803e3d6000fd5b505050506040513d6020811015615c1d57600080fd5b81019080805190602001909291905050507bffffffffffffffffffffffffffffffffffffffffffffffffffffffff191614615cc0576040517f08c379a00000000000000000000000000000000000000000000000000000000081526004018080602001828103825260178152602001807f45524332303a207472616e73666572207265667573656400000000000000000081525060200191505060405180910390fd5b615cec7f5434d9bcb373cad3e61e9cd676902dd9f460daa33cdec02df3b4baed88fe61b560001b615d84565b615d1e565b615d1d7f5b873a2746d5f6f5b15f8f53d1492c47b860b242174e4b1e8c0015bb75d4c61e60001b615d84565b5b615d4a7f6675097bc3455d672caff269a4aab1512f968651a716ef964fcf76eb6e93af5260001b615d84565b615d767f1a70c113f6091d8931a92aed6618023892933d593aa93964f2ac2fba3304135c60001b615d84565b600191505095945050505050565b50565b615d97615d9261706e565b61843f565b60008686905090508484905081148015615db357508282905081145b615e25576040517f08c379a000000000000000000000000000000000000000000000000000000000815260040180806020018281038252601a8152602001807f5265636f763a20696e636f6e73697374656e742061727261797300000000000081525060200191505060405180910390fd5b60005b818114615f4357858582818110615e3b57fe5b9050602002013573ffffffffffffffffffffffffffffffffffffffff1673ffffffffffffffffffffffffffffffffffffffff166323b872dd308a8a85818110615e8057fe5b9050602002013573ffffffffffffffffffffffffffffffffffffffff16878786818110615ea957fe5b905060200201356040518463ffffffff1660e01b8152600401808473ffffffffffffffffffffffffffffffffffffffff1681526020018373ffffffffffffffffffffffffffffffffffffffff1681526020018281526020019350505050600060405180830381600087803b158015615f2057600080fd5b505af1158015615f34573d6000803e3d6000fd5b50505050806001019050615e28565b5050505050505050565b600860009054906101000a900473ffffffffffffffffffffffffffffffffffffffff1681565b7f000000000000000000000000000000000000000000000000000000000000000081565b615fc37f909d0cde64e1ae90871df8d189f33c9dbc75ecb9d36819d2b8a43310b9b35da560001b61545e565b615fef7f3044d71718da66ceab5787b63d31d5a60c6342441ec3d1b938b9bbdf8ecf12f860001b61545e565b61601b7f9b19401bf75b16b439132ab4129aaf0975c09c559b2e6f2de6c8a5978b37494f60001b61545e565b61602b61602661706e565b61a93f565b6160577fa189fc3d70499dda7563ed1b575a11e59173462aafffa7e611b43ca3f0ab83b060001b61545e565b6160837fc20f17b6d86354fdcfaab09cf8cfa96a4bf30e2272840822baf023bb10b94acd60001b61545e565b60008282602081101561609557600080fd5b810190808035906020019092919050505090506160d47f87a033ea4b25498785bcd5654ae625994f75d375c4e49c59155522bc802f66f460001b61545e565b6161007f04bfebfd9aca3a2d2295947eb53f61bc416b6492f0b43591a4baa397951dc21560001b61545e565b61610a8482618563565b50505050565b61613c7ff09be886b79f8989033274578671aa868c6cf991d01f449acf62d91d8669db1260001b615d84565b6161687f573f510482b32dedf2051a18870eea4ab4cb2733e7494885be356354b62f12ff60001b615d84565b6161947f4fdc4633d9d6368f90b5dda39d28205fc0ea7e75f7574f56ed787585953a4a9d60001b615d84565b6161c07f18025f4ae9c76e278f7120b1309d085aa5d1c8ee4478966e8d8f91f58d92b59160001b615d84565b600073ffffffffffffffffffffffffffffffffffffffff168773ffffffffffffffffffffffffffffffffffffffff161415616263576040517f08c379a00000000000000000000000000000000000000000000000000000000081526004018080602001828103825260198152602001807f45524332303a207a65726f2061646472657373206f776e65720000000000000081525060200191505060405180910390fd5b61628f7fdf57c65d551278c942938066bcf4fdcbbd11d019acc8d734ca0df669546ab6ab60001b615d84565b6162bb7fd88fd66a3af3169710170dd03c96713d708141f61e3c7e50b6da18b82d3c63c660001b615d84565b6162e77f9e3a62b1c4baa97a13729922d38f52f6bb57e8a964ecaf23de781acb6f27adc760001b615d84565b6163137f76fd6f24b26f03a00c747b3bfe7c6528e5d41b85402e83ed04a7582b268c41cf60001b615d84565b83421115616389576040517f08c379a00000000000000000000000000000000000000000000000000000000081526004018080602001828103825260158152602001807f45524332303a2065787069726564207065726d6974000000000000000000000081525060200191505060405180910390fd5b6163b57fcc2ebed6ca50e7fb2d00fbe931137421e975b8a4773201cb2f43fb2df297ebad60001b615d84565b6163e17f8089bb1d1a3372ca8d16dd8b122faebf81484a72310585639df1cdb61f8c7d3a60001b615d84565b61640d7f441a5ac679d275ac82ad37a48fc366fce45cfb3e3cf28f598a50831345aba66160001b615d84565b60007f6e71edae12b1b97f4d1f60370fef10105fa2faae0126114a169c64845d6126c960001b888888600160008d73ffffffffffffffffffffffffffffffffffffffff1673ffffffffffffffffffffffffffffffffffffffff16815260200190815260200160002060008154809291906001019190505589604051602001808781526020018673ffffffffffffffffffffffffffffffffffffffff1681526020018573ffffffffffffffffffffffffffffffffffffffff16815260200184815260200183815260200182815260200196505050505050506040516020818303038152906040528051906020012090506165287f9d6784a7b50c9e224221513bce1160c65cda0b8b4d1ae2693ae81581aad7ef2360001b615d84565b6165547f74fb6f531932aacb421bb787011227d812f59ac73b3bf773a5b54698fddbd8d260001b615d84565b600061655e611ec2565b8260405160200180807f1901000000000000000000000000000000000000000000000000000000000000815250600201838152602001828152602001925050506040516020818303038152906040528051906020012090506165e27fd1112790f26e63342c86cde91ac18ac9397917f0bd64253a5f6183ad8b8056e160001b615d84565b61660e7ffa507693139a98b6d695aa36d7e2d92f691306f84cc2c60e8490730a7cde224060001b615d84565b600060018287878760405160008152602001604052604051808581526020018460ff1681526020018381526020018281526020019450505050506020604051602081039080840390855afa15801561666a573d6000803e3d6000fd5b5050506020604051035190506166a27f2d184e59b10fcc4171eeb7c8e7da4b1700fac0b1b4d8778ae6ade04a012626bd60001b615d84565b6166ce7fd75b53ac20da65cadb176497ce382d7c59c873d5f9529e53c3e4d898e6436bce60001b615d84565b6166fa7fb8ff966167f57a92c7650a9203a941814be49b708f2d787381af0c6fe5a326b560001b615d84565b8973ffffffffffffffffffffffffffffffffffffffff168173ffffffffffffffffffffffffffffffffffffffff161461679b576040517f08c379a00000000000000000000000000000000000000000000000000000000081526004018080602001828103825260158152602001807f45524332303a20696e76616c6964207065726d6974000000000000000000000081525060200191505060405180910390fd5b6167c77fd2ba33033a5cbd013b9b21bc02339f7198344564e0e00ee7d99ef45bd7546e6660001b615d84565b6167f37f9b23e83514b5583f41cc3a66d5717b8264705f4f11bd1ef757ecd7a0d0410cdb60001b615d84565b61681f7fae022d484e8e3056bc9d902d1bcaf8107807ddfd653db7f8581022cd801e244360001b615d84565b61682a8a8a8a617101565b50505050505050505050565b60006168647f9657f75befcadfd2dcff060f5445774769f55c48851dd5dfa16afb17ed69b25c60001b615d84565b6168907fbf67582f32357054216c600b2db4d7fe5be581b967c63fd0290fb01e360795b760001b615d84565b6168bc7fd6808f6aeeaa27430164f9dd41717cfe859bbb2081a24145f606c7e84a7b629260001b615d84565b600660008473ffffffffffffffffffffffffffffffffffffffff1673ffffffffffffffffffffffffffffffffffffffff16815260200190815260200160002060008373ffffffffffffffffffffffffffffffffffffffff1673ffffffffffffffffffffffffffffffffffffffff16815260200190815260200160002054905092915050565b61696d7fb68f0bf7d0a62a4e9f67b6ca2e6eabe13bb9fb68c88679e7b7e61e8587461b8a60001b616fc6565b6169997fdacd9e3462b5014ba36f16dbeabac5f77f5f1271f038348f17ac757a596dbb0d60001b616fc6565b6169c57fb9eb81f9e2950f606137ffd4361618ac08fe78412a2f428722a750162c5c025260001b616fc6565b6169d56169d061706e565b61843f565b616a017fe441cdc2de4bfedb6a14bf0cc9257d560bd30ecf8acd5b3496e35bb25c7f828f60001b616fc6565b616a2d7f52e4776e0e3df87c3c3caba01bc99e5ca4e98eedab99a697e922dbd5e6ca6a7d60001b616fc6565b818160049190616a3e92919061b585565b505050565b6000616a717f85a36147d775ef05c9448f09d9e2dde52f0e5820d0dd7f939a445f17a145c87d60001b615d84565b616a9d7f65105c95bae1eb5c19955205df4d9b1148ace2b3d10aaa8ba636d6ece994f7e260001b615d84565b616ac97fe6093ba54e459340fccf588504241fc3fc9d9cfb15c8987133a52fdfa714aa7c60001b615d84565b6000616ad361706e565b9050616b017f6154c9bf083f6c52a18e06c157aca6c9b8ff1265069b5e9f68dbcea80545ab0d60001b615d84565b616b2c7e505b853f6320cd114e1f7cd80dca4982355773ca8c0bc1d1b5d1fad9cb2d7b60001b615d84565b616b3781878761a1e1565b616b637f7419462eacfc58d3b13e6175a5e310a188fef784cb2bb84e6a3d1ac7075ac4f460001b615d84565b616b8f7f275273b936f1af3df6ffb453b82dcd5c87f6324b1d520165d999a3f7ade0091360001b615d84565b616bae8673ffffffffffffffffffffffffffffffffffffffff1661a92c565b15616e6457616bdf7f96daa9bafc009d3f290efdc4c3ebe19436b31c26eb341a3f7cde8a5ab5ee051860001b615d84565b616c0b7f856c082fbe08f643eb7c79084025bb035d6bfc1a7919fa2afa77b33094b27b3c60001b615d84565b616c377f61ad32a440df07f8fd20f329d3f9757af5ccbae95466c3abb108d609917ef44260001b615d84565b616c637f1620c0fa09bc471c4903604b1323d13b04d98d0e2cf4327e28f219a75bffc08960001b615d84565b7f4fc35859000000000000000000000000000000000000000000000000000000007bffffffffffffffffffffffffffffffffffffffffffffffffffffffff19168673ffffffffffffffffffffffffffffffffffffffff16634fc3585983848989896040518663ffffffff1660e01b8152600401808673ffffffffffffffffffffffffffffffffffffffff1681526020018573ffffffffffffffffffffffffffffffffffffffff168152602001848152602001806020018281038252848482818152602001925080828437600081840152601f19601f8201169050808301925050509650505050505050602060405180830381600087803b158015616d6657600080fd5b505af1158015616d7a573d6000803e3d6000fd5b505050506040513d6020811015616d9057600080fd5b81019080805190602001909291905050507bffffffffffffffffffffffffffffffffffffffffffffffffffffffff191614616e33576040517f08c379a00000000000000000000000000000000000000000000000000000000081526004018080602001828103825260178152602001807f45524332303a207472616e73666572207265667573656400000000000000000081525060200191505060405180910390fd5b616e5f7f8052913ba903a274a800fbf1f6d6d4dbf0979c9c97eb4b378e372a6a4897c2a960001b615d84565b616e91565b616e907fe76998664b4b6c5efd4f4d8eaf5967b63eb02648b4f6719152616678073818bb60001b615d84565b5b616ebd7ff30e4d6426e38b6dfb75cfba15ba7fdb4ff6bd07c3c68d7c5005c66b5012f32660001b615d84565b616ee97f2baee224fa98b0ae25b7d4c245985ef73e654ed4d06a884d7b11b35726f4137260001b615d84565b6001915050949350505050565b616f06616f0161706e565b61843f565b806000806101000a81548173ffffffffffffffffffffffffffffffffffffffff021916908373ffffffffffffffffffffffffffffffffffffffff1602179055508073ffffffffffffffffffffffffffffffffffffffff1660008054906101000a900473ffffffffffffffffffffffffffffffffffffffff1673ffffffffffffffffffffffffffffffffffffffff167f8be0079c531659141344cd1fd0a4f28419497f9722a3daafe3b4186f6b6457e060405160405180910390a350565b50565b50565b6000616ff77faa531f74b4e7188c10847ae822f1d0f87cdf89e7e44e3735aff27a5a917524d160001b61545e565b6170227efa57aa7469a52d4c300bfaafb7c3517c2ae495801a96a889608059f26ff60960001b61545e565b61704e7ff3c2b9acedad1adebe5c0c35501896348c6d6383562aab68c74a5475427294ec60001b61545e565b6170578261aae1565b8061706757506170668261abdf565b5b9050919050565b600061709c7f104bb8e15bed1f15b8c4a522b7133015ca1d2c60cefed6d2dc967c4c09080da460001b616fc6565b6170c87f38bc163c4b80f18e65710789760b362032f78942130c08ce2346f8c8e33a23b760001b616fc6565b6170f47f1c08e4f5d4d42a01999748259aa0e8b24dae1a3bc982395816625c64276ef4a560001b616fc6565b6170fc61ad35565b905090565b61712d7fb41ffd4c2b604e8ce6b8aa8fded86b08b90b515e8225e3364f4e94ea8c64535960001b615d84565b6171597f755e4369c2eabadafb3136b0eb4464424a67e070c153c19fba9b80ccc9d7ee1960001b615d84565b6171857f0e77ae358888338471fb048297aeda3433b14a04252cd54b018dc3ba7e58daaa60001b615d84565b6171b17f8c080f850fa62d8b752c2b0a269771cfc6072de65cfc47d966d1052c7bb8d2c460001b615d84565b600073ffffffffffffffffffffffffffffffffffffffff168273ffffffffffffffffffffffffffffffffffffffff161415617254576040517f08c379a000000000000000000000000000000000000000000000000000000000815260040180806020018281038252601b8152602001807f45524332303a207a65726f2061646472657373207370656e646572000000000081525060200191505060405180910390fd5b6172807fba138d9b82d3f25d74846001aa4dbaa2faf4cb638b16c45dd945c91fec297ea560001b615d84565b6172ac7f41efb9eb06882e1ae16657a7e44a3ee6bb7b615af8af13122b096f7f87ae054160001b615d84565b6172d87f79b60829078eb636ddeb435932b6e3d5d1d2970641cf96b44b98a978fe652b8860001b615d84565b80600660008573ffffffffffffffffffffffffffffffffffffffff1673ffffffffffffffffffffffffffffffffffffffff16815260200190815260200160002060008473ffffffffffffffffffffffffffffffffffffffff1673ffffffffffffffffffffffffffffffffffffffff168152602001908152602001600020819055506173857fecf0cb7f0be33c8f74ec18386f5c1c61701da0a856ab0968cd0d4775f272bd9f60001b615d84565b6173b17f1e7011daa876dd6648bd3ff1519780e9669e3b8c585731548a35a8627d47e2c860001b615d84565b8173ffffffffffffffffffffffffffffffffffffffff168373ffffffffffffffffffffffffffffffffffffffff167f8c5be1e5ebec7d5bd14f71427d1e84f3dd0314c0f7b2291e5b200ac8c7c3b925836040518082815260200191505060405180910390a3505050565b6174477f2f75f00b970c00a44dacd72b277f073024342f20171024bd0c6da845fc93eac460001b615d84565b6174737f24772687b2085b00afa6f6593665437d5a3d753a1cb30314447960429e4551f960001b615d84565b61749f7f0b6748995a0125d8df51d882f0cf639c4150e23870d0c4e5bdffa751d97a050e60001b615d84565b6000825190506174d17fb9c141fea51b7d6cda9d2da1a7f4991b7b950645715f5826844a1eb2794c7afc60001b615d84565b6174fd7f9ef69531578dc97209ef9bb002f0a4b5b02ffc3a735cb55380934993dd02731360001b615d84565b6175297f78f1430f7d9a4d5f566c41a8601ee6b9f8579d953afff2c9175b9979c8f6f95e60001b615d84565b8151811461759f576040517f08c379a000000000000000000000000000000000000000000000000000000000815260040180806020018281038252601a8152602001807f45524332303a20696e636f6e73697374656e742061727261797300000000000081525060200191505060405180910390fd5b6175cb7f98bc37d73b097594233fb4ab451ce8d6e7f5239e000796b26a42fa55952c0f5560001b615d84565b6175f77f146a47eebf5815c96aca6c7ff1aabadbc6ea41111e7d70a82f46955b70934a9960001b615d84565b6176237f360c25cccc25af29a07c10272b06ea6aa4539849c7e56ec4ea5e423426c5a11560001b615d84565b600061762d61706e565b905061765b7f4745888908dc8420aec400c9a6139820193a486a071b9a6a48051b8a7a6ebb2060001b615d84565b6176877f02d86be0a07995be22e4e54e8ff05e35ce3db9b610393c030d310f87fb2a40ea60001b615d84565b60006176b57fad6fb1d4eaf30730deda0990cc6c1cd74be9ced17b2d470231ca19231b0cab2c60001b615d84565b6176e17f9ebcbecb9b6668d56cca4b91ea7e7295d6347e3f8e54d13f9e3914f02c7bf97060001b615d84565b60005b838114617dbb576177177fd0bd422aa8a921d5be8bc4520f8b1754062ac9850c69bae02d5d9482dd15c6b960001b615d84565b6177437f7355638cb35429efa9a78f9011a48be575f33a26fdaef8ddc2785b143757d41d60001b615d84565b600086828151811061775157fe5b602002602001015190506177877fc1083a7d4abcdf2152cf00a831906624c6e3fb3774faef1b6e7a8e0d11318d5860001b615d84565b6177b37f39c25275b90b57e5deaada8c6b8e8f88d65baf9c41e2414a33c72a71304ea7e060001b615d84565b60008683815181106177c157fe5b602002602001015190506177f77faeadacf24ebbd2197fe493883675fd02a22ec0663fa959fa3b479336c421454c60001b615d84565b6178237f3e294b78c8c8a79655b45e345640ea32fb902f2e86cabfcbc54448552b07038a60001b615d84565b60008114617b77576178577f4eb9ba847ea3404d654bdf45d8fb0ce230e13d73871e642848662096cf9db08a60001b615d84565b6178837f4e75d4700999c6fb8f693d7f98f0daa084288d869fdf4a31781b397bcebb2be860001b615d84565b6178af7fba455b16316eaed11ac05538d35147b2879277368ac7570f65be9b785653656060001b615d84565b6000600560008473ffffffffffffffffffffffffffffffffffffffff1673ffffffffffffffffffffffffffffffffffffffff16815260200190815260200160002054905061791f7f83918482493a9480beb2eecf29f8b1f36c7a98764e21ff9618a778a5798b7e0960001b615d84565b61794b7f3a3bd73ce9f2d4f092c573385705af235f31d63a4eb986840af7df076f8053f260001b615d84565b6000828203905061797e7ff51a58836619c49c0c1295bd6595f99b11d7d10baffdd685ac208568657eaadb60001b615d84565b6179aa7f4f12bb60d580167cba638e61d8b1bb1830ca67c249132927999c927a4080729b60001b615d84565b6179d67f5c59443836e91929235b50586ae56bc1555b6fc847cf6b9ada6d04e360c141fa60001b615d84565b818110617a4b576040517f08c379a000000000000000000000000000000000000000000000000000000000815260040180806020018281038252601b8152602001807f45524332303a20696e73756666696369656e742062616c616e6365000000000081525060200191505060405180910390fd5b617a777fb1a3033805a340cce6f842d2a7267fe275def202d116fedfa2a0975f4d466fc260001b615d84565b617aa37f315bb1790dde958819a7f68ddb1b8a9cc8a178c12af6d9fae64ac9c24efdd00960001b615d84565b617acf7fcd81c9cd13f66220b8c4ac53eecb79f9a3382523119a37206160e07ce9465fc660001b615d84565b80600560008673ffffffffffffffffffffffffffffffffffffffff1673ffffffffffffffffffffffffffffffffffffffff16815260200190815260200160002081905550617b3f7fe6131404127a86bd457db5182dcfd6eb59a9e3849129f3d6b91d5c9cf7aee8cb60001b615d84565b617b6b7f5be735823b8e0f21de5d23ae5015c73e409863a66bcb867af310265e2393fde760001b615d84565b82860195505050617ba4565b617ba37f4981ae0d9fc0c613ee695db1685fa10684c9d688e53d7c9e1b19620273823f8060001b615d84565b5b617bd07f01cad326ec309bfb2abf6e442d99b08ba820de2621cc052fae2649d79a8327c360001b615d84565b617bfc7f3f3359c2ccdecb8d642f6fa069f606e2d749765275b45471880dfa54c93a889460001b615d84565b600073ffffffffffffffffffffffffffffffffffffffff168273ffffffffffffffffffffffffffffffffffffffff167fddf252ad1be2c89b69c2b068fc378daa952ba7f163c4a11628f55a4df523b3ef836040518082815260200191505060405180910390a3617c8e7f9a3987083b0e16988475e24c72b6fc0710006f4f36518364c2c99be456d344d260001b615d84565b617cba7f39d65ab961865366bb9712f55de14d6b11658b1444558f06b03f2cb75822a02a60001b615d84565b8473ffffffffffffffffffffffffffffffffffffffff168273ffffffffffffffffffffffffffffffffffffffff1614617d8157617d197fe15d2f66896a83e5b7bfcf8a4acf571531623ed1e7c163824f3875a93904f86f60001b615d84565b617d457f87128024340fedcf3fa0cad462d410388176e9d3a15c9d60b88853c505bc8cc460001b615d84565b617d717fba8c8d34f2fc5f7c241af00e064e8669b78cd9c17dbe10a422aa01490b2fbba260001b615d84565b617d7c82868361901c565b617dae565b617dad7ffd26b943c9e7b962877e7b274eadb5a6d1886183e464d1ecbf2eb3d9c972face60001b615d84565b5b50508060010190506176e4565b50617de87f5bdb460fa2459360a96a5bb4d7ed740a8db1bb21005c3300b35a63502accdc2d60001b615d84565b617e147fdcafcee45973419a6a44f96ffd36b9bc29c70f0bc1bb0ebfcf4292101ae416b760001b615d84565b60008114617eb557617e487f2d5e2cdf4b1002f9e243bb2fd4c4461ede5f9a5ac1bc7ad4b5e0d76ba0cdc03960001b615d84565b617e747fa3e599b60aabf279f9aab23e3ebdce3f770114ff4ba4b22c1a49f9439b7242e060001b615d84565b617ea07f2c0e4a45135af41913dd35f3020f18918361742f435a28c5d130b78aa833f23760001b615d84565b80600760008282540392505081905550617ee2565b617ee17f25184435ea16526eb576e608935ac46abee0b20249043a123b79bbaf068dcdd160001b615d84565b5b5050505050565b617f157f2394024eb4368ce5b8a91eba173da2b358b94b42ec7e83ddbf8fafc8b545bda960001b615d84565b617f417feafd6765c3b93f70ab7440bd8162692359701d5b7747cb3641ab77c62305f31b60001b615d84565b617f6d7f186fd07d54e4e2dd1ad64ae2832c59108b5484e62e1660108fa2addb7a1fd74360001b615d84565b617f7883838361a1e1565b617fa47fd9bccc750b3443b0ef706ae5fc46c6668b9714e6d9e42a63e829621bb5d90d9760001b615d84565b617fd07fe8dfc78957d462f491e8e2868cda449816f2b3b52bbe39608f65cbf0cf4b2e7060001b615d84565b8373ffffffffffffffffffffffffffffffffffffffff168373ffffffffffffffffffffffffffffffffffffffff16146180975761802f7fb7837a53b97d5576e4dd1cc81e1568caf0974e99f4cc1c6b6d0471c56299f36a60001b615d84565b61805b7f9a8e377e8fb934bfec83f5c80e63ef85dbbfa0e331e525ff734ca0e95ff6e8c160001b615d84565b6180877f3e3580cedf9922cc887c41413c7cd8559f3db0b39fe9a782ee3470d0e3ef3f6060001b615d84565b61809283858361901c565b6180c4565b6180c37fb4a56cf2ae16997ed837eba0b8883dd37952102ddde8a6ad1e1960401cae39d760001b615d84565b5b50505050565b6180f67f8be542ed74f52c685c8c3e6968003b8584c00f106d5208623689b21c751b73a960001b615d84565b6181227fa026a2b79f78e72fe909e993692acd26d12cb76eb272db7240e2624b8526a76060001b615d84565b61814e7ff2132e5a95eb822a90a739ace7f4eb01c4aa081cfdf68a18300aba482a28ad2f60001b615d84565b6181588282618b4a565b6181847f05f6f4a5804296f280f53b36d9acbfb79f99a0f3e04ffa847f573925254c9ed260001b615d84565b6181b07f92b4301849808ace75a05a0abecfbcb93a6e107040bafdbfd110317db9496e5c60001b615d84565b60006181ba61706e565b90506181e87f0935475c3f905a75b9332a587ceb7e7145259a9b22143af62e05e149b353f79e60001b615d84565b6182147fd5f0ece1f97d15ca3c6871038e78caace72ca9c2bd1665d33b6b4931d2d3f49a60001b615d84565b8073ffffffffffffffffffffffffffffffffffffffff168373ffffffffffffffffffffffffffffffffffffffff16146182db576182737f7dafabbfcff5a0f4cbe98113106ec280709514e3f160ee53b1c0243a4623bb9a60001b615d84565b61829f7f19dc208a6a08ea97bac186e87f16e601b4dfb6a86ed7048c20bc5e7bd56ec0e260001b615d84565b6182cb7fb7889137a0466a2ed659905390a35bf857f67ac015d9e4f785fa1687356dcf9960001b615d84565b6182d683828461901c565b618308565b6183077ffab5f082f9cbc9f9bab18edb6c9efd8212a4b69d4c83ca4f2e5564ea8ba32d7d60001b615d84565b5b505050565b600061833b7f944c756d5d5f2a243e454b45fc9555d5da7652dd4606d195dc34efbf761fdf8560001b615d84565b6183677faa08908f9f4beadbac7e4c7f998a0acfcbb4350d736ee7e36f1579fae9bd064760001b615d84565b6183937fd732a1b4cb4603fac188410fc428b31ff987007b8863a01a3eed940aaf97080460001b615d84565b7f8b73c3c69bb8fe3d512ecc4cf759cc79239f7b179b0ffacaa9a75d522b39400f82805190602001207fc89efdaa54c0f20c7adf612882df0950f5a951637e0307cdcb4c672f298b8bc68530604051602001808681526020018581526020018481526020018381526020018273ffffffffffffffffffffffffffffffffffffffff1681526020019550505050505060405160208183030381529060405280519060200120905092915050565b3073ffffffffffffffffffffffffffffffffffffffff16638da5cb5b6040518163ffffffff1660e01b815260040160206040518083038186803b15801561848557600080fd5b505afa158015618499573d6000803e3d6000fd5b505050506040513d60208110156184af57600080fd5b810190808051906020019092919050505073ffffffffffffffffffffffffffffffffffffffff168173ffffffffffffffffffffffffffffffffffffffff1614618560576040517f08c379a00000000000000000000000000000000000000000000000000000000081526004018080602001828103825260168152602001807f4f776e61626c653a206e6f7420746865206f776e65720000000000000000000081525060200191505060405180910390fd5b50565b61858f7fa18d11221352f352ef86febf90e139e2b253c56b8c57c2d059a12038ff40ff7e60001b615d84565b6185bb7faa9bbf832af379a698a689ae6e28baee27d8f95a53b0522b24aa79b888928b6a60001b615d84565b6185e77f335d58db6850ab9524b5240bb60d568f1778eedd47883c68f1d92051057823f860001b615d84565b6186137f943f68c4a61fe402fa3c0d14a5dc3b1cebde00e22d931d612fc3c1bf22c479e360001b615d84565b600073ffffffffffffffffffffffffffffffffffffffff168273ffffffffffffffffffffffffffffffffffffffff1614156186b6576040517f08c379a00000000000000000000000000000000000000000000000000000000081526004018080602001828103825260138152602001807f45524332303a207a65726f20616464726573730000000000000000000000000081525060200191505060405180910390fd5b6186e27feb5727ef78da1e243353670a75bc1a7ff9e99689d611ac0e4266822a42d4542d60001b615d84565b61870e7f4358dfe69c8aaaa0a59217316a7b395da625c968fbc25a1af929fcae1497288560001b615d84565b61873a7f6d012b758ad104c5bfb4040c36d5bb4183aa5ba4c33df957bb8b4781576e173060001b615d84565b6000600754905061876d7f7f58b45cdccc12fae78a141f89468041addfd60796c541cff268edc1ef538a0f60001b615d84565b6187997f0bd0f52ff53b53f5a1514b5ebc18c8204749215e7b0a616c5cf6bcf38667d9c460001b615d84565b60008214618a5a576187cd7f8873b5415dfdd06dc416e1a8fdb2afdaabc323ae19254ad223eccff2492097bb60001b615d84565b6187f97f7640715c5bb0d1cd32a484804c03972c5cdebef1d6ba611ca7a080a897f7ba4360001b615d84565b6188257f8d42bf01ed15e5045a354e4ccb50e31c8075a242438471f67c6333c187c38fe660001b615d84565b600082820190506188587f07dda80bb9d9fb0d2f48ad2701855c2a21865080853e7e49fbeaceda51dd89ef60001b615d84565b6188847f3a31b1a66f0acc65a6200f4372cad53e61c9278fa5a778790c9f068adbb9a27b60001b615d84565b6188b07f2584e812dd04a0a0e8966a7ee4794fdc3fc8a5e9dce237b01c7ae40f6ba23dde60001b615d84565b818111618925576040517f08c379a00000000000000000000000000000000000000000000000000000000081526004018080602001828103825260168152602001807f45524332303a20737570706c79206f766572666c6f770000000000000000000081525060200191505060405180910390fd5b6189517f4c0069d08618115e634c0ff1ab1273e8e320c2625aa681c25d1b87ca0d15986860001b615d84565b61897d7f8d5bb9aef1abe3283bffd982c0b4c0b4fe8f850b005d1697ad196c4263ca0a6460001b615d84565b6189a97fc02839d7b6eee98759e46fd1e47dd65e3e29a676791986b82041e93229c7c5bf60001b615d84565b806007819055506189dc7f51fd9fb59a56dc5dc60d62252e187693c3304b53a43c23ca43d1d2bd429c80c160001b615d84565b618a077eb868e89da87d584c6d741c3aae80e8f468b98c014756c0e9b124031c92daa660001b615d84565b82600560008673ffffffffffffffffffffffffffffffffffffffff1673ffffffffffffffffffffffffffffffffffffffff1681526020019081526020016000206000828254019250508190555050618a87565b618a867f5d9cfc507202f97e8b42e3b8b3733e40f2c64b542644fb85bf599f728fdffdef60001b615d84565b5b618ab37f1bc3e64b33d009d7bf99e710225b15088c2b670eb2cb17d687597134a599f26560001b615d84565b618adf7f20ada884d60ad72ebc01a32582d33a1b82945852b6c42d6573170cb572c362fa60001b615d84565b8273ffffffffffffffffffffffffffffffffffffffff16600073ffffffffffffffffffffffffffffffffffffffff167fddf252ad1be2c89b69c2b068fc378daa952ba7f163c4a11628f55a4df523b3ef846040518082815260200191505060405180910390a3505050565b618b767f16ec6d39a235b9fffc209ed28ef071db35a825c8b54af5a60e59844729e0c97d60001b615d84565b618ba27fff5c9e0af4f7bd0e0e4e11cf8069b2774878b3f3cc4a48d29351fdaab318b4ee60001b615d84565b618bce7f9de3e5380489a91b49b26f21a972b0ef8ec59c84add313c61f1ed97c37a862e660001b615d84565b60008114618f2d57618c027fa9ba50f2d224ebe8294b7c3e47c381bd8bd4dc44a8b5dce8ffb4a4dea285a91e60001b615d84565b618c2e7f3e499e616bbe9540915c45e0f3ea0ef217b5f57eb56079955ee50bb9cb319c0a60001b615d84565b618c5a7f0cdae40b29605d06b58779a3386c1a0fc385337c888ac40ab32b7a371b4a530560001b615d84565b6000600560008473ffffffffffffffffffffffffffffffffffffffff1673ffffffffffffffffffffffffffffffffffffffff168152602001908152602001600020549050618cca7f2d9c8098d997f2e559057bfd11fd94c74f017b88abc03481559545b836d2912960001b615d84565b618cf67fae7472c0519ed339d0f926e3b529bd4bf01fa027d9c50336f5ed1588623d1a2f60001b615d84565b60008282039050618d297f2061958a39d8e201116c9cf78a5f76a3144cfc03e4468ddaacd44cd8c37de13360001b615d84565b618d557f4f26ffd7a817427faccee27294c585bdf1e3cabfffcb2cdb307e53e80d38090a60001b615d84565b618d817f8d420d6b9143e9ead5b593d082cfc46f2c93b551cc1aaa33d0a280337888be2e60001b615d84565b818110618df6576040517f08c379a000000000000000000000000000000000000000000000000000000000815260040180806020018281038252601b8152602001807f45524332303a20696e73756666696369656e742062616c616e6365000000000081525060200191505060405180910390fd5b618e227f08d9bafd53747000ee9749fc436aa1ee5336f8db522b42286883b6edd2d090f060001b615d84565b618e4e7f3a7ff9d5ad27af4ec6eaa0f45d25b58a6e782326696aa6db07828a85fce14f9560001b615d84565b618e7a7fb6a61e293b06ee5f1d2318a5a81af4b79e1710d1ad58760b6f5d808274fe77dc60001b615d84565b80600560008673ffffffffffffffffffffffffffffffffffffffff1673ffffffffffffffffffffffffffffffffffffffff16815260200190815260200160002081905550618eea7f5dc65e07d6eb2c772e85fedd74af2c8967652e353ebef180bf490dc52df5e1ae60001b615d84565b618f167fffb1ff6618e1c6ec38dc01b2914d00be4ba7bfe4de453572d4ba90a6f757aa8860001b615d84565b826007600082825403925050819055505050618f5a565b618f597f65cb1a50361cd714935e8cfab016cfebbc5d2fd27558a3fe6b4addd5520f02a960001b615d84565b5b618f867fdbd1d96c0478ff7c23251150867e000acf7b1278c046b204cc76429a38680f8f60001b615d84565b618fb27f8c8aa4665435b3ffc202bbb2b7602b94b1f934288ee90bd6fa58fd78c6a9787860001b615d84565b600073ffffffffffffffffffffffffffffffffffffffff168273ffffffffffffffffffffffffffffffffffffffff167fddf252ad1be2c89b69c2b068fc378daa952ba7f163c4a11628f55a4df523b3ef836040518082815260200191505060405180910390a35050565b6190487ff99b5db63b23ae132ce2d9693f1b5f3599104065dd4d1982cf375de8ee31f0b260001b615d84565b6190747fb023caacdcda4dd892407686e5fc2b9d5592553fcb66641b57b76abe9274407760001b615d84565b6190a07f082922920edcbfe0a7a82b8fe174a78faef5767c021d49e4c0ec2ee4bd0a6e1b60001b615d84565b6000600660008573ffffffffffffffffffffffffffffffffffffffff1673ffffffffffffffffffffffffffffffffffffffff16815260200190815260200160002060008473ffffffffffffffffffffffffffffffffffffffff1673ffffffffffffffffffffffffffffffffffffffff16815260200190815260200160002054905061914d7f92ac343592c3973c35f224f71761cd47d5b8068ad929cbc5a207e3c60ac8567960001b615d84565b6191797fd74da7d160d97f0a0146e3991225fb0bf9d405f9ca7fbf66c4e7ad23759f397660001b615d84565b7fffffffffffffffffffffffffffffffffffffffffffffffffffffffffffffffff81141580156191aa575060008214155b15619499576191db7f86998b663ea0b8b636a3fcb2e43dc0c2f6f3d385b0c066521b2d963abbae1f9d60001b615d84565b6192077fbc404a18bcd1277ec4a7d1b6a0b7ef610ca0dbe4091a58c3e94e9ab18dcb046960001b615d84565b6192337f2df42e005c132176ebe0e5053f5b2190a72742e6b631101113e0f97c5bd77e6860001b615d84565b600082820390506192667f7c02f5e7a1be51e1321664da88e19f9ec87869ac92311d4d0e11785d6229a88060001b615d84565b6192927ffb405f6552850a1e58e84c996200c5d1978072e6307a16f0378912c6c9c4a09c60001b615d84565b6192be7f03c93d54a41183af10819cc67bb24cc6b2da76f90b7dc57cd5aaa7048d7f1bbe60001b615d84565b818110619333576040517f08c379a000000000000000000000000000000000000000000000000000000000815260040180806020018281038252601d8152602001807f45524332303a20696e73756666696369656e7420616c6c6f77616e636500000081525060200191505060405180910390fd5b61935f7f06d5583d8cd101730bb53259769beeb9efb84976766c6e831a4845d4d4380f5d60001b615d84565b61938b7f3f8d656389c19250a800e7e298eadbfd55e9ace423c3e07739a3bce4fc83d9fd60001b615d84565b6193b77f605e589315c7501a4e79ffc5d059cf6b2b47e1469e98b239c94ddf6fe576636e60001b615d84565b80600660008773ffffffffffffffffffffffffffffffffffffffff1673ffffffffffffffffffffffffffffffffffffffff16815260200190815260200160002060008673ffffffffffffffffffffffffffffffffffffffff1673ffffffffffffffffffffffffffffffffffffffff168152602001908152602001600020819055506194647f53fa81b0076633286075ce7087d16c15adb776bb9d2f4480d79dbf37972286ce60001b615d84565b6194907f1b4f86fea707edd7bbd46efaf931b75994ddd555bf60663c8d6baae8e529cb7e60001b615d84565b809150506194c6565b6194c57f7493047b75d189d3c2e5063cb9a908d35771cd0bbe8a9a6abcefc82dd091081e60001b615d84565b5b6194f27f73f8c9e8c936dbadaa80377c502f23e4c24fec1a540aa61bead67abce63e36cc60001b615d84565b61951e7f093a8589f6a648180a84cd7501eafe145f2c809104c0ef8079af339d4b11850960001b615d84565b8273ffffffffffffffffffffffffffffffffffffffff168473ffffffffffffffffffffffffffffffffffffffff167f8c5be1e5ebec7d5bd14f71427d1e84f3dd0314c0f7b2291e5b200ac8c7c3b925836040518082815260200191505060405180910390a350505050565b6195b57f20fc3a3025e46ba68506603cf55a8ab7589421dc8cc9acd80bdc1e6ae81f05c460001b615d84565b6195e17fba9abe6a98cdc1f94ba4e225b482fd128eb20d7d06898ce3fcfc5f502d9d1b0860001b615d84565b61960d7f3ba48f63ffe8b5ccfb3d0838ad68ca5a11190b8c7f2a437b94073bebc146687c60001b615d84565b60008251905061963f7fcffebafbf9e4663757c3f9bd87018bcf88449b7964c7f65690af35a583373be960001b615d84565b61966b7f536085bfab79c3adf33b0b3d83d9783b283121e3905692cb791e7cdb4e9307a260001b615d84565b6196977f28a09ac6290879af2293f0fbcebda75f1387155822a9e3d43f7d7227943b292960001b615d84565b8151811461970d576040517f08c379a000000000000000000000000000000000000000000000000000000000815260040180806020018281038252601a8152602001807f45524332303a20696e636f6e73697374656e742061727261797300000000000081525060200191505060405180910390fd5b6197397f4f30f646ddddb494189e6910f6792e9e86625ce13475948614bd943ef381721560001b615d84565b6197657fd8ef06c94df637ec3f9113c7a73da0f5f512d8f8fd38f37902fe6be519cff0ab60001b615d84565b6197917f80d539030dd34f2eb0d37883a4ecfe160d66aae6c9626aad2973cd90572ca22160001b615d84565b60006197bf7f1b3654878968e204d754e0a487961a65282ab1dce5a0526be95c49f0b2756b4f60001b615d84565b6197eb7fddd11b869e300f1c3a8c38881b13af11f9349d9483da72e8db7d9b21d9379a5460001b615d84565b60005b828114619e36576198217f554ae65dece2c41c56ba42dd945a857d5ce2ad3847acb3f531b5ec48aaefa2e660001b615d84565b61984d7f248219498dcb66ef28903989e639a6de2182f75180726d5bcd0fbd3778731fdf60001b615d84565b600085828151811061985b57fe5b602002602001015190506198917f32c034bd3455704f3783113d545a7ab7dbe141c0501bc8bd361c5ce7d5957f5a60001b615d84565b6198bd7f08a2e445ee1d9bf21680de1ec5c4c2cc4bafbe808661464ed3897c1539dcf3c860001b615d84565b6198e97fe7750c41b5b900f1393ad6711460fd1bb15fae5128017093d43fc2dec50449ff60001b615d84565b600073ffffffffffffffffffffffffffffffffffffffff168173ffffffffffffffffffffffffffffffffffffffff16141561998c576040517f08c379a00000000000000000000000000000000000000000000000000000000081526004018080602001828103825260138152602001807f45524332303a207a65726f20616464726573730000000000000000000000000081525060200191505060405180910390fd5b6199b87fd1ab9a79035ce45704c7580e6d0a24e156e52d6245a0928d24b3a00dd9f1a8ff60001b615d84565b6199e47f3421be204182a90b101c1d4be8b936b071e75bffbbbc91fc85bab45aa6e3192660001b615d84565b619a107f59e6a4d533dce51cf4484487e0b92903d0780a5377b28a65f49f84e6658c83ae60001b615d84565b6000858381518110619a1e57fe5b60200260200101519050619a547fc2c40173c340c7fa464da1bb0224fd8d05c1d3e8231a6c7df88ee9096808bcd360001b615d84565b619a807fbbe8dea263cea70d1629ed86c54e6475a6bde4fc7a2e475664247cb68f97326560001b615d84565b60008114619d3e57619ab47f918047cdef3cbeae26152c625941fe68f100821b3d592678f8fc073d17ac1bba60001b615d84565b619ae07fad2185a253d17741595df38ff3aa658d6f512195ec20834724c455b43a17844860001b615d84565b619b0c7faafc7c9fab73064c7f704e57ab8a392c8d68581d5956073c5c1a19608f95a12860001b615d84565b60008185019050619b3f7f7fb926d15eb74ada58463bb7b8465664548a47d7dedc379af5ac974dcc974f1660001b615d84565b619b6b7f65b39fea598a03fb39e80c488a4f4b2039c9332952aceb58211351459b6796f560001b615d84565b619b977fbe9a7c48aadf276ca12582a73255f836be03e56d19d1431ea228f7c8cc8dc90660001b615d84565b848111619c0c576040517f08c379a00000000000000000000000000000000000000000000000000000000081526004018080602001828103825260168152602001807f45524332303a2076616c756573206f766572666c6f770000000000000000000081525060200191505060405180910390fd5b619c387f4eada8eb3370e0ffab5b6480c9f708ff38f9f7d5e9ce173fc491bc174fbcabab60001b615d84565b619c647fcc9df20e360e0c354d314f6c355a7d77f27351b25843d3a363d282afdc6688b160001b615d84565b619c907fc738a37396cb337512ad461fbba31a6d7edd4803389b35cad465b3143ac6a99c60001b615d84565b809450619cbf7f5a1570ab7171545ced0efed1dcd550e352ae069952e06fa0c8031a7ee055cc0b60001b615d84565b619ceb7ff5706860fcd71ae977a4419e8637de134112a93b9e8e6ea0232f43fca41935dd60001b615d84565b81600560008573ffffffffffffffffffffffffffffffffffffffff1673ffffffffffffffffffffffffffffffffffffffff1681526020019081526020016000206000828254019250508190555050619d6b565b619d6a7fe46f076c769a75777f187475ecebc8fde86e2263520863db7d61261ba876d47360001b615d84565b5b619d977f57bd54e293dcbc8aaa34547ffd71546e2054d69a2652ebb36c08ee6951fdf28660001b615d84565b619dc37f291fb6e70d34689648ea6276e18abccbe359700acac4e46d2dfa59fb680947e660001b615d84565b8173ffffffffffffffffffffffffffffffffffffffff16600073ffffffffffffffffffffffffffffffffffffffff167fddf252ad1be2c89b69c2b068fc378daa952ba7f163c4a11628f55a4df523b3ef836040518082815260200191505060405180910390a350508060010190506197ee565b50619e637fa3192109964a953eddcded1124c212145fdfc6191b449e292afeec0c6724bd9c60001b615d84565b619e8f7fe3a3c92252356f4da6b5a5856b6ff25f8912015c3e64a498716da6cefe3f985e60001b615d84565b6000811461a10c57619ec37fb4a3a3630c0c9767f60c5c1c80db2cf3410300342ce9836e8884d31d5b94b95060001b615d84565b619eef7fd554ec3cb88eb40c74c6daba4a5c78c2deb776e0224a69d15f7ff4ba7db3e30160001b615d84565b619f1b7fc4c4b7fccd54e59915f5bbc138504538f30e4478f364df05e33da7049d6d63ea60001b615d84565b60006007549050619f4e7fabac5bdfda460ff7318f2f227a8e332fae4d305960f530c989e339c6164c375e60001b615d84565b619f7a7fc31f9794bfc938e6743f55edafa3bfc4803ae39f0872e8a6610b484fba95cb3a60001b615d84565b60008282019050619fad7f9b5b5e0770170c858dd9a83af0a8caf5a29bff4120ec57930939f9660e94797360001b615d84565b619fd97f513ef81a9b5da7e778533e59a53984765117fe9028a88b0d605772b90bcbd84f60001b615d84565b61a0057f3105da534cf8b8cc1d35308d92775b113eff17c2459205aa8eb5998313ef17de60001b615d84565b81811161a07a576040517f08c379a00000000000000000000000000000000000000000000000000000000081526004018080602001828103825260168152602001807f45524332303a20737570706c79206f766572666c6f770000000000000000000081525060200191505060405180910390fd5b61a0a67fb1db0c6c18210b5bd4dac396c547d7e9b4b77f74bffca52402ca421f94bc233160001b615d84565b61a0d27f94cd230bf64d3d479ecba3ff2381c227c58cab061fa582c21118a27b4ef0074460001b615d84565b61a0fe7f8ac8cf9bf4101a974552ce734d9d12bd2ec82a8c628b0cf73c77197054a93e9960001b615d84565b80600781905550505061a139565b61a1387f534874bb5c95905b6710526d9e5b9bbf9bf55c670ea3b24c7f154f0bd264d54d60001b615d84565b5b50505050565b61a1dc8363a9059cbb60e01b8484604051602401808373ffffffffffffffffffffffffffffffffffffffff16815260200182815260200192505050604051602081830303815290604052907bffffffffffffffffffffffffffffffffffffffffffffffffffffffff19166020820180517bffffffffffffffffffffffffffffffffffffffffffffffffffffffff838183161783525050505061af2b565b505050565b61a20d7fff49898f80a30d77c9f345a3996de6c6fba1b7d757113915a78c585e77281a9360001b615d84565b61a2397f4f4e4f9b2acec44e99c19116329b1ea230ee2b28def5f6788afff76fddb9583160001b615d84565b61a2657fdbab1bcadcc49e1b4d33e64c906ae5f2c1d40a25d9f7781738729b96bf1de04760001b615d84565b61a2917f83ffaee7167fe181ce23f97daec79f82691ab60f77d0bf2e592fa6cf6e987e7a60001b615d84565b600073ffffffffffffffffffffffffffffffffffffffff168273ffffffffffffffffffffffffffffffffffffffff16141561a334576040517f08c379a00000000000000000000000000000000000000000000000000000000081526004018080602001828103825260168152602001807f45524332303a20746f207a65726f20616464726573730000000000000000000081525060200191505060405180910390fd5b61a3607f118d930754eade37480b405f0597e74771a2f601ff77b663444765c86c94a93360001b615d84565b61a38c7f51cceddc9b2e3d681de06115556721d34124a9343c4bc95b684d6d6e1ea6e60c60001b615d84565b61a3b87f27a9b5d9dd34e7ed53363d1231920e5110e72beeb44125ccc1fb7158b1a8895d60001b615d84565b6000811461a83d5761a3ec7fb0d0a6bf954d768cbdf1ccaa58ba7704019d6588825206222c96e5d10d89fab660001b615d84565b61a4187fe1c90ff13395bff137b61ab3472a4a8c2b1b3e125730b4cf844d722f759b825b60001b615d84565b61a4447f0c057d6eac771901994741cd9d70d51d97bb95915081eb20f992c36cd63a01f360001b615d84565b6000600560008573ffffffffffffffffffffffffffffffffffffffff1673ffffffffffffffffffffffffffffffffffffffff16815260200190815260200160002054905061a4b47f6f6fd6d0801ba56716a98631f97541e450f969547efc4b305082ea0e754db78660001b615d84565b61a4e07f9bae911a66df7d66493affbc76ffb6c90e53a7cc400bfc69a7c3e76398ba036c60001b615d84565b6000828203905061a5137faa9e0aa90b4672b3f490a2da8e06cce762a6b79a2cd8b7d030f1c48cda3ef4aa60001b615d84565b61a53f7f20ee195d157df5e893feee2c1da9b7bd5bd68189605ff617e8c183103bb3cd0160001b615d84565b61a56b7f256a346509d0bf070c259d4197da19dac82b843012ef416521e996af2c60bdf260001b615d84565b81811061a5e0576040517f08c379a000000000000000000000000000000000000000000000000000000000815260040180806020018281038252601b8152602001807f45524332303a20696e73756666696369656e742062616c616e6365000000000081525060200191505060405180910390fd5b61a60c7f494357999c9e810bdca7c229a50560a0c01ffeb81e29ddc165df8217e472ac3460001b615d84565b61a6387f7cd81a18ecec675125d8a19af62a2e3ba2d6e7688b30d1a67451548887b8992960001b615d84565b61a6647fde771b1531b2a17d0feee400c0f1af9980d6c77b4c821ac30d7a35c2c8a905ca60001b615d84565b8373ffffffffffffffffffffffffffffffffffffffff168573ffffffffffffffffffffffffffffffffffffffff161461a8095761a6c37fc9fc90f82b8f30aef183b526a4262d023efab0f5ffbcaefec3bd2750f3a9515a60001b615d84565b61a6ef7fe005b4341d199d8af8c365aa0ec08f092a0d04370966d91efb0ddb73eb44b9f160001b615d84565b61a71b7fda851ba0e7329324a5bc36d8d5b41645885d3cf2b7b6af455f01643fc459385260001b615d84565b80600560008773ffffffffffffffffffffffffffffffffffffffff1673ffffffffffffffffffffffffffffffffffffffff1681526020019081526020016000208190555061a78b7f1690237079c96f6ae8de010a2af40104ad47ba4e3b3b509900589a22ae55b3eb60001b615d84565b61a7b77f5d00d57eaf4c06a2330f32757d3ba57915e18161e85f3b995a080f7b53eb43e860001b615d84565b82600560008673ffffffffffffffffffffffffffffffffffffffff1673ffffffffffffffffffffffffffffffffffffffff1681526020019081526020016000206000828254019250508190555061a836565b61a8357fdc9d312b84a5538df7caac311e5a3c55a179393df709253a31e3a461774be6c560001b615d84565b5b505061a86a565b61a8697fe42ce0c652f87596e3c969fc67107d1c8b0f78e056b94b8c6aadaf907a2c56cd60001b615d84565b5b61a8967f196a991ef67288d5cb1a3eec700dba264267badd43f53b65be2be344bb40910760001b615d84565b61a8c27fd0dad3c818209e7d3c956bddecd7e6f5d6de4265991b896bef1a527ee45a995860001b615d84565b8173ffffffffffffffffffffffffffffffffffffffff168373ffffffffffffffffffffffffffffffffffffffff167fddf252ad1be2c89b69c2b068fc378daa952ba7f163c4a11628f55a4df523b3ef836040518082815260200191505060405180910390a3505050565b600080823b905060008111915050919050565b61a96b7f87b991be8c160eaca060d7391eb225b2f8428e3b353e744c5c8cd09cea98d59360001b613c69565b61a9977f17c32469c18ca7916727b7fbfc178f7bcd00aeb536aa35234fe8f7c800c38fc960001b613c69565b61a9c37f7b35be467117699b440bf46a6bab6c9abfdbcf6ccf398735a1bb8c6e2145614360001b613c69565b61a9ef7fb26fb7a464d1a88fd858b9c8d9c4069620dfefa10510e238c8e42a2cea28116860001b613c69565b600860009054906101000a900473ffffffffffffffffffffffffffffffffffffffff1673ffffffffffffffffffffffffffffffffffffffff168173ffffffffffffffffffffffffffffffffffffffff161461aab2576040517f08c379a000000000000000000000000000000000000000000000000000000000815260040180806020018281038252601a8152602001807f4368696c6445524332303a206f6e6c79206465706f7369746f7200000000000081525060200191505060405180910390fd5b61aade7f593276b853b06fd8226707a09a915c7542e982f7bb245e0b9b4fe7a1e29deecf60001b613c69565b50565b600061ab0f7f70175aa26ed068cc8b4cfdd7db93c0a4ee3e90f5b2f8e31722ce78b1b01f7de260001b614033565b61ab3b7f3cf2ee26dd76f58b70d0de4bd1d0fa2cba377079fcb9502a5376f3c6b8f4cfdc60001b614033565b61ab677fc39f068a10c581d46dc57428a46c341a332e7ce583169ce4d171f498592f146760001b614033565b7f20c07ed1000000000000000000000000000000000000000000000000000000007bffffffffffffffffffffffffffffffffffffffffffffffffffffffff1916827bffffffffffffffffffffffffffffffffffffffffffffffffffffffff1916148061abd8575061abd78261b1b0565b5b9050919050565b600061ac0d7f4aead0431af464ed359c1fca782986ae937af6ce96b51fe54d7440b7c518e7bb60001b616fc3565b61ac397f791d8748ac4e5b6ec667874d4f5fd87debd1455046fff3de15fecd4ac4b1490b60001b616fc3565b61ac657faf84bf9126eaf24c0be5155e3825aafe21273ebafda70717b153e187aeb7642660001b616fc3565b7f01ffc9a7000000000000000000000000000000000000000000000000000000007bffffffffffffffffffffffffffffffffffffffffffffffffffffffff1916827bffffffffffffffffffffffffffffffffffffffffffffffffffffffff1916148061ad2e57507f4fc35859000000000000000000000000000000000000000000000000000000007bffffffffffffffffffffffffffffffffffffffffffffffffffffffff1916827bffffffffffffffffffffffffffffffffffffffffffffffffffffffff1916145b9050919050565b600080339050600061ad4561b576565b90507f000000000000000000000000000000000000000000000000000000000000000073ffffffffffffffffffffffffffffffffffffffff168273ffffffffffffffffffffffffffffffffffffffff16148061adec57507f000000000000000000000000000000000000000000000000000000000000000073ffffffffffffffffffffffffffffffffffffffff168273ffffffffffffffffffffffffffffffffffffffff16145b1561adfb57809250505061af28565b3273ffffffffffffffffffffffffffffffffffffffff168273ffffffffffffffffffffffffffffffffffffffff161415801561af1357507f000000000000000000000000000000000000000000000000000000000000000073ffffffffffffffffffffffffffffffffffffffff1663e60125d682846040518363ffffffff1660e01b8152600401808373ffffffffffffffffffffffffffffffffffffffff1681526020018273ffffffffffffffffffffffffffffffffffffffff1681526020019250505060206040518083038186803b15801561aed757600080fd5b505afa15801561aeeb573d6000803e3d6000fd5b505050506040513d602081101561af0157600080fd5b81019080805190602001909291905050505b1561af2257809250505061af28565b81925050505b90565b600082905061af4f8173ffffffffffffffffffffffffffffffffffffffff1661a92c565b61afc1576040517f08c379a000000000000000000000000000000000000000000000000000000000815260040180806020018281038252601a8152602001807f4552433230577261707065723a206e6f6e2d636f6e747261637400000000000081525060200191505060405180910390fd5b6000808273ffffffffffffffffffffffffffffffffffffffff16846040518082805190602001908083835b6020831061b00f578051825260208201915060208101905060208303925061afec565b6001836020036101000a0380198251168184511680821785525050505050509050019150506000604051808303816000865af19150503d806000811461b071576040519150601f19603f3d011682016040523d82523d6000602084013e61b076565b606091505b5091509150811561b12857600081511461b1235780806020019051602081101561b09f57600080fd5b810190808051906020019092919050505061b122576040517f08c379a000000000000000000000000000000000000000000000000000000000815260040180806020018281038252601e8152602001807f4552433230577261707065723a206f7065726174696f6e206661696c6564000081525060200191505060405180910390fd5b5b61b1a9565b60008151141561b1a0576040517f08c379a000000000000000000000000000000000000000000000000000000000815260040180806020018281038252601e8152602001807f4552433230577261707065723a206f7065726174696f6e206661696c6564000081525060200191505060405180910390fd5b80518082602001fd5b5050505050565b600061b1de7f7a1bc57c10d0bbae1f1a3f16b770268a82ad94c49919dab644bed2b3ce2b025d60001b615d84565b61b20a7f2d5abdf91acc4d34e6057bf09e528e12d964ec109939d0d47b31fe74ccbec69060001b615d84565b61b2367f2bab01eca99caccc6e7f0e7d0b79aa5ee530f36185ce48a4000477d9162fa50360001b615d84565b7f01ffc9a7000000000000000000000000000000000000000000000000000000007bffffffffffffffffffffffffffffffffffffffffffffffffffffffff1916827bffffffffffffffffffffffffffffffffffffffffffffffffffffffff1916148061b2ff57507f36372b07000000000000000000000000000000000000000000000000000000007bffffffffffffffffffffffffffffffffffffffffffffffffffffffff1916827bffffffffffffffffffffffffffffffffffffffffffffffffffffffff1916145b8061b36757507fa219a025000000000000000000000000000000000000000000000000000000007bffffffffffffffffffffffffffffffffffffffffffffffffffffffff1916827bffffffffffffffffffffffffffffffffffffffffffffffffffffffff1916145b8061b3cf57507f3c130d90000000000000000000000000000000000000000000000000000000007bffffffffffffffffffffffffffffffffffffffffffffffffffffffff1916827bffffffffffffffffffffffffffffffffffffffffffffffffffffffff1916145b8061b43757507f9d075186000000000000000000000000000000000000000000000000000000007bffffffffffffffffffffffffffffffffffffffffffffffffffffffff1916827bffffffffffffffffffffffffffffffffffffffffffffffffffffffff1916145b8061b49f57507fc05327e6000000000000000000000000000000000000000000000000000000007bffffffffffffffffffffffffffffffffffffffffffffffffffffffff1916827bffffffffffffffffffffffffffffffffffffffffffffffffffffffff1916145b8061b50757507f53f41a97000000000000000000000000000000000000000000000000000000007bffffffffffffffffffffffffffffffffffffffffffffffffffffffff1916827bffffffffffffffffffffffffffffffffffffffffffffffffffffffff1916145b8061b56f57507f9d8ff7da000000000000000000000000000000000000000000000000000000007bffffffffffffffffffffffffffffffffffffffffffffffffffffffff1916827bffffffffffffffffffffffffffffffffffffffffffffffffffffffff1916145b9050919050565b6000601436033560601c905090565b828054600181600116156101000203166002900490600052602060002090601f01602090048101928261b5bb576000855561b602565b82601f1061b5d457803560ff191683800117855561b602565b8280016001018555821561b602579182015b8281111561b60157823582559160200191906001019061b5e6565b5b50905061b60f919061b613565b5090565b5b8082111561b62c57600081600090555060010161b614565b509056fea26469706673582212209788e8c85971460b7c2c7e2fe59b99cbe88f69a42181de0c65bec401542cfa4b64736f6c63430007060033",
  "linkReferences": {},
  "deployedLinkReferences": {}
}