{
  "_format": "hh-sol-artifact-1",
  "contractName": "ERC1155721InventoryMock",
  "sourceName": "contracts/mocks/token/ERC1155721/ERC1155721InventoryMock.sol",
  "abi": [
    {
      "inputs": [
        {
          "internalType": "contract IForwarderRegistry",
          "name": "forwarderRegistry",
          "type": "address"
        },
        {
          "internalType": "address",
          "name": "universalForwarder",
          "type": "address"
        }
      ],
      "stateMutability": "nonpayable",
      "type": "constructor"
    },
    {
      "anonymous": false,
      "inputs": [
        {
          "indexed": true,
          "internalType": "address",
          "name": "_owner",
          "type": "address"
        },
        {
          "indexed": true,
          "internalType": "address",
          "name": "_approved",
          "type": "address"
        },
        {
          "indexed": true,
          "internalType": "uint256",
          "name": "_tokenId",
          "type": "uint256"
        }
      ],
      "name": "Approval",
      "type": "event"
    },
    {
      "anonymous": false,
      "inputs": [
        {
          "indexed": true,
          "internalType": "address",
          "name": "_owner",
          "type": "address"
        },
        {
          "indexed": true,
          "internalType": "address",
          "name": "_operator",
          "type": "address"
        },
        {
          "indexed": false,
          "internalType": "bool",
          "name": "_approved",
          "type": "bool"
        }
      ],
      "name": "ApprovalForAll",
      "type": "event"
    },
    {
      "anonymous": false,
      "inputs": [
        {
          "indexed": false,
          "internalType": "string",
          "name": "baseMetadataURI",
          "type": "string"
        }
      ],
      "name": "BaseMetadataURISet",
      "type": "event"
    },
    {
      "anonymous": false,
      "inputs": [
        {
          "indexed": true,
          "internalType": "uint256",
          "name": "collectionId",
          "type": "uint256"
        },
        {
          "indexed": true,
          "internalType": "bool",
          "name": "fungible",
          "type": "bool"
        }
      ],
      "name": "CollectionCreated",
      "type": "event"
    },
    {
      "anonymous": false,
      "inputs": [
        {
          "indexed": true,
          "internalType": "address",
          "name": "account",
          "type": "address"
        }
      ],
      "name": "MinterAdded",
      "type": "event"
    },
    {
      "anonymous": false,
      "inputs": [
        {
          "indexed": true,
          "internalType": "address",
          "name": "account",
          "type": "address"
        }
      ],
      "name": "MinterRemoved",
      "type": "event"
    },
    {
      "anonymous": false,
      "inputs": [
        {
          "indexed": true,
          "internalType": "address",
          "name": "previousOwner",
          "type": "address"
        },
        {
          "indexed": true,
          "internalType": "address",
          "name": "newOwner",
          "type": "address"
        }
      ],
      "name": "OwnershipTransferred",
      "type": "event"
    },
    {
      "anonymous": false,
      "inputs": [
        {
          "indexed": true,
          "internalType": "address",
          "name": "_from",
          "type": "address"
        },
        {
          "indexed": true,
          "internalType": "address",
          "name": "_to",
          "type": "address"
        },
        {
          "indexed": true,
          "internalType": "uint256",
          "name": "_tokenId",
          "type": "uint256"
        }
      ],
      "name": "Transfer",
      "type": "event"
    },
    {
      "anonymous": false,
      "inputs": [
        {
          "indexed": true,
          "internalType": "address",
          "name": "_operator",
          "type": "address"
        },
        {
          "indexed": true,
          "internalType": "address",
          "name": "_from",
          "type": "address"
        },
        {
          "indexed": true,
          "internalType": "address",
          "name": "_to",
          "type": "address"
        },
        {
          "indexed": false,
          "internalType": "uint256[]",
          "name": "_ids",
          "type": "uint256[]"
        },
        {
          "indexed": false,
          "internalType": "uint256[]",
          "name": "_values",
          "type": "uint256[]"
        }
      ],
      "name": "TransferBatch",
      "type": "event"
    },
    {
      "anonymous": false,
      "inputs": [
        {
          "indexed": true,
          "internalType": "address",
          "name": "_operator",
          "type": "address"
        },
        {
          "indexed": true,
          "internalType": "address",
          "name": "_from",
          "type": "address"
        },
        {
          "indexed": true,
          "internalType": "address",
          "name": "_to",
          "type": "address"
        },
        {
          "indexed": false,
          "internalType": "uint256",
          "name": "_id",
          "type": "uint256"
        },
        {
          "indexed": false,
          "internalType": "uint256",
          "name": "_value",
          "type": "uint256"
        }
      ],
      "name": "TransferSingle",
      "type": "event"
    },
    {
      "anonymous": false,
      "inputs": [
        {
          "indexed": false,
          "internalType": "string",
          "name": "_value",
          "type": "string"
        },
        {
          "indexed": true,
          "internalType": "uint256",
          "name": "_id",
          "type": "uint256"
        }
      ],
      "name": "URI",
      "type": "event"
    },
    {
      "inputs": [
        {
          "internalType": "address",
          "name": "account",
          "type": "address"
        }
      ],
      "name": "addMinter",
      "outputs": [],
      "stateMutability": "nonpayable",
      "type": "function"
    },
    {
      "inputs": [
        {
          "internalType": "address",
          "name": "to",
          "type": "address"
        },
        {
          "internalType": "uint256",
          "name": "tokenId",
          "type": "uint256"
        }
      ],
      "name": "approve",
      "outputs": [],
      "stateMutability": "nonpayable",
      "type": "function"
    },
    {
      "inputs": [
        {
          "internalType": "address",
          "name": "owner",
          "type": "address"
        },
        {
          "internalType": "uint256",
          "name": "id",
          "type": "uint256"
        }
      ],
      "name": "balanceOf",
      "outputs": [
        {
          "internalType": "uint256",
          "name": "",
          "type": "uint256"
        }
      ],
      "stateMutability": "view",
      "type": "function"
    },
    {
      "inputs": [
        {
          "internalType": "address",
          "name": "tokenOwner",
          "type": "address"
        }
      ],
      "name": "balanceOf",
      "outputs": [
        {
          "internalType": "uint256",
          "name": "",
          "type": "uint256"
        }
      ],
      "stateMutability": "view",
      "type": "function"
    },
    {
      "inputs": [
        {
          "internalType": "address[]",
          "name": "owners",
          "type": "address[]"
        },
        {
          "internalType": "uint256[]",
          "name": "ids",
          "type": "uint256[]"
        }
      ],
      "name": "balanceOfBatch",
      "outputs": [
        {
          "internalType": "uint256[]",
          "name": "",
          "type": "uint256[]"
        }
      ],
      "stateMutability": "view",
      "type": "function"
    },
    {
      "inputs": [],
      "name": "baseMetadataURI",
      "outputs": [
        {
          "internalType": "string",
          "name": "",
          "type": "string"
        }
      ],
      "stateMutability": "view",
      "type": "function"
    },
    {
      "inputs": [
        {
          "internalType": "address",
          "name": "to",
          "type": "address"
        },
        {
          "internalType": "uint256[]",
          "name": "nftIds",
          "type": "uint256[]"
        }
      ],
      "name": "batchMint",
      "outputs": [],
      "stateMutability": "nonpayable",
      "type": "function"
    },
    {
      "inputs": [
        {
          "internalType": "address",
          "name": "from",
          "type": "address"
        },
        {
          "internalType": "address",
          "name": "to",
          "type": "address"
        },
        {
          "internalType": "uint256[]",
          "name": "nftIds",
          "type": "uint256[]"
        }
      ],
      "name": "batchTransferFrom",
      "outputs": [],
      "stateMutability": "nonpayable",
      "type": "function"
    },
    {
      "inputs": [
        {
          "internalType": "uint256",
          "name": "nftId",
          "type": "uint256"
        }
      ],
      "name": "collectionOf",
      "outputs": [
        {
          "internalType": "uint256",
          "name": "",
          "type": "uint256"
        }
      ],
      "stateMutability": "pure",
      "type": "function"
    },
    {
      "inputs": [
        {
          "internalType": "uint256",
          "name": "collectionId",
          "type": "uint256"
        }
      ],
      "name": "createCollection",
      "outputs": [],
      "stateMutability": "nonpayable",
      "type": "function"
    },
    {
      "inputs": [
        {
          "internalType": "uint256",
          "name": "collectionId",
          "type": "uint256"
        }
      ],
      "name": "creator",
      "outputs": [
        {
          "internalType": "address",
          "name": "",
          "type": "address"
        }
      ],
      "stateMutability": "view",
      "type": "function"
    },
    {
      "inputs": [
        {
          "internalType": "uint256",
          "name": "tokenId",
          "type": "uint256"
        }
      ],
      "name": "getApproved",
      "outputs": [
        {
          "internalType": "address",
          "name": "",
          "type": "address"
        }
      ],
      "stateMutability": "view",
      "type": "function"
    },
    {
      "inputs": [
        {
          "internalType": "address",
          "name": "tokenOwner",
          "type": "address"
        },
        {
          "internalType": "address",
          "name": "operator",
          "type": "address"
        }
      ],
      "name": "isApprovedForAll",
      "outputs": [
        {
          "internalType": "bool",
          "name": "",
          "type": "bool"
        }
      ],
      "stateMutability": "view",
      "type": "function"
    },
    {
      "inputs": [
        {
          "internalType": "uint256",
          "name": "id",
          "type": "uint256"
        }
      ],
      "name": "isFungible",
      "outputs": [
        {
          "internalType": "bool",
          "name": "",
          "type": "bool"
        }
      ],
      "stateMutability": "pure",
      "type": "function"
    },
    {
      "inputs": [
        {
          "internalType": "address",
          "name": "",
          "type": "address"
        }
      ],
      "name": "isMinter",
      "outputs": [
        {
          "internalType": "bool",
          "name": "",
          "type": "bool"
        }
      ],
      "stateMutability": "view",
      "type": "function"
    },
    {
      "inputs": [
        {
          "internalType": "address",
          "name": "forwarder",
          "type": "address"
        }
      ],
      "name": "isTrustedForwarder",
      "outputs": [
        {
          "internalType": "bool",
          "name": "",
          "type": "bool"
        }
      ],
      "stateMutability": "view",
      "type": "function"
    },
    {
      "inputs": [
        {
          "internalType": "address",
          "name": "to",
          "type": "address"
        },
        {
          "internalType": "uint256",
          "name": "nftId",
          "type": "uint256"
        }
      ],
      "name": "mint",
      "outputs": [],
      "stateMutability": "nonpayable",
      "type": "function"
    },
    {
      "inputs": [],
      "name": "msgData",
      "outputs": [
        {
          "internalType": "bytes",
          "name": "ret",
          "type": "bytes"
        }
      ],
      "stateMutability": "view",
      "type": "function"
    },
    {
      "inputs": [],
      "name": "name",
      "outputs": [
        {
          "internalType": "string",
          "name": "",
          "type": "string"
        }
      ],
      "stateMutability": "view",
      "type": "function"
    },
    {
      "inputs": [],
      "name": "owner",
      "outputs": [
        {
          "internalType": "address",
          "name": "",
          "type": "address"
        }
      ],
      "stateMutability": "view",
      "type": "function"
    },
    {
      "inputs": [
        {
          "internalType": "uint256",
          "name": "nftId",
          "type": "uint256"
        }
      ],
      "name": "ownerOf",
      "outputs": [
        {
          "internalType": "address",
          "name": "",
          "type": "address"
        }
      ],
      "stateMutability": "view",
      "type": "function"
    },
    {
      "inputs": [
        {
          "internalType": "address[]",
          "name": "accounts",
          "type": "address[]"
        },
        {
          "internalType": "address[]",
          "name": "tokens",
          "type": "address[]"
        },
        {
          "internalType": "uint256[]",
          "name": "amounts",
          "type": "uint256[]"
        }
      ],
      "name": "recoverERC20s",
      "outputs": [],
      "stateMutability": "nonpayable",
      "type": "function"
    },
    {
      "inputs": [
        {
          "internalType": "address[]",
          "name": "accounts",
          "type": "address[]"
        },
        {
          "internalType": "address[]",
          "name": "contracts",
          "type": "address[]"
        },
        {
          "internalType": "uint256[]",
          "name": "tokenIds",
          "type": "uint256[]"
        }
      ],
      "name": "recoverERC721s",
      "outputs": [],
      "stateMutability": "nonpayable",
      "type": "function"
    },
    {
      "inputs": [],
      "name": "renounceMinter",
      "outputs": [],
      "stateMutability": "nonpayable",
      "type": "function"
    },
    {
      "inputs": [
        {
          "internalType": "address",
          "name": "to",
          "type": "address"
        },
        {
          "internalType": "uint256[]",
          "name": "ids",
          "type": "uint256[]"
        },
        {
          "internalType": "uint256[]",
          "name": "values",
          "type": "uint256[]"
        },
        {
          "internalType": "bytes",
          "name": "data",
          "type": "bytes"
        }
      ],
      "name": "safeBatchMint",
      "outputs": [],
      "stateMutability": "nonpayable",
      "type": "function"
    },
    {
      "inputs": [
        {
          "internalType": "address",
          "name": "from",
          "type": "address"
        },
        {
          "internalType": "address",
          "name": "to",
          "type": "address"
        },
        {
          "internalType": "uint256[]",
          "name": "ids",
          "type": "uint256[]"
        },
        {
          "internalType": "uint256[]",
          "name": "values",
          "type": "uint256[]"
        },
        {
          "internalType": "bytes",
          "name": "data",
          "type": "bytes"
        }
      ],
      "name": "safeBatchTransferFrom",
      "outputs": [],
      "stateMutability": "nonpayable",
      "type": "function"
    },
    {
      "inputs": [
        {
          "internalType": "address[]",
          "name": "recipients",
          "type": "address[]"
        },
        {
          "internalType": "uint256[]",
          "name": "ids",
          "type": "uint256[]"
        },
        {
          "internalType": "uint256[]",
          "name": "values",
          "type": "uint256[]"
        },
        {
          "internalType": "bytes",
          "name": "data",
          "type": "bytes"
        }
      ],
      "name": "safeDeliver",
      "outputs": [],
      "stateMutability": "nonpayable",
      "type": "function"
    },
    {
      "inputs": [
        {
          "internalType": "address",
          "name": "to",
          "type": "address"
        },
        {
          "internalType": "uint256",
          "name": "id",
          "type": "uint256"
        },
        {
          "internalType": "uint256",
          "name": "value",
          "type": "uint256"
        },
        {
          "internalType": "bytes",
          "name": "data",
          "type": "bytes"
        }
      ],
      "name": "safeMint",
      "outputs": [],
      "stateMutability": "nonpayable",
      "type": "function"
    },
    {
      "inputs": [
        {
          "internalType": "address",
          "name": "to",
          "type": "address"
        },
        {
          "internalType": "uint256",
          "name": "nftId",
          "type": "uint256"
        },
        {
          "internalType": "bytes",
          "name": "data",
          "type": "bytes"
        }
      ],
      "name": "safeMint",
      "outputs": [],
      "stateMutability": "nonpayable",
      "type": "function"
    },
    {
      "inputs": [
        {
          "internalType": "address",
          "name": "from",
          "type": "address"
        },
        {
          "internalType": "address",
          "name": "to",
          "type": "address"
        },
        {
          "internalType": "uint256",
          "name": "nftId",
          "type": "uint256"
        }
      ],
      "name": "safeTransferFrom",
      "outputs": [],
      "stateMutability": "nonpayable",
      "type": "function"
    },
    {
      "inputs": [
        {
          "internalType": "address",
          "name": "from",
          "type": "address"
        },
        {
          "internalType": "address",
          "name": "to",
          "type": "address"
        },
        {
          "internalType": "uint256",
          "name": "nftId",
          "type": "uint256"
        },
        {
          "internalType": "bytes",
          "name": "data",
          "type": "bytes"
        }
      ],
      "name": "safeTransferFrom",
      "outputs": [],
      "stateMutability": "nonpayable",
      "type": "function"
    },
    {
      "inputs": [
        {
          "internalType": "address",
          "name": "from",
          "type": "address"
        },
        {
          "internalType": "address",
          "name": "to",
          "type": "address"
        },
        {
          "internalType": "uint256",
          "name": "id",
          "type": "uint256"
        },
        {
          "internalType": "uint256",
          "name": "value",
          "type": "uint256"
        },
        {
          "internalType": "bytes",
          "name": "data",
          "type": "bytes"
        }
      ],
      "name": "safeTransferFrom",
      "outputs": [],
      "stateMutability": "nonpayable",
      "type": "function"
    },
    {
      "inputs": [
        {
          "internalType": "address",
          "name": "operator",
          "type": "address"
        },
        {
          "internalType": "bool",
          "name": "approved",
          "type": "bool"
        }
      ],
      "name": "setApprovalForAll",
      "outputs": [],
      "stateMutability": "nonpayable",
      "type": "function"
    },
    {
      "inputs": [
        {
          "internalType": "string",
          "name": "baseMetadataURI_",
          "type": "string"
        }
      ],
      "name": "setBaseMetadataURI",
      "outputs": [],
      "stateMutability": "nonpayable",
      "type": "function"
    },
    {
      "inputs": [
        {
          "internalType": "bytes4",
          "name": "interfaceId",
          "type": "bytes4"
        }
      ],
      "name": "supportsInterface",
      "outputs": [
        {
          "internalType": "bool",
          "name": "",
          "type": "bool"
        }
      ],
      "stateMutability": "view",
      "type": "function"
    },
    {
      "inputs": [],
      "name": "symbol",
      "outputs": [
        {
          "internalType": "string",
          "name": "",
          "type": "string"
        }
      ],
      "stateMutability": "view",
      "type": "function"
    },
    {
      "inputs": [
        {
          "internalType": "uint256",
          "name": "nftId",
          "type": "uint256"
        }
      ],
      "name": "tokenURI",
      "outputs": [
        {
          "internalType": "string",
          "name": "",
          "type": "string"
        }
      ],
      "stateMutability": "view",
      "type": "function"
    },
    {
      "inputs": [
        {
          "internalType": "uint256",
          "name": "id",
          "type": "uint256"
        }
      ],
      "name": "totalSupply",
      "outputs": [
        {
          "internalType": "uint256",
          "name": "",
          "type": "uint256"
        }
      ],
      "stateMutability": "view",
      "type": "function"
    },
    {
      "inputs": [
        {
          "internalType": "address",
          "name": "from",
          "type": "address"
        },
        {
          "internalType": "address",
          "name": "to",
          "type": "address"
        },
        {
          "internalType": "uint256",
          "name": "nftId",
          "type": "uint256"
        }
      ],
      "name": "transferFrom",
      "outputs": [],
      "stateMutability": "nonpayable",
      "type": "function"
    },
    {
      "inputs": [
        {
          "internalType": "address",
          "name": "newOwner",
          "type": "address"
        }
      ],
      "name": "transferOwnership",
      "outputs": [],
      "stateMutability": "nonpayable",
      "type": "function"
    },
    {
      "inputs": [
        {
          "internalType": "uint256",
          "name": "id",
          "type": "uint256"
        }
      ],
      "name": "uri",
      "outputs": [
        {
          "internalType": "string",
          "name": "",
          "type": "string"
        }
      ],
      "stateMutability": "view",
      "type": "function"
    }
  ],
  "bytecode": "0x60c06040523480156200001157600080fd5b506040516200550a3803806200550a833981810160405260408110156200003757600080fd5b508051602091820151604080518082018252601781527f45524331313535373231496e76656e746f72794d6f636b0000000000000000008186015281518083018352600381526224a72b60e91b95810195909552600080546001600160a01b0319163390811782559251949593949293919286918691869182917f8be0079c531659141344cd1fd0a4f28419497f9722a3daafe3b4186f6b6457e0908290a3506001600160601b0319606091821b811660a05291901b1660805281516200010690600690602085019062000185565b5080516200011c90600790602084019062000185565b50505062000130816200013960201b60201c565b50505062000231565b6001600160a01b0381166000818152600b6020526040808220805460ff19166001179055517f6ae172837ea30b801fbfcdd4108aa1d5bf8ff775444fd70256b44e6bf3dfc3f69190a250565b828054600181600116156101000203166002900490600052602060002090601f016020900481019282620001bd576000855562000208565b82601f10620001d857805160ff191683800117855562000208565b8280016001018555821562000208579182015b8281111562000208578251825591602001919060010190620001eb565b50620002169291506200021a565b5090565b5b808211156200021657600081556001016200021b565b60805160601c60a05160601c61529162000279600039806119b3528061485e52806150405250806119ee528061482352806148b6528061501652806150a152506152916000f3fe608060405234801561001057600080fd5b50600436106102d25760003560e01c80637e518ec811610186578063bd85b039116100e3578063d0011d9d11610097578063f242432a11610071578063f242432a14611122578063f2fde38b146111ed578063f3993d1114611213576102d2565b8063d0011d9d14610f71578063e8ab9ccc14610f8e578063e985e9c5146110f4576102d2565b8063c4c2bfdc116100c8578063c4c2bfdc14610f2f578063c7778baa14610f37578063c87b56dd14610f54576102d2565b8063bd85b03914610dfe578063c3666c3614610e1b576102d2565b8063986502751161013a578063aa271e1a1161011f578063aa271e1a14610cf5578063adebf6f214610d1b578063b88d4fde14610d38576102d2565b80639865027514610cbf578063a22cb46514610cc7576102d2565b80638da5cb5b1161016b5780638da5cb5b14610c8957806395d89b4114610c91578063983b2d5614610c99576102d2565b80637e518ec814610b945780638832e6e314610c04576102d2565b806342842e0e116102345780635b2bd79e116101e85780636352211e116101cd5780636352211e14610a3d57806370a0823114610a5a57806373c8a95814610a80576102d2565b80635b2bd79e146109a95780635cfa9297146109b1576102d2565b80634e1273f4116102195780634e1273f414610854578063510b515814610966578063572b6c0514610983576102d2565b806342842e0e1461079e5780634684d7e9146107d4576102d2565b80630d6a5bbb1161028b57806323b872dd1161027057806323b872dd146105755780632eb2c2d6146105ab57806340c10f1914610772576102d2565b80630d6a5bbb146104345780630e89341c14610558576102d2565b806306fdde03116102bc57806306fdde0314610350578063081812fc146103cd578063095ea7b314610406576102d2565b8062fdd58e146102d757806301ffc9a714610315575b600080fd5b610303600480360360408110156102ed57600080fd5b506001600160a01b0381351690602001356112cf565b60408051918252519081900360200190f35b61033c6004803603602081101561032b57600080fd5b50356001600160e01b03191661139a565b604080519115158252519081900360200190f35b6103586113e0565b6040805160208082528351818301528351919283929083019185019080838360005b8381101561039257818101518382015260200161037a565b50505050905090810190601f1680156103bf5780820380516001836020036101000a031916815260200191505b509250505060405180910390f35b6103ea600480360360208110156103e357600080fd5b5035611477565b604080516001600160a01b039092168252519081900360200190f35b6104326004803603604081101561041c57600080fd5b506001600160a01b038135169060200135611516565b005b6104326004803603608081101561044a57600080fd5b6001600160a01b03823516919081019060408101602082013564010000000081111561047557600080fd5b82018360208201111561048757600080fd5b803590602001918460208302840111640100000000831117156104a957600080fd5b9193909290916020810190356401000000008111156104c757600080fd5b8201836020820111156104d957600080fd5b803590602001918460208302840111640100000000831117156104fb57600080fd5b91939092909160208101903564010000000081111561051957600080fd5b82018360208201111561052b57600080fd5b8035906020019184600183028401116401000000008311171561054d57600080fd5b509092509050611712565b6103586004803603602081101561056e57600080fd5b50356117cd565b6104326004803603606081101561058b57600080fd5b506001600160a01b038135811691602081013590911690604001356117d8565b610432600480360360a08110156105c157600080fd5b6001600160a01b0382358116926020810135909116918101906060810160408201356401000000008111156105f557600080fd5b82018360208201111561060757600080fd5b8035906020019184602083028401116401000000008311171561062957600080fd5b919080806020026020016040519081016040528093929190818152602001838360200280828437600092019190915250929594936020810193503591505064010000000081111561067957600080fd5b82018360208201111561068b57600080fd5b803590602001918460208302840111640100000000831117156106ad57600080fd5b91908080602002602001604051908101604052809392919081815260200183836020028082843760009201919091525092959493602081019350359150506401000000008111156106fd57600080fd5b82018360208201111561070f57600080fd5b8035906020019184600183028401116401000000008311171561073157600080fd5b91908080601f0160208091040260200160405190810160405280939291908181526020018383808284376000920191909152509295506117fa945050505050565b6104326004803603604081101561078857600080fd5b506001600160a01b03813516906020013561180e565b610432600480360360608110156107b457600080fd5b506001600160a01b03813581169160208101359091169060400135611839565b610432600480360360408110156107ea57600080fd5b6001600160a01b03823516919081019060408101602082013564010000000081111561081557600080fd5b82018360208201111561082757600080fd5b8035906020019184602083028401116401000000008311171561084957600080fd5b509092509050611856565b6109166004803603604081101561086a57600080fd5b81019060208101813564010000000081111561088557600080fd5b82018360208201111561089757600080fd5b803590602001918460208302840111640100000000831117156108b957600080fd5b9193909290916020810190356401000000008111156108d757600080fd5b8201836020820111156108e957600080fd5b8035906020019184602083028401116401000000008311171561090b57600080fd5b50909250905061189e565b60408051602080825283518183015283519192839290830191858101910280838360005b8381101561095257818101518382015260200161093a565b505050509050019250505060405180910390f35b6103ea6004803603602081101561097c57600080fd5b50356119a4565b61033c6004803603602081101561099957600080fd5b50356001600160a01b03166119af565b610358611a28565b610432600480360360808110156109c757600080fd5b6001600160a01b0382351691602081013591604082013591908101906080810160608201356401000000008111156109fe57600080fd5b820183602082011115610a1057600080fd5b80359060200191846001830284011164010000000083111715610a3257600080fd5b509092509050611ab6565b6103ea60048036036020811015610a5357600080fd5b5035611b03565b61030360048036036020811015610a7057600080fd5b50356001600160a01b0316611b0e565b61043260048036036060811015610a9657600080fd5b810190602081018135640100000000811115610ab157600080fd5b820183602082011115610ac357600080fd5b80359060200191846020830284011164010000000083111715610ae557600080fd5b919390929091602081019035640100000000811115610b0357600080fd5b820183602082011115610b1557600080fd5b80359060200191846020830284011164010000000083111715610b3757600080fd5b919390929091602081019035640100000000811115610b5557600080fd5b820183602082011115610b6757600080fd5b80359060200191846020830284011164010000000083111715610b8957600080fd5b509092509050611b87565b61043260048036036020811015610baa57600080fd5b810190602081018135640100000000811115610bc557600080fd5b820183602082011115610bd757600080fd5b80359060200191846001830284011164010000000083111715610bf957600080fd5b509092509050611c79565b61043260048036036060811015610c1a57600080fd5b6001600160a01b0382351691602081013591810190606081016040820135640100000000811115610c4a57600080fd5b820183602082011115610c5c57600080fd5b80359060200191846001830284011164010000000083111715610c7e57600080fd5b509092509050611cf5565b6103ea611d4a565b610358611d59565b61043260048036036020811015610caf57600080fd5b50356001600160a01b0316611dba565b610432611dd1565b61043260048036036040811015610cdd57600080fd5b506001600160a01b0381351690602001351515611e2f565b61033c60048036036020811015610d0b57600080fd5b50356001600160a01b0316611e39565b61033c60048036036020811015610d3157600080fd5b5035611e4e565b61043260048036036080811015610d4e57600080fd5b6001600160a01b03823581169260208101359091169160408201359190810190608081016060820135640100000000811115610d8957600080fd5b820183602082011115610d9b57600080fd5b80359060200191846001830284011164010000000083111715610dbd57600080fd5b91908080601f016020809104026020016040519081016040528093929190818152602001838380828437600092019190915250929550611e59945050505050565b61030360048036036020811015610e1457600080fd5b5035611e67565b61043260048036036060811015610e3157600080fd5b810190602081018135640100000000811115610e4c57600080fd5b820183602082011115610e5e57600080fd5b80359060200191846020830284011164010000000083111715610e8057600080fd5b919390929091602081019035640100000000811115610e9e57600080fd5b820183602082011115610eb057600080fd5b80359060200191846020830284011164010000000083111715610ed257600080fd5b919390929091602081019035640100000000811115610ef057600080fd5b820183602082011115610f0257600080fd5b80359060200191846020830284011164010000000083111715610f2457600080fd5b509092509050611ebd565b610358612005565b61030360048036036020811015610f4d57600080fd5b5035612014565b61035860048036036020811015610f6a57600080fd5b5035612079565b61043260048036036020811015610f8757600080fd5b50356120ee565b61043260048036036080811015610fa457600080fd5b810190602081018135640100000000811115610fbf57600080fd5b820183602082011115610fd157600080fd5b80359060200191846020830284011164010000000083111715610ff357600080fd5b91939092909160208101903564010000000081111561101157600080fd5b82018360208201111561102357600080fd5b8035906020019184602083028401116401000000008311171561104557600080fd5b91939092909160208101903564010000000081111561106357600080fd5b82018360208201111561107557600080fd5b8035906020019184602083028401116401000000008311171561109757600080fd5b9193909290916020810190356401000000008111156110b557600080fd5b8201836020820111156110c757600080fd5b803590602001918460018302840111640100000000831117156110e957600080fd5b509092509050612102565b61033c6004803603604081101561110a57600080fd5b506001600160a01b038135811691602001351661211d565b610432600480360360a081101561113857600080fd5b6001600160a01b03823581169260208101359091169160408201359160608101359181019060a08101608082013564010000000081111561117857600080fd5b82018360208201111561118a57600080fd5b803590602001918460018302840111640100000000831117156111ac57600080fd5b91908080601f016020809104026020016040519081016040528093929190818152602001838380828437600092019190915250929550612130945050505050565b6104326004803603602081101561120357600080fd5b50356001600160a01b03166122f6565b6104326004803603606081101561122957600080fd5b6001600160a01b03823581169260208101359091169181019060608101604082013564010000000081111561125d57600080fd5b82018360208201111561126f57600080fd5b8035906020019184602083028401116401000000008311171561129157600080fd5b91908080602002602001604051908101604052809392919081815260200183836020028082843760009201919091525092955061235c945050505050565b60006001600160a01b03831661132c576040805162461bcd60e51b815260206004820152601760248201527f496e76656e746f72793a207a65726f2061646472657373000000000000000000604482015290519081900360640190fd5b61133582612644565b1561136f576000828152600460205260409020546001600160a01b03848116911614611362576000611365565b60015b60ff169050611394565b5060008181526002602090815260408083206001600160a01b03861684529091529020545b92915050565b60006001600160e01b031982167f510b51580000000000000000000000000000000000000000000000000000000014806113d857506113d882612696565b90505b919050565b60068054604080516020601f600260001961010060018816150201909516949094049384018190048102820181019092528281526060939092909183018282801561146c5780601f106114415761010080835404028352916020019161146c565b820191906000526020600020905b81548152906001019060200180831161144f57829003601f168201915b505050505090505b90565b6000818152600460205260408120546001600160a01b0381166114e1576040805162461bcd60e51b815260206004820152601b60248201527f496e76656e746f72793a206e6f6e2d6578697374696e67204e46540000000000604482015290519081900360640190fd5b600160a01b81161561150c5750506000818152600960205260409020546001600160a01b03166113db565b60009150506113db565b60008181526004602052604090205480611577576040805162461bcd60e51b815260206004820152601b60248201527f496e76656e746f72793a206e6f6e2d6578697374696e67204e46540000000000604482015290519081900360640190fd5b806001600160a01b0384811690821614156115d9576040805162461bcd60e51b815260206004820152601860248201527f496e76656e746f72793a2073656c662d617070726f76616c0000000000000000604482015290519081900360640190fd5b6115ea816115e561273c565b612746565b61163b576040805162461bcd60e51b815260206004820152601e60248201527f496e76656e746f72793a206e6f6e2d617070726f7665642073656e6465720000604482015290519081900360640190fd5b6001600160a01b03841661167557600160a01b8216156116705760008381526004602052604090206001600160a01b03821690555b6116cb565b600160a01b82178083146116955760008481526004602052604090208190555b506000838152600960205260409020805473ffffffffffffffffffffffffffffffffffffffff19166001600160a01b0386161790555b82846001600160a01b0316826001600160a01b03167f8c5be1e5ebec7d5bd14f71427d1e84f3dd0314c0f7b2291e5b200ac8c7c3b92560405160405180910390a450505050565b61172261171d61273c565b612792565b6117c48787878080602002602001604051908101604052809392919081815260200183836020028082843760009201919091525050604080516020808b0282810182019093528a82529093508a92508991829185019084908082843760009201919091525050604080516020601f8a0181900481028201810190925288815292508891508790819084018382808284376000920191909152506127ff92505050565b50505050505050565b60606113d882612b60565b6117f5838383604051806020016040528060008152506000612c33565b505050565b6118078585858585612da1565b5050505050565b61181961171d61273c565b61183582826040518060200160405280600081525060006130bb565b5050565b6117f5838383604051806020016040528060008152506001612c33565b61186161171d61273c565b6117f58383838080602002602001604051908101604052809392919081815260200183836020028082843760009201919091525061325f92505050565b60608382146118f4576040805162461bcd60e51b815260206004820152601e60248201527f496e76656e746f72793a20696e636f6e73697374656e74206172726179730000604482015290519081900360640190fd5b60008467ffffffffffffffff8111801561190d57600080fd5b50604051908082528060200260200182016040528015611937578160200160208202803683370190505b50905060005b80861461199a5761197b87878381811061195357fe5b905060200201356001600160a01b031686868481811061196f57fe5b905060200201356112cf565b82828151811061198757fe5b602090810291909101015260010161193d565b5095945050505050565b60006113d8826135be565b60007f00000000000000000000000000000000000000000000000000000000000000006001600160a01b0316826001600160a01b031614806113d857507f00000000000000000000000000000000000000000000000000000000000000006001600160a01b0316826001600160a01b0316149050919050565b600a805460408051602060026001851615610100026000190190941693909304601f81018490048402820184019092528181529291830182828015611aae5780601f10611a8357610100808354040283529160200191611aae565b820191906000526020600020905b815481529060010190602001808311611a9157829003601f168201915b505050505081565b611ac161171d61273c565b61180785858585858080601f01602080910402602001604051908101604052809392919081815260200183838082843760009201919091525061363792505050565b60006113d882613782565b60006001600160a01b038216611b6b576040805162461bcd60e51b815260206004820152601760248201527f496e76656e746f72793a207a65726f2061646472657373000000000000000000604482015290519081900360640190fd5b506001600160a01b031660009081526008602052604090205490565b611b97611b9261273c565b6137ec565b848381148015611ba657508082145b611bf7576040805162461bcd60e51b815260206004820152601a60248201527f5265636f763a20696e636f6e73697374656e7420617272617973000000000000604482015290519081900360640190fd5b60005b818114611c6f57611c67888883818110611c1057fe5b905060200201356001600160a01b0316858584818110611c2c57fe5b90506020020135888885818110611c3f57fe5b905060200201356001600160a01b03166001600160a01b03166138b09092919063ffffffff16565b600101611bfa565b5050505050505050565b611c84611b9261273c565b611c90600a8383615192565b507f04b1dc5c136a3ce9fded8db0ce3d3366c58764ec3a8e4c2b9e52e4ddfe5ebbf7828260405180806020018281038252848482818152602001925080828437600083820152604051601f909101601f19169092018290039550909350505050a15050565b611d0061171d61273c565b611d44848484848080601f016020809104026020016040519081016040528093929190818152602001838380828437600092019190915250600192506130bb915050565b50505050565b6000546001600160a01b031690565b60078054604080516020601f600260001961010060018816150201909516949094049384018190048102820181019092528281526060939092909183018282801561146c5780601f106114415761010080835404028352916020019161146c565b611dc5611b9261273c565b611dce81613930565b50565b6000611ddb61273c565b9050611de681612792565b6001600160a01b0381166000818152600b6020526040808220805460ff19169055517fe94479a9f7e1952cc78f2d6baab678adc1b772d936c6583def489e524cb666929190a250565b611835828261397c565b600b6020526000908152604090205460ff1681565b60006113d882613a5d565b611d44848484846001612c33565b6000611e7282612644565b15611ea8576000828152600460205260409020546001600160a01b031615611e9b576001611e9e565b60005b60ff1690506113db565b506000818152600360205260409020546113db565b611ec8611b9261273c565b848381148015611ed757508082145b611f28576040805162461bcd60e51b815260206004820152601a60248201527f5265636f763a20696e636f6e73697374656e7420617272617973000000000000604482015290519081900360640190fd5b60005b818114611c6f57858582818110611f3e57fe5b905060200201356001600160a01b03166001600160a01b03166323b872dd308a8a85818110611f6957fe5b905060200201356001600160a01b0316878786818110611f8557fe5b905060200201356040518463ffffffff1660e01b815260040180846001600160a01b03168152602001836001600160a01b031681526020018281526020019350505050600060405180830381600087803b158015611fe257600080fd5b505af1158015611ff6573d6000803e3d6000fd5b50505050806001019050611f2b565b606061200f613a83565b905090565b600061201f82612644565b612070576040805162461bcd60e51b815260206004820152601560248201527f496e76656e746f72793a206e6f7420616e204e46540000000000000000000000604482015290519081900360640190fd5b6113d882613ac7565b6000818152600460205260409020546060906001600160a01b03166120e5576040805162461bcd60e51b815260206004820152601b60248201527f496e76656e746f72793a206e6f6e2d6578697374696e67204e46540000000000604482015290519081900360640190fd5b6113d8826117cd565b6120f9611b9261273c565b611dce81613ad4565b61210d61171d61273c565b611c6f8888888888888888613c15565b60006121298383613f67565b9392505050565b600061213a61273c565b90506001600160a01b038516612197576040805162461bcd60e51b815260206004820152601b60248201527f496e76656e746f72793a207472616e7366657220746f207a65726f0000000000604482015290519081900360640190fd5b60006121a38783612746565b90506121ae85613a5d565b156121c5576121c08787878785613f95565b612275565b6121ce85612644565b15612228576121e287878787856000614108565b84866001600160a01b0316886001600160a01b03167fddf252ad1be2c89b69c2b068fc378daa952ba7f163c4a11628f55a4df523b3ef60405160405180910390a4612275565b6040805162461bcd60e51b815260206004820152601960248201527f496e76656e746f72793a206e6f74206120746f6b656e20696400000000000000604482015290519081900360640190fd5b856001600160a01b0316876001600160a01b0316836001600160a01b03167fc3d58168c5ae7397731d063d5bbf3d657854427343f4c083240f7aacaa2d0f628888604051808381526020018281526020019250505060405180910390a46122e4866001600160a01b031661429d565b156117c4576117c487878787876142a3565b612301611b9261273c565b6000805473ffffffffffffffffffffffffffffffffffffffff19166001600160a01b0383811691821780845560405192939116917f8be0079c531659141344cd1fd0a4f28419497f9722a3daafe3b4186f6b6457e09190a350565b6001600160a01b0382166123b7576040805162461bcd60e51b815260206004820152601b60248201527f496e76656e746f72793a207472616e7366657220746f207a65726f0000000000604482015290519081900360640190fd5b60006123c161273c565b905060006123cf8583612746565b835190915060008167ffffffffffffffff811180156123ed57600080fd5b50604051908082528060200260200182016040528015612417578160200160208202803683370190505b50905060008060005b8481146124f857600088828151811061243557fe5b60200260200101519050600185838151811061244d57fe5b6020026020010181815250506124698b8b8360018b6001614108565b808a6001600160a01b03168c6001600160a01b03167fddf252ad1be2c89b69c2b068fc378daa952ba7f163c4a11628f55a4df523b3ef60405160405180910390a460006124b582613ac7565b9050846124c857809450600193506124ee565b8481146124e7576124db8c8c878761442d565b809450600193506124ee565b8360010193505b5050600101612420565b5081156125165761250b8989848461442d565b612516898986614481565b876001600160a01b0316896001600160a01b031661253261273c565b6001600160a01b03167f4a39dc06d4c0dbc64b70af90fd698a233a518aa5d07e595d983b8c0526c8f7fb8a87604051808060200180602001838103835285818151815260200191508051906020019060200280838360005b838110156125a257818101518382015260200161258a565b50505050905001838103825284818151815260200191508051906020019060200280838360005b838110156125e15781810151838201526020016125c9565b5050505090500194505050505060405180910390a4612608886001600160a01b031661429d565b80156126185750612618886144cc565b15612639576126398989898660405180602001604052806000815250614594565b505050505050505050565b60007f80000000000000000000000000000000000000000000000000000000000000008216158015906113d85750507bffffffffffffffffffffffffffffffffffffffffffffffffffffffff16151590565b60006001600160e01b031982167f80ac58cd0000000000000000000000000000000000000000000000000000000014806126f957506001600160e01b031982167f5b5e139f00000000000000000000000000000000000000000000000000000000145b8061272d57506001600160e01b031982167ff3993d1100000000000000000000000000000000000000000000000000000000145b806113d857506113d882614712565b600061200f614813565b6000816001600160a01b0316836001600160a01b031614806121295750506001600160a01b03918216600090815260016020908152604080832093909416825291909152205460ff1690565b6001600160a01b0381166000908152600b602052604090205460ff16611dce576040805162461bcd60e51b815260206004820152601860248201527f4d696e746572526f6c653a206e6f742061204d696e7465720000000000000000604482015290519081900360640190fd5b6001600160a01b03841661285a576040805162461bcd60e51b815260206004820152601760248201527f496e76656e746f72793a206d696e7420746f207a65726f000000000000000000604482015290519081900360640190fd5b8251825181146128b1576040805162461bcd60e51b815260206004820152601e60248201527f496e76656e746f72793a20696e636f6e73697374656e74206172726179730000604482015290519081900360640190fd5b6000806000805b848114612a0e5760008882815181106128cd57fe5b6020026020010151905060008883815181106128e557fe5b602002602001015190506128f882613a5d565b1561290d576129088b8383614973565b612a04565b61291682612644565b15612228576129288b83836001614a65565b60405182906001600160a01b038d16906000907fddf252ad1be2c89b69c2b068fc378daa952ba7f163c4a11628f55a4df523b3ef908290a4600061296b83613ac7565b90508661297e5780965060019550612a02565b8681146129fb57856002600089815260200190815260200160002060008e6001600160a01b03166001600160a01b0316815260200190815260200160002060008282540192505081905550856003600089815260200190815260200160002060008282540192505081905550809650858501945060019550612a02565b8560010195505b505b50506001016128b8565b508215612a635760008381526002602090815260408083206001600160a01b038c1680855290835281842080548701905586845260038352818420805487019055835260089091529020805491830191820190555b6001600160a01b0388166000612a7761273c565b6001600160a01b03167f4a39dc06d4c0dbc64b70af90fd698a233a518aa5d07e595d983b8c0526c8f7fb8a8a604051808060200180602001838103835285818151815260200191508051906020019060200280838360005b83811015612ae7578181015183820152602001612acf565b50505050905001838103825284818151815260200191508051906020019060200280838360005b83811015612b26578181015183820152602001612b0e565b5050505090500194505050505060405180910390a4612b4d886001600160a01b031661429d565b15611c6f57611c6f600089898989614594565b6060600a612b6d83614b94565b6040516020018083805460018160011615610100020316600290048015612bcb5780601f10612ba9576101008083540402835291820191612bcb565b820191906000526020600020905b815481529060010190602001808311612bb7575b5050825160208401908083835b60208310612bf75780518252601f199092019160209182019101612bd8565b6001836020036101000a038019825116818451168082178552505050505050905001925050506040516020818303038152906040529050919050565b6001600160a01b038416612c8e576040805162461bcd60e51b815260206004820152601b60248201527f496e76656e746f72793a207472616e7366657220746f207a65726f0000000000604482015290519081900360640190fd5b6000612c9861273c565b90506000612ca68783612746565b9050612cb88787876001856000614108565b84866001600160a01b0316886001600160a01b03167fddf252ad1be2c89b69c2b068fc378daa952ba7f163c4a11628f55a4df523b3ef60405160405180910390a4856001600160a01b0316876001600160a01b0316836001600160a01b03167fc3d58168c5ae7397731d063d5bbf3d657854427343f4c083240f7aacaa2d0f62886001604051808381526020018281526020019250505060405180910390a4612d69866001600160a01b031661429d565b156117c457612d77866144cc565b15612d8f57612d8a8787876001886142a3565b6117c4565b82156117c4576117c487878787614ca3565b6001600160a01b038416612dfc576040805162461bcd60e51b815260206004820152601b60248201527f496e76656e746f72793a207472616e7366657220746f207a65726f0000000000604482015290519081900360640190fd5b825182518114612e53576040805162461bcd60e51b815260206004820152601e60248201527f496e76656e746f72793a20696e636f6e73697374656e74206172726179730000604482015290519081900360640190fd5b6000612e5d61273c565b90506000612e6b8883612746565b90506000806000805b868114612f8a5760008a8281518110612e8957fe5b60200260200101519050612e9c81613a5d565b15612ec657612ec18d8d838d8681518110612eb357fe5b60200260200101518a613f95565b612f81565b612ecf81612644565b1561222857612ef68d8d838d8681518110612ee657fe5b60200260200101518a6001614108565b808c6001600160a01b03168e6001600160a01b03167fddf252ad1be2c89b69c2b068fc378daa952ba7f163c4a11628f55a4df523b3ef60405160405180910390a46000612f4282613ac7565b905085612f555780955060019450612f7f565b858114612f7857612f688e8e888861442d565b9450600193929092019184612f7f565b8460010194505b505b50600101612e74565b508215612faa57612f9d8b8b858561442d565b8101612faa8b8b83614481565b896001600160a01b03168b6001600160a01b0316612fc661273c565b6001600160a01b03167f4a39dc06d4c0dbc64b70af90fd698a233a518aa5d07e595d983b8c0526c8f7fb8c8c604051808060200180602001838103835285818151815260200191508051906020019060200280838360005b8381101561303657818101518382015260200161301e565b50505050905001838103825284818151815260200191508051906020019060200280838360005b8381101561307557818101518382015260200161305d565b5050505090500194505050505060405180910390a461309c8a6001600160a01b031661429d565b156130ae576130ae8b8b8b8b8b614594565b5050505050505050505050565b6001600160a01b038416613116576040805162461bcd60e51b815260206004820152601760248201527f496e76656e746f72793a206d696e7420746f207a65726f000000000000000000604482015290519081900360640190fd5b61311f83612644565b613170576040805162461bcd60e51b815260206004820152601560248201527f496e76656e746f72793a206e6f7420616e204e46540000000000000000000000604482015290519081900360640190fd5b61317e848460016000614a65565b60405183906001600160a01b038616906000907fddf252ad1be2c89b69c2b068fc378daa952ba7f163c4a11628f55a4df523b3ef908290a46001600160a01b03841660006131ca61273c565b6001600160a01b03167fc3d58168c5ae7397731d063d5bbf3d657854427343f4c083240f7aacaa2d0f62866001604051808381526020018281526020019250505060405180910390a4613225846001600160a01b031661429d565b15611d4457613233846144cc565b1561324c57613247600085856001866142a3565b611d44565b8015611d4457611d446000858585614ca3565b6001600160a01b0382166132ba576040805162461bcd60e51b815260206004820152601760248201527f496e76656e746f72793a206d696e7420746f207a65726f000000000000000000604482015290519081900360640190fd5b805160008167ffffffffffffffff811180156132d557600080fd5b506040519080825280602002602001820160405280156132ff578160200160208202803683370190505b50905060008060005b84811461345a57600086828151811061331d57fe5b6020026020010151905061333081612644565b613381576040805162461bcd60e51b815260206004820152601560248201527f496e76656e746f72793a206e6f7420616e204e46540000000000000000000000604482015290519081900360640190fd5b600185838151811061338f57fe5b6020026020010181815250506133a88882600180614a65565b60405181906001600160a01b038a16906000907fddf252ad1be2c89b69c2b068fc378daa952ba7f163c4a11628f55a4df523b3ef908290a460006133eb82613ac7565b9050846133fe5780945060019350613450565b8481146134495760008581526002602090815260408083206001600160a01b038d16845282528083208054880190559682526003905294909420805490930190925560019183613450565b8360010193505b5050600101613308565b5060008281526002602090815260408083206001600160a01b038a168085529083528184208054860190558584526003835281842080548601905580845260089092528220805487019055906134ae61273c565b6001600160a01b03167f4a39dc06d4c0dbc64b70af90fd698a233a518aa5d07e595d983b8c0526c8f7fb8887604051808060200180602001838103835285818151815260200191508051906020019060200280838360005b8381101561351e578181015183820152602001613506565b50505050905001838103825284818151815260200191508051906020019060200280838360005b8381101561355d578181015183820152602001613545565b5050505090500194505050505060405180910390a4613584866001600160a01b031661429d565b80156135945750613594866144cc565b156135b6576135b6600087878660405180602001604052806000815250614594565b505050505050565b60006135c982612644565b1561361b576040805162461bcd60e51b815260206004820152601b60248201527f496e76656e746f72793a206e6f74206120636f6c6c656374696f6e0000000000604482015290519081900360640190fd5b506000908152600560205260409020546001600160a01b031690565b6001600160a01b038416613692576040805162461bcd60e51b815260206004820152601760248201527f496e76656e746f72793a206d696e7420746f207a65726f000000000000000000604482015290519081900360640190fd5b600061369c61273c565b90506136a784613a5d565b156136bc576136b7858585614973565b613710565b6136c584612644565b15612228576136d78585856000614a65565b60405184906001600160a01b038716906000907fddf252ad1be2c89b69c2b068fc378daa952ba7f163c4a11628f55a4df523b3ef908290a45b604080518581526020810185905281516001600160a01b0380891693600093918616927fc3d58168c5ae7397731d063d5bbf3d657854427343f4c083240f7aacaa2d0f629281900390910190a461376f856001600160a01b031661429d565b15611807576118076000868686866142a3565b6000818152600460205260408120546001600160a01b0381166113d8576040805162461bcd60e51b815260206004820152601b60248201527f496e76656e746f72793a206e6f6e2d6578697374696e67204e46540000000000604482015290519081900360640190fd5b306001600160a01b0316638da5cb5b6040518163ffffffff1660e01b815260040160206040518083038186803b15801561382557600080fd5b505afa158015613839573d6000803e3d6000fd5b505050506040513d602081101561384f57600080fd5b50516001600160a01b03828116911614611dce576040805162461bcd60e51b815260206004820152601660248201527f4f776e61626c653a206e6f7420746865206f776e657200000000000000000000604482015290519081900360640190fd5b604080516001600160a01b038416602482015260448082018490528251808303909101815260649091019091526020810180517bffffffffffffffffffffffffffffffffffffffffffffffffffffffff167fa9059cbb000000000000000000000000000000000000000000000000000000001790526117f5908490614e25565b6001600160a01b0381166000818152600b6020526040808220805460ff19166001179055517f6ae172837ea30b801fbfcdd4108aa1d5bf8ff775444fd70256b44e6bf3dfc3f69190a250565b600061398661273c565b9050806001600160a01b0316836001600160a01b031614156139ef576040805162461bcd60e51b815260206004820152601860248201527f496e76656e746f72793a2073656c662d617070726f76616c0000000000000000604482015290519081900360640190fd5b6001600160a01b03818116600081815260016020908152604080832094881680845294825291829020805460ff1916871515908117909155825190815291517f17307eab39ab6107e8899845ad3d59bd9653f200f220920489ca2b5937696c319281900390910190a3505050565b7f8000000000000000000000000000000000000000000000000000000000000000161590565b6060613a8d615008565b8080601f01602080910402602001604051908101604052809392919081815260200183838082843760009201919091525092935050505090565b6001600160e01b03191690565b613add81612644565b15613b2f576040805162461bcd60e51b815260206004820152601b60248201527f496e76656e746f72793a206e6f74206120636f6c6c656374696f6e0000000000604482015290519081900360640190fd5b6000818152600560205260409020546001600160a01b031615613b99576040805162461bcd60e51b815260206004820152601e60248201527f496e76656e746f72793a206578697374696e6720636f6c6c656374696f6e0000604482015290519081900360640190fd5b613ba161273c565b6000828152600560205260409020805473ffffffffffffffffffffffffffffffffffffffff19166001600160a01b0392909216919091179055613be381613a5d565b1515817f4ebf8ad0df535ba5e487bc9cb27fe44120ca81c3a95d3eba79c0bd1df2ab2d5d60405160405180910390a350565b868581148015613c2457508084145b613c75576040805162461bcd60e51b815260206004820152601e60248201527f496e76656e746f72793a20696e636f6e73697374656e74206172726179730000604482015290519081900360640190fd5b6000613c7f61273c565b905060005b8281146130ae5760008b8b83818110613c9957fe5b905060200201356001600160a01b0316905060006001600160a01b0316816001600160a01b03161415613d13576040805162461bcd60e51b815260206004820152601760248201527f496e76656e746f72793a206d696e7420746f207a65726f000000000000000000604482015290519081900360640190fd5b60008a8a84818110613d2157fe5b9050602002013590506000898985818110613d3857fe5b905060200201359050613d4a82613a5d565b15613e0757613d5a838383614973565b604080518381526020810183905281516001600160a01b0380871693600093918a16927fc3d58168c5ae7397731d063d5bbf3d657854427343f4c083240f7aacaa2d0f629281900390910190a4613db9836001600160a01b031661429d565b15613e0257613e0260008484848c8c8080601f0160208091040260200160405190810160405280939291908181526020018383808284376000920191909152506142a392505050565b613f59565b613e1082612644565b1561222857613e228383836000614a65565b60405182906001600160a01b038516906000907fddf252ad1be2c89b69c2b068fc378daa952ba7f163c4a11628f55a4df523b3ef908290a4604080518381526001602082015281516001600160a01b0380871693600093918a16927fc3d58168c5ae7397731d063d5bbf3d657854427343f4c083240f7aacaa2d0f629281900390910190a4613eb9836001600160a01b031661429d565b15613e0257613ec7836144cc565b15613f1657613f116000848460018c8c8080601f0160208091040260200160405190810160405280939291908181526020018383808284376000920191909152506142a392505050565b613e02565b613e02600084848b8b8080601f016020809104026020016040519081016040528093929190818152602001838380828437600092019190915250614ca392505050565b505050806001019050613c84565b6001600160a01b03918216600090815260016020908152604080832093909416825291909152205460ff1690565b80613fe7576040805162461bcd60e51b815260206004820152601e60248201527f496e76656e746f72793a206e6f6e2d617070726f7665642073656e6465720000604482015290519081900360640190fd5b81614039576040805162461bcd60e51b815260206004820152601560248201527f496e76656e746f72793a207a65726f2076616c75650000000000000000000000604482015290519081900360640190fd5b60008381526002602090815260408083206001600160a01b0389168452909152902054828110156140b1576040805162461bcd60e51b815260206004820152601d60248201527f496e76656e746f72793a206e6f7420656e6f7567682062616c616e6365000000604482015290519081900360640190fd5b846001600160a01b0316866001600160a01b0316146135b65760009384526002602090815260408086206001600160a01b039889168752909152808520918490039091559390941682529190208054909101905550565b8260011461415d576040805162461bcd60e51b815260206004820152601a60248201527f496e76656e746f72793a2077726f6e67204e46542076616c7565000000000000604482015290519081900360640190fd5b6000848152600460205260409020546001600160a01b03878116908216146141cc576040805162461bcd60e51b815260206004820152601860248201527f496e76656e746f72793a206e6f6e2d6f776e6564204e46540000000000000000604482015290519081900360640190fd5b8261425d57600160a01b81161580159061420c57506000858152600960205260409020546001600160a01b031661420161273c565b6001600160a01b0316145b61425d576040805162461bcd60e51b815260206004820152601e60248201527f496e76656e746f72793a206e6f6e2d617070726f7665642073656e6465720000604482015290519081900360640190fd5b60008581526004602052604090206001600160a01b0387169055816117c45761428887876001614481565b6117c4878761429688613ac7565b600161442d565b3b151590565b7ff23a6e61000000000000000000000000000000000000000000000000000000006001600160a01b03851663f23a6e616142db61273c565b888787876040518663ffffffff1660e01b815260040180866001600160a01b03168152602001856001600160a01b0316815260200184815260200183815260200180602001828103825283818151815260200191508051906020019080838360005b8381101561435557818101518382015260200161433d565b50505050905090810190601f1680156143825780820380516001836020036101000a031916815260200191505b509650505050505050602060405180830381600087803b1580156143a557600080fd5b505af11580156143b9573d6000803e3d6000fd5b505050506040513d60208110156143cf57600080fd5b50516001600160e01b03191614611807576040805162461bcd60e51b815260206004820152601b60248201527f496e76656e746f72793a207472616e7366657220726566757365640000000000604482015290519081900360640190fd5b826001600160a01b0316846001600160a01b031614611d445760009182526002602090815260408084206001600160a01b039687168552909152808320805483900390559290931681522080549091019055565b816001600160a01b0316836001600160a01b0316146117f5576001600160a01b0380841660009081526008602052604080822080548590039055918416815220805482019055505050565b604080517f4e2312e0000000000000000000000000000000000000000000000000000000006024808301919091528251808303909101815260449091018252602081810180517bffffffffffffffffffffffffffffffffffffffffffffffffffffffff167f01ffc9a7000000000000000000000000000000000000000000000000000000001781528251935160008082529485948594909392908183858b612710fa955080519450505050609e5a1161458157fe5b82801561458b5750815b95945050505050565b7fbc197c81000000000000000000000000000000000000000000000000000000006001600160a01b03851663bc197c816145cc61273c565b888787876040518663ffffffff1660e01b815260040180866001600160a01b03168152602001856001600160a01b03168152602001806020018060200180602001848103845287818151815260200191508051906020019060200280838360005b8381101561464557818101518382015260200161462d565b50505050905001848103835286818151815260200191508051906020019060200280838360005b8381101561468457818101518382015260200161466c565b50505050905001848103825285818151815260200191508051906020019080838360005b838110156146c05781810151838201526020016146a8565b50505050905090810190601f1680156146ed5780820380516001836020036101000a031916815260200191505b5098505050505050505050602060405180830381600087803b1580156143a557600080fd5b60006001600160e01b031982167f01ffc9a700000000000000000000000000000000000000000000000000000000148061477557506001600160e01b031982167fd9b67a2600000000000000000000000000000000000000000000000000000000145b806147a957506001600160e01b031982167f0e89341c00000000000000000000000000000000000000000000000000000000145b806147dd57506001600160e01b031982167f09ce5c4600000000000000000000000000000000000000000000000000000000145b806113d85750506001600160e01b0319167fbd85b039000000000000000000000000000000000000000000000000000000001490565b6000338161481f61516b565b90507f00000000000000000000000000000000000000000000000000000000000000006001600160a01b0316826001600160a01b0316148061489257507f00000000000000000000000000000000000000000000000000000000000000006001600160a01b0316826001600160a01b0316145b156148a05791506114749050565b6001600160a01b038216321480159061495f57507f00000000000000000000000000000000000000000000000000000000000000006001600160a01b031663e60125d682846040518363ffffffff1660e01b815260040180836001600160a01b03168152602001826001600160a01b031681526020019250505060206040518083038186803b15801561493257600080fd5b505afa158015614946573d6000803e3d6000fd5b505050506040513d602081101561495c57600080fd5b50515b1561496d5791506114749050565b50905090565b806149c5576040805162461bcd60e51b815260206004820152601560248201527f496e76656e746f72793a207a65726f2076616c75650000000000000000000000604482015290519081900360640190fd5b600082815260036020526040902054818101818111614a2b576040805162461bcd60e51b815260206004820152601a60248201527f496e76656e746f72793a20737570706c79206f766572666c6f77000000000000604482015290519081900360640190fd5b600093845260036020908152604080862092909255600281528185206001600160a01b039096168552949094525091902080549091019055565b81600114614aba576040805162461bcd60e51b815260206004820152601a60248201527f496e76656e746f72793a2077726f6e67204e46542076616c7565000000000000604482015290519081900360640190fd5b60008381526004602052604090205415614b1b576040805162461bcd60e51b815260206004820152601d60248201527f496e76656e746f72793a206578697374696e672f6275726e74204e4654000000604482015290519081900360640190fd5b60008381526004602052604090206001600160a01b038516905580611d44576000614b4584613ac7565b600090815260036020908152604080832080546001908101909155600283528184206001600160a01b038a16855283528184208054820190556008909252909120805490910190555050505050565b606081614bd5575060408051808201909152600181527f300000000000000000000000000000000000000000000000000000000000000060208201526113db565b8160005b8115614bed57600101600a82049150614bd9565b60008167ffffffffffffffff81118015614c0657600080fd5b506040519080825280601f01601f191660200182016040528015614c31576020820181803683370190505b50859350905060001982015b8315614c9a57600a840660300160f81b82828060019003935081518110614c6057fe5b60200101907effffffffffffffffffffffffffffffffffffffffffffffffffffffffffffff1916908160001a905350600a84049350614c3d565b50949350505050565b7f150b7a02000000000000000000000000000000000000000000000000000000006001600160a01b03841663150b7a02614cdb61273c565b8786866040518563ffffffff1660e01b815260040180856001600160a01b03168152602001846001600160a01b0316815260200183815260200180602001828103825283818151815260200191508051906020019080838360005b83811015614d4e578181015183820152602001614d36565b50505050905090810190601f168015614d7b5780820380516001836020036101000a031916815260200191505b5095505050505050602060405180830381600087803b158015614d9d57600080fd5b505af1158015614db1573d6000803e3d6000fd5b505050506040513d6020811015614dc757600080fd5b50516001600160e01b03191614611d44576040805162461bcd60e51b815260206004820152601b60248201527f496e76656e746f72793a207472616e7366657220726566757365640000000000604482015290519081900360640190fd5b81614e386001600160a01b03821661429d565b614e89576040805162461bcd60e51b815260206004820152601a60248201527f4552433230577261707065723a206e6f6e2d636f6e7472616374000000000000604482015290519081900360640190fd5b600080826001600160a01b0316846040518082805190602001908083835b60208310614ec65780518252601f199092019160209182019101614ea7565b6001836020036101000a0380198251168184511680821785525050505050509050019150506000604051808303816000865af19150503d8060008114614f28576040519150601f19603f3d011682016040523d82523d6000602084013e614f2d565b606091505b50915091508115614fac57805115614fa757808060200190516020811015614f5457600080fd5b5051614fa7576040805162461bcd60e51b815260206004820152601e60248201527f4552433230577261707065723a206f7065726174696f6e206661696c65640000604482015290519081900360640190fd5b611807565b8051614fff576040805162461bcd60e51b815260206004820152601e60248201527f4552433230577261707065723a206f7065726174696f6e206661696c65640000604482015290519081900360640190fd5b80518082602001fd5b366000336001600160a01b037f00000000000000000000000000000000000000000000000000000000000000001681148061507457507f00000000000000000000000000000000000000000000000000000000000000006001600160a01b0316816001600160a01b0316145b1561508b57615081615177565b9250925050615167565b6001600160a01b038116321480159061515157507f00000000000000000000000000000000000000000000000000000000000000006001600160a01b031663e60125d66150d661516b565b836040518363ffffffff1660e01b815260040180836001600160a01b03168152602001826001600160a01b031681526020019250505060206040518083038186803b15801561512457600080fd5b505afa158015615138573d6000803e3d6000fd5b505050506040513d602081101561514e57600080fd5b50515b1561515e57615081615177565b60003692509250505b9091565b60131936013560601c90565b36600061518a6013198301828481615233565b915091509091565b828054600181600116156101000203166002900490600052602060002090601f0160209004810192826151c8576000855561520e565b82601f106151e15782800160ff1982351617855561520e565b8280016001018555821561520e579182015b8281111561520e5782358255916020019190600101906151f3565b5061521a92915061521e565b5090565b5b8082111561521a576000815560010161521f565b60008085851115615242578182fd5b8386111561524e578182fd5b505082019391909203915056fea264697066735822122034c88c989d690016bcc7ec5ac752fd9ec0d4bce62d1668beba68d9973cefe66764736f6c63430007060033",
  "linkReferences": {},
  "deployedLinkReferences": {}
}