{
  "_format": "hh-sol-artifact-1",
  "contractName": "ERC1155721InventoryMock",
  "sourceName": "contracts/mocks/token/ERC1155721/ERC1155721InventoryMock.sol",
  "abi": [
    {
      "inputs": [],
      "stateMutability": "nonpayable",
      "type": "constructor"
    },
    {
      "anonymous": false,
      "inputs": [
        {
          "indexed": true,
          "internalType": "address",
          "name": "_owner",
          "type": "address"
        },
        {
          "indexed": true,
          "internalType": "address",
          "name": "_approved",
          "type": "address"
        },
        {
          "indexed": true,
          "internalType": "uint256",
          "name": "_tokenId",
          "type": "uint256"
        }
      ],
      "name": "Approval",
      "type": "event"
    },
    {
      "anonymous": false,
      "inputs": [
        {
          "indexed": true,
          "internalType": "address",
          "name": "_owner",
          "type": "address"
        },
        {
          "indexed": true,
          "internalType": "address",
          "name": "_operator",
          "type": "address"
        },
        {
          "indexed": false,
          "internalType": "bool",
          "name": "_approved",
          "type": "bool"
        }
      ],
      "name": "ApprovalForAll",
      "type": "event"
    },
    {
      "anonymous": false,
      "inputs": [
        {
          "indexed": false,
          "internalType": "string",
          "name": "baseMetadataURI",
          "type": "string"
        }
      ],
      "name": "BaseMetadataURISet",
      "type": "event"
    },
    {
      "anonymous": false,
      "inputs": [
        {
          "indexed": true,
          "internalType": "uint256",
          "name": "collectionId",
          "type": "uint256"
        },
        {
          "indexed": true,
          "internalType": "bool",
          "name": "fungible",
          "type": "bool"
        }
      ],
      "name": "CollectionCreated",
      "type": "event"
    },
    {
      "anonymous": false,
      "inputs": [
        {
          "indexed": true,
          "internalType": "address",
          "name": "account",
          "type": "address"
        }
      ],
      "name": "MinterAdded",
      "type": "event"
    },
    {
      "anonymous": false,
      "inputs": [
        {
          "indexed": true,
          "internalType": "address",
          "name": "account",
          "type": "address"
        }
      ],
      "name": "MinterRemoved",
      "type": "event"
    },
    {
      "anonymous": false,
      "inputs": [
        {
          "indexed": true,
          "internalType": "address",
          "name": "previousOwner",
          "type": "address"
        },
        {
          "indexed": true,
          "internalType": "address",
          "name": "newOwner",
          "type": "address"
        }
      ],
      "name": "OwnershipTransferred",
      "type": "event"
    },
    {
      "anonymous": false,
      "inputs": [
        {
          "indexed": true,
          "internalType": "address",
          "name": "_from",
          "type": "address"
        },
        {
          "indexed": true,
          "internalType": "address",
          "name": "_to",
          "type": "address"
        },
        {
          "indexed": true,
          "internalType": "uint256",
          "name": "_tokenId",
          "type": "uint256"
        }
      ],
      "name": "Transfer",
      "type": "event"
    },
    {
      "anonymous": false,
      "inputs": [
        {
          "indexed": true,
          "internalType": "address",
          "name": "_operator",
          "type": "address"
        },
        {
          "indexed": true,
          "internalType": "address",
          "name": "_from",
          "type": "address"
        },
        {
          "indexed": true,
          "internalType": "address",
          "name": "_to",
          "type": "address"
        },
        {
          "indexed": false,
          "internalType": "uint256[]",
          "name": "_ids",
          "type": "uint256[]"
        },
        {
          "indexed": false,
          "internalType": "uint256[]",
          "name": "_values",
          "type": "uint256[]"
        }
      ],
      "name": "TransferBatch",
      "type": "event"
    },
    {
      "anonymous": false,
      "inputs": [
        {
          "indexed": true,
          "internalType": "address",
          "name": "_operator",
          "type": "address"
        },
        {
          "indexed": true,
          "internalType": "address",
          "name": "_from",
          "type": "address"
        },
        {
          "indexed": true,
          "internalType": "address",
          "name": "_to",
          "type": "address"
        },
        {
          "indexed": false,
          "internalType": "uint256",
          "name": "_id",
          "type": "uint256"
        },
        {
          "indexed": false,
          "internalType": "uint256",
          "name": "_value",
          "type": "uint256"
        }
      ],
      "name": "TransferSingle",
      "type": "event"
    },
    {
      "anonymous": false,
      "inputs": [
        {
          "indexed": false,
          "internalType": "string",
          "name": "_value",
          "type": "string"
        },
        {
          "indexed": true,
          "internalType": "uint256",
          "name": "_id",
          "type": "uint256"
        }
      ],
      "name": "URI",
      "type": "event"
    },
    {
      "inputs": [
        {
          "internalType": "address",
          "name": "account",
          "type": "address"
        }
      ],
      "name": "addMinter",
      "outputs": [],
      "stateMutability": "nonpayable",
      "type": "function"
    },
    {
      "inputs": [
        {
          "internalType": "address",
          "name": "to",
          "type": "address"
        },
        {
          "internalType": "uint256",
          "name": "nftId",
          "type": "uint256"
        }
      ],
      "name": "approve",
      "outputs": [],
      "stateMutability": "nonpayable",
      "type": "function"
    },
    {
      "inputs": [
        {
          "internalType": "address",
          "name": "owner",
          "type": "address"
        },
        {
          "internalType": "uint256",
          "name": "id",
          "type": "uint256"
        }
      ],
      "name": "balanceOf",
      "outputs": [
        {
          "internalType": "uint256",
          "name": "",
          "type": "uint256"
        }
      ],
      "stateMutability": "view",
      "type": "function"
    },
    {
      "inputs": [
        {
          "internalType": "address",
          "name": "tokenOwner",
          "type": "address"
        }
      ],
      "name": "balanceOf",
      "outputs": [
        {
          "internalType": "uint256",
          "name": "",
          "type": "uint256"
        }
      ],
      "stateMutability": "view",
      "type": "function"
    },
    {
      "inputs": [
        {
          "internalType": "address[]",
          "name": "owners",
          "type": "address[]"
        },
        {
          "internalType": "uint256[]",
          "name": "ids",
          "type": "uint256[]"
        }
      ],
      "name": "balanceOfBatch",
      "outputs": [
        {
          "internalType": "uint256[]",
          "name": "",
          "type": "uint256[]"
        }
      ],
      "stateMutability": "view",
      "type": "function"
    },
    {
      "inputs": [],
      "name": "baseMetadataURI",
      "outputs": [
        {
          "internalType": "string",
          "name": "",
          "type": "string"
        }
      ],
      "stateMutability": "view",
      "type": "function"
    },
    {
      "inputs": [
        {
          "internalType": "address",
          "name": "to",
          "type": "address"
        },
        {
          "internalType": "uint256[]",
          "name": "nftIds",
          "type": "uint256[]"
        }
      ],
      "name": "batchMint",
      "outputs": [],
      "stateMutability": "nonpayable",
      "type": "function"
    },
    {
      "inputs": [
        {
          "internalType": "address",
          "name": "from",
          "type": "address"
        },
        {
          "internalType": "address",
          "name": "to",
          "type": "address"
        },
        {
          "internalType": "uint256[]",
          "name": "nftIds",
          "type": "uint256[]"
        }
      ],
      "name": "batchTransferFrom",
      "outputs": [],
      "stateMutability": "nonpayable",
      "type": "function"
    },
    {
      "inputs": [
        {
          "internalType": "uint256",
          "name": "nftId",
          "type": "uint256"
        }
      ],
      "name": "collectionOf",
      "outputs": [
        {
          "internalType": "uint256",
          "name": "",
          "type": "uint256"
        }
      ],
      "stateMutability": "pure",
      "type": "function"
    },
    {
      "inputs": [
        {
          "internalType": "uint256",
          "name": "collectionId",
          "type": "uint256"
        }
      ],
      "name": "createCollection",
      "outputs": [],
      "stateMutability": "nonpayable",
      "type": "function"
    },
    {
      "inputs": [
        {
          "internalType": "uint256",
          "name": "collectionId",
          "type": "uint256"
        }
      ],
      "name": "creator",
      "outputs": [
        {
          "internalType": "address",
          "name": "",
          "type": "address"
        }
      ],
      "stateMutability": "view",
      "type": "function"
    },
    {
      "inputs": [
        {
          "internalType": "uint256",
          "name": "nftId",
          "type": "uint256"
        }
      ],
      "name": "getApproved",
      "outputs": [
        {
          "internalType": "address",
          "name": "",
          "type": "address"
        }
      ],
      "stateMutability": "view",
      "type": "function"
    },
    {
      "inputs": [
        {
          "internalType": "address",
          "name": "tokenOwner",
          "type": "address"
        },
        {
          "internalType": "address",
          "name": "operator",
          "type": "address"
        }
      ],
      "name": "isApprovedForAll",
      "outputs": [
        {
          "internalType": "bool",
          "name": "",
          "type": "bool"
        }
      ],
      "stateMutability": "view",
      "type": "function"
    },
    {
      "inputs": [
        {
          "internalType": "uint256",
          "name": "id",
          "type": "uint256"
        }
      ],
      "name": "isFungible",
      "outputs": [
        {
          "internalType": "bool",
          "name": "",
          "type": "bool"
        }
      ],
      "stateMutability": "pure",
      "type": "function"
    },
    {
      "inputs": [
        {
          "internalType": "address",
          "name": "",
          "type": "address"
        }
      ],
      "name": "isMinter",
      "outputs": [
        {
          "internalType": "bool",
          "name": "",
          "type": "bool"
        }
      ],
      "stateMutability": "view",
      "type": "function"
    },
    {
      "inputs": [
        {
          "internalType": "address",
          "name": "to",
          "type": "address"
        },
        {
          "internalType": "uint256",
          "name": "nftId",
          "type": "uint256"
        }
      ],
      "name": "mint",
      "outputs": [],
      "stateMutability": "nonpayable",
      "type": "function"
    },
    {
      "inputs": [],
      "name": "name",
      "outputs": [
        {
          "internalType": "string",
          "name": "",
          "type": "string"
        }
      ],
      "stateMutability": "view",
      "type": "function"
    },
    {
      "inputs": [],
      "name": "owner",
      "outputs": [
        {
          "internalType": "address",
          "name": "",
          "type": "address"
        }
      ],
      "stateMutability": "view",
      "type": "function"
    },
    {
      "inputs": [
        {
          "internalType": "uint256",
          "name": "nftId",
          "type": "uint256"
        }
      ],
      "name": "ownerOf",
      "outputs": [
        {
          "internalType": "address",
          "name": "",
          "type": "address"
        }
      ],
      "stateMutability": "view",
      "type": "function"
    },
    {
      "inputs": [],
      "name": "renounceMinter",
      "outputs": [],
      "stateMutability": "nonpayable",
      "type": "function"
    },
    {
      "inputs": [
        {
          "internalType": "address",
          "name": "to",
          "type": "address"
        },
        {
          "internalType": "uint256[]",
          "name": "ids",
          "type": "uint256[]"
        },
        {
          "internalType": "uint256[]",
          "name": "values",
          "type": "uint256[]"
        },
        {
          "internalType": "bytes",
          "name": "data",
          "type": "bytes"
        }
      ],
      "name": "safeBatchMint",
      "outputs": [],
      "stateMutability": "nonpayable",
      "type": "function"
    },
    {
      "inputs": [
        {
          "internalType": "address",
          "name": "from",
          "type": "address"
        },
        {
          "internalType": "address",
          "name": "to",
          "type": "address"
        },
        {
          "internalType": "uint256[]",
          "name": "ids",
          "type": "uint256[]"
        },
        {
          "internalType": "uint256[]",
          "name": "values",
          "type": "uint256[]"
        },
        {
          "internalType": "bytes",
          "name": "data",
          "type": "bytes"
        }
      ],
      "name": "safeBatchTransferFrom",
      "outputs": [],
      "stateMutability": "nonpayable",
      "type": "function"
    },
    {
      "inputs": [
        {
          "internalType": "address[]",
          "name": "recipients",
          "type": "address[]"
        },
        {
          "internalType": "uint256[]",
          "name": "ids",
          "type": "uint256[]"
        },
        {
          "internalType": "uint256[]",
          "name": "values",
          "type": "uint256[]"
        },
        {
          "internalType": "bytes",
          "name": "data",
          "type": "bytes"
        }
      ],
      "name": "safeDeliver",
      "outputs": [],
      "stateMutability": "nonpayable",
      "type": "function"
    },
    {
      "inputs": [
        {
          "internalType": "address",
          "name": "to",
          "type": "address"
        },
        {
          "internalType": "uint256",
          "name": "id",
          "type": "uint256"
        },
        {
          "internalType": "uint256",
          "name": "value",
          "type": "uint256"
        },
        {
          "internalType": "bytes",
          "name": "data",
          "type": "bytes"
        }
      ],
      "name": "safeMint",
      "outputs": [],
      "stateMutability": "nonpayable",
      "type": "function"
    },
    {
      "inputs": [
        {
          "internalType": "address",
          "name": "to",
          "type": "address"
        },
        {
          "internalType": "uint256",
          "name": "nftId",
          "type": "uint256"
        },
        {
          "internalType": "bytes",
          "name": "data",
          "type": "bytes"
        }
      ],
      "name": "safeMint",
      "outputs": [],
      "stateMutability": "nonpayable",
      "type": "function"
    },
    {
      "inputs": [
        {
          "internalType": "address",
          "name": "from",
          "type": "address"
        },
        {
          "internalType": "address",
          "name": "to",
          "type": "address"
        },
        {
          "internalType": "uint256",
          "name": "nftId",
          "type": "uint256"
        }
      ],
      "name": "safeTransferFrom",
      "outputs": [],
      "stateMutability": "nonpayable",
      "type": "function"
    },
    {
      "inputs": [
        {
          "internalType": "address",
          "name": "from",
          "type": "address"
        },
        {
          "internalType": "address",
          "name": "to",
          "type": "address"
        },
        {
          "internalType": "uint256",
          "name": "nftId",
          "type": "uint256"
        },
        {
          "internalType": "bytes",
          "name": "data",
          "type": "bytes"
        }
      ],
      "name": "safeTransferFrom",
      "outputs": [],
      "stateMutability": "nonpayable",
      "type": "function"
    },
    {
      "inputs": [
        {
          "internalType": "address",
          "name": "from",
          "type": "address"
        },
        {
          "internalType": "address",
          "name": "to",
          "type": "address"
        },
        {
          "internalType": "uint256",
          "name": "id",
          "type": "uint256"
        },
        {
          "internalType": "uint256",
          "name": "value",
          "type": "uint256"
        },
        {
          "internalType": "bytes",
          "name": "data",
          "type": "bytes"
        }
      ],
      "name": "safeTransferFrom",
      "outputs": [],
      "stateMutability": "nonpayable",
      "type": "function"
    },
    {
      "inputs": [
        {
          "internalType": "address",
          "name": "operator",
          "type": "address"
        },
        {
          "internalType": "bool",
          "name": "approved",
          "type": "bool"
        }
      ],
      "name": "setApprovalForAll",
      "outputs": [],
      "stateMutability": "nonpayable",
      "type": "function"
    },
    {
      "inputs": [
        {
          "internalType": "string",
          "name": "baseMetadataURI_",
          "type": "string"
        }
      ],
      "name": "setBaseMetadataURI",
      "outputs": [],
      "stateMutability": "nonpayable",
      "type": "function"
    },
    {
      "inputs": [
        {
          "internalType": "bytes4",
          "name": "interfaceId",
          "type": "bytes4"
        }
      ],
      "name": "supportsInterface",
      "outputs": [
        {
          "internalType": "bool",
          "name": "",
          "type": "bool"
        }
      ],
      "stateMutability": "view",
      "type": "function"
    },
    {
      "inputs": [],
      "name": "symbol",
      "outputs": [
        {
          "internalType": "string",
          "name": "",
          "type": "string"
        }
      ],
      "stateMutability": "view",
      "type": "function"
    },
    {
      "inputs": [
        {
          "internalType": "uint256",
          "name": "nftId",
          "type": "uint256"
        }
      ],
      "name": "tokenURI",
      "outputs": [
        {
          "internalType": "string",
          "name": "",
          "type": "string"
        }
      ],
      "stateMutability": "view",
      "type": "function"
    },
    {
      "inputs": [
        {
          "internalType": "uint256",
          "name": "id",
          "type": "uint256"
        }
      ],
      "name": "totalSupply",
      "outputs": [
        {
          "internalType": "uint256",
          "name": "",
          "type": "uint256"
        }
      ],
      "stateMutability": "view",
      "type": "function"
    },
    {
      "inputs": [
        {
          "internalType": "address",
          "name": "from",
          "type": "address"
        },
        {
          "internalType": "address",
          "name": "to",
          "type": "address"
        },
        {
          "internalType": "uint256",
          "name": "nftId",
          "type": "uint256"
        }
      ],
      "name": "transferFrom",
      "outputs": [],
      "stateMutability": "nonpayable",
      "type": "function"
    },
    {
      "inputs": [
        {
          "internalType": "address",
          "name": "newOwner",
          "type": "address"
        }
      ],
      "name": "transferOwnership",
      "outputs": [],
      "stateMutability": "nonpayable",
      "type": "function"
    },
    {
      "inputs": [
        {
          "internalType": "uint256",
          "name": "id",
          "type": "uint256"
        }
      ],
      "name": "uri",
      "outputs": [
        {
          "internalType": "string",
          "name": "",
          "type": "string"
        }
      ],
      "stateMutability": "view",
      "type": "function"
    }
  ],
  "bytecode": "0x60806040523480156200001157600080fd5b50604080518082018252601781527f45524331313535373231496e76656e746f72794d6f636b00000000000000000060208083019182528351808501909452600384526224a72b60e91b90840152815133938493929091620000769160059162000139565b5080516200008c90600690602084019062000139565b5050600980546001600160a01b0319166001600160a01b0384169081179091556040519091506000907f8be0079c531659141344cd1fd0a4f28419497f9722a3daafe3b4186f6b6457e0908290a350620000e681620000ed565b50620001e5565b6001600160a01b0381166000818152600b6020526040808220805460ff19166001179055517f6ae172837ea30b801fbfcdd4108aa1d5bf8ff775444fd70256b44e6bf3dfc3f69190a250565b828054600181600116156101000203166002900490600052602060002090601f016020900481019282620001715760008555620001bc565b82601f106200018c57805160ff1916838001178555620001bc565b82800160010185558215620001bc579182015b82811115620001bc5782518255916020019190600101906200019f565b50620001ca929150620001ce565b5090565b5b80821115620001ca5760008155600101620001cf565b6146d480620001f56000396000f3fe608060405234801561001057600080fd5b50600436106102765760003560e01c80637e518ec811610160578063b88d4fde116100d8578063e8ab9ccc1161008c578063f242432a11610071578063f242432a14610e70578063f2fde38b14610f3b578063f3993d1114610f6157610276565b8063e8ab9ccc14610cdc578063e985e9c514610e4257610276565b8063c7778baa116100bd578063c7778baa14610c85578063c87b56dd14610ca2578063d0011d9d14610cbf57610276565b8063b88d4fde14610ba2578063bd85b03914610c6857610276565b8063983b2d561161012f578063a22cb46511610114578063a22cb46514610b31578063aa271e1a14610b5f578063adebf6f214610b8557610276565b8063983b2d5614610b035780639865027514610b2957610276565b80637e518ec8146109fe5780638832e6e314610a6e5780638da5cb5b14610af357806395d89b4114610afb57610276565b806340c10f19116101f3578063510b5158116101c25780635cfa9297116101a75780635cfa92971461092f5780636352211e146109bb57806370a08231146109d857610276565b8063510b51581461090a5780635b2bd79e1461092757610276565b806340c10f191461071657806342842e0e146107425780634684d7e9146107785780634e1273f4146107f857610276565b8063095ea7b31161024a5780630e89341c1161022f5780630e89341c146104fc57806323b872dd146105195780632eb2c2d61461054f57610276565b8063095ea7b3146103aa5780630d6a5bbb146103d857610276565b8062fdd58e1461027b57806301ffc9a7146102b957806306fdde03146102f4578063081812fc14610371575b600080fd5b6102a76004803603604081101561029157600080fd5b506001600160a01b03813516906020013561101d565b60408051918252519081900360200190f35b6102e0600480360360208110156102cf57600080fd5b50356001600160e01b0319166110e8565b604080519115158252519081900360200190f35b6102fc61112e565b6040805160208082528351818301528351919283929083019185019080838360005b8381101561033657818101518382015260200161031e565b50505050905090810190601f1680156103635780820380516001836020036101000a031916815260200191505b509250505060405180910390f35b61038e6004803603602081101561038757600080fd5b50356111c4565b604080516001600160a01b039092168252519081900360200190f35b6103d6600480360360408110156103c057600080fd5b506001600160a01b038135169060200135611274565b005b6103d6600480360360808110156103ee57600080fd5b6001600160a01b03823516919081019060408101602082013564010000000081111561041957600080fd5b82018360208201111561042b57600080fd5b8035906020019184602083028401116401000000008311171561044d57600080fd5b91939092909160208101903564010000000081111561046b57600080fd5b82018360208201111561047d57600080fd5b8035906020019184602083028401116401000000008311171561049f57600080fd5b9193909290916020810190356401000000008111156104bd57600080fd5b8201836020820111156104cf57600080fd5b803590602001918460018302840111640100000000831117156104f157600080fd5b5090925090506113d7565b6102fc6004803603602081101561051257600080fd5b5035611492565b6103d66004803603606081101561052f57600080fd5b506001600160a01b0381358116916020810135909116906040013561149d565b6103d6600480360360a081101561056557600080fd5b6001600160a01b03823581169260208101359091169181019060608101604082013564010000000081111561059957600080fd5b8201836020820111156105ab57600080fd5b803590602001918460208302840111640100000000831117156105cd57600080fd5b919080806020026020016040519081016040528093929190818152602001838360200280828437600092019190915250929594936020810193503591505064010000000081111561061d57600080fd5b82018360208201111561062f57600080fd5b8035906020019184602083028401116401000000008311171561065157600080fd5b91908080602002602001604051908101604052809392919081815260200183836020028082843760009201919091525092959493602081019350359150506401000000008111156106a157600080fd5b8201836020820111156106b357600080fd5b803590602001918460018302840111640100000000831117156106d557600080fd5b91908080601f0160208091040260200160405190810160405280939291908181526020018383808284376000920191909152509295506114bf945050505050565b6103d66004803603604081101561072c57600080fd5b506001600160a01b0381351690602001356114d3565b6103d66004803603606081101561075857600080fd5b506001600160a01b038135811691602081013590911690604001356114fe565b6103d66004803603604081101561078e57600080fd5b6001600160a01b0382351691908101906040810160208201356401000000008111156107b957600080fd5b8201836020820111156107cb57600080fd5b803590602001918460208302840111640100000000831117156107ed57600080fd5b50909250905061151b565b6108ba6004803603604081101561080e57600080fd5b81019060208101813564010000000081111561082957600080fd5b82018360208201111561083b57600080fd5b8035906020019184602083028401116401000000008311171561085d57600080fd5b91939092909160208101903564010000000081111561087b57600080fd5b82018360208201111561088d57600080fd5b803590602001918460208302840111640100000000831117156108af57600080fd5b509092509050611563565b60408051602080825283518183015283519192839290830191858101910280838360005b838110156108f65781810151838201526020016108de565b505050509050019250505060405180910390f35b61038e6004803603602081101561092057600080fd5b5035611669565b6102fc611674565b6103d66004803603608081101561094557600080fd5b6001600160a01b03823516916020810135916040820135919081019060808101606082013564010000000081111561097c57600080fd5b82018360208201111561098e57600080fd5b803590602001918460018302840111640100000000831117156109b057600080fd5b509092509050611702565b61038e600480360360208110156109d157600080fd5b503561174f565b6102a7600480360360208110156109ee57600080fd5b50356001600160a01b031661175a565b6103d660048036036020811015610a1457600080fd5b810190602081018135640100000000811115610a2f57600080fd5b820183602082011115610a4157600080fd5b80359060200191846001830284011164010000000083111715610a6357600080fd5b5090925090506117d3565b6103d660048036036060811015610a8457600080fd5b6001600160a01b0382351691602081013591810190606081016040820135640100000000811115610ab457600080fd5b820183602082011115610ac657600080fd5b80359060200191846001830284011164010000000083111715610ae857600080fd5b509092509050611854565b61038e6118a9565b6102fc6118b8565b6103d660048036036020811015610b1957600080fd5b50356001600160a01b0316611919565b6103d6611930565b6103d660048036036040811015610b4757600080fd5b506001600160a01b038135169060200135151561198e565b6102e060048036036020811015610b7557600080fd5b50356001600160a01b0316611a6d565b6102e060048036036020811015610b9b57600080fd5b5035611a82565b6103d660048036036080811015610bb857600080fd5b6001600160a01b03823581169260208101359091169160408201359190810190608081016060820135640100000000811115610bf357600080fd5b820183602082011115610c0557600080fd5b80359060200191846001830284011164010000000083111715610c2757600080fd5b91908080601f016020809104026020016040519081016040528093929190818152602001838380828437600092019190915250929550611a8d945050505050565b6102a760048036036020811015610c7e57600080fd5b5035611a9b565b6102a760048036036020811015610c9b57600080fd5b5035611af1565b6102fc60048036036020811015610cb857600080fd5b5035611b56565b6103d660048036036020811015610cd557600080fd5b5035611bcb565b6103d660048036036080811015610cf257600080fd5b810190602081018135640100000000811115610d0d57600080fd5b820183602082011115610d1f57600080fd5b80359060200191846020830284011164010000000083111715610d4157600080fd5b919390929091602081019035640100000000811115610d5f57600080fd5b820183602082011115610d7157600080fd5b80359060200191846020830284011164010000000083111715610d9357600080fd5b919390929091602081019035640100000000811115610db157600080fd5b820183602082011115610dc357600080fd5b80359060200191846020830284011164010000000083111715610de557600080fd5b919390929091602081019035640100000000811115610e0357600080fd5b820183602082011115610e1557600080fd5b80359060200191846001830284011164010000000083111715610e3757600080fd5b509092509050611bdf565b6102e060048036036040811015610e5857600080fd5b506001600160a01b0381358116916020013516611c04565b6103d6600480360360a0811015610e8657600080fd5b6001600160a01b03823581169260208101359091169160408201359160608101359181019060a081016080820135640100000000811115610ec657600080fd5b820183602082011115610ed857600080fd5b80359060200191846001830284011164010000000083111715610efa57600080fd5b91908080601f016020809104026020016040519081016040528093929190818152602001838380828437600092019190915250929550611c30945050505050565b6103d660048036036020811015610f5157600080fd5b50356001600160a01b0316611df6565b6103d660048036036060811015610f7757600080fd5b6001600160a01b038235811692602081013590911691810190606081016040820135640100000000811115610fab57600080fd5b820183602082011115610fbd57600080fd5b80359060200191846020830284011164010000000083111715610fdf57600080fd5b919080806020026020016040519081016040528093929190818152602001838360200280828437600092019190915250929550611e5e945050505050565b60006001600160a01b03831661107a576040805162461bcd60e51b815260206004820152601760248201527f496e76656e746f72793a207a65726f2061646472657373000000000000000000604482015290519081900360640190fd5b61108382612146565b156110bd576000828152600360205260409020546001600160a01b038481169116146110b05760006110b3565b60015b60ff1690506110e2565b5060008181526001602090815260408083206001600160a01b03861684529091529020545b92915050565b60006001600160e01b031982167f510b5158000000000000000000000000000000000000000000000000000000001480611126575061112682612198565b90505b919050565b60058054604080516020601f60026000196101006001881615020190951694909404938401819004810282018101909252828152606093909290918301828280156111ba5780601f1061118f576101008083540402835291602001916111ba565b820191906000526020600020905b81548152906001019060200180831161119d57829003601f168201915b5050505050905090565b6000818152600360205260408120546001600160a01b03811661122e576040805162461bcd60e51b815260206004820152601b60248201527f496e76656e746f72793a206e6f6e2d6578697374696e67204e46540000000000604482015290519081900360640190fd5b7401000000000000000000000000000000000000000081161561126a5750506000818152600860205260409020546001600160a01b0316611129565b6000915050611129565b600061127f8261174f565b9050806001600160a01b0316836001600160a01b031614156112e8576040805162461bcd60e51b815260206004820152601860248201527f496e76656e746f72793a2073656c662d617070726f76616c0000000000000000604482015290519081900360640190fd5b6112f9816112f461223e565b612242565b61134a576040805162461bcd60e51b815260206004820152601e60248201527f496e76656e746f72793a206e6f6e2d617070726f7665642073656e6465720000604482015290519081900360640190fd5b60008281526003602090815260408083206001600160a01b038086167401000000000000000000000000000000000000000081179092556008909352818420805493881673ffffffffffffffffffffffffffffffffffffffff1990941684179055905185937f8c5be1e5ebec7d5bd14f71427d1e84f3dd0314c0f7b2291e5b200ac8c7c3b92591a4505050565b6113e76113e261223e565b61228e565b6114898787878080602002602001604051908101604052809392919081815260200183836020028082843760009201919091525050604080516020808b0282810182019093528a82529093508a92508991829185019084908082843760009201919091525050604080516020601f8a0181900481028201810190925288815292508891508790819084018382808284376000920191909152506122fb92505050565b50505050505050565b60606111268261265c565b6114ba83838360405180602001604052806000815250600061272f565b505050565b6114cc858585858561289d565b5050505050565b6114de6113e261223e565b6114fa8282604051806020016040528060008152506000612bb7565b5050565b6114ba83838360405180602001604052806000815250600161272f565b6115266113e261223e565b6114ba83838380806020026020016040519081016040528093929190818152602001838360200280828437600092019190915250612d5b92505050565b60608382146115b9576040805162461bcd60e51b815260206004820152601e60248201527f496e76656e746f72793a20696e636f6e73697374656e74206172726179730000604482015290519081900360640190fd5b60008467ffffffffffffffff811180156115d257600080fd5b506040519080825280602002602001820160405280156115fc578160200160208202803683370190505b50905060005b80861461165f5761164087878381811061161857fe5b905060200201356001600160a01b031686868481811061163457fe5b9050602002013561101d565b82828151811061164c57fe5b6020908102919091010152600101611602565b5095945050505050565b6000611126826130b9565b600a805460408051602060026001851615610100026000190190941693909304601f810184900484028201840190925281815292918301828280156116fa5780601f106116cf576101008083540402835291602001916116fa565b820191906000526020600020905b8154815290600101906020018083116116dd57829003601f168201915b505050505081565b61170d6113e261223e565b6114cc85858585858080601f01602080910402602001604051908101604052809392919081815260200183838082843760009201919091525061313292505050565b60006111268261327d565b60006001600160a01b0382166117b7576040805162461bcd60e51b815260206004820152601760248201527f496e76656e746f72793a207a65726f2061646472657373000000000000000000604482015290519081900360640190fd5b506001600160a01b031660009081526007602052604090205490565b6117e36117de61223e565b6132e7565b6117ef600a83836145fd565b507f04b1dc5c136a3ce9fded8db0ce3d3366c58764ec3a8e4c2b9e52e4ddfe5ebbf7828260405180806020018281038252848482818152602001925080828437600083820152604051601f909101601f19169092018290039550909350505050a15050565b61185f6113e261223e565b6118a3848484848080601f01602080910402602001604051908101604052809392919081815260200183838082843760009201919091525060019250612bb7915050565b50505050565b6009546001600160a01b031690565b60068054604080516020601f60026000196101006001881615020190951694909404938401819004810282018101909252828152606093909290918301828280156111ba5780601f1061118f576101008083540402835291602001916111ba565b6119246117de61223e565b61192d816133ab565b50565b600061193a61223e565b90506119458161228e565b6001600160a01b0381166000818152600b6020526040808220805460ff19169055517fe94479a9f7e1952cc78f2d6baab678adc1b772d936c6583def489e524cb666929190a250565b600061199861223e565b9050806001600160a01b0316836001600160a01b03161415611a01576040805162461bcd60e51b815260206004820152601860248201527f496e76656e746f72793a2073656c662d617070726f76616c0000000000000000604482015290519081900360640190fd5b6001600160a01b0381811660008181526020818152604080832094881680845294825291829020805460ff1916871515908117909155825190815291517f17307eab39ab6107e8899845ad3d59bd9653f200f220920489ca2b5937696c319281900390910190a3505050565b600b6020526000908152604090205460ff1681565b6000611126826133f7565b6118a384848484600161272f565b6000611aa682612146565b15611adc576000828152600360205260409020546001600160a01b031615611acf576001611ad2565b60005b60ff169050611129565b50600081815260026020526040902054611129565b6000611afc82612146565b611b4d576040805162461bcd60e51b815260206004820152601560248201527f496e76656e746f72793a206e6f7420616e204e46540000000000000000000000604482015290519081900360640190fd5b6111268261341d565b6000818152600360205260409020546060906001600160a01b0316611bc2576040805162461bcd60e51b815260206004820152601b60248201527f496e76656e746f72793a206e6f6e2d6578697374696e67204e46540000000000604482015290519081900360640190fd5b61112682611492565b611bd66117de61223e565b61192d8161342a565b611bea6113e261223e565b611bfa888888888888888861356b565b5050505050505050565b6001600160a01b0391821660009081526020818152604080832093909416825291909152205460ff1690565b6000611c3a61223e565b90506001600160a01b038516611c97576040805162461bcd60e51b815260206004820152601b60248201527f496e76656e746f72793a207472616e7366657220746f207a65726f0000000000604482015290519081900360640190fd5b6000611ca38783612242565b9050611cae856133f7565b15611cc557611cc087878787856138bd565b611d75565b611cce85612146565b15611d2857611ce287878787856000613a30565b84866001600160a01b0316886001600160a01b03167fddf252ad1be2c89b69c2b068fc378daa952ba7f163c4a11628f55a4df523b3ef60405160405180910390a4611d75565b6040805162461bcd60e51b815260206004820152601960248201527f496e76656e746f72793a206e6f74206120746f6b656e20696400000000000000604482015290519081900360640190fd5b856001600160a01b0316876001600160a01b0316836001600160a01b03167fc3d58168c5ae7397731d063d5bbf3d657854427343f4c083240f7aacaa2d0f628888604051808381526020018281526020019250505060405180910390a4611de4866001600160a01b0316613bd6565b15611489576114898787878787613bdc565b611e016117de61223e565b6009805473ffffffffffffffffffffffffffffffffffffffff19166001600160a01b0383811691821792839055604051919216907f8be0079c531659141344cd1fd0a4f28419497f9722a3daafe3b4186f6b6457e090600090a350565b6001600160a01b038216611eb9576040805162461bcd60e51b815260206004820152601b60248201527f496e76656e746f72793a207472616e7366657220746f207a65726f0000000000604482015290519081900360640190fd5b6000611ec361223e565b90506000611ed18583612242565b835190915060008167ffffffffffffffff81118015611eef57600080fd5b50604051908082528060200260200182016040528015611f19578160200160208202803683370190505b50905060008060005b848114611ffa576000888281518110611f3757fe5b602002602001015190506001858381518110611f4f57fe5b602002602001018181525050611f6b8b8b8360018b6001613a30565b808a6001600160a01b03168c6001600160a01b03167fddf252ad1be2c89b69c2b068fc378daa952ba7f163c4a11628f55a4df523b3ef60405160405180910390a46000611fb78261341d565b905084611fca5780945060019350611ff0565b848114611fe957611fdd8c8c8787613d66565b80945060019350611ff0565b8360010193505b5050600101611f22565b5081156120185761200d89898484613d66565b612018898986613dba565b876001600160a01b0316896001600160a01b031661203461223e565b6001600160a01b03167f4a39dc06d4c0dbc64b70af90fd698a233a518aa5d07e595d983b8c0526c8f7fb8a87604051808060200180602001838103835285818151815260200191508051906020019060200280838360005b838110156120a457818101518382015260200161208c565b50505050905001838103825284818151815260200191508051906020019060200280838360005b838110156120e35781810151838201526020016120cb565b5050505090500194505050505060405180910390a461210a886001600160a01b0316613bd6565b801561211a575061211a88613e05565b1561213b5761213b8989898660405180602001604052806000815250613ecd565b505050505050505050565b60007f80000000000000000000000000000000000000000000000000000000000000008216158015906111265750507bffffffffffffffffffffffffffffffffffffffffffffffffffffffff16151590565b60006001600160e01b031982167f80ac58cd0000000000000000000000000000000000000000000000000000000014806121fb57506001600160e01b031982167f5b5e139f00000000000000000000000000000000000000000000000000000000145b8061222f57506001600160e01b031982167ff3993d1100000000000000000000000000000000000000000000000000000000145b8061112657506111268261404b565b3390565b6000816001600160a01b0316836001600160a01b0316148061228757506001600160a01b038084166000908152602081815260408083209386168352929052205460ff165b9392505050565b6001600160a01b0381166000908152600b602052604090205460ff1661192d576040805162461bcd60e51b815260206004820152601860248201527f4d696e746572526f6c653a206e6f742061204d696e7465720000000000000000604482015290519081900360640190fd5b6001600160a01b038416612356576040805162461bcd60e51b815260206004820152601760248201527f496e76656e746f72793a206d696e7420746f207a65726f000000000000000000604482015290519081900360640190fd5b8251825181146123ad576040805162461bcd60e51b815260206004820152601e60248201527f496e76656e746f72793a20696e636f6e73697374656e74206172726179730000604482015290519081900360640190fd5b6000806000805b84811461250a5760008882815181106123c957fe5b6020026020010151905060008883815181106123e157fe5b602002602001015190506123f4826133f7565b15612409576124048b838361414c565b612500565b61241282612146565b15611d28576124248b8383600161423e565b60405182906001600160a01b038d16906000907fddf252ad1be2c89b69c2b068fc378daa952ba7f163c4a11628f55a4df523b3ef908290a460006124678361341d565b90508661247a57809650600195506124fe565b8681146124f757856001600089815260200190815260200160002060008e6001600160a01b03166001600160a01b03168152602001908152602001600020600082825401925050819055508560026000898152602001908152602001600020600082825401925050819055508096508585019450600195506124fe565b8560010195505b505b50506001016123b4565b50821561255f5760008381526001602090815260408083206001600160a01b038c1680855290835281842080548701905586845260028352818420805487019055835260079091529020805491830191820190555b6001600160a01b038816600061257361223e565b6001600160a01b03167f4a39dc06d4c0dbc64b70af90fd698a233a518aa5d07e595d983b8c0526c8f7fb8a8a604051808060200180602001838103835285818151815260200191508051906020019060200280838360005b838110156125e35781810151838201526020016125cb565b50505050905001838103825284818151815260200191508051906020019060200280838360005b8381101561262257818101518382015260200161260a565b5050505090500194505050505060405180910390a4612649886001600160a01b0316613bd6565b15611bfa57611bfa600089898989613ecd565b6060600a6126698361436c565b60405160200180838054600181600116156101000203166002900480156126c75780601f106126a55761010080835404028352918201916126c7565b820191906000526020600020905b8154815290600101906020018083116126b3575b5050825160208401908083835b602083106126f35780518252601f1990920191602091820191016126d4565b6001836020036101000a038019825116818451168082178552505050505050905001925050506040516020818303038152906040529050919050565b6001600160a01b03841661278a576040805162461bcd60e51b815260206004820152601b60248201527f496e76656e746f72793a207472616e7366657220746f207a65726f0000000000604482015290519081900360640190fd5b600061279461223e565b905060006127a28783612242565b90506127b48787876001856000613a30565b84866001600160a01b0316886001600160a01b03167fddf252ad1be2c89b69c2b068fc378daa952ba7f163c4a11628f55a4df523b3ef60405160405180910390a4856001600160a01b0316876001600160a01b0316836001600160a01b03167fc3d58168c5ae7397731d063d5bbf3d657854427343f4c083240f7aacaa2d0f62886001604051808381526020018281526020019250505060405180910390a4612865866001600160a01b0316613bd6565b156114895761287386613e05565b1561288b57612886878787600188613bdc565b611489565b8215611489576114898787878761447b565b6001600160a01b0384166128f8576040805162461bcd60e51b815260206004820152601b60248201527f496e76656e746f72793a207472616e7366657220746f207a65726f0000000000604482015290519081900360640190fd5b82518251811461294f576040805162461bcd60e51b815260206004820152601e60248201527f496e76656e746f72793a20696e636f6e73697374656e74206172726179730000604482015290519081900360640190fd5b600061295961223e565b905060006129678883612242565b90506000806000805b868114612a865760008a828151811061298557fe5b60200260200101519050612998816133f7565b156129c2576129bd8d8d838d86815181106129af57fe5b60200260200101518a6138bd565b612a7d565b6129cb81612146565b15611d28576129f28d8d838d86815181106129e257fe5b60200260200101518a6001613a30565b808c6001600160a01b03168e6001600160a01b03167fddf252ad1be2c89b69c2b068fc378daa952ba7f163c4a11628f55a4df523b3ef60405160405180910390a46000612a3e8261341d565b905085612a515780955060019450612a7b565b858114612a7457612a648e8e8888613d66565b9450600193929092019184612a7b565b8460010194505b505b50600101612970565b508215612aa657612a998b8b8585613d66565b8101612aa68b8b83613dba565b896001600160a01b03168b6001600160a01b0316612ac261223e565b6001600160a01b03167f4a39dc06d4c0dbc64b70af90fd698a233a518aa5d07e595d983b8c0526c8f7fb8c8c604051808060200180602001838103835285818151815260200191508051906020019060200280838360005b83811015612b32578181015183820152602001612b1a565b50505050905001838103825284818151815260200191508051906020019060200280838360005b83811015612b71578181015183820152602001612b59565b5050505090500194505050505060405180910390a4612b988a6001600160a01b0316613bd6565b15612baa57612baa8b8b8b8b8b613ecd565b5050505050505050505050565b6001600160a01b038416612c12576040805162461bcd60e51b815260206004820152601760248201527f496e76656e746f72793a206d696e7420746f207a65726f000000000000000000604482015290519081900360640190fd5b612c1b83612146565b612c6c576040805162461bcd60e51b815260206004820152601560248201527f496e76656e746f72793a206e6f7420616e204e46540000000000000000000000604482015290519081900360640190fd5b612c7a84846001600061423e565b60405183906001600160a01b038616906000907fddf252ad1be2c89b69c2b068fc378daa952ba7f163c4a11628f55a4df523b3ef908290a46001600160a01b0384166000612cc661223e565b6001600160a01b03167fc3d58168c5ae7397731d063d5bbf3d657854427343f4c083240f7aacaa2d0f62866001604051808381526020018281526020019250505060405180910390a4612d21846001600160a01b0316613bd6565b156118a357612d2f84613e05565b15612d4857612d4360008585600186613bdc565b6118a3565b80156118a3576118a3600085858561447b565b6001600160a01b038216612db6576040805162461bcd60e51b815260206004820152601760248201527f496e76656e746f72793a206d696e7420746f207a65726f000000000000000000604482015290519081900360640190fd5b805160008167ffffffffffffffff81118015612dd157600080fd5b50604051908082528060200260200182016040528015612dfb578160200160208202803683370190505b50905060008060005b848114612f55576000868281518110612e1957fe5b60200260200101519050612e2c81612146565b612e7d576040805162461bcd60e51b815260206004820152601560248201527f496e76656e746f72793a206e6f7420616e204e46540000000000000000000000604482015290519081900360640190fd5b6001858381518110612e8b57fe5b602002602001018181525050612ea4888260018061423e565b60405181906001600160a01b038a16906000907fddf252ad1be2c89b69c2b068fc378daa952ba7f163c4a11628f55a4df523b3ef908290a46000612ee78261341d565b905084612efa5780945060019350612f4b565b848114612f445760008581526001602081815260408084206001600160a01b038e168552825280842080548901905597835260029052959020805490940190935591929183612f4b565b8360010193505b5050600101612e04565b5060008281526001602090815260408083206001600160a01b038a16808552908352818420805486019055858452600283528184208054860190558084526007909252822080548701905590612fa961223e565b6001600160a01b03167f4a39dc06d4c0dbc64b70af90fd698a233a518aa5d07e595d983b8c0526c8f7fb8887604051808060200180602001838103835285818151815260200191508051906020019060200280838360005b83811015613019578181015183820152602001613001565b50505050905001838103825284818151815260200191508051906020019060200280838360005b83811015613058578181015183820152602001613040565b5050505090500194505050505060405180910390a461307f866001600160a01b0316613bd6565b801561308f575061308f86613e05565b156130b1576130b1600087878660405180602001604052806000815250613ecd565b505050505050565b60006130c482612146565b15613116576040805162461bcd60e51b815260206004820152601b60248201527f496e76656e746f72793a206e6f74206120636f6c6c656374696f6e0000000000604482015290519081900360640190fd5b506000908152600460205260409020546001600160a01b031690565b6001600160a01b03841661318d576040805162461bcd60e51b815260206004820152601760248201527f496e76656e746f72793a206d696e7420746f207a65726f000000000000000000604482015290519081900360640190fd5b600061319761223e565b90506131a2846133f7565b156131b7576131b285858561414c565b61320b565b6131c084612146565b15611d28576131d2858585600061423e565b60405184906001600160a01b038716906000907fddf252ad1be2c89b69c2b068fc378daa952ba7f163c4a11628f55a4df523b3ef908290a45b604080518581526020810185905281516001600160a01b0380891693600093918616927fc3d58168c5ae7397731d063d5bbf3d657854427343f4c083240f7aacaa2d0f629281900390910190a461326a856001600160a01b0316613bd6565b156114cc576114cc600086868686613bdc565b6000818152600360205260408120546001600160a01b038116611126576040805162461bcd60e51b815260206004820152601b60248201527f496e76656e746f72793a206e6f6e2d6578697374696e67204e46540000000000604482015290519081900360640190fd5b306001600160a01b0316638da5cb5b6040518163ffffffff1660e01b815260040160206040518083038186803b15801561332057600080fd5b505afa158015613334573d6000803e3d6000fd5b505050506040513d602081101561334a57600080fd5b50516001600160a01b0382811691161461192d576040805162461bcd60e51b815260206004820152601660248201527f4f776e61626c653a206e6f7420746865206f776e657200000000000000000000604482015290519081900360640190fd5b6001600160a01b0381166000818152600b6020526040808220805460ff19166001179055517f6ae172837ea30b801fbfcdd4108aa1d5bf8ff775444fd70256b44e6bf3dfc3f69190a250565b7f8000000000000000000000000000000000000000000000000000000000000000161590565b6001600160e01b03191690565b61343381612146565b15613485576040805162461bcd60e51b815260206004820152601b60248201527f496e76656e746f72793a206e6f74206120636f6c6c656374696f6e0000000000604482015290519081900360640190fd5b6000818152600460205260409020546001600160a01b0316156134ef576040805162461bcd60e51b815260206004820152601e60248201527f496e76656e746f72793a206578697374696e6720636f6c6c656374696f6e0000604482015290519081900360640190fd5b6134f761223e565b6000828152600460205260409020805473ffffffffffffffffffffffffffffffffffffffff19166001600160a01b0392909216919091179055613539816133f7565b1515817f4ebf8ad0df535ba5e487bc9cb27fe44120ca81c3a95d3eba79c0bd1df2ab2d5d60405160405180910390a350565b86858114801561357a57508084145b6135cb576040805162461bcd60e51b815260206004820152601e60248201527f496e76656e746f72793a20696e636f6e73697374656e74206172726179730000604482015290519081900360640190fd5b60006135d561223e565b905060005b828114612baa5760008b8b838181106135ef57fe5b905060200201356001600160a01b0316905060006001600160a01b0316816001600160a01b03161415613669576040805162461bcd60e51b815260206004820152601760248201527f496e76656e746f72793a206d696e7420746f207a65726f000000000000000000604482015290519081900360640190fd5b60008a8a8481811061367757fe5b905060200201359050600089898581811061368e57fe5b9050602002013590506136a0826133f7565b1561375d576136b083838361414c565b604080518381526020810183905281516001600160a01b0380871693600093918a16927fc3d58168c5ae7397731d063d5bbf3d657854427343f4c083240f7aacaa2d0f629281900390910190a461370f836001600160a01b0316613bd6565b156137585761375860008484848c8c8080601f016020809104026020016040519081016040528093929190818152602001838380828437600092019190915250613bdc92505050565b6138af565b61376682612146565b15611d2857613778838383600061423e565b60405182906001600160a01b038516906000907fddf252ad1be2c89b69c2b068fc378daa952ba7f163c4a11628f55a4df523b3ef908290a4604080518381526001602082015281516001600160a01b0380871693600093918a16927fc3d58168c5ae7397731d063d5bbf3d657854427343f4c083240f7aacaa2d0f629281900390910190a461380f836001600160a01b0316613bd6565b156137585761381d83613e05565b1561386c576138676000848460018c8c8080601f016020809104026020016040519081016040528093929190818152602001838380828437600092019190915250613bdc92505050565b613758565b613758600084848b8b8080601f01602080910402602001604051908101604052809392919081815260200183838082843760009201919091525061447b92505050565b5050508060010190506135da565b8061390f576040805162461bcd60e51b815260206004820152601e60248201527f496e76656e746f72793a206e6f6e2d617070726f7665642073656e6465720000604482015290519081900360640190fd5b81613961576040805162461bcd60e51b815260206004820152601560248201527f496e76656e746f72793a207a65726f2076616c75650000000000000000000000604482015290519081900360640190fd5b60008381526001602090815260408083206001600160a01b0389168452909152902054828110156139d9576040805162461bcd60e51b815260206004820152601d60248201527f496e76656e746f72793a206e6f7420656e6f7567682062616c616e6365000000604482015290519081900360640190fd5b846001600160a01b0316866001600160a01b0316146130b15760009384526001602090815260408086206001600160a01b039889168752909152808520918490039091559390941682529190208054909101905550565b82600114613a85576040805162461bcd60e51b815260206004820152601a60248201527f496e76656e746f72793a2077726f6e67204e46542076616c7565000000000000604482015290519081900360640190fd5b6000848152600360205260409020546001600160a01b0387811690821614613af4576040805162461bcd60e51b815260206004820152601860248201527f496e76656e746f72793a206e6f6e2d6f776e6564204e46540000000000000000604482015290519081900360640190fd5b82613b965774010000000000000000000000000000000000000000811615801590613b4557506000858152600860205260409020546001600160a01b0316613b3a61223e565b6001600160a01b0316145b613b96576040805162461bcd60e51b815260206004820152601e60248201527f496e76656e746f72793a206e6f6e2d617070726f7665642073656e6465720000604482015290519081900360640190fd5b60008581526003602052604090206001600160a01b03871690558161148957613bc187876001613dba565b6114898787613bcf8861341d565b6001613d66565b3b151590565b7ff23a6e61000000000000000000000000000000000000000000000000000000006001600160a01b03851663f23a6e61613c1461223e565b888787876040518663ffffffff1660e01b815260040180866001600160a01b03168152602001856001600160a01b0316815260200184815260200183815260200180602001828103825283818151815260200191508051906020019080838360005b83811015613c8e578181015183820152602001613c76565b50505050905090810190601f168015613cbb5780820380516001836020036101000a031916815260200191505b509650505050505050602060405180830381600087803b158015613cde57600080fd5b505af1158015613cf2573d6000803e3d6000fd5b505050506040513d6020811015613d0857600080fd5b50516001600160e01b031916146114cc576040805162461bcd60e51b815260206004820152601b60248201527f496e76656e746f72793a207472616e7366657220726566757365640000000000604482015290519081900360640190fd5b826001600160a01b0316846001600160a01b0316146118a35760009182526001602090815260408084206001600160a01b039687168552909152808320805483900390559290931681522080549091019055565b816001600160a01b0316836001600160a01b0316146114ba576001600160a01b0380841660009081526007602052604080822080548590039055918416815220805482019055505050565b604080517f4e2312e0000000000000000000000000000000000000000000000000000000006024808301919091528251808303909101815260449091018252602081810180517bffffffffffffffffffffffffffffffffffffffffffffffffffffffff167f01ffc9a7000000000000000000000000000000000000000000000000000000001781528251935160008082529485948594909392908183858b612710fa955080519450505050609e5a11613eba57fe5b828015613ec45750815b95945050505050565b7fbc197c81000000000000000000000000000000000000000000000000000000006001600160a01b03851663bc197c81613f0561223e565b888787876040518663ffffffff1660e01b815260040180866001600160a01b03168152602001856001600160a01b03168152602001806020018060200180602001848103845287818151815260200191508051906020019060200280838360005b83811015613f7e578181015183820152602001613f66565b50505050905001848103835286818151815260200191508051906020019060200280838360005b83811015613fbd578181015183820152602001613fa5565b50505050905001848103825285818151815260200191508051906020019080838360005b83811015613ff9578181015183820152602001613fe1565b50505050905090810190601f1680156140265780820380516001836020036101000a031916815260200191505b5098505050505050505050602060405180830381600087803b158015613cde57600080fd5b60006001600160e01b031982167f01ffc9a70000000000000000000000000000000000000000000000000000000014806140ae57506001600160e01b031982167fd9b67a2600000000000000000000000000000000000000000000000000000000145b806140e257506001600160e01b031982167f0e89341c00000000000000000000000000000000000000000000000000000000145b8061411657506001600160e01b031982167f09ce5c4600000000000000000000000000000000000000000000000000000000145b806111265750506001600160e01b0319167fbd85b039000000000000000000000000000000000000000000000000000000001490565b8061419e576040805162461bcd60e51b815260206004820152601560248201527f496e76656e746f72793a207a65726f2076616c75650000000000000000000000604482015290519081900360640190fd5b600082815260026020526040902054818101818111614204576040805162461bcd60e51b815260206004820152601a60248201527f496e76656e746f72793a20737570706c79206f766572666c6f77000000000000604482015290519081900360640190fd5b600093845260026020908152604080862092909255600181528185206001600160a01b039096168552949094525091902080549091019055565b81600114614293576040805162461bcd60e51b815260206004820152601a60248201527f496e76656e746f72793a2077726f6e67204e46542076616c7565000000000000604482015290519081900360640190fd5b600083815260036020526040902054156142f4576040805162461bcd60e51b815260206004820152601d60248201527f496e76656e746f72793a206578697374696e672f6275726e74204e4654000000604482015290519081900360640190fd5b60008381526003602052604090206001600160a01b0385169055806118a357600061431e8461341d565b6000908152600260209081526040808320805460019081019091558083528184206001600160a01b038a16855283528184208054820190556007909252909120805490910190555050505050565b6060816143ad575060408051808201909152600181527f30000000000000000000000000000000000000000000000000000000000000006020820152611129565b8160005b81156143c557600101600a820491506143b1565b60008167ffffffffffffffff811180156143de57600080fd5b506040519080825280601f01601f191660200182016040528015614409576020820181803683370190505b50859350905060001982015b831561447257600a840660300160f81b8282806001900393508151811061443857fe5b60200101907effffffffffffffffffffffffffffffffffffffffffffffffffffffffffffff1916908160001a905350600a84049350614415565b50949350505050565b7f150b7a02000000000000000000000000000000000000000000000000000000006001600160a01b03841663150b7a026144b361223e565b8786866040518563ffffffff1660e01b815260040180856001600160a01b03168152602001846001600160a01b0316815260200183815260200180602001828103825283818151815260200191508051906020019080838360005b8381101561452657818101518382015260200161450e565b50505050905090810190601f1680156145535780820380516001836020036101000a031916815260200191505b5095505050505050602060405180830381600087803b15801561457557600080fd5b505af1158015614589573d6000803e3d6000fd5b505050506040513d602081101561459f57600080fd5b50516001600160e01b031916146118a3576040805162461bcd60e51b815260206004820152601b60248201527f496e76656e746f72793a207472616e7366657220726566757365640000000000604482015290519081900360640190fd5b828054600181600116156101000203166002900490600052602060002090601f0160209004810192826146335760008555614679565b82601f1061464c5782800160ff19823516178555614679565b82800160010185558215614679579182015b8281111561467957823582559160200191906001019061465e565b50614685929150614689565b5090565b5b80821115614685576000815560010161468a56fea2646970667358221220e7e9556ebe0c618cfb4210a5517197e559ff3251c70ecf9513df15be0e154a9564736f6c63430007060033",
  "linkReferences": {},
  "deployedLinkReferences": {}
}