{
  "_format": "hh-sol-artifact-1",
  "contractName": "ERC1155721InventoryMock",
  "sourceName": "contracts/mocks/token/ERC1155721/ERC1155721InventoryMock.sol",
  "abi": [
    {
      "inputs": [
        {
          "internalType": "contract IForwarderRegistry",
          "name": "forwarderRegistry",
          "type": "address"
        },
        {
          "internalType": "address",
          "name": "universalForwarder",
          "type": "address"
        },
        {
          "internalType": "uint256",
          "name": "collectionMaskLength",
          "type": "uint256"
        }
      ],
      "stateMutability": "nonpayable",
      "type": "constructor"
    },
    {
      "anonymous": false,
      "inputs": [
        {
          "indexed": true,
          "internalType": "address",
          "name": "_owner",
          "type": "address"
        },
        {
          "indexed": true,
          "internalType": "address",
          "name": "_approved",
          "type": "address"
        },
        {
          "indexed": true,
          "internalType": "uint256",
          "name": "_tokenId",
          "type": "uint256"
        }
      ],
      "name": "Approval",
      "type": "event"
    },
    {
      "anonymous": false,
      "inputs": [
        {
          "indexed": true,
          "internalType": "address",
          "name": "_owner",
          "type": "address"
        },
        {
          "indexed": true,
          "internalType": "address",
          "name": "_operator",
          "type": "address"
        },
        {
          "indexed": false,
          "internalType": "bool",
          "name": "_approved",
          "type": "bool"
        }
      ],
      "name": "ApprovalForAll",
      "type": "event"
    },
    {
      "anonymous": false,
      "inputs": [
        {
          "indexed": false,
          "internalType": "string",
          "name": "baseMetadataURI",
          "type": "string"
        }
      ],
      "name": "BaseMetadataURISet",
      "type": "event"
    },
    {
      "anonymous": false,
      "inputs": [
        {
          "indexed": true,
          "internalType": "uint256",
          "name": "collectionId",
          "type": "uint256"
        },
        {
          "indexed": true,
          "internalType": "bool",
          "name": "fungible",
          "type": "bool"
        }
      ],
      "name": "CollectionCreated",
      "type": "event"
    },
    {
      "anonymous": false,
      "inputs": [
        {
          "indexed": true,
          "internalType": "address",
          "name": "account",
          "type": "address"
        }
      ],
      "name": "MinterAdded",
      "type": "event"
    },
    {
      "anonymous": false,
      "inputs": [
        {
          "indexed": true,
          "internalType": "address",
          "name": "account",
          "type": "address"
        }
      ],
      "name": "MinterRemoved",
      "type": "event"
    },
    {
      "anonymous": false,
      "inputs": [
        {
          "indexed": true,
          "internalType": "address",
          "name": "previousOwner",
          "type": "address"
        },
        {
          "indexed": true,
          "internalType": "address",
          "name": "newOwner",
          "type": "address"
        }
      ],
      "name": "OwnershipTransferred",
      "type": "event"
    },
    {
      "anonymous": false,
      "inputs": [
        {
          "indexed": true,
          "internalType": "address",
          "name": "_from",
          "type": "address"
        },
        {
          "indexed": true,
          "internalType": "address",
          "name": "_to",
          "type": "address"
        },
        {
          "indexed": true,
          "internalType": "uint256",
          "name": "_tokenId",
          "type": "uint256"
        }
      ],
      "name": "Transfer",
      "type": "event"
    },
    {
      "anonymous": false,
      "inputs": [
        {
          "indexed": true,
          "internalType": "address",
          "name": "_operator",
          "type": "address"
        },
        {
          "indexed": true,
          "internalType": "address",
          "name": "_from",
          "type": "address"
        },
        {
          "indexed": true,
          "internalType": "address",
          "name": "_to",
          "type": "address"
        },
        {
          "indexed": false,
          "internalType": "uint256[]",
          "name": "_ids",
          "type": "uint256[]"
        },
        {
          "indexed": false,
          "internalType": "uint256[]",
          "name": "_values",
          "type": "uint256[]"
        }
      ],
      "name": "TransferBatch",
      "type": "event"
    },
    {
      "anonymous": false,
      "inputs": [
        {
          "indexed": true,
          "internalType": "address",
          "name": "_operator",
          "type": "address"
        },
        {
          "indexed": true,
          "internalType": "address",
          "name": "_from",
          "type": "address"
        },
        {
          "indexed": true,
          "internalType": "address",
          "name": "_to",
          "type": "address"
        },
        {
          "indexed": false,
          "internalType": "uint256",
          "name": "_id",
          "type": "uint256"
        },
        {
          "indexed": false,
          "internalType": "uint256",
          "name": "_value",
          "type": "uint256"
        }
      ],
      "name": "TransferSingle",
      "type": "event"
    },
    {
      "anonymous": false,
      "inputs": [
        {
          "indexed": false,
          "internalType": "string",
          "name": "_value",
          "type": "string"
        },
        {
          "indexed": true,
          "internalType": "uint256",
          "name": "_id",
          "type": "uint256"
        }
      ],
      "name": "URI",
      "type": "event"
    },
    {
      "inputs": [
        {
          "internalType": "address",
          "name": "account",
          "type": "address"
        }
      ],
      "name": "addMinter",
      "outputs": [],
      "stateMutability": "nonpayable",
      "type": "function"
    },
    {
      "inputs": [
        {
          "internalType": "address",
          "name": "to",
          "type": "address"
        },
        {
          "internalType": "uint256",
          "name": "tokenId",
          "type": "uint256"
        }
      ],
      "name": "approve",
      "outputs": [],
      "stateMutability": "nonpayable",
      "type": "function"
    },
    {
      "inputs": [
        {
          "internalType": "address",
          "name": "owner",
          "type": "address"
        },
        {
          "internalType": "uint256",
          "name": "id",
          "type": "uint256"
        }
      ],
      "name": "balanceOf",
      "outputs": [
        {
          "internalType": "uint256",
          "name": "",
          "type": "uint256"
        }
      ],
      "stateMutability": "view",
      "type": "function"
    },
    {
      "inputs": [
        {
          "internalType": "address",
          "name": "tokenOwner",
          "type": "address"
        }
      ],
      "name": "balanceOf",
      "outputs": [
        {
          "internalType": "uint256",
          "name": "",
          "type": "uint256"
        }
      ],
      "stateMutability": "view",
      "type": "function"
    },
    {
      "inputs": [
        {
          "internalType": "address[]",
          "name": "owners",
          "type": "address[]"
        },
        {
          "internalType": "uint256[]",
          "name": "ids",
          "type": "uint256[]"
        }
      ],
      "name": "balanceOfBatch",
      "outputs": [
        {
          "internalType": "uint256[]",
          "name": "",
          "type": "uint256[]"
        }
      ],
      "stateMutability": "view",
      "type": "function"
    },
    {
      "inputs": [],
      "name": "baseMetadataURI",
      "outputs": [
        {
          "internalType": "string",
          "name": "",
          "type": "string"
        }
      ],
      "stateMutability": "view",
      "type": "function"
    },
    {
      "inputs": [
        {
          "internalType": "address",
          "name": "to",
          "type": "address"
        },
        {
          "internalType": "uint256[]",
          "name": "nftIds",
          "type": "uint256[]"
        }
      ],
      "name": "batchMint",
      "outputs": [],
      "stateMutability": "nonpayable",
      "type": "function"
    },
    {
      "inputs": [
        {
          "internalType": "address",
          "name": "from",
          "type": "address"
        },
        {
          "internalType": "address",
          "name": "to",
          "type": "address"
        },
        {
          "internalType": "uint256[]",
          "name": "nftIds",
          "type": "uint256[]"
        }
      ],
      "name": "batchTransferFrom",
      "outputs": [],
      "stateMutability": "nonpayable",
      "type": "function"
    },
    {
      "inputs": [
        {
          "internalType": "uint256",
          "name": "nftId",
          "type": "uint256"
        }
      ],
      "name": "collectionOf",
      "outputs": [
        {
          "internalType": "uint256",
          "name": "",
          "type": "uint256"
        }
      ],
      "stateMutability": "view",
      "type": "function"
    },
    {
      "inputs": [
        {
          "internalType": "uint256",
          "name": "collectionId",
          "type": "uint256"
        }
      ],
      "name": "createCollection",
      "outputs": [],
      "stateMutability": "nonpayable",
      "type": "function"
    },
    {
      "inputs": [
        {
          "internalType": "uint256",
          "name": "collectionId",
          "type": "uint256"
        }
      ],
      "name": "creator",
      "outputs": [
        {
          "internalType": "address",
          "name": "",
          "type": "address"
        }
      ],
      "stateMutability": "view",
      "type": "function"
    },
    {
      "inputs": [
        {
          "internalType": "uint256",
          "name": "tokenId",
          "type": "uint256"
        }
      ],
      "name": "getApproved",
      "outputs": [
        {
          "internalType": "address",
          "name": "",
          "type": "address"
        }
      ],
      "stateMutability": "view",
      "type": "function"
    },
    {
      "inputs": [
        {
          "internalType": "address",
          "name": "tokenOwner",
          "type": "address"
        },
        {
          "internalType": "address",
          "name": "operator",
          "type": "address"
        }
      ],
      "name": "isApprovedForAll",
      "outputs": [
        {
          "internalType": "bool",
          "name": "",
          "type": "bool"
        }
      ],
      "stateMutability": "view",
      "type": "function"
    },
    {
      "inputs": [
        {
          "internalType": "uint256",
          "name": "id",
          "type": "uint256"
        }
      ],
      "name": "isFungible",
      "outputs": [
        {
          "internalType": "bool",
          "name": "",
          "type": "bool"
        }
      ],
      "stateMutability": "pure",
      "type": "function"
    },
    {
      "inputs": [
        {
          "internalType": "address",
          "name": "",
          "type": "address"
        }
      ],
      "name": "isMinter",
      "outputs": [
        {
          "internalType": "bool",
          "name": "",
          "type": "bool"
        }
      ],
      "stateMutability": "view",
      "type": "function"
    },
    {
      "inputs": [
        {
          "internalType": "address",
          "name": "forwarder",
          "type": "address"
        }
      ],
      "name": "isTrustedForwarder",
      "outputs": [
        {
          "internalType": "bool",
          "name": "",
          "type": "bool"
        }
      ],
      "stateMutability": "view",
      "type": "function"
    },
    {
      "inputs": [
        {
          "internalType": "address",
          "name": "to",
          "type": "address"
        },
        {
          "internalType": "uint256",
          "name": "nftId",
          "type": "uint256"
        }
      ],
      "name": "mint",
      "outputs": [],
      "stateMutability": "nonpayable",
      "type": "function"
    },
    {
      "inputs": [],
      "name": "msgData",
      "outputs": [
        {
          "internalType": "bytes",
          "name": "ret",
          "type": "bytes"
        }
      ],
      "stateMutability": "view",
      "type": "function"
    },
    {
      "inputs": [],
      "name": "name",
      "outputs": [
        {
          "internalType": "string",
          "name": "",
          "type": "string"
        }
      ],
      "stateMutability": "view",
      "type": "function"
    },
    {
      "inputs": [],
      "name": "owner",
      "outputs": [
        {
          "internalType": "address",
          "name": "",
          "type": "address"
        }
      ],
      "stateMutability": "view",
      "type": "function"
    },
    {
      "inputs": [
        {
          "internalType": "uint256",
          "name": "nftId",
          "type": "uint256"
        }
      ],
      "name": "ownerOf",
      "outputs": [
        {
          "internalType": "address",
          "name": "",
          "type": "address"
        }
      ],
      "stateMutability": "view",
      "type": "function"
    },
    {
      "inputs": [
        {
          "internalType": "address[]",
          "name": "accounts",
          "type": "address[]"
        },
        {
          "internalType": "address[]",
          "name": "tokens",
          "type": "address[]"
        },
        {
          "internalType": "uint256[]",
          "name": "amounts",
          "type": "uint256[]"
        }
      ],
      "name": "recoverERC20s",
      "outputs": [],
      "stateMutability": "nonpayable",
      "type": "function"
    },
    {
      "inputs": [
        {
          "internalType": "address[]",
          "name": "accounts",
          "type": "address[]"
        },
        {
          "internalType": "address[]",
          "name": "contracts",
          "type": "address[]"
        },
        {
          "internalType": "uint256[]",
          "name": "tokenIds",
          "type": "uint256[]"
        }
      ],
      "name": "recoverERC721s",
      "outputs": [],
      "stateMutability": "nonpayable",
      "type": "function"
    },
    {
      "inputs": [],
      "name": "renounceMinter",
      "outputs": [],
      "stateMutability": "nonpayable",
      "type": "function"
    },
    {
      "inputs": [
        {
          "internalType": "address",
          "name": "to",
          "type": "address"
        },
        {
          "internalType": "uint256[]",
          "name": "ids",
          "type": "uint256[]"
        },
        {
          "internalType": "uint256[]",
          "name": "values",
          "type": "uint256[]"
        },
        {
          "internalType": "bytes",
          "name": "data",
          "type": "bytes"
        }
      ],
      "name": "safeBatchMint",
      "outputs": [],
      "stateMutability": "nonpayable",
      "type": "function"
    },
    {
      "inputs": [
        {
          "internalType": "address",
          "name": "from",
          "type": "address"
        },
        {
          "internalType": "address",
          "name": "to",
          "type": "address"
        },
        {
          "internalType": "uint256[]",
          "name": "ids",
          "type": "uint256[]"
        },
        {
          "internalType": "uint256[]",
          "name": "values",
          "type": "uint256[]"
        },
        {
          "internalType": "bytes",
          "name": "data",
          "type": "bytes"
        }
      ],
      "name": "safeBatchTransferFrom",
      "outputs": [],
      "stateMutability": "nonpayable",
      "type": "function"
    },
    {
      "inputs": [
        {
          "internalType": "address[]",
          "name": "recipients",
          "type": "address[]"
        },
        {
          "internalType": "uint256[]",
          "name": "ids",
          "type": "uint256[]"
        },
        {
          "internalType": "uint256[]",
          "name": "values",
          "type": "uint256[]"
        },
        {
          "internalType": "bytes",
          "name": "data",
          "type": "bytes"
        }
      ],
      "name": "safeDeliver",
      "outputs": [],
      "stateMutability": "nonpayable",
      "type": "function"
    },
    {
      "inputs": [
        {
          "internalType": "address",
          "name": "to",
          "type": "address"
        },
        {
          "internalType": "uint256",
          "name": "id",
          "type": "uint256"
        },
        {
          "internalType": "uint256",
          "name": "value",
          "type": "uint256"
        },
        {
          "internalType": "bytes",
          "name": "data",
          "type": "bytes"
        }
      ],
      "name": "safeMint",
      "outputs": [],
      "stateMutability": "nonpayable",
      "type": "function"
    },
    {
      "inputs": [
        {
          "internalType": "address",
          "name": "to",
          "type": "address"
        },
        {
          "internalType": "uint256",
          "name": "nftId",
          "type": "uint256"
        },
        {
          "internalType": "bytes",
          "name": "data",
          "type": "bytes"
        }
      ],
      "name": "safeMint",
      "outputs": [],
      "stateMutability": "nonpayable",
      "type": "function"
    },
    {
      "inputs": [
        {
          "internalType": "address",
          "name": "from",
          "type": "address"
        },
        {
          "internalType": "address",
          "name": "to",
          "type": "address"
        },
        {
          "internalType": "uint256",
          "name": "nftId",
          "type": "uint256"
        }
      ],
      "name": "safeTransferFrom",
      "outputs": [],
      "stateMutability": "nonpayable",
      "type": "function"
    },
    {
      "inputs": [
        {
          "internalType": "address",
          "name": "from",
          "type": "address"
        },
        {
          "internalType": "address",
          "name": "to",
          "type": "address"
        },
        {
          "internalType": "uint256",
          "name": "nftId",
          "type": "uint256"
        },
        {
          "internalType": "bytes",
          "name": "data",
          "type": "bytes"
        }
      ],
      "name": "safeTransferFrom",
      "outputs": [],
      "stateMutability": "nonpayable",
      "type": "function"
    },
    {
      "inputs": [
        {
          "internalType": "address",
          "name": "from",
          "type": "address"
        },
        {
          "internalType": "address",
          "name": "to",
          "type": "address"
        },
        {
          "internalType": "uint256",
          "name": "id",
          "type": "uint256"
        },
        {
          "internalType": "uint256",
          "name": "value",
          "type": "uint256"
        },
        {
          "internalType": "bytes",
          "name": "data",
          "type": "bytes"
        }
      ],
      "name": "safeTransferFrom",
      "outputs": [],
      "stateMutability": "nonpayable",
      "type": "function"
    },
    {
      "inputs": [
        {
          "internalType": "address",
          "name": "operator",
          "type": "address"
        },
        {
          "internalType": "bool",
          "name": "approved",
          "type": "bool"
        }
      ],
      "name": "setApprovalForAll",
      "outputs": [],
      "stateMutability": "nonpayable",
      "type": "function"
    },
    {
      "inputs": [
        {
          "internalType": "string",
          "name": "baseMetadataURI_",
          "type": "string"
        }
      ],
      "name": "setBaseMetadataURI",
      "outputs": [],
      "stateMutability": "nonpayable",
      "type": "function"
    },
    {
      "inputs": [
        {
          "internalType": "bytes4",
          "name": "interfaceId",
          "type": "bytes4"
        }
      ],
      "name": "supportsInterface",
      "outputs": [
        {
          "internalType": "bool",
          "name": "",
          "type": "bool"
        }
      ],
      "stateMutability": "view",
      "type": "function"
    },
    {
      "inputs": [],
      "name": "symbol",
      "outputs": [
        {
          "internalType": "string",
          "name": "",
          "type": "string"
        }
      ],
      "stateMutability": "view",
      "type": "function"
    },
    {
      "inputs": [
        {
          "internalType": "uint256",
          "name": "nftId",
          "type": "uint256"
        }
      ],
      "name": "tokenURI",
      "outputs": [
        {
          "internalType": "string",
          "name": "",
          "type": "string"
        }
      ],
      "stateMutability": "view",
      "type": "function"
    },
    {
      "inputs": [
        {
          "internalType": "uint256",
          "name": "id",
          "type": "uint256"
        }
      ],
      "name": "totalSupply",
      "outputs": [
        {
          "internalType": "uint256",
          "name": "",
          "type": "uint256"
        }
      ],
      "stateMutability": "view",
      "type": "function"
    },
    {
      "inputs": [
        {
          "internalType": "address",
          "name": "from",
          "type": "address"
        },
        {
          "internalType": "address",
          "name": "to",
          "type": "address"
        },
        {
          "internalType": "uint256",
          "name": "nftId",
          "type": "uint256"
        }
      ],
      "name": "transferFrom",
      "outputs": [],
      "stateMutability": "nonpayable",
      "type": "function"
    },
    {
      "inputs": [
        {
          "internalType": "address",
          "name": "newOwner",
          "type": "address"
        }
      ],
      "name": "transferOwnership",
      "outputs": [],
      "stateMutability": "nonpayable",
      "type": "function"
    },
    {
      "inputs": [
        {
          "internalType": "uint256",
          "name": "id",
          "type": "uint256"
        }
      ],
      "name": "uri",
      "outputs": [
        {
          "internalType": "string",
          "name": "",
          "type": "string"
        }
      ],
      "stateMutability": "view",
      "type": "function"
    }
  ],
  "bytecode": "0x60e06040523480156200001157600080fd5b506040516200586338038062005863833981810160405260608110156200003757600080fd5b50805160208083015160409384015184518086018652601781527f45524331313535373231496e76656e746f72794d6f636b0000000000000000008185015285518087018752600381526224a72b60e91b94810194909452600080546001600160a01b031916339081178255965195969395929491928591829189918991889182917f8be0079c531659141344cd1fd0a4f28419497f9722a3daafe3b4186f6b6457e0908290a3506001600160601b0319606091821b811660a05291901b1660805280158015906200010a575061010081105b6200015c576040805162461bcd60e51b815260206004820152601c60248201527f496e76656e746f72793a2077726f6e67206d61736b206c656e67746800000000604482015290519081900360640190fd5b60c052825162000174906006906020860190620001f5565b5081516200018a906007906020850190620001f5565b505050506200019f81620001a960201b60201c565b50505050620002a1565b6001600160a01b0381166000818152600b6020526040808220805460ff19166001179055517f6ae172837ea30b801fbfcdd4108aa1d5bf8ff775444fd70256b44e6bf3dfc3f69190a250565b828054600181600116156101000203166002900490600052602060002090601f0160209004810192826200022d576000855562000278565b82601f106200024857805160ff191683800117855562000278565b8280016001018555821562000278579182015b82811115620002785782518255916020019190600101906200025b565b50620002869291506200028a565b5090565b5b808211156200028657600081556001016200028b565b60805160601c60a05160601c60c0516155176200034c600039806113325280611e90528061205e52806120d9528061224f528061255752806129c95280612a3f5280612fc4528061305852806132565280613487528061356d528061376c52806138895280613ccb528061401f52806144c65280614da75250806119d45280614ac352806152c6525080611a0f5280614a885280614b1b528061529c528061532752506155176000f3fe608060405234801561001057600080fd5b50600436106102d25760003560e01c80637e518ec811610186578063bd85b039116100e3578063d0011d9d11610097578063f242432a11610071578063f242432a14611122578063f2fde38b146111ed578063f3993d1114611213576102d2565b8063d0011d9d14610f71578063e8ab9ccc14610f8e578063e985e9c5146110f4576102d2565b8063c4c2bfdc116100c8578063c4c2bfdc14610f2f578063c7778baa14610f37578063c87b56dd14610f54576102d2565b8063bd85b03914610dfe578063c3666c3614610e1b576102d2565b8063986502751161013a578063aa271e1a1161011f578063aa271e1a14610cf5578063adebf6f214610d1b578063b88d4fde14610d38576102d2565b80639865027514610cbf578063a22cb46514610cc7576102d2565b80638da5cb5b1161016b5780638da5cb5b14610c8957806395d89b4114610c91578063983b2d5614610c99576102d2565b80637e518ec814610b945780638832e6e314610c04576102d2565b806342842e0e116102345780635b2bd79e116101e85780636352211e116101cd5780636352211e14610a3d57806370a0823114610a5a57806373c8a95814610a80576102d2565b80635b2bd79e146109a95780635cfa9297146109b1576102d2565b80634e1273f4116102195780634e1273f414610854578063510b515814610966578063572b6c0514610983576102d2565b806342842e0e1461079e5780634684d7e9146107d4576102d2565b80630d6a5bbb1161028b57806323b872dd1161027057806323b872dd146105755780632eb2c2d6146105ab57806340c10f1914610772576102d2565b80630d6a5bbb146104345780630e89341c14610558576102d2565b806306fdde03116102bc57806306fdde0314610350578063081812fc146103cd578063095ea7b314610406576102d2565b8062fdd58e146102d757806301ffc9a714610315575b600080fd5b610303600480360360408110156102ed57600080fd5b506001600160a01b0381351690602001356112cf565b60408051918252519081900360200190f35b61033c6004803603602081101561032b57600080fd5b50356001600160e01b0319166113bb565b604080519115158252519081900360200190f35b610358611401565b6040805160208082528351818301528351919283929083019185019080838360005b8381101561039257818101518382015260200161037a565b50505050905090810190601f1680156103bf5780820380516001836020036101000a031916815260200191505b509250505060405180910390f35b6103ea600480360360208110156103e357600080fd5b5035611498565b604080516001600160a01b039092168252519081900360200190f35b6104326004803603604081101561041c57600080fd5b506001600160a01b038135169060200135611537565b005b6104326004803603608081101561044a57600080fd5b6001600160a01b03823516919081019060408101602082013564010000000081111561047557600080fd5b82018360208201111561048757600080fd5b803590602001918460208302840111640100000000831117156104a957600080fd5b9193909290916020810190356401000000008111156104c757600080fd5b8201836020820111156104d957600080fd5b803590602001918460208302840111640100000000831117156104fb57600080fd5b91939092909160208101903564010000000081111561051957600080fd5b82018360208201111561052b57600080fd5b8035906020019184600183028401116401000000008311171561054d57600080fd5b509092509050611733565b6103586004803603602081101561056e57600080fd5b50356117ee565b6104326004803603606081101561058b57600080fd5b506001600160a01b038135811691602081013590911690604001356117f9565b610432600480360360a08110156105c157600080fd5b6001600160a01b0382358116926020810135909116918101906060810160408201356401000000008111156105f557600080fd5b82018360208201111561060757600080fd5b8035906020019184602083028401116401000000008311171561062957600080fd5b919080806020026020016040519081016040528093929190818152602001838360200280828437600092019190915250929594936020810193503591505064010000000081111561067957600080fd5b82018360208201111561068b57600080fd5b803590602001918460208302840111640100000000831117156106ad57600080fd5b91908080602002602001604051908101604052809392919081815260200183836020028082843760009201919091525092959493602081019350359150506401000000008111156106fd57600080fd5b82018360208201111561070f57600080fd5b8035906020019184600183028401116401000000008311171561073157600080fd5b91908080601f01602080910402602001604051908101604052809392919081815260200183838082843760009201919091525092955061181b945050505050565b6104326004803603604081101561078857600080fd5b506001600160a01b03813516906020013561182f565b610432600480360360608110156107b457600080fd5b506001600160a01b0381358116916020810135909116906040013561185a565b610432600480360360408110156107ea57600080fd5b6001600160a01b03823516919081019060408101602082013564010000000081111561081557600080fd5b82018360208201111561082757600080fd5b8035906020019184602083028401116401000000008311171561084957600080fd5b509092509050611877565b6109166004803603604081101561086a57600080fd5b81019060208101813564010000000081111561088557600080fd5b82018360208201111561089757600080fd5b803590602001918460208302840111640100000000831117156108b957600080fd5b9193909290916020810190356401000000008111156108d757600080fd5b8201836020820111156108e957600080fd5b8035906020019184602083028401116401000000008311171561090b57600080fd5b5090925090506118bf565b60408051602080825283518183015283519192839290830191858101910280838360005b8381101561095257818101518382015260200161093a565b505050509050019250505060405180910390f35b6103ea6004803603602081101561097c57600080fd5b50356119c5565b61033c6004803603602081101561099957600080fd5b50356001600160a01b03166119d0565b610358611a49565b610432600480360360808110156109c757600080fd5b6001600160a01b0382351691602081013591604082013591908101906080810160608201356401000000008111156109fe57600080fd5b820183602082011115610a1057600080fd5b80359060200191846001830284011164010000000083111715610a3257600080fd5b509092509050611ad7565b6103ea60048036036020811015610a5357600080fd5b5035611b24565b61030360048036036020811015610a7057600080fd5b50356001600160a01b0316611b2f565b61043260048036036060811015610a9657600080fd5b810190602081018135640100000000811115610ab157600080fd5b820183602082011115610ac357600080fd5b80359060200191846020830284011164010000000083111715610ae557600080fd5b919390929091602081019035640100000000811115610b0357600080fd5b820183602082011115610b1557600080fd5b80359060200191846020830284011164010000000083111715610b3757600080fd5b919390929091602081019035640100000000811115610b5557600080fd5b820183602082011115610b6757600080fd5b80359060200191846020830284011164010000000083111715610b8957600080fd5b509092509050611ba8565b61043260048036036020811015610baa57600080fd5b810190602081018135640100000000811115610bc557600080fd5b820183602082011115610bd757600080fd5b80359060200191846001830284011164010000000083111715610bf957600080fd5b509092509050611c9a565b61043260048036036060811015610c1a57600080fd5b6001600160a01b0382351691602081013591810190606081016040820135640100000000811115610c4a57600080fd5b820183602082011115610c5c57600080fd5b80359060200191846001830284011164010000000083111715610c7e57600080fd5b509092509050611d16565b6103ea611d6b565b610358611d7a565b61043260048036036020811015610caf57600080fd5b50356001600160a01b0316611ddb565b610432611df2565b61043260048036036040811015610cdd57600080fd5b506001600160a01b0381351690602001351515611e50565b61033c60048036036020811015610d0b57600080fd5b50356001600160a01b0316611e5a565b61033c60048036036020811015610d3157600080fd5b5035611e6f565b61043260048036036080811015610d4e57600080fd5b6001600160a01b03823581169260208101359091169160408201359190810190608081016060820135640100000000811115610d8957600080fd5b820183602082011115610d9b57600080fd5b80359060200191846001830284011164010000000083111715610dbd57600080fd5b91908080601f016020809104026020016040519081016040528093929190818152602001838380828437600092019190915250929550611e7a945050505050565b61030360048036036020811015610e1457600080fd5b5035611e88565b61043260048036036060811015610e3157600080fd5b810190602081018135640100000000811115610e4c57600080fd5b820183602082011115610e5e57600080fd5b80359060200191846020830284011164010000000083111715610e8057600080fd5b919390929091602081019035640100000000811115610e9e57600080fd5b820183602082011115610eb057600080fd5b80359060200191846020830284011164010000000083111715610ed257600080fd5b919390929091602081019035640100000000811115610ef057600080fd5b820183602082011115610f0257600080fd5b80359060200191846020830284011164010000000083111715610f2457600080fd5b509092509050611eff565b610358612047565b61030360048036036020811015610f4d57600080fd5b5035612056565b61035860048036036020811015610f6a57600080fd5b50356120fd565b61043260048036036020811015610f8757600080fd5b5035612172565b61043260048036036080811015610fa457600080fd5b810190602081018135640100000000811115610fbf57600080fd5b820183602082011115610fd157600080fd5b80359060200191846020830284011164010000000083111715610ff357600080fd5b91939092909160208101903564010000000081111561101157600080fd5b82018360208201111561102357600080fd5b8035906020019184602083028401116401000000008311171561104557600080fd5b91939092909160208101903564010000000081111561106357600080fd5b82018360208201111561107557600080fd5b8035906020019184602083028401116401000000008311171561109757600080fd5b9193909290916020810190356401000000008111156110b557600080fd5b8201836020820111156110c757600080fd5b803590602001918460018302840111640100000000831117156110e957600080fd5b509092509050612186565b61033c6004803603604081101561110a57600080fd5b506001600160a01b03813581169160200135166121a1565b610432600480360360a081101561113857600080fd5b6001600160a01b03823581169260208101359091169160408201359160608101359181019060a08101608082013564010000000081111561117857600080fd5b82018360208201111561118a57600080fd5b803590602001918460018302840111640100000000831117156111ac57600080fd5b91908080601f0160208091040260200160405190810160405280939291908181526020018383808284376000920191909152509295506121b4945050505050565b6104326004803603602081101561120357600080fd5b50356001600160a01b031661239b565b6104326004803603606081101561122957600080fd5b6001600160a01b03823581169260208101359091169181019060608101604082013564010000000081111561125d57600080fd5b82018360208201111561126f57600080fd5b8035906020019184602083028401116401000000008311171561129157600080fd5b919080806020026020016040519081016040528093929190818152602001838360200280828437600092019190915250929550612401945050505050565b60006001600160a01b03831661132c576040805162461bcd60e51b815260206004820152601760248201527f496e76656e746f72793a207a65726f2061646472657373000000000000000000604482015290519081900360640190fd5b611356827f000000000000000000000000000000000000000000000000000000000000000061270a565b15611390576000828152600460205260409020546001600160a01b03848116911614611383576000611386565b60015b60ff1690506113b5565b5060008181526002602090815260408083206001600160a01b03861684529091529020545b92915050565b60006001600160e01b031982167f510b51580000000000000000000000000000000000000000000000000000000014806113f957506113f98261274c565b90505b919050565b60068054604080516020601f600260001961010060018816150201909516949094049384018190048102820181019092528281526060939092909183018282801561148d5780601f106114625761010080835404028352916020019161148d565b820191906000526020600020905b81548152906001019060200180831161147057829003601f168201915b505050505090505b90565b6000818152600460205260408120546001600160a01b038116611502576040805162461bcd60e51b815260206004820152601b60248201527f496e76656e746f72793a206e6f6e2d6578697374696e67204e46540000000000604482015290519081900360640190fd5b600160a01b81161561152d5750506000818152600960205260409020546001600160a01b03166113fc565b60009150506113fc565b60008181526004602052604090205480611598576040805162461bcd60e51b815260206004820152601b60248201527f496e76656e746f72793a206e6f6e2d6578697374696e67204e46540000000000604482015290519081900360640190fd5b806001600160a01b0384811690821614156115fa576040805162461bcd60e51b815260206004820152601860248201527f496e76656e746f72793a2073656c662d617070726f76616c0000000000000000604482015290519081900360640190fd5b61160b816116066127f2565b6127fc565b61165c576040805162461bcd60e51b815260206004820152601e60248201527f496e76656e746f72793a206e6f6e2d617070726f7665642073656e6465720000604482015290519081900360640190fd5b6001600160a01b03841661169657600160a01b8216156116915760008381526004602052604090206001600160a01b03821690555b6116ec565b600160a01b82178083146116b65760008481526004602052604090208190555b506000838152600960205260409020805473ffffffffffffffffffffffffffffffffffffffff19166001600160a01b0386161790555b82846001600160a01b0316826001600160a01b03167f8c5be1e5ebec7d5bd14f71427d1e84f3dd0314c0f7b2291e5b200ac8c7c3b92560405160405180910390a450505050565b61174361173e6127f2565b612848565b6117e58787878080602002602001604051908101604052809392919081815260200183836020028082843760009201919091525050604080516020808b0282810182019093528a82529093508a92508991829185019084908082843760009201919091525050604080516020601f8a0181900481028201810190925288815292508891508790819084018382808284376000920191909152506128b592505050565b50505050505050565b60606113f982612c58565b611816838383604051806020016040528060008152506000612d2b565b505050565b6118288585858585612e99565b5050505050565b61183a61173e6127f2565b61185682826040518060200160405280600081525060006131f5565b5050565b611816838383604051806020016040528060008152506001612d2b565b61188261173e6127f2565b611816838383808060200260200160405190810160405280939291908181526020018383602002808284376000920191909152506133ba92505050565b6060838214611915576040805162461bcd60e51b815260206004820152601e60248201527f496e76656e746f72793a20696e636f6e73697374656e74206172726179730000604482015290519081900360640190fd5b60008467ffffffffffffffff8111801561192e57600080fd5b50604051908082528060200260200182016040528015611958578160200160208202803683370190505b50905060005b8086146119bb5761199c87878381811061197457fe5b905060200201356001600160a01b031686868481811061199057fe5b905060200201356112cf565b8282815181106119a857fe5b602090810291909101015260010161195e565b5095945050505050565b60006113f982613764565b60007f00000000000000000000000000000000000000000000000000000000000000006001600160a01b0316826001600160a01b031614806113f957507f00000000000000000000000000000000000000000000000000000000000000006001600160a01b0316826001600160a01b0316149050919050565b600a805460408051602060026001851615610100026000190190941693909304601f81018490048402820184019092528181529291830182828015611acf5780601f10611aa457610100808354040283529160200191611acf565b820191906000526020600020905b815481529060010190602001808311611ab257829003601f168201915b505050505081565b611ae261173e6127f2565b61182885858585858080601f0160208091040260200160405190810160405280939291908181526020018383808284376000920191909152506137fe92505050565b60006113f98261396a565b60006001600160a01b038216611b8c576040805162461bcd60e51b815260206004820152601760248201527f496e76656e746f72793a207a65726f2061646472657373000000000000000000604482015290519081900360640190fd5b506001600160a01b031660009081526008602052604090205490565b611bb8611bb36127f2565b6139d4565b848381148015611bc757508082145b611c18576040805162461bcd60e51b815260206004820152601a60248201527f5265636f763a20696e636f6e73697374656e7420617272617973000000000000604482015290519081900360640190fd5b60005b818114611c9057611c88888883818110611c3157fe5b905060200201356001600160a01b0316858584818110611c4d57fe5b90506020020135888885818110611c6057fe5b905060200201356001600160a01b03166001600160a01b0316613a989092919063ffffffff16565b600101611c1b565b5050505050505050565b611ca5611bb36127f2565b611cb1600a8383615418565b507f04b1dc5c136a3ce9fded8db0ce3d3366c58764ec3a8e4c2b9e52e4ddfe5ebbf7828260405180806020018281038252848482818152602001925080828437600083820152604051601f909101601f19169092018290039550909350505050a15050565b611d2161173e6127f2565b611d65848484848080601f016020809104026020016040519081016040528093929190818152602001838380828437600092019190915250600192506131f5915050565b50505050565b6000546001600160a01b031690565b60078054604080516020601f600260001961010060018816150201909516949094049384018190048102820181019092528281526060939092909183018282801561148d5780601f106114625761010080835404028352916020019161148d565b611de6611bb36127f2565b611def81613b18565b50565b6000611dfc6127f2565b9050611e0781612848565b6001600160a01b0381166000818152600b6020526040808220805460ff19169055517fe94479a9f7e1952cc78f2d6baab678adc1b772d936c6583def489e524cb666929190a250565b6118568282613b64565b600b6020526000908152604090205460ff1681565b60006113f982613c45565b611d65848484846001612d2b565b6000611eb4827f000000000000000000000000000000000000000000000000000000000000000061270a565b15611eea576000828152600460205260409020546001600160a01b031615611edd576001611ee0565b60005b60ff1690506113fc565b506000818152600360205260409020546113fc565b611f0a611bb36127f2565b848381148015611f1957508082145b611f6a576040805162461bcd60e51b815260206004820152601a60248201527f5265636f763a20696e636f6e73697374656e7420617272617973000000000000604482015290519081900360640190fd5b60005b818114611c9057858582818110611f8057fe5b905060200201356001600160a01b03166001600160a01b03166323b872dd308a8a85818110611fab57fe5b905060200201356001600160a01b0316878786818110611fc757fe5b905060200201356040518463ffffffff1660e01b815260040180846001600160a01b03168152602001836001600160a01b031681526020018281526020019350505050600060405180830381600087803b15801561202457600080fd5b505af1158015612038573d6000803e3d6000fd5b50505050806001019050611f6d565b6060612051613c6b565b905090565b6000612082827f000000000000000000000000000000000000000000000000000000000000000061270a565b6120d3576040805162461bcd60e51b815260206004820152601560248201527f496e76656e746f72793a206e6f7420616e204e46540000000000000000000000604482015290519081900360640190fd5b6113f9827f0000000000000000000000000000000000000000000000000000000000000000613caf565b6000818152600460205260409020546060906001600160a01b0316612169576040805162461bcd60e51b815260206004820152601b60248201527f496e76656e746f72793a206e6f6e2d6578697374696e67204e46540000000000604482015290519081900360640190fd5b6113f9826117ee565b61217d611bb36127f2565b611def81613cc5565b61219161173e6127f2565b611c908888888888888888613e27565b60006121ad838361419a565b9392505050565b60006121be6127f2565b90506001600160a01b03851661221b576040805162461bcd60e51b815260206004820152601b60248201527f496e76656e746f72793a207472616e7366657220746f207a65726f0000000000604482015290519081900360640190fd5b600061222787836127fc565b905061223285613c45565b156122495761224487878787856141c8565b61231a565b612273857f000000000000000000000000000000000000000000000000000000000000000061270a565b156122cd576122878787878785600061433b565b84866001600160a01b0316886001600160a01b03167fddf252ad1be2c89b69c2b068fc378daa952ba7f163c4a11628f55a4df523b3ef60405160405180910390a461231a565b6040805162461bcd60e51b815260206004820152601960248201527f496e76656e746f72793a206e6f74206120746f6b656e20696400000000000000604482015290519081900360640190fd5b856001600160a01b0316876001600160a01b0316836001600160a01b03167fc3d58168c5ae7397731d063d5bbf3d657854427343f4c083240f7aacaa2d0f628888604051808381526020018281526020019250505060405180910390a4612389866001600160a01b03166144f1565b156117e5576117e587878787876144f7565b6123a6611bb36127f2565b6000805473ffffffffffffffffffffffffffffffffffffffff19166001600160a01b0383811691821780845560405192939116917f8be0079c531659141344cd1fd0a4f28419497f9722a3daafe3b4186f6b6457e09190a350565b6001600160a01b03821661245c576040805162461bcd60e51b815260206004820152601b60248201527f496e76656e746f72793a207472616e7366657220746f207a65726f0000000000604482015290519081900360640190fd5b60006124666127f2565b9050600061247485836127fc565b835190915060008167ffffffffffffffff8111801561249257600080fd5b506040519080825280602002602001820160405280156124bc578160200160208202803683370190505b50905060008060005b8481146125be5760008882815181106124da57fe5b6020026020010151905060018583815181106124f257fe5b60200260200101818152505061250e8b8b8360018b600161433b565b808a6001600160a01b03168c6001600160a01b03167fddf252ad1be2c89b69c2b068fc378daa952ba7f163c4a11628f55a4df523b3ef60405160405180910390a4600061257b827f0000000000000000000000000000000000000000000000000000000000000000613caf565b90508461258e57809450600193506125b4565b8481146125ad576125a18c8c8787614681565b809450600193506125b4565b8360010193505b50506001016124c5565b5081156125dc576125d189898484614681565b6125dc8989866146d5565b876001600160a01b0316896001600160a01b03166125f86127f2565b6001600160a01b03167f4a39dc06d4c0dbc64b70af90fd698a233a518aa5d07e595d983b8c0526c8f7fb8a87604051808060200180602001838103835285818151815260200191508051906020019060200280838360005b83811015612668578181015183820152602001612650565b50505050905001838103825284818151815260200191508051906020019060200280838360005b838110156126a757818101518382015260200161268f565b5050505090500194505050505060405180910390a46126ce886001600160a01b03166144f1565b80156126de57506126de88614720565b156126ff576126ff89898986604051806020016040528060008152506147e8565b505050505050505050565b60007f80000000000000000000000000000000000000000000000000000000000000008316158015906121ad575061274182614966565b909216151592915050565b60006001600160e01b031982167f80ac58cd0000000000000000000000000000000000000000000000000000000014806127af57506001600160e01b031982167f5b5e139f00000000000000000000000000000000000000000000000000000000145b806127e357506001600160e01b031982167ff3993d1100000000000000000000000000000000000000000000000000000000145b806113f957506113f982614977565b6000612051614a78565b6000816001600160a01b0316836001600160a01b031614806121ad5750506001600160a01b03918216600090815260016020908152604080832093909416825291909152205460ff1690565b6001600160a01b0381166000908152600b602052604090205460ff16611def576040805162461bcd60e51b815260206004820152601860248201527f4d696e746572526f6c653a206e6f742061204d696e7465720000000000000000604482015290519081900360640190fd5b6001600160a01b038416612910576040805162461bcd60e51b815260206004820152601760248201527f496e76656e746f72793a206d696e7420746f207a65726f000000000000000000604482015290519081900360640190fd5b825182518114612967576040805162461bcd60e51b815260206004820152601e60248201527f496e76656e746f72793a20696e636f6e73697374656e74206172726179730000604482015290519081900360640190fd5b6000806000805b848114612b0657600088828151811061298357fe5b60200260200101519050600088838151811061299b57fe5b602002602001015190506129ae82613c45565b156129c3576129be8b8383614bd8565b612afc565b6129ed827f000000000000000000000000000000000000000000000000000000000000000061270a565b156122cd576129ff8b83836001614cca565b60405182906001600160a01b038d16906000907fddf252ad1be2c89b69c2b068fc378daa952ba7f163c4a11628f55a4df523b3ef908290a46000612a63837f0000000000000000000000000000000000000000000000000000000000000000613caf565b905086612a765780965060019550612afa565b868114612af357856002600089815260200190815260200160002060008e6001600160a01b03166001600160a01b0316815260200190815260200160002060008282540192505081905550856003600089815260200190815260200160002060008282540192505081905550809650858501945060019550612afa565b8560010195505b505b505060010161296e565b508215612b5b5760008381526002602090815260408083206001600160a01b038c1680855290835281842080548701905586845260038352818420805487019055835260089091529020805491830191820190555b6001600160a01b0388166000612b6f6127f2565b6001600160a01b03167f4a39dc06d4c0dbc64b70af90fd698a233a518aa5d07e595d983b8c0526c8f7fb8a8a604051808060200180602001838103835285818151815260200191508051906020019060200280838360005b83811015612bdf578181015183820152602001612bc7565b50505050905001838103825284818151815260200191508051906020019060200280838360005b83811015612c1e578181015183820152602001612c06565b5050505090500194505050505060405180910390a4612c45886001600160a01b03166144f1565b15611c9057611c906000898989896147e8565b6060600a612c6583614e1a565b6040516020018083805460018160011615610100020316600290048015612cc35780601f10612ca1576101008083540402835291820191612cc3565b820191906000526020600020905b815481529060010190602001808311612caf575b5050825160208401908083835b60208310612cef5780518252601f199092019160209182019101612cd0565b6001836020036101000a038019825116818451168082178552505050505050905001925050506040516020818303038152906040529050919050565b6001600160a01b038416612d86576040805162461bcd60e51b815260206004820152601b60248201527f496e76656e746f72793a207472616e7366657220746f207a65726f0000000000604482015290519081900360640190fd5b6000612d906127f2565b90506000612d9e87836127fc565b9050612db0878787600185600061433b565b84866001600160a01b0316886001600160a01b03167fddf252ad1be2c89b69c2b068fc378daa952ba7f163c4a11628f55a4df523b3ef60405160405180910390a4856001600160a01b0316876001600160a01b0316836001600160a01b03167fc3d58168c5ae7397731d063d5bbf3d657854427343f4c083240f7aacaa2d0f62886001604051808381526020018281526020019250505060405180910390a4612e61866001600160a01b03166144f1565b156117e557612e6f86614720565b15612e8757612e828787876001886144f7565b6117e5565b82156117e5576117e587878787614f29565b6001600160a01b038416612ef4576040805162461bcd60e51b815260206004820152601b60248201527f496e76656e746f72793a207472616e7366657220746f207a65726f0000000000604482015290519081900360640190fd5b825182518114612f4b576040805162461bcd60e51b815260206004820152601e60248201527f496e76656e746f72793a20696e636f6e73697374656e74206172726179730000604482015290519081900360640190fd5b6000612f556127f2565b90506000612f6388836127fc565b90506000806000805b8681146130c45760008a8281518110612f8157fe5b60200260200101519050612f9481613c45565b15612fbe57612fb98d8d838d8681518110612fab57fe5b60200260200101518a6141c8565b6130bb565b612fe8817f000000000000000000000000000000000000000000000000000000000000000061270a565b156122cd5761300f8d8d838d8681518110612fff57fe5b60200260200101518a600161433b565b808c6001600160a01b03168e6001600160a01b03167fddf252ad1be2c89b69c2b068fc378daa952ba7f163c4a11628f55a4df523b3ef60405160405180910390a4600061307c827f0000000000000000000000000000000000000000000000000000000000000000613caf565b90508561308f57809550600194506130b9565b8581146130b2576130a28e8e8888614681565b94506001939290920191846130b9565b8460010194505b505b50600101612f6c565b5082156130e4576130d78b8b8585614681565b81016130e48b8b836146d5565b896001600160a01b03168b6001600160a01b03166131006127f2565b6001600160a01b03167f4a39dc06d4c0dbc64b70af90fd698a233a518aa5d07e595d983b8c0526c8f7fb8c8c604051808060200180602001838103835285818151815260200191508051906020019060200280838360005b83811015613170578181015183820152602001613158565b50505050905001838103825284818151815260200191508051906020019060200280838360005b838110156131af578181015183820152602001613197565b5050505090500194505050505060405180910390a46131d68a6001600160a01b03166144f1565b156131e8576131e88b8b8b8b8b6147e8565b5050505050505050505050565b6001600160a01b038416613250576040805162461bcd60e51b815260206004820152601760248201527f496e76656e746f72793a206d696e7420746f207a65726f000000000000000000604482015290519081900360640190fd5b61327a837f000000000000000000000000000000000000000000000000000000000000000061270a565b6132cb576040805162461bcd60e51b815260206004820152601560248201527f496e76656e746f72793a206e6f7420616e204e46540000000000000000000000604482015290519081900360640190fd5b6132d9848460016000614cca565b60405183906001600160a01b038616906000907fddf252ad1be2c89b69c2b068fc378daa952ba7f163c4a11628f55a4df523b3ef908290a46001600160a01b03841660006133256127f2565b6001600160a01b03167fc3d58168c5ae7397731d063d5bbf3d657854427343f4c083240f7aacaa2d0f62866001604051808381526020018281526020019250505060405180910390a4613380846001600160a01b03166144f1565b15611d655761338e84614720565b156133a7576133a2600085856001866144f7565b611d65565b8015611d6557611d656000858585614f29565b6001600160a01b038216613415576040805162461bcd60e51b815260206004820152601760248201527f496e76656e746f72793a206d696e7420746f207a65726f000000000000000000604482015290519081900360640190fd5b805160008167ffffffffffffffff8111801561343057600080fd5b5060405190808252806020026020018201604052801561345a578160200160208202803683370190505b50905060008060005b84811461360057600086828151811061347857fe5b602002602001015190506134b57f00000000000000000000000000000000000000000000000000000000000000008261270a90919063ffffffff16565b613506576040805162461bcd60e51b815260206004820152601560248201527f496e76656e746f72793a206e6f7420616e204e46540000000000000000000000604482015290519081900360640190fd5b600185838151811061351457fe5b60200260200101818152505061352d8882600180614cca565b60405181906001600160a01b038a16906000907fddf252ad1be2c89b69c2b068fc378daa952ba7f163c4a11628f55a4df523b3ef908290a46000613591827f0000000000000000000000000000000000000000000000000000000000000000613caf565b9050846135a457809450600193506135f6565b8481146135ef5760008581526002602090815260408083206001600160a01b038d168452825280832080548801905596825260039052949094208054909301909255600191836135f6565b8360010193505b5050600101613463565b5060008281526002602090815260408083206001600160a01b038a168085529083528184208054860190558584526003835281842080548601905580845260089092528220805487019055906136546127f2565b6001600160a01b03167f4a39dc06d4c0dbc64b70af90fd698a233a518aa5d07e595d983b8c0526c8f7fb8887604051808060200180602001838103835285818151815260200191508051906020019060200280838360005b838110156136c45781810151838201526020016136ac565b50505050905001838103825284818151815260200191508051906020019060200280838360005b838110156137035781810151838201526020016136eb565b5050505090500194505050505060405180910390a461372a866001600160a01b03166144f1565b801561373a575061373a86614720565b1561375c5761375c6000878786604051806020016040528060008152506147e8565b505050505050565b6000613790827f000000000000000000000000000000000000000000000000000000000000000061270a565b156137e2576040805162461bcd60e51b815260206004820152601b60248201527f496e76656e746f72793a206e6f74206120636f6c6c656374696f6e0000000000604482015290519081900360640190fd5b506000908152600560205260409020546001600160a01b031690565b6001600160a01b038416613859576040805162461bcd60e51b815260206004820152601760248201527f496e76656e746f72793a206d696e7420746f207a65726f000000000000000000604482015290519081900360640190fd5b60006138636127f2565b905061386e84613c45565b156138835761387e858585614bd8565b6138f8565b6138ad847f000000000000000000000000000000000000000000000000000000000000000061270a565b156122cd576138bf8585856000614cca565b60405184906001600160a01b038716906000907fddf252ad1be2c89b69c2b068fc378daa952ba7f163c4a11628f55a4df523b3ef908290a45b604080518581526020810185905281516001600160a01b0380891693600093918616927fc3d58168c5ae7397731d063d5bbf3d657854427343f4c083240f7aacaa2d0f629281900390910190a4613957856001600160a01b03166144f1565b15611828576118286000868686866144f7565b6000818152600460205260408120546001600160a01b0381166113f9576040805162461bcd60e51b815260206004820152601b60248201527f496e76656e746f72793a206e6f6e2d6578697374696e67204e46540000000000604482015290519081900360640190fd5b306001600160a01b0316638da5cb5b6040518163ffffffff1660e01b815260040160206040518083038186803b158015613a0d57600080fd5b505afa158015613a21573d6000803e3d6000fd5b505050506040513d6020811015613a3757600080fd5b50516001600160a01b03828116911614611def576040805162461bcd60e51b815260206004820152601660248201527f4f776e61626c653a206e6f7420746865206f776e657200000000000000000000604482015290519081900360640190fd5b604080516001600160a01b038416602482015260448082018490528251808303909101815260649091019091526020810180517bffffffffffffffffffffffffffffffffffffffffffffffffffffffff167fa9059cbb000000000000000000000000000000000000000000000000000000001790526118169084906150ab565b6001600160a01b0381166000818152600b6020526040808220805460ff19166001179055517f6ae172837ea30b801fbfcdd4108aa1d5bf8ff775444fd70256b44e6bf3dfc3f69190a250565b6000613b6e6127f2565b9050806001600160a01b0316836001600160a01b03161415613bd7576040805162461bcd60e51b815260206004820152601860248201527f496e76656e746f72793a2073656c662d617070726f76616c0000000000000000604482015290519081900360640190fd5b6001600160a01b03818116600081815260016020908152604080832094881680845294825291829020805460ff1916871515908117909155825190815291517f17307eab39ab6107e8899845ad3d59bd9653f200f220920489ca2b5937696c319281900390910190a3505050565b7f8000000000000000000000000000000000000000000000000000000000000000161590565b6060613c7561528e565b8080601f01602080910402602001604051908101604052809392919081815260200183838082843760009201919091525092935050505090565b6000613cba82614966565b198316905092915050565b613cef817f000000000000000000000000000000000000000000000000000000000000000061270a565b15613d41576040805162461bcd60e51b815260206004820152601b60248201527f496e76656e746f72793a206e6f74206120636f6c6c656374696f6e0000000000604482015290519081900360640190fd5b6000818152600560205260409020546001600160a01b031615613dab576040805162461bcd60e51b815260206004820152601e60248201527f496e76656e746f72793a206578697374696e6720636f6c6c656374696f6e0000604482015290519081900360640190fd5b613db36127f2565b6000828152600560205260409020805473ffffffffffffffffffffffffffffffffffffffff19166001600160a01b0392909216919091179055613df581613c45565b1515817f4ebf8ad0df535ba5e487bc9cb27fe44120ca81c3a95d3eba79c0bd1df2ab2d5d60405160405180910390a350565b868581148015613e3657508084145b613e87576040805162461bcd60e51b815260206004820152601e60248201527f496e76656e746f72793a20696e636f6e73697374656e74206172726179730000604482015290519081900360640190fd5b6000613e916127f2565b905060005b8281146131e85760008b8b83818110613eab57fe5b905060200201356001600160a01b0316905060006001600160a01b0316816001600160a01b03161415613f25576040805162461bcd60e51b815260206004820152601760248201527f496e76656e746f72793a206d696e7420746f207a65726f000000000000000000604482015290519081900360640190fd5b60008a8a84818110613f3357fe5b9050602002013590506000898985818110613f4a57fe5b905060200201359050613f5c82613c45565b1561401957613f6c838383614bd8565b604080518381526020810183905281516001600160a01b0380871693600093918a16927fc3d58168c5ae7397731d063d5bbf3d657854427343f4c083240f7aacaa2d0f629281900390910190a4613fcb836001600160a01b03166144f1565b156140145761401460008484848c8c8080601f0160208091040260200160405190810160405280939291908181526020018383808284376000920191909152506144f792505050565b61418c565b614043827f000000000000000000000000000000000000000000000000000000000000000061270a565b156122cd576140558383836000614cca565b60405182906001600160a01b038516906000907fddf252ad1be2c89b69c2b068fc378daa952ba7f163c4a11628f55a4df523b3ef908290a4604080518381526001602082015281516001600160a01b0380871693600093918a16927fc3d58168c5ae7397731d063d5bbf3d657854427343f4c083240f7aacaa2d0f629281900390910190a46140ec836001600160a01b03166144f1565b15614014576140fa83614720565b15614149576141446000848460018c8c8080601f0160208091040260200160405190810160405280939291908181526020018383808284376000920191909152506144f792505050565b614014565b614014600084848b8b8080601f016020809104026020016040519081016040528093929190818152602001838380828437600092019190915250614f2992505050565b505050806001019050613e96565b6001600160a01b03918216600090815260016020908152604080832093909416825291909152205460ff1690565b8061421a576040805162461bcd60e51b815260206004820152601e60248201527f496e76656e746f72793a206e6f6e2d617070726f7665642073656e6465720000604482015290519081900360640190fd5b8161426c576040805162461bcd60e51b815260206004820152601560248201527f496e76656e746f72793a207a65726f2076616c75650000000000000000000000604482015290519081900360640190fd5b60008381526002602090815260408083206001600160a01b0389168452909152902054828110156142e4576040805162461bcd60e51b815260206004820152601d60248201527f496e76656e746f72793a206e6f7420656e6f7567682062616c616e6365000000604482015290519081900360640190fd5b846001600160a01b0316866001600160a01b03161461375c5760009384526002602090815260408086206001600160a01b039889168752909152808520918490039091559390941682529190208054909101905550565b82600114614390576040805162461bcd60e51b815260206004820152601a60248201527f496e76656e746f72793a2077726f6e67204e46542076616c7565000000000000604482015290519081900360640190fd5b6000848152600460205260409020546001600160a01b03878116908216146143ff576040805162461bcd60e51b815260206004820152601860248201527f496e76656e746f72793a206e6f6e2d6f776e6564204e46540000000000000000604482015290519081900360640190fd5b8261449057600160a01b81161580159061443f57506000858152600960205260409020546001600160a01b03166144346127f2565b6001600160a01b0316145b614490576040805162461bcd60e51b815260206004820152601e60248201527f496e76656e746f72793a206e6f6e2d617070726f7665642073656e6465720000604482015290519081900360640190fd5b60008581526004602052604090206001600160a01b0387169055816117e5576144bb878760016146d5565b6117e587876144ea887f0000000000000000000000000000000000000000000000000000000000000000613caf565b6001614681565b3b151590565b7ff23a6e61000000000000000000000000000000000000000000000000000000006001600160a01b03851663f23a6e6161452f6127f2565b888787876040518663ffffffff1660e01b815260040180866001600160a01b03168152602001856001600160a01b0316815260200184815260200183815260200180602001828103825283818151815260200191508051906020019080838360005b838110156145a9578181015183820152602001614591565b50505050905090810190601f1680156145d65780820380516001836020036101000a031916815260200191505b509650505050505050602060405180830381600087803b1580156145f957600080fd5b505af115801561460d573d6000803e3d6000fd5b505050506040513d602081101561462357600080fd5b50516001600160e01b03191614611828576040805162461bcd60e51b815260206004820152601b60248201527f496e76656e746f72793a207472616e7366657220726566757365640000000000604482015290519081900360640190fd5b826001600160a01b0316846001600160a01b031614611d655760009182526002602090815260408084206001600160a01b039687168552909152808320805483900390559290931681522080549091019055565b816001600160a01b0316836001600160a01b031614611816576001600160a01b0380841660009081526008602052604080822080548590039055918416815220805482019055505050565b604080517f4e2312e0000000000000000000000000000000000000000000000000000000006024808301919091528251808303909101815260449091018252602081810180517bffffffffffffffffffffffffffffffffffffffffffffffffffffffff167f01ffc9a7000000000000000000000000000000000000000000000000000000001781528251935160008082529485948594909392908183858b612710fa955080519450505050609e5a116147d557fe5b8280156147df5750815b95945050505050565b7fbc197c81000000000000000000000000000000000000000000000000000000006001600160a01b03851663bc197c816148206127f2565b888787876040518663ffffffff1660e01b815260040180866001600160a01b03168152602001856001600160a01b03168152602001806020018060200180602001848103845287818151815260200191508051906020019060200280838360005b83811015614899578181015183820152602001614881565b50505050905001848103835286818151815260200191508051906020019060200280838360005b838110156148d85781810151838201526020016148c0565b50505050905001848103825285818151815260200191508051906020019080838360005b838110156149145781810151838201526020016148fc565b50505050905090810190601f1680156149415780820380516001836020036101000a031916815260200191505b5098505050505050505050602060405180830381600087803b1580156145f957600080fd5b6001610100919091031b6000190190565b60006001600160e01b031982167f01ffc9a70000000000000000000000000000000000000000000000000000000014806149da57506001600160e01b031982167fd9b67a2600000000000000000000000000000000000000000000000000000000145b80614a0e57506001600160e01b031982167f0e89341c00000000000000000000000000000000000000000000000000000000145b80614a4257506001600160e01b031982167f09ce5c4600000000000000000000000000000000000000000000000000000000145b806113f95750506001600160e01b0319167fbd85b039000000000000000000000000000000000000000000000000000000001490565b60003381614a846153f1565b90507f00000000000000000000000000000000000000000000000000000000000000006001600160a01b0316826001600160a01b03161480614af757507f00000000000000000000000000000000000000000000000000000000000000006001600160a01b0316826001600160a01b0316145b15614b055791506114959050565b6001600160a01b0382163214801590614bc457507f00000000000000000000000000000000000000000000000000000000000000006001600160a01b031663e60125d682846040518363ffffffff1660e01b815260040180836001600160a01b03168152602001826001600160a01b031681526020019250505060206040518083038186803b158015614b9757600080fd5b505afa158015614bab573d6000803e3d6000fd5b505050506040513d6020811015614bc157600080fd5b50515b15614bd25791506114959050565b50905090565b80614c2a576040805162461bcd60e51b815260206004820152601560248201527f496e76656e746f72793a207a65726f2076616c75650000000000000000000000604482015290519081900360640190fd5b600082815260036020526040902054818101818111614c90576040805162461bcd60e51b815260206004820152601a60248201527f496e76656e746f72793a20737570706c79206f766572666c6f77000000000000604482015290519081900360640190fd5b600093845260036020908152604080862092909255600281528185206001600160a01b039096168552949094525091902080549091019055565b81600114614d1f576040805162461bcd60e51b815260206004820152601a60248201527f496e76656e746f72793a2077726f6e67204e46542076616c7565000000000000604482015290519081900360640190fd5b60008381526004602052604090205415614d80576040805162461bcd60e51b815260206004820152601d60248201527f496e76656e746f72793a206578697374696e672f6275726e74204e4654000000604482015290519081900360640190fd5b60008381526004602052604090206001600160a01b038516905580611d65576000614dcb847f0000000000000000000000000000000000000000000000000000000000000000613caf565b600090815260036020908152604080832080546001908101909155600283528184206001600160a01b038a16855283528184208054820190556008909252909120805490910190555050505050565b606081614e5b575060408051808201909152600181527f300000000000000000000000000000000000000000000000000000000000000060208201526113fc565b8160005b8115614e7357600101600a82049150614e5f565b60008167ffffffffffffffff81118015614e8c57600080fd5b506040519080825280601f01601f191660200182016040528015614eb7576020820181803683370190505b50859350905060001982015b8315614f2057600a840660300160f81b82828060019003935081518110614ee657fe5b60200101907effffffffffffffffffffffffffffffffffffffffffffffffffffffffffffff1916908160001a905350600a84049350614ec3565b50949350505050565b7f150b7a02000000000000000000000000000000000000000000000000000000006001600160a01b03841663150b7a02614f616127f2565b8786866040518563ffffffff1660e01b815260040180856001600160a01b03168152602001846001600160a01b0316815260200183815260200180602001828103825283818151815260200191508051906020019080838360005b83811015614fd4578181015183820152602001614fbc565b50505050905090810190601f1680156150015780820380516001836020036101000a031916815260200191505b5095505050505050602060405180830381600087803b15801561502357600080fd5b505af1158015615037573d6000803e3d6000fd5b505050506040513d602081101561504d57600080fd5b50516001600160e01b03191614611d65576040805162461bcd60e51b815260206004820152601b60248201527f496e76656e746f72793a207472616e7366657220726566757365640000000000604482015290519081900360640190fd5b816150be6001600160a01b0382166144f1565b61510f576040805162461bcd60e51b815260206004820152601a60248201527f4552433230577261707065723a206e6f6e2d636f6e7472616374000000000000604482015290519081900360640190fd5b600080826001600160a01b0316846040518082805190602001908083835b6020831061514c5780518252601f19909201916020918201910161512d565b6001836020036101000a0380198251168184511680821785525050505050509050019150506000604051808303816000865af19150503d80600081146151ae576040519150601f19603f3d011682016040523d82523d6000602084013e6151b3565b606091505b509150915081156152325780511561522d578080602001905160208110156151da57600080fd5b505161522d576040805162461bcd60e51b815260206004820152601e60248201527f4552433230577261707065723a206f7065726174696f6e206661696c65640000604482015290519081900360640190fd5b611828565b8051615285576040805162461bcd60e51b815260206004820152601e60248201527f4552433230577261707065723a206f7065726174696f6e206661696c65640000604482015290519081900360640190fd5b80518082602001fd5b366000336001600160a01b037f0000000000000000000000000000000000000000000000000000000000000000168114806152fa57507f00000000000000000000000000000000000000000000000000000000000000006001600160a01b0316816001600160a01b0316145b15615311576153076153fd565b92509250506153ed565b6001600160a01b03811632148015906153d757507f00000000000000000000000000000000000000000000000000000000000000006001600160a01b031663e60125d661535c6153f1565b836040518363ffffffff1660e01b815260040180836001600160a01b03168152602001826001600160a01b031681526020019250505060206040518083038186803b1580156153aa57600080fd5b505afa1580156153be573d6000803e3d6000fd5b505050506040513d60208110156153d457600080fd5b50515b156153e4576153076153fd565b60003692509250505b9091565b60131936013560601c90565b36600061541060131983018284816154b9565b915091509091565b828054600181600116156101000203166002900490600052602060002090601f01602090048101928261544e5760008555615494565b82601f106154675782800160ff19823516178555615494565b82800160010185558215615494579182015b82811115615494578235825591602001919060010190615479565b506154a09291506154a4565b5090565b5b808211156154a057600081556001016154a5565b600080858511156154c8578182fd5b838611156154d4578182fd5b505082019391909203915056fea26469706673582212207f3cd279da8c47c08751047396a3d51754a5da3623d65f0a2a6209b1a09daaa564736f6c63430007060033",
  "linkReferences": {},
  "deployedLinkReferences": {}
}