{
  "_format": "hh-sol-artifact-1",
  "contractName": "ERC1155721InventoryMock",
  "sourceName": "contracts/mocks/token/ERC1155721/ERC1155721InventoryMock.sol",
  "abi": [
    {
      "inputs": [],
      "stateMutability": "nonpayable",
      "type": "constructor"
    },
    {
      "anonymous": false,
      "inputs": [
        {
          "indexed": true,
          "internalType": "address",
          "name": "_owner",
          "type": "address"
        },
        {
          "indexed": true,
          "internalType": "address",
          "name": "_approved",
          "type": "address"
        },
        {
          "indexed": true,
          "internalType": "uint256",
          "name": "_tokenId",
          "type": "uint256"
        }
      ],
      "name": "Approval",
      "type": "event"
    },
    {
      "anonymous": false,
      "inputs": [
        {
          "indexed": true,
          "internalType": "address",
          "name": "_owner",
          "type": "address"
        },
        {
          "indexed": true,
          "internalType": "address",
          "name": "_operator",
          "type": "address"
        },
        {
          "indexed": false,
          "internalType": "bool",
          "name": "_approved",
          "type": "bool"
        }
      ],
      "name": "ApprovalForAll",
      "type": "event"
    },
    {
      "anonymous": false,
      "inputs": [
        {
          "indexed": false,
          "internalType": "string",
          "name": "baseMetadataURI",
          "type": "string"
        }
      ],
      "name": "BaseMetadataURISet",
      "type": "event"
    },
    {
      "anonymous": false,
      "inputs": [
        {
          "indexed": true,
          "internalType": "uint256",
          "name": "collectionId",
          "type": "uint256"
        },
        {
          "indexed": true,
          "internalType": "bool",
          "name": "fungible",
          "type": "bool"
        }
      ],
      "name": "CollectionCreated",
      "type": "event"
    },
    {
      "anonymous": false,
      "inputs": [
        {
          "indexed": true,
          "internalType": "address",
          "name": "account",
          "type": "address"
        }
      ],
      "name": "MinterAdded",
      "type": "event"
    },
    {
      "anonymous": false,
      "inputs": [
        {
          "indexed": true,
          "internalType": "address",
          "name": "account",
          "type": "address"
        }
      ],
      "name": "MinterRemoved",
      "type": "event"
    },
    {
      "anonymous": false,
      "inputs": [
        {
          "indexed": true,
          "internalType": "address",
          "name": "previousOwner",
          "type": "address"
        },
        {
          "indexed": true,
          "internalType": "address",
          "name": "newOwner",
          "type": "address"
        }
      ],
      "name": "OwnershipTransferred",
      "type": "event"
    },
    {
      "anonymous": false,
      "inputs": [
        {
          "indexed": true,
          "internalType": "address",
          "name": "_from",
          "type": "address"
        },
        {
          "indexed": true,
          "internalType": "address",
          "name": "_to",
          "type": "address"
        },
        {
          "indexed": true,
          "internalType": "uint256",
          "name": "_tokenId",
          "type": "uint256"
        }
      ],
      "name": "Transfer",
      "type": "event"
    },
    {
      "anonymous": false,
      "inputs": [
        {
          "indexed": true,
          "internalType": "address",
          "name": "_operator",
          "type": "address"
        },
        {
          "indexed": true,
          "internalType": "address",
          "name": "_from",
          "type": "address"
        },
        {
          "indexed": true,
          "internalType": "address",
          "name": "_to",
          "type": "address"
        },
        {
          "indexed": false,
          "internalType": "uint256[]",
          "name": "_ids",
          "type": "uint256[]"
        },
        {
          "indexed": false,
          "internalType": "uint256[]",
          "name": "_values",
          "type": "uint256[]"
        }
      ],
      "name": "TransferBatch",
      "type": "event"
    },
    {
      "anonymous": false,
      "inputs": [
        {
          "indexed": true,
          "internalType": "address",
          "name": "_operator",
          "type": "address"
        },
        {
          "indexed": true,
          "internalType": "address",
          "name": "_from",
          "type": "address"
        },
        {
          "indexed": true,
          "internalType": "address",
          "name": "_to",
          "type": "address"
        },
        {
          "indexed": false,
          "internalType": "uint256",
          "name": "_id",
          "type": "uint256"
        },
        {
          "indexed": false,
          "internalType": "uint256",
          "name": "_value",
          "type": "uint256"
        }
      ],
      "name": "TransferSingle",
      "type": "event"
    },
    {
      "anonymous": false,
      "inputs": [
        {
          "indexed": false,
          "internalType": "string",
          "name": "_value",
          "type": "string"
        },
        {
          "indexed": true,
          "internalType": "uint256",
          "name": "_id",
          "type": "uint256"
        }
      ],
      "name": "URI",
      "type": "event"
    },
    {
      "inputs": [
        {
          "internalType": "address",
          "name": "account",
          "type": "address"
        }
      ],
      "name": "addMinter",
      "outputs": [],
      "stateMutability": "nonpayable",
      "type": "function"
    },
    {
      "inputs": [
        {
          "internalType": "address",
          "name": "to",
          "type": "address"
        },
        {
          "internalType": "uint256",
          "name": "nftId",
          "type": "uint256"
        }
      ],
      "name": "approve",
      "outputs": [],
      "stateMutability": "nonpayable",
      "type": "function"
    },
    {
      "inputs": [
        {
          "internalType": "address",
          "name": "owner",
          "type": "address"
        },
        {
          "internalType": "uint256",
          "name": "id",
          "type": "uint256"
        }
      ],
      "name": "balanceOf",
      "outputs": [
        {
          "internalType": "uint256",
          "name": "",
          "type": "uint256"
        }
      ],
      "stateMutability": "view",
      "type": "function"
    },
    {
      "inputs": [
        {
          "internalType": "address",
          "name": "tokenOwner",
          "type": "address"
        }
      ],
      "name": "balanceOf",
      "outputs": [
        {
          "internalType": "uint256",
          "name": "",
          "type": "uint256"
        }
      ],
      "stateMutability": "view",
      "type": "function"
    },
    {
      "inputs": [
        {
          "internalType": "address[]",
          "name": "owners",
          "type": "address[]"
        },
        {
          "internalType": "uint256[]",
          "name": "ids",
          "type": "uint256[]"
        }
      ],
      "name": "balanceOfBatch",
      "outputs": [
        {
          "internalType": "uint256[]",
          "name": "",
          "type": "uint256[]"
        }
      ],
      "stateMutability": "view",
      "type": "function"
    },
    {
      "inputs": [],
      "name": "baseMetadataURI",
      "outputs": [
        {
          "internalType": "string",
          "name": "",
          "type": "string"
        }
      ],
      "stateMutability": "view",
      "type": "function"
    },
    {
      "inputs": [
        {
          "internalType": "address",
          "name": "to",
          "type": "address"
        },
        {
          "internalType": "uint256[]",
          "name": "nftIds",
          "type": "uint256[]"
        }
      ],
      "name": "batchMint",
      "outputs": [],
      "stateMutability": "nonpayable",
      "type": "function"
    },
    {
      "inputs": [
        {
          "internalType": "address",
          "name": "from",
          "type": "address"
        },
        {
          "internalType": "address",
          "name": "to",
          "type": "address"
        },
        {
          "internalType": "uint256[]",
          "name": "nftIds",
          "type": "uint256[]"
        }
      ],
      "name": "batchTransferFrom",
      "outputs": [],
      "stateMutability": "nonpayable",
      "type": "function"
    },
    {
      "inputs": [
        {
          "internalType": "bytes32",
          "name": "c__0x31017afb",
          "type": "bytes32"
        }
      ],
      "name": "c_0x31017afb",
      "outputs": [],
      "stateMutability": "pure",
      "type": "function"
    },
    {
      "inputs": [
        {
          "internalType": "bytes32",
          "name": "c__0x4e1d9f37",
          "type": "bytes32"
        }
      ],
      "name": "c_0x4e1d9f37",
      "outputs": [],
      "stateMutability": "pure",
      "type": "function"
    },
    {
      "inputs": [
        {
          "internalType": "bytes32",
          "name": "c__0x9329567f",
          "type": "bytes32"
        }
      ],
      "name": "c_0x9329567f",
      "outputs": [],
      "stateMutability": "pure",
      "type": "function"
    },
    {
      "inputs": [
        {
          "internalType": "bytes32",
          "name": "c__0xd0bb1625",
          "type": "bytes32"
        }
      ],
      "name": "c_0xd0bb1625",
      "outputs": [],
      "stateMutability": "pure",
      "type": "function"
    },
    {
      "inputs": [
        {
          "internalType": "uint256",
          "name": "nftId",
          "type": "uint256"
        }
      ],
      "name": "collectionOf",
      "outputs": [
        {
          "internalType": "uint256",
          "name": "",
          "type": "uint256"
        }
      ],
      "stateMutability": "pure",
      "type": "function"
    },
    {
      "inputs": [
        {
          "internalType": "uint256",
          "name": "collectionId",
          "type": "uint256"
        }
      ],
      "name": "createCollection",
      "outputs": [],
      "stateMutability": "nonpayable",
      "type": "function"
    },
    {
      "inputs": [
        {
          "internalType": "uint256",
          "name": "collectionId",
          "type": "uint256"
        }
      ],
      "name": "creator",
      "outputs": [
        {
          "internalType": "address",
          "name": "",
          "type": "address"
        }
      ],
      "stateMutability": "view",
      "type": "function"
    },
    {
      "inputs": [
        {
          "internalType": "uint256",
          "name": "nftId",
          "type": "uint256"
        }
      ],
      "name": "getApproved",
      "outputs": [
        {
          "internalType": "address",
          "name": "",
          "type": "address"
        }
      ],
      "stateMutability": "view",
      "type": "function"
    },
    {
      "inputs": [
        {
          "internalType": "address",
          "name": "tokenOwner",
          "type": "address"
        },
        {
          "internalType": "address",
          "name": "operator",
          "type": "address"
        }
      ],
      "name": "isApprovedForAll",
      "outputs": [
        {
          "internalType": "bool",
          "name": "",
          "type": "bool"
        }
      ],
      "stateMutability": "view",
      "type": "function"
    },
    {
      "inputs": [
        {
          "internalType": "uint256",
          "name": "id",
          "type": "uint256"
        }
      ],
      "name": "isFungible",
      "outputs": [
        {
          "internalType": "bool",
          "name": "",
          "type": "bool"
        }
      ],
      "stateMutability": "pure",
      "type": "function"
    },
    {
      "inputs": [
        {
          "internalType": "address",
          "name": "",
          "type": "address"
        }
      ],
      "name": "isMinter",
      "outputs": [
        {
          "internalType": "bool",
          "name": "",
          "type": "bool"
        }
      ],
      "stateMutability": "view",
      "type": "function"
    },
    {
      "inputs": [
        {
          "internalType": "address",
          "name": "to",
          "type": "address"
        },
        {
          "internalType": "uint256",
          "name": "nftId",
          "type": "uint256"
        }
      ],
      "name": "mint",
      "outputs": [],
      "stateMutability": "nonpayable",
      "type": "function"
    },
    {
      "inputs": [],
      "name": "name",
      "outputs": [
        {
          "internalType": "string",
          "name": "",
          "type": "string"
        }
      ],
      "stateMutability": "view",
      "type": "function"
    },
    {
      "inputs": [],
      "name": "owner",
      "outputs": [
        {
          "internalType": "address",
          "name": "",
          "type": "address"
        }
      ],
      "stateMutability": "view",
      "type": "function"
    },
    {
      "inputs": [
        {
          "internalType": "uint256",
          "name": "nftId",
          "type": "uint256"
        }
      ],
      "name": "ownerOf",
      "outputs": [
        {
          "internalType": "address",
          "name": "",
          "type": "address"
        }
      ],
      "stateMutability": "view",
      "type": "function"
    },
    {
      "inputs": [],
      "name": "renounceMinter",
      "outputs": [],
      "stateMutability": "nonpayable",
      "type": "function"
    },
    {
      "inputs": [
        {
          "internalType": "address",
          "name": "to",
          "type": "address"
        },
        {
          "internalType": "uint256[]",
          "name": "ids",
          "type": "uint256[]"
        },
        {
          "internalType": "uint256[]",
          "name": "values",
          "type": "uint256[]"
        },
        {
          "internalType": "bytes",
          "name": "data",
          "type": "bytes"
        }
      ],
      "name": "safeBatchMint",
      "outputs": [],
      "stateMutability": "nonpayable",
      "type": "function"
    },
    {
      "inputs": [
        {
          "internalType": "address",
          "name": "from",
          "type": "address"
        },
        {
          "internalType": "address",
          "name": "to",
          "type": "address"
        },
        {
          "internalType": "uint256[]",
          "name": "ids",
          "type": "uint256[]"
        },
        {
          "internalType": "uint256[]",
          "name": "values",
          "type": "uint256[]"
        },
        {
          "internalType": "bytes",
          "name": "data",
          "type": "bytes"
        }
      ],
      "name": "safeBatchTransferFrom",
      "outputs": [],
      "stateMutability": "nonpayable",
      "type": "function"
    },
    {
      "inputs": [
        {
          "internalType": "address[]",
          "name": "recipients",
          "type": "address[]"
        },
        {
          "internalType": "uint256[]",
          "name": "ids",
          "type": "uint256[]"
        },
        {
          "internalType": "uint256[]",
          "name": "values",
          "type": "uint256[]"
        },
        {
          "internalType": "bytes",
          "name": "data",
          "type": "bytes"
        }
      ],
      "name": "safeDeliver",
      "outputs": [],
      "stateMutability": "nonpayable",
      "type": "function"
    },
    {
      "inputs": [
        {
          "internalType": "address",
          "name": "to",
          "type": "address"
        },
        {
          "internalType": "uint256",
          "name": "id",
          "type": "uint256"
        },
        {
          "internalType": "uint256",
          "name": "value",
          "type": "uint256"
        },
        {
          "internalType": "bytes",
          "name": "data",
          "type": "bytes"
        }
      ],
      "name": "safeMint",
      "outputs": [],
      "stateMutability": "nonpayable",
      "type": "function"
    },
    {
      "inputs": [
        {
          "internalType": "address",
          "name": "to",
          "type": "address"
        },
        {
          "internalType": "uint256",
          "name": "nftId",
          "type": "uint256"
        },
        {
          "internalType": "bytes",
          "name": "data",
          "type": "bytes"
        }
      ],
      "name": "safeMint",
      "outputs": [],
      "stateMutability": "nonpayable",
      "type": "function"
    },
    {
      "inputs": [
        {
          "internalType": "address",
          "name": "from",
          "type": "address"
        },
        {
          "internalType": "address",
          "name": "to",
          "type": "address"
        },
        {
          "internalType": "uint256",
          "name": "nftId",
          "type": "uint256"
        }
      ],
      "name": "safeTransferFrom",
      "outputs": [],
      "stateMutability": "nonpayable",
      "type": "function"
    },
    {
      "inputs": [
        {
          "internalType": "address",
          "name": "from",
          "type": "address"
        },
        {
          "internalType": "address",
          "name": "to",
          "type": "address"
        },
        {
          "internalType": "uint256",
          "name": "nftId",
          "type": "uint256"
        },
        {
          "internalType": "bytes",
          "name": "data",
          "type": "bytes"
        }
      ],
      "name": "safeTransferFrom",
      "outputs": [],
      "stateMutability": "nonpayable",
      "type": "function"
    },
    {
      "inputs": [
        {
          "internalType": "address",
          "name": "from",
          "type": "address"
        },
        {
          "internalType": "address",
          "name": "to",
          "type": "address"
        },
        {
          "internalType": "uint256",
          "name": "id",
          "type": "uint256"
        },
        {
          "internalType": "uint256",
          "name": "value",
          "type": "uint256"
        },
        {
          "internalType": "bytes",
          "name": "data",
          "type": "bytes"
        }
      ],
      "name": "safeTransferFrom",
      "outputs": [],
      "stateMutability": "nonpayable",
      "type": "function"
    },
    {
      "inputs": [
        {
          "internalType": "address",
          "name": "operator",
          "type": "address"
        },
        {
          "internalType": "bool",
          "name": "approved",
          "type": "bool"
        }
      ],
      "name": "setApprovalForAll",
      "outputs": [],
      "stateMutability": "nonpayable",
      "type": "function"
    },
    {
      "inputs": [
        {
          "internalType": "string",
          "name": "baseMetadataURI_",
          "type": "string"
        }
      ],
      "name": "setBaseMetadataURI",
      "outputs": [],
      "stateMutability": "nonpayable",
      "type": "function"
    },
    {
      "inputs": [
        {
          "internalType": "bytes4",
          "name": "interfaceId",
          "type": "bytes4"
        }
      ],
      "name": "supportsInterface",
      "outputs": [
        {
          "internalType": "bool",
          "name": "",
          "type": "bool"
        }
      ],
      "stateMutability": "view",
      "type": "function"
    },
    {
      "inputs": [],
      "name": "symbol",
      "outputs": [
        {
          "internalType": "string",
          "name": "",
          "type": "string"
        }
      ],
      "stateMutability": "view",
      "type": "function"
    },
    {
      "inputs": [
        {
          "internalType": "uint256",
          "name": "nftId",
          "type": "uint256"
        }
      ],
      "name": "tokenURI",
      "outputs": [
        {
          "internalType": "string",
          "name": "",
          "type": "string"
        }
      ],
      "stateMutability": "view",
      "type": "function"
    },
    {
      "inputs": [
        {
          "internalType": "uint256",
          "name": "id",
          "type": "uint256"
        }
      ],
      "name": "totalSupply",
      "outputs": [
        {
          "internalType": "uint256",
          "name": "",
          "type": "uint256"
        }
      ],
      "stateMutability": "view",
      "type": "function"
    },
    {
      "inputs": [
        {
          "internalType": "address",
          "name": "from",
          "type": "address"
        },
        {
          "internalType": "address",
          "name": "to",
          "type": "address"
        },
        {
          "internalType": "uint256",
          "name": "nftId",
          "type": "uint256"
        }
      ],
      "name": "transferFrom",
      "outputs": [],
      "stateMutability": "nonpayable",
      "type": "function"
    },
    {
      "inputs": [
        {
          "internalType": "address",
          "name": "newOwner",
          "type": "address"
        }
      ],
      "name": "transferOwnership",
      "outputs": [],
      "stateMutability": "nonpayable",
      "type": "function"
    },
    {
      "inputs": [
        {
          "internalType": "uint256",
          "name": "id",
          "type": "uint256"
        }
      ],
      "name": "uri",
      "outputs": [
        {
          "internalType": "string",
          "name": "",
          "type": "string"
        }
      ],
      "stateMutability": "view",
      "type": "function"
    }
  ],
  "bytecode": "0x60806040523480156200001157600080fd5b5033806040518060400160405280601781526020017f45524331313535373231496e76656e746f72794d6f636b0000000000000000008152506040518060400160405280600381526020017f494e560000000000000000000000000000000000000000000000000000000000815250620000b47f7b1530c4658960e36e5aefe8c405a8888fc571e0ea1c48c05fa88aee9b57929960001b620002a160201b60201c565b620000e87fa0cdbe650e65549ddeb29c514fa934ffca3d6af80f7afb71e3645bc28fe9537a60001b620002a160201b60201c565b6200011c7f6da00422563bc6ab5a9c0356e4b0dd5fb4ed97beef90be03b4df9dafaf4fac2d60001b620002a160201b60201c565b81600590805190602001906200013492919062000345565b50620001697fb7ee72aa608a57d42937f47be23bbe32fc09f2807b1862725cc66cb6f3ecdcb060001b620002a160201b60201c565b6200019d7fac8ecf0cd61995f998d463b71da9850ff484dbb3ade5de5bea50b236c4e4d91e60001b620002a160201b60201c565b8060069080519060200190620001b592919062000345565b50505080600960006101000a81548173ffffffffffffffffffffffffffffffffffffffff021916908373ffffffffffffffffffffffffffffffffffffffff1602179055508073ffffffffffffffffffffffffffffffffffffffff16600073ffffffffffffffffffffffffffffffffffffffff167f8be0079c531659141344cd1fd0a4f28419497f9722a3daafe3b4186f6b6457e060405160405180910390a3506200026681620002a460201b60201c565b506200029b7f8588b7a7cadc810dd78c28226350b6be798902a68718bdb1edb37a0f33c0f98760001b6200034260201b60201c565b620003fb565b50565b6001600b60008373ffffffffffffffffffffffffffffffffffffffff1673ffffffffffffffffffffffffffffffffffffffff16815260200190815260200160002060006101000a81548160ff0219169083151502179055508073ffffffffffffffffffffffffffffffffffffffff167f6ae172837ea30b801fbfcdd4108aa1d5bf8ff775444fd70256b44e6bf3dfc3f660405160405180910390a250565b50565b828054600181600116156101000203166002900490600052602060002090601f0160209004810192826200037d5760008555620003c9565b82601f106200039857805160ff1916838001178555620003c9565b82800160010185558215620003c9579182015b82811115620003c8578251825591602001919060010190620003ab565b5b509050620003d89190620003dc565b5090565b5b80821115620003f7576000816000905550600101620003dd565b5090565b61fc24806200040b6000396000f3fe608060405234801561001057600080fd5b50600436106102d25760003560e01c806370a0823111610186578063adebf6f2116100e3578063d0011d9d11610097578063f242432a11610071578063f242432a14611607578063f2fde38b14611716578063f3993d111461175a576102d2565b8063d0011d9d146113e7578063e8ab9ccc14611415578063e985e9c51461158d576102d2565b8063bd85b039116100c8578063bd85b039146112bc578063c7778baa146112fe578063c87b56dd14611340576102d2565b8063adebf6f214611173578063b88d4fde146111b7576102d2565b806395d89b411161013a578063986502751161011f57806398650275146110bf578063a22cb465146110c9578063aa271e1a14611119576102d2565b806395d89b4114610ff8578063983b2d561461107b576102d2565b80637e518ec81161016b5780637e518ec814610ea85780638832e6e314610f215780638da5cb5b14610fc4576102d2565b806370a0823114610e2257806371c8a47b14610e7a576102d2565b806340c10f1911610234578063510b5158116101e85780635b2bd79e116101cd5780635b2bd79e14610c9a5780635cfa929714610d1d5780636352211e14610dca576102d2565b8063510b515814610c145780635423eb1c14610c6c576102d2565b80634684d7e9116102195780634684d7e914610a2a5780634de67cb914610ac35780634e1273f414610af1576102d2565b806340c10f191461096e57806342842e0e146109bc576102d2565b80630d6a5bbb1161028b578063210f03ab11610270578063210f03ab146106af57806323b872dd146106dd5780632eb2c2d61461074b576102d2565b80630d6a5bbb146104c55780630e89341c14610608576102d2565b806306fdde03116102bc57806306fdde031461039c578063081812fc1461041f578063095ea7b314610477576102d2565b8062fdd58e146102d757806301ffc9a714610339575b600080fd5b610323600480360360408110156102ed57600080fd5b81019080803573ffffffffffffffffffffffffffffffffffffffff16906020019092919080359060200190929190505050611852565b6040518082815260200191505060405180910390f35b6103846004803603602081101561034f57600080fd5b8101908080357bffffffffffffffffffffffffffffffffffffffffffffffffffffffff19169060200190929190505050611bf5565b60405180821515815260200191505060405180910390f35b6103a4611cf2565b6040518080602001828103825283818151815260200191508051906020019080838360005b838110156103e45780820151818401526020810190506103c9565b50505050905090810190601f1680156104115780820380516001836020036101000a031916815260200191505b509250505060405180910390f35b61044b6004803603602081101561043557600080fd5b8101908080359060200190929190505050611e18565b604051808273ffffffffffffffffffffffffffffffffffffffff16815260200191505060405180910390f35b6104c36004803603604081101561048d57600080fd5b81019080803573ffffffffffffffffffffffffffffffffffffffff169060200190929190803590602001909291905050506121cf565b005b610606600480360360808110156104db57600080fd5b81019080803573ffffffffffffffffffffffffffffffffffffffff1690602001909291908035906020019064010000000081111561051857600080fd5b82018360208201111561052a57600080fd5b8035906020019184602083028401116401000000008311171561054c57600080fd5b90919293919293908035906020019064010000000081111561056d57600080fd5b82018360208201111561057f57600080fd5b803590602001918460208302840111640100000000831117156105a157600080fd5b9091929391929390803590602001906401000000008111156105c257600080fd5b8201836020820111156105d457600080fd5b803590602001918460018302840111640100000000831117156105f657600080fd5b90919293919293905050506126e4565b005b6106346004803603602081101561061e57600080fd5b81019080803590602001909291905050506128ab565b6040518080602001828103825283818151815260200191508051906020019080838360005b83811015610674578082015181840152602081019050610659565b50505050905090810190601f1680156106a15780820380516001836020036101000a031916815260200191505b509250505060405180910390f35b6106db600480360360208110156106c557600080fd5b8101908080359060200190929190505050612941565b005b610749600480360360608110156106f357600080fd5b81019080803573ffffffffffffffffffffffffffffffffffffffff169060200190929190803573ffffffffffffffffffffffffffffffffffffffff16906020019092919080359060200190929190505050612944565b005b61096c600480360360a081101561076157600080fd5b81019080803573ffffffffffffffffffffffffffffffffffffffff169060200190929190803573ffffffffffffffffffffffffffffffffffffffff169060200190929190803590602001906401000000008111156107be57600080fd5b8201836020820111156107d057600080fd5b803590602001918460208302840111640100000000831117156107f257600080fd5b919080806020026020016040519081016040528093929190818152602001838360200280828437600081840152601f19601f8201169050808301925050505050505091929192908035906020019064010000000081111561085257600080fd5b82018360208201111561086457600080fd5b8035906020019184602083028401116401000000008311171561088657600080fd5b919080806020026020016040519081016040528093929190818152602001838360200280828437600081840152601f19601f820116905080830192505050505050509192919290803590602001906401000000008111156108e657600080fd5b8201836020820111156108f857600080fd5b8035906020019184600183028401116401000000008311171561091a57600080fd5b91908080601f016020809104026020016040519081016040528093929190818152602001838380828437600081840152601f19601f8201169050808301925050505050505091929192905050506129ea565b005b6109ba6004803603604081101561098457600080fd5b81019080803573ffffffffffffffffffffffffffffffffffffffff16906020019092919080359060200190929190505050612a82565b005b610a28600480360360608110156109d257600080fd5b81019080803573ffffffffffffffffffffffffffffffffffffffff169060200190929190803573ffffffffffffffffffffffffffffffffffffffff16906020019092919080359060200190929190505050612b8e565b005b610ac160048036036040811015610a4057600080fd5b81019080803573ffffffffffffffffffffffffffffffffffffffff16906020019092919080359060200190640100000000811115610a7d57600080fd5b820183602082011115610a8f57600080fd5b80359060200191846020830284011164010000000083111715610ab157600080fd5b9091929391929390505050612c34565b005b610aef60048036036020811015610ad957600080fd5b8101908080359060200190929190505050612d70565b005b610bbd60048036036040811015610b0757600080fd5b8101908080359060200190640100000000811115610b2457600080fd5b820183602082011115610b3657600080fd5b80359060200191846020830284011164010000000083111715610b5857600080fd5b909192939192939080359060200190640100000000811115610b7957600080fd5b820183602082011115610b8b57600080fd5b80359060200191846020830284011164010000000083111715610bad57600080fd5b9091929391929390505050612d73565b6040518080602001828103825283818151815260200191508051906020019060200280838360005b83811015610c00578082015181840152602081019050610be5565b505050509050019250505060405180910390f35b610c4060048036036020811015610c2a57600080fd5b81019080803590602001909291905050506130fb565b604051808273ffffffffffffffffffffffffffffffffffffffff16815260200191505060405180910390f35b610c9860048036036020811015610c8257600080fd5b8101908080359060200190929190505050613191565b005b610ca2613194565b6040518080602001828103825283818151815260200191508051906020019080838360005b83811015610ce2578082015181840152602081019050610cc7565b50505050905090810190601f168015610d0f5780820380516001836020036101000a031916815260200191505b509250505060405180910390f35b610dc860048036036080811015610d3357600080fd5b81019080803573ffffffffffffffffffffffffffffffffffffffff169060200190929190803590602001909291908035906020019092919080359060200190640100000000811115610d8457600080fd5b820183602082011115610d9657600080fd5b80359060200191846001830284011164010000000083111715610db857600080fd5b9091929391929390505050613232565b005b610df660048036036020811015610de057600080fd5b8101908080359060200190929190505050613375565b604051808273ffffffffffffffffffffffffffffffffffffffff16815260200191505060405180910390f35b610e6460048036036020811015610e3857600080fd5b81019080803573ffffffffffffffffffffffffffffffffffffffff16906020019092919050505061340b565b6040518082815260200191505060405180910390f35b610ea660048036036020811015610e9057600080fd5b810190808035906020019092919050505061362b565b005b610f1f60048036036020811015610ebe57600080fd5b8101908080359060200190640100000000811115610edb57600080fd5b820183602082011115610eed57600080fd5b80359060200191846001830284011164010000000083111715610f0f57600080fd5b909192939192939050505061362e565b005b610fc260048036036060811015610f3757600080fd5b81019080803573ffffffffffffffffffffffffffffffffffffffff1690602001909291908035906020019092919080359060200190640100000000811115610f7e57600080fd5b820183602082011115610f9057600080fd5b80359060200191846001830284011164010000000083111715610fb257600080fd5b90919293919293905050506137eb565b005b610fcc61392e565b604051808273ffffffffffffffffffffffffffffffffffffffff16815260200191505060405180910390f35b611000613958565b6040518080602001828103825283818151815260200191508051906020019080838360005b83811015611040578082015181840152602081019050611025565b50505050905090810190601f16801561106d5780820380516001836020036101000a031916815260200191505b509250505060405180910390f35b6110bd6004803603602081101561109157600080fd5b81019080803573ffffffffffffffffffffffffffffffffffffffff169060200190929190505050613a7e565b005b6110c7613a9a565b005b611117600480360360408110156110df57600080fd5b81019080803573ffffffffffffffffffffffffffffffffffffffff169060200190929190803515159060200190929190505050613b4d565b005b61115b6004803603602081101561112f57600080fd5b81019080803573ffffffffffffffffffffffffffffffffffffffff169060200190929190505050613ede565b60405180821515815260200191505060405180910390f35b61119f6004803603602081101561118957600080fd5b8101908080359060200190929190505050613efe565b60405180821515815260200191505060405180910390f35b6112ba600480360360808110156111cd57600080fd5b81019080803573ffffffffffffffffffffffffffffffffffffffff169060200190929190803573ffffffffffffffffffffffffffffffffffffffff169060200190929190803590602001909291908035906020019064010000000081111561123457600080fd5b82018360208201111561124657600080fd5b8035906020019184600183028401116401000000008311171561126857600080fd5b91908080601f016020809104026020016040519081016040528093929190818152602001838380828437600081840152601f19601f820116905080830192505050505050509192919290505050613f94565b005b6112e8600480360360208110156112d257600080fd5b810190808035906020019092919050505061402c565b6040518082815260200191505060405180910390f35b61132a6004803603602081101561131457600080fd5b810190808035906020019092919050505061423e565b6040518082815260200191505060405180910390f35b61136c6004803603602081101561135657600080fd5b81019080803590602001909291905050506143ff565b6040518080602001828103825283818151815260200191508051906020019080838360005b838110156113ac578082015181840152602081019050611391565b50505050905090810190601f1680156113d95780820380516001836020036101000a031916815260200191505b509250505060405180910390f35b611413600480360360208110156113fd57600080fd5b81019080803590602001909291905050506145fb565b005b61158b6004803603608081101561142b57600080fd5b810190808035906020019064010000000081111561144857600080fd5b82018360208201111561145a57600080fd5b8035906020019184602083028401116401000000008311171561147c57600080fd5b90919293919293908035906020019064010000000081111561149d57600080fd5b8201836020820111156114af57600080fd5b803590602001918460208302840111640100000000831117156114d157600080fd5b9091929391929390803590602001906401000000008111156114f257600080fd5b82018360208201111561150457600080fd5b8035906020019184602083028401116401000000008311171561152657600080fd5b90919293919293908035906020019064010000000081111561154757600080fd5b82018360208201111561155957600080fd5b8035906020019184600183028401116401000000008311171561157b57600080fd5b90919293919293905050506146f3565b005b6115ef600480360360408110156115a357600080fd5b81019080803573ffffffffffffffffffffffffffffffffffffffff169060200190929190803573ffffffffffffffffffffffffffffffffffffffff1690602001909291905050506147f9565b60405180821515815260200191505060405180910390f35b611714600480360360a081101561161d57600080fd5b81019080803573ffffffffffffffffffffffffffffffffffffffff169060200190929190803573ffffffffffffffffffffffffffffffffffffffff16906020019092919080359060200190929190803590602001909291908035906020019064010000000081111561168e57600080fd5b8201836020820111156116a057600080fd5b803590602001918460018302840111640100000000831117156116c257600080fd5b91908080601f016020809104026020016040519081016040528093929190818152602001838380828437600081840152601f19601f820116905080830192505050505050509192919290505050614910565b005b6117586004803603602081101561172c57600080fd5b81019080803573ffffffffffffffffffffffffffffffffffffffff16906020019092919050505061511c565b005b6118506004803603606081101561177057600080fd5b81019080803573ffffffffffffffffffffffffffffffffffffffff169060200190929190803573ffffffffffffffffffffffffffffffffffffffff169060200190929190803590602001906401000000008111156117cd57600080fd5b8201836020820111156117df57600080fd5b8035906020019184602083028401116401000000008311171561180157600080fd5b919080806020026020016040519081016040528093929190818152602001838360200280828437600081840152601f19601f8201169050808301925050505050505091929192905050506151ec565b005b60006118807fd0573779785065628f23834d92b2cb89dc3bf5e7f0c8a21fbb63efa01db3f4b860001b61362b565b6118ac7f1e2069e583b70fd027b2a8346e2a36e4f6ab99e605d470cbb1664e5bf334a65460001b61362b565b6118d87fa11fb8710bb4619527d4a53e1c1c7a5a9aeba136d883a774c49e970860bac34260001b61362b565b6119047f8738959252adef26e170a9aff53b7858d9b7dcebfef967a1584f48e2d2d2149760001b61362b565b600073ffffffffffffffffffffffffffffffffffffffff168373ffffffffffffffffffffffffffffffffffffffff1614156119a7576040517f08c379a00000000000000000000000000000000000000000000000000000000081526004018080602001828103825260178152602001807f496e76656e746f72793a207a65726f206164647265737300000000000000000081525060200191505060405180910390fd5b6119d37fdd91677df45046a7b61f6706b82728306838582132abeaee066db1b543dbfb4e60001b61362b565b6119ff7f9ea8e4451284908bfb3ba1e98d6b48295352c9cf78755f115ba44a0a6c4391e060001b61362b565b611a2b7f8e37e3f1d8e87d3f0ea4de37fff4966d5e020ff86fd5b3ba33a71235d643eae760001b61362b565b611a348261608d565b15611b1757611a657fc1231b191f8f3a532b568e953ba9dd9347fcf574a8ab8f8a1c54a17bf9edca4c60001b61362b565b611a917f14aac45d7d1276be234762665da9d01cb956b275d579f49cfb6877a50789cd0e60001b61362b565b611abd7f7666502ec335ee20fb343ba97abc544c2d1d9a861826b70bad114b4cf59576ed60001b61362b565b8273ffffffffffffffffffffffffffffffffffffffff16600360008481526020019081526020016000205473ffffffffffffffffffffffffffffffffffffffff1614611b0a576000611b0d565b60015b60ff169050611bef565b611b437f360cba3c863de43bdd9f6b65aad22d8b77eb9dd8e4164f215ecbd1808ff6b17860001b61362b565b611b6f7f0884ab5e942ef5e28752a6d8fc224b294075f1729dbf5990349866a80216b01460001b61362b565b611b9b7faa1d6a1c219335e0ddb052191e15d3b92d33ab87c907c983de09e0d0ce4b427360001b61362b565b6001600083815260200190815260200160002060008473ffffffffffffffffffffffffffffffffffffffff1673ffffffffffffffffffffffffffffffffffffffff1681526020019081526020016000205490505b92915050565b6000611c227e39ed9510e1c7ccdbbe7369c6e67cc2a3cb1118e8645f331a097756bb8f8a7460001b612941565b611c4e7f9d9c2a2ed4d93a7356d7a1ae8d183ba2b08b00ce7cf07982f157550dde1fa50860001b612941565b611c7a7f1418146b218bbd48ab0651b821fc3aa93e1e851cd2832101141f16157819054960001b612941565b7f510b5158000000000000000000000000000000000000000000000000000000007bffffffffffffffffffffffffffffffffffffffffffffffffffffffff1916827bffffffffffffffffffffffffffffffffffffffffffffffffffffffff19161480611ceb5750611cea8261615b565b5b9050919050565b6060611d207f561cc1603d746beb23cdc43b39797df49fe7bd5e21446856a2ff63dbeb30f47660001b613191565b611d4c7f6e6312bf09edac35f6bddb38f3b823e88ee07657c05925e3b4e9eee3d92355c560001b613191565b611d787f5925382370b390fd4f00e96fbd6ed36932844cd3b0ee7cf4ed7d935701a71d0f60001b613191565b60058054600181600116156101000203166002900480601f016020809104026020016040519081016040528092919081815260200182805460018160011615610100020316600290048015611e0e5780601f10611de357610100808354040283529160200191611e0e565b820191906000526020600020905b815481529060010190602001808311611df157829003601f168201915b5050505050905090565b6000611e467f48bc24a7474e38f760600ddd4106f8b38b2b22be71ee1762fe6dcf35e23f0f2860001b613191565b611e727f604ee9a7abadc5d9b10befa02f6028984454c0eb741fe67e84cd509c8886388760001b613191565b611e9e7fd4ef2f9cd671f8b487eb57a51563254c5763122303bbbeba955a2aa297ceba7660001b613191565b600060036000848152602001908152602001600020549050611ee27f9a4e09b7e0a53ae44d6a3ca3c9ca1520b5724dc6dc8af295ca20889d2df979b060001b613191565b611f0e7f1ff1f93cbcb34f4efef30641d3ef6e7e3cca8337a4a32e578cb7960810f8894e60001b613191565b611f3a7fccfd4bc5e1d1d4454be84896b79a9efc63d7277c7c25f69748a4311a508b8c0f60001b613191565b600073ffffffffffffffffffffffffffffffffffffffff168173ffffffffffffffffffffffffffffffffffffffff161415611fdd576040517f08c379a000000000000000000000000000000000000000000000000000000000815260040180806020018281038252601b8152602001807f496e76656e746f72793a206e6f6e2d6578697374696e67204e4654000000000081525060200191505060405180910390fd5b6120097fb9f9ea03cbecb9e2eec02ba81a854cff6d91f9499c3a0b5991de01292a671fce60001b613191565b6120357fd0dd3a32ebb685ea2defc7f8c69abd5ae7a6e842d4775d442a9525790b9e074060001b613191565b6120617f3118bbe52756e44306f5e3c4fa160ed43e1ac91252a0e23b676e8be12256addd60001b613191565b600074010000000000000000000000000000000000000000821614612140576120ac7f022e36675ddc3e8a99085e23b71743695cdefd8fd4c5477ea9baead454d6459660001b613191565b6120d87f0229660e3ec4d98a066a60b5602871d81504e497a765353b7aae5bb46a501dab60001b613191565b6121047f9b44201433be4b8ed07697d173e2d8bed4a814e2ce696034acc42f87bc4f933260001b613191565b6008600084815260200190815260200160002060009054906101000a900473ffffffffffffffffffffffffffffffffffffffff169150506121ca565b61216c7fa9999bdfd58fed7fe227da8f07bb5a5f2622937393c0abc1b8fc66af4dbd7aee60001b613191565b6121987f5931e1c7c045ec7a214b14ebc5798a09ece38a1cc6dc58a7e8f819c063ec24b360001b613191565b6121c47fe5686d9aa5f3cfe420c190f5e800e9f7c5b6fe54c3a0157bc5ae20679e2c446760001b613191565b60009150505b919050565b6121fb7fcdac30a2ec788ea40f03e18f7b1192a9bc9f19b13ebf172a22bacd865d4417b660001b613191565b6122277fb7ebbf7ab1bbe423f70cf2a3320a480a18db585ba8a658f5a5c160fadf5326fb60001b613191565b6122537ff6819d309d5ca0a6d4b2b2a7604442b00eaa22bcaf8005b46e044c755c9be71160001b613191565b600061225e82613375565b905061228c7f8ba6daac4b9f6efc153580643ddd0ac64624b5d236fa1fbc2ccb314a2d76557c60001b613191565b6122b87fb9bad79cd6c4e772137dbf16427b409e8f67c6c04b0945a8cb7be7a8a624c41b60001b613191565b6122e47f0d15d3b0cc9809c465f360f8272ac9ef132ae04a966ea60f3afa2c55be6417d860001b613191565b8073ffffffffffffffffffffffffffffffffffffffff168373ffffffffffffffffffffffffffffffffffffffff161415612386576040517f08c379a00000000000000000000000000000000000000000000000000000000081526004018080602001828103825260188152602001807f496e76656e746f72793a2073656c662d617070726f76616c000000000000000081525060200191505060405180910390fd5b6123b27ff5b0ad0eeb733e5855d9bcb9f2014ad7c8c602ff2f9e6395eeff4cb05a4644de60001b613191565b6123de7f3ae4c43dca173727c1fa40b1ba0fc260d536fbf6d67d29b7f0a27d2c623bcc6360001b613191565b61240a7fce79fde3bc65be5baab8c8ddbaf8b75f5a3ac0d3825e1198139ccde2650991ee60001b613191565b6124367f012a47369b24621f8541bcda443299fce3ff21eeb3f504388ff276ea8001600460001b613191565b61244781612442616329565b616331565b6124b9576040517f08c379a000000000000000000000000000000000000000000000000000000000815260040180806020018281038252601e8152602001807f496e76656e746f72793a206e6f6e2d617070726f7665642073656e646572000081525060200191505060405180910390fd5b6124e57fb925ea132ad662d6d125ce90e997dc1e5661947bfe04c4299653dfd50119553160001b613191565b6125117f22baf1d88787d59999481ac89fc2adcee7d05c9a3fb8d7248b0a1dccfd7742f160001b613191565b61253d7fb3f637fe29459b7af9b6a906894c47ea4c542120d9192fe383aa02dfcf71aca260001b613191565b740100000000000000000000000000000000000000008173ffffffffffffffffffffffffffffffffffffffff161760036000848152602001908152602001600020819055506125ae7f3df8e2af33a7cf9234d2c0ad0c4c121104d87e96161ea7c9617f5dd7fe234c6e60001b613191565b6125da7f89c7a139918190952309fb0dff599f34c2823474ba3308a9725f28be0f79061860001b613191565b826008600084815260200190815260200160002060006101000a81548173ffffffffffffffffffffffffffffffffffffffff021916908373ffffffffffffffffffffffffffffffffffffffff1602179055506126587f2e8c6514e0208e8356ed650c3e54b313600339826cbbbc533c1b215b0234347f60001b613191565b6126847f069e36094e2956dd1201400cb41854bd92ea8ce6de65cd5b3547b95156423db960001b613191565b818373ffffffffffffffffffffffffffffffffffffffff168273ffffffffffffffffffffffffffffffffffffffff167f8c5be1e5ebec7d5bd14f71427d1e84f3dd0314c0f7b2291e5b200ac8c7c3b92560405160405180910390a4505050565b6127107fab8a4c4eaa4d561855e19fdd3b30cd818954e0a4a733e6ad394821686c2dd59260001b612941565b61273c7fb89a7147b6abfaf8c1431e22e96cf9c833e57fdb07bd6a9064b0bd88043ea02c60001b612941565b6127687fc44719242c4b5f6a261d1a94167c0046e68299b390a680dcd1d7f3eb05bd5d4a60001b612941565b612778612773616329565b61647e565b6127a47fa2375514a04e9035501a9710092028bbd6b386bebb4c0e5c16af722126840c3560001b612941565b6127d07fadff8baf998533d5e98d34524b0a975497b06204344f5e113ff26646a3cf2dc360001b612941565b6128a287878780806020026020016040519081016040528093929190818152602001838360200280828437600081840152601f19601f82011690508083019250505050505050868680806020026020016040519081016040528093929190818152602001838360200280828437600081840152601f19601f8201169050808301925050505050505085858080601f016020809104026020016040519081016040528093929190818152602001838380828437600081840152601f19601f82011690508083019250505050505050616540565b50505050505050565b60606128d97feae404d57bf08896020615983536e561ec36cead47932715b5c0fcdaafc1118c60001b612941565b6129057f9f56e5f23973df4bdd209602fc6cb18d505b59ae551f1a1366073478b495d1dd60001b612941565b6129317fa95e1ddef4ee2b5b77b876f1375ffdf4dd8115ebe0674844d2b1204e869c3b3760001b612941565b61293a826178eb565b9050919050565b50565b6129707f803d2fee26edc89f719abc7cfb2416814573efc0e2c8606a5655f693f81e351c60001b613191565b61299c7f2d1e1aaa835aa5e6742c79d21484d52e25b6f22722a38b18855713a215cf256960001b613191565b6129c87fdccc5ef933511df012e05ec844b815965d47308bd0683587960bb275a9ad5ae860001b613191565b6129e5838383604051806020016040528060008152506000617a47565b505050565b612a167f6f353362373f746453a4ef64156f66cd65143529d75ed917e447b5ca6b6ef3d160001b613191565b612a427f359f1100f1330ed0c486d47b8b187d79a719157c1e65fc19f5dea5588259ce8060001b613191565b612a6e7f6db7b5a3eef1521737799d1896beb7778590604134f211283d781dbec116b18160001b613191565b612a7b8585858585618189565b5050505050565b612aae7f8c4f809a21041ce33c9faa8d346ec66480cfcf6cb5157ce100ba6b2983e5011c60001b612941565b612ada7f391672bec3d08b3cf6dc16fdd69534f3ac5aa91f59722c23930b9503737b802d60001b612941565b612b067ff6b4ef3393b669cab5e61c973a133cb81b52184ddc3aa294a568bd2acc16ca8f60001b612941565b612b16612b11616329565b61647e565b612b427f02d22a66c32060e74559af4c5921ec31fd8d03aafe8eb261c431a0f8125a0f8460001b612941565b612b6e7fbb115cf5bc082ed7de304b10ed4e2a99084a7d4ea0fa69a11f761309d0677c0660001b612941565b612b8a82826040518060200160405280600081525060006193df565b5050565b612bba7f982e3e044580f18d587948fa8658184c056815d5d3c9860d89a7032ef9a1063c60001b613191565b612be67fa27079341bd9459bf78627b780b32d1f539e28e3ac2fd1c133b3edf813042e6360001b613191565b612c127f609f40499b51845f29252c3c8a3c1f4fdbf58193b366f0ee86c5505da09f9a8360001b613191565b612c2f838383604051806020016040528060008152506001617a47565b505050565b612c607f8ecabab183d38f12bd3fc12eb6ec72e936e6b37a6bca84cff461bd61a2feb50060001b612941565b612c8c7fc5f6c0aab50706db3ead5dffb632c90f1f02fe412a86e0d9cc0751e073d6f7f560001b612941565b612cb87fe1049b54e0b2db564bacc943266747c8bbc164192a77aecef32a5b63cdc6c59660001b612941565b612cc8612cc3616329565b61647e565b612cf47fb938c3e61d9417870163c64d4511cf99a9df270527920ce2918930183104071660001b612941565b612d207ff42be76a7c1a93b94c0ce14ba8384360ad264180a8dafe781714a50a09ad9e5a60001b612941565b612d6b83838380806020026020016040519081016040528093929190818152602001838360200280828437600081840152601f19601f82011690508083019250505050505050619b88565b505050565b50565b6060612da17ff9387cb22317f794a78cf6e494581548d65d540d5a51cab9992f47610a1c8cdc60001b61362b565b612dcd7fa00a45ad76cdf9ac301740d072e0cd2eb3096be43c55e3981504d9ac6c11caf360001b61362b565b612df97f76c37eada364e7ad7f4c17dcb1c765088676a96fc8f2facc0499e51b26b80dd860001b61362b565b612e257f69e309af372ae7f0a26f4a15b8bc79c70317abd49fbb25a60b5380f6c0de4edf60001b61362b565b828290508585905014612ea0576040517f08c379a000000000000000000000000000000000000000000000000000000000815260040180806020018281038252601e8152602001807f496e76656e746f72793a20696e636f6e73697374656e7420617272617973000081525060200191505060405180910390fd5b612ecc7f03ca9934893a0b11862b7daa8241dafa1638e58e30c33a304d1952efd4f17d1d60001b61362b565b612ef87f98d6f72017d5916f8b89e6a423f6fb1263e50e29f77bbee75939d1a651c7c67d60001b61362b565b612f247f6973fd2822295f7623838cbf5043b692c363258ac19791d50b0115b5f99e76f360001b61362b565b60008585905067ffffffffffffffff81118015612f4057600080fd5b50604051908082528060200260200182016040528015612f6f5781602001602082028036833780820191505090505b509050612f9e7fa9c42faf8af8aefc47c3bfb0a64c1885c24aec0d5ed4a354881f4943de40f16d60001b61362b565b612fca7fbce6394d332b76fbf0a6187b8fa9aee3c0436ab95a6aad37d2c082bc5295f29460001b61362b565b60005b868690508114613096576130037fb15d87dec090f0794e7bf64d2641752345f46c6335f46a4bf42a2691c7da6aa560001b61362b565b61302f7fa19272b3140654f8c1cff7415002be536b942127a7cb28add414bc908c37db5060001b61362b565b61307387878381811061303e57fe5b9050602002013573ffffffffffffffffffffffffffffffffffffffff1686868481811061306757fe5b90506020020135611852565b82828151811061307f57fe5b602002602001018181525050806001019050612fcd565b506130c37f1a45384965ee4ecff22640d9a4f51e45e724990c60f8c920931195f14f28f6ed60001b61362b565b6130ef7f69f2f19fcc65b59ea4506fd6be5c1a0e9e3fff4a7383c74bb74f7b73f841367360001b61362b565b80915050949350505050565b60006131297f26434a3a2dae3eaf2734af38244a8ee421c732f43c744e4c6b7e934a32567fa760001b612941565b6131557f017edf6c5dd87f5b6f918f2ca5a393214d77cbe9707c2a809602cf351ed9511d60001b612941565b6131817fed020d23efee7f66ae80bd823a0ff411a4690cbc5e6917d858afe7059e41524860001b612941565b61318a8261aba4565b9050919050565b50565b600a8054600181600116156101000203166002900480601f01602080910402602001604051908101604052809291908181526020018280546001816001161561010002031660029004801561322a5780601f106131ff5761010080835404028352916020019161322a565b820191906000526020600020905b81548152906001019060200180831161320d57829003601f168201915b505050505081565b61325e7f5d864d87c87fe6e11ede11913d8a3482a326318cd6dc07c2321fd9b4798880f160001b612941565b61328a7f96c751c863540d296db8ae1e2539c3fbe3e715e07adb276f59c6763bae8543b360001b612941565b6132b67fdf1a14e0c6dd9e2fc474ad85b63005329783405a2022ceabacf2f6a2f6c6661360001b612941565b6132c66132c1616329565b61647e565b6132f27f54f2907cba8acff431f4b8bb2f656e3afe82576aa52ba940d70e08e02e37591b60001b612941565b61331e7fe477197e2792a1991b588fc8aac86839919e4c6c1218581b76439fd906a5b42a60001b612941565b61336e85858585858080601f016020809104026020016040519081016040528093929190818152602001838380828437600081840152601f19601f8201169050808301925050505050505061ad91565b5050505050565b60006133a37f1e312f9d1ba4e0ce2ec000e1423d9829ddc7a3f2d4d849e8877ec00273a2723b60001b613191565b6133cf7f681f13f46c8c383ae94970d7fd3f8baa3979a2a5e9c97078ca0601fa4d69e88d60001b613191565b6133fb7f7ec69312ef10d4f740e9ed25b920145cb949122f60d86ea6ab8b4a306d8082ce60001b613191565b6134048261b535565b9050919050565b60006134397f16a7bab9f7823cc61b7bfdfeafebc0c9b90643140c522c056f9d0fda993a1b1060001b613191565b6134657f66c58fc4e1d3ff3a52305d8e4eb3f2599348b418191a711f41487af4baabd9df60001b613191565b6134917f9635edf881aab624991db2ee4713ce4e6744518773849e0a7e7930d64c67883860001b613191565b6134bd7fde5357e68e41665aa7e1aa6cb4495cef1a845501c476b1fd4597a2569a8e0d1360001b613191565b600073ffffffffffffffffffffffffffffffffffffffff168273ffffffffffffffffffffffffffffffffffffffff161415613560576040517f08c379a00000000000000000000000000000000000000000000000000000000081526004018080602001828103825260178152602001807f496e76656e746f72793a207a65726f206164647265737300000000000000000081525060200191505060405180910390fd5b61358c7f0e849064134aa38f14ec7dbc4c106d0d34d38c21d5ab1e05857067c3c0abe54860001b613191565b6135b87f6a148a944977b2de10e2be8bcb6c64cb2a2745074ee47aec4034bf51d0cc4a9960001b613191565b6135e47f44562ab27cfc21b017908cc9b3f7ba3ebe1166548ca589d100c7547cb17d3d3960001b613191565b600760008373ffffffffffffffffffffffffffffffffffffffff1673ffffffffffffffffffffffffffffffffffffffff168152602001908152602001600020549050919050565b50565b61365a7f7a798900079f8abfec5d8e2dbe01957da86924048545474d2e8cc4455ff9b8d160001b612d70565b6136867fe5e96d6f82b06fe1194e47d7e09774604275383795b69bf66729b57c43f3a68160001b612d70565b6136b27f1bab262e01d292ebc7268f0af663a93ea4cfca3b15a21a9bd3b88ed5d7a2575d60001b612d70565b6136c26136bd616329565b61b787565b6136ee7f889c29d91f479e9e5ea327b67cd360470392306bab96df204f280c7db9ea52ed60001b612d70565b61371a7fe36810d14b53a066d2911963f7e0dcf3b24615a7ccdad7d1cdfb9eb2a23f966360001b612d70565b8181600a919061372b92919061fb43565b506137587ff608c0d0ece8312aa6b4686eba824834606e1e579f33a0c28b1a959db81b457060001b612d70565b6137847f0266515aefe9459e801de01c95b7c8eb072550f55c42ed42ab0afeccf3e2ab7760001b612d70565b7f04b1dc5c136a3ce9fded8db0ce3d3366c58764ec3a8e4c2b9e52e4ddfe5ebbf7828260405180806020018281038252848482818152602001925080828437600081840152601f19601f820116905080830192505050935050505060405180910390a15050565b6138177f6d37ec35de1a7af78b4b883b957693c25548b0b6f4b3bf3f494e3e184944426c60001b612941565b6138437ff52897d97d6938e339769c517132cd574cbfee334e7fb1315bcad6ddf2f9387460001b612941565b61386f7f0aa85f1bb27e5c2ac3e49e3beed27f01add8f28ddb9fae7855ad8845ac7a48d760001b612941565b61387f61387a616329565b61647e565b6138ab7fe7368634d4c3aa50f81331a71802ef22c8b78324fd9d24ed208233c94dd330ab60001b612941565b6138d77f557d448d910e0a66ad9bef8a9b6edc2882817a64a73ac55e65113167ca2b2d4660001b612941565b613928848484848080601f016020809104026020016040519081016040528093929190818152602001838380828437600081840152601f19601f8201169050808301925050505050505060016193df565b50505050565b6000600960009054906101000a900473ffffffffffffffffffffffffffffffffffffffff16905090565b60606139867feebe716898781eefbc9e9a56d2630bfdb323a5dd73523b31e7cbc74d5f9e445e60001b613191565b6139b27f1ad7ac8d74a2c57b3115db78ec7d483d6731d7a93b1691be943b3f83e4e18bea60001b613191565b6139de7fe58876b37861808045813f187b5499dca2651311325ede30c6049d16c6b2ac4060001b613191565b60068054600181600116156101000203166002900480601f016020809104026020016040519081016040528092919081815260200182805460018160011615610100020316600290048015613a745780601f10613a4957610100808354040283529160200191613a74565b820191906000526020600020905b815481529060010190602001808311613a5757829003601f168201915b5050505050905090565b613a8e613a89616329565b61b787565b613a978161b8ab565b50565b6000613aa4616329565b9050613aaf8161647e565b6000600b60008373ffffffffffffffffffffffffffffffffffffffff1673ffffffffffffffffffffffffffffffffffffffff16815260200190815260200160002060006101000a81548160ff0219169083151502179055508073ffffffffffffffffffffffffffffffffffffffff167fe94479a9f7e1952cc78f2d6baab678adc1b772d936c6583def489e524cb6669260405160405180910390a250565b613b797f34732ceebdc52a7f71c399e1e4d2d8e8967290fc9cb560ddb0e5ab04e3507aef60001b61362b565b613ba57ff9774cb0c37c351161667d5d72cfc0c37222a1986aa4550c19d2c98b935fbf3e60001b61362b565b613bd17fccc52dbfd478828a56c25cc1097267b6677c2bcbd5d75cf77657cd5aa20c72c160001b61362b565b6000613bdb616329565b9050613c097f82a9d9fde572139c38993f27a8d450e1efff334f0cc809aeaed412204a09634e60001b61362b565b613c357fa90c71e25fcd1aafe00e3f26547e2cae8984da5e87b3dc7ae90ab1df13441f4a60001b61362b565b613c617fb59e257435a88d73710629598c67988192f29d14ea6795be29ef74349d355f6360001b61362b565b8073ffffffffffffffffffffffffffffffffffffffff168373ffffffffffffffffffffffffffffffffffffffff161415613d03576040517f08c379a00000000000000000000000000000000000000000000000000000000081526004018080602001828103825260188152602001807f496e76656e746f72793a2073656c662d617070726f76616c000000000000000081525060200191505060405180910390fd5b613d2f7f147c5aa85b8670cd996c7334ff0798f120c24587bd6f9dc2232e3045db8a2ab360001b61362b565b613d5b7fd4ba31ae6a373fd24f0d64bca8fb4bde7cf4f54c2927497a145c6e405557e3e460001b61362b565b613d877f6c50940c7beff3e09095224cf62c532aa494dc43d0dea63ce6fd98f7cbca994f60001b61362b565b816000808373ffffffffffffffffffffffffffffffffffffffff1673ffffffffffffffffffffffffffffffffffffffff16815260200190815260200160002060008573ffffffffffffffffffffffffffffffffffffffff1673ffffffffffffffffffffffffffffffffffffffff16815260200190815260200160002060006101000a81548160ff021916908315150217905550613e467fe20b5c78afe32fc86519d4631729cf759c1a124c18ffd672b254d1e5585c8ddb60001b61362b565b613e727fefdc2b84f85ce5cd5e3ef7fabfbd5fd91fa2963800387ac4470b8202d5615b8a60001b61362b565b8273ffffffffffffffffffffffffffffffffffffffff168173ffffffffffffffffffffffffffffffffffffffff167f17307eab39ab6107e8899845ad3d59bd9653f200f220920489ca2b5937696c318460405180821515815260200191505060405180910390a3505050565b600b6020528060005260406000206000915054906101000a900460ff1681565b6000613f2c7fd465c97e937629553f416390347ee48d7a2652b9b4d28d262770397e2a2f934960001b61362b565b613f587f0d585b43b8f40b04d20e2ee1432602c497c163c560eb5d234c1c901006d4df3160001b61362b565b613f847fa6efcbddf128b8fff39f0fcca18708a4cf6a9c5a4d31987f084e50899d4a6dd660001b61362b565b613f8d8261b949565b9050919050565b613fc07f69b2eb07085c6c576b8cc58c802d4c5be931e45c8275c70620b5e2182e41ec8360001b613191565b613fec7f8a112e67c92b896816ac75491d30f717cdfa935146dd663b90e0512917807c4560001b613191565b6140187fcb92f7a5c777b027fde6e5d29fc3a9f959f37c5a456eb56e431f09fffbf785df60001b613191565b614026848484846001617a47565b50505050565b600061405a7fc16f3a5f3f2c4b29aff86ea8e86ad1ed28b83e12b107ead011fd7833bf93f81f60001b61362b565b6140867f96cd57563f2de36a61d9b57fc8bb7a178810bd3686fc54f98458cb8fbe0993bf60001b61362b565b6140b27f4b68d57dff2bdd9aa117ce563cf0a1dd2cca6d9b9437a27a4c923c01104684a160001b61362b565b6140bb8261608d565b1561419f576140ec7fd416321ad2103bc45f54755d6c9ca363184802e92d6683071358680ad403b6b360001b61362b565b6141187fdc4054968d062c36cbfa807ba67102c728c181681282ed58e087bb57ce4689a960001b61362b565b6141447f42a214d4538e339edf25f40db32acf925d7568cc7b3e47f60fea0a9516eec69e60001b61362b565b600073ffffffffffffffffffffffffffffffffffffffff16600360008481526020019081526020016000205473ffffffffffffffffffffffffffffffffffffffff1614614192576001614195565b60005b60ff169050614239565b6141cb7f137978bcb5a3c8a9f4874639688cc46a704ed33eab2a45dc6d3049917d7f86f060001b61362b565b6141f67e8809a2f29e090ff9eebab17268f1f71d9a90e6c3c768cdc7a24a88a22881f260001b61362b565b6142227f5dc8b6984f6537373034b03d292f2fcd5886e0d4633d33863371ad3352726f3b60001b61362b565b600260008381526020019081526020016000205490505b919050565b600061426c7f81c8ab7023ed4397c44c423bed6e3c778dd49871137e2ab7ae51a55606d8f71860001b61362b565b6142987f8a16d585cb2a38a85b8a102387536c8fb7b695abc20fada8de556735972e0fe760001b61362b565b6142c47fad4c4ebc563d16d70ceb980dc04bd442f598de6b76f4f4d6fa77815bdf0f054460001b61362b565b6142f07f984bea0301f807a770c96842a160eef37b39faf5414242e6c86cfc76c00b4eef60001b61362b565b6142f98261608d565b61436b576040517f08c379a00000000000000000000000000000000000000000000000000000000081526004018080602001828103825260158152602001807f496e76656e746f72793a206e6f7420616e204e4654000000000000000000000081525060200191505060405180910390fd5b6143977f9e5e4b2cf822da6080a88df2e94b694dba2e04c5f1714a91ecd47093d220dd9460001b61362b565b6143c37fb71356143b29567f1ba90f31825796336cabe05f430309a8e1b7eeac025b787a60001b61362b565b6143ef7f696d0584512dffb7df7a918b0dedd012d98f5d89524a8ff9d53278208efa0a4c60001b61362b565b6143f88261b9fc565b9050919050565b606061442d7f654a16b85dfd8f921f91b90fa802fecf4545f5451cf32a9156c74b15df473a4560001b613191565b6144597f0f6fc3ffd15429e0b1dcd355886eb1ded2136f0d8ff11862de5535f453c6047f60001b613191565b6144857fee78623918c87c220f79f6540ce040fabd301451dbc2e8f0ba50e1522fc4f3bd60001b613191565b6144b17f4de18123278f550fe6754601892e190a47bdce63250bd215e48e320d999e689660001b613191565b600073ffffffffffffffffffffffffffffffffffffffff16600360008481526020019081526020016000205473ffffffffffffffffffffffffffffffffffffffff161415614567576040517f08c379a000000000000000000000000000000000000000000000000000000000815260040180806020018281038252601b8152602001807f496e76656e746f72793a206e6f6e2d6578697374696e67204e4654000000000081525060200191505060405180910390fd5b6145937ffdf281885ab532aad1302f163fb4981545bb33e486a75bb42c8341843047cda860001b613191565b6145bf7f5b3e6536bd9974ba3deaf8759d316f07f0e162747af953baf6541308d119fcd360001b613191565b6145eb7fd6da770b1e3ac892488ac78c76b619f58ec858e6d951cbc537f56cf5e911afd060001b613191565b6145f4826128ab565b9050919050565b6146277f6ed06331f0f833efd36d317a5dc2b6031d69b131e044f43b33a45a405f87c0e160001b612941565b6146537f6f64de0267bb3556dcc6553f19eb7a5585f260bfcb6f5f64b21f6a65a392207560001b612941565b61467f7f53ab02fe7f561981609f0465e8832e50b7ab7f9f08465b9926f22863d5744e2260001b612941565b61468f61468a616329565b61b787565b6146bb7f59f01bb28e726a08ff73f600c2d8a5557633776bfb73994c60d9120792564fda60001b612941565b6146e77f4348ee64e86dae1f13dc7088cacd9580593c1a8d40859b4d7510378e860064f660001b612941565b6146f08161ba96565b50565b61471f7f09b9e13c8f2c0e882b537c8189fb7346993a7ccb9ba07e9f8f56fe2f81b7630460001b612941565b61474b7fca2180d42602b08e1d2baad79b5a24e7711728d0d29e8b84978c4e8959c3659d60001b612941565b6147777f1bb69f6bb6c60355667813102ff5326569644b93fbc912f800c263c3d804c48d60001b612941565b614787614782616329565b61647e565b6147b37f3a894b831f9b3a5db7173f6d49c14e7a56e27599be397f5eac8e04e5079103a660001b612941565b6147df7f55f638a39b1cbcea2803584eaf33c9f3bcfd8010dff1459372a5b1aafdb3893460001b612941565b6147ef888888888888888861beb7565b5050505050505050565b60006148277f9674b06b6a2ed61fbe38e3bed653a71549a2afe1c104d4ab2343216c90d7074d60001b61362b565b6148537fa811103c24c22b7135259f3f2fe477260c2d7240bbde654094a51a7254dacef960001b61362b565b61487f7ff89862dd6989fcd744184778634eea3c6a4a17909e701ba0f6f8fe5c32d8eebb60001b61362b565b6000808473ffffffffffffffffffffffffffffffffffffffff1673ffffffffffffffffffffffffffffffffffffffff16815260200190815260200160002060008373ffffffffffffffffffffffffffffffffffffffff1673ffffffffffffffffffffffffffffffffffffffff16815260200190815260200160002060009054906101000a900460ff16905092915050565b61493c7fd6dccf0535bf9013ed01d767432d32531f9c9a98b389f1796a9a20d7cd79644260001b613191565b6149687f394783b2e1520b8900b02e55376a95d2ff8254f479465cb61f91203934c489e160001b613191565b6149947f3ad3e5cfa764dac93a75257ba8db3564229cb11c8d7306c6cdfb128a595af87760001b613191565b600061499e616329565b90506149cc7f70c1529ca87a3a9cf5072969046401a7de4c92b2a81662fd410d2c42aedc4fd260001b613191565b6149f87f32a454b993a27e6f17c3f7114d13a9eb2c71f8bf7574b765c927040d562e1b3a60001b613191565b614a247f862a745cd48b2860f1861a7a467b780387e6ed9de6325559bcc51b86694f8f5860001b613191565b600073ffffffffffffffffffffffffffffffffffffffff168573ffffffffffffffffffffffffffffffffffffffff161415614ac7576040517f08c379a000000000000000000000000000000000000000000000000000000000815260040180806020018281038252601b8152602001807f496e76656e746f72793a207472616e7366657220746f207a65726f000000000081525060200191505060405180910390fd5b614af37f8444e108506106fff01b0ca0abeb7fdfae9ca7f2c28109e4ed77a4c1033e046c60001b613191565b614b1f7f6cf68b1cfcbe18d0bed05f7a4d961a9e92f947b9c93bbc3441851865fc77332a60001b613191565b614b4b7fda899d8b698449fa996f72b606703899a99db9700b30a908acc50478db4f15bb60001b613191565b6000614b578783616331565b9050614b857fb000deed76f75f1b10e99eafb47552a6bc97f409559c44d0fa9246a6736d15fc60001b613191565b614bb17f888f1753ae815b4677140df0de6acd3d5800087b975828dbb00d42857993ca4860001b613191565b614bba8561b949565b15614c5557614beb7f79c012da14436633d9458ee7b775f19c77591083d499bf55713b9868b4767ca360001b613191565b614c177fb2c85898c2b00a5d219b9252a279ac7c92c6763fd42eabefc9cf492c277090b860001b613191565b614c437f6533d3d9b794a57002bb3907a6a70a60e597012cbfaa0485fdfa1f11b335a9fc60001b613191565b614c50878787878561cddd565b614ef8565b614c817fbc4f8f9fa3454cb475d7191ba0cb68f758fe29601839acc44cc58d23db2eb00760001b613191565b614cad7f883d5c8d5bc22a1c7fb51c275a4c285fce001937e3236d589534bf6c3290d21960001b613191565b614cb68561608d565b15614e0557614ce67eb70e5ea04103a2a1a878d83b77179d2aa3f58286371ad2ba19a68fb57eb64360001b613191565b614d127f1874ea6e81a2cb3db4c7f27c8545a0956a8510d55517e6476d5a53478b83b53460001b613191565b614d3e7fcc1a251ef35427193c09acef0b94d113dcb5615b50d2c07b43d5008bfd903ee460001b613191565b614d4d8787878785600061d47c565b614d797fc5b51b89936ed8fadc1ed6c183d5695d904264442f4c7ca393e374eb6220655460001b613191565b614da57f5c9086faa3bc095ffb8b505d3e829b344d5d774f4b35be1786b193dc1f3aa5dc60001b613191565b848673ffffffffffffffffffffffffffffffffffffffff168873ffffffffffffffffffffffffffffffffffffffff167fddf252ad1be2c89b69c2b068fc378daa952ba7f163c4a11628f55a4df523b3ef60405160405180910390a4614ef7565b614e317f73b61268b417093e2883c14fb7b17335bbe9851d6c6fa358cc928923455e81d960001b613191565b614e5d7f9c1f7bb149327dfb0b28943ea8da967d3ca322fc5ade90010a2132f37abe659660001b613191565b614e897f5213e28f83752d3e75049d33f14cb3dbacd50bc85db04d780cb404bddfea139c60001b613191565b6040517f08c379a00000000000000000000000000000000000000000000000000000000081526004018080602001828103825260198152602001807f496e76656e746f72793a206e6f74206120746f6b656e2069640000000000000081525060200191505060405180910390fd5b5b614f247f09cff7bbfc0f4b96c97e8fe684437293016aab40120a3fce1a10de275f76cf1660001b613191565b614f507f12eb99e55994a474fd30db89b9a7f97e26c4944783af8d25ee6e5f769b07db2e60001b613191565b8573ffffffffffffffffffffffffffffffffffffffff168773ffffffffffffffffffffffffffffffffffffffff168373ffffffffffffffffffffffffffffffffffffffff167fc3d58168c5ae7397731d063d5bbf3d657854427343f4c083240f7aacaa2d0f628888604051808381526020018281526020019250505060405180910390a46150007f5235de08477b538582414a7c4c5d5af4a2a984d3f402a3e92ceb201e874d48da60001b613191565b61502c7f8a84b2a5fde24b3085ba484a9f4d937934d6799ce348ea4363556cc4de24d02160001b613191565b61504b8673ffffffffffffffffffffffffffffffffffffffff1661dc13565b156150e65761507c7f20ae3d91c6d042d6fe2087b576f739fe9d2ca99c2732e802cfcad4451942c46c60001b613191565b6150a87f6b590e81449eb37753b7992c580de1f0bc2f0336dd1d71a484000e564468f2f560001b613191565b6150d47fe8c8d029f0026aa0a4da13caccedef59eb962e04b113d9b0480599b7d04845f660001b613191565b6150e1878787878761dc26565b615113565b6151127f4c1b92ad4aacf191d322d51d7b77b3a0e59b95ec79ca5ccc2260cb21a3a6ebe460001b613191565b5b50505050505050565b61512c615127616329565b61b787565b80600960006101000a81548173ffffffffffffffffffffffffffffffffffffffff021916908373ffffffffffffffffffffffffffffffffffffffff1602179055508073ffffffffffffffffffffffffffffffffffffffff16600960009054906101000a900473ffffffffffffffffffffffffffffffffffffffff1673ffffffffffffffffffffffffffffffffffffffff167f8be0079c531659141344cd1fd0a4f28419497f9722a3daafe3b4186f6b6457e060405160405180910390a350565b6152187fb3297e994dd402a0e8b951b1d5e5d5bce47fee49df4ca5bf1e78aad9c72bed2460001b613191565b6152447fff4fa7186cde860ba9a9b8e6d7b70a284a22a278cf99a64ee03a71ffde5bf71460001b613191565b6152707f45ea38e5df79ead9d1c7ec4a2790b88e9e335fadf3bb0199398c0e2e39c502d460001b613191565b61529c7ff8e74c1bf28f1e7e7c2339ac8ac69f1f68b041d2e658db096a584c9f46355c7d60001b613191565b600073ffffffffffffffffffffffffffffffffffffffff168273ffffffffffffffffffffffffffffffffffffffff16141561533f576040517f08c379a000000000000000000000000000000000000000000000000000000000815260040180806020018281038252601b8152602001807f496e76656e746f72793a207472616e7366657220746f207a65726f000000000081525060200191505060405180910390fd5b61536b7fda80653c6ae143c2010ac0965268decc431a387eebd1779fc2effb8a5e94a99660001b613191565b6153977fc379107bf7387896f69ef84d8a907d78a657bf8a2fca5ad21c317af37a91985160001b613191565b6153c37f10a1c3c3d5f756999ae316dc0d4f1d6cd7cf0ef1c1b10579e211758faeada8e260001b613191565b60006153cd616329565b90506153fb7fb0af81ad9de3d2c13d339bce21406f7e0093f581e6d41af6b902508c329cf7d160001b613191565b6154277f08d777786e26373e55e546f9926beb3636ad62865de10248828426c94050160a60001b613191565b60006154338583616331565b90506154617f18209c05032038771d71f7dec9772a235491011db02ed8503b748ad86543be0860001b613191565b61548d7f45ab346606826ef4a673f5405770450e727772f8b37185c5443c30dbf9d71e7060001b613191565b6000835190506154bf7f977c0f324fbc40289fa0b9c044185a4a7124fe418f74aeb496204c59a1670b5160001b613191565b6154eb7fc4a0629bb6061786e11a7f71e01cc438ded4e55c77849548b5f0275537fc870560001b613191565b60008167ffffffffffffffff8111801561550457600080fd5b506040519080825280602002602001820160405280156155335781602001602082028036833780820191505090505b5090506155627f1741bb226b50106fdea21eaffecb4fb96ea8292806be9bf8b8123e246d991bc260001b613191565b61558e7f30a79a92f98cccfc5ae3db366b61fec39aee7987b56d1f071e2663f5de120b1360001b613191565b60006155bc7f02d9d2c26a1b3c178926343ddd0a7652198295a65efe0031fe42b72fb00843f160001b613191565b6155e87f3d18b407e465cf1246bc8d5815a1ca0b980d8b618b748e75eb42bb102f00dcee60001b613191565b60006156167f150399e8dc288d029b811d7a6aac19d095db08d8d6ed6dbdec8f6610847e0c3660001b613191565b6156427f3206d429beaf932affb315d16b8dfe9d1671d5d2c339eeeee769c9a8bc5e2eb860001b613191565b60005b848114615c3a576156787f308ca8552232a0b2f5a4119084f490441fc59af0d5e72b3e4333af6bf79bdb5760001b613191565b6156a47f459402bcb93f9edee82ab7a42022b747379944f53f3731b330bbedd635cb082060001b613191565b60008882815181106156b257fe5b602002602001015190506156e87f87f579dc64b91e536f439040786645b919abffe4930d0a05864368ecdeb4e78f60001b613191565b6157147fbf6a06c32e03d4de21eb4a5defb16a9f628567142fd37b9deb8cec6fd87dbea760001b613191565b600185838151811061572257fe5b60200260200101818152505061575a7faf246362cb23dee96997409bd6d257554033fa7dfa6989663d37614733f8989660001b613191565b6157867f70eaf922778cc7a13fc28a876bd18aeb2e7878fb7a9443055f48acf137c6b0b060001b613191565b6157968b8b8360018b600161d47c565b6157c27ff2816b00770b5c89b8c305aa22ff34f7bfa3af11c1d37c152e5130147e27259260001b613191565b6157ed7e175e1e10bb8c45a5483a8580ad95c15818b10a07663590ce66051628201d3860001b613191565b808a73ffffffffffffffffffffffffffffffffffffffff168c73ffffffffffffffffffffffffffffffffffffffff167fddf252ad1be2c89b69c2b068fc378daa952ba7f163c4a11628f55a4df523b3ef60405160405180910390a46158747f299038f2f2607106404a36fe2f632a2dc0d414c10d62a2eea8260c287520b50560001b613191565b6158a07f4abf4185abb5f7c8ccf05acefb585ceffe016e2bc426bc41f3ab51597c25d9cc60001b613191565b60006158ab8261b9fc565b90506158d97f1117107189b94922816f2136b5ff4bdc78ed7ebe5daf55833ad9dfac3e0260fb60001b613191565b6159057f1f689efd323dd2d6fbcd13fe17e39aa86575fc21e58e2bf47530cb589ad43c6d60001b613191565b60008514156159f65761593a7f937c2a1c0e60ddd492aa853957d5e3b2999790cbb7876cf50f6d0e7ad8c1917060001b613191565b6159667f03a838b2dfaa5a2c543d70638e75f6e8bc7c5235a54deed71e526a161fea087860001b613191565b6159927f588e9a1c73aa6d1e0d86b53509f2e471f30e01a8526e45b6addf759eb382fbc060001b613191565b8094506159c17f3d357620c3ef151c423cad62de2ee9d20e945dd57c4f8e9efde465392592b42060001b613191565b6159ed7f11a1500e0f2fc779f523e1ae6dad0e5759c74ea475789b3855f6a16c75d9ad0860001b613191565b60019350615c2d565b615a227f224bb03a1092cdddabd4df29404610c33cec8f45d8a26b4d197506d50f85638460001b613191565b615a4e7f577ce5d689f0f8a91d4736c79b13ef6bbd11fe1ca23dcda8807750f4d273d98760001b613191565b615a7a7f33f1c8c129bcef331dd87f45241831a32028f29e1d84d6b3cb8b3fde11a4b70c60001b613191565b848114615bcd57615aad7fc571aef727b62c06cbf6bed5064a05190afe3f6adb1d62bb0d236f97a716e33460001b613191565b615ad97f101abb78a0d184f4fb4003f6189411a64e11174e58969476d25cc740b94a54f160001b613191565b615b057f2ea03bda8721a4dada871e900969db1b66af1995c314472e0182da4ebd203db660001b613191565b615b118c8c878761df08565b615b3d7f939436568fcb3ee395d8258e117b763dd91147394938d2b2707e4b842b12327860001b613191565b615b697f51a63c64ff4cc7b63e15704d9f5484e02e0dbbf5ef9f9bcb0fc74c024e27b24d60001b613191565b809450615b987f24b85e94e85c085ad60b6bb897a3c96cac128d92ef2a8686aee062e1ae4d6ef860001b613191565b615bc47f44db8c6296540c13b385e592c8407d6d2656518477234afa8f2de60a579c809560001b613191565b60019350615c2c565b615bf97fd512d1cb5fe59116ed8fe48497e2308ea767adb99042a16e4ec0137b978829f160001b613191565b615c257f59e8ad790f305b31020d8a56dad7ed240db3d2eeabc072d48bc9d804bdb70bb560001b613191565b8360010193505b5b5050806001019050615645565b50615c677f58316f559dde3ba74b23b3c5fdf803eff3afdf07ce3556cb3f9f2345af03836f60001b613191565b615c937fc11c2b0aa1e27cc376b2e3d016fd77d8e7fb950cbc30c436661783793586f32c60001b613191565b60008214615d9357615cc77f39f0e924a911cd23699ba886246a46fd9b22cd1b669131a2d8ccd95ec5ac8f3a60001b613191565b615cf37f9fd40a6a69684e69dd504dc4990b867d2eb907c94fa1ff8c4564cbaac3975d5460001b613191565b615d1f7fd7870e1b2a2e7ad600c8d51e86c838b5294f1126d7ff4550de034a3d6b7fb9e760001b613191565b615d2b8989848461df08565b615d577ffa700beefd4bd041e4071088453a3d4661b3b0f2704144dad63d4ac983436d3960001b613191565b615d837f894e8df21157943d17005b21c00deee41e1bd4674dc227c2f00e9d294d07df8960001b613191565b615d8e89898661e18f565b615dc0565b615dbf7ffa8c2233048c6dc58d43a4f13e2cf56d2fd418a6a52179700d04539769962d6060001b613191565b5b615dec7fe456ec90887c03d0cfbbd693ab17230fa1d51d56d6b4ca04a7a4c9ac1cab00ac60001b613191565b615e187fd29fa48136c42b4a848f4e4e7c6e042e2e95382bc479bf0bfb8f9bc780e8646360001b613191565b8773ffffffffffffffffffffffffffffffffffffffff168973ffffffffffffffffffffffffffffffffffffffff16615e4e616329565b73ffffffffffffffffffffffffffffffffffffffff167f4a39dc06d4c0dbc64b70af90fd698a233a518aa5d07e595d983b8c0526c8f7fb8a87604051808060200180602001838103835285818151815260200191508051906020019060200280838360005b83811015615ece578082015181840152602081019050615eb3565b50505050905001838103825284818151815260200191508051906020019060200280838360005b83811015615f10578082015181840152602081019050615ef5565b5050505090500194505050505060405180910390a4615f517f578f5dd057a813b6093a1b875de29af3d3560f54e2701d143ca0ff233c1ec5ce60001b613191565b615f7d7fe6fda465593526e0413441df55094f44a68a631cf9a0f746e0428c942e7ead4460001b613191565b615f9c8873ffffffffffffffffffffffffffffffffffffffff1661dc13565b8015615fad5750615fac8861e3f3565b5b1561605557615fde7f7e4d323045bca26a246e37860d9e64d2c083c1662c2a3cd4e75031dd177efb5d60001b613191565b6160097e52682ab630651f5b6c4ce6350c109ca2c19777d4ae9a05a77612a0571dceb960001b613191565b6160347ea439a71e1cf9b41f7fde4227ffcc1243e74419f3ff0b491bea5232bbeac33060001b613191565b616050898989866040518060200160405280600081525061e719565b616082565b6160817fee1bd4f85325a4c4e892cb22696c7d50502a1c9a10327b04135244dc9369be1060001b613191565b5b505050505050505050565b60006160bb7f34132617af8b225325ec7c6c99e2b1f7e44918f71421c8ed2b0daf4f0f34213560001b61ea7d565b6160e77f8edfd9cbebb4b71e5bf47d7f6cba8bc37edad7de6044e60855d350bc64ce4b0760001b61ea7d565b6161137f7bb7f22d99fef8285f8b5e26f441a1c5ef7db323c1b8d505d10886dd4868038060001b61ea7d565b60007f80000000000000000000000000000000000000000000000000000000000000008316141580156161545750600060e063ffffffff8016901b19831614155b9050919050565b60006161897fc6ae3cee09e297e95e35b8e0bdf63a43e8cb21d879c9031a64ca9972db878c3560001b613191565b6161b57fa401d377c58b7f6be5cd60e7a61ee411982dc6692d2ccb600ac4a2884191446a60001b613191565b6161e17f7cf76f79d618278b7ca061e6328e6fb1b01b67872894b93a011b8d371370bf0460001b613191565b7f80ac58cd000000000000000000000000000000000000000000000000000000007bffffffffffffffffffffffffffffffffffffffffffffffffffffffff1916827bffffffffffffffffffffffffffffffffffffffffffffffffffffffff191614806162aa57507f5b5e139f000000000000000000000000000000000000000000000000000000007bffffffffffffffffffffffffffffffffffffffffffffffffffffffff1916827bffffffffffffffffffffffffffffffffffffffffffffffffffffffff1916145b8061631257507ff3993d11000000000000000000000000000000000000000000000000000000007bffffffffffffffffffffffffffffffffffffffffffffffffffffffff1916827bffffffffffffffffffffffffffffffffffffffffffffffffffffffff1916145b8061632257506163218261ea80565b5b9050919050565b600033905090565b600061635f7fbef1f6d4ed47d8fb8fde13273dd3e8ded7170677c02187128f79a95074928c5a60001b61362b565b61638b7f4630da60d0bc146c9f7ef54ba5419e160cd2b424e8ccf6d36f0d9fd7429bd27460001b61362b565b6163b77f4fc2580459b215038ec393a5b3cf27680af65e9e743306d461e626614ba1fc7660001b61362b565b8173ffffffffffffffffffffffffffffffffffffffff168373ffffffffffffffffffffffffffffffffffffffff16148061647657506000808473ffffffffffffffffffffffffffffffffffffffff1673ffffffffffffffffffffffffffffffffffffffff16815260200190815260200160002060008373ffffffffffffffffffffffffffffffffffffffff1673ffffffffffffffffffffffffffffffffffffffff16815260200190815260200160002060009054906101000a900460ff165b905092915050565b600b60008273ffffffffffffffffffffffffffffffffffffffff1673ffffffffffffffffffffffffffffffffffffffff16815260200190815260200160002060009054906101000a900460ff1661653d576040517f08c379a00000000000000000000000000000000000000000000000000000000081526004018080602001828103825260188152602001807f4d696e746572526f6c653a206e6f742061204d696e746572000000000000000081525060200191505060405180910390fd5b50565b61656c7f791f2f1edb369bd7ffa6e591dbfa03883312029521f7ecfa37e2a8334228500860001b613191565b6165987fe0cf0e72fb3d936b200bf052a5f17c49b0ebbe5b74808c04d90bd8d6104f780660001b613191565b6165c47fdb9b838d3ca289ef6107115c0cdd07a8a918e3f023172ef5741f81839600d08360001b613191565b6165f07f09f708c621a6aa81ee641b53ef83ddb14d0ec274cc6e418a1e70090f330b938d60001b613191565b600073ffffffffffffffffffffffffffffffffffffffff168473ffffffffffffffffffffffffffffffffffffffff161415616693576040517f08c379a00000000000000000000000000000000000000000000000000000000081526004018080602001828103825260178152602001807f496e76656e746f72793a206d696e7420746f207a65726f00000000000000000081525060200191505060405180910390fd5b6166bf7f11e4fcd820f99a8e4d67ed459e0645cb90814213ff4fae119473da122fd825ab60001b613191565b6166eb7ff993bfcf8589e5a5a7d42223cf8c2e2644b6cfbec7f30339c2ac64c19b0b697a60001b613191565b6167177f6b6af547eaaafdd014011303cc566c230b8d6ee57880aa206f92983d67a6e31a60001b613191565b6000835190506167497fd6c56faf2bb23ddf7aeb7acb462c37dd477edd2efb3c6e2819d17edf1947222360001b613191565b6167757f2ff94c0a41afbbfa19c982ea36b702c3cf148d90f7094b79ae442ed52bf3d39960001b613191565b6167a17fcec25b3939013c1caa239cc0a6e153fc86b0a4967e87dbc1235b56217baa3c3d60001b613191565b82518114616817576040517f08c379a000000000000000000000000000000000000000000000000000000000815260040180806020018281038252601e8152602001807f496e76656e746f72793a20696e636f6e73697374656e7420617272617973000081525060200191505060405180910390fd5b6168437f9c84bfa70e037d4eb17d7ecb4ecd4f14334359a80551d9669dfc3e5757e6193760001b613191565b61686f7f2541da3ee0480e5042a9681574160b2f218cad45965e625a2352e6df9c1a3dd360001b613191565b61689b7fcb105088f777a76c7a979f14101a97e90f50312e4fbc8e9ea0fcbf7490ecb03460001b613191565b60006168c97f6cc303e8a9aa30e8df8fda49edc27771e15126669baeb0b3c7eb94878f29bd8c60001b613191565b6168f57f6425fd533bd20540fe9ea0508914cf79ea42d7046f4fef13d5f149197de670ca60001b613191565b60006169237f9cb803c4662a5d28126776e57261f7b46b6915ac3caaa61ed91cf4afd7b545f760001b613191565b61694f7fabfc1dfda25b289e08d088aaba60b75116c45af424d15e3e0a1a69b11a35349360001b613191565b600061697d7faf04450a21eb955ee32f19cb3b62b8fa87c919623b4431a9e91f6bf6d96e903860001b613191565b6169a97f3a98609c345161d2f3af93d9db86466d94e95e9a4a2533ab6d12284b8c12f09a60001b613191565b60005b84811461734b576169df7fd74ca9a8bc449eb3a58660a0b8e4b1849b6afccf2a5e34271952d7d868a274e360001b613191565b616a0b7f11db19ed385b184538c8646a2ccb158b818257116e47c6e7221949786953487760001b613191565b6000888281518110616a1957fe5b60200260200101519050616a4f7fe4612b7db4f5687faea3daff9bc9a8837212b7c275fc48f6e000f827b67bf79760001b613191565b616a7b7f6a3640bea872c334bff340e156240e702cb861f1e25e484e4c080f9fbaff600d60001b613191565b6000888381518110616a8957fe5b60200260200101519050616abf7f99ffc819184b8ef4cd45e9eea74925c123d0c947b38ff9ee62ff97fe03c4e23160001b613191565b616aeb7f93ec1d89d7b30b56531107ecd72067e9242f3a55daf97456f8015602a7964e1a60001b613191565b616af48261b949565b15616b8d57616b257f9909752e2c82842472d73c6606372b510fe6099091e3c7692fa22c505a03f0ef60001b613191565b616b517fef24ba7022ecf82a177a6c5c78f5fe22678527423521ba9c9333758e84077a1660001b613191565b616b7d7f337f41ac19c420e6624ef2f7df69b629c3759f89cd245e44fff225cc899eaee160001b613191565b616b888b838361ed0e565b61733e565b616bb97f34334baf9bf77da71bf0570fd05bc8cd0e8f9737f81c2f05d8a35a3f90fdd4b060001b613191565b616be57fce2c6f43248b7a6495c27f6079498c1c07abeeb6968f16c7ee80e0ac35ba6aa060001b613191565b616bee8261608d565b1561724b57616c1f7f3a406aeaeea92db8a12d8bbe2e4d06443dd24bff80866ef1b66c2d2a5bc4076e60001b613191565b616c4b7fa923f06293250bcc1a8a1c1f6aed68fcb4bddcacb0c0a867835e4a581fbb5aab60001b613191565b616c777f4a5a5909122c3e8b7fb4de230e93f6208d3276bd62edd6bb9e7a46b425c3c45360001b613191565b616c848b8383600161f182565b616cb07f8fa98d6d08f43e7c65b03003ba2880e16b92559af984b162cd85e3730b18225a60001b613191565b616cdc7fbfde4cb41dae940c8cb2ebb131379373f50476ebc4848f0f609990613b09ff5a60001b613191565b818b73ffffffffffffffffffffffffffffffffffffffff16600073ffffffffffffffffffffffffffffffffffffffff167fddf252ad1be2c89b69c2b068fc378daa952ba7f163c4a11628f55a4df523b3ef60405160405180910390a4616d647f34dc6a4750bd4382b31e8afde0f5bd737cd31091bf74406875bc8d5ba72e633860001b613191565b616d907f8c8dd0dd5197c9eb0c4eab4952b2807a41a50755dfd8b7b47dd167a1dc1f5af860001b613191565b6000616d9b8361b9fc565b9050616dc97f11e35210a320cbc216c97d9e58f030f58a4fc09702100930702220ddd256f8a360001b613191565b616df57f1737ee9f8de4860cfd13d426c0720a5d92334e287db60047a27b9f16d5a64dd260001b613191565b6000871415616ee657616e2a7f98300e2d15f87c588e8b255086d89c1b1946628b37f23d328554b972c6aeebc160001b613191565b616e567f39bc4b0f8dc6c54699ad75b4b287cc83649ab911b63174271d75916c61cb470b60001b613191565b616e827f091b38e6ca18d1da354026cb07a5d01a9ed1b2c9fc1fc8ddd1f37159267ef56f60001b613191565b809650616eb17fa0e23a8753a7dc620e27dd2048744c652384b018746f74cd63e3b96953e74b5460001b613191565b616edd7ffd45f1221d5f45d264708e3bcc247db057dd600a6b233e437a4563e9214e25f660001b613191565b60019550617245565b616f127f59d81e7c98b4f4b5c71f671af3c763cfd9694be184095d496cb0a106522dc44160001b613191565b616f3e7fb440d65b97d05862990b4fcad0457ff12f9c017897434c5e70469a03e8ade3f060001b613191565b616f6a7fbd90f063ccb0243e573327158fe2ef17706136cff3694ba97c0d19291fe9a69b60001b613191565b8681146171e557616f9d7f79b0c4e96c70c691376e0926dfaa763b3e4bfd250edce9111653e6da77e8393860001b613191565b616fc97fb43cc5fd2231357ebe57b7dc48f2a0af5d0415ac87dad3838eab76d11c84843c60001b613191565b616ff57f176aa61e380e208fa45495096429944a22e303bde3e3e0dca86b64f73696a0c060001b613191565b856001600089815260200190815260200160002060008e73ffffffffffffffffffffffffffffffffffffffff1673ffffffffffffffffffffffffffffffffffffffff1681526020019081526020016000206000828254019250508190555061707f7fbafab69da910dde1381e8a167e66f29ef17de1f91384112b153b58962a3be1d860001b613191565b6170ab7ff1059890f1cec8318542ef25d4cd998aab0ecce57d0b4e39d0b89b91d0754fa760001b613191565b8560026000898152602001908152602001600020600082825401925050819055506170f87f7d5244c68c2838083ab0c22f6cec682a7b50c05c7ea0ce605af773dc900c672e60001b613191565b6171247f5315f77b478439121856adcf3fce57160fa7a46aaf472f9420a81dba74b14dd760001b613191565b8096506171537f38ac525bc6a9a11949df115188e08783c1c30f85ab4938ad230e8fa8e3eb6ca860001b613191565b61717f7f2bdb441e8e8f74b973ce5ab79354cfe4e5f06608c032e6fc0b3f5f412876707f60001b613191565b85850194506171b07f368f0bff14f6b192f0dfcb64d8ffc4af61a03a93f5889c17bce3eec5b21cfe5860001b613191565b6171dc7f249140c8863b8415bda518a42fc773f154e480789c8772b99fe6b67ebf7d914260001b613191565b60019550617244565b6172117feef8b8dde2419af3f5e8b75ad0b000373bb923ddbaa297099066d5e0ead2233460001b613191565b61723d7f0e6ff2231a6f714742937e81329e01d6894adf470e945551fc1c44893701dd0e60001b613191565b8560010195505b5b5061733d565b6172777fc9d89c8a53887d963a4e8d56dca397d7b08aaa27e6305e93f92f0f375579910e60001b613191565b6172a37f2a2b597eb732545855ef8069acc4d1c971cda65961d51c2f2f81b6aa1781e3d060001b613191565b6172cf7f587e8808b16170cea2d583fc5220b7e5895bc65fc239d2ec97ce208821ff7b7360001b613191565b6040517f08c379a00000000000000000000000000000000000000000000000000000000081526004018080602001828103825260198152602001807f496e76656e746f72793a206e6f74206120746f6b656e2069640000000000000081525060200191505060405180910390fd5b5b50508060010190506169ac565b506173787fc40308395be2db8b021b615e51f195d021331c33a87bbe0b25ca7207c9aa393960001b613191565b6173a47f8317b9e874539714830b14249ee14325373e88909e07aae04b708faf699e307560001b613191565b6000831461760e576173d87f4f04e61bfa6cbe869b1159245122180bdba3d089b79e92748d60da4488039fb660001b613191565b6174047faee83fdef0abb49d6d402464ca131102509e809452963db1d76e57c139cedcb260001b613191565b6174307f499830118b250d939dc8af8a1bdee67f915373661beb5694da0866cdf7283daa60001b613191565b816001600085815260200190815260200160002060008a73ffffffffffffffffffffffffffffffffffffffff1673ffffffffffffffffffffffffffffffffffffffff168152602001908152602001600020600082825401925050819055506174ba7f4ea30dd7d035407ebc755b636e8badf38077ebe2b5dbf3dbb5b0ec7bdb98013d60001b613191565b6174e67fa58b5974426e5c6b21a327de332840b59c0ecb6643a46f0dcf733251ca75580460001b613191565b8160026000858152602001908152602001600020600082825401925050819055506175337fbf441de2b0b67b26ddefc2512cc02d7937c6361a17a90aebfea5a8695c4ca1cb60001b613191565b61755f7f439ef8802971a846739d3b5356df6251e3bdec55c427c5aa66cebf0867488fef60001b613191565b81810190506175907f08032c17ad32ea2bea3cda1a0b524efd5c3fd45d4e51f672594514c7678f5af260001b613191565b6175bc7f0135d69f995be97e886e830062534f065a019531e6cb830e445688a4f010f17d60001b613191565b80600760008a73ffffffffffffffffffffffffffffffffffffffff1673ffffffffffffffffffffffffffffffffffffffff1681526020019081526020016000206000828254019250508190555061763b565b61763a7f8d761264a6904c4ef7f0eb7b661805199beda29e1bd2cfc343f9cce573c2429660001b613191565b5b6176677f77767c60fc8c88b5f265947283f9b5f14522bc5f80e99c57732ded478d9b7f2e60001b613191565b6176937fdd7bef30416ccfcc2c7efde8495c3059c716de24583936ee2da50c7e3876d48c60001b613191565b8773ffffffffffffffffffffffffffffffffffffffff16600073ffffffffffffffffffffffffffffffffffffffff166176ca616329565b73ffffffffffffffffffffffffffffffffffffffff167f4a39dc06d4c0dbc64b70af90fd698a233a518aa5d07e595d983b8c0526c8f7fb8a8a604051808060200180602001838103835285818151815260200191508051906020019060200280838360005b8381101561774a57808201518184015260208101905061772f565b50505050905001838103825284818151815260200191508051906020019060200280838360005b8381101561778c578082015181840152602081019050617771565b5050505090500194505050505060405180910390a46177cd7f4065eec53d306380c985a2e5638121cb0c8513390b59cb82fc15dfb3c28062f460001b613191565b6177f97f79d91eb8079d1b9ab7ddf0dcc066da126267057a1c85b6a3ae16d497b38f592960001b613191565b6178188873ffffffffffffffffffffffffffffffffffffffff1661dc13565b156178b4576178497f2f66ffceeda164f9fb089037e8ea241478cd5256993f0517acd193bee85f9dd560001b613191565b6178757fe02d357e8e481ffb230164887bd29dd166e1d6618fa514fa0ffe9a79083c445660001b613191565b6178a17f6dd8fc7437bfb92337c0891e30472bfa6670cd8a30b16c16b86d794c3616497e60001b613191565b6178af60008989898961e719565b6178e1565b6178e07f5d59e329ee03ac4775b1e332b1098974fb3063a2a612b94179aca2fc264b13b660001b613191565b5b5050505050505050565b60606179197f1c9aa8b0a38f069e1470ab73c22da607a105214ef5de328816e9d32a1e8b441b60001b612d70565b6179457f5170b3391e3dcb54efdddd1865c65f8bcdfb112f0c2230607b93231388faea7b60001b612d70565b6179717f378669c14060759ae4c60ec9f0fc205bcc45a295b03ae0f63f92feae3939ea1460001b612d70565b600a61797c8361f70a565b60405160200180838054600181600116156101000203166002900480156179da5780601f106179b85761010080835404028352918201916179da565b820191906000526020600020905b8154815290600101906020018083116179c6575b505082805190602001908083835b60208310617a0b57805182526020820191506020810190506020830392506179e8565b6001836020036101000a038019825116818451168082178552505050505050905001925050506040516020818303038152906040529050919050565b617a737fed526734b98c0124e67d91ea48281c94029b8be82b769eec8a4e3e349618fd8160001b613191565b617a9f7fb4d4cc97635bd0ed0bf9f79dfce3661b3711ce6de3b15c9ae9e40b8952d94b2a60001b613191565b617acb7f52dcbe78b9c5a19e77498a7df7ae325edcf6fc6c99d379c23f81741ddfc4c20460001b613191565b617af77fd8a1493203fe21167aca847b89396e77b9ba08824577999e476f311d7b33af5c60001b613191565b600073ffffffffffffffffffffffffffffffffffffffff168473ffffffffffffffffffffffffffffffffffffffff161415617b9a576040517f08c379a000000000000000000000000000000000000000000000000000000000815260040180806020018281038252601b8152602001807f496e76656e746f72793a207472616e7366657220746f207a65726f000000000081525060200191505060405180910390fd5b617bc67fb088c0df8e10d201c23018cc56ac1f6dd01b3d7754c3ed9fa2225c53356e1e9a60001b613191565b617bf27f1f419db07758b07e48d10f42e4978298b2e65c61e353802b41d742293c32f8b860001b613191565b617c1e7fccfd41a7b9edae4e2dee848b25467d671241e17a76f32fec556c42a71781b4bb60001b613191565b6000617c28616329565b9050617c567fb0d68a1ca6f03abce740b86dfc986d15fecfc1ace27d2b1c0b40c8299695911560001b613191565b617c827fce1b3da5fed537599fef45cae37e8d438b7d5152023c1b604735875101fb7fc960001b613191565b6000617c8e8783616331565b9050617cbc7f5cb508141cab897ba071966dea3c244520db79e3a07fc8c1393b9f5b40f5e8a060001b613191565b617ce87f884c4fb666b83bed0949da9c41eb3dff9445d46cb9ecbcc024d6f1cde385c73360001b613191565b617cf8878787600185600061d47c565b617d247fb7ae3cfc21686014d6458b16a87e0a47e6b7eff2b697a2b6ab0ff7f4b271f20060001b613191565b617d507f1d7299a65301eafaa10822019efbbf1463440cc6bf6da3e64b1b559e179622f060001b613191565b848673ffffffffffffffffffffffffffffffffffffffff168873ffffffffffffffffffffffffffffffffffffffff167fddf252ad1be2c89b69c2b068fc378daa952ba7f163c4a11628f55a4df523b3ef60405160405180910390a4617dd77f15eac74e1b243379c9c99cc2e58da0d96029effcfee2a9ef5b6aee09f5f7119860001b613191565b617e037f01a4f17c9908914c0139da51873401cfc798aea0b42a2717e501070a4a2cb3a860001b613191565b8573ffffffffffffffffffffffffffffffffffffffff168773ffffffffffffffffffffffffffffffffffffffff168373ffffffffffffffffffffffffffffffffffffffff167fc3d58168c5ae7397731d063d5bbf3d657854427343f4c083240f7aacaa2d0f62886001604051808381526020018281526020019250505060405180910390a4617eb47fe466194d1d6f086e6f1ce2770132b9aa804a132a0203f9585b96b9079c04ffcf60001b613191565b617ee07f8b1654335c36ca3890a8fa4a9634bf33d7edbdc16e62fa30fb3dff08f13cb5d260001b613191565b617eff8673ffffffffffffffffffffffffffffffffffffffff1661dc13565b1561815357617f307fdafb3ed72165a50f0cf2c8814193173c814aeb1991d96695d2ad2edeba8b024560001b613191565b617f5c7f6c62ba5af51a35a3d2a0774af435d5939e0f84217081e63608d9631fd8fb09a760001b613191565b617f887f8329d9b3b940ffb4f330adaadaeb55da1c4c36e4672016a2f314d89d0ae4282b60001b613191565b617f918661e3f3565b1561802d57617fc27ff0e65a718b0fe370c0c27dc2db405e6fe5ff5d7b55d2ab8792f194fe380958f760001b613191565b617fee7f68da4a0fffada0a60297ae1440afecd75adc2751e0b950725423806d3b0b3b0560001b613191565b61801a7f2b3c355a454943964806874589688b18b089ff996cd444efd34f7b530ab146eb60001b613191565b61802887878760018861dc26565b61814e565b6180597f65470660f49b70538a982404c052fe62c556924fc80014df64cd1577b4e3216f60001b613191565b6180857fdad5b87ccc5710602893979599ab5f60d4f4e840506c9b4f2854395b47deb8a560001b613191565b8215618120576180b77fd47041472969b95f27989e18710c63b25e445bc7a6fcd5a83efa7ec9b436b64060001b613191565b6180e37fac509e52e4f146c1422e16d12b262ca61922c2eb84a574cbbe66be15355438ac60001b613191565b61810f7f7a63ff0a9ac79579cae78a4b369f29a8bf27c8f4c257f63eeb8e857945964a3960001b613191565b61811b8787878761f851565b61814d565b61814c7ffd8cc713eef7219638b14aaca11834ca9ac0e273bdb72877aa856d9f451aa93660001b613191565b5b5b618180565b61817f7f4053f6c60779358a2ea4c2c091dd152fb2c0515036ef80abca5516682ea627d460001b613191565b5b50505050505050565b6181b57f079d2c3de0e5d742a6027bba3e52ef48e4a12148f1f1b316bf01ded5aae84f9360001b613191565b6181e17f3a4088155a9ca7de66c248b0a67347227000fe7eb2892f60ade2d074d8c40de360001b613191565b61820d7fafde1d081156b5a8ae1f9e5e1cc533109f35eef6718ee338f2331a9a7e8a2e1760001b613191565b6182397f14eed034ae2105201afb62f3fe417360763e51c56f68a9e4f84c1edb52a7134f60001b613191565b600073ffffffffffffffffffffffffffffffffffffffff168473ffffffffffffffffffffffffffffffffffffffff1614156182dc576040517f08c379a000000000000000000000000000000000000000000000000000000000815260040180806020018281038252601b8152602001807f496e76656e746f72793a207472616e7366657220746f207a65726f000000000081525060200191505060405180910390fd5b6183087f7c67a7f62214f9381e1425c49047885ce6b7eae6ce12fd5a2d8588f8a40fb9f160001b613191565b6183347ffd184edf4a9633fcd8e0411fbc08a3201e86b9698ff0563563bb66c04ed7f42160001b613191565b6183607f7e24aedca854e621d8edd65a90661d52e165a4f99dfc2f53d3d99ad7864f9be260001b613191565b6000835190506183927f7d2b32f2fd7c9048bbe1374bfdd3fc4cec4c1828c50015b91721d2b5d044cffa60001b613191565b6183be7f3f54973c73600b10cad42b3a1634d384cefa97e5fc08b4162d2e61d85abee30660001b613191565b6183ea7faa8bb3f6c581bbc4ae263060cd97e1d6496a24fc382a67ea4e91e035967b5fc960001b613191565b82518114618460576040517f08c379a000000000000000000000000000000000000000000000000000000000815260040180806020018281038252601e8152602001807f496e76656e746f72793a20696e636f6e73697374656e7420617272617973000081525060200191505060405180910390fd5b61848c7fa5121350e038f501341a582b68b76416083164106e4b96844c1d6e9488a9e21860001b613191565b6184b87f84722a4acdff07ac33fb6abf5cfb3faf6d34310929f46f21dac75bf1242b879960001b613191565b6184e47f0121b8af5d7f2bac681106e62a194ef278aaf54d1e6fbbb37e9b0e9f7f9194e060001b613191565b60006184ee616329565b905061851c7f03fc2bd9482cfc3e9e50b6938e30a72af22ea07ae6f796bf3effb4b17c12fd7960001b613191565b6185487f73722ca1735e1b230203a9e18243f62bea407fd6e467184410da9cac3648936760001b613191565b60006185548883616331565b90506185827fa49b0e9c101c092e9d86abdb74aed709f0e1932765bab9639b6f709b15c2712960001b613191565b6185ae7f6b43c3fe58566d774081c7388fa8ca363da200a66281b90a3a07851272aa14b260001b613191565b60006185dc7f245140941faf5cffe36d62267b58babc8539433cee4fceb41a8c5e2feb035bc660001b613191565b6186087f41cd8c6be45e39f2788d081010a7755c12b2884b9d2695e819d32e2b341e231d60001b613191565b60006186367fe885628feaa0d3b629a02b4553c354ac5b19a29c68c2624e6024e29117b84d6360001b613191565b6186627f75ebecaa57626cdea5ba42f8fc81b6037af88a7d38bf15393c662e65d0b14a3060001b613191565b60006186907fb220fc48b668809f4ef2748d50322af7db42e50bfe010e4bf1b608f5fdfd09cb60001b613191565b6186bc7f339fe2edcd1795dfb513a53efa1a09b2b8d9ebdfca3dc0e7b628ea040a1f955360001b613191565b60005b868114618f4b576186f27fc3063ee4d0e33316f1fb0cfe576c1c359b6c8eba608941d199c606f15e6a985960001b613191565b61871e7fde3000e56738b33305b56a46c087e596ea858b601af3fce5b33c1cc777a6096460001b613191565b60008a828151811061872c57fe5b602002602001015190506187627f6bb030e1d2e8db111a75aaccfc94ddb9ff2704810684ddb73b7576eee29b226460001b613191565b61878e7f6f66e045ec2134157c68f9135a36456d5895ab63547792baa645bfda24d7a72a60001b613191565b6187978161b949565b15618845576187c87f47ed0402cd697efb6e249ea0e9cf70121b4413975e936ab87060951da1ddc19260001b613191565b6187f47f1a56852faac22cc0c7e888396aa9a00b40854b2dfded75e6e15885d89a8fca6c60001b613191565b6188207f6db6c708d7feaa5d23174f6c02ae5468090d03fb8e585335f5a088b6a6ffc68760001b613191565b6188408d8d838d868151811061883257fe5b60200260200101518a61cddd565b618f3f565b6188717f29c58a6b0623f73482cf428a60f84d9dcff4c87e372d5e12012517e38568946360001b613191565b61889d7fdb2ff591ed0f1ca7222f4eaba4aba0aac3710036439b898c338b2b8bb3ae16d560001b613191565b6188a68161608d565b15618e4c576188d77f2743146885767da2e8bfcc9eea4514295adff24c3e7306ee25d22eeb55f6a59560001b613191565b6189037f0360671ed75890e91f5e51a301acb3fd4d94fae9d74508d4ffd7461260fe789d60001b613191565b61892f7ffe921a82c2387e13184ad035741dd64de7652b19f4e346736d633bf349b906e760001b613191565b6189518d8d838d868151811061894157fe5b60200260200101518a600161d47c565b61897d7f677e950b3872f186c3324160a8a6c4c25a632860749ddcd8661ef813118158e960001b613191565b6189a97f7ab70b17a77aca4ccd8cda74a4569bba19f731422a31232fb807a3011766976060001b613191565b808c73ffffffffffffffffffffffffffffffffffffffff168e73ffffffffffffffffffffffffffffffffffffffff167fddf252ad1be2c89b69c2b068fc378daa952ba7f163c4a11628f55a4df523b3ef60405160405180910390a4618a307f737c4b9eeb98cafa2bb55d8a3736b7567a2ecdfb92ea1516a886a7d948ea700560001b613191565b618a5c7f686318aa84075c253a338b68efc99f1c3b605ffc0790ec097f210fb7f45b718e60001b613191565b6000618a678261b9fc565b9050618a957fac7c9f3d9cee423db45b102f92c47471f2a900bd4252256473e6f308eebd6e7160001b613191565b618ac17f1e1eea6eed58d990624f80d88d1ea0a28f996769643c2aad5e50aaf1d7c5d62160001b613191565b6000861415618bb257618af67f2d893847139976e8bb704087e7ed15dd349efcf74276a51b2c948196f013a8c660001b613191565b618b227f96beaf9bbea58f95249388bf304cd604234f6e674aabab7ab2ff068c6247ad0f60001b613191565b618b4e7f08261626eca574096e3d4efcec4aa29df22b92e33ae36f5971f36ead4a5dfc3960001b613191565b809550618b7d7f8eb79ddfb9f0d3b74ca611289bc7ccdc9bdc11c656c69713d089d580388a61da60001b613191565b618ba97f2747057c725fe33e904f231050a448ba8eb3f49e182791ebf3515569e4bcc75d60001b613191565b60019450618e46565b618bde7f0dc2cbedb256dafec5bd94c09ec0437fa8098b1a6fceeae2c0464b5aaf5bc30c60001b613191565b618c0a7fbc02d2bd2d53522e79725b96c8468baf452972cf1a83684682d52b83554b421660001b613191565b618c367f2617d34d0cfee332473fd2fd1b707d28fdb18d0aabeb973aca5f7f046e5fdf1960001b613191565b858114618de657618c697fa1166d6257b64f4514ed1701e8233944a015db58adcf9a7b181e607ead1fea8a60001b613191565b618c957fb94c2be3fe80a26998603517b38b20d21807ca51e740fb9f486591ecadb82c2260001b613191565b618cc17f5a41b2bf6d0f9346b0494fffb029f1b40197f4dcc2a25c87a10f4c9e50d23e0060001b613191565b618ccd8e8e888861df08565b618cf97f7c256b53fd6225b53741641ff76a58937158d46faecb7a7fff83e756ee514b3a60001b613191565b618d257f23c7dc0daf9d7875301693b28e59003478513ddef98104b700a364e58c97044a60001b613191565b809550618d547fdb1e6a4ab3763f3788e8f1c8bf3568a9fd4fa3a565c2e951fce0f5e18771b2f360001b613191565b618d807f981c14570af506fe73a82ed7974868764cd6c69fd9943c8228c269a87883a35060001b613191565b8484019350618db17f7a3a7934cde5b4967086d2d41f0ada740446e63f3c2ceb2a64c50f2ff2f87bd060001b613191565b618ddd7f64d4935684a0065c8415e4e0b6bd07689ce81b192465e2c93085f1d0947035d160001b613191565b60019450618e45565b618e127fe46320c098bc0f79ce2603b1771ac872e7fd9538ea35e85a1bc33da9ec5fa74260001b613191565b618e3e7fdcd05ce1ba4c0c04b90ba135cc94700a6e9ac2c80129422dd712b450dc1fba1260001b613191565b8460010194505b5b50618f3e565b618e787fa62b7a81bae6d8ea6373455e934dd82b07394d4ffac386c0b96b5429584c5e7560001b613191565b618ea47f4d120556cf71734e2047190404ac40ff79490ec17d286e53b74992a03d68712260001b613191565b618ed07f1f25a8f58eef4a8a51ee401e546d7bdcfe38306f2ba41814885a30f0411dd39b60001b613191565b6040517f08c379a00000000000000000000000000000000000000000000000000000000081526004018080602001828103825260198152602001807f496e76656e746f72793a206e6f74206120746f6b656e2069640000000000000081525060200191505060405180910390fd5b5b508060010190506186bf565b50618f787fcd4e5076315a4dfc1ea0a90d9687730593223da3e20587ec52e1d53b89b64ce760001b613191565b618fa47f6c4cb40595b0ce2e953e333689b117b2672e5fdcbadd2448066b142eda5208a860001b613191565b6000831461910157618fd87f5030afaadfee22d56a99b438662686b116e6c2633178fbe79d680f3637c39b2d60001b613191565b6190047f89c194c32c8ca04e411a74cd61cdc5094d4b96a41306835034dfe3d97123a77b60001b613191565b6190307f3c1726ebfcec024f7752ebf6dab295c5b7f6e02712a402f92251a941dc1cde9360001b613191565b61903c8b8b858561df08565b6190687f31562fad44a38d5ae5ffab64d6e08193563f6a7f01bcbf59e1d613fad4e602f560001b613191565b6190947ffe1dea71d9cdcda8e9650dfff986b5a2bda52c9292f91f45f871a4ac59ef950060001b613191565b81810190506190c57fd799c9cadfd96a0bd77608e1b558db2236ded72833d7fac1bb711796fab9db0d60001b613191565b6190f17f3a0314d3503ab62c3cb846cf44721335c77c65676b122285bedb990d603dad9260001b613191565b6190fc8b8b8361e18f565b61912e565b61912d7f77295087e0f9603d883c8ae5e836cb02a9272e64479219992fe0a53c4becf05460001b613191565b5b61915a7fb19689c8cc644a908fb4097f337a7e164b8aeb7a65a6c09bb20a73fb310ba98460001b613191565b6191867fc6512f6409b3656b1bd9fb2c01cbfab1c316139dd202433ca0e6f971c1c7dccf60001b613191565b8973ffffffffffffffffffffffffffffffffffffffff168b73ffffffffffffffffffffffffffffffffffffffff166191bc616329565b73ffffffffffffffffffffffffffffffffffffffff167f4a39dc06d4c0dbc64b70af90fd698a233a518aa5d07e595d983b8c0526c8f7fb8c8c604051808060200180602001838103835285818151815260200191508051906020019060200280838360005b8381101561923c578082015181840152602081019050619221565b50505050905001838103825284818151815260200191508051906020019060200280838360005b8381101561927e578082015181840152602081019050619263565b5050505090500194505050505060405180910390a46192bf7f609875c8689139bf6bc8a06f14712692a722f18feb0c7232ae23399cfa06ec7460001b613191565b6192eb7ffad39a48d035d1f498a7954fa00bc3748f75ee8421d4ba7302b90d62c189382360001b613191565b61930a8a73ffffffffffffffffffffffffffffffffffffffff1661dc13565b156193a55761933b7f6285266b434e0cbee6ab7a8c83949bd6aa6aeefae761f622115beebd6b43315560001b613191565b6193677fd7a10f41f119ad227413f88309349938b33be28f226f26d78c3af571044da97260001b613191565b6193937f79f26c92de0b41f196f543a51a00a027de699067d8b037aaac4351d45e7867df60001b613191565b6193a08b8b8b8b8b61e719565b6193d2565b6193d17f23333bfe390921046380e3df6936e99f67a2dbc0104b0582dd1ce2478c7eceeb60001b613191565b5b5050505050505050505050565b61940b7fbc462f8f895e55f05ba9185de1814f426c33ea8e72e6ddd02034a867996538ce60001b613191565b6194377f80f6df96f790073801a274072462a9f1b529826ed6a6ce207149c61d4340688660001b613191565b6194637f3644c93e0e09d57ef56964b81929973c0196b3d1ab08a23e4b2f2d32b3fa51f260001b613191565b61948f7f81f67d6c57b7aa84980326e324c49961941b35e620f0e1b0aef1122344fd9a3860001b613191565b600073ffffffffffffffffffffffffffffffffffffffff168473ffffffffffffffffffffffffffffffffffffffff161415619532576040517f08c379a00000000000000000000000000000000000000000000000000000000081526004018080602001828103825260178152602001807f496e76656e746f72793a206d696e7420746f207a65726f00000000000000000081525060200191505060405180910390fd5b61955e7fb47921152a9e7d33feeadf262b6f3c03f83bdbf69a8271b771f2c2592da29f3160001b613191565b61958a7f9a04a49a16f91da247611bd12200023af3cd7e7bf2193881249df49230e424ae60001b613191565b6195b67fffe99ac69268215bd554fffe83898b85744b0a8aaa711cdd254801a7b0b25f6760001b613191565b6195e27f6364ac1122bebd38a80caa4c2cab9aed4a5914e6673996f9b3c04aea5c22855260001b613191565b6195eb8361608d565b61965d576040517f08c379a00000000000000000000000000000000000000000000000000000000081526004018080602001828103825260158152602001807f496e76656e746f72793a206e6f7420616e204e4654000000000000000000000081525060200191505060405180910390fd5b6196897f1368169d0475371e66c0ab4afc6f88bd71e735d7437cd8fe012958b868943d6860001b613191565b6196b57f97a03b13035bf723936d8cf57b4859ad4297d2047ccf9f7ed62060056ea0bb2960001b613191565b6196e17fed9875d8f621d3f944783edca39f88892d91e4cd624ffc11975d48473e76410c60001b613191565b6196ef84846001600061f182565b61971b7f6fe7b6028d59cea834a8e3e5bbe6782c9d9808071c7035853f188b6bd2da245c60001b613191565b6197477f29998ec625a49a5807012ee18d1fd7647f87350c62ca9f97871239a8637a684a60001b613191565b828473ffffffffffffffffffffffffffffffffffffffff16600073ffffffffffffffffffffffffffffffffffffffff167fddf252ad1be2c89b69c2b068fc378daa952ba7f163c4a11628f55a4df523b3ef60405160405180910390a46197cf7f376d0baaa024916c32654dce2fa567c221d13c4ddace677b3cf0fb8f1ae9255160001b613191565b6197fb7fa56c4add5069ccf30732a61fee9aba83b8a21d645bf515852d045fac6d59f5d060001b613191565b8373ffffffffffffffffffffffffffffffffffffffff16600073ffffffffffffffffffffffffffffffffffffffff16619832616329565b73ffffffffffffffffffffffffffffffffffffffff167fc3d58168c5ae7397731d063d5bbf3d657854427343f4c083240f7aacaa2d0f62866001604051808381526020018281526020019250505060405180910390a46198b47f328e2e1d057220daac525972c529547a5169c60eda8a70976b92aa5b88f75d6c60001b613191565b6198e07fe5f285a92d6798c8940d2e39eb0b0aac0d67b798a0fd47d926888273a37eba7160001b613191565b6198ff8473ffffffffffffffffffffffffffffffffffffffff1661dc13565b15619b55576199307f9de7ccdd265f1b26b7d12d7b9c6c95bd09c74d72aa29b7c3120652eba5ac9c0160001b613191565b61995c7fd8ac21682080bfefd45491367df2071e76c379c714e618de74f36008924a626060001b613191565b6199887fb272e694a5e28ba0641f136d99e61684e768b816029697d20c746a5f0bd8626360001b613191565b6199918461e3f3565b15619a2e576199c27fad811c6f11b9f175957839bd6ce052b6be09d03fafb4258e6c45a95704d21dde60001b613191565b6199ee7fc18501faede332a8cc2bf8cc0131539c0225d3c98b60ad1b8a9e0ca75c123c8860001b613191565b619a1a7f5771da7a12c050eafe8c01437c7f8fba5af6f029a31d84928975a167fe99a11060001b613191565b619a296000858560018661dc26565b619b50565b619a5a7f375c6bdf4267362e24044ea7e84e1774cccd865192168009fc5a2fdfdb8b03b360001b613191565b619a867f0de716bc2ca65beb359714e07c3ab46f7755f51a70c81695a71c495fc9e53ccc60001b613191565b8015619b2257619ab87fda518e491b73e88ef0db08278d213b05e11527b24294e96a4df7cd7d11f18f6760001b613191565b619ae47fb9cfcc68c68e279847331a05e18f36c14b4ca24a3b3b59d7475976b783eee3ec60001b613191565b619b107f8442f6dc7cd0952b1166839110a3694645d740d5aefe0a857e6b1d87228bc03f60001b613191565b619b1d600085858561f851565b619b4f565b619b4e7f1571eb6718dd06d84fe9afafc16536d3430532acf068e13be0324456777cc59860001b613191565b5b5b619b82565b619b817f1dd28661cddae09d259524234d3d2f065aae0909994d4694aad933aa5e8c6cce60001b613191565b5b50505050565b619bb47fee8bb6233351855c4e02fdaaa56161c4ff7636c77caeb378eae1c7fe370f675560001b613191565b619be07f35738fd88ce2c6dae260353d59c325e13b4d311f4b40ccc3b289918b6a05562960001b613191565b619c0c7f4f15a01cb1d84d239e0f5200331f78a7d6c17bb64d1b5d307908f14747ed90e860001b613191565b619c387fba2a1781bc41d2b99222098c290642ef432955b6c4dbbec596b795d4c777695460001b613191565b600073ffffffffffffffffffffffffffffffffffffffff168273ffffffffffffffffffffffffffffffffffffffff161415619cdb576040517f08c379a00000000000000000000000000000000000000000000000000000000081526004018080602001828103825260178152602001807f496e76656e746f72793a206d696e7420746f207a65726f00000000000000000081525060200191505060405180910390fd5b619d077f3fa8d56b9e072dc7a392fe3bac7a4381e1f64e617d87e7943cc9654ee25cf04460001b613191565b619d337f2c44935ade880c5ef7a68b14fb8f407d40b55be72c6619f0a79952c87d57382160001b613191565b619d5f7fb7655e03c28ebb942504da3d832c812e77f12ac8eb87718ed6de72bf62ef7bb860001b613191565b600081519050619d917fcfe768c3ff736c08e01a8c31f7841d98888c730ad6b7df8814361a38d0e0fada60001b613191565b619dbd7f286f43694e67e9d5bdcb944be51c269e04ecd3fb0c2a2498e335412e426f94c160001b613191565b60008167ffffffffffffffff81118015619dd657600080fd5b50604051908082528060200260200182016040528015619e055781602001602082028036833780820191505090505b509050619e347f5837d74bd0b1d2f4ebd543c34a42803c196d6d0701cdf761f9cc1fc16b63293e60001b613191565b619e607fc4b002aa64bcea689d4977fa0fb61d30886349ba794588158e2c1bd5aca7c24560001b613191565b6000619e8e7fc8dcfdaa8b50cb3ed3742dc2922bcb966d47a3fa905a9cc1c8be832a24f0fca560001b613191565b619eba7f3bba131ab6923c06fd1eeec679d32d4b8cd6c6a66662ed4b9f692de0f6e018b560001b613191565b6000619ee87fb83fd54770400f84431cdf41df09672ecc7f6a2d7493f15b7ce75487214cf9be60001b613191565b619f147fd77e60148a435235445e58402aa114acd29ad8ac4cc7c8dd4803d29767b8b35260001b613191565b60005b84811461a70157619f4a7fd52997b02c0d01abad183d1702da4f47b42a05c959259d4368530faea643357b60001b613191565b619f767fe0a2889a23ddd24aadbf61daa2bdcba6fa9269b3fad1faae0b2f603087dc201960001b613191565b6000868281518110619f8457fe5b60200260200101519050619fba7f594f82d7e2197b02be38d68247b304d3038b13371ed03d4d4ff20846b893472c60001b613191565b619fe67f7961dc32244c42d31d77004e3dc17b7f7bf0053b71865f7a5f831b52c0a7acf960001b613191565b61a0127f40117467af78f47d0de971b45e46662a9870611a835996a3324d93d3c959658b60001b613191565b61a01b8161608d565b61a08d576040517f08c379a00000000000000000000000000000000000000000000000000000000081526004018080602001828103825260158152602001807f496e76656e746f72793a206e6f7420616e204e4654000000000000000000000081525060200191505060405180910390fd5b61a0b97fe1320fb885485a9e6b62750d465978927a27b0749e559a80aea9550eca02e4ea60001b613191565b61a0e57f92762d23c1665b8c4f3d14fab7b7e9e0bc344c322962cdb991fda67a4ecb0f9360001b613191565b61a1117fb34d913cc0863d2a86f4824541097daa66655dac95c9ede529c196f305ff7ab860001b613191565b600185838151811061a11f57fe5b60200260200101818152505061a1577fe94947e7ff74855be666d1420826ae2e299030b8d23c8e6344569a88ece4d18860001b613191565b61a1837f3bf7debe5babfde92758757570e3793c55e2b84f5e0bde20eb3eb181d5cc3c3860001b613191565b61a190888260018061f182565b61a1bc7fa7b198c1edcbe7b13df27baacebe51476d99a99d07037e600888547078ceeba360001b613191565b61a1e87fa7e55947795311aaffb638d1d06064a6b2953b2daab01f75a3c1feaca8e82a1f60001b613191565b808873ffffffffffffffffffffffffffffffffffffffff16600073ffffffffffffffffffffffffffffffffffffffff167fddf252ad1be2c89b69c2b068fc378daa952ba7f163c4a11628f55a4df523b3ef60405160405180910390a461a2707f3e57e58f632996c681da5f64f535949c4b2de1cf23e44dcebc3f19b9f3ef8c3260001b613191565b61a29c7f074f02e12422b3055c99012bb92bacab4da4c764a31e983f776586d44715def260001b613191565b600061a2a78261b9fc565b905061a2d57f1205bde03e40cf3c5049263d43e4cef574c197af68e8b60a6119952a4a2af67960001b613191565b61a3017fb7d6f6091df49bd64880d79b84fd6ec961db0fc5be94b70658d116cd9042514560001b613191565b600085141561a3f25761a3367f2f741ef2e337fe03e4c0c38204019e293adb29b25e31741eb315cac5747be52560001b613191565b61a3627fd96ce69c9b33720e8bfa0e7cce068b580158e1fd89ec7812eebdd06539f9ce1a60001b613191565b61a38e7f300bb027905edc24a4f3b6708d041effb1aaa5020ae9524c21da8feeaad033ab60001b613191565b80945061a3bd7fe2f840819c76c103783fe935f719efb2d55afc5a33d20038b861b296f1d548c660001b613191565b61a3e97f36693279110c77e4337ce890aa2d7acbfc74e43f83cfef8ec5abb57d9efd8af660001b613191565b6001935061a6f4565b61a41e7f75ac198d5a62f81e18e8231d7331e3e5d700d3f078c96666bec23a8bd3e121cb60001b613191565b61a44a7fbba80c56ac8a02b2ad62fed8aac38b76e7a2a840a0614364cbc299d5421be79f60001b613191565b61a4767f199b844b609c744361e411a058d203084fd2f5f80f2bab3b82e291d3b990127660001b613191565b84811461a6945761a4a97fcb23e05a110e9107e7ce9e8862fae15d70139d020c042f250bb34c6ff24aaacc60001b613191565b61a4d57f070bcc0bd576479343f9c7f249cb91a513a9fdcd0bf8eec9b17e35b7bf816c4f60001b613191565b61a5017fc7f08e7a861def60ff6e58f506e0442eb68b24375a39d2e25b0c5404afa3527060001b613191565b836001600087815260200190815260200160002060008b73ffffffffffffffffffffffffffffffffffffffff1673ffffffffffffffffffffffffffffffffffffffff1681526020019081526020016000206000828254019250508190555061a58b7f38449bfe79a5837b0537dc70934b7d84e4372752bacdda05b48827d4bccea58160001b613191565b61a5b77f2d7bdb1db5412062627ae7f99053f759084528d9a8c0af3a9b5ea5983236722e60001b613191565b83600260008781526020019081526020016000206000828254019250508190555061a6047fbdb11ae8aed3ac6f77d4061acbc1fddf087b2ea56a7ef9ee8b2eeb1f4e62e5b960001b613191565b61a6307fe82f93ef69c936e0f94db4de1b686e8db63b52ac4044ea168eaea946141fe5c560001b613191565b80945061a65f7faa3a2d45c1e37d881473b271aeeaded66b73fede0fbebfe9a320d2ce9db3497f60001b613191565b61a68b7f96b35619186c914a8c3c0f190d32e1b3b2d76383e18483752567ea53be12637060001b613191565b6001935061a6f3565b61a6c07fbbe0f7517fd854fb7e36246e8fdf15d8a91509649a7de375c35563994803439260001b613191565b61a6ec7f1bfacd434fc83a225044d36d509ab6c66ae03b6c1c161fc6be96e51685632d4460001b613191565b8360010193505b5b5050806001019050619f17565b5061a72e7f355414f887916d0801a09a5464d51b7759ed706948334f6b321ba5a36540fbdf60001b613191565b61a75a7f5a4ffac1407e4763bf206a9dbb5a55f9e4b50231e338cc2c7972a648cc31d1f560001b613191565b806001600084815260200190815260200160002060008873ffffffffffffffffffffffffffffffffffffffff1673ffffffffffffffffffffffffffffffffffffffff1681526020019081526020016000206000828254019250508190555061a7e47f291ba037685a596dd4b025cfd5011c05eee983dd86647a1d648f376c3981d37360001b613191565b61a8107fd79d33aa4538175005a2081c77572d6fdfd86dc719ba5bde41b2c602025e17b160001b613191565b80600260008481526020019081526020016000206000828254019250508190555061a85d7f64f104857052f01af6163d421d9481db9e2dc63fb969094d8aa117a2ca0f8ba460001b613191565b61a8897f0988cb22beadbc18c99cbcdd01e3e86278877ed2dcb9ed1bb239972cc36cf51960001b613191565b83600760008873ffffffffffffffffffffffffffffffffffffffff1673ffffffffffffffffffffffffffffffffffffffff1681526020019081526020016000206000828254019250508190555061a9027f44fda65e8e0a977dd55a3fa02c2a07188ab1ed351b895086c7676cb8c250fcb660001b613191565b61a92e7fd29d21716f90a1e8a174128a9d95797a093241464360a6431209f4deb937f02360001b613191565b8573ffffffffffffffffffffffffffffffffffffffff16600073ffffffffffffffffffffffffffffffffffffffff1661a965616329565b73ffffffffffffffffffffffffffffffffffffffff167f4a39dc06d4c0dbc64b70af90fd698a233a518aa5d07e595d983b8c0526c8f7fb8887604051808060200180602001838103835285818151815260200191508051906020019060200280838360005b8381101561a9e557808201518184015260208101905061a9ca565b50505050905001838103825284818151815260200191508051906020019060200280838360005b8381101561aa2757808201518184015260208101905061aa0c565b5050505090500194505050505060405180910390a461aa687f10af9deda08e8c31874b31f1ba5e70d361f2558e41cb9333d090d85c3cc0437b60001b613191565b61aa947f5e3a067786928a98cf688ed16bd9cf9770608c7a6ab89ab275ae6cdb69fe0a0960001b613191565b61aab38673ffffffffffffffffffffffffffffffffffffffff1661dc13565b801561aac4575061aac38661e3f3565b5b1561ab6f5761aaf57f0ec5c2aa2b67a2e3176a6602b95e6bd7e5d6b35dd2237aca52d5476c80ebaad860001b613191565b61ab217f6d482b1f4a29f484fb5cf00886a860e76a8ba875bcd26a3f58a3e8215f3e31bf60001b613191565b61ab4d7f4e679f8123b1fa52a1e8bfd31c7bbbff9f5ace0926c897149da17e8ddc76f87d60001b613191565b61ab6a60008787866040518060200160405280600081525061e719565b61ab9c565b61ab9b7f47cd23b964aae34e3902fee06fb2ba40264144eb9b7953a1d78bfe51a0c8546160001b613191565b5b505050505050565b600061abd27f8372423b2498712bc8b092c26b7575098ac25ef08c042fadd27f067b412914ff60001b61362b565b61abfe7f91dae1433bc1d4254670272ed556abc4b60bcd1b23907bd565f9e499528b8be460001b61362b565b61ac2a7f0a6157f426386fe8cc5eaf6ed1d6d82048843ff0c41c499d87af73bbbff6780960001b61362b565b61ac567f07bd4de6a4c57f8b2bc67197a3a5c07a0c7c79c79fb86a37e1f3a9ca1441762360001b61362b565b61ac5f8261608d565b1561acd2576040517f08c379a000000000000000000000000000000000000000000000000000000000815260040180806020018281038252601b8152602001807f496e76656e746f72793a206e6f74206120636f6c6c656374696f6e000000000081525060200191505060405180910390fd5b61acfe7f76104c4fe0931336e096f920ec748bea648bdbf957df59fb66e328e2dbcf48a960001b61362b565b61ad2a7f956121f3d767cfc7a2a427dbe5487dc6a35360501c658a51f517e8edd3c4cc0960001b61362b565b61ad567fa2fcb2230ea65fc5b1bc98060b25d5d1ae332a78797f62f73fa857a9600487c560001b61362b565b6004600083815260200190815260200160002060009054906101000a900473ffffffffffffffffffffffffffffffffffffffff169050919050565b61adbd7f444d3db973879435e3019ef9c2fc8bf83b186e4fff77e82a54030cf1a0ca090e60001b613191565b61ade97f17768b1cd5963f8af51d8c88ab318d8ac401ef498a4df83b749587668ed4391360001b613191565b61ae157fd86ab2418d8d46e3232c3a043e1dcc406e65e1dd321b4b3d0d665119535e2f1860001b613191565b61ae417f28a501752942b4e0f510f9866b80f39ab86e930ce4128a88d16f0f04e07843f460001b613191565b600073ffffffffffffffffffffffffffffffffffffffff168473ffffffffffffffffffffffffffffffffffffffff16141561aee4576040517f08c379a00000000000000000000000000000000000000000000000000000000081526004018080602001828103825260178152602001807f496e76656e746f72793a206d696e7420746f207a65726f00000000000000000081525060200191505060405180910390fd5b61af107fb3f56791790ff51e8846b8bbb01ff59c94f8b45cec47119968ea1d7467e4640960001b613191565b61af3c7fee7d247225e06905857b3b49e24dfdfc91a6dd0e5c2a745dcccd69237f75b39260001b613191565b61af687f5b45a39a1089167decbecdd13f02dac8190682af400c756f9c85742b5fc9b8d360001b613191565b600061af72616329565b905061afa07f413a9b1d6f7f2552095f680a148a929a0aed663b4c2fcbcf70236e657951a79560001b613191565b61afcc7f6a0d03dfda733d70cb53b4cc37e9b567eda0ae2ec83dd176ff2b07bd28a6245c60001b613191565b61afd58461b949565b1561b06e5761b0067f0b84207cf1877aeabca7228be6653f3abaa2894b00ad557972c07aed4ab1ed5560001b613191565b61b0327f33ca75e9cb42e6041aa82927155263d7e6ccbe5bc4028489f72402cd4ff5223760001b613191565b61b05e7ff4b5149e50aa5c225b84daad6a5ae4deb07e36d94e910a4ec22f409ccde1f6a860001b613191565b61b06985858561ed0e565b61b311565b61b09a7f0718f0ab4fd6c3fd553eb5489de319e6356477bf34cabe3ac7e7ccd81666ce8060001b613191565b61b0c67fae41b41f37ff0985f84f690f0c0f526a48e57532e2b0eff944225a0f65e01f4160001b613191565b61b0cf8461608d565b1561b21e5761b1007fbe946c6b6fe15716daf136caca64d18626de3e7672d04be492c9b3fa29c79a7060001b613191565b61b12c7f1d5c4734e83552e849e9d3b430b6ded997dbf703b5d1516bdec29181e176033860001b613191565b61b1587f9131c0f1173204d4172c8933a01b0d896757d48e724410997d23a462bf0d555660001b613191565b61b165858585600061f182565b61b1917f386639f4ba64b5d2caed9770fff3e158f9d980f3237459c36d27f3b30bf553c660001b613191565b61b1bd7faae09e12ad12d2bfa509e5886834a3faf34ea64f2acc4d1f6dee6e6f80facea760001b613191565b838573ffffffffffffffffffffffffffffffffffffffff16600073ffffffffffffffffffffffffffffffffffffffff167fddf252ad1be2c89b69c2b068fc378daa952ba7f163c4a11628f55a4df523b3ef60405160405180910390a461b310565b61b24a7f859066e8aba6ebdeeb9ca3de2bdd0907faba4020a4b07c1fa4d4a5ca250ea14a60001b613191565b61b2767faf467acc880ab0979e8bac1fbdd585472a85dd6b11b3ba1af5d5450b85dedd3a60001b613191565b61b2a27fb9e4f5a725b70bc697652388535ca1c858f5a2f80c0f3edd090d1f08d6d0defd60001b613191565b6040517f08c379a00000000000000000000000000000000000000000000000000000000081526004018080602001828103825260198152602001807f496e76656e746f72793a206e6f74206120746f6b656e2069640000000000000081525060200191505060405180910390fd5b5b61b33d7fac90b58d9d6e2337a07b83506608b9786a7d292ed6e4bfede26111e98a3744b460001b613191565b61b3697fe6049611115583c948f8c2362a4a81470548fb22c81d7c201195e3bdc39009a360001b613191565b8473ffffffffffffffffffffffffffffffffffffffff16600073ffffffffffffffffffffffffffffffffffffffff168273ffffffffffffffffffffffffffffffffffffffff167fc3d58168c5ae7397731d063d5bbf3d657854427343f4c083240f7aacaa2d0f628787604051808381526020018281526020019250505060405180910390a461b41a7f40d745951e93778e3581614356595629042d0369096c970d1ee71b9c55ffe79660001b613191565b61b4467fce4f3ff185fb6d84fd97fda21079a12a0d16c9cf8a8917cf95a76d49a001466360001b613191565b61b4658573ffffffffffffffffffffffffffffffffffffffff1661dc13565b1561b5015761b4967f149586b1d1873f39039969ca1b2188315a7788ff661683a167f3be578e8610bc60001b613191565b61b4c27f5f7f8901d46e931dbea92e40666ff82f9fb62ab21e61bfdbfd20aee6fae344f060001b613191565b61b4ee7f5c5617061cc03c80ef10a69d59d99bcaf8484c562c6481a252d49bf610da307860001b613191565b61b4fc60008686868661dc26565b61b52e565b61b52d7fa23d970905b7e0646f34b3548875f69513171111a103cb494fac92cdde4e190960001b613191565b5b5050505050565b600061b5637ffc59fb60a67d68ccc943a08bea255237a8934f8573254c419d44acee78b9fb5060001b61362b565b61b58f7f98f1a734197ce0144080b5dcab6ead2cc6448ae6ac9f74591b10fe14068dde8360001b61362b565b61b5bb7f4229c7945cfd62041b3ba6e4c405407793bcf9dae0f45f36cd4366446dded2bb60001b61362b565b60006003600084815260200190815260200160002054905061b5ff7f76f6271e85367142214df8b00432d533a5a584b2beed694be1b982b7b8e8ba0e60001b61362b565b61b62b7f010e4ef836c8323f1b11ac94bb76bbc29163205384aa84a2d9dc4df82b3d2b8960001b61362b565b61b6577fa8baab55596048ea96020b9fb409fdedf74ed1133e5b72ec3e119ae964ce022860001b61362b565b600073ffffffffffffffffffffffffffffffffffffffff168173ffffffffffffffffffffffffffffffffffffffff16141561b6fa576040517f08c379a000000000000000000000000000000000000000000000000000000000815260040180806020018281038252601b8152602001807f496e76656e746f72793a206e6f6e2d6578697374696e67204e4654000000000081525060200191505060405180910390fd5b61b7267f63fffd706903801446a7efabf7df92c4d9fdada94d086ad790cd0aef24c5f40e60001b61362b565b61b7527f24f73a4c85f0b800a1d1385e752f32f97057b20ddb6e8a0dc360be5906b64fc560001b61362b565b61b77e7f705f4d31556b1218dfbe3ca5ed50e80c1f8f65216bc9ce328bbc7679108b70ac60001b61362b565b80915050919050565b3073ffffffffffffffffffffffffffffffffffffffff16638da5cb5b6040518163ffffffff1660e01b815260040160206040518083038186803b15801561b7cd57600080fd5b505afa15801561b7e1573d6000803e3d6000fd5b505050506040513d602081101561b7f757600080fd5b810190808051906020019092919050505073ffffffffffffffffffffffffffffffffffffffff168173ffffffffffffffffffffffffffffffffffffffff161461b8a8576040517f08c379a00000000000000000000000000000000000000000000000000000000081526004018080602001828103825260168152602001807f4f776e61626c653a206e6f7420746865206f776e65720000000000000000000081525060200191505060405180910390fd5b50565b6001600b60008373ffffffffffffffffffffffffffffffffffffffff1673ffffffffffffffffffffffffffffffffffffffff16815260200190815260200160002060006101000a81548160ff0219169083151502179055508073ffffffffffffffffffffffffffffffffffffffff167f6ae172837ea30b801fbfcdd4108aa1d5bf8ff775444fd70256b44e6bf3dfc3f660405160405180910390a250565b600061b9777fed9fc71c744ea71b9cf2ba55c2d494233fcfb712960f41109307a90a60776ee060001b61ea7d565b61b9a37fb675b7f5d29b89e9c6850a2a0844fae122e658d730f820598fa14bccdd3a6fc160001b61ea7d565b61b9cf7f62b30ea66711399f1be3918d0096d18aa951fee6b06119bef078df6ff41f2d3160001b61ea7d565b60007f80000000000000000000000000000000000000000000000000000000000000008316149050919050565b600061ba2a7f3408f41d31eb00b3bc2e0f54b103c1882010cffcc4d022d75c551fd3964d2f1260001b61ea7d565b61ba567fffce922ddbd3ff02a9b5820b08b841e18a7685ac2a1a73063ee6757e67eda59c60001b61ea7d565b61ba827fdbc60c1bbcbc3aca99258b883c8dd2e66f0644a366cb7f8cd99e3e50315a52ce60001b61ea7d565b60e063ffffffff8016901b82169050919050565b61bac27f8b06ef8794557c219d61a561a91f5ef2f03a82cea52a20a891696a26aa285b3760001b61362b565b61baee7fdab5f5f2a0c1e46c6f35fe5c5bf6063aa13300d77c3191b1fe5226c6b791a72860001b61362b565b61bb1a7f2d4bfc76497b9defe4621013a2b4e9d1da4217d10e0e96087366a979e5ac701160001b61362b565b61bb467f8433d17f3d25ee896fd254a7919aad4127c878b1ac32c8c20cc99dc5eab5402360001b61362b565b61bb4f8161608d565b1561bbc2576040517f08c379a000000000000000000000000000000000000000000000000000000000815260040180806020018281038252601b8152602001807f496e76656e746f72793a206e6f74206120636f6c6c656374696f6e000000000081525060200191505060405180910390fd5b61bbee7f60df7a025541fd523e21b5099e158e3bdc975d2a7dc20f7ccfe2a2151b896f3d60001b61362b565b61bc1a7fdd7122feaf7a15ed93b3979906a7973dd90c6bc76ebb625a5794ff28414e864d60001b61362b565b61bc467f2bcc91a155bd276d3b7132f16f739c8012b44aa43162bd273ed661329013566a60001b61362b565b61bc727f90628f9b2712185b1680b337a82c73598ed6481cc55d19a4dd0253f5923f558560001b61362b565b600073ffffffffffffffffffffffffffffffffffffffff166004600083815260200190815260200160002060009054906101000a900473ffffffffffffffffffffffffffffffffffffffff1673ffffffffffffffffffffffffffffffffffffffff161461bd47576040517f08c379a000000000000000000000000000000000000000000000000000000000815260040180806020018281038252601e8152602001807f496e76656e746f72793a206578697374696e6720636f6c6c656374696f6e000081525060200191505060405180910390fd5b61bd737f35f491cab3a4c947acb51ae446fa8c713753be02ec39e773f79bf617f3b8556f60001b61362b565b61bd9f7f98c5515a36403d2f77b76884fb480d05c77940a8ba463640a5f4746646d5767560001b61362b565b61bdcb7f779d147ee40d1d06d066c59e70b3e2b4235c5e8fa57786aea3cba72f869434fa60001b61362b565b61bdd3616329565b6004600083815260200190815260200160002060006101000a81548173ffffffffffffffffffffffffffffffffffffffff021916908373ffffffffffffffffffffffffffffffffffffffff16021790555061be507f9b1cf4f8628ba0d5a5cbea11177260e43f2ea5bf0f6eb94736e94f8e6ebc66ae60001b61362b565b61be7c7f520166cbd240cd38d928b2c80ec3d40ec16c70e689a30a1571aac54d8a5da7de60001b61362b565b61be858161b949565b1515817f4ebf8ad0df535ba5e487bc9cb27fe44120ca81c3a95d3eba79c0bd1df2ab2d5d60405160405180910390a350565b61bee37f355d1c8ef3f8bb778c94b454f3982f892821640c1907ddca3b47d8d71ebe1abc60001b613191565b61bf0f7f920eb013b499b78f7d8ac15eee032381ce2b4d074ea8d853ab66c9b005efa29f60001b613191565b61bf3b7f850bf251e06a65d05214652669e26d7eb140acffae7c9f6f5afbb9f84762b2ff60001b613191565b600088889050905061bf6f7f1704a359e69d6e5bf5bf3890afb38d357ff7b9f2b3ed3eb396fc4aed0a10421f60001b613191565b61bf9b7f40fb35db8e57aeb9ea0c5c0dc410c2fa5c58ded5b0f6cd32549bffbc1c892a1e60001b613191565b61bfc77fba60e9af9612a3a5397ce6b69d1517e6abd330486bcee240c905ef3f3dca148160001b613191565b868690508114801561bfdb57508484905081145b61c04d576040517f08c379a000000000000000000000000000000000000000000000000000000000815260040180806020018281038252601e8152602001807f496e76656e746f72793a20696e636f6e73697374656e7420617272617973000081525060200191505060405180910390fd5b61c0797fef20269fbc94c1eb16ec91e4bbbac68352cf7a4118db02e0f8c77c1e33c0084e60001b613191565b61c0a57fbc3f3305d3a1d619beb1e72f856ee09409cf9e72d9f9de6b002196d6c2284e4060001b613191565b61c0d17f18a1474ee212b882aab6d9649a4fbc6f32450f7b8aa5cae434a0caa9bfa0847460001b613191565b600061c0db616329565b905061c1097fe85ba718d59913b0c19805d59054a20007b7e1fb2bc231761c7b1529e5eead7060001b613191565b61c1357f521bac9eea7b41aae9bc113fa8c50c28743a7485e55d2bd0b6b78991fd5c527060001b613191565b60005b82811461cdd05761c16b7fd41646d6cbe57b2148f7efe6be4ab91721938511b7a524a8fd3738ad2cf89d0160001b613191565b61c1977fe6baa72fe721951ca695876abced2fecb92b1bbe8313c821a8df33a05ac1596960001b613191565b60008b8b8381811061c1a557fe5b9050602002013573ffffffffffffffffffffffffffffffffffffffff16905061c1f07f681078a96ff3a82a9c521637dbdb1138df18dbaf6452b20616173025a28a307660001b613191565b61c21c7f07181e5bcddba1518af5e91e29e2a5b123a637a46db6186f92cec9c7cb3ebc2960001b613191565b61c2487fcddfa875e45260a4479a3b0cd1b92e1973d2baf5d639acd1fe8ea7b6452780c860001b613191565b600073ffffffffffffffffffffffffffffffffffffffff168173ffffffffffffffffffffffffffffffffffffffff16141561c2eb576040517f08c379a00000000000000000000000000000000000000000000000000000000081526004018080602001828103825260178152602001807f496e76656e746f72793a206d696e7420746f207a65726f00000000000000000081525060200191505060405180910390fd5b61c3177f1895fd2ae29d3993c75501dbb23baad01619c4fd5bf00d37c50d987e037e395460001b613191565b61c3437fde4e6a90cef894916bef8746ed8beb9decea949dab2806b2b890d13a5b35a13d60001b613191565b61c36f7fa422bc2ecb2bc310fc8bf4875e365b41b91d7058a6db8236336ac87e6b56185c60001b613191565b60008a8a8481811061c37d57fe5b90506020020135905061c3b27fbad6d0ee36b1eab0abb8e0104776a428534d50963109bf125aa7d3d1f307565460001b613191565b61c3de7feb35e364c64f565267f8ce06926a207edca08ae3732e9361988ed924d4810c6960001b613191565b600089898581811061c3ec57fe5b90506020020135905061c4217f15ddf74ddc98c9d96ae606893749db08cd797a8eb065922163ad42af16ac03b160001b613191565b61c44d7f325b14950562a8d89f0803cc456f6554b764599d058d9e77cf70203c83b7b3d560001b613191565b61c4568261b949565b1561c7505761c4877f5056d06b75266bf3452d2db53edfa199a9a92098780d044fb38a41435bd598ff60001b613191565b61c4b37f4af10ba8d834d319028f96457494d75f1b167105be706771df622675b58287e860001b613191565b61c4df7fe9c8ad1500a1c3be4ee552079ed0868d0438ece8130482ae0aa3f423e7a4ed2460001b613191565b61c4ea83838361ed0e565b61c5167f290ceab84a42c733fcfe270da6d60d23718c4339f289de52ce6e9a911e57b4f560001b613191565b61c5427f7ea3548704162da7832339a33c9f0a4b4cbddd9d113719eff89226527fd0111460001b613191565b8273ffffffffffffffffffffffffffffffffffffffff16600073ffffffffffffffffffffffffffffffffffffffff168673ffffffffffffffffffffffffffffffffffffffff167fc3d58168c5ae7397731d063d5bbf3d657854427343f4c083240f7aacaa2d0f628585604051808381526020018281526020019250505060405180910390a461c5f37fe7dad3b38125c5baf97387c79932e4388fcc8645832f57e2963c9ee8252cb62260001b613191565b61c61f7ffbe35f7b5dd8b1c05f583c6befcaefc8a29dc42462f85b7ed210cda4a4da578760001b613191565b61c63e8373ffffffffffffffffffffffffffffffffffffffff1661dc13565b1561c71e5761c66f7fa6e2a3eb2e673b6f89d5d3c443c46240b98118e2862dfc8e543aef7db756d5d060001b613191565b61c69b7f5f2cb70b1f00f9e305aa9ed3fd7ce568d69cd9ec788802f54a55b9a439e64f3760001b613191565b61c6c77f54eab69d660e384730b8e0f4abd95d87accfe07626541c3c7c3c425dfd042ee160001b613191565b61c71960008484848c8c8080601f016020809104026020016040519081016040528093929190818152602001838380828437600081840152601f19601f8201169050808301925050505050505061dc26565b61c74b565b61c74a7f095c718e27532a8366424ae9a48db069a9b9eef1a1922351a4d6875832b6448960001b613191565b5b61cdc2565b61c77c7f7fb5a6cbe1f8c50fbcecc254aa86fdd21a6cec85094783f9930ca475ec77a31360001b613191565b61c7a87fadcd28deb4d2199c240e951c47cf00300d5e7435f5465a8c872c97860d67f14f60001b613191565b61c7b18261608d565b1561ccd05761c7e27f857f3d1c083fd5d79098fae91ec721da1125cea0e7a781b0a9d6d4e1bb92b75c60001b613191565b61c80e7fbdbb8d2935fcc184b9e730bb828e04f210208949ecb8d7c3c098f049b898c19b60001b613191565b61c83a7fef80501f09e6da1ad330db296f2c9a50ed72026d728b8e38107181d5bfc6cf7a60001b613191565b61c847838383600061f182565b61c8737f80ff0a3c794082584d3bd6ecfe72d5f7c904f6add6eee3210675f0f9f0b42d6960001b613191565b61c89f7f1bb1f52ba704ca996357be9e3f9fea9a5a56902f6e28ce032bd9233c51ee9aa560001b613191565b818373ffffffffffffffffffffffffffffffffffffffff16600073ffffffffffffffffffffffffffffffffffffffff167fddf252ad1be2c89b69c2b068fc378daa952ba7f163c4a11628f55a4df523b3ef60405160405180910390a461c9277f6bad9a1420e70e9db498ed099c34250023beda84d89736920f031ab0b70f841b60001b613191565b61c9537f734820e16b7d5adbed1f22a022d7df693f60beb578621d44879362232403588d60001b613191565b8273ffffffffffffffffffffffffffffffffffffffff16600073ffffffffffffffffffffffffffffffffffffffff168673ffffffffffffffffffffffffffffffffffffffff167fc3d58168c5ae7397731d063d5bbf3d657854427343f4c083240f7aacaa2d0f62856001604051808381526020018281526020019250505060405180910390a461ca057f46da94f40b39920ee4d71508a62c9a79023059f93116eea2e3f93b2e7f2c053360001b613191565b61ca317fa9a4688bca4ffee6a0d79c0b8cc83d172a4031403d6bd2827992aa2a1307538c60001b613191565b61ca508373ffffffffffffffffffffffffffffffffffffffff1661dc13565b1561cc9e5761ca817f141a47f567dd84e1bc26dd80080af5f654b0f026b8b9cdfcb74861fa74aa685960001b613191565b61caad7ffc0e1c9ac528f58fb7de3e00d76b76e45417232ea7fe06ac5a99aad985be15ec60001b613191565b61cad97fcfa7f6ebd80c3ac8caab65031d20a1a552f252b84e413346ced632ced98e8ede60001b613191565b61cae28361e3f3565b1561cbc35761cb137f53f479b5c2bf5f822a1e982be11a289b160700f3e6d77520f56a12c946169e4160001b613191565b61cb3f7fde47206802f0ff1d38356cd9be3e41cb4537c73272c02fa86a68ac48f0de0d2c60001b613191565b61cb6b7f99666f8152e52640eaa5199d589bf0cde9ae3efe3e4b40a83d275ca4f691aaa460001b613191565b61cbbe6000848460018c8c8080601f016020809104026020016040519081016040528093929190818152602001838380828437600081840152601f19601f8201169050808301925050505050505061dc26565b61cc99565b61cbef7fbfc5a723d1ae26805bd6d1c08867bac5c99c9a4f8ad94a11f75f65af6bac8afd60001b613191565b61cc1b7f3317129313b309fda673c6935ae2c7d8b48ef35d97866437c2726c05cd57394260001b613191565b61cc477faa6980254df9a84ab86ddd79f20f7e8aa1055304dd5893112d567b6efde84dcc60001b613191565b61cc98600084848b8b8080601f016020809104026020016040519081016040528093929190818152602001838380828437600081840152601f19601f8201169050808301925050505050505061f851565b5b61cccb565b61ccca7f1031f7c3c91062230fc0c7dcab592a31899132159510db2e41b99abab668b6eb60001b613191565b5b61cdc1565b61ccfc7f8a4aa255efb5d184879de54d029f32b48dfcd963880551d89b463731d9d93a7660001b613191565b61cd287fdcf59b30ff89e0358bb5a339a79fbf7c7d62ee149ce6835560d42567f90b1a3c60001b613191565b61cd537ee96624ab32ed82624004c966546d3ba0c6ec1a8913403e9ae9aaece74f35c860001b613191565b6040517f08c379a00000000000000000000000000000000000000000000000000000000081526004018080602001828103825260198152602001807f496e76656e746f72793a206e6f74206120746f6b656e2069640000000000000081525060200191505060405180910390fd5b5b50505080600101905061c138565b5050505050505050505050565b61ce097f383b34e2cce69f35285388f3d490c5147df89eeabe83f957432163f8f765e1ab60001b613191565b61ce357f678f33a5847d25671d080fa784f9bc198454f3e82d452b82e51ab22cb1f3795660001b613191565b61ce617fe44c3949295f046069ad1a89b015cd60a40b846b2d6e73122883655e5c899a1a60001b613191565b61ce8d7fc5c82cf307d9b1b41991229788cdcab906a1899a37a90d005cf86359332cc7cb60001b613191565b8061cf00576040517f08c379a000000000000000000000000000000000000000000000000000000000815260040180806020018281038252601e8152602001807f496e76656e746f72793a206e6f6e2d617070726f7665642073656e646572000081525060200191505060405180910390fd5b61cf2c7fd57b77aaebf0d2dea4814e29f131966101f99b485f14a34f6dcf47d39c3909cf60001b613191565b61cf587f46641d23a0590d9bc3458529c38bdcf7bb7cb831c0e105c07e34d50076b3070260001b613191565b61cf847f2ab7d289d6c685b38a3ffde48b68e647d0eee91590fa55cc780e113aa98e3bdb60001b613191565b61cfb07fee981ebdc2d4c4a5a04eef401dd68de2b51fe2124729158731bd9d8457cf1e3760001b613191565b600082141561d027576040517f08c379a00000000000000000000000000000000000000000000000000000000081526004018080602001828103825260158152602001807f496e76656e746f72793a207a65726f2076616c7565000000000000000000000081525060200191505060405180910390fd5b61d0537fa1f83f1d4df4a0779a93823b06873916651fd65eb45e37bead0d065ac69fd14960001b613191565b61d07f7f56711b7e46e8b4b7ea2cd0bebbcca2c4c65d8d14fa8accce9288f1115f57654160001b613191565b61d0ab7fd8dc46961bbf1fae21b078a319fbfaee0c1f69deffa4e1a1d2f569634ec9ddb960001b613191565b60006001600085815260200190815260200160002060008773ffffffffffffffffffffffffffffffffffffffff1673ffffffffffffffffffffffffffffffffffffffff16815260200190815260200160002054905061d12c7fa25c93e7d8a3bc6494683b012a28590e5c71d57c17e0152c951d002832644f6a60001b613191565b61d1587fc56264cc3d03cfbab8d5afd22f0ddef204d00554d7b95b51e2f5d1340a00d45760001b613191565b61d1847f1282936c21e80dd33487e26c98b90abd44599f84e37394bbcf15faaadf77ace760001b613191565b8281101561d1fa576040517f08c379a000000000000000000000000000000000000000000000000000000000815260040180806020018281038252601d8152602001807f496e76656e746f72793a206e6f7420656e6f7567682062616c616e636500000081525060200191505060405180910390fd5b61d2267f155351313cbbf613b0839276cff7b014a75e57a6b1e3fe0b7f5ebd96cbc5666560001b613191565b61d2527f0297c2286b0b7d45907873a3f8f0e757f8d7b8f8d4caa53ae3dbf3842355008860001b613191565b61d27e7f26715963863ba38a9f55ce326569a10f43bdc90b9303dbc2c06010279a9764d460001b613191565b8473ffffffffffffffffffffffffffffffffffffffff168673ffffffffffffffffffffffffffffffffffffffff161461d4475761d2dd7f0d0a141f4611886990019e9c6ddd88314090fd474e9ca8e4707b1c05e0ff402160001b613191565b61d3097f9fe8c8462e091245d135ab2cca413a36ecb93929902ca17b6f22065383ac9b2d60001b613191565b61d3357f5b3954315509ad60c29b120cd0346f647e13e221137267f4cafa94025a4853c960001b613191565b8281036001600086815260200190815260200160002060008873ffffffffffffffffffffffffffffffffffffffff1673ffffffffffffffffffffffffffffffffffffffff1681526020019081526020016000208190555061d3b87f764cfc886d841e5f119c7919102fa9a22eafe024310ee80a9125571e3390d0db60001b613191565b61d3e47f4cb0ee8d9ebfa413cc61b6f63cb570d2e0dd8d02a761f8be16c8e4d37988c45660001b613191565b826001600086815260200190815260200160002060008773ffffffffffffffffffffffffffffffffffffffff1673ffffffffffffffffffffffffffffffffffffffff1681526020019081526020016000206000828254019250508190555061d474565b61d4737f13000358c5a5baadfce9eefbd1385b63525ed6a9203b2301381b4c09cde976be60001b613191565b5b505050505050565b61d4a87f27f6969396d7d67dc8684c25e0e6977c53573e359b530a92b7dbb62a8c5e0e8d60001b613191565b61d4d47ffda6ec062501e7b06916e53b87ed1b8f010358626c219c717075971729d9ee1060001b613191565b61d5007f4692675340ba59141b5fee85fbde96ae012d419c9fbd158853fba807517e9a6d60001b613191565b61d52c7f40521383c0dc841101b0a3675206a759edb6932a371ac8cd96555abcc23a49a460001b613191565b6001831461d5a2576040517f08c379a000000000000000000000000000000000000000000000000000000000815260040180806020018281038252601a8152602001807f496e76656e746f72793a2077726f6e67204e46542076616c756500000000000081525060200191505060405180910390fd5b61d5ce7fe68f89631a244a14950e716f1cd954865bed612ffb96cdfc69ff046b6fdeb6d460001b613191565b61d5fa7f1ed8e36d755ee0714c5e1ab8c7669447556ce57f45374cf09fd833cd63f43c1e60001b613191565b61d6257ee7dea39ae313f8e211c5246f05c2629d9df8129beb55d3b799eee38e6fa9b760001b613191565b60006003600086815260200190815260200160002054905061d6697f3a500f258664d32904ed6efa47b88b42fdf567721d87cbd6f836a2ed359515d960001b613191565b61d6957f43ac2a50878cf124327689237381fe0d29cb7d121d3eccccd192f19dbe7ad82960001b613191565b61d6c17f28d8373aae909cb11b765507404e0f45b4425d9e8f8ab7f88be641a0d7d8ab9260001b613191565b8073ffffffffffffffffffffffffffffffffffffffff168773ffffffffffffffffffffffffffffffffffffffff161461d762576040517f08c379a00000000000000000000000000000000000000000000000000000000081526004018080602001828103825260188152602001807f496e76656e746f72793a206e6f6e2d6f776e6564204e4654000000000000000081525060200191505060405180910390fd5b61d78e7f328cd7cd7e9b4fbc2b799e3e5ab1d1a61a1e72f6522f558992ef3dce0b015dcb60001b613191565b61d7ba7fe693eeef3e8cdacc993bec27e84aad648d7655f5db68e099044444d7fa0fbf6d60001b613191565b61d7e67f83e5c6ae58497c2e1cc601be11374ab610b38647b6f9260621a4cdbe27f1d09760001b613191565b8261d9cb5761d8177f517962a4085ad0120ac78d1faf3a7caeae115c5bd98087e15fedc94e9e5cfbd360001b613191565b61d8437ffeeaa9d3b3ef2fd3a459371ecaed193856ce766f1b46fb7a6fdddc65deca5df260001b613191565b61d86f7fe34e67e421347de2da527a229b4e85f3db0b35c9ecb79a1799d81201c3b8ff2d60001b613191565b61d89b7f24e977136e208e806a0575ff5fb446cf48a9fdeca652298bf382aa39c988f53f60001b613191565b60007401000000000000000000000000000000000000000082161415801561d92857506008600086815260200190815260200160002060009054906101000a900473ffffffffffffffffffffffffffffffffffffffff1673ffffffffffffffffffffffffffffffffffffffff1661d910616329565b73ffffffffffffffffffffffffffffffffffffffff16145b61d99a576040517f08c379a000000000000000000000000000000000000000000000000000000000815260040180806020018281038252601e8152602001807f496e76656e746f72793a206e6f6e2d617070726f7665642073656e646572000081525060200191505060405180910390fd5b61d9c67f289fd34e84900d001ea48d39c6c07a05d4db142c42705a1264903d102cc1295160001b613191565b61d9f8565b61d9f77fc7bd1d335a660ada91b37d90e6c5b02a371e3d824096437541b3d3710d69326560001b613191565b5b61da247f7a9447480294edf5e1a2248fdc91d117ba6ce1ab9e39a321e24ddacdd437a10360001b613191565b61da507ff97580b9d006c5b61de7ad6fe40ce2514ebadf3a4a03b6023a7999198ba69ce360001b613191565b8573ffffffffffffffffffffffffffffffffffffffff16600360008781526020019081526020016000208190555061daaa7f6af912b56e462f83004ce8047c8f01765a90b9495ce071921883a11db4f147ba60001b613191565b61dad67f519fe12a7027b5114d68d316bc51046dbea276e34171a77da9979f707ac1b0de60001b613191565b8161dbdd5761db077f3e3b44906ea2c6cabcb1a196b87f6f871a2797c70869db091d2ffd5891419d4960001b613191565b61db337f581e90482a6871d7aa44fc4ce6e20c87db3671869d881a11fa519870258556fa60001b613191565b61db5f7fc3935240aa33c9df7c8819162a113ca654eb5dfeb4e6b1148ac0eed4becbfcb260001b613191565b61db6b8787600161e18f565b61db977f6a85537faa315650f86023df333a06be03aaa6578597dada1309412741c79f0960001b613191565b61dbc37f240d5a05324aeffba93cac1aa63a8e778b033e820d9006d887420ed9e316545860001b613191565b61dbd8878761dbd18861b9fc565b600161df08565b61dc0a565b61dc097fa4fd5ccf16e2386e91df9b0832b348db6204790830572a53d4eceb25d3db2a9a60001b613191565b5b50505050505050565b600080823b905060008111915050919050565b61dc527f05d4eabced4a90bc15fe1363d1a39b0026c03b81a825c0a82aa8861c967300c460001b61362b565b61dc7e7ff6c9ba956753ec49666702d2237e8ff3b9c60baf3ac68523fac483c31ff1b63160001b61362b565b61dcaa7f1c9fbd969656e9225a24f0352001238ee7f5b381e50699467d086d99ecf6acc960001b61362b565b61dcd67fd9a2510c585de86f20c32d87f365937844a6346aebf914e4a85409eb7f04937d60001b61362b565b63f23a6e6160e01b7bffffffffffffffffffffffffffffffffffffffffffffffffffffffff19168473ffffffffffffffffffffffffffffffffffffffff1663f23a6e6161dd21616329565b888787876040518663ffffffff1660e01b8152600401808673ffffffffffffffffffffffffffffffffffffffff1681526020018573ffffffffffffffffffffffffffffffffffffffff16815260200184815260200183815260200180602001828103825283818151815260200191508051906020019080838360005b8381101561ddb857808201518184015260208101905061dd9d565b50505050905090810190601f16801561dde55780820380516001836020036101000a031916815260200191505b509650505050505050602060405180830381600087803b15801561de0857600080fd5b505af115801561de1c573d6000803e3d6000fd5b505050506040513d602081101561de3257600080fd5b81019080805190602001909291905050507bffffffffffffffffffffffffffffffffffffffffffffffffffffffff19161461ded5576040517f08c379a000000000000000000000000000000000000000000000000000000000815260040180806020018281038252601b8152602001807f496e76656e746f72793a207472616e736665722072656675736564000000000081525060200191505060405180910390fd5b61df017fa738110d8fd9c8d232e532ba6040fa049501cff7a292ef7fc2fd7cb09ac547a960001b61362b565b5050505050565b61df347f0a6905b883ff3fc3b0047f911b5db425ee65592b2a12736bac4623f48027ffc760001b613191565b61df607f5a440e83c30d600cf0a455ec0f923fc4e60836252352893850d64cba4c6d737a60001b613191565b61df8c7f8cb1d815f0e150d4676a17422046e0cf345998f8e733f6c3676315ae308ae1c160001b613191565b8273ffffffffffffffffffffffffffffffffffffffff168473ffffffffffffffffffffffffffffffffffffffff161461e15c5761dfeb7fa5138c410b6648320dee85e7818cfc5b92449ca38f97ad28bbfa69953ba4e64360001b613191565b61e0177f74bcee8410297e445345898118db79651a22fbcda7de326aebdeada01a1374bc60001b613191565b61e0437f43d970672e664e91b6ea5fcdaf9d14c1a5514ac07f3245e884926e80033a50e460001b613191565b806001600084815260200190815260200160002060008673ffffffffffffffffffffffffffffffffffffffff1673ffffffffffffffffffffffffffffffffffffffff1681526020019081526020016000206000828254039250508190555061e0cd7fb9b384d5ae14a5909aabd07c132a5c03a3aa6de7d113df48fd3cd7fb775b86cf60001b613191565b61e0f97fedee4df0a2b056d15a0f9492b72a8b655f033ae9227e406bfe66b2eccfbdc3c960001b613191565b806001600084815260200190815260200160002060008573ffffffffffffffffffffffffffffffffffffffff1673ffffffffffffffffffffffffffffffffffffffff1681526020019081526020016000206000828254019250508190555061e189565b61e1887f3c726f5ce087f19d8cf86e65efadec3752f07fc61d55b078c8eb9900dfc2a60360001b613191565b5b50505050565b61e1bb7ffe592558790d1de4e7041bb875de9f68d6379cbae267009c757974aa058d6b5960001b613191565b61e1e77fa87dc5aade4b10f896ce9da7dc719d98c02622a2c936cad8cc82055f77b6fad660001b613191565b61e2137f7649ee19535c2eafb3354346ca0a67d9a863e6a1a5389dabca383df4a943c99460001b613191565b8173ffffffffffffffffffffffffffffffffffffffff168373ffffffffffffffffffffffffffffffffffffffff161461e3c15761e2727f6e48a1c26d16202a733a07c99e5fc8908b91ed4225f2667cc51a5b9bbe8ce81d60001b613191565b61e29e7f62099b921b10e04154fe8e7793366c1cb253be86e39ced913999966d4ecd769a60001b613191565b61e2ca7ffdeeefd541aad516fbd4c7245a66c1b41fb702e3c18913a05d4f6512a7ee328d60001b613191565b80600760008573ffffffffffffffffffffffffffffffffffffffff1673ffffffffffffffffffffffffffffffffffffffff1681526020019081526020016000206000828254039250508190555061e3437fb8fa07428d737d3efa4fa3f803592b2c5bd43f796f6cd9f19870ccd36c6c9c7560001b613191565b61e36f7f9e07fcf0b859c2781ab63d391adf32b6fd5dc406fc25783717b1c3424e806d0060001b613191565b80600760008473ffffffffffffffffffffffffffffffffffffffff1673ffffffffffffffffffffffffffffffffffffffff1681526020019081526020016000206000828254019250508190555061e3ee565b61e3ed7f76cf30204240668a55294d7e371eca67cd64f5104ce2d18bb227860f27d9139560001b613191565b5b505050565b600061e4217f8bce3641ea8f03edd513b9d602220b635983e4472ef2b7493537f2f9a37f0cce60001b613191565b61e44d7fd14cb366654ffd68fcc529300483500a023e3694f0c93e923facfe83cdfb07af60001b613191565b61e4797fe64aeb9ba4cb4fd784b84b135ef05ea95b1025216606bc6daa556ea80bc88b2660001b613191565b600061e4a77fbf13198ad5e28f8725b384ab516ac0c88154274a70c391fafaae5b447cc950d660001b613191565b61e4d37f8927919098f935b8a5c117c288f5a20e897a04431ae40cff83262c6b3e68b9ee60001b613191565b600061e5017fb165c28f1d27b483d528deb1f64d4d8800429c24efdf71472487e3b17950b19c60001b613191565b61e52d7f63fd9157595f867dcecaac6d8fce6e432ceb8e030ff3188d196ea2d18924bac960001b613191565b60007f01ffc9a7000000000000000000000000000000000000000000000000000000007f4e2312e00000000000000000000000000000000000000000000000000000000060405160240180827bffffffffffffffffffffffffffffffffffffffffffffffffffffffff19168152602001915050604051602081830303815290604052907bffffffffffffffffffffffffffffffffffffffffffffffffffffffff19166020820180517bffffffffffffffffffffffffffffffffffffffffffffffffffffffff8381831617835250505050905061e62b7f3cc1b196435b36d102307fe8e195f76b5eb727634b9057706013f04307cc7aa960001b613191565b8060200181516040516000815260208183858b612710fa95508051945050505061e6777f595ab10bb75aa77071980c77b375d693796c8109e865a5b749a8a7026b9f1bfa60001b613191565b61e6a37ff6d76b1ae1d738931cf8d9f92220da41314bda975f02908db0af47e40edf8c3b60001b613191565b609e5a1161e6ad57fe5b61e6d97f094bb0059eb5173fba26ec9a2df84fe5052a8a035400dd9e6cd4a91d8200842760001b613191565b61e7057f11bd5e077af6521409442d1be9a17f094e5606c218f47c3512d5f17a140f675360001b613191565b82801561e70f5750815b9350505050919050565b61e7457f7d10864fb0a4aedc20e442e807bea0f6919d10eeaa1f021c97a5f215a1012f0460001b61362b565b61e7717fe349439bb5f36664722cb8f584c53fd55da073ef5fd4ff3197edfa378ed96b2c60001b61362b565b61e79d7f2edac629d0b066ea94aac6394c400610e1412197b305ba242fd8c4dfd153b58b60001b61362b565b61e7c97f72ee40dc5eecda898fa2839fc208dd25275ca14983f5f2582cca10221d3d0b7a60001b61362b565b63bc197c8160e01b7bffffffffffffffffffffffffffffffffffffffffffffffffffffffff19168473ffffffffffffffffffffffffffffffffffffffff1663bc197c8161e814616329565b888787876040518663ffffffff1660e01b8152600401808673ffffffffffffffffffffffffffffffffffffffff1681526020018573ffffffffffffffffffffffffffffffffffffffff168152602001806020018060200180602001848103845287818151815260200191508051906020019060200280838360005b8381101561e8aa57808201518184015260208101905061e88f565b50505050905001848103835286818151815260200191508051906020019060200280838360005b8381101561e8ec57808201518184015260208101905061e8d1565b50505050905001848103825285818151815260200191508051906020019080838360005b8381101561e92b57808201518184015260208101905061e910565b50505050905090810190601f16801561e9585780820380516001836020036101000a031916815260200191505b5098505050505050505050602060405180830381600087803b15801561e97d57600080fd5b505af115801561e991573d6000803e3d6000fd5b505050506040513d602081101561e9a757600080fd5b81019080805190602001909291905050507bffffffffffffffffffffffffffffffffffffffffffffffffffffffff19161461ea4a576040517f08c379a000000000000000000000000000000000000000000000000000000000815260040180806020018281038252601b8152602001807f496e76656e746f72793a207472616e736665722072656675736564000000000081525060200191505060405180910390fd5b61ea767f45eed796109b210b28a94480230c2b5d15205f14ed98d4c42eb93e6e6f3cfc3960001b61362b565b5050505050565b50565b600061eaae7fadfa95640147ab4c0d8e179ddcac69e18a21437cb50d0dc4471e78f81fe9f5e860001b61362b565b61eada7f2234a02ae4d0203c1a2641ed80ac160b16d1206553cd60aedf05b4e854f0117560001b61362b565b61eb067f808fe83f7b40774a06658e923bade4c6926d9e810609f7344d5c76edf281650d60001b61362b565b7f01ffc9a7000000000000000000000000000000000000000000000000000000007bffffffffffffffffffffffffffffffffffffffffffffffffffffffff1916827bffffffffffffffffffffffffffffffffffffffffffffffffffffffff1916148061ebcf57507fd9b67a26000000000000000000000000000000000000000000000000000000007bffffffffffffffffffffffffffffffffffffffffffffffffffffffff1916827bffffffffffffffffffffffffffffffffffffffffffffffffffffffff1916145b8061ec3757507f0e89341c000000000000000000000000000000000000000000000000000000007bffffffffffffffffffffffffffffffffffffffffffffffffffffffff1916827bffffffffffffffffffffffffffffffffffffffffffffffffffffffff1916145b8061ec9f57507f09ce5c46000000000000000000000000000000000000000000000000000000007bffffffffffffffffffffffffffffffffffffffffffffffffffffffff1916827bffffffffffffffffffffffffffffffffffffffffffffffffffffffff1916145b8061ed0757507fbd85b039000000000000000000000000000000000000000000000000000000007bffffffffffffffffffffffffffffffffffffffffffffffffffffffff1916827bffffffffffffffffffffffffffffffffffffffffffffffffffffffff1916145b9050919050565b61ed3a7fcd4a3cf7e717713a7304cae214041b9ffa5aa5ba78d81afadd9188e68e5c42b560001b613191565b61ed667faf33f898e275c69927d32b058cb129d9d5c2bee8cc6f767482d1172e463d98b260001b613191565b61ed927ffd4a560822655de2da9a6638c87609209e0017bc527012935c518af028e5648460001b613191565b61edbe7f55f5e2319ed9a66649b911065e5b93f25a59251b6371035f92076a376042e82b60001b613191565b600081141561ee35576040517f08c379a00000000000000000000000000000000000000000000000000000000081526004018080602001828103825260158152602001807f496e76656e746f72793a207a65726f2076616c7565000000000000000000000081525060200191505060405180910390fd5b61ee617ff1c56f841f415811532c502036d8d6cd71ff6e6c67b77152166593ec3cc8eee960001b613191565b61ee8d7f397efcde6f93f3f90821f29519cd3e9975243dfdc68dd147e26f52f3022fe7e560001b613191565b61eeb97fd83a76d9926135ca2d8308cee3d6b2bceff5c10ba7b5894dd456f1f91f9147e760001b613191565b60006002600084815260200190815260200160002054905061eefd7f355c98725ccd7b577a1345f182295b8c9f8c691e83d4dda4067d22d77c33146b60001b613191565b61ef297fefb8abbebc60795c94b9b52cf135ed19143894936bfab3e7c1cbfb03b3ec443660001b613191565b6000828201905061ef5c7ffc643c86c094db4953535cf26f88390a5d0158016645f6701511c05c0579609360001b613191565b61ef887f6fdee456fa0152f10de45e6fca0d1a433c864e48549aa1dad98d905647c28b5a60001b613191565b61efb47f5c2ad57c1dbb08ccde7a0150c054ffaf1292e8f05d23612c31aa42bcc4cd608760001b613191565b81811161f029576040517f08c379a000000000000000000000000000000000000000000000000000000000815260040180806020018281038252601a8152602001807f496e76656e746f72793a20737570706c79206f766572666c6f7700000000000081525060200191505060405180910390fd5b61f0557ff4f4e42e37771ea3e058ccffedc5349075e7ee843f5217044e4a0e4936a997b960001b613191565b61f0817f4f38a3557aed946f20355ae5fbfcd4ec86732eca6778ab278ef0120a19909e4e60001b613191565b61f0ad7f55aa7f3b7086bfc19da2dbcbc9cda5fa24c63e72488796663adaf68f8583152860001b613191565b80600260008681526020019081526020016000208190555061f0f17fd586b47b4117d8f98c7d127b1016c222117c0956f5e78b5d0c589cbd3d399de860001b613191565b61f11d7fecb2f28d8964656e31ab73df3cd55f9045a455e3ba97519abf7e1f6ca10b84c460001b613191565b826001600086815260200190815260200160002060008773ffffffffffffffffffffffffffffffffffffffff1673ffffffffffffffffffffffffffffffffffffffff168152602001908152602001600020600082825401925050819055505050505050565b61f1ae7f8da5f5cebdf92c1f3db9617b190b56c0e4560722e6829e338b0d784c7d0e2c3c60001b613191565b61f1da7f743bea07296e2914eb14f50aef748875a1becb13ba8bf756bf3ddeeaae25a40d60001b613191565b61f2067fb684cc176c7b93f26db60d48588d7e8de3488697e1422d3886a514b08fed7ead60001b613191565b61f2327f1ad3d6d2f022537f050ce98134222f1fbd728a71c733a612ce22c2ec75ed44da60001b613191565b6001821461f2a8576040517f08c379a000000000000000000000000000000000000000000000000000000000815260040180806020018281038252601a8152602001807f496e76656e746f72793a2077726f6e67204e46542076616c756500000000000081525060200191505060405180910390fd5b61f2d47f8528bfc0e2dff9ecf028461f0c9866d14bec8b2975b58f902afd62089de6735960001b613191565b61f3007f2317419c7b4b2ab134536c2cc0b5f87301eb040f42414417da87d2bb0d2bf13860001b613191565b61f32c7fd318dc65e5aae60e15a1fe0b30d2ec894238fef7a797b7e7f2cb114d4e9985c260001b613191565b61f3587f7b9ca7686ea7fa52a4aa61804918b7133524045ac119ed80b5d1e2befcdb30d160001b613191565b600060036000858152602001908152602001600020541461f3e1576040517f08c379a000000000000000000000000000000000000000000000000000000000815260040180806020018281038252601d8152602001807f496e76656e746f72793a206578697374696e672f6275726e74204e465400000081525060200191505060405180910390fd5b61f40d7f08da58d800585c40e7e830a419071c06f26fa809eb4599fec036204209ce6e9660001b613191565b61f4397ff7a8460e335a43df391ea9efd3d7d2d912b443e618e20436bf90e000a3b59d0960001b613191565b61f4657f146950a890cec627df72a08168c2ec06f4675dc2c293401336d12faecaa3fca160001b613191565b8373ffffffffffffffffffffffffffffffffffffffff16600360008581526020019081526020016000208190555061f4bf7f6e6e6193b3443398377d89b310d6b67dff557a799c8353a7df48f5d006e121f460001b613191565b61f4eb7f86b5d1748aa513158e88cd05d295ab6442dc28886dcb34b1d01d9a2096dee32860001b613191565b8061f6d75761f51c7fd542a464bc0f3fe9458d03826b8c36090a3c09c9313346996ba590fd8872003360001b613191565b61f5487f0d50192560e08df3244d9c732ae198d41f5bd6e758048f1a7b612c2a10195d2d60001b613191565b61f5747f30505699543be155d679bdf17ebf396bb44a4a2f7a69080046dd6d7a61b854e260001b613191565b600061f57f8461b9fc565b905061f5ad7fc21c3bb9a142e645560c99e5a459ce07da74d193f09f5dc813b391ef732233bf60001b613191565b60026000828152602001908152602001600020600081546001019190508190555061f5fa7f024c1c623fa67418ebc47c2432c29bfcccfca6ce8bfd6bb4fe781652e210499c60001b613191565b6001600082815260200190815260200160002060008673ffffffffffffffffffffffffffffffffffffffff1673ffffffffffffffffffffffffffffffffffffffff168152602001908152602001600020600081546001019190508190555061f6847faff93bf644f1de37ddd3911817fe313fd925b6ca0c8540b739d360f4faf3f84f60001b613191565b600760008673ffffffffffffffffffffffffffffffffffffffff1673ffffffffffffffffffffffffffffffffffffffff16815260200190815260200160002060008154600101919050819055505061f704565b61f7037faa8372e04e9e4c3f3ddb26e8bcb061324bec56b096b8212c6cf628a34e1882a660001b613191565b5b50505050565b6060600082141561f752576040518060400160405280600181526020017f3000000000000000000000000000000000000000000000000000000000000000815250905061f84c565b600082905060005b6000821461f77c578080600101915050600a828161f77457fe5b04915061f75a565b60008167ffffffffffffffff8111801561f79557600080fd5b506040519080825280601f01601f19166020018201604052801561f7c85781602001600182028036833780820191505090505b50905060006001830390508593505b6000841461f84457600a848161f7e957fe5b0660300160f81b8282806001900393508151811061f80357fe5b60200101907effffffffffffffffffffffffffffffffffffffffffffffffffffffffffffff1916908160001a905350600a848161f83c57fe5b04935061f7d7565b819450505050505b919050565b61f87d7f8b4614292866e122435e73849e4a0670770789ad0bbf2d91e013fe599bec437160001b613191565b61f8a97f53375beaa51442ff653de4e33303a43b1c9bff8cd76cb8d9759bd1a01190e21860001b613191565b61f8d57f6f94ffcecbcc78d40faa1a872daf2931023664e5035158aac3ea0c3e109f6efb60001b613191565b61f9017f20226d8c7d008bdaa7479fc93f6ba7b56858d5066ec26df5705782dc45beae9360001b613191565b7f150b7a02000000000000000000000000000000000000000000000000000000007bffffffffffffffffffffffffffffffffffffffffffffffffffffffff19168373ffffffffffffffffffffffffffffffffffffffff1663150b7a0261f965616329565b8786866040518563ffffffff1660e01b8152600401808573ffffffffffffffffffffffffffffffffffffffff1681526020018473ffffffffffffffffffffffffffffffffffffffff16815260200183815260200180602001828103825283818151815260200191508051906020019080838360005b8381101561f9f557808201518184015260208101905061f9da565b50505050905090810190601f16801561fa225780820380516001836020036101000a031916815260200191505b5095505050505050602060405180830381600087803b15801561fa4457600080fd5b505af115801561fa58573d6000803e3d6000fd5b505050506040513d602081101561fa6e57600080fd5b81019080805190602001909291905050507bffffffffffffffffffffffffffffffffffffffffffffffffffffffff19161461fb11576040517f08c379a000000000000000000000000000000000000000000000000000000000815260040180806020018281038252601b8152602001807f496e76656e746f72793a207472616e736665722072656675736564000000000081525060200191505060405180910390fd5b61fb3d7ff229fcca5b5af216d43f1932719d3eba3fa13b830c805249cc4e9cbb77bb200560001b613191565b50505050565b828054600181600116156101000203166002900490600052602060002090601f01602090048101928261fb79576000855561fbc0565b82601f1061fb9257803560ff191683800117855561fbc0565b8280016001018555821561fbc0579182015b8281111561fbbf57823582559160200191906001019061fba4565b5b50905061fbcd919061fbd1565b5090565b5b8082111561fbea57600081600090555060010161fbd2565b509056fea26469706673582212205cc0b27dc96edf3d9828f91dc3a42c878c10597ce630cf942e0a131fa005326464736f6c63430007060033",
  "linkReferences": {},
  "deployedLinkReferences": {}
}