{
  "_format": "hh-sol-artifact-1",
  "contractName": "ERC20EscrowPredicate",
  "sourceName": "contracts/bridging/ERC20EscrowPredicate.sol",
  "abi": [
    {
      "inputs": [
        {
          "internalType": "address",
          "name": "rootChainManager_",
          "type": "address"
        }
      ],
      "stateMutability": "nonpayable",
      "type": "constructor"
    },
    {
      "anonymous": false,
      "inputs": [
        {
          "indexed": true,
          "internalType": "address",
          "name": "depositor",
          "type": "address"
        },
        {
          "indexed": true,
          "internalType": "address",
          "name": "depositReceiver",
          "type": "address"
        },
        {
          "indexed": true,
          "internalType": "address",
          "name": "rootToken",
          "type": "address"
        },
        {
          "indexed": false,
          "internalType": "uint256",
          "name": "amount",
          "type": "uint256"
        }
      ],
      "name": "LockedERC20",
      "type": "event"
    },
    {
      "inputs": [],
      "name": "WITHDRAWN_EVENT_SIG",
      "outputs": [
        {
          "internalType": "bytes32",
          "name": "",
          "type": "bytes32"
        }
      ],
      "stateMutability": "view",
      "type": "function"
    },
    {
      "inputs": [
        {
          "internalType": "address",
          "name": "",
          "type": "address"
        },
        {
          "internalType": "address",
          "name": "rootToken",
          "type": "address"
        },
        {
          "internalType": "bytes",
          "name": "log",
          "type": "bytes"
        }
      ],
      "name": "exitTokens",
      "outputs": [],
      "stateMutability": "nonpayable",
      "type": "function"
    },
    {
      "inputs": [
        {
          "internalType": "address",
          "name": "depositor",
          "type": "address"
        },
        {
          "internalType": "address",
          "name": "depositReceiver",
          "type": "address"
        },
        {
          "internalType": "address",
          "name": "rootToken",
          "type": "address"
        },
        {
          "internalType": "bytes",
          "name": "depositData",
          "type": "bytes"
        }
      ],
      "name": "lockTokens",
      "outputs": [],
      "stateMutability": "nonpayable",
      "type": "function"
    },
    {
      "inputs": [],
      "name": "rootChainManager",
      "outputs": [
        {
          "internalType": "address",
          "name": "",
          "type": "address"
        }
      ],
      "stateMutability": "view",
      "type": "function"
    }
  ],
  "bytecode": "0x608060405234801561001057600080fd5b50604051610e89380380610e898339818101604052602081101561003357600080fd5b5051600080546001600160a01b039092166001600160a01b0319909216919091179055610e24806100656000396000f3fe608060405234801561001057600080fd5b506004361061004c5760003560e01c8063206efea4146100515780638274664f1461006b578063bd07018d1461012c578063e375b64e14610150575b600080fd5b6100596101e1565b60408051918252519081900360200190f35b61012a6004803603606081101561008157600080fd5b6001600160a01b0382358116926020810135909116918101906060810160408201356401000000008111156100b557600080fd5b8201836020820111156100c757600080fd5b803590602001918460018302840111640100000000831117156100e957600080fd5b91908080601f016020809104026020016040519081016040528093929190818152602001838380828437600092019190915250929550610205945050505050565b005b610134610241565b604080516001600160a01b039092168252519081900360200190f35b61012a6004803603608081101561016657600080fd5b6001600160a01b03823581169260208101358216926040820135909216918101906080810160608201356401000000008111156101a257600080fd5b8201836020820111156101b457600080fd5b803590602001918460018302840111640100000000831117156101d657600080fd5b509092509050610250565b7f7084f5476618d8e60b11ef0d7d3f06914655adb8793e28ff7f018d4c76d505d581565b6102156102106102d7565b6102db565b60008061022183610340565b909250905061023a6001600160a01b0385168383610444565b5050505050565b6000546001600160a01b031681565b61025b6102106102d7565b60008282602081101561026d57600080fd5b5060408051913580835290519092506001600160a01b038087169288821692918a16917f9b217a401a5ddf7c4d474074aff9958a18d48690d77cc2151c4706aa7348b4019181900360200190a46102cf6001600160a01b0385168730846104c9565b505050505050565b3390565b6000546001600160a01b0382811691161461033d576040805162461bcd60e51b815260206004820152601760248201527f5072656469636174653a206f6e6c79206d616e61676572000000000000000000604482015290519081900360640190fd5b50565b600080600061035661035185610557565b6105d3565b905060006103778260018151811061036a57fe5b60200260200101516105d3565b90507f7084f5476618d8e60b11ef0d7d3f06914655adb8793e28ff7f018d4c76d505d560001b6103ba826000815181106103ad57fe5b602002602001015161076b565b1461040c576040805162461bcd60e51b815260206004820152601c60248201527f5072656469636174653a20696e76616c6964207369676e617475726500000000604482015290519081900360640190fd5b6104298260028151811061041c57fe5b60200260200101516108c9565b935061043b826003815181106103ad57fe5b92505050915091565b604080516001600160a01b038416602482015260448082018490528251808303909101815260649091019091526020810180517bffffffffffffffffffffffffffffffffffffffffffffffffffffffff167fa9059cbb000000000000000000000000000000000000000000000000000000001790526104c490849061098b565b505050565b604080516001600160a01b0380861660248301528416604482015260648082018490528251808303909101815260849091019091526020810180517bffffffffffffffffffffffffffffffffffffffffffffffffffffffff167f23b872dd0000000000000000000000000000000000000000000000000000000017905261055190859061098b565b50505050565b61055f610dd4565b60008251116105b5576040805162461bcd60e51b815260206004820152601f60248201527f524c505265616465723a20494e56414c49445f42595445535f4c454e47544800604482015290519081900360640190fd5b5060408051808201909152815181526020828101908201525b919050565b60606105de82610b8c565b61062f576040805162461bcd60e51b815260206004820152601260248201527f524c503a204954454d5f4e4f545f4c4953540000000000000000000000000000604482015290519081900360640190fd5b600061063a83610bb8565b905060008167ffffffffffffffff8111801561065557600080fd5b5060405190808252806020026020018201604052801561068f57816020015b61067c610dd4565b8152602001906001900390816106745790505b50905060006106a18560200151610c5a565b855190915081146106f9576040805162461bcd60e51b815260206004820152601960248201527f524c503a204c4953545f4c454e4754485f4d49534d4154434800000000000000604482015290519081900360640190fd5b60006107088660200151610d2f565b60208701510190506000805b8581101561075f5761072583610c5a565b915060405180604001604052808381526020018481525085828151811061074857fe5b602090810291909101015291810191600101610714565b50929695505050505050565b600061077682610b8c565b156107c8576040805162461bcd60e51b815260206004820152601a60248201527f524c503a204445434f44494e475f4c4953545f41535f55494e54000000000000604482015290519081900360640190fd5b81516021101561081f576040805162461bcd60e51b815260206004820152601560248201527f524c503a20494e56414c49445f55494e545f4c454e0000000000000000000000604482015290519081900360640190fd5b600061082e8360200151610c5a565b83519091508114610886576040805162461bcd60e51b815260206004820152601660248201527f524c503a2055494e545f4c454e5f4d49534d4154434800000000000000000000604482015290519081900360640190fd5b60006108958460200151610d2f565b845160208087015183018051939450918490039291908310156108bf57826020036101000a820491505b5095945050505050565b60006108d482610b8c565b15610926576040805162461bcd60e51b815260206004820152601d60248201527f524c503a204445434f44494e475f4c4953545f41535f41444452455353000000604482015290519081900360640190fd5b815160151461097c576040805162461bcd60e51b815260206004820152601860248201527f524c503a20494e56414c49445f414444524553535f4c454e0000000000000000604482015290519081900360640190fd5b6109858261076b565b92915050565b8161099e6001600160a01b038216610dce565b6109ef576040805162461bcd60e51b815260206004820152601a60248201527f4552433230577261707065723a206e6f6e2d636f6e7472616374000000000000604482015290519081900360640190fd5b600080826001600160a01b0316846040518082805190602001908083835b60208310610a4a57805182527fffffffffffffffffffffffffffffffffffffffffffffffffffffffffffffffe09092019160209182019101610a0d565b6001836020036101000a0380198251168184511680821785525050505050509050019150506000604051808303816000865af19150503d8060008114610aac576040519150601f19603f3d011682016040523d82523d6000602084013e610ab1565b606091505b50915091508115610b3057805115610b2b57808060200190516020811015610ad857600080fd5b5051610b2b576040805162461bcd60e51b815260206004820152601e60248201527f4552433230577261707065723a206f7065726174696f6e206661696c65640000604482015290519081900360640190fd5b61023a565b8051610b83576040805162461bcd60e51b815260206004820152601e60248201527f4552433230577261707065723a206f7065726174696f6e206661696c65640000604482015290519081900360640190fd5b80518082602001fd5b6020810151805160009190821a9060c0821015610bae576000925050506105ce565b5060019392505050565b600080600090506000610bce8460200151610d2f565b602085015185519181019250015b80821015610c5157610bed82610c5a565b8201915080821115610c46576040805162461bcd60e51b815260206004820152601b60248201527f524c503a204e554d5f4954454d535f4c454e5f4d49534d415443480000000000604482015290519081900360640190fd5b600190920191610bdc565b50909392505050565b80516000908190811a6080811015610c755760019150610d28565b60b8811015610ca8577fffffffffffffffffffffffffffffffffffffffffffffffffffffffffffffff8181019150610d28565b60c0811015610cd55760b78103600185019450806020036101000a85510460018201810193505050610d28565b60f8811015610d08577fffffffffffffffffffffffffffffffffffffffffffffffffffffffffffffff4181019150610d28565b60f78103600185019450806020036101000a855104600182018101935050505b5092915050565b8051600090811a6080811015610d495760009150506105ce565b60b8811080610d64575060c08110801590610d64575060f881105b15610d735760019150506105ce565b60c0811015610da5577fffffffffffffffffffffffffffffffffffffffffffffffffffffffffffffff4a0190506105ce565b7fffffffffffffffffffffffffffffffffffffffffffffffffffffffffffffff0a0190506105ce565b3b151590565b60405180604001604052806000815260200160008152509056fea2646970667358221220e66f820b3b87e2216410c84093390f94475e729d2d7a3d6d1988c5fde046652b64736f6c63430007060033",
  "linkReferences": {},
  "deployedLinkReferences": {}
}