{
  "_format": "hh-sol-artifact-1",
  "contractName": "ERC20EscrowPredicate",
  "sourceName": "contracts/bridging/ERC20EscrowPredicate.sol",
  "abi": [
    {
      "inputs": [],
      "stateMutability": "nonpayable",
      "type": "constructor"
    },
    {
      "anonymous": false,
      "inputs": [
        {
          "indexed": true,
          "internalType": "address",
          "name": "depositor",
          "type": "address"
        },
        {
          "indexed": true,
          "internalType": "address",
          "name": "depositReceiver",
          "type": "address"
        },
        {
          "indexed": true,
          "internalType": "address",
          "name": "rootToken",
          "type": "address"
        },
        {
          "indexed": false,
          "internalType": "uint256",
          "name": "amount",
          "type": "uint256"
        }
      ],
      "name": "LockedERC20",
      "type": "event"
    },
    {
      "anonymous": false,
      "inputs": [
        {
          "indexed": true,
          "internalType": "address",
          "name": "previousOwner",
          "type": "address"
        },
        {
          "indexed": true,
          "internalType": "address",
          "name": "newOwner",
          "type": "address"
        }
      ],
      "name": "OwnershipTransferred",
      "type": "event"
    },
    {
      "inputs": [],
      "name": "WITHDRAWN_EVENT_SIG",
      "outputs": [
        {
          "internalType": "bytes32",
          "name": "",
          "type": "bytes32"
        }
      ],
      "stateMutability": "view",
      "type": "function"
    },
    {
      "inputs": [
        {
          "internalType": "address",
          "name": "",
          "type": "address"
        },
        {
          "internalType": "address",
          "name": "rootToken",
          "type": "address"
        },
        {
          "internalType": "bytes",
          "name": "log",
          "type": "bytes"
        }
      ],
      "name": "exitTokens",
      "outputs": [],
      "stateMutability": "nonpayable",
      "type": "function"
    },
    {
      "inputs": [
        {
          "internalType": "address",
          "name": "depositor",
          "type": "address"
        },
        {
          "internalType": "address",
          "name": "depositReceiver",
          "type": "address"
        },
        {
          "internalType": "address",
          "name": "rootToken",
          "type": "address"
        },
        {
          "internalType": "bytes",
          "name": "depositData",
          "type": "bytes"
        }
      ],
      "name": "lockTokens",
      "outputs": [],
      "stateMutability": "nonpayable",
      "type": "function"
    },
    {
      "inputs": [],
      "name": "manager",
      "outputs": [
        {
          "internalType": "address",
          "name": "",
          "type": "address"
        }
      ],
      "stateMutability": "view",
      "type": "function"
    },
    {
      "inputs": [],
      "name": "owner",
      "outputs": [
        {
          "internalType": "address",
          "name": "",
          "type": "address"
        }
      ],
      "stateMutability": "view",
      "type": "function"
    },
    {
      "inputs": [
        {
          "internalType": "address",
          "name": "rootChainManager",
          "type": "address"
        }
      ],
      "name": "setManager",
      "outputs": [],
      "stateMutability": "nonpayable",
      "type": "function"
    },
    {
      "inputs": [
        {
          "internalType": "address",
          "name": "newOwner",
          "type": "address"
        }
      ],
      "name": "transferOwnership",
      "outputs": [],
      "stateMutability": "nonpayable",
      "type": "function"
    }
  ],
  "bytecode": "0x608060405234801561001057600080fd5b50600080546001600160a01b031916339081178255604051909182917f8be0079c531659141344cd1fd0a4f28419497f9722a3daafe3b4186f6b6457e0908290a350610e65806100616000396000f3fe608060405234801561001057600080fd5b506004361061007d5760003560e01c80638da5cb5b1161005b5780638da5cb5b14610181578063d0ebdbe714610189578063e375b64e146101af578063f2fde38b146102405761007d565b8063206efea414610082578063481c6a751461009c5780638274664f146100c0575b600080fd5b61008a610266565b60408051918252519081900360200190f35b6100a461028a565b604080516001600160a01b039092168252519081900360200190f35b61017f600480360360608110156100d657600080fd5b6001600160a01b03823581169260208101359091169181019060608101604082013564010000000081111561010a57600080fd5b82018360208201111561011c57600080fd5b8035906020019184600183028401116401000000008311171561013e57600080fd5b91908080601f016020809104026020016040519081016040528093929190818152602001838380828437600092019190915250929550610299945050505050565b005b6100a4610394565b61017f6004803603602081101561019f57600080fd5b50356001600160a01b03166103a3565b61017f600480360360808110156101c557600080fd5b6001600160a01b038235811692602081013582169260408201359092169181019060808101606082013564010000000081111561020157600080fd5b82018360208201111561021357600080fd5b8035906020019184600183028401116401000000008311171561023557600080fd5b5090925090506103ed565b61017f6004803603602081101561025657600080fd5b50356001600160a01b03166104fd565b7f7084f5476618d8e60b11ef0d7d3f06914655adb8793e28ff7f018d4c76d505d581565b6001546001600160a01b031681565b6102a96102a461056e565b610572565b6000806102b5836105d7565b91509150836001600160a01b031663a9059cbb83836040518363ffffffff1660e01b815260040180836001600160a01b0316815260200182815260200192505050602060405180830381600087803b15801561031057600080fd5b505af1158015610324573d6000803e3d6000fd5b505050506040513d602081101561033a57600080fd5b505161038d576040805162461bcd60e51b815260206004820152601a60248201527f5072656469636174653a207472616e73666572206661696c6564000000000000604482015290519081900360640190fd5b5050505050565b6000546001600160a01b031690565b6103b36103ae61056e565b6106db565b600180547fffffffffffffffffffffffff0000000000000000000000000000000000000000166001600160a01b0392909216919091179055565b6103f86102a461056e565b60008282602081101561040a57600080fd5b5060408051913580835290519092506001600160a01b038087169288821692918a16917f9b217a401a5ddf7c4d474074aff9958a18d48690d77cc2151c4706aa7348b4019181900360200190a4604080517f23b872dd0000000000000000000000000000000000000000000000000000000081526001600160a01b038881166004830152306024830152604482018490529151918616916323b872dd916064808201926020929091908290030181600087803b1580156104c957600080fd5b505af11580156104dd573d6000803e3d6000fd5b505050506040513d60208110156104f357600080fd5b5050505050505050565b6105086103ae61056e565b600080547fffffffffffffffffffffffff0000000000000000000000000000000000000000166001600160a01b0383811691821780845560405192939116917f8be0079c531659141344cd1fd0a4f28419497f9722a3daafe3b4186f6b6457e09190a350565b3390565b6001546001600160a01b038281169116146105d4576040805162461bcd60e51b815260206004820152601760248201527f5072656469636174653a206f6e6c79206d616e61676572000000000000000000604482015290519081900360640190fd5b50565b60008060006105ed6105e88561079f565b61081b565b9050600061060e8260018151811061060157fe5b602002602001015161081b565b90507f7084f5476618d8e60b11ef0d7d3f06914655adb8793e28ff7f018d4c76d505d560001b6106518260008151811061064457fe5b60200260200101516109b3565b146106a3576040805162461bcd60e51b815260206004820152601c60248201527f5072656469636174653a20696e76616c6964207369676e617475726500000000604482015290519081900360640190fd5b6106c0826002815181106106b357fe5b6020026020010151610b11565b93506106d28260038151811061064457fe5b92505050915091565b306001600160a01b0316638da5cb5b6040518163ffffffff1660e01b815260040160206040518083038186803b15801561071457600080fd5b505afa158015610728573d6000803e3d6000fd5b505050506040513d602081101561073e57600080fd5b50516001600160a01b038281169116146105d4576040805162461bcd60e51b815260206004820152601660248201527f4f776e61626c653a206e6f7420746865206f776e657200000000000000000000604482015290519081900360640190fd5b6107a7610e15565b60008251116107fd576040805162461bcd60e51b815260206004820152601f60248201527f524c505265616465723a20494e56414c49445f42595445535f4c454e47544800604482015290519081900360640190fd5b5060408051808201909152815181526020828101908201525b919050565b606061082682610bd3565b610877576040805162461bcd60e51b815260206004820152601260248201527f524c503a204954454d5f4e4f545f4c4953540000000000000000000000000000604482015290519081900360640190fd5b600061088283610bff565b905060008167ffffffffffffffff8111801561089d57600080fd5b506040519080825280602002602001820160405280156108d757816020015b6108c4610e15565b8152602001906001900390816108bc5790505b50905060006108e98560200151610ca1565b85519091508114610941576040805162461bcd60e51b815260206004820152601960248201527f524c503a204c4953545f4c454e4754485f4d49534d4154434800000000000000604482015290519081900360640190fd5b60006109508660200151610d76565b60208701510190506000805b858110156109a75761096d83610ca1565b915060405180604001604052808381526020018481525085828151811061099057fe5b60209081029190910101529181019160010161095c565b50929695505050505050565b60006109be82610bd3565b15610a10576040805162461bcd60e51b815260206004820152601a60248201527f524c503a204445434f44494e475f4c4953545f41535f55494e54000000000000604482015290519081900360640190fd5b815160211015610a67576040805162461bcd60e51b815260206004820152601560248201527f524c503a20494e56414c49445f55494e545f4c454e0000000000000000000000604482015290519081900360640190fd5b6000610a768360200151610ca1565b83519091508114610ace576040805162461bcd60e51b815260206004820152601660248201527f524c503a2055494e545f4c454e5f4d49534d4154434800000000000000000000604482015290519081900360640190fd5b6000610add8460200151610d76565b84516020808701518301805193945091849003929190831015610b0757826020036101000a820491505b5095945050505050565b6000610b1c82610bd3565b15610b6e576040805162461bcd60e51b815260206004820152601d60248201527f524c503a204445434f44494e475f4c4953545f41535f41444452455353000000604482015290519081900360640190fd5b8151601514610bc4576040805162461bcd60e51b815260206004820152601860248201527f524c503a20494e56414c49445f414444524553535f4c454e0000000000000000604482015290519081900360640190fd5b610bcd826109b3565b92915050565b6020810151805160009190821a9060c0821015610bf557600092505050610816565b5060019392505050565b600080600090506000610c158460200151610d76565b602085015185519181019250015b80821015610c9857610c3482610ca1565b8201915080821115610c8d576040805162461bcd60e51b815260206004820152601b60248201527f524c503a204e554d5f4954454d535f4c454e5f4d49534d415443480000000000604482015290519081900360640190fd5b600190920191610c23565b50909392505050565b80516000908190811a6080811015610cbc5760019150610d6f565b60b8811015610cef577fffffffffffffffffffffffffffffffffffffffffffffffffffffffffffffff8181019150610d6f565b60c0811015610d1c5760b78103600185019450806020036101000a85510460018201810193505050610d6f565b60f8811015610d4f577fffffffffffffffffffffffffffffffffffffffffffffffffffffffffffffff4181019150610d6f565b60f78103600185019450806020036101000a855104600182018101935050505b5092915050565b8051600090811a6080811015610d90576000915050610816565b60b8811080610dab575060c08110801590610dab575060f881105b15610dba576001915050610816565b60c0811015610dec577fffffffffffffffffffffffffffffffffffffffffffffffffffffffffffffff4a019050610816565b7fffffffffffffffffffffffffffffffffffffffffffffffffffffffffffffff0a019050610816565b60405180604001604052806000815260200160008152509056fea2646970667358221220e260a0701e911f551f9e0637c97623fce606e1a9f871877feb8f8e0e2699258664736f6c63430007060033",
  "linkReferences": {},
  "deployedLinkReferences": {}
}