{
  "_format": "hh-sol-artifact-1",
  "contractName": "ERC20EscrowPredicate",
  "sourceName": "contracts/bridging/ERC20EscrowPredicate.sol",
  "abi": [
    {
      "inputs": [
        {
          "internalType": "address",
          "name": "rootChainManager_",
          "type": "address"
        }
      ],
      "stateMutability": "nonpayable",
      "type": "constructor"
    },
    {
      "anonymous": false,
      "inputs": [
        {
          "indexed": true,
          "internalType": "address",
          "name": "depositor",
          "type": "address"
        },
        {
          "indexed": true,
          "internalType": "address",
          "name": "depositReceiver",
          "type": "address"
        },
        {
          "indexed": true,
          "internalType": "address",
          "name": "rootToken",
          "type": "address"
        },
        {
          "indexed": false,
          "internalType": "uint256",
          "name": "amount",
          "type": "uint256"
        }
      ],
      "name": "LockedERC20",
      "type": "event"
    },
    {
      "inputs": [],
      "name": "WITHDRAWN_EVENT_SIG",
      "outputs": [
        {
          "internalType": "bytes32",
          "name": "",
          "type": "bytes32"
        }
      ],
      "stateMutability": "view",
      "type": "function"
    },
    {
      "inputs": [
        {
          "internalType": "bytes32",
          "name": "c__0x23562d9f",
          "type": "bytes32"
        }
      ],
      "name": "c_0x23562d9f",
      "outputs": [],
      "stateMutability": "pure",
      "type": "function"
    },
    {
      "inputs": [
        {
          "internalType": "bytes32",
          "name": "c__0x92cbea31",
          "type": "bytes32"
        }
      ],
      "name": "c_0x92cbea31",
      "outputs": [],
      "stateMutability": "pure",
      "type": "function"
    },
    {
      "inputs": [
        {
          "internalType": "address",
          "name": "",
          "type": "address"
        },
        {
          "internalType": "address",
          "name": "rootToken",
          "type": "address"
        },
        {
          "internalType": "bytes",
          "name": "log",
          "type": "bytes"
        }
      ],
      "name": "exitTokens",
      "outputs": [],
      "stateMutability": "nonpayable",
      "type": "function"
    },
    {
      "inputs": [
        {
          "internalType": "address",
          "name": "depositor",
          "type": "address"
        },
        {
          "internalType": "address",
          "name": "depositReceiver",
          "type": "address"
        },
        {
          "internalType": "address",
          "name": "rootToken",
          "type": "address"
        },
        {
          "internalType": "bytes",
          "name": "depositData",
          "type": "bytes"
        }
      ],
      "name": "lockTokens",
      "outputs": [],
      "stateMutability": "nonpayable",
      "type": "function"
    },
    {
      "inputs": [],
      "name": "rootChainManager",
      "outputs": [
        {
          "internalType": "address",
          "name": "",
          "type": "address"
        }
      ],
      "stateMutability": "view",
      "type": "function"
    }
  ],
  "bytecode": "0x60806040523480156200001157600080fd5b50604051620019cf380380620019cf833981810160405260208110156200003757600080fd5b8101908080519060200190929190505050806200007d7f5b0f430b74f64d3da357a4985c1f7b2cac74e201c7bbb603d8d169d4d7ef16ea60001b6200016160201b60201c565b620000b17f1cf1e3e656e29a2aafeec28b4ffb4ad5679a9da57c2d8b24309003d01d34830c60001b6200016160201b60201c565b620000e57f8b29a740c1d6d14324bb5a63f7f7126d9ec1dd2b8631c4954b8f91939068ac3b60001b6200016160201b60201c565b806000806101000a81548173ffffffffffffffffffffffffffffffffffffffff021916908373ffffffffffffffffffffffffffffffffffffffff160217905550506200015a7f38a3a61c224413e020482a6e6bb3e5453377d7178e68c80263fec503fc364ae360001b6200016460201b60201c565b5062000167565b50565b50565b61185880620001776000396000f3fe608060405234801561001057600080fd5b50600436106100725760003560e01c8063bd07018d11610050578063bd07018d146101be578063c650f2f6146101f2578063e375b64e1461022057610072565b80630304597714610077578063206efea4146100a55780638274664f146100c3575b600080fd5b6100a36004803603602081101561008d57600080fd5b81019080803590602001909291905050506102f9565b005b6100ad6102fc565b6040518082815260200191505060405180910390f35b6101bc600480360360608110156100d957600080fd5b81019080803573ffffffffffffffffffffffffffffffffffffffff169060200190929190803573ffffffffffffffffffffffffffffffffffffffff1690602001909291908035906020019064010000000081111561013657600080fd5b82018360208201111561014857600080fd5b8035906020019184600183028401116401000000008311171561016a57600080fd5b91908080601f016020809104026020016040519081016040528093929190818152602001838380828437600081840152601f19601f820116905080830192505050505050509192919290505050610323565b005b6101c66104a9565b604051808273ffffffffffffffffffffffffffffffffffffffff16815260200191505060405180910390f35b61021e6004803603602081101561020857600080fd5b81019080803590602001909291905050506104cd565b005b6102f76004803603608081101561023657600080fd5b81019080803573ffffffffffffffffffffffffffffffffffffffff169060200190929190803573ffffffffffffffffffffffffffffffffffffffff169060200190929190803573ffffffffffffffffffffffffffffffffffffffff169060200190929190803590602001906401000000008111156102b357600080fd5b8201836020820111156102c557600080fd5b803590602001918460018302840111640100000000831117156102e757600080fd5b90919293919293905050506104d0565b005b50565b7f7084f5476618d8e60b11ef0d7d3f06914655adb8793e28ff7f018d4c76d505d560001b81565b61034f7fff77d216031cb4791fcf64fb9bf2b01d3cdbf06339005776b9bc4752b990778060001b6104cd565b61037b7f98622cbbd3a365eedd87403f46ceec12c52acde5c0fb20e1da04bdd8d150b8bb60001b6104cd565b6103a77f49fc1d69bc4ad9b0efbe707545d55a126c27841007a1f1a85517fd83ac256cd160001b6104cd565b6103b76103b2610742565b61074a565b6103e37fa4488e60a3167415a15a6c8e96231207679537aedc5ad19c0b420fd8efb148bd60001b6104cd565b61040f7f28e3bcd0c2d4b038c8b89c1e9c09794fb323233d3ba5716e4ffcfcead101c53060001b6104cd565b60008061041b836108ea565b9150915061044b7fc526345d818c97574942db5a4849bde064ff1950bf2d645cb3d11d4cfde71ad360001b6104cd565b6104777f9fce88dc1018dc7d464a6af8b96decca9f8c9a03404346c4cc268f8cb4cebbd360001b6104cd565b6104a282828673ffffffffffffffffffffffffffffffffffffffff16610c5b9092919063ffffffff16565b5050505050565b60008054906101000a900473ffffffffffffffffffffffffffffffffffffffff1681565b50565b6104fc7f32764105f77e8a206537aa751a9d87b6a476ec5a1382781149fbe5786083b24e60001b6104cd565b6105287f544124786d1478c64ffdc61731b00512fdb78a2c4325622e4580afb3c0dac91b60001b6104cd565b6105547f9184b3f7eba96c42420274dea8a652482e1ecdb7ed0c7c6a50a564dd89f2279b60001b6104cd565b61056461055f610742565b61074a565b6105907f7862bce6b724af999976fa42a9435b64e9438361212d9ecf199c44f6200da14960001b6104cd565b6105bc7f84905766cacc5e5b4b84fe470bd856dcd6666b0eaede38aabdba8cc89ff1a46660001b6104cd565b6000828260208110156105ce57600080fd5b8101908080359060200190929190505050905061060d7f29a77629e8775e2c3e716215a44288f99c04e2301c11e44f284f5e727bbfe76460001b6104cd565b6106397ffe1267ef9dd0e0e0a31d210a0a1551dcb55c764a4562c8412ae72522daabfe8660001b6104cd565b8373ffffffffffffffffffffffffffffffffffffffff168573ffffffffffffffffffffffffffffffffffffffff168773ffffffffffffffffffffffffffffffffffffffff167f9b217a401a5ddf7c4d474074aff9958a18d48690d77cc2151c4706aa7348b401846040518082815260200191505060405180910390a46106e17f3c8e57fdc6d8f609ff1f107d582918703db7041c43df356768dfd28075d2e96860001b6104cd565b61070d7f09376c30492eebf3f9459cb19863a2cbefe87e126ea450541ab248868ba76a0a60001b6104cd565b61073a8630838773ffffffffffffffffffffffffffffffffffffffff16610cfd909392919063ffffffff16565b505050505050565b600033905090565b6107767fa66cd262b1cbafd12dc4fa251cfb45bbe3cfde689a8ed12aa5d5d819a71c83f960001b6102f9565b6107a27fd63e99cbaf6096984168b48e3ce33f13fb37a8e024ea2ba15bba8c0de81d824c60001b6102f9565b6107ce7fcae7ee65aa6ac54529286b688451c9d9d7aea8234dcadb7ea64f03864202b27460001b6102f9565b6107fa7fd52a2e1d9ffdb0fc240ab8a9a0dba7c1f56c982d1c7dbccfa310d1e3f5655fa560001b6102f9565b60008054906101000a900473ffffffffffffffffffffffffffffffffffffffff1673ffffffffffffffffffffffffffffffffffffffff168173ffffffffffffffffffffffffffffffffffffffff16146108bb576040517f08c379a00000000000000000000000000000000000000000000000000000000081526004018080602001828103825260178152602001807f5072656469636174653a206f6e6c79206d616e6167657200000000000000000081525060200191505060405180910390fd5b6108e77f4e7c9920e374d97b4e8d02c74396bd9c84dfc4751ba9bb321605a32f5125eb1a60001b6102f9565b50565b6000806109197faa4e5261abea8cf03ad71e932de0a0d2d7f9b05adafbfd61baa433b67151bd6c60001b6102f9565b6109457f8aba95d8a242e2f9bcd13a22f080db77c727284f877cf066d040c07e5eacb28560001b6102f9565b6109717f42a8b285f9866052eee636cfd471749b3cf07648b26b486fa8c18289ca8dcf1260001b6102f9565b600061098461097f85610dbe565b610e63565b90506109b27faf6fbf9886e69252740f07358ec703f53cd0adc3615d94fda1d3c1f6d471766f60001b6102f9565b6109de7f2b5dfe431aa4dcbd024eca7f24e180370698e318e6d50e8ebb07b558a422151c60001b6102f9565b60006109fd826001815181106109f057fe5b6020026020010151610e63565b9050610a2b7f2fd1f6d6675c7b0e4c02784547240470ce0d9db9da186629451aa4d85414ab1060001b6102f9565b610a577f3db6f2c764b4c92f8d4f9de349546b36a0ab1f816a0b92ab5e223c15cd96e7db60001b6102f9565b610a837f1649a8f60380097b4eb33f1c0c5b82524569124875a81a8ec737bf4af517365460001b6102f9565b7f7084f5476618d8e60b11ef0d7d3f06914655adb8793e28ff7f018d4c76d505d560001b610ac482600081518110610ab757fe5b602002602001015161104b565b60001b14610b3a576040517f08c379a000000000000000000000000000000000000000000000000000000000815260040180806020018281038252601c8152602001807f5072656469636174653a20696e76616c6964207369676e61747572650000000081525060200191505060405180910390fd5b610b667f26abadce7a7d385f3081ad625abe66a2852a09ed592dd22adecef76db25f0a0760001b6102f9565b610b927f7915461540fb75eb3d4325b429116a42e00cfd337429e366f84864044d2f92c960001b6102f9565b610bbe7f405ebd00bc73f862cfb96c9ad9a8cbb290c6d948d777e1c6322b136ef452c04d60001b6102f9565b610bdb82600281518110610bce57fe5b602002602001015161121d565b9350610c097fffedace0e3d4ff3dd8bcb524750ba43ff1e2da33770391b429159cec189a919060001b6102f9565b610c357ff86a8d75a24507099c30998fec106b13a672c20ea1e9887d0af4aed82b4865ac60001b6102f9565b610c5282600381518110610c4557fe5b602002602001015161104b565b92505050915091565b610cf88363a9059cbb60e01b8484604051602401808373ffffffffffffffffffffffffffffffffffffffff16815260200182815260200192505050604051602081830303815290604052907bffffffffffffffffffffffffffffffffffffffffffffffffffffffff19166020820180517bffffffffffffffffffffffffffffffffffffffffffffffffffffffff8381831617835250505050611325565b505050565b610db8846323b872dd60e01b858585604051602401808473ffffffffffffffffffffffffffffffffffffffff1681526020018373ffffffffffffffffffffffffffffffffffffffff1681526020018281526020019350505050604051602081830303815290604052907bffffffffffffffffffffffffffffffffffffffffffffffffffffffff19166020820180517bffffffffffffffffffffffffffffffffffffffffffffffffffffffff8381831617835250505050611325565b50505050565b610dc6611808565b6000825111610e3d576040517f08c379a000000000000000000000000000000000000000000000000000000000815260040180806020018281038252601f8152602001807f524c505265616465723a20494e56414c49445f42595445535f4c454e4754480081525060200191505060405180910390fd5b600060208301905060405180604001604052808451815260200182815250915050919050565b6060610e6e826115aa565b610ee0576040517f08c379a00000000000000000000000000000000000000000000000000000000081526004018080602001828103825260128152602001807f524c503a204954454d5f4e4f545f4c495354000000000000000000000000000081525060200191505060405180910390fd5b6000610eeb836115e3565b905060008167ffffffffffffffff81118015610f0657600080fd5b50604051908082528060200260200182016040528015610f4057816020015b610f2d611808565b815260200190600190039081610f255790505b5090506000610f5285602001516116b4565b905084600001518114610fcd576040517f08c379a00000000000000000000000000000000000000000000000000000000081526004018080602001828103825260198152602001807f524c503a204c4953545f4c454e4754485f4d49534d415443480000000000000081525060200191505060405180910390fd5b6000610fdc866020015161176c565b8660200151019050600080600090505b8581101561103d57610ffd836116b4565b915060405180604001604052808381526020018481525085828151811061102057fe5b602002602001018190525081830192508080600101915050610fec565b508395505050505050919050565b6000611056826115aa565b156110c9576040517f08c379a000000000000000000000000000000000000000000000000000000000815260040180806020018281038252601a8152602001807f524c503a204445434f44494e475f4c4953545f41535f55494e5400000000000081525060200191505060405180910390fd5b602182600001511115611144576040517f08c379a00000000000000000000000000000000000000000000000000000000081526004018080602001828103825260158152602001807f524c503a20494e56414c49445f55494e545f4c454e000000000000000000000081525060200191505060405180910390fd5b600061115383602001516116b4565b9050826000015181146111ce576040517f08c379a00000000000000000000000000000000000000000000000000000000081526004018080602001828103825260168152602001807f524c503a2055494e545f4c454e5f4d49534d415443480000000000000000000081525060200191505060405180910390fd5b60006111dd846020015161176c565b9050600081856000015103905060008083876020015101905080519150602083101561121057826020036101000a820491505b8195505050505050919050565b6000611228826115aa565b1561129b576040517f08c379a000000000000000000000000000000000000000000000000000000000815260040180806020018281038252601d8152602001807f524c503a204445434f44494e475f4c4953545f41535f4144445245535300000081525060200191505060405180910390fd5b6015826000015114611315576040517f08c379a00000000000000000000000000000000000000000000000000000000081526004018080602001828103825260188152602001807f524c503a20494e56414c49445f414444524553535f4c454e000000000000000081525060200191505060405180910390fd5b61131e8261104b565b9050919050565b60008290506113498173ffffffffffffffffffffffffffffffffffffffff166117f5565b6113bb576040517f08c379a000000000000000000000000000000000000000000000000000000000815260040180806020018281038252601a8152602001807f4552433230577261707065723a206e6f6e2d636f6e747261637400000000000081525060200191505060405180910390fd5b6000808273ffffffffffffffffffffffffffffffffffffffff16846040518082805190602001908083835b6020831061140957805182526020820191506020810190506020830392506113e6565b6001836020036101000a0380198251168184511680821785525050505050509050019150506000604051808303816000865af19150503d806000811461146b576040519150601f19603f3d011682016040523d82523d6000602084013e611470565b606091505b5091509150811561152257600081511461151d5780806020019051602081101561149957600080fd5b810190808051906020019092919050505061151c576040517f08c379a000000000000000000000000000000000000000000000000000000000815260040180806020018281038252601e8152602001807f4552433230577261707065723a206f7065726174696f6e206661696c6564000081525060200191505060405180910390fd5b5b6115a3565b60008151141561159a576040517f08c379a000000000000000000000000000000000000000000000000000000000815260040180806020018281038252601e8152602001807f4552433230577261707065723a206f7065726174696f6e206661696c6564000081525060200191505060405180910390fd5b80518082602001fd5b5050505050565b600080600083602001519050805160001a915060c060ff168260ff1610156115d7576000925050506115de565b6001925050505b919050565b6000806000905060006115f9846020015161176c565b84602001510190506000846000015185602001510190505b808210156116a957611622826116b4565b820191508082111561169c576040517f08c379a000000000000000000000000000000000000000000000000000000000815260040180806020018281038252601b8152602001807f524c503a204e554d5f4954454d535f4c454e5f4d49534d41544348000000000081525060200191505060405180910390fd5b8280600101935050611611565b829350505050919050565b6000806000835160001a9050608060ff168110156116d55760019150611762565b60b860ff168110156116f2576001608060ff168203019150611761565b60c060ff168110156117225760b78103600185019450806020036101000a85510460018201810193505050611760565b60f860ff1681101561173f57600160c060ff16820301915061175f565b60f78103600185019450806020036101000a855104600182018101935050505b5b5b5b8192505050919050565b600080825160001a9050608060ff1681101561178c5760009150506117f0565b60b860ff168110806117b1575060c060ff1681101580156117b0575060f860ff1681105b5b156117c05760019150506117f0565b60c060ff168110156117e05760018060b80360ff168203019150506117f0565b60018060f80360ff168203019150505b919050565b600080823b905060008111915050919050565b60405180604001604052806000815260200160008152509056fea264697066735822122093d230d25e56d704eb7aec73c9381b32eefbefd7e3ba46c12acad0ed40c828e264736f6c63430007060033",
  "linkReferences": {},
  "deployedLinkReferences": {}
}