{
  "_format": "hh-sol-artifact-1",
  "contractName": "ERC1155721InventoryPausableMock",
  "sourceName": "contracts/mocks/token/ERC1155721/ERC1155721InventoryPausableMock.sol",
  "abi": [
    {
      "inputs": [],
      "stateMutability": "nonpayable",
      "type": "constructor"
    },
    {
      "anonymous": false,
      "inputs": [
        {
          "indexed": true,
          "internalType": "address",
          "name": "_owner",
          "type": "address"
        },
        {
          "indexed": true,
          "internalType": "address",
          "name": "_approved",
          "type": "address"
        },
        {
          "indexed": true,
          "internalType": "uint256",
          "name": "_tokenId",
          "type": "uint256"
        }
      ],
      "name": "Approval",
      "type": "event"
    },
    {
      "anonymous": false,
      "inputs": [
        {
          "indexed": true,
          "internalType": "address",
          "name": "_owner",
          "type": "address"
        },
        {
          "indexed": true,
          "internalType": "address",
          "name": "_operator",
          "type": "address"
        },
        {
          "indexed": false,
          "internalType": "bool",
          "name": "_approved",
          "type": "bool"
        }
      ],
      "name": "ApprovalForAll",
      "type": "event"
    },
    {
      "anonymous": false,
      "inputs": [
        {
          "indexed": false,
          "internalType": "string",
          "name": "baseMetadataURI",
          "type": "string"
        }
      ],
      "name": "BaseMetadataURISet",
      "type": "event"
    },
    {
      "anonymous": false,
      "inputs": [
        {
          "indexed": true,
          "internalType": "uint256",
          "name": "collectionId",
          "type": "uint256"
        },
        {
          "indexed": true,
          "internalType": "bool",
          "name": "fungible",
          "type": "bool"
        }
      ],
      "name": "CollectionCreated",
      "type": "event"
    },
    {
      "anonymous": false,
      "inputs": [
        {
          "indexed": true,
          "internalType": "address",
          "name": "account",
          "type": "address"
        }
      ],
      "name": "MinterAdded",
      "type": "event"
    },
    {
      "anonymous": false,
      "inputs": [
        {
          "indexed": true,
          "internalType": "address",
          "name": "account",
          "type": "address"
        }
      ],
      "name": "MinterRemoved",
      "type": "event"
    },
    {
      "anonymous": false,
      "inputs": [
        {
          "indexed": true,
          "internalType": "address",
          "name": "previousOwner",
          "type": "address"
        },
        {
          "indexed": true,
          "internalType": "address",
          "name": "newOwner",
          "type": "address"
        }
      ],
      "name": "OwnershipTransferred",
      "type": "event"
    },
    {
      "anonymous": false,
      "inputs": [
        {
          "indexed": false,
          "internalType": "address",
          "name": "account",
          "type": "address"
        }
      ],
      "name": "Paused",
      "type": "event"
    },
    {
      "anonymous": false,
      "inputs": [
        {
          "indexed": true,
          "internalType": "address",
          "name": "_from",
          "type": "address"
        },
        {
          "indexed": true,
          "internalType": "address",
          "name": "_to",
          "type": "address"
        },
        {
          "indexed": true,
          "internalType": "uint256",
          "name": "_tokenId",
          "type": "uint256"
        }
      ],
      "name": "Transfer",
      "type": "event"
    },
    {
      "anonymous": false,
      "inputs": [
        {
          "indexed": true,
          "internalType": "address",
          "name": "_operator",
          "type": "address"
        },
        {
          "indexed": true,
          "internalType": "address",
          "name": "_from",
          "type": "address"
        },
        {
          "indexed": true,
          "internalType": "address",
          "name": "_to",
          "type": "address"
        },
        {
          "indexed": false,
          "internalType": "uint256[]",
          "name": "_ids",
          "type": "uint256[]"
        },
        {
          "indexed": false,
          "internalType": "uint256[]",
          "name": "_values",
          "type": "uint256[]"
        }
      ],
      "name": "TransferBatch",
      "type": "event"
    },
    {
      "anonymous": false,
      "inputs": [
        {
          "indexed": true,
          "internalType": "address",
          "name": "_operator",
          "type": "address"
        },
        {
          "indexed": true,
          "internalType": "address",
          "name": "_from",
          "type": "address"
        },
        {
          "indexed": true,
          "internalType": "address",
          "name": "_to",
          "type": "address"
        },
        {
          "indexed": false,
          "internalType": "uint256",
          "name": "_id",
          "type": "uint256"
        },
        {
          "indexed": false,
          "internalType": "uint256",
          "name": "_value",
          "type": "uint256"
        }
      ],
      "name": "TransferSingle",
      "type": "event"
    },
    {
      "anonymous": false,
      "inputs": [
        {
          "indexed": false,
          "internalType": "string",
          "name": "_value",
          "type": "string"
        },
        {
          "indexed": true,
          "internalType": "uint256",
          "name": "_id",
          "type": "uint256"
        }
      ],
      "name": "URI",
      "type": "event"
    },
    {
      "anonymous": false,
      "inputs": [
        {
          "indexed": false,
          "internalType": "address",
          "name": "account",
          "type": "address"
        }
      ],
      "name": "Unpaused",
      "type": "event"
    },
    {
      "inputs": [
        {
          "internalType": "address",
          "name": "account",
          "type": "address"
        }
      ],
      "name": "addMinter",
      "outputs": [],
      "stateMutability": "nonpayable",
      "type": "function"
    },
    {
      "inputs": [
        {
          "internalType": "address",
          "name": "to",
          "type": "address"
        },
        {
          "internalType": "uint256",
          "name": "nftId",
          "type": "uint256"
        }
      ],
      "name": "approve",
      "outputs": [],
      "stateMutability": "nonpayable",
      "type": "function"
    },
    {
      "inputs": [
        {
          "internalType": "address",
          "name": "owner",
          "type": "address"
        },
        {
          "internalType": "uint256",
          "name": "id",
          "type": "uint256"
        }
      ],
      "name": "balanceOf",
      "outputs": [
        {
          "internalType": "uint256",
          "name": "",
          "type": "uint256"
        }
      ],
      "stateMutability": "view",
      "type": "function"
    },
    {
      "inputs": [
        {
          "internalType": "address",
          "name": "tokenOwner",
          "type": "address"
        }
      ],
      "name": "balanceOf",
      "outputs": [
        {
          "internalType": "uint256",
          "name": "",
          "type": "uint256"
        }
      ],
      "stateMutability": "view",
      "type": "function"
    },
    {
      "inputs": [
        {
          "internalType": "address[]",
          "name": "owners",
          "type": "address[]"
        },
        {
          "internalType": "uint256[]",
          "name": "ids",
          "type": "uint256[]"
        }
      ],
      "name": "balanceOfBatch",
      "outputs": [
        {
          "internalType": "uint256[]",
          "name": "",
          "type": "uint256[]"
        }
      ],
      "stateMutability": "view",
      "type": "function"
    },
    {
      "inputs": [],
      "name": "baseMetadataURI",
      "outputs": [
        {
          "internalType": "string",
          "name": "",
          "type": "string"
        }
      ],
      "stateMutability": "view",
      "type": "function"
    },
    {
      "inputs": [
        {
          "internalType": "address",
          "name": "from",
          "type": "address"
        },
        {
          "internalType": "uint256[]",
          "name": "ids",
          "type": "uint256[]"
        },
        {
          "internalType": "uint256[]",
          "name": "values",
          "type": "uint256[]"
        }
      ],
      "name": "batchBurnFrom",
      "outputs": [],
      "stateMutability": "nonpayable",
      "type": "function"
    },
    {
      "inputs": [
        {
          "internalType": "address",
          "name": "from",
          "type": "address"
        },
        {
          "internalType": "uint256[]",
          "name": "nftIds",
          "type": "uint256[]"
        }
      ],
      "name": "batchBurnFrom",
      "outputs": [],
      "stateMutability": "nonpayable",
      "type": "function"
    },
    {
      "inputs": [
        {
          "internalType": "address",
          "name": "to",
          "type": "address"
        },
        {
          "internalType": "uint256[]",
          "name": "nftIds",
          "type": "uint256[]"
        }
      ],
      "name": "batchMint",
      "outputs": [],
      "stateMutability": "nonpayable",
      "type": "function"
    },
    {
      "inputs": [
        {
          "internalType": "address",
          "name": "from",
          "type": "address"
        },
        {
          "internalType": "address",
          "name": "to",
          "type": "address"
        },
        {
          "internalType": "uint256[]",
          "name": "nftIds",
          "type": "uint256[]"
        }
      ],
      "name": "batchTransferFrom",
      "outputs": [],
      "stateMutability": "nonpayable",
      "type": "function"
    },
    {
      "inputs": [
        {
          "internalType": "address",
          "name": "from",
          "type": "address"
        },
        {
          "internalType": "uint256",
          "name": "id",
          "type": "uint256"
        },
        {
          "internalType": "uint256",
          "name": "value",
          "type": "uint256"
        }
      ],
      "name": "burnFrom",
      "outputs": [],
      "stateMutability": "nonpayable",
      "type": "function"
    },
    {
      "inputs": [
        {
          "internalType": "bytes32",
          "name": "c__0x07286c90",
          "type": "bytes32"
        }
      ],
      "name": "c_0x07286c90",
      "outputs": [],
      "stateMutability": "pure",
      "type": "function"
    },
    {
      "inputs": [
        {
          "internalType": "bytes32",
          "name": "c__0x31017afb",
          "type": "bytes32"
        }
      ],
      "name": "c_0x31017afb",
      "outputs": [],
      "stateMutability": "pure",
      "type": "function"
    },
    {
      "inputs": [
        {
          "internalType": "bytes32",
          "name": "c__0x35a5fcd7",
          "type": "bytes32"
        }
      ],
      "name": "c_0x35a5fcd7",
      "outputs": [],
      "stateMutability": "pure",
      "type": "function"
    },
    {
      "inputs": [
        {
          "internalType": "bytes32",
          "name": "c__0x9329567f",
          "type": "bytes32"
        }
      ],
      "name": "c_0x9329567f",
      "outputs": [],
      "stateMutability": "pure",
      "type": "function"
    },
    {
      "inputs": [
        {
          "internalType": "bytes32",
          "name": "c__0xd0bb1625",
          "type": "bytes32"
        }
      ],
      "name": "c_0xd0bb1625",
      "outputs": [],
      "stateMutability": "pure",
      "type": "function"
    },
    {
      "inputs": [
        {
          "internalType": "bytes32",
          "name": "c__0xee675642",
          "type": "bytes32"
        }
      ],
      "name": "c_0xee675642",
      "outputs": [],
      "stateMutability": "pure",
      "type": "function"
    },
    {
      "inputs": [
        {
          "internalType": "uint256",
          "name": "nftId",
          "type": "uint256"
        }
      ],
      "name": "collectionOf",
      "outputs": [
        {
          "internalType": "uint256",
          "name": "",
          "type": "uint256"
        }
      ],
      "stateMutability": "pure",
      "type": "function"
    },
    {
      "inputs": [
        {
          "internalType": "uint256",
          "name": "collectionId",
          "type": "uint256"
        }
      ],
      "name": "createCollection",
      "outputs": [],
      "stateMutability": "nonpayable",
      "type": "function"
    },
    {
      "inputs": [
        {
          "internalType": "uint256",
          "name": "collectionId",
          "type": "uint256"
        }
      ],
      "name": "creator",
      "outputs": [
        {
          "internalType": "address",
          "name": "",
          "type": "address"
        }
      ],
      "stateMutability": "view",
      "type": "function"
    },
    {
      "inputs": [
        {
          "internalType": "uint256",
          "name": "nftId",
          "type": "uint256"
        }
      ],
      "name": "getApproved",
      "outputs": [
        {
          "internalType": "address",
          "name": "",
          "type": "address"
        }
      ],
      "stateMutability": "view",
      "type": "function"
    },
    {
      "inputs": [
        {
          "internalType": "address",
          "name": "tokenOwner",
          "type": "address"
        },
        {
          "internalType": "address",
          "name": "operator",
          "type": "address"
        }
      ],
      "name": "isApprovedForAll",
      "outputs": [
        {
          "internalType": "bool",
          "name": "",
          "type": "bool"
        }
      ],
      "stateMutability": "view",
      "type": "function"
    },
    {
      "inputs": [
        {
          "internalType": "uint256",
          "name": "id",
          "type": "uint256"
        }
      ],
      "name": "isFungible",
      "outputs": [
        {
          "internalType": "bool",
          "name": "",
          "type": "bool"
        }
      ],
      "stateMutability": "pure",
      "type": "function"
    },
    {
      "inputs": [
        {
          "internalType": "address",
          "name": "",
          "type": "address"
        }
      ],
      "name": "isMinter",
      "outputs": [
        {
          "internalType": "bool",
          "name": "",
          "type": "bool"
        }
      ],
      "stateMutability": "view",
      "type": "function"
    },
    {
      "inputs": [
        {
          "internalType": "address",
          "name": "to",
          "type": "address"
        },
        {
          "internalType": "uint256",
          "name": "nftId",
          "type": "uint256"
        }
      ],
      "name": "mint",
      "outputs": [],
      "stateMutability": "nonpayable",
      "type": "function"
    },
    {
      "inputs": [],
      "name": "name",
      "outputs": [
        {
          "internalType": "string",
          "name": "",
          "type": "string"
        }
      ],
      "stateMutability": "view",
      "type": "function"
    },
    {
      "inputs": [],
      "name": "owner",
      "outputs": [
        {
          "internalType": "address",
          "name": "",
          "type": "address"
        }
      ],
      "stateMutability": "view",
      "type": "function"
    },
    {
      "inputs": [
        {
          "internalType": "uint256",
          "name": "nftId",
          "type": "uint256"
        }
      ],
      "name": "ownerOf",
      "outputs": [
        {
          "internalType": "address",
          "name": "",
          "type": "address"
        }
      ],
      "stateMutability": "view",
      "type": "function"
    },
    {
      "inputs": [],
      "name": "pause",
      "outputs": [],
      "stateMutability": "nonpayable",
      "type": "function"
    },
    {
      "inputs": [],
      "name": "paused",
      "outputs": [
        {
          "internalType": "bool",
          "name": "",
          "type": "bool"
        }
      ],
      "stateMutability": "view",
      "type": "function"
    },
    {
      "inputs": [],
      "name": "renounceMinter",
      "outputs": [],
      "stateMutability": "nonpayable",
      "type": "function"
    },
    {
      "inputs": [
        {
          "internalType": "address",
          "name": "to",
          "type": "address"
        },
        {
          "internalType": "uint256[]",
          "name": "ids",
          "type": "uint256[]"
        },
        {
          "internalType": "uint256[]",
          "name": "values",
          "type": "uint256[]"
        },
        {
          "internalType": "bytes",
          "name": "data",
          "type": "bytes"
        }
      ],
      "name": "safeBatchMint",
      "outputs": [],
      "stateMutability": "nonpayable",
      "type": "function"
    },
    {
      "inputs": [
        {
          "internalType": "address",
          "name": "from",
          "type": "address"
        },
        {
          "internalType": "address",
          "name": "to",
          "type": "address"
        },
        {
          "internalType": "uint256[]",
          "name": "ids",
          "type": "uint256[]"
        },
        {
          "internalType": "uint256[]",
          "name": "values",
          "type": "uint256[]"
        },
        {
          "internalType": "bytes",
          "name": "data",
          "type": "bytes"
        }
      ],
      "name": "safeBatchTransferFrom",
      "outputs": [],
      "stateMutability": "nonpayable",
      "type": "function"
    },
    {
      "inputs": [
        {
          "internalType": "address[]",
          "name": "recipients",
          "type": "address[]"
        },
        {
          "internalType": "uint256[]",
          "name": "ids",
          "type": "uint256[]"
        },
        {
          "internalType": "uint256[]",
          "name": "values",
          "type": "uint256[]"
        },
        {
          "internalType": "bytes",
          "name": "data",
          "type": "bytes"
        }
      ],
      "name": "safeDeliver",
      "outputs": [],
      "stateMutability": "nonpayable",
      "type": "function"
    },
    {
      "inputs": [
        {
          "internalType": "address",
          "name": "to",
          "type": "address"
        },
        {
          "internalType": "uint256",
          "name": "id",
          "type": "uint256"
        },
        {
          "internalType": "uint256",
          "name": "value",
          "type": "uint256"
        },
        {
          "internalType": "bytes",
          "name": "data",
          "type": "bytes"
        }
      ],
      "name": "safeMint",
      "outputs": [],
      "stateMutability": "nonpayable",
      "type": "function"
    },
    {
      "inputs": [
        {
          "internalType": "address",
          "name": "to",
          "type": "address"
        },
        {
          "internalType": "uint256",
          "name": "nftId",
          "type": "uint256"
        },
        {
          "internalType": "bytes",
          "name": "data",
          "type": "bytes"
        }
      ],
      "name": "safeMint",
      "outputs": [],
      "stateMutability": "nonpayable",
      "type": "function"
    },
    {
      "inputs": [
        {
          "internalType": "address",
          "name": "from",
          "type": "address"
        },
        {
          "internalType": "address",
          "name": "to",
          "type": "address"
        },
        {
          "internalType": "uint256",
          "name": "nftId",
          "type": "uint256"
        }
      ],
      "name": "safeTransferFrom",
      "outputs": [],
      "stateMutability": "nonpayable",
      "type": "function"
    },
    {
      "inputs": [
        {
          "internalType": "address",
          "name": "from",
          "type": "address"
        },
        {
          "internalType": "address",
          "name": "to",
          "type": "address"
        },
        {
          "internalType": "uint256",
          "name": "nftId",
          "type": "uint256"
        },
        {
          "internalType": "bytes",
          "name": "data",
          "type": "bytes"
        }
      ],
      "name": "safeTransferFrom",
      "outputs": [],
      "stateMutability": "nonpayable",
      "type": "function"
    },
    {
      "inputs": [
        {
          "internalType": "address",
          "name": "from",
          "type": "address"
        },
        {
          "internalType": "address",
          "name": "to",
          "type": "address"
        },
        {
          "internalType": "uint256",
          "name": "id",
          "type": "uint256"
        },
        {
          "internalType": "uint256",
          "name": "value",
          "type": "uint256"
        },
        {
          "internalType": "bytes",
          "name": "data",
          "type": "bytes"
        }
      ],
      "name": "safeTransferFrom",
      "outputs": [],
      "stateMutability": "nonpayable",
      "type": "function"
    },
    {
      "inputs": [
        {
          "internalType": "address",
          "name": "operator",
          "type": "address"
        },
        {
          "internalType": "bool",
          "name": "approved",
          "type": "bool"
        }
      ],
      "name": "setApprovalForAll",
      "outputs": [],
      "stateMutability": "nonpayable",
      "type": "function"
    },
    {
      "inputs": [
        {
          "internalType": "string",
          "name": "baseMetadataURI_",
          "type": "string"
        }
      ],
      "name": "setBaseMetadataURI",
      "outputs": [],
      "stateMutability": "nonpayable",
      "type": "function"
    },
    {
      "inputs": [
        {
          "internalType": "bytes4",
          "name": "interfaceId",
          "type": "bytes4"
        }
      ],
      "name": "supportsInterface",
      "outputs": [
        {
          "internalType": "bool",
          "name": "",
          "type": "bool"
        }
      ],
      "stateMutability": "view",
      "type": "function"
    },
    {
      "inputs": [],
      "name": "symbol",
      "outputs": [
        {
          "internalType": "string",
          "name": "",
          "type": "string"
        }
      ],
      "stateMutability": "view",
      "type": "function"
    },
    {
      "inputs": [
        {
          "internalType": "uint256",
          "name": "nftId",
          "type": "uint256"
        }
      ],
      "name": "tokenURI",
      "outputs": [
        {
          "internalType": "string",
          "name": "",
          "type": "string"
        }
      ],
      "stateMutability": "view",
      "type": "function"
    },
    {
      "inputs": [
        {
          "internalType": "uint256",
          "name": "id",
          "type": "uint256"
        }
      ],
      "name": "totalSupply",
      "outputs": [
        {
          "internalType": "uint256",
          "name": "",
          "type": "uint256"
        }
      ],
      "stateMutability": "view",
      "type": "function"
    },
    {
      "inputs": [
        {
          "internalType": "address",
          "name": "from",
          "type": "address"
        },
        {
          "internalType": "address",
          "name": "to",
          "type": "address"
        },
        {
          "internalType": "uint256",
          "name": "nftId",
          "type": "uint256"
        }
      ],
      "name": "transferFrom",
      "outputs": [],
      "stateMutability": "nonpayable",
      "type": "function"
    },
    {
      "inputs": [
        {
          "internalType": "address",
          "name": "newOwner",
          "type": "address"
        }
      ],
      "name": "transferOwnership",
      "outputs": [],
      "stateMutability": "nonpayable",
      "type": "function"
    },
    {
      "inputs": [],
      "name": "unpause",
      "outputs": [],
      "stateMutability": "nonpayable",
      "type": "function"
    },
    {
      "inputs": [
        {
          "internalType": "uint256",
          "name": "id",
          "type": "uint256"
        }
      ],
      "name": "uri",
      "outputs": [
        {
          "internalType": "string",
          "name": "",
          "type": "string"
        }
      ],
      "stateMutability": "view",
      "type": "function"
    }
  ],
  "bytecode": "0x60806040523480156200001157600080fd5b5033806040518060400160405280601f81526020017f45524331313535373231496e76656e746f72794275726e61626c654d6f636b008152506040518060400160405280600481526020017f494e5642000000000000000000000000000000000000000000000000000000008152506000806000806101000a81548160ff02191690831515021790555050620000d07f7b1530c4658960e36e5aefe8c405a8888fc571e0ea1c48c05fa88aee9b57929960001b620002f160201b60201c565b620001047fa0cdbe650e65549ddeb29c514fa934ffca3d6af80f7afb71e3645bc28fe9537a60001b620002f160201b60201c565b620001387f6da00422563bc6ab5a9c0356e4b0dd5fb4ed97beef90be03b4df9dafaf4fac2d60001b620002f160201b60201c565b81600690805190602001906200015092919062000398565b50620001857fb7ee72aa608a57d42937f47be23bbe32fc09f2807b1862725cc66cb6f3ecdcb060001b620002f160201b60201c565b620001b97fac8ecf0cd61995f998d463b71da9850ff484dbb3ade5de5bea50b236c4e4d91e60001b620002f160201b60201c565b8060079080519060200190620001d192919062000398565b50505080600a60006101000a81548173ffffffffffffffffffffffffffffffffffffffff021916908373ffffffffffffffffffffffffffffffffffffffff1602179055508073ffffffffffffffffffffffffffffffffffffffff16600073ffffffffffffffffffffffffffffffffffffffff167f8be0079c531659141344cd1fd0a4f28419497f9722a3daafe3b4186f6b6457e060405160405180910390a3506200028281620002f460201b60201c565b50620002b77f0c5e89d83e9c93706a285d4341266d569ef1fad4bb328e2074277db27638b32a60001b6200039260201b60201c565b620002eb7fd0a99449909e2c2d0b97e10aaa5e457ca47198d73499172e29089a7c9868c25360001b6200039560201b60201c565b6200044e565b50565b6001600c60008373ffffffffffffffffffffffffffffffffffffffff1673ffffffffffffffffffffffffffffffffffffffff16815260200190815260200160002060006101000a81548160ff0219169083151502179055508073ffffffffffffffffffffffffffffffffffffffff167f6ae172837ea30b801fbfcdd4108aa1d5bf8ff775444fd70256b44e6bf3dfc3f660405160405180910390a250565b50565b50565b828054600181600116156101000203166002900490600052602060002090601f016020900481019282620003d057600085556200041c565b82601f10620003eb57805160ff19168380011785556200041c565b828001600101855582156200041c579182015b828111156200041b578251825591602001919060010190620003fe565b5b5090506200042b91906200042f565b5090565b5b808211156200044a57600081600090555060010162000430565b5090565b620149e8806200045f6000396000f3fe60806040523480156200001157600080fd5b50600436106200037b5760003560e01c806371c8a47b11620001dd578063aa271e1a1162000111578063d0011d9d11620000b1578063f242432a1162000087578063f242432a1462001b50578063f24729651462001c65578063f2fde38b1462001d43578063f3993d111462001d8a576200037b565b8063d0011d9d146200191b578063e8ab9ccc146200194c578063e985e9c51462001ad3576200037b565b8063bd85b03911620000e7578063bd85b03914620017e4578063c7778baa1462001829578063c87b56dd146200186e576200037b565b8063aa271e1a1462001635578063adebf6f21462001692578063b88d4fde14620016d9576200037b565b80638da5cb5b116200017d578063983b2d561162000153578063983b2d56146200158f5780639865027514620015d6578063a22cb46514620015e2576200037b565b80638da5cb5b14620014a057806395d89b4114620014d65780639739b594146200155e576200037b565b806380ecdc1f11620001b357806380ecdc1f14620013785780638456cb5914620013a95780638832e6e314620013b5576200037b565b806371c8a47b14620011535780637e518ec81462001184578063805349341462001203576200037b565b806340c10f1911620002b55780635423eb1c11620002555780635cfa9297116200022b5780635cfa92971462000fa85780636352211e146200109d57806370a0823114620010f8576200037b565b80635423eb1c1462000ecd5780635b2bd79e1462000efe5780635c975abb1462000f86576200037b565b80634de67cb9116200028b5780634de67cb91462000d135780634e1273f41462000d44578063510b51581462000e72576200037b565b806340c10f191462000b7357806342842e0e1462000bc45780634684d7e91462000c35576200037b565b80630e89341c116200032157806323b872dd11620002f757806323b872dd14620008c75780632eb2c2d614620009385780633f4ba83a1462000b67576200037b565b80630e89341c146200078e578063124d91e5146200083b5780631e5403ce1462000896576200037b565b8063081812fc1162000357578063081812fc14620004d3578063095ea7b3146200052e5780630d6a5bbb146200057f576200037b565b8062fdd58e146200038057806301ffc9a714620003e557806306fdde03146200044b575b600080fd5b620003cf600480360360408110156200039857600080fd5b81019080803573ffffffffffffffffffffffffffffffffffffffff1690602001909291908035906020019092919050505062001e88565b6040518082815260200191505060405180910390f35b6200043360048036036020811015620003fd57600080fd5b8101908080357bffffffffffffffffffffffffffffffffffffffffffffffffffffffff191690602001909291905050506200224c565b60405180821515815260200191505060405180910390f35b6200045562002353565b6040518080602001828103825283818151815260200191508051906020019080838360005b83811015620004975780820151818401526020810190506200047a565b50505050905090810190601f168015620004c55780820380516001836020036101000a031916815260200191505b509250505060405180910390f35b6200050260048036036020811015620004eb57600080fd5b810190808035906020019092919050505062002483565b604051808273ffffffffffffffffffffffffffffffffffffffff16815260200191505060405180910390f35b6200057d600480360360408110156200054657600080fd5b81019080803573ffffffffffffffffffffffffffffffffffffffff169060200190929190803590602001909291905050506200285b565b005b6200078c600480360360808110156200059757600080fd5b81019080803573ffffffffffffffffffffffffffffffffffffffff16906020019092919080359060200190640100000000811115620005d557600080fd5b820183602082011115620005e857600080fd5b803590602001918460208302840111640100000000831117156200060b57600080fd5b919080806020026020016040519081016040528093929190818152602001838360200280828437600081840152601f19601f820116905080830192505050505050509192919290803590602001906401000000008111156200066c57600080fd5b8201836020820111156200067f57600080fd5b80359060200191846020830284011164010000000083111715620006a257600080fd5b919080806020026020016040519081016040528093929190818152602001838360200280828437600081840152601f19601f820116905080830192505050505050509192919290803590602001906401000000008111156200070357600080fd5b8201836020820111156200071657600080fd5b803590602001918460018302840111640100000000831117156200073957600080fd5b91908080601f016020809104026020016040519081016040528093929190818152602001838380828437600081840152601f19601f82011690508083019250505050505050919291929050505062002d9a565b005b620007bd60048036036020811015620007a657600080fd5b810190808035906020019092919050505062002ea8565b6040518080602001828103825283818151815260200191508051906020019080838360005b83811015620007ff578082015181840152602081019050620007e2565b50505050905090810190601f1680156200082d5780820380516001836020036101000a031916815260200191505b509250505060405180910390f35b62000894600480360360608110156200085357600080fd5b81019080803573ffffffffffffffffffffffffffffffffffffffff169060200190929190803590602001909291908035906020019092919050505062002f46565b005b620008c560048036036020811015620008ae57600080fd5b810190808035906020019092919050505062003048565b005b6200093660048036036060811015620008df57600080fd5b81019080803573ffffffffffffffffffffffffffffffffffffffff169060200190929190803573ffffffffffffffffffffffffffffffffffffffff169060200190929190803590602001909291905050506200304b565b005b62000b65600480360360a08110156200095057600080fd5b81019080803573ffffffffffffffffffffffffffffffffffffffff169060200190929190803573ffffffffffffffffffffffffffffffffffffffff16906020019092919080359060200190640100000000811115620009ae57600080fd5b820183602082011115620009c157600080fd5b80359060200191846020830284011164010000000083111715620009e457600080fd5b919080806020026020016040519081016040528093929190818152602001838360200280828437600081840152601f19601f8201169050808301925050505050505091929192908035906020019064010000000081111562000a4557600080fd5b82018360208201111562000a5857600080fd5b8035906020019184602083028401116401000000008311171562000a7b57600080fd5b919080806020026020016040519081016040528093929190818152602001838360200280828437600081840152601f19601f8201169050808301925050505050505091929192908035906020019064010000000081111562000adc57600080fd5b82018360208201111562000aef57600080fd5b8035906020019184600183028401116401000000008311171562000b1257600080fd5b91908080601f016020809104026020016040519081016040528093929190818152602001838380828437600081840152601f19601f8201169050808301925050505050505091929192905050506200314d565b005b62000b7162003253565b005b62000bc26004803603604081101562000b8b57600080fd5b81019080803573ffffffffffffffffffffffffffffffffffffffff1690602001909291908035906020019092919050505062003359565b005b62000c336004803603606081101562000bdc57600080fd5b81019080803573ffffffffffffffffffffffffffffffffffffffff169060200190929190803573ffffffffffffffffffffffffffffffffffffffff1690602001909291908035906020019092919050505062003475565b005b62000d116004803603604081101562000c4d57600080fd5b81019080803573ffffffffffffffffffffffffffffffffffffffff1690602001909291908035906020019064010000000081111562000c8b57600080fd5b82018360208201111562000c9e57600080fd5b8035906020019184602083028401116401000000008311171562000cc157600080fd5b919080806020026020016040519081016040528093929190818152602001838360200280828437600081840152601f19601f82011690508083019250505050505050919291929050505062003577565b005b62000d426004803603602081101562000d2b57600080fd5b810190808035906020019092919050505062003681565b005b62000e196004803603604081101562000d5c57600080fd5b810190808035906020019064010000000081111562000d7a57600080fd5b82018360208201111562000d8d57600080fd5b8035906020019184602083028401116401000000008311171562000db057600080fd5b90919293919293908035906020019064010000000081111562000dd257600080fd5b82018360208201111562000de557600080fd5b8035906020019184602083028401116401000000008311171562000e0857600080fd5b909192939192939050505062003684565b6040518080602001828103825283818151815260200191508051906020019060200280838360005b8381101562000e5e57808201518184015260208101905062000e41565b505050509050019250505060405180910390f35b62000ea16004803603602081101562000e8a57600080fd5b810190808035906020019092919050505062003a30565b604051808273ffffffffffffffffffffffffffffffffffffffff16815260200191505060405180910390f35b62000efc6004803603602081101562000ee557600080fd5b810190808035906020019092919050505062003ace565b005b62000f0862003ad1565b6040518080602001828103825283818151815260200191508051906020019080838360005b8381101562000f4a57808201518184015260208101905062000f2d565b50505050905090810190601f16801562000f785780820380516001836020036101000a031916815260200191505b509250505060405180910390f35b62000f9062003b73565b60405180821515815260200191505060405180910390f35b6200109b6004803603608081101562000fc057600080fd5b81019080803573ffffffffffffffffffffffffffffffffffffffff1690602001909291908035906020019092919080359060200190929190803590602001906401000000008111156200101257600080fd5b8201836020820111156200102557600080fd5b803590602001918460018302840111640100000000831117156200104857600080fd5b91908080601f016020809104026020016040519081016040528093929190818152602001838380828437600081840152601f19601f82011690508083019250505050505050919291929050505062003b84565b005b620010cc60048036036020811015620010b557600080fd5b810190808035906020019092919050505062003c92565b604051808273ffffffffffffffffffffffffffffffffffffffff16815260200191505060405180910390f35b6200113d600480360360208110156200111057600080fd5b81019080803573ffffffffffffffffffffffffffffffffffffffff16906020019092919050505062003d30565b6040518082815260200191505060405180910390f35b62001182600480360360208110156200116b57600080fd5b810190808035906020019092919050505062003f5f565b005b62001201600480360360208110156200119c57600080fd5b8101908080359060200190640100000000811115620011ba57600080fd5b820183602082011115620011cd57600080fd5b80359060200191846001830284011164010000000083111715620011f057600080fd5b909192939192939050505062003f62565b005b62001376600480360360608110156200121b57600080fd5b81019080803573ffffffffffffffffffffffffffffffffffffffff169060200190929190803590602001906401000000008111156200125957600080fd5b8201836020820111156200126c57600080fd5b803590602001918460208302840111640100000000831117156200128f57600080fd5b919080806020026020016040519081016040528093929190818152602001838360200280828437600081840152601f19601f82011690508083019250505050505050919291929080359060200190640100000000811115620012f057600080fd5b8201836020820111156200130357600080fd5b803590602001918460208302840111640100000000831117156200132657600080fd5b919080806020026020016040519081016040528093929190818152602001838360200280828437600081840152601f19601f82011690508083019250505050505050919291929050505062004133565b005b620013a7600480360360208110156200139057600080fd5b810190808035906020019092919050505062004235565b005b620013b362004238565b005b6200149e60048036036060811015620013cd57600080fd5b81019080803573ffffffffffffffffffffffffffffffffffffffff16906020019092919080359060200190929190803590602001906401000000008111156200141557600080fd5b8201836020820111156200142857600080fd5b803590602001918460018302840111640100000000831117156200144b57600080fd5b91908080601f016020809104026020016040519081016040528093929190818152602001838380828437600081840152601f19601f8201169050808301925050505050505091929192905050506200433e565b005b620014aa6200444c565b604051808273ffffffffffffffffffffffffffffffffffffffff16815260200191505060405180910390f35b620014e062004476565b6040518080602001828103825283818151815260200191508051906020019080838360005b838110156200152257808201518184015260208101905062001505565b50505050905090810190601f168015620015505780820380516001836020036101000a031916815260200191505b509250505060405180910390f35b6200158d600480360360208110156200157657600080fd5b8101908080359060200190929190505050620045a6565b005b620015d460048036036020811015620015a757600080fd5b81019080803573ffffffffffffffffffffffffffffffffffffffff169060200190929190505050620045a9565b005b620015e0620045cb565b005b6200163360048036036040811015620015fa57600080fd5b81019080803573ffffffffffffffffffffffffffffffffffffffff16906020019092919080351515906020019092919050505062004682565b005b6200167a600480360360208110156200164d57600080fd5b81019080803573ffffffffffffffffffffffffffffffffffffffff16906020019092919050505062004a2d565b60405180821515815260200191505060405180910390f35b620016c160048036036020811015620016aa57600080fd5b810190808035906020019092919050505062004a4d565b60405180821515815260200191505060405180910390f35b620017e260048036036080811015620016f157600080fd5b81019080803573ffffffffffffffffffffffffffffffffffffffff169060200190929190803573ffffffffffffffffffffffffffffffffffffffff16906020019092919080359060200190929190803590602001906401000000008111156200175957600080fd5b8201836020820111156200176c57600080fd5b803590602001918460018302840111640100000000831117156200178f57600080fd5b91908080601f016020809104026020016040519081016040528093929190818152602001838380828437600081840152601f19601f82011690508083019250505050505050919291929050505062004aeb565b005b6200181360048036036020811015620017fc57600080fd5b810190808035906020019092919050505062004bef565b6040518082815260200191505060405180910390f35b62001858600480360360208110156200184157600080fd5b810190808035906020019092919050505062004e19565b6040518082815260200191505060405180910390f35b6200189d600480360360208110156200188657600080fd5b810190808035906020019092919050505062004fed565b6040518080602001828103825283818151815260200191508051906020019080838360005b83811015620018df578082015181840152602081019050620018c2565b50505050905090810190601f1680156200190d5780820380516001836020036101000a031916815260200191505b509250505060405180910390f35b6200194a600480360360208110156200193357600080fd5b8101908080359060200190929190505050620051fa565b005b62001ad1600480360360808110156200196457600080fd5b81019080803590602001906401000000008111156200198257600080fd5b8201836020820111156200199557600080fd5b80359060200191846020830284011164010000000083111715620019b857600080fd5b909192939192939080359060200190640100000000811115620019da57600080fd5b820183602082011115620019ed57600080fd5b8035906020019184602083028401116401000000008311171562001a1057600080fd5b90919293919293908035906020019064010000000081111562001a3257600080fd5b82018360208201111562001a4557600080fd5b8035906020019184602083028401116401000000008311171562001a6857600080fd5b90919293919293908035906020019064010000000081111562001a8a57600080fd5b82018360208201111562001a9d57600080fd5b8035906020019184600183028401116401000000008311171562001ac057600080fd5b909192939192939050505062005302565b005b62001b386004803603604081101562001aeb57600080fd5b81019080803573ffffffffffffffffffffffffffffffffffffffff169060200190929190803573ffffffffffffffffffffffffffffffffffffffff16906020019092919050505062005418565b60405180821515815260200191505060405180910390f35b62001c63600480360360a081101562001b6857600080fd5b81019080803573ffffffffffffffffffffffffffffffffffffffff169060200190929190803573ffffffffffffffffffffffffffffffffffffffff16906020019092919080359060200190929190803590602001909291908035906020019064010000000081111562001bda57600080fd5b82018360208201111562001bed57600080fd5b8035906020019184600183028401116401000000008311171562001c1057600080fd5b91908080601f016020809104026020016040519081016040528093929190818152602001838380828437600081840152601f19601f82011690508083019250505050505050919291929050505062005536565b005b62001d416004803603604081101562001c7d57600080fd5b81019080803573ffffffffffffffffffffffffffffffffffffffff1690602001909291908035906020019064010000000081111562001cbb57600080fd5b82018360208201111562001cce57600080fd5b8035906020019184602083028401116401000000008311171562001cf157600080fd5b919080806020026020016040519081016040528093929190818152602001838360200280828437600081840152601f19601f8201169050808301925050505050505091929192905050506200563c565b005b62001d886004803603602081101562001d5b57600080fd5b81019080803573ffffffffffffffffffffffffffffffffffffffff1690602001909291905050506200573c565b005b62001e866004803603606081101562001da257600080fd5b81019080803573ffffffffffffffffffffffffffffffffffffffff169060200190929190803573ffffffffffffffffffffffffffffffffffffffff1690602001909291908035906020019064010000000081111562001e0057600080fd5b82018360208201111562001e1357600080fd5b8035906020019184602083028401116401000000008311171562001e3657600080fd5b919080806020026020016040519081016040528093929190818152602001838360200280828437600081840152601f19601f82011690508083019250505050505050919291929050505062005810565b005b600062001eb87fd0573779785065628f23834d92b2cb89dc3bf5e7f0c8a21fbb63efa01db3f4b860001b62003f5f565b62001ee67f1e2069e583b70fd027b2a8346e2a36e4f6ab99e605d470cbb1664e5bf334a65460001b62003f5f565b62001f147fa11fb8710bb4619527d4a53e1c1c7a5a9aeba136d883a774c49e970860bac34260001b62003f5f565b62001f427f8738959252adef26e170a9aff53b7858d9b7dcebfef967a1584f48e2d2d2149760001b62003f5f565b600073ffffffffffffffffffffffffffffffffffffffff168373ffffffffffffffffffffffffffffffffffffffff16141562001fe6576040517f08c379a00000000000000000000000000000000000000000000000000000000081526004018080602001828103825260178152602001807f496e76656e746f72793a207a65726f206164647265737300000000000000000081525060200191505060405180910390fd5b620020147fdd91677df45046a7b61f6706b82728306838582132abeaee066db1b543dbfb4e60001b62003f5f565b620020427f9ea8e4451284908bfb3ba1e98d6b48295352c9cf78755f115ba44a0a6c4391e060001b62003f5f565b620020707f8e37e3f1d8e87d3f0ea4de37fff4966d5e020ff86fd5b3ba33a71235d643eae760001b62003f5f565b6200207b8262005912565b156200216857620020af7fc1231b191f8f3a532b568e953ba9dd9347fcf574a8ab8f8a1c54a17bf9edca4c60001b62003f5f565b620020dd7f14aac45d7d1276be234762665da9d01cb956b275d579f49cfb6877a50789cd0e60001b62003f5f565b6200210b7f7666502ec335ee20fb343ba97abc544c2d1d9a861826b70bad114b4cf59576ed60001b62003f5f565b8273ffffffffffffffffffffffffffffffffffffffff16600460008481526020019081526020016000205473ffffffffffffffffffffffffffffffffffffffff16146200215a5760006200215d565b60015b60ff16905062002246565b620021967f360cba3c863de43bdd9f6b65aad22d8b77eb9dd8e4164f215ecbd1808ff6b17860001b62003f5f565b620021c47f0884ab5e942ef5e28752a6d8fc224b294075f1729dbf5990349866a80216b01460001b62003f5f565b620021f27faa1d6a1c219335e0ddb052191e15d3b92d33ab87c907c983de09e0d0ce4b427360001b62003f5f565b6002600083815260200190815260200160002060008473ffffffffffffffffffffffffffffffffffffffff1673ffffffffffffffffffffffffffffffffffffffff1681526020019081526020016000205490505b92915050565b60006200227c7f90a92741276489daf1b2087809624f0546f35e04f313dcc59a7cedd0f5b84bb860001b62003048565b620022aa7f38df5fb078cafd9c5b34f3743955e3dcfa759faa10857839b02b945274c9ddef60001b62003048565b620022d87f1e52bc2494c39567f2c9e94c419598b29444fa87259368b6656d44fc9b0f361660001b62003048565b7f510b5158000000000000000000000000000000000000000000000000000000007bffffffffffffffffffffffffffffffffffffffffffffffffffffffff1916827bffffffffffffffffffffffffffffffffffffffffffffffffffffffff191614806200234c57506200234b82620059e7565b5b9050919050565b6060620023837f561cc1603d746beb23cdc43b39797df49fe7bd5e21446856a2ff63dbeb30f47660001b62003ace565b620023b17f6e6312bf09edac35f6bddb38f3b823e88ee07657c05925e3b4e9eee3d92355c560001b62003ace565b620023df7f5925382370b390fd4f00e96fbd6ed36932844cd3b0ee7cf4ed7d935701a71d0f60001b62003ace565b60068054600181600116156101000203166002900480601f016020809104026020016040519081016040528092919081815260200182805460018160011615610100020316600290048015620024795780601f106200244d5761010080835404028352916020019162002479565b820191906000526020600020905b8154815290600101906020018083116200245b57829003601f168201915b5050505050905090565b6000620024b37f48bc24a7474e38f760600ddd4106f8b38b2b22be71ee1762fe6dcf35e23f0f2860001b62003ace565b620024e17f604ee9a7abadc5d9b10befa02f6028984454c0eb741fe67e84cd509c8886388760001b62003ace565b6200250f7fd4ef2f9cd671f8b487eb57a51563254c5763122303bbbeba955a2aa297ceba7660001b62003ace565b600060046000848152602001908152602001600020549050620025557f9a4e09b7e0a53ae44d6a3ca3c9ca1520b5724dc6dc8af295ca20889d2df979b060001b62003ace565b620025837f1ff1f93cbcb34f4efef30641d3ef6e7e3cca8337a4a32e578cb7960810f8894e60001b62003ace565b620025b17fccfd4bc5e1d1d4454be84896b79a9efc63d7277c7c25f69748a4311a508b8c0f60001b62003ace565b600073ffffffffffffffffffffffffffffffffffffffff168173ffffffffffffffffffffffffffffffffffffffff16141562002655576040517f08c379a000000000000000000000000000000000000000000000000000000000815260040180806020018281038252601b8152602001807f496e76656e746f72793a206e6f6e2d6578697374696e67204e4654000000000081525060200191505060405180910390fd5b620026837fb9f9ea03cbecb9e2eec02ba81a854cff6d91f9499c3a0b5991de01292a671fce60001b62003ace565b620026b17fd0dd3a32ebb685ea2defc7f8c69abd5ae7a6e842d4775d442a9525790b9e074060001b62003ace565b620026df7f3118bbe52756e44306f5e3c4fa160ed43e1ac91252a0e23b676e8be12256addd60001b62003ace565b600074010000000000000000000000000000000000000000821614620027c6576200272d7f022e36675ddc3e8a99085e23b71743695cdefd8fd4c5477ea9baead454d6459660001b62003ace565b6200275b7f0229660e3ec4d98a066a60b5602871d81504e497a765353b7aae5bb46a501dab60001b62003ace565b620027897f9b44201433be4b8ed07697d173e2d8bed4a814e2ce696034acc42f87bc4f933260001b62003ace565b6009600084815260200190815260200160002060009054906101000a900473ffffffffffffffffffffffffffffffffffffffff1691505062002856565b620027f47fa9999bdfd58fed7fe227da8f07bb5a5f2622937393c0abc1b8fc66af4dbd7aee60001b62003ace565b620028227f5931e1c7c045ec7a214b14ebc5798a09ece38a1cc6dc58a7e8f819c063ec24b360001b62003ace565b620028507fe5686d9aa5f3cfe420c190f5e800e9f7c5b6fe54c3a0157bc5ae20679e2c446760001b62003ace565b60009150505b919050565b620028897fcdac30a2ec788ea40f03e18f7b1192a9bc9f19b13ebf172a22bacd865d4417b660001b62003ace565b620028b77fb7ebbf7ab1bbe423f70cf2a3320a480a18db585ba8a658f5a5c160fadf5326fb60001b62003ace565b620028e57ff6819d309d5ca0a6d4b2b2a7604442b00eaa22bcaf8005b46e044c755c9be71160001b62003ace565b6000620028f28262003c92565b9050620029227f8ba6daac4b9f6efc153580643ddd0ac64624b5d236fa1fbc2ccb314a2d76557c60001b62003ace565b620029507fb9bad79cd6c4e772137dbf16427b409e8f67c6c04b0945a8cb7be7a8a624c41b60001b62003ace565b6200297e7f0d15d3b0cc9809c465f360f8272ac9ef132ae04a966ea60f3afa2c55be6417d860001b62003ace565b8073ffffffffffffffffffffffffffffffffffffffff168373ffffffffffffffffffffffffffffffffffffffff16141562002a21576040517f08c379a00000000000000000000000000000000000000000000000000000000081526004018080602001828103825260188152602001807f496e76656e746f72793a2073656c662d617070726f76616c000000000000000081525060200191505060405180910390fd5b62002a4f7ff5b0ad0eeb733e5855d9bcb9f2014ad7c8c602ff2f9e6395eeff4cb05a4644de60001b62003ace565b62002a7d7f3ae4c43dca173727c1fa40b1ba0fc260d536fbf6d67d29b7f0a27d2c623bcc6360001b62003ace565b62002aab7fce79fde3bc65be5baab8c8ddbaf8b75f5a3ac0d3825e1198139ccde2650991ee60001b62003ace565b62002ad97f012a47369b24621f8541bcda443299fce3ff21eeb3f504388ff276ea8001600460001b62003ace565b62002aee8162002ae862005aee565b62005af6565b62002b61576040517f08c379a000000000000000000000000000000000000000000000000000000000815260040180806020018281038252601e8152602001807f496e76656e746f72793a206e6f6e2d617070726f7665642073656e646572000081525060200191505060405180910390fd5b62002b8f7fb925ea132ad662d6d125ce90e997dc1e5661947bfe04c4299653dfd50119553160001b62003ace565b62002bbd7f22baf1d88787d59999481ac89fc2adcee7d05c9a3fb8d7248b0a1dccfd7742f160001b62003ace565b62002beb7fb3f637fe29459b7af9b6a906894c47ea4c542120d9192fe383aa02dfcf71aca260001b62003ace565b740100000000000000000000000000000000000000008173ffffffffffffffffffffffffffffffffffffffff1617600460008481526020019081526020016000208190555062002c5e7f3df8e2af33a7cf9234d2c0ad0c4c121104d87e96161ea7c9617f5dd7fe234c6e60001b62003ace565b62002c8c7f89c7a139918190952309fb0dff599f34c2823474ba3308a9725f28be0f79061860001b62003ace565b826009600084815260200190815260200160002060006101000a81548173ffffffffffffffffffffffffffffffffffffffff021916908373ffffffffffffffffffffffffffffffffffffffff16021790555062002d0c7f2e8c6514e0208e8356ed650c3e54b313600339826cbbbc533c1b215b0234347f60001b62003ace565b62002d3a7f069e36094e2956dd1201400cb41854bd92ea8ce6de65cd5b3547b95156423db960001b62003ace565b818373ffffffffffffffffffffffffffffffffffffffff168273ffffffffffffffffffffffffffffffffffffffff167f8c5be1e5ebec7d5bd14f71427d1e84f3dd0314c0f7b2291e5b200ac8c7c3b92560405160405180910390a4505050565b62002dc87f5e06126c310b223d0a7d29c1d2cd0280d090722064b4317f0b6ac1351af5c86060001b62003048565b62002df67f74bf26bd27dfd66f3eacb584db0f1ae8540945eea62863e72f0743276cad2dc660001b62003048565b62002e247ff752acd4c9ce40381c86e65ab3fb8788872563497f9c8843ed3a1a7e7932584760001b62003048565b62002e3862002e3262005aee565b62005c4b565b62002e667f2a562ce7168ad344ac668c4dae234b334d9e0a982f1edbda6dbdf842868af63260001b62003048565b62002e947f9618c5354e6493ceb05dc30838a4baa485e4c6b0664833a398ae5faccf16ef0f60001b62003048565b62002ea28484848462005d0e565b50505050565b606062002ed87f708c41f5bc46775c55d117542cbf6bdac551c321457fe0109e6555aaeae6006160001b62003048565b62002f067fda41bfa0dc45635d87f330663e68dff85d1367f8bd3b69be2b34c2f168a49e6460001b62003048565b62002f347f1dc633b65311a76bf285aae35427091661a8c6ecd61d64757e49075f66faf86860001b62003048565b62002f3f8262007185565b9050919050565b62002f747fa9204ad5dec1b35d1231b78541a0d9ab813e3e926602301a3cf6ab43b9a59a6360001b620045a6565b62002fa27fb3bd54a985e7d38238706df93d117ad715ed82a4f2b278ae15ea725db01ff1d260001b620045a6565b62002fd07fe646ed3db5c5dee4b18a1bccb4d8a7aa0aedb9fbd0248e9c0afb55bdcad42f3660001b620045a6565b62002fda620072ef565b620030087ffe82bab9160363c9fad502461445c19f9551fbb9b5b7c7842781b9660c0f6f7f60001b620045a6565b620030367fd0acdb06fc127e125fd4a50c82695c07513278b43d23296d1815e0f03926ce7060001b620045a6565b6200304383838362007373565b505050565b50565b620030797f8504207259930b4a65911d41db3f1439bed02dd1679a570056eac6999014344460001b620045a6565b620030a77f695947e087f2b9aee5ef9404f856b27fbfd4b4db05999367ce8189808bcc886960001b620045a6565b620030d57f10b3fd1359ff42fbd9b97f278a2ae5ddf43a744686de4fd6f931f29c2622513660001b620045a6565b620030df620072ef565b6200310d7ff379a40c8c215b076f1c87148f9d18e75e9f4627f71b081f5c53d67915d4f61060001b620045a6565b6200313b7f1fe04f07508edf0b03880f27a74abad8ba427ecb7e0fd9c2c36108b5da7634ff60001b620045a6565b6200314883838362007928565b505050565b6200317b7f6fa8eb84a02356cae9c4ff689bb2b2a57df10ce3e701f8676e6c8197210f258560001b620045a6565b620031a97f0f28ab10af6305b416487db2fd9efec59f2702d72b4a06f20d146001de3ae02860001b620045a6565b620031d77f09c0d706434ed66c20b6793bdf4804eb4aa6e51b95cee8f5355b61826aae3a3560001b620045a6565b620031e1620072ef565b6200320f7f198fffc4bc559714548d24a1f621935cbcdf64c88263372823ce6827ef2939c360001b620045a6565b6200323d7f6f065bb9ec12a2e6483f39f454332c7df8d2e8653a0a11e6b777e60a9066b60f60001b620045a6565b6200324c8585858585620079d6565b5050505050565b620032817f730fc609b213b0c28dca40c93060739011d502e802373fc16e5fe5d326276c4f60001b620045a6565b620032af7f08a56b6ffe9890d4353aee208c999517108bcac3f6a365be44880ad07928fc5760001b620045a6565b620032dd7f4986e514bd1900c35f3e7fe6e84920b008cf0ad091ebf72d6d9bf42b54ffb66760001b620045a6565b620032f1620032eb62005aee565b62007a76565b6200331f7ffeb092259a5a7ab233254fba93a3ffeeb189d23b86e16e0ca175cb6a0387f4aa60001b620045a6565b6200334d7ff0658d5f827d712555050f6d51fd310ca98406eb3334a03949860c5146058c6560001b620045a6565b6200335762007b9e565b565b620033877f3462830957637eae099537678064063f89fcd20373d89575b9e5ec301711d88660001b62003048565b620033b57f23696aef52e67ef14518b07be9823a498bc6e43531b2460d4f5b511de9c9505e60001b62003048565b620033e37f1d28bd6bfdfb4203468690ef9693dade9cb87e66b04cea3eaa3a23d6afa678ba60001b62003048565b620033f7620033f162005aee565b62005c4b565b620034257f3d22d7b794a428fa7f04693768551f29e25e1d73ee3dff6110fe172b48d1120060001b62003048565b620034537f3fd2b94fc627f1caa669d073844f2dbe79a1ad351f96fc966f0605e82b86d13460001b62003048565b62003471828260405180602001604052806000815250600062007c1a565b5050565b620034a37f0893fa881f499cba17c734158136dfc95599302d7e8a3899266476208fd0b5db60001b620045a6565b620034d17fb829dc0d8334a6323dc39fc96b0cf366cfa24b0512c013e8675c7695ba4a3d1a60001b620045a6565b620034ff7f9d7cce6543bb43f8201425bf4577bcb03e44f1a6cf3302104a5bfc4de70240ea60001b620045a6565b62003509620072ef565b620035377fe1847a16f440f3b911191e92cba663ea7678a7c33393f89e7aaaf17ed8caabae60001b620045a6565b620035657f86448874fabe474a75ca1ac4e6d3dd2fb4a9d7e94182629f5b2a127fe7a47d3d60001b620045a6565b6200357283838362008415565b505050565b620035a57f07d29bb8debc8f7b8e7c9c183e999230551a645e464fca3751f4bff5ff744afd60001b62003048565b620035d37fe00162d2afe80ecddd27ce06c9aad8317f0f8c98af93be7e5c7580d45637173260001b62003048565b620036017f08774c68039143eb5a403996dd5e7ba4eea40af799696118983fad59f071509c60001b62003048565b620036156200360f62005aee565b62005c4b565b620036437f9ee4b83be90f48cf4004c8791aa702fa3844720f699b9c8ca227ab42980e1d7460001b62003048565b620036717f547b49a9b0b0807fdfb3b8d4b5ab538ffc3e49dea9a7f73446624583e4ea27c260001b62003048565b6200367d8282620084c3565b5050565b50565b6060620036b47ff9387cb22317f794a78cf6e494581548d65d540d5a51cab9992f47610a1c8cdc60001b62003f5f565b620036e27fa00a45ad76cdf9ac301740d072e0cd2eb3096be43c55e3981504d9ac6c11caf360001b62003f5f565b620037107f76c37eada364e7ad7f4c17dcb1c765088676a96fc8f2facc0499e51b26b80dd860001b62003f5f565b6200373e7f69e309af372ae7f0a26f4a15b8bc79c70317abd49fbb25a60b5380f6c0de4edf60001b62003f5f565b828290508585905014620037ba576040517f08c379a000000000000000000000000000000000000000000000000000000000815260040180806020018281038252601e8152602001807f496e76656e746f72793a20696e636f6e73697374656e7420617272617973000081525060200191505060405180910390fd5b620037e87f03ca9934893a0b11862b7daa8241dafa1638e58e30c33a304d1952efd4f17d1d60001b62003f5f565b620038167f98d6f72017d5916f8b89e6a423f6fb1263e50e29f77bbee75939d1a651c7c67d60001b62003f5f565b620038447f6973fd2822295f7623838cbf5043b692c363258ac19791d50b0115b5f99e76f360001b62003f5f565b60008585905067ffffffffffffffff811180156200386157600080fd5b50604051908082528060200260200182016040528015620038915781602001602082028036833780820191505090505b509050620038c27fa9c42faf8af8aefc47c3bfb0a64c1885c24aec0d5ed4a354881f4943de40f16d60001b62003f5f565b620038f07fbce6394d332b76fbf0a6187b8fa9aee3c0436ab95a6aad37d2c082bc5295f29460001b62003f5f565b60005b868690508114620039c7576200392c7fb15d87dec090f0794e7bf64d2641752345f46c6335f46a4bf42a2691c7da6aa560001b62003f5f565b6200395a7fa19272b3140654f8c1cff7415002be536b942127a7cb28add414bc908c37db5060001b62003f5f565b620039a28787838181106200396b57fe5b9050602002013573ffffffffffffffffffffffffffffffffffffffff168686848181106200399557fe5b9050602002013562001e88565b828281518110620039af57fe5b602002602001018181525050806001019050620038f3565b50620039f67f1a45384965ee4ecff22640d9a4f51e45e724990c60f8c920931195f14f28f6ed60001b62003f5f565b62003a247f69f2f19fcc65b59ea4506fd6be5c1a0e9e3fff4a7383c74bb74f7b73f841367360001b62003f5f565b80915050949350505050565b600062003a607fc5ce6b9efd272f43f160663762c08f7ebad7eeab4704dc03224520386be3567560001b62003048565b62003a8e7f024cb44a921196d02c1d62371b0d9b6c4ebcd943a19363395783a85ea27356db60001b62003048565b62003abc7ff2920168825df3a42d4c7481e9c8adec3f49786b58ae74ee9f3274e9b7ccebf860001b62003048565b62003ac78262009580565b9050919050565b50565b600b8054600181600116156101000203166002900480601f01602080910402602001604051908101604052809291908181526020018280546001816001161561010002031660029004801562003b6b5780601f1062003b3f5761010080835404028352916020019162003b6b565b820191906000526020600020905b81548152906001019060200180831162003b4d57829003601f168201915b505050505081565b60008054906101000a900460ff1681565b62003bb27f261a5410d9e0104c281b9a5e2c112f031cdbc2595303656b78b693f4a676d1d460001b62003048565b62003be07fe14222cf5fa241810aa1b011b133f188b22c54c3370edc297a423cf3bb1e5d3e60001b62003048565b62003c0e7f1b901bc9e9276f2fdb27e58990470a11c188aff9b900d000ba456c3cbeb615bd60001b62003048565b62003c2262003c1c62005aee565b62005c4b565b62003c507f476cf27564b4581c4bddf20a98529ed7d79d3b37ed5a3d39ea708fb69486699e60001b62003048565b62003c7e7fdfd2894e212d54ae37c8aa0a48810ea0678cd519d318a2d80e1f86438e9dcbd760001b62003048565b62003c8c848484846200977e565b50505050565b600062003cc27f1e312f9d1ba4e0ce2ec000e1423d9829ddc7a3f2d4d849e8877ec00273a2723b60001b62003ace565b62003cf07f681f13f46c8c383ae94970d7fd3f8baa3979a2a5e9c97078ca0601fa4d69e88d60001b62003ace565b62003d1e7f7ec69312ef10d4f740e9ed25b920145cb949122f60d86ea6ab8b4a306d8082ce60001b62003ace565b62003d298262009f73565b9050919050565b600062003d607f16a7bab9f7823cc61b7bfdfeafebc0c9b90643140c522c056f9d0fda993a1b1060001b62003ace565b62003d8e7f66c58fc4e1d3ff3a52305d8e4eb3f2599348b418191a711f41487af4baabd9df60001b62003ace565b62003dbc7f9635edf881aab624991db2ee4713ce4e6744518773849e0a7e7930d64c67883860001b62003ace565b62003dea7fde5357e68e41665aa7e1aa6cb4495cef1a845501c476b1fd4597a2569a8e0d1360001b62003ace565b600073ffffffffffffffffffffffffffffffffffffffff168273ffffffffffffffffffffffffffffffffffffffff16141562003e8e576040517f08c379a00000000000000000000000000000000000000000000000000000000081526004018080602001828103825260178152602001807f496e76656e746f72793a207a65726f206164647265737300000000000000000081525060200191505060405180910390fd5b62003ebc7f0e849064134aa38f14ec7dbc4c106d0d34d38c21d5ab1e05857067c3c0abe54860001b62003ace565b62003eea7f6a148a944977b2de10e2be8bcb6c64cb2a2745074ee47aec4034bf51d0cc4a9960001b62003ace565b62003f187f44562ab27cfc21b017908cc9b3f7ba3ebe1166548ca589d100c7547cb17d3d3960001b62003ace565b600860008373ffffffffffffffffffffffffffffffffffffffff1673ffffffffffffffffffffffffffffffffffffffff168152602001908152602001600020549050919050565b50565b62003f907f7a798900079f8abfec5d8e2dbe01957da86924048545474d2e8cc4455ff9b8d160001b62003681565b62003fbe7fe5e96d6f82b06fe1194e47d7e09774604275383795b69bf66729b57c43f3a68160001b62003681565b62003fec7f1bab262e01d292ebc7268f0af663a93ea4cfca3b15a21a9bd3b88ed5d7a2575d60001b62003681565b6200400062003ffa62005aee565b62007a76565b6200402e7f889c29d91f479e9e5ea327b67cd360470392306bab96df204f280c7db9ea52ed60001b62003681565b6200405c7fe36810d14b53a066d2911963f7e0dcf3b24615a7ccdad7d1cdfb9eb2a23f966360001b62003681565b8181600b91906200406f929190620148fc565b506200409e7ff608c0d0ece8312aa6b4686eba824834606e1e579f33a0c28b1a959db81b457060001b62003681565b620040cc7f0266515aefe9459e801de01c95b7c8eb072550f55c42ed42ab0afeccf3e2ab7760001b62003681565b7f04b1dc5c136a3ce9fded8db0ce3d3366c58764ec3a8e4c2b9e52e4ddfe5ebbf7828260405180806020018281038252848482818152602001925080828437600081840152601f19601f820116905080830192505050935050505060405180910390a15050565b620041617ff5bf95cfe6f3643990ceafb64d93f90b74f49bc748b41c914b41652a517a51ce60001b620045a6565b6200418f7f074c65382aec6ba0bd9e001ac958caa67b7eef66b24896d5b769061805352da360001b620045a6565b620041bd7f346cb260c19e0b2c9f96f23f6d97babbc0999e680fd4992cdd81c99a9b388bc160001b620045a6565b620041c7620072ef565b620041f57f32fb289f66a02cb1aafa2d64f2ca50568ade34444e79d5fa2d6e1ab89997412160001b620045a6565b620042237f2f7c9725471282cc82d25ca6c7200d243b9deaab5d81063e67e57a270fc5d64a60001b620045a6565b620042308383836200a1d8565b505050565b50565b620042667f8eb60e2d85f2f5177bb68705a07c8be7199447a3864d4eaf5aa814830a9d77e960001b620045a6565b620042947fd527b133b86da03dd5679b90515a2eae81d555f56c40ed28158c24a935a03b0d60001b620045a6565b620042c27f4cc269078cabe5586b1a827903e3310488dba9d580a557d4a909af307400e4a960001b620045a6565b620042d6620042d062005aee565b62007a76565b620043047f2e3b336376aa3864f24658610bedc3584842a84553ed3d8c058e53b4bb30f95060001b620045a6565b620043327f4fd81a7fd4dab7196f82edb28d122be42eb978e26f8f8787cbb5aafe843eeaf960001b620045a6565b6200433c6200b287565b565b6200436c7f186f3c6ad145a30dcd70818aba57976279950bd011f11d94e498122fda94044260001b62003048565b6200439a7f8fe1b39057c78570a67193a52330b55b0bddda712a27b107108b20f4fcf6fea060001b62003048565b620043c87fed12e54b35db7ee838138b1a41466a7dc5bdbadd59735ecb15a207181f6c4b9f60001b62003048565b620043dc620043d662005aee565b62005c4b565b6200440a7f82ec403b39f46698f76af513888da33ffab3ade99460d52e1b13b81aa749998f60001b62003048565b620044387f5bbeb597a34f4f75777eb24b91d45c9a33a5f95a5b9e73d60748e7309388d20b60001b62003048565b62004447838383600162007c1a565b505050565b6000600a60009054906101000a900473ffffffffffffffffffffffffffffffffffffffff16905090565b6060620044a67feebe716898781eefbc9e9a56d2630bfdb323a5dd73523b31e7cbc74d5f9e445e60001b62003ace565b620044d47f1ad7ac8d74a2c57b3115db78ec7d483d6731d7a93b1691be943b3f83e4e18bea60001b62003ace565b620045027fe58876b37861808045813f187b5499dca2651311325ede30c6049d16c6b2ac4060001b62003ace565b60078054600181600116156101000203166002900480601f0160208091040260200160405190810160405280929190818152602001828054600181600116156101000203166002900480156200459c5780601f1062004570576101008083540402835291602001916200459c565b820191906000526020600020905b8154815290600101906020018083116200457e57829003601f168201915b5050505050905090565b50565b620045bd620045b762005aee565b62007a76565b620045c8816200b303565b50565b6000620045d762005aee565b9050620045e48162005c4b565b6000600c60008373ffffffffffffffffffffffffffffffffffffffff1673ffffffffffffffffffffffffffffffffffffffff16815260200190815260200160002060006101000a81548160ff0219169083151502179055508073ffffffffffffffffffffffffffffffffffffffff167fe94479a9f7e1952cc78f2d6baab678adc1b772d936c6583def489e524cb6669260405160405180910390a250565b620046b07f34732ceebdc52a7f71c399e1e4d2d8e8967290fc9cb560ddb0e5ab04e3507aef60001b62003f5f565b620046de7ff9774cb0c37c351161667d5d72cfc0c37222a1986aa4550c19d2c98b935fbf3e60001b62003f5f565b6200470c7fccc52dbfd478828a56c25cc1097267b6677c2bcbd5d75cf77657cd5aa20c72c160001b62003f5f565b60006200471862005aee565b9050620047487f82a9d9fde572139c38993f27a8d450e1efff334f0cc809aeaed412204a09634e60001b62003f5f565b620047767fa90c71e25fcd1aafe00e3f26547e2cae8984da5e87b3dc7ae90ab1df13441f4a60001b62003f5f565b620047a47fb59e257435a88d73710629598c67988192f29d14ea6795be29ef74349d355f6360001b62003f5f565b8073ffffffffffffffffffffffffffffffffffffffff168373ffffffffffffffffffffffffffffffffffffffff16141562004847576040517f08c379a00000000000000000000000000000000000000000000000000000000081526004018080602001828103825260188152602001807f496e76656e746f72793a2073656c662d617070726f76616c000000000000000081525060200191505060405180910390fd5b620048757f147c5aa85b8670cd996c7334ff0798f120c24587bd6f9dc2232e3045db8a2ab360001b62003f5f565b620048a37fd4ba31ae6a373fd24f0d64bca8fb4bde7cf4f54c2927497a145c6e405557e3e460001b62003f5f565b620048d17f6c50940c7beff3e09095224cf62c532aa494dc43d0dea63ce6fd98f7cbca994f60001b62003f5f565b81600160008373ffffffffffffffffffffffffffffffffffffffff1673ffffffffffffffffffffffffffffffffffffffff16815260200190815260200160002060008573ffffffffffffffffffffffffffffffffffffffff1673ffffffffffffffffffffffffffffffffffffffff16815260200190815260200160002060006101000a81548160ff021916908315150217905550620049937fe20b5c78afe32fc86519d4631729cf759c1a124c18ffd672b254d1e5585c8ddb60001b62003f5f565b620049c17fefdc2b84f85ce5cd5e3ef7fabfbd5fd91fa2963800387ac4470b8202d5615b8a60001b62003f5f565b8273ffffffffffffffffffffffffffffffffffffffff168173ffffffffffffffffffffffffffffffffffffffff167f17307eab39ab6107e8899845ad3d59bd9653f200f220920489ca2b5937696c318460405180821515815260200191505060405180910390a3505050565b600c6020528060005260406000206000915054906101000a900460ff1681565b600062004a7d7fd465c97e937629553f416390347ee48d7a2652b9b4d28d262770397e2a2f934960001b62003f5f565b62004aab7f0d585b43b8f40b04d20e2ee1432602c497c163c560eb5d234c1c901006d4df3160001b62003f5f565b62004ad97fa6efcbddf128b8fff39f0fcca18708a4cf6a9c5a4d31987f084e50899d4a6dd660001b62003f5f565b62004ae4826200b3a1565b9050919050565b62004b197fe10c0d66afe1a2c31bf8c2c80e1aa7a4174e817a8571ce99de01b692dba3b92760001b620045a6565b62004b477fd45f3ada090cc25fe0fc0cb306cd0e247985dd5a497de7529e8e3a64c94a310160001b620045a6565b62004b757f8b3a7bc8ed788acf1d4c8e878a92d30c1cdd723fecfd695d0214f337ee5cf5eb60001b620045a6565b62004b7f620072ef565b62004bad7fd25451461c4478824455f829c5506df3e86dee388daaa4b780ace07f9d528a4a60001b620045a6565b62004bdb7fc8e198b80409e1c6f409c3f146496f4551386d097038d4b64a6309ec532541c360001b620045a6565b62004be9848484846200b45a565b50505050565b600062004c1f7fc16f3a5f3f2c4b29aff86ea8e86ad1ed28b83e12b107ead011fd7833bf93f81f60001b62003f5f565b62004c4d7f96cd57563f2de36a61d9b57fc8bb7a178810bd3686fc54f98458cb8fbe0993bf60001b62003f5f565b62004c7b7f4b68d57dff2bdd9aa117ce563cf0a1dd2cca6d9b9437a27a4c923c01104684a160001b62003f5f565b62004c868262005912565b1562004d745762004cba7fd416321ad2103bc45f54755d6c9ca363184802e92d6683071358680ad403b6b360001b62003f5f565b62004ce87fdc4054968d062c36cbfa807ba67102c728c181681282ed58e087bb57ce4689a960001b62003f5f565b62004d167f42a214d4538e339edf25f40db32acf925d7568cc7b3e47f60fea0a9516eec69e60001b62003f5f565b600073ffffffffffffffffffffffffffffffffffffffff16600460008481526020019081526020016000205473ffffffffffffffffffffffffffffffffffffffff161462004d6657600162004d69565b60005b60ff16905062004e14565b62004da27f137978bcb5a3c8a9f4874639688cc46a704ed33eab2a45dc6d3049917d7f86f060001b62003f5f565b62004dcf7e8809a2f29e090ff9eebab17268f1f71d9a90e6c3c768cdc7a24a88a22881f260001b62003f5f565b62004dfd7f5dc8b6984f6537373034b03d292f2fcd5886e0d4633d33863371ad3352726f3b60001b62003f5f565b600360008381526020019081526020016000205490505b919050565b600062004e497f81c8ab7023ed4397c44c423bed6e3c778dd49871137e2ab7ae51a55606d8f71860001b62003f5f565b62004e777f8a16d585cb2a38a85b8a102387536c8fb7b695abc20fada8de556735972e0fe760001b62003f5f565b62004ea57fad4c4ebc563d16d70ceb980dc04bd442f598de6b76f4f4d6fa77815bdf0f054460001b62003f5f565b62004ed37f984bea0301f807a770c96842a160eef37b39faf5414242e6c86cfc76c00b4eef60001b62003f5f565b62004ede8262005912565b62004f51576040517f08c379a00000000000000000000000000000000000000000000000000000000081526004018080602001828103825260158152602001807f496e76656e746f72793a206e6f7420616e204e4654000000000000000000000081525060200191505060405180910390fd5b62004f7f7f9e5e4b2cf822da6080a88df2e94b694dba2e04c5f1714a91ecd47093d220dd9460001b62003f5f565b62004fad7fb71356143b29567f1ba90f31825796336cabe05f430309a8e1b7eeac025b787a60001b62003f5f565b62004fdb7f696d0584512dffb7df7a918b0dedd012d98f5d89524a8ff9d53278208efa0a4c60001b62003f5f565b62004fe6826200b4fa565b9050919050565b60606200501d7f654a16b85dfd8f921f91b90fa802fecf4545f5451cf32a9156c74b15df473a4560001b62003ace565b6200504b7f0f6fc3ffd15429e0b1dcd355886eb1ded2136f0d8ff11862de5535f453c6047f60001b62003ace565b620050797fee78623918c87c220f79f6540ce040fabd301451dbc2e8f0ba50e1522fc4f3bd60001b62003ace565b620050a77f4de18123278f550fe6754601892e190a47bdce63250bd215e48e320d999e689660001b62003ace565b600073ffffffffffffffffffffffffffffffffffffffff16600460008481526020019081526020016000205473ffffffffffffffffffffffffffffffffffffffff1614156200515e576040517f08c379a000000000000000000000000000000000000000000000000000000000815260040180806020018281038252601b8152602001807f496e76656e746f72793a206e6f6e2d6578697374696e67204e4654000000000081525060200191505060405180910390fd5b6200518c7ffdf281885ab532aad1302f163fb4981545bb33e486a75bb42c8341843047cda860001b62003ace565b620051ba7f5b3e6536bd9974ba3deaf8759d316f07f0e162747af953baf6541308d119fcd360001b62003ace565b620051e87fd6da770b1e3ac892488ac78c76b619f58ec858e6d951cbc537f56cf5e911afd060001b62003ace565b620051f38262002ea8565b9050919050565b620052287f04fe38b25800b00132ac1627ac26a784b659679ae73649a9cec3f1dddcbcc06f60001b62003048565b620052567fd600aa17d0681f6a31ac58cc2ab4011eedfc46201c82a4826124c0a186bf4efe60001b62003048565b620052847f2906b26135daa94ff09789b82131aa1ca22d0f9188efcc906b190ff41a673f0e60001b62003048565b620052986200529262005aee565b62007a76565b620052c67f5dbaabd1bbec6486aee23e45402b45cdc3afdf2b484a7c31b115174b5710d71360001b62003048565b620052f47f8b596b425047f416d814bc62fe226bbd5099b5970443aa3688db58f531a5482b60001b62003048565b620052ff816200b59a565b50565b620053307fb4ecd56508fee21fd13654fb65a1796b5b5f147d1687af06767f566f3cf19d3060001b62003048565b6200535e7f69f60c3556dcd6c5b6b9555cb0a9db4b877c59a9591201fa4c86aa3beb43618f60001b62003048565b6200538c7fcdab920f5001fa68ce9e2a16ebf2331b45accc0180dfd36276cd363e9c761a6d60001b62003048565b620053a06200539a62005aee565b62005c4b565b620053ce7fbc0d954a634dc10373b252748f0450a2966b0283cc44fdee2f37df3754849d9d60001b62003048565b620053fc7fb5f21701d166ee3259ed08b4b60b8fe3c473685a37bf27cf471dc7eda7d2e30260001b62003048565b6200540e88888888888888886200b9dd565b5050505050505050565b6000620054487f9674b06b6a2ed61fbe38e3bed653a71549a2afe1c104d4ab2343216c90d7074d60001b62003f5f565b620054767fa811103c24c22b7135259f3f2fe477260c2d7240bbde654094a51a7254dacef960001b62003f5f565b620054a47ff89862dd6989fcd744184778634eea3c6a4a17909e701ba0f6f8fe5c32d8eebb60001b62003f5f565b600160008473ffffffffffffffffffffffffffffffffffffffff1673ffffffffffffffffffffffffffffffffffffffff16815260200190815260200160002060008373ffffffffffffffffffffffffffffffffffffffff1673ffffffffffffffffffffffffffffffffffffffff16815260200190815260200160002060009054906101000a900460ff16905092915050565b620055647ff294e9c27bb74476fcb225abd5d9b1dbc4988388bde96bbe09e7490202ba235a60001b620045a6565b620055927ff3197aa91424c82213699818a5d96e1c3a653d423e6f6b63512cd3bce64109da60001b620045a6565b620055c07fb210852f718ad0a5a75fd146810c6a1a4bb26cb53d3b63b1ece34ee53d92f14060001b620045a6565b620055ca620072ef565b620055f87f89d149b719ebf7fc790e6ec838e678b0f788fdcab437b0514b3be5ab11beab6360001b620045a6565b620056267fd02b42c5efa665ffb907774a999d6baf497060f9ba0d59e73064cb9c4f3964cd60001b620045a6565b6200563585858585856200c99f565b5050505050565b6200566a7f386057e7470c2f7a387effb98069aa2653b023883f6f17a0a7ef82c345799dd360001b620045a6565b620056987fb1d2b7cf83ec1287f23dd0d0d89bb5be5c399f3a2161babdb4ce0188afcbf1e160001b620045a6565b620056c67f0b4f9879df749c0c33a7b31347d3daf406e510380f081c6bb5821f4786f7eb2860001b620045a6565b620056d0620072ef565b620056fe7ff38e1771dce1040fb81f8668e29c69f0a7062fb2b09e1aff9837e1da675b0e0460001b620045a6565b6200572c7f1ba138671cdec8fd0935b518503c129f079ee314be9b11ac95c83570468a90f660001b620045a6565b6200573882826200d202565b5050565b620057506200574a62005aee565b62007a76565b80600a60006101000a81548173ffffffffffffffffffffffffffffffffffffffff021916908373ffffffffffffffffffffffffffffffffffffffff1602179055508073ffffffffffffffffffffffffffffffffffffffff16600a60009054906101000a900473ffffffffffffffffffffffffffffffffffffffff1673ffffffffffffffffffffffffffffffffffffffff167f8be0079c531659141344cd1fd0a4f28419497f9722a3daafe3b4186f6b6457e060405160405180910390a350565b6200583e7fb5f4652038f664f803fc13eb7e483c71d29a653a7426b7cb6e783840028f584760001b620045a6565b6200586c7f8e2d40c427b3122a8c3233b745e4f1a201286841190acbb526fabbe15a9be2f260001b620045a6565b6200589a7f504d7dcc7061ae4598ba876aa480453cd1373f15a84da5b1014f9e9c3a83971460001b620045a6565b620058a4620072ef565b620058d27fdd3132096e8751de4675ea7c2d16e21751fa6b29b4d093cf4b3ffc9cb9aea74360001b620045a6565b620059007f6e42ab311683491cca5768885fa39edb2719552acb43e5adb06fd0214823e9a060001b620045a6565b6200590d8383836200dec8565b505050565b6000620059427f34132617af8b225325ec7c6c99e2b1f7e44918f71421c8ed2b0daf4f0f34213560001b6200ee13565b620059707f8edfd9cbebb4b71e5bf47d7f6cba8bc37edad7de6044e60855d350bc64ce4b0760001b6200ee13565b6200599e7f7bb7f22d99fef8285f8b5e26f441a1c5ef7db323c1b8d505d10886dd4868038060001b6200ee13565b60007f8000000000000000000000000000000000000000000000000000000000000000831614158015620059e05750600060e063ffffffff8016901b19831614155b9050919050565b600062005a177fa00cab57cd48f9568128c76c70d3427aee9c6738a18d6f29d719900d7db1ed0560001b62004235565b62005a457fdec5f0204f674b2fda0389ef0f6c5022b87bd62069f885901a3d4b42659e02c560001b62004235565b62005a737f2c0512bda2741372344909c2ead7d4c18b581d5801e6df310c4a1208cadf4ad760001b62004235565b7f6059f1b4000000000000000000000000000000000000000000000000000000007bffffffffffffffffffffffffffffffffffffffffffffffffffffffff1916827bffffffffffffffffffffffffffffffffffffffffffffffffffffffff1916148062005ae7575062005ae6826200ee16565b5b9050919050565b600033905090565b600062005b267fbef1f6d4ed47d8fb8fde13273dd3e8ded7170677c02187128f79a95074928c5a60001b62003f5f565b62005b547f4630da60d0bc146c9f7ef54ba5419e160cd2b424e8ccf6d36f0d9fd7429bd27460001b62003f5f565b62005b827f4fc2580459b215038ec393a5b3cf27680af65e9e743306d461e626614ba1fc7660001b62003f5f565b8173ffffffffffffffffffffffffffffffffffffffff168373ffffffffffffffffffffffffffffffffffffffff16148062005c435750600160008473ffffffffffffffffffffffffffffffffffffffff1673ffffffffffffffffffffffffffffffffffffffff16815260200190815260200160002060008373ffffffffffffffffffffffffffffffffffffffff1673ffffffffffffffffffffffffffffffffffffffff16815260200190815260200160002060009054906101000a900460ff165b905092915050565b600c60008273ffffffffffffffffffffffffffffffffffffffff1673ffffffffffffffffffffffffffffffffffffffff16815260200190815260200160002060009054906101000a900460ff1662005d0b576040517f08c379a00000000000000000000000000000000000000000000000000000000081526004018080602001828103825260188152602001807f4d696e746572526f6c653a206e6f742061204d696e746572000000000000000081525060200191505060405180910390fd5b50565b62005d3c7f791f2f1edb369bd7ffa6e591dbfa03883312029521f7ecfa37e2a8334228500860001b62003ace565b62005d6a7fe0cf0e72fb3d936b200bf052a5f17c49b0ebbe5b74808c04d90bd8d6104f780660001b62003ace565b62005d987fdb9b838d3ca289ef6107115c0cdd07a8a918e3f023172ef5741f81839600d08360001b62003ace565b62005dc67f09f708c621a6aa81ee641b53ef83ddb14d0ec274cc6e418a1e70090f330b938d60001b62003ace565b600073ffffffffffffffffffffffffffffffffffffffff168473ffffffffffffffffffffffffffffffffffffffff16141562005e6a576040517f08c379a00000000000000000000000000000000000000000000000000000000081526004018080602001828103825260178152602001807f496e76656e746f72793a206d696e7420746f207a65726f00000000000000000081525060200191505060405180910390fd5b62005e987f11e4fcd820f99a8e4d67ed459e0645cb90814213ff4fae119473da122fd825ab60001b62003ace565b62005ec67ff993bfcf8589e5a5a7d42223cf8c2e2644b6cfbec7f30339c2ac64c19b0b697a60001b62003ace565b62005ef47f6b6af547eaaafdd014011303cc566c230b8d6ee57880aa206f92983d67a6e31a60001b62003ace565b60008351905062005f287fd6c56faf2bb23ddf7aeb7acb462c37dd477edd2efb3c6e2819d17edf1947222360001b62003ace565b62005f567f2ff94c0a41afbbfa19c982ea36b702c3cf148d90f7094b79ae442ed52bf3d39960001b62003ace565b62005f847fcec25b3939013c1caa239cc0a6e153fc86b0a4967e87dbc1235b56217baa3c3d60001b62003ace565b8251811462005ffb576040517f08c379a000000000000000000000000000000000000000000000000000000000815260040180806020018281038252601e8152602001807f496e76656e746f72793a20696e636f6e73697374656e7420617272617973000081525060200191505060405180910390fd5b620060297f9c84bfa70e037d4eb17d7ecb4ecd4f14334359a80551d9669dfc3e5757e6193760001b62003ace565b620060577f2541da3ee0480e5042a9681574160b2f218cad45965e625a2352e6df9c1a3dd360001b62003ace565b620060857fcb105088f777a76c7a979f14101a97e90f50312e4fbc8e9ea0fcbf7490ecb03460001b62003ace565b6000620060b57f6cc303e8a9aa30e8df8fda49edc27771e15126669baeb0b3c7eb94878f29bd8c60001b62003ace565b620060e37f6425fd533bd20540fe9ea0508914cf79ea42d7046f4fef13d5f149197de670ca60001b62003ace565b6000620061137f9cb803c4662a5d28126776e57261f7b46b6915ac3caaa61ed91cf4afd7b545f760001b62003ace565b620061417fabfc1dfda25b289e08d088aaba60b75116c45af424d15e3e0a1a69b11a35349360001b62003ace565b6000620061717faf04450a21eb955ee32f19cb3b62b8fa87c919623b4431a9e91f6bf6d96e903860001b62003ace565b6200619f7f3a98609c345161d2f3af93d9db86466d94e95e9a4a2533ab6d12284b8c12f09a60001b62003ace565b60005b84811462006baf57620061d87fd74ca9a8bc449eb3a58660a0b8e4b1849b6afccf2a5e34271952d7d868a274e360001b62003ace565b620062067f11db19ed385b184538c8646a2ccb158b818257116e47c6e7221949786953487760001b62003ace565b60008882815181106200621557fe5b602002602001015190506200624d7fe4612b7db4f5687faea3daff9bc9a8837212b7c275fc48f6e000f827b67bf79760001b62003ace565b6200627b7f6a3640bea872c334bff340e156240e702cb861f1e25e484e4c080f9fbaff600d60001b62003ace565b60008883815181106200628a57fe5b60200260200101519050620062c27f99ffc819184b8ef4cd45e9eea74925c123d0c947b38ff9ee62ff97fe03c4e23160001b62003ace565b620062f07f93ec1d89d7b30b56531107ecd72067e9242f3a55daf97456f8015602a7964e1a60001b62003ace565b620062fb826200b3a1565b156200639e576200632f7f9909752e2c82842472d73c6606372b510fe6099091e3c7692fa22c505a03f0ef60001b62003ace565b6200635d7fef24ba7022ecf82a177a6c5c78f5fe22678527423521ba9c9333758e84077a1660001b62003ace565b6200638b7f337f41ac19c420e6624ef2f7df69b629c3759f89cd245e44fff225cc899eaee160001b62003ace565b620063988b83836200efef565b62006ba1565b620063cc7f34334baf9bf77da71bf0570fd05bc8cd0e8f9737f81c2f05d8a35a3f90fdd4b060001b62003ace565b620063fa7fce2c6f43248b7a6495c27f6079498c1c07abeeb6968f16c7ee80e0ac35ba6aa060001b62003ace565b620064058262005912565b1562006aa857620064397f3a406aeaeea92db8a12d8bbe2e4d06443dd24bff80866ef1b66c2d2a5bc4076e60001b62003ace565b620064677fa923f06293250bcc1a8a1c1f6aed68fcb4bddcacb0c0a867835e4a581fbb5aab60001b62003ace565b620064957f4a5a5909122c3e8b7fb4de230e93f6208d3276bd62edd6bb9e7a46b425c3c45360001b62003ace565b620064a48b838360016200f487565b620064d27f8fa98d6d08f43e7c65b03003ba2880e16b92559af984b162cd85e3730b18225a60001b62003ace565b620065007fbfde4cb41dae940c8cb2ebb131379373f50476ebc4848f0f609990613b09ff5a60001b62003ace565b818b73ffffffffffffffffffffffffffffffffffffffff16600073ffffffffffffffffffffffffffffffffffffffff167fddf252ad1be2c89b69c2b068fc378daa952ba7f163c4a11628f55a4df523b3ef60405160405180910390a46200658a7f34dc6a4750bd4382b31e8afde0f5bd737cd31091bf74406875bc8d5ba72e633860001b62003ace565b620065b87f8c8dd0dd5197c9eb0c4eab4952b2807a41a50755dfd8b7b47dd167a1dc1f5af860001b62003ace565b6000620065c5836200b4fa565b9050620065f57f11e35210a320cbc216c97d9e58f030f58a4fc09702100930702220ddd256f8a360001b62003ace565b620066237f1737ee9f8de4860cfd13d426c0720a5d92334e287db60047a27b9f16d5a64dd260001b62003ace565b600087141562006720576200665b7f98300e2d15f87c588e8b255086d89c1b1946628b37f23d328554b972c6aeebc160001b62003ace565b620066897f39bc4b0f8dc6c54699ad75b4b287cc83649ab911b63174271d75916c61cb470b60001b62003ace565b620066b77f091b38e6ca18d1da354026cb07a5d01a9ed1b2c9fc1fc8ddd1f37159267ef56f60001b62003ace565b809650620066e87fa0e23a8753a7dc620e27dd2048744c652384b018746f74cd63e3b96953e74b5460001b62003ace565b620067167ffd45f1221d5f45d264708e3bcc247db057dd600a6b233e437a4563e9214e25f660001b62003ace565b6001955062006aa1565b6200674e7f59d81e7c98b4f4b5c71f671af3c763cfd9694be184095d496cb0a106522dc44160001b62003ace565b6200677c7fb440d65b97d05862990b4fcad0457ff12f9c017897434c5e70469a03e8ade3f060001b62003ace565b620067aa7fbd90f063ccb0243e573327158fe2ef17706136cff3694ba97c0d19291fe9a69b60001b62003ace565b86811462006a3d57620067e07f79b0c4e96c70c691376e0926dfaa763b3e4bfd250edce9111653e6da77e8393860001b62003ace565b6200680e7fb43cc5fd2231357ebe57b7dc48f2a0af5d0415ac87dad3838eab76d11c84843c60001b62003ace565b6200683c7f176aa61e380e208fa45495096429944a22e303bde3e3e0dca86b64f73696a0c060001b62003ace565b856002600089815260200190815260200160002060008e73ffffffffffffffffffffffffffffffffffffffff1673ffffffffffffffffffffffffffffffffffffffff16815260200190815260200160002060008282540192505081905550620068c87fbafab69da910dde1381e8a167e66f29ef17de1f91384112b153b58962a3be1d860001b62003ace565b620068f67ff1059890f1cec8318542ef25d4cd998aab0ecce57d0b4e39d0b89b91d0754fa760001b62003ace565b856003600089815260200190815260200160002060008282540192505081905550620069457f7d5244c68c2838083ab0c22f6cec682a7b50c05c7ea0ce605af773dc900c672e60001b62003ace565b620069737f5315f77b478439121856adcf3fce57160fa7a46aaf472f9420a81dba74b14dd760001b62003ace565b809650620069a47f38ac525bc6a9a11949df115188e08783c1c30f85ab4938ad230e8fa8e3eb6ca860001b62003ace565b620069d27f2bdb441e8e8f74b973ce5ab79354cfe4e5f06608c032e6fc0b3f5f412876707f60001b62003ace565b858501945062006a057f368f0bff14f6b192f0dfcb64d8ffc4af61a03a93f5889c17bce3eec5b21cfe5860001b62003ace565b62006a337f249140c8863b8415bda518a42fc773f154e480789c8772b99fe6b67ebf7d914260001b62003ace565b6001955062006aa0565b62006a6b7feef8b8dde2419af3f5e8b75ad0b000373bb923ddbaa297099066d5e0ead2233460001b62003ace565b62006a997f0e6ff2231a6f714742937e81329e01d6894adf470e945551fc1c44893701dd0e60001b62003ace565b8560010195505b5b5062006ba0565b62006ad67fc9d89c8a53887d963a4e8d56dca397d7b08aaa27e6305e93f92f0f375579910e60001b62003ace565b62006b047f2a2b597eb732545855ef8069acc4d1c971cda65961d51c2f2f81b6aa1781e3d060001b62003ace565b62006b327f587e8808b16170cea2d583fc5220b7e5895bc65fc239d2ec97ce208821ff7b7360001b62003ace565b6040517f08c379a00000000000000000000000000000000000000000000000000000000081526004018080602001828103825260198152602001807f496e76656e746f72793a206e6f74206120746f6b656e2069640000000000000081525060200191505060405180910390fd5b5b5050806001019050620061a2565b5062006bde7fc40308395be2db8b021b615e51f195d021331c33a87bbe0b25ca7207c9aa393960001b62003ace565b62006c0c7f8317b9e874539714830b14249ee14325373e88909e07aae04b708faf699e307560001b62003ace565b6000831462006e8a5762006c437f4f04e61bfa6cbe869b1159245122180bdba3d089b79e92748d60da4488039fb660001b62003ace565b62006c717faee83fdef0abb49d6d402464ca131102509e809452963db1d76e57c139cedcb260001b62003ace565b62006c9f7f499830118b250d939dc8af8a1bdee67f915373661beb5694da0866cdf7283daa60001b62003ace565b816002600085815260200190815260200160002060008a73ffffffffffffffffffffffffffffffffffffffff1673ffffffffffffffffffffffffffffffffffffffff1681526020019081526020016000206000828254019250508190555062006d2b7f4ea30dd7d035407ebc755b636e8badf38077ebe2b5dbf3dbb5b0ec7bdb98013d60001b62003ace565b62006d597fa58b5974426e5c6b21a327de332840b59c0ecb6643a46f0dcf733251ca75580460001b62003ace565b81600360008581526020019081526020016000206000828254019250508190555062006da87fbf441de2b0b67b26ddefc2512cc02d7937c6361a17a90aebfea5a8695c4ca1cb60001b62003ace565b62006dd67f439ef8802971a846739d3b5356df6251e3bdec55c427c5aa66cebf0867488fef60001b62003ace565b818101905062006e097f08032c17ad32ea2bea3cda1a0b524efd5c3fd45d4e51f672594514c7678f5af260001b62003ace565b62006e377f0135d69f995be97e886e830062534f065a019531e6cb830e445688a4f010f17d60001b62003ace565b80600860008a73ffffffffffffffffffffffffffffffffffffffff1673ffffffffffffffffffffffffffffffffffffffff1681526020019081526020016000206000828254019250508190555062006eb9565b62006eb87f8d761264a6904c4ef7f0eb7b661805199beda29e1bd2cfc343f9cce573c2429660001b62003ace565b5b62006ee77f77767c60fc8c88b5f265947283f9b5f14522bc5f80e99c57732ded478d9b7f2e60001b62003ace565b62006f157fdd7bef30416ccfcc2c7efde8495c3059c716de24583936ee2da50c7e3876d48c60001b62003ace565b8773ffffffffffffffffffffffffffffffffffffffff16600073ffffffffffffffffffffffffffffffffffffffff1662006f4e62005aee565b73ffffffffffffffffffffffffffffffffffffffff167f4a39dc06d4c0dbc64b70af90fd698a233a518aa5d07e595d983b8c0526c8f7fb8a8a604051808060200180602001838103835285818151815260200191508051906020019060200280838360005b8381101562006fd057808201518184015260208101905062006fb3565b50505050905001838103825284818151815260200191508051906020019060200280838360005b838110156200701457808201518184015260208101905062006ff7565b5050505090500194505050505060405180910390a4620070577f4065eec53d306380c985a2e5638121cb0c8513390b59cb82fc15dfb3c28062f460001b62003ace565b620070857f79d91eb8079d1b9ab7ddf0dcc066da126267057a1c85b6a3ae16d497b38f592960001b62003ace565b620070a68873ffffffffffffffffffffffffffffffffffffffff166200fa3d565b156200714c57620070da7f2f66ffceeda164f9fb089037e8ea241478cd5256993f0517acd193bee85f9dd560001b62003ace565b620071087fe02d357e8e481ffb230164887bd29dd166e1d6618fa514fa0ffe9a79083c445660001b62003ace565b620071367f6dd8fc7437bfb92337c0891e30472bfa6670cd8a30b16c16b86d794c3616497e60001b62003ace565b620071466000898989896200fa50565b6200717b565b6200717a7f5d59e329ee03ac4775b1e332b1098974fb3063a2a612b94179aca2fc264b13b660001b62003ace565b5b5050505050505050565b6060620071b57f1c9aa8b0a38f069e1470ab73c22da607a105214ef5de328816e9d32a1e8b441b60001b62003681565b620071e37f5170b3391e3dcb54efdddd1865c65f8bcdfb112f0c2230607b93231388faea7b60001b62003681565b620072117f378669c14060759ae4c60ec9f0fc205bcc45a295b03ae0f63f92feae3939ea1460001b62003681565b600b6200721e836200fdcb565b6040516020018083805460018160011615610100020316600290048015620072805780601f106200725d57610100808354040283529182019162007280565b820191906000526020600020905b8154815290600101906020018083116200726b575b505082805190602001908083835b60208310620072b357805182526020820191506020810190506020830392506200728e565b6001836020036101000a038019825116818451168082178552505050505050905001925050506040516020818303038152906040529050919050565b60008054906101000a900460ff161562007371576040517f08c379a00000000000000000000000000000000000000000000000000000000081526004018080602001828103825260108152602001807f5061757361626c653a207061757365640000000000000000000000000000000081525060200191505060405180910390fd5b565b620073a17f1c7f6f69ca2ed43d09883f0a0e776e35b8bb035208df6d8a7d4117ed99b55cbe60001b62004235565b620073cf7f9bd1c0208ed0f58cce5416dbfa22409c39126a90f95260d336cb2b7b9ab5eb7f60001b62004235565b620073fd7f2e14f64d581606e145e6236a4c5e5fab95d15e1aeed8304f2afaa54c729fa8ff60001b62004235565b60006200740962005aee565b9050620074397f55481f144779c0a3fa43eaf1915aa3e9796c33c18a4d079779093e28eef448a460001b62004235565b620074677fc413f5bff474b2998c24ecbe4ba00070af8bafb2ae91d4c631fb72ffcfe5b87560001b62004235565b600062007475858362005af6565b9050620074a57f442cab8ccfbfc13d85420effaa213cf330ecda6cfedecafa8cb4b24f03e00f3560001b62004235565b620074d37fb0666ebcd7923be1e37912b774793984b935d543e7428d6fee844cc49b306bfa60001b62004235565b620074de846200b3a1565b156200758257620075127f70b75c1e4f5d44d3796211848d2467d6d743d54634a479de8a0e771f77402f3b60001b62004235565b620075407fdea6f2c6829c84b1e1e2151b054477465b0c8631948b45b94bca43b08b8c24c960001b62004235565b6200756e7fc18864089641d9c93f9495bbb12e9b07eb6e7a557343d4dc25f8e03784a8ec4c60001b62004235565b6200757c858585846200ff1e565b62007840565b620075b07f323d3ab6ed56afe8bcb1d9bd12860431205f13b30f8ac367339afc5711c288db60001b62004235565b620075de7f8c8f4f713ee4649a19cd9341c9030d60b91f4a9532a53ef02c3a741fa4da749260001b62004235565b620075e98462005912565b1562007747576200761d7ffc082e4196ce0bb19a58af8dc526178f910508ce49593e4bdbd5134499d3d08e60001b62004235565b6200764b7f7978d4f7d8722a2e380c44966274f1889ee0eb307876d7ac0cc14b76d5afc95260001b62004235565b620076797f7c381be590d5ca3c8ec6b7c27080d941d1c62939ab8e80414f04964601a07d0160001b62004235565b62007689858585846000620104bf565b620076b77f0b8b5f9e2b0b3077471ef295eec812779385f01492689f6331af84bf223b9c7060001b62004235565b620076e57f3e245d3e984847f0f91466b90804d89182abc04e41bbce3b0e93a3dff783821860001b62004235565b83600073ffffffffffffffffffffffffffffffffffffffff168673ffffffffffffffffffffffffffffffffffffffff167fddf252ad1be2c89b69c2b068fc378daa952ba7f163c4a11628f55a4df523b3ef60405160405180910390a46200783f565b620077757fb5649a1cbf273c613e7726a70ee44f5d52168f5030825e50c10ff5e499bff34660001b62004235565b620077a37f474362d7809e539f938b8d158e48781c7580da21645eaaf1d3e734ac08a8ffcc60001b62004235565b620077d17fd0ae9fac66c43c2df71b213ae81bc3e32f9b6f24e866f5ea20d87c4eacabd3a360001b62004235565b6040517f08c379a00000000000000000000000000000000000000000000000000000000081526004018080602001828103825260198152602001807f496e76656e746f72793a206e6f74206120746f6b656e2069640000000000000081525060200191505060405180910390fd5b5b6200786e7f6f4489d91bb88c530c99829f8b6deac60dfd365351343c066f904d6eed924b1a60001b62004235565b6200789c7fb59eac1cbb5fd30992a1f39281b1b6cc96a5144e514fd1114fc0e10bf162d41360001b62004235565b600073ffffffffffffffffffffffffffffffffffffffff168573ffffffffffffffffffffffffffffffffffffffff168373ffffffffffffffffffffffffffffffffffffffff167fc3d58168c5ae7397731d063d5bbf3d657854427343f4c083240f7aacaa2d0f628787604051808381526020018281526020019250505060405180910390a45050505050565b620079567f803d2fee26edc89f719abc7cfb2416814573efc0e2c8606a5655f693f81e351c60001b62003ace565b620079847f2d1e1aaa835aa5e6742c79d21484d52e25b6f22722a38b18855713a215cf256960001b62003ace565b620079b27fdccc5ef933511df012e05ec844b815965d47308bd0683587960bb275a9ad5ae860001b62003ace565b620079d183838360405180602001604052806000815250600062010cbb565b505050565b62007a047f6f353362373f746453a4ef64156f66cd65143529d75ed917e447b5ca6b6ef3d160001b62003ace565b62007a327f359f1100f1330ed0c486d47b8b187d79a719157c1e65fc19f5dea5588259ce8060001b62003ace565b62007a607f6db7b5a3eef1521737799d1896beb7778590604134f211283d781dbec116b18160001b62003ace565b62007a6f85858585856201144e565b5050505050565b3073ffffffffffffffffffffffffffffffffffffffff16638da5cb5b6040518163ffffffff1660e01b815260040160206040518083038186803b15801562007abd57600080fd5b505afa15801562007ad2573d6000803e3d6000fd5b505050506040513d602081101562007ae957600080fd5b810190808051906020019092919050505073ffffffffffffffffffffffffffffffffffffffff168173ffffffffffffffffffffffffffffffffffffffff161462007b9b576040517f08c379a00000000000000000000000000000000000000000000000000000000081526004018080602001828103825260168152602001807f4f776e61626c653a206e6f7420746865206f776e65720000000000000000000081525060200191505060405180910390fd5b50565b62007ba862012777565b60008060006101000a81548160ff0219169083151502179055507f5db9ee0a495bf2e6ff9c91a7834c1ba4fdd244a5e8aa4e537bd38aeae4b073aa62007bed62005aee565b604051808273ffffffffffffffffffffffffffffffffffffffff16815260200191505060405180910390a1565b62007c487fbc462f8f895e55f05ba9185de1814f426c33ea8e72e6ddd02034a867996538ce60001b62003ace565b62007c767f80f6df96f790073801a274072462a9f1b529826ed6a6ce207149c61d4340688660001b62003ace565b62007ca47f3644c93e0e09d57ef56964b81929973c0196b3d1ab08a23e4b2f2d32b3fa51f260001b62003ace565b62007cd27f81f67d6c57b7aa84980326e324c49961941b35e620f0e1b0aef1122344fd9a3860001b62003ace565b600073ffffffffffffffffffffffffffffffffffffffff168473ffffffffffffffffffffffffffffffffffffffff16141562007d76576040517f08c379a00000000000000000000000000000000000000000000000000000000081526004018080602001828103825260178152602001807f496e76656e746f72793a206d696e7420746f207a65726f00000000000000000081525060200191505060405180910390fd5b62007da47fb47921152a9e7d33feeadf262b6f3c03f83bdbf69a8271b771f2c2592da29f3160001b62003ace565b62007dd27f9a04a49a16f91da247611bd12200023af3cd7e7bf2193881249df49230e424ae60001b62003ace565b62007e007fffe99ac69268215bd554fffe83898b85744b0a8aaa711cdd254801a7b0b25f6760001b62003ace565b62007e2e7f6364ac1122bebd38a80caa4c2cab9aed4a5914e6673996f9b3c04aea5c22855260001b62003ace565b62007e398362005912565b62007eac576040517f08c379a00000000000000000000000000000000000000000000000000000000081526004018080602001828103825260158152602001807f496e76656e746f72793a206e6f7420616e204e4654000000000000000000000081525060200191505060405180910390fd5b62007eda7f1368169d0475371e66c0ab4afc6f88bd71e735d7437cd8fe012958b868943d6860001b62003ace565b62007f087f97a03b13035bf723936d8cf57b4859ad4297d2047ccf9f7ed62060056ea0bb2960001b62003ace565b62007f367fed9875d8f621d3f944783edca39f88892d91e4cd624ffc11975d48473e76410c60001b62003ace565b62007f468484600160006200f487565b62007f747f6fe7b6028d59cea834a8e3e5bbe6782c9d9808071c7035853f188b6bd2da245c60001b62003ace565b62007fa27f29998ec625a49a5807012ee18d1fd7647f87350c62ca9f97871239a8637a684a60001b62003ace565b828473ffffffffffffffffffffffffffffffffffffffff16600073ffffffffffffffffffffffffffffffffffffffff167fddf252ad1be2c89b69c2b068fc378daa952ba7f163c4a11628f55a4df523b3ef60405160405180910390a46200802c7f376d0baaa024916c32654dce2fa567c221d13c4ddace677b3cf0fb8f1ae9255160001b62003ace565b6200805a7fa56c4add5069ccf30732a61fee9aba83b8a21d645bf515852d045fac6d59f5d060001b62003ace565b8373ffffffffffffffffffffffffffffffffffffffff16600073ffffffffffffffffffffffffffffffffffffffff166200809362005aee565b73ffffffffffffffffffffffffffffffffffffffff167fc3d58168c5ae7397731d063d5bbf3d657854427343f4c083240f7aacaa2d0f62866001604051808381526020018281526020019250505060405180910390a4620081177f328e2e1d057220daac525972c529547a5169c60eda8a70976b92aa5b88f75d6c60001b62003ace565b620081457fe5f285a92d6798c8940d2e39eb0b0aac0d67b798a0fd47d926888273a37eba7160001b62003ace565b620081668473ffffffffffffffffffffffffffffffffffffffff166200fa3d565b15620083e0576200819a7f9de7ccdd265f1b26b7d12d7b9c6c95bd09c74d72aa29b7c3120652eba5ac9c0160001b62003ace565b620081c87fd8ac21682080bfefd45491367df2071e76c379c714e618de74f36008924a626060001b62003ace565b620081f67fb272e694a5e28ba0641f136d99e61684e768b816029697d20c746a5f0bd8626360001b62003ace565b6200820184620127fa565b15620082a857620082357fad811c6f11b9f175957839bd6ce052b6be09d03fafb4258e6c45a95704d21dde60001b62003ace565b620082637fc18501faede332a8cc2bf8cc0131539c0225d3c98b60ad1b8a9e0ca75c123c8860001b62003ace565b620082917f5771da7a12c050eafe8c01437c7f8fba5af6f029a31d84928975a167fe99a11060001b62003ace565b620082a26000858560018662012b3a565b620083da565b620082d67f375c6bdf4267362e24044ea7e84e1774cccd865192168009fc5a2fdfdb8b03b360001b62003ace565b620083047f0de716bc2ca65beb359714e07c3ab46f7755f51a70c81695a71c495fc9e53ccc60001b62003ace565b8015620083aa57620083397fda518e491b73e88ef0db08278d213b05e11527b24294e96a4df7cd7d11f18f6760001b62003ace565b620083677fb9cfcc68c68e279847331a05e18f36c14b4ca24a3b3b59d7475976b783eee3ec60001b62003ace565b620083957f8442f6dc7cd0952b1166839110a3694645d740d5aefe0a857e6b1d87228bc03f60001b62003ace565b620083a4600085858562012e2f565b620083d9565b620083d87f1571eb6718dd06d84fe9afafc16536d3430532acf068e13be0324456777cc59860001b62003ace565b5b5b6200840f565b6200840e7f1dd28661cddae09d259524234d3d2f065aae0909994d4694aad933aa5e8c6cce60001b62003ace565b5b50505050565b620084437f982e3e044580f18d587948fa8658184c056815d5d3c9860d89a7032ef9a1063c60001b62003ace565b620084717fa27079341bd9459bf78627b780b32d1f539e28e3ac2fd1c133b3edf813042e6360001b62003ace565b6200849f7f609f40499b51845f29252c3c8a3c1f4fdbf58193b366f0ee86c5505da09f9a8360001b62003ace565b620084be83838360405180602001604052806000815250600162010cbb565b505050565b620084f17fee8bb6233351855c4e02fdaaa56161c4ff7636c77caeb378eae1c7fe370f675560001b62003ace565b6200851f7f35738fd88ce2c6dae260353d59c325e13b4d311f4b40ccc3b289918b6a05562960001b62003ace565b6200854d7f4f15a01cb1d84d239e0f5200331f78a7d6c17bb64d1b5d307908f14747ed90e860001b62003ace565b6200857b7fba2a1781bc41d2b99222098c290642ef432955b6c4dbbec596b795d4c777695460001b62003ace565b600073ffffffffffffffffffffffffffffffffffffffff168273ffffffffffffffffffffffffffffffffffffffff1614156200861f576040517f08c379a00000000000000000000000000000000000000000000000000000000081526004018080602001828103825260178152602001807f496e76656e746f72793a206d696e7420746f207a65726f00000000000000000081525060200191505060405180910390fd5b6200864d7f3fa8d56b9e072dc7a392fe3bac7a4381e1f64e617d87e7943cc9654ee25cf04460001b62003ace565b6200867b7f2c44935ade880c5ef7a68b14fb8f407d40b55be72c6619f0a79952c87d57382160001b62003ace565b620086a97fb7655e03c28ebb942504da3d832c812e77f12ac8eb87718ed6de72bf62ef7bb860001b62003ace565b600081519050620086dd7fcfe768c3ff736c08e01a8c31f7841d98888c730ad6b7df8814361a38d0e0fada60001b62003ace565b6200870b7f286f43694e67e9d5bdcb944be51c269e04ecd3fb0c2a2498e335412e426f94c160001b62003ace565b60008167ffffffffffffffff811180156200872557600080fd5b50604051908082528060200260200182016040528015620087555781602001602082028036833780820191505090505b509050620087867f5837d74bd0b1d2f4ebd543c34a42803c196d6d0701cdf761f9cc1fc16b63293e60001b62003ace565b620087b47fc4b002aa64bcea689d4977fa0fb61d30886349ba794588158e2c1bd5aca7c24560001b62003ace565b6000620087e47fc8dcfdaa8b50cb3ed3742dc2922bcb966d47a3fa905a9cc1c8be832a24f0fca560001b62003ace565b620088127f3bba131ab6923c06fd1eeec679d32d4b8cd6c6a66662ed4b9f692de0f6e018b560001b62003ace565b6000620088427fb83fd54770400f84431cdf41df09672ecc7f6a2d7493f15b7ce75487214cf9be60001b62003ace565b620088707fd77e60148a435235445e58402aa114acd29ad8ac4cc7c8dd4803d29767b8b35260001b62003ace565b60005b848114620090b257620088a97fd52997b02c0d01abad183d1702da4f47b42a05c959259d4368530faea643357b60001b62003ace565b620088d77fe0a2889a23ddd24aadbf61daa2bdcba6fa9269b3fad1faae0b2f603087dc201960001b62003ace565b6000868281518110620088e657fe5b602002602001015190506200891e7f594f82d7e2197b02be38d68247b304d3038b13371ed03d4d4ff20846b893472c60001b62003ace565b6200894c7f7961dc32244c42d31d77004e3dc17b7f7bf0053b71865f7a5f831b52c0a7acf960001b62003ace565b6200897a7f40117467af78f47d0de971b45e46662a9870611a835996a3324d93d3c959658b60001b62003ace565b620089858162005912565b620089f8576040517f08c379a00000000000000000000000000000000000000000000000000000000081526004018080602001828103825260158152602001807f496e76656e746f72793a206e6f7420616e204e4654000000000000000000000081525060200191505060405180910390fd5b62008a267fe1320fb885485a9e6b62750d465978927a27b0749e559a80aea9550eca02e4ea60001b62003ace565b62008a547f92762d23c1665b8c4f3d14fab7b7e9e0bc344c322962cdb991fda67a4ecb0f9360001b62003ace565b62008a827fb34d913cc0863d2a86f4824541097daa66655dac95c9ede529c196f305ff7ab860001b62003ace565b600185838151811062008a9157fe5b60200260200101818152505062008acb7fe94947e7ff74855be666d1420826ae2e299030b8d23c8e6344569a88ece4d18860001b62003ace565b62008af97f3bf7debe5babfde92758757570e3793c55e2b84f5e0bde20eb3eb181d5cc3c3860001b62003ace565b62008b0888826001806200f487565b62008b367fa7b198c1edcbe7b13df27baacebe51476d99a99d07037e600888547078ceeba360001b62003ace565b62008b647fa7e55947795311aaffb638d1d06064a6b2953b2daab01f75a3c1feaca8e82a1f60001b62003ace565b808873ffffffffffffffffffffffffffffffffffffffff16600073ffffffffffffffffffffffffffffffffffffffff167fddf252ad1be2c89b69c2b068fc378daa952ba7f163c4a11628f55a4df523b3ef60405160405180910390a462008bee7f3e57e58f632996c681da5f64f535949c4b2de1cf23e44dcebc3f19b9f3ef8c3260001b62003ace565b62008c1c7f074f02e12422b3055c99012bb92bacab4da4c764a31e983f776586d44715def260001b62003ace565b600062008c29826200b4fa565b905062008c597f1205bde03e40cf3c5049263d43e4cef574c197af68e8b60a6119952a4a2af67960001b62003ace565b62008c877fb7d6f6091df49bd64880d79b84fd6ec961db0fc5be94b70658d116cd9042514560001b62003ace565b600085141562008d845762008cbf7f2f741ef2e337fe03e4c0c38204019e293adb29b25e31741eb315cac5747be52560001b62003ace565b62008ced7fd96ce69c9b33720e8bfa0e7cce068b580158e1fd89ec7812eebdd06539f9ce1a60001b62003ace565b62008d1b7f300bb027905edc24a4f3b6708d041effb1aaa5020ae9524c21da8feeaad033ab60001b62003ace565b80945062008d4c7fe2f840819c76c103783fe935f719efb2d55afc5a33d20038b861b296f1d548c660001b62003ace565b62008d7a7f36693279110c77e4337ce890aa2d7acbfc74e43f83cfef8ec5abb57d9efd8af660001b62003ace565b60019350620090a4565b62008db27f75ac198d5a62f81e18e8231d7331e3e5d700d3f078c96666bec23a8bd3e121cb60001b62003ace565b62008de07fbba80c56ac8a02b2ad62fed8aac38b76e7a2a840a0614364cbc299d5421be79f60001b62003ace565b62008e0e7f199b844b609c744361e411a058d203084fd2f5f80f2bab3b82e291d3b990127660001b62003ace565b848114620090405762008e447fcb23e05a110e9107e7ce9e8862fae15d70139d020c042f250bb34c6ff24aaacc60001b62003ace565b62008e727f070bcc0bd576479343f9c7f249cb91a513a9fdcd0bf8eec9b17e35b7bf816c4f60001b62003ace565b62008ea07fc7f08e7a861def60ff6e58f506e0442eb68b24375a39d2e25b0c5404afa3527060001b62003ace565b836002600087815260200190815260200160002060008b73ffffffffffffffffffffffffffffffffffffffff1673ffffffffffffffffffffffffffffffffffffffff1681526020019081526020016000206000828254019250508190555062008f2c7f38449bfe79a5837b0537dc70934b7d84e4372752bacdda05b48827d4bccea58160001b62003ace565b62008f5a7f2d7bdb1db5412062627ae7f99053f759084528d9a8c0af3a9b5ea5983236722e60001b62003ace565b83600360008781526020019081526020016000206000828254019250508190555062008fa97fbdb11ae8aed3ac6f77d4061acbc1fddf087b2ea56a7ef9ee8b2eeb1f4e62e5b960001b62003ace565b62008fd77fe82f93ef69c936e0f94db4de1b686e8db63b52ac4044ea168eaea946141fe5c560001b62003ace565b809450620090087faa3a2d45c1e37d881473b271aeeaded66b73fede0fbebfe9a320d2ce9db3497f60001b62003ace565b620090367f96b35619186c914a8c3c0f190d32e1b3b2d76383e18483752567ea53be12637060001b62003ace565b60019350620090a3565b6200906e7fbbe0f7517fd854fb7e36246e8fdf15d8a91509649a7de375c35563994803439260001b62003ace565b6200909c7f1bfacd434fc83a225044d36d509ab6c66ae03b6c1c161fc6be96e51685632d4460001b62003ace565b8360010193505b5b505080600101905062008873565b50620090e17f355414f887916d0801a09a5464d51b7759ed706948334f6b321ba5a36540fbdf60001b62003ace565b6200910f7f5a4ffac1407e4763bf206a9dbb5a55f9e4b50231e338cc2c7972a648cc31d1f560001b62003ace565b806002600084815260200190815260200160002060008873ffffffffffffffffffffffffffffffffffffffff1673ffffffffffffffffffffffffffffffffffffffff168152602001908152602001600020600082825401925050819055506200919b7f291ba037685a596dd4b025cfd5011c05eee983dd86647a1d648f376c3981d37360001b62003ace565b620091c97fd79d33aa4538175005a2081c77572d6fdfd86dc719ba5bde41b2c602025e17b160001b62003ace565b806003600084815260200190815260200160002060008282540192505081905550620092187f64f104857052f01af6163d421d9481db9e2dc63fb969094d8aa117a2ca0f8ba460001b62003ace565b620092467f0988cb22beadbc18c99cbcdd01e3e86278877ed2dcb9ed1bb239972cc36cf51960001b62003ace565b83600860008873ffffffffffffffffffffffffffffffffffffffff1673ffffffffffffffffffffffffffffffffffffffff16815260200190815260200160002060008282540192505081905550620092c17f44fda65e8e0a977dd55a3fa02c2a07188ab1ed351b895086c7676cb8c250fcb660001b62003ace565b620092ef7fd29d21716f90a1e8a174128a9d95797a093241464360a6431209f4deb937f02360001b62003ace565b8573ffffffffffffffffffffffffffffffffffffffff16600073ffffffffffffffffffffffffffffffffffffffff166200932862005aee565b73ffffffffffffffffffffffffffffffffffffffff167f4a39dc06d4c0dbc64b70af90fd698a233a518aa5d07e595d983b8c0526c8f7fb8887604051808060200180602001838103835285818151815260200191508051906020019060200280838360005b83811015620093aa5780820151818401526020810190506200938d565b50505050905001838103825284818151815260200191508051906020019060200280838360005b83811015620093ee578082015181840152602081019050620093d1565b5050505090500194505050505060405180910390a4620094317f10af9deda08e8c31874b31f1ba5e70d361f2558e41cb9333d090d85c3cc0437b60001b62003ace565b6200945f7f5e3a067786928a98cf688ed16bd9cf9770608c7a6ab89ab275ae6cdb69fe0a0960001b62003ace565b620094808673ffffffffffffffffffffffffffffffffffffffff166200fa3d565b80156200949457506200949386620127fa565b5b156200954957620094c87f0ec5c2aa2b67a2e3176a6602b95e6bd7e5d6b35dd2237aca52d5476c80ebaad860001b62003ace565b620094f67f6d482b1f4a29f484fb5cf00886a860e76a8ba875bcd26a3f58a3e8215f3e31bf60001b62003ace565b620095247f4e679f8123b1fa52a1e8bfd31c7bbbff9f5ace0926c897149da17e8ddc76f87d60001b62003ace565b620095436000878786604051806020016040528060008152506200fa50565b62009578565b620095777f47cd23b964aae34e3902fee06fb2ba40264144eb9b7953a1d78bfe51a0c8546160001b62003ace565b5b505050505050565b6000620095b07f8372423b2498712bc8b092c26b7575098ac25ef08c042fadd27f067b412914ff60001b62003f5f565b620095de7f91dae1433bc1d4254670272ed556abc4b60bcd1b23907bd565f9e499528b8be460001b62003f5f565b6200960c7f0a6157f426386fe8cc5eaf6ed1d6d82048843ff0c41c499d87af73bbbff6780960001b62003f5f565b6200963a7f07bd4de6a4c57f8b2bc67197a3a5c07a0c7c79c79fb86a37e1f3a9ca1441762360001b62003f5f565b620096458262005912565b15620096b9576040517f08c379a000000000000000000000000000000000000000000000000000000000815260040180806020018281038252601b8152602001807f496e76656e746f72793a206e6f74206120636f6c6c656374696f6e000000000081525060200191505060405180910390fd5b620096e77f76104c4fe0931336e096f920ec748bea648bdbf957df59fb66e328e2dbcf48a960001b62003f5f565b620097157f956121f3d767cfc7a2a427dbe5487dc6a35360501c658a51f517e8edd3c4cc0960001b62003f5f565b620097437fa2fcb2230ea65fc5b1bc98060b25d5d1ae332a78797f62f73fa857a9600487c560001b62003f5f565b6005600083815260200190815260200160002060009054906101000a900473ffffffffffffffffffffffffffffffffffffffff169050919050565b620097ac7f444d3db973879435e3019ef9c2fc8bf83b186e4fff77e82a54030cf1a0ca090e60001b62003ace565b620097da7f17768b1cd5963f8af51d8c88ab318d8ac401ef498a4df83b749587668ed4391360001b62003ace565b620098087fd86ab2418d8d46e3232c3a043e1dcc406e65e1dd321b4b3d0d665119535e2f1860001b62003ace565b620098367f28a501752942b4e0f510f9866b80f39ab86e930ce4128a88d16f0f04e07843f460001b62003ace565b600073ffffffffffffffffffffffffffffffffffffffff168473ffffffffffffffffffffffffffffffffffffffff161415620098da576040517f08c379a00000000000000000000000000000000000000000000000000000000081526004018080602001828103825260178152602001807f496e76656e746f72793a206d696e7420746f207a65726f00000000000000000081525060200191505060405180910390fd5b620099087fb3f56791790ff51e8846b8bbb01ff59c94f8b45cec47119968ea1d7467e4640960001b62003ace565b620099367fee7d247225e06905857b3b49e24dfdfc91a6dd0e5c2a745dcccd69237f75b39260001b62003ace565b620099647f5b45a39a1089167decbecdd13f02dac8190682af400c756f9c85742b5fc9b8d360001b62003ace565b60006200997062005aee565b9050620099a07f413a9b1d6f7f2552095f680a148a929a0aed663b4c2fcbcf70236e657951a79560001b62003ace565b620099ce7f6a0d03dfda733d70cb53b4cc37e9b567eda0ae2ec83dd176ff2b07bd28a6245c60001b62003ace565b620099d9846200b3a1565b1562009a7c5762009a0d7f0b84207cf1877aeabca7228be6653f3abaa2894b00ad557972c07aed4ab1ed5560001b62003ace565b62009a3b7f33ca75e9cb42e6041aa82927155263d7e6ccbe5bc4028489f72402cd4ff5223760001b62003ace565b62009a697ff4b5149e50aa5c225b84daad6a5ae4deb07e36d94e910a4ec22f409ccde1f6a860001b62003ace565b62009a768585856200efef565b62009d39565b62009aaa7f0718f0ab4fd6c3fd553eb5489de319e6356477bf34cabe3ac7e7ccd81666ce8060001b62003ace565b62009ad87fae41b41f37ff0985f84f690f0c0f526a48e57532e2b0eff944225a0f65e01f4160001b62003ace565b62009ae38462005912565b1562009c405762009b177fbe946c6b6fe15716daf136caca64d18626de3e7672d04be492c9b3fa29c79a7060001b62003ace565b62009b457f1d5c4734e83552e849e9d3b430b6ded997dbf703b5d1516bdec29181e176033860001b62003ace565b62009b737f9131c0f1173204d4172c8933a01b0d896757d48e724410997d23a462bf0d555660001b62003ace565b62009b8285858560006200f487565b62009bb07f386639f4ba64b5d2caed9770fff3e158f9d980f3237459c36d27f3b30bf553c660001b62003ace565b62009bde7faae09e12ad12d2bfa509e5886834a3faf34ea64f2acc4d1f6dee6e6f80facea760001b62003ace565b838573ffffffffffffffffffffffffffffffffffffffff16600073ffffffffffffffffffffffffffffffffffffffff167fddf252ad1be2c89b69c2b068fc378daa952ba7f163c4a11628f55a4df523b3ef60405160405180910390a462009d38565b62009c6e7f859066e8aba6ebdeeb9ca3de2bdd0907faba4020a4b07c1fa4d4a5ca250ea14a60001b62003ace565b62009c9c7faf467acc880ab0979e8bac1fbdd585472a85dd6b11b3ba1af5d5450b85dedd3a60001b62003ace565b62009cca7fb9e4f5a725b70bc697652388535ca1c858f5a2f80c0f3edd090d1f08d6d0defd60001b62003ace565b6040517f08c379a00000000000000000000000000000000000000000000000000000000081526004018080602001828103825260198152602001807f496e76656e746f72793a206e6f74206120746f6b656e2069640000000000000081525060200191505060405180910390fd5b5b62009d677fac90b58d9d6e2337a07b83506608b9786a7d292ed6e4bfede26111e98a3744b460001b62003ace565b62009d957fe6049611115583c948f8c2362a4a81470548fb22c81d7c201195e3bdc39009a360001b62003ace565b8473ffffffffffffffffffffffffffffffffffffffff16600073ffffffffffffffffffffffffffffffffffffffff168273ffffffffffffffffffffffffffffffffffffffff167fc3d58168c5ae7397731d063d5bbf3d657854427343f4c083240f7aacaa2d0f628787604051808381526020018281526020019250505060405180910390a462009e487f40d745951e93778e3581614356595629042d0369096c970d1ee71b9c55ffe79660001b62003ace565b62009e767fce4f3ff185fb6d84fd97fda21079a12a0d16c9cf8a8917cf95a76d49a001466360001b62003ace565b62009e978573ffffffffffffffffffffffffffffffffffffffff166200fa3d565b1562009f3d5762009ecb7f149586b1d1873f39039969ca1b2188315a7788ff661683a167f3be578e8610bc60001b62003ace565b62009ef97f5f7f8901d46e931dbea92e40666ff82f9fb62ab21e61bfdbfd20aee6fae344f060001b62003ace565b62009f277f5c5617061cc03c80ef10a69d59d99bcaf8484c562c6481a252d49bf610da307860001b62003ace565b62009f3760008686868662012b3a565b62009f6c565b62009f6b7fa23d970905b7e0646f34b3548875f69513171111a103cb494fac92cdde4e190960001b62003ace565b5b5050505050565b600062009fa37ffc59fb60a67d68ccc943a08bea255237a8934f8573254c419d44acee78b9fb5060001b62003f5f565b62009fd17f98f1a734197ce0144080b5dcab6ead2cc6448ae6ac9f74591b10fe14068dde8360001b62003f5f565b62009fff7f4229c7945cfd62041b3ba6e4c405407793bcf9dae0f45f36cd4366446dded2bb60001b62003f5f565b6000600460008481526020019081526020016000205490506200a0457f76f6271e85367142214df8b00432d533a5a584b2beed694be1b982b7b8e8ba0e60001b62003f5f565b6200a0737f010e4ef836c8323f1b11ac94bb76bbc29163205384aa84a2d9dc4df82b3d2b8960001b62003f5f565b6200a0a17fa8baab55596048ea96020b9fb409fdedf74ed1133e5b72ec3e119ae964ce022860001b62003f5f565b600073ffffffffffffffffffffffffffffffffffffffff168173ffffffffffffffffffffffffffffffffffffffff1614156200a145576040517f08c379a000000000000000000000000000000000000000000000000000000000815260040180806020018281038252601b8152602001807f496e76656e746f72793a206e6f6e2d6578697374696e67204e4654000000000081525060200191505060405180910390fd5b6200a1737f63fffd706903801446a7efabf7df92c4d9fdada94d086ad790cd0aef24c5f40e60001b62003f5f565b6200a1a17f24f73a4c85f0b800a1d1385e752f32f97057b20ddb6e8a0dc360be5906b64fc560001b62003f5f565b6200a1cf7f705f4d31556b1218dfbe3ca5ed50e80c1f8f65216bc9ce328bbc7679108b70ac60001b62003f5f565b80915050919050565b6200a2067ff1de88709806d4e9a04e58e91479ed10258404a23f352b74cbdddaba3b4bcf8760001b62004235565b6200a2347f3228df3dba8a7aada12ccdd92ee3269f3a233374d4a0975dc472959549698a4360001b62004235565b6200a2627f830ef1da4b203e3fb433ba5db21213bac599d655bdd8bcfe144c41914d74a67960001b62004235565b6000825190506200a2967f4b863b8c0b3136f5b9c61a34ea4f759da3178aa83b3bb0ddb1705394fc7b989660001b62004235565b6200a2c47f886e9800408eb7c07907714149c0940500cc1808adfa97a7cb5006a08f053e8160001b62004235565b6200a2f27fe09a2d760a0491648d9c2056d52940a3e36810351f67b19b435cb574c212fef160001b62004235565b815181146200a369576040517f08c379a000000000000000000000000000000000000000000000000000000000815260040180806020018281038252601e8152602001807f496e76656e746f72793a20696e636f6e73697374656e7420617272617973000081525060200191505060405180910390fd5b6200a3977fc098f0adbb6c8b07ac5802367703bec344d96059d5a3b7ba294e38502c4558ab60001b62004235565b6200a3c57f912c660f380c4068db15ae2be9f310e20e703da7df6066d8c36c1a249919d73060001b62004235565b6200a3f37f97e474fa5d11a93d0626fdc78ad412f1f0232d2308e5e136f573ee8f744b93b260001b62004235565b60006200a3ff62005aee565b90506200a42f7fedb570ed820a9dd13d2767440b89a48f337c86d511304a0c7da19d632c340b3160001b62004235565b6200a45d7f372b264056cc52df913b04c7591a018da576393921d190ef074315673368e7cf60001b62004235565b60006200a46b868362005af6565b90506200a49b7fa9a7d53ac587b54b309f0d070e217ab7be9e15cb3153e92cd0c09d7f7c7fb41060001b62004235565b6200a4c97f3a85be2fdfa153129386789aeb73641ec84d71da0e600915a53eb8182ddac3ae60001b62004235565b60006200a4f97f01c9fa3631f21311af92f4e8514bc57c37d13e8f8506e0ade2a73beaf82e440f60001b62004235565b6200a5277f102eb1ea9f7cf10c72f0706fcc5b080b8897f742dd4c099917548a978982d51060001b62004235565b60006200a5577f6756cc25c985eec993c3531788ac53a1252ccd73f257b549ab6dca2b6ad874e560001b62004235565b6200a5857fb3288a5b837594bb46b472ef99f21c27b36b4333770d1526eb0bfdb7a1a7e6bc60001b62004235565b60006200a5b57f0b1a6012cb7583a5e51918476583d59fe601046a8250a8620e032527e16290a760001b62004235565b6200a5e37f62d9b1bbd7dc6c8a96265f2d67ec418c32942ee9a80af070a053ed751c272ffb60001b62004235565b60005b8681146200aed9576200a61c7f6293cecb694e6f80eda0e56c5b518494fb6c6e475f7e48ba14d7dd37c4f2f69260001b62004235565b6200a64a7f8a4911eb84dcfef802021892662cf08253e010bff9ed4fdc3628df511373504e60001b62004235565b60008982815181106200a65957fe5b602002602001015190506200a6917f9abecd4ebeea40b7173061a73c2445cf44811dcf14e5d04ed965c586611e857660001b62004235565b6200a6bf7fcf845325e4d8e168dce2d433c38e0b767bd380a7a61a5a0c9a5b866347192e8b60001b62004235565b6200a6ca816200b3a1565b156200a782576200a6fe7f52840d3c687c05b094c8cf957da45ce2e7d915ff08771801afbf563b02d78ffa60001b62004235565b6200a72c7f31e75d8f6eb0f0a6dfa33b753362d63db87c1d88d7e779b70af03031ff1f0e4860001b62004235565b6200a75a7f2e4b05cb1c8d38b558815f38755b77f4d6d26c5241f550b03455bdef652a1d1860001b62004235565b6200a77c8b828b85815181106200a76d57fe5b6020026020010151896200ff1e565b6200aecc565b6200a7b07f6d1d8feb9290199a98714ce9c2feef95e03e2c6b93759cf382324142d031a66760001b62004235565b6200a7de7f902206dc8350d2d16d417a926e83f0a2ceda7b2ade9b37745f5e798481a5c23960001b62004235565b6200a7e98162005912565b156200add3576200a81d7f3179dc5e4d9928c2763e507084ad516dac9d5d54a568c94765174e97b485cf8f60001b62004235565b6200a84b7fdd48b425203f3044085e4a72d496b5c714e190e0709afccad6e500881e8da84a60001b62004235565b6200a8797fed93fe242a7355bbe948beeadf6571fb5c5aa6767a73ecf1ad854a7d80445a8760001b62004235565b6200a89d8b828b85815181106200a88c57fe5b6020026020010151896001620104bf565b6200a8cb7fb94f41b5b5982f45a153406b341910cbcb3016684b7b71d0e2df53e08a3ea92660001b62004235565b6200a8f97fc94fb1a349f4dbd1bb5e6a1e884c38fe5ac8643363fff44cd45b37f863ae6f8260001b62004235565b80600073ffffffffffffffffffffffffffffffffffffffff168c73ffffffffffffffffffffffffffffffffffffffff167fddf252ad1be2c89b69c2b068fc378daa952ba7f163c4a11628f55a4df523b3ef60405160405180910390a46200a9837f90c424289b7daf7176484471e937766e489ee1a18a0dc746e373b057b1bd60d060001b62004235565b6200a9b17f2ec8a0097b8510e704554e994a214a852e92b5122f0f36703e22f8d2fec9cab960001b62004235565b60006200a9be826200b4fa565b90506200a9ee7fff9908ddb1e6d0e4478c1414603a2236bd188ae09a2874860396cfbb553a9a2160001b62004235565b6200aa1c7f53ee019b8537f376d9b261054ec751c28caf50ebb9297f82587ab3252dc5703a60001b62004235565b60008614156200ab19576200aa547ff54c4268302c837e53700eb5b16dbada9d47bc3a859eab47b7af9fe0bdfaa74a60001b62004235565b6200aa827fea7d9431bfc6ae230571b62662001a1892d7792c55c2d92e2dd0212d0b48dc6560001b62004235565b6200aab07f9b3c2123fe2cbcc263cd3c17114a2e6a0d2a64012350bb0c7349b60ae3bc23fa60001b62004235565b8095506200aae17fce97c368a8d8cf26f5372cbfad97b4656a51fec4dba8ca5fbf9a8c21318150f660001b62004235565b6200ab0f7fc113c24070c4bdc934fa6d374bf87ca439fef18a6d843070ab082f8fa21073d460001b62004235565b600194506200adcc565b6200ab477f49fe825ad181251ed1973bae2ab84089418e2b304aa8fde59e334f1624e3756260001b62004235565b6200ab757f63aa987e191886f7948c6be4c2ab1ab445153a2839ce7992197c87977a78200060001b62004235565b6200aba37f9272f88e5b21b72bebf0533dec1c3e7101d700cce5b9372013ce7656d8657cf560001b62004235565b8581146200ad68576200abd97f85803034d027f2aa7b741f6612518d63dacee9af890b3b078029f6a233cebb8060001b62004235565b6200ac077fe5543246482303d4ee136db07636a4253952a710e2919670690b3dd707ef176860001b62004235565b6200ac357f95db1614ab6944f115ae033aff4c3b62f35402bd6b57ad1566215e2d2ce52b4360001b62004235565b6200ac428c878762013134565b6200ac707f83301afa148a1823ef52e8f681f0f70f08cda6465cbf3dd0d41d9a377cd5008c60001b62004235565b6200ac9e7fdd5adb4f414debf79d0801a53fe1b1cee97380ff18f0745de48fb5f20749e6bd60001b62004235565b8095506200accf7fc3c823dbec708acaedc353e8c51050de0db0f56d5b8dc19197512c2c6e9dd9f660001b62004235565b6200acfd7fc7ed088c48407057c0445f51bcfb6a6a6127041d9be5d2a7e5495bc5bcd1b9cb60001b62004235565b84840193506200ad307ff640ad4fcf8eb6611e87e4b9ea122af804bfa1e2d3ad2f1b54af6d2ac401281e60001b62004235565b6200ad5e7ff4c5eeb6c303cfde95153167254db8d0223a75d532cbb9b945e35237a550583460001b62004235565b600194506200adcb565b6200ad967f97fde7c7af822e9f1b198644bae379a0ee12bae4ad05ecc07f83a5e60ec928a260001b62004235565b6200adc47f848d51c2de016670fb6b34f4627bbf01f89f18aaaae073c1c0f9b05551ac4e2660001b62004235565b8460010194505b5b506200aecb565b6200ae017f6b7a63c7ffb89c08ebfc0f7a1e550923207205a48e0b8a64d0b721da5615e86e60001b62004235565b6200ae2f7f2286e810d9e63ef52b295ec52dd74891bdcf617f9831209854267dcdfb1caf5460001b62004235565b6200ae5d7fb432925c166827aaa00bb75efe5ca39da4585c3684252e97a37925e14c8c91c660001b62004235565b6040517f08c379a00000000000000000000000000000000000000000000000000000000081526004018080602001828103825260198152602001807f496e76656e746f72793a206e6f74206120746f6b656e2069640000000000000081525060200191505060405180910390fd5b5b508060010190506200a5e6565b506200af087f7a21e6c313f9c9779218986e06faaae84b35ad17ce8cb2d25927c67d3f23ad0a60001b62004235565b6200af367f72217ebff02b716ce66d94fb6bcee40c6850f83b492c7451cdf263cb65c5bc1d60001b62004235565b600083146200b0e6576200af6d7fe93bce4688ee7b84dfc6eb9a25f7e38eeac6994fd67e7fe12c0c04a937ec427e60001b62004235565b6200af9b7f67ac7674fa11fd2ab2f3f6e35067a19ba15d40c4d72c8217d84370b3ae676f1660001b62004235565b6200afc97f0d8452b38d575fc760088e9044a70917d7a036564871aab06394576029d5fd5260001b62004235565b6200afd689848462013134565b6200b0047f013c50c5409b8471a838e0f63bc8d3992fb2b1f1bb82229460a5c9b48a8534b860001b62004235565b6200b0327fe07f3d461426deace3a073e8bf154dd30758a6bb1da656f204db404889ad98e160001b62004235565b81810190506200b0657f4f14471f64b96ea08b7e8e20795ee427f8aa731ba56fb29933a3937ad575c83f60001b62004235565b6200b0937fcba99ae662e8ce2f71fd441a978f9b11697f2981709ec94839b38b3514b69c3460001b62004235565b80600860008b73ffffffffffffffffffffffffffffffffffffffff1673ffffffffffffffffffffffffffffffffffffffff168152602001908152602001600020600082825403925050819055506200b115565b6200b1147fd7e639cba219d1e99223c7d9f961558640386644d72104a3fafd2676c6a2389e60001b62004235565b5b6200b1437fd20d4fa51181fc896308ffa05f9d6d8bdb79f454c86544ba7806f28d55c52f9c60001b62004235565b6200b1717f66fbe2f9076f0029b0db469744eb53d6a864cd0362ac34d301e804543a56247860001b62004235565b600073ffffffffffffffffffffffffffffffffffffffff168973ffffffffffffffffffffffffffffffffffffffff168673ffffffffffffffffffffffffffffffffffffffff167f4a39dc06d4c0dbc64b70af90fd698a233a518aa5d07e595d983b8c0526c8f7fb8b8b604051808060200180602001838103835285818151815260200191508051906020019060200280838360005b838110156200b2235780820151818401526020810190506200b206565b50505050905001838103825284818151815260200191508051906020019060200280838360005b838110156200b2675780820151818401526020810190506200b24a565b5050505090500194505050505060405180910390a4505050505050505050565b6200b291620072ef565b60016000806101000a81548160ff0219169083151502179055507f62e78cea01bee320cd4e420270b5ea74000d11b0c9f74754ebdbfc544b05a2586200b2d662005aee565b604051808273ffffffffffffffffffffffffffffffffffffffff16815260200191505060405180910390a1565b6001600c60008373ffffffffffffffffffffffffffffffffffffffff1673ffffffffffffffffffffffffffffffffffffffff16815260200190815260200160002060006101000a81548160ff0219169083151502179055508073ffffffffffffffffffffffffffffffffffffffff167f6ae172837ea30b801fbfcdd4108aa1d5bf8ff775444fd70256b44e6bf3dfc3f660405160405180910390a250565b60006200b3d17fed9fc71c744ea71b9cf2ba55c2d494233fcfb712960f41109307a90a60776ee060001b6200ee13565b6200b3ff7fb675b7f5d29b89e9c6850a2a0844fae122e658d730f820598fa14bccdd3a6fc160001b6200ee13565b6200b42d7f62b30ea66711399f1be3918d0096d18aa951fee6b06119bef078df6ff41f2d3160001b6200ee13565b60007f80000000000000000000000000000000000000000000000000000000000000008316149050919050565b6200b4887f69b2eb07085c6c576b8cc58c802d4c5be931e45c8275c70620b5e2182e41ec8360001b62003ace565b6200b4b67f8a112e67c92b896816ac75491d30f717cdfa935146dd663b90e0512917807c4560001b62003ace565b6200b4e47fcb92f7a5c777b027fde6e5d29fc3a9f959f37c5a456eb56e431f09fffbf785df60001b62003ace565b6200b4f484848484600162010cbb565b50505050565b60006200b52a7f3408f41d31eb00b3bc2e0f54b103c1882010cffcc4d022d75c551fd3964d2f1260001b6200ee13565b6200b5587fffce922ddbd3ff02a9b5820b08b841e18a7685ac2a1a73063ee6757e67eda59c60001b6200ee13565b6200b5867fdbc60c1bbcbc3aca99258b883c8dd2e66f0644a366cb7f8cd99e3e50315a52ce60001b6200ee13565b60e063ffffffff8016901b82169050919050565b6200b5c87f8b06ef8794557c219d61a561a91f5ef2f03a82cea52a20a891696a26aa285b3760001b62003f5f565b6200b5f67fdab5f5f2a0c1e46c6f35fe5c5bf6063aa13300d77c3191b1fe5226c6b791a72860001b62003f5f565b6200b6247f2d4bfc76497b9defe4621013a2b4e9d1da4217d10e0e96087366a979e5ac701160001b62003f5f565b6200b6527f8433d17f3d25ee896fd254a7919aad4127c878b1ac32c8c20cc99dc5eab5402360001b62003f5f565b6200b65d8162005912565b156200b6d1576040517f08c379a000000000000000000000000000000000000000000000000000000000815260040180806020018281038252601b8152602001807f496e76656e746f72793a206e6f74206120636f6c6c656374696f6e000000000081525060200191505060405180910390fd5b6200b6ff7f60df7a025541fd523e21b5099e158e3bdc975d2a7dc20f7ccfe2a2151b896f3d60001b62003f5f565b6200b72d7fdd7122feaf7a15ed93b3979906a7973dd90c6bc76ebb625a5794ff28414e864d60001b62003f5f565b6200b75b7f2bcc91a155bd276d3b7132f16f739c8012b44aa43162bd273ed661329013566a60001b62003f5f565b6200b7897f90628f9b2712185b1680b337a82c73598ed6481cc55d19a4dd0253f5923f558560001b62003f5f565b600073ffffffffffffffffffffffffffffffffffffffff166005600083815260200190815260200160002060009054906101000a900473ffffffffffffffffffffffffffffffffffffffff1673ffffffffffffffffffffffffffffffffffffffff16146200b85f576040517f08c379a000000000000000000000000000000000000000000000000000000000815260040180806020018281038252601e8152602001807f496e76656e746f72793a206578697374696e6720636f6c6c656374696f6e000081525060200191505060405180910390fd5b6200b88d7f35f491cab3a4c947acb51ae446fa8c713753be02ec39e773f79bf617f3b8556f60001b62003f5f565b6200b8bb7f98c5515a36403d2f77b76884fb480d05c77940a8ba463640a5f4746646d5767560001b62003f5f565b6200b8e97f779d147ee40d1d06d066c59e70b3e2b4235c5e8fa57786aea3cba72f869434fa60001b62003f5f565b6200b8f362005aee565b6005600083815260200190815260200160002060006101000a81548173ffffffffffffffffffffffffffffffffffffffff021916908373ffffffffffffffffffffffffffffffffffffffff1602179055506200b9727f9b1cf4f8628ba0d5a5cbea11177260e43f2ea5bf0f6eb94736e94f8e6ebc66ae60001b62003f5f565b6200b9a07f520166cbd240cd38d928b2c80ec3d40ec16c70e689a30a1571aac54d8a5da7de60001b62003f5f565b6200b9ab816200b3a1565b1515817f4ebf8ad0df535ba5e487bc9cb27fe44120ca81c3a95d3eba79c0bd1df2ab2d5d60405160405180910390a350565b6200ba0b7f355d1c8ef3f8bb778c94b454f3982f892821640c1907ddca3b47d8d71ebe1abc60001b62003ace565b6200ba397f920eb013b499b78f7d8ac15eee032381ce2b4d074ea8d853ab66c9b005efa29f60001b62003ace565b6200ba677f850bf251e06a65d05214652669e26d7eb140acffae7c9f6f5afbb9f84762b2ff60001b62003ace565b60008888905090506200ba9d7f1704a359e69d6e5bf5bf3890afb38d357ff7b9f2b3ed3eb396fc4aed0a10421f60001b62003ace565b6200bacb7f40fb35db8e57aeb9ea0c5c0dc410c2fa5c58ded5b0f6cd32549bffbc1c892a1e60001b62003ace565b6200baf97fba60e9af9612a3a5397ce6b69d1517e6abd330486bcee240c905ef3f3dca148160001b62003ace565b86869050811480156200bb0e57508484905081145b6200bb81576040517f08c379a000000000000000000000000000000000000000000000000000000000815260040180806020018281038252601e8152602001807f496e76656e746f72793a20696e636f6e73697374656e7420617272617973000081525060200191505060405180910390fd5b6200bbaf7fef20269fbc94c1eb16ec91e4bbbac68352cf7a4118db02e0f8c77c1e33c0084e60001b62003ace565b6200bbdd7fbc3f3305d3a1d619beb1e72f856ee09409cf9e72d9f9de6b002196d6c2284e4060001b62003ace565b6200bc0b7f18a1474ee212b882aab6d9649a4fbc6f32450f7b8aa5cae434a0caa9bfa0847460001b62003ace565b60006200bc1762005aee565b90506200bc477fe85ba718d59913b0c19805d59054a20007b7e1fb2bc231761c7b1529e5eead7060001b62003ace565b6200bc757f521bac9eea7b41aae9bc113fa8c50c28743a7485e55d2bd0b6b78991fd5c527060001b62003ace565b60005b8281146200c992576200bcae7fd41646d6cbe57b2148f7efe6be4ab91721938511b7a524a8fd3738ad2cf89d0160001b62003ace565b6200bcdc7fe6baa72fe721951ca695876abced2fecb92b1bbe8313c821a8df33a05ac1596960001b62003ace565b60008b8b838181106200bceb57fe5b9050602002013573ffffffffffffffffffffffffffffffffffffffff1690506200bd387f681078a96ff3a82a9c521637dbdb1138df18dbaf6452b20616173025a28a307660001b62003ace565b6200bd667f07181e5bcddba1518af5e91e29e2a5b123a637a46db6186f92cec9c7cb3ebc2960001b62003ace565b6200bd947fcddfa875e45260a4479a3b0cd1b92e1973d2baf5d639acd1fe8ea7b6452780c860001b62003ace565b600073ffffffffffffffffffffffffffffffffffffffff168173ffffffffffffffffffffffffffffffffffffffff1614156200be38576040517f08c379a00000000000000000000000000000000000000000000000000000000081526004018080602001828103825260178152602001807f496e76656e746f72793a206d696e7420746f207a65726f00000000000000000081525060200191505060405180910390fd5b6200be667f1895fd2ae29d3993c75501dbb23baad01619c4fd5bf00d37c50d987e037e395460001b62003ace565b6200be947fde4e6a90cef894916bef8746ed8beb9decea949dab2806b2b890d13a5b35a13d60001b62003ace565b6200bec27fa422bc2ecb2bc310fc8bf4875e365b41b91d7058a6db8236336ac87e6b56185c60001b62003ace565b60008a8a848181106200bed157fe5b9050602002013590506200bf087fbad6d0ee36b1eab0abb8e0104776a428534d50963109bf125aa7d3d1f307565460001b62003ace565b6200bf367feb35e364c64f565267f8ce06926a207edca08ae3732e9361988ed924d4810c6960001b62003ace565b60008989858181106200bf4557fe5b9050602002013590506200bf7c7f15ddf74ddc98c9d96ae606893749db08cd797a8eb065922163ad42af16ac03b160001b62003ace565b6200bfaa7f325b14950562a8d89f0803cc456f6554b764599d058d9e77cf70203c83b7b3d560001b62003ace565b6200bfb5826200b3a1565b156200c2cf576200bfe97f5056d06b75266bf3452d2db53edfa199a9a92098780d044fb38a41435bd598ff60001b62003ace565b6200c0177f4af10ba8d834d319028f96457494d75f1b167105be706771df622675b58287e860001b62003ace565b6200c0457fe9c8ad1500a1c3be4ee552079ed0868d0438ece8130482ae0aa3f423e7a4ed2460001b62003ace565b6200c0528383836200efef565b6200c0807f290ceab84a42c733fcfe270da6d60d23718c4339f289de52ce6e9a911e57b4f560001b62003ace565b6200c0ae7f7ea3548704162da7832339a33c9f0a4b4cbddd9d113719eff89226527fd0111460001b62003ace565b8273ffffffffffffffffffffffffffffffffffffffff16600073ffffffffffffffffffffffffffffffffffffffff168673ffffffffffffffffffffffffffffffffffffffff167fc3d58168c5ae7397731d063d5bbf3d657854427343f4c083240f7aacaa2d0f628585604051808381526020018281526020019250505060405180910390a46200c1617fe7dad3b38125c5baf97387c79932e4388fcc8645832f57e2963c9ee8252cb62260001b62003ace565b6200c18f7ffbe35f7b5dd8b1c05f583c6befcaefc8a29dc42462f85b7ed210cda4a4da578760001b62003ace565b6200c1b08373ffffffffffffffffffffffffffffffffffffffff166200fa3d565b156200c29a576200c1e47fa6e2a3eb2e673b6f89d5d3c443c46240b98118e2862dfc8e543aef7db756d5d060001b62003ace565b6200c2127f5f2cb70b1f00f9e305aa9ed3fd7ce568d69cd9ec788802f54a55b9a439e64f3760001b62003ace565b6200c2407f54eab69d660e384730b8e0f4abd95d87accfe07626541c3c7c3c425dfd042ee160001b62003ace565b6200c29460008484848c8c8080601f016020809104026020016040519081016040528093929190818152602001838380828437600081840152601f19601f8201169050808301925050505050505062012b3a565b6200c2c9565b6200c2c87f095c718e27532a8366424ae9a48db069a9b9eef1a1922351a4d6875832b6448960001b62003ace565b5b6200c983565b6200c2fd7f7fb5a6cbe1f8c50fbcecc254aa86fdd21a6cec85094783f9930ca475ec77a31360001b62003ace565b6200c32b7fadcd28deb4d2199c240e951c47cf00300d5e7435f5465a8c872c97860d67f14f60001b62003ace565b6200c3368262005912565b156200c88b576200c36a7f857f3d1c083fd5d79098fae91ec721da1125cea0e7a781b0a9d6d4e1bb92b75c60001b62003ace565b6200c3987fbdbb8d2935fcc184b9e730bb828e04f210208949ecb8d7c3c098f049b898c19b60001b62003ace565b6200c3c67fef80501f09e6da1ad330db296f2c9a50ed72026d728b8e38107181d5bfc6cf7a60001b62003ace565b6200c3d583838360006200f487565b6200c4037f80ff0a3c794082584d3bd6ecfe72d5f7c904f6add6eee3210675f0f9f0b42d6960001b62003ace565b6200c4317f1bb1f52ba704ca996357be9e3f9fea9a5a56902f6e28ce032bd9233c51ee9aa560001b62003ace565b818373ffffffffffffffffffffffffffffffffffffffff16600073ffffffffffffffffffffffffffffffffffffffff167fddf252ad1be2c89b69c2b068fc378daa952ba7f163c4a11628f55a4df523b3ef60405160405180910390a46200c4bb7f6bad9a1420e70e9db498ed099c34250023beda84d89736920f031ab0b70f841b60001b62003ace565b6200c4e97f734820e16b7d5adbed1f22a022d7df693f60beb578621d44879362232403588d60001b62003ace565b8273ffffffffffffffffffffffffffffffffffffffff16600073ffffffffffffffffffffffffffffffffffffffff168673ffffffffffffffffffffffffffffffffffffffff167fc3d58168c5ae7397731d063d5bbf3d657854427343f4c083240f7aacaa2d0f62856001604051808381526020018281526020019250505060405180910390a46200c59d7f46da94f40b39920ee4d71508a62c9a79023059f93116eea2e3f93b2e7f2c053360001b62003ace565b6200c5cb7fa9a4688bca4ffee6a0d79c0b8cc83d172a4031403d6bd2827992aa2a1307538c60001b62003ace565b6200c5ec8373ffffffffffffffffffffffffffffffffffffffff166200fa3d565b156200c856576200c6207f141a47f567dd84e1bc26dd80080af5f654b0f026b8b9cdfcb74861fa74aa685960001b62003ace565b6200c64e7ffc0e1c9ac528f58fb7de3e00d76b76e45417232ea7fe06ac5a99aad985be15ec60001b62003ace565b6200c67c7fcfa7f6ebd80c3ac8caab65031d20a1a552f252b84e413346ced632ced98e8ede60001b62003ace565b6200c68783620127fa565b156200c772576200c6bb7f53f479b5c2bf5f822a1e982be11a289b160700f3e6d77520f56a12c946169e4160001b62003ace565b6200c6e97fde47206802f0ff1d38356cd9be3e41cb4537c73272c02fa86a68ac48f0de0d2c60001b62003ace565b6200c7177f99666f8152e52640eaa5199d589bf0cde9ae3efe3e4b40a83d275ca4f691aaa460001b62003ace565b6200c76c6000848460018c8c8080601f016020809104026020016040519081016040528093929190818152602001838380828437600081840152601f19601f8201169050808301925050505050505062012b3a565b6200c850565b6200c7a07fbfc5a723d1ae26805bd6d1c08867bac5c99c9a4f8ad94a11f75f65af6bac8afd60001b62003ace565b6200c7ce7f3317129313b309fda673c6935ae2c7d8b48ef35d97866437c2726c05cd57394260001b62003ace565b6200c7fc7faa6980254df9a84ab86ddd79f20f7e8aa1055304dd5893112d567b6efde84dcc60001b62003ace565b6200c84f600084848b8b8080601f016020809104026020016040519081016040528093929190818152602001838380828437600081840152601f19601f8201169050808301925050505050505062012e2f565b5b6200c885565b6200c8847f1031f7c3c91062230fc0c7dcab592a31899132159510db2e41b99abab668b6eb60001b62003ace565b5b6200c982565b6200c8b97f8a4aa255efb5d184879de54d029f32b48dfcd963880551d89b463731d9d93a7660001b62003ace565b6200c8e77fdcf59b30ff89e0358bb5a339a79fbf7c7d62ee149ce6835560d42567f90b1a3c60001b62003ace565b6200c9147ee96624ab32ed82624004c966546d3ba0c6ec1a8913403e9ae9aaece74f35c860001b62003ace565b6040517f08c379a00000000000000000000000000000000000000000000000000000000081526004018080602001828103825260198152602001807f496e76656e746f72793a206e6f74206120746f6b656e2069640000000000000081525060200191505060405180910390fd5b5b5050508060010190506200bc78565b5050505050505050505050565b6200c9cd7fd6dccf0535bf9013ed01d767432d32531f9c9a98b389f1796a9a20d7cd79644260001b62003ace565b6200c9fb7f394783b2e1520b8900b02e55376a95d2ff8254f479465cb61f91203934c489e160001b62003ace565b6200ca297f3ad3e5cfa764dac93a75257ba8db3564229cb11c8d7306c6cdfb128a595af87760001b62003ace565b60006200ca3562005aee565b90506200ca657f70c1529ca87a3a9cf5072969046401a7de4c92b2a81662fd410d2c42aedc4fd260001b62003ace565b6200ca937f32a454b993a27e6f17c3f7114d13a9eb2c71f8bf7574b765c927040d562e1b3a60001b62003ace565b6200cac17f862a745cd48b2860f1861a7a467b780387e6ed9de6325559bcc51b86694f8f5860001b62003ace565b600073ffffffffffffffffffffffffffffffffffffffff168573ffffffffffffffffffffffffffffffffffffffff1614156200cb65576040517f08c379a000000000000000000000000000000000000000000000000000000000815260040180806020018281038252601b8152602001807f496e76656e746f72793a207472616e7366657220746f207a65726f000000000081525060200191505060405180910390fd5b6200cb937f8444e108506106fff01b0ca0abeb7fdfae9ca7f2c28109e4ed77a4c1033e046c60001b62003ace565b6200cbc17f6cf68b1cfcbe18d0bed05f7a4d961a9e92f947b9c93bbc3441851865fc77332a60001b62003ace565b6200cbef7fda899d8b698449fa996f72b606703899a99db9700b30a908acc50478db4f15bb60001b62003ace565b60006200cbfd878362005af6565b90506200cc2d7fb000deed76f75f1b10e99eafb47552a6bc97f409559c44d0fa9246a6736d15fc60001b62003ace565b6200cc5b7f888f1753ae815b4677140df0de6acd3d5800087b975828dbb00d42857993ca4860001b62003ace565b6200cc66856200b3a1565b156200cd0b576200cc9a7f79c012da14436633d9458ee7b775f19c77591083d499bf55713b9868b4767ca360001b62003ace565b6200ccc87fb2c85898c2b00a5d219b9252a279ac7c92c6763fd42eabefc9cf492c277090b860001b62003ace565b6200ccf67f6533d3d9b794a57002bb3907a6a70a60e597012cbfaa0485fdfa1f11b335a9fc60001b62003ace565b6200cd0587878787856201329e565b6200cfc8565b6200cd397fbc4f8f9fa3454cb475d7191ba0cb68f758fe29601839acc44cc58d23db2eb00760001b62003ace565b6200cd677f883d5c8d5bc22a1c7fb51c275a4c285fce001937e3236d589534bf6c3290d21960001b62003ace565b6200cd728562005912565b156200cecf576200cda57eb70e5ea04103a2a1a878d83b77179d2aa3f58286371ad2ba19a68fb57eb64360001b62003ace565b6200cdd37f1874ea6e81a2cb3db4c7f27c8545a0956a8510d55517e6476d5a53478b83b53460001b62003ace565b6200ce017fcc1a251ef35427193c09acef0b94d113dcb5615b50d2c07b43d5008bfd903ee460001b62003ace565b6200ce128787878785600062013970565b6200ce407fc5b51b89936ed8fadc1ed6c183d5695d904264442f4c7ca393e374eb6220655460001b62003ace565b6200ce6e7f5c9086faa3bc095ffb8b505d3e829b344d5d774f4b35be1786b193dc1f3aa5dc60001b62003ace565b848673ffffffffffffffffffffffffffffffffffffffff168873ffffffffffffffffffffffffffffffffffffffff167fddf252ad1be2c89b69c2b068fc378daa952ba7f163c4a11628f55a4df523b3ef60405160405180910390a46200cfc7565b6200cefd7f73b61268b417093e2883c14fb7b17335bbe9851d6c6fa358cc928923455e81d960001b62003ace565b6200cf2b7f9c1f7bb149327dfb0b28943ea8da967d3ca322fc5ade90010a2132f37abe659660001b62003ace565b6200cf597f5213e28f83752d3e75049d33f14cb3dbacd50bc85db04d780cb404bddfea139c60001b62003ace565b6040517f08c379a00000000000000000000000000000000000000000000000000000000081526004018080602001828103825260198152602001807f496e76656e746f72793a206e6f74206120746f6b656e2069640000000000000081525060200191505060405180910390fd5b5b6200cff67f09cff7bbfc0f4b96c97e8fe684437293016aab40120a3fce1a10de275f76cf1660001b62003ace565b6200d0247f12eb99e55994a474fd30db89b9a7f97e26c4944783af8d25ee6e5f769b07db2e60001b62003ace565b8573ffffffffffffffffffffffffffffffffffffffff168773ffffffffffffffffffffffffffffffffffffffff168373ffffffffffffffffffffffffffffffffffffffff167fc3d58168c5ae7397731d063d5bbf3d657854427343f4c083240f7aacaa2d0f628888604051808381526020018281526020019250505060405180910390a46200d0d67f5235de08477b538582414a7c4c5d5af4a2a984d3f402a3e92ceb201e874d48da60001b62003ace565b6200d1047f8a84b2a5fde24b3085ba484a9f4d937934d6799ce348ea4363556cc4de24d02160001b62003ace565b6200d1258673ffffffffffffffffffffffffffffffffffffffff166200fa3d565b156200d1ca576200d1597f20ae3d91c6d042d6fe2087b576f739fe9d2ca99c2732e802cfcad4451942c46c60001b62003ace565b6200d1877f6b590e81449eb37753b7992c580de1f0bc2f0336dd1d71a484000e564468f2f560001b62003ace565b6200d1b57fe8c8d029f0026aa0a4da13caccedef59eb962e04b113d9b0480599b7d04845f660001b62003ace565b6200d1c4878787878762012b3a565b6200d1f9565b6200d1f87f4c1b92ad4aacf191d322d51d7b77b3a0e59b95ec79ca5ccc2260cb21a3a6ebe460001b62003ace565b5b50505050505050565b6200d2307f4c5154a45c0f2947d58b993a2a41845e3927d3a5c0236e2e83ea9d6c883fbcdd60001b62004235565b6200d25e7fa26cf879943ed20966e4f7c1bc3de3efe86f505dbfbd77143df0a7affa63bcd560001b62004235565b6200d28c7f3cfc3921512412c1969b282bae7192b4923f34da07ded565757a7df1e1fc34ab60001b62004235565b60006200d29862005aee565b90506200d2c87f91fe2676d198979d0883899c809e47282b86045b0ed21c954e4cba59b1c7cd2860001b62004235565b6200d2f67f79e33b3cf08d13321a5cbd67e10909a693f92243654501b8532ec923ce7180df60001b62004235565b60006200d304848362005af6565b90506200d3347f19f2f8283705f36c2703c83af9c1c098503519334683789dad01104304506f7a60001b62004235565b6200d3627f72d3ef10cc56819ddb75856cdfcb6e3b40bd9bf544ee183c74361bc1fc71dbc460001b62004235565b6000835190506200d3967f05ad75b89b9fa0cdd550e111b6b1b02b7c6b81735cabe00a2367ff7c18657e0760001b62004235565b6200d3c47fccdabc68b95af22032e5f4d39d6480c0cb0ce81f61b9319d42e96c4f047bf25160001b62004235565b60008167ffffffffffffffff811180156200d3de57600080fd5b506040519080825280602002602001820160405280156200d40e5781602001602082028036833780820191505090505b5090506200d43f7f982440e9c421d2b05b0a174f12c0f5c2d7362c51c61ecf566e6381ae391a69c660001b62004235565b6200d46d7feada5ebe06045d0b480c47a4ce83d72de81d66d2c748a3aa28fd84c91ac3da8060001b62004235565b60006200d49d7f90a31a63abac6f7ee380b712ca8b4502440807d519be26421cbe49f944984c8160001b62004235565b6200d4cb7f2b753c740f3ebcef35dc52bc7a1eed1c960f9ef27d5542d54edcd7713e35269760001b62004235565b60006200d4fb7f9b1c320523572d0867495e4b3ae9ab4751d40b96daa759c5285352114a12e53d60001b62004235565b6200d5297f91cf1cff865c7856c113b5bb1411f57e37c663aca54245dbfa5d850620b4d03960001b62004235565b60005b8481146200db7c576200d5627fba7d2c9ce61b224c969ccd0dab77042c82f8c12d86727f71a7e299f7f27bbc6d60001b62004235565b6200d5907fcafb84e183e3d4ccad3bfe9555c42899479219e184f978e67ac4823a3c301f6860001b62004235565b60008882815181106200d59f57fe5b602002602001015190506200d5d77f320784db1e92f7fb1a57339e27ef24a014e3b5b425032dae6d5daf35c4b056b260001b62004235565b6200d6057fc2d55fa2ed7c4048165149f0d445c71b704929f6376eeb7b3947326b10c8ebb060001b62004235565b60018583815181106200d61457fe5b6020026020010181815250506200d64e7fdc4baf27f0be969f58e5432609f5be6d458dcc87f5ccebf62a8b0862618f8b3d60001b62004235565b6200d67c7fa5dbe9f1357a2a666c73b50de3657c6b403de9a574ec7b2d6801dabf83a29bbc60001b62004235565b6200d6a08a828785815181106200d68f57fe5b60200260200101518a6001620104bf565b6200d6ce7f08b2f026c44eb36bee2c191c6d7a3d10391c6c2e7879834246bc5a4e7ce88bd660001b62004235565b6200d6fc7fec64cdda906dc31b836f39d5f3788893adeaad67ee873e8a55ee22eff57facaa60001b62004235565b80600073ffffffffffffffffffffffffffffffffffffffff168b73ffffffffffffffffffffffffffffffffffffffff167fddf252ad1be2c89b69c2b068fc378daa952ba7f163c4a11628f55a4df523b3ef60405160405180910390a46200d7867fd30676cb98f01597cec2c8e184002887434efc64d9e706d173f07bba866317a860001b62004235565b6200d7b47f8cf093591ca46e218534d6adced2e20d5809e42bdf6597dd290123d066ff504a60001b62004235565b60006200d7c1826200b4fa565b90506200d7f17f5a4497b52170c63ab38b305a77ea6563943750a2441a74695146c3784cf085f960001b62004235565b6200d81f7fe1a30221e905fe3ee1cf7dfc210bd770cea9bb2603fdc13a7f087eca56bf143e60001b62004235565b60008514156200d91c576200d8577f36b23d4a6a934d64027d2368b3dab5a8cf9dd4fbcee9a4f6100c1eb3791696d660001b62004235565b6200d8857f9b1b26b006981d496afc3a5eb3acbcf9147279562c3dd0ce29a4c86e90b8fd9460001b62004235565b6200d8b37f61f95b24c97299cf92b26e6b255423b97fd2311e669e78a5274618806f2435cf60001b62004235565b8094506200d8e47f344905f73a1af538e5f99c32d1fd0c657d34193a584f13298c2eda61e10a962660001b62004235565b6200d9127f7021f119f61cbdb7987a553fdbfec953dc4437b970c87b03c5be03c795085e7260001b62004235565b600193506200db6e565b6200d94a7fba122bbbfc16253fb740a4fbe3964cdd040177609758370d7f397416ba91d75160001b62004235565b6200d9787f1506e96310a55dcdb938173046114f9faa0115fe3ae45d9ea9434c13f6d7216e60001b62004235565b6200d9a67feac34226dd245984f449a72d7e53bd6f7baa1efb88b9ef872db23f6bf570913e60001b62004235565b8481146200db0a576200d9dc7fd3fa8d3f997a9eb707ae2fe87c6923be22f8e27fd7640e9c3e3974bf6e48a0da60001b62004235565b6200da0a7f6fe3f2014b6b3a7b7a2280d73bdc405694bedc25a1be05c72ba4de84bf4e2f6160001b62004235565b6200da387f33deb890ca793c787b751b08b8f6ae74ca9fb53a8420a1df721bd659dd5601e960001b62004235565b6200da458b868662013134565b6200da737fd5abb565a762f27c428754142fa883d660ef58e05c4d7c32726de048b6f73f7260001b62004235565b6200daa17ffe5614e65030d052a06368aae4d03e8b02ace0fcd4d34bdc6d9b429cd5c28d0b60001b62004235565b8094506200dad27f6bb8baf5ee0f582d8d97fcdb98f335309b21ba2e416d74ae24c9fdf9cd3bde1860001b62004235565b6200db007f5f7376df9ab5eee2f65dddab21ba6f6e7e146c0a046ca1124e189a4e93941c1260001b62004235565b600193506200db6d565b6200db387f410574fd8d698a0bac70405d4dbb7f827bdc3b3666643b31f6ff739c5e149b0f60001b62004235565b6200db667f048ace01df2a852e712fa846849bed3898a0dcac9c2473b3f97c61831e46ed2b60001b62004235565b8360010193505b5b50508060010190506200d52c565b506200dbab7f4e87401863241cf18cf96765abbebb6c538cbdbc524a291c7753fbfdad296b9160001b62004235565b6200dbd97f3af061113124f920e95aec7bb54a5bcba21941b89ce61245a999ef3562c84e9360001b62004235565b600082146200dd28576200dc107f633157065e7f7d92830c3a9e7bcffa4cb918114d963c2a8c380ab26ab32b876e60001b62004235565b6200dc3e7f0589ae974817f45348138cf4d68221484e5d5fde4d6a5833734c5099178e707f60001b62004235565b6200dc6c7f3b95ebe64650c715eb91db8c79331145e33b871fa4c9dda3a076b2e8d17b56e460001b62004235565b6200dc7988838362013134565b6200dca77f7d034b9806adbdcb93fbc287c27474f28ec87c51a98a51bd52d42d67cf0c979360001b62004235565b6200dcd57fceee29f2fac4121918a9c22309aa95a0efa4c0a2864264f10af1fb1f72980f9460001b62004235565b83600860008a73ffffffffffffffffffffffffffffffffffffffff1673ffffffffffffffffffffffffffffffffffffffff168152602001908152602001600020600082825403925050819055506200dd57565b6200dd567ff42c6aa6219ba93d9d257845a07efea4f7fa341de35c515bd223de76aad6bdff60001b62004235565b5b6200dd857fc6ea3b39fd0523e5587fe3eb510f569b117f0635b464dd760e0d4a58d791196360001b62004235565b6200ddb37ffc6c4ee5d6572aa253bd3a61e02f465bfc8270af8c4fbd2ba75f73c1b6a4e80460001b62004235565b600073ffffffffffffffffffffffffffffffffffffffff168873ffffffffffffffffffffffffffffffffffffffff168773ffffffffffffffffffffffffffffffffffffffff167f4a39dc06d4c0dbc64b70af90fd698a233a518aa5d07e595d983b8c0526c8f7fb8a87604051808060200180602001838103835285818151815260200191508051906020019060200280838360005b838110156200de655780820151818401526020810190506200de48565b50505050905001838103825284818151815260200191508051906020019060200280838360005b838110156200dea95780820151818401526020810190506200de8c565b5050505090500194505050505060405180910390a45050505050505050565b6200def67fb3297e994dd402a0e8b951b1d5e5d5bce47fee49df4ca5bf1e78aad9c72bed2460001b62003ace565b6200df247fff4fa7186cde860ba9a9b8e6d7b70a284a22a278cf99a64ee03a71ffde5bf71460001b62003ace565b6200df527f45ea38e5df79ead9d1c7ec4a2790b88e9e335fadf3bb0199398c0e2e39c502d460001b62003ace565b6200df807ff8e74c1bf28f1e7e7c2339ac8ac69f1f68b041d2e658db096a584c9f46355c7d60001b62003ace565b600073ffffffffffffffffffffffffffffffffffffffff168273ffffffffffffffffffffffffffffffffffffffff1614156200e024576040517f08c379a000000000000000000000000000000000000000000000000000000000815260040180806020018281038252601b8152602001807f496e76656e746f72793a207472616e7366657220746f207a65726f000000000081525060200191505060405180910390fd5b6200e0527fda80653c6ae143c2010ac0965268decc431a387eebd1779fc2effb8a5e94a99660001b62003ace565b6200e0807fc379107bf7387896f69ef84d8a907d78a657bf8a2fca5ad21c317af37a91985160001b62003ace565b6200e0ae7f10a1c3c3d5f756999ae316dc0d4f1d6cd7cf0ef1c1b10579e211758faeada8e260001b62003ace565b60006200e0ba62005aee565b90506200e0ea7fb0af81ad9de3d2c13d339bce21406f7e0093f581e6d41af6b902508c329cf7d160001b62003ace565b6200e1187f08d777786e26373e55e546f9926beb3636ad62865de10248828426c94050160a60001b62003ace565b60006200e126858362005af6565b90506200e1567f18209c05032038771d71f7dec9772a235491011db02ed8503b748ad86543be0860001b62003ace565b6200e1847f45ab346606826ef4a673f5405770450e727772f8b37185c5443c30dbf9d71e7060001b62003ace565b6000835190506200e1b87f977c0f324fbc40289fa0b9c044185a4a7124fe418f74aeb496204c59a1670b5160001b62003ace565b6200e1e67fc4a0629bb6061786e11a7f71e01cc438ded4e55c77849548b5f0275537fc870560001b62003ace565b60008167ffffffffffffffff811180156200e20057600080fd5b506040519080825280602002602001820160405280156200e2305781602001602082028036833780820191505090505b5090506200e2617f1741bb226b50106fdea21eaffecb4fb96ea8292806be9bf8b8123e246d991bc260001b62003ace565b6200e28f7f30a79a92f98cccfc5ae3db366b61fec39aee7987b56d1f071e2663f5de120b1360001b62003ace565b60006200e2bf7f02d9d2c26a1b3c178926343ddd0a7652198295a65efe0031fe42b72fb00843f160001b62003ace565b6200e2ed7f3d18b407e465cf1246bc8d5815a1ca0b980d8b618b748e75eb42bb102f00dcee60001b62003ace565b60006200e31d7f150399e8dc288d029b811d7a6aac19d095db08d8d6ed6dbdec8f6610847e0c3660001b62003ace565b6200e34b7f3206d429beaf932affb315d16b8dfe9d1671d5d2c339eeeee769c9a8bc5e2eb860001b62003ace565b60005b8481146200e98b576200e3847f308ca8552232a0b2f5a4119084f490441fc59af0d5e72b3e4333af6bf79bdb5760001b62003ace565b6200e3b27f459402bcb93f9edee82ab7a42022b747379944f53f3731b330bbedd635cb082060001b62003ace565b60008882815181106200e3c157fe5b602002602001015190506200e3f97f87f579dc64b91e536f439040786645b919abffe4930d0a05864368ecdeb4e78f60001b62003ace565b6200e4277fbf6a06c32e03d4de21eb4a5defb16a9f628567142fd37b9deb8cec6fd87dbea760001b62003ace565b60018583815181106200e43657fe5b6020026020010181815250506200e4707faf246362cb23dee96997409bd6d257554033fa7dfa6989663d37614733f8989660001b62003ace565b6200e49e7f70eaf922778cc7a13fc28a876bd18aeb2e7878fb7a9443055f48acf137c6b0b060001b62003ace565b6200e4b08b8b8360018b600162013970565b6200e4de7ff2816b00770b5c89b8c305aa22ff34f7bfa3af11c1d37c152e5130147e27259260001b62003ace565b6200e50b7e175e1e10bb8c45a5483a8580ad95c15818b10a07663590ce66051628201d3860001b62003ace565b808a73ffffffffffffffffffffffffffffffffffffffff168c73ffffffffffffffffffffffffffffffffffffffff167fddf252ad1be2c89b69c2b068fc378daa952ba7f163c4a11628f55a4df523b3ef60405160405180910390a46200e5947f299038f2f2607106404a36fe2f632a2dc0d414c10d62a2eea8260c287520b50560001b62003ace565b6200e5c27f4abf4185abb5f7c8ccf05acefb585ceffe016e2bc426bc41f3ab51597c25d9cc60001b62003ace565b60006200e5cf826200b4fa565b90506200e5ff7f1117107189b94922816f2136b5ff4bdc78ed7ebe5daf55833ad9dfac3e0260fb60001b62003ace565b6200e62d7f1f689efd323dd2d6fbcd13fe17e39aa86575fc21e58e2bf47530cb589ad43c6d60001b62003ace565b60008514156200e72a576200e6657f937c2a1c0e60ddd492aa853957d5e3b2999790cbb7876cf50f6d0e7ad8c1917060001b62003ace565b6200e6937f03a838b2dfaa5a2c543d70638e75f6e8bc7c5235a54deed71e526a161fea087860001b62003ace565b6200e6c17f588e9a1c73aa6d1e0d86b53509f2e471f30e01a8526e45b6addf759eb382fbc060001b62003ace565b8094506200e6f27f3d357620c3ef151c423cad62de2ee9d20e945dd57c4f8e9efde465392592b42060001b62003ace565b6200e7207f11a1500e0f2fc779f523e1ae6dad0e5759c74ea475789b3855f6a16c75d9ad0860001b62003ace565b600193506200e97d565b6200e7587f224bb03a1092cdddabd4df29404610c33cec8f45d8a26b4d197506d50f85638460001b62003ace565b6200e7867f577ce5d689f0f8a91d4736c79b13ef6bbd11fe1ca23dcda8807750f4d273d98760001b62003ace565b6200e7b47f33f1c8c129bcef331dd87f45241831a32028f29e1d84d6b3cb8b3fde11a4b70c60001b62003ace565b8481146200e919576200e7ea7fc571aef727b62c06cbf6bed5064a05190afe3f6adb1d62bb0d236f97a716e33460001b62003ace565b6200e8187f101abb78a0d184f4fb4003f6189411a64e11174e58969476d25cc740b94a54f160001b62003ace565b6200e8467f2ea03bda8721a4dada871e900969db1b66af1995c314472e0182da4ebd203db660001b62003ace565b6200e8548c8c878762014151565b6200e8827f939436568fcb3ee395d8258e117b763dd91147394938d2b2707e4b842b12327860001b62003ace565b6200e8b07f51a63c64ff4cc7b63e15704d9f5484e02e0dbbf5ef9f9bcb0fc74c024e27b24d60001b62003ace565b8094506200e8e17f24b85e94e85c085ad60b6bb897a3c96cac128d92ef2a8686aee062e1ae4d6ef860001b62003ace565b6200e90f7f44db8c6296540c13b385e592c8407d6d2656518477234afa8f2de60a579c809560001b62003ace565b600193506200e97c565b6200e9477fd512d1cb5fe59116ed8fe48497e2308ea767adb99042a16e4ec0137b978829f160001b62003ace565b6200e9757f59e8ad790f305b31020d8a56dad7ed240db3d2eeabc072d48bc9d804bdb70bb560001b62003ace565b8360010193505b5b50508060010190506200e34e565b506200e9ba7f58316f559dde3ba74b23b3c5fdf803eff3afdf07ce3556cb3f9f2345af03836f60001b62003ace565b6200e9e87fc11c2b0aa1e27cc376b2e3d016fd77d8e7fb950cbc30c436661783793586f32c60001b62003ace565b600082146200eaf8576200ea1f7f39f0e924a911cd23699ba886246a46fd9b22cd1b669131a2d8ccd95ec5ac8f3a60001b62003ace565b6200ea4d7f9fd40a6a69684e69dd504dc4990b867d2eb907c94fa1ff8c4564cbaac3975d5460001b62003ace565b6200ea7b7fd7870e1b2a2e7ad600c8d51e86c838b5294f1126d7ff4550de034a3d6b7fb9e760001b62003ace565b6200ea898989848462014151565b6200eab77ffa700beefd4bd041e4071088453a3d4661b3b0f2704144dad63d4ac983436d3960001b62003ace565b6200eae57f894e8df21157943d17005b21c00deee41e1bd4674dc227c2f00e9d294d07df8960001b62003ace565b6200eaf2898986620143ec565b6200eb27565b6200eb267ffa8c2233048c6dc58d43a4f13e2cf56d2fd418a6a52179700d04539769962d6060001b62003ace565b5b6200eb557fe456ec90887c03d0cfbbd693ab17230fa1d51d56d6b4ca04a7a4c9ac1cab00ac60001b62003ace565b6200eb837fd29fa48136c42b4a848f4e4e7c6e042e2e95382bc479bf0bfb8f9bc780e8646360001b62003ace565b8773ffffffffffffffffffffffffffffffffffffffff168973ffffffffffffffffffffffffffffffffffffffff166200ebbb62005aee565b73ffffffffffffffffffffffffffffffffffffffff167f4a39dc06d4c0dbc64b70af90fd698a233a518aa5d07e595d983b8c0526c8f7fb8a87604051808060200180602001838103835285818151815260200191508051906020019060200280838360005b838110156200ec3d5780820151818401526020810190506200ec20565b50505050905001838103825284818151815260200191508051906020019060200280838360005b838110156200ec815780820151818401526020810190506200ec64565b5050505090500194505050505060405180910390a46200ecc47f578f5dd057a813b6093a1b875de29af3d3560f54e2701d143ca0ff233c1ec5ce60001b62003ace565b6200ecf27fe6fda465593526e0413441df55094f44a68a631cf9a0f746e0428c942e7ead4460001b62003ace565b6200ed138873ffffffffffffffffffffffffffffffffffffffff166200fa3d565b80156200ed2757506200ed2688620127fa565b5b156200edd9576200ed5b7f7e4d323045bca26a246e37860d9e64d2c083c1662c2a3cd4e75031dd177efb5d60001b62003ace565b6200ed887e52682ab630651f5b6c4ce6350c109ca2c19777d4ae9a05a77612a0571dceb960001b62003ace565b6200edb57ea439a71e1cf9b41f7fde4227ffcc1243e74419f3ff0b491bea5232bbeac33060001b62003ace565b6200edd389898986604051806020016040528060008152506200fa50565b6200ee08565b6200ee077fee1bd4f85325a4c4e892cb22696c7d50502a1c9a10327b04135244dc9369be1060001b62003ace565b5b505050505050505050565b50565b60006200ee467fc6ae3cee09e297e95e35b8e0bdf63a43e8cb21d879c9031a64ca9972db878c3560001b62003ace565b6200ee747fa401d377c58b7f6be5cd60e7a61ee411982dc6692d2ccb600ac4a2884191446a60001b62003ace565b6200eea27f7cf76f79d618278b7ca061e6328e6fb1b01b67872894b93a011b8d371370bf0460001b62003ace565b7f80ac58cd000000000000000000000000000000000000000000000000000000007bffffffffffffffffffffffffffffffffffffffffffffffffffffffff1916827bffffffffffffffffffffffffffffffffffffffffffffffffffffffff191614806200ef6c57507f5b5e139f000000000000000000000000000000000000000000000000000000007bffffffffffffffffffffffffffffffffffffffffffffffffffffffff1916827bffffffffffffffffffffffffffffffffffffffffffffffffffffffff1916145b806200efd557507ff3993d11000000000000000000000000000000000000000000000000000000007bffffffffffffffffffffffffffffffffffffffffffffffffffffffff1916827bffffffffffffffffffffffffffffffffffffffffffffffffffffffff1916145b806200efe857506200efe78262014664565b5b9050919050565b6200f01d7fcd4a3cf7e717713a7304cae214041b9ffa5aa5ba78d81afadd9188e68e5c42b560001b62003ace565b6200f04b7faf33f898e275c69927d32b058cb129d9d5c2bee8cc6f767482d1172e463d98b260001b62003ace565b6200f0797ffd4a560822655de2da9a6638c87609209e0017bc527012935c518af028e5648460001b62003ace565b6200f0a77f55f5e2319ed9a66649b911065e5b93f25a59251b6371035f92076a376042e82b60001b62003ace565b60008114156200f11f576040517f08c379a00000000000000000000000000000000000000000000000000000000081526004018080602001828103825260158152602001807f496e76656e746f72793a207a65726f2076616c7565000000000000000000000081525060200191505060405180910390fd5b6200f14d7ff1c56f841f415811532c502036d8d6cd71ff6e6c67b77152166593ec3cc8eee960001b62003ace565b6200f17b7f397efcde6f93f3f90821f29519cd3e9975243dfdc68dd147e26f52f3022fe7e560001b62003ace565b6200f1a97fd83a76d9926135ca2d8308cee3d6b2bceff5c10ba7b5894dd456f1f91f9147e760001b62003ace565b6000600360008481526020019081526020016000205490506200f1ef7f355c98725ccd7b577a1345f182295b8c9f8c691e83d4dda4067d22d77c33146b60001b62003ace565b6200f21d7fefb8abbebc60795c94b9b52cf135ed19143894936bfab3e7c1cbfb03b3ec443660001b62003ace565b600082820190506200f2527ffc643c86c094db4953535cf26f88390a5d0158016645f6701511c05c0579609360001b62003ace565b6200f2807f6fdee456fa0152f10de45e6fca0d1a433c864e48549aa1dad98d905647c28b5a60001b62003ace565b6200f2ae7f5c2ad57c1dbb08ccde7a0150c054ffaf1292e8f05d23612c31aa42bcc4cd608760001b62003ace565b8181116200f324576040517f08c379a000000000000000000000000000000000000000000000000000000000815260040180806020018281038252601a8152602001807f496e76656e746f72793a20737570706c79206f766572666c6f7700000000000081525060200191505060405180910390fd5b6200f3527ff4f4e42e37771ea3e058ccffedc5349075e7ee843f5217044e4a0e4936a997b960001b62003ace565b6200f3807f4f38a3557aed946f20355ae5fbfcd4ec86732eca6778ab278ef0120a19909e4e60001b62003ace565b6200f3ae7f55aa7f3b7086bfc19da2dbcbc9cda5fa24c63e72488796663adaf68f8583152860001b62003ace565b8060036000868152602001908152602001600020819055506200f3f47fd586b47b4117d8f98c7d127b1016c222117c0956f5e78b5d0c589cbd3d399de860001b62003ace565b6200f4227fecb2f28d8964656e31ab73df3cd55f9045a455e3ba97519abf7e1f6ca10b84c460001b62003ace565b826002600086815260200190815260200160002060008773ffffffffffffffffffffffffffffffffffffffff1673ffffffffffffffffffffffffffffffffffffffff168152602001908152602001600020600082825401925050819055505050505050565b6200f4b57f8da5f5cebdf92c1f3db9617b190b56c0e4560722e6829e338b0d784c7d0e2c3c60001b62003ace565b6200f4e37f743bea07296e2914eb14f50aef748875a1becb13ba8bf756bf3ddeeaae25a40d60001b62003ace565b6200f5117fb684cc176c7b93f26db60d48588d7e8de3488697e1422d3886a514b08fed7ead60001b62003ace565b6200f53f7f1ad3d6d2f022537f050ce98134222f1fbd728a71c733a612ce22c2ec75ed44da60001b62003ace565b600182146200f5b6576040517f08c379a000000000000000000000000000000000000000000000000000000000815260040180806020018281038252601a8152602001807f496e76656e746f72793a2077726f6e67204e46542076616c756500000000000081525060200191505060405180910390fd5b6200f5e47f8528bfc0e2dff9ecf028461f0c9866d14bec8b2975b58f902afd62089de6735960001b62003ace565b6200f6127f2317419c7b4b2ab134536c2cc0b5f87301eb040f42414417da87d2bb0d2bf13860001b62003ace565b6200f6407fd318dc65e5aae60e15a1fe0b30d2ec894238fef7a797b7e7f2cb114d4e9985c260001b62003ace565b6200f66e7f7b9ca7686ea7fa52a4aa61804918b7133524045ac119ed80b5d1e2befcdb30d160001b62003ace565b60006004600085815260200190815260200160002054146200f6f8576040517f08c379a000000000000000000000000000000000000000000000000000000000815260040180806020018281038252601d8152602001807f496e76656e746f72793a206578697374696e672f6275726e74204e465400000081525060200191505060405180910390fd5b6200f7267f08da58d800585c40e7e830a419071c06f26fa809eb4599fec036204209ce6e9660001b62003ace565b6200f7547ff7a8460e335a43df391ea9efd3d7d2d912b443e618e20436bf90e000a3b59d0960001b62003ace565b6200f7827f146950a890cec627df72a08168c2ec06f4675dc2c293401336d12faecaa3fca160001b62003ace565b8373ffffffffffffffffffffffffffffffffffffffff1660046000858152602001908152602001600020819055506200f7de7f6e6e6193b3443398377d89b310d6b67dff557a799c8353a7df48f5d006e121f460001b62003ace565b6200f80c7f86b5d1748aa513158e88cd05d295ab6442dc28886dcb34b1d01d9a2096dee32860001b62003ace565b806200fa08576200f8407fd542a464bc0f3fe9458d03826b8c36090a3c09c9313346996ba590fd8872003360001b62003ace565b6200f86e7f0d50192560e08df3244d9c732ae198d41f5bd6e758048f1a7b612c2a10195d2d60001b62003ace565b6200f89c7f30505699543be155d679bdf17ebf396bb44a4a2f7a69080046dd6d7a61b854e260001b62003ace565b60006200f8a9846200b4fa565b90506200f8d97fc21c3bb9a142e645560c99e5a459ce07da74d193f09f5dc813b391ef732233bf60001b62003ace565b6003600082815260200190815260200160002060008154600101919050819055506200f9287f024c1c623fa67418ebc47c2432c29bfcccfca6ce8bfd6bb4fe781652e210499c60001b62003ace565b6002600082815260200190815260200160002060008673ffffffffffffffffffffffffffffffffffffffff1673ffffffffffffffffffffffffffffffffffffffff16815260200190815260200160002060008154600101919050819055506200f9b47faff93bf644f1de37ddd3911817fe313fd925b6ca0c8540b739d360f4faf3f84f60001b62003ace565b600860008673ffffffffffffffffffffffffffffffffffffffff1673ffffffffffffffffffffffffffffffffffffffff1681526020019081526020016000206000815460010191905081905550506200fa37565b6200fa367faa8372e04e9e4c3f3ddb26e8bcb061324bec56b096b8212c6cf628a34e1882a660001b62003ace565b5b50505050565b600080823b905060008111915050919050565b6200fa7e7f7d10864fb0a4aedc20e442e807bea0f6919d10eeaa1f021c97a5f215a1012f0460001b62003f5f565b6200faac7fe349439bb5f36664722cb8f584c53fd55da073ef5fd4ff3197edfa378ed96b2c60001b62003f5f565b6200fada7f2edac629d0b066ea94aac6394c400610e1412197b305ba242fd8c4dfd153b58b60001b62003f5f565b6200fb087f72ee40dc5eecda898fa2839fc208dd25275ca14983f5f2582cca10221d3d0b7a60001b62003f5f565b63bc197c8160e01b7bffffffffffffffffffffffffffffffffffffffffffffffffffffffff19168473ffffffffffffffffffffffffffffffffffffffff1663bc197c816200fb5562005aee565b888787876040518663ffffffff1660e01b8152600401808673ffffffffffffffffffffffffffffffffffffffff1681526020018573ffffffffffffffffffffffffffffffffffffffff168152602001806020018060200180602001848103845287818151815260200191508051906020019060200280838360005b838110156200fbed5780820151818401526020810190506200fbd0565b50505050905001848103835286818151815260200191508051906020019060200280838360005b838110156200fc315780820151818401526020810190506200fc14565b50505050905001848103825285818151815260200191508051906020019080838360005b838110156200fc725780820151818401526020810190506200fc55565b50505050905090810190601f1680156200fca05780820380516001836020036101000a031916815260200191505b5098505050505050505050602060405180830381600087803b1580156200fcc657600080fd5b505af11580156200fcdb573d6000803e3d6000fd5b505050506040513d60208110156200fcf257600080fd5b81019080805190602001909291905050507bffffffffffffffffffffffffffffffffffffffffffffffffffffffff1916146200fd96576040517f08c379a000000000000000000000000000000000000000000000000000000000815260040180806020018281038252601b8152602001807f496e76656e746f72793a207472616e736665722072656675736564000000000081525060200191505060405180910390fd5b6200fdc47f45eed796109b210b28a94480230c2b5d15205f14ed98d4c42eb93e6e6f3cfc3960001b62003f5f565b5050505050565b606060008214156200fe15576040518060400160405280600181526020017f300000000000000000000000000000000000000000000000000000000000000081525090506200ff19565b600082905060005b600082146200fe42578080600101915050600a82816200fe3957fe5b0491506200fe1d565b60008167ffffffffffffffff811180156200fe5c57600080fd5b506040519080825280601f01601f1916602001820160405280156200fe905781602001600182028036833780820191505090505b50905060006001830390508593505b600084146200ff1157600a84816200feb357fe5b0660300160f81b828280600190039350815181106200fece57fe5b60200101907effffffffffffffffffffffffffffffffffffffffffffffffffffffffffffff1916908160001a905350600a84816200ff0857fe5b0493506200fe9f565b819450505050505b919050565b6200ff4c7f0d0f498df0a831d29638aa43201e559bf241cc69cc241226697ff7138812603f60001b62004235565b6200ff7a7fa3b50b678605dae37e968f5f3a40fee1c16393b6989b188b7f4a386eacf21c6060001b62004235565b6200ffa87fe46e8b487bb60db594c1397e93df76266de3082d54431794cf25ae3e365f48e560001b62004235565b6200ffd67f1f154f9538c299fd1642cc66728e08f578ca49ded38ba331b935fdab0ccb9fec60001b62004235565b60008214156201004e576040517f08c379a00000000000000000000000000000000000000000000000000000000081526004018080602001828103825260158152602001807f496e76656e746f72793a207a65726f2076616c7565000000000000000000000081525060200191505060405180910390fd5b6201007c7f788d269eb243e50907189969b9c50680a0ba4c0a013dc3f26c4e3028b2e4e7b360001b62004235565b620100aa7fc4c21623cef0ded9e38d83262c0fdd1b468346ab812ff36c30734917c87b32d760001b62004235565b620100d87fca3c690fef94e414db6b9644563163172d5eaf1c386954f45a3ec886477376cc60001b62004235565b620101067f7d0c4c5d1e46126df4dc369ae95a5bb5bdf6efa4f47cb6183a23813313253ccf60001b62004235565b806201017a576040517f08c379a000000000000000000000000000000000000000000000000000000000815260040180806020018281038252601e8152602001807f496e76656e746f72793a206e6f6e2d617070726f7665642073656e646572000081525060200191505060405180910390fd5b620101a87fa85ff2ba13e1b34e0f26f366b37c528b60196c10de14a59733dcfc5c1d2920f660001b62004235565b620101d67f34f51f996fb41520fa7234ae3aba45c8fdfc7fd8369c1f110ada2f08293d985560001b62004235565b620102047fba3b534a9e571da52a28fb1f84cbf38d5a4941c35213b2d17451372dc05fbd3160001b62004235565b60006002600085815260200190815260200160002060008673ffffffffffffffffffffffffffffffffffffffff1673ffffffffffffffffffffffffffffffffffffffff168152602001908152602001600020549050620102877fa88658c4777dcdaddb6ea77fd4711387c161f1d0d2e182789844af6200a18d6f60001b62004235565b620102b57f8e4b85c38a11650ed64055f2e893d7dcae3ec1558b5245ee85b38073d4faf3b960001b62004235565b620102e37fff9b96b9c3fb1cb6b8350164f3ff57b8d3c2dbf873d4643abb627cac950df80d60001b62004235565b828110156201035a576040517f08c379a000000000000000000000000000000000000000000000000000000000815260040180806020018281038252601d8152602001807f496e76656e746f72793a206e6f7420656e6f7567682062616c616e636500000081525060200191505060405180910390fd5b620103887ff0ac74f1576c872509eac5011680a5c0c6293608b7c7151a2313c0c7b5c40e6f60001b62004235565b620103b67fdc88c77845805f19be726714094f2f8a495bad117b909d216ebc62857a3ad9eb60001b62004235565b620103e47fbe66cb3113360dac80b212729b9213c71efd49a35a3e444fc8dc6b780c18984d60001b62004235565b8281036002600086815260200190815260200160002060008773ffffffffffffffffffffffffffffffffffffffff1673ffffffffffffffffffffffffffffffffffffffff16815260200190815260200160002081905550620104697fac385f81309fadfe099e4cd14982d68d327a0a908cf9210b0af2ee95455527cb60001b62004235565b620104977fab82cb1e640f3fabf5b30d94b6c39863efb4812705bc01622f59247df41c564c60001b62004235565b8260036000868152602001908152602001600020600082825403925050819055505050505050565b620104ed7f97b7920c770583f100b546a773eff9bc6c17068ca59a9db1fbd178e1c1a40ce860001b62004235565b6201051b7f08638b631063371009e9fc99760dafb33eed65fa1fa12ffe3faf3a8a596aa7fc60001b62004235565b620105497fec7c0a3961a3c28c85d142780ab26d41a320236d0e6427482e89733e0628d91460001b62004235565b620105777f8124f5618e53f42782938e20883164fd0cc6288207ac44cd852e6253dafe0e8a60001b62004235565b60018314620105ee576040517f08c379a000000000000000000000000000000000000000000000000000000000815260040180806020018281038252601a8152602001807f496e76656e746f72793a2077726f6e67204e46542076616c756500000000000081525060200191505060405180910390fd5b6201061c7f613f39d54eff4e174d8315355c68a1a39650d3a3651b8269d660c94aee37722a60001b62004235565b6201064a7fe1288bcb8689c2636440e2a299d11562f9396ea6f53d410dc893f44c109bac6660001b62004235565b620106787ff60c95b03305414e1b4005e9e4e4ebbf85fec446b7ce478b75cb4f6bdc3fa14260001b62004235565b600060046000868152602001908152602001600020549050620106be7f7075c1f4e6c05af406a299899083617b3d8128eb7b61d2a40bca85ad73dd5cbd60001b62004235565b620106ec7fa4d3beb8f3d6435c0d9cfe11188469bdeebd6fc45b9d7efffee7ab3ddbf1947060001b62004235565b6201071a7ffe4dc007a5f07f8e40b57a72990a7c942b9601042cced12c4365a5e62ea27ca060001b62004235565b8073ffffffffffffffffffffffffffffffffffffffff168673ffffffffffffffffffffffffffffffffffffffff1614620107bc576040517f08c379a00000000000000000000000000000000000000000000000000000000081526004018080602001828103825260188152602001807f496e76656e746f72793a206e6f6e2d6f776e6564204e4654000000000000000081525060200191505060405180910390fd5b620107ea7fe0870a5177bb6ebac6b33afed7af5926f80fccb11923ecfd28d769d11cd4d70060001b62004235565b620108187faf56503621f65abb73db42bc5d577da1e32222081179d26813405b515659e59f60001b62004235565b620108467f8d179af91b33879c89285164a74913a31bda634d83d5cedd6141faa2f76fcc4f60001b62004235565b8262010a3b576201087a7fee810986bcf4941dc6862b2361d278e4ace58b61c9a1da018ca48da03b6eb88960001b62004235565b620108a87f18fea579d3e48ad7be170eea110ff14ad30c599049dd3a430e38273aae112a2b60001b62004235565b620108d67f6c11c2a17f935b4874e603d71a335a540c859d3a2ec093a0f6c80404112f6be960001b62004235565b620109047fd4be352abac9d66365495459cb4256fa4a152e2ee96fa5eceaab77f87bc1648a60001b62004235565b6000740100000000000000000000000000000000000000008216141580156201099457506009600086815260200190815260200160002060009054906101000a900473ffffffffffffffffffffffffffffffffffffffff1673ffffffffffffffffffffffffffffffffffffffff166201097c62005aee565b73ffffffffffffffffffffffffffffffffffffffff16145b62010a07576040517f08c379a000000000000000000000000000000000000000000000000000000000815260040180806020018281038252601e8152602001807f496e76656e746f72793a206e6f6e2d617070726f7665642073656e646572000081525060200191505060405180910390fd5b62010a357fd0a6ee935367d74f2fe3cec72d0282279f1befeb3843fd1f99ed9055aaf861ac60001b62004235565b62010a6a565b62010a697f161a68039bab519d6e095e104c3987f06bd33cffb6c551bb1fccc77abef1c3c660001b62004235565b5b62010a987f372ef766aea3b8463474826cb733ff0c036b6d0caa1301f4d175dd9396223fba60001b62004235565b62010ac67feef27510ef0be625dd802f0ab8c1d0fc16ed3684eb04626e73086c4d73eec10e60001b62004235565b7fdead000000000000000000000000000000000000000000000000000000000000600460008781526020019081526020016000208190555062010b2c7f56a2279ad37c27bb8f8a2b3eeb6ef74260181c476602e3d0ccc7f1d6df7b252d60001b62004235565b62010b5a7f0297647fd597e6fe581eb8232c2174c33278c19f17f7cfe6bd06f8c25f694f4c60001b62004235565b8162010c845762010b8e7f26150e9108a2e3763a162ede59133547bd77b998bf6022652bbeab0a047f55f560001b62004235565b62010bbc7fa551a2b7afd2a502b68247b63683588f375feffca5c9a5030b84e105c556ca4160001b62004235565b62010bea7f4a770c5d172b354b7711fa2cc431b71b7d236d54472fb17467d41e4521b0257b60001b62004235565b62010c028662010bfa876200b4fa565b600162013134565b62010c307fdd453f8e64237b7c48885b0a216907149fcf98c7f39bbef3834f1c22e8b58dc660001b62004235565b600860008773ffffffffffffffffffffffffffffffffffffffff1673ffffffffffffffffffffffffffffffffffffffff16815260200190815260200160002060008154600190039190508190555062010cb3565b62010cb27f2db76171dea1953ce99320063267586ae2035e671744b4e8959a2f664d0c091160001b62004235565b5b505050505050565b62010ce97fed526734b98c0124e67d91ea48281c94029b8be82b769eec8a4e3e349618fd8160001b62003ace565b62010d177fb4d4cc97635bd0ed0bf9f79dfce3661b3711ce6de3b15c9ae9e40b8952d94b2a60001b62003ace565b62010d457f52dcbe78b9c5a19e77498a7df7ae325edcf6fc6c99d379c23f81741ddfc4c20460001b62003ace565b62010d737fd8a1493203fe21167aca847b89396e77b9ba08824577999e476f311d7b33af5c60001b62003ace565b600073ffffffffffffffffffffffffffffffffffffffff168473ffffffffffffffffffffffffffffffffffffffff16141562010e17576040517f08c379a000000000000000000000000000000000000000000000000000000000815260040180806020018281038252601b8152602001807f496e76656e746f72793a207472616e7366657220746f207a65726f000000000081525060200191505060405180910390fd5b62010e457fb088c0df8e10d201c23018cc56ac1f6dd01b3d7754c3ed9fa2225c53356e1e9a60001b62003ace565b62010e737f1f419db07758b07e48d10f42e4978298b2e65c61e353802b41d742293c32f8b860001b62003ace565b62010ea17fccfd41a7b9edae4e2dee848b25467d671241e17a76f32fec556c42a71781b4bb60001b62003ace565b600062010ead62005aee565b905062010edd7fb0d68a1ca6f03abce740b86dfc986d15fecfc1ace27d2b1c0b40c8299695911560001b62003ace565b62010f0b7fce1b3da5fed537599fef45cae37e8d438b7d5152023c1b604735875101fb7fc960001b62003ace565b600062010f19878362005af6565b905062010f497f5cb508141cab897ba071966dea3c244520db79e3a07fc8c1393b9f5b40f5e8a060001b62003ace565b62010f777f884c4fb666b83bed0949da9c41eb3dff9445d46cb9ecbcc024d6f1cde385c73360001b62003ace565b62010f89878787600185600062013970565b62010fb77fb7ae3cfc21686014d6458b16a87e0a47e6b7eff2b697a2b6ab0ff7f4b271f20060001b62003ace565b62010fe57f1d7299a65301eafaa10822019efbbf1463440cc6bf6da3e64b1b559e179622f060001b62003ace565b848673ffffffffffffffffffffffffffffffffffffffff168873ffffffffffffffffffffffffffffffffffffffff167fddf252ad1be2c89b69c2b068fc378daa952ba7f163c4a11628f55a4df523b3ef60405160405180910390a46201106e7f15eac74e1b243379c9c99cc2e58da0d96029effcfee2a9ef5b6aee09f5f7119860001b62003ace565b6201109c7f01a4f17c9908914c0139da51873401cfc798aea0b42a2717e501070a4a2cb3a860001b62003ace565b8573ffffffffffffffffffffffffffffffffffffffff168773ffffffffffffffffffffffffffffffffffffffff168373ffffffffffffffffffffffffffffffffffffffff167fc3d58168c5ae7397731d063d5bbf3d657854427343f4c083240f7aacaa2d0f62886001604051808381526020018281526020019250505060405180910390a46201114f7fe466194d1d6f086e6f1ce2770132b9aa804a132a0203f9585b96b9079c04ffcf60001b62003ace565b6201117d7f8b1654335c36ca3890a8fa4a9634bf33d7edbdc16e62fa30fb3dff08f13cb5d260001b62003ace565b6201119e8673ffffffffffffffffffffffffffffffffffffffff166200fa3d565b156201141657620111d27fdafb3ed72165a50f0cf2c8814193173c814aeb1991d96695d2ad2edeba8b024560001b62003ace565b620112007f6c62ba5af51a35a3d2a0774af435d5939e0f84217081e63608d9631fd8fb09a760001b62003ace565b6201122e7f8329d9b3b940ffb4f330adaadaeb55da1c4c36e4672016a2f314d89d0ae4282b60001b62003ace565b6201123986620127fa565b15620112df576201126d7ff0e65a718b0fe370c0c27dc2db405e6fe5ff5d7b55d2ab8792f194fe380958f760001b62003ace565b6201129b7f68da4a0fffada0a60297ae1440afecd75adc2751e0b950725423806d3b0b3b0560001b62003ace565b620112c97f2b3c355a454943964806874589688b18b089ff996cd444efd34f7b530ab146eb60001b62003ace565b620112d987878760018862012b3a565b62011410565b6201130d7f65470660f49b70538a982404c052fe62c556924fc80014df64cd1577b4e3216f60001b62003ace565b6201133b7fdad5b87ccc5710602893979599ab5f60d4f4e840506c9b4f2854395b47deb8a560001b62003ace565b8215620113e057620113707fd47041472969b95f27989e18710c63b25e445bc7a6fcd5a83efa7ec9b436b64060001b62003ace565b6201139e7fac509e52e4f146c1422e16d12b262ca61922c2eb84a574cbbe66be15355438ac60001b62003ace565b620113cc7f7a63ff0a9ac79579cae78a4b369f29a8bf27c8f4c257f63eeb8e857945964a3960001b62003ace565b620113da8787878762012e2f565b6201140f565b6201140e7ffd8cc713eef7219638b14aaca11834ca9ac0e273bdb72877aa856d9f451aa93660001b62003ace565b5b5b62011445565b620114447f4053f6c60779358a2ea4c2c091dd152fb2c0515036ef80abca5516682ea627d460001b62003ace565b5b50505050505050565b6201147c7f079d2c3de0e5d742a6027bba3e52ef48e4a12148f1f1b316bf01ded5aae84f9360001b62003ace565b620114aa7f3a4088155a9ca7de66c248b0a67347227000fe7eb2892f60ade2d074d8c40de360001b62003ace565b620114d87fafde1d081156b5a8ae1f9e5e1cc533109f35eef6718ee338f2331a9a7e8a2e1760001b62003ace565b620115067f14eed034ae2105201afb62f3fe417360763e51c56f68a9e4f84c1edb52a7134f60001b62003ace565b600073ffffffffffffffffffffffffffffffffffffffff168473ffffffffffffffffffffffffffffffffffffffff161415620115aa576040517f08c379a000000000000000000000000000000000000000000000000000000000815260040180806020018281038252601b8152602001807f496e76656e746f72793a207472616e7366657220746f207a65726f000000000081525060200191505060405180910390fd5b620115d87f7c67a7f62214f9381e1425c49047885ce6b7eae6ce12fd5a2d8588f8a40fb9f160001b62003ace565b620116067ffd184edf4a9633fcd8e0411fbc08a3201e86b9698ff0563563bb66c04ed7f42160001b62003ace565b620116347f7e24aedca854e621d8edd65a90661d52e165a4f99dfc2f53d3d99ad7864f9be260001b62003ace565b600083519050620116687f7d2b32f2fd7c9048bbe1374bfdd3fc4cec4c1828c50015b91721d2b5d044cffa60001b62003ace565b620116967f3f54973c73600b10cad42b3a1634d384cefa97e5fc08b4162d2e61d85abee30660001b62003ace565b620116c47faa8bb3f6c581bbc4ae263060cd97e1d6496a24fc382a67ea4e91e035967b5fc960001b62003ace565b825181146201173b576040517f08c379a000000000000000000000000000000000000000000000000000000000815260040180806020018281038252601e8152602001807f496e76656e746f72793a20696e636f6e73697374656e7420617272617973000081525060200191505060405180910390fd5b620117697fa5121350e038f501341a582b68b76416083164106e4b96844c1d6e9488a9e21860001b62003ace565b620117977f84722a4acdff07ac33fb6abf5cfb3faf6d34310929f46f21dac75bf1242b879960001b62003ace565b620117c57f0121b8af5d7f2bac681106e62a194ef278aaf54d1e6fbbb37e9b0e9f7f9194e060001b62003ace565b6000620117d162005aee565b9050620118017f03fc2bd9482cfc3e9e50b6938e30a72af22ea07ae6f796bf3effb4b17c12fd7960001b62003ace565b6201182f7f73722ca1735e1b230203a9e18243f62bea407fd6e467184410da9cac3648936760001b62003ace565b60006201183d888362005af6565b90506201186d7fa49b0e9c101c092e9d86abdb74aed709f0e1932765bab9639b6f709b15c2712960001b62003ace565b6201189b7f6b43c3fe58566d774081c7388fa8ca363da200a66281b90a3a07851272aa14b260001b62003ace565b6000620118cb7f245140941faf5cffe36d62267b58babc8539433cee4fceb41a8c5e2feb035bc660001b62003ace565b620118f97f41cd8c6be45e39f2788d081010a7755c12b2884b9d2695e819d32e2b341e231d60001b62003ace565b6000620119297fe885628feaa0d3b629a02b4553c354ac5b19a29c68c2624e6024e29117b84d6360001b62003ace565b620119577f75ebecaa57626cdea5ba42f8fc81b6037af88a7d38bf15393c662e65d0b14a3060001b62003ace565b6000620119877fb220fc48b668809f4ef2748d50322af7db42e50bfe010e4bf1b608f5fdfd09cb60001b62003ace565b620119b57f339fe2edcd1795dfb513a53efa1a09b2b8d9ebdfca3dc0e7b628ea040a1f955360001b62003ace565b60005b868114620122ad57620119ee7fc3063ee4d0e33316f1fb0cfe576c1c359b6c8eba608941d199c606f15e6a985960001b62003ace565b62011a1c7fde3000e56738b33305b56a46c087e596ea858b601af3fce5b33c1cc777a6096460001b62003ace565b60008a828151811062011a2b57fe5b6020026020010151905062011a637f6bb030e1d2e8db111a75aaccfc94ddb9ff2704810684ddb73b7576eee29b226460001b62003ace565b62011a917f6f66e045ec2134157c68f9135a36456d5895ab63547792baa645bfda24d7a72a60001b62003ace565b62011a9c816200b3a1565b1562011b555762011ad07f47ed0402cd697efb6e249ea0e9cf70121b4413975e936ab87060951da1ddc19260001b62003ace565b62011afe7f1a56852faac22cc0c7e888396aa9a00b40854b2dfded75e6e15885d89a8fca6c60001b62003ace565b62011b2c7f6db6c708d7feaa5d23174f6c02ae5468090d03fb8e585335f5a088b6a6ffc68760001b62003ace565b62011b4f8d8d838d868151811062011b4057fe5b60200260200101518a6201329e565b620122a0565b62011b837f29c58a6b0623f73482cf428a60f84d9dcff4c87e372d5e12012517e38568946360001b62003ace565b62011bb17fdb2ff591ed0f1ca7222f4eaba4aba0aac3710036439b898c338b2b8bb3ae16d560001b62003ace565b62011bbc8162005912565b15620121a75762011bf07f2743146885767da2e8bfcc9eea4514295adff24c3e7306ee25d22eeb55f6a59560001b62003ace565b62011c1e7f0360671ed75890e91f5e51a301acb3fd4d94fae9d74508d4ffd7461260fe789d60001b62003ace565b62011c4c7ffe921a82c2387e13184ad035741dd64de7652b19f4e346736d633bf349b906e760001b62003ace565b62011c718d8d838d868151811062011c6057fe5b60200260200101518a600162013970565b62011c9f7f677e950b3872f186c3324160a8a6c4c25a632860749ddcd8661ef813118158e960001b62003ace565b62011ccd7f7ab70b17a77aca4ccd8cda74a4569bba19f731422a31232fb807a3011766976060001b62003ace565b808c73ffffffffffffffffffffffffffffffffffffffff168e73ffffffffffffffffffffffffffffffffffffffff167fddf252ad1be2c89b69c2b068fc378daa952ba7f163c4a11628f55a4df523b3ef60405160405180910390a462011d567f737c4b9eeb98cafa2bb55d8a3736b7567a2ecdfb92ea1516a886a7d948ea700560001b62003ace565b62011d847f686318aa84075c253a338b68efc99f1c3b605ffc0790ec097f210fb7f45b718e60001b62003ace565b600062011d91826200b4fa565b905062011dc17fac7c9f3d9cee423db45b102f92c47471f2a900bd4252256473e6f308eebd6e7160001b62003ace565b62011def7f1e1eea6eed58d990624f80d88d1ea0a28f996769643c2aad5e50aaf1d7c5d62160001b62003ace565b600086141562011eec5762011e277f2d893847139976e8bb704087e7ed15dd349efcf74276a51b2c948196f013a8c660001b62003ace565b62011e557f96beaf9bbea58f95249388bf304cd604234f6e674aabab7ab2ff068c6247ad0f60001b62003ace565b62011e837f08261626eca574096e3d4efcec4aa29df22b92e33ae36f5971f36ead4a5dfc3960001b62003ace565b80955062011eb47f8eb79ddfb9f0d3b74ca611289bc7ccdc9bdc11c656c69713d089d580388a61da60001b62003ace565b62011ee27f2747057c725fe33e904f231050a448ba8eb3f49e182791ebf3515569e4bcc75d60001b62003ace565b60019450620121a0565b62011f1a7f0dc2cbedb256dafec5bd94c09ec0437fa8098b1a6fceeae2c0464b5aaf5bc30c60001b62003ace565b62011f487fbc02d2bd2d53522e79725b96c8468baf452972cf1a83684682d52b83554b421660001b62003ace565b62011f767f2617d34d0cfee332473fd2fd1b707d28fdb18d0aabeb973aca5f7f046e5fdf1960001b62003ace565b8581146201213c5762011fac7fa1166d6257b64f4514ed1701e8233944a015db58adcf9a7b181e607ead1fea8a60001b62003ace565b62011fda7fb94c2be3fe80a26998603517b38b20d21807ca51e740fb9f486591ecadb82c2260001b62003ace565b620120087f5a41b2bf6d0f9346b0494fffb029f1b40197f4dcc2a25c87a10f4c9e50d23e0060001b62003ace565b620120168e8e888862014151565b620120447f7c256b53fd6225b53741641ff76a58937158d46faecb7a7fff83e756ee514b3a60001b62003ace565b620120727f23c7dc0daf9d7875301693b28e59003478513ddef98104b700a364e58c97044a60001b62003ace565b809550620120a37fdb1e6a4ab3763f3788e8f1c8bf3568a9fd4fa3a565c2e951fce0f5e18771b2f360001b62003ace565b620120d17f981c14570af506fe73a82ed7974868764cd6c69fd9943c8228c269a87883a35060001b62003ace565b8484019350620121047f7a3a7934cde5b4967086d2d41f0ada740446e63f3c2ceb2a64c50f2ff2f87bd060001b62003ace565b620121327f64d4935684a0065c8415e4e0b6bd07689ce81b192465e2c93085f1d0947035d160001b62003ace565b600194506201219f565b6201216a7fe46320c098bc0f79ce2603b1771ac872e7fd9538ea35e85a1bc33da9ec5fa74260001b62003ace565b620121987fdcd05ce1ba4c0c04b90ba135cc94700a6e9ac2c80129422dd712b450dc1fba1260001b62003ace565b8460010194505b5b506201229f565b620121d57fa62b7a81bae6d8ea6373455e934dd82b07394d4ffac386c0b96b5429584c5e7560001b62003ace565b620122037f4d120556cf71734e2047190404ac40ff79490ec17d286e53b74992a03d68712260001b62003ace565b620122317f1f25a8f58eef4a8a51ee401e546d7bdcfe38306f2ba41814885a30f0411dd39b60001b62003ace565b6040517f08c379a00000000000000000000000000000000000000000000000000000000081526004018080602001828103825260198152602001807f496e76656e746f72793a206e6f74206120746f6b656e2069640000000000000081525060200191505060405180910390fd5b5b50806001019050620119b8565b50620122dc7fcd4e5076315a4dfc1ea0a90d9687730593223da3e20587ec52e1d53b89b64ce760001b62003ace565b6201230a7f6c4cb40595b0ce2e953e333689b117b2672e5fdcbadd2448066b142eda5208a860001b62003ace565b600083146201247b57620123417f5030afaadfee22d56a99b438662686b116e6c2633178fbe79d680f3637c39b2d60001b62003ace565b6201236f7f89c194c32c8ca04e411a74cd61cdc5094d4b96a41306835034dfe3d97123a77b60001b62003ace565b6201239d7f3c1726ebfcec024f7752ebf6dab295c5b7f6e02712a402f92251a941dc1cde9360001b62003ace565b620123ab8b8b858562014151565b620123d97f31562fad44a38d5ae5ffab64d6e08193563f6a7f01bcbf59e1d613fad4e602f560001b62003ace565b620124077ffe1dea71d9cdcda8e9650dfff986b5a2bda52c9292f91f45f871a4ac59ef950060001b62003ace565b81810190506201243a7fd799c9cadfd96a0bd77608e1b558db2236ded72833d7fac1bb711796fab9db0d60001b62003ace565b620124687f3a0314d3503ab62c3cb846cf44721335c77c65676b122285bedb990d603dad9260001b62003ace565b620124758b8b83620143ec565b620124aa565b620124a97f77295087e0f9603d883c8ae5e836cb02a9272e64479219992fe0a53c4becf05460001b62003ace565b5b620124d87fb19689c8cc644a908fb4097f337a7e164b8aeb7a65a6c09bb20a73fb310ba98460001b62003ace565b620125067fc6512f6409b3656b1bd9fb2c01cbfab1c316139dd202433ca0e6f971c1c7dccf60001b62003ace565b8973ffffffffffffffffffffffffffffffffffffffff168b73ffffffffffffffffffffffffffffffffffffffff166201253e62005aee565b73ffffffffffffffffffffffffffffffffffffffff167f4a39dc06d4c0dbc64b70af90fd698a233a518aa5d07e595d983b8c0526c8f7fb8c8c604051808060200180602001838103835285818151815260200191508051906020019060200280838360005b83811015620125c0578082015181840152602081019050620125a3565b50505050905001838103825284818151815260200191508051906020019060200280838360005b8381101562012604578082015181840152602081019050620125e7565b5050505090500194505050505060405180910390a4620126477f609875c8689139bf6bc8a06f14712692a722f18feb0c7232ae23399cfa06ec7460001b62003ace565b620126757ffad39a48d035d1f498a7954fa00bc3748f75ee8421d4ba7302b90d62c189382360001b62003ace565b620126968a73ffffffffffffffffffffffffffffffffffffffff166200fa3d565b156201273b57620126ca7f6285266b434e0cbee6ab7a8c83949bd6aa6aeefae761f622115beebd6b43315560001b62003ace565b620126f87fd7a10f41f119ad227413f88309349938b33be28f226f26d78c3af571044da97260001b62003ace565b620127267f79f26c92de0b41f196f543a51a00a027de699067d8b037aaac4351d45e7867df60001b62003ace565b620127358b8b8b8b8b6200fa50565b6201276a565b620127697f23333bfe390921046380e3df6936e99f67a2dbc0104b0582dd1ce2478c7eceeb60001b62003ace565b5b5050505050505050505050565b60008054906101000a900460ff16620127f8576040517f08c379a00000000000000000000000000000000000000000000000000000000081526004018080602001828103825260148152602001807f5061757361626c653a206e6f742070617573656400000000000000000000000081525060200191505060405180910390fd5b565b60006201282a7f8bce3641ea8f03edd513b9d602220b635983e4472ef2b7493537f2f9a37f0cce60001b62003ace565b620128587fd14cb366654ffd68fcc529300483500a023e3694f0c93e923facfe83cdfb07af60001b62003ace565b620128867fe64aeb9ba4cb4fd784b84b135ef05ea95b1025216606bc6daa556ea80bc88b2660001b62003ace565b6000620128b67fbf13198ad5e28f8725b384ab516ac0c88154274a70c391fafaae5b447cc950d660001b62003ace565b620128e47f8927919098f935b8a5c117c288f5a20e897a04431ae40cff83262c6b3e68b9ee60001b62003ace565b6000620129147fb165c28f1d27b483d528deb1f64d4d8800429c24efdf71472487e3b17950b19c60001b62003ace565b620129427f63fd9157595f867dcecaac6d8fce6e432ceb8e030ff3188d196ea2d18924bac960001b62003ace565b60007f01ffc9a7000000000000000000000000000000000000000000000000000000007f4e2312e00000000000000000000000000000000000000000000000000000000060405160240180827bffffffffffffffffffffffffffffffffffffffffffffffffffffffff19168152602001915050604051602081830303815290604052907bffffffffffffffffffffffffffffffffffffffffffffffffffffffff19166020820180517bffffffffffffffffffffffffffffffffffffffffffffffffffffffff8381831617835250505050905062012a427f3cc1b196435b36d102307fe8e195f76b5eb727634b9057706013f04307cc7aa960001b62003ace565b8060200181516040516000815260208183858b612710fa95508051945050505062012a907f595ab10bb75aa77071980c77b375d693796c8109e865a5b749a8a7026b9f1bfa60001b62003ace565b62012abe7ff6d76b1ae1d738931cf8d9f92220da41314bda975f02908db0af47e40edf8c3b60001b62003ace565b609e5a1162012ac957fe5b62012af77f094bb0059eb5173fba26ec9a2df84fe5052a8a035400dd9e6cd4a91d8200842760001b62003ace565b62012b257f11bd5e077af6521409442d1be9a17f094e5606c218f47c3512d5f17a140f675360001b62003ace565b82801562012b305750815b9350505050919050565b62012b687f05d4eabced4a90bc15fe1363d1a39b0026c03b81a825c0a82aa8861c967300c460001b62003f5f565b62012b967ff6c9ba956753ec49666702d2237e8ff3b9c60baf3ac68523fac483c31ff1b63160001b62003f5f565b62012bc47f1c9fbd969656e9225a24f0352001238ee7f5b381e50699467d086d99ecf6acc960001b62003f5f565b62012bf27fd9a2510c585de86f20c32d87f365937844a6346aebf914e4a85409eb7f04937d60001b62003f5f565b63f23a6e6160e01b7bffffffffffffffffffffffffffffffffffffffffffffffffffffffff19168473ffffffffffffffffffffffffffffffffffffffff1663f23a6e6162012c3f62005aee565b888787876040518663ffffffff1660e01b8152600401808673ffffffffffffffffffffffffffffffffffffffff1681526020018573ffffffffffffffffffffffffffffffffffffffff16815260200184815260200183815260200180602001828103825283818151815260200191508051906020019080838360005b8381101562012cd857808201518184015260208101905062012cbb565b50505050905090810190601f16801562012d065780820380516001836020036101000a031916815260200191505b509650505050505050602060405180830381600087803b15801562012d2a57600080fd5b505af115801562012d3f573d6000803e3d6000fd5b505050506040513d602081101562012d5657600080fd5b81019080805190602001909291905050507bffffffffffffffffffffffffffffffffffffffffffffffffffffffff19161462012dfa576040517f08c379a000000000000000000000000000000000000000000000000000000000815260040180806020018281038252601b8152602001807f496e76656e746f72793a207472616e736665722072656675736564000000000081525060200191505060405180910390fd5b62012e287fa738110d8fd9c8d232e532ba6040fa049501cff7a292ef7fc2fd7cb09ac547a960001b62003f5f565b5050505050565b62012e5d7f8b4614292866e122435e73849e4a0670770789ad0bbf2d91e013fe599bec437160001b62003ace565b62012e8b7f53375beaa51442ff653de4e33303a43b1c9bff8cd76cb8d9759bd1a01190e21860001b62003ace565b62012eb97f6f94ffcecbcc78d40faa1a872daf2931023664e5035158aac3ea0c3e109f6efb60001b62003ace565b62012ee77f20226d8c7d008bdaa7479fc93f6ba7b56858d5066ec26df5705782dc45beae9360001b62003ace565b7f150b7a02000000000000000000000000000000000000000000000000000000007bffffffffffffffffffffffffffffffffffffffffffffffffffffffff19168373ffffffffffffffffffffffffffffffffffffffff1663150b7a0262012f4d62005aee565b8786866040518563ffffffff1660e01b8152600401808573ffffffffffffffffffffffffffffffffffffffff1681526020018473ffffffffffffffffffffffffffffffffffffffff16815260200183815260200180602001828103825283818151815260200191508051906020019080838360005b8381101562012fdf57808201518184015260208101905062012fc2565b50505050905090810190601f1680156201300d5780820380516001836020036101000a031916815260200191505b5095505050505050602060405180830381600087803b1580156201303057600080fd5b505af115801562013045573d6000803e3d6000fd5b505050506040513d60208110156201305c57600080fd5b81019080805190602001909291905050507bffffffffffffffffffffffffffffffffffffffffffffffffffffffff19161462013100576040517f08c379a000000000000000000000000000000000000000000000000000000000815260040180806020018281038252601b8152602001807f496e76656e746f72793a207472616e736665722072656675736564000000000081525060200191505060405180910390fd5b6201312e7ff229fcca5b5af216d43f1932719d3eba3fa13b830c805249cc4e9cbb77bb200560001b62003ace565b50505050565b620131627f540bdb452e1316838f1615d8447e47bcd601b0b5fc7e5604c6f2e145eed93f4060001b62004235565b620131907fffa2c448ba2299f357b47347e588c21da8c545cb80f8522b41a1e86db14f1f0060001b62004235565b620131be7f3cfb437dc21243fd29aba40ead2c88f1549f4c9375fdffdc71db385910d7267960001b62004235565b806002600084815260200190815260200160002060008573ffffffffffffffffffffffffffffffffffffffff1673ffffffffffffffffffffffffffffffffffffffff168152602001908152602001600020600082825403925050819055506201324a7fa89800a44a464489524d0aa7e45665db2e3cf0fd573e80033bc0134d5a481d3660001b62004235565b620132787fcfc6149b31ed1aafc086f487343c2dafed4643507973bcaf5386731502e88a6860001b62004235565b806003600084815260200190815260200160002060008282540392505081905550505050565b620132cc7f383b34e2cce69f35285388f3d490c5147df89eeabe83f957432163f8f765e1ab60001b62003ace565b620132fa7f678f33a5847d25671d080fa784f9bc198454f3e82d452b82e51ab22cb1f3795660001b62003ace565b620133287fe44c3949295f046069ad1a89b015cd60a40b846b2d6e73122883655e5c899a1a60001b62003ace565b620133567fc5c82cf307d9b1b41991229788cdcab906a1899a37a90d005cf86359332cc7cb60001b62003ace565b80620133ca576040517f08c379a000000000000000000000000000000000000000000000000000000000815260040180806020018281038252601e8152602001807f496e76656e746f72793a206e6f6e2d617070726f7665642073656e646572000081525060200191505060405180910390fd5b620133f87fd57b77aaebf0d2dea4814e29f131966101f99b485f14a34f6dcf47d39c3909cf60001b62003ace565b620134267f46641d23a0590d9bc3458529c38bdcf7bb7cb831c0e105c07e34d50076b3070260001b62003ace565b620134547f2ab7d289d6c685b38a3ffde48b68e647d0eee91590fa55cc780e113aa98e3bdb60001b62003ace565b620134827fee981ebdc2d4c4a5a04eef401dd68de2b51fe2124729158731bd9d8457cf1e3760001b62003ace565b6000821415620134fa576040517f08c379a00000000000000000000000000000000000000000000000000000000081526004018080602001828103825260158152602001807f496e76656e746f72793a207a65726f2076616c7565000000000000000000000081525060200191505060405180910390fd5b620135287fa1f83f1d4df4a0779a93823b06873916651fd65eb45e37bead0d065ac69fd14960001b62003ace565b620135567f56711b7e46e8b4b7ea2cd0bebbcca2c4c65d8d14fa8accce9288f1115f57654160001b62003ace565b620135847fd8dc46961bbf1fae21b078a319fbfaee0c1f69deffa4e1a1d2f569634ec9ddb960001b62003ace565b60006002600085815260200190815260200160002060008773ffffffffffffffffffffffffffffffffffffffff1673ffffffffffffffffffffffffffffffffffffffff168152602001908152602001600020549050620136077fa25c93e7d8a3bc6494683b012a28590e5c71d57c17e0152c951d002832644f6a60001b62003ace565b620136357fc56264cc3d03cfbab8d5afd22f0ddef204d00554d7b95b51e2f5d1340a00d45760001b62003ace565b620136637f1282936c21e80dd33487e26c98b90abd44599f84e37394bbcf15faaadf77ace760001b62003ace565b82811015620136da576040517f08c379a000000000000000000000000000000000000000000000000000000000815260040180806020018281038252601d8152602001807f496e76656e746f72793a206e6f7420656e6f7567682062616c616e636500000081525060200191505060405180910390fd5b620137087f155351313cbbf613b0839276cff7b014a75e57a6b1e3fe0b7f5ebd96cbc5666560001b62003ace565b620137367f0297c2286b0b7d45907873a3f8f0e757f8d7b8f8d4caa53ae3dbf3842355008860001b62003ace565b620137647f26715963863ba38a9f55ce326569a10f43bdc90b9303dbc2c06010279a9764d460001b62003ace565b8473ffffffffffffffffffffffffffffffffffffffff168673ffffffffffffffffffffffffffffffffffffffff16146201393957620137c67f0d0a141f4611886990019e9c6ddd88314090fd474e9ca8e4707b1c05e0ff402160001b62003ace565b620137f47f9fe8c8462e091245d135ab2cca413a36ecb93929902ca17b6f22065383ac9b2d60001b62003ace565b620138227f5b3954315509ad60c29b120cd0346f647e13e221137267f4cafa94025a4853c960001b62003ace565b8281036002600086815260200190815260200160002060008873ffffffffffffffffffffffffffffffffffffffff1673ffffffffffffffffffffffffffffffffffffffff16815260200190815260200160002081905550620138a77f764cfc886d841e5f119c7919102fa9a22eafe024310ee80a9125571e3390d0db60001b62003ace565b620138d57f4cb0ee8d9ebfa413cc61b6f63cb570d2e0dd8d02a761f8be16c8e4d37988c45660001b62003ace565b826002600086815260200190815260200160002060008773ffffffffffffffffffffffffffffffffffffffff1673ffffffffffffffffffffffffffffffffffffffff1681526020019081526020016000206000828254019250508190555062013968565b620139677f13000358c5a5baadfce9eefbd1385b63525ed6a9203b2301381b4c09cde976be60001b62003ace565b5b505050505050565b6201399e7f27f6969396d7d67dc8684c25e0e6977c53573e359b530a92b7dbb62a8c5e0e8d60001b62003ace565b620139cc7ffda6ec062501e7b06916e53b87ed1b8f010358626c219c717075971729d9ee1060001b62003ace565b620139fa7f4692675340ba59141b5fee85fbde96ae012d419c9fbd158853fba807517e9a6d60001b62003ace565b62013a287f40521383c0dc841101b0a3675206a759edb6932a371ac8cd96555abcc23a49a460001b62003ace565b6001831462013a9f576040517f08c379a000000000000000000000000000000000000000000000000000000000815260040180806020018281038252601a8152602001807f496e76656e746f72793a2077726f6e67204e46542076616c756500000000000081525060200191505060405180910390fd5b62013acd7fe68f89631a244a14950e716f1cd954865bed612ffb96cdfc69ff046b6fdeb6d460001b62003ace565b62013afb7f1ed8e36d755ee0714c5e1ab8c7669447556ce57f45374cf09fd833cd63f43c1e60001b62003ace565b62013b287ee7dea39ae313f8e211c5246f05c2629d9df8129beb55d3b799eee38e6fa9b760001b62003ace565b60006004600086815260200190815260200160002054905062013b6e7f3a500f258664d32904ed6efa47b88b42fdf567721d87cbd6f836a2ed359515d960001b62003ace565b62013b9c7f43ac2a50878cf124327689237381fe0d29cb7d121d3eccccd192f19dbe7ad82960001b62003ace565b62013bca7f28d8373aae909cb11b765507404e0f45b4425d9e8f8ab7f88be641a0d7d8ab9260001b62003ace565b8073ffffffffffffffffffffffffffffffffffffffff168773ffffffffffffffffffffffffffffffffffffffff161462013c6c576040517f08c379a00000000000000000000000000000000000000000000000000000000081526004018080602001828103825260188152602001807f496e76656e746f72793a206e6f6e2d6f776e6564204e4654000000000000000081525060200191505060405180910390fd5b62013c9a7f328cd7cd7e9b4fbc2b799e3e5ab1d1a61a1e72f6522f558992ef3dce0b015dcb60001b62003ace565b62013cc87fe693eeef3e8cdacc993bec27e84aad648d7655f5db68e099044444d7fa0fbf6d60001b62003ace565b62013cf67f83e5c6ae58497c2e1cc601be11374ab610b38647b6f9260621a4cdbe27f1d09760001b62003ace565b8262013eeb5762013d2a7f517962a4085ad0120ac78d1faf3a7caeae115c5bd98087e15fedc94e9e5cfbd360001b62003ace565b62013d587ffeeaa9d3b3ef2fd3a459371ecaed193856ce766f1b46fb7a6fdddc65deca5df260001b62003ace565b62013d867fe34e67e421347de2da527a229b4e85f3db0b35c9ecb79a1799d81201c3b8ff2d60001b62003ace565b62013db47f24e977136e208e806a0575ff5fb446cf48a9fdeca652298bf382aa39c988f53f60001b62003ace565b60007401000000000000000000000000000000000000000082161415801562013e4457506009600086815260200190815260200160002060009054906101000a900473ffffffffffffffffffffffffffffffffffffffff1673ffffffffffffffffffffffffffffffffffffffff1662013e2c62005aee565b73ffffffffffffffffffffffffffffffffffffffff16145b62013eb7576040517f08c379a000000000000000000000000000000000000000000000000000000000815260040180806020018281038252601e8152602001807f496e76656e746f72793a206e6f6e2d617070726f7665642073656e646572000081525060200191505060405180910390fd5b62013ee57f289fd34e84900d001ea48d39c6c07a05d4db142c42705a1264903d102cc1295160001b62003ace565b62013f1a565b62013f197fc7bd1d335a660ada91b37d90e6c5b02a371e3d824096437541b3d3710d69326560001b62003ace565b5b62013f487f7a9447480294edf5e1a2248fdc91d117ba6ce1ab9e39a321e24ddacdd437a10360001b62003ace565b62013f767ff97580b9d006c5b61de7ad6fe40ce2514ebadf3a4a03b6023a7999198ba69ce360001b62003ace565b8573ffffffffffffffffffffffffffffffffffffffff16600460008781526020019081526020016000208190555062013fd27f6af912b56e462f83004ce8047c8f01765a90b9495ce071921883a11db4f147ba60001b62003ace565b620140007f519fe12a7027b5114d68d316bc51046dbea276e34171a77da9979f707ac1b0de60001b62003ace565b816201411957620140347f3e3b44906ea2c6cabcb1a196b87f6f871a2797c70869db091d2ffd5891419d4960001b62003ace565b620140627f581e90482a6871d7aa44fc4ce6e20c87db3671869d881a11fa519870258556fa60001b62003ace565b620140907fc3935240aa33c9df7c8819162a113ca654eb5dfeb4e6b1148ac0eed4becbfcb260001b62003ace565b6201409e87876001620143ec565b620140cc7f6a85537faa315650f86023df333a06be03aaa6578597dada1309412741c79f0960001b62003ace565b620140fa7f240d5a05324aeffba93cac1aa63a8e778b033e820d9006d887420ed9e316545860001b62003ace565b6201411387876201410b886200b4fa565b600162014151565b62014148565b620141477fa4fd5ccf16e2386e91df9b0832b348db6204790830572a53d4eceb25d3db2a9a60001b62003ace565b5b50505050505050565b6201417f7f0a6905b883ff3fc3b0047f911b5db425ee65592b2a12736bac4623f48027ffc760001b62003ace565b620141ad7f5a440e83c30d600cf0a455ec0f923fc4e60836252352893850d64cba4c6d737a60001b62003ace565b620141db7f8cb1d815f0e150d4676a17422046e0cf345998f8e733f6c3676315ae308ae1c160001b62003ace565b8273ffffffffffffffffffffffffffffffffffffffff168473ffffffffffffffffffffffffffffffffffffffff1614620143b7576201423d7fa5138c410b6648320dee85e7818cfc5b92449ca38f97ad28bbfa69953ba4e64360001b62003ace565b6201426b7f74bcee8410297e445345898118db79651a22fbcda7de326aebdeada01a1374bc60001b62003ace565b620142997f43d970672e664e91b6ea5fcdaf9d14c1a5514ac07f3245e884926e80033a50e460001b62003ace565b806002600084815260200190815260200160002060008673ffffffffffffffffffffffffffffffffffffffff1673ffffffffffffffffffffffffffffffffffffffff16815260200190815260200160002060008282540392505081905550620143257fb9b384d5ae14a5909aabd07c132a5c03a3aa6de7d113df48fd3cd7fb775b86cf60001b62003ace565b620143537fedee4df0a2b056d15a0f9492b72a8b655f033ae9227e406bfe66b2eccfbdc3c960001b62003ace565b806002600084815260200190815260200160002060008573ffffffffffffffffffffffffffffffffffffffff1673ffffffffffffffffffffffffffffffffffffffff16815260200190815260200160002060008282540192505081905550620143e6565b620143e57f3c726f5ce087f19d8cf86e65efadec3752f07fc61d55b078c8eb9900dfc2a60360001b62003ace565b5b50505050565b6201441a7ffe592558790d1de4e7041bb875de9f68d6379cbae267009c757974aa058d6b5960001b62003ace565b620144487fa87dc5aade4b10f896ce9da7dc719d98c02622a2c936cad8cc82055f77b6fad660001b62003ace565b620144767f7649ee19535c2eafb3354346ca0a67d9a863e6a1a5389dabca383df4a943c99460001b62003ace565b8173ffffffffffffffffffffffffffffffffffffffff168373ffffffffffffffffffffffffffffffffffffffff16146201463057620144d87f6e48a1c26d16202a733a07c99e5fc8908b91ed4225f2667cc51a5b9bbe8ce81d60001b62003ace565b620145067f62099b921b10e04154fe8e7793366c1cb253be86e39ced913999966d4ecd769a60001b62003ace565b620145347ffdeeefd541aad516fbd4c7245a66c1b41fb702e3c18913a05d4f6512a7ee328d60001b62003ace565b80600860008573ffffffffffffffffffffffffffffffffffffffff1673ffffffffffffffffffffffffffffffffffffffff16815260200190815260200160002060008282540392505081905550620145af7fb8fa07428d737d3efa4fa3f803592b2c5bd43f796f6cd9f19870ccd36c6c9c7560001b62003ace565b620145dd7f9e07fcf0b859c2781ab63d391adf32b6fd5dc406fc25783717b1c3424e806d0060001b62003ace565b80600860008473ffffffffffffffffffffffffffffffffffffffff1673ffffffffffffffffffffffffffffffffffffffff168152602001908152602001600020600082825401925050819055506201465f565b6201465e7f76cf30204240668a55294d7e371eca67cd64f5104ce2d18bb227860f27d9139560001b62003ace565b5b505050565b6000620146947fadfa95640147ab4c0d8e179ddcac69e18a21437cb50d0dc4471e78f81fe9f5e860001b62003f5f565b620146c27f2234a02ae4d0203c1a2641ed80ac160b16d1206553cd60aedf05b4e854f0117560001b62003f5f565b620146f07f808fe83f7b40774a06658e923bade4c6926d9e810609f7344d5c76edf281650d60001b62003f5f565b7f01ffc9a7000000000000000000000000000000000000000000000000000000007bffffffffffffffffffffffffffffffffffffffffffffffffffffffff1916827bffffffffffffffffffffffffffffffffffffffffffffffffffffffff19161480620147ba57507fd9b67a26000000000000000000000000000000000000000000000000000000007bffffffffffffffffffffffffffffffffffffffffffffffffffffffff1916827bffffffffffffffffffffffffffffffffffffffffffffffffffffffff1916145b806201482357507f0e89341c000000000000000000000000000000000000000000000000000000007bffffffffffffffffffffffffffffffffffffffffffffffffffffffff1916827bffffffffffffffffffffffffffffffffffffffffffffffffffffffff1916145b806201488c57507f09ce5c46000000000000000000000000000000000000000000000000000000007bffffffffffffffffffffffffffffffffffffffffffffffffffffffff1916827bffffffffffffffffffffffffffffffffffffffffffffffffffffffff1916145b80620148f557507fbd85b039000000000000000000000000000000000000000000000000000000007bffffffffffffffffffffffffffffffffffffffffffffffffffffffff1916827bffffffffffffffffffffffffffffffffffffffffffffffffffffffff1916145b9050919050565b828054600181600116156101000203166002900490600052602060002090601f01602090048101928262014934576000855562014980565b82601f106201494f57803560ff191683800117855562014980565b8280016001018555821562014980579182015b828111156201497f57823582559160200191906001019062014962565b5b5090506201498f919062014993565b5090565b5b80821115620149ae57600081600090555060010162014994565b509056fea2646970667358221220befd782101b5919a46010e35175a041074bb42c092ef23937b8e2df1fbe0d24164736f6c63430007060033",
  "linkReferences": {},
  "deployedLinkReferences": {}
}