{
  "_format": "hh-sol-artifact-1",
  "contractName": "ERC1155721InventoryPausableMock",
  "sourceName": "contracts/mocks/token/ERC1155721/ERC1155721InventoryPausableMock.sol",
  "abi": [
    {
      "inputs": [
        {
          "internalType": "contract IForwarderRegistry",
          "name": "forwarderRegistry",
          "type": "address"
        },
        {
          "internalType": "address",
          "name": "universalForwarder",
          "type": "address"
        }
      ],
      "stateMutability": "nonpayable",
      "type": "constructor"
    },
    {
      "anonymous": false,
      "inputs": [
        {
          "indexed": true,
          "internalType": "address",
          "name": "_owner",
          "type": "address"
        },
        {
          "indexed": true,
          "internalType": "address",
          "name": "_approved",
          "type": "address"
        },
        {
          "indexed": true,
          "internalType": "uint256",
          "name": "_tokenId",
          "type": "uint256"
        }
      ],
      "name": "Approval",
      "type": "event"
    },
    {
      "anonymous": false,
      "inputs": [
        {
          "indexed": true,
          "internalType": "address",
          "name": "_owner",
          "type": "address"
        },
        {
          "indexed": true,
          "internalType": "address",
          "name": "_operator",
          "type": "address"
        },
        {
          "indexed": false,
          "internalType": "bool",
          "name": "_approved",
          "type": "bool"
        }
      ],
      "name": "ApprovalForAll",
      "type": "event"
    },
    {
      "anonymous": false,
      "inputs": [
        {
          "indexed": false,
          "internalType": "string",
          "name": "baseMetadataURI",
          "type": "string"
        }
      ],
      "name": "BaseMetadataURISet",
      "type": "event"
    },
    {
      "anonymous": false,
      "inputs": [
        {
          "indexed": true,
          "internalType": "uint256",
          "name": "collectionId",
          "type": "uint256"
        },
        {
          "indexed": true,
          "internalType": "bool",
          "name": "fungible",
          "type": "bool"
        }
      ],
      "name": "CollectionCreated",
      "type": "event"
    },
    {
      "anonymous": false,
      "inputs": [
        {
          "indexed": true,
          "internalType": "address",
          "name": "account",
          "type": "address"
        }
      ],
      "name": "MinterAdded",
      "type": "event"
    },
    {
      "anonymous": false,
      "inputs": [
        {
          "indexed": true,
          "internalType": "address",
          "name": "account",
          "type": "address"
        }
      ],
      "name": "MinterRemoved",
      "type": "event"
    },
    {
      "anonymous": false,
      "inputs": [
        {
          "indexed": true,
          "internalType": "address",
          "name": "previousOwner",
          "type": "address"
        },
        {
          "indexed": true,
          "internalType": "address",
          "name": "newOwner",
          "type": "address"
        }
      ],
      "name": "OwnershipTransferred",
      "type": "event"
    },
    {
      "anonymous": false,
      "inputs": [
        {
          "indexed": false,
          "internalType": "address",
          "name": "account",
          "type": "address"
        }
      ],
      "name": "Paused",
      "type": "event"
    },
    {
      "anonymous": false,
      "inputs": [
        {
          "indexed": true,
          "internalType": "address",
          "name": "_from",
          "type": "address"
        },
        {
          "indexed": true,
          "internalType": "address",
          "name": "_to",
          "type": "address"
        },
        {
          "indexed": true,
          "internalType": "uint256",
          "name": "_tokenId",
          "type": "uint256"
        }
      ],
      "name": "Transfer",
      "type": "event"
    },
    {
      "anonymous": false,
      "inputs": [
        {
          "indexed": true,
          "internalType": "address",
          "name": "_operator",
          "type": "address"
        },
        {
          "indexed": true,
          "internalType": "address",
          "name": "_from",
          "type": "address"
        },
        {
          "indexed": true,
          "internalType": "address",
          "name": "_to",
          "type": "address"
        },
        {
          "indexed": false,
          "internalType": "uint256[]",
          "name": "_ids",
          "type": "uint256[]"
        },
        {
          "indexed": false,
          "internalType": "uint256[]",
          "name": "_values",
          "type": "uint256[]"
        }
      ],
      "name": "TransferBatch",
      "type": "event"
    },
    {
      "anonymous": false,
      "inputs": [
        {
          "indexed": true,
          "internalType": "address",
          "name": "_operator",
          "type": "address"
        },
        {
          "indexed": true,
          "internalType": "address",
          "name": "_from",
          "type": "address"
        },
        {
          "indexed": true,
          "internalType": "address",
          "name": "_to",
          "type": "address"
        },
        {
          "indexed": false,
          "internalType": "uint256",
          "name": "_id",
          "type": "uint256"
        },
        {
          "indexed": false,
          "internalType": "uint256",
          "name": "_value",
          "type": "uint256"
        }
      ],
      "name": "TransferSingle",
      "type": "event"
    },
    {
      "anonymous": false,
      "inputs": [
        {
          "indexed": false,
          "internalType": "string",
          "name": "_value",
          "type": "string"
        },
        {
          "indexed": true,
          "internalType": "uint256",
          "name": "_id",
          "type": "uint256"
        }
      ],
      "name": "URI",
      "type": "event"
    },
    {
      "anonymous": false,
      "inputs": [
        {
          "indexed": false,
          "internalType": "address",
          "name": "account",
          "type": "address"
        }
      ],
      "name": "Unpaused",
      "type": "event"
    },
    {
      "inputs": [
        {
          "internalType": "address",
          "name": "account",
          "type": "address"
        }
      ],
      "name": "addMinter",
      "outputs": [],
      "stateMutability": "nonpayable",
      "type": "function"
    },
    {
      "inputs": [
        {
          "internalType": "address",
          "name": "to",
          "type": "address"
        },
        {
          "internalType": "uint256",
          "name": "tokenId",
          "type": "uint256"
        }
      ],
      "name": "approve",
      "outputs": [],
      "stateMutability": "nonpayable",
      "type": "function"
    },
    {
      "inputs": [
        {
          "internalType": "address",
          "name": "owner",
          "type": "address"
        },
        {
          "internalType": "uint256",
          "name": "id",
          "type": "uint256"
        }
      ],
      "name": "balanceOf",
      "outputs": [
        {
          "internalType": "uint256",
          "name": "",
          "type": "uint256"
        }
      ],
      "stateMutability": "view",
      "type": "function"
    },
    {
      "inputs": [
        {
          "internalType": "address",
          "name": "tokenOwner",
          "type": "address"
        }
      ],
      "name": "balanceOf",
      "outputs": [
        {
          "internalType": "uint256",
          "name": "",
          "type": "uint256"
        }
      ],
      "stateMutability": "view",
      "type": "function"
    },
    {
      "inputs": [
        {
          "internalType": "address[]",
          "name": "owners",
          "type": "address[]"
        },
        {
          "internalType": "uint256[]",
          "name": "ids",
          "type": "uint256[]"
        }
      ],
      "name": "balanceOfBatch",
      "outputs": [
        {
          "internalType": "uint256[]",
          "name": "",
          "type": "uint256[]"
        }
      ],
      "stateMutability": "view",
      "type": "function"
    },
    {
      "inputs": [],
      "name": "baseMetadataURI",
      "outputs": [
        {
          "internalType": "string",
          "name": "",
          "type": "string"
        }
      ],
      "stateMutability": "view",
      "type": "function"
    },
    {
      "inputs": [
        {
          "internalType": "address",
          "name": "from",
          "type": "address"
        },
        {
          "internalType": "uint256[]",
          "name": "ids",
          "type": "uint256[]"
        },
        {
          "internalType": "uint256[]",
          "name": "values",
          "type": "uint256[]"
        }
      ],
      "name": "batchBurnFrom",
      "outputs": [],
      "stateMutability": "nonpayable",
      "type": "function"
    },
    {
      "inputs": [
        {
          "internalType": "address",
          "name": "from",
          "type": "address"
        },
        {
          "internalType": "uint256[]",
          "name": "nftIds",
          "type": "uint256[]"
        }
      ],
      "name": "batchBurnFrom",
      "outputs": [],
      "stateMutability": "nonpayable",
      "type": "function"
    },
    {
      "inputs": [
        {
          "internalType": "address",
          "name": "to",
          "type": "address"
        },
        {
          "internalType": "uint256[]",
          "name": "nftIds",
          "type": "uint256[]"
        }
      ],
      "name": "batchMint",
      "outputs": [],
      "stateMutability": "nonpayable",
      "type": "function"
    },
    {
      "inputs": [
        {
          "internalType": "address",
          "name": "from",
          "type": "address"
        },
        {
          "internalType": "address",
          "name": "to",
          "type": "address"
        },
        {
          "internalType": "uint256[]",
          "name": "nftIds",
          "type": "uint256[]"
        }
      ],
      "name": "batchTransferFrom",
      "outputs": [],
      "stateMutability": "nonpayable",
      "type": "function"
    },
    {
      "inputs": [
        {
          "internalType": "address",
          "name": "from",
          "type": "address"
        },
        {
          "internalType": "uint256",
          "name": "id",
          "type": "uint256"
        },
        {
          "internalType": "uint256",
          "name": "value",
          "type": "uint256"
        }
      ],
      "name": "burnFrom",
      "outputs": [],
      "stateMutability": "nonpayable",
      "type": "function"
    },
    {
      "inputs": [
        {
          "internalType": "uint256",
          "name": "nftId",
          "type": "uint256"
        }
      ],
      "name": "collectionOf",
      "outputs": [
        {
          "internalType": "uint256",
          "name": "",
          "type": "uint256"
        }
      ],
      "stateMutability": "pure",
      "type": "function"
    },
    {
      "inputs": [
        {
          "internalType": "uint256",
          "name": "collectionId",
          "type": "uint256"
        }
      ],
      "name": "createCollection",
      "outputs": [],
      "stateMutability": "nonpayable",
      "type": "function"
    },
    {
      "inputs": [
        {
          "internalType": "uint256",
          "name": "collectionId",
          "type": "uint256"
        }
      ],
      "name": "creator",
      "outputs": [
        {
          "internalType": "address",
          "name": "",
          "type": "address"
        }
      ],
      "stateMutability": "view",
      "type": "function"
    },
    {
      "inputs": [
        {
          "internalType": "uint256",
          "name": "tokenId",
          "type": "uint256"
        }
      ],
      "name": "getApproved",
      "outputs": [
        {
          "internalType": "address",
          "name": "",
          "type": "address"
        }
      ],
      "stateMutability": "view",
      "type": "function"
    },
    {
      "inputs": [
        {
          "internalType": "address",
          "name": "tokenOwner",
          "type": "address"
        },
        {
          "internalType": "address",
          "name": "operator",
          "type": "address"
        }
      ],
      "name": "isApprovedForAll",
      "outputs": [
        {
          "internalType": "bool",
          "name": "",
          "type": "bool"
        }
      ],
      "stateMutability": "view",
      "type": "function"
    },
    {
      "inputs": [
        {
          "internalType": "uint256",
          "name": "id",
          "type": "uint256"
        }
      ],
      "name": "isFungible",
      "outputs": [
        {
          "internalType": "bool",
          "name": "",
          "type": "bool"
        }
      ],
      "stateMutability": "pure",
      "type": "function"
    },
    {
      "inputs": [
        {
          "internalType": "address",
          "name": "",
          "type": "address"
        }
      ],
      "name": "isMinter",
      "outputs": [
        {
          "internalType": "bool",
          "name": "",
          "type": "bool"
        }
      ],
      "stateMutability": "view",
      "type": "function"
    },
    {
      "inputs": [
        {
          "internalType": "address",
          "name": "forwarder",
          "type": "address"
        }
      ],
      "name": "isTrustedForwarder",
      "outputs": [
        {
          "internalType": "bool",
          "name": "",
          "type": "bool"
        }
      ],
      "stateMutability": "view",
      "type": "function"
    },
    {
      "inputs": [
        {
          "internalType": "address",
          "name": "to",
          "type": "address"
        },
        {
          "internalType": "uint256",
          "name": "nftId",
          "type": "uint256"
        }
      ],
      "name": "mint",
      "outputs": [],
      "stateMutability": "nonpayable",
      "type": "function"
    },
    {
      "inputs": [],
      "name": "msgData",
      "outputs": [
        {
          "internalType": "bytes",
          "name": "ret",
          "type": "bytes"
        }
      ],
      "stateMutability": "view",
      "type": "function"
    },
    {
      "inputs": [],
      "name": "name",
      "outputs": [
        {
          "internalType": "string",
          "name": "",
          "type": "string"
        }
      ],
      "stateMutability": "view",
      "type": "function"
    },
    {
      "inputs": [],
      "name": "owner",
      "outputs": [
        {
          "internalType": "address",
          "name": "",
          "type": "address"
        }
      ],
      "stateMutability": "view",
      "type": "function"
    },
    {
      "inputs": [
        {
          "internalType": "uint256",
          "name": "nftId",
          "type": "uint256"
        }
      ],
      "name": "ownerOf",
      "outputs": [
        {
          "internalType": "address",
          "name": "",
          "type": "address"
        }
      ],
      "stateMutability": "view",
      "type": "function"
    },
    {
      "inputs": [],
      "name": "pause",
      "outputs": [],
      "stateMutability": "nonpayable",
      "type": "function"
    },
    {
      "inputs": [],
      "name": "paused",
      "outputs": [
        {
          "internalType": "bool",
          "name": "",
          "type": "bool"
        }
      ],
      "stateMutability": "view",
      "type": "function"
    },
    {
      "inputs": [
        {
          "internalType": "address[]",
          "name": "accounts",
          "type": "address[]"
        },
        {
          "internalType": "address[]",
          "name": "tokens",
          "type": "address[]"
        },
        {
          "internalType": "uint256[]",
          "name": "amounts",
          "type": "uint256[]"
        }
      ],
      "name": "recoverERC20s",
      "outputs": [],
      "stateMutability": "nonpayable",
      "type": "function"
    },
    {
      "inputs": [
        {
          "internalType": "address[]",
          "name": "accounts",
          "type": "address[]"
        },
        {
          "internalType": "address[]",
          "name": "contracts",
          "type": "address[]"
        },
        {
          "internalType": "uint256[]",
          "name": "tokenIds",
          "type": "uint256[]"
        }
      ],
      "name": "recoverERC721s",
      "outputs": [],
      "stateMutability": "nonpayable",
      "type": "function"
    },
    {
      "inputs": [],
      "name": "renounceMinter",
      "outputs": [],
      "stateMutability": "nonpayable",
      "type": "function"
    },
    {
      "inputs": [
        {
          "internalType": "address",
          "name": "to",
          "type": "address"
        },
        {
          "internalType": "uint256[]",
          "name": "ids",
          "type": "uint256[]"
        },
        {
          "internalType": "uint256[]",
          "name": "values",
          "type": "uint256[]"
        },
        {
          "internalType": "bytes",
          "name": "data",
          "type": "bytes"
        }
      ],
      "name": "safeBatchMint",
      "outputs": [],
      "stateMutability": "nonpayable",
      "type": "function"
    },
    {
      "inputs": [
        {
          "internalType": "address",
          "name": "from",
          "type": "address"
        },
        {
          "internalType": "address",
          "name": "to",
          "type": "address"
        },
        {
          "internalType": "uint256[]",
          "name": "ids",
          "type": "uint256[]"
        },
        {
          "internalType": "uint256[]",
          "name": "values",
          "type": "uint256[]"
        },
        {
          "internalType": "bytes",
          "name": "data",
          "type": "bytes"
        }
      ],
      "name": "safeBatchTransferFrom",
      "outputs": [],
      "stateMutability": "nonpayable",
      "type": "function"
    },
    {
      "inputs": [
        {
          "internalType": "address[]",
          "name": "recipients",
          "type": "address[]"
        },
        {
          "internalType": "uint256[]",
          "name": "ids",
          "type": "uint256[]"
        },
        {
          "internalType": "uint256[]",
          "name": "values",
          "type": "uint256[]"
        },
        {
          "internalType": "bytes",
          "name": "data",
          "type": "bytes"
        }
      ],
      "name": "safeDeliver",
      "outputs": [],
      "stateMutability": "nonpayable",
      "type": "function"
    },
    {
      "inputs": [
        {
          "internalType": "address",
          "name": "to",
          "type": "address"
        },
        {
          "internalType": "uint256",
          "name": "id",
          "type": "uint256"
        },
        {
          "internalType": "uint256",
          "name": "value",
          "type": "uint256"
        },
        {
          "internalType": "bytes",
          "name": "data",
          "type": "bytes"
        }
      ],
      "name": "safeMint",
      "outputs": [],
      "stateMutability": "nonpayable",
      "type": "function"
    },
    {
      "inputs": [
        {
          "internalType": "address",
          "name": "to",
          "type": "address"
        },
        {
          "internalType": "uint256",
          "name": "nftId",
          "type": "uint256"
        },
        {
          "internalType": "bytes",
          "name": "data",
          "type": "bytes"
        }
      ],
      "name": "safeMint",
      "outputs": [],
      "stateMutability": "nonpayable",
      "type": "function"
    },
    {
      "inputs": [
        {
          "internalType": "address",
          "name": "from",
          "type": "address"
        },
        {
          "internalType": "address",
          "name": "to",
          "type": "address"
        },
        {
          "internalType": "uint256",
          "name": "tokenId",
          "type": "uint256"
        }
      ],
      "name": "safeTransferFrom",
      "outputs": [],
      "stateMutability": "nonpayable",
      "type": "function"
    },
    {
      "inputs": [
        {
          "internalType": "address",
          "name": "from",
          "type": "address"
        },
        {
          "internalType": "address",
          "name": "to",
          "type": "address"
        },
        {
          "internalType": "uint256",
          "name": "tokenId",
          "type": "uint256"
        },
        {
          "internalType": "bytes",
          "name": "data",
          "type": "bytes"
        }
      ],
      "name": "safeTransferFrom",
      "outputs": [],
      "stateMutability": "nonpayable",
      "type": "function"
    },
    {
      "inputs": [
        {
          "internalType": "address",
          "name": "from",
          "type": "address"
        },
        {
          "internalType": "address",
          "name": "to",
          "type": "address"
        },
        {
          "internalType": "uint256",
          "name": "id",
          "type": "uint256"
        },
        {
          "internalType": "uint256",
          "name": "value",
          "type": "uint256"
        },
        {
          "internalType": "bytes",
          "name": "data",
          "type": "bytes"
        }
      ],
      "name": "safeTransferFrom",
      "outputs": [],
      "stateMutability": "nonpayable",
      "type": "function"
    },
    {
      "inputs": [
        {
          "internalType": "address",
          "name": "operator",
          "type": "address"
        },
        {
          "internalType": "bool",
          "name": "approved",
          "type": "bool"
        }
      ],
      "name": "setApprovalForAll",
      "outputs": [],
      "stateMutability": "nonpayable",
      "type": "function"
    },
    {
      "inputs": [
        {
          "internalType": "string",
          "name": "baseMetadataURI_",
          "type": "string"
        }
      ],
      "name": "setBaseMetadataURI",
      "outputs": [],
      "stateMutability": "nonpayable",
      "type": "function"
    },
    {
      "inputs": [
        {
          "internalType": "bytes4",
          "name": "interfaceId",
          "type": "bytes4"
        }
      ],
      "name": "supportsInterface",
      "outputs": [
        {
          "internalType": "bool",
          "name": "",
          "type": "bool"
        }
      ],
      "stateMutability": "view",
      "type": "function"
    },
    {
      "inputs": [],
      "name": "symbol",
      "outputs": [
        {
          "internalType": "string",
          "name": "",
          "type": "string"
        }
      ],
      "stateMutability": "view",
      "type": "function"
    },
    {
      "inputs": [
        {
          "internalType": "uint256",
          "name": "nftId",
          "type": "uint256"
        }
      ],
      "name": "tokenURI",
      "outputs": [
        {
          "internalType": "string",
          "name": "",
          "type": "string"
        }
      ],
      "stateMutability": "view",
      "type": "function"
    },
    {
      "inputs": [
        {
          "internalType": "uint256",
          "name": "id",
          "type": "uint256"
        }
      ],
      "name": "totalSupply",
      "outputs": [
        {
          "internalType": "uint256",
          "name": "",
          "type": "uint256"
        }
      ],
      "stateMutability": "view",
      "type": "function"
    },
    {
      "inputs": [
        {
          "internalType": "address",
          "name": "from",
          "type": "address"
        },
        {
          "internalType": "address",
          "name": "to",
          "type": "address"
        },
        {
          "internalType": "uint256",
          "name": "tokenId",
          "type": "uint256"
        }
      ],
      "name": "transferFrom",
      "outputs": [],
      "stateMutability": "nonpayable",
      "type": "function"
    },
    {
      "inputs": [
        {
          "internalType": "address",
          "name": "newOwner",
          "type": "address"
        }
      ],
      "name": "transferOwnership",
      "outputs": [],
      "stateMutability": "nonpayable",
      "type": "function"
    },
    {
      "inputs": [],
      "name": "unpause",
      "outputs": [],
      "stateMutability": "nonpayable",
      "type": "function"
    },
    {
      "inputs": [
        {
          "internalType": "uint256",
          "name": "id",
          "type": "uint256"
        }
      ],
      "name": "uri",
      "outputs": [
        {
          "internalType": "string",
          "name": "",
          "type": "string"
        }
      ],
      "stateMutability": "view",
      "type": "function"
    }
  ],
  "bytecode": "0x60c06040523480156200001157600080fd5b50604051620061bd380380620061bd833981810160405260408110156200003757600080fd5b508051602091820151604080518082018252601f81527f45524331313535373231496e76656e746f72794275726e61626c654d6f636b008186015281518083018352600481526324a72b2160e11b95810195909552600080546001600160a81b031916336101008102919091178255925194959394869486949392909186918691869182917f8be0079c531659141344cd1fd0a4f28419497f9722a3daafe3b4186f6b6457e0908290a3506001600160601b0319606091821b811660a05291901b1660805281516200011190600690602085019062000192565b5080516200012790600790602084019062000192565b5050506200013b816200014660201b60201c565b50505050506200023e565b6001600160a01b0381166000818152600b6020526040808220805460ff19166001179055517f6ae172837ea30b801fbfcdd4108aa1d5bf8ff775444fd70256b44e6bf3dfc3f69190a250565b828054600181600116156101000203166002900490600052602060002090601f016020900481019282620001ca576000855562000215565b82601f10620001e557805160ff191683800117855562000215565b8280016001018555821562000215579182015b8281111562000215578251825591602001919060010190620001f8565b506200022392915062000227565b5090565b5b8082111562000223576000815560010162000228565b60805160601c60a05160601c615f376200028660003980611c1252806144a0528061583b525080611c4d528061446552806144f85280615811528061589c5250615f376000f3fe608060405234801561001057600080fd5b50600436106103145760003560e01c80637e518ec8116101a7578063bd85b039116100ee578063e8ab9ccc11610097578063f247296511610071578063f24729651461137c578063f2fde38b1461142d578063f3993d111461145357610314565b8063e8ab9ccc14611127578063e985e9c514611285578063f242432a146112b357610314565b8063c7778baa116100c8578063c7778baa146110d0578063c87b56dd146110ed578063d0011d9d1461110a57610314565b8063bd85b03914610f9d578063c3666c3614610fba578063c4c2bfdc146110c857610314565b8063983b2d5611610150578063aa271e1a1161012a578063aa271e1a14610e96578063adebf6f214610ebc578063b88d4fde14610ed957610314565b8063983b2d5614610e3a5780639865027514610e60578063a22cb46514610e6857610314565b80638832e6e3116101815780638832e6e314610da75780638da5cb5b14610e2a57806395d89b4114610e3257610314565b80637e518ec814610bfe5780638053493414610c6c5780638456cb5914610d9f57610314565b806340c10f191161026b5780635b2bd79e116102145780636352211e116101ee5780636352211e14610aad57806370a0823114610aca57806373c8a95814610af057610314565b80635b2bd79e14610a135780635c975abb14610a1b5780635cfa929714610a2357610314565b80634e1273f4116102455780634e1273f4146108c2578063510b5158146109d0578063572b6c05146109ed57610314565b806340c10f19146107e257806342842e0e1461080e5780634684d7e91461084457610314565b80630d6a5bbb116102cd57806323b872dd116102a757806323b872dd146105e35780632eb2c2d6146106195780633f4ba83a146107da57610314565b80630d6a5bbb146104765780630e89341c14610594578063124d91e5146105b157610314565b806306fdde03116102fe57806306fdde0314610392578063081812fc1461040f578063095ea7b31461044857610314565b8062fdd58e1461031957806301ffc9a714610357575b600080fd5b6103456004803603604081101561032f57600080fd5b506001600160a01b03813516906020013561150d565b60408051918252519081900360200190f35b61037e6004803603602081101561036d57600080fd5b50356001600160e01b0319166115d8565b604080519115158252519081900360200190f35b61039a61161e565b6040805160208082528351818301528351919283929083019185019080838360005b838110156103d45781810151838201526020016103bc565b50505050905090810190601f1680156104015780820380516001836020036101000a031916815260200191505b509250505060405180910390f35b61042c6004803603602081101561042557600080fd5b50356116b5565b604080516001600160a01b039092168252519081900360200190f35b6104746004803603604081101561045e57600080fd5b506001600160a01b038135169060200135611754565b005b6104746004803603608081101561048c57600080fd5b6001600160a01b038235169190810190604081016020820135600160201b8111156104b657600080fd5b8201836020820111156104c857600080fd5b803590602001918460208302840111600160201b831117156104e957600080fd5b919390929091602081019035600160201b81111561050657600080fd5b82018360208201111561051857600080fd5b803590602001918460208302840111600160201b8311171561053957600080fd5b919390929091602081019035600160201b81111561055657600080fd5b82018360208201111561056857600080fd5b803590602001918460018302840111600160201b8311171561058957600080fd5b509092509050611950565b61039a600480360360208110156105aa57600080fd5b5035611a0b565b610474600480360360608110156105c757600080fd5b506001600160a01b038135169060208101359060400135611a16565b610474600480360360608110156105f957600080fd5b506001600160a01b03813581169160208101359091169060400135611a2e565b610474600480360360a081101561062f57600080fd5b6001600160a01b038235811692602081013590911691810190606081016040820135600160201b81111561066257600080fd5b82018360208201111561067457600080fd5b803590602001918460208302840111600160201b8311171561069557600080fd5b9190808060200260200160405190810160405280939291908181526020018383602002808284376000920191909152509295949360208101935035915050600160201b8111156106e457600080fd5b8201836020820111156106f657600080fd5b803590602001918460208302840111600160201b8311171561071757600080fd5b9190808060200260200160405190810160405280939291908181526020018383602002808284376000920191909152509295949360208101935035915050600160201b81111561076657600080fd5b82018360208201111561077857600080fd5b803590602001918460018302840111600160201b8311171561079957600080fd5b91908080601f016020809104026020016040519081016040528093929190818152602001838380828437600092019190915250929550611a41945050505050565b610474611a5d565b610474600480360360408110156107f857600080fd5b506001600160a01b038135169060200135611a77565b6104746004803603606081101561082457600080fd5b506001600160a01b03813581169160208101359091169060400135611aa2565b6104746004803603604081101561085a57600080fd5b6001600160a01b038235169190810190604081016020820135600160201b81111561088457600080fd5b82018360208201111561089657600080fd5b803590602001918460208302840111600160201b831117156108b757600080fd5b509092509050611ab5565b610980600480360360408110156108d857600080fd5b810190602081018135600160201b8111156108f257600080fd5b82018360208201111561090457600080fd5b803590602001918460208302840111600160201b8311171561092557600080fd5b919390929091602081019035600160201b81111561094257600080fd5b82018360208201111561095457600080fd5b803590602001918460208302840111600160201b8311171561097557600080fd5b509092509050611afd565b60408051602080825283518183015283519192839290830191858101910280838360005b838110156109bc5781810151838201526020016109a4565b505050509050019250505060405180910390f35b61042c600480360360208110156109e657600080fd5b5035611c03565b61037e60048036036020811015610a0357600080fd5b50356001600160a01b0316611c0e565b61039a611c87565b61037e611d15565b61047460048036036080811015610a3957600080fd5b6001600160a01b038235169160208101359160408201359190810190608081016060820135600160201b811115610a6f57600080fd5b820183602082011115610a8157600080fd5b803590602001918460018302840111600160201b83111715610aa257600080fd5b509092509050611d1e565b61042c60048036036020811015610ac357600080fd5b5035611d6b565b61034560048036036020811015610ae057600080fd5b50356001600160a01b0316611d76565b61047460048036036060811015610b0657600080fd5b810190602081018135600160201b811115610b2057600080fd5b820183602082011115610b3257600080fd5b803590602001918460208302840111600160201b83111715610b5357600080fd5b919390929091602081019035600160201b811115610b7057600080fd5b820183602082011115610b8257600080fd5b803590602001918460208302840111600160201b83111715610ba357600080fd5b919390929091602081019035600160201b811115610bc057600080fd5b820183602082011115610bd257600080fd5b803590602001918460208302840111600160201b83111715610bf357600080fd5b509092509050611def565b61047460048036036020811015610c1457600080fd5b810190602081018135600160201b811115610c2e57600080fd5b820183602082011115610c4057600080fd5b803590602001918460018302840111600160201b83111715610c6157600080fd5b509092509050611edc565b61047460048036036060811015610c8257600080fd5b6001600160a01b038235169190810190604081016020820135600160201b811115610cac57600080fd5b820183602082011115610cbe57600080fd5b803590602001918460208302840111600160201b83111715610cdf57600080fd5b9190808060200260200160405190810160405280939291908181526020018383602002808284376000920191909152509295949360208101935035915050600160201b811115610d2e57600080fd5b820183602082011115610d4057600080fd5b803590602001918460208302840111600160201b83111715610d6157600080fd5b919080806020026020016040519081016040528093929190818152602001838360200280828437600092019190915250929550611f58945050505050565b610474611f6b565b61047460048036036060811015610dbd57600080fd5b6001600160a01b0382351691602081013591810190606081016040820135600160201b811115610dec57600080fd5b820183602082011115610dfe57600080fd5b803590602001918460018302840111600160201b83111715610e1f57600080fd5b509092509050611f7e565b61042c611fd3565b61039a611fe7565b61047460048036036020811015610e5057600080fd5b50356001600160a01b0316612048565b61047461205f565b61047460048036036040811015610e7e57600080fd5b506001600160a01b03813516906020013515156120bd565b61037e60048036036020811015610eac57600080fd5b50356001600160a01b03166120c7565b61037e60048036036020811015610ed257600080fd5b50356120dc565b61047460048036036080811015610eef57600080fd5b6001600160a01b03823581169260208101359091169160408201359190810190608081016060820135600160201b811115610f2957600080fd5b820183602082011115610f3b57600080fd5b803590602001918460018302840111600160201b83111715610f5c57600080fd5b91908080601f0160208091040260200160405190810160405280939291908181526020018383808284376000920191909152509295506120e7945050505050565b61034560048036036020811015610fb357600080fd5b50356120fb565b61047460048036036060811015610fd057600080fd5b810190602081018135600160201b811115610fea57600080fd5b820183602082011115610ffc57600080fd5b803590602001918460208302840111600160201b8311171561101d57600080fd5b919390929091602081019035600160201b81111561103a57600080fd5b82018360208201111561104c57600080fd5b803590602001918460208302840111600160201b8311171561106d57600080fd5b919390929091602081019035600160201b81111561108a57600080fd5b82018360208201111561109c57600080fd5b803590602001918460208302840111600160201b831117156110bd57600080fd5b509092509050612151565b61039a612299565b610345600480360360208110156110e657600080fd5b50356122a8565b61039a6004803603602081101561110357600080fd5b503561230d565b6104746004803603602081101561112057600080fd5b5035612382565b6104746004803603608081101561113d57600080fd5b810190602081018135600160201b81111561115757600080fd5b82018360208201111561116957600080fd5b803590602001918460208302840111600160201b8311171561118a57600080fd5b919390929091602081019035600160201b8111156111a757600080fd5b8201836020820111156111b957600080fd5b803590602001918460208302840111600160201b831117156111da57600080fd5b919390929091602081019035600160201b8111156111f757600080fd5b82018360208201111561120957600080fd5b803590602001918460208302840111600160201b8311171561122a57600080fd5b919390929091602081019035600160201b81111561124757600080fd5b82018360208201111561125957600080fd5b803590602001918460018302840111600160201b8311171561127a57600080fd5b509092509050612396565b61037e6004803603604081101561129b57600080fd5b506001600160a01b03813581169160200135166123b1565b610474600480360360a08110156112c957600080fd5b6001600160a01b03823581169260208101359091169160408201359160608101359181019060a081016080820135600160201b81111561130857600080fd5b82018360208201111561131a57600080fd5b803590602001918460018302840111600160201b8311171561133b57600080fd5b91908080601f0160208091040260200160405190810160405280939291908181526020018383808284376000920191909152509295506123c4945050505050565b6104746004803603604081101561139257600080fd5b6001600160a01b038235169190810190604081016020820135600160201b8111156113bc57600080fd5b8201836020820111156113ce57600080fd5b803590602001918460208302840111600160201b831117156113ef57600080fd5b9190808060200260200160405190810160405280939291908181526020018383602002808284376000920191909152509295506123d9945050505050565b6104746004803603602081101561144357600080fd5b50356001600160a01b03166123eb565b6104746004803603606081101561146957600080fd5b6001600160a01b038235811692602081013590911691810190606081016040820135600160201b81111561149c57600080fd5b8201836020820111156114ae57600080fd5b803590602001918460208302840111600160201b831117156114cf57600080fd5b919080806020026020016040519081016040528093929190818152602001838360200280828437600092019190915250929550612465945050505050565b60006001600160a01b03831661156a576040805162461bcd60e51b815260206004820152601760248201527f496e76656e746f72793a207a65726f2061646472657373000000000000000000604482015290519081900360640190fd5b61157382612478565b156115ad576000828152600460205260409020546001600160a01b038481169116146115a05760006115a3565b60015b60ff1690506115d2565b5060008181526002602090815260408083206001600160a01b03861684529091529020545b92915050565b60006001600160e01b031982167f510b5158000000000000000000000000000000000000000000000000000000001480611616575061161682612499565b90505b919050565b60068054604080516020601f60026000196101006001881615020190951694909404938401819004810282018101909252828152606093909290918301828280156116aa5780601f1061167f576101008083540402835291602001916116aa565b820191906000526020600020905b81548152906001019060200180831161168d57829003601f168201915b505050505090505b90565b6000818152600460205260408120546001600160a01b03811661171f576040805162461bcd60e51b815260206004820152601b60248201527f496e76656e746f72793a206e6f6e2d6578697374696e67204e46540000000000604482015290519081900360640190fd5b600160a01b81161561174a5750506000818152600960205260409020546001600160a01b0316611619565b6000915050611619565b600081815260046020526040902054806117b5576040805162461bcd60e51b815260206004820152601b60248201527f496e76656e746f72793a206e6f6e2d6578697374696e67204e46540000000000604482015290519081900360640190fd5b806001600160a01b038481169082161415611817576040805162461bcd60e51b815260206004820152601860248201527f496e76656e746f72793a2073656c662d617070726f76616c0000000000000000604482015290519081900360640190fd5b611828816118236124d7565b6124e1565b611879576040805162461bcd60e51b815260206004820152601e60248201527f496e76656e746f72793a206e6f6e2d617070726f7665642073656e6465720000604482015290519081900360640190fd5b6001600160a01b0384166118b357600160a01b8216156118ae5760008381526004602052604090206001600160a01b03821690555b611909565b600160a01b82178083146118d35760008481526004602052604090208190555b506000838152600960205260409020805473ffffffffffffffffffffffffffffffffffffffff19166001600160a01b0386161790555b82846001600160a01b0316826001600160a01b03167f8c5be1e5ebec7d5bd14f71427d1e84f3dd0314c0f7b2291e5b200ac8c7c3b92560405160405180910390a450505050565b61196061195b6124d7565b61252d565b611a028787878080602002602001604051908101604052809392919081815260200183836020028082843760009201919091525050604080516020808b0282810182019093528a82529093508a92508991829185019084908082843760009201919091525050604080516020601f8a01819004810282018101909252888152925088915087908190840183828082843760009201919091525061259a92505050565b50505050505050565b60606116168261293a565b611a1e612a0d565b611a29838383612a65565b505050565b611a36612a0d565b611a29838383612b46565b611a49612a0d565b611a568585858585612b63565b5050505050565b611a6d611a686124d7565b612b70565b611a75612c34565b565b611a8261195b6124d7565b611a9e8282604051806020016040528060008152506000612c8c565b5050565b611aaa612a0d565b611a29838383612e1e565b611ac061195b6124d7565b611a2983838380806020026020016040519081016040528093929190818152602001838360200280828437600092019190915250612e3b92505050565b6060838214611b53576040805162461bcd60e51b815260206004820152601e60248201527f496e76656e746f72793a20696e636f6e73697374656e74206172726179730000604482015290519081900360640190fd5b60008467ffffffffffffffff81118015611b6c57600080fd5b50604051908082528060200260200182016040528015611b96578160200160208202803683370190505b50905060005b808614611bf957611bda878783818110611bb257fe5b905060200201356001600160a01b0316868684818110611bce57fe5b9050602002013561150d565b828281518110611be657fe5b6020908102919091010152600101611b9c565b5095945050505050565b600061161682613188565b60007f00000000000000000000000000000000000000000000000000000000000000006001600160a01b0316826001600160a01b0316148061161657507f00000000000000000000000000000000000000000000000000000000000000006001600160a01b0316826001600160a01b0316149050919050565b600a805460408051602060026001851615610100026000190190941693909304601f81018490048402820184019092528181529291830182828015611d0d5780601f10611ce257610100808354040283529160200191611d0d565b820191906000526020600020905b815481529060010190602001808311611cf057829003601f168201915b505050505081565b60005460ff1681565b611d2961195b6124d7565b611a5685858585858080601f01602080910402602001604051908101604052809392919081815260200183838082843760009201919091525061320192505050565b60006116168261333a565b60006001600160a01b038216611dd3576040805162461bcd60e51b815260206004820152601760248201527f496e76656e746f72793a207a65726f2061646472657373000000000000000000604482015290519081900360640190fd5b506001600160a01b031660009081526008602052604090205490565b611dfa611a686124d7565b848381148015611e0957508082145b611e5a576040805162461bcd60e51b815260206004820152601a60248201527f5265636f763a20696e636f6e73697374656e7420617272617973000000000000604482015290519081900360640190fd5b60005b818114611ed257611eca888883818110611e7357fe5b905060200201356001600160a01b0316858584818110611e8f57fe5b90506020020135888885818110611ea257fe5b905060200201356001600160a01b03166001600160a01b03166133a49092919063ffffffff16565b600101611e5d565b5050505050505050565b611ee7611a686124d7565b611ef3600a8383615e18565b507f04b1dc5c136a3ce9fded8db0ce3d3366c58764ec3a8e4c2b9e52e4ddfe5ebbf7828260405180806020018281038252848482818152602001925080828437600083820152604051601f909101601f19169092018290039550909350505050a15050565b611f60612a0d565b611a2983838361340f565b611f76611a686124d7565b611a7561369a565b611f8961195b6124d7565b611fcd848484848080601f01602080910402602001604051908101604052809392919081815260200183838082843760009201919091525060019250612c8c915050565b50505050565b60005461010090046001600160a01b031690565b60078054604080516020601f60026000196101006001881615020190951694909404938401819004810282018101909252828152606093909290918301828280156116aa5780601f1061167f576101008083540402835291602001916116aa565b612053611a686124d7565b61205c816136d8565b50565b60006120696124d7565b90506120748161252d565b6001600160a01b0381166000818152600b6020526040808220805460ff19169055517fe94479a9f7e1952cc78f2d6baab678adc1b772d936c6583def489e524cb666929190a250565b611a9e8282613724565b600b6020526000908152604090205460ff1681565b600061161682613805565b6120ef612a0d565b611fcd8484848461380f565b600061210682612478565b1561213c576000828152600460205260409020546001600160a01b03161561212f576001612132565b60005b60ff169050611619565b50600081815260036020526040902054611619565b61215c611a686124d7565b84838114801561216b57508082145b6121bc576040805162461bcd60e51b815260206004820152601a60248201527f5265636f763a20696e636f6e73697374656e7420617272617973000000000000604482015290519081900360640190fd5b60005b818114611ed2578585828181106121d257fe5b905060200201356001600160a01b03166001600160a01b03166323b872dd308a8a858181106121fd57fe5b905060200201356001600160a01b031687878681811061221957fe5b905060200201356040518463ffffffff1660e01b815260040180846001600160a01b03168152602001836001600160a01b031681526020018281526020019350505050600060405180830381600087803b15801561227657600080fd5b505af115801561228a573d6000803e3d6000fd5b505050508060010190506121bf565b60606122a361381d565b905090565b60006122b382612478565b612304576040805162461bcd60e51b815260206004820152601560248201527f496e76656e746f72793a206e6f7420616e204e46540000000000000000000000604482015290519081900360640190fd5b61161682613861565b6000818152600460205260409020546060906001600160a01b0316612379576040805162461bcd60e51b815260206004820152601b60248201527f496e76656e746f72793a206e6f6e2d6578697374696e67204e46540000000000604482015290519081900360640190fd5b61161682611a0b565b61238d611a686124d7565b61205c8161386e565b6123a161195b6124d7565b611ed288888888888888886139af565b60006123bd8383613cfc565b9392505050565b6123cc612a0d565b611a568585858585613d2a565b6123e1612a0d565b611a9e8282613e8d565b6123f6611a686124d7565b600080547fffffffffffffffffffffff0000000000000000000000000000000000000000ff166101006001600160a01b0384811682810293909317808555604051939492900416917f8be0079c531659141344cd1fd0a4f28419497f9722a3daafe3b4186f6b6457e09190a350565b61246d612a0d565b611a298383836140d9565b6000600160ff1b8216158015906116165750506001600160e01b0316151590565b60006001600160e01b031982167f6059f1b40000000000000000000000000000000000000000000000000000000014806116165750611616826143af565b60006122a3614455565b6000816001600160a01b0316836001600160a01b031614806123bd5750506001600160a01b03918216600090815260016020908152604080832093909416825291909152205460ff1690565b6001600160a01b0381166000908152600b602052604090205460ff1661205c576040805162461bcd60e51b815260206004820152601860248201527f4d696e746572526f6c653a206e6f742061204d696e7465720000000000000000604482015290519081900360640190fd5b6001600160a01b0384166125f5576040805162461bcd60e51b815260206004820152601760248201527f496e76656e746f72793a206d696e7420746f207a65726f000000000000000000604482015290519081900360640190fd5b82518251811461264c576040805162461bcd60e51b815260206004820152601e60248201527f496e76656e746f72793a20696e636f6e73697374656e74206172726179730000604482015290519081900360640190fd5b6000806000805b8481146127e857600088828151811061266857fe5b60200260200101519050600088838151811061268057fe5b6020026020010151905061269382613805565b156126a8576126a38b83836145b5565b6127de565b6126b182612478565b15612791576126c38b838360016146a7565b60405182906001600160a01b038d1690600090600080516020615ee2833981519152908290a460006126f483613861565b905086612707578096506001955061278b565b86811461278457856002600089815260200190815260200160002060008e6001600160a01b03166001600160a01b031681526020019081526020016000206000828254019250508190555085600360008981526020019081526020016000206000828254019250508190555080965085850194506001955061278b565b8560010195505b506127de565b6040805162461bcd60e51b815260206004820152601960248201527f496e76656e746f72793a206e6f74206120746f6b656e20696400000000000000604482015290519081900360640190fd5b5050600101612653565b50821561283d5760008381526002602090815260408083206001600160a01b038c1680855290835281842080548701905586845260038352818420805487019055835260089091529020805491830191820190555b6001600160a01b03881660006128516124d7565b6001600160a01b03167f4a39dc06d4c0dbc64b70af90fd698a233a518aa5d07e595d983b8c0526c8f7fb8a8a604051808060200180602001838103835285818151815260200191508051906020019060200280838360005b838110156128c15781810151838201526020016128a9565b50505050905001838103825284818151815260200191508051906020019060200280838360005b838110156129005781810151838201526020016128e8565b5050505090500194505050505060405180910390a4612927886001600160a01b03166147d6565b15611ed257611ed26000898989896147dc565b6060600a612947836149e2565b60405160200180838054600181600116156101000203166002900480156129a55780601f106129835761010080835404028352918201916129a5565b820191906000526020600020905b815481529060010190602001808311612991575b5050825160208401908083835b602083106129d15780518252601f1990920191602091820191016129b2565b6001836020036101000a038019825116818451168082178552505050505050905001925050506040516020818303038152906040529050919050565b60005460ff1615611a75576040805162461bcd60e51b815260206004820152601060248201527f5061757361626c653a2070617573656400000000000000000000000000000000604482015290519081900360640190fd5b6000612a6f6124d7565b90506000612a7d85836124e1565b9050612a8884613805565b15612a9e57612a9985858584614af1565b612ae1565b612aa784612478565b1561279157612aba858585846000614c4d565b60405184906000906001600160a01b03881690600080516020615ee2833981519152908390a45b60006001600160a01b0316856001600160a01b0316836001600160a01b03167fc3d58168c5ae7397731d063d5bbf3d657854427343f4c083240f7aacaa2d0f628787604051808381526020018281526020019250505060405180910390a45050505050565b611a29838383604051806020016040528060008152506000614e14565b611a568585858585614f70565b306001600160a01b0316638da5cb5b6040518163ffffffff1660e01b815260040160206040518083038186803b158015612ba957600080fd5b505afa158015612bbd573d6000803e3d6000fd5b505050506040513d6020811015612bd357600080fd5b50516001600160a01b0382811691161461205c576040805162461bcd60e51b815260206004820152601660248201527f4f776e61626c653a206e6f7420746865206f776e657200000000000000000000604482015290519081900360640190fd5b612c3c61526b565b6000805460ff191690557f5db9ee0a495bf2e6ff9c91a7834c1ba4fdd244a5e8aa4e537bd38aeae4b073aa612c6f6124d7565b604080516001600160a01b039092168252519081900360200190a1565b6001600160a01b038416612ce7576040805162461bcd60e51b815260206004820152601760248201527f496e76656e746f72793a206d696e7420746f207a65726f000000000000000000604482015290519081900360640190fd5b612cf083612478565b612d41576040805162461bcd60e51b815260206004820152601560248201527f496e76656e746f72793a206e6f7420616e204e46540000000000000000000000604482015290519081900360640190fd5b612d4f8484600160006146a7565b60405183906001600160a01b03861690600090600080516020615ee2833981519152908290a46001600160a01b0384166000612d896124d7565b6001600160a01b03167fc3d58168c5ae7397731d063d5bbf3d657854427343f4c083240f7aacaa2d0f62866001604051808381526020018281526020019250505060405180910390a4612de4846001600160a01b03166147d6565b15611fcd57612df2846152c2565b15612e0b57612e066000858560018661535c565b611fcd565b8015611fcd57611fcd600085858561545e565b611a29838383604051806020016040528060008152506001614e14565b6001600160a01b038216612e96576040805162461bcd60e51b815260206004820152601760248201527f496e76656e746f72793a206d696e7420746f207a65726f000000000000000000604482015290519081900360640190fd5b805160008167ffffffffffffffff81118015612eb157600080fd5b50604051908082528060200260200182016040528015612edb578160200160208202803683370190505b50905060008060005b848114613024576000868281518110612ef957fe5b60200260200101519050612f0c81612478565b612f5d576040805162461bcd60e51b815260206004820152601560248201527f496e76656e746f72793a206e6f7420616e204e46540000000000000000000000604482015290519081900360640190fd5b6001858381518110612f6b57fe5b602002602001018181525050612f8488826001806146a7565b60405181906001600160a01b038a1690600090600080516020615ee2833981519152908290a46000612fb582613861565b905084612fc8578094506001935061301a565b8481146130135760008581526002602090815260408083206001600160a01b038d1684528252808320805488019055968252600390529490942080549093019092556001918361301a565b8360010193505b5050600101612ee4565b5060008281526002602090815260408083206001600160a01b038a168085529083528184208054860190558584526003835281842080548601905580845260089092528220805487019055906130786124d7565b6001600160a01b03167f4a39dc06d4c0dbc64b70af90fd698a233a518aa5d07e595d983b8c0526c8f7fb8887604051808060200180602001838103835285818151815260200191508051906020019060200280838360005b838110156130e85781810151838201526020016130d0565b50505050905001838103825284818151815260200191508051906020019060200280838360005b8381101561312757818101518382015260200161310f565b5050505090500194505050505060405180910390a461314e866001600160a01b03166147d6565b801561315e575061315e866152c2565b15613180576131806000878786604051806020016040528060008152506147dc565b505050505050565b600061319382612478565b156131e5576040805162461bcd60e51b815260206004820152601b60248201527f496e76656e746f72793a206e6f74206120636f6c6c656374696f6e0000000000604482015290519081900360640190fd5b506000908152600560205260409020546001600160a01b031690565b6001600160a01b03841661325c576040805162461bcd60e51b815260206004820152601760248201527f496e76656e746f72793a206d696e7420746f207a65726f000000000000000000604482015290519081900360640190fd5b60006132666124d7565b905061327184613805565b15613286576132818585856145b5565b6132c8565b61328f84612478565b15612791576132a185858560006146a7565b60405184906001600160a01b03871690600090600080516020615ee2833981519152908290a45b604080518581526020810185905281516001600160a01b0380891693600093918616927fc3d58168c5ae7397731d063d5bbf3d657854427343f4c083240f7aacaa2d0f629281900390910190a4613327856001600160a01b03166147d6565b15611a5657611a5660008686868661535c565b6000818152600460205260408120546001600160a01b038116611616576040805162461bcd60e51b815260206004820152601b60248201527f496e76656e746f72793a206e6f6e2d6578697374696e67204e46540000000000604482015290519081900360640190fd5b604080516001600160a01b038416602482015260448082018490528251808303909101815260649091019091526020810180516001600160e01b03167fa9059cbb00000000000000000000000000000000000000000000000000000000179052611a299084906155e0565b815181518114613466576040805162461bcd60e51b815260206004820152601e60248201527f496e76656e746f72793a20696e636f6e73697374656e74206172726179730000604482015290519081900360640190fd5b60006134706124d7565b9050600061347e86836124e1565b90506000806000805b86811461357f57600089828151811061349c57fe5b602002602001015190506134af81613805565b156134d8576134d38b828b85815181106134c557fe5b602002602001015189614af1565b613576565b6134e181612478565b15612791576135078b828b85815181106134f757fe5b6020026020010151896001614c4d565b60405181906000906001600160a01b038e1690600080516020615ee2833981519152908390a4600061353882613861565b90508561354b5780955060019450613574565b85811461356d5761355d8c87876157c3565b9450600193929092019184613574565b8460010194505b505b50600101613487565b5082156135b5576135918984846157c3565b6001600160a01b038916600090815260086020526040902080549183019182900390555b60006001600160a01b0316896001600160a01b0316866001600160a01b03167f4a39dc06d4c0dbc64b70af90fd698a233a518aa5d07e595d983b8c0526c8f7fb8b8b604051808060200180602001838103835285818151815260200191508051906020019060200280838360005b8381101561363b578181015183820152602001613623565b50505050905001838103825284818151815260200191508051906020019060200280838360005b8381101561367a578181015183820152602001613662565b5050505090500194505050505060405180910390a4505050505050505050565b6136a2612a0d565b6000805460ff191660011790557f62e78cea01bee320cd4e420270b5ea74000d11b0c9f74754ebdbfc544b05a258612c6f6124d7565b6001600160a01b0381166000818152600b6020526040808220805460ff19166001179055517f6ae172837ea30b801fbfcdd4108aa1d5bf8ff775444fd70256b44e6bf3dfc3f69190a250565b600061372e6124d7565b9050806001600160a01b0316836001600160a01b03161415613797576040805162461bcd60e51b815260206004820152601860248201527f496e76656e746f72793a2073656c662d617070726f76616c0000000000000000604482015290519081900360640190fd5b6001600160a01b03818116600081815260016020908152604080832094881680845294825291829020805460ff1916871515908117909155825190815291517f17307eab39ab6107e8899845ad3d59bd9653f200f220920489ca2b5937696c319281900390910190a3505050565b600160ff1b161590565b611fcd848484846001614e14565b6060613827615803565b8080601f01602080910402602001604051908101604052809392919081815260200183838082843760009201919091525092935050505090565b6001600160e01b03191690565b61387781612478565b156138c9576040805162461bcd60e51b815260206004820152601b60248201527f496e76656e746f72793a206e6f74206120636f6c6c656374696f6e0000000000604482015290519081900360640190fd5b6000818152600560205260409020546001600160a01b031615613933576040805162461bcd60e51b815260206004820152601e60248201527f496e76656e746f72793a206578697374696e6720636f6c6c656374696f6e0000604482015290519081900360640190fd5b61393b6124d7565b6000828152600560205260409020805473ffffffffffffffffffffffffffffffffffffffff19166001600160a01b039290921691909117905561397d81613805565b1515817f4ebf8ad0df535ba5e487bc9cb27fe44120ca81c3a95d3eba79c0bd1df2ab2d5d60405160405180910390a350565b8685811480156139be57508084145b613a0f576040805162461bcd60e51b815260206004820152601e60248201527f496e76656e746f72793a20696e636f6e73697374656e74206172726179730000604482015290519081900360640190fd5b6000613a196124d7565b905060005b828114613cef5760008b8b83818110613a3357fe5b905060200201356001600160a01b0316905060006001600160a01b0316816001600160a01b03161415613aad576040805162461bcd60e51b815260206004820152601760248201527f496e76656e746f72793a206d696e7420746f207a65726f000000000000000000604482015290519081900360640190fd5b60008a8a84818110613abb57fe5b9050602002013590506000898985818110613ad257fe5b905060200201359050613ae482613805565b15613ba157613af48383836145b5565b604080518381526020810183905281516001600160a01b0380871693600093918a16927fc3d58168c5ae7397731d063d5bbf3d657854427343f4c083240f7aacaa2d0f629281900390910190a4613b53836001600160a01b03166147d6565b15613b9c57613b9c60008484848c8c8080601f01602080910402602001604051908101604052809392919081815260200183838082843760009201919091525061535c92505050565b613ce1565b613baa82612478565b1561279157613bbc83838360006146a7565b60405182906001600160a01b03851690600090600080516020615ee2833981519152908290a4604080518381526001602082015281516001600160a01b0380871693600093918a16927fc3d58168c5ae7397731d063d5bbf3d657854427343f4c083240f7aacaa2d0f629281900390910190a4613c41836001600160a01b03166147d6565b15613b9c57613c4f836152c2565b15613c9e57613c996000848460018c8c8080601f01602080910402602001604051908101604052809392919081815260200183838082843760009201919091525061535c92505050565b613b9c565b613b9c600084848b8b8080601f01602080910402602001604051908101604052809392919081815260200183838082843760009201919091525061545e92505050565b505050806001019050613a1e565b5050505050505050505050565b6001600160a01b03918216600090815260016020908152604080832093909416825291909152205460ff1690565b6000613d346124d7565b90506001600160a01b038516613d91576040805162461bcd60e51b815260206004820152601b60248201527f496e76656e746f72793a207472616e7366657220746f207a65726f0000000000604482015290519081900360640190fd5b6000613d9d87836124e1565b9050613da885613805565b15613dbf57613dba8787878785615966565b613e0c565b613dc885612478565b1561279157613ddc87878787856000615ad9565b84866001600160a01b0316886001600160a01b0316600080516020615ee283398151915260405160405180910390a45b856001600160a01b0316876001600160a01b0316836001600160a01b03167fc3d58168c5ae7397731d063d5bbf3d657854427343f4c083240f7aacaa2d0f628888604051808381526020018281526020019250505060405180910390a4613e7b866001600160a01b03166147d6565b15611a0257611a02878787878761535c565b6000613e976124d7565b90506000613ea584836124e1565b835190915060008167ffffffffffffffff81118015613ec357600080fd5b50604051908082528060200260200182016040528015613eed578160200160208202803683370190505b50905060008060005b848114613fc3576000888281518110613f0b57fe5b602002602001015190506001858381518110613f2357fe5b602002602001018181525050613f508a82878581518110613f4057fe5b60200260200101518a6001614c4d565b60405181906000906001600160a01b038d1690600080516020615ee2833981519152908390a46000613f8182613861565b905084613f945780945060019350613fb9565b848114613fb257613fa68b86866157c3565b80945060019350613fb9565b8360010193505b5050600101613ef6565b508115613ff557613fd58883836157c3565b6001600160a01b0388166000908152600860205260409020805485900390555b60006001600160a01b0316886001600160a01b0316876001600160a01b03167f4a39dc06d4c0dbc64b70af90fd698a233a518aa5d07e595d983b8c0526c8f7fb8a87604051808060200180602001838103835285818151815260200191508051906020019060200280838360005b8381101561407b578181015183820152602001614063565b50505050905001838103825284818151815260200191508051906020019060200280838360005b838110156140ba5781810151838201526020016140a2565b5050505090500194505050505060405180910390a45050505050505050565b6001600160a01b038216614134576040805162461bcd60e51b815260206004820152601b60248201527f496e76656e746f72793a207472616e7366657220746f207a65726f0000000000604482015290519081900360640190fd5b600061413e6124d7565b9050600061414c85836124e1565b835190915060008167ffffffffffffffff8111801561416a57600080fd5b50604051908082528060200260200182016040528015614194578160200160208202803683370190505b50905060008060005b8481146142635760008882815181106141b257fe5b6020026020010151905060018583815181106141ca57fe5b6020026020010181815250506141e68b8b8360018b6001615ad9565b808a6001600160a01b03168c6001600160a01b0316600080516020615ee283398151915260405160405180910390a4600061422082613861565b9050846142335780945060019350614259565b848114614252576142468c8c8787615c6a565b80945060019350614259565b8360010193505b505060010161419d565b5081156142815761427689898484615c6a565b614281898986615cbe565b876001600160a01b0316896001600160a01b031661429d6124d7565b6001600160a01b03167f4a39dc06d4c0dbc64b70af90fd698a233a518aa5d07e595d983b8c0526c8f7fb8a87604051808060200180602001838103835285818151815260200191508051906020019060200280838360005b8381101561430d5781810151838201526020016142f5565b50505050905001838103825284818151815260200191508051906020019060200280838360005b8381101561434c578181015183820152602001614334565b5050505090500194505050505060405180910390a4614373886001600160a01b03166147d6565b80156143835750614383886152c2565b156143a4576143a489898986604051806020016040528060008152506147dc565b505050505050505050565b60006001600160e01b031982167f80ac58cd00000000000000000000000000000000000000000000000000000000148061441257506001600160e01b031982167f5b5e139f00000000000000000000000000000000000000000000000000000000145b8061444657506001600160e01b031982167ff3993d1100000000000000000000000000000000000000000000000000000000145b80611616575061161682615d09565b60003381614461615df1565b90507f00000000000000000000000000000000000000000000000000000000000000006001600160a01b0316826001600160a01b031614806144d457507f00000000000000000000000000000000000000000000000000000000000000006001600160a01b0316826001600160a01b0316145b156144e25791506116b29050565b6001600160a01b03821632148015906145a157507f00000000000000000000000000000000000000000000000000000000000000006001600160a01b031663e60125d682846040518363ffffffff1660e01b815260040180836001600160a01b03168152602001826001600160a01b031681526020019250505060206040518083038186803b15801561457457600080fd5b505afa158015614588573d6000803e3d6000fd5b505050506040513d602081101561459e57600080fd5b50515b156145af5791506116b29050565b50905090565b80614607576040805162461bcd60e51b815260206004820152601560248201527f496e76656e746f72793a207a65726f2076616c75650000000000000000000000604482015290519081900360640190fd5b60008281526003602052604090205481810181811161466d576040805162461bcd60e51b815260206004820152601a60248201527f496e76656e746f72793a20737570706c79206f766572666c6f77000000000000604482015290519081900360640190fd5b600093845260036020908152604080862092909255600281528185206001600160a01b039096168552949094525091902080549091019055565b816001146146fc576040805162461bcd60e51b815260206004820152601a60248201527f496e76656e746f72793a2077726f6e67204e46542076616c7565000000000000604482015290519081900360640190fd5b6000838152600460205260409020541561475d576040805162461bcd60e51b815260206004820152601d60248201527f496e76656e746f72793a206578697374696e672f6275726e74204e4654000000604482015290519081900360640190fd5b60008381526004602052604090206001600160a01b038516905580611fcd57600061478784613861565b600090815260036020908152604080832080546001908101909155600283528184206001600160a01b038a16855283528184208054820190556008909252909120805490910190555050505050565b3b151590565b7fbc197c81000000000000000000000000000000000000000000000000000000006001600160a01b03851663bc197c816148146124d7565b888787876040518663ffffffff1660e01b815260040180866001600160a01b03168152602001856001600160a01b03168152602001806020018060200180602001848103845287818151815260200191508051906020019060200280838360005b8381101561488d578181015183820152602001614875565b50505050905001848103835286818151815260200191508051906020019060200280838360005b838110156148cc5781810151838201526020016148b4565b50505050905001848103825285818151815260200191508051906020019080838360005b838110156149085781810151838201526020016148f0565b50505050905090810190601f1680156149355780820380516001836020036101000a031916815260200191505b5098505050505050505050602060405180830381600087803b15801561495a57600080fd5b505af115801561496e573d6000803e3d6000fd5b505050506040513d602081101561498457600080fd5b50516001600160e01b03191614611a56576040805162461bcd60e51b815260206004820152601b60248201527f496e76656e746f72793a207472616e7366657220726566757365640000000000604482015290519081900360640190fd5b606081614a23575060408051808201909152600181527f30000000000000000000000000000000000000000000000000000000000000006020820152611619565b8160005b8115614a3b57600101600a82049150614a27565b60008167ffffffffffffffff81118015614a5457600080fd5b506040519080825280601f01601f191660200182016040528015614a7f576020820181803683370190505b50859350905060001982015b8315614ae857600a840660300160f81b82828060019003935081518110614aae57fe5b60200101907effffffffffffffffffffffffffffffffffffffffffffffffffffffffffffff1916908160001a905350600a84049350614a8b565b50949350505050565b81614b43576040805162461bcd60e51b815260206004820152601560248201527f496e76656e746f72793a207a65726f2076616c75650000000000000000000000604482015290519081900360640190fd5b80614b95576040805162461bcd60e51b815260206004820152601e60248201527f496e76656e746f72793a206e6f6e2d617070726f7665642073656e6465720000604482015290519081900360640190fd5b60008381526002602090815260408083206001600160a01b038816845290915290205482811015614c0d576040805162461bcd60e51b815260206004820152601d60248201527f496e76656e746f72793a206e6f7420656e6f7567682062616c616e6365000000604482015290519081900360640190fd5b60008481526002602090815260408083206001600160a01b0390981683529681528682209285900390925593845260039052509190208054919091039055565b82600114614ca2576040805162461bcd60e51b815260206004820152601a60248201527f496e76656e746f72793a2077726f6e67204e46542076616c7565000000000000604482015290519081900360640190fd5b6000848152600460205260409020546001600160a01b0386811690821614614d11576040805162461bcd60e51b815260206004820152601860248201527f496e76656e746f72793a206e6f6e2d6f776e6564204e46540000000000000000604482015290519081900360640190fd5b82614da257600160a01b811615801590614d5157506000858152600960205260409020546001600160a01b0316614d466124d7565b6001600160a01b0316145b614da2576040805162461bcd60e51b815260206004820152601e60248201527f496e76656e746f72793a206e6f6e2d617070726f7665642073656e6465720000604482015290519081900360640190fd5b60008581526004602052604090207fdead00000000000000000000000000000000000000000000000000000000000090558161318057614dec86614de587613861565b60016157c3565b6001600160a01b03861660009081526008602052604090208054600019019055505050505050565b6001600160a01b038416614e6f576040805162461bcd60e51b815260206004820152601b60248201527f496e76656e746f72793a207472616e7366657220746f207a65726f0000000000604482015290519081900360640190fd5b6000614e796124d7565b90506000614e8787836124e1565b9050614e998787876001856000615ad9565b84866001600160a01b0316886001600160a01b0316600080516020615ee283398151915260405160405180910390a4856001600160a01b0316876001600160a01b0316836001600160a01b03167fc3d58168c5ae7397731d063d5bbf3d657854427343f4c083240f7aacaa2d0f62886001604051808381526020018281526020019250505060405180910390a4614f38866001600160a01b03166147d6565b15611a0257614f46866152c2565b15614f5e57614f5987878760018861535c565b611a02565b8215611a0257611a028787878761545e565b6001600160a01b038416614fcb576040805162461bcd60e51b815260206004820152601b60248201527f496e76656e746f72793a207472616e7366657220746f207a65726f0000000000604482015290519081900360640190fd5b825182518114615022576040805162461bcd60e51b815260206004820152601e60248201527f496e76656e746f72793a20696e636f6e73697374656e74206172726179730000604482015290519081900360640190fd5b600061502c6124d7565b9050600061503a88836124e1565b90506000806000805b8681146151475760008a828151811061505857fe5b6020026020010151905061506b81613805565b15615095576150908d8d838d868151811061508257fe5b60200260200101518a615966565b61513e565b61509e81612478565b15612791576150c58d8d838d86815181106150b557fe5b60200260200101518a6001615ad9565b808c6001600160a01b03168e6001600160a01b0316600080516020615ee283398151915260405160405180910390a460006150ff82613861565b905085615112578095506001945061513c565b858114615135576151258e8e8888615c6a565b945060019392909201918461513c565b8460010194505b505b50600101615043565b5082156151675761515a8b8b8585615c6a565b81016151678b8b83615cbe565b896001600160a01b03168b6001600160a01b03166151836124d7565b6001600160a01b03167f4a39dc06d4c0dbc64b70af90fd698a233a518aa5d07e595d983b8c0526c8f7fb8c8c604051808060200180602001838103835285818151815260200191508051906020019060200280838360005b838110156151f35781810151838201526020016151db565b50505050905001838103825284818151815260200191508051906020019060200280838360005b8381101561523257818101518382015260200161521a565b5050505090500194505050505060405180910390a46152598a6001600160a01b03166147d6565b15613cef57613cef8b8b8b8b8b6147dc565b60005460ff16611a75576040805162461bcd60e51b815260206004820152601460248201527f5061757361626c653a206e6f7420706175736564000000000000000000000000604482015290519081900360640190fd5b604080517f4e2312e0000000000000000000000000000000000000000000000000000000006024808301919091528251808303909101815260449091018252602081810180516001600160e01b03166301ffc9a760e01b1781528251935160008082529485948594909392908183858b612710fa955080519450505050609e5a1161534957fe5b8280156153535750815b95945050505050565b7ff23a6e61000000000000000000000000000000000000000000000000000000006001600160a01b03851663f23a6e616153946124d7565b888787876040518663ffffffff1660e01b815260040180866001600160a01b03168152602001856001600160a01b0316815260200184815260200183815260200180602001828103825283818151815260200191508051906020019080838360005b8381101561540e5781810151838201526020016153f6565b50505050905090810190601f16801561543b5780820380516001836020036101000a031916815260200191505b509650505050505050602060405180830381600087803b15801561495a57600080fd5b7f150b7a02000000000000000000000000000000000000000000000000000000006001600160a01b03841663150b7a026154966124d7565b8786866040518563ffffffff1660e01b815260040180856001600160a01b03168152602001846001600160a01b0316815260200183815260200180602001828103825283818151815260200191508051906020019080838360005b838110156155095781810151838201526020016154f1565b50505050905090810190601f1680156155365780820380516001836020036101000a031916815260200191505b5095505050505050602060405180830381600087803b15801561555857600080fd5b505af115801561556c573d6000803e3d6000fd5b505050506040513d602081101561558257600080fd5b50516001600160e01b03191614611fcd576040805162461bcd60e51b815260206004820152601b60248201527f496e76656e746f72793a207472616e7366657220726566757365640000000000604482015290519081900360640190fd5b816155f36001600160a01b0382166147d6565b615644576040805162461bcd60e51b815260206004820152601a60248201527f4552433230577261707065723a206e6f6e2d636f6e7472616374000000000000604482015290519081900360640190fd5b600080826001600160a01b0316846040518082805190602001908083835b602083106156815780518252601f199092019160209182019101615662565b6001836020036101000a0380198251168184511680821785525050505050509050019150506000604051808303816000865af19150503d80600081146156e3576040519150601f19603f3d011682016040523d82523d6000602084013e6156e8565b606091505b50915091508115615767578051156157625780806020019051602081101561570f57600080fd5b5051615762576040805162461bcd60e51b815260206004820152601e60248201527f4552433230577261707065723a206f7065726174696f6e206661696c65640000604482015290519081900360640190fd5b611a56565b80516157ba576040805162461bcd60e51b815260206004820152601e60248201527f4552433230577261707065723a206f7065726174696f6e206661696c65640000604482015290519081900360640190fd5b80518082602001fd5b60008281526002602090815260408083206001600160a01b0390961683529481528482208054849003905592815260039092529190208054919091039055565b366000336001600160a01b037f00000000000000000000000000000000000000000000000000000000000000001681148061586f57507f00000000000000000000000000000000000000000000000000000000000000006001600160a01b0316816001600160a01b0316145b156158865761587c615dfd565b9250925050615962565b6001600160a01b038116321480159061594c57507f00000000000000000000000000000000000000000000000000000000000000006001600160a01b031663e60125d66158d1615df1565b836040518363ffffffff1660e01b815260040180836001600160a01b03168152602001826001600160a01b031681526020019250505060206040518083038186803b15801561591f57600080fd5b505afa158015615933573d6000803e3d6000fd5b505050506040513d602081101561594957600080fd5b50515b156159595761587c615dfd565b60003692509250505b9091565b806159b8576040805162461bcd60e51b815260206004820152601e60248201527f496e76656e746f72793a206e6f6e2d617070726f7665642073656e6465720000604482015290519081900360640190fd5b81615a0a576040805162461bcd60e51b815260206004820152601560248201527f496e76656e746f72793a207a65726f2076616c75650000000000000000000000604482015290519081900360640190fd5b60008381526002602090815260408083206001600160a01b038916845290915290205482811015615a82576040805162461bcd60e51b815260206004820152601d60248201527f496e76656e746f72793a206e6f7420656e6f7567682062616c616e6365000000604482015290519081900360640190fd5b846001600160a01b0316866001600160a01b0316146131805760009384526002602090815260408086206001600160a01b039889168752909152808520918490039091559390941682529190208054909101905550565b82600114615b2e576040805162461bcd60e51b815260206004820152601a60248201527f496e76656e746f72793a2077726f6e67204e46542076616c7565000000000000604482015290519081900360640190fd5b6000848152600460205260409020546001600160a01b0387811690821614615b9d576040805162461bcd60e51b815260206004820152601860248201527f496e76656e746f72793a206e6f6e2d6f776e6564204e46540000000000000000604482015290519081900360640190fd5b82615c2e57600160a01b811615801590615bdd57506000858152600960205260409020546001600160a01b0316615bd26124d7565b6001600160a01b0316145b615c2e576040805162461bcd60e51b815260206004820152601e60248201527f496e76656e746f72793a206e6f6e2d617070726f7665642073656e6465720000604482015290519081900360640190fd5b60008581526004602052604090206001600160a01b038716905581611a0257615c5987876001615cbe565b611a028787615c6788613861565b60015b826001600160a01b0316846001600160a01b031614611fcd5760009182526002602090815260408084206001600160a01b039687168552909152808320805483900390559290931681522080549091019055565b816001600160a01b0316836001600160a01b031614611a29576001600160a01b0380841660009081526008602052604080822080548590039055918416815220805482019055505050565b60006001600160e01b031982166301ffc9a760e01b1480615d5357506001600160e01b031982167fd9b67a2600000000000000000000000000000000000000000000000000000000145b80615d8757506001600160e01b031982167f0e89341c00000000000000000000000000000000000000000000000000000000145b80615dbb57506001600160e01b031982167f09ce5c4600000000000000000000000000000000000000000000000000000000145b806116165750506001600160e01b0319167fbd85b039000000000000000000000000000000000000000000000000000000001490565b60131936013560601c90565b366000615e106013198301828481615eb9565b915091509091565b828054600181600116156101000203166002900490600052602060002090601f016020900481019282615e4e5760008555615e94565b82601f10615e675782800160ff19823516178555615e94565b82800160010185558215615e94579182015b82811115615e94578235825591602001919060010190615e79565b50615ea0929150615ea4565b5090565b5b80821115615ea05760008155600101615ea5565b60008085851115615ec8578182fd5b83861115615ed4578182fd5b505082019391909203915056feddf252ad1be2c89b69c2b068fc378daa952ba7f163c4a11628f55a4df523b3efa26469706673582212208b0e037991d70760a9f8e57ff69a52b114cac984295f252d4ab6e2c31e0eec7264736f6c63430007060033",
  "linkReferences": {},
  "deployedLinkReferences": {}
}