{
  "_format": "hh-sol-artifact-1",
  "contractName": "ERC1155721InventoryPausableMock",
  "sourceName": "contracts/mocks/token/ERC1155721/ERC1155721InventoryPausableMock.sol",
  "abi": [
    {
      "inputs": [],
      "stateMutability": "nonpayable",
      "type": "constructor"
    },
    {
      "anonymous": false,
      "inputs": [
        {
          "indexed": true,
          "internalType": "address",
          "name": "_owner",
          "type": "address"
        },
        {
          "indexed": true,
          "internalType": "address",
          "name": "_approved",
          "type": "address"
        },
        {
          "indexed": true,
          "internalType": "uint256",
          "name": "_tokenId",
          "type": "uint256"
        }
      ],
      "name": "Approval",
      "type": "event"
    },
    {
      "anonymous": false,
      "inputs": [
        {
          "indexed": true,
          "internalType": "address",
          "name": "_owner",
          "type": "address"
        },
        {
          "indexed": true,
          "internalType": "address",
          "name": "_operator",
          "type": "address"
        },
        {
          "indexed": false,
          "internalType": "bool",
          "name": "_approved",
          "type": "bool"
        }
      ],
      "name": "ApprovalForAll",
      "type": "event"
    },
    {
      "anonymous": false,
      "inputs": [
        {
          "indexed": false,
          "internalType": "string",
          "name": "baseMetadataURI",
          "type": "string"
        }
      ],
      "name": "BaseMetadataURISet",
      "type": "event"
    },
    {
      "anonymous": false,
      "inputs": [
        {
          "indexed": true,
          "internalType": "uint256",
          "name": "collectionId",
          "type": "uint256"
        },
        {
          "indexed": true,
          "internalType": "bool",
          "name": "fungible",
          "type": "bool"
        }
      ],
      "name": "CollectionCreated",
      "type": "event"
    },
    {
      "anonymous": false,
      "inputs": [
        {
          "indexed": true,
          "internalType": "address",
          "name": "account",
          "type": "address"
        }
      ],
      "name": "MinterAdded",
      "type": "event"
    },
    {
      "anonymous": false,
      "inputs": [
        {
          "indexed": true,
          "internalType": "address",
          "name": "account",
          "type": "address"
        }
      ],
      "name": "MinterRemoved",
      "type": "event"
    },
    {
      "anonymous": false,
      "inputs": [
        {
          "indexed": true,
          "internalType": "address",
          "name": "previousOwner",
          "type": "address"
        },
        {
          "indexed": true,
          "internalType": "address",
          "name": "newOwner",
          "type": "address"
        }
      ],
      "name": "OwnershipTransferred",
      "type": "event"
    },
    {
      "anonymous": false,
      "inputs": [
        {
          "indexed": false,
          "internalType": "address",
          "name": "account",
          "type": "address"
        }
      ],
      "name": "Paused",
      "type": "event"
    },
    {
      "anonymous": false,
      "inputs": [
        {
          "indexed": true,
          "internalType": "address",
          "name": "_from",
          "type": "address"
        },
        {
          "indexed": true,
          "internalType": "address",
          "name": "_to",
          "type": "address"
        },
        {
          "indexed": true,
          "internalType": "uint256",
          "name": "_tokenId",
          "type": "uint256"
        }
      ],
      "name": "Transfer",
      "type": "event"
    },
    {
      "anonymous": false,
      "inputs": [
        {
          "indexed": true,
          "internalType": "address",
          "name": "_operator",
          "type": "address"
        },
        {
          "indexed": true,
          "internalType": "address",
          "name": "_from",
          "type": "address"
        },
        {
          "indexed": true,
          "internalType": "address",
          "name": "_to",
          "type": "address"
        },
        {
          "indexed": false,
          "internalType": "uint256[]",
          "name": "_ids",
          "type": "uint256[]"
        },
        {
          "indexed": false,
          "internalType": "uint256[]",
          "name": "_values",
          "type": "uint256[]"
        }
      ],
      "name": "TransferBatch",
      "type": "event"
    },
    {
      "anonymous": false,
      "inputs": [
        {
          "indexed": true,
          "internalType": "address",
          "name": "_operator",
          "type": "address"
        },
        {
          "indexed": true,
          "internalType": "address",
          "name": "_from",
          "type": "address"
        },
        {
          "indexed": true,
          "internalType": "address",
          "name": "_to",
          "type": "address"
        },
        {
          "indexed": false,
          "internalType": "uint256",
          "name": "_id",
          "type": "uint256"
        },
        {
          "indexed": false,
          "internalType": "uint256",
          "name": "_value",
          "type": "uint256"
        }
      ],
      "name": "TransferSingle",
      "type": "event"
    },
    {
      "anonymous": false,
      "inputs": [
        {
          "indexed": false,
          "internalType": "string",
          "name": "_value",
          "type": "string"
        },
        {
          "indexed": true,
          "internalType": "uint256",
          "name": "_id",
          "type": "uint256"
        }
      ],
      "name": "URI",
      "type": "event"
    },
    {
      "anonymous": false,
      "inputs": [
        {
          "indexed": false,
          "internalType": "address",
          "name": "account",
          "type": "address"
        }
      ],
      "name": "Unpaused",
      "type": "event"
    },
    {
      "inputs": [
        {
          "internalType": "address",
          "name": "account",
          "type": "address"
        }
      ],
      "name": "addMinter",
      "outputs": [],
      "stateMutability": "nonpayable",
      "type": "function"
    },
    {
      "inputs": [
        {
          "internalType": "address",
          "name": "to",
          "type": "address"
        },
        {
          "internalType": "uint256",
          "name": "nftId",
          "type": "uint256"
        }
      ],
      "name": "approve",
      "outputs": [],
      "stateMutability": "nonpayable",
      "type": "function"
    },
    {
      "inputs": [
        {
          "internalType": "address",
          "name": "owner",
          "type": "address"
        },
        {
          "internalType": "uint256",
          "name": "id",
          "type": "uint256"
        }
      ],
      "name": "balanceOf",
      "outputs": [
        {
          "internalType": "uint256",
          "name": "",
          "type": "uint256"
        }
      ],
      "stateMutability": "view",
      "type": "function"
    },
    {
      "inputs": [
        {
          "internalType": "address",
          "name": "tokenOwner",
          "type": "address"
        }
      ],
      "name": "balanceOf",
      "outputs": [
        {
          "internalType": "uint256",
          "name": "",
          "type": "uint256"
        }
      ],
      "stateMutability": "view",
      "type": "function"
    },
    {
      "inputs": [
        {
          "internalType": "address[]",
          "name": "owners",
          "type": "address[]"
        },
        {
          "internalType": "uint256[]",
          "name": "ids",
          "type": "uint256[]"
        }
      ],
      "name": "balanceOfBatch",
      "outputs": [
        {
          "internalType": "uint256[]",
          "name": "",
          "type": "uint256[]"
        }
      ],
      "stateMutability": "view",
      "type": "function"
    },
    {
      "inputs": [],
      "name": "baseMetadataURI",
      "outputs": [
        {
          "internalType": "string",
          "name": "",
          "type": "string"
        }
      ],
      "stateMutability": "view",
      "type": "function"
    },
    {
      "inputs": [
        {
          "internalType": "address",
          "name": "from",
          "type": "address"
        },
        {
          "internalType": "uint256[]",
          "name": "ids",
          "type": "uint256[]"
        },
        {
          "internalType": "uint256[]",
          "name": "values",
          "type": "uint256[]"
        }
      ],
      "name": "batchBurnFrom",
      "outputs": [],
      "stateMutability": "nonpayable",
      "type": "function"
    },
    {
      "inputs": [
        {
          "internalType": "address",
          "name": "from",
          "type": "address"
        },
        {
          "internalType": "uint256[]",
          "name": "nftIds",
          "type": "uint256[]"
        }
      ],
      "name": "batchBurnFrom",
      "outputs": [],
      "stateMutability": "nonpayable",
      "type": "function"
    },
    {
      "inputs": [
        {
          "internalType": "address",
          "name": "to",
          "type": "address"
        },
        {
          "internalType": "uint256[]",
          "name": "nftIds",
          "type": "uint256[]"
        }
      ],
      "name": "batchMint",
      "outputs": [],
      "stateMutability": "nonpayable",
      "type": "function"
    },
    {
      "inputs": [
        {
          "internalType": "address",
          "name": "from",
          "type": "address"
        },
        {
          "internalType": "address",
          "name": "to",
          "type": "address"
        },
        {
          "internalType": "uint256[]",
          "name": "nftIds",
          "type": "uint256[]"
        }
      ],
      "name": "batchTransferFrom",
      "outputs": [],
      "stateMutability": "nonpayable",
      "type": "function"
    },
    {
      "inputs": [
        {
          "internalType": "address",
          "name": "from",
          "type": "address"
        },
        {
          "internalType": "uint256",
          "name": "id",
          "type": "uint256"
        },
        {
          "internalType": "uint256",
          "name": "value",
          "type": "uint256"
        }
      ],
      "name": "burnFrom",
      "outputs": [],
      "stateMutability": "nonpayable",
      "type": "function"
    },
    {
      "inputs": [
        {
          "internalType": "uint256",
          "name": "nftId",
          "type": "uint256"
        }
      ],
      "name": "collectionOf",
      "outputs": [
        {
          "internalType": "uint256",
          "name": "",
          "type": "uint256"
        }
      ],
      "stateMutability": "pure",
      "type": "function"
    },
    {
      "inputs": [
        {
          "internalType": "uint256",
          "name": "collectionId",
          "type": "uint256"
        }
      ],
      "name": "createCollection",
      "outputs": [],
      "stateMutability": "nonpayable",
      "type": "function"
    },
    {
      "inputs": [
        {
          "internalType": "uint256",
          "name": "collectionId",
          "type": "uint256"
        }
      ],
      "name": "creator",
      "outputs": [
        {
          "internalType": "address",
          "name": "",
          "type": "address"
        }
      ],
      "stateMutability": "view",
      "type": "function"
    },
    {
      "inputs": [
        {
          "internalType": "uint256",
          "name": "nftId",
          "type": "uint256"
        }
      ],
      "name": "getApproved",
      "outputs": [
        {
          "internalType": "address",
          "name": "",
          "type": "address"
        }
      ],
      "stateMutability": "view",
      "type": "function"
    },
    {
      "inputs": [
        {
          "internalType": "address",
          "name": "tokenOwner",
          "type": "address"
        },
        {
          "internalType": "address",
          "name": "operator",
          "type": "address"
        }
      ],
      "name": "isApprovedForAll",
      "outputs": [
        {
          "internalType": "bool",
          "name": "",
          "type": "bool"
        }
      ],
      "stateMutability": "view",
      "type": "function"
    },
    {
      "inputs": [
        {
          "internalType": "uint256",
          "name": "id",
          "type": "uint256"
        }
      ],
      "name": "isFungible",
      "outputs": [
        {
          "internalType": "bool",
          "name": "",
          "type": "bool"
        }
      ],
      "stateMutability": "pure",
      "type": "function"
    },
    {
      "inputs": [
        {
          "internalType": "address",
          "name": "",
          "type": "address"
        }
      ],
      "name": "isMinter",
      "outputs": [
        {
          "internalType": "bool",
          "name": "",
          "type": "bool"
        }
      ],
      "stateMutability": "view",
      "type": "function"
    },
    {
      "inputs": [
        {
          "internalType": "address",
          "name": "to",
          "type": "address"
        },
        {
          "internalType": "uint256",
          "name": "nftId",
          "type": "uint256"
        }
      ],
      "name": "mint",
      "outputs": [],
      "stateMutability": "nonpayable",
      "type": "function"
    },
    {
      "inputs": [],
      "name": "name",
      "outputs": [
        {
          "internalType": "string",
          "name": "",
          "type": "string"
        }
      ],
      "stateMutability": "view",
      "type": "function"
    },
    {
      "inputs": [],
      "name": "owner",
      "outputs": [
        {
          "internalType": "address",
          "name": "",
          "type": "address"
        }
      ],
      "stateMutability": "view",
      "type": "function"
    },
    {
      "inputs": [
        {
          "internalType": "uint256",
          "name": "nftId",
          "type": "uint256"
        }
      ],
      "name": "ownerOf",
      "outputs": [
        {
          "internalType": "address",
          "name": "",
          "type": "address"
        }
      ],
      "stateMutability": "view",
      "type": "function"
    },
    {
      "inputs": [],
      "name": "pause",
      "outputs": [],
      "stateMutability": "nonpayable",
      "type": "function"
    },
    {
      "inputs": [],
      "name": "paused",
      "outputs": [
        {
          "internalType": "bool",
          "name": "",
          "type": "bool"
        }
      ],
      "stateMutability": "view",
      "type": "function"
    },
    {
      "inputs": [],
      "name": "renounceMinter",
      "outputs": [],
      "stateMutability": "nonpayable",
      "type": "function"
    },
    {
      "inputs": [
        {
          "internalType": "address",
          "name": "to",
          "type": "address"
        },
        {
          "internalType": "uint256[]",
          "name": "ids",
          "type": "uint256[]"
        },
        {
          "internalType": "uint256[]",
          "name": "values",
          "type": "uint256[]"
        },
        {
          "internalType": "bytes",
          "name": "data",
          "type": "bytes"
        }
      ],
      "name": "safeBatchMint",
      "outputs": [],
      "stateMutability": "nonpayable",
      "type": "function"
    },
    {
      "inputs": [
        {
          "internalType": "address",
          "name": "from",
          "type": "address"
        },
        {
          "internalType": "address",
          "name": "to",
          "type": "address"
        },
        {
          "internalType": "uint256[]",
          "name": "ids",
          "type": "uint256[]"
        },
        {
          "internalType": "uint256[]",
          "name": "values",
          "type": "uint256[]"
        },
        {
          "internalType": "bytes",
          "name": "data",
          "type": "bytes"
        }
      ],
      "name": "safeBatchTransferFrom",
      "outputs": [],
      "stateMutability": "nonpayable",
      "type": "function"
    },
    {
      "inputs": [
        {
          "internalType": "address[]",
          "name": "recipients",
          "type": "address[]"
        },
        {
          "internalType": "uint256[]",
          "name": "ids",
          "type": "uint256[]"
        },
        {
          "internalType": "uint256[]",
          "name": "values",
          "type": "uint256[]"
        },
        {
          "internalType": "bytes",
          "name": "data",
          "type": "bytes"
        }
      ],
      "name": "safeDeliver",
      "outputs": [],
      "stateMutability": "nonpayable",
      "type": "function"
    },
    {
      "inputs": [
        {
          "internalType": "address",
          "name": "to",
          "type": "address"
        },
        {
          "internalType": "uint256",
          "name": "id",
          "type": "uint256"
        },
        {
          "internalType": "uint256",
          "name": "value",
          "type": "uint256"
        },
        {
          "internalType": "bytes",
          "name": "data",
          "type": "bytes"
        }
      ],
      "name": "safeMint",
      "outputs": [],
      "stateMutability": "nonpayable",
      "type": "function"
    },
    {
      "inputs": [
        {
          "internalType": "address",
          "name": "to",
          "type": "address"
        },
        {
          "internalType": "uint256",
          "name": "nftId",
          "type": "uint256"
        },
        {
          "internalType": "bytes",
          "name": "data",
          "type": "bytes"
        }
      ],
      "name": "safeMint",
      "outputs": [],
      "stateMutability": "nonpayable",
      "type": "function"
    },
    {
      "inputs": [
        {
          "internalType": "address",
          "name": "from",
          "type": "address"
        },
        {
          "internalType": "address",
          "name": "to",
          "type": "address"
        },
        {
          "internalType": "uint256",
          "name": "nftId",
          "type": "uint256"
        }
      ],
      "name": "safeTransferFrom",
      "outputs": [],
      "stateMutability": "nonpayable",
      "type": "function"
    },
    {
      "inputs": [
        {
          "internalType": "address",
          "name": "from",
          "type": "address"
        },
        {
          "internalType": "address",
          "name": "to",
          "type": "address"
        },
        {
          "internalType": "uint256",
          "name": "nftId",
          "type": "uint256"
        },
        {
          "internalType": "bytes",
          "name": "data",
          "type": "bytes"
        }
      ],
      "name": "safeTransferFrom",
      "outputs": [],
      "stateMutability": "nonpayable",
      "type": "function"
    },
    {
      "inputs": [
        {
          "internalType": "address",
          "name": "from",
          "type": "address"
        },
        {
          "internalType": "address",
          "name": "to",
          "type": "address"
        },
        {
          "internalType": "uint256",
          "name": "id",
          "type": "uint256"
        },
        {
          "internalType": "uint256",
          "name": "value",
          "type": "uint256"
        },
        {
          "internalType": "bytes",
          "name": "data",
          "type": "bytes"
        }
      ],
      "name": "safeTransferFrom",
      "outputs": [],
      "stateMutability": "nonpayable",
      "type": "function"
    },
    {
      "inputs": [
        {
          "internalType": "address",
          "name": "operator",
          "type": "address"
        },
        {
          "internalType": "bool",
          "name": "approved",
          "type": "bool"
        }
      ],
      "name": "setApprovalForAll",
      "outputs": [],
      "stateMutability": "nonpayable",
      "type": "function"
    },
    {
      "inputs": [
        {
          "internalType": "string",
          "name": "baseMetadataURI_",
          "type": "string"
        }
      ],
      "name": "setBaseMetadataURI",
      "outputs": [],
      "stateMutability": "nonpayable",
      "type": "function"
    },
    {
      "inputs": [
        {
          "internalType": "bytes4",
          "name": "interfaceId",
          "type": "bytes4"
        }
      ],
      "name": "supportsInterface",
      "outputs": [
        {
          "internalType": "bool",
          "name": "",
          "type": "bool"
        }
      ],
      "stateMutability": "view",
      "type": "function"
    },
    {
      "inputs": [],
      "name": "symbol",
      "outputs": [
        {
          "internalType": "string",
          "name": "",
          "type": "string"
        }
      ],
      "stateMutability": "view",
      "type": "function"
    },
    {
      "inputs": [
        {
          "internalType": "uint256",
          "name": "nftId",
          "type": "uint256"
        }
      ],
      "name": "tokenURI",
      "outputs": [
        {
          "internalType": "string",
          "name": "",
          "type": "string"
        }
      ],
      "stateMutability": "view",
      "type": "function"
    },
    {
      "inputs": [
        {
          "internalType": "uint256",
          "name": "id",
          "type": "uint256"
        }
      ],
      "name": "totalSupply",
      "outputs": [
        {
          "internalType": "uint256",
          "name": "",
          "type": "uint256"
        }
      ],
      "stateMutability": "view",
      "type": "function"
    },
    {
      "inputs": [
        {
          "internalType": "address",
          "name": "from",
          "type": "address"
        },
        {
          "internalType": "address",
          "name": "to",
          "type": "address"
        },
        {
          "internalType": "uint256",
          "name": "nftId",
          "type": "uint256"
        }
      ],
      "name": "transferFrom",
      "outputs": [],
      "stateMutability": "nonpayable",
      "type": "function"
    },
    {
      "inputs": [
        {
          "internalType": "address",
          "name": "newOwner",
          "type": "address"
        }
      ],
      "name": "transferOwnership",
      "outputs": [],
      "stateMutability": "nonpayable",
      "type": "function"
    },
    {
      "inputs": [],
      "name": "unpause",
      "outputs": [],
      "stateMutability": "nonpayable",
      "type": "function"
    },
    {
      "inputs": [
        {
          "internalType": "uint256",
          "name": "id",
          "type": "uint256"
        }
      ],
      "name": "uri",
      "outputs": [
        {
          "internalType": "string",
          "name": "",
          "type": "string"
        }
      ],
      "stateMutability": "view",
      "type": "function"
    }
  ],
  "bytecode": "0x60806040523480156200001157600080fd5b50604080518082018252601f81527f45524331313535373231496e76656e746f72794275726e61626c654d6f636b0060208083019182528351808501909452600484526324a72b2160e11b908401526000805460ff19169055815133938493929091620000819160069162000144565b5080516200009790600790602084019062000144565b5050600a80546001600160a01b0319166001600160a01b0384169081179091556040519091506000907f8be0079c531659141344cd1fd0a4f28419497f9722a3daafe3b4186f6b6457e0908290a350620000f181620000f8565b50620001f0565b6001600160a01b0381166000818152600c6020526040808220805460ff19166001179055517f6ae172837ea30b801fbfcdd4108aa1d5bf8ff775444fd70256b44e6bf3dfc3f69190a250565b828054600181600116156101000203166002900490600052602060002090601f0160209004810192826200017c5760008555620001c7565b82601f106200019757805160ff1916838001178555620001c7565b82800160010185558215620001c7579182015b82811115620001c7578251825591602001919060010190620001aa565b50620001d5929150620001d9565b5090565b5b80821115620001d55760008155600101620001da565b61550280620002006000396000f3fe608060405234801561001057600080fd5b50600436106102e85760003560e01c80637e518ec811610191578063b88d4fde116100e3578063e8ab9ccc11610097578063f247296511610071578063f247296514611267578063f2fde38b1461131a578063f3993d1114611340576102e8565b8063e8ab9ccc14611008578063e985e9c51461116e578063f242432a1461119c576102e8565b8063c7778baa116100c8578063c7778baa14610fb1578063c87b56dd14610fce578063d0011d9d14610feb576102e8565b8063b88d4fde14610ece578063bd85b03914610f94576102e8565b806395d89b4111610145578063a22cb4651161011f578063a22cb46514610e5d578063aa271e1a14610e8b578063adebf6f214610eb1576102e8565b806395d89b4114610e27578063983b2d5614610e2f5780639865027514610e55576102e8565b80638456cb59116101765780638456cb5914610d5c5780638832e6e314610d645780638da5cb5b14610e1f576102e8565b80637e518ec814610bb55780638053493414610c25576102e8565b80633f4ba83a1161024a578063510b5158116101fe5780635cfa9297116101d85780635cfa929714610ab05780636352211e14610b7257806370a0823114610b8f576102e8565b8063510b515814610a835780635b2bd79e14610aa05780635c975abb14610aa8576102e8565b806342842e0e1161022f57806342842e0e146108885780634684d7e9146108be5780634e1273f414610971576102e8565b80633f4ba83a1461085457806340c10f191461085c576102e8565b80630d6a5bbb116102a1578063124d91e511610286578063124d91e51461062557806323b872dd146106575780632eb2c2d61461068d576102e8565b80630d6a5bbb1461044a5780630e89341c14610608576102e8565b806306fdde03116102d257806306fdde0314610366578063081812fc146103e3578063095ea7b31461041c576102e8565b8062fdd58e146102ed57806301ffc9a71461032b575b600080fd5b6103196004803603604081101561030357600080fd5b506001600160a01b0381351690602001356113fc565b60408051918252519081900360200190f35b6103526004803603602081101561034157600080fd5b50356001600160e01b0319166114c7565b604080519115158252519081900360200190f35b61036e61150d565b6040805160208082528351818301528351919283929083019185019080838360005b838110156103a8578181015183820152602001610390565b50505050905090810190601f1680156103d55780820380516001836020036101000a031916815260200191505b509250505060405180910390f35b610400600480360360208110156103f957600080fd5b50356115a3565b604080516001600160a01b039092168252519081900360200190f35b6104486004803603604081101561043257600080fd5b506001600160a01b038135169060200135611642565b005b6104486004803603608081101561046057600080fd5b6001600160a01b03823516919081019060408101602082013564010000000081111561048b57600080fd5b82018360208201111561049d57600080fd5b803590602001918460208302840111640100000000831117156104bf57600080fd5b919080806020026020016040519081016040528093929190818152602001838360200280828437600092019190915250929594936020810193503591505064010000000081111561050f57600080fd5b82018360208201111561052157600080fd5b8035906020019184602083028401116401000000008311171561054357600080fd5b919080806020026020016040519081016040528093929190818152602001838360200280828437600092019190915250929594936020810193503591505064010000000081111561059357600080fd5b8201836020820111156105a557600080fd5b803590602001918460018302840111640100000000831117156105c757600080fd5b91908080601f016020809104026020016040519081016040528093929190818152602001838380828437600092019190915250929550611794945050505050565b61036e6004803603602081101561061e57600080fd5b50356117b6565b6104486004803603606081101561063b57600080fd5b506001600160a01b0381351690602081013590604001356117c1565b6104486004803603606081101561066d57600080fd5b506001600160a01b038135811691602081013590911690604001356117d9565b610448600480360360a08110156106a357600080fd5b6001600160a01b0382358116926020810135909116918101906060810160408201356401000000008111156106d757600080fd5b8201836020820111156106e957600080fd5b8035906020019184602083028401116401000000008311171561070b57600080fd5b919080806020026020016040519081016040528093929190818152602001838360200280828437600092019190915250929594936020810193503591505064010000000081111561075b57600080fd5b82018360208201111561076d57600080fd5b8035906020019184602083028401116401000000008311171561078f57600080fd5b91908080602002602001604051908101604052809392919081815260200183836020028082843760009201919091525092959493602081019350359150506401000000008111156107df57600080fd5b8201836020820111156107f157600080fd5b8035906020019184600183028401116401000000008311171561081357600080fd5b91908080601f0160208091040260200160405190810160405280939291908181526020018383808284376000920191909152509295506117ec945050505050565b610448611808565b6104486004803603604081101561087257600080fd5b506001600160a01b038135169060200135611822565b6104486004803603606081101561089e57600080fd5b506001600160a01b0381358116916020810135909116906040013561184d565b610448600480360360408110156108d457600080fd5b6001600160a01b0382351691908101906040810160208201356401000000008111156108ff57600080fd5b82018360208201111561091157600080fd5b8035906020019184602083028401116401000000008311171561093357600080fd5b919080806020026020016040519081016040528093929190818152602001838360200280828437600092019190915250929550611860945050505050565b610a336004803603604081101561098757600080fd5b8101906020810181356401000000008111156109a257600080fd5b8201836020820111156109b457600080fd5b803590602001918460208302840111640100000000831117156109d657600080fd5b9193909290916020810190356401000000008111156109f457600080fd5b820183602082011115610a0657600080fd5b80359060200191846020830284011164010000000083111715610a2857600080fd5b509092509050611875565b60408051602080825283518183015283519192839290830191858101910280838360005b83811015610a6f578181015183820152602001610a57565b505050509050019250505060405180910390f35b61040060048036036020811015610a9957600080fd5b503561197b565b61036e611986565b610352611a14565b61044860048036036080811015610ac657600080fd5b6001600160a01b038235169160208101359160408201359190810190608081016060820135640100000000811115610afd57600080fd5b820183602082011115610b0f57600080fd5b80359060200191846001830284011164010000000083111715610b3157600080fd5b91908080601f016020809104026020016040519081016040528093929190818152602001838380828437600092019190915250929550611a1d945050505050565b61040060048036036020811015610b8857600080fd5b5035611a34565b61031960048036036020811015610ba557600080fd5b50356001600160a01b0316611a3f565b61044860048036036020811015610bcb57600080fd5b810190602081018135640100000000811115610be657600080fd5b820183602082011115610bf857600080fd5b80359060200191846001830284011164010000000083111715610c1a57600080fd5b509092509050611ab8565b61044860048036036060811015610c3b57600080fd5b6001600160a01b038235169190810190604081016020820135640100000000811115610c6657600080fd5b820183602082011115610c7857600080fd5b80359060200191846020830284011164010000000083111715610c9a57600080fd5b9190808060200260200160405190810160405280939291908181526020018383602002808284376000920191909152509295949360208101935035915050640100000000811115610cea57600080fd5b820183602082011115610cfc57600080fd5b80359060200191846020830284011164010000000083111715610d1e57600080fd5b919080806020026020016040519081016040528093929190818152602001838360200280828437600092019190915250929550611b34945050505050565b610448611b47565b61044860048036036060811015610d7a57600080fd5b6001600160a01b0382351691602081013591810190606081016040820135640100000000811115610daa57600080fd5b820183602082011115610dbc57600080fd5b80359060200191846001830284011164010000000083111715610dde57600080fd5b91908080601f016020809104026020016040519081016040528093929190818152602001838380828437600092019190915250929550611b5a945050505050565b610400611b72565b61036e611b81565b61044860048036036020811015610e4557600080fd5b50356001600160a01b0316611be2565b610448611bf9565b61044860048036036040811015610e7357600080fd5b506001600160a01b0381351690602001351515611c57565b61035260048036036020811015610ea157600080fd5b50356001600160a01b0316611d38565b61035260048036036020811015610ec757600080fd5b5035611d4d565b61044860048036036080811015610ee457600080fd5b6001600160a01b03823581169260208101359091169160408201359190810190608081016060820135640100000000811115610f1f57600080fd5b820183602082011115610f3157600080fd5b80359060200191846001830284011164010000000083111715610f5357600080fd5b91908080601f016020809104026020016040519081016040528093929190818152602001838380828437600092019190915250929550611d58945050505050565b61031960048036036020811015610faa57600080fd5b5035611d6c565b61031960048036036020811015610fc757600080fd5b5035611dc2565b61036e60048036036020811015610fe457600080fd5b5035611e27565b6104486004803603602081101561100157600080fd5b5035611e9c565b6104486004803603608081101561101e57600080fd5b81019060208101813564010000000081111561103957600080fd5b82018360208201111561104b57600080fd5b8035906020019184602083028401116401000000008311171561106d57600080fd5b91939092909160208101903564010000000081111561108b57600080fd5b82018360208201111561109d57600080fd5b803590602001918460208302840111640100000000831117156110bf57600080fd5b9193909290916020810190356401000000008111156110dd57600080fd5b8201836020820111156110ef57600080fd5b8035906020019184602083028401116401000000008311171561111157600080fd5b91939092909160208101903564010000000081111561112f57600080fd5b82018360208201111561114157600080fd5b8035906020019184600183028401116401000000008311171561116357600080fd5b509092509050611eb0565b6103526004803603604081101561118457600080fd5b506001600160a01b0381358116916020013516611ed5565b610448600480360360a08110156111b257600080fd5b6001600160a01b03823581169260208101359091169160408201359160608101359181019060a0810160808201356401000000008111156111f257600080fd5b82018360208201111561120457600080fd5b8035906020019184600183028401116401000000008311171561122657600080fd5b91908080601f016020809104026020016040519081016040528093929190818152602001838380828437600092019190915250929550611f03945050505050565b6104486004803603604081101561127d57600080fd5b6001600160a01b0382351691908101906040810160208201356401000000008111156112a857600080fd5b8201836020820111156112ba57600080fd5b803590602001918460208302840111640100000000831117156112dc57600080fd5b919080806020026020016040519081016040528093929190818152602001838360200280828437600092019190915250929550611f18945050505050565b6104486004803603602081101561133057600080fd5b50356001600160a01b0316611f2a565b6104486004803603606081101561135657600080fd5b6001600160a01b03823581169260208101359091169181019060608101604082013564010000000081111561138a57600080fd5b82018360208201111561139c57600080fd5b803590602001918460208302840111640100000000831117156113be57600080fd5b919080806020026020016040519081016040528093929190818152602001838360200280828437600092019190915250929550611f92945050505050565b60006001600160a01b038316611459576040805162461bcd60e51b815260206004820152601760248201527f496e76656e746f72793a207a65726f2061646472657373000000000000000000604482015290519081900360640190fd5b61146282611fa5565b1561149c576000828152600460205260409020546001600160a01b0384811691161461148f576000611492565b60015b60ff1690506114c1565b5060008181526002602090815260408083206001600160a01b03861684529091529020545b92915050565b60006001600160e01b031982167f510b5158000000000000000000000000000000000000000000000000000000001480611505575061150582611ff7565b90505b919050565b60068054604080516020601f60026000196101006001881615020190951694909404938401819004810282018101909252828152606093909290918301828280156115995780601f1061156e57610100808354040283529160200191611599565b820191906000526020600020905b81548152906001019060200180831161157c57829003601f168201915b5050505050905090565b6000818152600460205260408120546001600160a01b03811661160d576040805162461bcd60e51b815260206004820152601b60248201527f496e76656e746f72793a206e6f6e2d6578697374696e67204e46540000000000604482015290519081900360640190fd5b600160a01b8116156116385750506000818152600960205260409020546001600160a01b0316611508565b6000915050611508565b600061164d82611a34565b9050806001600160a01b0316836001600160a01b031614156116b6576040805162461bcd60e51b815260206004820152601860248201527f496e76656e746f72793a2073656c662d617070726f76616c0000000000000000604482015290519081900360640190fd5b6116c7816116c2612035565b612039565b611718576040805162461bcd60e51b815260206004820152601e60248201527f496e76656e746f72793a206e6f6e2d617070726f7665642073656e6465720000604482015290519081900360640190fd5b60008281526004602090815260408083206001600160a01b03808616600160a01b81179092556009909352818420805493881673ffffffffffffffffffffffffffffffffffffffff1990941684179055905185937f8c5be1e5ebec7d5bd14f71427d1e84f3dd0314c0f7b2291e5b200ac8c7c3b92591a4505050565b6117a461179f612035565b612087565b6117b0848484846120f4565b50505050565b6060611505826124a6565b6117c9612579565b6117d48383836125d1565b505050565b6117e1612579565b6117d48383836126c4565b6117f4612579565b61180185858585856126e1565b5050505050565b611818611813612035565b6126ee565b6118206127b2565b565b61182d61179f612035565b611849828260405180602001604052806000815250600061280a565b5050565b611855612579565b6117d48383836129ae565b61186b61179f612035565b61184982826129cb565b60608382146118cb576040805162461bcd60e51b815260206004820152601e60248201527f496e76656e746f72793a20696e636f6e73697374656e74206172726179730000604482015290519081900360640190fd5b60008467ffffffffffffffff811180156118e457600080fd5b5060405190808252806020026020018201604052801561190e578160200160208202803683370190505b50905060005b8086146119715761195287878381811061192a57fe5b905060200201356001600160a01b031686868481811061194657fe5b905060200201356113fc565b82828151811061195e57fe5b6020908102919091010152600101611914565b5095945050505050565b600061150582612d2a565b600b805460408051602060026001851615610100026000190190941693909304601f81018490048402820184019092528181529291830182828015611a0c5780601f106119e157610100808354040283529160200191611a0c565b820191906000526020600020905b8154815290600101906020018083116119ef57829003601f168201915b505050505081565b60005460ff1681565b611a2861179f612035565b6117b084848484612da3565b600061150582612eee565b60006001600160a01b038216611a9c576040805162461bcd60e51b815260206004820152601760248201527f496e76656e746f72793a207a65726f2061646472657373000000000000000000604482015290519081900360640190fd5b506001600160a01b031660009081526008602052604090205490565b611ac3611813612035565b611acf600b838361542b565b507f04b1dc5c136a3ce9fded8db0ce3d3366c58764ec3a8e4c2b9e52e4ddfe5ebbf7828260405180806020018281038252848482818152602001925080828437600083820152604051601f909101601f19169092018290039550909350505050a15050565b611b3c612579565b6117d4838383612f58565b611b52611813612035565b6118206131f5565b611b6561179f612035565b6117d4838383600161280a565b600a546001600160a01b031690565b60078054604080516020601f60026000196101006001881615020190951694909404938401819004810282018101909252828152606093909290918301828280156115995780601f1061156e57610100808354040283529160200191611599565b611bed611813612035565b611bf681613233565b50565b6000611c03612035565b9050611c0e81612087565b6001600160a01b0381166000818152600c6020526040808220805460ff19169055517fe94479a9f7e1952cc78f2d6baab678adc1b772d936c6583def489e524cb666929190a250565b6000611c61612035565b9050806001600160a01b0316836001600160a01b03161415611cca576040805162461bcd60e51b815260206004820152601860248201527f496e76656e746f72793a2073656c662d617070726f76616c0000000000000000604482015290519081900360640190fd5b6001600160a01b03818116600081815260016020908152604080832094881680845294825291829020805460ff1916871515908117909155825190815291517f17307eab39ab6107e8899845ad3d59bd9653f200f220920489ca2b5937696c319281900390910190a3505050565b600c6020526000908152604090205460ff1681565b60006115058261327f565b611d60612579565b6117b0848484846132a5565b6000611d7782611fa5565b15611dad576000828152600460205260409020546001600160a01b031615611da0576001611da3565b60005b60ff169050611508565b50600081815260036020526040902054611508565b6000611dcd82611fa5565b611e1e576040805162461bcd60e51b815260206004820152601560248201527f496e76656e746f72793a206e6f7420616e204e46540000000000000000000000604482015290519081900360640190fd5b611505826132b3565b6000818152600460205260409020546060906001600160a01b0316611e93576040805162461bcd60e51b815260206004820152601b60248201527f496e76656e746f72793a206e6f6e2d6578697374696e67204e46540000000000604482015290519081900360640190fd5b611505826117b6565b611ea7611813612035565b611bf6816132c0565b611ebb61179f612035565b611ecb8888888888888888613401565b5050505050505050565b6001600160a01b03918216600090815260016020908152604080832093909416825291909152205460ff1690565b611f0b612579565b6118018585858585613760565b611f20612579565b61184982826138de565b611f35611813612035565b600a805473ffffffffffffffffffffffffffffffffffffffff19166001600160a01b0383811691821792839055604051919216907f8be0079c531659141344cd1fd0a4f28419497f9722a3daafe3b4186f6b6457e090600090a350565b611f9a612579565b6117d4838383613b3c565b60007f80000000000000000000000000000000000000000000000000000000000000008216158015906115055750507bffffffffffffffffffffffffffffffffffffffffffffffffffffffff16151590565b60006001600160e01b031982167f6059f1b4000000000000000000000000000000000000000000000000000000001480611505575061150582613e24565b3390565b6000816001600160a01b0316836001600160a01b0316148061208057506001600160a01b0380841660009081526001602090815260408083209386168352929052205460ff165b9392505050565b6001600160a01b0381166000908152600c602052604090205460ff16611bf6576040805162461bcd60e51b815260206004820152601860248201527f4d696e746572526f6c653a206e6f742061204d696e7465720000000000000000604482015290519081900360640190fd5b6001600160a01b03841661214f576040805162461bcd60e51b815260206004820152601760248201527f496e76656e746f72793a206d696e7420746f207a65726f000000000000000000604482015290519081900360640190fd5b8251825181146121a6576040805162461bcd60e51b815260206004820152601e60248201527f496e76656e746f72793a20696e636f6e73697374656e74206172726179730000604482015290519081900360640190fd5b6000806000805b8481146123545760008882815181106121c257fe5b6020026020010151905060008883815181106121da57fe5b602002602001015190506121ed8261327f565b15612202576121fd8b8383613eca565b61234a565b61220b82611fa5565b156122fd5761221d8b83836001613fbc565b60405182906001600160a01b038d16906000907fddf252ad1be2c89b69c2b068fc378daa952ba7f163c4a11628f55a4df523b3ef908290a46000612260836132b3565b90508661227357809650600195506122f7565b8681146122f057856002600089815260200190815260200160002060008e6001600160a01b03166001600160a01b03168152602001908152602001600020600082825401925050819055508560036000898152602001908152602001600020600082825401925050819055508096508585019450600195506122f7565b8560010195505b5061234a565b6040805162461bcd60e51b815260206004820152601960248201527f496e76656e746f72793a206e6f74206120746f6b656e20696400000000000000604482015290519081900360640190fd5b50506001016121ad565b5082156123a95760008381526002602090815260408083206001600160a01b038c1680855290835281842080548701905586845260038352818420805487019055835260089091529020805491830191820190555b6001600160a01b03881660006123bd612035565b6001600160a01b03167f4a39dc06d4c0dbc64b70af90fd698a233a518aa5d07e595d983b8c0526c8f7fb8a8a604051808060200180602001838103835285818151815260200191508051906020019060200280838360005b8381101561242d578181015183820152602001612415565b50505050905001838103825284818151815260200191508051906020019060200280838360005b8381101561246c578181015183820152602001612454565b5050505090500194505050505060405180910390a4612493886001600160a01b03166140eb565b15611ecb57611ecb6000898989896140f1565b6060600b6124b3836142f7565b60405160200180838054600181600116156101000203166002900480156125115780601f106124ef576101008083540402835291820191612511565b820191906000526020600020905b8154815290600101906020018083116124fd575b5050825160208401908083835b6020831061253d5780518252601f19909201916020918201910161251e565b6001836020036101000a038019825116818451168082178552505050505050905001925050506040516020818303038152906040529050919050565b60005460ff1615611820576040805162461bcd60e51b815260206004820152601060248201527f5061757361626c653a2070617573656400000000000000000000000000000000604482015290519081900360640190fd5b60006125db612035565b905060006125e98583612039565b90506125f48461327f565b1561260a5761260585858584614406565b61265f565b61261384611fa5565b156122fd57612626858585846000614562565b60405184906000906001600160a01b038816907fddf252ad1be2c89b69c2b068fc378daa952ba7f163c4a11628f55a4df523b3ef908390a45b60006001600160a01b0316856001600160a01b0316836001600160a01b03167fc3d58168c5ae7397731d063d5bbf3d657854427343f4c083240f7aacaa2d0f628787604051808381526020018281526020019250505060405180910390a45050505050565b6117d4838383604051806020016040528060008152506000614729565b6118018585858585614897565b306001600160a01b0316638da5cb5b6040518163ffffffff1660e01b815260040160206040518083038186803b15801561272757600080fd5b505afa15801561273b573d6000803e3d6000fd5b505050506040513d602081101561275157600080fd5b50516001600160a01b03828116911614611bf6576040805162461bcd60e51b815260206004820152601660248201527f4f776e61626c653a206e6f7420746865206f776e657200000000000000000000604482015290519081900360640190fd5b6127ba614ba4565b6000805460ff191690557f5db9ee0a495bf2e6ff9c91a7834c1ba4fdd244a5e8aa4e537bd38aeae4b073aa6127ed612035565b604080516001600160a01b039092168252519081900360200190a1565b6001600160a01b038416612865576040805162461bcd60e51b815260206004820152601760248201527f496e76656e746f72793a206d696e7420746f207a65726f000000000000000000604482015290519081900360640190fd5b61286e83611fa5565b6128bf576040805162461bcd60e51b815260206004820152601560248201527f496e76656e746f72793a206e6f7420616e204e46540000000000000000000000604482015290519081900360640190fd5b6128cd848460016000613fbc565b60405183906001600160a01b038616906000907fddf252ad1be2c89b69c2b068fc378daa952ba7f163c4a11628f55a4df523b3ef908290a46001600160a01b0384166000612919612035565b6001600160a01b03167fc3d58168c5ae7397731d063d5bbf3d657854427343f4c083240f7aacaa2d0f62866001604051808381526020018281526020019250505060405180910390a4612974846001600160a01b03166140eb565b156117b05761298284614bfb565b1561299b5761299660008585600186614cc3565b6117b0565b80156117b0576117b06000858585614dc5565b6117d4838383604051806020016040528060008152506001614729565b6001600160a01b038216612a26576040805162461bcd60e51b815260206004820152601760248201527f496e76656e746f72793a206d696e7420746f207a65726f000000000000000000604482015290519081900360640190fd5b805160008167ffffffffffffffff81118015612a4157600080fd5b50604051908082528060200260200182016040528015612a6b578160200160208202803683370190505b50905060008060005b848114612bc6576000868281518110612a8957fe5b60200260200101519050612a9c81611fa5565b612aed576040805162461bcd60e51b815260206004820152601560248201527f496e76656e746f72793a206e6f7420616e204e46540000000000000000000000604482015290519081900360640190fd5b6001858381518110612afb57fe5b602002602001018181525050612b148882600180613fbc565b60405181906001600160a01b038a16906000907fddf252ad1be2c89b69c2b068fc378daa952ba7f163c4a11628f55a4df523b3ef908290a46000612b57826132b3565b905084612b6a5780945060019350612bbc565b848114612bb55760008581526002602090815260408083206001600160a01b038d16845282528083208054880190559682526003905294909420805490930190925560019183612bbc565b8360010193505b5050600101612a74565b5060008281526002602090815260408083206001600160a01b038a16808552908352818420805486019055858452600383528184208054860190558084526008909252822080548701905590612c1a612035565b6001600160a01b03167f4a39dc06d4c0dbc64b70af90fd698a233a518aa5d07e595d983b8c0526c8f7fb8887604051808060200180602001838103835285818151815260200191508051906020019060200280838360005b83811015612c8a578181015183820152602001612c72565b50505050905001838103825284818151815260200191508051906020019060200280838360005b83811015612cc9578181015183820152602001612cb1565b5050505090500194505050505060405180910390a4612cf0866001600160a01b03166140eb565b8015612d005750612d0086614bfb565b15612d2257612d226000878786604051806020016040528060008152506140f1565b505050505050565b6000612d3582611fa5565b15612d87576040805162461bcd60e51b815260206004820152601b60248201527f496e76656e746f72793a206e6f74206120636f6c6c656374696f6e0000000000604482015290519081900360640190fd5b506000908152600560205260409020546001600160a01b031690565b6001600160a01b038416612dfe576040805162461bcd60e51b815260206004820152601760248201527f496e76656e746f72793a206d696e7420746f207a65726f000000000000000000604482015290519081900360640190fd5b6000612e08612035565b9050612e138461327f565b15612e2857612e23858585613eca565b612e7c565b612e3184611fa5565b156122fd57612e438585856000613fbc565b60405184906001600160a01b038716906000907fddf252ad1be2c89b69c2b068fc378daa952ba7f163c4a11628f55a4df523b3ef908290a45b604080518581526020810185905281516001600160a01b0380891693600093918616927fc3d58168c5ae7397731d063d5bbf3d657854427343f4c083240f7aacaa2d0f629281900390910190a4612edb856001600160a01b03166140eb565b1561180157611801600086868686614cc3565b6000818152600460205260408120546001600160a01b038116611505576040805162461bcd60e51b815260206004820152601b60248201527f496e76656e746f72793a206e6f6e2d6578697374696e67204e46540000000000604482015290519081900360640190fd5b815181518114612faf576040805162461bcd60e51b815260206004820152601e60248201527f496e76656e746f72793a20696e636f6e73697374656e74206172726179730000604482015290519081900360640190fd5b6000612fb9612035565b90506000612fc78683612039565b90506000806000805b8681146130da576000898281518110612fe557fe5b60200260200101519050612ff88161327f565b156130215761301c8b828b858151811061300e57fe5b602002602001015189614406565b6130d1565b61302a81611fa5565b156122fd576130508b828b858151811061304057fe5b6020026020010151896001614562565b60405181906000906001600160a01b038e16907fddf252ad1be2c89b69c2b068fc378daa952ba7f163c4a11628f55a4df523b3ef908390a46000613093826132b3565b9050856130a657809550600194506130cf565b8581146130c8576130b88c8787614f47565b94506001939290920191846130cf565b8460010194505b505b50600101612fd0565b508215613110576130ec898484614f47565b6001600160a01b038916600090815260086020526040902080549183019182900390555b60006001600160a01b0316896001600160a01b0316866001600160a01b03167f4a39dc06d4c0dbc64b70af90fd698a233a518aa5d07e595d983b8c0526c8f7fb8b8b604051808060200180602001838103835285818151815260200191508051906020019060200280838360005b8381101561319657818101518382015260200161317e565b50505050905001838103825284818151815260200191508051906020019060200280838360005b838110156131d55781810151838201526020016131bd565b5050505090500194505050505060405180910390a4505050505050505050565b6131fd612579565b6000805460ff191660011790557f62e78cea01bee320cd4e420270b5ea74000d11b0c9f74754ebdbfc544b05a2586127ed612035565b6001600160a01b0381166000818152600c6020526040808220805460ff19166001179055517f6ae172837ea30b801fbfcdd4108aa1d5bf8ff775444fd70256b44e6bf3dfc3f69190a250565b7f8000000000000000000000000000000000000000000000000000000000000000161590565b6117b0848484846001614729565b6001600160e01b03191690565b6132c981611fa5565b1561331b576040805162461bcd60e51b815260206004820152601b60248201527f496e76656e746f72793a206e6f74206120636f6c6c656374696f6e0000000000604482015290519081900360640190fd5b6000818152600560205260409020546001600160a01b031615613385576040805162461bcd60e51b815260206004820152601e60248201527f496e76656e746f72793a206578697374696e6720636f6c6c656374696f6e0000604482015290519081900360640190fd5b61338d612035565b6000828152600560205260409020805473ffffffffffffffffffffffffffffffffffffffff19166001600160a01b03929092169190911790556133cf8161327f565b1515817f4ebf8ad0df535ba5e487bc9cb27fe44120ca81c3a95d3eba79c0bd1df2ab2d5d60405160405180910390a350565b86858114801561341057508084145b613461576040805162461bcd60e51b815260206004820152601e60248201527f496e76656e746f72793a20696e636f6e73697374656e74206172726179730000604482015290519081900360640190fd5b600061346b612035565b905060005b8281146137535760008b8b8381811061348557fe5b905060200201356001600160a01b0316905060006001600160a01b0316816001600160a01b031614156134ff576040805162461bcd60e51b815260206004820152601760248201527f496e76656e746f72793a206d696e7420746f207a65726f000000000000000000604482015290519081900360640190fd5b60008a8a8481811061350d57fe5b905060200201359050600089898581811061352457fe5b9050602002013590506135368261327f565b156135f357613546838383613eca565b604080518381526020810183905281516001600160a01b0380871693600093918a16927fc3d58168c5ae7397731d063d5bbf3d657854427343f4c083240f7aacaa2d0f629281900390910190a46135a5836001600160a01b03166140eb565b156135ee576135ee60008484848c8c8080601f016020809104026020016040519081016040528093929190818152602001838380828437600092019190915250614cc392505050565b613745565b6135fc82611fa5565b156122fd5761360e8383836000613fbc565b60405182906001600160a01b038516906000907fddf252ad1be2c89b69c2b068fc378daa952ba7f163c4a11628f55a4df523b3ef908290a4604080518381526001602082015281516001600160a01b0380871693600093918a16927fc3d58168c5ae7397731d063d5bbf3d657854427343f4c083240f7aacaa2d0f629281900390910190a46136a5836001600160a01b03166140eb565b156135ee576136b383614bfb565b15613702576136fd6000848460018c8c8080601f016020809104026020016040519081016040528093929190818152602001838380828437600092019190915250614cc392505050565b6135ee565b6135ee600084848b8b8080601f016020809104026020016040519081016040528093929190818152602001838380828437600092019190915250614dc592505050565b505050806001019050613470565b5050505050505050505050565b600061376a612035565b90506001600160a01b0385166137c7576040805162461bcd60e51b815260206004820152601b60248201527f496e76656e746f72793a207472616e7366657220746f207a65726f0000000000604482015290519081900360640190fd5b60006137d38783612039565b90506137de8561327f565b156137f5576137f08787878785614f87565b613854565b6137fe85611fa5565b156122fd57613812878787878560006150fa565b84866001600160a01b0316886001600160a01b03167fddf252ad1be2c89b69c2b068fc378daa952ba7f163c4a11628f55a4df523b3ef60405160405180910390a45b856001600160a01b0316876001600160a01b0316836001600160a01b03167fc3d58168c5ae7397731d063d5bbf3d657854427343f4c083240f7aacaa2d0f628888604051808381526020018281526020019250505060405180910390a46138c3866001600160a01b03166140eb565b156138d5576138d58787878787614cc3565b50505050505050565b60006138e8612035565b905060006138f68483612039565b835190915060008167ffffffffffffffff8111801561391457600080fd5b5060405190808252806020026020018201604052801561393e578160200160208202803683370190505b50905060008060005b848114613a2657600088828151811061395c57fe5b60200260200101519050600185838151811061397457fe5b6020026020010181815250506139a18a8287858151811061399157fe5b60200260200101518a6001614562565b60405181906000906001600160a01b038d16907fddf252ad1be2c89b69c2b068fc378daa952ba7f163c4a11628f55a4df523b3ef908390a460006139e4826132b3565b9050846139f75780945060019350613a1c565b848114613a1557613a098b8686614f47565b80945060019350613a1c565b8360010193505b5050600101613947565b508115613a5857613a38888383614f47565b6001600160a01b0388166000908152600860205260409020805485900390555b60006001600160a01b0316886001600160a01b0316876001600160a01b03167f4a39dc06d4c0dbc64b70af90fd698a233a518aa5d07e595d983b8c0526c8f7fb8a87604051808060200180602001838103835285818151815260200191508051906020019060200280838360005b83811015613ade578181015183820152602001613ac6565b50505050905001838103825284818151815260200191508051906020019060200280838360005b83811015613b1d578181015183820152602001613b05565b5050505090500194505050505060405180910390a45050505050505050565b6001600160a01b038216613b97576040805162461bcd60e51b815260206004820152601b60248201527f496e76656e746f72793a207472616e7366657220746f207a65726f0000000000604482015290519081900360640190fd5b6000613ba1612035565b90506000613baf8583612039565b835190915060008167ffffffffffffffff81118015613bcd57600080fd5b50604051908082528060200260200182016040528015613bf7578160200160208202803683370190505b50905060008060005b848114613cd8576000888281518110613c1557fe5b602002602001015190506001858381518110613c2d57fe5b602002602001018181525050613c498b8b8360018b60016150fa565b808a6001600160a01b03168c6001600160a01b03167fddf252ad1be2c89b69c2b068fc378daa952ba7f163c4a11628f55a4df523b3ef60405160405180910390a46000613c95826132b3565b905084613ca85780945060019350613cce565b848114613cc757613cbb8c8c878761528b565b80945060019350613cce565b8360010193505b5050600101613c00565b508115613cf657613ceb8989848461528b565b613cf68989866152df565b876001600160a01b0316896001600160a01b0316613d12612035565b6001600160a01b03167f4a39dc06d4c0dbc64b70af90fd698a233a518aa5d07e595d983b8c0526c8f7fb8a87604051808060200180602001838103835285818151815260200191508051906020019060200280838360005b83811015613d82578181015183820152602001613d6a565b50505050905001838103825284818151815260200191508051906020019060200280838360005b83811015613dc1578181015183820152602001613da9565b5050505090500194505050505060405180910390a4613de8886001600160a01b03166140eb565b8015613df85750613df888614bfb565b15613e1957613e1989898986604051806020016040528060008152506140f1565b505050505050505050565b60006001600160e01b031982167f80ac58cd000000000000000000000000000000000000000000000000000000001480613e8757506001600160e01b031982167f5b5e139f00000000000000000000000000000000000000000000000000000000145b80613ebb57506001600160e01b031982167ff3993d1100000000000000000000000000000000000000000000000000000000145b8061150557506115058261532a565b80613f1c576040805162461bcd60e51b815260206004820152601560248201527f496e76656e746f72793a207a65726f2076616c75650000000000000000000000604482015290519081900360640190fd5b600082815260036020526040902054818101818111613f82576040805162461bcd60e51b815260206004820152601a60248201527f496e76656e746f72793a20737570706c79206f766572666c6f77000000000000604482015290519081900360640190fd5b600093845260036020908152604080862092909255600281528185206001600160a01b039096168552949094525091902080549091019055565b81600114614011576040805162461bcd60e51b815260206004820152601a60248201527f496e76656e746f72793a2077726f6e67204e46542076616c7565000000000000604482015290519081900360640190fd5b60008381526004602052604090205415614072576040805162461bcd60e51b815260206004820152601d60248201527f496e76656e746f72793a206578697374696e672f6275726e74204e4654000000604482015290519081900360640190fd5b60008381526004602052604090206001600160a01b0385169055806117b057600061409c846132b3565b600090815260036020908152604080832080546001908101909155600283528184206001600160a01b038a16855283528184208054820190556008909252909120805490910190555050505050565b3b151590565b7fbc197c81000000000000000000000000000000000000000000000000000000006001600160a01b03851663bc197c81614129612035565b888787876040518663ffffffff1660e01b815260040180866001600160a01b03168152602001856001600160a01b03168152602001806020018060200180602001848103845287818151815260200191508051906020019060200280838360005b838110156141a257818101518382015260200161418a565b50505050905001848103835286818151815260200191508051906020019060200280838360005b838110156141e15781810151838201526020016141c9565b50505050905001848103825285818151815260200191508051906020019080838360005b8381101561421d578181015183820152602001614205565b50505050905090810190601f16801561424a5780820380516001836020036101000a031916815260200191505b5098505050505050505050602060405180830381600087803b15801561426f57600080fd5b505af1158015614283573d6000803e3d6000fd5b505050506040513d602081101561429957600080fd5b50516001600160e01b03191614611801576040805162461bcd60e51b815260206004820152601b60248201527f496e76656e746f72793a207472616e7366657220726566757365640000000000604482015290519081900360640190fd5b606081614338575060408051808201909152600181527f30000000000000000000000000000000000000000000000000000000000000006020820152611508565b8160005b811561435057600101600a8204915061433c565b60008167ffffffffffffffff8111801561436957600080fd5b506040519080825280601f01601f191660200182016040528015614394576020820181803683370190505b50859350905060001982015b83156143fd57600a840660300160f81b828280600190039350815181106143c357fe5b60200101907effffffffffffffffffffffffffffffffffffffffffffffffffffffffffffff1916908160001a905350600a840493506143a0565b50949350505050565b81614458576040805162461bcd60e51b815260206004820152601560248201527f496e76656e746f72793a207a65726f2076616c75650000000000000000000000604482015290519081900360640190fd5b806144aa576040805162461bcd60e51b815260206004820152601e60248201527f496e76656e746f72793a206e6f6e2d617070726f7665642073656e6465720000604482015290519081900360640190fd5b60008381526002602090815260408083206001600160a01b038816845290915290205482811015614522576040805162461bcd60e51b815260206004820152601d60248201527f496e76656e746f72793a206e6f7420656e6f7567682062616c616e6365000000604482015290519081900360640190fd5b60008481526002602090815260408083206001600160a01b0390981683529681528682209285900390925593845260039052509190208054919091039055565b826001146145b7576040805162461bcd60e51b815260206004820152601a60248201527f496e76656e746f72793a2077726f6e67204e46542076616c7565000000000000604482015290519081900360640190fd5b6000848152600460205260409020546001600160a01b0386811690821614614626576040805162461bcd60e51b815260206004820152601860248201527f496e76656e746f72793a206e6f6e2d6f776e6564204e46540000000000000000604482015290519081900360640190fd5b826146b757600160a01b81161580159061466657506000858152600960205260409020546001600160a01b031661465b612035565b6001600160a01b0316145b6146b7576040805162461bcd60e51b815260206004820152601e60248201527f496e76656e746f72793a206e6f6e2d617070726f7665642073656e6465720000604482015290519081900360640190fd5b60008581526004602052604090207fdead000000000000000000000000000000000000000000000000000000000000905581612d2257614701866146fa876132b3565b6001614f47565b6001600160a01b03861660009081526008602052604090208054600019019055505050505050565b6001600160a01b038416614784576040805162461bcd60e51b815260206004820152601b60248201527f496e76656e746f72793a207472616e7366657220746f207a65726f0000000000604482015290519081900360640190fd5b600061478e612035565b9050600061479c8783612039565b90506147ae87878760018560006150fa565b84866001600160a01b0316886001600160a01b03167fddf252ad1be2c89b69c2b068fc378daa952ba7f163c4a11628f55a4df523b3ef60405160405180910390a4856001600160a01b0316876001600160a01b0316836001600160a01b03167fc3d58168c5ae7397731d063d5bbf3d657854427343f4c083240f7aacaa2d0f62886001604051808381526020018281526020019250505060405180910390a461485f866001600160a01b03166140eb565b156138d55761486d86614bfb565b1561488557614880878787600188614cc3565b6138d5565b82156138d5576138d587878787614dc5565b6001600160a01b0384166148f2576040805162461bcd60e51b815260206004820152601b60248201527f496e76656e746f72793a207472616e7366657220746f207a65726f0000000000604482015290519081900360640190fd5b825182518114614949576040805162461bcd60e51b815260206004820152601e60248201527f496e76656e746f72793a20696e636f6e73697374656e74206172726179730000604482015290519081900360640190fd5b6000614953612035565b905060006149618883612039565b90506000806000805b868114614a805760008a828151811061497f57fe5b602002602001015190506149928161327f565b156149bc576149b78d8d838d86815181106149a957fe5b60200260200101518a614f87565b614a77565b6149c581611fa5565b156122fd576149ec8d8d838d86815181106149dc57fe5b60200260200101518a60016150fa565b808c6001600160a01b03168e6001600160a01b03167fddf252ad1be2c89b69c2b068fc378daa952ba7f163c4a11628f55a4df523b3ef60405160405180910390a46000614a38826132b3565b905085614a4b5780955060019450614a75565b858114614a6e57614a5e8e8e888861528b565b9450600193929092019184614a75565b8460010194505b505b5060010161496a565b508215614aa057614a938b8b858561528b565b8101614aa08b8b836152df565b896001600160a01b03168b6001600160a01b0316614abc612035565b6001600160a01b03167f4a39dc06d4c0dbc64b70af90fd698a233a518aa5d07e595d983b8c0526c8f7fb8c8c604051808060200180602001838103835285818151815260200191508051906020019060200280838360005b83811015614b2c578181015183820152602001614b14565b50505050905001838103825284818151815260200191508051906020019060200280838360005b83811015614b6b578181015183820152602001614b53565b5050505090500194505050505060405180910390a4614b928a6001600160a01b03166140eb565b15613753576137538b8b8b8b8b6140f1565b60005460ff16611820576040805162461bcd60e51b815260206004820152601460248201527f5061757361626c653a206e6f7420706175736564000000000000000000000000604482015290519081900360640190fd5b604080517f4e2312e0000000000000000000000000000000000000000000000000000000006024808301919091528251808303909101815260449091018252602081810180517bffffffffffffffffffffffffffffffffffffffffffffffffffffffff167f01ffc9a7000000000000000000000000000000000000000000000000000000001781528251935160008082529485948594909392908183858b612710fa955080519450505050609e5a11614cb057fe5b828015614cba5750815b95945050505050565b7ff23a6e61000000000000000000000000000000000000000000000000000000006001600160a01b03851663f23a6e61614cfb612035565b888787876040518663ffffffff1660e01b815260040180866001600160a01b03168152602001856001600160a01b0316815260200184815260200183815260200180602001828103825283818151815260200191508051906020019080838360005b83811015614d75578181015183820152602001614d5d565b50505050905090810190601f168015614da25780820380516001836020036101000a031916815260200191505b509650505050505050602060405180830381600087803b15801561426f57600080fd5b7f150b7a02000000000000000000000000000000000000000000000000000000006001600160a01b03841663150b7a02614dfd612035565b8786866040518563ffffffff1660e01b815260040180856001600160a01b03168152602001846001600160a01b0316815260200183815260200180602001828103825283818151815260200191508051906020019080838360005b83811015614e70578181015183820152602001614e58565b50505050905090810190601f168015614e9d5780820380516001836020036101000a031916815260200191505b5095505050505050602060405180830381600087803b158015614ebf57600080fd5b505af1158015614ed3573d6000803e3d6000fd5b505050506040513d6020811015614ee957600080fd5b50516001600160e01b031916146117b0576040805162461bcd60e51b815260206004820152601b60248201527f496e76656e746f72793a207472616e7366657220726566757365640000000000604482015290519081900360640190fd5b60008281526002602090815260408083206001600160a01b0390961683529481528482208054849003905592815260039092529190208054919091039055565b80614fd9576040805162461bcd60e51b815260206004820152601e60248201527f496e76656e746f72793a206e6f6e2d617070726f7665642073656e6465720000604482015290519081900360640190fd5b8161502b576040805162461bcd60e51b815260206004820152601560248201527f496e76656e746f72793a207a65726f2076616c75650000000000000000000000604482015290519081900360640190fd5b60008381526002602090815260408083206001600160a01b0389168452909152902054828110156150a3576040805162461bcd60e51b815260206004820152601d60248201527f496e76656e746f72793a206e6f7420656e6f7567682062616c616e6365000000604482015290519081900360640190fd5b846001600160a01b0316866001600160a01b031614612d225760009384526002602090815260408086206001600160a01b039889168752909152808520918490039091559390941682529190208054909101905550565b8260011461514f576040805162461bcd60e51b815260206004820152601a60248201527f496e76656e746f72793a2077726f6e67204e46542076616c7565000000000000604482015290519081900360640190fd5b6000848152600460205260409020546001600160a01b03878116908216146151be576040805162461bcd60e51b815260206004820152601860248201527f496e76656e746f72793a206e6f6e2d6f776e6564204e46540000000000000000604482015290519081900360640190fd5b8261524f57600160a01b8116158015906151fe57506000858152600960205260409020546001600160a01b03166151f3612035565b6001600160a01b0316145b61524f576040805162461bcd60e51b815260206004820152601e60248201527f496e76656e746f72793a206e6f6e2d617070726f7665642073656e6465720000604482015290519081900360640190fd5b60008581526004602052604090206001600160a01b0387169055816138d55761527a878760016152df565b6138d58787615288886132b3565b60015b826001600160a01b0316846001600160a01b0316146117b05760009182526002602090815260408084206001600160a01b039687168552909152808320805483900390559290931681522080549091019055565b816001600160a01b0316836001600160a01b0316146117d4576001600160a01b0380841660009081526008602052604080822080548590039055918416815220805482019055505050565b60006001600160e01b031982167f01ffc9a700000000000000000000000000000000000000000000000000000000148061538d57506001600160e01b031982167fd9b67a2600000000000000000000000000000000000000000000000000000000145b806153c157506001600160e01b031982167f0e89341c00000000000000000000000000000000000000000000000000000000145b806153f557506001600160e01b031982167f09ce5c4600000000000000000000000000000000000000000000000000000000145b806115055750506001600160e01b0319167fbd85b039000000000000000000000000000000000000000000000000000000001490565b828054600181600116156101000203166002900490600052602060002090601f01602090048101928261546157600085556154a7565b82601f1061547a5782800160ff198235161785556154a7565b828001600101855582156154a7579182015b828111156154a757823582559160200191906001019061548c565b506154b39291506154b7565b5090565b5b808211156154b357600081556001016154b856fea2646970667358221220e51cce665f03c09a293fbfa5e7b66499db295e30cc7b81899f04ca9c35784fb964736f6c63430007060033",
  "linkReferences": {},
  "deployedLinkReferences": {}
}